{
  "contractName": "KanvasAvax",
  "abi": [
    {
      "inputs": [
        {
          "internalType": "address",
          "name": "ccipReceiver",
          "type": "address"
        },
        {
          "internalType": "address",
          "name": "functionOracle",
          "type": "address"
        }
      ],
      "stateMutability": "nonpayable",
      "type": "constructor"
    },
    {
      "inputs": [],
      "name": "EmptyArgs",
      "type": "error"
    },
    {
      "inputs": [],
      "name": "EmptySource",
      "type": "error"
    },
    {
      "inputs": [
        {
          "internalType": "address",
          "name": "router",
          "type": "address"
        }
      ],
      "name": "InvalidRouter",
      "type": "error"
    },
    {
      "inputs": [],
      "name": "NoInlineSecrets",
      "type": "error"
    },
    {
      "inputs": [],
      "name": "OnlyRouterCanFulfill",
      "type": "error"
    },
    {
      "anonymous": false,
      "inputs": [
        {
          "indexed": false,
          "internalType": "address",
          "name": "gameId",
          "type": "address"
        },
        {
          "indexed": false,
          "internalType": "string",
          "name": "name",
          "type": "string"
        },
        {
          "indexed": false,
          "internalType": "string",
          "name": "description",
          "type": "string"
        },
        {
          "indexed": false,
          "internalType": "string",
          "name": "avatar",
          "type": "string"
        },
        {
          "indexed": false,
          "internalType": "uint256",
          "name": "plan",
          "type": "uint256"
        },
        {
          "indexed": false,
          "internalType": "address",
          "name": "creator",
          "type": "address"
        },
        {
          "indexed": false,
          "internalType": "string",
          "name": "email",
          "type": "string"
        },
        {
          "indexed": false,
          "internalType": "string",
          "name": "website",
          "type": "string"
        }
      ],
      "name": "GameCreated",
      "type": "event"
    },
    {
      "anonymous": false,
      "inputs": [
        {
          "indexed": false,
          "internalType": "bytes32",
          "name": "requestId",
          "type": "bytes32"
        },
        {
          "indexed": false,
          "internalType": "address",
          "name": "gameId",
          "type": "address"
        },
        {
          "indexed": false,
          "internalType": "address",
          "name": "playerId",
          "type": "address"
        },
        {
          "indexed": false,
          "internalType": "enum Assets.EventType",
          "name": "eventType",
          "type": "uint8"
        },
        {
          "indexed": false,
          "internalType": "bytes",
          "name": "data",
          "type": "bytes"
        }
      ],
      "name": "GameEvent",
      "type": "event"
    },
    {
      "anonymous": false,
      "inputs": [
        {
          "indexed": true,
          "internalType": "address",
          "name": "previousOwner",
          "type": "address"
        },
        {
          "indexed": true,
          "internalType": "address",
          "name": "newOwner",
          "type": "address"
        }
      ],
      "name": "OwnershipTransferred",
      "type": "event"
    },
    {
      "anonymous": false,
      "inputs": [
        {
          "indexed": false,
          "internalType": "uint256",
          "name": "planId",
          "type": "uint256"
        },
        {
          "indexed": false,
          "internalType": "string",
          "name": "name",
          "type": "string"
        },
        {
          "indexed": false,
          "internalType": "uint256",
          "name": "cost",
          "type": "uint256"
        },
        {
          "indexed": false,
          "internalType": "string",
          "name": "color",
          "type": "string"
        },
        {
          "indexed": false,
          "internalType": "uint256",
          "name": "limit",
          "type": "uint256"
        }
      ],
      "name": "PlanCreated",
      "type": "event"
    },
    {
      "anonymous": false,
      "inputs": [
        {
          "indexed": true,
          "internalType": "bytes32",
          "name": "id",
          "type": "bytes32"
        }
      ],
      "name": "RequestFulfilled",
      "type": "event"
    },
    {
      "anonymous": false,
      "inputs": [
        {
          "indexed": true,
          "internalType": "bytes32",
          "name": "id",
          "type": "bytes32"
        }
      ],
      "name": "RequestSent",
      "type": "event"
    },
    {
      "anonymous": false,
      "inputs": [
        {
          "indexed": false,
          "internalType": "address",
          "name": "gameId",
          "type": "address"
        },
        {
          "indexed": false,
          "internalType": "string",
          "name": "templateUri",
          "type": "string"
        }
      ],
      "name": "TemplateAdded",
      "type": "event"
    },
    {
      "inputs": [],
      "name": "MAX_PROPERTIES_LEN",
      "outputs": [
        {
          "internalType": "uint256",
          "name": "",
          "type": "uint256"
        }
      ],
      "stateMutability": "view",
      "type": "function",
      "constant": true
    },
    {
      "inputs": [
        {
          "components": [
            {
              "internalType": "bytes32",
              "name": "messageId",
              "type": "bytes32"
            },
            {
              "internalType": "uint64",
              "name": "sourceChainSelector",
              "type": "uint64"
            },
            {
              "internalType": "bytes",
              "name": "sender",
              "type": "bytes"
            },
            {
              "internalType": "bytes",
              "name": "data",
              "type": "bytes"
            },
            {
              "components": [
                {
                  "internalType": "address",
                  "name": "token",
                  "type": "address"
                },
                {
                  "internalType": "uint256",
                  "name": "amount",
                  "type": "uint256"
                }
              ],
              "internalType": "struct Client.EVMTokenAmount[]",
              "name": "destTokenAmounts",
              "type": "tuple[]"
            }
          ],
          "internalType": "struct Client.Any2EVMMessage",
          "name": "message",
          "type": "tuple"
        }
      ],
      "name": "ccipReceive",
      "outputs": [],
      "stateMutability": "nonpayable",
      "type": "function"
    },
    {
      "inputs": [],
      "name": "getRouter",
      "outputs": [
        {
          "internalType": "address",
          "name": "",
          "type": "address"
        }
      ],
      "stateMutability": "view",
      "type": "function",
      "constant": true
    },
    {
      "inputs": [
        {
          "internalType": "bytes32",
          "name": "requestId",
          "type": "bytes32"
        },
        {
          "internalType": "bytes",
          "name": "response",
          "type": "bytes"
        },
        {
          "internalType": "bytes",
          "name": "err",
          "type": "bytes"
        }
      ],
      "name": "handleOracleFulfillment",
      "outputs": [],
      "stateMutability": "nonpayable",
      "type": "function"
    },
    {
      "inputs": [],
      "name": "owner",
      "outputs": [
        {
          "internalType": "address",
          "name": "",
          "type": "address"
        }
      ],
      "stateMutability": "view",
      "type": "function",
      "constant": true
    },
    {
      "inputs": [],
      "name": "renounceOwnership",
      "outputs": [],
      "stateMutability": "nonpayable",
      "type": "function"
    },
    {
      "inputs": [
        {
          "internalType": "bytes4",
          "name": "interfaceId",
          "type": "bytes4"
        }
      ],
      "name": "supportsInterface",
      "outputs": [
        {
          "internalType": "bool",
          "name": "",
          "type": "bool"
        }
      ],
      "stateMutability": "pure",
      "type": "function",
      "constant": true
    },
    {
      "inputs": [
        {
          "internalType": "address",
          "name": "newOwner",
          "type": "address"
        }
      ],
      "name": "transferOwnership",
      "outputs": [],
      "stateMutability": "nonpayable",
      "type": "function"
    },
    {
      "inputs": [
        {
          "internalType": "bytes32",
          "name": "newDonId",
          "type": "bytes32"
        }
      ],
      "name": "updateDonId",
      "outputs": [],
      "stateMutability": "nonpayable",
      "type": "function"
    },
    {
      "inputs": [
        {
          "internalType": "string",
          "name": "newSourceCode",
          "type": "string"
        }
      ],
      "name": "updateSourceCode",
      "outputs": [],
      "stateMutability": "nonpayable",
      "type": "function"
    },
    {
      "inputs": [
        {
          "internalType": "uint32",
          "name": "newLimit",
          "type": "uint32"
        }
      ],
      "name": "updateGasLimit",
      "outputs": [],
      "stateMutability": "nonpayable",
      "type": "function"
    },
    {
      "inputs": [
        {
          "internalType": "uint64",
          "name": "newSubscriptionId",
          "type": "uint64"
        }
      ],
      "name": "updateSubscriptionId",
      "outputs": [],
      "stateMutability": "nonpayable",
      "type": "function"
    },
    {
      "inputs": [],
      "name": "depositEth",
      "outputs": [],
      "stateMutability": "payable",
      "type": "function",
      "payable": true
    },
    {
      "inputs": [
        {
          "components": [
            {
              "internalType": "string",
              "name": "name",
              "type": "string"
            },
            {
              "internalType": "string",
              "name": "description",
              "type": "string"
            },
            {
              "internalType": "address",
              "name": "gameId",
              "type": "address"
            },
            {
              "internalType": "string",
              "name": "avatar",
              "type": "string"
            },
            {
              "internalType": "uint256",
              "name": "plan",
              "type": "uint256"
            },
            {
              "internalType": "string",
              "name": "email",
              "type": "string"
            },
            {
              "internalType": "string",
              "name": "website",
              "type": "string"
            }
          ],
          "internalType": "struct Params.Game",
          "name": "params",
          "type": "tuple"
        }
      ],
      "name": "createGame",
      "outputs": [],
      "stateMutability": "payable",
      "type": "function",
      "payable": true
    },
    {
      "inputs": [
        {
          "internalType": "string",
          "name": "templateUri",
          "type": "string"
        },
        {
          "internalType": "address",
          "name": "gameId",
          "type": "address"
        }
      ],
      "name": "addTemplate",
      "outputs": [],
      "stateMutability": "nonpayable",
      "type": "function"
    },
    {
      "inputs": [
        {
          "internalType": "address",
          "name": "playerId",
          "type": "address"
        },
        {
          "internalType": "string[]",
          "name": "props",
          "type": "string[]"
        },
        {
          "internalType": "string",
          "name": "fields",
          "type": "string"
        },
        {
          "internalType": "uint8",
          "name": "templateId",
          "type": "uint8"
        }
      ],
      "name": "_generateUri",
      "outputs": [],
      "stateMutability": "payable",
      "type": "function",
      "payable": true
    },
    {
      "inputs": [
        {
          "internalType": "uint64",
          "name": "chainSelector",
          "type": "uint64"
        },
        {
          "internalType": "address",
          "name": "kanvasRouter",
          "type": "address"
        }
      ],
      "name": "updateInterop",
      "outputs": [],
      "stateMutability": "nonpayable",
      "type": "function"
    },
    {
      "inputs": [
        {
          "internalType": "uint64",
          "name": "chainSelector",
          "type": "uint64"
        },
        {
          "internalType": "address",
          "name": "gameId",
          "type": "address"
        },
        {
          "internalType": "address",
          "name": "playerId",
          "type": "address"
        },
        {
          "internalType": "uint256",
          "name": "tokenId",
          "type": "uint256"
        },
        {
          "internalType": "string",
          "name": "uri",
          "type": "string"
        },
        {
          "internalType": "bytes",
          "name": "data",
          "type": "bytes"
        }
      ],
      "name": "_transferTo",
      "outputs": [],
      "stateMutability": "payable",
      "type": "function",
      "payable": true
    },
    {
      "inputs": [],
      "name": "_generateFee",
      "outputs": [
        {
          "internalType": "uint256",
          "name": "",
          "type": "uint256"
        }
      ],
      "stateMutability": "view",
      "type": "function",
      "constant": true
    },
    {
      "inputs": [],
      "name": "_bridgeFee",
      "outputs": [
        {
          "internalType": "uint256",
          "name": "",
          "type": "uint256"
        }
      ],
      "stateMutability": "view",
      "type": "function",
      "constant": true
    },
    {
      "inputs": [
        {
          "components": [
            {
              "internalType": "string",
              "name": "name",
              "type": "string"
            },
            {
              "internalType": "uint256",
              "name": "cost",
              "type": "uint256"
            },
            {
              "internalType": "string",
              "name": "color",
              "type": "string"
            },
            {
              "internalType": "uint256",
              "name": "limit",
              "type": "uint256"
            }
          ],
          "internalType": "struct Params.Plan",
          "name": "params",
          "type": "tuple"
        }
      ],
      "name": "createPlan",
      "outputs": [],
      "stateMutability": "nonpayable",
      "type": "function"
    }
  ],
  "bytecode": "0x60c0604052620493e0600260006101000a81548163ffffffff021916908363ffffffff16021790555061062c600260046101000a81548167ffffffffffffffff021916908367ffffffffffffffff1602179055507f66756e2d6176616c616e6368652d66756a692d3100000000000000000000000060001b600355600060045560006005553480156200009157600080fd5b50604051620055c8380380620055c88339818101604052810190620000b7919062000350565b8082600073ffffffffffffffffffffffffffffffffffffffff168173ffffffffffffffffffffffffffffffffffffffff16036200012e5760006040517fd7f73334000000000000000000000000000000000000000000000000000000008152600401620001259190620003a8565b60405180910390fd5b8073ffffffffffffffffffffffffffffffffffffffff1660808173ffffffffffffffffffffffffffffffffffffffff1681525050508073ffffffffffffffffffffffffffffffffffffffff1660a08173ffffffffffffffffffffffffffffffffffffffff168152505050620001b8620001ac6200021060201b60201c565b6200021860201b60201c565b620001c8620002dc60201b60201c565b600b60006101000a81548173ffffffffffffffffffffffffffffffffffffffff021916908373ffffffffffffffffffffffffffffffffffffffff1602179055505050620003c5565b600033905090565b60008060009054906101000a900473ffffffffffffffffffffffffffffffffffffffff169050816000806101000a81548173ffffffffffffffffffffffffffffffffffffffff021916908373ffffffffffffffffffffffffffffffffffffffff1602179055508173ffffffffffffffffffffffffffffffffffffffff168173ffffffffffffffffffffffffffffffffffffffff167f8be0079c531659141344cd1fd0a4f28419497f9722a3daafe3b4186f6b6457e060405160405180910390a35050565b6000608051905090565b600080fd5b600073ffffffffffffffffffffffffffffffffffffffff82169050919050565b60006200031882620002eb565b9050919050565b6200032a816200030b565b81146200033657600080fd5b50565b6000815190506200034a816200031f565b92915050565b600080604083850312156200036a5762000369620002e6565b5b60006200037a8582860162000339565b92505060206200038d8582860162000339565b9150509250929050565b620003a2816200030b565b82525050565b6000602082019050620003bf600083018462000397565b92915050565b60805160a0516151cf620003f96000396000818161053001526121e90152600081816108d50152610f3101526151cf6000f3fe60806040526004361061012a5760003560e01c806385572ffb116100ab57806392154a3d1161006f57806392154a3d14610367578063b0f479a114610390578063b3285e32146103bb578063dd3fac7c146103e4578063eee6e5731461040d578063f2fde38b146104295761012a565b806385572ffb146102a35780638b8ff358146102cc5780638cd176d5146102f75780638d6dc0eb146103205780638da5cb5b1461033c5761012a565b8063439370b1116100f2578063439370b11461021257806348f5630b1461021c5780635821feae146102475780636df0c74714610263578063715018a61461028c5761012a565b806301ffc9a71461012f57806304d5d06c1461016c5780630ca761751461019757806314b1dd1b146101c057806334303bcd146101e9575b600080fd5b34801561013b57600080fd5b5061015660048036038101906101519190612dc3565b610452565b6040516101639190612e0b565b60405180910390f35b34801561017857600080fd5b50610181610524565b60405161018e9190612e3f565b60405180910390f35b3480156101a357600080fd5b506101be60048036038101906101b99190612fd6565b61052e565b005b3480156101cc57600080fd5b506101e760048036038101906101e291906130a1565b6105f0565b005b3480156101f557600080fd5b50610210600480360381019061020b919061310a565b610624565b005b61021a610650565b005b34801561022857600080fd5b50610231610652565b60405161023e9190612e3f565b60405180910390f35b610261600480360381019061025c91906133ac565b61065c565b005b34801561026f57600080fd5b5061028a600480360381019061028591906133f5565b6108ad565b005b34801561029857600080fd5b506102a16108bf565b005b3480156102af57600080fd5b506102ca60048036038101906102c59190613446565b6108d3565b005b3480156102d857600080fd5b506102e1610978565b6040516102ee9190612e3f565b60405180910390f35b34801561030357600080fd5b5061031e6004803603810190610319919061353f565b61097d565b005b61033a60048036038101906103359190613588565b610a7a565b005b34801561034857600080fd5b50610351610e92565b60405161035e919061365c565b60405180910390f35b34801561037357600080fd5b5061038e60048036038101906103899190613677565b610ebb565b005b34801561039c57600080fd5b506103a5610f2d565b6040516103b2919061365c565b60405180910390f35b3480156103c757600080fd5b506103e260048036038101906103dd91906136b7565b610f55565b005b3480156103f057600080fd5b5061040b60048036038101906104069190613700565b610f70565b005b6104276004803603810190610422919061387b565b611090565b005b34801561043557600080fd5b50610450600480360381019061044b919061391a565b6115d2565b005b60007f85572ffb000000000000000000000000000000000000000000000000000000007bffffffffffffffffffffffffffffffffffffffffffffffffffffffff1916827bffffffffffffffffffffffffffffffffffffffffffffffffffffffff1916148061051d57507f01ffc9a7000000000000000000000000000000000000000000000000000000007bffffffffffffffffffffffffffffffffffffffffffffffffffffffff1916827bffffffffffffffffffffffffffffffffffffffffffffffffffffffff1916145b9050919050565b6000600454905090565b7f000000000000000000000000000000000000000000000000000000000000000073ffffffffffffffffffffffffffffffffffffffff163373ffffffffffffffffffffffffffffffffffffffff16146105b3576040517fc6829f8300000000000000000000000000000000000000000000000000000000815260040160405180910390fd5b6105be838383611655565b827f85e1543bf2f84fe80c6badbce3648c8539ad1df4d2b3d822938ca0538be727e660405160405180910390a2505050565b6105f86119b2565b80600260046101000a81548167ffffffffffffffff021916908367ffffffffffffffff16021790555050565b61062c6119b2565b80600260006101000a81548163ffffffff021916908363ffffffff16021790555050565b565b6000600554905090565b6000600760008360800151815260200190815260200160002060030154036106b9576040517f08c379a00000000000000000000000000000000000000000000000000000000081526004016106b0906139a4565b60405180910390fd5b6007600082608001518152602001908152602001600020600101543414610715576040517f08c379a000000000000000000000000000000000000000000000000000000000815260040161070c90613a10565b60405180910390fd5b6040518060a0016040528082600001518152602001826060015181526020018260200151815260200182608001518152602001610750611a30565b73ffffffffffffffffffffffffffffffffffffffff1681525060086000836040015173ffffffffffffffffffffffffffffffffffffffff1673ffffffffffffffffffffffffffffffffffffffff16815260200190815260200160002060008201518160000190816107c19190613c47565b5060208201518160010190816107d79190613c47565b5060408201518160020190816107ed9190613c47565b506060820151816003015560808201518160040160006101000a81548173ffffffffffffffffffffffffffffffffffffffff021916908373ffffffffffffffffffffffffffffffffffffffff1602179055509050507fea35bbd4aeddb611341e5394e07bd5ac7513bd56730a40e7e3e3eb761e155c0581604001518260000151836020015184606001518560800151610884611a30565b8760a001518860c001516040516108a2989796959493929190613d7c565b60405180910390a150565b6108b56119b2565b8060038190555050565b6108c76119b2565b6108d16000611a38565b565b7f000000000000000000000000000000000000000000000000000000000000000073ffffffffffffffffffffffffffffffffffffffff163373ffffffffffffffffffffffffffffffffffffffff161461096357336040517fd7f7333400000000000000000000000000000000000000000000000000000000815260040161095a919061365c565b60405180910390fd5b6109758161097090614010565b611afc565b50565b601481565b6109856119b2565b6006600081548092919061099890614052565b91905055506040518060800160405280826000015181526020018260200151815260200182604001518152602001826060015181525060076000600654815260200190815260200160002060008201518160000190816109f89190613c47565b50602082015181600101556040820151816002019081610a189190613c47565b50606082015181600301559050507f33c5bd102a4d38690a8d7d236985d20c88e66b73bca9de5ae6cc29376d2206fd6006548260000151836020015184604001518560600151604051610a6f95949392919061409a565b60405180910390a150565b6005543414610abe576040517f08c379a0000000000000000000000000000000000000000000000000000000008152600401610ab590614147565b60405180910390fd5b600073ffffffffffffffffffffffffffffffffffffffff16600a60008867ffffffffffffffff1667ffffffffffffffff16815260200190815260200160002060009054906101000a900473ffffffffffffffffffffffffffffffffffffffff1673ffffffffffffffffffffffffffffffffffffffff1603610b74576040517f08c379a0000000000000000000000000000000000000000000000000000000008152600401610b6b906141b3565b60405180910390fd5b60006040518060a00160405280600a60008a67ffffffffffffffff1667ffffffffffffffff16815260200190815260200160002060009054906101000a900473ffffffffffffffffffffffffffffffffffffffff16604051602001610bd9919061365c565b60405160208183030381529060405281526020018787878787604051602001610c06959493929190614228565b6040516020818303038152906040528152602001600067ffffffffffffffff811115610c3557610c34612eab565b5b604051908082528060200260200182016040528015610c6e57816020015b610c5b612c7b565b815260200190600190039081610c535790505b508152602001600073ffffffffffffffffffffffffffffffffffffffff168152602001610cb46040518060400160405280621e8480815260200160001515815250611bf5565b81525090506000600b60009054906101000a900473ffffffffffffffffffffffffffffffffffffffff1673ffffffffffffffffffffffffffffffffffffffff166320487ded89846040518363ffffffff1660e01b8152600401610d18929190614469565b602060405180830381865afa158015610d35573d6000803e3d6000fd5b505050506040513d601f19601f82011682018060405250810190610d5991906144ae565b905080471015610d9e576040517f08c379a0000000000000000000000000000000000000000000000000000000008152600401610d9590614527565b60405180910390fd5b6000600b60009054906101000a900473ffffffffffffffffffffffffffffffffffffffff1673ffffffffffffffffffffffffffffffffffffffff166396f4e9f9838b866040518463ffffffff1660e01b8152600401610dfe929190614469565b60206040518083038185885af1158015610e1c573d6000803e3d6000fd5b50505050506040513d601f19601f82011682018060405250810190610e41919061455c565b90507fe6dae862185d88c4597f4745a00933ea5be511621dcacc28511fa6029c050ccd81898960028760200151604051610e7f95949392919061460f565b60405180910390a1505050505050505050565b60008060009054906101000a900473ffffffffffffffffffffffffffffffffffffffff16905090565b610ec36119b2565b80600a60008467ffffffffffffffff1667ffffffffffffffff16815260200190815260200160002060006101000a81548173ffffffffffffffffffffffffffffffffffffffff021916908373ffffffffffffffffffffffffffffffffffffffff1602179055505050565b60007f0000000000000000000000000000000000000000000000000000000000000000905090565b610f5d6119b2565b8060019081610f6c9190613c47565b5050565b6000610f7a611a30565b90506000600860008473ffffffffffffffffffffffffffffffffffffffff1673ffffffffffffffffffffffffffffffffffffffff16815260200190815260200160002090508173ffffffffffffffffffffffffffffffffffffffff168160040160009054906101000a900473ffffffffffffffffffffffffffffffffffffffff1673ffffffffffffffffffffffffffffffffffffffff1614611051576040517f08c379a0000000000000000000000000000000000000000000000000000000008152600401611048906146b5565b60405180910390fd5b7fd7219b2d0e6067644335c8f4f82ee77c59a90a22e2916f1dce8683af8e8b07fa83856040516110829291906146d5565b60405180910390a150505050565b60045434146110d4576040517f08c379a00000000000000000000000000000000000000000000000000000000081526004016110cb90614147565b60405180910390fd5b601483511115611119576040517f08c379a000000000000000000000000000000000000000000000000000000000815260040161111090614751565b60405180910390fd5b6000611123611a30565b9050600073ffffffffffffffffffffffffffffffffffffffff16600860008373ffffffffffffffffffffffffffffffffffffffff1673ffffffffffffffffffffffffffffffffffffffff16815260200190815260200160002060040160009054906101000a900473ffffffffffffffffffffffffffffffffffffffff1673ffffffffffffffffffffffffffffffffffffffff16036111f6576040517f08c379a00000000000000000000000000000000000000000000000000000000081526004016111ed906147bd565b60405180910390fd5b6000600567ffffffffffffffff81111561121357611212612eab565b5b60405190808252806020026020018201604052801561124657816020015b60608152602001906001900390816112315790505b50905073__StringJoiner__________________________635c8656e0866040518263ffffffff1660e01b81526004016112809190614946565b600060405180830381865af415801561129d573d6000803e3d6000fd5b505050506040513d6000823e3d601f19601f820116820180604052508101906112c691906149eb565b816000815181106112da576112d9614a34565b5b602002602001018190525083816001815181106112fa576112f9614a34565b5b602002602001018190525061130e82611c74565b8160028151811061132257611321614a34565b5b602002602001018190525061133686611c74565b8160038151811061134a57611349614a34565b5b60200260200101819052506113618360ff16611ca1565b8160048151811061137557611374614a34565b5b6020026020010181905250611388612cab565b6114256001805461139890613a6a565b80601f01602080910402602001604051908101604052809291908181526020018280546113c490613a6a565b80156114115780601f106113e657610100808354040283529160200191611411565b820191906000526020600020905b8154815290600101906020018083116113f457829003601f168201915b505050505082611d6f90919063ffffffff16565b6114388282611d8090919063ffffffff16565b600061147861144683611dc8565b600260049054906101000a900467ffffffffffffffff16600260009054906101000a900463ffffffff166003546121e4565b905060405180606001604052808573ffffffffffffffffffffffffffffffffffffffff1681526020018973ffffffffffffffffffffffffffffffffffffffff168152602001600015158152506009600083815260200190815260200160002060008201518160000160006101000a81548173ffffffffffffffffffffffffffffffffffffffff021916908373ffffffffffffffffffffffffffffffffffffffff16021790555060208201518160010160006101000a81548173ffffffffffffffffffffffffffffffffffffffff021916908373ffffffffffffffffffffffffffffffffffffffff16021790555060408201518160010160146101000a81548160ff0219169083151502179055509050507fe6dae862185d88c4597f4745a00933ea5be511621dcacc28511fa6029c050ccd81858a60008a6040516115c095949392919061460f565b60405180910390a15050505050505050565b6115da6119b2565b600073ffffffffffffffffffffffffffffffffffffffff168173ffffffffffffffffffffffffffffffffffffffff1603611649576040517f08c379a000000000000000000000000000000000000000000000000000000000815260040161164090614ad5565b60405180910390fd5b61165281611a38565b50565b60006009600085815260200190815260200160002090508060010160149054906101000a900460ff16156116be576040517f08c379a00000000000000000000000000000000000000000000000000000000081526004016116b590614b41565b60405180910390fd5b600082511115611756577fe6dae862185d88c4597f4745a00933ea5be511621dcacc28511fa6029c050ccd848260000160009054906101000a900473ffffffffffffffffffffffffffffffffffffffff168360010160009054906101000a900473ffffffffffffffffffffffffffffffffffffffff1660018660405161174895949392919061460f565b60405180910390a1506119ad565b60018160010160146101000a81548160ff021916908315150217905550600073ffffffffffffffffffffffffffffffffffffffff16600860008360000160009054906101000a900473ffffffffffffffffffffffffffffffffffffffff1673ffffffffffffffffffffffffffffffffffffffff1673ffffffffffffffffffffffffffffffffffffffff16815260200190815260200160002060040160009054906101000a900473ffffffffffffffffffffffffffffffffffffffff1673ffffffffffffffffffffffffffffffffffffffff1603611868576040517f08c379a000000000000000000000000000000000000000000000000000000000815260040161185f906147bd565b60405180910390fd5b60008160000160009054906101000a900473ffffffffffffffffffffffffffffffffffffffff1690508073ffffffffffffffffffffffffffffffffffffffff16638f9c39568360010160009054906101000a900473ffffffffffffffffffffffffffffffffffffffff16866040518363ffffffff1660e01b81526004016118f09291906146d5565b600060405180830381600087803b15801561190a57600080fd5b505af115801561191e573d6000803e3d6000fd5b505050507fe6dae862185d88c4597f4745a00933ea5be511621dcacc28511fa6029c050ccd858360000160009054906101000a900473ffffffffffffffffffffffffffffffffffffffff168460010160009054906101000a900473ffffffffffffffffffffffffffffffffffffffff166001886040516119a295949392919061460f565b60405180910390a150505b505050565b6119ba611a30565b73ffffffffffffffffffffffffffffffffffffffff166119d8610e92565b73ffffffffffffffffffffffffffffffffffffffff1614611a2e576040517f08c379a0000000000000000000000000000000000000000000000000000000008152600401611a2590614bad565b60405180910390fd5b565b600033905090565b60008060009054906101000a900473ffffffffffffffffffffffffffffffffffffffff169050816000806101000a81548173ffffffffffffffffffffffffffffffffffffffff021916908373ffffffffffffffffffffffffffffffffffffffff1602179055508173ffffffffffffffffffffffffffffffffffffffff168173ffffffffffffffffffffffffffffffffffffffff167f8be0079c531659141344cd1fd0a4f28419497f9722a3daafe3b4186f6b6457e060405160405180910390a35050565b60008060008060008560600151806020019051810190611b1c9190614c7b565b9450945094509450945060008590508073ffffffffffffffffffffffffffffffffffffffff16636d4195fb886020015188888888886040518763ffffffff1660e01b8152600401611b7296959493929190614d2e565b600060405180830381600087803b158015611b8c57600080fd5b505af1158015611ba0573d6000803e3d6000fd5b505050507fe6dae862185d88c4597f4745a00933ea5be511621dcacc28511fa6029c050ccd8760000151878760038b60600151604051611be495949392919061460f565b60405180910390a150505050505050565b60606397a657c960e01b82604051602401611c109190614ddb565b604051602081830303815290604052907bffffffffffffffffffffffffffffffffffffffffffffffffffffffff19166020820180517bffffffffffffffffffffffffffffffffffffffffffffffffffffffff83818316178352505050509050919050565b6060611c9a8273ffffffffffffffffffffffffffffffffffffffff16601460ff166122c7565b9050919050565b606060006001611cb084612503565b01905060008167ffffffffffffffff811115611ccf57611cce612eab565b5b6040519080825280601f01601f191660200182016040528015611d015781602001600182028036833780820191505090505b509050600082602001820190505b600115611d64578080600190039150507f3031323334353637383961626364656600000000000000000000000000000000600a86061a8153600a8581611d5857611d57614df6565b5b04945060008503611d0f575b819350505050919050565b611d7c8260008084612656565b5050565b6000815103611dbb576040517ffe936cb700000000000000000000000000000000000000000000000000000000815260040160405180910390fd5b808260a001819052505050565b60606000611dd7610100612700565b9050611e216040518060400160405280600c81526020017f636f64654c6f636174696f6e00000000000000000000000000000000000000008152508261272790919063ffffffff16565b611e4a83600001516002811115611e3b57611e3a614598565b5b8261275090919063ffffffff16565b611e926040518060400160405280600881526020017f6c616e67756167650000000000000000000000000000000000000000000000008152508261272790919063ffffffff16565b611ebb83604001516000811115611eac57611eab614598565b5b8261275090919063ffffffff16565b611f036040518060400160405280600681526020017f736f7572636500000000000000000000000000000000000000000000000000008152508261272790919063ffffffff16565b611f1a83606001518261272790919063ffffffff16565b60008360a00151511115611fd657611f706040518060400160405280600481526020017f61726773000000000000000000000000000000000000000000000000000000008152508261272790919063ffffffff16565b611f79816127a0565b60005b8360a0015151811015611fcb57611fba8460a001518281518110611fa357611fa2614a34565b5b60200260200101518361272790919063ffffffff16565b80611fc490614052565b9050611f7c565b50611fd5816127c8565b5b600083608001515111156121175760006002811115611ff857611ff7614598565b5b8360200151600281111561200f5761200e614598565b5b03612046576040517fa80d31f700000000000000000000000000000000000000000000000000000000815260040160405180910390fd5b61208e6040518060400160405280600f81526020017f736563726574734c6f636174696f6e00000000000000000000000000000000008152508261272790919063ffffffff16565b6120b7836020015160028111156120a8576120a7614598565b5b8261275090919063ffffffff16565b6120ff6040518060400160405280600781526020017f73656372657473000000000000000000000000000000000000000000000000008152508261272790919063ffffffff16565b6121168360800151826127f090919063ffffffff16565b5b60008360c001515111156121d35761216d6040518060400160405280600981526020017f62797465734172677300000000000000000000000000000000000000000000008152508261272790919063ffffffff16565b612176816127a0565b60005b8360c00151518110156121c8576121b78460c0015182815181106121a05761219f614a34565b5b6020026020010151836127f090919063ffffffff16565b806121c190614052565b9050612179565b506121d2816127c8565b5b806000015160000151915050919050565b6000807f000000000000000000000000000000000000000000000000000000000000000073ffffffffffffffffffffffffffffffffffffffff1663461d27628688600188886040518663ffffffff1660e01b8152600401612249959493929190614e51565b6020604051808303816000875af1158015612268573d6000803e3d6000fd5b505050506040513d601f19601f8201168201806040525081019061228c919061455c565b9050807f1131472297a800fee664d1d89cfa8f7676ff07189ecc53f80bbb5f4969099db860405160405180910390a280915050949350505050565b6060600060028360026122da9190614eab565b6122e49190614eed565b67ffffffffffffffff8111156122fd576122fc612eab565b5b6040519080825280601f01601f19166020018201604052801561232f5781602001600182028036833780820191505090505b5090507f30000000000000000000000000000000000000000000000000000000000000008160008151811061236757612366614a34565b5b60200101907effffffffffffffffffffffffffffffffffffffffffffffffffffffffffffff1916908160001a9053507f7800000000000000000000000000000000000000000000000000000000000000816001815181106123cb576123ca614a34565b5b60200101907effffffffffffffffffffffffffffffffffffffffffffffffffffffffffffff1916908160001a9053506000600184600261240b9190614eab565b6124159190614eed565b90505b60018111156124b5577f3031323334353637383961626364656600000000000000000000000000000000600f86166010811061245757612456614a34565b5b1a60f81b82828151811061246e5761246d614a34565b5b60200101907effffffffffffffffffffffffffffffffffffffffffffffffffffffffffffff1916908160001a905350600485901c9450806124ae90614f21565b9050612418565b50600084146124f9576040517f08c379a00000000000000000000000000000000000000000000000000000000081526004016124f090614f96565b60405180910390fd5b8091505092915050565b600080600090507a184f03e93ff9f4daa797ed6e38ed64bf6a1f0100000000000000008310612561577a184f03e93ff9f4daa797ed6e38ed64bf6a1f010000000000000000838161255757612556614df6565b5b0492506040810190505b6d04ee2d6d415b85acef8100000000831061259e576d04ee2d6d415b85acef8100000000838161259457612593614df6565b5b0492506020810190505b662386f26fc1000083106125cd57662386f26fc1000083816125c3576125c2614df6565b5b0492506010810190505b6305f5e10083106125f6576305f5e10083816125ec576125eb614df6565b5b0492506008810190505b612710831061261b57612710838161261157612610614df6565b5b0492506004810190505b6064831061263e576064838161263457612633614df6565b5b0492506002810190505b600a831061264d576001810190505b80915050919050565b6000815103612691576040517f22ce3edd00000000000000000000000000000000000000000000000000000000815260040160405180910390fd5b82846000019060028111156126a9576126a8614598565b5b908160028111156126bd576126bc614598565b5b8152505081846040019060008111156126d9576126d8614598565b5b908160008111156126ed576126ec614598565b5b8152505080846060018190525050505050565b612708612d1d565b612716816000015183612819565b506000816020018181525050919050565b6127348260038351612892565b61274b818360000151612a3b90919063ffffffff16565b505050565b61277260026005600660ff16901b178360000151612a5790919063ffffffff16565b5061279c82826040516020016127889190612e3f565b6040516020818303038152906040526127f0565b5050565b6127ab816004612ac1565b6001816020018181516127be9190614eed565b9150818152505050565b6127d3816007612ac1565b6001816020018181516127e69190614fb6565b9150818152505050565b6127fd8260028351612892565b612814818360000151612a3b90919063ffffffff16565b505050565b612821612d3d565b60006020836128309190614fea565b1461285c576020826128429190614fea565b602061284e9190614fb6565b826128599190614eed565b91505b81836020018181525050604051808452600081528281016020018181101561288357600080fd5b80604052505082905092915050565b60178167ffffffffffffffff16116128cd576128c78160058460ff16901b60ff16178460000151612a5790919063ffffffff16565b50612a36565b60ff8167ffffffffffffffff161161292b57612900601860058460ff16901b178460000151612a5790919063ffffffff16565b506129258167ffffffffffffffff1660018560000151612ae79092919063ffffffff16565b50612a35565b61ffff8167ffffffffffffffff161161298a5761295f601960058460ff16901b178460000151612a5790919063ffffffff16565b506129848167ffffffffffffffff1660028560000151612ae79092919063ffffffff16565b50612a34565b63ffffffff8167ffffffffffffffff16116129eb576129c0601a60058460ff16901b178460000151612a5790919063ffffffff16565b506129e58167ffffffffffffffff1660048560000151612ae79092919063ffffffff16565b50612a33565b612a0c601b60058460ff16901b178460000151612a5790919063ffffffff16565b50612a318167ffffffffffffffff1660088560000151612ae79092919063ffffffff16565b505b5b5b5b505050565b612a43612d3d565b612a4f83838451612b74565b905092915050565b612a5f612d3d565b600083600001515190506000600182612a789190614eed565b905084602001518210612a9c57612a9b85600283612a969190614eab565b612c57565b5b84516020838201018581538151831115612ab4578282525b5050849250505092915050565b612ae2601f60058360ff16901b178360000151612a5790919063ffffffff16565b505050565b612aef612d3d565b6000846000015151905060008184612b079190614eed565b90508560200151811115612b2c57612b2b86600283612b269190614eab565b612c57565b5b6000600185610100612b3e919061514e565b612b489190614fb6565b905086518281018783198251161781528151841115612b65578382525b50508693505050509392505050565b612b7c612d3d565b8251821115612b8a57600080fd5b6000846000015151905060008382612ba29190614eed565b90508560200151811115612bc757612bc686600283612bc19190614eab565b612c57565b5b60008087518051856020830101935080851115612be2578482525b60208901925050505b60208610612c295780518252602082612c049190614eed565b9150602081612c139190614eed565b9050602086612c229190614fb6565b9550612beb565b60006001876020036101000a0390508019825116818451168181178552505050879450505050509392505050565b600082600001519050612c6a8383612819565b50612c758382612a3b565b50505050565b6040518060400160405280600073ffffffffffffffffffffffffffffffffffffffff168152602001600081525090565b6040518060e0016040528060006002811115612cca57612cc9614598565b5b815260200160006002811115612ce357612ce2614598565b5b8152602001600080811115612cfb57612cfa614598565b5b8152602001606081526020016060815260200160608152602001606081525090565b6040518060400160405280612d30612d3d565b8152602001600081525090565b604051806040016040528060608152602001600081525090565b6000604051905090565b600080fd5b600080fd5b60007fffffffff0000000000000000000000000000000000000000000000000000000082169050919050565b612da081612d6b565b8114612dab57600080fd5b50565b600081359050612dbd81612d97565b92915050565b600060208284031215612dd957612dd8612d61565b5b6000612de784828501612dae565b91505092915050565b60008115159050919050565b612e0581612df0565b82525050565b6000602082019050612e206000830184612dfc565b92915050565b6000819050919050565b612e3981612e26565b82525050565b6000602082019050612e546000830184612e30565b92915050565b6000819050919050565b612e6d81612e5a565b8114612e7857600080fd5b50565b600081359050612e8a81612e64565b92915050565b600080fd5b600080fd5b6000601f19601f8301169050919050565b7f4e487b7100000000000000000000000000000000000000000000000000000000600052604160045260246000fd5b612ee382612e9a565b810181811067ffffffffffffffff82111715612f0257612f01612eab565b5b80604052505050565b6000612f15612d57565b9050612f218282612eda565b919050565b600067ffffffffffffffff821115612f4157612f40612eab565b5b612f4a82612e9a565b9050602081019050919050565b82818337600083830152505050565b6000612f79612f7484612f26565b612f0b565b905082815260208101848484011115612f9557612f94612e95565b5b612fa0848285612f57565b509392505050565b600082601f830112612fbd57612fbc612e90565b5b8135612fcd848260208601612f66565b91505092915050565b600080600060608486031215612fef57612fee612d61565b5b6000612ffd86828701612e7b565b935050602084013567ffffffffffffffff81111561301e5761301d612d66565b5b61302a86828701612fa8565b925050604084013567ffffffffffffffff81111561304b5761304a612d66565b5b61305786828701612fa8565b9150509250925092565b600067ffffffffffffffff82169050919050565b61307e81613061565b811461308957600080fd5b50565b60008135905061309b81613075565b92915050565b6000602082840312156130b7576130b6612d61565b5b60006130c58482850161308c565b91505092915050565b600063ffffffff82169050919050565b6130e7816130ce565b81146130f257600080fd5b50565b600081359050613104816130de565b92915050565b6000602082840312156131205761311f612d61565b5b600061312e848285016130f5565b91505092915050565b600080fd5b600080fd5b600067ffffffffffffffff82111561315c5761315b612eab565b5b61316582612e9a565b9050602081019050919050565b600061318561318084613141565b612f0b565b9050828152602081018484840111156131a1576131a0612e95565b5b6131ac848285612f57565b509392505050565b600082601f8301126131c9576131c8612e90565b5b81356131d9848260208601613172565b91505092915050565b600073ffffffffffffffffffffffffffffffffffffffff82169050919050565b600061320d826131e2565b9050919050565b61321d81613202565b811461322857600080fd5b50565b60008135905061323a81613214565b92915050565b61324981612e26565b811461325457600080fd5b50565b60008135905061326681613240565b92915050565b600060e0828403121561328257613281613137565b5b61328c60e0612f0b565b9050600082013567ffffffffffffffff8111156132ac576132ab61313c565b5b6132b8848285016131b4565b600083015250602082013567ffffffffffffffff8111156132dc576132db61313c565b5b6132e8848285016131b4565b60208301525060406132fc8482850161322b565b604083015250606082013567ffffffffffffffff8111156133205761331f61313c565b5b61332c848285016131b4565b606083015250608061334084828501613257565b60808301525060a082013567ffffffffffffffff8111156133645761336361313c565b5b613370848285016131b4565b60a08301525060c082013567ffffffffffffffff8111156133945761339361313c565b5b6133a0848285016131b4565b60c08301525092915050565b6000602082840312156133c2576133c1612d61565b5b600082013567ffffffffffffffff8111156133e0576133df612d66565b5b6133ec8482850161326c565b91505092915050565b60006020828403121561340b5761340a612d61565b5b600061341984828501612e7b565b91505092915050565b600080fd5b600060a0828403121561343d5761343c613422565b5b81905092915050565b60006020828403121561345c5761345b612d61565b5b600082013567ffffffffffffffff81111561347a57613479612d66565b5b61348684828501613427565b91505092915050565b6000608082840312156134a5576134a4613137565b5b6134af6080612f0b565b9050600082013567ffffffffffffffff8111156134cf576134ce61313c565b5b6134db848285016131b4565b60008301525060206134ef84828501613257565b602083015250604082013567ffffffffffffffff8111156135135761351261313c565b5b61351f848285016131b4565b604083015250606061353384828501613257565b60608301525092915050565b60006020828403121561355557613554612d61565b5b600082013567ffffffffffffffff81111561357357613572612d66565b5b61357f8482850161348f565b91505092915050565b60008060008060008060c087890312156135a5576135a4612d61565b5b60006135b389828a0161308c565b96505060206135c489828a0161322b565b95505060406135d589828a0161322b565b94505060606135e689828a01613257565b935050608087013567ffffffffffffffff81111561360757613606612d66565b5b61361389828a016131b4565b92505060a087013567ffffffffffffffff81111561363457613633612d66565b5b61364089828a01612fa8565b9150509295509295509295565b61365681613202565b82525050565b6000602082019050613671600083018461364d565b92915050565b6000806040838503121561368e5761368d612d61565b5b600061369c8582860161308c565b92505060206136ad8582860161322b565b9150509250929050565b6000602082840312156136cd576136cc612d61565b5b600082013567ffffffffffffffff8111156136eb576136ea612d66565b5b6136f7848285016131b4565b91505092915050565b6000806040838503121561371757613716612d61565b5b600083013567ffffffffffffffff81111561373557613734612d66565b5b613741858286016131b4565b92505060206137528582860161322b565b9150509250929050565b600067ffffffffffffffff82111561377757613776612eab565b5b602082029050602081019050919050565b600080fd5b60006137a061379b8461375c565b612f0b565b905080838252602082019050602084028301858111156137c3576137c2613788565b5b835b8181101561380a57803567ffffffffffffffff8111156137e8576137e7612e90565b5b8086016137f589826131b4565b855260208501945050506020810190506137c5565b5050509392505050565b600082601f83011261382957613828612e90565b5b813561383984826020860161378d565b91505092915050565b600060ff82169050919050565b61385881613842565b811461386357600080fd5b50565b6000813590506138758161384f565b92915050565b6000806000806080858703121561389557613894612d61565b5b60006138a38782880161322b565b945050602085013567ffffffffffffffff8111156138c4576138c3612d66565b5b6138d087828801613814565b935050604085013567ffffffffffffffff8111156138f1576138f0612d66565b5b6138fd878288016131b4565b925050606061390e87828801613866565b91505092959194509250565b6000602082840312156139305761392f612d61565b5b600061393e8482850161322b565b91505092915050565b600082825260208201905092915050565b7f496e76616c696420706c616e0000000000000000000000000000000000000000600082015250565b600061398e600c83613947565b915061399982613958565b602082019050919050565b600060208201905081810360008301526139bd81613981565b9050919050565b7f496e73756666696369656e742066756e64730000000000000000000000000000600082015250565b60006139fa601283613947565b9150613a05826139c4565b602082019050919050565b60006020820190508181036000830152613a29816139ed565b9050919050565b600081519050919050565b7f4e487b7100000000000000000000000000000000000000000000000000000000600052602260045260246000fd5b60006002820490506001821680613a8257607f821691505b602082108103613a9557613a94613a3b565b5b50919050565b60008190508160005260206000209050919050565b60006020601f8301049050919050565b600082821b905092915050565b600060088302613afd7fffffffffffffffffffffffffffffffffffffffffffffffffffffffffffffffff82613ac0565b613b078683613ac0565b95508019841693508086168417925050509392505050565b6000819050919050565b6000613b44613b3f613b3a84612e26565b613b1f565b612e26565b9050919050565b6000819050919050565b613b5e83613b29565b613b72613b6a82613b4b565b848454613acd565b825550505050565b600090565b613b87613b7a565b613b92818484613b55565b505050565b5b81811015613bb657613bab600082613b7f565b600181019050613b98565b5050565b601f821115613bfb57613bcc81613a9b565b613bd584613ab0565b81016020851015613be4578190505b613bf8613bf085613ab0565b830182613b97565b50505b505050565b600082821c905092915050565b6000613c1e60001984600802613c00565b1980831691505092915050565b6000613c378383613c0d565b9150826002028217905092915050565b613c5082613a30565b67ffffffffffffffff811115613c6957613c68612eab565b5b613c738254613a6a565b613c7e828285613bba565b600060209050601f831160018114613cb15760008415613c9f578287015190505b613ca98582613c2b565b865550613d11565b601f198416613cbf86613a9b565b60005b82811015613ce757848901518255600182019150602085019450602081019050613cc2565b86831015613d045784890151613d00601f891682613c0d565b8355505b6001600288020188555050505b505050505050565b60005b83811015613d37578082015181840152602081019050613d1c565b60008484015250505050565b6000613d4e82613a30565b613d588185613947565b9350613d68818560208601613d19565b613d7181612e9a565b840191505092915050565b600061010082019050613d92600083018b61364d565b8181036020830152613da4818a613d43565b90508181036040830152613db88189613d43565b90508181036060830152613dcc8188613d43565b9050613ddb6080830187612e30565b613de860a083018661364d565b81810360c0830152613dfa8185613d43565b905081810360e0830152613e0e8184613d43565b90509998505050505050505050565b600067ffffffffffffffff821115613e3857613e37612eab565b5b602082029050602081019050919050565b600060408284031215613e5f57613e5e613137565b5b613e696040612f0b565b90506000613e798482850161322b565b6000830152506020613e8d84828501613257565b60208301525092915050565b6000613eac613ea784613e1d565b612f0b565b90508083825260208201905060408402830185811115613ecf57613ece613788565b5b835b81811015613ef85780613ee48882613e49565b845260208401935050604081019050613ed1565b5050509392505050565b600082601f830112613f1757613f16612e90565b5b8135613f27848260208601613e99565b91505092915050565b600060a08284031215613f4657613f45613137565b5b613f5060a0612f0b565b90506000613f6084828501612e7b565b6000830152506020613f748482850161308c565b602083015250604082013567ffffffffffffffff811115613f9857613f9761313c565b5b613fa484828501612fa8565b604083015250606082013567ffffffffffffffff811115613fc857613fc761313c565b5b613fd484828501612fa8565b606083015250608082013567ffffffffffffffff811115613ff857613ff761313c565b5b61400484828501613f02565b60808301525092915050565b600061401c3683613f30565b9050919050565b7f4e487b7100000000000000000000000000000000000000000000000000000000600052601160045260246000fd5b600061405d82612e26565b91507fffffffffffffffffffffffffffffffffffffffffffffffffffffffffffffffff820361408f5761408e614023565b5b600182019050919050565b600060a0820190506140af6000830188612e30565b81810360208301526140c18187613d43565b90506140d06040830186612e30565b81810360608301526140e28185613d43565b90506140f16080830184612e30565b9695505050505050565b7f696e76616c6964204b616e766173206665650000000000000000000000000000600082015250565b6000614131601283613947565b915061413c826140fb565b602082019050919050565b6000602082019050818103600083015261416081614124565b9050919050565b7f436861696e206e6f7420737570706f7274656400000000000000000000000000600082015250565b600061419d601383613947565b91506141a882614167565b602082019050919050565b600060208201905081810360008301526141cc81614190565b9050919050565b600081519050919050565b600082825260208201905092915050565b60006141fa826141d3565b61420481856141de565b9350614214818560208601613d19565b61421d81612e9a565b840191505092915050565b600060a08201905061423d600083018861364d565b61424a602083018761364d565b6142576040830186612e30565b81810360608301526142698185613d43565b9050818103608083015261427d81846141ef565b90509695505050505050565b61429281613061565b82525050565b600082825260208201905092915050565b60006142b4826141d3565b6142be8185614298565b93506142ce818560208601613d19565b6142d781612e9a565b840191505092915050565b600081519050919050565b600082825260208201905092915050565b6000819050602082019050919050565b61431781613202565b82525050565b61432681612e26565b82525050565b604082016000820151614342600085018261430e565b506020820151614355602085018261431d565b50505050565b6000614367838361432c565b60408301905092915050565b6000602082019050919050565b600061438b826142e2565b61439581856142ed565b93506143a0836142fe565b8060005b838110156143d15781516143b8888261435b565b97506143c383614373565b9250506001810190506143a4565b5085935050505092915050565b600060a08301600083015184820360008601526143fb82826142a9565b9150506020830151848203602086015261441582826142a9565b9150506040830151848203604086015261442f8282614380565b9150506060830151614444606086018261430e565b506080830151848203608086015261445c82826142a9565b9150508091505092915050565b600060408201905061447e6000830185614289565b818103602083015261449081846143de565b90509392505050565b6000815190506144a881613240565b92915050565b6000602082840312156144c4576144c3612d61565b5b60006144d284828501614499565b91505092915050565b7f496e73756666696369656e742066656500000000000000000000000000000000600082015250565b6000614511601083613947565b915061451c826144db565b602082019050919050565b6000602082019050818103600083015261454081614504565b9050919050565b60008151905061455681612e64565b92915050565b60006020828403121561457257614571612d61565b5b600061458084828501614547565b91505092915050565b61459281612e5a565b82525050565b7f4e487b7100000000000000000000000000000000000000000000000000000000600052602160045260246000fd5b600481106145d8576145d7614598565b5b50565b60008190506145e9826145c7565b919050565b60006145f9826145db565b9050919050565b614609816145ee565b82525050565b600060a0820190506146246000830188614589565b614631602083018761364d565b61463e604083018661364d565b61464b6060830185614600565b818103608083015261465d81846141ef565b90509695505050505050565b7f556e417574686f72697a65640000000000000000000000000000000000000000600082015250565b600061469f600c83613947565b91506146aa82614669565b602082019050919050565b600060208201905081810360008301526146ce81614692565b9050919050565b60006040820190506146ea600083018561364d565b81810360208301526146fc8184613d43565b90509392505050565b7f546f6f206d616e79206174747269627574657300000000000000000000000000600082015250565b600061473b601383613947565b915061474682614705565b602082019050919050565b6000602082019050818103600083015261476a8161472e565b9050919050565b7f47616d65204e6f7420466f756e64000000000000000000000000000000000000600082015250565b60006147a7600e83613947565b91506147b282614771565b602082019050919050565b600060208201905081810360008301526147d68161479a565b9050919050565b600081519050919050565b600082825260208201905092915050565b6000819050602082019050919050565b600082825260208201905092915050565b600061482582613a30565b61482f8185614809565b935061483f818560208601613d19565b61484881612e9a565b840191505092915050565b600061485f838361481a565b905092915050565b6000602082019050919050565b600061487f826147dd565b61488981856147e8565b93508360208202850161489b856147f9565b8060005b858110156148d757848403895281516148b88582614853565b94506148c383614867565b925060208a0199505060018101905061489f565b50829750879550505050505092915050565b600082825260208201905092915050565b7f2c00000000000000000000000000000000000000000000000000000000000000600082015250565b60006149306001836148e9565b915061493b826148fa565b602082019050919050565b600060408201905081810360008301526149608184614874565b9050818103602083015261497381614923565b905092915050565b600061498e61498984613141565b612f0b565b9050828152602081018484840111156149aa576149a9612e95565b5b6149b5848285613d19565b509392505050565b600082601f8301126149d2576149d1612e90565b5b81516149e284826020860161497b565b91505092915050565b600060208284031215614a0157614a00612d61565b5b600082015167ffffffffffffffff811115614a1f57614a1e612d66565b5b614a2b848285016149bd565b91505092915050565b7f4e487b7100000000000000000000000000000000000000000000000000000000600052603260045260246000fd5b7f4f776e61626c653a206e6577206f776e657220697320746865207a65726f206160008201527f6464726573730000000000000000000000000000000000000000000000000000602082015250565b6000614abf602683613947565b9150614aca82614a63565b604082019050919050565b60006020820190508181036000830152614aee81614ab2565b9050919050565b7f416c72656164792066756c66696c6c6564000000000000000000000000000000600082015250565b6000614b2b601183613947565b9150614b3682614af5565b602082019050919050565b60006020820190508181036000830152614b5a81614b1e565b9050919050565b7f4f776e61626c653a2063616c6c6572206973206e6f7420746865206f776e6572600082015250565b6000614b97602083613947565b9150614ba282614b61565b602082019050919050565b60006020820190508181036000830152614bc681614b8a565b9050919050565b6000614bd8826131e2565b9050919050565b614be881614bcd565b8114614bf357600080fd5b50565b600081519050614c0581614bdf565b92915050565b6000614c1e614c1984612f26565b612f0b565b905082815260208101848484011115614c3a57614c39612e95565b5b614c45848285613d19565b509392505050565b600082601f830112614c6257614c61612e90565b5b8151614c72848260208601614c0b565b91505092915050565b600080600080600060a08688031215614c9757614c96612d61565b5b6000614ca588828901614bf6565b9550506020614cb688828901614bf6565b9450506040614cc788828901614499565b935050606086015167ffffffffffffffff811115614ce857614ce7612d66565b5b614cf4888289016149bd565b925050608086015167ffffffffffffffff811115614d1557614d14612d66565b5b614d2188828901614c4d565b9150509295509295909350565b600060c082019050614d436000830189614289565b614d50602083018861364d565b614d5d604083018761364d565b614d6a6060830186612e30565b8181036080830152614d7c8185613d43565b905081810360a0830152614d9081846141ef565b9050979650505050505050565b614da681612df0565b82525050565b604082016000820151614dc2600085018261431d565b506020820151614dd56020850182614d9d565b50505050565b6000604082019050614df06000830184614dac565b92915050565b7f4e487b7100000000000000000000000000000000000000000000000000000000600052601260045260246000fd5b600061ffff82169050919050565b614e3c81614e25565b82525050565b614e4b816130ce565b82525050565b600060a082019050614e666000830188614289565b8181036020830152614e7881876141ef565b9050614e876040830186614e33565b614e946060830185614e42565b614ea16080830184614589565b9695505050505050565b6000614eb682612e26565b9150614ec183612e26565b9250828202614ecf81612e26565b91508282048414831517614ee657614ee5614023565b5b5092915050565b6000614ef882612e26565b9150614f0383612e26565b9250828201905080821115614f1b57614f1a614023565b5b92915050565b6000614f2c82612e26565b915060008203614f3f57614f3e614023565b5b600182039050919050565b7f537472696e67733a20686578206c656e67746820696e73756666696369656e74600082015250565b6000614f80602083613947565b9150614f8b82614f4a565b602082019050919050565b60006020820190508181036000830152614faf81614f73565b9050919050565b6000614fc182612e26565b9150614fcc83612e26565b9250828203905081811115614fe457614fe3614023565b5b92915050565b6000614ff582612e26565b915061500083612e26565b9250826150105761500f614df6565b5b828206905092915050565b60008160011c9050919050565b6000808291508390505b60018511156150725780860481111561504e5761504d614023565b5b600185161561505d5780820291505b808102905061506b8561501b565b9450615032565b94509492505050565b60008261508b5760019050615147565b816150995760009050615147565b81600181146150af57600281146150b9576150e8565b6001915050615147565b60ff8411156150cb576150ca614023565b5b8360020a9150848211156150e2576150e1614023565b5b50615147565b5060208310610133831016604e8410600b841016171561511d5782820a90508381111561511857615117614023565b5b615147565b61512a8484846001615028565b9250905081840481111561514157615140614023565b5b81810290505b9392505050565b600061515982612e26565b915061516483612e26565b92506151917fffffffffffffffffffffffffffffffffffffffffffffffffffffffffffffffff848461507b565b90509291505056fea2646970667358221220435a25dd7f8a2eb55296afa004c1ee8e396f1e5f499d339a15cee6d01fab175064736f6c63430008130033",
  "immutableReferences": {
    "14": [
      {
        "length": 32,
        "start": 2261
      },
      {
        "length": 32,
        "start": 3889
      }
    ],
    "6623": [
      {
        "length": 32,
        "start": 1328
      },
      {
        "length": 32,
        "start": 8681
      }
    ]
  },
  "source": "// SPDX-License-Identifier: MIT\r\npragma solidity ^0.8.19;\r\n\r\nimport {Assets} from \"./libraries/Assets.sol\";\r\nimport {Params} from \"./libraries/Params.sol\";\r\nimport {IKanvasAvax} from \"./interfaces/IKanvasAvax.sol\";\r\nimport {IKanvasGame} from \"./interfaces/IKanvasGame.sol\";\r\nimport {IKanvasInteropGame} from \"./interfaces/IKanvasInteropGame.sol\";\r\nimport {StringJoiner} from \"./libraries/StringJoiner.sol\";\r\n\r\nimport {Strings} from \"@openzeppelin/contracts/utils/Strings.sol\";\r\nimport {Ownable} from \"@openzeppelin/contracts/access/Ownable.sol\";\r\nimport {Context} from \"@openzeppelin/contracts/utils/Context.sol\";\r\n\r\nimport {FunctionsClient} from \"./chainlink/FunctionsClient.sol\";\r\nimport {FunctionsRequest} from \"@chainlink/contracts/src/v0.8/functions/dev/v1_0_0/libraries/FunctionsRequest.sol\";\r\n\r\nimport {Client} from \"@chainlink/contracts-ccip/src/v0.8/ccip/libraries/Client.sol\";\r\nimport {CCIPReceiver} from \"@chainlink/contracts-ccip/src/v0.8/ccip/applications/CCIPReceiver.sol\";\r\nimport {IRouterClient} from \"@chainlink/contracts-ccip/src/v0.8/ccip/interfaces/IRouterClient.sol\";\r\n\r\ncontract KanvasAvax is\r\n    IKanvasAvax,\r\n    Context,\r\n    CCIPReceiver,\r\n    FunctionsClient,\r\n    Ownable\r\n{\r\n    using FunctionsRequest for FunctionsRequest.Request;\r\n\r\n    uint256 public constant MAX_PROPERTIES_LEN = 20;\r\n\r\n    // Javascript Chainlink functions source code\r\n    string private _sourceCode;\r\n\r\n    // Chainlink functions fulfill callback gas limit\r\n    uint32 private _gasLimit = 300_000;\r\n\r\n    // Chainlink Avalanche Subscription Id\r\n    uint64 private _subscriptionId = 1580;\r\n\r\n    // Chainlink Avalache DON Id\r\n    bytes32 private _donId =\r\n        0x66756e2d6176616c616e6368652d66756a692d31000000000000000000000000;\r\n\r\n    // for testing purpose the generation fee is free\r\n    uint256 private _kanvasGenerateFee = 0; // 3000000000000000\r\n\r\n    // for testing purpose the bridge fee is free\r\n    uint256 private _kanvasBridgeFee = 0; // 8000000000000000\r\n\r\n    uint256 private _planId;\r\n    mapping(uint256 => Assets.Plan) private _plans;\r\n\r\n    mapping(address => Assets.Game) private _games;\r\n\r\n    mapping(bytes32 => Assets.Request) private _requests;\r\n\r\n    mapping(uint64 => address) private _interops;\r\n\r\n    IRouterClient private _router;\r\n\r\n    constructor(\r\n        address ccipReceiver,\r\n        address functionOracle\r\n    ) CCIPReceiver(ccipReceiver) Ownable() FunctionsClient(functionOracle) {\r\n        _router = IRouterClient(getRouter());\r\n    }\r\n\r\n    function updateDonId(bytes32 newDonId) external onlyOwner {\r\n        _donId = newDonId;\r\n    }\r\n\r\n    function updateSourceCode(string memory newSourceCode) external onlyOwner {\r\n        _sourceCode = newSourceCode;\r\n    }\r\n\r\n    function updateGasLimit(uint32 newLimit) external onlyOwner {\r\n        _gasLimit = newLimit;\r\n    }\r\n\r\n    function updateSubscriptionId(uint64 newSubscriptionId) external onlyOwner {\r\n        _subscriptionId = newSubscriptionId;\r\n    }\r\n\r\n    function depositEth() external payable {}\r\n\r\n    function createGame(Params.Game memory params) external payable {\r\n        require(_plans[params.plan].limit != 0, \"Invalid plan\");\r\n        require(msg.value == _plans[params.plan].cost, \"Insufficient funds\");\r\n\r\n        _games[params.gameId] = Assets.Game({\r\n            name: params.name,\r\n            description: params.description,\r\n            avatar: params.avatar,\r\n            plan: params.plan,\r\n            creator: _msgSender()\r\n        });\r\n\r\n        emit GameCreated(\r\n            params.gameId,\r\n            params.name,\r\n            params.description,\r\n            params.avatar,\r\n            params.plan,\r\n            _msgSender(),\r\n            params.email,\r\n            params.website\r\n        );\r\n    }\r\n\r\n    function addTemplate(string memory templateUri, address gameId) external {\r\n        address creator = _msgSender();\r\n\r\n        Assets.Game storage game = _games[gameId];\r\n\r\n        require(game.creator == creator, \"UnAuthorized\");\r\n\r\n        emit TemplateAdded(gameId, templateUri);\r\n    }\r\n\r\n    function _generateUri(\r\n        address playerId,\r\n        string[] memory props,\r\n        string memory fields,\r\n        uint8 templateId\r\n    ) external payable override {\r\n        require(msg.value == _kanvasGenerateFee, \"invalid Kanvas fee\");\r\n        require(props.length <= MAX_PROPERTIES_LEN, \"Too many attributes\");\r\n\r\n        address gameId = _msgSender();\r\n        require(_games[gameId].creator != address(0), \"Game Not Found\");\r\n\r\n        string[] memory args = new string[](5);\r\n        args[0] = StringJoiner.joinStrings(props, \",\");\r\n        args[1] = fields;\r\n        args[2] = Strings.toHexString(gameId);\r\n        args[3] = Strings.toHexString(playerId);\r\n        args[4] = Strings.toString(templateId);\r\n\r\n        // Initialize the request\r\n        FunctionsRequest.Request memory req;\r\n\r\n        // Soucre code\r\n        req.initializeRequestForInlineJavaScript(_sourceCode);\r\n\r\n        // Add arguments\r\n        req.setArgs(args);\r\n\r\n        bytes32 requestId = _sendRequest(\r\n            req.encodeCBOR(),\r\n            _subscriptionId,\r\n            _gasLimit,\r\n            _donId\r\n        );\r\n\r\n        _requests[requestId] = Assets.Request({\r\n            gameId: gameId,\r\n            playerId: playerId,\r\n            fulfilled: false\r\n        });\r\n\r\n        emit GameEvent(\r\n            requestId,\r\n            gameId,\r\n            playerId,\r\n            Assets.EventType.GENERATE_URI,\r\n            bytes(fields)\r\n        );\r\n    }\r\n\r\n    function updateInterop(\r\n        uint64 chainSelector,\r\n        address kanvasRouter\r\n    ) external onlyOwner {\r\n        _interops[chainSelector] = kanvasRouter;\r\n    }\r\n\r\n    /** Receive the response in the form of string  */\r\n    function fulfillRequest(\r\n        bytes32 requestId,\r\n        bytes memory response,\r\n        bytes memory err\r\n    ) internal override {\r\n        Assets.Request storage request = _requests[requestId];\r\n        require(!request.fulfilled, \"Already fulfilled\");\r\n\r\n        if (err.length > 0) {\r\n            emit GameEvent(\r\n                requestId,\r\n                request.gameId,\r\n                request.playerId,\r\n                Assets.EventType.RECEIVE_URI,\r\n                err\r\n            );\r\n            return;\r\n        }\r\n\r\n        request.fulfilled = true;\r\n\r\n        require(_games[request.gameId].creator != address(0), \"Game Not Found\");\r\n\r\n        IKanvasGame game = IKanvasGame(request.gameId);\r\n        game._receiveUri(request.playerId, string(response));\r\n\r\n        emit GameEvent(\r\n            requestId,\r\n            request.gameId,\r\n            request.playerId,\r\n            Assets.EventType.RECEIVE_URI,\r\n            response\r\n        );\r\n    }\r\n\r\n    function _transferTo(\r\n        uint64 chainSelector,\r\n        address gameId,\r\n        address playerId,\r\n        uint256 tokenId,\r\n        string memory uri,\r\n        bytes memory data\r\n    ) external payable {\r\n        require(msg.value == _kanvasBridgeFee, \"invalid Kanvas fee\");\r\n        require(_interops[chainSelector] != address(0), \"Chain not supported\");\r\n\r\n        // Create an EVM2AnyMessage struct in memory with necessary information for sending a cross-chain message\r\n        Client.EVM2AnyMessage memory message = Client.EVM2AnyMessage({\r\n            // ABI-encoded receiver address\r\n            receiver: abi.encode(_interops[chainSelector]),\r\n            // ABI-encoded string message\r\n            data: abi.encode(gameId, playerId, tokenId, uri, data),\r\n            // Empty array indicating no tokens are being sent\r\n            tokenAmounts: new Client.EVMTokenAmount[](0),\r\n            // Additional arguments, setting gas limit and non-strict sequency mode\r\n            extraArgs: Client._argsToBytes(\r\n                Client.EVMExtraArgsV1({gasLimit: 2_000_000, strict: false})\r\n            ),\r\n            // Setting feeToken to zero address, indicating native asset will be used for fees\r\n            feeToken: address(0)\r\n        });\r\n\r\n        // Get the fee required to send the message\r\n        uint256 fees = _router.getFee(chainSelector, message);\r\n\r\n        require(address(this).balance >= fees, \"Insufficient fee\");\r\n\r\n        // Send the message through the router and store the returned message ID\r\n        bytes32 messageId = _router.ccipSend{value: fees}(\r\n            chainSelector,\r\n            message\r\n        );\r\n\r\n        // uint256 overspent = msg.value - fees;\r\n\r\n        // if (overspent > 0) {\r\n        //     address payable receiver = payable(gameId);\r\n        //     receiver.transfer(overspent);\r\n        // }\r\n\r\n        emit GameEvent(\r\n            messageId,\r\n            gameId,\r\n            playerId,\r\n            Assets.EventType.TRANSFER_TO,\r\n            message.data\r\n        );\r\n    }\r\n\r\n    // handle a received message\r\n    function _ccipReceive(\r\n        Client.Any2EVMMessage memory message\r\n    ) internal override {\r\n        (\r\n            address gameId,\r\n            address playerId,\r\n            uint256 tokenId,\r\n            string memory uri,\r\n            bytes memory data\r\n        ) = abi.decode(\r\n                message.data,\r\n                (address, address, uint256, string, bytes)\r\n            );\r\n\r\n        IKanvasInteropGame game = IKanvasInteropGame(gameId);\r\n        game._receiveFrom(\r\n            message.sourceChainSelector,\r\n            gameId,\r\n            playerId,\r\n            tokenId,\r\n            uri,\r\n            data\r\n        );\r\n\r\n        emit GameEvent(\r\n            message.messageId,\r\n            gameId,\r\n            playerId,\r\n            Assets.EventType.RECEIVE_FROM,\r\n            message.data\r\n        );\r\n    }\r\n\r\n    function _generateFee() external view override returns (uint256) {\r\n        return _kanvasGenerateFee;\r\n    }\r\n\r\n    function _bridgeFee() external view override returns (uint256) {\r\n        return _kanvasBridgeFee;\r\n    }\r\n\r\n    /** Create plans */\r\n    function createPlan(Params.Plan memory params) external onlyOwner {\r\n        _planId++;\r\n\r\n        _plans[_planId] = Assets.Plan({\r\n            name: params.name,\r\n            cost: params.cost,\r\n            color: params.color,\r\n            limit: params.limit\r\n        });\r\n\r\n        emit PlanCreated(\r\n            _planId,\r\n            params.name,\r\n            params.cost,\r\n            params.color,\r\n            params.limit\r\n        );\r\n    }\r\n}\r\n",
  "sourcePath": "C:\\Users\\DELL\\Documents\\kanvas\\blockchain\\contracts\\KanvasAvax.sol",
  "compiler": {
    "name": "solc",
    "version": "0.8.19+commit.7dd6d404.Emscripten.clang"
  },
  "schemaVersion": "3.4.11",
  "updatedAt": "2023-12-10T21:39:13.380Z",
  "networkType": "ethereum",
  "devdoc": {
    "kind": "dev",
    "methods": {
      "ccipReceive((bytes32,uint64,bytes,bytes,(address,uint256)[]))": {
        "details": "Note ensure you check the msg.sender is the OffRampRouter",
        "params": {
          "message": "CCIP Message"
        }
      },
      "getRouter()": {
        "returns": {
          "_0": "i_router address"
        }
      },
      "handleOracleFulfillment(bytes32,bytes,bytes)": {
        "details": "Either response or error parameter will be set, but never both.",
        "params": {
          "err": "Aggregated error either from the request's source code or from the execution pipeline.",
          "requestId": "The requestId returned by FunctionsClient.sendRequest().",
          "response": "Aggregated response from the request's source code."
        }
      },
      "owner()": {
        "details": "Returns the address of the current owner."
      },
      "renounceOwnership()": {
        "details": "Leaves the contract without owner. It will not be possible to call `onlyOwner` functions. Can only be called by the current owner. NOTE: Renouncing ownership will leave the contract without an owner, thereby disabling any functionality that is only available to the owner."
      },
      "supportsInterface(bytes4)": {
        "params": {
          "interfaceId": "The interfaceId to check"
        },
        "returns": {
          "_0": "true if the interfaceId is supported"
        }
      },
      "transferOwnership(address)": {
        "details": "Transfers ownership of the contract to a new account (`newOwner`). Can only be called by the current owner."
      }
    },
    "version": 1
  },
  "userdoc": {
    "kind": "user",
    "methods": {
      "ccipReceive((bytes32,uint64,bytes,bytes,(address,uint256)[]))": {
        "notice": "Called by the Router to deliver a message. If this reverts, any token transfers also revert. The message will move to a FAILED state and become available for manual execution."
      },
      "createPlan((string,uint256,string,uint256))": {
        "notice": "Create plans "
      },
      "getRouter()": {
        "notice": "Return the current router"
      },
      "handleOracleFulfillment(bytes32,bytes,bytes)": {
        "notice": "Chainlink Functions response handler called by the Functions Router during fullilment from the designated transmitter node in an OCR round."
      },
      "supportsInterface(bytes4)": {
        "notice": "IERC165 supports an interfaceId"
      }
    },
    "version": 1
  }
}