{
  "contractName": "KanvasAvax",
  "abi": [
    {
      "inputs": [
        {
          "internalType": "address",
          "name": "ccipReceiver",
          "type": "address"
        },
        {
          "internalType": "address",
          "name": "functionOracle",
          "type": "address"
        }
      ],
      "stateMutability": "nonpayable",
      "type": "constructor"
    },
    {
      "inputs": [],
      "name": "EmptyArgs",
      "type": "error"
    },
    {
      "inputs": [],
      "name": "EmptySource",
      "type": "error"
    },
    {
      "inputs": [
        {
          "internalType": "address",
          "name": "router",
          "type": "address"
        }
      ],
      "name": "InvalidRouter",
      "type": "error"
    },
    {
      "inputs": [],
      "name": "NoInlineSecrets",
      "type": "error"
    },
    {
      "inputs": [],
      "name": "OnlyRouterCanFulfill",
      "type": "error"
    },
    {
      "anonymous": false,
      "inputs": [
        {
          "indexed": false,
          "internalType": "bytes32",
          "name": "requestId",
          "type": "bytes32"
        },
        {
          "indexed": false,
          "internalType": "bytes",
          "name": "err",
          "type": "bytes"
        }
      ],
      "name": "FulfullFailed",
      "type": "event"
    },
    {
      "anonymous": false,
      "inputs": [
        {
          "indexed": false,
          "internalType": "bytes32",
          "name": "requestId",
          "type": "bytes32"
        },
        {
          "indexed": false,
          "internalType": "bytes",
          "name": "response",
          "type": "bytes"
        }
      ],
      "name": "FulfullSuccess",
      "type": "event"
    },
    {
      "anonymous": false,
      "inputs": [
        {
          "indexed": false,
          "internalType": "address",
          "name": "gameId",
          "type": "address"
        },
        {
          "indexed": false,
          "internalType": "string",
          "name": "name",
          "type": "string"
        },
        {
          "indexed": false,
          "internalType": "string",
          "name": "description",
          "type": "string"
        },
        {
          "indexed": false,
          "internalType": "string",
          "name": "avatar",
          "type": "string"
        },
        {
          "indexed": false,
          "internalType": "uint256",
          "name": "plan",
          "type": "uint256"
        },
        {
          "indexed": false,
          "internalType": "address",
          "name": "creator",
          "type": "address"
        },
        {
          "indexed": false,
          "internalType": "string",
          "name": "email",
          "type": "string"
        },
        {
          "indexed": false,
          "internalType": "string",
          "name": "website",
          "type": "string"
        }
      ],
      "name": "GameCreated",
      "type": "event"
    },
    {
      "anonymous": false,
      "inputs": [
        {
          "indexed": true,
          "internalType": "bytes32",
          "name": "requestId",
          "type": "bytes32"
        },
        {
          "indexed": false,
          "internalType": "bytes",
          "name": "result",
          "type": "bytes"
        },
        {
          "indexed": false,
          "internalType": "bytes",
          "name": "err",
          "type": "bytes"
        }
      ],
      "name": "OCRResponse",
      "type": "event"
    },
    {
      "anonymous": false,
      "inputs": [
        {
          "indexed": true,
          "internalType": "address",
          "name": "previousOwner",
          "type": "address"
        },
        {
          "indexed": true,
          "internalType": "address",
          "name": "newOwner",
          "type": "address"
        }
      ],
      "name": "OwnershipTransferred",
      "type": "event"
    },
    {
      "anonymous": false,
      "inputs": [
        {
          "indexed": false,
          "internalType": "uint256",
          "name": "planId",
          "type": "uint256"
        },
        {
          "indexed": false,
          "internalType": "string",
          "name": "name",
          "type": "string"
        },
        {
          "indexed": false,
          "internalType": "uint256",
          "name": "cost",
          "type": "uint256"
        },
        {
          "indexed": false,
          "internalType": "string",
          "name": "color",
          "type": "string"
        },
        {
          "indexed": false,
          "internalType": "uint256",
          "name": "limit",
          "type": "uint256"
        }
      ],
      "name": "PlanCreated",
      "type": "event"
    },
    {
      "anonymous": false,
      "inputs": [
        {
          "indexed": true,
          "internalType": "bytes32",
          "name": "id",
          "type": "bytes32"
        }
      ],
      "name": "RequestFulfilled",
      "type": "event"
    },
    {
      "anonymous": false,
      "inputs": [
        {
          "indexed": true,
          "internalType": "bytes32",
          "name": "id",
          "type": "bytes32"
        }
      ],
      "name": "RequestSent",
      "type": "event"
    },
    {
      "anonymous": false,
      "inputs": [
        {
          "indexed": false,
          "internalType": "bytes32",
          "name": "requestId",
          "type": "bytes32"
        },
        {
          "indexed": false,
          "internalType": "address",
          "name": "gameId",
          "type": "address"
        }
      ],
      "name": "RequestSent",
      "type": "event"
    },
    {
      "anonymous": false,
      "inputs": [
        {
          "indexed": false,
          "internalType": "address",
          "name": "gameId",
          "type": "address"
        },
        {
          "indexed": false,
          "internalType": "string",
          "name": "templateUri",
          "type": "string"
        }
      ],
      "name": "TemplateAdded",
      "type": "event"
    },
    {
      "inputs": [],
      "name": "MAX_PROPERTIES_LEN",
      "outputs": [
        {
          "internalType": "uint256",
          "name": "",
          "type": "uint256"
        }
      ],
      "stateMutability": "view",
      "type": "function",
      "constant": true
    },
    {
      "inputs": [],
      "name": "MAX_TEMPLATES_LEN",
      "outputs": [
        {
          "internalType": "uint256",
          "name": "",
          "type": "uint256"
        }
      ],
      "stateMutability": "view",
      "type": "function",
      "constant": true
    },
    {
      "inputs": [
        {
          "components": [
            {
              "internalType": "bytes32",
              "name": "messageId",
              "type": "bytes32"
            },
            {
              "internalType": "uint64",
              "name": "sourceChainSelector",
              "type": "uint64"
            },
            {
              "internalType": "bytes",
              "name": "sender",
              "type": "bytes"
            },
            {
              "internalType": "bytes",
              "name": "data",
              "type": "bytes"
            },
            {
              "components": [
                {
                  "internalType": "address",
                  "name": "token",
                  "type": "address"
                },
                {
                  "internalType": "uint256",
                  "name": "amount",
                  "type": "uint256"
                }
              ],
              "internalType": "struct Client.EVMTokenAmount[]",
              "name": "destTokenAmounts",
              "type": "tuple[]"
            }
          ],
          "internalType": "struct Client.Any2EVMMessage",
          "name": "message",
          "type": "tuple"
        }
      ],
      "name": "ccipReceive",
      "outputs": [],
      "stateMutability": "nonpayable",
      "type": "function"
    },
    {
      "inputs": [],
      "name": "getRouter",
      "outputs": [
        {
          "internalType": "address",
          "name": "",
          "type": "address"
        }
      ],
      "stateMutability": "view",
      "type": "function",
      "constant": true
    },
    {
      "inputs": [
        {
          "internalType": "bytes32",
          "name": "requestId",
          "type": "bytes32"
        },
        {
          "internalType": "bytes",
          "name": "response",
          "type": "bytes"
        },
        {
          "internalType": "bytes",
          "name": "err",
          "type": "bytes"
        }
      ],
      "name": "handleOracleFulfillment",
      "outputs": [],
      "stateMutability": "nonpayable",
      "type": "function"
    },
    {
      "inputs": [],
      "name": "owner",
      "outputs": [
        {
          "internalType": "address",
          "name": "",
          "type": "address"
        }
      ],
      "stateMutability": "view",
      "type": "function",
      "constant": true
    },
    {
      "inputs": [],
      "name": "renounceOwnership",
      "outputs": [],
      "stateMutability": "nonpayable",
      "type": "function"
    },
    {
      "inputs": [
        {
          "internalType": "bytes4",
          "name": "interfaceId",
          "type": "bytes4"
        }
      ],
      "name": "supportsInterface",
      "outputs": [
        {
          "internalType": "bool",
          "name": "",
          "type": "bool"
        }
      ],
      "stateMutability": "pure",
      "type": "function",
      "constant": true
    },
    {
      "inputs": [
        {
          "internalType": "address",
          "name": "newOwner",
          "type": "address"
        }
      ],
      "name": "transferOwnership",
      "outputs": [],
      "stateMutability": "nonpayable",
      "type": "function"
    },
    {
      "inputs": [
        {
          "internalType": "bytes32",
          "name": "newDonId",
          "type": "bytes32"
        }
      ],
      "name": "updateDonId",
      "outputs": [],
      "stateMutability": "nonpayable",
      "type": "function"
    },
    {
      "inputs": [
        {
          "internalType": "string",
          "name": "newSourceCode",
          "type": "string"
        }
      ],
      "name": "updateSourceCode",
      "outputs": [],
      "stateMutability": "nonpayable",
      "type": "function"
    },
    {
      "inputs": [
        {
          "internalType": "uint32",
          "name": "newLimit",
          "type": "uint32"
        }
      ],
      "name": "updateGasLimit",
      "outputs": [],
      "stateMutability": "nonpayable",
      "type": "function"
    },
    {
      "inputs": [
        {
          "internalType": "uint64",
          "name": "newSubscriptionId",
          "type": "uint64"
        }
      ],
      "name": "updateSubscriptionId",
      "outputs": [],
      "stateMutability": "nonpayable",
      "type": "function"
    },
    {
      "inputs": [
        {
          "components": [
            {
              "internalType": "string",
              "name": "name",
              "type": "string"
            },
            {
              "internalType": "string",
              "name": "description",
              "type": "string"
            },
            {
              "internalType": "address",
              "name": "gameId",
              "type": "address"
            },
            {
              "internalType": "string",
              "name": "avatar",
              "type": "string"
            },
            {
              "internalType": "uint256",
              "name": "plan",
              "type": "uint256"
            },
            {
              "internalType": "string",
              "name": "email",
              "type": "string"
            },
            {
              "internalType": "string",
              "name": "website",
              "type": "string"
            }
          ],
          "internalType": "struct Params.Game",
          "name": "params",
          "type": "tuple"
        }
      ],
      "name": "createGame",
      "outputs": [],
      "stateMutability": "payable",
      "type": "function",
      "payable": true
    },
    {
      "inputs": [
        {
          "internalType": "string",
          "name": "templateUri",
          "type": "string"
        },
        {
          "internalType": "address",
          "name": "gameId",
          "type": "address"
        }
      ],
      "name": "addTemplate",
      "outputs": [],
      "stateMutability": "nonpayable",
      "type": "function"
    },
    {
      "inputs": [
        {
          "internalType": "address",
          "name": "playerId",
          "type": "address"
        },
        {
          "internalType": "string[]",
          "name": "props",
          "type": "string[]"
        },
        {
          "internalType": "string",
          "name": "fields",
          "type": "string"
        },
        {
          "internalType": "uint8",
          "name": "templateId",
          "type": "uint8"
        }
      ],
      "name": "_generateUri",
      "outputs": [],
      "stateMutability": "nonpayable",
      "type": "function"
    },
    {
      "inputs": [
        {
          "internalType": "uint64",
          "name": "chainSelector",
          "type": "uint64"
        },
        {
          "internalType": "address",
          "name": "kanvasRouter",
          "type": "address"
        }
      ],
      "name": "updateInterop",
      "outputs": [],
      "stateMutability": "nonpayable",
      "type": "function"
    },
    {
      "inputs": [
        {
          "internalType": "bytes",
          "name": "response",
          "type": "bytes"
        }
      ],
      "name": "test",
      "outputs": [
        {
          "internalType": "string",
          "name": "",
          "type": "string"
        }
      ],
      "stateMutability": "pure",
      "type": "function",
      "constant": true
    },
    {
      "inputs": [
        {
          "internalType": "uint64",
          "name": "chainSelector",
          "type": "uint64"
        },
        {
          "internalType": "address",
          "name": "gameId",
          "type": "address"
        },
        {
          "internalType": "address",
          "name": "playerId",
          "type": "address"
        },
        {
          "internalType": "uint256",
          "name": "tokenId",
          "type": "uint256"
        },
        {
          "internalType": "string",
          "name": "uri",
          "type": "string"
        },
        {
          "internalType": "bytes",
          "name": "data",
          "type": "bytes"
        }
      ],
      "name": "_transferTo",
      "outputs": [],
      "stateMutability": "payable",
      "type": "function",
      "payable": true
    },
    {
      "inputs": [
        {
          "components": [
            {
              "internalType": "string",
              "name": "name",
              "type": "string"
            },
            {
              "internalType": "uint256",
              "name": "cost",
              "type": "uint256"
            },
            {
              "internalType": "string",
              "name": "color",
              "type": "string"
            },
            {
              "internalType": "uint256",
              "name": "limit",
              "type": "uint256"
            }
          ],
          "internalType": "struct Params.Plan",
          "name": "params",
          "type": "tuple"
        }
      ],
      "name": "createPlan",
      "outputs": [],
      "stateMutability": "nonpayable",
      "type": "function"
    }
  ],
  "bytecode": "0x60c060405262011170600260006101000a81548163ffffffff021916908363ffffffff16021790555061062c600260046101000a81548167ffffffffffffffff021916908367ffffffffffffffff1602179055507f66756e2d6176616c616e6368652d66756a692d3100000000000000000000000060001b6003553480156200008757600080fd5b5060405162005585380380620055858339818101604052810190620000ad919062000346565b8082600073ffffffffffffffffffffffffffffffffffffffff168173ffffffffffffffffffffffffffffffffffffffff1603620001245760006040517fd7f733340000000000000000000000000000000000000000000000000000000081526004016200011b91906200039e565b60405180910390fd5b8073ffffffffffffffffffffffffffffffffffffffff1660808173ffffffffffffffffffffffffffffffffffffffff1681525050508073ffffffffffffffffffffffffffffffffffffffff1660a08173ffffffffffffffffffffffffffffffffffffffff168152505050620001ae620001a26200020660201b60201c565b6200020e60201b60201c565b620001be620002d260201b60201c565b600960006101000a81548173ffffffffffffffffffffffffffffffffffffffff021916908373ffffffffffffffffffffffffffffffffffffffff1602179055505050620003bb565b600033905090565b60008060009054906101000a900473ffffffffffffffffffffffffffffffffffffffff169050816000806101000a81548173ffffffffffffffffffffffffffffffffffffffff021916908373ffffffffffffffffffffffffffffffffffffffff1602179055508173ffffffffffffffffffffffffffffffffffffffff168173ffffffffffffffffffffffffffffffffffffffff167f8be0079c531659141344cd1fd0a4f28419497f9722a3daafe3b4186f6b6457e060405160405180910390a35050565b6000608051905090565b600080fd5b600073ffffffffffffffffffffffffffffffffffffffff82169050919050565b60006200030e82620002e1565b9050919050565b620003208162000301565b81146200032c57600080fd5b50565b600081519050620003408162000315565b92915050565b6000806040838503121562000360576200035f620002dc565b5b600062000370858286016200032f565b925050602062000383858286016200032f565b9150509250929050565b620003988162000301565b82525050565b6000602082019050620003b560008301846200038d565b92915050565b60805160a051615196620003ef60003960008181610530015261210f0152600081816108d30152610eb301526151966000f3fe60806040526004361061011f5760003560e01c80638cd176d5116100a0578063b3285e3211610064578063b3285e321461038d578063dd3fac7c146103b6578063dff0ee41146103df578063eee6e5731461040a578063f2fde38b146104335761011f565b80638cd176d5146102c95780638d6dc0eb146102f25780638da5cb5b1461030e57806392154a3d14610339578063b0f479a1146103625761011f565b80635821feae116100e75780635821feae146102195780636df0c74714610235578063715018a61461025e57806385572ffb146102755780638b8ff3581461029e5761011f565b806301ffc9a7146101245780630ca761751461016157806314b1dd1b1461018a5780632f570a23146101b357806334303bcd146101f0575b600080fd5b34801561013057600080fd5b5061014b60048036038101906101469190612ce9565b61045c565b6040516101589190612d31565b60405180910390f35b34801561016d57600080fd5b5061018860048036038101906101839190612ec8565b61052e565b005b34801561019657600080fd5b506101b160048036038101906101ac9190612f93565b6105f0565b005b3480156101bf57600080fd5b506101da60048036038101906101d59190612fc0565b610624565b6040516101e79190613088565b60405180910390f35b3480156101fc57600080fd5b50610217600480360381019061021291906130e6565b61062e565b005b610233600480360381019061022e9190613392565b61065a565b005b34801561024157600080fd5b5061025c600480360381019061025791906133db565b6108ab565b005b34801561026a57600080fd5b506102736108bd565b005b34801561028157600080fd5b5061029c6004803603810190610297919061342c565b6108d1565b005b3480156102aa57600080fd5b506102b3610976565b6040516102c09190613484565b60405180910390f35b3480156102d557600080fd5b506102f060048036038101906102eb919061354f565b61097b565b005b61030c60048036038101906103079190613598565b610a78565b005b34801561031a57600080fd5b50610323610e14565b604051610330919061366c565b60405180910390f35b34801561034557600080fd5b50610360600480360381019061035b9190613687565b610e3d565b005b34801561036e57600080fd5b50610377610eaf565b604051610384919061366c565b60405180910390f35b34801561039957600080fd5b506103b460048036038101906103af91906136c7565b610ed7565b005b3480156103c257600080fd5b506103dd60048036038101906103d89190613710565b610ef2565b005b3480156103eb57600080fd5b506103f4611012565b6040516104019190613484565b60405180910390f35b34801561041657600080fd5b50610431600480360381019061042c919061388b565b611017565b005b34801561043f57600080fd5b5061045a6004803603810190610455919061392a565b61150e565b005b60007f85572ffb000000000000000000000000000000000000000000000000000000007bffffffffffffffffffffffffffffffffffffffffffffffffffffffff1916827bffffffffffffffffffffffffffffffffffffffffffffffffffffffff1916148061052757507f01ffc9a7000000000000000000000000000000000000000000000000000000007bffffffffffffffffffffffffffffffffffffffffffffffffffffffff1916827bffffffffffffffffffffffffffffffffffffffffffffffffffffffff1916145b9050919050565b7f000000000000000000000000000000000000000000000000000000000000000073ffffffffffffffffffffffffffffffffffffffff163373ffffffffffffffffffffffffffffffffffffffff16146105b3576040517fc6829f8300000000000000000000000000000000000000000000000000000000815260040160405180910390fd5b6105be838383611591565b827f85e1543bf2f84fe80c6badbce3648c8539ad1df4d2b3d822938ca0538be727e660405160405180910390a2505050565b6105f8611920565b80600260046101000a81548167ffffffffffffffff021916908367ffffffffffffffff16021790555050565b6060819050919050565b610636611920565b80600260006101000a81548163ffffffff021916908363ffffffff16021790555050565b6000600560008360800151815260200190815260200160002060030154036106b7576040517f08c379a00000000000000000000000000000000000000000000000000000000081526004016106ae906139a3565b60405180910390fd5b6005600082608001518152602001908152602001600020600101543414610713576040517f08c379a000000000000000000000000000000000000000000000000000000000815260040161070a90613a0f565b60405180910390fd5b6040518060a001604052808260000151815260200182606001518152602001826020015181526020018260800151815260200161074e61199e565b73ffffffffffffffffffffffffffffffffffffffff1681525060066000836040015173ffffffffffffffffffffffffffffffffffffffff1673ffffffffffffffffffffffffffffffffffffffff16815260200190815260200160002060008201518160000190816107bf9190613c3b565b5060208201518160010190816107d59190613c3b565b5060408201518160020190816107eb9190613c3b565b506060820151816003015560808201518160040160006101000a81548173ffffffffffffffffffffffffffffffffffffffff021916908373ffffffffffffffffffffffffffffffffffffffff1602179055509050507fea35bbd4aeddb611341e5394e07bd5ac7513bd56730a40e7e3e3eb761e155c058160400151826000015183602001518460600151856080015161088261199e565b8760a001518860c001516040516108a0989796959493929190613d0d565b60405180910390a150565b6108b3611920565b8060038190555050565b6108c5611920565b6108cf60006119a6565b565b7f000000000000000000000000000000000000000000000000000000000000000073ffffffffffffffffffffffffffffffffffffffff163373ffffffffffffffffffffffffffffffffffffffff161461096157336040517fd7f73334000000000000000000000000000000000000000000000000000000008152600401610958919061366c565b60405180910390fd5b6109738161096e90613fa1565b611a6a565b50565b601481565b610983611920565b6004600081548092919061099690613fe3565b91905055506040518060800160405280826000015181526020018260200151815260200182604001518152602001826060015181525060056000600454815260200190815260200160002060008201518160000190816109f69190613c3b565b50602082015181600101556040820151816002019081610a169190613c3b565b50606082015181600301559050507f33c5bd102a4d38690a8d7d236985d20c88e66b73bca9de5ae6cc29376d2206fd6004548260000151836020015184604001518560600151604051610a6d95949392919061402b565b60405180910390a150565b600073ffffffffffffffffffffffffffffffffffffffff16600860008867ffffffffffffffff1667ffffffffffffffff16815260200190815260200160002060009054906101000a900473ffffffffffffffffffffffffffffffffffffffff1673ffffffffffffffffffffffffffffffffffffffff1603610b2e576040517f08c379a0000000000000000000000000000000000000000000000000000000008152600401610b25906140d8565b60405180910390fd5b60006040518060a00160405280600860008a67ffffffffffffffff1667ffffffffffffffff16815260200190815260200160002060009054906101000a900473ffffffffffffffffffffffffffffffffffffffff16604051602001610b93919061366c565b60405160208183030381529060405281526020018787878787604051602001610bc095949392919061414d565b6040516020818303038152906040528152602001600067ffffffffffffffff811115610bef57610bee612d9d565b5b604051908082528060200260200182016040528015610c2857816020015b610c15612ba1565b815260200190600190039081610c0d5790505b508152602001600073ffffffffffffffffffffffffffffffffffffffff168152602001610c6e604051806040016040528062061a80815260200160001515815250611b1b565b81525090506000600960009054906101000a900473ffffffffffffffffffffffffffffffffffffffff1673ffffffffffffffffffffffffffffffffffffffff166320487ded67ccf0a31a221f3c9b846040518363ffffffff1660e01b8152600401610cda92919061438e565b602060405180830381865afa158015610cf7573d6000803e3d6000fd5b505050506040513d601f19601f82011682018060405250810190610d1b91906143d3565b905080341015610d60576040517f08c379a0000000000000000000000000000000000000000000000000000000008152600401610d579061444c565b60405180910390fd5b600960009054906101000a900473ffffffffffffffffffffffffffffffffffffffff1673ffffffffffffffffffffffffffffffffffffffff166396f4e9f98267ccf0a31a221f3c9b856040518463ffffffff1660e01b8152600401610dc692919061438e565b60206040518083038185885af1158015610de4573d6000803e3d6000fd5b50505050506040513d601f19601f82011682018060405250810190610e099190614481565b505050505050505050565b60008060009054906101000a900473ffffffffffffffffffffffffffffffffffffffff16905090565b610e45611920565b80600860008467ffffffffffffffff1667ffffffffffffffff16815260200190815260200160002060006101000a81548173ffffffffffffffffffffffffffffffffffffffff021916908373ffffffffffffffffffffffffffffffffffffffff1602179055505050565b60007f0000000000000000000000000000000000000000000000000000000000000000905090565b610edf611920565b8060019081610eee9190613c3b565b5050565b6000610efc61199e565b90506000600660008473ffffffffffffffffffffffffffffffffffffffff1673ffffffffffffffffffffffffffffffffffffffff16815260200190815260200160002090508173ffffffffffffffffffffffffffffffffffffffff168160040160009054906101000a900473ffffffffffffffffffffffffffffffffffffffff1673ffffffffffffffffffffffffffffffffffffffff1614610fd3576040517f08c379a0000000000000000000000000000000000000000000000000000000008152600401610fca906144fa565b60405180910390fd5b7fd7219b2d0e6067644335c8f4f82ee77c59a90a22e2916f1dce8683af8e8b07fa838560405161100492919061451a565b60405180910390a150505050565b600581565b60148351111561105c576040517f08c379a000000000000000000000000000000000000000000000000000000000815260040161105390614596565b60405180910390fd5b600061106661199e565b9050600073ffffffffffffffffffffffffffffffffffffffff16600660008373ffffffffffffffffffffffffffffffffffffffff1673ffffffffffffffffffffffffffffffffffffffff16815260200190815260200160002060040160009054906101000a900473ffffffffffffffffffffffffffffffffffffffff1673ffffffffffffffffffffffffffffffffffffffff1603611139576040517f08c379a000000000000000000000000000000000000000000000000000000000815260040161113090614602565b60405180910390fd5b6000600567ffffffffffffffff81111561115657611155612d9d565b5b60405190808252806020026020018201604052801561118957816020015b60608152602001906001900390816111745790505b50905073__StringJoiner__________________________635c8656e0866040518263ffffffff1660e01b81526004016111c3919061478b565b600060405180830381865af41580156111e0573d6000803e3d6000fd5b505050506040513d6000823e3d601f19601f820116820180604052508101906112099190614830565b8160008151811061121d5761121c614879565b5b6020026020010181905250838160018151811061123d5761123c614879565b5b602002602001018190525061125182611b9a565b8160028151811061126557611264614879565b5b602002602001018190525061127986611b9a565b8160038151811061128d5761128c614879565b5b60200260200101819052506112a48360ff16611bc7565b816004815181106112b8576112b7614879565b5b60200260200101819052506112cb612bd1565b611368600180546112db90613a5e565b80601f016020809104026020016040519081016040528092919081815260200182805461130790613a5e565b80156113545780601f1061132957610100808354040283529160200191611354565b820191906000526020600020905b81548152906001019060200180831161133757829003601f168201915b505050505082611c9590919063ffffffff16565b61137b8282611ca690919063ffffffff16565b60006113bb61138983611cee565b600260049054906101000a900467ffffffffffffffff16600260009054906101000a900463ffffffff1660035461210a565b905060405180606001604052808573ffffffffffffffffffffffffffffffffffffffff1681526020018973ffffffffffffffffffffffffffffffffffffffff168152602001600015158152506007600083815260200190815260200160002060008201518160000160006101000a81548173ffffffffffffffffffffffffffffffffffffffff021916908373ffffffffffffffffffffffffffffffffffffffff16021790555060208201518160010160006101000a81548173ffffffffffffffffffffffffffffffffffffffff021916908373ffffffffffffffffffffffffffffffffffffffff16021790555060408201518160010160146101000a81548160ff0219169083151502179055509050507f91f0d67c2f27abd6cfc317e120d5e80b31e97b9926b65d3887e59402fb20adfb81856040516114fc9291906148b7565b60405180910390a15050505050505050565b611516611920565b600073ffffffffffffffffffffffffffffffffffffffff168173ffffffffffffffffffffffffffffffffffffffff1603611585576040517f08c379a000000000000000000000000000000000000000000000000000000000815260040161157c90614952565b60405180910390fd5b61158e816119a6565b50565b827f7bab0ec163b5c132c72b8146ac4d6e067e82ed58f8b131150aa71c925891156283836040516115c3929190614972565b60405180910390a2600081511115611613577f980dacf15fd4de388a78b30b7137819db55322065f76cd76f26843976b4b8f3d83826040516116069291906149a9565b60405180910390a161191b565b600082905060006007600086815260200190815260200160002090508060010160149054906101000a900460ff1615611681576040517f08c379a000000000000000000000000000000000000000000000000000000000815260040161167890614a25565b60405180910390fd5b60405160200161169090614a9c565b60405160208183030381529060405280519060200120826040516020016116b79190614ae2565b6040516020818303038152906040528051906020012003611712577f980dacf15fd4de388a78b30b7137819db55322065f76cd76f26843976b4b8f3d85856040516117039291906149a9565b60405180910390a1505061191b565b60018160010160146101000a81548160ff021916908315150217905550600073ffffffffffffffffffffffffffffffffffffffff16600660008360000160009054906101000a900473ffffffffffffffffffffffffffffffffffffffff1673ffffffffffffffffffffffffffffffffffffffff1673ffffffffffffffffffffffffffffffffffffffff16815260200190815260200160002060040160009054906101000a900473ffffffffffffffffffffffffffffffffffffffff1673ffffffffffffffffffffffffffffffffffffffff1603611824576040517f08c379a000000000000000000000000000000000000000000000000000000000815260040161181b90614602565b60405180910390fd5b60008160000160009054906101000a900473ffffffffffffffffffffffffffffffffffffffff1690508073ffffffffffffffffffffffffffffffffffffffff16638f9c39568360010160009054906101000a900473ffffffffffffffffffffffffffffffffffffffff16856040518363ffffffff1660e01b81526004016118ac92919061451a565b600060405180830381600087803b1580156118c657600080fd5b505af11580156118da573d6000803e3d6000fd5b505050507feaedbcf97bf9fb5a6b911a99706c1cd297c974a3bf541bb1806522fccc69e27a868660405161190f9291906149a9565b60405180910390a15050505b505050565b61192861199e565b73ffffffffffffffffffffffffffffffffffffffff16611946610e14565b73ffffffffffffffffffffffffffffffffffffffff161461199c576040517f08c379a000000000000000000000000000000000000000000000000000000000815260040161199390614b45565b60405180910390fd5b565b600033905090565b60008060009054906101000a900473ffffffffffffffffffffffffffffffffffffffff169050816000806101000a81548173ffffffffffffffffffffffffffffffffffffffff021916908373ffffffffffffffffffffffffffffffffffffffff1602179055508173ffffffffffffffffffffffffffffffffffffffff168173ffffffffffffffffffffffffffffffffffffffff167f8be0079c531659141344cd1fd0a4f28419497f9722a3daafe3b4186f6b6457e060405160405180910390a35050565b60008060008060008560600151806020019051810190611a8a9190614c13565b9450945094509450945060008590508073ffffffffffffffffffffffffffffffffffffffff16636d4195fb886020015188888888886040518763ffffffff1660e01b8152600401611ae096959493929190614cc6565b600060405180830381600087803b158015611afa57600080fd5b505af1158015611b0e573d6000803e3d6000fd5b5050505050505050505050565b60606397a657c960e01b82604051602401611b369190614d73565b604051602081830303815290604052907bffffffffffffffffffffffffffffffffffffffffffffffffffffffff19166020820180517bffffffffffffffffffffffffffffffffffffffffffffffffffffffff83818316178352505050509050919050565b6060611bc08273ffffffffffffffffffffffffffffffffffffffff16601460ff166121ed565b9050919050565b606060006001611bd684612429565b01905060008167ffffffffffffffff811115611bf557611bf4612d9d565b5b6040519080825280601f01601f191660200182016040528015611c275781602001600182028036833780820191505090505b509050600082602001820190505b600115611c8a578080600190039150507f3031323334353637383961626364656600000000000000000000000000000000600a86061a8153600a8581611c7e57611c7d614d8e565b5b04945060008503611c35575b819350505050919050565b611ca2826000808461257c565b5050565b6000815103611ce1576040517ffe936cb700000000000000000000000000000000000000000000000000000000815260040160405180910390fd5b808260a001819052505050565b60606000611cfd610100612626565b9050611d476040518060400160405280600c81526020017f636f64654c6f636174696f6e00000000000000000000000000000000000000008152508261264d90919063ffffffff16565b611d7083600001516002811115611d6157611d60614dbd565b5b8261267690919063ffffffff16565b611db86040518060400160405280600881526020017f6c616e67756167650000000000000000000000000000000000000000000000008152508261264d90919063ffffffff16565b611de183604001516000811115611dd257611dd1614dbd565b5b8261267690919063ffffffff16565b611e296040518060400160405280600681526020017f736f7572636500000000000000000000000000000000000000000000000000008152508261264d90919063ffffffff16565b611e4083606001518261264d90919063ffffffff16565b60008360a00151511115611efc57611e966040518060400160405280600481526020017f61726773000000000000000000000000000000000000000000000000000000008152508261264d90919063ffffffff16565b611e9f816126c6565b60005b8360a0015151811015611ef157611ee08460a001518281518110611ec957611ec8614879565b5b60200260200101518361264d90919063ffffffff16565b80611eea90613fe3565b9050611ea2565b50611efb816126ee565b5b6000836080015151111561203d5760006002811115611f1e57611f1d614dbd565b5b83602001516002811115611f3557611f34614dbd565b5b03611f6c576040517fa80d31f700000000000000000000000000000000000000000000000000000000815260040160405180910390fd5b611fb46040518060400160405280600f81526020017f736563726574734c6f636174696f6e00000000000000000000000000000000008152508261264d90919063ffffffff16565b611fdd83602001516002811115611fce57611fcd614dbd565b5b8261267690919063ffffffff16565b6120256040518060400160405280600781526020017f73656372657473000000000000000000000000000000000000000000000000008152508261264d90919063ffffffff16565b61203c83608001518261271690919063ffffffff16565b5b60008360c001515111156120f9576120936040518060400160405280600981526020017f62797465734172677300000000000000000000000000000000000000000000008152508261264d90919063ffffffff16565b61209c816126c6565b60005b8360c00151518110156120ee576120dd8460c0015182815181106120c6576120c5614879565b5b60200260200101518361271690919063ffffffff16565b806120e790613fe3565b905061209f565b506120f8816126ee565b5b806000015160000151915050919050565b6000807f000000000000000000000000000000000000000000000000000000000000000073ffffffffffffffffffffffffffffffffffffffff1663461d27628688600188886040518663ffffffff1660e01b815260040161216f959493929190614e18565b6020604051808303816000875af115801561218e573d6000803e3d6000fd5b505050506040513d601f19601f820116820180604052508101906121b29190614481565b9050807f1131472297a800fee664d1d89cfa8f7676ff07189ecc53f80bbb5f4969099db860405160405180910390a280915050949350505050565b6060600060028360026122009190614e72565b61220a9190614eb4565b67ffffffffffffffff81111561222357612222612d9d565b5b6040519080825280601f01601f1916602001820160405280156122555781602001600182028036833780820191505090505b5090507f30000000000000000000000000000000000000000000000000000000000000008160008151811061228d5761228c614879565b5b60200101907effffffffffffffffffffffffffffffffffffffffffffffffffffffffffffff1916908160001a9053507f7800000000000000000000000000000000000000000000000000000000000000816001815181106122f1576122f0614879565b5b60200101907effffffffffffffffffffffffffffffffffffffffffffffffffffffffffffff1916908160001a905350600060018460026123319190614e72565b61233b9190614eb4565b90505b60018111156123db577f3031323334353637383961626364656600000000000000000000000000000000600f86166010811061237d5761237c614879565b5b1a60f81b82828151811061239457612393614879565b5b60200101907effffffffffffffffffffffffffffffffffffffffffffffffffffffffffffff1916908160001a905350600485901c9450806123d490614ee8565b905061233e565b506000841461241f576040517f08c379a000000000000000000000000000000000000000000000000000000000815260040161241690614f5d565b60405180910390fd5b8091505092915050565b600080600090507a184f03e93ff9f4daa797ed6e38ed64bf6a1f0100000000000000008310612487577a184f03e93ff9f4daa797ed6e38ed64bf6a1f010000000000000000838161247d5761247c614d8e565b5b0492506040810190505b6d04ee2d6d415b85acef810000000083106124c4576d04ee2d6d415b85acef810000000083816124ba576124b9614d8e565b5b0492506020810190505b662386f26fc1000083106124f357662386f26fc1000083816124e9576124e8614d8e565b5b0492506010810190505b6305f5e100831061251c576305f5e100838161251257612511614d8e565b5b0492506008810190505b612710831061254157612710838161253757612536614d8e565b5b0492506004810190505b60648310612564576064838161255a57612559614d8e565b5b0492506002810190505b600a8310612573576001810190505b80915050919050565b60008151036125b7576040517f22ce3edd00000000000000000000000000000000000000000000000000000000815260040160405180910390fd5b82846000019060028111156125cf576125ce614dbd565b5b908160028111156125e3576125e2614dbd565b5b8152505081846040019060008111156125ff576125fe614dbd565b5b9081600081111561261357612612614dbd565b5b8152505080846060018190525050505050565b61262e612c43565b61263c81600001518361273f565b506000816020018181525050919050565b61265a82600383516127b8565b61267181836000015161296190919063ffffffff16565b505050565b61269860026005600660ff16901b17836000015161297d90919063ffffffff16565b506126c282826040516020016126ae9190613484565b604051602081830303815290604052612716565b5050565b6126d18160046129e7565b6001816020018181516126e49190614eb4565b9150818152505050565b6126f98160076129e7565b60018160200181815161270c9190614f7d565b9150818152505050565b61272382600283516127b8565b61273a81836000015161296190919063ffffffff16565b505050565b612747612c63565b60006020836127569190614fb1565b14612782576020826127689190614fb1565b60206127749190614f7d565b8261277f9190614eb4565b91505b8183602001818152505060405180845260008152828101602001818110156127a957600080fd5b80604052505082905092915050565b60178167ffffffffffffffff16116127f3576127ed8160058460ff16901b60ff1617846000015161297d90919063ffffffff16565b5061295c565b60ff8167ffffffffffffffff161161285157612826601860058460ff16901b17846000015161297d90919063ffffffff16565b5061284b8167ffffffffffffffff1660018560000151612a0d9092919063ffffffff16565b5061295b565b61ffff8167ffffffffffffffff16116128b057612885601960058460ff16901b17846000015161297d90919063ffffffff16565b506128aa8167ffffffffffffffff1660028560000151612a0d9092919063ffffffff16565b5061295a565b63ffffffff8167ffffffffffffffff1611612911576128e6601a60058460ff16901b17846000015161297d90919063ffffffff16565b5061290b8167ffffffffffffffff1660048560000151612a0d9092919063ffffffff16565b50612959565b612932601b60058460ff16901b17846000015161297d90919063ffffffff16565b506129578167ffffffffffffffff1660088560000151612a0d9092919063ffffffff16565b505b5b5b5b505050565b612969612c63565b61297583838451612a9a565b905092915050565b612985612c63565b60008360000151519050600060018261299e9190614eb4565b9050846020015182106129c2576129c1856002836129bc9190614e72565b612b7d565b5b845160208382010185815381518311156129da578282525b5050849250505092915050565b612a08601f60058360ff16901b17836000015161297d90919063ffffffff16565b505050565b612a15612c63565b6000846000015151905060008184612a2d9190614eb4565b90508560200151811115612a5257612a5186600283612a4c9190614e72565b612b7d565b5b6000600185610100612a649190615115565b612a6e9190614f7d565b905086518281018783198251161781528151841115612a8b578382525b50508693505050509392505050565b612aa2612c63565b8251821115612ab057600080fd5b6000846000015151905060008382612ac89190614eb4565b90508560200151811115612aed57612aec86600283612ae79190614e72565b612b7d565b5b60008087518051856020830101935080851115612b08578482525b60208901925050505b60208610612b4f5780518252602082612b2a9190614eb4565b9150602081612b399190614eb4565b9050602086612b489190614f7d565b9550612b11565b60006001876020036101000a0390508019825116818451168181178552505050879450505050509392505050565b600082600001519050612b90838361273f565b50612b9b8382612961565b50505050565b6040518060400160405280600073ffffffffffffffffffffffffffffffffffffffff168152602001600081525090565b6040518060e0016040528060006002811115612bf057612bef614dbd565b5b815260200160006002811115612c0957612c08614dbd565b5b8152602001600080811115612c2157612c20614dbd565b5b8152602001606081526020016060815260200160608152602001606081525090565b6040518060400160405280612c56612c63565b8152602001600081525090565b604051806040016040528060608152602001600081525090565b6000604051905090565b600080fd5b600080fd5b60007fffffffff0000000000000000000000000000000000000000000000000000000082169050919050565b612cc681612c91565b8114612cd157600080fd5b50565b600081359050612ce381612cbd565b92915050565b600060208284031215612cff57612cfe612c87565b5b6000612d0d84828501612cd4565b91505092915050565b60008115159050919050565b612d2b81612d16565b82525050565b6000602082019050612d466000830184612d22565b92915050565b6000819050919050565b612d5f81612d4c565b8114612d6a57600080fd5b50565b600081359050612d7c81612d56565b92915050565b600080fd5b600080fd5b6000601f19601f8301169050919050565b7f4e487b7100000000000000000000000000000000000000000000000000000000600052604160045260246000fd5b612dd582612d8c565b810181811067ffffffffffffffff82111715612df457612df3612d9d565b5b80604052505050565b6000612e07612c7d565b9050612e138282612dcc565b919050565b600067ffffffffffffffff821115612e3357612e32612d9d565b5b612e3c82612d8c565b9050602081019050919050565b82818337600083830152505050565b6000612e6b612e6684612e18565b612dfd565b905082815260208101848484011115612e8757612e86612d87565b5b612e92848285612e49565b509392505050565b600082601f830112612eaf57612eae612d82565b5b8135612ebf848260208601612e58565b91505092915050565b600080600060608486031215612ee157612ee0612c87565b5b6000612eef86828701612d6d565b935050602084013567ffffffffffffffff811115612f1057612f0f612c8c565b5b612f1c86828701612e9a565b925050604084013567ffffffffffffffff811115612f3d57612f3c612c8c565b5b612f4986828701612e9a565b9150509250925092565b600067ffffffffffffffff82169050919050565b612f7081612f53565b8114612f7b57600080fd5b50565b600081359050612f8d81612f67565b92915050565b600060208284031215612fa957612fa8612c87565b5b6000612fb784828501612f7e565b91505092915050565b600060208284031215612fd657612fd5612c87565b5b600082013567ffffffffffffffff811115612ff457612ff3612c8c565b5b61300084828501612e9a565b91505092915050565b600081519050919050565b600082825260208201905092915050565b60005b83811015613043578082015181840152602081019050613028565b60008484015250505050565b600061305a82613009565b6130648185613014565b9350613074818560208601613025565b61307d81612d8c565b840191505092915050565b600060208201905081810360008301526130a2818461304f565b905092915050565b600063ffffffff82169050919050565b6130c3816130aa565b81146130ce57600080fd5b50565b6000813590506130e0816130ba565b92915050565b6000602082840312156130fc576130fb612c87565b5b600061310a848285016130d1565b91505092915050565b600080fd5b600080fd5b600067ffffffffffffffff82111561313857613137612d9d565b5b61314182612d8c565b9050602081019050919050565b600061316161315c8461311d565b612dfd565b90508281526020810184848401111561317d5761317c612d87565b5b613188848285612e49565b509392505050565b600082601f8301126131a5576131a4612d82565b5b81356131b584826020860161314e565b91505092915050565b600073ffffffffffffffffffffffffffffffffffffffff82169050919050565b60006131e9826131be565b9050919050565b6131f9816131de565b811461320457600080fd5b50565b600081359050613216816131f0565b92915050565b6000819050919050565b61322f8161321c565b811461323a57600080fd5b50565b60008135905061324c81613226565b92915050565b600060e0828403121561326857613267613113565b5b61327260e0612dfd565b9050600082013567ffffffffffffffff81111561329257613291613118565b5b61329e84828501613190565b600083015250602082013567ffffffffffffffff8111156132c2576132c1613118565b5b6132ce84828501613190565b60208301525060406132e284828501613207565b604083015250606082013567ffffffffffffffff81111561330657613305613118565b5b61331284828501613190565b60608301525060806133268482850161323d565b60808301525060a082013567ffffffffffffffff81111561334a57613349613118565b5b61335684828501613190565b60a08301525060c082013567ffffffffffffffff81111561337a57613379613118565b5b61338684828501613190565b60c08301525092915050565b6000602082840312156133a8576133a7612c87565b5b600082013567ffffffffffffffff8111156133c6576133c5612c8c565b5b6133d284828501613252565b91505092915050565b6000602082840312156133f1576133f0612c87565b5b60006133ff84828501612d6d565b91505092915050565b600080fd5b600060a0828403121561342357613422613408565b5b81905092915050565b60006020828403121561344257613441612c87565b5b600082013567ffffffffffffffff8111156134605761345f612c8c565b5b61346c8482850161340d565b91505092915050565b61347e8161321c565b82525050565b60006020820190506134996000830184613475565b92915050565b6000608082840312156134b5576134b4613113565b5b6134bf6080612dfd565b9050600082013567ffffffffffffffff8111156134df576134de613118565b5b6134eb84828501613190565b60008301525060206134ff8482850161323d565b602083015250604082013567ffffffffffffffff81111561352357613522613118565b5b61352f84828501613190565b60408301525060606135438482850161323d565b60608301525092915050565b60006020828403121561356557613564612c87565b5b600082013567ffffffffffffffff81111561358357613582612c8c565b5b61358f8482850161349f565b91505092915050565b60008060008060008060c087890312156135b5576135b4612c87565b5b60006135c389828a01612f7e565b96505060206135d489828a01613207565b95505060406135e589828a01613207565b94505060606135f689828a0161323d565b935050608087013567ffffffffffffffff81111561361757613616612c8c565b5b61362389828a01613190565b92505060a087013567ffffffffffffffff81111561364457613643612c8c565b5b61365089828a01612e9a565b9150509295509295509295565b613666816131de565b82525050565b6000602082019050613681600083018461365d565b92915050565b6000806040838503121561369e5761369d612c87565b5b60006136ac85828601612f7e565b92505060206136bd85828601613207565b9150509250929050565b6000602082840312156136dd576136dc612c87565b5b600082013567ffffffffffffffff8111156136fb576136fa612c8c565b5b61370784828501613190565b91505092915050565b6000806040838503121561372757613726612c87565b5b600083013567ffffffffffffffff81111561374557613744612c8c565b5b61375185828601613190565b925050602061376285828601613207565b9150509250929050565b600067ffffffffffffffff82111561378757613786612d9d565b5b602082029050602081019050919050565b600080fd5b60006137b06137ab8461376c565b612dfd565b905080838252602082019050602084028301858111156137d3576137d2613798565b5b835b8181101561381a57803567ffffffffffffffff8111156137f8576137f7612d82565b5b8086016138058982613190565b855260208501945050506020810190506137d5565b5050509392505050565b600082601f83011261383957613838612d82565b5b813561384984826020860161379d565b91505092915050565b600060ff82169050919050565b61386881613852565b811461387357600080fd5b50565b6000813590506138858161385f565b92915050565b600080600080608085870312156138a5576138a4612c87565b5b60006138b387828801613207565b945050602085013567ffffffffffffffff8111156138d4576138d3612c8c565b5b6138e087828801613824565b935050604085013567ffffffffffffffff81111561390157613900612c8c565b5b61390d87828801613190565b925050606061391e87828801613876565b91505092959194509250565b6000602082840312156139405761393f612c87565b5b600061394e84828501613207565b91505092915050565b7f496e76616c696420706c616e0000000000000000000000000000000000000000600082015250565b600061398d600c83613014565b915061399882613957565b602082019050919050565b600060208201905081810360008301526139bc81613980565b9050919050565b7f496e73756666696369656e742066756e64730000000000000000000000000000600082015250565b60006139f9601283613014565b9150613a04826139c3565b602082019050919050565b60006020820190508181036000830152613a28816139ec565b9050919050565b7f4e487b7100000000000000000000000000000000000000000000000000000000600052602260045260246000fd5b60006002820490506001821680613a7657607f821691505b602082108103613a8957613a88613a2f565b5b50919050565b60008190508160005260206000209050919050565b60006020601f8301049050919050565b600082821b905092915050565b600060088302613af17fffffffffffffffffffffffffffffffffffffffffffffffffffffffffffffffff82613ab4565b613afb8683613ab4565b95508019841693508086168417925050509392505050565b6000819050919050565b6000613b38613b33613b2e8461321c565b613b13565b61321c565b9050919050565b6000819050919050565b613b5283613b1d565b613b66613b5e82613b3f565b848454613ac1565b825550505050565b600090565b613b7b613b6e565b613b86818484613b49565b505050565b5b81811015613baa57613b9f600082613b73565b600181019050613b8c565b5050565b601f821115613bef57613bc081613a8f565b613bc984613aa4565b81016020851015613bd8578190505b613bec613be485613aa4565b830182613b8b565b50505b505050565b600082821c905092915050565b6000613c1260001984600802613bf4565b1980831691505092915050565b6000613c2b8383613c01565b9150826002028217905092915050565b613c4482613009565b67ffffffffffffffff811115613c5d57613c5c612d9d565b5b613c678254613a5e565b613c72828285613bae565b600060209050601f831160018114613ca55760008415613c93578287015190505b613c9d8582613c1f565b865550613d05565b601f198416613cb386613a8f565b60005b82811015613cdb57848901518255600182019150602085019450602081019050613cb6565b86831015613cf85784890151613cf4601f891682613c01565b8355505b6001600288020188555050505b505050505050565b600061010082019050613d23600083018b61365d565b8181036020830152613d35818a61304f565b90508181036040830152613d49818961304f565b90508181036060830152613d5d818861304f565b9050613d6c6080830187613475565b613d7960a083018661365d565b81810360c0830152613d8b818561304f565b905081810360e0830152613d9f818461304f565b90509998505050505050505050565b600067ffffffffffffffff821115613dc957613dc8612d9d565b5b602082029050602081019050919050565b600060408284031215613df057613def613113565b5b613dfa6040612dfd565b90506000613e0a84828501613207565b6000830152506020613e1e8482850161323d565b60208301525092915050565b6000613e3d613e3884613dae565b612dfd565b90508083825260208201905060408402830185811115613e6057613e5f613798565b5b835b81811015613e895780613e758882613dda565b845260208401935050604081019050613e62565b5050509392505050565b600082601f830112613ea857613ea7612d82565b5b8135613eb8848260208601613e2a565b91505092915050565b600060a08284031215613ed757613ed6613113565b5b613ee160a0612dfd565b90506000613ef184828501612d6d565b6000830152506020613f0584828501612f7e565b602083015250604082013567ffffffffffffffff811115613f2957613f28613118565b5b613f3584828501612e9a565b604083015250606082013567ffffffffffffffff811115613f5957613f58613118565b5b613f6584828501612e9a565b606083015250608082013567ffffffffffffffff811115613f8957613f88613118565b5b613f9584828501613e93565b60808301525092915050565b6000613fad3683613ec1565b9050919050565b7f4e487b7100000000000000000000000000000000000000000000000000000000600052601160045260246000fd5b6000613fee8261321c565b91507fffffffffffffffffffffffffffffffffffffffffffffffffffffffffffffffff82036140205761401f613fb4565b5b600182019050919050565b600060a0820190506140406000830188613475565b8181036020830152614052818761304f565b90506140616040830186613475565b8181036060830152614073818561304f565b90506140826080830184613475565b9695505050505050565b7f436861696e206e6f7420737570706f7274656400000000000000000000000000600082015250565b60006140c2601383613014565b91506140cd8261408c565b602082019050919050565b600060208201905081810360008301526140f1816140b5565b9050919050565b600081519050919050565b600082825260208201905092915050565b600061411f826140f8565b6141298185614103565b9350614139818560208601613025565b61414281612d8c565b840191505092915050565b600060a082019050614162600083018861365d565b61416f602083018761365d565b61417c6040830186613475565b818103606083015261418e818561304f565b905081810360808301526141a28184614114565b90509695505050505050565b6141b781612f53565b82525050565b600082825260208201905092915050565b60006141d9826140f8565b6141e381856141bd565b93506141f3818560208601613025565b6141fc81612d8c565b840191505092915050565b600081519050919050565b600082825260208201905092915050565b6000819050602082019050919050565b61423c816131de565b82525050565b61424b8161321c565b82525050565b6040820160008201516142676000850182614233565b50602082015161427a6020850182614242565b50505050565b600061428c8383614251565b60408301905092915050565b6000602082019050919050565b60006142b082614207565b6142ba8185614212565b93506142c583614223565b8060005b838110156142f65781516142dd8882614280565b97506142e883614298565b9250506001810190506142c9565b5085935050505092915050565b600060a083016000830151848203600086015261432082826141ce565b9150506020830151848203602086015261433a82826141ce565b9150506040830151848203604086015261435482826142a5565b91505060608301516143696060860182614233565b506080830151848203608086015261438182826141ce565b9150508091505092915050565b60006040820190506143a360008301856141ae565b81810360208301526143b58184614303565b90509392505050565b6000815190506143cd81613226565b92915050565b6000602082840312156143e9576143e8612c87565b5b60006143f7848285016143be565b91505092915050565b7f496e73756666696369656e742066656500000000000000000000000000000000600082015250565b6000614436601083613014565b915061444182614400565b602082019050919050565b6000602082019050818103600083015261446581614429565b9050919050565b60008151905061447b81612d56565b92915050565b60006020828403121561449757614496612c87565b5b60006144a58482850161446c565b91505092915050565b7f556e417574686f72697a65640000000000000000000000000000000000000000600082015250565b60006144e4600c83613014565b91506144ef826144ae565b602082019050919050565b60006020820190508181036000830152614513816144d7565b9050919050565b600060408201905061452f600083018561365d565b8181036020830152614541818461304f565b90509392505050565b7f546f6f206d616e79206174747269627574657300000000000000000000000000600082015250565b6000614580601383613014565b915061458b8261454a565b602082019050919050565b600060208201905081810360008301526145af81614573565b9050919050565b7f47616d65204e6f7420466f756e64000000000000000000000000000000000000600082015250565b60006145ec600e83613014565b91506145f7826145b6565b602082019050919050565b6000602082019050818103600083015261461b816145df565b9050919050565b600081519050919050565b600082825260208201905092915050565b6000819050602082019050919050565b600082825260208201905092915050565b600061466a82613009565b614674818561464e565b9350614684818560208601613025565b61468d81612d8c565b840191505092915050565b60006146a4838361465f565b905092915050565b6000602082019050919050565b60006146c482614622565b6146ce818561462d565b9350836020820285016146e08561463e565b8060005b8581101561471c57848403895281516146fd8582614698565b9450614708836146ac565b925060208a019950506001810190506146e4565b50829750879550505050505092915050565b600082825260208201905092915050565b7f2c00000000000000000000000000000000000000000000000000000000000000600082015250565b600061477560018361472e565b91506147808261473f565b602082019050919050565b600060408201905081810360008301526147a581846146b9565b905081810360208301526147b881614768565b905092915050565b60006147d36147ce8461311d565b612dfd565b9050828152602081018484840111156147ef576147ee612d87565b5b6147fa848285613025565b509392505050565b600082601f83011261481757614816612d82565b5b81516148278482602086016147c0565b91505092915050565b60006020828403121561484657614845612c87565b5b600082015167ffffffffffffffff81111561486457614863612c8c565b5b61487084828501614802565b91505092915050565b7f4e487b7100000000000000000000000000000000000000000000000000000000600052603260045260246000fd5b6148b181612d4c565b82525050565b60006040820190506148cc60008301856148a8565b6148d9602083018461365d565b9392505050565b7f4f776e61626c653a206e6577206f776e657220697320746865207a65726f206160008201527f6464726573730000000000000000000000000000000000000000000000000000602082015250565b600061493c602683613014565b9150614947826148e0565b604082019050919050565b6000602082019050818103600083015261496b8161492f565b9050919050565b6000604082019050818103600083015261498c8185614114565b905081810360208301526149a08184614114565b90509392505050565b60006040820190506149be60008301856148a8565b81810360208301526149d08184614114565b90509392505050565b7f416c72656164792066756c66696c6c6564000000000000000000000000000000600082015250565b6000614a0f601183613014565b9150614a1a826149d9565b602082019050919050565b60006020820190508181036000830152614a3e81614a02565b9050919050565b600081905092915050565b7f4e554c4c00000000000000000000000000000000000000000000000000000000600082015250565b6000614a86600483614a45565b9150614a9182614a50565b600482019050919050565b6000614aa782614a79565b9150819050919050565b6000614abc82613009565b614ac68185614a45565b9350614ad6818560208601613025565b80840191505092915050565b6000614aee8284614ab1565b915081905092915050565b7f4f776e61626c653a2063616c6c6572206973206e6f7420746865206f776e6572600082015250565b6000614b2f602083613014565b9150614b3a82614af9565b602082019050919050565b60006020820190508181036000830152614b5e81614b22565b9050919050565b6000614b70826131be565b9050919050565b614b8081614b65565b8114614b8b57600080fd5b50565b600081519050614b9d81614b77565b92915050565b6000614bb6614bb184612e18565b612dfd565b905082815260208101848484011115614bd257614bd1612d87565b5b614bdd848285613025565b509392505050565b600082601f830112614bfa57614bf9612d82565b5b8151614c0a848260208601614ba3565b91505092915050565b600080600080600060a08688031215614c2f57614c2e612c87565b5b6000614c3d88828901614b8e565b9550506020614c4e88828901614b8e565b9450506040614c5f888289016143be565b935050606086015167ffffffffffffffff811115614c8057614c7f612c8c565b5b614c8c88828901614802565b925050608086015167ffffffffffffffff811115614cad57614cac612c8c565b5b614cb988828901614be5565b9150509295509295909350565b600060c082019050614cdb60008301896141ae565b614ce8602083018861365d565b614cf5604083018761365d565b614d026060830186613475565b8181036080830152614d14818561304f565b905081810360a0830152614d288184614114565b9050979650505050505050565b614d3e81612d16565b82525050565b604082016000820151614d5a6000850182614242565b506020820151614d6d6020850182614d35565b50505050565b6000604082019050614d886000830184614d44565b92915050565b7f4e487b7100000000000000000000000000000000000000000000000000000000600052601260045260246000fd5b7f4e487b7100000000000000000000000000000000000000000000000000000000600052602160045260246000fd5b600061ffff82169050919050565b614e0381614dec565b82525050565b614e12816130aa565b82525050565b600060a082019050614e2d60008301886141ae565b8181036020830152614e3f8187614114565b9050614e4e6040830186614dfa565b614e5b6060830185614e09565b614e6860808301846148a8565b9695505050505050565b6000614e7d8261321c565b9150614e888361321c565b9250828202614e968161321c565b91508282048414831517614ead57614eac613fb4565b5b5092915050565b6000614ebf8261321c565b9150614eca8361321c565b9250828201905080821115614ee257614ee1613fb4565b5b92915050565b6000614ef38261321c565b915060008203614f0657614f05613fb4565b5b600182039050919050565b7f537472696e67733a20686578206c656e67746820696e73756666696369656e74600082015250565b6000614f47602083613014565b9150614f5282614f11565b602082019050919050565b60006020820190508181036000830152614f7681614f3a565b9050919050565b6000614f888261321c565b9150614f938361321c565b9250828203905081811115614fab57614faa613fb4565b5b92915050565b6000614fbc8261321c565b9150614fc78361321c565b925082614fd757614fd6614d8e565b5b828206905092915050565b60008160011c9050919050565b6000808291508390505b60018511156150395780860481111561501557615014613fb4565b5b60018516156150245780820291505b808102905061503285614fe2565b9450614ff9565b94509492505050565b600082615052576001905061510e565b81615060576000905061510e565b81600181146150765760028114615080576150af565b600191505061510e565b60ff84111561509257615091613fb4565b5b8360020a9150848211156150a9576150a8613fb4565b5b5061510e565b5060208310610133831016604e8410600b84101617156150e45782820a9050838111156150df576150de613fb4565b5b61510e565b6150f18484846001614fef565b9250905081840481111561510857615107613fb4565b5b81810290505b9392505050565b60006151208261321c565b915061512b8361321c565b92506151587fffffffffffffffffffffffffffffffffffffffffffffffffffffffffffffffff8484615042565b90509291505056fea2646970667358221220b8bfbbd2d4b53298807bdda188da98f1f36fa7bf27876aff3c55c18adc4cd05664736f6c63430008130033",
  "immutableReferences": {
    "14": [
      {
        "length": 32,
        "start": 2259
      },
      {
        "length": 32,
        "start": 3763
      }
    ],
    "5186": [
      {
        "length": 32,
        "start": 1328
      },
      {
        "length": 32,
        "start": 8463
      }
    ]
  },
  "source": "// SPDX-License-Identifier: MIT\r\npragma solidity ^0.8.19;\r\n\r\nimport {Assets} from \"./libraries/Assets.sol\";\r\nimport {Params} from \"./libraries/Params.sol\";\r\nimport {IKanvasAvax} from \"./interfaces/IKanvasAvax.sol\";\r\nimport {IKanvasGame} from \"./interfaces/IKanvasGame.sol\";\r\nimport {IKanvasInteropGame} from \"./interfaces/IKanvasInteropGame.sol\";\r\nimport {StringJoiner} from \"./libraries/StringJoiner.sol\";\r\n\r\nimport {Strings} from \"@openzeppelin/contracts/utils/Strings.sol\";\r\nimport {Ownable} from \"@openzeppelin/contracts/access/Ownable.sol\";\r\nimport {Context} from \"@openzeppelin/contracts/utils/Context.sol\";\r\n\r\nimport {FunctionsClient} from \"./FunctionsClient.sol\";\r\nimport {FunctionsRequest} from \"@chainlink/contracts/src/v0.8/functions/dev/v1_0_0/libraries/FunctionsRequest.sol\";\r\n\r\nimport {Client} from \"@chainlink/contracts-ccip/src/v0.8/ccip/libraries/Client.sol\";\r\nimport {CCIPReceiver} from \"@chainlink/contracts-ccip/src/v0.8/ccip/applications/CCIPReceiver.sol\";\r\nimport {IRouterClient} from \"@chainlink/contracts-ccip/src/v0.8/ccip/interfaces/IRouterClient.sol\";\r\n\r\ncontract KanvasAvax is\r\n    IKanvasAvax,\r\n    Context,\r\n    CCIPReceiver,\r\n    FunctionsClient,\r\n    Ownable\r\n{\r\n    using FunctionsRequest for FunctionsRequest.Request;\r\n\r\n    uint64 private constant AVAX_SELECTOR = 14767482510784806043;\r\n    uint256 public constant MAX_PROPERTIES_LEN = 20;\r\n    uint256 public constant MAX_TEMPLATES_LEN = 5;\r\n\r\n    string private _sourceCode;\r\n    uint32 private _gasLimit = 70_000;\r\n    uint64 private _subscriptionId = 1580;\r\n    bytes32 private _donId =\r\n        0x66756e2d6176616c616e6368652d66756a692d31000000000000000000000000;\r\n\r\n    uint256 private _planId;\r\n    mapping(uint256 => Assets.Plan) private _plans;\r\n\r\n    mapping(address => Assets.Game) private _games;\r\n\r\n    mapping(bytes32 => Assets.Request) private _requests;\r\n\r\n    mapping(uint64 => address) private _interops;\r\n\r\n    IRouterClient private _router;\r\n\r\n    constructor(\r\n        address ccipReceiver,\r\n        address functionOracle\r\n    ) CCIPReceiver(ccipReceiver) Ownable() FunctionsClient(functionOracle) {\r\n        _router = IRouterClient(getRouter());\r\n    }\r\n\r\n    function updateDonId(bytes32 newDonId) external onlyOwner {\r\n        _donId = newDonId;\r\n    }\r\n\r\n    function updateSourceCode(string memory newSourceCode) external onlyOwner {\r\n        _sourceCode = newSourceCode;\r\n    }\r\n\r\n    function updateGasLimit(uint32 newLimit) external onlyOwner {\r\n        _gasLimit = newLimit;\r\n    }\r\n\r\n    function updateSubscriptionId(uint64 newSubscriptionId) external onlyOwner {\r\n        _subscriptionId = newSubscriptionId;\r\n    }\r\n\r\n    function createGame(Params.Game memory params) external payable {\r\n        require(_plans[params.plan].limit != 0, \"Invalid plan\");\r\n        require(msg.value == _plans[params.plan].cost, \"Insufficient funds\");\r\n\r\n        _games[params.gameId] = Assets.Game({\r\n            name: params.name,\r\n            description: params.description,\r\n            avatar: params.avatar,\r\n            plan: params.plan,\r\n            creator: _msgSender()\r\n        });\r\n\r\n        emit GameCreated(\r\n            params.gameId,\r\n            params.name,\r\n            params.description,\r\n            params.avatar,\r\n            params.plan,\r\n            _msgSender(),\r\n            params.email,\r\n            params.website\r\n        );\r\n    }\r\n\r\n    function addTemplate(string memory templateUri, address gameId) external {\r\n        address creator = _msgSender();\r\n\r\n        Assets.Game storage game = _games[gameId];\r\n\r\n        require(game.creator == creator, \"UnAuthorized\");\r\n\r\n        emit TemplateAdded(gameId, templateUri);\r\n    }\r\n\r\n    function _generateUri(\r\n        address playerId,\r\n        string[] memory props,\r\n        string memory fields,\r\n        uint8 templateId\r\n    ) external override {\r\n        require(props.length <= MAX_PROPERTIES_LEN, \"Too many attributes\");\r\n\r\n        address gameId = _msgSender();\r\n        require(_games[gameId].creator != address(0), \"Game Not Found\");\r\n\r\n        string[] memory args = new string[](5);\r\n        args[0] = StringJoiner.joinStrings(props, \",\");\r\n        args[1] = fields;\r\n        args[2] = Strings.toHexString(gameId);\r\n        args[3] = Strings.toHexString(playerId);\r\n        args[4] = Strings.toString(templateId);\r\n\r\n        // Initialize the request\r\n        FunctionsRequest.Request memory req;\r\n\r\n        // Soucre code\r\n        req.initializeRequestForInlineJavaScript(_sourceCode);\r\n\r\n        // Add arguments\r\n        req.setArgs(args);\r\n\r\n        bytes32 requestId = _sendRequest(\r\n            req.encodeCBOR(),\r\n            _subscriptionId,\r\n            _gasLimit,\r\n            _donId\r\n        );\r\n\r\n        _requests[requestId] = Assets.Request({\r\n            gameId: gameId,\r\n            playerId: playerId,\r\n            fulfilled: false\r\n        });\r\n\r\n        emit RequestSent(requestId, gameId);\r\n    }\r\n\r\n    function updateInterop(\r\n        uint64 chainSelector,\r\n        address kanvasRouter\r\n    ) external onlyOwner {\r\n        _interops[chainSelector] = kanvasRouter;\r\n    }\r\n\r\n    /** Receive the response in the form of string  */\r\n    function fulfillRequest(\r\n        bytes32 requestId,\r\n        bytes memory response,\r\n        bytes memory err\r\n    ) internal override {\r\n        emit OCRResponse(requestId, response, err);\r\n\r\n        if (err.length > 0) {\r\n            emit FulfullFailed(requestId, err);\r\n            return;\r\n        }\r\n\r\n        string memory URI = string(response);\r\n\r\n        Assets.Request storage request = _requests[requestId];\r\n        require(!request.fulfilled, \"Already fulfilled\");\r\n\r\n        if (\r\n            keccak256(abi.encodePacked(URI)) ==\r\n            keccak256(abi.encodePacked(\"NULL\"))\r\n        ) {\r\n            emit FulfullFailed(requestId, response);\r\n            return;\r\n        }\r\n\r\n        request.fulfilled = true;\r\n\r\n        require(_games[request.gameId].creator != address(0), \"Game Not Found\");\r\n\r\n        IKanvasGame game = IKanvasGame(request.gameId);\r\n        game._receiveUri(request.playerId, URI);\r\n\r\n        emit FulfullSuccess(requestId, response);\r\n    }\r\n\r\n    function test(bytes memory response) external pure returns (string memory) {\r\n        return string(response);\r\n    }\r\n\r\n    function _transferTo(\r\n        uint64 chainSelector,\r\n        address gameId,\r\n        address playerId,\r\n        uint256 tokenId,\r\n        string memory uri,\r\n        bytes memory data\r\n    ) external payable {\r\n        require(_interops[chainSelector] != address(0), \"Chain not supported\");\r\n\r\n        // Create an EVM2AnyMessage struct in memory with necessary information for sending a cross-chain message\r\n        Client.EVM2AnyMessage memory message = Client.EVM2AnyMessage({\r\n            // ABI-encoded receiver address\r\n            receiver: abi.encode(_interops[chainSelector]),\r\n            // ABI-encoded string message\r\n            data: abi.encode(gameId, playerId, tokenId, uri, data),\r\n            // Empty array indicating no tokens are being sent\r\n            tokenAmounts: new Client.EVMTokenAmount[](0),\r\n            // Additional arguments, setting gas limit and non-strict sequency mode\r\n            extraArgs: Client._argsToBytes(\r\n                Client.EVMExtraArgsV1({gasLimit: 400_000, strict: false})\r\n            ),\r\n            // Setting feeToken to zero address, indicating native asset will be used for fees\r\n            feeToken: address(0)\r\n        });\r\n\r\n        // Get the fee required to send the message\r\n        uint256 fees = _router.getFee(AVAX_SELECTOR, message);\r\n\r\n        require(msg.value >= fees, \"Insufficient fee\");\r\n\r\n        // Send the message through the router and store the returned message ID\r\n        _router.ccipSend{value: fees}(AVAX_SELECTOR, message);\r\n    }\r\n\r\n    // handle a received message\r\n    function _ccipReceive(\r\n        Client.Any2EVMMessage memory message\r\n    ) internal override {\r\n        (\r\n            address gameId,\r\n            address playerId,\r\n            uint256 tokenId,\r\n            string memory uri,\r\n            bytes memory data\r\n        ) = abi.decode(\r\n                message.data,\r\n                (address, address, uint256, string, bytes)\r\n            );\r\n\r\n        IKanvasInteropGame game = IKanvasInteropGame(gameId);\r\n        game._receiveFrom(\r\n            message.sourceChainSelector,\r\n            gameId,\r\n            playerId,\r\n            tokenId,\r\n            uri,\r\n            data\r\n        );\r\n    }\r\n\r\n    /** Create plans */\r\n    function createPlan(Params.Plan memory params) external onlyOwner {\r\n        _planId++;\r\n\r\n        _plans[_planId] = Assets.Plan({\r\n            name: params.name,\r\n            cost: params.cost,\r\n            color: params.color,\r\n            limit: params.limit\r\n        });\r\n\r\n        emit PlanCreated(\r\n            _planId,\r\n            params.name,\r\n            params.cost,\r\n            params.color,\r\n            params.limit\r\n        );\r\n    }\r\n}\r\n",
  "sourcePath": "C:\\Users\\DELL\\Documents\\kanvas\\blockchain\\contracts\\KanvasAvax.sol",
  "compiler": {
    "name": "solc",
    "version": "0.8.19+commit.7dd6d404.Emscripten.clang"
  },
  "schemaVersion": "3.4.11",
  "updatedAt": "2023-12-05T11:26:29.662Z",
  "networkType": "ethereum",
  "devdoc": {
    "kind": "dev",
    "methods": {
      "ccipReceive((bytes32,uint64,bytes,bytes,(address,uint256)[]))": {
        "details": "Note ensure you check the msg.sender is the OffRampRouter",
        "params": {
          "message": "CCIP Message"
        }
      },
      "getRouter()": {
        "returns": {
          "_0": "i_router address"
        }
      },
      "handleOracleFulfillment(bytes32,bytes,bytes)": {
        "details": "Either response or error parameter will be set, but never both.",
        "params": {
          "err": "Aggregated error either from the request's source code or from the execution pipeline.",
          "requestId": "The requestId returned by FunctionsClient.sendRequest().",
          "response": "Aggregated response from the request's source code."
        }
      },
      "owner()": {
        "details": "Returns the address of the current owner."
      },
      "renounceOwnership()": {
        "details": "Leaves the contract without owner. It will not be possible to call `onlyOwner` functions. Can only be called by the current owner. NOTE: Renouncing ownership will leave the contract without an owner, thereby disabling any functionality that is only available to the owner."
      },
      "supportsInterface(bytes4)": {
        "params": {
          "interfaceId": "The interfaceId to check"
        },
        "returns": {
          "_0": "true if the interfaceId is supported"
        }
      },
      "transferOwnership(address)": {
        "details": "Transfers ownership of the contract to a new account (`newOwner`). Can only be called by the current owner."
      }
    },
    "version": 1
  },
  "userdoc": {
    "kind": "user",
    "methods": {
      "ccipReceive((bytes32,uint64,bytes,bytes,(address,uint256)[]))": {
        "notice": "Called by the Router to deliver a message. If this reverts, any token transfers also revert. The message will move to a FAILED state and become available for manual execution."
      },
      "createPlan((string,uint256,string,uint256))": {
        "notice": "Create plans "
      },
      "getRouter()": {
        "notice": "Return the current router"
      },
      "handleOracleFulfillment(bytes32,bytes,bytes)": {
        "notice": "Chainlink Functions response handler called by the Functions Router during fullilment from the designated transmitter node in an OCR round."
      },
      "supportsInterface(bytes4)": {
        "notice": "IERC165 supports an interfaceId"
      }
    },
    "version": 1
  }
}