{
  "contractName": "RockPaperScissorsInterop",
  "abi": [
    {
      "inputs": [
        {
          "internalType": "address",
          "name": "kanvasRouter",
          "type": "address"
        },
        {
          "internalType": "address",
          "name": "sourceGameId",
          "type": "address"
        }
      ],
      "stateMutability": "nonpayable",
      "type": "constructor"
    },
    {
      "anonymous": false,
      "inputs": [
        {
          "indexed": true,
          "internalType": "address",
          "name": "owner",
          "type": "address"
        },
        {
          "indexed": true,
          "internalType": "address",
          "name": "approved",
          "type": "address"
        },
        {
          "indexed": true,
          "internalType": "uint256",
          "name": "tokenId",
          "type": "uint256"
        }
      ],
      "name": "Approval",
      "type": "event"
    },
    {
      "anonymous": false,
      "inputs": [
        {
          "indexed": true,
          "internalType": "address",
          "name": "owner",
          "type": "address"
        },
        {
          "indexed": true,
          "internalType": "address",
          "name": "operator",
          "type": "address"
        },
        {
          "indexed": false,
          "internalType": "bool",
          "name": "approved",
          "type": "bool"
        }
      ],
      "name": "ApprovalForAll",
      "type": "event"
    },
    {
      "anonymous": false,
      "inputs": [
        {
          "indexed": true,
          "internalType": "address",
          "name": "previousOwner",
          "type": "address"
        },
        {
          "indexed": true,
          "internalType": "address",
          "name": "newOwner",
          "type": "address"
        }
      ],
      "name": "OwnershipTransferred",
      "type": "event"
    },
    {
      "anonymous": false,
      "inputs": [
        {
          "indexed": true,
          "internalType": "address",
          "name": "from",
          "type": "address"
        },
        {
          "indexed": true,
          "internalType": "address",
          "name": "to",
          "type": "address"
        },
        {
          "indexed": true,
          "internalType": "uint256",
          "name": "tokenId",
          "type": "uint256"
        }
      ],
      "name": "Transfer",
      "type": "event"
    },
    {
      "inputs": [],
      "name": "MAX_PROPERTIES_LEN",
      "outputs": [
        {
          "internalType": "uint256",
          "name": "",
          "type": "uint256"
        }
      ],
      "stateMutability": "view",
      "type": "function"
    },
    {
      "inputs": [
        {
          "internalType": "address",
          "name": "to",
          "type": "address"
        },
        {
          "internalType": "uint256",
          "name": "tokenId",
          "type": "uint256"
        }
      ],
      "name": "approve",
      "outputs": [],
      "stateMutability": "nonpayable",
      "type": "function"
    },
    {
      "inputs": [
        {
          "internalType": "address",
          "name": "owner",
          "type": "address"
        }
      ],
      "name": "balanceOf",
      "outputs": [
        {
          "internalType": "uint256",
          "name": "",
          "type": "uint256"
        }
      ],
      "stateMutability": "view",
      "type": "function"
    },
    {
      "inputs": [
        {
          "internalType": "uint256",
          "name": "tokenId",
          "type": "uint256"
        }
      ],
      "name": "getApproved",
      "outputs": [
        {
          "internalType": "address",
          "name": "",
          "type": "address"
        }
      ],
      "stateMutability": "view",
      "type": "function"
    },
    {
      "inputs": [
        {
          "internalType": "address",
          "name": "owner",
          "type": "address"
        },
        {
          "internalType": "address",
          "name": "operator",
          "type": "address"
        }
      ],
      "name": "isApprovedForAll",
      "outputs": [
        {
          "internalType": "bool",
          "name": "",
          "type": "bool"
        }
      ],
      "stateMutability": "view",
      "type": "function"
    },
    {
      "inputs": [],
      "name": "name",
      "outputs": [
        {
          "internalType": "string",
          "name": "",
          "type": "string"
        }
      ],
      "stateMutability": "view",
      "type": "function"
    },
    {
      "inputs": [],
      "name": "owner",
      "outputs": [
        {
          "internalType": "address",
          "name": "",
          "type": "address"
        }
      ],
      "stateMutability": "view",
      "type": "function"
    },
    {
      "inputs": [
        {
          "internalType": "uint256",
          "name": "tokenId",
          "type": "uint256"
        }
      ],
      "name": "ownerOf",
      "outputs": [
        {
          "internalType": "address",
          "name": "",
          "type": "address"
        }
      ],
      "stateMutability": "view",
      "type": "function"
    },
    {
      "inputs": [],
      "name": "renounceOwnership",
      "outputs": [],
      "stateMutability": "nonpayable",
      "type": "function"
    },
    {
      "inputs": [
        {
          "internalType": "address",
          "name": "from",
          "type": "address"
        },
        {
          "internalType": "address",
          "name": "to",
          "type": "address"
        },
        {
          "internalType": "uint256",
          "name": "tokenId",
          "type": "uint256"
        }
      ],
      "name": "safeTransferFrom",
      "outputs": [],
      "stateMutability": "nonpayable",
      "type": "function"
    },
    {
      "inputs": [
        {
          "internalType": "address",
          "name": "from",
          "type": "address"
        },
        {
          "internalType": "address",
          "name": "to",
          "type": "address"
        },
        {
          "internalType": "uint256",
          "name": "tokenId",
          "type": "uint256"
        },
        {
          "internalType": "bytes",
          "name": "data",
          "type": "bytes"
        }
      ],
      "name": "safeTransferFrom",
      "outputs": [],
      "stateMutability": "nonpayable",
      "type": "function"
    },
    {
      "inputs": [
        {
          "internalType": "address",
          "name": "operator",
          "type": "address"
        },
        {
          "internalType": "bool",
          "name": "approved",
          "type": "bool"
        }
      ],
      "name": "setApprovalForAll",
      "outputs": [],
      "stateMutability": "nonpayable",
      "type": "function"
    },
    {
      "inputs": [
        {
          "internalType": "bytes4",
          "name": "interfaceId",
          "type": "bytes4"
        }
      ],
      "name": "supportsInterface",
      "outputs": [
        {
          "internalType": "bool",
          "name": "",
          "type": "bool"
        }
      ],
      "stateMutability": "view",
      "type": "function"
    },
    {
      "inputs": [],
      "name": "symbol",
      "outputs": [
        {
          "internalType": "string",
          "name": "",
          "type": "string"
        }
      ],
      "stateMutability": "view",
      "type": "function"
    },
    {
      "inputs": [
        {
          "internalType": "uint256",
          "name": "tokenId",
          "type": "uint256"
        }
      ],
      "name": "tokenURI",
      "outputs": [
        {
          "internalType": "string",
          "name": "",
          "type": "string"
        }
      ],
      "stateMutability": "view",
      "type": "function"
    },
    {
      "inputs": [
        {
          "internalType": "address",
          "name": "from",
          "type": "address"
        },
        {
          "internalType": "address",
          "name": "to",
          "type": "address"
        },
        {
          "internalType": "uint256",
          "name": "tokenId",
          "type": "uint256"
        }
      ],
      "name": "transferFrom",
      "outputs": [],
      "stateMutability": "nonpayable",
      "type": "function"
    },
    {
      "inputs": [
        {
          "internalType": "address",
          "name": "newOwner",
          "type": "address"
        }
      ],
      "name": "transferOwnership",
      "outputs": [],
      "stateMutability": "nonpayable",
      "type": "function"
    },
    {
      "inputs": [
        {
          "internalType": "address",
          "name": "playerId",
          "type": "address"
        }
      ],
      "name": "getPlayer",
      "outputs": [
        {
          "components": [
            {
              "internalType": "string",
              "name": "name",
              "type": "string"
            },
            {
              "internalType": "uint256",
              "name": "points",
              "type": "uint256"
            },
            {
              "internalType": "bool",
              "name": "created",
              "type": "bool"
            }
          ],
          "internalType": "struct RockPaperScissorsInterop.Player",
          "name": "",
          "type": "tuple"
        }
      ],
      "stateMutability": "view",
      "type": "function"
    },
    {
      "inputs": [
        {
          "internalType": "address",
          "name": "playerId",
          "type": "address"
        }
      ],
      "name": "upgradePlayer",
      "outputs": [],
      "stateMutability": "nonpayable",
      "type": "function"
    },
    {
      "inputs": [
        {
          "internalType": "address",
          "name": "playerId",
          "type": "address"
        }
      ],
      "name": "downgradePlayer",
      "outputs": [],
      "stateMutability": "nonpayable",
      "type": "function"
    },
    {
      "inputs": [
        {
          "internalType": "uint64",
          "name": "chainSelector",
          "type": "uint64"
        }
      ],
      "name": "transferTo",
      "outputs": [],
      "stateMutability": "payable",
      "type": "function"
    },
    {
      "inputs": [
        {
          "internalType": "uint64",
          "name": "",
          "type": "uint64"
        },
        {
          "internalType": "address",
          "name": "",
          "type": "address"
        },
        {
          "internalType": "address",
          "name": "playerId",
          "type": "address"
        },
        {
          "internalType": "uint256",
          "name": "tokenId",
          "type": "uint256"
        },
        {
          "internalType": "string",
          "name": "uri",
          "type": "string"
        },
        {
          "internalType": "bytes",
          "name": "data",
          "type": "bytes"
        }
      ],
      "name": "_receiveFrom",
      "outputs": [],
      "stateMutability": "nonpayable",
      "type": "function"
    }
  ],
  "bytecode": "0x60806040523480156200001157600080fd5b506040516200476e3803806200476e833981810160405281019062000037919062000329565b6040518060400160405280601181526020017f526f636b506170657253636973736f72730000000000000000000000000000008152506040518060400160405280600381526020017f52505300000000000000000000000000000000000000000000000000000000008152508160009081620000b49190620005ea565b508060019081620000c69190620005ea565b505050620000e9620000dd620001f160201b60201c565b620001f960201b60201c565b81600a60006101000a81548173ffffffffffffffffffffffffffffffffffffffff021916908373ffffffffffffffffffffffffffffffffffffffff160217905550600a60009054906101000a900473ffffffffffffffffffffffffffffffffffffffff1673ffffffffffffffffffffffffffffffffffffffff1663afd21cfe67ccf0a31a221f3c9b60405180602001604052808573ffffffffffffffffffffffffffffffffffffffff168152506040518363ffffffff1660e01b8152600401620001b592919062000725565b600060405180830381600087803b158015620001d057600080fd5b505af1158015620001e5573d6000803e3d6000fd5b50505050505062000752565b600033905090565b6000600660009054906101000a900473ffffffffffffffffffffffffffffffffffffffff16905081600660006101000a81548173ffffffffffffffffffffffffffffffffffffffff021916908373ffffffffffffffffffffffffffffffffffffffff1602179055508173ffffffffffffffffffffffffffffffffffffffff168173ffffffffffffffffffffffffffffffffffffffff167f8be0079c531659141344cd1fd0a4f28419497f9722a3daafe3b4186f6b6457e060405160405180910390a35050565b600080fd5b600073ffffffffffffffffffffffffffffffffffffffff82169050919050565b6000620002f182620002c4565b9050919050565b6200030381620002e4565b81146200030f57600080fd5b50565b6000815190506200032381620002f8565b92915050565b60008060408385031215620003435762000342620002bf565b5b6000620003538582860162000312565b9250506020620003668582860162000312565b9150509250929050565b600081519050919050565b7f4e487b7100000000000000000000000000000000000000000000000000000000600052604160045260246000fd5b7f4e487b7100000000000000000000000000000000000000000000000000000000600052602260045260246000fd5b60006002820490506001821680620003f257607f821691505b602082108103620004085762000407620003aa565b5b50919050565b60008190508160005260206000209050919050565b60006020601f8301049050919050565b600082821b905092915050565b600060088302620004727fffffffffffffffffffffffffffffffffffffffffffffffffffffffffffffffff8262000433565b6200047e868362000433565b95508019841693508086168417925050509392505050565b6000819050919050565b6000819050919050565b6000620004cb620004c5620004bf8462000496565b620004a0565b62000496565b9050919050565b6000819050919050565b620004e783620004aa565b620004ff620004f682620004d2565b84845462000440565b825550505050565b600090565b6200051662000507565b62000523818484620004dc565b505050565b5b818110156200054b576200053f6000826200050c565b60018101905062000529565b5050565b601f8211156200059a5762000564816200040e565b6200056f8462000423565b810160208510156200057f578190505b620005976200058e8562000423565b83018262000528565b50505b505050565b600082821c905092915050565b6000620005bf600019846008026200059f565b1980831691505092915050565b6000620005da8383620005ac565b9150826002028217905092915050565b620005f58262000370565b67ffffffffffffffff8111156200061157620006106200037b565b5b6200061d8254620003d9565b6200062a8282856200054f565b600060209050601f8311600181146200066257600084156200064d578287015190505b620006598582620005cc565b865550620006c9565b601f19841662000672866200040e565b60005b828110156200069c5784890151825560018201915060208501945060208101905062000675565b86831015620006bc5784890151620006b8601f891682620005ac565b8355505b6001600288020188555050505b505050505050565b600067ffffffffffffffff82169050919050565b620006f081620006d1565b82525050565b6200070181620002e4565b82525050565b6020820160008201516200071f6000850182620006f6565b50505050565b60006040820190506200073c6000830185620006e5565b6200074b602083018462000707565b9392505050565b61400c80620007626000396000f3fe6080604052600436106101355760003560e01c8063715018a6116100ab578063a22cb4651161006f578063a22cb46514610424578063af3ef62e1461044d578063b88d4fde14610469578063c87b56dd14610492578063e985e9c5146104cf578063f2fde38b1461050c57610135565b8063715018a6146103635780638b8ff3581461037a5780638da5cb5b146103a557806395d89b41146103d0578063a06422a7146103fb57610135565b806340f87392116100fd57806340f873921461023157806342842e0e1461025a5780635c12cd4b146102835780636352211e146102c05780636d4195fb146102fd57806370a082311461032657610135565b806301ffc9a71461013a57806306fdde0314610177578063081812fc146101a2578063095ea7b3146101df57806323b872dd14610208575b600080fd5b34801561014657600080fd5b50610161600480360381019061015c9190612881565b610535565b60405161016e91906128c9565b60405180910390f35b34801561018357600080fd5b5061018c610617565b6040516101999190612974565b60405180910390f35b3480156101ae57600080fd5b506101c960048036038101906101c491906129cc565b6106a9565b6040516101d69190612a3a565b60405180910390f35b3480156101eb57600080fd5b5061020660048036038101906102019190612a81565b6106ef565b005b34801561021457600080fd5b5061022f600480360381019061022a9190612ac1565b610806565b005b34801561023d57600080fd5b5061025860048036038101906102539190612b14565b610866565b005b34801561026657600080fd5b50610281600480360381019061027c9190612ac1565b610b62565b005b34801561028f57600080fd5b506102aa60048036038101906102a59190612b14565b610b82565b6040516102b79190612bf9565b60405180910390f35b3480156102cc57600080fd5b506102e760048036038101906102e291906129cc565b610c92565b6040516102f49190612a3a565b60405180910390f35b34801561030957600080fd5b50610324600480360381019061031f9190612e31565b610d18565b005b34801561033257600080fd5b5061034d60048036038101906103489190612b14565b610e43565b60405161035a9190612f05565b60405180910390f35b34801561036f57600080fd5b50610378610efa565b005b34801561038657600080fd5b5061038f610f0e565b60405161039c9190612f05565b60405180910390f35b3480156103b157600080fd5b506103ba610f13565b6040516103c79190612a3a565b60405180910390f35b3480156103dc57600080fd5b506103e5610f3d565b6040516103f29190612974565b60405180910390f35b34801561040757600080fd5b50610422600480360381019061041d9190612b14565b610fcf565b005b34801561043057600080fd5b5061044b60048036038101906104469190612f4c565b611283565b005b61046760048036038101906104629190612f8c565b611299565b005b34801561047557600080fd5b50610490600480360381019061048b9190612fb9565b6115cd565b005b34801561049e57600080fd5b506104b960048036038101906104b491906129cc565b61162f565b6040516104c69190612974565b60405180910390f35b3480156104db57600080fd5b506104f660048036038101906104f1919061303c565b611697565b60405161050391906128c9565b60405180910390f35b34801561051857600080fd5b50610533600480360381019061052e9190612b14565b61172b565b005b60007f80ac58cd000000000000000000000000000000000000000000000000000000007bffffffffffffffffffffffffffffffffffffffffffffffffffffffff1916827bffffffffffffffffffffffffffffffffffffffffffffffffffffffff1916148061060057507f5b5e139f000000000000000000000000000000000000000000000000000000007bffffffffffffffffffffffffffffffffffffffffffffffffffffffff1916827bffffffffffffffffffffffffffffffffffffffffffffffffffffffff1916145b80610610575061060f826117ae565b5b9050919050565b606060008054610626906130ab565b80601f0160208091040260200160405190810160405280929190818152602001828054610652906130ab565b801561069f5780601f106106745761010080835404028352916020019161069f565b820191906000526020600020905b81548152906001019060200180831161068257829003601f168201915b5050505050905090565b60006106b482611818565b6004600083815260200190815260200160002060009054906101000a900473ffffffffffffffffffffffffffffffffffffffff169050919050565b60006106fa82610c92565b90508073ffffffffffffffffffffffffffffffffffffffff168373ffffffffffffffffffffffffffffffffffffffff160361076a576040517f08c379a00000000000000000000000000000000000000000000000000000000081526004016107619061314e565b60405180910390fd5b8073ffffffffffffffffffffffffffffffffffffffff16610789611863565b73ffffffffffffffffffffffffffffffffffffffff1614806107b857506107b7816107b2611863565b611697565b5b6107f7576040517f08c379a00000000000000000000000000000000000000000000000000000000081526004016107ee906131e0565b60405180910390fd5b610801838361186b565b505050565b610817610811611863565b82611924565b610856576040517f08c379a000000000000000000000000000000000000000000000000000000000815260040161084d90613272565b60405180910390fd5b6108618383836119b9565b505050565b61086e611cb2565b6000600b60008373ffffffffffffffffffffffffffffffffffffffff1673ffffffffffffffffffffffffffffffffffffffff16815260200190815260200160002090508060020160009054906101000a900460ff16610902576040517f08c379a00000000000000000000000000000000000000000000000000000000081526004016108f9906132de565b60405180910390fd5b60018160010154101561094a576040517f08c379a00000000000000000000000000000000000000000000000000000000081526004016109419061334a565b60405180910390fd5b6001816001015461095b9190613399565b81600101819055506000601467ffffffffffffffff8111156109805761097f612c65565b5b6040519080825280602002602001820160405280156109b357816020015b606081526020019060019003908161099e5790505b5090508160000180546109c5906130ab565b80601f01602080910402602001604051908101604052809291908181526020018280546109f1906130ab565b8015610a3e5780601f10610a1357610100808354040283529160200191610a3e565b820191906000526020600020905b815481529060010190602001808311610a2157829003601f168201915b505050505081600081518110610a5757610a566133cd565b5b6020026020010181905250610a6f8260010154611d30565b81600181518110610a8357610a826133cd565b5b602002602001018190525060006040518060400160405280601d81526020017f24706c617965725f6e616d65242024706c617965725f706f696e7473240000008152509050600a60009054906101000a900473ffffffffffffffffffffffffffffffffffffffff1673ffffffffffffffffffffffffffffffffffffffff1663eee6e57385848460016040518563ffffffff1660e01b8152600401610b2a94939291906134da565b600060405180830381600087803b158015610b4457600080fd5b505af1158015610b58573d6000803e3d6000fd5b5050505050505050565b610b7d838383604051806020016040528060008152506115cd565b505050565b610b8a612795565b600b60008373ffffffffffffffffffffffffffffffffffffffff1673ffffffffffffffffffffffffffffffffffffffff168152602001908152602001600020604051806060016040529081600082018054610be4906130ab565b80601f0160208091040260200160405190810160405280929190818152602001828054610c10906130ab565b8015610c5d5780601f10610c3257610100808354040283529160200191610c5d565b820191906000526020600020905b815481529060010190602001808311610c4057829003601f168201915b50505050508152602001600182015481526020016002820160009054906101000a900460ff1615151515815250509050919050565b600080610c9e83611dfe565b9050600073ffffffffffffffffffffffffffffffffffffffff168173ffffffffffffffffffffffffffffffffffffffff1603610d0f576040517f08c379a0000000000000000000000000000000000000000000000000000000008152600401610d0690613579565b60405180910390fd5b80915050919050565b60008082806020019051810190610d2f919061361e565b91509150610d3d8686611e3b565b83600860008781526020019081526020016000209081610d5d9190613826565b5081600b60008873ffffffffffffffffffffffffffffffffffffffff1673ffffffffffffffffffffffffffffffffffffffff1681526020019081526020016000206000019081610dad9190613826565b5080600b60008873ffffffffffffffffffffffffffffffffffffffff1673ffffffffffffffffffffffffffffffffffffffff1681526020019081526020016000206001018190555084600960008873ffffffffffffffffffffffffffffffffffffffff1673ffffffffffffffffffffffffffffffffffffffff168152602001908152602001600020819055505050505050505050565b60008073ffffffffffffffffffffffffffffffffffffffff168273ffffffffffffffffffffffffffffffffffffffff1603610eb3576040517f08c379a0000000000000000000000000000000000000000000000000000000008152600401610eaa9061396a565b60405180910390fd5b600360008373ffffffffffffffffffffffffffffffffffffffff1673ffffffffffffffffffffffffffffffffffffffff168152602001908152602001600020549050919050565b610f02611cb2565b610f0c6000612058565b565b601481565b6000600660009054906101000a900473ffffffffffffffffffffffffffffffffffffffff16905090565b606060018054610f4c906130ab565b80601f0160208091040260200160405190810160405280929190818152602001828054610f78906130ab565b8015610fc55780601f10610f9a57610100808354040283529160200191610fc5565b820191906000526020600020905b815481529060010190602001808311610fa857829003601f168201915b5050505050905090565b610fd7611cb2565b6000600b60008373ffffffffffffffffffffffffffffffffffffffff1673ffffffffffffffffffffffffffffffffffffffff16815260200190815260200160002090508060020160009054906101000a900460ff1661106b576040517f08c379a0000000000000000000000000000000000000000000000000000000008152600401611062906132de565b60405180910390fd5b6005816001015461107c919061398a565b81600101819055506000601467ffffffffffffffff8111156110a1576110a0612c65565b5b6040519080825280602002602001820160405280156110d457816020015b60608152602001906001900390816110bf5790505b5090508160000180546110e6906130ab565b80601f0160208091040260200160405190810160405280929190818152602001828054611112906130ab565b801561115f5780601f106111345761010080835404028352916020019161115f565b820191906000526020600020905b81548152906001019060200180831161114257829003601f168201915b505050505081600081518110611178576111776133cd565b5b60200260200101819052506111908260010154611d30565b816001815181106111a4576111a36133cd565b5b602002602001018190525060006040518060400160405280601d81526020017f24706c617965725f6e616d65242024706c617965725f706f696e7473240000008152509050600a60009054906101000a900473ffffffffffffffffffffffffffffffffffffffff1673ffffffffffffffffffffffffffffffffffffffff1663eee6e57385848460006040518563ffffffff1660e01b815260040161124b94939291906134da565b600060405180830381600087803b15801561126557600080fd5b505af1158015611279573d6000803e3d6000fd5b5050505050505050565b61129561128e611863565b838361211e565b5050565b60006112a3611863565b90506000600960008373ffffffffffffffffffffffffffffffffffffffff1673ffffffffffffffffffffffffffffffffffffffff1681526020019081526020016000205490506112f28161228a565b60086000828152602001908152602001600020600061131191906127b8565b600960008373ffffffffffffffffffffffffffffffffffffffff1673ffffffffffffffffffffffffffffffffffffffff1681526020019081526020016000206000905560003090506000600860008481526020019081526020016000208054611379906130ab565b80601f01602080910402602001604051908101604052809291908181526020018280546113a5906130ab565b80156113f25780601f106113c7576101008083540402835291602001916113f2565b820191906000526020600020905b8154815290600101906020018083116113d557829003601f168201915b505050505090506000600b60008673ffffffffffffffffffffffffffffffffffffffff1673ffffffffffffffffffffffffffffffffffffffff168152602001908152602001600020604051806060016040529081600082018054611455906130ab565b80601f0160208091040260200160405190810160405280929190818152602001828054611481906130ab565b80156114ce5780601f106114a3576101008083540402835291602001916114ce565b820191906000526020600020905b8154815290600101906020018083116114b157829003601f168201915b50505050508152602001600182015481526020016002820160009054906101000a900460ff161515151581525050905060008160000151826020015160405160200161151b9291906139be565b6040516020818303038152906040529050600a60009054906101000a900473ffffffffffffffffffffffffffffffffffffffff1673ffffffffffffffffffffffffffffffffffffffff16638d6dc0eb3489878a8a89886040518863ffffffff1660e01b815260040161159296959493929190613a52565b6000604051808303818588803b1580156115ab57600080fd5b505af11580156115bf573d6000803e3d6000fd5b505050505050505050505050565b6115de6115d8611863565b83611924565b61161d576040517f08c379a000000000000000000000000000000000000000000000000000000000815260040161161490613272565b60405180910390fd5b611629848484846123d8565b50505050565b606061163a82611818565b6000611644612434565b90506000815111611664576040518060200160405280600081525061168f565b8061166e84611d30565b60405160200161167f929190613afd565b6040516020818303038152906040525b915050919050565b6000600560008473ffffffffffffffffffffffffffffffffffffffff1673ffffffffffffffffffffffffffffffffffffffff16815260200190815260200160002060008373ffffffffffffffffffffffffffffffffffffffff1673ffffffffffffffffffffffffffffffffffffffff16815260200190815260200160002060009054906101000a900460ff16905092915050565b611733611cb2565b600073ffffffffffffffffffffffffffffffffffffffff168173ffffffffffffffffffffffffffffffffffffffff16036117a2576040517f08c379a000000000000000000000000000000000000000000000000000000000815260040161179990613b93565b60405180910390fd5b6117ab81612058565b50565b60007f01ffc9a7000000000000000000000000000000000000000000000000000000007bffffffffffffffffffffffffffffffffffffffffffffffffffffffff1916827bffffffffffffffffffffffffffffffffffffffffffffffffffffffff1916149050919050565b6118218161244b565b611860576040517f08c379a000000000000000000000000000000000000000000000000000000000815260040161185790613579565b60405180910390fd5b50565b600033905090565b816004600083815260200190815260200160002060006101000a81548173ffffffffffffffffffffffffffffffffffffffff021916908373ffffffffffffffffffffffffffffffffffffffff160217905550808273ffffffffffffffffffffffffffffffffffffffff166118de83610c92565b73ffffffffffffffffffffffffffffffffffffffff167f8c5be1e5ebec7d5bd14f71427d1e84f3dd0314c0f7b2291e5b200ac8c7c3b92560405160405180910390a45050565b60008061193083610c92565b90508073ffffffffffffffffffffffffffffffffffffffff168473ffffffffffffffffffffffffffffffffffffffff16148061197257506119718185611697565b5b806119b057508373ffffffffffffffffffffffffffffffffffffffff16611998846106a9565b73ffffffffffffffffffffffffffffffffffffffff16145b91505092915050565b8273ffffffffffffffffffffffffffffffffffffffff166119d982610c92565b73ffffffffffffffffffffffffffffffffffffffff1614611a2f576040517f08c379a0000000000000000000000000000000000000000000000000000000008152600401611a2690613c25565b60405180910390fd5b600073ffffffffffffffffffffffffffffffffffffffff168273ffffffffffffffffffffffffffffffffffffffff1603611a9e576040517f08c379a0000000000000000000000000000000000000000000000000000000008152600401611a9590613cb7565b60405180910390fd5b611aab838383600161248c565b8273ffffffffffffffffffffffffffffffffffffffff16611acb82610c92565b73ffffffffffffffffffffffffffffffffffffffff1614611b21576040517f08c379a0000000000000000000000000000000000000000000000000000000008152600401611b1890613c25565b60405180910390fd5b6004600082815260200190815260200160002060006101000a81549073ffffffffffffffffffffffffffffffffffffffff02191690556001600360008573ffffffffffffffffffffffffffffffffffffffff1673ffffffffffffffffffffffffffffffffffffffff168152602001908152602001600020600082825403925050819055506001600360008473ffffffffffffffffffffffffffffffffffffffff1673ffffffffffffffffffffffffffffffffffffffff16815260200190815260200160002060008282540192505081905550816002600083815260200190815260200160002060006101000a81548173ffffffffffffffffffffffffffffffffffffffff021916908373ffffffffffffffffffffffffffffffffffffffff160217905550808273ffffffffffffffffffffffffffffffffffffffff168473ffffffffffffffffffffffffffffffffffffffff167fddf252ad1be2c89b69c2b068fc378daa952ba7f163c4a11628f55a4df523b3ef60405160405180910390a4611cad8383836001612492565b505050565b611cba611863565b73ffffffffffffffffffffffffffffffffffffffff16611cd8610f13565b73ffffffffffffffffffffffffffffffffffffffff1614611d2e576040517f08c379a0000000000000000000000000000000000000000000000000000000008152600401611d2590613d23565b60405180910390fd5b565b606060006001611d3f84612498565b01905060008167ffffffffffffffff811115611d5e57611d5d612c65565b5b6040519080825280601f01601f191660200182016040528015611d905781602001600182028036833780820191505090505b509050600082602001820190505b600115611df3578080600190039150507f3031323334353637383961626364656600000000000000000000000000000000600a86061a8153600a8581611de757611de6613d43565b5b04945060008503611d9e575b819350505050919050565b60006002600083815260200190815260200160002060009054906101000a900473ffffffffffffffffffffffffffffffffffffffff169050919050565b600073ffffffffffffffffffffffffffffffffffffffff168273ffffffffffffffffffffffffffffffffffffffff1603611eaa576040517f08c379a0000000000000000000000000000000000000000000000000000000008152600401611ea190613dbe565b60405180910390fd5b611eb38161244b565b15611ef3576040517f08c379a0000000000000000000000000000000000000000000000000000000008152600401611eea90613e2a565b60405180910390fd5b611f0160008383600161248c565b611f0a8161244b565b15611f4a576040517f08c379a0000000000000000000000000000000000000000000000000000000008152600401611f4190613e2a565b60405180910390fd5b6001600360008473ffffffffffffffffffffffffffffffffffffffff1673ffffffffffffffffffffffffffffffffffffffff16815260200190815260200160002060008282540192505081905550816002600083815260200190815260200160002060006101000a81548173ffffffffffffffffffffffffffffffffffffffff021916908373ffffffffffffffffffffffffffffffffffffffff160217905550808273ffffffffffffffffffffffffffffffffffffffff16600073ffffffffffffffffffffffffffffffffffffffff167fddf252ad1be2c89b69c2b068fc378daa952ba7f163c4a11628f55a4df523b3ef60405160405180910390a4612054600083836001612492565b5050565b6000600660009054906101000a900473ffffffffffffffffffffffffffffffffffffffff16905081600660006101000a81548173ffffffffffffffffffffffffffffffffffffffff021916908373ffffffffffffffffffffffffffffffffffffffff1602179055508173ffffffffffffffffffffffffffffffffffffffff168173ffffffffffffffffffffffffffffffffffffffff167f8be0079c531659141344cd1fd0a4f28419497f9722a3daafe3b4186f6b6457e060405160405180910390a35050565b8173ffffffffffffffffffffffffffffffffffffffff168373ffffffffffffffffffffffffffffffffffffffff160361218c576040517f08c379a000000000000000000000000000000000000000000000000000000000815260040161218390613e96565b60405180910390fd5b80600560008573ffffffffffffffffffffffffffffffffffffffff1673ffffffffffffffffffffffffffffffffffffffff16815260200190815260200160002060008473ffffffffffffffffffffffffffffffffffffffff1673ffffffffffffffffffffffffffffffffffffffff16815260200190815260200160002060006101000a81548160ff0219169083151502179055508173ffffffffffffffffffffffffffffffffffffffff168373ffffffffffffffffffffffffffffffffffffffff167f17307eab39ab6107e8899845ad3d59bd9653f200f220920489ca2b5937696c318360405161227d91906128c9565b60405180910390a3505050565b600061229582610c92565b90506122a581600084600161248c565b6122ae82610c92565b90506004600083815260200190815260200160002060006101000a81549073ffffffffffffffffffffffffffffffffffffffff02191690556001600360008373ffffffffffffffffffffffffffffffffffffffff1673ffffffffffffffffffffffffffffffffffffffff168152602001908152602001600020600082825403925050819055506002600083815260200190815260200160002060006101000a81549073ffffffffffffffffffffffffffffffffffffffff021916905581600073ffffffffffffffffffffffffffffffffffffffff168273ffffffffffffffffffffffffffffffffffffffff167fddf252ad1be2c89b69c2b068fc378daa952ba7f163c4a11628f55a4df523b3ef60405160405180910390a46123d4816000846001612492565b5050565b6123e38484846119b9565b6123ef848484846125eb565b61242e576040517f08c379a000000000000000000000000000000000000000000000000000000000815260040161242590613f28565b60405180910390fd5b50505050565b606060405180602001604052806000815250905090565b60008073ffffffffffffffffffffffffffffffffffffffff1661246d83611dfe565b73ffffffffffffffffffffffffffffffffffffffff1614159050919050565b50505050565b50505050565b600080600090507a184f03e93ff9f4daa797ed6e38ed64bf6a1f01000000000000000083106124f6577a184f03e93ff9f4daa797ed6e38ed64bf6a1f01000000000000000083816124ec576124eb613d43565b5b0492506040810190505b6d04ee2d6d415b85acef81000000008310612533576d04ee2d6d415b85acef8100000000838161252957612528613d43565b5b0492506020810190505b662386f26fc10000831061256257662386f26fc10000838161255857612557613d43565b5b0492506010810190505b6305f5e100831061258b576305f5e100838161258157612580613d43565b5b0492506008810190505b61271083106125b05761271083816125a6576125a5613d43565b5b0492506004810190505b606483106125d357606483816125c9576125c8613d43565b5b0492506002810190505b600a83106125e2576001810190505b80915050919050565b600061260c8473ffffffffffffffffffffffffffffffffffffffff16612772565b15612765578373ffffffffffffffffffffffffffffffffffffffff1663150b7a02612635611863565b8786866040518563ffffffff1660e01b81526004016126579493929190613f48565b6020604051808303816000875af192505050801561269357506040513d601f19601f820116820180604052508101906126909190613fa9565b60015b612715573d80600081146126c3576040519150601f19603f3d011682016040523d82523d6000602084013e6126c8565b606091505b50600081510361270d576040517f08c379a000000000000000000000000000000000000000000000000000000000815260040161270490613f28565b60405180910390fd5b805181602001fd5b63150b7a0260e01b7bffffffffffffffffffffffffffffffffffffffffffffffffffffffff1916817bffffffffffffffffffffffffffffffffffffffffffffffffffffffff19161491505061276a565b600190505b949350505050565b6000808273ffffffffffffffffffffffffffffffffffffffff163b119050919050565b604051806060016040528060608152602001600081526020016000151581525090565b5080546127c4906130ab565b6000825580601f106127d657506127f5565b601f0160209004906000526020600020908101906127f491906127f8565b5b50565b5b808211156128115760008160009055506001016127f9565b5090565b6000604051905090565b600080fd5b600080fd5b60007fffffffff0000000000000000000000000000000000000000000000000000000082169050919050565b61285e81612829565b811461286957600080fd5b50565b60008135905061287b81612855565b92915050565b6000602082840312156128975761289661281f565b5b60006128a58482850161286c565b91505092915050565b60008115159050919050565b6128c3816128ae565b82525050565b60006020820190506128de60008301846128ba565b92915050565b600081519050919050565b600082825260208201905092915050565b60005b8381101561291e578082015181840152602081019050612903565b60008484015250505050565b6000601f19601f8301169050919050565b6000612946826128e4565b61295081856128ef565b9350612960818560208601612900565b6129698161292a565b840191505092915050565b6000602082019050818103600083015261298e818461293b565b905092915050565b6000819050919050565b6129a981612996565b81146129b457600080fd5b50565b6000813590506129c6816129a0565b92915050565b6000602082840312156129e2576129e161281f565b5b60006129f0848285016129b7565b91505092915050565b600073ffffffffffffffffffffffffffffffffffffffff82169050919050565b6000612a24826129f9565b9050919050565b612a3481612a19565b82525050565b6000602082019050612a4f6000830184612a2b565b92915050565b612a5e81612a19565b8114612a6957600080fd5b50565b600081359050612a7b81612a55565b92915050565b60008060408385031215612a9857612a9761281f565b5b6000612aa685828601612a6c565b9250506020612ab7858286016129b7565b9150509250929050565b600080600060608486031215612ada57612ad961281f565b5b6000612ae886828701612a6c565b9350506020612af986828701612a6c565b9250506040612b0a868287016129b7565b9150509250925092565b600060208284031215612b2a57612b2961281f565b5b6000612b3884828501612a6c565b91505092915050565b600082825260208201905092915050565b6000612b5d826128e4565b612b678185612b41565b9350612b77818560208601612900565b612b808161292a565b840191505092915050565b612b9481612996565b82525050565b612ba3816128ae565b82525050565b60006060830160008301518482036000860152612bc68282612b52565b9150506020830151612bdb6020860182612b8b565b506040830151612bee6040860182612b9a565b508091505092915050565b60006020820190508181036000830152612c138184612ba9565b905092915050565b600067ffffffffffffffff82169050919050565b612c3881612c1b565b8114612c4357600080fd5b50565b600081359050612c5581612c2f565b92915050565b600080fd5b600080fd5b7f4e487b7100000000000000000000000000000000000000000000000000000000600052604160045260246000fd5b612c9d8261292a565b810181811067ffffffffffffffff82111715612cbc57612cbb612c65565b5b80604052505050565b6000612ccf612815565b9050612cdb8282612c94565b919050565b600067ffffffffffffffff821115612cfb57612cfa612c65565b5b612d048261292a565b9050602081019050919050565b82818337600083830152505050565b6000612d33612d2e84612ce0565b612cc5565b905082815260208101848484011115612d4f57612d4e612c60565b5b612d5a848285612d11565b509392505050565b600082601f830112612d7757612d76612c5b565b5b8135612d87848260208601612d20565b91505092915050565b600067ffffffffffffffff821115612dab57612daa612c65565b5b612db48261292a565b9050602081019050919050565b6000612dd4612dcf84612d90565b612cc5565b905082815260208101848484011115612df057612def612c60565b5b612dfb848285612d11565b509392505050565b600082601f830112612e1857612e17612c5b565b5b8135612e28848260208601612dc1565b91505092915050565b60008060008060008060c08789031215612e4e57612e4d61281f565b5b6000612e5c89828a01612c46565b9650506020612e6d89828a01612a6c565b9550506040612e7e89828a01612a6c565b9450506060612e8f89828a016129b7565b935050608087013567ffffffffffffffff811115612eb057612eaf612824565b5b612ebc89828a01612d62565b92505060a087013567ffffffffffffffff811115612edd57612edc612824565b5b612ee989828a01612e03565b9150509295509295509295565b612eff81612996565b82525050565b6000602082019050612f1a6000830184612ef6565b92915050565b612f29816128ae565b8114612f3457600080fd5b50565b600081359050612f4681612f20565b92915050565b60008060408385031215612f6357612f6261281f565b5b6000612f7185828601612a6c565b9250506020612f8285828601612f37565b9150509250929050565b600060208284031215612fa257612fa161281f565b5b6000612fb084828501612c46565b91505092915050565b60008060008060808587031215612fd357612fd261281f565b5b6000612fe187828801612a6c565b9450506020612ff287828801612a6c565b9350506040613003878288016129b7565b925050606085013567ffffffffffffffff81111561302457613023612824565b5b61303087828801612e03565b91505092959194509250565b600080604083850312156130535761305261281f565b5b600061306185828601612a6c565b925050602061307285828601612a6c565b9150509250929050565b7f4e487b7100000000000000000000000000000000000000000000000000000000600052602260045260246000fd5b600060028204905060018216806130c357607f821691505b6020821081036130d6576130d561307c565b5b50919050565b7f4552433732313a20617070726f76616c20746f2063757272656e74206f776e6560008201527f7200000000000000000000000000000000000000000000000000000000000000602082015250565b60006131386021836128ef565b9150613143826130dc565b604082019050919050565b600060208201905081810360008301526131678161312b565b9050919050565b7f4552433732313a20617070726f76652063616c6c6572206973206e6f7420746f60008201527f6b656e206f776e6572206f7220617070726f76656420666f7220616c6c000000602082015250565b60006131ca603d836128ef565b91506131d58261316e565b604082019050919050565b600060208201905081810360008301526131f9816131bd565b9050919050565b7f4552433732313a2063616c6c6572206973206e6f7420746f6b656e206f776e6560008201527f72206f7220617070726f76656400000000000000000000000000000000000000602082015250565b600061325c602d836128ef565b915061326782613200565b604082019050919050565b6000602082019050818103600083015261328b8161324f565b9050919050565b7f437265617465207468697320706c617965722066697273740000000000000000600082015250565b60006132c86018836128ef565b91506132d382613292565b602082019050919050565b600060208201905081810360008301526132f7816132bb565b9050919050565b7f416c7265616479206465666561746564203a2900000000000000000000000000600082015250565b60006133346013836128ef565b915061333f826132fe565b602082019050919050565b6000602082019050818103600083015261336381613327565b9050919050565b7f4e487b7100000000000000000000000000000000000000000000000000000000600052601160045260246000fd5b60006133a482612996565b91506133af83612996565b92508282039050818111156133c7576133c661336a565b5b92915050565b7f4e487b7100000000000000000000000000000000000000000000000000000000600052603260045260246000fd5b600081519050919050565b600082825260208201905092915050565b6000819050602082019050919050565b60006134348383612b52565b905092915050565b6000602082019050919050565b6000613454826133fc565b61345e8185613407565b93508360208202850161347085613418565b8060005b858110156134ac578484038952815161348d8582613428565b94506134988361343c565b925060208a01995050600181019050613474565b50829750879550505050505092915050565b600060ff82169050919050565b6134d4816134be565b82525050565b60006080820190506134ef6000830187612a2b565b81810360208301526135018186613449565b90508181036040830152613515818561293b565b905061352460608301846134cb565b95945050505050565b7f4552433732313a20696e76616c696420746f6b656e2049440000000000000000600082015250565b60006135636018836128ef565b915061356e8261352d565b602082019050919050565b6000602082019050818103600083015261359281613556565b9050919050565b60006135ac6135a784612ce0565b612cc5565b9050828152602081018484840111156135c8576135c7612c60565b5b6135d3848285612900565b509392505050565b600082601f8301126135f0576135ef612c5b565b5b8151613600848260208601613599565b91505092915050565b600081519050613618816129a0565b92915050565b600080604083850312156136355761363461281f565b5b600083015167ffffffffffffffff81111561365357613652612824565b5b61365f858286016135db565b925050602061367085828601613609565b9150509250929050565b60008190508160005260206000209050919050565b60006020601f8301049050919050565b600082821b905092915050565b6000600883026136dc7fffffffffffffffffffffffffffffffffffffffffffffffffffffffffffffffff8261369f565b6136e6868361369f565b95508019841693508086168417925050509392505050565b6000819050919050565b600061372361371e61371984612996565b6136fe565b612996565b9050919050565b6000819050919050565b61373d83613708565b6137516137498261372a565b8484546136ac565b825550505050565b600090565b613766613759565b613771818484613734565b505050565b5b818110156137955761378a60008261375e565b600181019050613777565b5050565b601f8211156137da576137ab8161367a565b6137b48461368f565b810160208510156137c3578190505b6137d76137cf8561368f565b830182613776565b50505b505050565b600082821c905092915050565b60006137fd600019846008026137df565b1980831691505092915050565b600061381683836137ec565b9150826002028217905092915050565b61382f826128e4565b67ffffffffffffffff81111561384857613847612c65565b5b61385282546130ab565b61385d828285613799565b600060209050601f831160018114613890576000841561387e578287015190505b613888858261380a565b8655506138f0565b601f19841661389e8661367a565b60005b828110156138c6578489015182556001820191506020850194506020810190506138a1565b868310156138e357848901516138df601f8916826137ec565b8355505b6001600288020188555050505b505050505050565b7f4552433732313a2061646472657373207a65726f206973206e6f74206120766160008201527f6c6964206f776e65720000000000000000000000000000000000000000000000602082015250565b60006139546029836128ef565b915061395f826138f8565b604082019050919050565b6000602082019050818103600083015261398381613947565b9050919050565b600061399582612996565b91506139a083612996565b92508282019050808211156139b8576139b761336a565b5b92915050565b600060408201905081810360008301526139d8818561293b565b90506139e76020830184612ef6565b9392505050565b6139f781612c1b565b82525050565b600081519050919050565b600082825260208201905092915050565b6000613a24826139fd565b613a2e8185613a08565b9350613a3e818560208601612900565b613a478161292a565b840191505092915050565b600060c082019050613a6760008301896139ee565b613a746020830188612a2b565b613a816040830187612a2b565b613a8e6060830186612ef6565b8181036080830152613aa0818561293b565b905081810360a0830152613ab48184613a19565b9050979650505050505050565b600081905092915050565b6000613ad7826128e4565b613ae18185613ac1565b9350613af1818560208601612900565b80840191505092915050565b6000613b098285613acc565b9150613b158284613acc565b91508190509392505050565b7f4f776e61626c653a206e6577206f776e657220697320746865207a65726f206160008201527f6464726573730000000000000000000000000000000000000000000000000000602082015250565b6000613b7d6026836128ef565b9150613b8882613b21565b604082019050919050565b60006020820190508181036000830152613bac81613b70565b9050919050565b7f4552433732313a207472616e736665722066726f6d20696e636f72726563742060008201527f6f776e6572000000000000000000000000000000000000000000000000000000602082015250565b6000613c0f6025836128ef565b9150613c1a82613bb3565b604082019050919050565b60006020820190508181036000830152613c3e81613c02565b9050919050565b7f4552433732313a207472616e7366657220746f20746865207a65726f2061646460008201527f7265737300000000000000000000000000000000000000000000000000000000602082015250565b6000613ca16024836128ef565b9150613cac82613c45565b604082019050919050565b60006020820190508181036000830152613cd081613c94565b9050919050565b7f4f776e61626c653a2063616c6c6572206973206e6f7420746865206f776e6572600082015250565b6000613d0d6020836128ef565b9150613d1882613cd7565b602082019050919050565b60006020820190508181036000830152613d3c81613d00565b9050919050565b7f4e487b7100000000000000000000000000000000000000000000000000000000600052601260045260246000fd5b7f4552433732313a206d696e7420746f20746865207a65726f2061646472657373600082015250565b6000613da86020836128ef565b9150613db382613d72565b602082019050919050565b60006020820190508181036000830152613dd781613d9b565b9050919050565b7f4552433732313a20746f6b656e20616c7265616479206d696e74656400000000600082015250565b6000613e14601c836128ef565b9150613e1f82613dde565b602082019050919050565b60006020820190508181036000830152613e4381613e07565b9050919050565b7f4552433732313a20617070726f766520746f2063616c6c657200000000000000600082015250565b6000613e806019836128ef565b9150613e8b82613e4a565b602082019050919050565b60006020820190508181036000830152613eaf81613e73565b9050919050565b7f4552433732313a207472616e7366657220746f206e6f6e20455243373231526560008201527f63656976657220696d706c656d656e7465720000000000000000000000000000602082015250565b6000613f126032836128ef565b9150613f1d82613eb6565b604082019050919050565b60006020820190508181036000830152613f4181613f05565b9050919050565b6000608082019050613f5d6000830187612a2b565b613f6a6020830186612a2b565b613f776040830185612ef6565b8181036060830152613f898184613a19565b905095945050505050565b600081519050613fa381612855565b92915050565b600060208284031215613fbf57613fbe61281f565b5b6000613fcd84828501613f94565b9150509291505056fea26469706673582212209c3f72556868be6e262e01cfd371aa338c1bb866d328356602ba53cd458904fb64736f6c63430008110033",
  "immutableReferences": {},
  "source": "// SPDX-License-Identifier: MIT\r\npragma solidity ^0.8.17;\r\n\r\nimport {Params} from \"../libraries/Params.sol\";\r\nimport {IKanvasInterop} from \"../interfaces/IKanvasInterop.sol\";\r\nimport {IKanvasInteropGame} from \"../interfaces/IKanvasInteropGame.sol\";\r\n\r\nimport {Ownable} from \"@openzeppelin/contracts/access/Ownable.sol\";\r\nimport {ERC721} from \"@openzeppelin/contracts/token/ERC721/ERC721.sol\";\r\nimport {Strings} from \"@openzeppelin/contracts/utils/Strings.sol\";\r\n\r\ncontract RockPaperScissorsInterop is IKanvasInteropGame, ERC721, Ownable {\r\n    uint64 private constant AVAX_SELECTOR = 14767482510784806043;\r\n    uint256 public constant MAX_PROPERTIES_LEN = 20;\r\n\r\n    uint8 private constant WIN_NFT_TEMPLATE = 0;\r\n    uint8 private constant LOST_NFT_TEMPLATE = 1;\r\n\r\n    uint256 private _tokenId;\r\n\r\n    mapping(uint256 => string) private _tokenURIs;\r\n    mapping(address => uint256) private _playerNfts;\r\n\r\n    IKanvasInterop private kanvas;\r\n\r\n    struct Player {\r\n        string name;\r\n        uint256 points;\r\n        bool created;\r\n    }\r\n\r\n    mapping(address => Player) private _players;\r\n\r\n    constructor(\r\n        address kanvasRouter,\r\n        address sourceGameId\r\n    ) ERC721(\"RockPaperScissors\", \"RPS\") IKanvasInteropGame() Ownable() {\r\n        kanvas = IKanvasInterop(kanvasRouter);\r\n        kanvas._createGame(\r\n            AVAX_SELECTOR,\r\n            Params.InteropGame({gameId: sourceGameId})\r\n        );\r\n    }\r\n\r\n    function getPlayer(address playerId) external view returns (Player memory) {\r\n        return _players[playerId];\r\n    }\r\n\r\n    /** Increase player points */\r\n    function upgradePlayer(address playerId) external onlyOwner {\r\n        Player storage player = _players[playerId];\r\n        require(player.created, \"Create this player first\");\r\n\r\n        player.points = player.points + 5;\r\n\r\n        string[] memory properties = new string[](MAX_PROPERTIES_LEN);\r\n        properties[0] = player.name;\r\n        properties[1] = Strings.toString(player.points);\r\n\r\n        string memory fields = \"$player_name$ $player_points$\";\r\n\r\n        kanvas._generateUri(playerId, properties, fields, WIN_NFT_TEMPLATE);\r\n    }\r\n\r\n    /** Reduce player points */\r\n    function downgradePlayer(address playerId) external onlyOwner {\r\n        Player storage player = _players[playerId];\r\n        require(player.created, \"Create this player first\");\r\n        require(player.points >= 1, \"Already defeated :)\");\r\n\r\n        player.points = player.points - 1;\r\n\r\n        string[] memory properties = new string[](MAX_PROPERTIES_LEN);\r\n        properties[0] = player.name;\r\n        properties[1] = Strings.toString(player.points);\r\n\r\n        string memory fields = \"$player_name$ $player_points$\";\r\n\r\n        kanvas._generateUri(playerId, properties, fields, LOST_NFT_TEMPLATE);\r\n    }\r\n\r\n    /** Bridge game Nft function */\r\n    function transferTo(uint64 chainSelector) external payable {\r\n        address playerId = _msgSender();\r\n        uint256 tokenId = _playerNfts[playerId];\r\n\r\n        _burn(tokenId);\r\n        delete _tokenURIs[tokenId];\r\n\r\n        // player will be deleted when they transfer the game NFT\r\n        delete _playerNfts[playerId];\r\n\r\n        address gameId = address(this);\r\n        string memory uri = _tokenURIs[tokenId];\r\n        Player memory player = _players[playerId];\r\n\r\n        bytes memory data = abi.encode(player.name, player.points);\r\n\r\n        /** Cross chain transfer function */\r\n        kanvas._transferTo{value: msg.value}(\r\n            chainSelector,\r\n            gameId,\r\n            playerId,\r\n            tokenId,\r\n            uri,\r\n            data\r\n        );\r\n    }\r\n\r\n    /** Cross chain receiver callback function */\r\n    function _receiveFrom(\r\n        uint64 /* chainSelector */,\r\n        address /* gameId */,\r\n        address playerId,\r\n        uint256 tokenId,\r\n        string memory uri,\r\n        bytes memory data\r\n    ) external override {\r\n        (string memory name, uint256 points) = abi.decode(\r\n            data,\r\n            (string, uint256)\r\n        );\r\n\r\n        _mint(playerId, tokenId);\r\n        _tokenURIs[tokenId] = uri;\r\n\r\n        // player will be created when they receive the game NFT\r\n        _players[playerId].name = name;\r\n        _players[playerId].points = points;\r\n\r\n        _playerNfts[playerId] = tokenId;\r\n    }\r\n}\r\n",
  "sourcePath": "C:\\Users\\DELL\\Documents\\kanvas\\blockchain\\contracts\\rock-paper-scissors\\RockPaperScissorsInterop.sol",
  "compiler": {
    "name": "solc",
    "version": "0.8.17+commit.8df45f5f.Emscripten.clang"
  },
  "schemaVersion": "3.4.11",
  "updatedAt": "2023-12-04T05:40:07.320Z",
  "networkType": "ethereum",
  "devdoc": {
    "kind": "dev",
    "methods": {
      "approve(address,uint256)": {
        "details": "See {IERC721-approve}."
      },
      "balanceOf(address)": {
        "details": "See {IERC721-balanceOf}."
      },
      "getApproved(uint256)": {
        "details": "See {IERC721-getApproved}."
      },
      "isApprovedForAll(address,address)": {
        "details": "See {IERC721-isApprovedForAll}."
      },
      "name()": {
        "details": "See {IERC721Metadata-name}."
      },
      "owner()": {
        "details": "Returns the address of the current owner."
      },
      "ownerOf(uint256)": {
        "details": "See {IERC721-ownerOf}."
      },
      "renounceOwnership()": {
        "details": "Leaves the contract without owner. It will not be possible to call `onlyOwner` functions. Can only be called by the current owner. NOTE: Renouncing ownership will leave the contract without an owner, thereby disabling any functionality that is only available to the owner."
      },
      "safeTransferFrom(address,address,uint256)": {
        "details": "See {IERC721-safeTransferFrom}."
      },
      "safeTransferFrom(address,address,uint256,bytes)": {
        "details": "See {IERC721-safeTransferFrom}."
      },
      "setApprovalForAll(address,bool)": {
        "details": "See {IERC721-setApprovalForAll}."
      },
      "supportsInterface(bytes4)": {
        "details": "See {IERC165-supportsInterface}."
      },
      "symbol()": {
        "details": "See {IERC721Metadata-symbol}."
      },
      "tokenURI(uint256)": {
        "details": "See {IERC721Metadata-tokenURI}."
      },
      "transferFrom(address,address,uint256)": {
        "details": "See {IERC721-transferFrom}."
      },
      "transferOwnership(address)": {
        "details": "Transfers ownership of the contract to a new account (`newOwner`). Can only be called by the current owner."
      }
    },
    "version": 1
  },
  "userdoc": {
    "kind": "user",
    "methods": {
      "_receiveFrom(uint64,address,address,uint256,string,bytes)": {
        "notice": "Cross chain receiver callback function "
      },
      "downgradePlayer(address)": {
        "notice": "Reduce player points "
      },
      "transferTo(uint64)": {
        "notice": "Bridge game Nft function "
      },
      "upgradePlayer(address)": {
        "notice": "Increase player points "
      }
    },
    "version": 1
  }
}