{
  "contractName": "KanvasAvax",
  "abi": [
    {
      "inputs": [
        {
          "internalType": "address",
          "name": "receiver",
          "type": "address"
        }
      ],
      "stateMutability": "nonpayable",
      "type": "constructor"
    },
    {
      "inputs": [
        {
          "internalType": "address",
          "name": "router",
          "type": "address"
        }
      ],
      "name": "InvalidRouter",
      "type": "error"
    },
    {
      "anonymous": false,
      "inputs": [
        {
          "indexed": true,
          "internalType": "bytes32",
          "name": "id",
          "type": "bytes32"
        }
      ],
      "name": "ChainlinkCancelled",
      "type": "event"
    },
    {
      "anonymous": false,
      "inputs": [
        {
          "indexed": true,
          "internalType": "bytes32",
          "name": "id",
          "type": "bytes32"
        }
      ],
      "name": "ChainlinkFulfilled",
      "type": "event"
    },
    {
      "anonymous": false,
      "inputs": [
        {
          "indexed": true,
          "internalType": "bytes32",
          "name": "id",
          "type": "bytes32"
        }
      ],
      "name": "ChainlinkRequested",
      "type": "event"
    },
    {
      "anonymous": false,
      "inputs": [
        {
          "indexed": false,
          "internalType": "address",
          "name": "gameId",
          "type": "address"
        },
        {
          "indexed": false,
          "internalType": "string",
          "name": "name",
          "type": "string"
        },
        {
          "indexed": false,
          "internalType": "string",
          "name": "description",
          "type": "string"
        },
        {
          "indexed": false,
          "internalType": "string",
          "name": "avatar",
          "type": "string"
        },
        {
          "indexed": false,
          "internalType": "uint256",
          "name": "plan",
          "type": "uint256"
        },
        {
          "indexed": false,
          "internalType": "address",
          "name": "creator",
          "type": "address"
        }
      ],
      "name": "GameCreated",
      "type": "event"
    },
    {
      "anonymous": false,
      "inputs": [
        {
          "indexed": false,
          "internalType": "uint256",
          "name": "gameId",
          "type": "uint256"
        },
        {
          "indexed": false,
          "internalType": "string",
          "name": "template",
          "type": "string"
        }
      ],
      "name": "GameTemplateAdded",
      "type": "event"
    },
    {
      "anonymous": false,
      "inputs": [
        {
          "indexed": true,
          "internalType": "address",
          "name": "previousOwner",
          "type": "address"
        },
        {
          "indexed": true,
          "internalType": "address",
          "name": "newOwner",
          "type": "address"
        }
      ],
      "name": "OwnershipTransferred",
      "type": "event"
    },
    {
      "anonymous": false,
      "inputs": [
        {
          "indexed": false,
          "internalType": "uint256",
          "name": "planId",
          "type": "uint256"
        },
        {
          "indexed": false,
          "internalType": "string",
          "name": "name",
          "type": "string"
        },
        {
          "indexed": false,
          "internalType": "uint256",
          "name": "cost",
          "type": "uint256"
        },
        {
          "indexed": false,
          "internalType": "string",
          "name": "color",
          "type": "string"
        },
        {
          "indexed": false,
          "internalType": "uint256",
          "name": "limit",
          "type": "uint256"
        }
      ],
      "name": "PlanCreated",
      "type": "event"
    },
    {
      "inputs": [],
      "name": "MAX_PROPERTIES_LEN",
      "outputs": [
        {
          "internalType": "uint256",
          "name": "",
          "type": "uint256"
        }
      ],
      "stateMutability": "view",
      "type": "function",
      "constant": true
    },
    {
      "inputs": [],
      "name": "MAX_TEMPLATES_LEN",
      "outputs": [
        {
          "internalType": "uint256",
          "name": "",
          "type": "uint256"
        }
      ],
      "stateMutability": "view",
      "type": "function",
      "constant": true
    },
    {
      "inputs": [
        {
          "components": [
            {
              "internalType": "bytes32",
              "name": "messageId",
              "type": "bytes32"
            },
            {
              "internalType": "uint64",
              "name": "sourceChainSelector",
              "type": "uint64"
            },
            {
              "internalType": "bytes",
              "name": "sender",
              "type": "bytes"
            },
            {
              "internalType": "bytes",
              "name": "data",
              "type": "bytes"
            },
            {
              "components": [
                {
                  "internalType": "address",
                  "name": "token",
                  "type": "address"
                },
                {
                  "internalType": "uint256",
                  "name": "amount",
                  "type": "uint256"
                }
              ],
              "internalType": "struct Client.EVMTokenAmount[]",
              "name": "destTokenAmounts",
              "type": "tuple[]"
            }
          ],
          "internalType": "struct Client.Any2EVMMessage",
          "name": "message",
          "type": "tuple"
        }
      ],
      "name": "ccipReceive",
      "outputs": [],
      "stateMutability": "nonpayable",
      "type": "function"
    },
    {
      "inputs": [],
      "name": "getRouter",
      "outputs": [
        {
          "internalType": "address",
          "name": "",
          "type": "address"
        }
      ],
      "stateMutability": "view",
      "type": "function",
      "constant": true
    },
    {
      "inputs": [],
      "name": "owner",
      "outputs": [
        {
          "internalType": "address",
          "name": "",
          "type": "address"
        }
      ],
      "stateMutability": "view",
      "type": "function",
      "constant": true
    },
    {
      "inputs": [],
      "name": "renounceOwnership",
      "outputs": [],
      "stateMutability": "nonpayable",
      "type": "function"
    },
    {
      "inputs": [
        {
          "internalType": "bytes4",
          "name": "interfaceId",
          "type": "bytes4"
        }
      ],
      "name": "supportsInterface",
      "outputs": [
        {
          "internalType": "bool",
          "name": "",
          "type": "bool"
        }
      ],
      "stateMutability": "pure",
      "type": "function",
      "constant": true
    },
    {
      "inputs": [
        {
          "internalType": "address",
          "name": "newOwner",
          "type": "address"
        }
      ],
      "name": "transferOwnership",
      "outputs": [],
      "stateMutability": "nonpayable",
      "type": "function"
    },
    {
      "inputs": [
        {
          "components": [
            {
              "internalType": "string",
              "name": "name",
              "type": "string"
            },
            {
              "internalType": "string",
              "name": "description",
              "type": "string"
            },
            {
              "internalType": "address",
              "name": "gameId",
              "type": "address"
            },
            {
              "internalType": "string",
              "name": "avatar",
              "type": "string"
            },
            {
              "internalType": "uint256",
              "name": "plan",
              "type": "uint256"
            }
          ],
          "internalType": "struct Params.Game",
          "name": "params",
          "type": "tuple"
        }
      ],
      "name": "createGame",
      "outputs": [],
      "stateMutability": "payable",
      "type": "function",
      "payable": true
    },
    {
      "inputs": [
        {
          "internalType": "address",
          "name": "playerId",
          "type": "address"
        },
        {
          "internalType": "string[]",
          "name": "properties",
          "type": "string[]"
        },
        {
          "internalType": "string",
          "name": "fields",
          "type": "string"
        }
      ],
      "name": "_generateUri",
      "outputs": [],
      "stateMutability": "nonpayable",
      "type": "function"
    },
    {
      "inputs": [
        {
          "internalType": "bytes32",
          "name": "requestId",
          "type": "bytes32"
        },
        {
          "internalType": "string",
          "name": "uri",
          "type": "string"
        }
      ],
      "name": "fulfill",
      "outputs": [],
      "stateMutability": "nonpayable",
      "type": "function"
    },
    {
      "inputs": [],
      "name": "withdrawLink",
      "outputs": [],
      "stateMutability": "nonpayable",
      "type": "function"
    },
    {
      "inputs": [
        {
          "internalType": "uint64",
          "name": "chainSelector",
          "type": "uint64"
        },
        {
          "internalType": "bytes",
          "name": "data",
          "type": "bytes"
        }
      ],
      "name": "_transferTo",
      "outputs": [],
      "stateMutability": "payable",
      "type": "function",
      "payable": true
    },
    {
      "inputs": [
        {
          "components": [
            {
              "internalType": "string",
              "name": "name",
              "type": "string"
            },
            {
              "internalType": "uint256",
              "name": "cost",
              "type": "uint256"
            },
            {
              "internalType": "string",
              "name": "color",
              "type": "string"
            },
            {
              "internalType": "uint256",
              "name": "limit",
              "type": "uint256"
            }
          ],
          "internalType": "struct Params.Plan",
          "name": "params",
          "type": "tuple"
        }
      ],
      "name": "createPlan",
      "outputs": [],
      "stateMutability": "nonpayable",
      "type": "function"
    }
  ],
  "bytecode": "0x60a0604052600160045560016009553480156200001b57600080fd5b506040516200418e3803806200418e8339818101604052810190620000419190620003c9565b80600073ffffffffffffffffffffffffffffffffffffffff168173ffffffffffffffffffffffffffffffffffffffff1603620000b75760006040517fd7f73334000000000000000000000000000000000000000000000000000000008152600401620000ae91906200040c565b60405180910390fd5b8073ffffffffffffffffffffffffffffffffffffffff1660808173ffffffffffffffffffffffffffffffffffffffff1681525050506200010c62000100620001ff60201b60201c565b6200020760201b60201c565b62000131730b9d5d9136855f6fec3c0993fee6e9ce8a297846620002cd60201b60201c565b6200015673022eea14a6010167ca026b32576d6686dd7e85d26200031160201b60201c565b7f3764383061363338366566353433613361626235323831376636373037653362600781905550600a670de0b6b3a7640000600162000196919062000462565b620001a29190620004dc565b600881905550620001b86200035560201b60201c565b600d60006101000a81548173ffffffffffffffffffffffffffffffffffffffff021916908373ffffffffffffffffffffffffffffffffffffffff1602179055505062000514565b600033905090565b6000600660009054906101000a900473ffffffffffffffffffffffffffffffffffffffff16905081600660006101000a81548173ffffffffffffffffffffffffffffffffffffffff021916908373ffffffffffffffffffffffffffffffffffffffff1602179055508173ffffffffffffffffffffffffffffffffffffffff168173ffffffffffffffffffffffffffffffffffffffff167f8be0079c531659141344cd1fd0a4f28419497f9722a3daafe3b4186f6b6457e060405160405180910390a35050565b80600260006101000a81548173ffffffffffffffffffffffffffffffffffffffff021916908373ffffffffffffffffffffffffffffffffffffffff16021790555050565b80600360006101000a81548173ffffffffffffffffffffffffffffffffffffffff021916908373ffffffffffffffffffffffffffffffffffffffff16021790555050565b6000608051905090565b600080fd5b600073ffffffffffffffffffffffffffffffffffffffff82169050919050565b6000620003918262000364565b9050919050565b620003a38162000384565b8114620003af57600080fd5b50565b600081519050620003c38162000398565b92915050565b600060208284031215620003e257620003e16200035f565b5b6000620003f284828501620003b2565b91505092915050565b620004068162000384565b82525050565b6000602082019050620004236000830184620003fb565b92915050565b6000819050919050565b7f4e487b7100000000000000000000000000000000000000000000000000000000600052601160045260246000fd5b60006200046f8262000429565b91506200047c8362000429565b92508282026200048c8162000429565b91508282048414831517620004a657620004a562000433565b5b5092915050565b7f4e487b7100000000000000000000000000000000000000000000000000000000600052601260045260246000fd5b6000620004e98262000429565b9150620004f68362000429565b925082620005095762000508620004ad565b5b828204905092915050565b608051613c576200053760003960008181610de601526111060152613c576000f3fe6080604052600436106100dd5760003560e01c80638b8ff3581161007f5780638dc654a2116100595780638dc654a214610268578063b0f479a11461027f578063dff0ee41146102aa578063f2fde38b146102d5576100dd565b80638b8ff358146101e95780638cd176d5146102145780638da5cb5b1461023d576100dd565b8063715018a6116100bb578063715018a61461016457806375948bb01461017b5780637dbe71e4146101a457806385572ffb146101c0576100dd565b806301ffc9a7146100e25780632f5e44451461011f578063374419961461013b575b600080fd5b3480156100ee57600080fd5b5061010960048036038101906101049190611f27565b6102fe565b6040516101169190611f6f565b60405180910390f35b61013960048036038101906101349190612110565b6103d0565b005b34801561014757600080fd5b50610162600480360381019061015d9190612243565b61064b565b005b34801561017057600080fd5b5061017961082f565b005b34801561018757600080fd5b506101a2600480360381019061019d91906123e3565b610843565b005b6101be60048036038101906101b9919061258e565b610b8b565b005b3480156101cc57600080fd5b506101e760048036038101906101e291906125fb565b610de4565b005b3480156101f557600080fd5b506101fe610e89565b60405161020b9190612653565b60405180910390f35b34801561022057600080fd5b5061023b6004803603810190610236919061271e565b610e8e565b005b34801561024957600080fd5b50610252610f8b565b60405161025f9190612776565b60405180910390f35b34801561027457600080fd5b5061027d610fb5565b005b34801561028b57600080fd5b50610294611102565b6040516102a19190612776565b60405180910390f35b3480156102b657600080fd5b506102bf61112a565b6040516102cc9190612653565b60405180910390f35b3480156102e157600080fd5b506102fc60048036038101906102f79190612791565b61112f565b005b60007f85572ffb000000000000000000000000000000000000000000000000000000007bffffffffffffffffffffffffffffffffffffffffffffffffffffffff1916827bffffffffffffffffffffffffffffffffffffffffffffffffffffffff191614806103c957507f01ffc9a7000000000000000000000000000000000000000000000000000000007bffffffffffffffffffffffffffffffffffffffffffffffffffffffff1916827bffffffffffffffffffffffffffffffffffffffffffffffffffffffff1916145b9050919050565b60006040518060a001604052806103e56111b2565b6040516020016103f59190612776565b6040516020818303038152906040528152602001838152602001600067ffffffffffffffff81111561042a57610429611fe5565b5b60405190808252806020026020018201604052801561046357816020015b610450611d2a565b8152602001906001900390816104485790505b508152602001600073ffffffffffffffffffffffffffffffffffffffff1681526020016104a9604051806040016040528062061a808152602001600015158152506111ba565b81525090506000600d60009054906101000a900473ffffffffffffffffffffffffffffffffffffffff1673ffffffffffffffffffffffffffffffffffffffff166320487ded67ccf0a31a221f3c9b846040518363ffffffff1660e01b81526004016105159291906129d3565b602060405180830381865afa158015610532573d6000803e3d6000fd5b505050506040513d601f19601f820116820180604052508101906105569190612a18565b90508034101561059b576040517f08c379a000000000000000000000000000000000000000000000000000000000815260040161059290612aa2565b60405180910390fd5b600d60009054906101000a900473ffffffffffffffffffffffffffffffffffffffff1673ffffffffffffffffffffffffffffffffffffffff166396f4e9f98267ccf0a31a221f3c9b856040518463ffffffff1660e01b81526004016106019291906129d3565b60206040518083038185885af115801561061f573d6000803e3d6000fd5b50505050506040513d601f19601f820116820180604052508101906106449190612ad7565b5050505050565b816005600082815260200190815260200160002060009054906101000a900473ffffffffffffffffffffffffffffffffffffffff1673ffffffffffffffffffffffffffffffffffffffff163373ffffffffffffffffffffffffffffffffffffffff16146106ed576040517f08c379a00000000000000000000000000000000000000000000000000000000081526004016106e490612b76565b60405180910390fd5b6005600082815260200190815260200160002060006101000a81549073ffffffffffffffffffffffffffffffffffffffff0219169055807f7cc135e0cebb02c3480ae5d74d377283180a2601f8f644edf7987b009316c63a60405160405180910390a26000600c600085815260200190815260200160002090508060010160149054906101000a900460ff16156107b9576040517f08c379a00000000000000000000000000000000000000000000000000000000081526004016107b090612be2565b60405180910390fd5b60018160010160146101000a81548160ff0219169083151502179055506108298160000160009054906101000a900473ffffffffffffffffffffffffffffffffffffffff168260010160009054906101000a900473ffffffffffffffffffffffffffffffffffffffff1685611239565b50505050565b610837611382565b6108416000611400565b565b601482511115610888576040517f08c379a000000000000000000000000000000000000000000000000000000000815260040161087f90612c4e565b60405180910390fd5b60006108926111b2565b9050600073ffffffffffffffffffffffffffffffffffffffff16600b60008373ffffffffffffffffffffffffffffffffffffffff1673ffffffffffffffffffffffffffffffffffffffff16815260200190815260200160002060040160009054906101000a900473ffffffffffffffffffffffffffffffffffffffff1673ffffffffffffffffffffffffffffffffffffffff1603610965576040517f08c379a000000000000000000000000000000000000000000000000000000000815260040161095c90612cba565b60405180910390fd5b600061097b60075430633744199660e01b6114c6565b90506109e66040518060400160405280600381526020017f6765740000000000000000000000000000000000000000000000000000000000815250846040516020016109c79190612d93565b604051602081830303815290604052836114f79092919063ffffffff16565b610a656040518060400160405280600481526020017f70617468000000000000000000000000000000000000000000000000000000008152506040518060400160405280600881526020017f646174612c757269000000000000000000000000000000000000000000000000815250836114f79092919063ffffffff16565b6000610a738260085461152a565b905060405180606001604052808473ffffffffffffffffffffffffffffffffffffffff1681526020018773ffffffffffffffffffffffffffffffffffffffff16815260200160001515815250600c600083815260200190815260200160002060008201518160000160006101000a81548173ffffffffffffffffffffffffffffffffffffffff021916908373ffffffffffffffffffffffffffffffffffffffff16021790555060208201518160010160006101000a81548173ffffffffffffffffffffffffffffffffffffffff021916908373ffffffffffffffffffffffffffffffffffffffff16021790555060408201518160010160146101000a81548160ff021916908315150217905550905050505050505050565b600a600082608001518152602001908152602001600020600101543414610be7576040517f08c379a0000000000000000000000000000000000000000000000000000000008152600401610bde90612e01565b60405180910390fd5b6040518060c0016040528082600001518152602001826060015181526020018260200151815260200182608001518152602001610c226111b2565b73ffffffffffffffffffffffffffffffffffffffff168152602001600567ffffffffffffffff811115610c5857610c57611fe5565b5b604051908082528060200260200182016040528015610c8b57816020015b6060815260200190600190039081610c765790505b50815250600b6000836040015173ffffffffffffffffffffffffffffffffffffffff1673ffffffffffffffffffffffffffffffffffffffff1681526020019081526020016000206000820151816000019081610ce7919061302d565b506020820151816001019081610cfd919061302d565b506040820151816002019081610d13919061302d565b506060820151816003015560808201518160040160006101000a81548173ffffffffffffffffffffffffffffffffffffffff021916908373ffffffffffffffffffffffffffffffffffffffff16021790555060a0820151816005019080519060200190610d81929190611d5a565b509050507fa67e32aebdc6af37607b7ffbd87118947c33268ed48426b1fd3df0c2a46034cc81604001518260000151836020015184606001518560800151610dc76111b2565b604051610dd996959493929190613138565b60405180910390a150565b7f000000000000000000000000000000000000000000000000000000000000000073ffffffffffffffffffffffffffffffffffffffff163373ffffffffffffffffffffffffffffffffffffffff1614610e7457336040517fd7f73334000000000000000000000000000000000000000000000000000000008152600401610e6b9190612776565b60405180910390fd5b610e8681610e81906133a1565b611561565b50565b601481565b610e96611382565b60405180608001604052808260000151815260200182602001518152602001826040015181526020018260600151815250600a600060095481526020019081526020016000206000820151816000019081610ef1919061302d565b50602082015181600101556040820151816002019081610f11919061302d565b50606082015181600301559050507f33c5bd102a4d38690a8d7d236985d20c88e66b73bca9de5ae6cc29376d2206fd6009548260000151836020015184604001518560600151604051610f689594939291906133b4565b60405180910390a160096000815480929190610f8390613444565b919050555050565b6000600660009054906101000a900473ffffffffffffffffffffffffffffffffffffffff16905090565b610fbd611382565b6000610fc7611564565b90508073ffffffffffffffffffffffffffffffffffffffff1663a9059cbb338373ffffffffffffffffffffffffffffffffffffffff166370a08231306040518263ffffffff1660e01b815260040161101f9190612776565b602060405180830381865afa15801561103c573d6000803e3d6000fd5b505050506040513d601f19601f820116820180604052508101906110609190612a18565b6040518363ffffffff1660e01b815260040161107d92919061348c565b6020604051808303816000875af115801561109c573d6000803e3d6000fd5b505050506040513d601f19601f820116820180604052508101906110c091906134e1565b6110ff576040517f08c379a00000000000000000000000000000000000000000000000000000000081526004016110f69061355a565b60405180910390fd5b50565b60007f0000000000000000000000000000000000000000000000000000000000000000905090565b600581565b611137611382565b600073ffffffffffffffffffffffffffffffffffffffff168173ffffffffffffffffffffffffffffffffffffffff16036111a6576040517f08c379a000000000000000000000000000000000000000000000000000000000815260040161119d906135ec565b60405180910390fd5b6111af81611400565b50565b600033905090565b60606397a657c960e01b826040516024016111d5919061364a565b604051602081830303815290604052907bffffffffffffffffffffffffffffffffffffffffffffffffffffffff19166020820180517bffffffffffffffffffffffffffffffffffffffffffffffffffffffff83818316178352505050509050919050565b600073ffffffffffffffffffffffffffffffffffffffff16600b60008573ffffffffffffffffffffffffffffffffffffffff1673ffffffffffffffffffffffffffffffffffffffff16815260200190815260200160002060040160009054906101000a900473ffffffffffffffffffffffffffffffffffffffff1673ffffffffffffffffffffffffffffffffffffffff160361130a576040517f08c379a000000000000000000000000000000000000000000000000000000000815260040161130190612cba565b60405180910390fd5b60008390508073ffffffffffffffffffffffffffffffffffffffff16638f9c395684846040518363ffffffff1660e01b815260040161134a929190613665565b600060405180830381600087803b15801561136457600080fd5b505af1158015611378573d6000803e3d6000fd5b5050505050505050565b61138a6111b2565b73ffffffffffffffffffffffffffffffffffffffff166113a8610f8b565b73ffffffffffffffffffffffffffffffffffffffff16146113fe576040517f08c379a00000000000000000000000000000000000000000000000000000000081526004016113f5906136e1565b60405180910390fd5b565b6000600660009054906101000a900473ffffffffffffffffffffffffffffffffffffffff16905081600660006101000a81548173ffffffffffffffffffffffffffffffffffffffff021916908373ffffffffffffffffffffffffffffffffffffffff1602179055508173ffffffffffffffffffffffffffffffffffffffff168173ffffffffffffffffffffffffffffffffffffffff167f8be0079c531659141344cd1fd0a4f28419497f9722a3daafe3b4186f6b6457e060405160405180910390a35050565b6114ce611db3565b6114d6611db3565b6114ed8585858461158e909392919063ffffffff16565b9150509392505050565b61150e82846080015161163e90919063ffffffff16565b61152581846080015161163e90919063ffffffff16565b505050565b6000611559600360009054906101000a900473ffffffffffffffffffffffffffffffffffffffff168484611663565b905092915050565b50565b6000600260009054906101000a900473ffffffffffffffffffffffffffffffffffffffff16905090565b611596611db3565b6115a6856080015161010061172f565b508385600001818152505082856020019073ffffffffffffffffffffffffffffffffffffffff16908173ffffffffffffffffffffffffffffffffffffffff16815250508185604001907bffffffffffffffffffffffffffffffffffffffffffffffffffffffff191690817bffffffffffffffffffffffffffffffffffffffffffffffffffffffff191681525050849050949350505050565b61164b8260038351611799565b61165e818361191e90919063ffffffff16565b505050565b60008060045490506001816116789190613701565b6004819055506000634042994660e01b60008087600001513089604001518760018c60800151600001516040516024016116b998979695949392919061379d565b604051602081830303815290604052907bffffffffffffffffffffffffffffffffffffffffffffffffffffffff19166020820180517bffffffffffffffffffffffffffffffffffffffffffffffffffffffff8381831617835250505050905061172486838684611940565b925050509392505050565b611737611e20565b60006020836117469190613851565b14611772576020826117589190613851565b60206117649190613882565b8261176f9190613701565b91505b81836020018181525050604051808452600081528281016020016040525082905092915050565b60178167ffffffffffffffff16116117d0576117ca8160058460ff16901b60ff161784611ad590919063ffffffff16565b50611919565b60ff8167ffffffffffffffff1611611826576117ff601860058460ff16901b1784611ad590919063ffffffff16565b506118208167ffffffffffffffff16600185611af59092919063ffffffff16565b50611918565b61ffff8167ffffffffffffffff161161187d57611856601960058460ff16901b1784611ad590919063ffffffff16565b506118778167ffffffffffffffff16600285611af59092919063ffffffff16565b50611917565b63ffffffff8167ffffffffffffffff16116118d6576118af601a60058460ff16901b1784611ad590919063ffffffff16565b506118d08167ffffffffffffffff16600485611af59092919063ffffffff16565b50611916565b6118f3601b60058460ff16901b1784611ad590919063ffffffff16565b506119148167ffffffffffffffff16600885611af59092919063ffffffff16565b505b5b5b5b505050565b611926611e20565b61193883846000015151848551611b17565b905092915050565b60003084604051602001611955929190613965565b604051602081830303815290604052805190602001209050846005600083815260200190815260200160002060006101000a81548173ffffffffffffffffffffffffffffffffffffffff021916908373ffffffffffffffffffffffffffffffffffffffff160217905550807fb5e6e01e79f91267dc17b4e6314d5d4d03593d2ceee0fbb452b750bd70ea5af960405160405180910390a2600260009054906101000a900473ffffffffffffffffffffffffffffffffffffffff1673ffffffffffffffffffffffffffffffffffffffff16634000aea08685856040518463ffffffff1660e01b8152600401611a4b93929190613991565b6020604051808303816000875af1158015611a6a573d6000803e3d6000fd5b505050506040513d601f19601f82011682018060405250810190611a8e91906134e1565b611acd576040517f08c379a0000000000000000000000000000000000000000000000000000000008152600401611ac490613a41565b60405180910390fd5b949350505050565b611add611e20565b611aed8384600001515184611c06565b905092915050565b611afd611e20565b611b0e848560000151518585611c5c565b90509392505050565b611b1f611e20565b8251821115611b2d57600080fd5b84602001518285611b3e9190613701565b1115611b7357611b72856002611b6388602001518887611b5e9190613701565b611cea565b611b6d9190613a61565b611d06565b5b600080865180518760208301019350808887011115611b925787860182525b60208701925050505b60208410611bd95780518252602082611bb49190613701565b9150602081611bc39190613701565b9050602084611bd29190613882565b9350611b9b565b60006001856020036101000a03905080198251168184511681811785525050508692505050949350505050565b611c0e611e20565b83602001518310611c3457611c338460028660200151611c2e9190613a61565b611d06565b5b83518051602085830101848153818603611c4f576001820183525b5050508390509392505050565b611c64611e20565b84602001518483611c759190613701565b1115611c9d57611c9c8560028685611c8d9190613701565b611c979190613a61565b611d06565b5b6000600183610100611caf9190613bd6565b611cb99190613882565b90508551838682010185831982511617815281518588011115611cdc5784870182525b505085915050949350505050565b600081831115611cfc57829050611d00565b8190505b92915050565b600082600001519050611d19838361172f565b50611d24838261191e565b50505050565b6040518060400160405280600073ffffffffffffffffffffffffffffffffffffffff168152602001600081525090565b828054828255906000526020600020908101928215611da2579160200282015b82811115611da1578251829081611d91919061302d565b5091602001919060010190611d7a565b5b509050611daf9190611e3a565b5090565b6040518060a0016040528060008019168152602001600073ffffffffffffffffffffffffffffffffffffffff16815260200160007bffffffffffffffffffffffffffffffffffffffffffffffffffffffff1916815260200160008152602001611e1a611e20565b81525090565b604051806040016040528060608152602001600081525090565b5b80821115611e5a5760008181611e519190611e5e565b50600101611e3b565b5090565b508054611e6a90612e50565b6000825580601f10611e7c5750611e9b565b601f016020900490600052602060002090810190611e9a9190611e9e565b5b50565b5b80821115611eb7576000816000905550600101611e9f565b5090565b6000604051905090565b600080fd5b600080fd5b60007fffffffff0000000000000000000000000000000000000000000000000000000082169050919050565b611f0481611ecf565b8114611f0f57600080fd5b50565b600081359050611f2181611efb565b92915050565b600060208284031215611f3d57611f3c611ec5565b5b6000611f4b84828501611f12565b91505092915050565b60008115159050919050565b611f6981611f54565b82525050565b6000602082019050611f846000830184611f60565b92915050565b600067ffffffffffffffff82169050919050565b611fa781611f8a565b8114611fb257600080fd5b50565b600081359050611fc481611f9e565b92915050565b600080fd5b600080fd5b6000601f19601f8301169050919050565b7f4e487b7100000000000000000000000000000000000000000000000000000000600052604160045260246000fd5b61201d82611fd4565b810181811067ffffffffffffffff8211171561203c5761203b611fe5565b5b80604052505050565b600061204f611ebb565b905061205b8282612014565b919050565b600067ffffffffffffffff82111561207b5761207a611fe5565b5b61208482611fd4565b9050602081019050919050565b82818337600083830152505050565b60006120b36120ae84612060565b612045565b9050828152602081018484840111156120cf576120ce611fcf565b5b6120da848285612091565b509392505050565b600082601f8301126120f7576120f6611fca565b5b81356121078482602086016120a0565b91505092915050565b6000806040838503121561212757612126611ec5565b5b600061213585828601611fb5565b925050602083013567ffffffffffffffff81111561215657612155611eca565b5b612162858286016120e2565b9150509250929050565b6000819050919050565b61217f8161216c565b811461218a57600080fd5b50565b60008135905061219c81612176565b92915050565b600067ffffffffffffffff8211156121bd576121bc611fe5565b5b6121c682611fd4565b9050602081019050919050565b60006121e66121e1846121a2565b612045565b90508281526020810184848401111561220257612201611fcf565b5b61220d848285612091565b509392505050565b600082601f83011261222a57612229611fca565b5b813561223a8482602086016121d3565b91505092915050565b6000806040838503121561225a57612259611ec5565b5b60006122688582860161218d565b925050602083013567ffffffffffffffff81111561228957612288611eca565b5b61229585828601612215565b9150509250929050565b600073ffffffffffffffffffffffffffffffffffffffff82169050919050565b60006122ca8261229f565b9050919050565b6122da816122bf565b81146122e557600080fd5b50565b6000813590506122f7816122d1565b92915050565b600067ffffffffffffffff82111561231857612317611fe5565b5b602082029050602081019050919050565b600080fd5b600061234161233c846122fd565b612045565b9050808382526020820190506020840283018581111561236457612363612329565b5b835b818110156123ab57803567ffffffffffffffff81111561238957612388611fca565b5b8086016123968982612215565b85526020850194505050602081019050612366565b5050509392505050565b600082601f8301126123ca576123c9611fca565b5b81356123da84826020860161232e565b91505092915050565b6000806000606084860312156123fc576123fb611ec5565b5b600061240a868287016122e8565b935050602084013567ffffffffffffffff81111561242b5761242a611eca565b5b612437868287016123b5565b925050604084013567ffffffffffffffff81111561245857612457611eca565b5b61246486828701612215565b9150509250925092565b600080fd5b600080fd5b6000819050919050565b61248b81612478565b811461249657600080fd5b50565b6000813590506124a881612482565b92915050565b600060a082840312156124c4576124c361246e565b5b6124ce60a0612045565b9050600082013567ffffffffffffffff8111156124ee576124ed612473565b5b6124fa84828501612215565b600083015250602082013567ffffffffffffffff81111561251e5761251d612473565b5b61252a84828501612215565b602083015250604061253e848285016122e8565b604083015250606082013567ffffffffffffffff81111561256257612561612473565b5b61256e84828501612215565b606083015250608061258284828501612499565b60808301525092915050565b6000602082840312156125a4576125a3611ec5565b5b600082013567ffffffffffffffff8111156125c2576125c1611eca565b5b6125ce848285016124ae565b91505092915050565b600080fd5b600060a082840312156125f2576125f16125d7565b5b81905092915050565b60006020828403121561261157612610611ec5565b5b600082013567ffffffffffffffff81111561262f5761262e611eca565b5b61263b848285016125dc565b91505092915050565b61264d81612478565b82525050565b60006020820190506126686000830184612644565b92915050565b6000608082840312156126845761268361246e565b5b61268e6080612045565b9050600082013567ffffffffffffffff8111156126ae576126ad612473565b5b6126ba84828501612215565b60008301525060206126ce84828501612499565b602083015250604082013567ffffffffffffffff8111156126f2576126f1612473565b5b6126fe84828501612215565b604083015250606061271284828501612499565b60608301525092915050565b60006020828403121561273457612733611ec5565b5b600082013567ffffffffffffffff81111561275257612751611eca565b5b61275e8482850161266e565b91505092915050565b612770816122bf565b82525050565b600060208201905061278b6000830184612767565b92915050565b6000602082840312156127a7576127a6611ec5565b5b60006127b5848285016122e8565b91505092915050565b6127c781611f8a565b82525050565b600081519050919050565b600082825260208201905092915050565b60005b838110156128075780820151818401526020810190506127ec565b60008484015250505050565b600061281e826127cd565b61282881856127d8565b93506128388185602086016127e9565b61284181611fd4565b840191505092915050565b600081519050919050565b600082825260208201905092915050565b6000819050602082019050919050565b612881816122bf565b82525050565b61289081612478565b82525050565b6040820160008201516128ac6000850182612878565b5060208201516128bf6020850182612887565b50505050565b60006128d18383612896565b60408301905092915050565b6000602082019050919050565b60006128f58261284c565b6128ff8185612857565b935061290a83612868565b8060005b8381101561293b57815161292288826128c5565b975061292d836128dd565b92505060018101905061290e565b5085935050505092915050565b600060a08301600083015184820360008601526129658282612813565b9150506020830151848203602086015261297f8282612813565b9150506040830151848203604086015261299982826128ea565b91505060608301516129ae6060860182612878565b50608083015184820360808601526129c68282612813565b9150508091505092915050565b60006040820190506129e860008301856127be565b81810360208301526129fa8184612948565b90509392505050565b600081519050612a1281612482565b92915050565b600060208284031215612a2e57612a2d611ec5565b5b6000612a3c84828501612a03565b91505092915050565b600082825260208201905092915050565b7f496e73756666696369656e742066656500000000000000000000000000000000600082015250565b6000612a8c601083612a45565b9150612a9782612a56565b602082019050919050565b60006020820190508181036000830152612abb81612a7f565b9050919050565b600081519050612ad181612176565b92915050565b600060208284031215612aed57612aec611ec5565b5b6000612afb84828501612ac2565b91505092915050565b7f536f75726365206d75737420626520746865206f7261636c65206f662074686560008201527f2072657175657374000000000000000000000000000000000000000000000000602082015250565b6000612b60602883612a45565b9150612b6b82612b04565b604082019050919050565b60006020820190508181036000830152612b8f81612b53565b9050919050565b7f416c72656164792066756c66696c6c6564000000000000000000000000000000600082015250565b6000612bcc601183612a45565b9150612bd782612b96565b602082019050919050565b60006020820190508181036000830152612bfb81612bbf565b9050919050565b7f546f6f206d616e79206174747269627574657300000000000000000000000000600082015250565b6000612c38601383612a45565b9150612c4382612c02565b602082019050919050565b60006020820190508181036000830152612c6781612c2b565b9050919050565b7f47616d65204e6f7420466f756e64000000000000000000000000000000000000600082015250565b6000612ca4600e83612a45565b9150612caf82612c6e565b602082019050919050565b60006020820190508181036000830152612cd381612c97565b9050919050565b600081905092915050565b7f68747470733a2f2f6b616e7661732e636f6d2f67656e65726174653f6669656c60008201527f64733d0000000000000000000000000000000000000000000000000000000000602082015250565b6000612d41602383612cda565b9150612d4c82612ce5565b602382019050919050565b600081519050919050565b6000612d6d82612d57565b612d778185612cda565b9350612d878185602086016127e9565b80840191505092915050565b6000612d9e82612d34565b9150612daa8284612d62565b915081905092915050565b7f496e73756666696369656e742066756e64730000000000000000000000000000600082015250565b6000612deb601283612a45565b9150612df682612db5565b602082019050919050565b60006020820190508181036000830152612e1a81612dde565b9050919050565b7f4e487b7100000000000000000000000000000000000000000000000000000000600052602260045260246000fd5b60006002820490506001821680612e6857607f821691505b602082108103612e7b57612e7a612e21565b5b50919050565b60008190508160005260206000209050919050565b60006020601f8301049050919050565b600082821b905092915050565b600060088302612ee37fffffffffffffffffffffffffffffffffffffffffffffffffffffffffffffffff82612ea6565b612eed8683612ea6565b95508019841693508086168417925050509392505050565b6000819050919050565b6000612f2a612f25612f2084612478565b612f05565b612478565b9050919050565b6000819050919050565b612f4483612f0f565b612f58612f5082612f31565b848454612eb3565b825550505050565b600090565b612f6d612f60565b612f78818484612f3b565b505050565b5b81811015612f9c57612f91600082612f65565b600181019050612f7e565b5050565b601f821115612fe157612fb281612e81565b612fbb84612e96565b81016020851015612fca578190505b612fde612fd685612e96565b830182612f7d565b50505b505050565b600082821c905092915050565b600061300460001984600802612fe6565b1980831691505092915050565b600061301d8383612ff3565b9150826002028217905092915050565b61303682612d57565b67ffffffffffffffff81111561304f5761304e611fe5565b5b6130598254612e50565b613064828285612fa0565b600060209050601f8311600181146130975760008415613085578287015190505b61308f8582613011565b8655506130f7565b601f1984166130a586612e81565b60005b828110156130cd578489015182556001820191506020850194506020810190506130a8565b868310156130ea57848901516130e6601f891682612ff3565b8355505b6001600288020188555050505b505050505050565b600061310a82612d57565b6131148185612a45565b93506131248185602086016127e9565b61312d81611fd4565b840191505092915050565b600060c08201905061314d6000830189612767565b818103602083015261315f81886130ff565b9050818103604083015261317381876130ff565b9050818103606083015261318781866130ff565b90506131966080830185612644565b6131a360a0830184612767565b979650505050505050565b600067ffffffffffffffff8211156131c9576131c8611fe5565b5b602082029050602081019050919050565b6000604082840312156131f0576131ef61246e565b5b6131fa6040612045565b9050600061320a848285016122e8565b600083015250602061321e84828501612499565b60208301525092915050565b600061323d613238846131ae565b612045565b905080838252602082019050604084028301858111156132605761325f612329565b5b835b81811015613289578061327588826131da565b845260208401935050604081019050613262565b5050509392505050565b600082601f8301126132a8576132a7611fca565b5b81356132b884826020860161322a565b91505092915050565b600060a082840312156132d7576132d661246e565b5b6132e160a0612045565b905060006132f18482850161218d565b600083015250602061330584828501611fb5565b602083015250604082013567ffffffffffffffff81111561332957613328612473565b5b613335848285016120e2565b604083015250606082013567ffffffffffffffff81111561335957613358612473565b5b613365848285016120e2565b606083015250608082013567ffffffffffffffff81111561338957613388612473565b5b61339584828501613293565b60808301525092915050565b60006133ad36836132c1565b9050919050565b600060a0820190506133c96000830188612644565b81810360208301526133db81876130ff565b90506133ea6040830186612644565b81810360608301526133fc81856130ff565b905061340b6080830184612644565b9695505050505050565b7f4e487b7100000000000000000000000000000000000000000000000000000000600052601160045260246000fd5b600061344f82612478565b91507fffffffffffffffffffffffffffffffffffffffffffffffffffffffffffffffff820361348157613480613415565b5b600182019050919050565b60006040820190506134a16000830185612767565b6134ae6020830184612644565b9392505050565b6134be81611f54565b81146134c957600080fd5b50565b6000815190506134db816134b5565b92915050565b6000602082840312156134f7576134f6611ec5565b5b6000613505848285016134cc565b91505092915050565b7f556e61626c6520746f207472616e736665720000000000000000000000000000600082015250565b6000613544601283612a45565b915061354f8261350e565b602082019050919050565b6000602082019050818103600083015261357381613537565b9050919050565b7f4f776e61626c653a206e6577206f776e657220697320746865207a65726f206160008201527f6464726573730000000000000000000000000000000000000000000000000000602082015250565b60006135d6602683612a45565b91506135e18261357a565b604082019050919050565b60006020820190508181036000830152613605816135c9565b9050919050565b61361581611f54565b82525050565b6040820160008201516136316000850182612887565b506020820151613644602085018261360c565b50505050565b600060408201905061365f600083018461361b565b92915050565b600060408201905061367a6000830185612767565b818103602083015261368c81846130ff565b90509392505050565b7f4f776e61626c653a2063616c6c6572206973206e6f7420746865206f776e6572600082015250565b60006136cb602083612a45565b91506136d682613695565b602082019050919050565b600060208201905081810360008301526136fa816136be565b9050919050565b600061370c82612478565b915061371783612478565b925082820190508082111561372f5761372e613415565b5b92915050565b61373e8161216c565b82525050565b61374d81611ecf565b82525050565b600082825260208201905092915050565b600061376f826127cd565b6137798185613753565b93506137898185602086016127e9565b61379281611fd4565b840191505092915050565b6000610100820190506137b3600083018b612767565b6137c0602083018a612644565b6137cd6040830189613735565b6137da6060830188612767565b6137e76080830187613744565b6137f460a0830186612644565b61380160c0830185612644565b81810360e08301526138138184613764565b90509998505050505050505050565b7f4e487b7100000000000000000000000000000000000000000000000000000000600052601260045260246000fd5b600061385c82612478565b915061386783612478565b92508261387757613876613822565b5b828206905092915050565b600061388d82612478565b915061389883612478565b92508282039050818111156138b0576138af613415565b5b92915050565b60006138d16138cc6138c78461229f565b612f05565b61229f565b9050919050565b60006138e3826138b6565b9050919050565b60006138f5826138d8565b9050919050565b60008160601b9050919050565b6000613914826138fc565b9050919050565b600061392682613909565b9050919050565b61393e613939826138ea565b61391b565b82525050565b6000819050919050565b61395f61395a82612478565b613944565b82525050565b6000613971828561392d565b601482019150613981828461394e565b6020820191508190509392505050565b60006060820190506139a66000830186612767565b6139b36020830185612644565b81810360408301526139c58184613764565b9050949350505050565b7f756e61626c6520746f207472616e73666572416e6443616c6c20746f206f726160008201527f636c650000000000000000000000000000000000000000000000000000000000602082015250565b6000613a2b602383612a45565b9150613a36826139cf565b604082019050919050565b60006020820190508181036000830152613a5a81613a1e565b9050919050565b6000613a6c82612478565b9150613a7783612478565b9250828202613a8581612478565b91508282048414831517613a9c57613a9b613415565b5b5092915050565b60008160011c9050919050565b6000808291508390505b6001851115613afa57808604811115613ad657613ad5613415565b5b6001851615613ae55780820291505b8081029050613af385613aa3565b9450613aba565b94509492505050565b600082613b135760019050613bcf565b81613b215760009050613bcf565b8160018114613b375760028114613b4157613b70565b6001915050613bcf565b60ff841115613b5357613b52613415565b5b8360020a915084821115613b6a57613b69613415565b5b50613bcf565b5060208310610133831016604e8410600b8410161715613ba55782820a905083811115613ba057613b9f613415565b5b613bcf565b613bb28484846001613ab0565b92509050818404811115613bc957613bc8613415565b5b81810290505b9392505050565b6000613be182612478565b9150613bec83612478565b9250613c197fffffffffffffffffffffffffffffffffffffffffffffffffffffffffffffffff8484613b03565b90509291505056fea26469706673582212202f331968940e9e3bae9fdf365dcfa90fac703128155793d847fc1de77638fb1b64736f6c63430008110033",
  "immutableReferences": {
    "14": [
      {
        "length": 32,
        "start": 3558
      },
      {
        "length": 32,
        "start": 4358
      }
    ]
  },
  "source": "// SPDX-License-Identifier: MIT\r\npragma solidity ^0.8.17;\r\n\r\nimport {Assets} from \"./libraries/Assets.sol\";\r\nimport {Params} from \"./libraries/Params.sol\";\r\nimport {IKanvasAvax} from \"./interfaces/IKanvasAvax.sol\";\r\nimport {IKanvasGame} from \"./interfaces/IKanvasGame.sol\";\r\n\r\nimport {Ownable} from \"@openzeppelin/contracts/access/Ownable.sol\";\r\nimport {Context} from \"@openzeppelin/contracts/utils/Context.sol\";\r\n\r\nimport {CCIPReceiver} from \"@chainlink/contracts-ccip/src/v0.8/ccip/applications/CCIPReceiver.sol\";\r\nimport {IRouterClient} from \"@chainlink/contracts-ccip/src/v0.8/ccip/interfaces/IRouterClient.sol\";\r\nimport {Client} from \"@chainlink/contracts-ccip/src/v0.8/ccip/libraries/Client.sol\";\r\n\r\nimport \"@chainlink/contracts/src/v0.8/ChainlinkClient.sol\";\r\nimport \"@chainlink/contracts/src/v0.8/shared/access/ConfirmedOwner.sol\";\r\n\r\ncontract KanvasAvax is\r\n    IKanvasAvax,\r\n    Context,\r\n    CCIPReceiver,\r\n    ChainlinkClient,\r\n    Ownable\r\n{\r\n    uint64 private constant AVAX_SELECTOR = 14767482510784806043;\r\n    uint256 public constant MAX_PROPERTIES_LEN = 20;\r\n    uint256 public constant MAX_TEMPLATES_LEN = 5;\r\n    using Chainlink for Chainlink.Request;\r\n\r\n    bytes32 private jobId;\r\n    uint256 private fee;\r\n\r\n    event PlanCreated(\r\n        uint256 planId,\r\n        string name,\r\n        uint256 cost,\r\n        string color,\r\n        uint256 limit\r\n    );\r\n\r\n    event GameCreated(\r\n        address gameId,\r\n        string name,\r\n        string description,\r\n        string avatar,\r\n        uint256 plan,\r\n        address creator\r\n    );\r\n\r\n    event GameTemplateAdded(uint256 gameId, string template);\r\n\r\n    uint256 private _planId = 1;\r\n    mapping(uint256 => Assets.Plan) private _plans;\r\n\r\n    mapping(address => Assets.Game) private _games;\r\n\r\n    mapping(bytes32 => Assets.Request) private _requests;\r\n\r\n    IRouterClient private _router;\r\n\r\n    constructor(address receiver) CCIPReceiver(receiver) Ownable() {\r\n        setChainlinkToken(0x0b9d5D9136855f6FEc3c0993feE6E9CE8a297846);\r\n        setChainlinkOracle(0x022EEA14A6010167ca026B32576D6686dD7e85d2);\r\n        jobId = \"7d80a6386ef543a3abb52817f6707e3b\";\r\n        fee = (1 * LINK_DIVISIBILITY) / 10;\r\n\r\n        _router = IRouterClient(getRouter());\r\n    }\r\n\r\n    function createGame(Params.Game memory params) external payable {\r\n        require(msg.value == _plans[params.plan].cost, \"Insufficient funds\");\r\n\r\n        _games[params.gameId] = Assets.Game({\r\n            name: params.name,\r\n            description: params.description,\r\n            avatar: params.avatar,\r\n            plan: params.plan,\r\n            creator: _msgSender(),\r\n            templates: new string[](MAX_TEMPLATES_LEN)\r\n        });\r\n\r\n        emit GameCreated(\r\n            params.gameId,\r\n            params.name,\r\n            params.description,\r\n            params.avatar,\r\n            params.plan,\r\n            _msgSender()\r\n        );\r\n    }\r\n\r\n    function _generateUri(\r\n        address playerId,\r\n        string[] memory properties,\r\n        string memory fields\r\n    ) external {\r\n        require(properties.length <= MAX_PROPERTIES_LEN, \"Too many attributes\");\r\n\r\n        address gameId = _msgSender();\r\n        require(_games[gameId].creator != address(0), \"Game Not Found\");\r\n\r\n        Chainlink.Request memory req = buildChainlinkRequest(\r\n            jobId,\r\n            address(this),\r\n            this.fulfill.selector\r\n        );\r\n\r\n        // Set the URL to perform the GET request on\r\n        req.add(\r\n            \"get\",\r\n            string.concat(\"https://kanvas.com/generate?fields=\", fields)\r\n        );\r\n\r\n        // Chainlink nodes 1.0.0 and later support this format\r\n        req.add(\"path\", \"data,uri\");\r\n\r\n        // Sends the request\r\n        bytes32 requestId = sendChainlinkRequest(req, fee);\r\n\r\n        _requests[requestId] = Assets.Request({\r\n            gameId: gameId,\r\n            playerId: playerId,\r\n            fulfilled: false\r\n        });\r\n    }\r\n\r\n    /**\r\n     * Receive the response in the form of uint256\r\n     */\r\n    function fulfill(\r\n        bytes32 requestId,\r\n        string memory uri\r\n    ) public recordChainlinkFulfillment(requestId) {\r\n        Assets.Request storage request = _requests[requestId];\r\n        require(!request.fulfilled, \"Already fulfilled\");\r\n\r\n        request.fulfilled = true;\r\n\r\n        execute(request.gameId, request.playerId, uri);\r\n    }\r\n\r\n    /**\r\n     * Allow withdraw of Link tokens from the contract\r\n     */\r\n    function withdrawLink() public onlyOwner {\r\n        LinkTokenInterface link = LinkTokenInterface(chainlinkTokenAddress());\r\n        require(\r\n            link.transfer(msg.sender, link.balanceOf(address(this))),\r\n            \"Unable to transfer\"\r\n        );\r\n    }\r\n\r\n    function _transferTo(\r\n        uint64 chainSelector,\r\n        bytes memory data\r\n    ) external payable {\r\n        // Create an EVM2AnyMessage struct in memory with necessary information for sending a cross-chain message\r\n        Client.EVM2AnyMessage memory evm2AnyMessage = Client.EVM2AnyMessage({\r\n            // ABI-encoded receiver address\r\n            receiver: abi.encode(_msgSender()),\r\n            // ABI-encoded string message\r\n            data: data,\r\n            // Empty array indicating no tokens are being sent\r\n            tokenAmounts: new Client.EVMTokenAmount[](0),\r\n            // Additional arguments, setting gas limit and non-strict sequency mode\r\n            extraArgs: Client._argsToBytes(\r\n                Client.EVMExtraArgsV1({gasLimit: 400_000, strict: false})\r\n            ),\r\n            // Setting feeToken to zero address, indicating native asset will be used for fees\r\n            feeToken: address(0)\r\n        });\r\n\r\n        // Get the fee required to send the message\r\n        uint256 fees = _router.getFee(AVAX_SELECTOR, evm2AnyMessage);\r\n\r\n        require(msg.value >= fees, \"Insufficient fee\");\r\n\r\n        // Send the message through the router and store the returned message ID\r\n        _router.ccipSend{value: fees}(AVAX_SELECTOR, evm2AnyMessage);\r\n    }\r\n\r\n    // handle a received message\r\n    function _ccipReceive(\r\n        Client.Any2EVMMessage memory message\r\n    ) internal override {}\r\n\r\n    function execute(\r\n        address gameId,\r\n        address playerId,\r\n        string memory uri\r\n    ) internal {\r\n        require(_games[gameId].creator != address(0), \"Game Not Found\");\r\n\r\n        IKanvasGame game = IKanvasGame(gameId);\r\n        game._receiveUri(playerId, uri);\r\n    }\r\n\r\n    // ============ OWNER FUNCTIONS ============ //\r\n\r\n    function createPlan(Params.Plan memory params) external onlyOwner {\r\n        _plans[_planId] = Assets.Plan({\r\n            name: params.name,\r\n            cost: params.cost,\r\n            color: params.color,\r\n            limit: params.limit\r\n        });\r\n\r\n        emit PlanCreated(\r\n            _planId,\r\n            params.name,\r\n            params.cost,\r\n            params.color,\r\n            params.limit\r\n        );\r\n\r\n        _planId++;\r\n    }\r\n}\r\n",
  "sourcePath": "C:\\Users\\DELL\\Documents\\kanvas\\blockchain\\contracts\\KanvasAvax.sol",
  "compiler": {
    "name": "solc",
    "version": "0.8.17+commit.8df45f5f.Emscripten.clang"
  },
  "schemaVersion": "3.4.11",
  "updatedAt": "2023-12-01T12:03:58.021Z",
  "networkType": "ethereum",
  "devdoc": {
    "kind": "dev",
    "methods": {
      "ccipReceive((bytes32,uint64,bytes,bytes,(address,uint256)[]))": {
        "details": "Note ensure you check the msg.sender is the OffRampRouter",
        "params": {
          "message": "CCIP Message"
        }
      },
      "getRouter()": {
        "returns": {
          "_0": "i_router address"
        }
      },
      "owner()": {
        "details": "Returns the address of the current owner."
      },
      "renounceOwnership()": {
        "details": "Leaves the contract without owner. It will not be possible to call `onlyOwner` functions. Can only be called by the current owner. NOTE: Renouncing ownership will leave the contract without an owner, thereby disabling any functionality that is only available to the owner."
      },
      "supportsInterface(bytes4)": {
        "params": {
          "interfaceId": "The interfaceId to check"
        },
        "returns": {
          "_0": "true if the interfaceId is supported"
        }
      },
      "transferOwnership(address)": {
        "details": "Transfers ownership of the contract to a new account (`newOwner`). Can only be called by the current owner."
      }
    },
    "version": 1
  },
  "userdoc": {
    "kind": "user",
    "methods": {
      "ccipReceive((bytes32,uint64,bytes,bytes,(address,uint256)[]))": {
        "notice": "Called by the Router to deliver a message. If this reverts, any token transfers also revert. The message will move to a FAILED state and become available for manual execution."
      },
      "fulfill(bytes32,string)": {
        "notice": "Receive the response in the form of uint256"
      },
      "getRouter()": {
        "notice": "Return the current router"
      },
      "supportsInterface(bytes4)": {
        "notice": "IERC165 supports an interfaceId"
      },
      "withdrawLink()": {
        "notice": "Allow withdraw of Link tokens from the contract"
      }
    },
    "version": 1
  }
}