{
  "contractName": "KanvasAvax",
  "abi": [
    {
      "inputs": [
        {
          "internalType": "address",
          "name": "receiver",
          "type": "address"
        }
      ],
      "stateMutability": "nonpayable",
      "type": "constructor"
    },
    {
      "inputs": [
        {
          "internalType": "address",
          "name": "router",
          "type": "address"
        }
      ],
      "name": "InvalidRouter",
      "type": "error"
    },
    {
      "anonymous": false,
      "inputs": [
        {
          "indexed": true,
          "internalType": "bytes32",
          "name": "id",
          "type": "bytes32"
        }
      ],
      "name": "ChainlinkCancelled",
      "type": "event"
    },
    {
      "anonymous": false,
      "inputs": [
        {
          "indexed": true,
          "internalType": "bytes32",
          "name": "id",
          "type": "bytes32"
        }
      ],
      "name": "ChainlinkFulfilled",
      "type": "event"
    },
    {
      "anonymous": false,
      "inputs": [
        {
          "indexed": true,
          "internalType": "bytes32",
          "name": "id",
          "type": "bytes32"
        }
      ],
      "name": "ChainlinkRequested",
      "type": "event"
    },
    {
      "anonymous": false,
      "inputs": [
        {
          "indexed": false,
          "internalType": "address",
          "name": "gameId",
          "type": "address"
        },
        {
          "indexed": false,
          "internalType": "string",
          "name": "name",
          "type": "string"
        },
        {
          "indexed": false,
          "internalType": "string",
          "name": "description",
          "type": "string"
        },
        {
          "indexed": false,
          "internalType": "string",
          "name": "avatar",
          "type": "string"
        },
        {
          "indexed": false,
          "internalType": "uint256",
          "name": "plan",
          "type": "uint256"
        },
        {
          "indexed": false,
          "internalType": "address",
          "name": "creator",
          "type": "address"
        },
        {
          "indexed": false,
          "internalType": "string",
          "name": "email",
          "type": "string"
        },
        {
          "indexed": false,
          "internalType": "string",
          "name": "website",
          "type": "string"
        }
      ],
      "name": "GameCreated",
      "type": "event"
    },
    {
      "anonymous": false,
      "inputs": [
        {
          "indexed": true,
          "internalType": "address",
          "name": "previousOwner",
          "type": "address"
        },
        {
          "indexed": true,
          "internalType": "address",
          "name": "newOwner",
          "type": "address"
        }
      ],
      "name": "OwnershipTransferred",
      "type": "event"
    },
    {
      "anonymous": false,
      "inputs": [
        {
          "indexed": false,
          "internalType": "uint256",
          "name": "planId",
          "type": "uint256"
        },
        {
          "indexed": false,
          "internalType": "string",
          "name": "name",
          "type": "string"
        },
        {
          "indexed": false,
          "internalType": "uint256",
          "name": "cost",
          "type": "uint256"
        },
        {
          "indexed": false,
          "internalType": "string",
          "name": "color",
          "type": "string"
        },
        {
          "indexed": false,
          "internalType": "uint256",
          "name": "limit",
          "type": "uint256"
        }
      ],
      "name": "PlanCreated",
      "type": "event"
    },
    {
      "anonymous": false,
      "inputs": [
        {
          "indexed": false,
          "internalType": "address",
          "name": "gameId",
          "type": "address"
        },
        {
          "indexed": false,
          "internalType": "string",
          "name": "template",
          "type": "string"
        }
      ],
      "name": "TemplateAdded",
      "type": "event"
    },
    {
      "inputs": [],
      "name": "MAX_PROPERTIES_LEN",
      "outputs": [
        {
          "internalType": "uint256",
          "name": "",
          "type": "uint256"
        }
      ],
      "stateMutability": "view",
      "type": "function"
    },
    {
      "inputs": [],
      "name": "MAX_TEMPLATES_LEN",
      "outputs": [
        {
          "internalType": "uint256",
          "name": "",
          "type": "uint256"
        }
      ],
      "stateMutability": "view",
      "type": "function"
    },
    {
      "inputs": [
        {
          "components": [
            {
              "internalType": "bytes32",
              "name": "messageId",
              "type": "bytes32"
            },
            {
              "internalType": "uint64",
              "name": "sourceChainSelector",
              "type": "uint64"
            },
            {
              "internalType": "bytes",
              "name": "sender",
              "type": "bytes"
            },
            {
              "internalType": "bytes",
              "name": "data",
              "type": "bytes"
            },
            {
              "components": [
                {
                  "internalType": "address",
                  "name": "token",
                  "type": "address"
                },
                {
                  "internalType": "uint256",
                  "name": "amount",
                  "type": "uint256"
                }
              ],
              "internalType": "struct Client.EVMTokenAmount[]",
              "name": "destTokenAmounts",
              "type": "tuple[]"
            }
          ],
          "internalType": "struct Client.Any2EVMMessage",
          "name": "message",
          "type": "tuple"
        }
      ],
      "name": "ccipReceive",
      "outputs": [],
      "stateMutability": "nonpayable",
      "type": "function"
    },
    {
      "inputs": [],
      "name": "getRouter",
      "outputs": [
        {
          "internalType": "address",
          "name": "",
          "type": "address"
        }
      ],
      "stateMutability": "view",
      "type": "function"
    },
    {
      "inputs": [],
      "name": "owner",
      "outputs": [
        {
          "internalType": "address",
          "name": "",
          "type": "address"
        }
      ],
      "stateMutability": "view",
      "type": "function"
    },
    {
      "inputs": [],
      "name": "renounceOwnership",
      "outputs": [],
      "stateMutability": "nonpayable",
      "type": "function"
    },
    {
      "inputs": [
        {
          "internalType": "bytes4",
          "name": "interfaceId",
          "type": "bytes4"
        }
      ],
      "name": "supportsInterface",
      "outputs": [
        {
          "internalType": "bool",
          "name": "",
          "type": "bool"
        }
      ],
      "stateMutability": "pure",
      "type": "function"
    },
    {
      "inputs": [
        {
          "internalType": "address",
          "name": "newOwner",
          "type": "address"
        }
      ],
      "name": "transferOwnership",
      "outputs": [],
      "stateMutability": "nonpayable",
      "type": "function"
    },
    {
      "inputs": [
        {
          "components": [
            {
              "internalType": "string",
              "name": "name",
              "type": "string"
            },
            {
              "internalType": "string",
              "name": "description",
              "type": "string"
            },
            {
              "internalType": "address",
              "name": "gameId",
              "type": "address"
            },
            {
              "internalType": "string",
              "name": "avatar",
              "type": "string"
            },
            {
              "internalType": "uint256",
              "name": "plan",
              "type": "uint256"
            },
            {
              "internalType": "string",
              "name": "email",
              "type": "string"
            },
            {
              "internalType": "string",
              "name": "website",
              "type": "string"
            }
          ],
          "internalType": "struct Params.Game",
          "name": "params",
          "type": "tuple"
        }
      ],
      "name": "createGame",
      "outputs": [],
      "stateMutability": "payable",
      "type": "function"
    },
    {
      "inputs": [
        {
          "internalType": "string",
          "name": "params",
          "type": "string"
        },
        {
          "internalType": "address",
          "name": "gameId",
          "type": "address"
        }
      ],
      "name": "addTemplate",
      "outputs": [],
      "stateMutability": "nonpayable",
      "type": "function"
    },
    {
      "inputs": [
        {
          "internalType": "address",
          "name": "playerId",
          "type": "address"
        },
        {
          "internalType": "string[]",
          "name": "properties",
          "type": "string[]"
        },
        {
          "internalType": "string",
          "name": "fields",
          "type": "string"
        },
        {
          "internalType": "uint8",
          "name": "templateId",
          "type": "uint8"
        }
      ],
      "name": "_generateUri",
      "outputs": [],
      "stateMutability": "nonpayable",
      "type": "function"
    },
    {
      "inputs": [
        {
          "internalType": "string",
          "name": "newBaseUrl",
          "type": "string"
        }
      ],
      "name": "updateBaseUrl",
      "outputs": [],
      "stateMutability": "nonpayable",
      "type": "function"
    },
    {
      "inputs": [
        {
          "internalType": "uint64",
          "name": "chainSelector",
          "type": "uint64"
        },
        {
          "internalType": "address",
          "name": "kanvasRouter",
          "type": "address"
        }
      ],
      "name": "updateInterop",
      "outputs": [],
      "stateMutability": "nonpayable",
      "type": "function"
    },
    {
      "inputs": [
        {
          "internalType": "bytes32",
          "name": "requestId",
          "type": "bytes32"
        },
        {
          "internalType": "string",
          "name": "uri",
          "type": "string"
        }
      ],
      "name": "fulfill",
      "outputs": [],
      "stateMutability": "nonpayable",
      "type": "function"
    },
    {
      "inputs": [],
      "name": "withdrawLink",
      "outputs": [],
      "stateMutability": "nonpayable",
      "type": "function"
    },
    {
      "inputs": [
        {
          "internalType": "uint64",
          "name": "chainSelector",
          "type": "uint64"
        },
        {
          "internalType": "address",
          "name": "gameId",
          "type": "address"
        },
        {
          "internalType": "address",
          "name": "playerId",
          "type": "address"
        },
        {
          "internalType": "uint256",
          "name": "tokenId",
          "type": "uint256"
        },
        {
          "internalType": "string",
          "name": "uri",
          "type": "string"
        },
        {
          "internalType": "bytes",
          "name": "data",
          "type": "bytes"
        }
      ],
      "name": "_transferTo",
      "outputs": [],
      "stateMutability": "payable",
      "type": "function"
    },
    {
      "inputs": [
        {
          "components": [
            {
              "internalType": "string",
              "name": "name",
              "type": "string"
            },
            {
              "internalType": "uint256",
              "name": "cost",
              "type": "uint256"
            },
            {
              "internalType": "string",
              "name": "color",
              "type": "string"
            },
            {
              "internalType": "uint256",
              "name": "limit",
              "type": "uint256"
            }
          ],
          "internalType": "struct Params.Plan",
          "name": "params",
          "type": "tuple"
        }
      ],
      "name": "createPlan",
      "outputs": [],
      "stateMutability": "nonpayable",
      "type": "function"
    }
  ],
  "bytecode": "0x60a060405260016004556040518060200160405280600081525060079081620000299190620005f5565b503480156200003757600080fd5b506040516200551a3803806200551a83398181016040528101906200005d919062000746565b80600073ffffffffffffffffffffffffffffffffffffffff168173ffffffffffffffffffffffffffffffffffffffff1603620000d35760006040517fd7f73334000000000000000000000000000000000000000000000000000000008152600401620000ca919062000789565b60405180910390fd5b8073ffffffffffffffffffffffffffffffffffffffff1660808173ffffffffffffffffffffffffffffffffffffffff168152505050620001286200011c6200021b60201b60201c565b6200022360201b60201c565b6200014d730b9d5d9136855f6fec3c0993fee6e9ce8a297846620002e960201b60201c565b6200017273022eea14a6010167ca026b32576d6686dd7e85d26200032d60201b60201c565b7f3764383061363338366566353433613361626235323831376636373037653362600881905550600a670de0b6b3a76400006001620001b29190620007d5565b620001be91906200084f565b600981905550620001d46200037160201b60201c565b600f60006101000a81548173ffffffffffffffffffffffffffffffffffffffff021916908373ffffffffffffffffffffffffffffffffffffffff1602179055505062000887565b600033905090565b6000600660009054906101000a900473ffffffffffffffffffffffffffffffffffffffff16905081600660006101000a81548173ffffffffffffffffffffffffffffffffffffffff021916908373ffffffffffffffffffffffffffffffffffffffff1602179055508173ffffffffffffffffffffffffffffffffffffffff168173ffffffffffffffffffffffffffffffffffffffff167f8be0079c531659141344cd1fd0a4f28419497f9722a3daafe3b4186f6b6457e060405160405180910390a35050565b80600260006101000a81548173ffffffffffffffffffffffffffffffffffffffff021916908373ffffffffffffffffffffffffffffffffffffffff16021790555050565b80600360006101000a81548173ffffffffffffffffffffffffffffffffffffffff021916908373ffffffffffffffffffffffffffffffffffffffff16021790555050565b6000608051905090565b600081519050919050565b7f4e487b7100000000000000000000000000000000000000000000000000000000600052604160045260246000fd5b7f4e487b7100000000000000000000000000000000000000000000000000000000600052602260045260246000fd5b60006002820490506001821680620003fd57607f821691505b602082108103620004135762000412620003b5565b5b50919050565b60008190508160005260206000209050919050565b60006020601f8301049050919050565b600082821b905092915050565b6000600883026200047d7fffffffffffffffffffffffffffffffffffffffffffffffffffffffffffffffff826200043e565b6200048986836200043e565b95508019841693508086168417925050509392505050565b6000819050919050565b6000819050919050565b6000620004d6620004d0620004ca84620004a1565b620004ab565b620004a1565b9050919050565b6000819050919050565b620004f283620004b5565b6200050a6200050182620004dd565b8484546200044b565b825550505050565b600090565b6200052162000512565b6200052e818484620004e7565b505050565b5b8181101562000556576200054a60008262000517565b60018101905062000534565b5050565b601f821115620005a5576200056f8162000419565b6200057a846200042e565b810160208510156200058a578190505b620005a262000599856200042e565b83018262000533565b50505b505050565b600082821c905092915050565b6000620005ca60001984600802620005aa565b1980831691505092915050565b6000620005e58383620005b7565b9150826002028217905092915050565b62000600826200037b565b67ffffffffffffffff8111156200061c576200061b62000386565b5b620006288254620003e4565b620006358282856200055a565b600060209050601f8311600181146200066d576000841562000658578287015190505b620006648582620005d7565b865550620006d4565b601f1984166200067d8662000419565b60005b82811015620006a75784890151825560018201915060208501945060208101905062000680565b86831015620006c75784890151620006c3601f891682620005b7565b8355505b6001600288020188555050505b505050505050565b600080fd5b600073ffffffffffffffffffffffffffffffffffffffff82169050919050565b60006200070e82620006e1565b9050919050565b620007208162000701565b81146200072c57600080fd5b50565b600081519050620007408162000715565b92915050565b6000602082840312156200075f576200075e620006dc565b5b60006200076f848285016200072f565b91505092915050565b620007838162000701565b82525050565b6000602082019050620007a0600083018462000778565b92915050565b7f4e487b7100000000000000000000000000000000000000000000000000000000600052601160045260246000fd5b6000620007e282620004a1565b9150620007ef83620004a1565b9250828202620007ff81620004a1565b91508282048414831517620008195762000818620007a6565b5b5092915050565b7f4e487b7100000000000000000000000000000000000000000000000000000000600052601260045260246000fd5b60006200085c82620004a1565b91506200086983620004a1565b9250826200087c576200087b62000820565b5b828204905092915050565b608051614c70620008aa60003960008181610a14015261104e0152614c706000f3fe6080604052600436106100fe5760003560e01c80638da5cb5b11610095578063dd3fac7c11610064578063dd3fac7c146102cb578063dff0ee41146102f4578063ea21e5eb1461031f578063eee6e57314610348578063f2fde38b14610371576100fe565b80638da5cb5b146102355780638dc654a21461026057806392154a3d14610277578063b0f479a1146102a0576100fe565b806385572ffb116100d157806385572ffb1461019c5780638b8ff358146101c55780638cd176d5146101f05780638d6dc0eb14610219576100fe565b806301ffc9a71461010357806337441996146101405780635821feae14610169578063715018a614610185575b600080fd5b34801561010f57600080fd5b5061012a600480360381019061012591906126aa565b61039a565b60405161013791906126f2565b60405180910390f35b34801561014c57600080fd5b5061016760048036038101906101629190612889565b61046c565b005b610183600480360381019061017e9190612ac3565b6107ad565b005b34801561019157600080fd5b5061019a6109fe565b005b3480156101a857600080fd5b506101c360048036038101906101be9190612b30565b610a12565b005b3480156101d157600080fd5b506101da610ab7565b6040516101e79190612b88565b60405180910390f35b3480156101fc57600080fd5b5061021760048036038101906102129190612c53565b610abc565b005b610233600480360381019061022e9190612d7d565b610bb9565b005b34801561024157600080fd5b5061024a610e9f565b6040516102579190612e51565b60405180910390f35b34801561026c57600080fd5b50610275610ec9565b005b34801561028357600080fd5b5061029e60048036038101906102999190612e6c565b610fd8565b005b3480156102ac57600080fd5b506102b561104a565b6040516102c29190612e51565b60405180910390f35b3480156102d757600080fd5b506102f260048036038101906102ed9190612eac565b611072565b005b34801561030057600080fd5b50610309611192565b6040516103169190612b88565b60405180910390f35b34801561032b57600080fd5b5061034660048036038101906103419190612f08565b611197565b005b34801561035457600080fd5b5061036f600480360381019061036a9190613070565b6111b2565b005b34801561037d57600080fd5b506103986004803603810190610393919061310f565b61159d565b005b60007f85572ffb000000000000000000000000000000000000000000000000000000007bffffffffffffffffffffffffffffffffffffffffffffffffffffffff1916827bffffffffffffffffffffffffffffffffffffffffffffffffffffffff1916148061046557507f01ffc9a7000000000000000000000000000000000000000000000000000000007bffffffffffffffffffffffffffffffffffffffffffffffffffffffff1916827bffffffffffffffffffffffffffffffffffffffffffffffffffffffff1916145b9050919050565b816005600082815260200190815260200160002060009054906101000a900473ffffffffffffffffffffffffffffffffffffffff1673ffffffffffffffffffffffffffffffffffffffff163373ffffffffffffffffffffffffffffffffffffffff161461050e576040517f08c379a0000000000000000000000000000000000000000000000000000000008152600401610505906131bf565b60405180910390fd5b6005600082815260200190815260200160002060006101000a81549073ffffffffffffffffffffffffffffffffffffffff0219169055807f7cc135e0cebb02c3480ae5d74d377283180a2601f8f644edf7987b009316c63a60405160405180910390a26000600d600085815260200190815260200160002090508060010160149054906101000a900460ff16156105da576040517f08c379a00000000000000000000000000000000000000000000000000000000081526004016105d19061322b565b60405180910390fd5b60018160010160146101000a81548160ff021916908315150217905550600073ffffffffffffffffffffffffffffffffffffffff16600c60008360000160009054906101000a900473ffffffffffffffffffffffffffffffffffffffff1673ffffffffffffffffffffffffffffffffffffffff1673ffffffffffffffffffffffffffffffffffffffff16815260200190815260200160002060040160009054906101000a900473ffffffffffffffffffffffffffffffffffffffff1673ffffffffffffffffffffffffffffffffffffffff16036106ec576040517f08c379a00000000000000000000000000000000000000000000000000000000081526004016106e390613297565b60405180910390fd5b60008160000160009054906101000a900473ffffffffffffffffffffffffffffffffffffffff1690508073ffffffffffffffffffffffffffffffffffffffff16638f9c39568360010160009054906101000a900473ffffffffffffffffffffffffffffffffffffffff16866040518363ffffffff1660e01b8152600401610774929190613325565b600060405180830381600087803b15801561078e57600080fd5b505af11580156107a2573d6000803e3d6000fd5b505050505050505050565b6000600b600083608001518152602001908152602001600020600301540361080a576040517f08c379a0000000000000000000000000000000000000000000000000000000008152600401610801906133a1565b60405180910390fd5b600b600082608001518152602001908152602001600020600101543414610866576040517f08c379a000000000000000000000000000000000000000000000000000000000815260040161085d9061340d565b60405180910390fd5b6040518060a00160405280826000015181526020018260600151815260200182602001518152602001826080015181526020016108a1611620565b73ffffffffffffffffffffffffffffffffffffffff16815250600c6000836040015173ffffffffffffffffffffffffffffffffffffffff1673ffffffffffffffffffffffffffffffffffffffff16815260200190815260200160002060008201518160000190816109129190613639565b5060208201518160010190816109289190613639565b50604082015181600201908161093e9190613639565b506060820151816003015560808201518160040160006101000a81548173ffffffffffffffffffffffffffffffffffffffff021916908373ffffffffffffffffffffffffffffffffffffffff1602179055509050507fea35bbd4aeddb611341e5394e07bd5ac7513bd56730a40e7e3e3eb761e155c05816040015182600001518360200151846060015185608001516109d5611620565b8760a001518860c001516040516109f398979695949392919061370b565b60405180910390a150565b610a06611628565b610a1060006116a6565b565b7f000000000000000000000000000000000000000000000000000000000000000073ffffffffffffffffffffffffffffffffffffffff163373ffffffffffffffffffffffffffffffffffffffff1614610aa257336040517fd7f73334000000000000000000000000000000000000000000000000000000008152600401610a999190612e51565b60405180910390fd5b610ab481610aaf9061399f565b61176c565b50565b601481565b610ac4611628565b600a6000815480929190610ad7906139e1565b919050555060405180608001604052808260000151815260200182602001518152602001826040015181526020018260600151815250600b6000600a5481526020019081526020016000206000820151816000019081610b379190613639565b50602082015181600101556040820151816002019081610b579190613639565b50606082015181600301559050507f33c5bd102a4d38690a8d7d236985d20c88e66b73bca9de5ae6cc29376d2206fd600a548260000151836020015184604001518560600151604051610bae959493929190613a29565b60405180910390a150565b60006040518060a00160405280600e60008a67ffffffffffffffff1667ffffffffffffffff16815260200190815260200160002060009054906101000a900473ffffffffffffffffffffffffffffffffffffffff16604051602001610c1e9190612e51565b60405160208183030381529060405281526020018787878787604051602001610c4b959493929190613adf565b6040516020818303038152906040528152602001600067ffffffffffffffff811115610c7a57610c7961275e565b5b604051908082528060200260200182016040528015610cb357816020015b610ca0612587565b815260200190600190039081610c985790505b508152602001600073ffffffffffffffffffffffffffffffffffffffff168152602001610cf9604051806040016040528062061a8081526020016000151581525061181d565b81525090506000600f60009054906101000a900473ffffffffffffffffffffffffffffffffffffffff1673ffffffffffffffffffffffffffffffffffffffff166320487ded67ccf0a31a221f3c9b846040518363ffffffff1660e01b8152600401610d65929190613d20565b602060405180830381865afa158015610d82573d6000803e3d6000fd5b505050506040513d601f19601f82011682018060405250810190610da69190613d65565b905080341015610deb576040517f08c379a0000000000000000000000000000000000000000000000000000000008152600401610de290613dde565b60405180910390fd5b600f60009054906101000a900473ffffffffffffffffffffffffffffffffffffffff1673ffffffffffffffffffffffffffffffffffffffff166396f4e9f98267ccf0a31a221f3c9b856040518463ffffffff1660e01b8152600401610e51929190613d20565b60206040518083038185885af1158015610e6f573d6000803e3d6000fd5b50505050506040513d601f19601f82011682018060405250810190610e949190613e13565b505050505050505050565b6000600660009054906101000a900473ffffffffffffffffffffffffffffffffffffffff16905090565b610ed1611628565b6000610edb61189c565b90508073ffffffffffffffffffffffffffffffffffffffff1663a9059cbb338373ffffffffffffffffffffffffffffffffffffffff166370a08231306040518263ffffffff1660e01b8152600401610f339190612e51565b602060405180830381865afa158015610f50573d6000803e3d6000fd5b505050506040513d601f19601f82011682018060405250810190610f749190613d65565b6040518363ffffffff1660e01b8152600401610f91929190613e40565b6020604051808303816000875af1158015610fb0573d6000803e3d6000fd5b505050506040513d601f19601f82011682018060405250810190610fd49190613e95565b5050565b610fe0611628565b80600e60008467ffffffffffffffff1667ffffffffffffffff16815260200190815260200160002060006101000a81548173ffffffffffffffffffffffffffffffffffffffff021916908373ffffffffffffffffffffffffffffffffffffffff1602179055505050565b60007f0000000000000000000000000000000000000000000000000000000000000000905090565b600061107c611620565b90506000600c60008473ffffffffffffffffffffffffffffffffffffffff1673ffffffffffffffffffffffffffffffffffffffff16815260200190815260200160002090508173ffffffffffffffffffffffffffffffffffffffff168160040160009054906101000a900473ffffffffffffffffffffffffffffffffffffffff1673ffffffffffffffffffffffffffffffffffffffff1614611153576040517f08c379a000000000000000000000000000000000000000000000000000000000815260040161114a90613f0e565b60405180910390fd5b7fd7219b2d0e6067644335c8f4f82ee77c59a90a22e2916f1dce8683af8e8b07fa8385604051611184929190613325565b60405180910390a150505050565b600581565b61119f611628565b80600790816111ae9190613639565b5050565b6014835111156111f7576040517f08c379a00000000000000000000000000000000000000000000000000000000081526004016111ee90613f7a565b60405180910390fd5b6000611201611620565b9050600073ffffffffffffffffffffffffffffffffffffffff16600c60008373ffffffffffffffffffffffffffffffffffffffff1673ffffffffffffffffffffffffffffffffffffffff16815260200190815260200160002060040160009054906101000a900473ffffffffffffffffffffffffffffffffffffffff1673ffffffffffffffffffffffffffffffffffffffff16036112d4576040517f08c379a00000000000000000000000000000000000000000000000000000000081526004016112cb90613297565b60405180910390fd5b60006112ea60085430633744199660e01b6118c6565b90506113f76040518060400160405280600381526020017f6765740000000000000000000000000000000000000000000000000000000000815250600773__StringJoiner__________________________635c8656e0896040518263ffffffff1660e01b815260040161135e9190614103565b600060405180830381865af415801561137b573d6000803e3d6000fd5b505050506040513d6000823e3d601f19601f820116820180604052508101906113a491906141a8565b876113ae876118f7565b6113b78c6118f7565b6113c38a60ff16611924565b6040516020016113d8969594939291906142d6565b604051602081830303815290604052836119f29092919063ffffffff16565b6114766040518060400160405280600481526020017f70617468000000000000000000000000000000000000000000000000000000008152506040518060400160405280600381526020017f7572690000000000000000000000000000000000000000000000000000000000815250836119f29092919063ffffffff16565b600061148482600954611a25565b905060405180606001604052808473ffffffffffffffffffffffffffffffffffffffff1681526020018873ffffffffffffffffffffffffffffffffffffffff16815260200160001515815250600d600083815260200190815260200160002060008201518160000160006101000a81548173ffffffffffffffffffffffffffffffffffffffff021916908373ffffffffffffffffffffffffffffffffffffffff16021790555060208201518160010160006101000a81548173ffffffffffffffffffffffffffffffffffffffff021916908373ffffffffffffffffffffffffffffffffffffffff16021790555060408201518160010160146101000a81548160ff02191690831515021790555090505050505050505050565b6115a5611628565b600073ffffffffffffffffffffffffffffffffffffffff168173ffffffffffffffffffffffffffffffffffffffff1603611614576040517f08c379a000000000000000000000000000000000000000000000000000000000815260040161160b906143eb565b60405180910390fd5b61161d816116a6565b50565b600033905090565b611630611620565b73ffffffffffffffffffffffffffffffffffffffff1661164e610e9f565b73ffffffffffffffffffffffffffffffffffffffff16146116a4576040517f08c379a000000000000000000000000000000000000000000000000000000000815260040161169b90614457565b60405180910390fd5b565b6000600660009054906101000a900473ffffffffffffffffffffffffffffffffffffffff16905081600660006101000a81548173ffffffffffffffffffffffffffffffffffffffff021916908373ffffffffffffffffffffffffffffffffffffffff1602179055508173ffffffffffffffffffffffffffffffffffffffff168173ffffffffffffffffffffffffffffffffffffffff167f8be0079c531659141344cd1fd0a4f28419497f9722a3daafe3b4186f6b6457e060405160405180910390a35050565b6000806000806000856060015180602001905181019061178c9190614525565b9450945094509450945060008590508073ffffffffffffffffffffffffffffffffffffffff16636d4195fb886020015188888888886040518763ffffffff1660e01b81526004016117e2969594939291906145d8565b600060405180830381600087803b1580156117fc57600080fd5b505af1158015611810573d6000803e3d6000fd5b5050505050505050505050565b60606397a657c960e01b826040516024016118389190614685565b604051602081830303815290604052907bffffffffffffffffffffffffffffffffffffffffffffffffffffffff19166020820180517bffffffffffffffffffffffffffffffffffffffffffffffffffffffff83818316178352505050509050919050565b6000600260009054906101000a900473ffffffffffffffffffffffffffffffffffffffff16905090565b6118ce6125b7565b6118d66125b7565b6118ed85858584611a5c909392919063ffffffff16565b9150509392505050565b606061191d8273ffffffffffffffffffffffffffffffffffffffff16601460ff16611b0c565b9050919050565b60606000600161193384611d48565b01905060008167ffffffffffffffff8111156119525761195161275e565b5b6040519080825280601f01601f1916602001820160405280156119845781602001600182028036833780820191505090505b509050600082602001820190505b6001156119e7578080600190039150507f3031323334353637383961626364656600000000000000000000000000000000600a86061a8153600a85816119db576119da6146a0565b5b04945060008503611992575b819350505050919050565b611a09828460800151611e9b90919063ffffffff16565b611a20818460800151611e9b90919063ffffffff16565b505050565b6000611a54600360009054906101000a900473ffffffffffffffffffffffffffffffffffffffff168484611ec0565b905092915050565b611a646125b7565b611a748560800151610100611f8c565b508385600001818152505082856020019073ffffffffffffffffffffffffffffffffffffffff16908173ffffffffffffffffffffffffffffffffffffffff16815250508185604001907bffffffffffffffffffffffffffffffffffffffffffffffffffffffff191690817bffffffffffffffffffffffffffffffffffffffffffffffffffffffff191681525050849050949350505050565b606060006002836002611b1f91906146cf565b611b299190614711565b67ffffffffffffffff811115611b4257611b4161275e565b5b6040519080825280601f01601f191660200182016040528015611b745781602001600182028036833780820191505090505b5090507f300000000000000000000000000000000000000000000000000000000000000081600081518110611bac57611bab614745565b5b60200101907effffffffffffffffffffffffffffffffffffffffffffffffffffffffffffff1916908160001a9053507f780000000000000000000000000000000000000000000000000000000000000081600181518110611c1057611c0f614745565b5b60200101907effffffffffffffffffffffffffffffffffffffffffffffffffffffffffffff1916908160001a90535060006001846002611c5091906146cf565b611c5a9190614711565b90505b6001811115611cfa577f3031323334353637383961626364656600000000000000000000000000000000600f861660108110611c9c57611c9b614745565b5b1a60f81b828281518110611cb357611cb2614745565b5b60200101907effffffffffffffffffffffffffffffffffffffffffffffffffffffffffffff1916908160001a905350600485901c945080611cf390614774565b9050611c5d565b5060008414611d3e576040517f08c379a0000000000000000000000000000000000000000000000000000000008152600401611d35906147e9565b60405180910390fd5b8091505092915050565b600080600090507a184f03e93ff9f4daa797ed6e38ed64bf6a1f0100000000000000008310611da6577a184f03e93ff9f4daa797ed6e38ed64bf6a1f0100000000000000008381611d9c57611d9b6146a0565b5b0492506040810190505b6d04ee2d6d415b85acef81000000008310611de3576d04ee2d6d415b85acef81000000008381611dd957611dd86146a0565b5b0492506020810190505b662386f26fc100008310611e1257662386f26fc100008381611e0857611e076146a0565b5b0492506010810190505b6305f5e1008310611e3b576305f5e1008381611e3157611e306146a0565b5b0492506008810190505b6127108310611e60576127108381611e5657611e556146a0565b5b0492506004810190505b60648310611e835760648381611e7957611e786146a0565b5b0492506002810190505b600a8310611e92576001810190505b80915050919050565b611ea88260038351611ff6565b611ebb818361217b90919063ffffffff16565b505050565b6000806004549050600181611ed59190614711565b6004819055506000634042994660e01b60008087600001513089604001518760018c6080015160000151604051602401611f16989796959493929190614827565b604051602081830303815290604052907bffffffffffffffffffffffffffffffffffffffffffffffffffffffff19166020820180517bffffffffffffffffffffffffffffffffffffffffffffffffffffffff83818316178352505050509050611f818683868461219d565b925050509392505050565b611f94612624565b6000602083611fa391906148ac565b14611fcf57602082611fb591906148ac565b6020611fc191906148dd565b82611fcc9190614711565b91505b81836020018181525050604051808452600081528281016020016040525082905092915050565b60178167ffffffffffffffff161161202d576120278160058460ff16901b60ff16178461233290919063ffffffff16565b50612176565b60ff8167ffffffffffffffff16116120835761205c601860058460ff16901b178461233290919063ffffffff16565b5061207d8167ffffffffffffffff166001856123529092919063ffffffff16565b50612175565b61ffff8167ffffffffffffffff16116120da576120b3601960058460ff16901b178461233290919063ffffffff16565b506120d48167ffffffffffffffff166002856123529092919063ffffffff16565b50612174565b63ffffffff8167ffffffffffffffff16116121335761210c601a60058460ff16901b178461233290919063ffffffff16565b5061212d8167ffffffffffffffff166004856123529092919063ffffffff16565b50612173565b612150601b60058460ff16901b178461233290919063ffffffff16565b506121718167ffffffffffffffff166008856123529092919063ffffffff16565b505b5b5b5b505050565b612183612624565b61219583846000015151848551612374565b905092915050565b600030846040516020016121b29291906149c0565b604051602081830303815290604052805190602001209050846005600083815260200190815260200160002060006101000a81548173ffffffffffffffffffffffffffffffffffffffff021916908373ffffffffffffffffffffffffffffffffffffffff160217905550807fb5e6e01e79f91267dc17b4e6314d5d4d03593d2ceee0fbb452b750bd70ea5af960405160405180910390a2600260009054906101000a900473ffffffffffffffffffffffffffffffffffffffff1673ffffffffffffffffffffffffffffffffffffffff16634000aea08685856040518463ffffffff1660e01b81526004016122a8939291906149ec565b6020604051808303816000875af11580156122c7573d6000803e3d6000fd5b505050506040513d601f19601f820116820180604052508101906122eb9190613e95565b61232a576040517f08c379a000000000000000000000000000000000000000000000000000000000815260040161232190614a9c565b60405180910390fd5b949350505050565b61233a612624565b61234a8384600001515184612463565b905092915050565b61235a612624565b61236b8485600001515185856124b9565b90509392505050565b61237c612624565b825182111561238a57600080fd5b8460200151828561239b9190614711565b11156123d0576123cf8560026123c0886020015188876123bb9190614711565b612547565b6123ca91906146cf565b612563565b5b6000808651805187602083010193508088870111156123ef5787860182525b60208701925050505b6020841061243657805182526020826124119190614711565b91506020816124209190614711565b905060208461242f91906148dd565b93506123f8565b60006001856020036101000a03905080198251168184511681811785525050508692505050949350505050565b61246b612624565b8360200151831061249157612490846002866020015161248b91906146cf565b612563565b5b835180516020858301018481538186036124ac576001820183525b5050508390509392505050565b6124c1612624565b846020015184836124d29190614711565b11156124fa576124f985600286856124ea9190614711565b6124f491906146cf565b612563565b5b600060018361010061250c9190614bef565b61251691906148dd565b905085518386820101858319825116178152815185880111156125395784870182525b505085915050949350505050565b6000818311156125595782905061255d565b8190505b92915050565b6000826000015190506125768383611f8c565b50612581838261217b565b50505050565b6040518060400160405280600073ffffffffffffffffffffffffffffffffffffffff168152602001600081525090565b6040518060a0016040528060008019168152602001600073ffffffffffffffffffffffffffffffffffffffff16815260200160007bffffffffffffffffffffffffffffffffffffffffffffffffffffffff191681526020016000815260200161261e612624565b81525090565b604051806040016040528060608152602001600081525090565b6000604051905090565b600080fd5b600080fd5b60007fffffffff0000000000000000000000000000000000000000000000000000000082169050919050565b61268781612652565b811461269257600080fd5b50565b6000813590506126a48161267e565b92915050565b6000602082840312156126c0576126bf612648565b5b60006126ce84828501612695565b91505092915050565b60008115159050919050565b6126ec816126d7565b82525050565b600060208201905061270760008301846126e3565b92915050565b6000819050919050565b6127208161270d565b811461272b57600080fd5b50565b60008135905061273d81612717565b92915050565b600080fd5b600080fd5b6000601f19601f8301169050919050565b7f4e487b7100000000000000000000000000000000000000000000000000000000600052604160045260246000fd5b6127968261274d565b810181811067ffffffffffffffff821117156127b5576127b461275e565b5b80604052505050565b60006127c861263e565b90506127d4828261278d565b919050565b600067ffffffffffffffff8211156127f4576127f361275e565b5b6127fd8261274d565b9050602081019050919050565b82818337600083830152505050565b600061282c612827846127d9565b6127be565b90508281526020810184848401111561284857612847612748565b5b61285384828561280a565b509392505050565b600082601f8301126128705761286f612743565b5b8135612880848260208601612819565b91505092915050565b600080604083850312156128a05761289f612648565b5b60006128ae8582860161272e565b925050602083013567ffffffffffffffff8111156128cf576128ce61264d565b5b6128db8582860161285b565b9150509250929050565b600080fd5b600080fd5b600073ffffffffffffffffffffffffffffffffffffffff82169050919050565b600061291a826128ef565b9050919050565b61292a8161290f565b811461293557600080fd5b50565b60008135905061294781612921565b92915050565b6000819050919050565b6129608161294d565b811461296b57600080fd5b50565b60008135905061297d81612957565b92915050565b600060e08284031215612999576129986128e5565b5b6129a360e06127be565b9050600082013567ffffffffffffffff8111156129c3576129c26128ea565b5b6129cf8482850161285b565b600083015250602082013567ffffffffffffffff8111156129f3576129f26128ea565b5b6129ff8482850161285b565b6020830152506040612a1384828501612938565b604083015250606082013567ffffffffffffffff811115612a3757612a366128ea565b5b612a438482850161285b565b6060830152506080612a578482850161296e565b60808301525060a082013567ffffffffffffffff811115612a7b57612a7a6128ea565b5b612a878482850161285b565b60a08301525060c082013567ffffffffffffffff811115612aab57612aaa6128ea565b5b612ab78482850161285b565b60c08301525092915050565b600060208284031215612ad957612ad8612648565b5b600082013567ffffffffffffffff811115612af757612af661264d565b5b612b0384828501612983565b91505092915050565b600080fd5b600060a08284031215612b2757612b26612b0c565b5b81905092915050565b600060208284031215612b4657612b45612648565b5b600082013567ffffffffffffffff811115612b6457612b6361264d565b5b612b7084828501612b11565b91505092915050565b612b828161294d565b82525050565b6000602082019050612b9d6000830184612b79565b92915050565b600060808284031215612bb957612bb86128e5565b5b612bc360806127be565b9050600082013567ffffffffffffffff811115612be357612be26128ea565b5b612bef8482850161285b565b6000830152506020612c038482850161296e565b602083015250604082013567ffffffffffffffff811115612c2757612c266128ea565b5b612c338482850161285b565b6040830152506060612c478482850161296e565b60608301525092915050565b600060208284031215612c6957612c68612648565b5b600082013567ffffffffffffffff811115612c8757612c8661264d565b5b612c9384828501612ba3565b91505092915050565b600067ffffffffffffffff82169050919050565b612cb981612c9c565b8114612cc457600080fd5b50565b600081359050612cd681612cb0565b92915050565b600067ffffffffffffffff821115612cf757612cf661275e565b5b612d008261274d565b9050602081019050919050565b6000612d20612d1b84612cdc565b6127be565b905082815260208101848484011115612d3c57612d3b612748565b5b612d4784828561280a565b509392505050565b600082601f830112612d6457612d63612743565b5b8135612d74848260208601612d0d565b91505092915050565b60008060008060008060c08789031215612d9a57612d99612648565b5b6000612da889828a01612cc7565b9650506020612db989828a01612938565b9550506040612dca89828a01612938565b9450506060612ddb89828a0161296e565b935050608087013567ffffffffffffffff811115612dfc57612dfb61264d565b5b612e0889828a0161285b565b92505060a087013567ffffffffffffffff811115612e2957612e2861264d565b5b612e3589828a01612d4f565b9150509295509295509295565b612e4b8161290f565b82525050565b6000602082019050612e666000830184612e42565b92915050565b60008060408385031215612e8357612e82612648565b5b6000612e9185828601612cc7565b9250506020612ea285828601612938565b9150509250929050565b60008060408385031215612ec357612ec2612648565b5b600083013567ffffffffffffffff811115612ee157612ee061264d565b5b612eed8582860161285b565b9250506020612efe85828601612938565b9150509250929050565b600060208284031215612f1e57612f1d612648565b5b600082013567ffffffffffffffff811115612f3c57612f3b61264d565b5b612f488482850161285b565b91505092915050565b600067ffffffffffffffff821115612f6c57612f6b61275e565b5b602082029050602081019050919050565b600080fd5b6000612f95612f9084612f51565b6127be565b90508083825260208201905060208402830185811115612fb857612fb7612f7d565b5b835b81811015612fff57803567ffffffffffffffff811115612fdd57612fdc612743565b5b808601612fea898261285b565b85526020850194505050602081019050612fba565b5050509392505050565b600082601f83011261301e5761301d612743565b5b813561302e848260208601612f82565b91505092915050565b600060ff82169050919050565b61304d81613037565b811461305857600080fd5b50565b60008135905061306a81613044565b92915050565b6000806000806080858703121561308a57613089612648565b5b600061309887828801612938565b945050602085013567ffffffffffffffff8111156130b9576130b861264d565b5b6130c587828801613009565b935050604085013567ffffffffffffffff8111156130e6576130e561264d565b5b6130f28782880161285b565b92505060606131038782880161305b565b91505092959194509250565b60006020828403121561312557613124612648565b5b600061313384828501612938565b91505092915050565b600082825260208201905092915050565b7f536f75726365206d75737420626520746865206f7261636c65206f662074686560008201527f2072657175657374000000000000000000000000000000000000000000000000602082015250565b60006131a960288361313c565b91506131b48261314d565b604082019050919050565b600060208201905081810360008301526131d88161319c565b9050919050565b7f416c72656164792066756c66696c6c6564000000000000000000000000000000600082015250565b600061321560118361313c565b9150613220826131df565b602082019050919050565b6000602082019050818103600083015261324481613208565b9050919050565b7f47616d65204e6f7420466f756e64000000000000000000000000000000000000600082015250565b6000613281600e8361313c565b915061328c8261324b565b602082019050919050565b600060208201905081810360008301526132b081613274565b9050919050565b600081519050919050565b60005b838110156132e05780820151818401526020810190506132c5565b60008484015250505050565b60006132f7826132b7565b613301818561313c565b93506133118185602086016132c2565b61331a8161274d565b840191505092915050565b600060408201905061333a6000830185612e42565b818103602083015261334c81846132ec565b90509392505050565b7f496e76616c696420706c616e0000000000000000000000000000000000000000600082015250565b600061338b600c8361313c565b915061339682613355565b602082019050919050565b600060208201905081810360008301526133ba8161337e565b9050919050565b7f496e73756666696369656e742066756e64730000000000000000000000000000600082015250565b60006133f760128361313c565b9150613402826133c1565b602082019050919050565b60006020820190508181036000830152613426816133ea565b9050919050565b7f4e487b7100000000000000000000000000000000000000000000000000000000600052602260045260246000fd5b6000600282049050600182168061347457607f821691505b6020821081036134875761348661342d565b5b50919050565b60008190508160005260206000209050919050565b60006020601f8301049050919050565b600082821b905092915050565b6000600883026134ef7fffffffffffffffffffffffffffffffffffffffffffffffffffffffffffffffff826134b2565b6134f986836134b2565b95508019841693508086168417925050509392505050565b6000819050919050565b600061353661353161352c8461294d565b613511565b61294d565b9050919050565b6000819050919050565b6135508361351b565b61356461355c8261353d565b8484546134bf565b825550505050565b600090565b61357961356c565b613584818484613547565b505050565b5b818110156135a85761359d600082613571565b60018101905061358a565b5050565b601f8211156135ed576135be8161348d565b6135c7846134a2565b810160208510156135d6578190505b6135ea6135e2856134a2565b830182613589565b50505b505050565b600082821c905092915050565b6000613610600019846008026135f2565b1980831691505092915050565b600061362983836135ff565b9150826002028217905092915050565b613642826132b7565b67ffffffffffffffff81111561365b5761365a61275e565b5b613665825461345c565b6136708282856135ac565b600060209050601f8311600181146136a35760008415613691578287015190505b61369b858261361d565b865550613703565b601f1984166136b18661348d565b60005b828110156136d9578489015182556001820191506020850194506020810190506136b4565b868310156136f657848901516136f2601f8916826135ff565b8355505b6001600288020188555050505b505050505050565b600061010082019050613721600083018b612e42565b8181036020830152613733818a6132ec565b9050818103604083015261374781896132ec565b9050818103606083015261375b81886132ec565b905061376a6080830187612b79565b61377760a0830186612e42565b81810360c083015261378981856132ec565b905081810360e083015261379d81846132ec565b90509998505050505050505050565b600067ffffffffffffffff8211156137c7576137c661275e565b5b602082029050602081019050919050565b6000604082840312156137ee576137ed6128e5565b5b6137f860406127be565b9050600061380884828501612938565b600083015250602061381c8482850161296e565b60208301525092915050565b600061383b613836846137ac565b6127be565b9050808382526020820190506040840283018581111561385e5761385d612f7d565b5b835b81811015613887578061387388826137d8565b845260208401935050604081019050613860565b5050509392505050565b600082601f8301126138a6576138a5612743565b5b81356138b6848260208601613828565b91505092915050565b600060a082840312156138d5576138d46128e5565b5b6138df60a06127be565b905060006138ef8482850161272e565b600083015250602061390384828501612cc7565b602083015250604082013567ffffffffffffffff811115613927576139266128ea565b5b61393384828501612d4f565b604083015250606082013567ffffffffffffffff811115613957576139566128ea565b5b61396384828501612d4f565b606083015250608082013567ffffffffffffffff811115613987576139866128ea565b5b61399384828501613891565b60808301525092915050565b60006139ab36836138bf565b9050919050565b7f4e487b7100000000000000000000000000000000000000000000000000000000600052601160045260246000fd5b60006139ec8261294d565b91507fffffffffffffffffffffffffffffffffffffffffffffffffffffffffffffffff8203613a1e57613a1d6139b2565b5b600182019050919050565b600060a082019050613a3e6000830188612b79565b8181036020830152613a5081876132ec565b9050613a5f6040830186612b79565b8181036060830152613a7181856132ec565b9050613a806080830184612b79565b9695505050505050565b600081519050919050565b600082825260208201905092915050565b6000613ab182613a8a565b613abb8185613a95565b9350613acb8185602086016132c2565b613ad48161274d565b840191505092915050565b600060a082019050613af46000830188612e42565b613b016020830187612e42565b613b0e6040830186612b79565b8181036060830152613b2081856132ec565b90508181036080830152613b348184613aa6565b90509695505050505050565b613b4981612c9c565b82525050565b600082825260208201905092915050565b6000613b6b82613a8a565b613b758185613b4f565b9350613b858185602086016132c2565b613b8e8161274d565b840191505092915050565b600081519050919050565b600082825260208201905092915050565b6000819050602082019050919050565b613bce8161290f565b82525050565b613bdd8161294d565b82525050565b604082016000820151613bf96000850182613bc5565b506020820151613c0c6020850182613bd4565b50505050565b6000613c1e8383613be3565b60408301905092915050565b6000602082019050919050565b6000613c4282613b99565b613c4c8185613ba4565b9350613c5783613bb5565b8060005b83811015613c88578151613c6f8882613c12565b9750613c7a83613c2a565b925050600181019050613c5b565b5085935050505092915050565b600060a0830160008301518482036000860152613cb28282613b60565b91505060208301518482036020860152613ccc8282613b60565b91505060408301518482036040860152613ce68282613c37565b9150506060830151613cfb6060860182613bc5565b5060808301518482036080860152613d138282613b60565b9150508091505092915050565b6000604082019050613d356000830185613b40565b8181036020830152613d478184613c95565b90509392505050565b600081519050613d5f81612957565b92915050565b600060208284031215613d7b57613d7a612648565b5b6000613d8984828501613d50565b91505092915050565b7f496e73756666696369656e742066656500000000000000000000000000000000600082015250565b6000613dc860108361313c565b9150613dd382613d92565b602082019050919050565b60006020820190508181036000830152613df781613dbb565b9050919050565b600081519050613e0d81612717565b92915050565b600060208284031215613e2957613e28612648565b5b6000613e3784828501613dfe565b91505092915050565b6000604082019050613e556000830185612e42565b613e626020830184612b79565b9392505050565b613e72816126d7565b8114613e7d57600080fd5b50565b600081519050613e8f81613e69565b92915050565b600060208284031215613eab57613eaa612648565b5b6000613eb984828501613e80565b91505092915050565b7f556e417574686f72697a65640000000000000000000000000000000000000000600082015250565b6000613ef8600c8361313c565b9150613f0382613ec2565b602082019050919050565b60006020820190508181036000830152613f2781613eeb565b9050919050565b7f546f6f206d616e79206174747269627574657300000000000000000000000000600082015250565b6000613f6460138361313c565b9150613f6f82613f2e565b602082019050919050565b60006020820190508181036000830152613f9381613f57565b9050919050565b600081519050919050565b600082825260208201905092915050565b6000819050602082019050919050565b600082825260208201905092915050565b6000613fe2826132b7565b613fec8185613fc6565b9350613ffc8185602086016132c2565b6140058161274d565b840191505092915050565b600061401c8383613fd7565b905092915050565b6000602082019050919050565b600061403c82613f9a565b6140468185613fa5565b93508360208202850161405885613fb6565b8060005b8581101561409457848403895281516140758582614010565b945061408083614024565b925060208a0199505060018101905061405c565b50829750879550505050505092915050565b600082825260208201905092915050565b7f2c00000000000000000000000000000000000000000000000000000000000000600082015250565b60006140ed6001836140a6565b91506140f8826140b7565b602082019050919050565b6000604082019050818103600083015261411d8184614031565b90508181036020830152614130816140e0565b905092915050565b600061414b614146846127d9565b6127be565b90508281526020810184848401111561416757614166612748565b5b6141728482856132c2565b509392505050565b600082601f83011261418f5761418e612743565b5b815161419f848260208601614138565b91505092915050565b6000602082840312156141be576141bd612648565b5b600082015167ffffffffffffffff8111156141dc576141db61264d565b5b6141e88482850161417a565b91505092915050565b600081905092915050565b600081546142098161345c565b61421381866141f1565b9450600182166000811461422e576001811461424357614276565b60ff1983168652811515820286019350614276565b61424c8561348d565b60005b8381101561426e5781548189015260018201915060208101905061424f565b838801955050505b50505092915050565b7f2f00000000000000000000000000000000000000000000000000000000000000815250565b60006142b0826132b7565b6142ba81856141f1565b93506142ca8185602086016132c2565b80840191505092915050565b60006142e282896141fc565b91506142ed8261427f565b6001820191506142fd82886142a5565b91506143088261427f565b60018201915061431882876142a5565b91506143238261427f565b60018201915061433382866142a5565b915061433e8261427f565b60018201915061434e82856142a5565b91506143598261427f565b60018201915061436982846142a5565b9150819050979650505050505050565b7f4f776e61626c653a206e6577206f776e657220697320746865207a65726f206160008201527f6464726573730000000000000000000000000000000000000000000000000000602082015250565b60006143d560268361313c565b91506143e082614379565b604082019050919050565b60006020820190508181036000830152614404816143c8565b9050919050565b7f4f776e61626c653a2063616c6c6572206973206e6f7420746865206f776e6572600082015250565b600061444160208361313c565b915061444c8261440b565b602082019050919050565b6000602082019050818103600083015261447081614434565b9050919050565b6000614482826128ef565b9050919050565b61449281614477565b811461449d57600080fd5b50565b6000815190506144af81614489565b92915050565b60006144c86144c384612cdc565b6127be565b9050828152602081018484840111156144e4576144e3612748565b5b6144ef8482856132c2565b509392505050565b600082601f83011261450c5761450b612743565b5b815161451c8482602086016144b5565b91505092915050565b600080600080600060a0868803121561454157614540612648565b5b600061454f888289016144a0565b9550506020614560888289016144a0565b945050604061457188828901613d50565b935050606086015167ffffffffffffffff8111156145925761459161264d565b5b61459e8882890161417a565b925050608086015167ffffffffffffffff8111156145bf576145be61264d565b5b6145cb888289016144f7565b9150509295509295909350565b600060c0820190506145ed6000830189613b40565b6145fa6020830188612e42565b6146076040830187612e42565b6146146060830186612b79565b818103608083015261462681856132ec565b905081810360a083015261463a8184613aa6565b9050979650505050505050565b614650816126d7565b82525050565b60408201600082015161466c6000850182613bd4565b50602082015161467f6020850182614647565b50505050565b600060408201905061469a6000830184614656565b92915050565b7f4e487b7100000000000000000000000000000000000000000000000000000000600052601260045260246000fd5b60006146da8261294d565b91506146e58361294d565b92508282026146f38161294d565b9150828204841483151761470a576147096139b2565b5b5092915050565b600061471c8261294d565b91506147278361294d565b925082820190508082111561473f5761473e6139b2565b5b92915050565b7f4e487b7100000000000000000000000000000000000000000000000000000000600052603260045260246000fd5b600061477f8261294d565b915060008203614792576147916139b2565b5b600182039050919050565b7f537472696e67733a20686578206c656e67746820696e73756666696369656e74600082015250565b60006147d360208361313c565b91506147de8261479d565b602082019050919050565b60006020820190508181036000830152614802816147c6565b9050919050565b6148128161270d565b82525050565b61482181612652565b82525050565b60006101008201905061483d600083018b612e42565b61484a602083018a612b79565b6148576040830189614809565b6148646060830188612e42565b6148716080830187614818565b61487e60a0830186612b79565b61488b60c0830185612b79565b81810360e083015261489d8184613aa6565b90509998505050505050505050565b60006148b78261294d565b91506148c28361294d565b9250826148d2576148d16146a0565b5b828206905092915050565b60006148e88261294d565b91506148f38361294d565b925082820390508181111561490b5761490a6139b2565b5b92915050565b600061492c614927614922846128ef565b613511565b6128ef565b9050919050565b600061493e82614911565b9050919050565b600061495082614933565b9050919050565b60008160601b9050919050565b600061496f82614957565b9050919050565b600061498182614964565b9050919050565b61499961499482614945565b614976565b82525050565b6000819050919050565b6149ba6149b58261294d565b61499f565b82525050565b60006149cc8285614988565b6014820191506149dc82846149a9565b6020820191508190509392505050565b6000606082019050614a016000830186612e42565b614a0e6020830185612b79565b8181036040830152614a208184613aa6565b9050949350505050565b7f756e61626c6520746f207472616e73666572416e6443616c6c20746f206f726160008201527f636c650000000000000000000000000000000000000000000000000000000000602082015250565b6000614a8660238361313c565b9150614a9182614a2a565b604082019050919050565b60006020820190508181036000830152614ab581614a79565b9050919050565b60008160011c9050919050565b6000808291508390505b6001851115614b1357808604811115614aef57614aee6139b2565b5b6001851615614afe5780820291505b8081029050614b0c85614abc565b9450614ad3565b94509492505050565b600082614b2c5760019050614be8565b81614b3a5760009050614be8565b8160018114614b505760028114614b5a57614b89565b6001915050614be8565b60ff841115614b6c57614b6b6139b2565b5b8360020a915084821115614b8357614b826139b2565b5b50614be8565b5060208310610133831016604e8410600b8410161715614bbe5782820a905083811115614bb957614bb86139b2565b5b614be8565b614bcb8484846001614ac9565b92509050818404811115614be257614be16139b2565b5b81810290505b9392505050565b6000614bfa8261294d565b9150614c058361294d565b9250614c327fffffffffffffffffffffffffffffffffffffffffffffffffffffffffffffffff8484614b1c565b90509291505056fea2646970667358221220a8cb9eb50820ee5b2ec61e46f966beef1c609be9211dda1a59db444d1b880dcf64736f6c63430008110033",
  "immutableReferences": {
    "14": [
      {
        "length": 32,
        "start": 2580
      },
      {
        "length": 32,
        "start": 4174
      }
    ]
  },
  "source": "// SPDX-License-Identifier: MIT\r\npragma solidity ^0.8.17;\r\n\r\nimport {Assets} from \"./libraries/Assets.sol\";\r\nimport {Params} from \"./libraries/Params.sol\";\r\nimport {IKanvasAvax} from \"./interfaces/IKanvasAvax.sol\";\r\nimport {IKanvasGame} from \"./interfaces/IKanvasGame.sol\";\r\nimport {IKanvasInteropGame} from \"./interfaces/IKanvasInteropGame.sol\";\r\nimport {StringJoiner} from \"./libraries/StringJoiner.sol\";\r\n\r\nimport {Strings} from \"@openzeppelin/contracts/utils/Strings.sol\";\r\nimport {Ownable} from \"@openzeppelin/contracts/access/Ownable.sol\";\r\nimport {Context} from \"@openzeppelin/contracts/utils/Context.sol\";\r\n\r\nimport {CCIPReceiver} from \"@chainlink/contracts-ccip/src/v0.8/ccip/applications/CCIPReceiver.sol\";\r\nimport {IRouterClient} from \"@chainlink/contracts-ccip/src/v0.8/ccip/interfaces/IRouterClient.sol\";\r\nimport {Client} from \"@chainlink/contracts-ccip/src/v0.8/ccip/libraries/Client.sol\";\r\nimport {ChainlinkClient, Chainlink, LinkTokenInterface} from \"@chainlink/contracts/src/v0.8/ChainlinkClient.sol\";\r\n\r\ncontract KanvasAvax is\r\n    IKanvasAvax,\r\n    Context,\r\n    CCIPReceiver,\r\n    ChainlinkClient,\r\n    Ownable\r\n{\r\n    uint64 private constant AVAX_SELECTOR = 14767482510784806043;\r\n    uint256 public constant MAX_PROPERTIES_LEN = 20;\r\n    uint256 public constant MAX_TEMPLATES_LEN = 5;\r\n    using Chainlink for Chainlink.Request;\r\n\r\n    string private BASE_URL = \"\";\r\n\r\n    bytes32 private jobId;\r\n    uint256 private fee;\r\n\r\n    uint256 private _planId;\r\n    mapping(uint256 => Assets.Plan) private _plans;\r\n\r\n    mapping(address => Assets.Game) private _games;\r\n\r\n    mapping(bytes32 => Assets.Request) private _requests;\r\n\r\n    mapping(uint64 => address) private _interops;\r\n\r\n    IRouterClient private _router;\r\n\r\n    constructor(address receiver) CCIPReceiver(receiver) Ownable() {\r\n        setChainlinkToken(0x0b9d5D9136855f6FEc3c0993feE6E9CE8a297846);\r\n        setChainlinkOracle(0x022EEA14A6010167ca026B32576D6686dD7e85d2);\r\n        jobId = \"7d80a6386ef543a3abb52817f6707e3b\";\r\n        fee = (1 * LINK_DIVISIBILITY) / 10;\r\n\r\n        _router = IRouterClient(getRouter());\r\n    }\r\n\r\n    function createGame(Params.Game memory params) external payable {\r\n        require(_plans[params.plan].limit != 0, \"Invalid plan\");\r\n        require(msg.value == _plans[params.plan].cost, \"Insufficient funds\");\r\n\r\n        _games[params.gameId] = Assets.Game({\r\n            name: params.name,\r\n            description: params.description,\r\n            avatar: params.avatar,\r\n            plan: params.plan,\r\n            creator: _msgSender()\r\n        });\r\n\r\n        emit GameCreated(\r\n            params.gameId,\r\n            params.name,\r\n            params.description,\r\n            params.avatar,\r\n            params.plan,\r\n            _msgSender(),\r\n            params.email,\r\n            params.website\r\n        );\r\n    }\r\n\r\n    function addTemplate(string memory params, address gameId) external {\r\n        address creator = _msgSender();\r\n\r\n        Assets.Game storage game = _games[gameId];\r\n\r\n        require(game.creator == creator, \"UnAuthorized\");\r\n\r\n        emit TemplateAdded(gameId, params);\r\n    }\r\n\r\n    function _generateUri(\r\n        address playerId,\r\n        string[] memory properties,\r\n        string memory fields,\r\n        uint8 templateId\r\n    ) external override {\r\n        require(properties.length <= MAX_PROPERTIES_LEN, \"Too many attributes\");\r\n\r\n        address gameId = _msgSender();\r\n        require(_games[gameId].creator != address(0), \"Game Not Found\");\r\n\r\n        Chainlink.Request memory req = buildChainlinkRequest(\r\n            jobId,\r\n            address(this),\r\n            this.fulfill.selector\r\n        );\r\n\r\n        // Set the URL to perform the GET request on\r\n        // https://server.com/generete/properties/fields/gameid/playerid\r\n        req.add(\r\n            \"get\",\r\n            string.concat(\r\n                BASE_URL,\r\n                \"/\",\r\n                StringJoiner.joinStrings(properties, \",\"),\r\n                \"/\",\r\n                fields,\r\n                \"/\",\r\n                Strings.toHexString(gameId),\r\n                \"/\",\r\n                Strings.toHexString(playerId),\r\n                \"/\",\r\n                Strings.toString(templateId)\r\n            )\r\n        );\r\n\r\n        // Chainlink nodes 1.0.0 and later support this format\r\n        req.add(\"path\", \"uri\");\r\n\r\n        // Sends the request\r\n        bytes32 requestId = sendChainlinkRequest(req, fee);\r\n\r\n        _requests[requestId] = Assets.Request({\r\n            gameId: gameId,\r\n            playerId: playerId,\r\n            fulfilled: false\r\n        });\r\n    }\r\n\r\n    function updateBaseUrl(string memory newBaseUrl) external onlyOwner {\r\n        BASE_URL = newBaseUrl;\r\n    }\r\n\r\n    function updateInterop(\r\n        uint64 chainSelector,\r\n        address kanvasRouter\r\n    ) external onlyOwner {\r\n        _interops[chainSelector] = kanvasRouter;\r\n    }\r\n\r\n    /** Receive the response in the form of string  */\r\n    function fulfill(\r\n        bytes32 requestId,\r\n        string memory uri\r\n    ) public recordChainlinkFulfillment(requestId) {\r\n        Assets.Request storage request = _requests[requestId];\r\n        require(!request.fulfilled, \"Already fulfilled\");\r\n\r\n        request.fulfilled = true;\r\n\r\n        require(_games[request.gameId].creator != address(0), \"Game Not Found\");\r\n\r\n        IKanvasGame game = IKanvasGame(request.gameId);\r\n        game._receiveUri(request.playerId, uri);\r\n    }\r\n\r\n    /** Allow withdraw of Link tokens from the contract */\r\n    function withdrawLink() public onlyOwner {\r\n        LinkTokenInterface link = LinkTokenInterface(chainlinkTokenAddress());\r\n        link.transfer(msg.sender, link.balanceOf(address(this)));\r\n    }\r\n\r\n    function _transferTo(\r\n        uint64 chainSelector,\r\n        address gameId,\r\n        address playerId,\r\n        uint256 tokenId,\r\n        string memory uri,\r\n        bytes memory data\r\n    ) external payable {\r\n        // Create an EVM2AnyMessage struct in memory with necessary information for sending a cross-chain message\r\n        Client.EVM2AnyMessage memory evm2AnyMessage = Client.EVM2AnyMessage({\r\n            // ABI-encoded receiver address\r\n            receiver: abi.encode(_interops[chainSelector]),\r\n            // ABI-encoded string message\r\n            data: abi.encode(gameId, playerId, tokenId, uri, data),\r\n            // Empty array indicating no tokens are being sent\r\n            tokenAmounts: new Client.EVMTokenAmount[](0),\r\n            // Additional arguments, setting gas limit and non-strict sequency mode\r\n            extraArgs: Client._argsToBytes(\r\n                Client.EVMExtraArgsV1({gasLimit: 400_000, strict: false})\r\n            ),\r\n            // Setting feeToken to zero address, indicating native asset will be used for fees\r\n            feeToken: address(0)\r\n        });\r\n\r\n        // Get the fee required to send the message\r\n        uint256 fees = _router.getFee(AVAX_SELECTOR, evm2AnyMessage);\r\n\r\n        require(msg.value >= fees, \"Insufficient fee\");\r\n\r\n        // Send the message through the router and store the returned message ID\r\n        _router.ccipSend{value: fees}(AVAX_SELECTOR, evm2AnyMessage);\r\n    }\r\n\r\n    // handle a received message\r\n    function _ccipReceive(\r\n        Client.Any2EVMMessage memory message\r\n    ) internal override {\r\n        (\r\n            address gameId,\r\n            address playerId,\r\n            uint256 tokenId,\r\n            string memory uri,\r\n            bytes memory data\r\n        ) = abi.decode(\r\n                message.data,\r\n                (address, address, uint256, string, bytes)\r\n            );\r\n\r\n        IKanvasInteropGame game = IKanvasInteropGame(gameId);\r\n        game._receiveFrom(\r\n            message.sourceChainSelector,\r\n            gameId,\r\n            playerId,\r\n            tokenId,\r\n            uri,\r\n            data\r\n        );\r\n    }\r\n\r\n    /** Create plans */\r\n    function createPlan(Params.Plan memory params) external onlyOwner {\r\n        _planId++;\r\n\r\n        _plans[_planId] = Assets.Plan({\r\n            name: params.name,\r\n            cost: params.cost,\r\n            color: params.color,\r\n            limit: params.limit\r\n        });\r\n\r\n        emit PlanCreated(\r\n            _planId,\r\n            params.name,\r\n            params.cost,\r\n            params.color,\r\n            params.limit\r\n        );\r\n    }\r\n}\r\n",
  "sourcePath": "C:\\Users\\DELL\\Documents\\kanvas\\blockchain\\contracts\\KanvasAvax.sol",
  "compiler": {
    "name": "solc",
    "version": "0.8.17+commit.8df45f5f.Emscripten.clang"
  },
  "schemaVersion": "3.4.11",
  "updatedAt": "2023-12-02T17:08:29.692Z",
  "devdoc": {
    "kind": "dev",
    "methods": {
      "ccipReceive((bytes32,uint64,bytes,bytes,(address,uint256)[]))": {
        "details": "Note ensure you check the msg.sender is the OffRampRouter",
        "params": {
          "message": "CCIP Message"
        }
      },
      "getRouter()": {
        "returns": {
          "_0": "i_router address"
        }
      },
      "owner()": {
        "details": "Returns the address of the current owner."
      },
      "renounceOwnership()": {
        "details": "Leaves the contract without owner. It will not be possible to call `onlyOwner` functions. Can only be called by the current owner. NOTE: Renouncing ownership will leave the contract without an owner, thereby disabling any functionality that is only available to the owner."
      },
      "supportsInterface(bytes4)": {
        "params": {
          "interfaceId": "The interfaceId to check"
        },
        "returns": {
          "_0": "true if the interfaceId is supported"
        }
      },
      "transferOwnership(address)": {
        "details": "Transfers ownership of the contract to a new account (`newOwner`). Can only be called by the current owner."
      }
    },
    "version": 1
  },
  "userdoc": {
    "kind": "user",
    "methods": {
      "ccipReceive((bytes32,uint64,bytes,bytes,(address,uint256)[]))": {
        "notice": "Called by the Router to deliver a message. If this reverts, any token transfers also revert. The message will move to a FAILED state and become available for manual execution."
      },
      "createPlan((string,uint256,string,uint256))": {
        "notice": "Create plans "
      },
      "fulfill(bytes32,string)": {
        "notice": "Receive the response in the form of string  "
      },
      "getRouter()": {
        "notice": "Return the current router"
      },
      "supportsInterface(bytes4)": {
        "notice": "IERC165 supports an interfaceId"
      },
      "withdrawLink()": {
        "notice": "Allow withdraw of Link tokens from the contract "
      }
    },
    "version": 1
  }
}