{
  "contractName": "KanvasAvax",
  "abi": [
    {
      "inputs": [
        {
          "internalType": "address",
          "name": "receiver",
          "type": "address"
        }
      ],
      "stateMutability": "nonpayable",
      "type": "constructor"
    },
    {
      "inputs": [
        {
          "internalType": "address",
          "name": "router",
          "type": "address"
        }
      ],
      "name": "InvalidRouter",
      "type": "error"
    },
    {
      "anonymous": false,
      "inputs": [
        {
          "indexed": true,
          "internalType": "bytes32",
          "name": "id",
          "type": "bytes32"
        }
      ],
      "name": "ChainlinkCancelled",
      "type": "event"
    },
    {
      "anonymous": false,
      "inputs": [
        {
          "indexed": true,
          "internalType": "bytes32",
          "name": "id",
          "type": "bytes32"
        }
      ],
      "name": "ChainlinkFulfilled",
      "type": "event"
    },
    {
      "anonymous": false,
      "inputs": [
        {
          "indexed": true,
          "internalType": "bytes32",
          "name": "id",
          "type": "bytes32"
        }
      ],
      "name": "ChainlinkRequested",
      "type": "event"
    },
    {
      "anonymous": false,
      "inputs": [
        {
          "indexed": false,
          "internalType": "address",
          "name": "gameId",
          "type": "address"
        },
        {
          "indexed": false,
          "internalType": "string",
          "name": "name",
          "type": "string"
        },
        {
          "indexed": false,
          "internalType": "string",
          "name": "description",
          "type": "string"
        },
        {
          "indexed": false,
          "internalType": "string",
          "name": "avatar",
          "type": "string"
        },
        {
          "indexed": false,
          "internalType": "uint256",
          "name": "plan",
          "type": "uint256"
        },
        {
          "indexed": false,
          "internalType": "address",
          "name": "creator",
          "type": "address"
        },
        {
          "indexed": false,
          "internalType": "string",
          "name": "email",
          "type": "string"
        },
        {
          "indexed": false,
          "internalType": "string",
          "name": "website",
          "type": "string"
        }
      ],
      "name": "GameCreated",
      "type": "event"
    },
    {
      "anonymous": false,
      "inputs": [
        {
          "indexed": true,
          "internalType": "address",
          "name": "previousOwner",
          "type": "address"
        },
        {
          "indexed": true,
          "internalType": "address",
          "name": "newOwner",
          "type": "address"
        }
      ],
      "name": "OwnershipTransferred",
      "type": "event"
    },
    {
      "anonymous": false,
      "inputs": [
        {
          "indexed": false,
          "internalType": "uint256",
          "name": "planId",
          "type": "uint256"
        },
        {
          "indexed": false,
          "internalType": "string",
          "name": "name",
          "type": "string"
        },
        {
          "indexed": false,
          "internalType": "uint256",
          "name": "cost",
          "type": "uint256"
        },
        {
          "indexed": false,
          "internalType": "string",
          "name": "color",
          "type": "string"
        },
        {
          "indexed": false,
          "internalType": "uint256",
          "name": "limit",
          "type": "uint256"
        }
      ],
      "name": "PlanCreated",
      "type": "event"
    },
    {
      "anonymous": false,
      "inputs": [
        {
          "indexed": false,
          "internalType": "address",
          "name": "gameId",
          "type": "address"
        },
        {
          "indexed": false,
          "internalType": "string",
          "name": "template",
          "type": "string"
        }
      ],
      "name": "TemplateAdded",
      "type": "event"
    },
    {
      "inputs": [],
      "name": "MAX_PROPERTIES_LEN",
      "outputs": [
        {
          "internalType": "uint256",
          "name": "",
          "type": "uint256"
        }
      ],
      "stateMutability": "view",
      "type": "function"
    },
    {
      "inputs": [],
      "name": "MAX_TEMPLATES_LEN",
      "outputs": [
        {
          "internalType": "uint256",
          "name": "",
          "type": "uint256"
        }
      ],
      "stateMutability": "view",
      "type": "function"
    },
    {
      "inputs": [
        {
          "components": [
            {
              "internalType": "bytes32",
              "name": "messageId",
              "type": "bytes32"
            },
            {
              "internalType": "uint64",
              "name": "sourceChainSelector",
              "type": "uint64"
            },
            {
              "internalType": "bytes",
              "name": "sender",
              "type": "bytes"
            },
            {
              "internalType": "bytes",
              "name": "data",
              "type": "bytes"
            },
            {
              "components": [
                {
                  "internalType": "address",
                  "name": "token",
                  "type": "address"
                },
                {
                  "internalType": "uint256",
                  "name": "amount",
                  "type": "uint256"
                }
              ],
              "internalType": "struct Client.EVMTokenAmount[]",
              "name": "destTokenAmounts",
              "type": "tuple[]"
            }
          ],
          "internalType": "struct Client.Any2EVMMessage",
          "name": "message",
          "type": "tuple"
        }
      ],
      "name": "ccipReceive",
      "outputs": [],
      "stateMutability": "nonpayable",
      "type": "function"
    },
    {
      "inputs": [],
      "name": "getRouter",
      "outputs": [
        {
          "internalType": "address",
          "name": "",
          "type": "address"
        }
      ],
      "stateMutability": "view",
      "type": "function"
    },
    {
      "inputs": [],
      "name": "owner",
      "outputs": [
        {
          "internalType": "address",
          "name": "",
          "type": "address"
        }
      ],
      "stateMutability": "view",
      "type": "function"
    },
    {
      "inputs": [],
      "name": "renounceOwnership",
      "outputs": [],
      "stateMutability": "nonpayable",
      "type": "function"
    },
    {
      "inputs": [
        {
          "internalType": "bytes4",
          "name": "interfaceId",
          "type": "bytes4"
        }
      ],
      "name": "supportsInterface",
      "outputs": [
        {
          "internalType": "bool",
          "name": "",
          "type": "bool"
        }
      ],
      "stateMutability": "pure",
      "type": "function"
    },
    {
      "inputs": [
        {
          "internalType": "address",
          "name": "newOwner",
          "type": "address"
        }
      ],
      "name": "transferOwnership",
      "outputs": [],
      "stateMutability": "nonpayable",
      "type": "function"
    },
    {
      "inputs": [
        {
          "components": [
            {
              "internalType": "string",
              "name": "name",
              "type": "string"
            },
            {
              "internalType": "string",
              "name": "description",
              "type": "string"
            },
            {
              "internalType": "address",
              "name": "gameId",
              "type": "address"
            },
            {
              "internalType": "string",
              "name": "avatar",
              "type": "string"
            },
            {
              "internalType": "uint256",
              "name": "plan",
              "type": "uint256"
            },
            {
              "internalType": "string",
              "name": "email",
              "type": "string"
            },
            {
              "internalType": "string",
              "name": "website",
              "type": "string"
            }
          ],
          "internalType": "struct Params.Game",
          "name": "params",
          "type": "tuple"
        }
      ],
      "name": "createGame",
      "outputs": [],
      "stateMutability": "payable",
      "type": "function"
    },
    {
      "inputs": [
        {
          "internalType": "string",
          "name": "params",
          "type": "string"
        },
        {
          "internalType": "address",
          "name": "gameId",
          "type": "address"
        }
      ],
      "name": "addTemplate",
      "outputs": [],
      "stateMutability": "nonpayable",
      "type": "function"
    },
    {
      "inputs": [
        {
          "internalType": "address",
          "name": "playerId",
          "type": "address"
        },
        {
          "internalType": "string[]",
          "name": "properties",
          "type": "string[]"
        },
        {
          "internalType": "string",
          "name": "fields",
          "type": "string"
        }
      ],
      "name": "_generateUri",
      "outputs": [],
      "stateMutability": "nonpayable",
      "type": "function"
    },
    {
      "inputs": [
        {
          "internalType": "string",
          "name": "newBaseUrl",
          "type": "string"
        }
      ],
      "name": "updateBaseUrl",
      "outputs": [],
      "stateMutability": "nonpayable",
      "type": "function"
    },
    {
      "inputs": [
        {
          "internalType": "uint64",
          "name": "chainSelector",
          "type": "uint64"
        },
        {
          "internalType": "address",
          "name": "kanvasRouter",
          "type": "address"
        }
      ],
      "name": "updateInterop",
      "outputs": [],
      "stateMutability": "nonpayable",
      "type": "function"
    },
    {
      "inputs": [
        {
          "internalType": "bytes32",
          "name": "requestId",
          "type": "bytes32"
        },
        {
          "internalType": "string",
          "name": "uri",
          "type": "string"
        }
      ],
      "name": "fulfill",
      "outputs": [],
      "stateMutability": "nonpayable",
      "type": "function"
    },
    {
      "inputs": [],
      "name": "withdrawLink",
      "outputs": [],
      "stateMutability": "nonpayable",
      "type": "function"
    },
    {
      "inputs": [
        {
          "internalType": "uint64",
          "name": "chainSelector",
          "type": "uint64"
        },
        {
          "internalType": "address",
          "name": "gameId",
          "type": "address"
        },
        {
          "internalType": "address",
          "name": "playerId",
          "type": "address"
        },
        {
          "internalType": "uint256",
          "name": "tokenId",
          "type": "uint256"
        },
        {
          "internalType": "string",
          "name": "uri",
          "type": "string"
        },
        {
          "internalType": "bytes",
          "name": "data",
          "type": "bytes"
        }
      ],
      "name": "_transferTo",
      "outputs": [],
      "stateMutability": "payable",
      "type": "function"
    },
    {
      "inputs": [
        {
          "components": [
            {
              "internalType": "string",
              "name": "name",
              "type": "string"
            },
            {
              "internalType": "uint256",
              "name": "cost",
              "type": "uint256"
            },
            {
              "internalType": "string",
              "name": "color",
              "type": "string"
            },
            {
              "internalType": "uint256",
              "name": "limit",
              "type": "uint256"
            }
          ],
          "internalType": "struct Params.Plan",
          "name": "params",
          "type": "tuple"
        }
      ],
      "name": "createPlan",
      "outputs": [],
      "stateMutability": "nonpayable",
      "type": "function"
    }
  ],
  "bytecode": "0x60a060405260016004556040518060200160405280600081525060079081620000299190620005f5565b503480156200003757600080fd5b50604051620052823803806200528283398181016040528101906200005d919062000746565b80600073ffffffffffffffffffffffffffffffffffffffff168173ffffffffffffffffffffffffffffffffffffffff1603620000d35760006040517fd7f73334000000000000000000000000000000000000000000000000000000008152600401620000ca919062000789565b60405180910390fd5b8073ffffffffffffffffffffffffffffffffffffffff1660808173ffffffffffffffffffffffffffffffffffffffff168152505050620001286200011c6200021b60201b60201c565b6200022360201b60201c565b6200014d730b9d5d9136855f6fec3c0993fee6e9ce8a297846620002e960201b60201c565b6200017273022eea14a6010167ca026b32576d6686dd7e85d26200032d60201b60201c565b7f3764383061363338366566353433613361626235323831376636373037653362600881905550600a670de0b6b3a76400006001620001b29190620007d5565b620001be91906200084f565b600981905550620001d46200037160201b60201c565b600f60006101000a81548173ffffffffffffffffffffffffffffffffffffffff021916908373ffffffffffffffffffffffffffffffffffffffff1602179055505062000887565b600033905090565b6000600660009054906101000a900473ffffffffffffffffffffffffffffffffffffffff16905081600660006101000a81548173ffffffffffffffffffffffffffffffffffffffff021916908373ffffffffffffffffffffffffffffffffffffffff1602179055508173ffffffffffffffffffffffffffffffffffffffff168173ffffffffffffffffffffffffffffffffffffffff167f8be0079c531659141344cd1fd0a4f28419497f9722a3daafe3b4186f6b6457e060405160405180910390a35050565b80600260006101000a81548173ffffffffffffffffffffffffffffffffffffffff021916908373ffffffffffffffffffffffffffffffffffffffff16021790555050565b80600360006101000a81548173ffffffffffffffffffffffffffffffffffffffff021916908373ffffffffffffffffffffffffffffffffffffffff16021790555050565b6000608051905090565b600081519050919050565b7f4e487b7100000000000000000000000000000000000000000000000000000000600052604160045260246000fd5b7f4e487b7100000000000000000000000000000000000000000000000000000000600052602260045260246000fd5b60006002820490506001821680620003fd57607f821691505b602082108103620004135762000412620003b5565b5b50919050565b60008190508160005260206000209050919050565b60006020601f8301049050919050565b600082821b905092915050565b6000600883026200047d7fffffffffffffffffffffffffffffffffffffffffffffffffffffffffffffffff826200043e565b6200048986836200043e565b95508019841693508086168417925050509392505050565b6000819050919050565b6000819050919050565b6000620004d6620004d0620004ca84620004a1565b620004ab565b620004a1565b9050919050565b6000819050919050565b620004f283620004b5565b6200050a6200050182620004dd565b8484546200044b565b825550505050565b600090565b6200052162000512565b6200052e818484620004e7565b505050565b5b8181101562000556576200054a60008262000517565b60018101905062000534565b5050565b601f821115620005a5576200056f8162000419565b6200057a846200042e565b810160208510156200058a578190505b620005a262000599856200042e565b83018262000533565b50505b505050565b600082821c905092915050565b6000620005ca60001984600802620005aa565b1980831691505092915050565b6000620005e58383620005b7565b9150826002028217905092915050565b62000600826200037b565b67ffffffffffffffff8111156200061c576200061b62000386565b5b620006288254620003e4565b620006358282856200055a565b600060209050601f8311600181146200066d576000841562000658578287015190505b620006648582620005d7565b865550620006d4565b601f1984166200067d8662000419565b60005b82811015620006a75784890151825560018201915060208501945060208101905062000680565b86831015620006c75784890151620006c3601f891682620005b7565b8355505b6001600288020188555050505b505050505050565b600080fd5b600073ffffffffffffffffffffffffffffffffffffffff82169050919050565b60006200070e82620006e1565b9050919050565b620007208162000701565b81146200072c57600080fd5b50565b600081519050620007408162000715565b92915050565b6000602082840312156200075f576200075e620006dc565b5b60006200076f848285016200072f565b91505092915050565b620007838162000701565b82525050565b6000602082019050620007a0600083018462000778565b92915050565b7f4e487b7100000000000000000000000000000000000000000000000000000000600052601160045260246000fd5b6000620007e282620004a1565b9150620007ef83620004a1565b9250828202620007ff81620004a1565b91508282048414831517620008195762000818620007a6565b5b5092915050565b7f4e487b7100000000000000000000000000000000000000000000000000000000600052601260045260246000fd5b60006200085c82620004a1565b91506200086983620004a1565b9250826200087c576200087b62000820565b5b828204905092915050565b6080516149d8620008aa60003960008181610df1015261142b01526149d86000f3fe6080604052600436106100fe5760003560e01c80638d6dc0eb11610095578063b0f479a111610064578063b0f479a1146102c9578063dd3fac7c146102f4578063dff0ee411461031d578063ea21e5eb14610348578063f2fde38b14610371576100fe565b80638d6dc0eb146102425780638da5cb5b1461025e5780638dc654a21461028957806392154a3d146102a0576100fe565b806375948bb0116100d157806375948bb01461019c57806385572ffb146101c55780638b8ff358146101ee5780638cd176d514610219576100fe565b806301ffc9a71461010357806337441996146101405780635821feae14610169578063715018a614610185575b600080fd5b34801561010f57600080fd5b5061012a6004803603810190610125919061247b565b61039a565b60405161013791906124c3565b60405180910390f35b34801561014c57600080fd5b506101676004803603810190610162919061265a565b61046c565b005b610183600480360381019061017e9190612894565b6107ad565b005b34801561019157600080fd5b5061019a6109fe565b005b3480156101a857600080fd5b506101c360048036038101906101be91906129c3565b610a12565b005b3480156101d157600080fd5b506101ec60048036038101906101e79190612a72565b610def565b005b3480156101fa57600080fd5b50610203610e94565b6040516102109190612aca565b60405180910390f35b34801561022557600080fd5b50610240600480360381019061023b9190612b95565b610e99565b005b61025c60048036038101906102579190612cbf565b610f96565b005b34801561026a57600080fd5b5061027361127c565b6040516102809190612d93565b60405180910390f35b34801561029557600080fd5b5061029e6112a6565b005b3480156102ac57600080fd5b506102c760048036038101906102c29190612dae565b6113b5565b005b3480156102d557600080fd5b506102de611427565b6040516102eb9190612d93565b60405180910390f35b34801561030057600080fd5b5061031b60048036038101906103169190612dee565b61144f565b005b34801561032957600080fd5b5061033261156f565b60405161033f9190612aca565b60405180910390f35b34801561035457600080fd5b5061036f600480360381019061036a9190612e4a565b611574565b005b34801561037d57600080fd5b5061039860048036038101906103939190612e93565b61158f565b005b60007f85572ffb000000000000000000000000000000000000000000000000000000007bffffffffffffffffffffffffffffffffffffffffffffffffffffffff1916827bffffffffffffffffffffffffffffffffffffffffffffffffffffffff1916148061046557507f01ffc9a7000000000000000000000000000000000000000000000000000000007bffffffffffffffffffffffffffffffffffffffffffffffffffffffff1916827bffffffffffffffffffffffffffffffffffffffffffffffffffffffff1916145b9050919050565b816005600082815260200190815260200160002060009054906101000a900473ffffffffffffffffffffffffffffffffffffffff1673ffffffffffffffffffffffffffffffffffffffff163373ffffffffffffffffffffffffffffffffffffffff161461050e576040517f08c379a000000000000000000000000000000000000000000000000000000000815260040161050590612f43565b60405180910390fd5b6005600082815260200190815260200160002060006101000a81549073ffffffffffffffffffffffffffffffffffffffff0219169055807f7cc135e0cebb02c3480ae5d74d377283180a2601f8f644edf7987b009316c63a60405160405180910390a26000600d600085815260200190815260200160002090508060010160149054906101000a900460ff16156105da576040517f08c379a00000000000000000000000000000000000000000000000000000000081526004016105d190612faf565b60405180910390fd5b60018160010160146101000a81548160ff021916908315150217905550600073ffffffffffffffffffffffffffffffffffffffff16600c60008360000160009054906101000a900473ffffffffffffffffffffffffffffffffffffffff1673ffffffffffffffffffffffffffffffffffffffff1673ffffffffffffffffffffffffffffffffffffffff16815260200190815260200160002060040160009054906101000a900473ffffffffffffffffffffffffffffffffffffffff1673ffffffffffffffffffffffffffffffffffffffff16036106ec576040517f08c379a00000000000000000000000000000000000000000000000000000000081526004016106e39061301b565b60405180910390fd5b60008160000160009054906101000a900473ffffffffffffffffffffffffffffffffffffffff1690508073ffffffffffffffffffffffffffffffffffffffff16638f9c39568360010160009054906101000a900473ffffffffffffffffffffffffffffffffffffffff16866040518363ffffffff1660e01b81526004016107749291906130a9565b600060405180830381600087803b15801561078e57600080fd5b505af11580156107a2573d6000803e3d6000fd5b505050505050505050565b6000600b600083608001518152602001908152602001600020600301540361080a576040517f08c379a000000000000000000000000000000000000000000000000000000000815260040161080190613125565b60405180910390fd5b600b600082608001518152602001908152602001600020600101543414610866576040517f08c379a000000000000000000000000000000000000000000000000000000000815260040161085d90613191565b60405180910390fd5b6040518060a00160405280826000015181526020018260600151815260200182602001518152602001826080015181526020016108a1611612565b73ffffffffffffffffffffffffffffffffffffffff16815250600c6000836040015173ffffffffffffffffffffffffffffffffffffffff1673ffffffffffffffffffffffffffffffffffffffff168152602001908152602001600020600082015181600001908161091291906133bd565b50602082015181600101908161092891906133bd565b50604082015181600201908161093e91906133bd565b506060820151816003015560808201518160040160006101000a81548173ffffffffffffffffffffffffffffffffffffffff021916908373ffffffffffffffffffffffffffffffffffffffff1602179055509050507fea35bbd4aeddb611341e5394e07bd5ac7513bd56730a40e7e3e3eb761e155c05816040015182600001518360200151846060015185608001516109d5611612565b8760a001518860c001516040516109f398979695949392919061348f565b60405180910390a150565b610a0661161a565b610a106000611698565b565b601482511115610a57576040517f08c379a0000000000000000000000000000000000000000000000000000000008152600401610a4e9061357c565b60405180910390fd5b6000610a61611612565b9050600073ffffffffffffffffffffffffffffffffffffffff16600c60008373ffffffffffffffffffffffffffffffffffffffff1673ffffffffffffffffffffffffffffffffffffffff16815260200190815260200160002060040160009054906101000a900473ffffffffffffffffffffffffffffffffffffffff1673ffffffffffffffffffffffffffffffffffffffff1603610b34576040517f08c379a0000000000000000000000000000000000000000000000000000000008152600401610b2b9061301b565b60405180910390fd5b6000610b4a60085430633744199660e01b61175e565b9050610c4a6040518060400160405280600381526020017f6765740000000000000000000000000000000000000000000000000000000000815250600773__StringJoiner__________________________635c8656e0886040518263ffffffff1660e01b8152600401610bbe9190613705565b600060405180830381865af4158015610bdb573d6000803e3d6000fd5b505050506040513d6000823e3d601f19601f82011682018060405250810190610c0491906137aa565b86610c0e8761178f565b610c178b61178f565b604051602001610c2b9594939291906138d8565b604051602081830303815290604052836117bc9092919063ffffffff16565b610cc96040518060400160405280600481526020017f70617468000000000000000000000000000000000000000000000000000000008152506040518060400160405280600381526020017f7572690000000000000000000000000000000000000000000000000000000000815250836117bc9092919063ffffffff16565b6000610cd7826009546117ef565b905060405180606001604052808473ffffffffffffffffffffffffffffffffffffffff1681526020018773ffffffffffffffffffffffffffffffffffffffff16815260200160001515815250600d600083815260200190815260200160002060008201518160000160006101000a81548173ffffffffffffffffffffffffffffffffffffffff021916908373ffffffffffffffffffffffffffffffffffffffff16021790555060208201518160010160006101000a81548173ffffffffffffffffffffffffffffffffffffffff021916908373ffffffffffffffffffffffffffffffffffffffff16021790555060408201518160010160146101000a81548160ff021916908315150217905550905050505050505050565b7f000000000000000000000000000000000000000000000000000000000000000073ffffffffffffffffffffffffffffffffffffffff163373ffffffffffffffffffffffffffffffffffffffff1614610e7f57336040517fd7f73334000000000000000000000000000000000000000000000000000000008152600401610e769190612d93565b60405180910390fd5b610e9181610e8c90613b52565b611826565b50565b601481565b610ea161161a565b600a6000815480929190610eb490613b94565b919050555060405180608001604052808260000151815260200182602001518152602001826040015181526020018260600151815250600b6000600a5481526020019081526020016000206000820151816000019081610f1491906133bd565b50602082015181600101556040820151816002019081610f3491906133bd565b50606082015181600301559050507f33c5bd102a4d38690a8d7d236985d20c88e66b73bca9de5ae6cc29376d2206fd600a548260000151836020015184604001518560600151604051610f8b959493929190613bdc565b60405180910390a150565b60006040518060a00160405280600e60008a67ffffffffffffffff1667ffffffffffffffff16815260200190815260200160002060009054906101000a900473ffffffffffffffffffffffffffffffffffffffff16604051602001610ffb9190612d93565b60405160208183030381529060405281526020018787878787604051602001611028959493929190613c92565b6040516020818303038152906040528152602001600067ffffffffffffffff8111156110575761105661252f565b5b60405190808252806020026020018201604052801561109057816020015b61107d612358565b8152602001906001900390816110755790505b508152602001600073ffffffffffffffffffffffffffffffffffffffff1681526020016110d6604051806040016040528062061a808152602001600015158152506118d7565b81525090506000600f60009054906101000a900473ffffffffffffffffffffffffffffffffffffffff1673ffffffffffffffffffffffffffffffffffffffff166320487ded67ccf0a31a221f3c9b846040518363ffffffff1660e01b8152600401611142929190613ed3565b602060405180830381865afa15801561115f573d6000803e3d6000fd5b505050506040513d601f19601f820116820180604052508101906111839190613f18565b9050803410156111c8576040517f08c379a00000000000000000000000000000000000000000000000000000000081526004016111bf90613f91565b60405180910390fd5b600f60009054906101000a900473ffffffffffffffffffffffffffffffffffffffff1673ffffffffffffffffffffffffffffffffffffffff166396f4e9f98267ccf0a31a221f3c9b856040518463ffffffff1660e01b815260040161122e929190613ed3565b60206040518083038185885af115801561124c573d6000803e3d6000fd5b50505050506040513d601f19601f820116820180604052508101906112719190613fc6565b505050505050505050565b6000600660009054906101000a900473ffffffffffffffffffffffffffffffffffffffff16905090565b6112ae61161a565b60006112b8611956565b90508073ffffffffffffffffffffffffffffffffffffffff1663a9059cbb338373ffffffffffffffffffffffffffffffffffffffff166370a08231306040518263ffffffff1660e01b81526004016113109190612d93565b602060405180830381865afa15801561132d573d6000803e3d6000fd5b505050506040513d601f19601f820116820180604052508101906113519190613f18565b6040518363ffffffff1660e01b815260040161136e929190613ff3565b6020604051808303816000875af115801561138d573d6000803e3d6000fd5b505050506040513d601f19601f820116820180604052508101906113b19190614048565b5050565b6113bd61161a565b80600e60008467ffffffffffffffff1667ffffffffffffffff16815260200190815260200160002060006101000a81548173ffffffffffffffffffffffffffffffffffffffff021916908373ffffffffffffffffffffffffffffffffffffffff1602179055505050565b60007f0000000000000000000000000000000000000000000000000000000000000000905090565b6000611459611612565b90506000600c60008473ffffffffffffffffffffffffffffffffffffffff1673ffffffffffffffffffffffffffffffffffffffff16815260200190815260200160002090508173ffffffffffffffffffffffffffffffffffffffff168160040160009054906101000a900473ffffffffffffffffffffffffffffffffffffffff1673ffffffffffffffffffffffffffffffffffffffff1614611530576040517f08c379a0000000000000000000000000000000000000000000000000000000008152600401611527906140c1565b60405180910390fd5b7fd7219b2d0e6067644335c8f4f82ee77c59a90a22e2916f1dce8683af8e8b07fa83856040516115619291906130a9565b60405180910390a150505050565b600581565b61157c61161a565b806007908161158b91906133bd565b5050565b61159761161a565b600073ffffffffffffffffffffffffffffffffffffffff168173ffffffffffffffffffffffffffffffffffffffff1603611606576040517f08c379a00000000000000000000000000000000000000000000000000000000081526004016115fd90614153565b60405180910390fd5b61160f81611698565b50565b600033905090565b611622611612565b73ffffffffffffffffffffffffffffffffffffffff1661164061127c565b73ffffffffffffffffffffffffffffffffffffffff1614611696576040517f08c379a000000000000000000000000000000000000000000000000000000000815260040161168d906141bf565b60405180910390fd5b565b6000600660009054906101000a900473ffffffffffffffffffffffffffffffffffffffff16905081600660006101000a81548173ffffffffffffffffffffffffffffffffffffffff021916908373ffffffffffffffffffffffffffffffffffffffff1602179055508173ffffffffffffffffffffffffffffffffffffffff168173ffffffffffffffffffffffffffffffffffffffff167f8be0079c531659141344cd1fd0a4f28419497f9722a3daafe3b4186f6b6457e060405160405180910390a35050565b611766612388565b61176e612388565b61178585858584611980909392919063ffffffff16565b9150509392505050565b60606117b58273ffffffffffffffffffffffffffffffffffffffff16601460ff16611a30565b9050919050565b6117d3828460800151611c6c90919063ffffffff16565b6117ea818460800151611c6c90919063ffffffff16565b505050565b600061181e600360009054906101000a900473ffffffffffffffffffffffffffffffffffffffff168484611c91565b905092915050565b60008060008060008560600151806020019051810190611846919061428d565b9450945094509450945060008590508073ffffffffffffffffffffffffffffffffffffffff16636d4195fb886020015188888888886040518763ffffffff1660e01b815260040161189c96959493929190614340565b600060405180830381600087803b1580156118b657600080fd5b505af11580156118ca573d6000803e3d6000fd5b5050505050505050505050565b60606397a657c960e01b826040516024016118f291906143ed565b604051602081830303815290604052907bffffffffffffffffffffffffffffffffffffffffffffffffffffffff19166020820180517bffffffffffffffffffffffffffffffffffffffffffffffffffffffff83818316178352505050509050919050565b6000600260009054906101000a900473ffffffffffffffffffffffffffffffffffffffff16905090565b611988612388565b6119988560800151610100611d5d565b508385600001818152505082856020019073ffffffffffffffffffffffffffffffffffffffff16908173ffffffffffffffffffffffffffffffffffffffff16815250508185604001907bffffffffffffffffffffffffffffffffffffffffffffffffffffffff191690817bffffffffffffffffffffffffffffffffffffffffffffffffffffffff191681525050849050949350505050565b606060006002836002611a439190614408565b611a4d919061444a565b67ffffffffffffffff811115611a6657611a6561252f565b5b6040519080825280601f01601f191660200182016040528015611a985781602001600182028036833780820191505090505b5090507f300000000000000000000000000000000000000000000000000000000000000081600081518110611ad057611acf61447e565b5b60200101907effffffffffffffffffffffffffffffffffffffffffffffffffffffffffffff1916908160001a9053507f780000000000000000000000000000000000000000000000000000000000000081600181518110611b3457611b3361447e565b5b60200101907effffffffffffffffffffffffffffffffffffffffffffffffffffffffffffff1916908160001a90535060006001846002611b749190614408565b611b7e919061444a565b90505b6001811115611c1e577f3031323334353637383961626364656600000000000000000000000000000000600f861660108110611bc057611bbf61447e565b5b1a60f81b828281518110611bd757611bd661447e565b5b60200101907effffffffffffffffffffffffffffffffffffffffffffffffffffffffffffff1916908160001a905350600485901c945080611c17906144ad565b9050611b81565b5060008414611c62576040517f08c379a0000000000000000000000000000000000000000000000000000000008152600401611c5990614522565b60405180910390fd5b8091505092915050565b611c798260038351611dc7565b611c8c8183611f4c90919063ffffffff16565b505050565b6000806004549050600181611ca6919061444a565b6004819055506000634042994660e01b60008087600001513089604001518760018c6080015160000151604051602401611ce7989796959493929190614560565b604051602081830303815290604052907bffffffffffffffffffffffffffffffffffffffffffffffffffffffff19166020820180517bffffffffffffffffffffffffffffffffffffffffffffffffffffffff83818316178352505050509050611d5286838684611f6e565b925050509392505050565b611d656123f5565b6000602083611d749190614614565b14611da057602082611d869190614614565b6020611d929190614645565b82611d9d919061444a565b91505b81836020018181525050604051808452600081528281016020016040525082905092915050565b60178167ffffffffffffffff1611611dfe57611df88160058460ff16901b60ff16178461210390919063ffffffff16565b50611f47565b60ff8167ffffffffffffffff1611611e5457611e2d601860058460ff16901b178461210390919063ffffffff16565b50611e4e8167ffffffffffffffff166001856121239092919063ffffffff16565b50611f46565b61ffff8167ffffffffffffffff1611611eab57611e84601960058460ff16901b178461210390919063ffffffff16565b50611ea58167ffffffffffffffff166002856121239092919063ffffffff16565b50611f45565b63ffffffff8167ffffffffffffffff1611611f0457611edd601a60058460ff16901b178461210390919063ffffffff16565b50611efe8167ffffffffffffffff166004856121239092919063ffffffff16565b50611f44565b611f21601b60058460ff16901b178461210390919063ffffffff16565b50611f428167ffffffffffffffff166008856121239092919063ffffffff16565b505b5b5b5b505050565b611f546123f5565b611f6683846000015151848551612145565b905092915050565b60003084604051602001611f83929190614728565b604051602081830303815290604052805190602001209050846005600083815260200190815260200160002060006101000a81548173ffffffffffffffffffffffffffffffffffffffff021916908373ffffffffffffffffffffffffffffffffffffffff160217905550807fb5e6e01e79f91267dc17b4e6314d5d4d03593d2ceee0fbb452b750bd70ea5af960405160405180910390a2600260009054906101000a900473ffffffffffffffffffffffffffffffffffffffff1673ffffffffffffffffffffffffffffffffffffffff16634000aea08685856040518463ffffffff1660e01b815260040161207993929190614754565b6020604051808303816000875af1158015612098573d6000803e3d6000fd5b505050506040513d601f19601f820116820180604052508101906120bc9190614048565b6120fb576040517f08c379a00000000000000000000000000000000000000000000000000000000081526004016120f290614804565b60405180910390fd5b949350505050565b61210b6123f5565b61211b8384600001515184612234565b905092915050565b61212b6123f5565b61213c84856000015151858561228a565b90509392505050565b61214d6123f5565b825182111561215b57600080fd5b8460200151828561216c919061444a565b11156121a1576121a08560026121918860200151888761218c919061444a565b612318565b61219b9190614408565b612334565b5b6000808651805187602083010193508088870111156121c05787860182525b60208701925050505b6020841061220757805182526020826121e2919061444a565b91506020816121f1919061444a565b90506020846122009190614645565b93506121c9565b60006001856020036101000a03905080198251168184511681811785525050508692505050949350505050565b61223c6123f5565b8360200151831061226257612261846002866020015161225c9190614408565b612334565b5b8351805160208583010184815381860361227d576001820183525b5050508390509392505050565b6122926123f5565b846020015184836122a3919061444a565b11156122cb576122ca85600286856122bb919061444a565b6122c59190614408565b612334565b5b60006001836101006122dd9190614957565b6122e79190614645565b9050855183868201018583198251161781528151858801111561230a5784870182525b505085915050949350505050565b60008183111561232a5782905061232e565b8190505b92915050565b6000826000015190506123478383611d5d565b506123528382611f4c565b50505050565b6040518060400160405280600073ffffffffffffffffffffffffffffffffffffffff168152602001600081525090565b6040518060a0016040528060008019168152602001600073ffffffffffffffffffffffffffffffffffffffff16815260200160007bffffffffffffffffffffffffffffffffffffffffffffffffffffffff19168152602001600081526020016123ef6123f5565b81525090565b604051806040016040528060608152602001600081525090565b6000604051905090565b600080fd5b600080fd5b60007fffffffff0000000000000000000000000000000000000000000000000000000082169050919050565b61245881612423565b811461246357600080fd5b50565b6000813590506124758161244f565b92915050565b60006020828403121561249157612490612419565b5b600061249f84828501612466565b91505092915050565b60008115159050919050565b6124bd816124a8565b82525050565b60006020820190506124d860008301846124b4565b92915050565b6000819050919050565b6124f1816124de565b81146124fc57600080fd5b50565b60008135905061250e816124e8565b92915050565b600080fd5b600080fd5b6000601f19601f8301169050919050565b7f4e487b7100000000000000000000000000000000000000000000000000000000600052604160045260246000fd5b6125678261251e565b810181811067ffffffffffffffff821117156125865761258561252f565b5b80604052505050565b600061259961240f565b90506125a5828261255e565b919050565b600067ffffffffffffffff8211156125c5576125c461252f565b5b6125ce8261251e565b9050602081019050919050565b82818337600083830152505050565b60006125fd6125f8846125aa565b61258f565b90508281526020810184848401111561261957612618612519565b5b6126248482856125db565b509392505050565b600082601f83011261264157612640612514565b5b81356126518482602086016125ea565b91505092915050565b6000806040838503121561267157612670612419565b5b600061267f858286016124ff565b925050602083013567ffffffffffffffff8111156126a05761269f61241e565b5b6126ac8582860161262c565b9150509250929050565b600080fd5b600080fd5b600073ffffffffffffffffffffffffffffffffffffffff82169050919050565b60006126eb826126c0565b9050919050565b6126fb816126e0565b811461270657600080fd5b50565b600081359050612718816126f2565b92915050565b6000819050919050565b6127318161271e565b811461273c57600080fd5b50565b60008135905061274e81612728565b92915050565b600060e0828403121561276a576127696126b6565b5b61277460e061258f565b9050600082013567ffffffffffffffff811115612794576127936126bb565b5b6127a08482850161262c565b600083015250602082013567ffffffffffffffff8111156127c4576127c36126bb565b5b6127d08482850161262c565b60208301525060406127e484828501612709565b604083015250606082013567ffffffffffffffff811115612808576128076126bb565b5b6128148482850161262c565b60608301525060806128288482850161273f565b60808301525060a082013567ffffffffffffffff81111561284c5761284b6126bb565b5b6128588482850161262c565b60a08301525060c082013567ffffffffffffffff81111561287c5761287b6126bb565b5b6128888482850161262c565b60c08301525092915050565b6000602082840312156128aa576128a9612419565b5b600082013567ffffffffffffffff8111156128c8576128c761241e565b5b6128d484828501612754565b91505092915050565b600067ffffffffffffffff8211156128f8576128f761252f565b5b602082029050602081019050919050565b600080fd5b600061292161291c846128dd565b61258f565b9050808382526020820190506020840283018581111561294457612943612909565b5b835b8181101561298b57803567ffffffffffffffff81111561296957612968612514565b5b808601612976898261262c565b85526020850194505050602081019050612946565b5050509392505050565b600082601f8301126129aa576129a9612514565b5b81356129ba84826020860161290e565b91505092915050565b6000806000606084860312156129dc576129db612419565b5b60006129ea86828701612709565b935050602084013567ffffffffffffffff811115612a0b57612a0a61241e565b5b612a1786828701612995565b925050604084013567ffffffffffffffff811115612a3857612a3761241e565b5b612a448682870161262c565b9150509250925092565b600080fd5b600060a08284031215612a6957612a68612a4e565b5b81905092915050565b600060208284031215612a8857612a87612419565b5b600082013567ffffffffffffffff811115612aa657612aa561241e565b5b612ab284828501612a53565b91505092915050565b612ac48161271e565b82525050565b6000602082019050612adf6000830184612abb565b92915050565b600060808284031215612afb57612afa6126b6565b5b612b05608061258f565b9050600082013567ffffffffffffffff811115612b2557612b246126bb565b5b612b318482850161262c565b6000830152506020612b458482850161273f565b602083015250604082013567ffffffffffffffff811115612b6957612b686126bb565b5b612b758482850161262c565b6040830152506060612b898482850161273f565b60608301525092915050565b600060208284031215612bab57612baa612419565b5b600082013567ffffffffffffffff811115612bc957612bc861241e565b5b612bd584828501612ae5565b91505092915050565b600067ffffffffffffffff82169050919050565b612bfb81612bde565b8114612c0657600080fd5b50565b600081359050612c1881612bf2565b92915050565b600067ffffffffffffffff821115612c3957612c3861252f565b5b612c428261251e565b9050602081019050919050565b6000612c62612c5d84612c1e565b61258f565b905082815260208101848484011115612c7e57612c7d612519565b5b612c898482856125db565b509392505050565b600082601f830112612ca657612ca5612514565b5b8135612cb6848260208601612c4f565b91505092915050565b60008060008060008060c08789031215612cdc57612cdb612419565b5b6000612cea89828a01612c09565b9650506020612cfb89828a01612709565b9550506040612d0c89828a01612709565b9450506060612d1d89828a0161273f565b935050608087013567ffffffffffffffff811115612d3e57612d3d61241e565b5b612d4a89828a0161262c565b92505060a087013567ffffffffffffffff811115612d6b57612d6a61241e565b5b612d7789828a01612c91565b9150509295509295509295565b612d8d816126e0565b82525050565b6000602082019050612da86000830184612d84565b92915050565b60008060408385031215612dc557612dc4612419565b5b6000612dd385828601612c09565b9250506020612de485828601612709565b9150509250929050565b60008060408385031215612e0557612e04612419565b5b600083013567ffffffffffffffff811115612e2357612e2261241e565b5b612e2f8582860161262c565b9250506020612e4085828601612709565b9150509250929050565b600060208284031215612e6057612e5f612419565b5b600082013567ffffffffffffffff811115612e7e57612e7d61241e565b5b612e8a8482850161262c565b91505092915050565b600060208284031215612ea957612ea8612419565b5b6000612eb784828501612709565b91505092915050565b600082825260208201905092915050565b7f536f75726365206d75737420626520746865206f7261636c65206f662074686560008201527f2072657175657374000000000000000000000000000000000000000000000000602082015250565b6000612f2d602883612ec0565b9150612f3882612ed1565b604082019050919050565b60006020820190508181036000830152612f5c81612f20565b9050919050565b7f416c72656164792066756c66696c6c6564000000000000000000000000000000600082015250565b6000612f99601183612ec0565b9150612fa482612f63565b602082019050919050565b60006020820190508181036000830152612fc881612f8c565b9050919050565b7f47616d65204e6f7420466f756e64000000000000000000000000000000000000600082015250565b6000613005600e83612ec0565b915061301082612fcf565b602082019050919050565b6000602082019050818103600083015261303481612ff8565b9050919050565b600081519050919050565b60005b83811015613064578082015181840152602081019050613049565b60008484015250505050565b600061307b8261303b565b6130858185612ec0565b9350613095818560208601613046565b61309e8161251e565b840191505092915050565b60006040820190506130be6000830185612d84565b81810360208301526130d08184613070565b90509392505050565b7f496e76616c696420706c616e0000000000000000000000000000000000000000600082015250565b600061310f600c83612ec0565b915061311a826130d9565b602082019050919050565b6000602082019050818103600083015261313e81613102565b9050919050565b7f496e73756666696369656e742066756e64730000000000000000000000000000600082015250565b600061317b601283612ec0565b915061318682613145565b602082019050919050565b600060208201905081810360008301526131aa8161316e565b9050919050565b7f4e487b7100000000000000000000000000000000000000000000000000000000600052602260045260246000fd5b600060028204905060018216806131f857607f821691505b60208210810361320b5761320a6131b1565b5b50919050565b60008190508160005260206000209050919050565b60006020601f8301049050919050565b600082821b905092915050565b6000600883026132737fffffffffffffffffffffffffffffffffffffffffffffffffffffffffffffffff82613236565b61327d8683613236565b95508019841693508086168417925050509392505050565b6000819050919050565b60006132ba6132b56132b08461271e565b613295565b61271e565b9050919050565b6000819050919050565b6132d48361329f565b6132e86132e0826132c1565b848454613243565b825550505050565b600090565b6132fd6132f0565b6133088184846132cb565b505050565b5b8181101561332c576133216000826132f5565b60018101905061330e565b5050565b601f8211156133715761334281613211565b61334b84613226565b8101602085101561335a578190505b61336e61336685613226565b83018261330d565b50505b505050565b600082821c905092915050565b600061339460001984600802613376565b1980831691505092915050565b60006133ad8383613383565b9150826002028217905092915050565b6133c68261303b565b67ffffffffffffffff8111156133df576133de61252f565b5b6133e982546131e0565b6133f4828285613330565b600060209050601f8311600181146134275760008415613415578287015190505b61341f85826133a1565b865550613487565b601f19841661343586613211565b60005b8281101561345d57848901518255600182019150602085019450602081019050613438565b8683101561347a5784890151613476601f891682613383565b8355505b6001600288020188555050505b505050505050565b6000610100820190506134a5600083018b612d84565b81810360208301526134b7818a613070565b905081810360408301526134cb8189613070565b905081810360608301526134df8188613070565b90506134ee6080830187612abb565b6134fb60a0830186612d84565b81810360c083015261350d8185613070565b905081810360e08301526135218184613070565b90509998505050505050505050565b7f546f6f206d616e79206174747269627574657300000000000000000000000000600082015250565b6000613566601383612ec0565b915061357182613530565b602082019050919050565b6000602082019050818103600083015261359581613559565b9050919050565b600081519050919050565b600082825260208201905092915050565b6000819050602082019050919050565b600082825260208201905092915050565b60006135e48261303b565b6135ee81856135c8565b93506135fe818560208601613046565b6136078161251e565b840191505092915050565b600061361e83836135d9565b905092915050565b6000602082019050919050565b600061363e8261359c565b61364881856135a7565b93508360208202850161365a856135b8565b8060005b8581101561369657848403895281516136778582613612565b945061368283613626565b925060208a0199505060018101905061365e565b50829750879550505050505092915050565b600082825260208201905092915050565b7f2c00000000000000000000000000000000000000000000000000000000000000600082015250565b60006136ef6001836136a8565b91506136fa826136b9565b602082019050919050565b6000604082019050818103600083015261371f8184613633565b90508181036020830152613732816136e2565b905092915050565b600061374d613748846125aa565b61258f565b90508281526020810184848401111561376957613768612519565b5b613774848285613046565b509392505050565b600082601f83011261379157613790612514565b5b81516137a184826020860161373a565b91505092915050565b6000602082840312156137c0576137bf612419565b5b600082015167ffffffffffffffff8111156137de576137dd61241e565b5b6137ea8482850161377c565b91505092915050565b600081905092915050565b6000815461380b816131e0565b61381581866137f3565b94506001821660008114613830576001811461384557613878565b60ff1983168652811515820286019350613878565b61384e85613211565b60005b8381101561387057815481890152600182019150602081019050613851565b838801955050505b50505092915050565b7f2f00000000000000000000000000000000000000000000000000000000000000815250565b60006138b28261303b565b6138bc81856137f3565b93506138cc818560208601613046565b80840191505092915050565b60006138e482886137fe565b91506138ef82613881565b6001820191506138ff82876138a7565b915061390a82613881565b60018201915061391a82866138a7565b915061392582613881565b60018201915061393582856138a7565b915061394082613881565b60018201915061395082846138a7565b91508190509695505050505050565b600067ffffffffffffffff82111561397a5761397961252f565b5b602082029050602081019050919050565b6000604082840312156139a1576139a06126b6565b5b6139ab604061258f565b905060006139bb84828501612709565b60008301525060206139cf8482850161273f565b60208301525092915050565b60006139ee6139e98461395f565b61258f565b90508083825260208201905060408402830185811115613a1157613a10612909565b5b835b81811015613a3a5780613a26888261398b565b845260208401935050604081019050613a13565b5050509392505050565b600082601f830112613a5957613a58612514565b5b8135613a698482602086016139db565b91505092915050565b600060a08284031215613a8857613a876126b6565b5b613a9260a061258f565b90506000613aa2848285016124ff565b6000830152506020613ab684828501612c09565b602083015250604082013567ffffffffffffffff811115613ada57613ad96126bb565b5b613ae684828501612c91565b604083015250606082013567ffffffffffffffff811115613b0a57613b096126bb565b5b613b1684828501612c91565b606083015250608082013567ffffffffffffffff811115613b3a57613b396126bb565b5b613b4684828501613a44565b60808301525092915050565b6000613b5e3683613a72565b9050919050565b7f4e487b7100000000000000000000000000000000000000000000000000000000600052601160045260246000fd5b6000613b9f8261271e565b91507fffffffffffffffffffffffffffffffffffffffffffffffffffffffffffffffff8203613bd157613bd0613b65565b5b600182019050919050565b600060a082019050613bf16000830188612abb565b8181036020830152613c038187613070565b9050613c126040830186612abb565b8181036060830152613c248185613070565b9050613c336080830184612abb565b9695505050505050565b600081519050919050565b600082825260208201905092915050565b6000613c6482613c3d565b613c6e8185613c48565b9350613c7e818560208601613046565b613c878161251e565b840191505092915050565b600060a082019050613ca76000830188612d84565b613cb46020830187612d84565b613cc16040830186612abb565b8181036060830152613cd38185613070565b90508181036080830152613ce78184613c59565b90509695505050505050565b613cfc81612bde565b82525050565b600082825260208201905092915050565b6000613d1e82613c3d565b613d288185613d02565b9350613d38818560208601613046565b613d418161251e565b840191505092915050565b600081519050919050565b600082825260208201905092915050565b6000819050602082019050919050565b613d81816126e0565b82525050565b613d908161271e565b82525050565b604082016000820151613dac6000850182613d78565b506020820151613dbf6020850182613d87565b50505050565b6000613dd18383613d96565b60408301905092915050565b6000602082019050919050565b6000613df582613d4c565b613dff8185613d57565b9350613e0a83613d68565b8060005b83811015613e3b578151613e228882613dc5565b9750613e2d83613ddd565b925050600181019050613e0e565b5085935050505092915050565b600060a0830160008301518482036000860152613e658282613d13565b91505060208301518482036020860152613e7f8282613d13565b91505060408301518482036040860152613e998282613dea565b9150506060830151613eae6060860182613d78565b5060808301518482036080860152613ec68282613d13565b9150508091505092915050565b6000604082019050613ee86000830185613cf3565b8181036020830152613efa8184613e48565b90509392505050565b600081519050613f1281612728565b92915050565b600060208284031215613f2e57613f2d612419565b5b6000613f3c84828501613f03565b91505092915050565b7f496e73756666696369656e742066656500000000000000000000000000000000600082015250565b6000613f7b601083612ec0565b9150613f8682613f45565b602082019050919050565b60006020820190508181036000830152613faa81613f6e565b9050919050565b600081519050613fc0816124e8565b92915050565b600060208284031215613fdc57613fdb612419565b5b6000613fea84828501613fb1565b91505092915050565b60006040820190506140086000830185612d84565b6140156020830184612abb565b9392505050565b614025816124a8565b811461403057600080fd5b50565b6000815190506140428161401c565b92915050565b60006020828403121561405e5761405d612419565b5b600061406c84828501614033565b91505092915050565b7f556e417574686f72697a65640000000000000000000000000000000000000000600082015250565b60006140ab600c83612ec0565b91506140b682614075565b602082019050919050565b600060208201905081810360008301526140da8161409e565b9050919050565b7f4f776e61626c653a206e6577206f776e657220697320746865207a65726f206160008201527f6464726573730000000000000000000000000000000000000000000000000000602082015250565b600061413d602683612ec0565b9150614148826140e1565b604082019050919050565b6000602082019050818103600083015261416c81614130565b9050919050565b7f4f776e61626c653a2063616c6c6572206973206e6f7420746865206f776e6572600082015250565b60006141a9602083612ec0565b91506141b482614173565b602082019050919050565b600060208201905081810360008301526141d88161419c565b9050919050565b60006141ea826126c0565b9050919050565b6141fa816141df565b811461420557600080fd5b50565b600081519050614217816141f1565b92915050565b600061423061422b84612c1e565b61258f565b90508281526020810184848401111561424c5761424b612519565b5b614257848285613046565b509392505050565b600082601f83011261427457614273612514565b5b815161428484826020860161421d565b91505092915050565b600080600080600060a086880312156142a9576142a8612419565b5b60006142b788828901614208565b95505060206142c888828901614208565b94505060406142d988828901613f03565b935050606086015167ffffffffffffffff8111156142fa576142f961241e565b5b6143068882890161377c565b925050608086015167ffffffffffffffff8111156143275761432661241e565b5b6143338882890161425f565b9150509295509295909350565b600060c0820190506143556000830189613cf3565b6143626020830188612d84565b61436f6040830187612d84565b61437c6060830186612abb565b818103608083015261438e8185613070565b905081810360a08301526143a28184613c59565b9050979650505050505050565b6143b8816124a8565b82525050565b6040820160008201516143d46000850182613d87565b5060208201516143e760208501826143af565b50505050565b600060408201905061440260008301846143be565b92915050565b60006144138261271e565b915061441e8361271e565b925082820261442c8161271e565b9150828204841483151761444357614442613b65565b5b5092915050565b60006144558261271e565b91506144608361271e565b925082820190508082111561447857614477613b65565b5b92915050565b7f4e487b7100000000000000000000000000000000000000000000000000000000600052603260045260246000fd5b60006144b88261271e565b9150600082036144cb576144ca613b65565b5b600182039050919050565b7f537472696e67733a20686578206c656e67746820696e73756666696369656e74600082015250565b600061450c602083612ec0565b9150614517826144d6565b602082019050919050565b6000602082019050818103600083015261453b816144ff565b9050919050565b61454b816124de565b82525050565b61455a81612423565b82525050565b600061010082019050614576600083018b612d84565b614583602083018a612abb565b6145906040830189614542565b61459d6060830188612d84565b6145aa6080830187614551565b6145b760a0830186612abb565b6145c460c0830185612abb565b81810360e08301526145d68184613c59565b90509998505050505050505050565b7f4e487b7100000000000000000000000000000000000000000000000000000000600052601260045260246000fd5b600061461f8261271e565b915061462a8361271e565b92508261463a576146396145e5565b5b828206905092915050565b60006146508261271e565b915061465b8361271e565b925082820390508181111561467357614672613b65565b5b92915050565b600061469461468f61468a846126c0565b613295565b6126c0565b9050919050565b60006146a682614679565b9050919050565b60006146b88261469b565b9050919050565b60008160601b9050919050565b60006146d7826146bf565b9050919050565b60006146e9826146cc565b9050919050565b6147016146fc826146ad565b6146de565b82525050565b6000819050919050565b61472261471d8261271e565b614707565b82525050565b600061473482856146f0565b6014820191506147448284614711565b6020820191508190509392505050565b60006060820190506147696000830186612d84565b6147766020830185612abb565b81810360408301526147888184613c59565b9050949350505050565b7f756e61626c6520746f207472616e73666572416e6443616c6c20746f206f726160008201527f636c650000000000000000000000000000000000000000000000000000000000602082015250565b60006147ee602383612ec0565b91506147f982614792565b604082019050919050565b6000602082019050818103600083015261481d816147e1565b9050919050565b60008160011c9050919050565b6000808291508390505b600185111561487b5780860481111561485757614856613b65565b5b60018516156148665780820291505b808102905061487485614824565b945061483b565b94509492505050565b6000826148945760019050614950565b816148a25760009050614950565b81600181146148b857600281146148c2576148f1565b6001915050614950565b60ff8411156148d4576148d3613b65565b5b8360020a9150848211156148eb576148ea613b65565b5b50614950565b5060208310610133831016604e8410600b84101617156149265782820a90508381111561492157614920613b65565b5b614950565b6149338484846001614831565b9250905081840481111561494a57614949613b65565b5b81810290505b9392505050565b60006149628261271e565b915061496d8361271e565b925061499a7fffffffffffffffffffffffffffffffffffffffffffffffffffffffffffffffff8484614884565b90509291505056fea264697066735822122009da6671099df48fe0c57b2e5dd88a4fd360628eeafac5148d232afe454148d264736f6c63430008110033",
  "immutableReferences": {
    "14": [
      {
        "length": 32,
        "start": 3569
      },
      {
        "length": 32,
        "start": 5163
      }
    ]
  },
  "source": "// SPDX-License-Identifier: MIT\r\npragma solidity ^0.8.17;\r\n\r\nimport {Assets} from \"./libraries/Assets.sol\";\r\nimport {Params} from \"./libraries/Params.sol\";\r\nimport {IKanvasAvax} from \"./interfaces/IKanvasAvax.sol\";\r\nimport {IKanvasGame} from \"./interfaces/IKanvasGame.sol\";\r\nimport {IKanvasInteropGame} from \"./interfaces/IKanvasInteropGame.sol\";\r\nimport {StringJoiner} from \"./libraries/StringJoiner.sol\";\r\n\r\nimport {Strings} from \"@openzeppelin/contracts/utils/Strings.sol\";\r\nimport {Ownable} from \"@openzeppelin/contracts/access/Ownable.sol\";\r\nimport {Context} from \"@openzeppelin/contracts/utils/Context.sol\";\r\n\r\nimport {CCIPReceiver} from \"@chainlink/contracts-ccip/src/v0.8/ccip/applications/CCIPReceiver.sol\";\r\nimport {IRouterClient} from \"@chainlink/contracts-ccip/src/v0.8/ccip/interfaces/IRouterClient.sol\";\r\nimport {Client} from \"@chainlink/contracts-ccip/src/v0.8/ccip/libraries/Client.sol\";\r\nimport {ChainlinkClient, Chainlink, LinkTokenInterface} from \"@chainlink/contracts/src/v0.8/ChainlinkClient.sol\";\r\n\r\ncontract KanvasAvax is\r\n    IKanvasAvax,\r\n    Context,\r\n    CCIPReceiver,\r\n    ChainlinkClient,\r\n    Ownable\r\n{\r\n    uint64 private constant AVAX_SELECTOR = 14767482510784806043;\r\n    uint256 public constant MAX_PROPERTIES_LEN = 20;\r\n    uint256 public constant MAX_TEMPLATES_LEN = 5;\r\n    using Chainlink for Chainlink.Request;\r\n\r\n    string private BASE_URL = \"\";\r\n\r\n    bytes32 private jobId;\r\n    uint256 private fee;\r\n\r\n    uint256 private _planId;\r\n    mapping(uint256 => Assets.Plan) private _plans;\r\n\r\n    mapping(address => Assets.Game) private _games;\r\n\r\n    mapping(bytes32 => Assets.Request) private _requests;\r\n\r\n    mapping(uint64 => address) private _interops;\r\n\r\n    IRouterClient private _router;\r\n\r\n    constructor(address receiver) CCIPReceiver(receiver) Ownable() {\r\n        setChainlinkToken(0x0b9d5D9136855f6FEc3c0993feE6E9CE8a297846);\r\n        setChainlinkOracle(0x022EEA14A6010167ca026B32576D6686dD7e85d2);\r\n        jobId = \"7d80a6386ef543a3abb52817f6707e3b\";\r\n        fee = (1 * LINK_DIVISIBILITY) / 10;\r\n\r\n        _router = IRouterClient(getRouter());\r\n    }\r\n\r\n    function createGame(Params.Game memory params) external payable {\r\n        require(_plans[params.plan].limit != 0, \"Invalid plan\");\r\n        require(msg.value == _plans[params.plan].cost, \"Insufficient funds\");\r\n\r\n        _games[params.gameId] = Assets.Game({\r\n            name: params.name,\r\n            description: params.description,\r\n            avatar: params.avatar,\r\n            plan: params.plan,\r\n            creator: _msgSender()\r\n        });\r\n\r\n        emit GameCreated(\r\n            params.gameId,\r\n            params.name,\r\n            params.description,\r\n            params.avatar,\r\n            params.plan,\r\n            _msgSender(),\r\n            params.email,\r\n            params.website\r\n        );\r\n    }\r\n\r\n    function addTemplate(string memory params, address gameId) external {\r\n        address creator = _msgSender();\r\n\r\n        Assets.Game storage game = _games[gameId];\r\n\r\n        require(game.creator == creator, \"UnAuthorized\");\r\n\r\n        emit TemplateAdded(gameId, params);\r\n    }\r\n\r\n    function _generateUri(\r\n        address playerId,\r\n        string[] memory properties,\r\n        string memory fields\r\n    ) external override {\r\n        require(properties.length <= MAX_PROPERTIES_LEN, \"Too many attributes\");\r\n\r\n        address gameId = _msgSender();\r\n        require(_games[gameId].creator != address(0), \"Game Not Found\");\r\n\r\n        Chainlink.Request memory req = buildChainlinkRequest(\r\n            jobId,\r\n            address(this),\r\n            this.fulfill.selector\r\n        );\r\n\r\n        // Set the URL to perform the GET request on\r\n        // https://server.com/generete/properties/fields/gameid/playerid\r\n        req.add(\r\n            \"get\",\r\n            string.concat(\r\n                BASE_URL,\r\n                \"/\",\r\n                StringJoiner.joinStrings(properties, \",\"),\r\n                \"/\",\r\n                fields,\r\n                \"/\",\r\n                Strings.toHexString(gameId),\r\n                \"/\",\r\n                Strings.toHexString(playerId)\r\n            )\r\n        );\r\n\r\n        // Chainlink nodes 1.0.0 and later support this format\r\n        req.add(\"path\", \"uri\");\r\n\r\n        // Sends the request\r\n        bytes32 requestId = sendChainlinkRequest(req, fee);\r\n\r\n        _requests[requestId] = Assets.Request({\r\n            gameId: gameId,\r\n            playerId: playerId,\r\n            fulfilled: false\r\n        });\r\n    }\r\n\r\n    function updateBaseUrl(string memory newBaseUrl) external onlyOwner {\r\n        BASE_URL = newBaseUrl;\r\n    }\r\n\r\n    function updateInterop(\r\n        uint64 chainSelector,\r\n        address kanvasRouter\r\n    ) external onlyOwner {\r\n        _interops[chainSelector] = kanvasRouter;\r\n    }\r\n\r\n    /** Receive the response in the form of string  */\r\n    function fulfill(\r\n        bytes32 requestId,\r\n        string memory uri\r\n    ) public recordChainlinkFulfillment(requestId) {\r\n        Assets.Request storage request = _requests[requestId];\r\n        require(!request.fulfilled, \"Already fulfilled\");\r\n\r\n        request.fulfilled = true;\r\n\r\n        require(_games[request.gameId].creator != address(0), \"Game Not Found\");\r\n\r\n        IKanvasGame game = IKanvasGame(request.gameId);\r\n        game._receiveUri(request.playerId, uri);\r\n    }\r\n\r\n    /** Allow withdraw of Link tokens from the contract */\r\n    function withdrawLink() public onlyOwner {\r\n        LinkTokenInterface link = LinkTokenInterface(chainlinkTokenAddress());\r\n        link.transfer(msg.sender, link.balanceOf(address(this)));\r\n    }\r\n\r\n    function _transferTo(\r\n        uint64 chainSelector,\r\n        address gameId,\r\n        address playerId,\r\n        uint256 tokenId,\r\n        string memory uri,\r\n        bytes memory data\r\n    ) external payable {\r\n        // Create an EVM2AnyMessage struct in memory with necessary information for sending a cross-chain message\r\n        Client.EVM2AnyMessage memory evm2AnyMessage = Client.EVM2AnyMessage({\r\n            // ABI-encoded receiver address\r\n            receiver: abi.encode(_interops[chainSelector]),\r\n            // ABI-encoded string message\r\n            data: abi.encode(gameId, playerId, tokenId, uri, data),\r\n            // Empty array indicating no tokens are being sent\r\n            tokenAmounts: new Client.EVMTokenAmount[](0),\r\n            // Additional arguments, setting gas limit and non-strict sequency mode\r\n            extraArgs: Client._argsToBytes(\r\n                Client.EVMExtraArgsV1({gasLimit: 400_000, strict: false})\r\n            ),\r\n            // Setting feeToken to zero address, indicating native asset will be used for fees\r\n            feeToken: address(0)\r\n        });\r\n\r\n        // Get the fee required to send the message\r\n        uint256 fees = _router.getFee(AVAX_SELECTOR, evm2AnyMessage);\r\n\r\n        require(msg.value >= fees, \"Insufficient fee\");\r\n\r\n        // Send the message through the router and store the returned message ID\r\n        _router.ccipSend{value: fees}(AVAX_SELECTOR, evm2AnyMessage);\r\n    }\r\n\r\n    // handle a received message\r\n    function _ccipReceive(\r\n        Client.Any2EVMMessage memory message\r\n    ) internal override {\r\n        (\r\n            address gameId,\r\n            address playerId,\r\n            uint256 tokenId,\r\n            string memory uri,\r\n            bytes memory data\r\n        ) = abi.decode(\r\n                message.data,\r\n                (address, address, uint256, string, bytes)\r\n            );\r\n\r\n        IKanvasInteropGame game = IKanvasInteropGame(gameId);\r\n        game._receiveFrom(\r\n            message.sourceChainSelector,\r\n            gameId,\r\n            playerId,\r\n            tokenId,\r\n            uri,\r\n            data\r\n        );\r\n    }\r\n\r\n    /** Create plans */\r\n    function createPlan(Params.Plan memory params) external onlyOwner {\r\n        _planId++;\r\n\r\n        _plans[_planId] = Assets.Plan({\r\n            name: params.name,\r\n            cost: params.cost,\r\n            color: params.color,\r\n            limit: params.limit\r\n        });\r\n\r\n        emit PlanCreated(\r\n            _planId,\r\n            params.name,\r\n            params.cost,\r\n            params.color,\r\n            params.limit\r\n        );\r\n    }\r\n}\r\n",
  "sourcePath": "C:\\Users\\DELL\\Documents\\kanvas\\blockchain\\contracts\\KanvasAvax.sol",
  "compiler": {
    "name": "solc",
    "version": "0.8.17+commit.8df45f5f.Emscripten.clang"
  },
  "schemaVersion": "3.4.11",
  "updatedAt": "2023-12-02T16:02:22.444Z",
  "devdoc": {
    "kind": "dev",
    "methods": {
      "ccipReceive((bytes32,uint64,bytes,bytes,(address,uint256)[]))": {
        "details": "Note ensure you check the msg.sender is the OffRampRouter",
        "params": {
          "message": "CCIP Message"
        }
      },
      "getRouter()": {
        "returns": {
          "_0": "i_router address"
        }
      },
      "owner()": {
        "details": "Returns the address of the current owner."
      },
      "renounceOwnership()": {
        "details": "Leaves the contract without owner. It will not be possible to call `onlyOwner` functions. Can only be called by the current owner. NOTE: Renouncing ownership will leave the contract without an owner, thereby disabling any functionality that is only available to the owner."
      },
      "supportsInterface(bytes4)": {
        "params": {
          "interfaceId": "The interfaceId to check"
        },
        "returns": {
          "_0": "true if the interfaceId is supported"
        }
      },
      "transferOwnership(address)": {
        "details": "Transfers ownership of the contract to a new account (`newOwner`). Can only be called by the current owner."
      }
    },
    "version": 1
  },
  "userdoc": {
    "kind": "user",
    "methods": {
      "ccipReceive((bytes32,uint64,bytes,bytes,(address,uint256)[]))": {
        "notice": "Called by the Router to deliver a message. If this reverts, any token transfers also revert. The message will move to a FAILED state and become available for manual execution."
      },
      "createPlan((string,uint256,string,uint256))": {
        "notice": "Create plans "
      },
      "fulfill(bytes32,string)": {
        "notice": "Receive the response in the form of string  "
      },
      "getRouter()": {
        "notice": "Return the current router"
      },
      "supportsInterface(bytes4)": {
        "notice": "IERC165 supports an interfaceId"
      },
      "withdrawLink()": {
        "notice": "Allow withdraw of Link tokens from the contract "
      }
    },
    "version": 1
  }
}