{
  "contractName": "KanvasAvax",
  "abi": [
    {
      "inputs": [
        {
          "internalType": "address",
          "name": "receiver",
          "type": "address"
        }
      ],
      "stateMutability": "nonpayable",
      "type": "constructor"
    },
    {
      "inputs": [
        {
          "internalType": "address",
          "name": "router",
          "type": "address"
        }
      ],
      "name": "InvalidRouter",
      "type": "error"
    },
    {
      "anonymous": false,
      "inputs": [
        {
          "indexed": true,
          "internalType": "bytes32",
          "name": "id",
          "type": "bytes32"
        }
      ],
      "name": "ChainlinkCancelled",
      "type": "event"
    },
    {
      "anonymous": false,
      "inputs": [
        {
          "indexed": true,
          "internalType": "bytes32",
          "name": "id",
          "type": "bytes32"
        }
      ],
      "name": "ChainlinkFulfilled",
      "type": "event"
    },
    {
      "anonymous": false,
      "inputs": [
        {
          "indexed": true,
          "internalType": "bytes32",
          "name": "id",
          "type": "bytes32"
        }
      ],
      "name": "ChainlinkRequested",
      "type": "event"
    },
    {
      "anonymous": false,
      "inputs": [
        {
          "indexed": false,
          "internalType": "address",
          "name": "gameId",
          "type": "address"
        },
        {
          "indexed": false,
          "internalType": "string",
          "name": "name",
          "type": "string"
        },
        {
          "indexed": false,
          "internalType": "string",
          "name": "description",
          "type": "string"
        },
        {
          "indexed": false,
          "internalType": "string",
          "name": "avatar",
          "type": "string"
        },
        {
          "indexed": false,
          "internalType": "uint256",
          "name": "plan",
          "type": "uint256"
        },
        {
          "indexed": false,
          "internalType": "address",
          "name": "creator",
          "type": "address"
        },
        {
          "indexed": false,
          "internalType": "string",
          "name": "email",
          "type": "string"
        },
        {
          "indexed": false,
          "internalType": "string",
          "name": "website",
          "type": "string"
        }
      ],
      "name": "GameCreated",
      "type": "event"
    },
    {
      "anonymous": false,
      "inputs": [
        {
          "indexed": true,
          "internalType": "address",
          "name": "previousOwner",
          "type": "address"
        },
        {
          "indexed": true,
          "internalType": "address",
          "name": "newOwner",
          "type": "address"
        }
      ],
      "name": "OwnershipTransferred",
      "type": "event"
    },
    {
      "anonymous": false,
      "inputs": [
        {
          "indexed": false,
          "internalType": "uint256",
          "name": "planId",
          "type": "uint256"
        },
        {
          "indexed": false,
          "internalType": "string",
          "name": "name",
          "type": "string"
        },
        {
          "indexed": false,
          "internalType": "uint256",
          "name": "cost",
          "type": "uint256"
        },
        {
          "indexed": false,
          "internalType": "string",
          "name": "color",
          "type": "string"
        },
        {
          "indexed": false,
          "internalType": "uint256",
          "name": "limit",
          "type": "uint256"
        }
      ],
      "name": "PlanCreated",
      "type": "event"
    },
    {
      "anonymous": false,
      "inputs": [
        {
          "indexed": false,
          "internalType": "address",
          "name": "gameId",
          "type": "address"
        },
        {
          "indexed": false,
          "internalType": "string",
          "name": "templateUri",
          "type": "string"
        }
      ],
      "name": "TemplateAdded",
      "type": "event"
    },
    {
      "inputs": [],
      "name": "MAX_PROPERTIES_LEN",
      "outputs": [
        {
          "internalType": "uint256",
          "name": "",
          "type": "uint256"
        }
      ],
      "stateMutability": "view",
      "type": "function",
      "constant": true
    },
    {
      "inputs": [],
      "name": "MAX_TEMPLATES_LEN",
      "outputs": [
        {
          "internalType": "uint256",
          "name": "",
          "type": "uint256"
        }
      ],
      "stateMutability": "view",
      "type": "function",
      "constant": true
    },
    {
      "inputs": [
        {
          "components": [
            {
              "internalType": "bytes32",
              "name": "messageId",
              "type": "bytes32"
            },
            {
              "internalType": "uint64",
              "name": "sourceChainSelector",
              "type": "uint64"
            },
            {
              "internalType": "bytes",
              "name": "sender",
              "type": "bytes"
            },
            {
              "internalType": "bytes",
              "name": "data",
              "type": "bytes"
            },
            {
              "components": [
                {
                  "internalType": "address",
                  "name": "token",
                  "type": "address"
                },
                {
                  "internalType": "uint256",
                  "name": "amount",
                  "type": "uint256"
                }
              ],
              "internalType": "struct Client.EVMTokenAmount[]",
              "name": "destTokenAmounts",
              "type": "tuple[]"
            }
          ],
          "internalType": "struct Client.Any2EVMMessage",
          "name": "message",
          "type": "tuple"
        }
      ],
      "name": "ccipReceive",
      "outputs": [],
      "stateMutability": "nonpayable",
      "type": "function"
    },
    {
      "inputs": [],
      "name": "getRouter",
      "outputs": [
        {
          "internalType": "address",
          "name": "",
          "type": "address"
        }
      ],
      "stateMutability": "view",
      "type": "function",
      "constant": true
    },
    {
      "inputs": [],
      "name": "owner",
      "outputs": [
        {
          "internalType": "address",
          "name": "",
          "type": "address"
        }
      ],
      "stateMutability": "view",
      "type": "function",
      "constant": true
    },
    {
      "inputs": [],
      "name": "renounceOwnership",
      "outputs": [],
      "stateMutability": "nonpayable",
      "type": "function"
    },
    {
      "inputs": [
        {
          "internalType": "bytes4",
          "name": "interfaceId",
          "type": "bytes4"
        }
      ],
      "name": "supportsInterface",
      "outputs": [
        {
          "internalType": "bool",
          "name": "",
          "type": "bool"
        }
      ],
      "stateMutability": "pure",
      "type": "function",
      "constant": true
    },
    {
      "inputs": [
        {
          "internalType": "address",
          "name": "newOwner",
          "type": "address"
        }
      ],
      "name": "transferOwnership",
      "outputs": [],
      "stateMutability": "nonpayable",
      "type": "function"
    },
    {
      "inputs": [
        {
          "components": [
            {
              "internalType": "string",
              "name": "name",
              "type": "string"
            },
            {
              "internalType": "string",
              "name": "description",
              "type": "string"
            },
            {
              "internalType": "address",
              "name": "gameId",
              "type": "address"
            },
            {
              "internalType": "string",
              "name": "avatar",
              "type": "string"
            },
            {
              "internalType": "uint256",
              "name": "plan",
              "type": "uint256"
            },
            {
              "internalType": "string",
              "name": "email",
              "type": "string"
            },
            {
              "internalType": "string",
              "name": "website",
              "type": "string"
            }
          ],
          "internalType": "struct Params.Game",
          "name": "params",
          "type": "tuple"
        }
      ],
      "name": "createGame",
      "outputs": [],
      "stateMutability": "payable",
      "type": "function",
      "payable": true
    },
    {
      "inputs": [
        {
          "internalType": "string",
          "name": "templateUri",
          "type": "string"
        },
        {
          "internalType": "address",
          "name": "gameId",
          "type": "address"
        }
      ],
      "name": "addTemplate",
      "outputs": [],
      "stateMutability": "nonpayable",
      "type": "function"
    },
    {
      "inputs": [
        {
          "internalType": "address",
          "name": "playerId",
          "type": "address"
        },
        {
          "internalType": "string[]",
          "name": "properties",
          "type": "string[]"
        },
        {
          "internalType": "string",
          "name": "fields",
          "type": "string"
        },
        {
          "internalType": "uint8",
          "name": "templateId",
          "type": "uint8"
        }
      ],
      "name": "_generateUri",
      "outputs": [],
      "stateMutability": "nonpayable",
      "type": "function"
    },
    {
      "inputs": [
        {
          "internalType": "uint64",
          "name": "chainSelector",
          "type": "uint64"
        },
        {
          "internalType": "address",
          "name": "kanvasRouter",
          "type": "address"
        }
      ],
      "name": "updateInterop",
      "outputs": [],
      "stateMutability": "nonpayable",
      "type": "function"
    },
    {
      "inputs": [
        {
          "internalType": "bytes32",
          "name": "requestId",
          "type": "bytes32"
        },
        {
          "internalType": "string",
          "name": "uri",
          "type": "string"
        }
      ],
      "name": "fulfill",
      "outputs": [],
      "stateMutability": "nonpayable",
      "type": "function"
    },
    {
      "inputs": [],
      "name": "withdrawLink",
      "outputs": [],
      "stateMutability": "nonpayable",
      "type": "function"
    },
    {
      "inputs": [
        {
          "internalType": "uint64",
          "name": "chainSelector",
          "type": "uint64"
        },
        {
          "internalType": "address",
          "name": "gameId",
          "type": "address"
        },
        {
          "internalType": "address",
          "name": "playerId",
          "type": "address"
        },
        {
          "internalType": "uint256",
          "name": "tokenId",
          "type": "uint256"
        },
        {
          "internalType": "string",
          "name": "uri",
          "type": "string"
        },
        {
          "internalType": "bytes",
          "name": "data",
          "type": "bytes"
        }
      ],
      "name": "_transferTo",
      "outputs": [],
      "stateMutability": "payable",
      "type": "function",
      "payable": true
    },
    {
      "inputs": [
        {
          "components": [
            {
              "internalType": "string",
              "name": "name",
              "type": "string"
            },
            {
              "internalType": "uint256",
              "name": "cost",
              "type": "uint256"
            },
            {
              "internalType": "string",
              "name": "color",
              "type": "string"
            },
            {
              "internalType": "uint256",
              "name": "limit",
              "type": "uint256"
            }
          ],
          "internalType": "struct Params.Plan",
          "name": "params",
          "type": "tuple"
        }
      ],
      "name": "createPlan",
      "outputs": [],
      "stateMutability": "nonpayable",
      "type": "function"
    }
  ],
  "bytecode": "0x60a060405260016004553480156200001657600080fd5b50604051620051e9380380620051e983398181016040528101906200003c9190620003c4565b80600073ffffffffffffffffffffffffffffffffffffffff168173ffffffffffffffffffffffffffffffffffffffff1603620000b25760006040517fd7f73334000000000000000000000000000000000000000000000000000000008152600401620000a9919062000407565b60405180910390fd5b8073ffffffffffffffffffffffffffffffffffffffff1660808173ffffffffffffffffffffffffffffffffffffffff16815250505062000107620000fb620001fa60201b60201c565b6200020260201b60201c565b6200012c730b9d5d9136855f6fec3c0993fee6e9ce8a297846620002c860201b60201c565b6200015173022eea14a6010167ca026b32576d6686dd7e85d26200030c60201b60201c565b7f3764383061363338366566353433613361626235323831376636373037653362600781905550600a670de0b6b3a764000060016200019191906200045d565b6200019d9190620004d7565b600881905550620001b36200035060201b60201c565b600e60006101000a81548173ffffffffffffffffffffffffffffffffffffffff021916908373ffffffffffffffffffffffffffffffffffffffff160217905550506200050f565b600033905090565b6000600660009054906101000a900473ffffffffffffffffffffffffffffffffffffffff16905081600660006101000a81548173ffffffffffffffffffffffffffffffffffffffff021916908373ffffffffffffffffffffffffffffffffffffffff1602179055508173ffffffffffffffffffffffffffffffffffffffff168173ffffffffffffffffffffffffffffffffffffffff167f8be0079c531659141344cd1fd0a4f28419497f9722a3daafe3b4186f6b6457e060405160405180910390a35050565b80600260006101000a81548173ffffffffffffffffffffffffffffffffffffffff021916908373ffffffffffffffffffffffffffffffffffffffff16021790555050565b80600360006101000a81548173ffffffffffffffffffffffffffffffffffffffff021916908373ffffffffffffffffffffffffffffffffffffffff16021790555050565b6000608051905090565b600080fd5b600073ffffffffffffffffffffffffffffffffffffffff82169050919050565b60006200038c826200035f565b9050919050565b6200039e816200037f565b8114620003aa57600080fd5b50565b600081519050620003be8162000393565b92915050565b600060208284031215620003dd57620003dc6200035a565b5b6000620003ed84828501620003ad565b91505092915050565b62000401816200037f565b82525050565b60006020820190506200041e6000830184620003f6565b92915050565b6000819050919050565b7f4e487b7100000000000000000000000000000000000000000000000000000000600052601160045260246000fd5b60006200046a8262000424565b9150620004778362000424565b9250828202620004878162000424565b91508282048414831517620004a157620004a06200042e565b5b5092915050565b7f4e487b7100000000000000000000000000000000000000000000000000000000600052601260045260246000fd5b6000620004e48262000424565b9150620004f18362000424565b925082620005045762000503620004a8565b5b828204905092915050565b608051614cb762000532600039600081816109e001526110d00152614cb76000f3fe6080604052600436106100f35760003560e01c80638da5cb5b1161008a578063dd3fac7c11610059578063dd3fac7c146102c0578063dff0ee41146102e9578063eee6e57314610314578063f2fde38b1461033d576100f3565b80638da5cb5b1461022a5780638dc654a21461025557806392154a3d1461026c578063b0f479a114610295576100f3565b806385572ffb116100c657806385572ffb146101915780638b8ff358146101ba5780638cd176d5146101e55780638d6dc0eb1461020e576100f3565b806301ffc9a7146100f857806337441996146101355780635821feae1461015e578063715018a61461017a575b600080fd5b34801561010457600080fd5b5061011f600480360381019061011a9190612728565b610366565b60405161012c9190612770565b60405180910390f35b34801561014157600080fd5b5061015c60048036038101906101579190612907565b610438565b005b61017860048036038101906101739190612b41565b610779565b005b34801561018657600080fd5b5061018f6109ca565b005b34801561019d57600080fd5b506101b860048036038101906101b39190612bae565b6109de565b005b3480156101c657600080fd5b506101cf610a83565b6040516101dc9190612c06565b60405180910390f35b3480156101f157600080fd5b5061020c60048036038101906102079190612cd1565b610a88565b005b61022860048036038101906102239190612dfb565b610b85565b005b34801561023657600080fd5b5061023f610f21565b60405161024c9190612ecf565b60405180910390f35b34801561026157600080fd5b5061026a610f4b565b005b34801561027857600080fd5b50610293600480360381019061028e9190612eea565b61105a565b005b3480156102a157600080fd5b506102aa6110cc565b6040516102b79190612ecf565b60405180910390f35b3480156102cc57600080fd5b506102e760048036038101906102e29190612f2a565b6110f4565b005b3480156102f557600080fd5b506102fe611214565b60405161030b9190612c06565b60405180910390f35b34801561032057600080fd5b5061033b600480360381019061033691906130a5565b611219565b005b34801561034957600080fd5b50610364600480360381019061035f9190613144565b61161b565b005b60007f85572ffb000000000000000000000000000000000000000000000000000000007bffffffffffffffffffffffffffffffffffffffffffffffffffffffff1916827bffffffffffffffffffffffffffffffffffffffffffffffffffffffff1916148061043157507f01ffc9a7000000000000000000000000000000000000000000000000000000007bffffffffffffffffffffffffffffffffffffffffffffffffffffffff1916827bffffffffffffffffffffffffffffffffffffffffffffffffffffffff1916145b9050919050565b816005600082815260200190815260200160002060009054906101000a900473ffffffffffffffffffffffffffffffffffffffff1673ffffffffffffffffffffffffffffffffffffffff163373ffffffffffffffffffffffffffffffffffffffff16146104da576040517f08c379a00000000000000000000000000000000000000000000000000000000081526004016104d1906131f4565b60405180910390fd5b6005600082815260200190815260200160002060006101000a81549073ffffffffffffffffffffffffffffffffffffffff0219169055807f7cc135e0cebb02c3480ae5d74d377283180a2601f8f644edf7987b009316c63a60405160405180910390a26000600c600085815260200190815260200160002090508060010160149054906101000a900460ff16156105a6576040517f08c379a000000000000000000000000000000000000000000000000000000000815260040161059d90613260565b60405180910390fd5b60018160010160146101000a81548160ff021916908315150217905550600073ffffffffffffffffffffffffffffffffffffffff16600b60008360000160009054906101000a900473ffffffffffffffffffffffffffffffffffffffff1673ffffffffffffffffffffffffffffffffffffffff1673ffffffffffffffffffffffffffffffffffffffff16815260200190815260200160002060040160009054906101000a900473ffffffffffffffffffffffffffffffffffffffff1673ffffffffffffffffffffffffffffffffffffffff16036106b8576040517f08c379a00000000000000000000000000000000000000000000000000000000081526004016106af906132cc565b60405180910390fd5b60008160000160009054906101000a900473ffffffffffffffffffffffffffffffffffffffff1690508073ffffffffffffffffffffffffffffffffffffffff16638f9c39568360010160009054906101000a900473ffffffffffffffffffffffffffffffffffffffff16866040518363ffffffff1660e01b815260040161074092919061335a565b600060405180830381600087803b15801561075a57600080fd5b505af115801561076e573d6000803e3d6000fd5b505050505050505050565b6000600a60008360800151815260200190815260200160002060030154036107d6576040517f08c379a00000000000000000000000000000000000000000000000000000000081526004016107cd906133d6565b60405180910390fd5b600a600082608001518152602001908152602001600020600101543414610832576040517f08c379a000000000000000000000000000000000000000000000000000000000815260040161082990613442565b60405180910390fd5b6040518060a001604052808260000151815260200182606001518152602001826020015181526020018260800151815260200161086d61169e565b73ffffffffffffffffffffffffffffffffffffffff16815250600b6000836040015173ffffffffffffffffffffffffffffffffffffffff1673ffffffffffffffffffffffffffffffffffffffff16815260200190815260200160002060008201518160000190816108de919061366e565b5060208201518160010190816108f4919061366e565b50604082015181600201908161090a919061366e565b506060820151816003015560808201518160040160006101000a81548173ffffffffffffffffffffffffffffffffffffffff021916908373ffffffffffffffffffffffffffffffffffffffff1602179055509050507fea35bbd4aeddb611341e5394e07bd5ac7513bd56730a40e7e3e3eb761e155c05816040015182600001518360200151846060015185608001516109a161169e565b8760a001518860c001516040516109bf989796959493929190613740565b60405180910390a150565b6109d26116a6565b6109dc6000611724565b565b7f000000000000000000000000000000000000000000000000000000000000000073ffffffffffffffffffffffffffffffffffffffff163373ffffffffffffffffffffffffffffffffffffffff1614610a6e57336040517fd7f73334000000000000000000000000000000000000000000000000000000008152600401610a659190612ecf565b60405180910390fd5b610a8081610a7b906139d4565b6117ea565b50565b601481565b610a906116a6565b60096000815480929190610aa390613a16565b919050555060405180608001604052808260000151815260200182602001518152602001826040015181526020018260600151815250600a600060095481526020019081526020016000206000820151816000019081610b03919061366e565b50602082015181600101556040820151816002019081610b23919061366e565b50606082015181600301559050507f33c5bd102a4d38690a8d7d236985d20c88e66b73bca9de5ae6cc29376d2206fd6009548260000151836020015184604001518560600151604051610b7a959493929190613a5e565b60405180910390a150565b600073ffffffffffffffffffffffffffffffffffffffff16600d60008867ffffffffffffffff1667ffffffffffffffff16815260200190815260200160002060009054906101000a900473ffffffffffffffffffffffffffffffffffffffff1673ffffffffffffffffffffffffffffffffffffffff1603610c3b576040517f08c379a0000000000000000000000000000000000000000000000000000000008152600401610c3290613b0b565b60405180910390fd5b60006040518060a00160405280600d60008a67ffffffffffffffff1667ffffffffffffffff16815260200190815260200160002060009054906101000a900473ffffffffffffffffffffffffffffffffffffffff16604051602001610ca09190612ecf565b60405160208183030381529060405281526020018787878787604051602001610ccd959493929190613b80565b6040516020818303038152906040528152602001600067ffffffffffffffff811115610cfc57610cfb6127dc565b5b604051908082528060200260200182016040528015610d3557816020015b610d22612605565b815260200190600190039081610d1a5790505b508152602001600073ffffffffffffffffffffffffffffffffffffffff168152602001610d7b604051806040016040528062061a8081526020016000151581525061189b565b81525090506000600e60009054906101000a900473ffffffffffffffffffffffffffffffffffffffff1673ffffffffffffffffffffffffffffffffffffffff166320487ded67ccf0a31a221f3c9b846040518363ffffffff1660e01b8152600401610de7929190613dc1565b602060405180830381865afa158015610e04573d6000803e3d6000fd5b505050506040513d601f19601f82011682018060405250810190610e289190613e06565b905080341015610e6d576040517f08c379a0000000000000000000000000000000000000000000000000000000008152600401610e6490613e7f565b60405180910390fd5b600e60009054906101000a900473ffffffffffffffffffffffffffffffffffffffff1673ffffffffffffffffffffffffffffffffffffffff166396f4e9f98267ccf0a31a221f3c9b856040518463ffffffff1660e01b8152600401610ed3929190613dc1565b60206040518083038185885af1158015610ef1573d6000803e3d6000fd5b50505050506040513d601f19601f82011682018060405250810190610f169190613eb4565b505050505050505050565b6000600660009054906101000a900473ffffffffffffffffffffffffffffffffffffffff16905090565b610f536116a6565b6000610f5d61191a565b90508073ffffffffffffffffffffffffffffffffffffffff1663a9059cbb338373ffffffffffffffffffffffffffffffffffffffff166370a08231306040518263ffffffff1660e01b8152600401610fb59190612ecf565b602060405180830381865afa158015610fd2573d6000803e3d6000fd5b505050506040513d601f19601f82011682018060405250810190610ff69190613e06565b6040518363ffffffff1660e01b8152600401611013929190613ee1565b6020604051808303816000875af1158015611032573d6000803e3d6000fd5b505050506040513d601f19601f820116820180604052508101906110569190613f36565b5050565b6110626116a6565b80600d60008467ffffffffffffffff1667ffffffffffffffff16815260200190815260200160002060006101000a81548173ffffffffffffffffffffffffffffffffffffffff021916908373ffffffffffffffffffffffffffffffffffffffff1602179055505050565b60007f0000000000000000000000000000000000000000000000000000000000000000905090565b60006110fe61169e565b90506000600b60008473ffffffffffffffffffffffffffffffffffffffff1673ffffffffffffffffffffffffffffffffffffffff16815260200190815260200160002090508173ffffffffffffffffffffffffffffffffffffffff168160040160009054906101000a900473ffffffffffffffffffffffffffffffffffffffff1673ffffffffffffffffffffffffffffffffffffffff16146111d5576040517f08c379a00000000000000000000000000000000000000000000000000000000081526004016111cc90613faf565b60405180910390fd5b7fd7219b2d0e6067644335c8f4f82ee77c59a90a22e2916f1dce8683af8e8b07fa838560405161120692919061335a565b60405180910390a150505050565b600581565b60148351111561125e576040517f08c379a00000000000000000000000000000000000000000000000000000000081526004016112559061401b565b60405180910390fd5b600061126861169e565b9050600073ffffffffffffffffffffffffffffffffffffffff16600b60008373ffffffffffffffffffffffffffffffffffffffff1673ffffffffffffffffffffffffffffffffffffffff16815260200190815260200160002060040160009054906101000a900473ffffffffffffffffffffffffffffffffffffffff1673ffffffffffffffffffffffffffffffffffffffff160361133b576040517f08c379a0000000000000000000000000000000000000000000000000000000008152600401611332906132cc565b60405180910390fd5b600061135160075430633744199660e01b611944565b90506114756040518060400160405280600381526020017f6765740000000000000000000000000000000000000000000000000000000000815250604051806060016040528060298152602001614c596029913973__StringJoiner__________________________635c8656e0896040518263ffffffff1660e01b81526004016113dc91906141a4565b600060405180830381865af41580156113f9573d6000803e3d6000fd5b505050506040513d6000823e3d601f19601f820116820180604052508101906114229190614249565b8761142c87611975565b6114358c611975565b6114418a60ff166119a2565b604051602001611456969594939291906142f4565b60405160208183030381529060405283611a709092919063ffffffff16565b6114f46040518060400160405280600481526020017f70617468000000000000000000000000000000000000000000000000000000008152506040518060400160405280600381526020017f757269000000000000000000000000000000000000000000000000000000000081525083611a709092919063ffffffff16565b600061150282600854611aa3565b905060405180606001604052808473ffffffffffffffffffffffffffffffffffffffff1681526020018873ffffffffffffffffffffffffffffffffffffffff16815260200160001515815250600c600083815260200190815260200160002060008201518160000160006101000a81548173ffffffffffffffffffffffffffffffffffffffff021916908373ffffffffffffffffffffffffffffffffffffffff16021790555060208201518160010160006101000a81548173ffffffffffffffffffffffffffffffffffffffff021916908373ffffffffffffffffffffffffffffffffffffffff16021790555060408201518160010160146101000a81548160ff02191690831515021790555090505050505050505050565b6116236116a6565b600073ffffffffffffffffffffffffffffffffffffffff168173ffffffffffffffffffffffffffffffffffffffff1603611692576040517f08c379a000000000000000000000000000000000000000000000000000000000815260040161168990614409565b60405180910390fd5b61169b81611724565b50565b600033905090565b6116ae61169e565b73ffffffffffffffffffffffffffffffffffffffff166116cc610f21565b73ffffffffffffffffffffffffffffffffffffffff1614611722576040517f08c379a000000000000000000000000000000000000000000000000000000000815260040161171990614475565b60405180910390fd5b565b6000600660009054906101000a900473ffffffffffffffffffffffffffffffffffffffff16905081600660006101000a81548173ffffffffffffffffffffffffffffffffffffffff021916908373ffffffffffffffffffffffffffffffffffffffff1602179055508173ffffffffffffffffffffffffffffffffffffffff168173ffffffffffffffffffffffffffffffffffffffff167f8be0079c531659141344cd1fd0a4f28419497f9722a3daafe3b4186f6b6457e060405160405180910390a35050565b6000806000806000856060015180602001905181019061180a9190614543565b9450945094509450945060008590508073ffffffffffffffffffffffffffffffffffffffff16636d4195fb886020015188888888886040518763ffffffff1660e01b8152600401611860969594939291906145f6565b600060405180830381600087803b15801561187a57600080fd5b505af115801561188e573d6000803e3d6000fd5b5050505050505050505050565b60606397a657c960e01b826040516024016118b691906146a3565b604051602081830303815290604052907bffffffffffffffffffffffffffffffffffffffffffffffffffffffff19166020820180517bffffffffffffffffffffffffffffffffffffffffffffffffffffffff83818316178352505050509050919050565b6000600260009054906101000a900473ffffffffffffffffffffffffffffffffffffffff16905090565b61194c612635565b611954612635565b61196b85858584611ada909392919063ffffffff16565b9150509392505050565b606061199b8273ffffffffffffffffffffffffffffffffffffffff16601460ff16611b8a565b9050919050565b6060600060016119b184611dc6565b01905060008167ffffffffffffffff8111156119d0576119cf6127dc565b5b6040519080825280601f01601f191660200182016040528015611a025781602001600182028036833780820191505090505b509050600082602001820190505b600115611a65578080600190039150507f3031323334353637383961626364656600000000000000000000000000000000600a86061a8153600a8581611a5957611a586146be565b5b04945060008503611a10575b819350505050919050565b611a87828460800151611f1990919063ffffffff16565b611a9e818460800151611f1990919063ffffffff16565b505050565b6000611ad2600360009054906101000a900473ffffffffffffffffffffffffffffffffffffffff168484611f3e565b905092915050565b611ae2612635565b611af2856080015161010061200a565b508385600001818152505082856020019073ffffffffffffffffffffffffffffffffffffffff16908173ffffffffffffffffffffffffffffffffffffffff16815250508185604001907bffffffffffffffffffffffffffffffffffffffffffffffffffffffff191690817bffffffffffffffffffffffffffffffffffffffffffffffffffffffff191681525050849050949350505050565b606060006002836002611b9d91906146ed565b611ba7919061472f565b67ffffffffffffffff811115611bc057611bbf6127dc565b5b6040519080825280601f01601f191660200182016040528015611bf25781602001600182028036833780820191505090505b5090507f300000000000000000000000000000000000000000000000000000000000000081600081518110611c2a57611c29614763565b5b60200101907effffffffffffffffffffffffffffffffffffffffffffffffffffffffffffff1916908160001a9053507f780000000000000000000000000000000000000000000000000000000000000081600181518110611c8e57611c8d614763565b5b60200101907effffffffffffffffffffffffffffffffffffffffffffffffffffffffffffff1916908160001a90535060006001846002611cce91906146ed565b611cd8919061472f565b90505b6001811115611d78577f3031323334353637383961626364656600000000000000000000000000000000600f861660108110611d1a57611d19614763565b5b1a60f81b828281518110611d3157611d30614763565b5b60200101907effffffffffffffffffffffffffffffffffffffffffffffffffffffffffffff1916908160001a905350600485901c945080611d7190614792565b9050611cdb565b5060008414611dbc576040517f08c379a0000000000000000000000000000000000000000000000000000000008152600401611db390614807565b60405180910390fd5b8091505092915050565b600080600090507a184f03e93ff9f4daa797ed6e38ed64bf6a1f0100000000000000008310611e24577a184f03e93ff9f4daa797ed6e38ed64bf6a1f0100000000000000008381611e1a57611e196146be565b5b0492506040810190505b6d04ee2d6d415b85acef81000000008310611e61576d04ee2d6d415b85acef81000000008381611e5757611e566146be565b5b0492506020810190505b662386f26fc100008310611e9057662386f26fc100008381611e8657611e856146be565b5b0492506010810190505b6305f5e1008310611eb9576305f5e1008381611eaf57611eae6146be565b5b0492506008810190505b6127108310611ede576127108381611ed457611ed36146be565b5b0492506004810190505b60648310611f015760648381611ef757611ef66146be565b5b0492506002810190505b600a8310611f10576001810190505b80915050919050565b611f268260038351612074565b611f3981836121f990919063ffffffff16565b505050565b6000806004549050600181611f53919061472f565b6004819055506000634042994660e01b60008087600001513089604001518760018c6080015160000151604051602401611f94989796959493929190614845565b604051602081830303815290604052907bffffffffffffffffffffffffffffffffffffffffffffffffffffffff19166020820180517bffffffffffffffffffffffffffffffffffffffffffffffffffffffff83818316178352505050509050611fff8683868461221b565b925050509392505050565b6120126126a2565b600060208361202191906148ca565b1461204d5760208261203391906148ca565b602061203f91906148fb565b8261204a919061472f565b91505b81836020018181525050604051808452600081528281016020016040525082905092915050565b60178167ffffffffffffffff16116120ab576120a58160058460ff16901b60ff1617846123b090919063ffffffff16565b506121f4565b60ff8167ffffffffffffffff1611612101576120da601860058460ff16901b17846123b090919063ffffffff16565b506120fb8167ffffffffffffffff166001856123d09092919063ffffffff16565b506121f3565b61ffff8167ffffffffffffffff161161215857612131601960058460ff16901b17846123b090919063ffffffff16565b506121528167ffffffffffffffff166002856123d09092919063ffffffff16565b506121f2565b63ffffffff8167ffffffffffffffff16116121b15761218a601a60058460ff16901b17846123b090919063ffffffff16565b506121ab8167ffffffffffffffff166004856123d09092919063ffffffff16565b506121f1565b6121ce601b60058460ff16901b17846123b090919063ffffffff16565b506121ef8167ffffffffffffffff166008856123d09092919063ffffffff16565b505b5b5b5b505050565b6122016126a2565b612213838460000151518485516123f2565b905092915050565b600030846040516020016122309291906149de565b604051602081830303815290604052805190602001209050846005600083815260200190815260200160002060006101000a81548173ffffffffffffffffffffffffffffffffffffffff021916908373ffffffffffffffffffffffffffffffffffffffff160217905550807fb5e6e01e79f91267dc17b4e6314d5d4d03593d2ceee0fbb452b750bd70ea5af960405160405180910390a2600260009054906101000a900473ffffffffffffffffffffffffffffffffffffffff1673ffffffffffffffffffffffffffffffffffffffff16634000aea08685856040518463ffffffff1660e01b815260040161232693929190614a0a565b6020604051808303816000875af1158015612345573d6000803e3d6000fd5b505050506040513d601f19601f820116820180604052508101906123699190613f36565b6123a8576040517f08c379a000000000000000000000000000000000000000000000000000000000815260040161239f90614aba565b60405180910390fd5b949350505050565b6123b86126a2565b6123c883846000015151846124e1565b905092915050565b6123d86126a2565b6123e9848560000151518585612537565b90509392505050565b6123fa6126a2565b825182111561240857600080fd5b84602001518285612419919061472f565b111561244e5761244d85600261243e88602001518887612439919061472f565b6125c5565b61244891906146ed565b6125e1565b5b60008086518051876020830101935080888701111561246d5787860182525b60208701925050505b602084106124b4578051825260208261248f919061472f565b915060208161249e919061472f565b90506020846124ad91906148fb565b9350612476565b60006001856020036101000a03905080198251168184511681811785525050508692505050949350505050565b6124e96126a2565b8360200151831061250f5761250e846002866020015161250991906146ed565b6125e1565b5b8351805160208583010184815381860361252a576001820183525b5050508390509392505050565b61253f6126a2565b84602001518483612550919061472f565b1115612578576125778560028685612568919061472f565b61257291906146ed565b6125e1565b5b600060018361010061258a9190614c0d565b61259491906148fb565b905085518386820101858319825116178152815185880111156125b75784870182525b505085915050949350505050565b6000818311156125d7578290506125db565b8190505b92915050565b6000826000015190506125f4838361200a565b506125ff83826121f9565b50505050565b6040518060400160405280600073ffffffffffffffffffffffffffffffffffffffff168152602001600081525090565b6040518060a0016040528060008019168152602001600073ffffffffffffffffffffffffffffffffffffffff16815260200160007bffffffffffffffffffffffffffffffffffffffffffffffffffffffff191681526020016000815260200161269c6126a2565b81525090565b604051806040016040528060608152602001600081525090565b6000604051905090565b600080fd5b600080fd5b60007fffffffff0000000000000000000000000000000000000000000000000000000082169050919050565b612705816126d0565b811461271057600080fd5b50565b600081359050612722816126fc565b92915050565b60006020828403121561273e5761273d6126c6565b5b600061274c84828501612713565b91505092915050565b60008115159050919050565b61276a81612755565b82525050565b60006020820190506127856000830184612761565b92915050565b6000819050919050565b61279e8161278b565b81146127a957600080fd5b50565b6000813590506127bb81612795565b92915050565b600080fd5b600080fd5b6000601f19601f8301169050919050565b7f4e487b7100000000000000000000000000000000000000000000000000000000600052604160045260246000fd5b612814826127cb565b810181811067ffffffffffffffff82111715612833576128326127dc565b5b80604052505050565b60006128466126bc565b9050612852828261280b565b919050565b600067ffffffffffffffff821115612872576128716127dc565b5b61287b826127cb565b9050602081019050919050565b82818337600083830152505050565b60006128aa6128a584612857565b61283c565b9050828152602081018484840111156128c6576128c56127c6565b5b6128d1848285612888565b509392505050565b600082601f8301126128ee576128ed6127c1565b5b81356128fe848260208601612897565b91505092915050565b6000806040838503121561291e5761291d6126c6565b5b600061292c858286016127ac565b925050602083013567ffffffffffffffff81111561294d5761294c6126cb565b5b612959858286016128d9565b9150509250929050565b600080fd5b600080fd5b600073ffffffffffffffffffffffffffffffffffffffff82169050919050565b60006129988261296d565b9050919050565b6129a88161298d565b81146129b357600080fd5b50565b6000813590506129c58161299f565b92915050565b6000819050919050565b6129de816129cb565b81146129e957600080fd5b50565b6000813590506129fb816129d5565b92915050565b600060e08284031215612a1757612a16612963565b5b612a2160e061283c565b9050600082013567ffffffffffffffff811115612a4157612a40612968565b5b612a4d848285016128d9565b600083015250602082013567ffffffffffffffff811115612a7157612a70612968565b5b612a7d848285016128d9565b6020830152506040612a91848285016129b6565b604083015250606082013567ffffffffffffffff811115612ab557612ab4612968565b5b612ac1848285016128d9565b6060830152506080612ad5848285016129ec565b60808301525060a082013567ffffffffffffffff811115612af957612af8612968565b5b612b05848285016128d9565b60a08301525060c082013567ffffffffffffffff811115612b2957612b28612968565b5b612b35848285016128d9565b60c08301525092915050565b600060208284031215612b5757612b566126c6565b5b600082013567ffffffffffffffff811115612b7557612b746126cb565b5b612b8184828501612a01565b91505092915050565b600080fd5b600060a08284031215612ba557612ba4612b8a565b5b81905092915050565b600060208284031215612bc457612bc36126c6565b5b600082013567ffffffffffffffff811115612be257612be16126cb565b5b612bee84828501612b8f565b91505092915050565b612c00816129cb565b82525050565b6000602082019050612c1b6000830184612bf7565b92915050565b600060808284031215612c3757612c36612963565b5b612c41608061283c565b9050600082013567ffffffffffffffff811115612c6157612c60612968565b5b612c6d848285016128d9565b6000830152506020612c81848285016129ec565b602083015250604082013567ffffffffffffffff811115612ca557612ca4612968565b5b612cb1848285016128d9565b6040830152506060612cc5848285016129ec565b60608301525092915050565b600060208284031215612ce757612ce66126c6565b5b600082013567ffffffffffffffff811115612d0557612d046126cb565b5b612d1184828501612c21565b91505092915050565b600067ffffffffffffffff82169050919050565b612d3781612d1a565b8114612d4257600080fd5b50565b600081359050612d5481612d2e565b92915050565b600067ffffffffffffffff821115612d7557612d746127dc565b5b612d7e826127cb565b9050602081019050919050565b6000612d9e612d9984612d5a565b61283c565b905082815260208101848484011115612dba57612db96127c6565b5b612dc5848285612888565b509392505050565b600082601f830112612de257612de16127c1565b5b8135612df2848260208601612d8b565b91505092915050565b60008060008060008060c08789031215612e1857612e176126c6565b5b6000612e2689828a01612d45565b9650506020612e3789828a016129b6565b9550506040612e4889828a016129b6565b9450506060612e5989828a016129ec565b935050608087013567ffffffffffffffff811115612e7a57612e796126cb565b5b612e8689828a016128d9565b92505060a087013567ffffffffffffffff811115612ea757612ea66126cb565b5b612eb389828a01612dcd565b9150509295509295509295565b612ec98161298d565b82525050565b6000602082019050612ee46000830184612ec0565b92915050565b60008060408385031215612f0157612f006126c6565b5b6000612f0f85828601612d45565b9250506020612f20858286016129b6565b9150509250929050565b60008060408385031215612f4157612f406126c6565b5b600083013567ffffffffffffffff811115612f5f57612f5e6126cb565b5b612f6b858286016128d9565b9250506020612f7c858286016129b6565b9150509250929050565b600067ffffffffffffffff821115612fa157612fa06127dc565b5b602082029050602081019050919050565b600080fd5b6000612fca612fc584612f86565b61283c565b90508083825260208201905060208402830185811115612fed57612fec612fb2565b5b835b8181101561303457803567ffffffffffffffff811115613012576130116127c1565b5b80860161301f89826128d9565b85526020850194505050602081019050612fef565b5050509392505050565b600082601f830112613053576130526127c1565b5b8135613063848260208601612fb7565b91505092915050565b600060ff82169050919050565b6130828161306c565b811461308d57600080fd5b50565b60008135905061309f81613079565b92915050565b600080600080608085870312156130bf576130be6126c6565b5b60006130cd878288016129b6565b945050602085013567ffffffffffffffff8111156130ee576130ed6126cb565b5b6130fa8782880161303e565b935050604085013567ffffffffffffffff81111561311b5761311a6126cb565b5b613127878288016128d9565b925050606061313887828801613090565b91505092959194509250565b60006020828403121561315a576131596126c6565b5b6000613168848285016129b6565b91505092915050565b600082825260208201905092915050565b7f536f75726365206d75737420626520746865206f7261636c65206f662074686560008201527f2072657175657374000000000000000000000000000000000000000000000000602082015250565b60006131de602883613171565b91506131e982613182565b604082019050919050565b6000602082019050818103600083015261320d816131d1565b9050919050565b7f416c72656164792066756c66696c6c6564000000000000000000000000000000600082015250565b600061324a601183613171565b915061325582613214565b602082019050919050565b600060208201905081810360008301526132798161323d565b9050919050565b7f47616d65204e6f7420466f756e64000000000000000000000000000000000000600082015250565b60006132b6600e83613171565b91506132c182613280565b602082019050919050565b600060208201905081810360008301526132e5816132a9565b9050919050565b600081519050919050565b60005b838110156133155780820151818401526020810190506132fa565b60008484015250505050565b600061332c826132ec565b6133368185613171565b93506133468185602086016132f7565b61334f816127cb565b840191505092915050565b600060408201905061336f6000830185612ec0565b81810360208301526133818184613321565b90509392505050565b7f496e76616c696420706c616e0000000000000000000000000000000000000000600082015250565b60006133c0600c83613171565b91506133cb8261338a565b602082019050919050565b600060208201905081810360008301526133ef816133b3565b9050919050565b7f496e73756666696369656e742066756e64730000000000000000000000000000600082015250565b600061342c601283613171565b9150613437826133f6565b602082019050919050565b6000602082019050818103600083015261345b8161341f565b9050919050565b7f4e487b7100000000000000000000000000000000000000000000000000000000600052602260045260246000fd5b600060028204905060018216806134a957607f821691505b6020821081036134bc576134bb613462565b5b50919050565b60008190508160005260206000209050919050565b60006020601f8301049050919050565b600082821b905092915050565b6000600883026135247fffffffffffffffffffffffffffffffffffffffffffffffffffffffffffffffff826134e7565b61352e86836134e7565b95508019841693508086168417925050509392505050565b6000819050919050565b600061356b613566613561846129cb565b613546565b6129cb565b9050919050565b6000819050919050565b61358583613550565b61359961359182613572565b8484546134f4565b825550505050565b600090565b6135ae6135a1565b6135b981848461357c565b505050565b5b818110156135dd576135d26000826135a6565b6001810190506135bf565b5050565b601f821115613622576135f3816134c2565b6135fc846134d7565b8101602085101561360b578190505b61361f613617856134d7565b8301826135be565b50505b505050565b600082821c905092915050565b600061364560001984600802613627565b1980831691505092915050565b600061365e8383613634565b9150826002028217905092915050565b613677826132ec565b67ffffffffffffffff8111156136905761368f6127dc565b5b61369a8254613491565b6136a58282856135e1565b600060209050601f8311600181146136d857600084156136c6578287015190505b6136d08582613652565b865550613738565b601f1984166136e6866134c2565b60005b8281101561370e578489015182556001820191506020850194506020810190506136e9565b8683101561372b5784890151613727601f891682613634565b8355505b6001600288020188555050505b505050505050565b600061010082019050613756600083018b612ec0565b8181036020830152613768818a613321565b9050818103604083015261377c8189613321565b905081810360608301526137908188613321565b905061379f6080830187612bf7565b6137ac60a0830186612ec0565b81810360c08301526137be8185613321565b905081810360e08301526137d28184613321565b90509998505050505050505050565b600067ffffffffffffffff8211156137fc576137fb6127dc565b5b602082029050602081019050919050565b60006040828403121561382357613822612963565b5b61382d604061283c565b9050600061383d848285016129b6565b6000830152506020613851848285016129ec565b60208301525092915050565b600061387061386b846137e1565b61283c565b9050808382526020820190506040840283018581111561389357613892612fb2565b5b835b818110156138bc57806138a8888261380d565b845260208401935050604081019050613895565b5050509392505050565b600082601f8301126138db576138da6127c1565b5b81356138eb84826020860161385d565b91505092915050565b600060a0828403121561390a57613909612963565b5b61391460a061283c565b90506000613924848285016127ac565b600083015250602061393884828501612d45565b602083015250604082013567ffffffffffffffff81111561395c5761395b612968565b5b61396884828501612dcd565b604083015250606082013567ffffffffffffffff81111561398c5761398b612968565b5b61399884828501612dcd565b606083015250608082013567ffffffffffffffff8111156139bc576139bb612968565b5b6139c8848285016138c6565b60808301525092915050565b60006139e036836138f4565b9050919050565b7f4e487b7100000000000000000000000000000000000000000000000000000000600052601160045260246000fd5b6000613a21826129cb565b91507fffffffffffffffffffffffffffffffffffffffffffffffffffffffffffffffff8203613a5357613a526139e7565b5b600182019050919050565b600060a082019050613a736000830188612bf7565b8181036020830152613a858187613321565b9050613a946040830186612bf7565b8181036060830152613aa68185613321565b9050613ab56080830184612bf7565b9695505050505050565b7f436861696e206e6f7420737570706f7274656400000000000000000000000000600082015250565b6000613af5601383613171565b9150613b0082613abf565b602082019050919050565b60006020820190508181036000830152613b2481613ae8565b9050919050565b600081519050919050565b600082825260208201905092915050565b6000613b5282613b2b565b613b5c8185613b36565b9350613b6c8185602086016132f7565b613b75816127cb565b840191505092915050565b600060a082019050613b956000830188612ec0565b613ba26020830187612ec0565b613baf6040830186612bf7565b8181036060830152613bc18185613321565b90508181036080830152613bd58184613b47565b90509695505050505050565b613bea81612d1a565b82525050565b600082825260208201905092915050565b6000613c0c82613b2b565b613c168185613bf0565b9350613c268185602086016132f7565b613c2f816127cb565b840191505092915050565b600081519050919050565b600082825260208201905092915050565b6000819050602082019050919050565b613c6f8161298d565b82525050565b613c7e816129cb565b82525050565b604082016000820151613c9a6000850182613c66565b506020820151613cad6020850182613c75565b50505050565b6000613cbf8383613c84565b60408301905092915050565b6000602082019050919050565b6000613ce382613c3a565b613ced8185613c45565b9350613cf883613c56565b8060005b83811015613d29578151613d108882613cb3565b9750613d1b83613ccb565b925050600181019050613cfc565b5085935050505092915050565b600060a0830160008301518482036000860152613d538282613c01565b91505060208301518482036020860152613d6d8282613c01565b91505060408301518482036040860152613d878282613cd8565b9150506060830151613d9c6060860182613c66565b5060808301518482036080860152613db48282613c01565b9150508091505092915050565b6000604082019050613dd66000830185613be1565b8181036020830152613de88184613d36565b90509392505050565b600081519050613e00816129d5565b92915050565b600060208284031215613e1c57613e1b6126c6565b5b6000613e2a84828501613df1565b91505092915050565b7f496e73756666696369656e742066656500000000000000000000000000000000600082015250565b6000613e69601083613171565b9150613e7482613e33565b602082019050919050565b60006020820190508181036000830152613e9881613e5c565b9050919050565b600081519050613eae81612795565b92915050565b600060208284031215613eca57613ec96126c6565b5b6000613ed884828501613e9f565b91505092915050565b6000604082019050613ef66000830185612ec0565b613f036020830184612bf7565b9392505050565b613f1381612755565b8114613f1e57600080fd5b50565b600081519050613f3081613f0a565b92915050565b600060208284031215613f4c57613f4b6126c6565b5b6000613f5a84828501613f21565b91505092915050565b7f556e417574686f72697a65640000000000000000000000000000000000000000600082015250565b6000613f99600c83613171565b9150613fa482613f63565b602082019050919050565b60006020820190508181036000830152613fc881613f8c565b9050919050565b7f546f6f206d616e79206174747269627574657300000000000000000000000000600082015250565b6000614005601383613171565b915061401082613fcf565b602082019050919050565b6000602082019050818103600083015261403481613ff8565b9050919050565b600081519050919050565b600082825260208201905092915050565b6000819050602082019050919050565b600082825260208201905092915050565b6000614083826132ec565b61408d8185614067565b935061409d8185602086016132f7565b6140a6816127cb565b840191505092915050565b60006140bd8383614078565b905092915050565b6000602082019050919050565b60006140dd8261403b565b6140e78185614046565b9350836020820285016140f985614057565b8060005b85811015614135578484038952815161411685826140b1565b9450614121836140c5565b925060208a019950506001810190506140fd565b50829750879550505050505092915050565b600082825260208201905092915050565b7f2c00000000000000000000000000000000000000000000000000000000000000600082015250565b600061418e600183614147565b915061419982614158565b602082019050919050565b600060408201905081810360008301526141be81846140d2565b905081810360208301526141d181614181565b905092915050565b60006141ec6141e784612857565b61283c565b905082815260208101848484011115614208576142076127c6565b5b6142138482856132f7565b509392505050565b600082601f8301126142305761422f6127c1565b5b81516142408482602086016141d9565b91505092915050565b60006020828403121561425f5761425e6126c6565b5b600082015167ffffffffffffffff81111561427d5761427c6126cb565b5b6142898482850161421b565b91505092915050565b600081905092915050565b60006142a8826132ec565b6142b28185614292565b93506142c28185602086016132f7565b80840191505092915050565b7f2f00000000000000000000000000000000000000000000000000000000000000815250565b6000614300828961429d565b915061430b826142ce565b60018201915061431b828861429d565b9150614326826142ce565b600182019150614336828761429d565b9150614341826142ce565b600182019150614351828661429d565b915061435c826142ce565b60018201915061436c828561429d565b9150614377826142ce565b600182019150614387828461429d565b9150819050979650505050505050565b7f4f776e61626c653a206e6577206f776e657220697320746865207a65726f206160008201527f6464726573730000000000000000000000000000000000000000000000000000602082015250565b60006143f3602683613171565b91506143fe82614397565b604082019050919050565b60006020820190508181036000830152614422816143e6565b9050919050565b7f4f776e61626c653a2063616c6c6572206973206e6f7420746865206f776e6572600082015250565b600061445f602083613171565b915061446a82614429565b602082019050919050565b6000602082019050818103600083015261448e81614452565b9050919050565b60006144a08261296d565b9050919050565b6144b081614495565b81146144bb57600080fd5b50565b6000815190506144cd816144a7565b92915050565b60006144e66144e184612d5a565b61283c565b905082815260208101848484011115614502576145016127c6565b5b61450d8482856132f7565b509392505050565b600082601f83011261452a576145296127c1565b5b815161453a8482602086016144d3565b91505092915050565b600080600080600060a0868803121561455f5761455e6126c6565b5b600061456d888289016144be565b955050602061457e888289016144be565b945050604061458f88828901613df1565b935050606086015167ffffffffffffffff8111156145b0576145af6126cb565b5b6145bc8882890161421b565b925050608086015167ffffffffffffffff8111156145dd576145dc6126cb565b5b6145e988828901614515565b9150509295509295909350565b600060c08201905061460b6000830189613be1565b6146186020830188612ec0565b6146256040830187612ec0565b6146326060830186612bf7565b81810360808301526146448185613321565b905081810360a08301526146588184613b47565b9050979650505050505050565b61466e81612755565b82525050565b60408201600082015161468a6000850182613c75565b50602082015161469d6020850182614665565b50505050565b60006040820190506146b86000830184614674565b92915050565b7f4e487b7100000000000000000000000000000000000000000000000000000000600052601260045260246000fd5b60006146f8826129cb565b9150614703836129cb565b9250828202614711816129cb565b91508282048414831517614728576147276139e7565b5b5092915050565b600061473a826129cb565b9150614745836129cb565b925082820190508082111561475d5761475c6139e7565b5b92915050565b7f4e487b7100000000000000000000000000000000000000000000000000000000600052603260045260246000fd5b600061479d826129cb565b9150600082036147b0576147af6139e7565b5b600182039050919050565b7f537472696e67733a20686578206c656e67746820696e73756666696369656e74600082015250565b60006147f1602083613171565b91506147fc826147bb565b602082019050919050565b60006020820190508181036000830152614820816147e4565b9050919050565b6148308161278b565b82525050565b61483f816126d0565b82525050565b60006101008201905061485b600083018b612ec0565b614868602083018a612bf7565b6148756040830189614827565b6148826060830188612ec0565b61488f6080830187614836565b61489c60a0830186612bf7565b6148a960c0830185612bf7565b81810360e08301526148bb8184613b47565b90509998505050505050505050565b60006148d5826129cb565b91506148e0836129cb565b9250826148f0576148ef6146be565b5b828206905092915050565b6000614906826129cb565b9150614911836129cb565b9250828203905081811115614929576149286139e7565b5b92915050565b600061494a6149456149408461296d565b613546565b61296d565b9050919050565b600061495c8261492f565b9050919050565b600061496e82614951565b9050919050565b60008160601b9050919050565b600061498d82614975565b9050919050565b600061499f82614982565b9050919050565b6149b76149b282614963565b614994565b82525050565b6000819050919050565b6149d86149d3826129cb565b6149bd565b82525050565b60006149ea82856149a6565b6014820191506149fa82846149c7565b6020820191508190509392505050565b6000606082019050614a1f6000830186612ec0565b614a2c6020830185612bf7565b8181036040830152614a3e8184613b47565b9050949350505050565b7f756e61626c6520746f207472616e73666572416e6443616c6c20746f206f726160008201527f636c650000000000000000000000000000000000000000000000000000000000602082015250565b6000614aa4602383613171565b9150614aaf82614a48565b604082019050919050565b60006020820190508181036000830152614ad381614a97565b9050919050565b60008160011c9050919050565b6000808291508390505b6001851115614b3157808604811115614b0d57614b0c6139e7565b5b6001851615614b1c5780820291505b8081029050614b2a85614ada565b9450614af1565b94509492505050565b600082614b4a5760019050614c06565b81614b585760009050614c06565b8160018114614b6e5760028114614b7857614ba7565b6001915050614c06565b60ff841115614b8a57614b896139e7565b5b8360020a915084821115614ba157614ba06139e7565b5b50614c06565b5060208310610133831016604e8410600b8410161715614bdc5782820a905083811115614bd757614bd66139e7565b5b614c06565b614be98484846001614ae7565b92509050818404811115614c0057614bff6139e7565b5b81810290505b9392505050565b6000614c18826129cb565b9150614c23836129cb565b9250614c507fffffffffffffffffffffffffffffffffffffffffffffffffffffffffffffffff8484614b3a565b90509291505056fe68747470733a2f2f6b616e7661732d6469356a2e6f6e72656e6465722e636f6d2f67656e6572617465a26469706673582212206749ad00fb23050ac1e93e7899ff7c7f600ac7ef82a0f1d1899badbe9e9323fc64736f6c63430008110033",
  "immutableReferences": {
    "14": [
      {
        "length": 32,
        "start": 2528
      },
      {
        "length": 32,
        "start": 4304
      }
    ]
  },
  "source": "// SPDX-License-Identifier: MIT\r\npragma solidity ^0.8.17;\r\n\r\nimport {Assets} from \"./libraries/Assets.sol\";\r\nimport {Params} from \"./libraries/Params.sol\";\r\nimport {IKanvasAvax} from \"./interfaces/IKanvasAvax.sol\";\r\nimport {IKanvasGame} from \"./interfaces/IKanvasGame.sol\";\r\nimport {IKanvasInteropGame} from \"./interfaces/IKanvasInteropGame.sol\";\r\nimport {StringJoiner} from \"./libraries/StringJoiner.sol\";\r\n\r\nimport {Strings} from \"@openzeppelin/contracts/utils/Strings.sol\";\r\nimport {Ownable} from \"@openzeppelin/contracts/access/Ownable.sol\";\r\nimport {Context} from \"@openzeppelin/contracts/utils/Context.sol\";\r\n\r\nimport {CCIPReceiver} from \"@chainlink/contracts-ccip/src/v0.8/ccip/applications/CCIPReceiver.sol\";\r\nimport {IRouterClient} from \"@chainlink/contracts-ccip/src/v0.8/ccip/interfaces/IRouterClient.sol\";\r\nimport {Client} from \"@chainlink/contracts-ccip/src/v0.8/ccip/libraries/Client.sol\";\r\nimport {ChainlinkClient, Chainlink, LinkTokenInterface} from \"@chainlink/contracts/src/v0.8/ChainlinkClient.sol\";\r\n\r\ncontract KanvasAvax is\r\n    IKanvasAvax,\r\n    Context,\r\n    CCIPReceiver,\r\n    ChainlinkClient,\r\n    Ownable\r\n{\r\n    uint64 private constant AVAX_SELECTOR = 14767482510784806043;\r\n    uint256 public constant MAX_PROPERTIES_LEN = 20;\r\n    uint256 public constant MAX_TEMPLATES_LEN = 5;\r\n    using Chainlink for Chainlink.Request;\r\n\r\n    string private constant BASE_URL = \"https://kanvas-di5j.onrender.com/generate\";\r\n\r\n    bytes32 private jobId;\r\n    uint256 private fee;\r\n\r\n    uint256 private _planId;\r\n    mapping(uint256 => Assets.Plan) private _plans;\r\n\r\n    mapping(address => Assets.Game) private _games;\r\n\r\n    mapping(bytes32 => Assets.Request) private _requests;\r\n\r\n    mapping(uint64 => address) private _interops;\r\n\r\n    IRouterClient private _router;\r\n\r\n    constructor(address receiver) CCIPReceiver(receiver) Ownable() {\r\n        setChainlinkToken(0x0b9d5D9136855f6FEc3c0993feE6E9CE8a297846);\r\n        setChainlinkOracle(0x022EEA14A6010167ca026B32576D6686dD7e85d2);\r\n        jobId = \"7d80a6386ef543a3abb52817f6707e3b\";\r\n        fee = (1 * LINK_DIVISIBILITY) / 10;\r\n\r\n        _router = IRouterClient(getRouter());\r\n    }\r\n\r\n    function createGame(Params.Game memory params) external payable {\r\n        require(_plans[params.plan].limit != 0, \"Invalid plan\");\r\n        require(msg.value == _plans[params.plan].cost, \"Insufficient funds\");\r\n\r\n        _games[params.gameId] = Assets.Game({\r\n            name: params.name,\r\n            description: params.description,\r\n            avatar: params.avatar,\r\n            plan: params.plan,\r\n            creator: _msgSender()\r\n        });\r\n\r\n        emit GameCreated(\r\n            params.gameId,\r\n            params.name,\r\n            params.description,\r\n            params.avatar,\r\n            params.plan,\r\n            _msgSender(),\r\n            params.email,\r\n            params.website\r\n        );\r\n    }\r\n\r\n    function addTemplate(string memory templateUri, address gameId) external {\r\n        address creator = _msgSender();\r\n\r\n        Assets.Game storage game = _games[gameId];\r\n\r\n        require(game.creator == creator, \"UnAuthorized\");\r\n\r\n        emit TemplateAdded(gameId, templateUri);\r\n    }\r\n\r\n    function _generateUri(\r\n        address playerId,\r\n        string[] memory properties,\r\n        string memory fields,\r\n        uint8 templateId\r\n    ) external override {\r\n        require(properties.length <= MAX_PROPERTIES_LEN, \"Too many attributes\");\r\n\r\n        address gameId = _msgSender();\r\n        require(_games[gameId].creator != address(0), \"Game Not Found\");\r\n\r\n        Chainlink.Request memory req = buildChainlinkRequest(\r\n            jobId,\r\n            address(this),\r\n            this.fulfill.selector\r\n        );\r\n\r\n        // Set the URL to perform the GET request on\r\n        // https://server.com/generete/properties/fields/gameid/playerid\r\n        req.add(\r\n            \"get\",\r\n            string.concat(\r\n                BASE_URL,\r\n                \"/\",\r\n                StringJoiner.joinStrings(properties, \",\"),\r\n                \"/\",\r\n                fields,\r\n                \"/\",\r\n                Strings.toHexString(gameId),\r\n                \"/\",\r\n                Strings.toHexString(playerId),\r\n                \"/\",\r\n                Strings.toString(templateId)\r\n            )\r\n        );\r\n\r\n        // Chainlink nodes 1.0.0 and later support this format\r\n        req.add(\"path\", \"uri\");\r\n\r\n        // Sends the request\r\n        bytes32 requestId = sendChainlinkRequest(req, fee);\r\n\r\n        _requests[requestId] = Assets.Request({\r\n            gameId: gameId,\r\n            playerId: playerId,\r\n            fulfilled: false\r\n        });\r\n    }\r\n\r\n    function updateInterop(\r\n        uint64 chainSelector,\r\n        address kanvasRouter\r\n    ) external onlyOwner {\r\n        _interops[chainSelector] = kanvasRouter;\r\n    }\r\n\r\n    /** Receive the response in the form of string  */\r\n    function fulfill(\r\n        bytes32 requestId,\r\n        string memory uri\r\n    ) public recordChainlinkFulfillment(requestId) {\r\n        Assets.Request storage request = _requests[requestId];\r\n        require(!request.fulfilled, \"Already fulfilled\");\r\n\r\n        request.fulfilled = true;\r\n\r\n        require(_games[request.gameId].creator != address(0), \"Game Not Found\");\r\n\r\n        IKanvasGame game = IKanvasGame(request.gameId);\r\n        game._receiveUri(request.playerId, uri);\r\n    }\r\n\r\n    /** Allow withdraw of Link tokens from the contract */\r\n    function withdrawLink() public onlyOwner {\r\n        LinkTokenInterface link = LinkTokenInterface(chainlinkTokenAddress());\r\n        link.transfer(msg.sender, link.balanceOf(address(this)));\r\n    }\r\n\r\n    function _transferTo(\r\n        uint64 chainSelector,\r\n        address gameId,\r\n        address playerId,\r\n        uint256 tokenId,\r\n        string memory uri,\r\n        bytes memory data\r\n    ) external payable {\r\n        require(_interops[chainSelector] != address(0), \"Chain not supported\");\r\n\r\n        // Create an EVM2AnyMessage struct in memory with necessary information for sending a cross-chain message\r\n        Client.EVM2AnyMessage memory message = Client.EVM2AnyMessage({\r\n            // ABI-encoded receiver address\r\n            receiver: abi.encode(_interops[chainSelector]),\r\n            // ABI-encoded string message\r\n            data: abi.encode(gameId, playerId, tokenId, uri, data),\r\n            // Empty array indicating no tokens are being sent\r\n            tokenAmounts: new Client.EVMTokenAmount[](0),\r\n            // Additional arguments, setting gas limit and non-strict sequency mode\r\n            extraArgs: Client._argsToBytes(\r\n                Client.EVMExtraArgsV1({gasLimit: 400_000, strict: false})\r\n            ),\r\n            // Setting feeToken to zero address, indicating native asset will be used for fees\r\n            feeToken: address(0)\r\n        });\r\n\r\n        // Get the fee required to send the message\r\n        uint256 fees = _router.getFee(AVAX_SELECTOR, message);\r\n\r\n        require(msg.value >= fees, \"Insufficient fee\");\r\n\r\n        // Send the message through the router and store the returned message ID\r\n        _router.ccipSend{value: fees}(AVAX_SELECTOR, message);\r\n    }\r\n\r\n    // handle a received message\r\n    function _ccipReceive(\r\n        Client.Any2EVMMessage memory message\r\n    ) internal override {\r\n        (\r\n            address gameId,\r\n            address playerId,\r\n            uint256 tokenId,\r\n            string memory uri,\r\n            bytes memory data\r\n        ) = abi.decode(\r\n                message.data,\r\n                (address, address, uint256, string, bytes)\r\n            );\r\n\r\n        IKanvasInteropGame game = IKanvasInteropGame(gameId);\r\n        game._receiveFrom(\r\n            message.sourceChainSelector,\r\n            gameId,\r\n            playerId,\r\n            tokenId,\r\n            uri,\r\n            data\r\n        );\r\n    }\r\n\r\n    /** Create plans */\r\n    function createPlan(Params.Plan memory params) external onlyOwner {\r\n        _planId++;\r\n\r\n        _plans[_planId] = Assets.Plan({\r\n            name: params.name,\r\n            cost: params.cost,\r\n            color: params.color,\r\n            limit: params.limit\r\n        });\r\n\r\n        emit PlanCreated(\r\n            _planId,\r\n            params.name,\r\n            params.cost,\r\n            params.color,\r\n            params.limit\r\n        );\r\n    }\r\n}\r\n",
  "sourcePath": "C:\\Users\\DELL\\Documents\\kanvas\\blockchain\\contracts\\KanvasAvax.sol",
  "compiler": {
    "name": "solc",
    "version": "0.8.17+commit.8df45f5f.Emscripten.clang"
  },
  "schemaVersion": "3.4.11",
  "updatedAt": "2023-12-03T07:58:18.345Z",
  "networkType": "ethereum",
  "devdoc": {
    "kind": "dev",
    "methods": {
      "ccipReceive((bytes32,uint64,bytes,bytes,(address,uint256)[]))": {
        "details": "Note ensure you check the msg.sender is the OffRampRouter",
        "params": {
          "message": "CCIP Message"
        }
      },
      "getRouter()": {
        "returns": {
          "_0": "i_router address"
        }
      },
      "owner()": {
        "details": "Returns the address of the current owner."
      },
      "renounceOwnership()": {
        "details": "Leaves the contract without owner. It will not be possible to call `onlyOwner` functions. Can only be called by the current owner. NOTE: Renouncing ownership will leave the contract without an owner, thereby disabling any functionality that is only available to the owner."
      },
      "supportsInterface(bytes4)": {
        "params": {
          "interfaceId": "The interfaceId to check"
        },
        "returns": {
          "_0": "true if the interfaceId is supported"
        }
      },
      "transferOwnership(address)": {
        "details": "Transfers ownership of the contract to a new account (`newOwner`). Can only be called by the current owner."
      }
    },
    "version": 1
  },
  "userdoc": {
    "kind": "user",
    "methods": {
      "ccipReceive((bytes32,uint64,bytes,bytes,(address,uint256)[]))": {
        "notice": "Called by the Router to deliver a message. If this reverts, any token transfers also revert. The message will move to a FAILED state and become available for manual execution."
      },
      "createPlan((string,uint256,string,uint256))": {
        "notice": "Create plans "
      },
      "fulfill(bytes32,string)": {
        "notice": "Receive the response in the form of string  "
      },
      "getRouter()": {
        "notice": "Return the current router"
      },
      "supportsInterface(bytes4)": {
        "notice": "IERC165 supports an interfaceId"
      },
      "withdrawLink()": {
        "notice": "Allow withdraw of Link tokens from the contract "
      }
    },
    "version": 1
  }
}