{
  "contractName": "KanvasAvax",
  "abi": [
    {
      "inputs": [
        {
          "internalType": "address",
          "name": "ccipReceiver",
          "type": "address"
        },
        {
          "internalType": "address",
          "name": "functionOracle",
          "type": "address"
        }
      ],
      "stateMutability": "nonpayable",
      "type": "constructor"
    },
    {
      "inputs": [],
      "name": "EmptyArgs",
      "type": "error"
    },
    {
      "inputs": [],
      "name": "EmptySource",
      "type": "error"
    },
    {
      "inputs": [
        {
          "internalType": "address",
          "name": "router",
          "type": "address"
        }
      ],
      "name": "InvalidRouter",
      "type": "error"
    },
    {
      "inputs": [],
      "name": "NoInlineSecrets",
      "type": "error"
    },
    {
      "inputs": [],
      "name": "OnlyRouterCanFulfill",
      "type": "error"
    },
    {
      "anonymous": false,
      "inputs": [
        {
          "indexed": false,
          "internalType": "address",
          "name": "gameId",
          "type": "address"
        },
        {
          "indexed": false,
          "internalType": "string",
          "name": "name",
          "type": "string"
        },
        {
          "indexed": false,
          "internalType": "string",
          "name": "description",
          "type": "string"
        },
        {
          "indexed": false,
          "internalType": "string",
          "name": "avatar",
          "type": "string"
        },
        {
          "indexed": false,
          "internalType": "uint256",
          "name": "plan",
          "type": "uint256"
        },
        {
          "indexed": false,
          "internalType": "address",
          "name": "creator",
          "type": "address"
        },
        {
          "indexed": false,
          "internalType": "string",
          "name": "email",
          "type": "string"
        },
        {
          "indexed": false,
          "internalType": "string",
          "name": "website",
          "type": "string"
        }
      ],
      "name": "GameCreated",
      "type": "event"
    },
    {
      "anonymous": false,
      "inputs": [
        {
          "indexed": false,
          "internalType": "bytes32",
          "name": "requestId",
          "type": "bytes32"
        },
        {
          "indexed": false,
          "internalType": "address",
          "name": "gameId",
          "type": "address"
        },
        {
          "indexed": false,
          "internalType": "address",
          "name": "playerId",
          "type": "address"
        },
        {
          "indexed": false,
          "internalType": "enum Assets.EventType",
          "name": "eventType",
          "type": "uint8"
        },
        {
          "indexed": false,
          "internalType": "bytes",
          "name": "data",
          "type": "bytes"
        }
      ],
      "name": "GameEvent",
      "type": "event"
    },
    {
      "anonymous": false,
      "inputs": [
        {
          "indexed": true,
          "internalType": "address",
          "name": "previousOwner",
          "type": "address"
        },
        {
          "indexed": true,
          "internalType": "address",
          "name": "newOwner",
          "type": "address"
        }
      ],
      "name": "OwnershipTransferred",
      "type": "event"
    },
    {
      "anonymous": false,
      "inputs": [
        {
          "indexed": false,
          "internalType": "uint256",
          "name": "planId",
          "type": "uint256"
        },
        {
          "indexed": false,
          "internalType": "string",
          "name": "name",
          "type": "string"
        },
        {
          "indexed": false,
          "internalType": "uint256",
          "name": "cost",
          "type": "uint256"
        },
        {
          "indexed": false,
          "internalType": "string",
          "name": "color",
          "type": "string"
        },
        {
          "indexed": false,
          "internalType": "uint256",
          "name": "limit",
          "type": "uint256"
        }
      ],
      "name": "PlanCreated",
      "type": "event"
    },
    {
      "anonymous": false,
      "inputs": [
        {
          "indexed": true,
          "internalType": "bytes32",
          "name": "id",
          "type": "bytes32"
        }
      ],
      "name": "RequestFulfilled",
      "type": "event"
    },
    {
      "anonymous": false,
      "inputs": [
        {
          "indexed": true,
          "internalType": "bytes32",
          "name": "id",
          "type": "bytes32"
        }
      ],
      "name": "RequestSent",
      "type": "event"
    },
    {
      "anonymous": false,
      "inputs": [
        {
          "indexed": false,
          "internalType": "address",
          "name": "gameId",
          "type": "address"
        },
        {
          "indexed": false,
          "internalType": "string",
          "name": "templateUri",
          "type": "string"
        }
      ],
      "name": "TemplateAdded",
      "type": "event"
    },
    {
      "inputs": [],
      "name": "MAX_PROPERTIES_LEN",
      "outputs": [
        {
          "internalType": "uint256",
          "name": "",
          "type": "uint256"
        }
      ],
      "stateMutability": "view",
      "type": "function"
    },
    {
      "inputs": [
        {
          "components": [
            {
              "internalType": "bytes32",
              "name": "messageId",
              "type": "bytes32"
            },
            {
              "internalType": "uint64",
              "name": "sourceChainSelector",
              "type": "uint64"
            },
            {
              "internalType": "bytes",
              "name": "sender",
              "type": "bytes"
            },
            {
              "internalType": "bytes",
              "name": "data",
              "type": "bytes"
            },
            {
              "components": [
                {
                  "internalType": "address",
                  "name": "token",
                  "type": "address"
                },
                {
                  "internalType": "uint256",
                  "name": "amount",
                  "type": "uint256"
                }
              ],
              "internalType": "struct Client.EVMTokenAmount[]",
              "name": "destTokenAmounts",
              "type": "tuple[]"
            }
          ],
          "internalType": "struct Client.Any2EVMMessage",
          "name": "message",
          "type": "tuple"
        }
      ],
      "name": "ccipReceive",
      "outputs": [],
      "stateMutability": "nonpayable",
      "type": "function"
    },
    {
      "inputs": [],
      "name": "getRouter",
      "outputs": [
        {
          "internalType": "address",
          "name": "",
          "type": "address"
        }
      ],
      "stateMutability": "view",
      "type": "function"
    },
    {
      "inputs": [
        {
          "internalType": "bytes32",
          "name": "requestId",
          "type": "bytes32"
        },
        {
          "internalType": "bytes",
          "name": "response",
          "type": "bytes"
        },
        {
          "internalType": "bytes",
          "name": "err",
          "type": "bytes"
        }
      ],
      "name": "handleOracleFulfillment",
      "outputs": [],
      "stateMutability": "nonpayable",
      "type": "function"
    },
    {
      "inputs": [],
      "name": "owner",
      "outputs": [
        {
          "internalType": "address",
          "name": "",
          "type": "address"
        }
      ],
      "stateMutability": "view",
      "type": "function"
    },
    {
      "inputs": [],
      "name": "renounceOwnership",
      "outputs": [],
      "stateMutability": "nonpayable",
      "type": "function"
    },
    {
      "inputs": [
        {
          "internalType": "bytes4",
          "name": "interfaceId",
          "type": "bytes4"
        }
      ],
      "name": "supportsInterface",
      "outputs": [
        {
          "internalType": "bool",
          "name": "",
          "type": "bool"
        }
      ],
      "stateMutability": "pure",
      "type": "function"
    },
    {
      "inputs": [
        {
          "internalType": "address",
          "name": "newOwner",
          "type": "address"
        }
      ],
      "name": "transferOwnership",
      "outputs": [],
      "stateMutability": "nonpayable",
      "type": "function"
    },
    {
      "inputs": [
        {
          "internalType": "bytes32",
          "name": "newDonId",
          "type": "bytes32"
        }
      ],
      "name": "updateDonId",
      "outputs": [],
      "stateMutability": "nonpayable",
      "type": "function"
    },
    {
      "inputs": [
        {
          "internalType": "string",
          "name": "newSourceCode",
          "type": "string"
        }
      ],
      "name": "updateSourceCode",
      "outputs": [],
      "stateMutability": "nonpayable",
      "type": "function"
    },
    {
      "inputs": [
        {
          "internalType": "uint32",
          "name": "newLimit",
          "type": "uint32"
        }
      ],
      "name": "updateGasLimit",
      "outputs": [],
      "stateMutability": "nonpayable",
      "type": "function"
    },
    {
      "inputs": [
        {
          "internalType": "uint64",
          "name": "newSubscriptionId",
          "type": "uint64"
        }
      ],
      "name": "updateSubscriptionId",
      "outputs": [],
      "stateMutability": "nonpayable",
      "type": "function"
    },
    {
      "inputs": [
        {
          "components": [
            {
              "internalType": "string",
              "name": "name",
              "type": "string"
            },
            {
              "internalType": "string",
              "name": "description",
              "type": "string"
            },
            {
              "internalType": "address",
              "name": "gameId",
              "type": "address"
            },
            {
              "internalType": "string",
              "name": "avatar",
              "type": "string"
            },
            {
              "internalType": "uint256",
              "name": "plan",
              "type": "uint256"
            },
            {
              "internalType": "string",
              "name": "email",
              "type": "string"
            },
            {
              "internalType": "string",
              "name": "website",
              "type": "string"
            }
          ],
          "internalType": "struct Params.Game",
          "name": "params",
          "type": "tuple"
        }
      ],
      "name": "createGame",
      "outputs": [],
      "stateMutability": "payable",
      "type": "function"
    },
    {
      "inputs": [
        {
          "internalType": "string",
          "name": "templateUri",
          "type": "string"
        },
        {
          "internalType": "address",
          "name": "gameId",
          "type": "address"
        }
      ],
      "name": "addTemplate",
      "outputs": [],
      "stateMutability": "nonpayable",
      "type": "function"
    },
    {
      "inputs": [
        {
          "internalType": "address",
          "name": "playerId",
          "type": "address"
        },
        {
          "internalType": "string[]",
          "name": "props",
          "type": "string[]"
        },
        {
          "internalType": "string",
          "name": "fields",
          "type": "string"
        },
        {
          "internalType": "uint8",
          "name": "templateId",
          "type": "uint8"
        }
      ],
      "name": "_generateUri",
      "outputs": [],
      "stateMutability": "payable",
      "type": "function"
    },
    {
      "inputs": [
        {
          "internalType": "uint64",
          "name": "chainSelector",
          "type": "uint64"
        },
        {
          "internalType": "address",
          "name": "kanvasRouter",
          "type": "address"
        }
      ],
      "name": "updateInterop",
      "outputs": [],
      "stateMutability": "nonpayable",
      "type": "function"
    },
    {
      "inputs": [
        {
          "internalType": "uint64",
          "name": "chainSelector",
          "type": "uint64"
        },
        {
          "internalType": "address",
          "name": "gameId",
          "type": "address"
        },
        {
          "internalType": "address",
          "name": "playerId",
          "type": "address"
        },
        {
          "internalType": "uint256",
          "name": "tokenId",
          "type": "uint256"
        },
        {
          "internalType": "string",
          "name": "uri",
          "type": "string"
        },
        {
          "internalType": "bytes",
          "name": "data",
          "type": "bytes"
        }
      ],
      "name": "_transferTo",
      "outputs": [],
      "stateMutability": "payable",
      "type": "function"
    },
    {
      "inputs": [],
      "name": "_generateFee",
      "outputs": [
        {
          "internalType": "uint256",
          "name": "",
          "type": "uint256"
        }
      ],
      "stateMutability": "view",
      "type": "function"
    },
    {
      "inputs": [],
      "name": "_bridgeFee",
      "outputs": [
        {
          "internalType": "uint256",
          "name": "",
          "type": "uint256"
        }
      ],
      "stateMutability": "view",
      "type": "function"
    },
    {
      "inputs": [
        {
          "components": [
            {
              "internalType": "string",
              "name": "name",
              "type": "string"
            },
            {
              "internalType": "uint256",
              "name": "cost",
              "type": "uint256"
            },
            {
              "internalType": "string",
              "name": "color",
              "type": "string"
            },
            {
              "internalType": "uint256",
              "name": "limit",
              "type": "uint256"
            }
          ],
          "internalType": "struct Params.Plan",
          "name": "params",
          "type": "tuple"
        }
      ],
      "name": "createPlan",
      "outputs": [],
      "stateMutability": "nonpayable",
      "type": "function"
    }
  ],
  "bytecode": "0x60c0604052620493e0600260006101000a81548163ffffffff021916908363ffffffff16021790555061062c600260046101000a81548167ffffffffffffffff021916908367ffffffffffffffff1602179055507f66756e2d6176616c616e6368652d66756a692d3100000000000000000000000060001b600355600060045560006005553480156200009157600080fd5b5060405162005619380380620056198339818101604052810190620000b7919062000350565b8082600073ffffffffffffffffffffffffffffffffffffffff168173ffffffffffffffffffffffffffffffffffffffff16036200012e5760006040517fd7f73334000000000000000000000000000000000000000000000000000000008152600401620001259190620003a8565b60405180910390fd5b8073ffffffffffffffffffffffffffffffffffffffff1660808173ffffffffffffffffffffffffffffffffffffffff1681525050508073ffffffffffffffffffffffffffffffffffffffff1660a08173ffffffffffffffffffffffffffffffffffffffff168152505050620001b8620001ac6200021060201b60201c565b6200021860201b60201c565b620001c8620002dc60201b60201c565b600b60006101000a81548173ffffffffffffffffffffffffffffffffffffffff021916908373ffffffffffffffffffffffffffffffffffffffff1602179055505050620003c5565b600033905090565b60008060009054906101000a900473ffffffffffffffffffffffffffffffffffffffff169050816000806101000a81548173ffffffffffffffffffffffffffffffffffffffff021916908373ffffffffffffffffffffffffffffffffffffffff1602179055508173ffffffffffffffffffffffffffffffffffffffff168173ffffffffffffffffffffffffffffffffffffffff167f8be0079c531659141344cd1fd0a4f28419497f9722a3daafe3b4186f6b6457e060405160405180910390a35050565b6000608051905090565b600080fd5b600073ffffffffffffffffffffffffffffffffffffffff82169050919050565b60006200031882620002eb565b9050919050565b6200032a816200030b565b81146200033657600080fd5b50565b6000815190506200034a816200031f565b92915050565b600080604083850312156200036a5762000369620002e6565b5b60006200037a8582860162000339565b92505060206200038d8582860162000339565b9150509250929050565b620003a2816200030b565b82525050565b6000602082019050620003bf600083018462000397565b92915050565b60805160a051615220620003f96000396000818161051b015261223a0152600081816108be0152610f8201526152206000f3fe60806040526004361061011f5760003560e01c80638b8ff358116100a0578063b0f479a111610064578063b0f479a11461037b578063b3285e32146103a6578063dd3fac7c146103cf578063eee6e573146103f8578063f2fde38b146104145761011f565b80638b8ff358146102b75780638cd176d5146102e25780638d6dc0eb1461030b5780638da5cb5b1461032757806392154a3d146103525761011f565b806348f5630b116100e757806348f5630b146102075780635821feae146102325780636df0c7471461024e578063715018a61461027757806385572ffb1461028e5761011f565b806301ffc9a71461012457806304d5d06c146101615780630ca761751461018c57806314b1dd1b146101b557806334303bcd146101de575b600080fd5b34801561013057600080fd5b5061014b60048036038101906101469190612e14565b61043d565b6040516101589190612e5c565b60405180910390f35b34801561016d57600080fd5b5061017661050f565b6040516101839190612e90565b60405180910390f35b34801561019857600080fd5b506101b360048036038101906101ae9190613027565b610519565b005b3480156101c157600080fd5b506101dc60048036038101906101d791906130f2565b6105db565b005b3480156101ea57600080fd5b506102056004803603810190610200919061315b565b61060f565b005b34801561021357600080fd5b5061021c61063b565b6040516102299190612e90565b60405180910390f35b61024c600480360381019061024791906133fd565b610645565b005b34801561025a57600080fd5b5061027560048036038101906102709190613446565b610896565b005b34801561028357600080fd5b5061028c6108a8565b005b34801561029a57600080fd5b506102b560048036038101906102b09190613497565b6108bc565b005b3480156102c357600080fd5b506102cc610961565b6040516102d99190612e90565b60405180910390f35b3480156102ee57600080fd5b5061030960048036038101906103049190613590565b610966565b005b610325600480360381019061032091906135d9565b610a63565b005b34801561033357600080fd5b5061033c610ee3565b60405161034991906136ad565b60405180910390f35b34801561035e57600080fd5b50610379600480360381019061037491906136c8565b610f0c565b005b34801561038757600080fd5b50610390610f7e565b60405161039d91906136ad565b60405180910390f35b3480156103b257600080fd5b506103cd60048036038101906103c89190613708565b610fa6565b005b3480156103db57600080fd5b506103f660048036038101906103f19190613751565b610fc1565b005b610412600480360381019061040d91906138cc565b6110e1565b005b34801561042057600080fd5b5061043b6004803603810190610436919061396b565b611623565b005b60007f85572ffb000000000000000000000000000000000000000000000000000000007bffffffffffffffffffffffffffffffffffffffffffffffffffffffff1916827bffffffffffffffffffffffffffffffffffffffffffffffffffffffff1916148061050857507f01ffc9a7000000000000000000000000000000000000000000000000000000007bffffffffffffffffffffffffffffffffffffffffffffffffffffffff1916827bffffffffffffffffffffffffffffffffffffffffffffffffffffffff1916145b9050919050565b6000600454905090565b7f000000000000000000000000000000000000000000000000000000000000000073ffffffffffffffffffffffffffffffffffffffff163373ffffffffffffffffffffffffffffffffffffffff161461059e576040517fc6829f8300000000000000000000000000000000000000000000000000000000815260040160405180910390fd5b6105a98383836116a6565b827f85e1543bf2f84fe80c6badbce3648c8539ad1df4d2b3d822938ca0538be727e660405160405180910390a2505050565b6105e3611a03565b80600260046101000a81548167ffffffffffffffff021916908367ffffffffffffffff16021790555050565b610617611a03565b80600260006101000a81548163ffffffff021916908363ffffffff16021790555050565b6000600554905090565b6000600760008360800151815260200190815260200160002060030154036106a2576040517f08c379a0000000000000000000000000000000000000000000000000000000008152600401610699906139f5565b60405180910390fd5b60076000826080015181526020019081526020016000206001015434146106fe576040517f08c379a00000000000000000000000000000000000000000000000000000000081526004016106f590613a61565b60405180910390fd5b6040518060a0016040528082600001518152602001826060015181526020018260200151815260200182608001518152602001610739611a81565b73ffffffffffffffffffffffffffffffffffffffff1681525060086000836040015173ffffffffffffffffffffffffffffffffffffffff1673ffffffffffffffffffffffffffffffffffffffff16815260200190815260200160002060008201518160000190816107aa9190613c98565b5060208201518160010190816107c09190613c98565b5060408201518160020190816107d69190613c98565b506060820151816003015560808201518160040160006101000a81548173ffffffffffffffffffffffffffffffffffffffff021916908373ffffffffffffffffffffffffffffffffffffffff1602179055509050507fea35bbd4aeddb611341e5394e07bd5ac7513bd56730a40e7e3e3eb761e155c058160400151826000015183602001518460600151856080015161086d611a81565b8760a001518860c0015160405161088b989796959493929190613dcd565b60405180910390a150565b61089e611a03565b8060038190555050565b6108b0611a03565b6108ba6000611a89565b565b7f000000000000000000000000000000000000000000000000000000000000000073ffffffffffffffffffffffffffffffffffffffff163373ffffffffffffffffffffffffffffffffffffffff161461094c57336040517fd7f7333400000000000000000000000000000000000000000000000000000000815260040161094391906136ad565b60405180910390fd5b61095e8161095990614061565b611b4d565b50565b601481565b61096e611a03565b60066000815480929190610981906140a3565b91905055506040518060800160405280826000015181526020018260200151815260200182604001518152602001826060015181525060076000600654815260200190815260200160002060008201518160000190816109e19190613c98565b50602082015181600101556040820151816002019081610a019190613c98565b50606082015181600301559050507f33c5bd102a4d38690a8d7d236985d20c88e66b73bca9de5ae6cc29376d2206fd6006548260000151836020015184604001518560600151604051610a589594939291906140eb565b60405180910390a150565b6005543414610aa7576040517f08c379a0000000000000000000000000000000000000000000000000000000008152600401610a9e90614198565b60405180910390fd5b600073ffffffffffffffffffffffffffffffffffffffff16600a60008867ffffffffffffffff1667ffffffffffffffff16815260200190815260200160002060009054906101000a900473ffffffffffffffffffffffffffffffffffffffff1673ffffffffffffffffffffffffffffffffffffffff1603610b5d576040517f08c379a0000000000000000000000000000000000000000000000000000000008152600401610b5490614204565b60405180910390fd5b60006040518060a00160405280600a60008a67ffffffffffffffff1667ffffffffffffffff16815260200190815260200160002060009054906101000a900473ffffffffffffffffffffffffffffffffffffffff16604051602001610bc291906136ad565b60405160208183030381529060405281526020018787878787604051602001610bef959493929190614279565b6040516020818303038152906040528152602001600067ffffffffffffffff811115610c1e57610c1d612efc565b5b604051908082528060200260200182016040528015610c5757816020015b610c44612ccc565b815260200190600190039081610c3c5790505b508152602001600073ffffffffffffffffffffffffffffffffffffffff168152602001610c9d6040518060400160405280621e8480815260200160001515815250611c46565b81525090506000600b60009054906101000a900473ffffffffffffffffffffffffffffffffffffffff1673ffffffffffffffffffffffffffffffffffffffff166320487ded89846040518363ffffffff1660e01b8152600401610d019291906144ba565b602060405180830381865afa158015610d1e573d6000803e3d6000fd5b505050506040513d601f19601f82011682018060405250810190610d4291906144ff565b905080341015610d87576040517f08c379a0000000000000000000000000000000000000000000000000000000008152600401610d7e90614578565b60405180910390fd5b6000600b60009054906101000a900473ffffffffffffffffffffffffffffffffffffffff1673ffffffffffffffffffffffffffffffffffffffff166396f4e9f9838b866040518463ffffffff1660e01b8152600401610de79291906144ba565b60206040518083038185885af1158015610e05573d6000803e3d6000fd5b50505050506040513d601f19601f82011682018060405250810190610e2a91906145ad565b905060008234610e3a91906145da565b90506000811115610e935760008990508073ffffffffffffffffffffffffffffffffffffffff166108fc839081150290604051600060405180830381858888f19350505050158015610e90573d6000803e3d6000fd5b50505b7fe6dae862185d88c4597f4745a00933ea5be511621dcacc28511fa6029c050ccd828a8a60028860200151604051610ecf959493929190614694565b60405180910390a150505050505050505050565b60008060009054906101000a900473ffffffffffffffffffffffffffffffffffffffff16905090565b610f14611a03565b80600a60008467ffffffffffffffff1667ffffffffffffffff16815260200190815260200160002060006101000a81548173ffffffffffffffffffffffffffffffffffffffff021916908373ffffffffffffffffffffffffffffffffffffffff1602179055505050565b60007f0000000000000000000000000000000000000000000000000000000000000000905090565b610fae611a03565b8060019081610fbd9190613c98565b5050565b6000610fcb611a81565b90506000600860008473ffffffffffffffffffffffffffffffffffffffff1673ffffffffffffffffffffffffffffffffffffffff16815260200190815260200160002090508173ffffffffffffffffffffffffffffffffffffffff168160040160009054906101000a900473ffffffffffffffffffffffffffffffffffffffff1673ffffffffffffffffffffffffffffffffffffffff16146110a2576040517f08c379a00000000000000000000000000000000000000000000000000000000081526004016110999061473a565b60405180910390fd5b7fd7219b2d0e6067644335c8f4f82ee77c59a90a22e2916f1dce8683af8e8b07fa83856040516110d392919061475a565b60405180910390a150505050565b6004543414611125576040517f08c379a000000000000000000000000000000000000000000000000000000000815260040161111c90614198565b60405180910390fd5b60148351111561116a576040517f08c379a0000000000000000000000000000000000000000000000000000000008152600401611161906147d6565b60405180910390fd5b6000611174611a81565b9050600073ffffffffffffffffffffffffffffffffffffffff16600860008373ffffffffffffffffffffffffffffffffffffffff1673ffffffffffffffffffffffffffffffffffffffff16815260200190815260200160002060040160009054906101000a900473ffffffffffffffffffffffffffffffffffffffff1673ffffffffffffffffffffffffffffffffffffffff1603611247576040517f08c379a000000000000000000000000000000000000000000000000000000000815260040161123e90614842565b60405180910390fd5b6000600567ffffffffffffffff81111561126457611263612efc565b5b60405190808252806020026020018201604052801561129757816020015b60608152602001906001900390816112825790505b50905073__StringJoiner__________________________635c8656e0866040518263ffffffff1660e01b81526004016112d191906149cb565b600060405180830381865af41580156112ee573d6000803e3d6000fd5b505050506040513d6000823e3d601f19601f820116820180604052508101906113179190614a70565b8160008151811061132b5761132a614ab9565b5b6020026020010181905250838160018151811061134b5761134a614ab9565b5b602002602001018190525061135f82611cc5565b8160028151811061137357611372614ab9565b5b602002602001018190525061138786611cc5565b8160038151811061139b5761139a614ab9565b5b60200260200101819052506113b28360ff16611cf2565b816004815181106113c6576113c5614ab9565b5b60200260200101819052506113d9612cfc565b611476600180546113e990613abb565b80601f016020809104026020016040519081016040528092919081815260200182805461141590613abb565b80156114625780601f1061143757610100808354040283529160200191611462565b820191906000526020600020905b81548152906001019060200180831161144557829003601f168201915b505050505082611dc090919063ffffffff16565b6114898282611dd190919063ffffffff16565b60006114c961149783611e19565b600260049054906101000a900467ffffffffffffffff16600260009054906101000a900463ffffffff16600354612235565b905060405180606001604052808573ffffffffffffffffffffffffffffffffffffffff1681526020018973ffffffffffffffffffffffffffffffffffffffff168152602001600015158152506009600083815260200190815260200160002060008201518160000160006101000a81548173ffffffffffffffffffffffffffffffffffffffff021916908373ffffffffffffffffffffffffffffffffffffffff16021790555060208201518160010160006101000a81548173ffffffffffffffffffffffffffffffffffffffff021916908373ffffffffffffffffffffffffffffffffffffffff16021790555060408201518160010160146101000a81548160ff0219169083151502179055509050507fe6dae862185d88c4597f4745a00933ea5be511621dcacc28511fa6029c050ccd81858a60008a604051611611959493929190614694565b60405180910390a15050505050505050565b61162b611a03565b600073ffffffffffffffffffffffffffffffffffffffff168173ffffffffffffffffffffffffffffffffffffffff160361169a576040517f08c379a000000000000000000000000000000000000000000000000000000000815260040161169190614b5a565b60405180910390fd5b6116a381611a89565b50565b60006009600085815260200190815260200160002090508060010160149054906101000a900460ff161561170f576040517f08c379a000000000000000000000000000000000000000000000000000000000815260040161170690614bc6565b60405180910390fd5b6000825111156117a7577fe6dae862185d88c4597f4745a00933ea5be511621dcacc28511fa6029c050ccd848260000160009054906101000a900473ffffffffffffffffffffffffffffffffffffffff168360010160009054906101000a900473ffffffffffffffffffffffffffffffffffffffff16600186604051611799959493929190614694565b60405180910390a1506119fe565b60018160010160146101000a81548160ff021916908315150217905550600073ffffffffffffffffffffffffffffffffffffffff16600860008360000160009054906101000a900473ffffffffffffffffffffffffffffffffffffffff1673ffffffffffffffffffffffffffffffffffffffff1673ffffffffffffffffffffffffffffffffffffffff16815260200190815260200160002060040160009054906101000a900473ffffffffffffffffffffffffffffffffffffffff1673ffffffffffffffffffffffffffffffffffffffff16036118b9576040517f08c379a00000000000000000000000000000000000000000000000000000000081526004016118b090614842565b60405180910390fd5b60008160000160009054906101000a900473ffffffffffffffffffffffffffffffffffffffff1690508073ffffffffffffffffffffffffffffffffffffffff16638f9c39568360010160009054906101000a900473ffffffffffffffffffffffffffffffffffffffff16866040518363ffffffff1660e01b815260040161194192919061475a565b600060405180830381600087803b15801561195b57600080fd5b505af115801561196f573d6000803e3d6000fd5b505050507fe6dae862185d88c4597f4745a00933ea5be511621dcacc28511fa6029c050ccd858360000160009054906101000a900473ffffffffffffffffffffffffffffffffffffffff168460010160009054906101000a900473ffffffffffffffffffffffffffffffffffffffff166001886040516119f3959493929190614694565b60405180910390a150505b505050565b611a0b611a81565b73ffffffffffffffffffffffffffffffffffffffff16611a29610ee3565b73ffffffffffffffffffffffffffffffffffffffff1614611a7f576040517f08c379a0000000000000000000000000000000000000000000000000000000008152600401611a7690614c32565b60405180910390fd5b565b600033905090565b60008060009054906101000a900473ffffffffffffffffffffffffffffffffffffffff169050816000806101000a81548173ffffffffffffffffffffffffffffffffffffffff021916908373ffffffffffffffffffffffffffffffffffffffff1602179055508173ffffffffffffffffffffffffffffffffffffffff168173ffffffffffffffffffffffffffffffffffffffff167f8be0079c531659141344cd1fd0a4f28419497f9722a3daafe3b4186f6b6457e060405160405180910390a35050565b60008060008060008560600151806020019051810190611b6d9190614d00565b9450945094509450945060008590508073ffffffffffffffffffffffffffffffffffffffff16636d4195fb886020015188888888886040518763ffffffff1660e01b8152600401611bc396959493929190614db3565b600060405180830381600087803b158015611bdd57600080fd5b505af1158015611bf1573d6000803e3d6000fd5b505050507fe6dae862185d88c4597f4745a00933ea5be511621dcacc28511fa6029c050ccd8760000151878760038b60600151604051611c35959493929190614694565b60405180910390a150505050505050565b60606397a657c960e01b82604051602401611c619190614e60565b604051602081830303815290604052907bffffffffffffffffffffffffffffffffffffffffffffffffffffffff19166020820180517bffffffffffffffffffffffffffffffffffffffffffffffffffffffff83818316178352505050509050919050565b6060611ceb8273ffffffffffffffffffffffffffffffffffffffff16601460ff16612318565b9050919050565b606060006001611d0184612554565b01905060008167ffffffffffffffff811115611d2057611d1f612efc565b5b6040519080825280601f01601f191660200182016040528015611d525781602001600182028036833780820191505090505b509050600082602001820190505b600115611db5578080600190039150507f3031323334353637383961626364656600000000000000000000000000000000600a86061a8153600a8581611da957611da8614e7b565b5b04945060008503611d60575b819350505050919050565b611dcd82600080846126a7565b5050565b6000815103611e0c576040517ffe936cb700000000000000000000000000000000000000000000000000000000815260040160405180910390fd5b808260a001819052505050565b60606000611e28610100612751565b9050611e726040518060400160405280600c81526020017f636f64654c6f636174696f6e00000000000000000000000000000000000000008152508261277890919063ffffffff16565b611e9b83600001516002811115611e8c57611e8b61461d565b5b826127a190919063ffffffff16565b611ee36040518060400160405280600881526020017f6c616e67756167650000000000000000000000000000000000000000000000008152508261277890919063ffffffff16565b611f0c83604001516000811115611efd57611efc61461d565b5b826127a190919063ffffffff16565b611f546040518060400160405280600681526020017f736f7572636500000000000000000000000000000000000000000000000000008152508261277890919063ffffffff16565b611f6b83606001518261277890919063ffffffff16565b60008360a0015151111561202757611fc16040518060400160405280600481526020017f61726773000000000000000000000000000000000000000000000000000000008152508261277890919063ffffffff16565b611fca816127f1565b60005b8360a001515181101561201c5761200b8460a001518281518110611ff457611ff3614ab9565b5b60200260200101518361277890919063ffffffff16565b80612015906140a3565b9050611fcd565b5061202681612819565b5b6000836080015151111561216857600060028111156120495761204861461d565b5b836020015160028111156120605761205f61461d565b5b03612097576040517fa80d31f700000000000000000000000000000000000000000000000000000000815260040160405180910390fd5b6120df6040518060400160405280600f81526020017f736563726574734c6f636174696f6e00000000000000000000000000000000008152508261277890919063ffffffff16565b612108836020015160028111156120f9576120f861461d565b5b826127a190919063ffffffff16565b6121506040518060400160405280600781526020017f73656372657473000000000000000000000000000000000000000000000000008152508261277890919063ffffffff16565b61216783608001518261284190919063ffffffff16565b5b60008360c00151511115612224576121be6040518060400160405280600981526020017f62797465734172677300000000000000000000000000000000000000000000008152508261277890919063ffffffff16565b6121c7816127f1565b60005b8360c0015151811015612219576122088460c0015182815181106121f1576121f0614ab9565b5b60200260200101518361284190919063ffffffff16565b80612212906140a3565b90506121ca565b5061222381612819565b5b806000015160000151915050919050565b6000807f000000000000000000000000000000000000000000000000000000000000000073ffffffffffffffffffffffffffffffffffffffff1663461d27628688600188886040518663ffffffff1660e01b815260040161229a959493929190614ed6565b6020604051808303816000875af11580156122b9573d6000803e3d6000fd5b505050506040513d601f19601f820116820180604052508101906122dd91906145ad565b9050807f1131472297a800fee664d1d89cfa8f7676ff07189ecc53f80bbb5f4969099db860405160405180910390a280915050949350505050565b60606000600283600261232b9190614f30565b6123359190614f72565b67ffffffffffffffff81111561234e5761234d612efc565b5b6040519080825280601f01601f1916602001820160405280156123805781602001600182028036833780820191505090505b5090507f3000000000000000000000000000000000000000000000000000000000000000816000815181106123b8576123b7614ab9565b5b60200101907effffffffffffffffffffffffffffffffffffffffffffffffffffffffffffff1916908160001a9053507f78000000000000000000000000000000000000000000000000000000000000008160018151811061241c5761241b614ab9565b5b60200101907effffffffffffffffffffffffffffffffffffffffffffffffffffffffffffff1916908160001a9053506000600184600261245c9190614f30565b6124669190614f72565b90505b6001811115612506577f3031323334353637383961626364656600000000000000000000000000000000600f8616601081106124a8576124a7614ab9565b5b1a60f81b8282815181106124bf576124be614ab9565b5b60200101907effffffffffffffffffffffffffffffffffffffffffffffffffffffffffffff1916908160001a905350600485901c9450806124ff90614fa6565b9050612469565b506000841461254a576040517f08c379a00000000000000000000000000000000000000000000000000000000081526004016125419061501b565b60405180910390fd5b8091505092915050565b600080600090507a184f03e93ff9f4daa797ed6e38ed64bf6a1f01000000000000000083106125b2577a184f03e93ff9f4daa797ed6e38ed64bf6a1f01000000000000000083816125a8576125a7614e7b565b5b0492506040810190505b6d04ee2d6d415b85acef810000000083106125ef576d04ee2d6d415b85acef810000000083816125e5576125e4614e7b565b5b0492506020810190505b662386f26fc10000831061261e57662386f26fc10000838161261457612613614e7b565b5b0492506010810190505b6305f5e1008310612647576305f5e100838161263d5761263c614e7b565b5b0492506008810190505b612710831061266c57612710838161266257612661614e7b565b5b0492506004810190505b6064831061268f576064838161268557612684614e7b565b5b0492506002810190505b600a831061269e576001810190505b80915050919050565b60008151036126e2576040517f22ce3edd00000000000000000000000000000000000000000000000000000000815260040160405180910390fd5b82846000019060028111156126fa576126f961461d565b5b9081600281111561270e5761270d61461d565b5b81525050818460400190600081111561272a5761272961461d565b5b9081600081111561273e5761273d61461d565b5b8152505080846060018190525050505050565b612759612d6e565b61276781600001518361286a565b506000816020018181525050919050565b61278582600383516128e3565b61279c818360000151612a8c90919063ffffffff16565b505050565b6127c360026005600660ff16901b178360000151612aa890919063ffffffff16565b506127ed82826040516020016127d99190612e90565b604051602081830303815290604052612841565b5050565b6127fc816004612b12565b60018160200181815161280f9190614f72565b9150818152505050565b612824816007612b12565b60018160200181815161283791906145da565b9150818152505050565b61284e82600283516128e3565b612865818360000151612a8c90919063ffffffff16565b505050565b612872612d8e565b6000602083612881919061503b565b146128ad57602082612893919061503b565b602061289f91906145da565b826128aa9190614f72565b91505b8183602001818152505060405180845260008152828101602001818110156128d457600080fd5b80604052505082905092915050565b60178167ffffffffffffffff161161291e576129188160058460ff16901b60ff16178460000151612aa890919063ffffffff16565b50612a87565b60ff8167ffffffffffffffff161161297c57612951601860058460ff16901b178460000151612aa890919063ffffffff16565b506129768167ffffffffffffffff1660018560000151612b389092919063ffffffff16565b50612a86565b61ffff8167ffffffffffffffff16116129db576129b0601960058460ff16901b178460000151612aa890919063ffffffff16565b506129d58167ffffffffffffffff1660028560000151612b389092919063ffffffff16565b50612a85565b63ffffffff8167ffffffffffffffff1611612a3c57612a11601a60058460ff16901b178460000151612aa890919063ffffffff16565b50612a368167ffffffffffffffff1660048560000151612b389092919063ffffffff16565b50612a84565b612a5d601b60058460ff16901b178460000151612aa890919063ffffffff16565b50612a828167ffffffffffffffff1660088560000151612b389092919063ffffffff16565b505b5b5b5b505050565b612a94612d8e565b612aa083838451612bc5565b905092915050565b612ab0612d8e565b600083600001515190506000600182612ac99190614f72565b905084602001518210612aed57612aec85600283612ae79190614f30565b612ca8565b5b84516020838201018581538151831115612b05578282525b5050849250505092915050565b612b33601f60058360ff16901b178360000151612aa890919063ffffffff16565b505050565b612b40612d8e565b6000846000015151905060008184612b589190614f72565b90508560200151811115612b7d57612b7c86600283612b779190614f30565b612ca8565b5b6000600185610100612b8f919061519f565b612b9991906145da565b905086518281018783198251161781528151841115612bb6578382525b50508693505050509392505050565b612bcd612d8e565b8251821115612bdb57600080fd5b6000846000015151905060008382612bf39190614f72565b90508560200151811115612c1857612c1786600283612c129190614f30565b612ca8565b5b60008087518051856020830101935080851115612c33578482525b60208901925050505b60208610612c7a5780518252602082612c559190614f72565b9150602081612c649190614f72565b9050602086612c7391906145da565b9550612c3c565b60006001876020036101000a0390508019825116818451168181178552505050879450505050509392505050565b600082600001519050612cbb838361286a565b50612cc68382612a8c565b50505050565b6040518060400160405280600073ffffffffffffffffffffffffffffffffffffffff168152602001600081525090565b6040518060e0016040528060006002811115612d1b57612d1a61461d565b5b815260200160006002811115612d3457612d3361461d565b5b8152602001600080811115612d4c57612d4b61461d565b5b8152602001606081526020016060815260200160608152602001606081525090565b6040518060400160405280612d81612d8e565b8152602001600081525090565b604051806040016040528060608152602001600081525090565b6000604051905090565b600080fd5b600080fd5b60007fffffffff0000000000000000000000000000000000000000000000000000000082169050919050565b612df181612dbc565b8114612dfc57600080fd5b50565b600081359050612e0e81612de8565b92915050565b600060208284031215612e2a57612e29612db2565b5b6000612e3884828501612dff565b91505092915050565b60008115159050919050565b612e5681612e41565b82525050565b6000602082019050612e716000830184612e4d565b92915050565b6000819050919050565b612e8a81612e77565b82525050565b6000602082019050612ea56000830184612e81565b92915050565b6000819050919050565b612ebe81612eab565b8114612ec957600080fd5b50565b600081359050612edb81612eb5565b92915050565b600080fd5b600080fd5b6000601f19601f8301169050919050565b7f4e487b7100000000000000000000000000000000000000000000000000000000600052604160045260246000fd5b612f3482612eeb565b810181811067ffffffffffffffff82111715612f5357612f52612efc565b5b80604052505050565b6000612f66612da8565b9050612f728282612f2b565b919050565b600067ffffffffffffffff821115612f9257612f91612efc565b5b612f9b82612eeb565b9050602081019050919050565b82818337600083830152505050565b6000612fca612fc584612f77565b612f5c565b905082815260208101848484011115612fe657612fe5612ee6565b5b612ff1848285612fa8565b509392505050565b600082601f83011261300e5761300d612ee1565b5b813561301e848260208601612fb7565b91505092915050565b6000806000606084860312156130405761303f612db2565b5b600061304e86828701612ecc565b935050602084013567ffffffffffffffff81111561306f5761306e612db7565b5b61307b86828701612ff9565b925050604084013567ffffffffffffffff81111561309c5761309b612db7565b5b6130a886828701612ff9565b9150509250925092565b600067ffffffffffffffff82169050919050565b6130cf816130b2565b81146130da57600080fd5b50565b6000813590506130ec816130c6565b92915050565b60006020828403121561310857613107612db2565b5b6000613116848285016130dd565b91505092915050565b600063ffffffff82169050919050565b6131388161311f565b811461314357600080fd5b50565b6000813590506131558161312f565b92915050565b60006020828403121561317157613170612db2565b5b600061317f84828501613146565b91505092915050565b600080fd5b600080fd5b600067ffffffffffffffff8211156131ad576131ac612efc565b5b6131b682612eeb565b9050602081019050919050565b60006131d66131d184613192565b612f5c565b9050828152602081018484840111156131f2576131f1612ee6565b5b6131fd848285612fa8565b509392505050565b600082601f83011261321a57613219612ee1565b5b813561322a8482602086016131c3565b91505092915050565b600073ffffffffffffffffffffffffffffffffffffffff82169050919050565b600061325e82613233565b9050919050565b61326e81613253565b811461327957600080fd5b50565b60008135905061328b81613265565b92915050565b61329a81612e77565b81146132a557600080fd5b50565b6000813590506132b781613291565b92915050565b600060e082840312156132d3576132d2613188565b5b6132dd60e0612f5c565b9050600082013567ffffffffffffffff8111156132fd576132fc61318d565b5b61330984828501613205565b600083015250602082013567ffffffffffffffff81111561332d5761332c61318d565b5b61333984828501613205565b602083015250604061334d8482850161327c565b604083015250606082013567ffffffffffffffff8111156133715761337061318d565b5b61337d84828501613205565b6060830152506080613391848285016132a8565b60808301525060a082013567ffffffffffffffff8111156133b5576133b461318d565b5b6133c184828501613205565b60a08301525060c082013567ffffffffffffffff8111156133e5576133e461318d565b5b6133f184828501613205565b60c08301525092915050565b60006020828403121561341357613412612db2565b5b600082013567ffffffffffffffff81111561343157613430612db7565b5b61343d848285016132bd565b91505092915050565b60006020828403121561345c5761345b612db2565b5b600061346a84828501612ecc565b91505092915050565b600080fd5b600060a0828403121561348e5761348d613473565b5b81905092915050565b6000602082840312156134ad576134ac612db2565b5b600082013567ffffffffffffffff8111156134cb576134ca612db7565b5b6134d784828501613478565b91505092915050565b6000608082840312156134f6576134f5613188565b5b6135006080612f5c565b9050600082013567ffffffffffffffff8111156135205761351f61318d565b5b61352c84828501613205565b6000830152506020613540848285016132a8565b602083015250604082013567ffffffffffffffff8111156135645761356361318d565b5b61357084828501613205565b6040830152506060613584848285016132a8565b60608301525092915050565b6000602082840312156135a6576135a5612db2565b5b600082013567ffffffffffffffff8111156135c4576135c3612db7565b5b6135d0848285016134e0565b91505092915050565b60008060008060008060c087890312156135f6576135f5612db2565b5b600061360489828a016130dd565b965050602061361589828a0161327c565b955050604061362689828a0161327c565b945050606061363789828a016132a8565b935050608087013567ffffffffffffffff81111561365857613657612db7565b5b61366489828a01613205565b92505060a087013567ffffffffffffffff81111561368557613684612db7565b5b61369189828a01612ff9565b9150509295509295509295565b6136a781613253565b82525050565b60006020820190506136c2600083018461369e565b92915050565b600080604083850312156136df576136de612db2565b5b60006136ed858286016130dd565b92505060206136fe8582860161327c565b9150509250929050565b60006020828403121561371e5761371d612db2565b5b600082013567ffffffffffffffff81111561373c5761373b612db7565b5b61374884828501613205565b91505092915050565b6000806040838503121561376857613767612db2565b5b600083013567ffffffffffffffff81111561378657613785612db7565b5b61379285828601613205565b92505060206137a38582860161327c565b9150509250929050565b600067ffffffffffffffff8211156137c8576137c7612efc565b5b602082029050602081019050919050565b600080fd5b60006137f16137ec846137ad565b612f5c565b90508083825260208201905060208402830185811115613814576138136137d9565b5b835b8181101561385b57803567ffffffffffffffff81111561383957613838612ee1565b5b8086016138468982613205565b85526020850194505050602081019050613816565b5050509392505050565b600082601f83011261387a57613879612ee1565b5b813561388a8482602086016137de565b91505092915050565b600060ff82169050919050565b6138a981613893565b81146138b457600080fd5b50565b6000813590506138c6816138a0565b92915050565b600080600080608085870312156138e6576138e5612db2565b5b60006138f48782880161327c565b945050602085013567ffffffffffffffff81111561391557613914612db7565b5b61392187828801613865565b935050604085013567ffffffffffffffff81111561394257613941612db7565b5b61394e87828801613205565b925050606061395f878288016138b7565b91505092959194509250565b60006020828403121561398157613980612db2565b5b600061398f8482850161327c565b91505092915050565b600082825260208201905092915050565b7f496e76616c696420706c616e0000000000000000000000000000000000000000600082015250565b60006139df600c83613998565b91506139ea826139a9565b602082019050919050565b60006020820190508181036000830152613a0e816139d2565b9050919050565b7f496e73756666696369656e742066756e64730000000000000000000000000000600082015250565b6000613a4b601283613998565b9150613a5682613a15565b602082019050919050565b60006020820190508181036000830152613a7a81613a3e565b9050919050565b600081519050919050565b7f4e487b7100000000000000000000000000000000000000000000000000000000600052602260045260246000fd5b60006002820490506001821680613ad357607f821691505b602082108103613ae657613ae5613a8c565b5b50919050565b60008190508160005260206000209050919050565b60006020601f8301049050919050565b600082821b905092915050565b600060088302613b4e7fffffffffffffffffffffffffffffffffffffffffffffffffffffffffffffffff82613b11565b613b588683613b11565b95508019841693508086168417925050509392505050565b6000819050919050565b6000613b95613b90613b8b84612e77565b613b70565b612e77565b9050919050565b6000819050919050565b613baf83613b7a565b613bc3613bbb82613b9c565b848454613b1e565b825550505050565b600090565b613bd8613bcb565b613be3818484613ba6565b505050565b5b81811015613c0757613bfc600082613bd0565b600181019050613be9565b5050565b601f821115613c4c57613c1d81613aec565b613c2684613b01565b81016020851015613c35578190505b613c49613c4185613b01565b830182613be8565b50505b505050565b600082821c905092915050565b6000613c6f60001984600802613c51565b1980831691505092915050565b6000613c888383613c5e565b9150826002028217905092915050565b613ca182613a81565b67ffffffffffffffff811115613cba57613cb9612efc565b5b613cc48254613abb565b613ccf828285613c0b565b600060209050601f831160018114613d025760008415613cf0578287015190505b613cfa8582613c7c565b865550613d62565b601f198416613d1086613aec565b60005b82811015613d3857848901518255600182019150602085019450602081019050613d13565b86831015613d555784890151613d51601f891682613c5e565b8355505b6001600288020188555050505b505050505050565b60005b83811015613d88578082015181840152602081019050613d6d565b60008484015250505050565b6000613d9f82613a81565b613da98185613998565b9350613db9818560208601613d6a565b613dc281612eeb565b840191505092915050565b600061010082019050613de3600083018b61369e565b8181036020830152613df5818a613d94565b90508181036040830152613e098189613d94565b90508181036060830152613e1d8188613d94565b9050613e2c6080830187612e81565b613e3960a083018661369e565b81810360c0830152613e4b8185613d94565b905081810360e0830152613e5f8184613d94565b90509998505050505050505050565b600067ffffffffffffffff821115613e8957613e88612efc565b5b602082029050602081019050919050565b600060408284031215613eb057613eaf613188565b5b613eba6040612f5c565b90506000613eca8482850161327c565b6000830152506020613ede848285016132a8565b60208301525092915050565b6000613efd613ef884613e6e565b612f5c565b90508083825260208201905060408402830185811115613f2057613f1f6137d9565b5b835b81811015613f495780613f358882613e9a565b845260208401935050604081019050613f22565b5050509392505050565b600082601f830112613f6857613f67612ee1565b5b8135613f78848260208601613eea565b91505092915050565b600060a08284031215613f9757613f96613188565b5b613fa160a0612f5c565b90506000613fb184828501612ecc565b6000830152506020613fc5848285016130dd565b602083015250604082013567ffffffffffffffff811115613fe957613fe861318d565b5b613ff584828501612ff9565b604083015250606082013567ffffffffffffffff8111156140195761401861318d565b5b61402584828501612ff9565b606083015250608082013567ffffffffffffffff8111156140495761404861318d565b5b61405584828501613f53565b60808301525092915050565b600061406d3683613f81565b9050919050565b7f4e487b7100000000000000000000000000000000000000000000000000000000600052601160045260246000fd5b60006140ae82612e77565b91507fffffffffffffffffffffffffffffffffffffffffffffffffffffffffffffffff82036140e0576140df614074565b5b600182019050919050565b600060a0820190506141006000830188612e81565b81810360208301526141128187613d94565b90506141216040830186612e81565b81810360608301526141338185613d94565b90506141426080830184612e81565b9695505050505050565b7f696e76616c6964204b616e766173206665650000000000000000000000000000600082015250565b6000614182601283613998565b915061418d8261414c565b602082019050919050565b600060208201905081810360008301526141b181614175565b9050919050565b7f436861696e206e6f7420737570706f7274656400000000000000000000000000600082015250565b60006141ee601383613998565b91506141f9826141b8565b602082019050919050565b6000602082019050818103600083015261421d816141e1565b9050919050565b600081519050919050565b600082825260208201905092915050565b600061424b82614224565b614255818561422f565b9350614265818560208601613d6a565b61426e81612eeb565b840191505092915050565b600060a08201905061428e600083018861369e565b61429b602083018761369e565b6142a86040830186612e81565b81810360608301526142ba8185613d94565b905081810360808301526142ce8184614240565b90509695505050505050565b6142e3816130b2565b82525050565b600082825260208201905092915050565b600061430582614224565b61430f81856142e9565b935061431f818560208601613d6a565b61432881612eeb565b840191505092915050565b600081519050919050565b600082825260208201905092915050565b6000819050602082019050919050565b61436881613253565b82525050565b61437781612e77565b82525050565b604082016000820151614393600085018261435f565b5060208201516143a6602085018261436e565b50505050565b60006143b8838361437d565b60408301905092915050565b6000602082019050919050565b60006143dc82614333565b6143e6818561433e565b93506143f18361434f565b8060005b8381101561442257815161440988826143ac565b9750614414836143c4565b9250506001810190506143f5565b5085935050505092915050565b600060a083016000830151848203600086015261444c82826142fa565b9150506020830151848203602086015261446682826142fa565b9150506040830151848203604086015261448082826143d1565b9150506060830151614495606086018261435f565b50608083015184820360808601526144ad82826142fa565b9150508091505092915050565b60006040820190506144cf60008301856142da565b81810360208301526144e1818461442f565b90509392505050565b6000815190506144f981613291565b92915050565b60006020828403121561451557614514612db2565b5b6000614523848285016144ea565b91505092915050565b7f496e73756666696369656e742066656500000000000000000000000000000000600082015250565b6000614562601083613998565b915061456d8261452c565b602082019050919050565b6000602082019050818103600083015261459181614555565b9050919050565b6000815190506145a781612eb5565b92915050565b6000602082840312156145c3576145c2612db2565b5b60006145d184828501614598565b91505092915050565b60006145e582612e77565b91506145f083612e77565b925082820390508181111561460857614607614074565b5b92915050565b61461781612eab565b82525050565b7f4e487b7100000000000000000000000000000000000000000000000000000000600052602160045260246000fd5b6004811061465d5761465c61461d565b5b50565b600081905061466e8261464c565b919050565b600061467e82614660565b9050919050565b61468e81614673565b82525050565b600060a0820190506146a9600083018861460e565b6146b6602083018761369e565b6146c3604083018661369e565b6146d06060830185614685565b81810360808301526146e28184614240565b90509695505050505050565b7f556e417574686f72697a65640000000000000000000000000000000000000000600082015250565b6000614724600c83613998565b915061472f826146ee565b602082019050919050565b6000602082019050818103600083015261475381614717565b9050919050565b600060408201905061476f600083018561369e565b81810360208301526147818184613d94565b90509392505050565b7f546f6f206d616e79206174747269627574657300000000000000000000000000600082015250565b60006147c0601383613998565b91506147cb8261478a565b602082019050919050565b600060208201905081810360008301526147ef816147b3565b9050919050565b7f47616d65204e6f7420466f756e64000000000000000000000000000000000000600082015250565b600061482c600e83613998565b9150614837826147f6565b602082019050919050565b6000602082019050818103600083015261485b8161481f565b9050919050565b600081519050919050565b600082825260208201905092915050565b6000819050602082019050919050565b600082825260208201905092915050565b60006148aa82613a81565b6148b4818561488e565b93506148c4818560208601613d6a565b6148cd81612eeb565b840191505092915050565b60006148e4838361489f565b905092915050565b6000602082019050919050565b600061490482614862565b61490e818561486d565b9350836020820285016149208561487e565b8060005b8581101561495c578484038952815161493d85826148d8565b9450614948836148ec565b925060208a01995050600181019050614924565b50829750879550505050505092915050565b600082825260208201905092915050565b7f2c00000000000000000000000000000000000000000000000000000000000000600082015250565b60006149b560018361496e565b91506149c08261497f565b602082019050919050565b600060408201905081810360008301526149e581846148f9565b905081810360208301526149f8816149a8565b905092915050565b6000614a13614a0e84613192565b612f5c565b905082815260208101848484011115614a2f57614a2e612ee6565b5b614a3a848285613d6a565b509392505050565b600082601f830112614a5757614a56612ee1565b5b8151614a67848260208601614a00565b91505092915050565b600060208284031215614a8657614a85612db2565b5b600082015167ffffffffffffffff811115614aa457614aa3612db7565b5b614ab084828501614a42565b91505092915050565b7f4e487b7100000000000000000000000000000000000000000000000000000000600052603260045260246000fd5b7f4f776e61626c653a206e6577206f776e657220697320746865207a65726f206160008201527f6464726573730000000000000000000000000000000000000000000000000000602082015250565b6000614b44602683613998565b9150614b4f82614ae8565b604082019050919050565b60006020820190508181036000830152614b7381614b37565b9050919050565b7f416c72656164792066756c66696c6c6564000000000000000000000000000000600082015250565b6000614bb0601183613998565b9150614bbb82614b7a565b602082019050919050565b60006020820190508181036000830152614bdf81614ba3565b9050919050565b7f4f776e61626c653a2063616c6c6572206973206e6f7420746865206f776e6572600082015250565b6000614c1c602083613998565b9150614c2782614be6565b602082019050919050565b60006020820190508181036000830152614c4b81614c0f565b9050919050565b6000614c5d82613233565b9050919050565b614c6d81614c52565b8114614c7857600080fd5b50565b600081519050614c8a81614c64565b92915050565b6000614ca3614c9e84612f77565b612f5c565b905082815260208101848484011115614cbf57614cbe612ee6565b5b614cca848285613d6a565b509392505050565b600082601f830112614ce757614ce6612ee1565b5b8151614cf7848260208601614c90565b91505092915050565b600080600080600060a08688031215614d1c57614d1b612db2565b5b6000614d2a88828901614c7b565b9550506020614d3b88828901614c7b565b9450506040614d4c888289016144ea565b935050606086015167ffffffffffffffff811115614d6d57614d6c612db7565b5b614d7988828901614a42565b925050608086015167ffffffffffffffff811115614d9a57614d99612db7565b5b614da688828901614cd2565b9150509295509295909350565b600060c082019050614dc860008301896142da565b614dd5602083018861369e565b614de2604083018761369e565b614def6060830186612e81565b8181036080830152614e018185613d94565b905081810360a0830152614e158184614240565b9050979650505050505050565b614e2b81612e41565b82525050565b604082016000820151614e47600085018261436e565b506020820151614e5a6020850182614e22565b50505050565b6000604082019050614e756000830184614e31565b92915050565b7f4e487b7100000000000000000000000000000000000000000000000000000000600052601260045260246000fd5b600061ffff82169050919050565b614ec181614eaa565b82525050565b614ed08161311f565b82525050565b600060a082019050614eeb60008301886142da565b8181036020830152614efd8187614240565b9050614f0c6040830186614eb8565b614f196060830185614ec7565b614f26608083018461460e565b9695505050505050565b6000614f3b82612e77565b9150614f4683612e77565b9250828202614f5481612e77565b91508282048414831517614f6b57614f6a614074565b5b5092915050565b6000614f7d82612e77565b9150614f8883612e77565b9250828201905080821115614fa057614f9f614074565b5b92915050565b6000614fb182612e77565b915060008203614fc457614fc3614074565b5b600182039050919050565b7f537472696e67733a20686578206c656e67746820696e73756666696369656e74600082015250565b6000615005602083613998565b915061501082614fcf565b602082019050919050565b6000602082019050818103600083015261503481614ff8565b9050919050565b600061504682612e77565b915061505183612e77565b92508261506157615060614e7b565b5b828206905092915050565b60008160011c9050919050565b6000808291508390505b60018511156150c35780860481111561509f5761509e614074565b5b60018516156150ae5780820291505b80810290506150bc8561506c565b9450615083565b94509492505050565b6000826150dc5760019050615198565b816150ea5760009050615198565b8160018114615100576002811461510a57615139565b6001915050615198565b60ff84111561511c5761511b614074565b5b8360020a91508482111561513357615132614074565b5b50615198565b5060208310610133831016604e8410600b841016171561516e5782820a90508381111561516957615168614074565b5b615198565b61517b8484846001615079565b9250905081840481111561519257615191614074565b5b81810290505b9392505050565b60006151aa82612e77565b91506151b583612e77565b92506151e27fffffffffffffffffffffffffffffffffffffffffffffffffffffffffffffffff84846150cc565b90509291505056fea26469706673582212203c4183842fbbe063cea667c963f5922f9a83fe7845fb565c761f8b492eee407d64736f6c63430008130033",
  "immutableReferences": {
    "14": [
      {
        "length": 32,
        "start": 2238
      },
      {
        "length": 32,
        "start": 3970
      }
    ],
    "6659": [
      {
        "length": 32,
        "start": 1307
      },
      {
        "length": 32,
        "start": 8762
      }
    ]
  },
  "source": "// SPDX-License-Identifier: MIT\r\npragma solidity ^0.8.19;\r\n\r\nimport {Assets} from \"./libraries/Assets.sol\";\r\nimport {Params} from \"./libraries/Params.sol\";\r\nimport {IKanvasAvax} from \"./interfaces/IKanvasAvax.sol\";\r\nimport {IKanvasGame} from \"./interfaces/IKanvasGame.sol\";\r\nimport {IKanvasInteropGame} from \"./interfaces/IKanvasInteropGame.sol\";\r\nimport {StringJoiner} from \"./libraries/StringJoiner.sol\";\r\n\r\nimport {Strings} from \"@openzeppelin/contracts/utils/Strings.sol\";\r\nimport {Ownable} from \"@openzeppelin/contracts/access/Ownable.sol\";\r\nimport {Context} from \"@openzeppelin/contracts/utils/Context.sol\";\r\n\r\nimport {FunctionsClient} from \"./chainlink/FunctionsClient.sol\";\r\nimport {FunctionsRequest} from \"@chainlink/contracts/src/v0.8/functions/dev/v1_0_0/libraries/FunctionsRequest.sol\";\r\n\r\nimport {Client} from \"@chainlink/contracts-ccip/src/v0.8/ccip/libraries/Client.sol\";\r\nimport {CCIPReceiver} from \"@chainlink/contracts-ccip/src/v0.8/ccip/applications/CCIPReceiver.sol\";\r\nimport {IRouterClient} from \"@chainlink/contracts-ccip/src/v0.8/ccip/interfaces/IRouterClient.sol\";\r\n\r\ncontract KanvasAvax is\r\n    IKanvasAvax,\r\n    Context,\r\n    CCIPReceiver,\r\n    FunctionsClient,\r\n    Ownable\r\n{\r\n    using FunctionsRequest for FunctionsRequest.Request;\r\n\r\n    uint256 public constant MAX_PROPERTIES_LEN = 20;\r\n\r\n    // Javascript Chainlink functions source code\r\n    string private _sourceCode;\r\n\r\n    // Chainlink functions fulfill callback gas limit\r\n    uint32 private _gasLimit = 300_000;\r\n\r\n    // Chainlink Avalanche Subscription Id\r\n    uint64 private _subscriptionId = 1580;\r\n\r\n    // Chainlink Avalache DON Id\r\n    bytes32 private _donId =\r\n        0x66756e2d6176616c616e6368652d66756a692d31000000000000000000000000;\r\n\r\n    // for testing purpose the generation fee is free\r\n    uint256 private _kanvasGenerateFee = 0; // 3000000000000000\r\n\r\n    // for testing purpose the bridge fee is free\r\n    uint256 private _kanvasBridgeFee = 0; // 8000000000000000\r\n\r\n    uint256 private _planId;\r\n    mapping(uint256 => Assets.Plan) private _plans;\r\n\r\n    mapping(address => Assets.Game) private _games;\r\n\r\n    mapping(bytes32 => Assets.Request) private _requests;\r\n\r\n    mapping(uint64 => address) private _interops;\r\n\r\n    IRouterClient private _router;\r\n\r\n    constructor(\r\n        address ccipReceiver,\r\n        address functionOracle\r\n    ) CCIPReceiver(ccipReceiver) Ownable() FunctionsClient(functionOracle) {\r\n        _router = IRouterClient(getRouter());\r\n    }\r\n\r\n    function updateDonId(bytes32 newDonId) external onlyOwner {\r\n        _donId = newDonId;\r\n    }\r\n\r\n    function updateSourceCode(string memory newSourceCode) external onlyOwner {\r\n        _sourceCode = newSourceCode;\r\n    }\r\n\r\n    function updateGasLimit(uint32 newLimit) external onlyOwner {\r\n        _gasLimit = newLimit;\r\n    }\r\n\r\n    function updateSubscriptionId(uint64 newSubscriptionId) external onlyOwner {\r\n        _subscriptionId = newSubscriptionId;\r\n    }\r\n\r\n    function createGame(Params.Game memory params) external payable {\r\n        require(_plans[params.plan].limit != 0, \"Invalid plan\");\r\n        require(msg.value == _plans[params.plan].cost, \"Insufficient funds\");\r\n\r\n        _games[params.gameId] = Assets.Game({\r\n            name: params.name,\r\n            description: params.description,\r\n            avatar: params.avatar,\r\n            plan: params.plan,\r\n            creator: _msgSender()\r\n        });\r\n\r\n        emit GameCreated(\r\n            params.gameId,\r\n            params.name,\r\n            params.description,\r\n            params.avatar,\r\n            params.plan,\r\n            _msgSender(),\r\n            params.email,\r\n            params.website\r\n        );\r\n    }\r\n\r\n    function addTemplate(string memory templateUri, address gameId) external {\r\n        address creator = _msgSender();\r\n\r\n        Assets.Game storage game = _games[gameId];\r\n\r\n        require(game.creator == creator, \"UnAuthorized\");\r\n\r\n        emit TemplateAdded(gameId, templateUri);\r\n    }\r\n\r\n    function _generateUri(\r\n        address playerId,\r\n        string[] memory props,\r\n        string memory fields,\r\n        uint8 templateId\r\n    ) external payable override {\r\n        require(msg.value == _kanvasGenerateFee, \"invalid Kanvas fee\");\r\n        require(props.length <= MAX_PROPERTIES_LEN, \"Too many attributes\");\r\n\r\n        address gameId = _msgSender();\r\n        require(_games[gameId].creator != address(0), \"Game Not Found\");\r\n\r\n        string[] memory args = new string[](5);\r\n        args[0] = StringJoiner.joinStrings(props, \",\");\r\n        args[1] = fields;\r\n        args[2] = Strings.toHexString(gameId);\r\n        args[3] = Strings.toHexString(playerId);\r\n        args[4] = Strings.toString(templateId);\r\n\r\n        // Initialize the request\r\n        FunctionsRequest.Request memory req;\r\n\r\n        // Soucre code\r\n        req.initializeRequestForInlineJavaScript(_sourceCode);\r\n\r\n        // Add arguments\r\n        req.setArgs(args);\r\n\r\n        bytes32 requestId = _sendRequest(\r\n            req.encodeCBOR(),\r\n            _subscriptionId,\r\n            _gasLimit,\r\n            _donId\r\n        );\r\n\r\n        _requests[requestId] = Assets.Request({\r\n            gameId: gameId,\r\n            playerId: playerId,\r\n            fulfilled: false\r\n        });\r\n\r\n        emit GameEvent(\r\n            requestId,\r\n            gameId,\r\n            playerId,\r\n            Assets.EventType.GENERATE_URI,\r\n            bytes(fields)\r\n        );\r\n    }\r\n\r\n    function updateInterop(\r\n        uint64 chainSelector,\r\n        address kanvasRouter\r\n    ) external onlyOwner {\r\n        _interops[chainSelector] = kanvasRouter;\r\n    }\r\n\r\n    /** Receive the response in the form of string  */\r\n    function fulfillRequest(\r\n        bytes32 requestId,\r\n        bytes memory response,\r\n        bytes memory err\r\n    ) internal override {\r\n        Assets.Request storage request = _requests[requestId];\r\n        require(!request.fulfilled, \"Already fulfilled\");\r\n\r\n        if (err.length > 0) {\r\n            emit GameEvent(\r\n                requestId,\r\n                request.gameId,\r\n                request.playerId,\r\n                Assets.EventType.RECEIVE_URI,\r\n                err\r\n            );\r\n            return;\r\n        }\r\n\r\n        request.fulfilled = true;\r\n\r\n        require(_games[request.gameId].creator != address(0), \"Game Not Found\");\r\n\r\n        IKanvasGame game = IKanvasGame(request.gameId);\r\n        game._receiveUri(request.playerId, string(response));\r\n\r\n        emit GameEvent(\r\n            requestId,\r\n            request.gameId,\r\n            request.playerId,\r\n            Assets.EventType.RECEIVE_URI,\r\n            response\r\n        );\r\n    }\r\n\r\n    function _transferTo(\r\n        uint64 chainSelector,\r\n        address gameId,\r\n        address playerId,\r\n        uint256 tokenId,\r\n        string memory uri,\r\n        bytes memory data\r\n    ) external payable {\r\n        require(msg.value == _kanvasBridgeFee, \"invalid Kanvas fee\");\r\n        require(_interops[chainSelector] != address(0), \"Chain not supported\");\r\n\r\n        // Create an EVM2AnyMessage struct in memory with necessary information for sending a cross-chain message\r\n        Client.EVM2AnyMessage memory message = Client.EVM2AnyMessage({\r\n            // ABI-encoded receiver address\r\n            receiver: abi.encode(_interops[chainSelector]),\r\n            // ABI-encoded string message\r\n            data: abi.encode(gameId, playerId, tokenId, uri, data),\r\n            // Empty array indicating no tokens are being sent\r\n            tokenAmounts: new Client.EVMTokenAmount[](0),\r\n            // Additional arguments, setting gas limit and non-strict sequency mode\r\n            extraArgs: Client._argsToBytes(\r\n                Client.EVMExtraArgsV1({gasLimit: 2_000_000, strict: false})\r\n            ),\r\n            // Setting feeToken to zero address, indicating native asset will be used for fees\r\n            feeToken: address(0)\r\n        });\r\n\r\n        // Get the fee required to send the message\r\n        uint256 fees = _router.getFee(chainSelector, message);\r\n\r\n        require(msg.value >= fees, \"Insufficient fee\");\r\n\r\n        // Send the message through the router and store the returned message ID\r\n        bytes32 messageId = _router.ccipSend{value: fees}(\r\n            chainSelector,\r\n            message\r\n        );\r\n\r\n        uint256 overspent = msg.value - fees;\r\n\r\n        if (overspent > 0) {\r\n            address payable receiver = payable(gameId);\r\n            receiver.transfer(overspent);\r\n        }\r\n\r\n        emit GameEvent(\r\n            messageId,\r\n            gameId,\r\n            playerId,\r\n            Assets.EventType.TRANSFER_TO,\r\n            message.data\r\n        );\r\n    }\r\n\r\n    // handle a received message\r\n    function _ccipReceive(\r\n        Client.Any2EVMMessage memory message\r\n    ) internal override {\r\n        (\r\n            address gameId,\r\n            address playerId,\r\n            uint256 tokenId,\r\n            string memory uri,\r\n            bytes memory data\r\n        ) = abi.decode(\r\n                message.data,\r\n                (address, address, uint256, string, bytes)\r\n            );\r\n\r\n        IKanvasInteropGame game = IKanvasInteropGame(gameId);\r\n        game._receiveFrom(\r\n            message.sourceChainSelector,\r\n            gameId,\r\n            playerId,\r\n            tokenId,\r\n            uri,\r\n            data\r\n        );\r\n\r\n        emit GameEvent(\r\n            message.messageId,\r\n            gameId,\r\n            playerId,\r\n            Assets.EventType.RECEIVE_FROM,\r\n            message.data\r\n        );\r\n    }\r\n\r\n    function _generateFee() external view override returns (uint256) {\r\n        return _kanvasGenerateFee;\r\n    }\r\n\r\n    function _bridgeFee() external view override returns (uint256) {\r\n        return _kanvasBridgeFee;\r\n    }\r\n\r\n    /** Create plans */\r\n    function createPlan(Params.Plan memory params) external onlyOwner {\r\n        _planId++;\r\n\r\n        _plans[_planId] = Assets.Plan({\r\n            name: params.name,\r\n            cost: params.cost,\r\n            color: params.color,\r\n            limit: params.limit\r\n        });\r\n\r\n        emit PlanCreated(\r\n            _planId,\r\n            params.name,\r\n            params.cost,\r\n            params.color,\r\n            params.limit\r\n        );\r\n    }\r\n}\r\n",
  "sourcePath": "C:\\Users\\DELL\\Documents\\kanvas\\blockchain\\contracts\\KanvasAvax.sol",
  "compiler": {
    "name": "solc",
    "version": "0.8.19+commit.7dd6d404.Emscripten.clang"
  },
  "schemaVersion": "3.4.11",
  "updatedAt": "2023-12-08T18:05:42.868Z",
  "devdoc": {
    "kind": "dev",
    "methods": {
      "ccipReceive((bytes32,uint64,bytes,bytes,(address,uint256)[]))": {
        "details": "Note ensure you check the msg.sender is the OffRampRouter",
        "params": {
          "message": "CCIP Message"
        }
      },
      "getRouter()": {
        "returns": {
          "_0": "i_router address"
        }
      },
      "handleOracleFulfillment(bytes32,bytes,bytes)": {
        "details": "Either response or error parameter will be set, but never both.",
        "params": {
          "err": "Aggregated error either from the request's source code or from the execution pipeline.",
          "requestId": "The requestId returned by FunctionsClient.sendRequest().",
          "response": "Aggregated response from the request's source code."
        }
      },
      "owner()": {
        "details": "Returns the address of the current owner."
      },
      "renounceOwnership()": {
        "details": "Leaves the contract without owner. It will not be possible to call `onlyOwner` functions. Can only be called by the current owner. NOTE: Renouncing ownership will leave the contract without an owner, thereby disabling any functionality that is only available to the owner."
      },
      "supportsInterface(bytes4)": {
        "params": {
          "interfaceId": "The interfaceId to check"
        },
        "returns": {
          "_0": "true if the interfaceId is supported"
        }
      },
      "transferOwnership(address)": {
        "details": "Transfers ownership of the contract to a new account (`newOwner`). Can only be called by the current owner."
      }
    },
    "version": 1
  },
  "userdoc": {
    "kind": "user",
    "methods": {
      "ccipReceive((bytes32,uint64,bytes,bytes,(address,uint256)[]))": {
        "notice": "Called by the Router to deliver a message. If this reverts, any token transfers also revert. The message will move to a FAILED state and become available for manual execution."
      },
      "createPlan((string,uint256,string,uint256))": {
        "notice": "Create plans "
      },
      "getRouter()": {
        "notice": "Return the current router"
      },
      "handleOracleFulfillment(bytes32,bytes,bytes)": {
        "notice": "Chainlink Functions response handler called by the Functions Router during fullilment from the designated transmitter node in an OCR round."
      },
      "supportsInterface(bytes4)": {
        "notice": "IERC165 supports an interfaceId"
      }
    },
    "version": 1
  }
}