{
  "contractName": "KanvasInterop",
  "abi": [
    {
      "inputs": [
        {
          "internalType": "address",
          "name": "ccipReceiver",
          "type": "address"
        },
        {
          "internalType": "address",
          "name": "functionOracle",
          "type": "address"
        },
        {
          "internalType": "uint64",
          "name": "chainSelector",
          "type": "uint64"
        }
      ],
      "stateMutability": "nonpayable",
      "type": "constructor"
    },
    {
      "inputs": [],
      "name": "EmptyArgs",
      "type": "error"
    },
    {
      "inputs": [],
      "name": "EmptySource",
      "type": "error"
    },
    {
      "inputs": [
        {
          "internalType": "address",
          "name": "router",
          "type": "address"
        }
      ],
      "name": "InvalidRouter",
      "type": "error"
    },
    {
      "inputs": [],
      "name": "NoInlineSecrets",
      "type": "error"
    },
    {
      "inputs": [],
      "name": "OnlyRouterCanFulfill",
      "type": "error"
    },
    {
      "anonymous": false,
      "inputs": [
        {
          "indexed": false,
          "internalType": "bytes32",
          "name": "requestId",
          "type": "bytes32"
        },
        {
          "indexed": false,
          "internalType": "bytes",
          "name": "err",
          "type": "bytes"
        }
      ],
      "name": "FulfullFailed",
      "type": "event"
    },
    {
      "anonymous": false,
      "inputs": [
        {
          "indexed": false,
          "internalType": "bytes32",
          "name": "requestId",
          "type": "bytes32"
        },
        {
          "indexed": false,
          "internalType": "bytes",
          "name": "response",
          "type": "bytes"
        }
      ],
      "name": "FulfullSuccess",
      "type": "event"
    },
    {
      "anonymous": false,
      "inputs": [
        {
          "indexed": true,
          "internalType": "bytes32",
          "name": "requestId",
          "type": "bytes32"
        },
        {
          "indexed": false,
          "internalType": "bytes",
          "name": "result",
          "type": "bytes"
        },
        {
          "indexed": false,
          "internalType": "bytes",
          "name": "err",
          "type": "bytes"
        }
      ],
      "name": "OCRResponse",
      "type": "event"
    },
    {
      "anonymous": false,
      "inputs": [
        {
          "indexed": true,
          "internalType": "address",
          "name": "previousOwner",
          "type": "address"
        },
        {
          "indexed": true,
          "internalType": "address",
          "name": "newOwner",
          "type": "address"
        }
      ],
      "name": "OwnershipTransferred",
      "type": "event"
    },
    {
      "anonymous": false,
      "inputs": [
        {
          "indexed": false,
          "internalType": "uint256",
          "name": "planId",
          "type": "uint256"
        },
        {
          "indexed": false,
          "internalType": "string",
          "name": "name",
          "type": "string"
        },
        {
          "indexed": false,
          "internalType": "uint256",
          "name": "cost",
          "type": "uint256"
        },
        {
          "indexed": false,
          "internalType": "string",
          "name": "color",
          "type": "string"
        },
        {
          "indexed": false,
          "internalType": "uint256",
          "name": "limit",
          "type": "uint256"
        }
      ],
      "name": "PlanCreated",
      "type": "event"
    },
    {
      "anonymous": false,
      "inputs": [
        {
          "indexed": true,
          "internalType": "bytes32",
          "name": "id",
          "type": "bytes32"
        }
      ],
      "name": "RequestFulfilled",
      "type": "event"
    },
    {
      "anonymous": false,
      "inputs": [
        {
          "indexed": true,
          "internalType": "bytes32",
          "name": "id",
          "type": "bytes32"
        }
      ],
      "name": "RequestSent",
      "type": "event"
    },
    {
      "anonymous": false,
      "inputs": [
        {
          "indexed": false,
          "internalType": "bytes32",
          "name": "requestId",
          "type": "bytes32"
        },
        {
          "indexed": false,
          "internalType": "address",
          "name": "gameId",
          "type": "address"
        }
      ],
      "name": "RequestSent",
      "type": "event"
    },
    {
      "inputs": [],
      "name": "MAX_PROPERTIES_LEN",
      "outputs": [
        {
          "internalType": "uint256",
          "name": "",
          "type": "uint256"
        }
      ],
      "stateMutability": "view",
      "type": "function"
    },
    {
      "inputs": [],
      "name": "MAX_TEMPLATES_LEN",
      "outputs": [
        {
          "internalType": "uint256",
          "name": "",
          "type": "uint256"
        }
      ],
      "stateMutability": "view",
      "type": "function"
    },
    {
      "inputs": [
        {
          "components": [
            {
              "internalType": "bytes32",
              "name": "messageId",
              "type": "bytes32"
            },
            {
              "internalType": "uint64",
              "name": "sourceChainSelector",
              "type": "uint64"
            },
            {
              "internalType": "bytes",
              "name": "sender",
              "type": "bytes"
            },
            {
              "internalType": "bytes",
              "name": "data",
              "type": "bytes"
            },
            {
              "components": [
                {
                  "internalType": "address",
                  "name": "token",
                  "type": "address"
                },
                {
                  "internalType": "uint256",
                  "name": "amount",
                  "type": "uint256"
                }
              ],
              "internalType": "struct Client.EVMTokenAmount[]",
              "name": "destTokenAmounts",
              "type": "tuple[]"
            }
          ],
          "internalType": "struct Client.Any2EVMMessage",
          "name": "message",
          "type": "tuple"
        }
      ],
      "name": "ccipReceive",
      "outputs": [],
      "stateMutability": "nonpayable",
      "type": "function"
    },
    {
      "inputs": [],
      "name": "getRouter",
      "outputs": [
        {
          "internalType": "address",
          "name": "",
          "type": "address"
        }
      ],
      "stateMutability": "view",
      "type": "function"
    },
    {
      "inputs": [
        {
          "internalType": "bytes32",
          "name": "requestId",
          "type": "bytes32"
        },
        {
          "internalType": "bytes",
          "name": "response",
          "type": "bytes"
        },
        {
          "internalType": "bytes",
          "name": "err",
          "type": "bytes"
        }
      ],
      "name": "handleOracleFulfillment",
      "outputs": [],
      "stateMutability": "nonpayable",
      "type": "function"
    },
    {
      "inputs": [],
      "name": "owner",
      "outputs": [
        {
          "internalType": "address",
          "name": "",
          "type": "address"
        }
      ],
      "stateMutability": "view",
      "type": "function"
    },
    {
      "inputs": [],
      "name": "renounceOwnership",
      "outputs": [],
      "stateMutability": "nonpayable",
      "type": "function"
    },
    {
      "inputs": [
        {
          "internalType": "bytes4",
          "name": "interfaceId",
          "type": "bytes4"
        }
      ],
      "name": "supportsInterface",
      "outputs": [
        {
          "internalType": "bool",
          "name": "",
          "type": "bool"
        }
      ],
      "stateMutability": "pure",
      "type": "function"
    },
    {
      "inputs": [
        {
          "internalType": "address",
          "name": "newOwner",
          "type": "address"
        }
      ],
      "name": "transferOwnership",
      "outputs": [],
      "stateMutability": "nonpayable",
      "type": "function"
    },
    {
      "inputs": [
        {
          "internalType": "bytes32",
          "name": "newDonId",
          "type": "bytes32"
        }
      ],
      "name": "updateDonId",
      "outputs": [],
      "stateMutability": "nonpayable",
      "type": "function"
    },
    {
      "inputs": [
        {
          "internalType": "string",
          "name": "newSourceCode",
          "type": "string"
        }
      ],
      "name": "updateSourceCode",
      "outputs": [],
      "stateMutability": "nonpayable",
      "type": "function"
    },
    {
      "inputs": [
        {
          "internalType": "uint32",
          "name": "newLimit",
          "type": "uint32"
        }
      ],
      "name": "updateGasLimit",
      "outputs": [],
      "stateMutability": "nonpayable",
      "type": "function"
    },
    {
      "inputs": [
        {
          "internalType": "uint64",
          "name": "newSubscriptionId",
          "type": "uint64"
        }
      ],
      "name": "updateSubscriptionId",
      "outputs": [],
      "stateMutability": "nonpayable",
      "type": "function"
    },
    {
      "inputs": [
        {
          "internalType": "uint64",
          "name": "",
          "type": "uint64"
        },
        {
          "components": [
            {
              "internalType": "address",
              "name": "gameId",
              "type": "address"
            }
          ],
          "internalType": "struct Params.InteropGame",
          "name": "params",
          "type": "tuple"
        }
      ],
      "name": "_createGame",
      "outputs": [],
      "stateMutability": "nonpayable",
      "type": "function"
    },
    {
      "inputs": [
        {
          "internalType": "address",
          "name": "playerId",
          "type": "address"
        },
        {
          "internalType": "string[]",
          "name": "props",
          "type": "string[]"
        },
        {
          "internalType": "string",
          "name": "fields",
          "type": "string"
        },
        {
          "internalType": "uint8",
          "name": "templateId",
          "type": "uint8"
        }
      ],
      "name": "_generateUri",
      "outputs": [],
      "stateMutability": "nonpayable",
      "type": "function"
    },
    {
      "inputs": [
        {
          "internalType": "uint64",
          "name": "chainSelector",
          "type": "uint64"
        },
        {
          "internalType": "address",
          "name": "kanvasRouter",
          "type": "address"
        }
      ],
      "name": "updateInterop",
      "outputs": [],
      "stateMutability": "nonpayable",
      "type": "function"
    },
    {
      "inputs": [
        {
          "internalType": "uint64",
          "name": "chainSelector",
          "type": "uint64"
        },
        {
          "internalType": "address",
          "name": "gameId",
          "type": "address"
        },
        {
          "internalType": "address",
          "name": "playerId",
          "type": "address"
        },
        {
          "internalType": "uint256",
          "name": "tokenId",
          "type": "uint256"
        },
        {
          "internalType": "string",
          "name": "uri",
          "type": "string"
        },
        {
          "internalType": "bytes",
          "name": "data",
          "type": "bytes"
        }
      ],
      "name": "_transferTo",
      "outputs": [],
      "stateMutability": "payable",
      "type": "function"
    }
  ],
  "bytecode": "0x60e06040523480156200001157600080fd5b5060405162004b8a38038062004b8a833981810160405281019062000037919062000332565b8183600073ffffffffffffffffffffffffffffffffffffffff168173ffffffffffffffffffffffffffffffffffffffff1603620000ae5760006040517fd7f73334000000000000000000000000000000000000000000000000000000008152600401620000a591906200039f565b60405180910390fd5b8073ffffffffffffffffffffffffffffffffffffffff1660808173ffffffffffffffffffffffffffffffffffffffff1681525050508073ffffffffffffffffffffffffffffffffffffffff1660a08173ffffffffffffffffffffffffffffffffffffffff168152505050620001386200012c620001ad60201b60201c565b620001b560201b60201c565b620001486200027960201b60201c565b600760006101000a81548173ffffffffffffffffffffffffffffffffffffffff021916908373ffffffffffffffffffffffffffffffffffffffff1602179055508067ffffffffffffffff1660c08167ffffffffffffffff1681525050505050620003bc565b600033905090565b60008060009054906101000a900473ffffffffffffffffffffffffffffffffffffffff169050816000806101000a81548173ffffffffffffffffffffffffffffffffffffffff021916908373ffffffffffffffffffffffffffffffffffffffff1602179055508173ffffffffffffffffffffffffffffffffffffffff168173ffffffffffffffffffffffffffffffffffffffff167f8be0079c531659141344cd1fd0a4f28419497f9722a3daafe3b4186f6b6457e060405160405180910390a35050565b6000608051905090565b600080fd5b600073ffffffffffffffffffffffffffffffffffffffff82169050919050565b6000620002b58262000288565b9050919050565b620002c781620002a8565b8114620002d357600080fd5b50565b600081519050620002e781620002bc565b92915050565b600067ffffffffffffffff82169050919050565b6200030c81620002ed565b81146200031857600080fd5b50565b6000815190506200032c8162000301565b92915050565b6000806000606084860312156200034e576200034d62000283565b5b60006200035e86828701620002d6565b93505060206200037186828701620002d6565b925050604062000384868287016200031b565b9150509250925092565b6200039981620002a8565b82525050565b6000602082019050620003b660008301846200038e565b92915050565b60805160a05160c05161478962000401600039600081816108ba01526109be01526000818161048d0152611cd70152600081816105d50152610b7501526147896000f3fe6080604052600436106100fe5760003560e01c80638d6dc0eb11610095578063b0f479a111610064578063b0f479a1146102e8578063b3285e3214610313578063dff0ee411461033c578063eee6e57314610367578063f2fde38b14610390576100fe565b80638d6dc0eb1461024f5780638da5cb5b1461026b57806392154a3d14610296578063afd21cfe146102bf576100fe565b80636df0c747116100d15780636df0c747146101bb578063715018a6146101e457806385572ffb146101fb5780638b8ff35814610224576100fe565b806301ffc9a7146101035780630ca761751461014057806314b1dd1b1461016957806334303bcd14610192575b600080fd5b34801561010f57600080fd5b5061012a600480360381019061012591906128cc565b6103b9565b6040516101379190612914565b60405180910390f35b34801561014c57600080fd5b5061016760048036038101906101629190612aab565b61048b565b005b34801561017557600080fd5b50610190600480360381019061018b9190612b76565b61054d565b005b34801561019e57600080fd5b506101b960048036038101906101b49190612bdf565b610581565b005b3480156101c757600080fd5b506101e260048036038101906101dd9190612c0c565b6105ad565b005b3480156101f057600080fd5b506101f96105bf565b005b34801561020757600080fd5b50610222600480360381019061021d9190612c5d565b6105d3565b005b34801561023057600080fd5b50610239610678565b6040516102469190612cbf565b60405180910390f35b61026960048036038101906102649190612e05565b61067d565b005b34801561027757600080fd5b50610280610a49565b60405161028d9190612ed9565b60405180910390f35b3480156102a257600080fd5b506102bd60048036038101906102b89190612ef4565b610a72565b005b3480156102cb57600080fd5b506102e660048036038101906102e19190612f7a565b610ae4565b005b3480156102f457600080fd5b506102fd610b71565b60405161030a9190612ed9565b60405180910390f35b34801561031f57600080fd5b5061033a60048036038101906103359190612fba565b610b99565b005b34801561034857600080fd5b50610351610bb4565b60405161035e9190612cbf565b60405180910390f35b34801561037357600080fd5b5061038e60048036038101906103899190613122565b610bb9565b005b34801561039c57600080fd5b506103b760048036038101906103b291906131c1565b6110d3565b005b60007f85572ffb000000000000000000000000000000000000000000000000000000007bffffffffffffffffffffffffffffffffffffffffffffffffffffffff1916827bffffffffffffffffffffffffffffffffffffffffffffffffffffffff1916148061048457507f01ffc9a7000000000000000000000000000000000000000000000000000000007bffffffffffffffffffffffffffffffffffffffffffffffffffffffff1916827bffffffffffffffffffffffffffffffffffffffffffffffffffffffff1916145b9050919050565b7f000000000000000000000000000000000000000000000000000000000000000073ffffffffffffffffffffffffffffffffffffffff163373ffffffffffffffffffffffffffffffffffffffff1614610510576040517fc6829f8300000000000000000000000000000000000000000000000000000000815260040160405180910390fd5b61051b838383611156565b827f85e1543bf2f84fe80c6badbce3648c8539ad1df4d2b3d822938ca0538be727e660405160405180910390a2505050565b6105556114e8565b80600260006101000a81548167ffffffffffffffff021916908367ffffffffffffffff16021790555050565b6105896114e8565b80600260086101000a81548163ffffffff021916908363ffffffff16021790555050565b6105b56114e8565b8060038190555050565b6105c76114e8565b6105d16000611566565b565b7f000000000000000000000000000000000000000000000000000000000000000073ffffffffffffffffffffffffffffffffffffffff163373ffffffffffffffffffffffffffffffffffffffff161461066357336040517fd7f7333400000000000000000000000000000000000000000000000000000000815260040161065a9190612ed9565b60405180910390fd5b61067581610670906133e1565b61162a565b50565b601481565b600073ffffffffffffffffffffffffffffffffffffffff16600660008867ffffffffffffffff1667ffffffffffffffff16815260200190815260200160002060009054906101000a900473ffffffffffffffffffffffffffffffffffffffff1673ffffffffffffffffffffffffffffffffffffffff1603610733576040517f08c379a000000000000000000000000000000000000000000000000000000000815260040161072a90613451565b60405180910390fd5b60006040518060a00160405280600660008a67ffffffffffffffff1667ffffffffffffffff16815260200190815260200160002060009054906101000a900473ffffffffffffffffffffffffffffffffffffffff166040516020016107989190612ed9565b604051602081830303815290604052815260200187878787876040516020016107c5959493929190613534565b6040516020818303038152906040528152602001600067ffffffffffffffff8111156107f4576107f3612980565b5b60405190808252806020026020018201604052801561082d57816020015b61081a612784565b8152602001906001900390816108125790505b508152602001600073ffffffffffffffffffffffffffffffffffffffff168152602001610873604051806040016040528062061a808152602001600015158152506116db565b81525090506000600760009054906101000a900473ffffffffffffffffffffffffffffffffffffffff1673ffffffffffffffffffffffffffffffffffffffff166320487ded7f0000000000000000000000000000000000000000000000000000000000000000846040518363ffffffff1660e01b81526004016108f7929190613775565b602060405180830381865afa158015610914573d6000803e3d6000fd5b505050506040513d601f19601f8201168201806040525081019061093891906137ba565b90508034101561097d576040517f08c379a000000000000000000000000000000000000000000000000000000000815260040161097490613833565b60405180910390fd5b600760009054906101000a900473ffffffffffffffffffffffffffffffffffffffff1673ffffffffffffffffffffffffffffffffffffffff166396f4e9f9827f0000000000000000000000000000000000000000000000000000000000000000856040518463ffffffff1660e01b81526004016109fb929190613775565b60206040518083038185885af1158015610a19573d6000803e3d6000fd5b50505050506040513d601f19601f82011682018060405250810190610a3e9190613868565b505050505050505050565b60008060009054906101000a900473ffffffffffffffffffffffffffffffffffffffff16905090565b610a7a6114e8565b80600660008467ffffffffffffffff1667ffffffffffffffff16815260200190815260200160002060006101000a81548173ffffffffffffffffffffffffffffffffffffffff021916908373ffffffffffffffffffffffffffffffffffffffff1602179055505050565b806000015160046000610af561175a565b73ffffffffffffffffffffffffffffffffffffffff1673ffffffffffffffffffffffffffffffffffffffff16815260200190815260200160002060006101000a81548173ffffffffffffffffffffffffffffffffffffffff021916908373ffffffffffffffffffffffffffffffffffffffff1602179055505050565b60007f0000000000000000000000000000000000000000000000000000000000000000905090565b610ba16114e8565b8060019081610bb09190613aa1565b5050565b600581565b601483511115610bfe576040517f08c379a0000000000000000000000000000000000000000000000000000000008152600401610bf590613bbf565b60405180910390fd5b600060046000610c0c61175a565b73ffffffffffffffffffffffffffffffffffffffff1673ffffffffffffffffffffffffffffffffffffffff16815260200190815260200160002060009054906101000a900473ffffffffffffffffffffffffffffffffffffffff169050600073ffffffffffffffffffffffffffffffffffffffff16600460008373ffffffffffffffffffffffffffffffffffffffff1673ffffffffffffffffffffffffffffffffffffffff16815260200190815260200160002060009054906101000a900473ffffffffffffffffffffffffffffffffffffffff1673ffffffffffffffffffffffffffffffffffffffff1603610d37576040517f08c379a0000000000000000000000000000000000000000000000000000000008152600401610d2e90613c2b565b60405180910390fd5b6000600567ffffffffffffffff811115610d5457610d53612980565b5b604051908082528060200260200182016040528015610d8757816020015b6060815260200190600190039081610d725790505b50905073__StringJoiner__________________________635c8656e0866040518263ffffffff1660e01b8152600401610dc19190613db4565b600060405180830381865af4158015610dde573d6000803e3d6000fd5b505050506040513d6000823e3d601f19601f82011682018060405250810190610e079190613e59565b81600081518110610e1b57610e1a613ea2565b5b60200260200101819052508381600181518110610e3b57610e3a613ea2565b5b6020026020010181905250610e4f82611762565b81600281518110610e6357610e62613ea2565b5b6020026020010181905250610e7786611762565b81600381518110610e8b57610e8a613ea2565b5b6020026020010181905250610ea28360ff1661178f565b81600481518110610eb657610eb5613ea2565b5b6020026020010181905250610ec96127b4565b610f6660018054610ed9906138c4565b80601f0160208091040260200160405190810160405280929190818152602001828054610f05906138c4565b8015610f525780601f10610f2757610100808354040283529160200191610f52565b820191906000526020600020905b815481529060010190602001808311610f3557829003601f168201915b50505050508261185d90919063ffffffff16565b610f79828261186e90919063ffffffff16565b6000610fb9610f87836118b6565b600260009054906101000a900467ffffffffffffffff16600260089054906101000a900463ffffffff16600354611cd2565b905060405180606001604052808573ffffffffffffffffffffffffffffffffffffffff1681526020018973ffffffffffffffffffffffffffffffffffffffff168152602001600015158152506005600083815260200190815260200160002060008201518160000160006101000a81548173ffffffffffffffffffffffffffffffffffffffff021916908373ffffffffffffffffffffffffffffffffffffffff16021790555060208201518160010160006101000a81548173ffffffffffffffffffffffffffffffffffffffff021916908373ffffffffffffffffffffffffffffffffffffffff16021790555060408201518160010160146101000a81548160ff0219169083151502179055509050505050505050505050565b6110db6114e8565b600073ffffffffffffffffffffffffffffffffffffffff168173ffffffffffffffffffffffffffffffffffffffff160361114a576040517f08c379a000000000000000000000000000000000000000000000000000000000815260040161114190613f43565b60405180910390fd5b61115381611566565b50565b827f7bab0ec163b5c132c72b8146ac4d6e067e82ed58f8b131150aa71c92589115628383604051611188929190613f63565b60405180910390a26000815111156111d8577f980dacf15fd4de388a78b30b7137819db55322065f76cd76f26843976b4b8f3d83826040516111cb929190613fa9565b60405180910390a16114e3565b6000828060200190518101906111ee9190613e59565b905060006005600086815260200190815260200160002090508060010160149054906101000a900460ff1615611259576040517f08c379a000000000000000000000000000000000000000000000000000000000815260040161125090614025565b60405180910390fd5b611298826040518060400160405280600481526020017f4e554c4c00000000000000000000000000000000000000000000000000000000815250611db5565b156112dd577f980dacf15fd4de388a78b30b7137819db55322065f76cd76f26843976b4b8f3d85856040516112ce929190613fa9565b60405180910390a150506114e3565b60018160010160146101000a81548160ff021916908315150217905550600073ffffffffffffffffffffffffffffffffffffffff16600460008360000160009054906101000a900473ffffffffffffffffffffffffffffffffffffffff1673ffffffffffffffffffffffffffffffffffffffff1673ffffffffffffffffffffffffffffffffffffffff16815260200190815260200160002060009054906101000a900473ffffffffffffffffffffffffffffffffffffffff1673ffffffffffffffffffffffffffffffffffffffff16036113ec576040517f08c379a00000000000000000000000000000000000000000000000000000000081526004016113e390613c2b565b60405180910390fd5b60008160000160009054906101000a900473ffffffffffffffffffffffffffffffffffffffff1690508073ffffffffffffffffffffffffffffffffffffffff16638f9c39568360010160009054906101000a900473ffffffffffffffffffffffffffffffffffffffff16856040518363ffffffff1660e01b8152600401611474929190614045565b600060405180830381600087803b15801561148e57600080fd5b505af11580156114a2573d6000803e3d6000fd5b505050507feaedbcf97bf9fb5a6b911a99706c1cd297c974a3bf541bb1806522fccc69e27a86866040516114d7929190613fa9565b60405180910390a15050505b505050565b6114f061175a565b73ffffffffffffffffffffffffffffffffffffffff1661150e610a49565b73ffffffffffffffffffffffffffffffffffffffff1614611564576040517f08c379a000000000000000000000000000000000000000000000000000000000815260040161155b906140c1565b60405180910390fd5b565b60008060009054906101000a900473ffffffffffffffffffffffffffffffffffffffff169050816000806101000a81548173ffffffffffffffffffffffffffffffffffffffff021916908373ffffffffffffffffffffffffffffffffffffffff1602179055508173ffffffffffffffffffffffffffffffffffffffff168173ffffffffffffffffffffffffffffffffffffffff167f8be0079c531659141344cd1fd0a4f28419497f9722a3daafe3b4186f6b6457e060405160405180910390a35050565b6000806000806000856060015180602001905181019061164a919061418f565b9450945094509450945060008590508073ffffffffffffffffffffffffffffffffffffffff16636d4195fb886020015188888888886040518763ffffffff1660e01b81526004016116a096959493929190614242565b600060405180830381600087803b1580156116ba57600080fd5b505af11580156116ce573d6000803e3d6000fd5b5050505050505050505050565b60606397a657c960e01b826040516024016116f691906142ef565b604051602081830303815290604052907bffffffffffffffffffffffffffffffffffffffffffffffffffffffff19166020820180517bffffffffffffffffffffffffffffffffffffffffffffffffffffffff83818316178352505050509050919050565b600033905090565b60606117888273ffffffffffffffffffffffffffffffffffffffff16601460ff16611dd0565b9050919050565b60606000600161179e8461200c565b01905060008167ffffffffffffffff8111156117bd576117bc612980565b5b6040519080825280601f01601f1916602001820160405280156117ef5781602001600182028036833780820191505090505b509050600082602001820190505b600115611852578080600190039150507f3031323334353637383961626364656600000000000000000000000000000000600a86061a8153600a85816118465761184561430a565b5b049450600085036117fd575b819350505050919050565b61186a826000808461215f565b5050565b60008151036118a9576040517ffe936cb700000000000000000000000000000000000000000000000000000000815260040160405180910390fd5b808260a001819052505050565b606060006118c5610100612209565b905061190f6040518060400160405280600c81526020017f636f64654c6f636174696f6e00000000000000000000000000000000000000008152508261223090919063ffffffff16565b6119388360000151600281111561192957611928614339565b5b8261225990919063ffffffff16565b6119806040518060400160405280600881526020017f6c616e67756167650000000000000000000000000000000000000000000000008152508261223090919063ffffffff16565b6119a98360400151600081111561199a57611999614339565b5b8261225990919063ffffffff16565b6119f16040518060400160405280600681526020017f736f7572636500000000000000000000000000000000000000000000000000008152508261223090919063ffffffff16565b611a0883606001518261223090919063ffffffff16565b60008360a00151511115611ac457611a5e6040518060400160405280600481526020017f61726773000000000000000000000000000000000000000000000000000000008152508261223090919063ffffffff16565b611a67816122a9565b60005b8360a0015151811015611ab957611aa88460a001518281518110611a9157611a90613ea2565b5b60200260200101518361223090919063ffffffff16565b80611ab290614397565b9050611a6a565b50611ac3816122d1565b5b60008360800151511115611c055760006002811115611ae657611ae5614339565b5b83602001516002811115611afd57611afc614339565b5b03611b34576040517fa80d31f700000000000000000000000000000000000000000000000000000000815260040160405180910390fd5b611b7c6040518060400160405280600f81526020017f736563726574734c6f636174696f6e00000000000000000000000000000000008152508261223090919063ffffffff16565b611ba583602001516002811115611b9657611b95614339565b5b8261225990919063ffffffff16565b611bed6040518060400160405280600781526020017f73656372657473000000000000000000000000000000000000000000000000008152508261223090919063ffffffff16565b611c048360800151826122f990919063ffffffff16565b5b60008360c00151511115611cc157611c5b6040518060400160405280600981526020017f62797465734172677300000000000000000000000000000000000000000000008152508261223090919063ffffffff16565b611c64816122a9565b60005b8360c0015151811015611cb657611ca58460c001518281518110611c8e57611c8d613ea2565b5b6020026020010151836122f990919063ffffffff16565b80611caf90614397565b9050611c67565b50611cc0816122d1565b5b806000015160000151915050919050565b6000807f000000000000000000000000000000000000000000000000000000000000000073ffffffffffffffffffffffffffffffffffffffff1663461d27628688600188886040518663ffffffff1660e01b8152600401611d3795949392919061440b565b6020604051808303816000875af1158015611d56573d6000803e3d6000fd5b505050506040513d601f19601f82011682018060405250810190611d7a9190613868565b9050807f1131472297a800fee664d1d89cfa8f7676ff07189ecc53f80bbb5f4969099db860405160405180910390a280915050949350505050565b60008180519060200120838051906020012014905092915050565b606060006002836002611de39190614465565b611ded91906144a7565b67ffffffffffffffff811115611e0657611e05612980565b5b6040519080825280601f01601f191660200182016040528015611e385781602001600182028036833780820191505090505b5090507f300000000000000000000000000000000000000000000000000000000000000081600081518110611e7057611e6f613ea2565b5b60200101907effffffffffffffffffffffffffffffffffffffffffffffffffffffffffffff1916908160001a9053507f780000000000000000000000000000000000000000000000000000000000000081600181518110611ed457611ed3613ea2565b5b60200101907effffffffffffffffffffffffffffffffffffffffffffffffffffffffffffff1916908160001a90535060006001846002611f149190614465565b611f1e91906144a7565b90505b6001811115611fbe577f3031323334353637383961626364656600000000000000000000000000000000600f861660108110611f6057611f5f613ea2565b5b1a60f81b828281518110611f7757611f76613ea2565b5b60200101907effffffffffffffffffffffffffffffffffffffffffffffffffffffffffffff1916908160001a905350600485901c945080611fb7906144db565b9050611f21565b5060008414612002576040517f08c379a0000000000000000000000000000000000000000000000000000000008152600401611ff990614550565b60405180910390fd5b8091505092915050565b600080600090507a184f03e93ff9f4daa797ed6e38ed64bf6a1f010000000000000000831061206a577a184f03e93ff9f4daa797ed6e38ed64bf6a1f01000000000000000083816120605761205f61430a565b5b0492506040810190505b6d04ee2d6d415b85acef810000000083106120a7576d04ee2d6d415b85acef8100000000838161209d5761209c61430a565b5b0492506020810190505b662386f26fc1000083106120d657662386f26fc1000083816120cc576120cb61430a565b5b0492506010810190505b6305f5e10083106120ff576305f5e10083816120f5576120f461430a565b5b0492506008810190505b612710831061212457612710838161211a5761211961430a565b5b0492506004810190505b60648310612147576064838161213d5761213c61430a565b5b0492506002810190505b600a8310612156576001810190505b80915050919050565b600081510361219a576040517f22ce3edd00000000000000000000000000000000000000000000000000000000815260040160405180910390fd5b82846000019060028111156121b2576121b1614339565b5b908160028111156121c6576121c5614339565b5b8152505081846040019060008111156121e2576121e1614339565b5b908160008111156121f6576121f5614339565b5b8152505080846060018190525050505050565b612211612826565b61221f816000015183612322565b506000816020018181525050919050565b61223d826003835161239b565b61225481836000015161254490919063ffffffff16565b505050565b61227b60026005600660ff16901b17836000015161256090919063ffffffff16565b506122a582826040516020016122919190612cbf565b6040516020818303038152906040526122f9565b5050565b6122b48160046125ca565b6001816020018181516122c791906144a7565b9150818152505050565b6122dc8160076125ca565b6001816020018181516122ef9190614570565b9150818152505050565b612306826002835161239b565b61231d81836000015161254490919063ffffffff16565b505050565b61232a612846565b600060208361233991906145a4565b146123655760208261234b91906145a4565b60206123579190614570565b8261236291906144a7565b91505b81836020018181525050604051808452600081528281016020018181101561238c57600080fd5b80604052505082905092915050565b60178167ffffffffffffffff16116123d6576123d08160058460ff16901b60ff1617846000015161256090919063ffffffff16565b5061253f565b60ff8167ffffffffffffffff161161243457612409601860058460ff16901b17846000015161256090919063ffffffff16565b5061242e8167ffffffffffffffff16600185600001516125f09092919063ffffffff16565b5061253e565b61ffff8167ffffffffffffffff161161249357612468601960058460ff16901b17846000015161256090919063ffffffff16565b5061248d8167ffffffffffffffff16600285600001516125f09092919063ffffffff16565b5061253d565b63ffffffff8167ffffffffffffffff16116124f4576124c9601a60058460ff16901b17846000015161256090919063ffffffff16565b506124ee8167ffffffffffffffff16600485600001516125f09092919063ffffffff16565b5061253c565b612515601b60058460ff16901b17846000015161256090919063ffffffff16565b5061253a8167ffffffffffffffff16600885600001516125f09092919063ffffffff16565b505b5b5b5b505050565b61254c612846565b6125588383845161267d565b905092915050565b612568612846565b60008360000151519050600060018261258191906144a7565b9050846020015182106125a5576125a48560028361259f9190614465565b612760565b5b845160208382010185815381518311156125bd578282525b5050849250505092915050565b6125eb601f60058360ff16901b17836000015161256090919063ffffffff16565b505050565b6125f8612846565b600084600001515190506000818461261091906144a7565b90508560200151811115612635576126348660028361262f9190614465565b612760565b5b60006001856101006126479190614708565b6126519190614570565b90508651828101878319825116178152815184111561266e578382525b50508693505050509392505050565b612685612846565b825182111561269357600080fd5b60008460000151519050600083826126ab91906144a7565b905085602001518111156126d0576126cf866002836126ca9190614465565b612760565b5b600080875180518560208301019350808511156126eb578482525b60208901925050505b60208610612732578051825260208261270d91906144a7565b915060208161271c91906144a7565b905060208661272b9190614570565b95506126f4565b60006001876020036101000a0390508019825116818451168181178552505050879450505050509392505050565b6000826000015190506127738383612322565b5061277e8382612544565b50505050565b6040518060400160405280600073ffffffffffffffffffffffffffffffffffffffff168152602001600081525090565b6040518060e00160405280600060028111156127d3576127d2614339565b5b8152602001600060028111156127ec576127eb614339565b5b815260200160008081111561280457612803614339565b5b8152602001606081526020016060815260200160608152602001606081525090565b6040518060400160405280612839612846565b8152602001600081525090565b604051806040016040528060608152602001600081525090565b6000604051905090565b600080fd5b600080fd5b60007fffffffff0000000000000000000000000000000000000000000000000000000082169050919050565b6128a981612874565b81146128b457600080fd5b50565b6000813590506128c6816128a0565b92915050565b6000602082840312156128e2576128e161286a565b5b60006128f0848285016128b7565b91505092915050565b60008115159050919050565b61290e816128f9565b82525050565b60006020820190506129296000830184612905565b92915050565b6000819050919050565b6129428161292f565b811461294d57600080fd5b50565b60008135905061295f81612939565b92915050565b600080fd5b600080fd5b6000601f19601f8301169050919050565b7f4e487b7100000000000000000000000000000000000000000000000000000000600052604160045260246000fd5b6129b88261296f565b810181811067ffffffffffffffff821117156129d7576129d6612980565b5b80604052505050565b60006129ea612860565b90506129f682826129af565b919050565b600067ffffffffffffffff821115612a1657612a15612980565b5b612a1f8261296f565b9050602081019050919050565b82818337600083830152505050565b6000612a4e612a49846129fb565b6129e0565b905082815260208101848484011115612a6a57612a6961296a565b5b612a75848285612a2c565b509392505050565b600082601f830112612a9257612a91612965565b5b8135612aa2848260208601612a3b565b91505092915050565b600080600060608486031215612ac457612ac361286a565b5b6000612ad286828701612950565b935050602084013567ffffffffffffffff811115612af357612af261286f565b5b612aff86828701612a7d565b925050604084013567ffffffffffffffff811115612b2057612b1f61286f565b5b612b2c86828701612a7d565b9150509250925092565b600067ffffffffffffffff82169050919050565b612b5381612b36565b8114612b5e57600080fd5b50565b600081359050612b7081612b4a565b92915050565b600060208284031215612b8c57612b8b61286a565b5b6000612b9a84828501612b61565b91505092915050565b600063ffffffff82169050919050565b612bbc81612ba3565b8114612bc757600080fd5b50565b600081359050612bd981612bb3565b92915050565b600060208284031215612bf557612bf461286a565b5b6000612c0384828501612bca565b91505092915050565b600060208284031215612c2257612c2161286a565b5b6000612c3084828501612950565b91505092915050565b600080fd5b600060a08284031215612c5457612c53612c39565b5b81905092915050565b600060208284031215612c7357612c7261286a565b5b600082013567ffffffffffffffff811115612c9157612c9061286f565b5b612c9d84828501612c3e565b91505092915050565b6000819050919050565b612cb981612ca6565b82525050565b6000602082019050612cd46000830184612cb0565b92915050565b600073ffffffffffffffffffffffffffffffffffffffff82169050919050565b6000612d0582612cda565b9050919050565b612d1581612cfa565b8114612d2057600080fd5b50565b600081359050612d3281612d0c565b92915050565b612d4181612ca6565b8114612d4c57600080fd5b50565b600081359050612d5e81612d38565b92915050565b600067ffffffffffffffff821115612d7f57612d7e612980565b5b612d888261296f565b9050602081019050919050565b6000612da8612da384612d64565b6129e0565b905082815260208101848484011115612dc457612dc361296a565b5b612dcf848285612a2c565b509392505050565b600082601f830112612dec57612deb612965565b5b8135612dfc848260208601612d95565b91505092915050565b60008060008060008060c08789031215612e2257612e2161286a565b5b6000612e3089828a01612b61565b9650506020612e4189828a01612d23565b9550506040612e5289828a01612d23565b9450506060612e6389828a01612d4f565b935050608087013567ffffffffffffffff811115612e8457612e8361286f565b5b612e9089828a01612dd7565b92505060a087013567ffffffffffffffff811115612eb157612eb061286f565b5b612ebd89828a01612a7d565b9150509295509295509295565b612ed381612cfa565b82525050565b6000602082019050612eee6000830184612eca565b92915050565b60008060408385031215612f0b57612f0a61286a565b5b6000612f1985828601612b61565b9250506020612f2a85828601612d23565b9150509250929050565b600080fd5b600080fd5b600060208284031215612f5457612f53612f34565b5b612f5e60206129e0565b90506000612f6e84828501612d23565b60008301525092915050565b60008060408385031215612f9157612f9061286a565b5b6000612f9f85828601612b61565b9250506020612fb085828601612f3e565b9150509250929050565b600060208284031215612fd057612fcf61286a565b5b600082013567ffffffffffffffff811115612fee57612fed61286f565b5b612ffa84828501612dd7565b91505092915050565b600067ffffffffffffffff82111561301e5761301d612980565b5b602082029050602081019050919050565b600080fd5b600061304761304284613003565b6129e0565b9050808382526020820190506020840283018581111561306a5761306961302f565b5b835b818110156130b157803567ffffffffffffffff81111561308f5761308e612965565b5b80860161309c8982612dd7565b8552602085019450505060208101905061306c565b5050509392505050565b600082601f8301126130d0576130cf612965565b5b81356130e0848260208601613034565b91505092915050565b600060ff82169050919050565b6130ff816130e9565b811461310a57600080fd5b50565b60008135905061311c816130f6565b92915050565b6000806000806080858703121561313c5761313b61286a565b5b600061314a87828801612d23565b945050602085013567ffffffffffffffff81111561316b5761316a61286f565b5b613177878288016130bb565b935050604085013567ffffffffffffffff8111156131985761319761286f565b5b6131a487828801612dd7565b92505060606131b58782880161310d565b91505092959194509250565b6000602082840312156131d7576131d661286a565b5b60006131e584828501612d23565b91505092915050565b600067ffffffffffffffff82111561320957613208612980565b5b602082029050602081019050919050565b6000604082840312156132305761322f612f34565b5b61323a60406129e0565b9050600061324a84828501612d23565b600083015250602061325e84828501612d4f565b60208301525092915050565b600061327d613278846131ee565b6129e0565b905080838252602082019050604084028301858111156132a05761329f61302f565b5b835b818110156132c957806132b5888261321a565b8452602084019350506040810190506132a2565b5050509392505050565b600082601f8301126132e8576132e7612965565b5b81356132f884826020860161326a565b91505092915050565b600060a0828403121561331757613316612f34565b5b61332160a06129e0565b9050600061333184828501612950565b600083015250602061334584828501612b61565b602083015250604082013567ffffffffffffffff81111561336957613368612f39565b5b61337584828501612a7d565b604083015250606082013567ffffffffffffffff81111561339957613398612f39565b5b6133a584828501612a7d565b606083015250608082013567ffffffffffffffff8111156133c9576133c8612f39565b5b6133d5848285016132d3565b60808301525092915050565b60006133ed3683613301565b9050919050565b600082825260208201905092915050565b7f436861696e206e6f7420737570706f7274656400000000000000000000000000600082015250565b600061343b6013836133f4565b915061344682613405565b602082019050919050565b6000602082019050818103600083015261346a8161342e565b9050919050565b600081519050919050565b60005b8381101561349a57808201518184015260208101905061347f565b60008484015250505050565b60006134b182613471565b6134bb81856133f4565b93506134cb81856020860161347c565b6134d48161296f565b840191505092915050565b600081519050919050565b600082825260208201905092915050565b6000613506826134df565b61351081856134ea565b935061352081856020860161347c565b6135298161296f565b840191505092915050565b600060a0820190506135496000830188612eca565b6135566020830187612eca565b6135636040830186612cb0565b818103606083015261357581856134a6565b9050818103608083015261358981846134fb565b90509695505050505050565b61359e81612b36565b82525050565b600082825260208201905092915050565b60006135c0826134df565b6135ca81856135a4565b93506135da81856020860161347c565b6135e38161296f565b840191505092915050565b600081519050919050565b600082825260208201905092915050565b6000819050602082019050919050565b61362381612cfa565b82525050565b61363281612ca6565b82525050565b60408201600082015161364e600085018261361a565b5060208201516136616020850182613629565b50505050565b60006136738383613638565b60408301905092915050565b6000602082019050919050565b6000613697826135ee565b6136a181856135f9565b93506136ac8361360a565b8060005b838110156136dd5781516136c48882613667565b97506136cf8361367f565b9250506001810190506136b0565b5085935050505092915050565b600060a083016000830151848203600086015261370782826135b5565b9150506020830151848203602086015261372182826135b5565b9150506040830151848203604086015261373b828261368c565b9150506060830151613750606086018261361a565b506080830151848203608086015261376882826135b5565b9150508091505092915050565b600060408201905061378a6000830185613595565b818103602083015261379c81846136ea565b90509392505050565b6000815190506137b481612d38565b92915050565b6000602082840312156137d0576137cf61286a565b5b60006137de848285016137a5565b91505092915050565b7f496e73756666696369656e742066656500000000000000000000000000000000600082015250565b600061381d6010836133f4565b9150613828826137e7565b602082019050919050565b6000602082019050818103600083015261384c81613810565b9050919050565b60008151905061386281612939565b92915050565b60006020828403121561387e5761387d61286a565b5b600061388c84828501613853565b91505092915050565b7f4e487b7100000000000000000000000000000000000000000000000000000000600052602260045260246000fd5b600060028204905060018216806138dc57607f821691505b6020821081036138ef576138ee613895565b5b50919050565b60008190508160005260206000209050919050565b60006020601f8301049050919050565b600082821b905092915050565b6000600883026139577fffffffffffffffffffffffffffffffffffffffffffffffffffffffffffffffff8261391a565b613961868361391a565b95508019841693508086168417925050509392505050565b6000819050919050565b600061399e61399961399484612ca6565b613979565b612ca6565b9050919050565b6000819050919050565b6139b883613983565b6139cc6139c4826139a5565b848454613927565b825550505050565b600090565b6139e16139d4565b6139ec8184846139af565b505050565b5b81811015613a1057613a056000826139d9565b6001810190506139f2565b5050565b601f821115613a5557613a26816138f5565b613a2f8461390a565b81016020851015613a3e578190505b613a52613a4a8561390a565b8301826139f1565b50505b505050565b600082821c905092915050565b6000613a7860001984600802613a5a565b1980831691505092915050565b6000613a918383613a67565b9150826002028217905092915050565b613aaa82613471565b67ffffffffffffffff811115613ac357613ac2612980565b5b613acd82546138c4565b613ad8828285613a14565b600060209050601f831160018114613b0b5760008415613af9578287015190505b613b038582613a85565b865550613b6b565b601f198416613b19866138f5565b60005b82811015613b4157848901518255600182019150602085019450602081019050613b1c565b86831015613b5e5784890151613b5a601f891682613a67565b8355505b6001600288020188555050505b505050505050565b7f546f6f206d616e79206174747269627574657300000000000000000000000000600082015250565b6000613ba96013836133f4565b9150613bb482613b73565b602082019050919050565b60006020820190508181036000830152613bd881613b9c565b9050919050565b7f47616d65204e6f7420466f756e64000000000000000000000000000000000000600082015250565b6000613c15600e836133f4565b9150613c2082613bdf565b602082019050919050565b60006020820190508181036000830152613c4481613c08565b9050919050565b600081519050919050565b600082825260208201905092915050565b6000819050602082019050919050565b600082825260208201905092915050565b6000613c9382613471565b613c9d8185613c77565b9350613cad81856020860161347c565b613cb68161296f565b840191505092915050565b6000613ccd8383613c88565b905092915050565b6000602082019050919050565b6000613ced82613c4b565b613cf78185613c56565b935083602082028501613d0985613c67565b8060005b85811015613d455784840389528151613d268582613cc1565b9450613d3183613cd5565b925060208a01995050600181019050613d0d565b50829750879550505050505092915050565b600082825260208201905092915050565b7f2c00000000000000000000000000000000000000000000000000000000000000600082015250565b6000613d9e600183613d57565b9150613da982613d68565b602082019050919050565b60006040820190508181036000830152613dce8184613ce2565b90508181036020830152613de181613d91565b905092915050565b6000613dfc613df784612d64565b6129e0565b905082815260208101848484011115613e1857613e1761296a565b5b613e2384828561347c565b509392505050565b600082601f830112613e4057613e3f612965565b5b8151613e50848260208601613de9565b91505092915050565b600060208284031215613e6f57613e6e61286a565b5b600082015167ffffffffffffffff811115613e8d57613e8c61286f565b5b613e9984828501613e2b565b91505092915050565b7f4e487b7100000000000000000000000000000000000000000000000000000000600052603260045260246000fd5b7f4f776e61626c653a206e6577206f776e657220697320746865207a65726f206160008201527f6464726573730000000000000000000000000000000000000000000000000000602082015250565b6000613f2d6026836133f4565b9150613f3882613ed1565b604082019050919050565b60006020820190508181036000830152613f5c81613f20565b9050919050565b60006040820190508181036000830152613f7d81856134fb565b90508181036020830152613f9181846134fb565b90509392505050565b613fa38161292f565b82525050565b6000604082019050613fbe6000830185613f9a565b8181036020830152613fd081846134fb565b90509392505050565b7f416c72656164792066756c66696c6c6564000000000000000000000000000000600082015250565b600061400f6011836133f4565b915061401a82613fd9565b602082019050919050565b6000602082019050818103600083015261403e81614002565b9050919050565b600060408201905061405a6000830185612eca565b818103602083015261406c81846134a6565b90509392505050565b7f4f776e61626c653a2063616c6c6572206973206e6f7420746865206f776e6572600082015250565b60006140ab6020836133f4565b91506140b682614075565b602082019050919050565b600060208201905081810360008301526140da8161409e565b9050919050565b60006140ec82612cda565b9050919050565b6140fc816140e1565b811461410757600080fd5b50565b600081519050614119816140f3565b92915050565b600061413261412d846129fb565b6129e0565b90508281526020810184848401111561414e5761414d61296a565b5b61415984828561347c565b509392505050565b600082601f83011261417657614175612965565b5b815161418684826020860161411f565b91505092915050565b600080600080600060a086880312156141ab576141aa61286a565b5b60006141b98882890161410a565b95505060206141ca8882890161410a565b94505060406141db888289016137a5565b935050606086015167ffffffffffffffff8111156141fc576141fb61286f565b5b61420888828901613e2b565b925050608086015167ffffffffffffffff8111156142295761422861286f565b5b61423588828901614161565b9150509295509295909350565b600060c0820190506142576000830189613595565b6142646020830188612eca565b6142716040830187612eca565b61427e6060830186612cb0565b818103608083015261429081856134a6565b905081810360a08301526142a481846134fb565b9050979650505050505050565b6142ba816128f9565b82525050565b6040820160008201516142d66000850182613629565b5060208201516142e960208501826142b1565b50505050565b600060408201905061430460008301846142c0565b92915050565b7f4e487b7100000000000000000000000000000000000000000000000000000000600052601260045260246000fd5b7f4e487b7100000000000000000000000000000000000000000000000000000000600052602160045260246000fd5b7f4e487b7100000000000000000000000000000000000000000000000000000000600052601160045260246000fd5b60006143a282612ca6565b91507fffffffffffffffffffffffffffffffffffffffffffffffffffffffffffffffff82036143d4576143d3614368565b5b600182019050919050565b600061ffff82169050919050565b6143f6816143df565b82525050565b61440581612ba3565b82525050565b600060a0820190506144206000830188613595565b818103602083015261443281876134fb565b905061444160408301866143ed565b61444e60608301856143fc565b61445b6080830184613f9a565b9695505050505050565b600061447082612ca6565b915061447b83612ca6565b925082820261448981612ca6565b915082820484148315176144a05761449f614368565b5b5092915050565b60006144b282612ca6565b91506144bd83612ca6565b92508282019050808211156144d5576144d4614368565b5b92915050565b60006144e682612ca6565b9150600082036144f9576144f8614368565b5b600182039050919050565b7f537472696e67733a20686578206c656e67746820696e73756666696369656e74600082015250565b600061453a6020836133f4565b915061454582614504565b602082019050919050565b600060208201905081810360008301526145698161452d565b9050919050565b600061457b82612ca6565b915061458683612ca6565b925082820390508181111561459e5761459d614368565b5b92915050565b60006145af82612ca6565b91506145ba83612ca6565b9250826145ca576145c961430a565b5b828206905092915050565b60008160011c9050919050565b6000808291508390505b600185111561462c5780860481111561460857614607614368565b5b60018516156146175780820291505b8081029050614625856145d5565b94506145ec565b94509492505050565b6000826146455760019050614701565b816146535760009050614701565b81600181146146695760028114614673576146a2565b6001915050614701565b60ff84111561468557614684614368565b5b8360020a91508482111561469c5761469b614368565b5b50614701565b5060208310610133831016604e8410600b84101617156146d75782820a9050838111156146d2576146d1614368565b5b614701565b6146e484848460016145e2565b925090508184048111156146fb576146fa614368565b5b81810290505b9392505050565b600061471382612ca6565b915061471e83612ca6565b925061474b7fffffffffffffffffffffffffffffffffffffffffffffffffffffffffffffffff8484614635565b90509291505056fea26469706673582212207d394ae363dd45e977070dc9002a75d255a982662402ba7a0ddacadecebd3ce364736f6c63430008130033",
  "immutableReferences": {
    "14": [
      {
        "length": 32,
        "start": 1493
      },
      {
        "length": 32,
        "start": 2933
      }
    ],
    "5186": [
      {
        "length": 32,
        "start": 1165
      },
      {
        "length": 32,
        "start": 7383
      }
    ],
    "5957": [
      {
        "length": 32,
        "start": 2234
      },
      {
        "length": 32,
        "start": 2494
      }
    ]
  },
  "source": "// SPDX-License-Identifier: MIT\r\npragma solidity ^0.8.19;\r\n\r\nimport {Assets} from \"./libraries/Assets.sol\";\r\nimport {Params} from \"./libraries/Params.sol\";\r\nimport {IKanvasInterop} from \"./interfaces/IKanvasInterop.sol\";\r\nimport {IKanvasInteropGame} from \"./interfaces/IKanvasInteropGame.sol\";\r\nimport {IKanvasGame} from \"./interfaces/IKanvasGame.sol\";\r\nimport {StringJoiner} from \"./libraries/StringJoiner.sol\";\r\n\r\nimport {Strings} from \"@openzeppelin/contracts/utils/Strings.sol\";\r\nimport {Ownable} from \"@openzeppelin/contracts/access/Ownable.sol\";\r\nimport {Context} from \"@openzeppelin/contracts/utils/Context.sol\";\r\n\r\nimport {FunctionsClient} from \"./FunctionsClient.sol\";\r\nimport {FunctionsRequest} from \"@chainlink/contracts/src/v0.8/functions/dev/v1_0_0/libraries/FunctionsRequest.sol\";\r\n\r\nimport {Client} from \"@chainlink/contracts-ccip/src/v0.8/ccip/libraries/Client.sol\";\r\nimport {CCIPReceiver} from \"@chainlink/contracts-ccip/src/v0.8/ccip/applications/CCIPReceiver.sol\";\r\nimport {IRouterClient} from \"@chainlink/contracts-ccip/src/v0.8/ccip/interfaces/IRouterClient.sol\";\r\n\r\ncontract KanvasInterop is\r\n    IKanvasInterop,\r\n    Context,\r\n    CCIPReceiver,\r\n    FunctionsClient,\r\n    Ownable\r\n{\r\n    using FunctionsRequest for FunctionsRequest.Request;\r\n\r\n    uint64 private immutable _chainSelector;\r\n\r\n    uint256 public constant MAX_PROPERTIES_LEN = 20;\r\n    uint256 public constant MAX_TEMPLATES_LEN = 5;\r\n\r\n    string private _sourceCode;\r\n    uint64 private _subscriptionId;\r\n    uint32 private _gasLimit;\r\n    bytes32 private _donId;\r\n\r\n    mapping(address => address) private _games;\r\n\r\n    mapping(bytes32 => Assets.Request) private _requests;\r\n\r\n    mapping(uint64 => address) private _interops;\r\n\r\n    IRouterClient private _router;\r\n\r\n    constructor(\r\n        address ccipReceiver,\r\n        address functionOracle,\r\n        uint64 chainSelector\r\n    ) CCIPReceiver(ccipReceiver) Ownable() FunctionsClient(functionOracle) {\r\n        _router = IRouterClient(getRouter());\r\n        _chainSelector = chainSelector;\r\n    }\r\n\r\n    function updateDonId(bytes32 newDonId) external onlyOwner {\r\n        _donId = newDonId;\r\n    }\r\n\r\n    function updateSourceCode(string memory newSourceCode) external onlyOwner {\r\n        _sourceCode = newSourceCode;\r\n    }\r\n\r\n    function updateGasLimit(uint32 newLimit) external onlyOwner {\r\n        _gasLimit = newLimit;\r\n    }\r\n\r\n    function updateSubscriptionId(uint64 newSubscriptionId) external onlyOwner {\r\n        _subscriptionId = newSubscriptionId;\r\n    }\r\n\r\n    function _createGame(\r\n        uint64 /* chainSelector */,\r\n        Params.InteropGame memory params\r\n    ) external override {\r\n        _games[_msgSender()] = params.gameId;\r\n    }\r\n\r\n    function _generateUri(\r\n        address playerId,\r\n        string[] memory props,\r\n        string memory fields,\r\n        uint8 templateId\r\n    ) external override {\r\n        require(props.length <= MAX_PROPERTIES_LEN, \"Too many attributes\");\r\n\r\n        address gameId = _games[_msgSender()];\r\n        require(_games[gameId] != address(0), \"Game Not Found\");\r\n\r\n        string[] memory args = new string[](5);\r\n        args[0] = StringJoiner.joinStrings(props, \",\");\r\n        args[1] = fields;\r\n        args[2] = Strings.toHexString(gameId);\r\n        args[3] = Strings.toHexString(playerId);\r\n        args[4] = Strings.toString(templateId);\r\n\r\n        // Initialize the request\r\n        FunctionsRequest.Request memory req;\r\n\r\n        // Soucre code\r\n        req.initializeRequestForInlineJavaScript(_sourceCode);\r\n\r\n        // Add arguments\r\n        req.setArgs(args);\r\n\r\n        bytes32 requestId = _sendRequest(\r\n            req.encodeCBOR(),\r\n            _subscriptionId,\r\n            _gasLimit,\r\n            _donId\r\n        );\r\n\r\n        _requests[requestId] = Assets.Request({\r\n            gameId: gameId,\r\n            playerId: playerId,\r\n            fulfilled: false\r\n        });\r\n    }\r\n\r\n    function updateInterop(\r\n        uint64 chainSelector,\r\n        address kanvasRouter\r\n    ) external onlyOwner {\r\n        _interops[chainSelector] = kanvasRouter;\r\n    }\r\n\r\n    /** Receive the response in the form of string  */\r\n    function fulfillRequest(\r\n        bytes32 requestId,\r\n        bytes memory response,\r\n        bytes memory err\r\n    ) internal override {\r\n        emit OCRResponse(requestId, response, err);\r\n\r\n        if (err.length > 0) {\r\n            emit FulfullFailed(requestId, err);\r\n            return;\r\n        }\r\n\r\n        string memory uri = abi.decode(response, (string));\r\n\r\n        Assets.Request storage request = _requests[requestId];\r\n        require(!request.fulfilled, \"Already fulfilled\");\r\n\r\n        if (Strings.equal(uri, \"NULL\")) {\r\n            emit FulfullFailed(requestId, response);\r\n            return;\r\n        }\r\n\r\n        request.fulfilled = true;\r\n\r\n        require(_games[request.gameId] != address(0), \"Game Not Found\");\r\n\r\n        IKanvasGame game = IKanvasGame(request.gameId);\r\n        game._receiveUri(request.playerId, uri);\r\n\r\n        emit FulfullSuccess(requestId, response);\r\n    }\r\n\r\n    function _transferTo(\r\n        uint64 chainSelector,\r\n        address gameId,\r\n        address playerId,\r\n        uint256 tokenId,\r\n        string memory uri,\r\n        bytes memory data\r\n    ) external payable {\r\n        require(_interops[chainSelector] != address(0), \"Chain not supported\");\r\n\r\n        // Create an EVM2AnyMessage struct in memory with necessary information for sending a cross-chain message\r\n        Client.EVM2AnyMessage memory message = Client.EVM2AnyMessage({\r\n            // ABI-encoded receiver address\r\n            receiver: abi.encode(_interops[chainSelector]),\r\n            // ABI-encoded string message\r\n            data: abi.encode(gameId, playerId, tokenId, uri, data),\r\n            // Empty array indicating no tokens are being sent\r\n            tokenAmounts: new Client.EVMTokenAmount[](0),\r\n            // Additional arguments, setting gas limit and non-strict sequency mode\r\n            extraArgs: Client._argsToBytes(\r\n                Client.EVMExtraArgsV1({gasLimit: 400_000, strict: false})\r\n            ),\r\n            // Setting feeToken to zero address, indicating native asset will be used for fees\r\n            feeToken: address(0)\r\n        });\r\n\r\n        // Get the fee required to send the message\r\n        uint256 fees = _router.getFee(_chainSelector, message);\r\n\r\n        require(msg.value >= fees, \"Insufficient fee\");\r\n\r\n        // Send the message through the router and store the returned message ID\r\n        _router.ccipSend{value: fees}(_chainSelector, message);\r\n    }\r\n\r\n    // handle a received message\r\n    function _ccipReceive(\r\n        Client.Any2EVMMessage memory message\r\n    ) internal override {\r\n        (\r\n            address gameId,\r\n            address playerId,\r\n            uint256 tokenId,\r\n            string memory uri,\r\n            bytes memory data\r\n        ) = abi.decode(\r\n                message.data,\r\n                (address, address, uint256, string, bytes)\r\n            );\r\n\r\n        IKanvasInteropGame game = IKanvasInteropGame(gameId);\r\n        game._receiveFrom(\r\n            message.sourceChainSelector,\r\n            gameId,\r\n            playerId,\r\n            tokenId,\r\n            uri,\r\n            data\r\n        );\r\n    }\r\n}\r\n",
  "sourcePath": "C:\\Users\\DELL\\Documents\\kanvas\\blockchain\\contracts\\KanvasInterop.sol",
  "compiler": {
    "name": "solc",
    "version": "0.8.19+commit.7dd6d404.Emscripten.clang"
  },
  "schemaVersion": "3.4.11",
  "updatedAt": "2023-12-05T09:32:42.445Z",
  "networkType": "ethereum",
  "devdoc": {
    "kind": "dev",
    "methods": {
      "ccipReceive((bytes32,uint64,bytes,bytes,(address,uint256)[]))": {
        "details": "Note ensure you check the msg.sender is the OffRampRouter",
        "params": {
          "message": "CCIP Message"
        }
      },
      "getRouter()": {
        "returns": {
          "_0": "i_router address"
        }
      },
      "handleOracleFulfillment(bytes32,bytes,bytes)": {
        "details": "Either response or error parameter will be set, but never both.",
        "params": {
          "err": "Aggregated error either from the request's source code or from the execution pipeline.",
          "requestId": "The requestId returned by FunctionsClient.sendRequest().",
          "response": "Aggregated response from the request's source code."
        }
      },
      "owner()": {
        "details": "Returns the address of the current owner."
      },
      "renounceOwnership()": {
        "details": "Leaves the contract without owner. It will not be possible to call `onlyOwner` functions. Can only be called by the current owner. NOTE: Renouncing ownership will leave the contract without an owner, thereby disabling any functionality that is only available to the owner."
      },
      "supportsInterface(bytes4)": {
        "params": {
          "interfaceId": "The interfaceId to check"
        },
        "returns": {
          "_0": "true if the interfaceId is supported"
        }
      },
      "transferOwnership(address)": {
        "details": "Transfers ownership of the contract to a new account (`newOwner`). Can only be called by the current owner."
      }
    },
    "version": 1
  },
  "userdoc": {
    "kind": "user",
    "methods": {
      "ccipReceive((bytes32,uint64,bytes,bytes,(address,uint256)[]))": {
        "notice": "Called by the Router to deliver a message. If this reverts, any token transfers also revert. The message will move to a FAILED state and become available for manual execution."
      },
      "getRouter()": {
        "notice": "Return the current router"
      },
      "handleOracleFulfillment(bytes32,bytes,bytes)": {
        "notice": "Chainlink Functions response handler called by the Functions Router during fullilment from the designated transmitter node in an OCR round."
      },
      "supportsInterface(bytes4)": {
        "notice": "IERC165 supports an interfaceId"
      }
    },
    "version": 1
  }
}