{
  "contractName": "KanvasInterop",
  "abi": [
    {
      "inputs": [
        {
          "internalType": "address",
          "name": "ccipReceiver",
          "type": "address"
        },
        {
          "internalType": "address",
          "name": "functionOracle",
          "type": "address"
        }
      ],
      "stateMutability": "nonpayable",
      "type": "constructor"
    },
    {
      "inputs": [],
      "name": "EmptyArgs",
      "type": "error"
    },
    {
      "inputs": [],
      "name": "EmptySecrets",
      "type": "error"
    },
    {
      "inputs": [],
      "name": "EmptySource",
      "type": "error"
    },
    {
      "inputs": [
        {
          "internalType": "address",
          "name": "router",
          "type": "address"
        }
      ],
      "name": "InvalidRouter",
      "type": "error"
    },
    {
      "inputs": [],
      "name": "NoInlineSecrets",
      "type": "error"
    },
    {
      "inputs": [],
      "name": "RequestIsAlreadyPending",
      "type": "error"
    },
    {
      "inputs": [],
      "name": "RequestIsNotPending",
      "type": "error"
    },
    {
      "inputs": [],
      "name": "SenderIsNotRegistry",
      "type": "error"
    },
    {
      "anonymous": false,
      "inputs": [
        {
          "indexed": true,
          "internalType": "address",
          "name": "previousOwner",
          "type": "address"
        },
        {
          "indexed": true,
          "internalType": "address",
          "name": "newOwner",
          "type": "address"
        }
      ],
      "name": "OwnershipTransferred",
      "type": "event"
    },
    {
      "anonymous": false,
      "inputs": [
        {
          "indexed": false,
          "internalType": "uint256",
          "name": "planId",
          "type": "uint256"
        },
        {
          "indexed": false,
          "internalType": "string",
          "name": "name",
          "type": "string"
        },
        {
          "indexed": false,
          "internalType": "uint256",
          "name": "cost",
          "type": "uint256"
        },
        {
          "indexed": false,
          "internalType": "string",
          "name": "color",
          "type": "string"
        },
        {
          "indexed": false,
          "internalType": "uint256",
          "name": "limit",
          "type": "uint256"
        }
      ],
      "name": "PlanCreated",
      "type": "event"
    },
    {
      "anonymous": false,
      "inputs": [
        {
          "indexed": true,
          "internalType": "bytes32",
          "name": "id",
          "type": "bytes32"
        }
      ],
      "name": "RequestFulfilled",
      "type": "event"
    },
    {
      "anonymous": false,
      "inputs": [
        {
          "indexed": true,
          "internalType": "bytes32",
          "name": "id",
          "type": "bytes32"
        }
      ],
      "name": "RequestSent",
      "type": "event"
    },
    {
      "inputs": [],
      "name": "MAX_PROPERTIES_LEN",
      "outputs": [
        {
          "internalType": "uint256",
          "name": "",
          "type": "uint256"
        }
      ],
      "stateMutability": "view",
      "type": "function"
    },
    {
      "inputs": [],
      "name": "MAX_TEMPLATES_LEN",
      "outputs": [
        {
          "internalType": "uint256",
          "name": "",
          "type": "uint256"
        }
      ],
      "stateMutability": "view",
      "type": "function"
    },
    {
      "inputs": [
        {
          "components": [
            {
              "internalType": "bytes32",
              "name": "messageId",
              "type": "bytes32"
            },
            {
              "internalType": "uint64",
              "name": "sourceChainSelector",
              "type": "uint64"
            },
            {
              "internalType": "bytes",
              "name": "sender",
              "type": "bytes"
            },
            {
              "internalType": "bytes",
              "name": "data",
              "type": "bytes"
            },
            {
              "components": [
                {
                  "internalType": "address",
                  "name": "token",
                  "type": "address"
                },
                {
                  "internalType": "uint256",
                  "name": "amount",
                  "type": "uint256"
                }
              ],
              "internalType": "struct Client.EVMTokenAmount[]",
              "name": "destTokenAmounts",
              "type": "tuple[]"
            }
          ],
          "internalType": "struct Client.Any2EVMMessage",
          "name": "message",
          "type": "tuple"
        }
      ],
      "name": "ccipReceive",
      "outputs": [],
      "stateMutability": "nonpayable",
      "type": "function"
    },
    {
      "inputs": [
        {
          "components": [
            {
              "internalType": "enum Functions.Location",
              "name": "codeLocation",
              "type": "uint8"
            },
            {
              "internalType": "enum Functions.Location",
              "name": "secretsLocation",
              "type": "uint8"
            },
            {
              "internalType": "enum Functions.CodeLanguage",
              "name": "language",
              "type": "uint8"
            },
            {
              "internalType": "string",
              "name": "source",
              "type": "string"
            },
            {
              "internalType": "bytes",
              "name": "secrets",
              "type": "bytes"
            },
            {
              "internalType": "string[]",
              "name": "args",
              "type": "string[]"
            }
          ],
          "internalType": "struct Functions.Request",
          "name": "req",
          "type": "tuple"
        },
        {
          "internalType": "uint64",
          "name": "subscriptionId",
          "type": "uint64"
        },
        {
          "internalType": "uint32",
          "name": "gasLimit",
          "type": "uint32"
        },
        {
          "internalType": "uint256",
          "name": "gasPrice",
          "type": "uint256"
        }
      ],
      "name": "estimateCost",
      "outputs": [
        {
          "internalType": "uint96",
          "name": "",
          "type": "uint96"
        }
      ],
      "stateMutability": "view",
      "type": "function"
    },
    {
      "inputs": [],
      "name": "getDONPublicKey",
      "outputs": [
        {
          "internalType": "bytes",
          "name": "",
          "type": "bytes"
        }
      ],
      "stateMutability": "view",
      "type": "function"
    },
    {
      "inputs": [],
      "name": "getRouter",
      "outputs": [
        {
          "internalType": "address",
          "name": "",
          "type": "address"
        }
      ],
      "stateMutability": "view",
      "type": "function"
    },
    {
      "inputs": [
        {
          "internalType": "bytes32",
          "name": "requestId",
          "type": "bytes32"
        },
        {
          "internalType": "bytes",
          "name": "response",
          "type": "bytes"
        },
        {
          "internalType": "bytes",
          "name": "err",
          "type": "bytes"
        }
      ],
      "name": "handleOracleFulfillment",
      "outputs": [],
      "stateMutability": "nonpayable",
      "type": "function"
    },
    {
      "inputs": [],
      "name": "owner",
      "outputs": [
        {
          "internalType": "address",
          "name": "",
          "type": "address"
        }
      ],
      "stateMutability": "view",
      "type": "function"
    },
    {
      "inputs": [],
      "name": "renounceOwnership",
      "outputs": [],
      "stateMutability": "nonpayable",
      "type": "function"
    },
    {
      "inputs": [
        {
          "internalType": "bytes4",
          "name": "interfaceId",
          "type": "bytes4"
        }
      ],
      "name": "supportsInterface",
      "outputs": [
        {
          "internalType": "bool",
          "name": "",
          "type": "bool"
        }
      ],
      "stateMutability": "pure",
      "type": "function"
    },
    {
      "inputs": [
        {
          "internalType": "address",
          "name": "newOwner",
          "type": "address"
        }
      ],
      "name": "transferOwnership",
      "outputs": [],
      "stateMutability": "nonpayable",
      "type": "function"
    },
    {
      "inputs": [
        {
          "internalType": "string",
          "name": "newSourceCode",
          "type": "string"
        }
      ],
      "name": "updateSourceCode",
      "outputs": [],
      "stateMutability": "nonpayable",
      "type": "function"
    },
    {
      "inputs": [
        {
          "internalType": "uint32",
          "name": "newLimit",
          "type": "uint32"
        }
      ],
      "name": "updateGasLimit",
      "outputs": [],
      "stateMutability": "nonpayable",
      "type": "function"
    },
    {
      "inputs": [
        {
          "internalType": "uint64",
          "name": "newSubscriptionId",
          "type": "uint64"
        }
      ],
      "name": "updateSubscriptionId",
      "outputs": [],
      "stateMutability": "nonpayable",
      "type": "function"
    },
    {
      "inputs": [
        {
          "internalType": "uint64",
          "name": "",
          "type": "uint64"
        },
        {
          "components": [
            {
              "internalType": "address",
              "name": "gameId",
              "type": "address"
            }
          ],
          "internalType": "struct Params.InteropGame",
          "name": "params",
          "type": "tuple"
        }
      ],
      "name": "_createGame",
      "outputs": [],
      "stateMutability": "nonpayable",
      "type": "function"
    },
    {
      "inputs": [
        {
          "internalType": "address",
          "name": "playerId",
          "type": "address"
        },
        {
          "internalType": "string[]",
          "name": "props",
          "type": "string[]"
        },
        {
          "internalType": "string",
          "name": "fields",
          "type": "string"
        },
        {
          "internalType": "uint8",
          "name": "templateId",
          "type": "uint8"
        }
      ],
      "name": "_generateUri",
      "outputs": [],
      "stateMutability": "nonpayable",
      "type": "function"
    },
    {
      "inputs": [
        {
          "internalType": "uint64",
          "name": "chainSelector",
          "type": "uint64"
        },
        {
          "internalType": "address",
          "name": "kanvasRouter",
          "type": "address"
        }
      ],
      "name": "updateInterop",
      "outputs": [],
      "stateMutability": "nonpayable",
      "type": "function"
    },
    {
      "inputs": [
        {
          "internalType": "uint64",
          "name": "chainSelector",
          "type": "uint64"
        },
        {
          "internalType": "address",
          "name": "gameId",
          "type": "address"
        },
        {
          "internalType": "address",
          "name": "playerId",
          "type": "address"
        },
        {
          "internalType": "uint256",
          "name": "tokenId",
          "type": "uint256"
        },
        {
          "internalType": "string",
          "name": "uri",
          "type": "string"
        },
        {
          "internalType": "bytes",
          "name": "data",
          "type": "bytes"
        }
      ],
      "name": "_transferTo",
      "outputs": [],
      "stateMutability": "payable",
      "type": "function"
    }
  ],
  "bytecode": "0x60a060405262061a80600460086101000a81548163ffffffff021916908363ffffffff1602179055503480156200003557600080fd5b5060405162004f2e38038062004f2e83398181016040528101906200005b919062000316565b8082600073ffffffffffffffffffffffffffffffffffffffff168173ffffffffffffffffffffffffffffffffffffffff1603620000d25760006040517fd7f73334000000000000000000000000000000000000000000000000000000008152600401620000c991906200036e565b60405180910390fd5b8073ffffffffffffffffffffffffffffffffffffffff1660808173ffffffffffffffffffffffffffffffffffffffff16815250505062000118816200019160201b60201c565b50620001396200012d620001d460201b60201c565b620001dc60201b60201c565b62000149620002a260201b60201c565b600860006101000a81548173ffffffffffffffffffffffffffffffffffffffff021916908373ffffffffffffffffffffffffffffffffffffffff16021790555050506200038b565b806000806101000a81548173ffffffffffffffffffffffffffffffffffffffff021916908373ffffffffffffffffffffffffffffffffffffffff16021790555050565b600033905090565b6000600260009054906101000a900473ffffffffffffffffffffffffffffffffffffffff16905081600260006101000a81548173ffffffffffffffffffffffffffffffffffffffff021916908373ffffffffffffffffffffffffffffffffffffffff1602179055508173ffffffffffffffffffffffffffffffffffffffff168173ffffffffffffffffffffffffffffffffffffffff167f8be0079c531659141344cd1fd0a4f28419497f9722a3daafe3b4186f6b6457e060405160405180910390a35050565b6000608051905090565b600080fd5b600073ffffffffffffffffffffffffffffffffffffffff82169050919050565b6000620002de82620002b1565b9050919050565b620002f081620002d1565b8114620002fc57600080fd5b50565b6000815190506200031081620002e5565b92915050565b6000806040838503121562000330576200032f620002ac565b5b60006200034085828601620002ff565b92505060206200035385828601620002ff565b9150509250929050565b6200036881620002d1565b82525050565b60006020820190506200038560008301846200035d565b92915050565b608051614b80620003ae600039600081816106580152610bc90152614b806000f3fe6080604052600436106101095760003560e01c806392154a3d11610095578063d328a91e11610064578063d328a91e1461031e578063d4b3917514610349578063dff0ee4114610386578063eee6e573146103b1578063f2fde38b146103da57610109565b806392154a3d14610278578063afd21cfe146102a1578063b0f479a1146102ca578063b3285e32146102f557610109565b8063715018a6116100dc578063715018a6146101c657806385572ffb146101dd5780638b8ff358146102065780638d6dc0eb146102315780638da5cb5b1461024d57610109565b806301ffc9a71461010e5780630ca761751461014b57806314b1dd1b1461017457806334303bcd1461019d575b600080fd5b34801561011a57600080fd5b50610135600480360381019061013091906129de565b610403565b6040516101429190612a26565b60405180910390f35b34801561015757600080fd5b50610172600480360381019061016d9190612bbd565b6104d5565b005b34801561018057600080fd5b5061019b60048036038101906101969190612c88565b6105e2565b005b3480156101a957600080fd5b506101c460048036038101906101bf9190612cf1565b610616565b005b3480156101d257600080fd5b506101db610642565b005b3480156101e957600080fd5b5061020460048036038101906101ff9190612d42565b610656565b005b34801561021257600080fd5b5061021b6106fb565b6040516102289190612da4565b60405180910390f35b61024b60048036038101906102469190612eea565b610700565b005b34801561025957600080fd5b50610262610a9c565b60405161026f9190612fbe565b60405180910390f35b34801561028457600080fd5b5061029f600480360381019061029a9190612fd9565b610ac6565b005b3480156102ad57600080fd5b506102c860048036038101906102c3919061305f565b610b38565b005b3480156102d657600080fd5b506102df610bc5565b6040516102ec9190612fbe565b60405180910390f35b34801561030157600080fd5b5061031c6004803603810190610317919061309f565b610bed565b005b34801561032a57600080fd5b50610333610c08565b6040516103409190613167565b60405180910390f35b34801561035557600080fd5b50610370600480360381019061036b91906133ad565b610ca3565b60405161037d9190613457565b60405180910390f35b34801561039257600080fd5b5061039b610d58565b6040516103a89190612da4565b60405180910390f35b3480156103bd57600080fd5b506103d860048036038101906103d391906134ab565b610d5d565b005b3480156103e657600080fd5b5061040160048036038101906103fc919061354a565b6112a4565b005b60007f85572ffb000000000000000000000000000000000000000000000000000000007bffffffffffffffffffffffffffffffffffffffffffffffffffffffff1916827bffffffffffffffffffffffffffffffffffffffffffffffffffffffff191614806104ce57507f01ffc9a7000000000000000000000000000000000000000000000000000000007bffffffffffffffffffffffffffffffffffffffffffffffffffffffff1916827bffffffffffffffffffffffffffffffffffffffffffffffffffffffff1916145b9050919050565b826001600082815260200190815260200160002060009054906101000a900473ffffffffffffffffffffffffffffffffffffffff1673ffffffffffffffffffffffffffffffffffffffff163373ffffffffffffffffffffffffffffffffffffffff161461056e576040517fa0c5ec6300000000000000000000000000000000000000000000000000000000815260040160405180910390fd5b6001600082815260200190815260200160002060006101000a81549073ffffffffffffffffffffffffffffffffffffffff0219169055807f85e1543bf2f84fe80c6badbce3648c8539ad1df4d2b3d822938ca0538be727e660405160405180910390a26105dc848484611327565b50505050565b6105ea6115f8565b80600460006101000a81548167ffffffffffffffff021916908367ffffffffffffffff16021790555050565b61061e6115f8565b80600460086101000a81548163ffffffff021916908363ffffffff16021790555050565b61064a6115f8565b6106546000611676565b565b7f000000000000000000000000000000000000000000000000000000000000000073ffffffffffffffffffffffffffffffffffffffff163373ffffffffffffffffffffffffffffffffffffffff16146106e657336040517fd7f733340000000000000000000000000000000000000000000000000000000081526004016106dd9190612fbe565b60405180910390fd5b6106f8816106f39061376a565b61173c565b50565b601481565b600073ffffffffffffffffffffffffffffffffffffffff16600760008867ffffffffffffffff1667ffffffffffffffff16815260200190815260200160002060009054906101000a900473ffffffffffffffffffffffffffffffffffffffff1673ffffffffffffffffffffffffffffffffffffffff16036107b6576040517f08c379a00000000000000000000000000000000000000000000000000000000081526004016107ad906137da565b60405180910390fd5b60006040518060a00160405280600760008a67ffffffffffffffff1667ffffffffffffffff16815260200190815260200160002060009054906101000a900473ffffffffffffffffffffffffffffffffffffffff1660405160200161081b9190612fbe565b6040516020818303038152906040528152602001878787878760405160200161084895949392919061383e565b6040516020818303038152906040528152602001600067ffffffffffffffff81111561087757610876612a92565b5b6040519080825280602002602001820160405280156108b057816020015b61089d61289d565b8152602001906001900390816108955790505b508152602001600073ffffffffffffffffffffffffffffffffffffffff1681526020016108f6604051806040016040528062061a808152602001600015158152506117ed565b81525090506000600860009054906101000a900473ffffffffffffffffffffffffffffffffffffffff1673ffffffffffffffffffffffffffffffffffffffff166320487ded67adecc60412ce25a5846040518363ffffffff1660e01b8152600401610962929190613a7f565b602060405180830381865afa15801561097f573d6000803e3d6000fd5b505050506040513d601f19601f820116820180604052508101906109a39190613ac4565b9050803410156109e8576040517f08c379a00000000000000000000000000000000000000000000000000000000081526004016109df90613b3d565b60405180910390fd5b600860009054906101000a900473ffffffffffffffffffffffffffffffffffffffff1673ffffffffffffffffffffffffffffffffffffffff166396f4e9f98267adecc60412ce25a5856040518463ffffffff1660e01b8152600401610a4e929190613a7f565b60206040518083038185885af1158015610a6c573d6000803e3d6000fd5b50505050506040513d601f19601f82011682018060405250810190610a919190613b72565b505050505050505050565b6000600260009054906101000a900473ffffffffffffffffffffffffffffffffffffffff16905090565b610ace6115f8565b80600760008467ffffffffffffffff1667ffffffffffffffff16815260200190815260200160002060006101000a81548173ffffffffffffffffffffffffffffffffffffffff021916908373ffffffffffffffffffffffffffffffffffffffff1602179055505050565b806000015160056000610b4961186c565b73ffffffffffffffffffffffffffffffffffffffff1673ffffffffffffffffffffffffffffffffffffffff16815260200190815260200160002060006101000a81548173ffffffffffffffffffffffffffffffffffffffff021916908373ffffffffffffffffffffffffffffffffffffffff1602179055505050565b60007f0000000000000000000000000000000000000000000000000000000000000000905090565b610bf56115f8565b8060039081610c049190613dab565b5050565b606060008054906101000a900473ffffffffffffffffffffffffffffffffffffffff1673ffffffffffffffffffffffffffffffffffffffff1663d328a91e6040518163ffffffff1660e01b8152600401600060405180830381865afa158015610c75573d6000803e3d6000fd5b505050506040513d6000823e3d601f19601f82011682018060405250810190610c9e9190613eed565b905090565b60008060009054906101000a900473ffffffffffffffffffffffffffffffffffffffff1673ffffffffffffffffffffffffffffffffffffffff1663d227d24585610cec88611874565b86866040518563ffffffff1660e01b8152600401610d0d9493929190613f45565b602060405180830381865afa158015610d2a573d6000803e3d6000fd5b505050506040513d601f19601f82011682018060405250810190610d4e9190613fbd565b9050949350505050565b600581565b601483511115610da2576040517f08c379a0000000000000000000000000000000000000000000000000000000008152600401610d9990614036565b60405180910390fd5b600060056000610db061186c565b73ffffffffffffffffffffffffffffffffffffffff1673ffffffffffffffffffffffffffffffffffffffff16815260200190815260200160002060009054906101000a900473ffffffffffffffffffffffffffffffffffffffff169050600073ffffffffffffffffffffffffffffffffffffffff16600560008373ffffffffffffffffffffffffffffffffffffffff1673ffffffffffffffffffffffffffffffffffffffff16815260200190815260200160002060009054906101000a900473ffffffffffffffffffffffffffffffffffffffff1673ffffffffffffffffffffffffffffffffffffffff1603610edb576040517f08c379a0000000000000000000000000000000000000000000000000000000008152600401610ed2906140a2565b60405180910390fd5b6000600567ffffffffffffffff811115610ef857610ef7612a92565b5b604051908082528060200260200182016040528015610f2b57816020015b6060815260200190600190039081610f165790505b50905073__StringJoiner__________________________635c8656e0866040518263ffffffff1660e01b8152600401610f65919061422b565b600060405180830381865af4158015610f82573d6000803e3d6000fd5b505050506040513d6000823e3d601f19601f82011682018060405250810190610fab91906142d0565b81600081518110610fbf57610fbe614319565b5b60200260200101819052508381600181518110610fdf57610fde614319565b5b6020026020010181905250610ff382611b74565b8160028151811061100757611006614319565b5b602002602001018190525061101b86611b74565b8160038151811061102f5761102e614319565b5b60200260200101819052506110468360ff16611ba1565b8160048151811061105a57611059614319565b5b602002602001018190525060006040518060200160405280600081525090506110816128cd565b6111236000806003805461109490613bce565b80601f01602080910402602001604051908101604052809291908181526020018280546110c090613bce565b801561110d5780601f106110e25761010080835404028352916020019161110d565b820191906000526020600020905b8154815290600101906020018083116110f057829003601f168201915b505050505084611c6f909392919063ffffffff16565b600082511115611141576111408282611d1990919063ffffffff16565b5b6111548382611d9290919063ffffffff16565b600061118982600460009054906101000a900467ffffffffffffffff16600460089054906101000a900463ffffffff16611dda565b905060405180606001604052808673ffffffffffffffffffffffffffffffffffffffff1681526020018a73ffffffffffffffffffffffffffffffffffffffff168152602001600015158152506006600083815260200190815260200160002060008201518160000160006101000a81548173ffffffffffffffffffffffffffffffffffffffff021916908373ffffffffffffffffffffffffffffffffffffffff16021790555060208201518160010160006101000a81548173ffffffffffffffffffffffffffffffffffffffff021916908373ffffffffffffffffffffffffffffffffffffffff16021790555060408201518160010160146101000a81548160ff021916908315150217905550905050505050505050505050565b6112ac6115f8565b600073ffffffffffffffffffffffffffffffffffffffff168173ffffffffffffffffffffffffffffffffffffffff160361131b576040517f08c379a0000000000000000000000000000000000000000000000000000000008152600401611312906143ba565b60405180910390fd5b61132481611676565b50565b60008280602001905181019061133d91906142d0565b905060006006600086815260200190815260200160002090508060010160149054906101000a900460ff16156113a8576040517f08c379a000000000000000000000000000000000000000000000000000000000815260040161139f90614426565b60405180910390fd5b6113e7826040518060400160405280600481526020017f4e554c4c00000000000000000000000000000000000000000000000000000000815250611f9f565b15611427576040517f08c379a000000000000000000000000000000000000000000000000000000000815260040161141e90614492565b60405180910390fd5b60018160010160146101000a81548160ff021916908315150217905550600073ffffffffffffffffffffffffffffffffffffffff16600560008360000160009054906101000a900473ffffffffffffffffffffffffffffffffffffffff1673ffffffffffffffffffffffffffffffffffffffff1673ffffffffffffffffffffffffffffffffffffffff16815260200190815260200160002060009054906101000a900473ffffffffffffffffffffffffffffffffffffffff1673ffffffffffffffffffffffffffffffffffffffff1603611536576040517f08c379a000000000000000000000000000000000000000000000000000000000815260040161152d906140a2565b60405180910390fd5b60008160000160009054906101000a900473ffffffffffffffffffffffffffffffffffffffff1690508073ffffffffffffffffffffffffffffffffffffffff16638f9c39568360010160009054906101000a900473ffffffffffffffffffffffffffffffffffffffff16856040518363ffffffff1660e01b81526004016115be9291906144b2565b600060405180830381600087803b1580156115d857600080fd5b505af11580156115ec573d6000803e3d6000fd5b50505050505050505050565b61160061186c565b73ffffffffffffffffffffffffffffffffffffffff1661161e610a9c565b73ffffffffffffffffffffffffffffffffffffffff1614611674576040517f08c379a000000000000000000000000000000000000000000000000000000000815260040161166b9061452e565b60405180910390fd5b565b6000600260009054906101000a900473ffffffffffffffffffffffffffffffffffffffff16905081600260006101000a81548173ffffffffffffffffffffffffffffffffffffffff021916908373ffffffffffffffffffffffffffffffffffffffff1602179055508173ffffffffffffffffffffffffffffffffffffffff168173ffffffffffffffffffffffffffffffffffffffff167f8be0079c531659141344cd1fd0a4f28419497f9722a3daafe3b4186f6b6457e060405160405180910390a35050565b6000806000806000856060015180602001905181019061175c919061458c565b9450945094509450945060008590508073ffffffffffffffffffffffffffffffffffffffff16636d4195fb886020015188888888886040518763ffffffff1660e01b81526004016117b29695949392919061463f565b600060405180830381600087803b1580156117cc57600080fd5b505af11580156117e0573d6000803e3d6000fd5b5050505050505050505050565b60606397a657c960e01b8260405160240161180891906146ec565b604051602081830303815290604052907bffffffffffffffffffffffffffffffffffffffffffffffffffffffff19166020820180517bffffffffffffffffffffffffffffffffffffffffffffffffffffffff83818316178352505050509050919050565b600033905090565b606061187e612938565b61188e8160000151610100611fba565b506118ce816040518060400160405280600c81526020017f636f64654c6f636174696f6e0000000000000000000000000000000000000000815250612033565b6118ee81846000015160028111156118e9576118e8614707565b5b61205c565b61192d816040518060400160405280600881526020017f6c616e6775616765000000000000000000000000000000000000000000000000815250612033565b61194d818460400151600081111561194857611947614707565b5b61205c565b61198c816040518060400160405280600681526020017f736f757263650000000000000000000000000000000000000000000000000000815250612033565b61199a818460600151612033565b60008360a00151511115611a46576119e7816040518060400160405280600481526020017f6172677300000000000000000000000000000000000000000000000000000000815250612033565b6119f0816120ac565b60005b8360a0015151811015611a3b57611a28828560a001518381518110611a1b57611a1a614319565b5b6020026020010151612033565b8080611a3390614765565b9150506119f3565b50611a45816120d4565b5b60008360800151511115611b635760006002811115611a6857611a67614707565b5b83602001516002811115611a7f57611a7e614707565b5b03611ab6576040517fa80d31f700000000000000000000000000000000000000000000000000000000815260040160405180910390fd5b611af5816040518060400160405280600f81526020017f736563726574734c6f636174696f6e0000000000000000000000000000000000815250612033565b611b158184602001516002811115611b1057611b0f614707565b5b61205c565b611b54816040518060400160405280600781526020017f7365637265747300000000000000000000000000000000000000000000000000815250612033565b611b628184608001516120fc565b5b806000015160000151915050919050565b6060611b9a8273ffffffffffffffffffffffffffffffffffffffff16601460ff16612125565b9050919050565b606060006001611bb084612361565b01905060008167ffffffffffffffff811115611bcf57611bce612a92565b5b6040519080825280601f01601f191660200182016040528015611c015781602001600182028036833780820191505090505b509050600082602001820190505b600115611c64578080600190039150507f3031323334353637383961626364656600000000000000000000000000000000600a86061a8153600a8581611c5857611c576147ad565b5b04945060008503611c0f575b819350505050919050565b6000815103611caa576040517f22ce3edd00000000000000000000000000000000000000000000000000000000815260040160405180910390fd5b8284600001906002811115611cc257611cc1614707565b5b90816002811115611cd657611cd5614707565b5b815250508184604001906000811115611cf257611cf1614707565b5b90816000811115611d0657611d05614707565b5b8152505080846060018190525050505050565b6000815103611d54576040517fe889636f00000000000000000000000000000000000000000000000000000000815260040160405180910390fd5b600182602001906002811115611d6d57611d6c614707565b5b90816002811115611d8157611d80614707565b5b815250508082608001819052505050565b6000815103611dcd576040517ffe936cb700000000000000000000000000000000000000000000000000000000815260040160405180910390fd5b808260a001819052505050565b60008060008054906101000a900473ffffffffffffffffffffffffffffffffffffffff1673ffffffffffffffffffffffffffffffffffffffff166328242b0485611e2388611874565b866040518463ffffffff1660e01b8152600401611e42939291906147dc565b6020604051808303816000875af1158015611e61573d6000803e3d6000fd5b505050506040513d601f19601f82011682018060405250810190611e859190613b72565b905060008054906101000a900473ffffffffffffffffffffffffffffffffffffffff1673ffffffffffffffffffffffffffffffffffffffff16635ab1bd536040518163ffffffff1660e01b8152600401602060405180830381865afa158015611ef2573d6000803e3d6000fd5b505050506040513d601f19601f82011682018060405250810190611f16919061482f565b6001600083815260200190815260200160002060006101000a81548173ffffffffffffffffffffffffffffffffffffffff021916908373ffffffffffffffffffffffffffffffffffffffff160217905550807f1131472297a800fee664d1d89cfa8f7676ff07189ecc53f80bbb5f4969099db860405160405180910390a2809150509392505050565b60008180519060200120838051906020012014905092915050565b611fc2612958565b6000602083611fd1919061485c565b14611ffd57602082611fe3919061485c565b6020611fef919061488d565b82611ffa91906148c1565b91505b81836020018181525050604051808452600081528281016020018181101561202457600080fd5b80604052505082905092915050565b61204082600383516124b4565b61205781836000015161265d90919063ffffffff16565b505050565b61207e60026005600660ff16901b17836000015161267990919063ffffffff16565b506120a882826040516020016120949190612da4565b6040516020818303038152906040526120fc565b5050565b6120b78160046126e3565b6001816020018181516120ca91906148c1565b9150818152505050565b6120df8160076126e3565b6001816020018181516120f2919061488d565b9150818152505050565b61210982600283516124b4565b61212081836000015161265d90919063ffffffff16565b505050565b60606000600283600261213891906148f5565b61214291906148c1565b67ffffffffffffffff81111561215b5761215a612a92565b5b6040519080825280601f01601f19166020018201604052801561218d5781602001600182028036833780820191505090505b5090507f3000000000000000000000000000000000000000000000000000000000000000816000815181106121c5576121c4614319565b5b60200101907effffffffffffffffffffffffffffffffffffffffffffffffffffffffffffff1916908160001a9053507f78000000000000000000000000000000000000000000000000000000000000008160018151811061222957612228614319565b5b60200101907effffffffffffffffffffffffffffffffffffffffffffffffffffffffffffff1916908160001a9053506000600184600261226991906148f5565b61227391906148c1565b90505b6001811115612313577f3031323334353637383961626364656600000000000000000000000000000000600f8616601081106122b5576122b4614319565b5b1a60f81b8282815181106122cc576122cb614319565b5b60200101907effffffffffffffffffffffffffffffffffffffffffffffffffffffffffffff1916908160001a905350600485901c94508061230c90614937565b9050612276565b5060008414612357576040517f08c379a000000000000000000000000000000000000000000000000000000000815260040161234e906149ac565b60405180910390fd5b8091505092915050565b600080600090507a184f03e93ff9f4daa797ed6e38ed64bf6a1f01000000000000000083106123bf577a184f03e93ff9f4daa797ed6e38ed64bf6a1f01000000000000000083816123b5576123b46147ad565b5b0492506040810190505b6d04ee2d6d415b85acef810000000083106123fc576d04ee2d6d415b85acef810000000083816123f2576123f16147ad565b5b0492506020810190505b662386f26fc10000831061242b57662386f26fc100008381612421576124206147ad565b5b0492506010810190505b6305f5e1008310612454576305f5e100838161244a576124496147ad565b5b0492506008810190505b612710831061247957612710838161246f5761246e6147ad565b5b0492506004810190505b6064831061249c5760648381612492576124916147ad565b5b0492506002810190505b600a83106124ab576001810190505b80915050919050565b60178167ffffffffffffffff16116124ef576124e98160058460ff16901b60ff1617846000015161267990919063ffffffff16565b50612658565b60ff8167ffffffffffffffff161161254d57612522601860058460ff16901b17846000015161267990919063ffffffff16565b506125478167ffffffffffffffff16600185600001516127099092919063ffffffff16565b50612657565b61ffff8167ffffffffffffffff16116125ac57612581601960058460ff16901b17846000015161267990919063ffffffff16565b506125a68167ffffffffffffffff16600285600001516127099092919063ffffffff16565b50612656565b63ffffffff8167ffffffffffffffff161161260d576125e2601a60058460ff16901b17846000015161267990919063ffffffff16565b506126078167ffffffffffffffff16600485600001516127099092919063ffffffff16565b50612655565b61262e601b60058460ff16901b17846000015161267990919063ffffffff16565b506126538167ffffffffffffffff16600885600001516127099092919063ffffffff16565b505b5b5b5b505050565b612665612958565b61267183838451612796565b905092915050565b612681612958565b60008360000151519050600060018261269a91906148c1565b9050846020015182106126be576126bd856002836126b891906148f5565b612879565b5b845160208382010185815381518311156126d6578282525b5050849250505092915050565b612704601f60058360ff16901b17836000015161267990919063ffffffff16565b505050565b612711612958565b600084600001515190506000818461272991906148c1565b9050856020015181111561274e5761274d8660028361274891906148f5565b612879565b5b60006001856101006127609190614aff565b61276a919061488d565b905086518281018783198251161781528151841115612787578382525b50508693505050509392505050565b61279e612958565b82518211156127ac57600080fd5b60008460000151519050600083826127c491906148c1565b905085602001518111156127e9576127e8866002836127e391906148f5565b612879565b5b60008087518051856020830101935080851115612804578482525b60208901925050505b6020861061284b578051825260208261282691906148c1565b915060208161283591906148c1565b9050602086612844919061488d565b955061280d565b60006001876020036101000a0390508019825116818451168181178552505050879450505050509392505050565b60008260000151905061288c8383611fba565b50612897838261265d565b50505050565b6040518060400160405280600073ffffffffffffffffffffffffffffffffffffffff168152602001600081525090565b6040518060c00160405280600060028111156128ec576128eb614707565b5b81526020016000600281111561290557612904614707565b5b815260200160008081111561291d5761291c614707565b5b81526020016060815260200160608152602001606081525090565b604051806040016040528061294b612958565b8152602001600081525090565b604051806040016040528060608152602001600081525090565b6000604051905090565b600080fd5b600080fd5b60007fffffffff0000000000000000000000000000000000000000000000000000000082169050919050565b6129bb81612986565b81146129c657600080fd5b50565b6000813590506129d8816129b2565b92915050565b6000602082840312156129f4576129f361297c565b5b6000612a02848285016129c9565b91505092915050565b60008115159050919050565b612a2081612a0b565b82525050565b6000602082019050612a3b6000830184612a17565b92915050565b6000819050919050565b612a5481612a41565b8114612a5f57600080fd5b50565b600081359050612a7181612a4b565b92915050565b600080fd5b600080fd5b6000601f19601f8301169050919050565b7f4e487b7100000000000000000000000000000000000000000000000000000000600052604160045260246000fd5b612aca82612a81565b810181811067ffffffffffffffff82111715612ae957612ae8612a92565b5b80604052505050565b6000612afc612972565b9050612b088282612ac1565b919050565b600067ffffffffffffffff821115612b2857612b27612a92565b5b612b3182612a81565b9050602081019050919050565b82818337600083830152505050565b6000612b60612b5b84612b0d565b612af2565b905082815260208101848484011115612b7c57612b7b612a7c565b5b612b87848285612b3e565b509392505050565b600082601f830112612ba457612ba3612a77565b5b8135612bb4848260208601612b4d565b91505092915050565b600080600060608486031215612bd657612bd561297c565b5b6000612be486828701612a62565b935050602084013567ffffffffffffffff811115612c0557612c04612981565b5b612c1186828701612b8f565b925050604084013567ffffffffffffffff811115612c3257612c31612981565b5b612c3e86828701612b8f565b9150509250925092565b600067ffffffffffffffff82169050919050565b612c6581612c48565b8114612c7057600080fd5b50565b600081359050612c8281612c5c565b92915050565b600060208284031215612c9e57612c9d61297c565b5b6000612cac84828501612c73565b91505092915050565b600063ffffffff82169050919050565b612cce81612cb5565b8114612cd957600080fd5b50565b600081359050612ceb81612cc5565b92915050565b600060208284031215612d0757612d0661297c565b5b6000612d1584828501612cdc565b91505092915050565b600080fd5b600060a08284031215612d3957612d38612d1e565b5b81905092915050565b600060208284031215612d5857612d5761297c565b5b600082013567ffffffffffffffff811115612d7657612d75612981565b5b612d8284828501612d23565b91505092915050565b6000819050919050565b612d9e81612d8b565b82525050565b6000602082019050612db96000830184612d95565b92915050565b600073ffffffffffffffffffffffffffffffffffffffff82169050919050565b6000612dea82612dbf565b9050919050565b612dfa81612ddf565b8114612e0557600080fd5b50565b600081359050612e1781612df1565b92915050565b612e2681612d8b565b8114612e3157600080fd5b50565b600081359050612e4381612e1d565b92915050565b600067ffffffffffffffff821115612e6457612e63612a92565b5b612e6d82612a81565b9050602081019050919050565b6000612e8d612e8884612e49565b612af2565b905082815260208101848484011115612ea957612ea8612a7c565b5b612eb4848285612b3e565b509392505050565b600082601f830112612ed157612ed0612a77565b5b8135612ee1848260208601612e7a565b91505092915050565b60008060008060008060c08789031215612f0757612f0661297c565b5b6000612f1589828a01612c73565b9650506020612f2689828a01612e08565b9550506040612f3789828a01612e08565b9450506060612f4889828a01612e34565b935050608087013567ffffffffffffffff811115612f6957612f68612981565b5b612f7589828a01612ebc565b92505060a087013567ffffffffffffffff811115612f9657612f95612981565b5b612fa289828a01612b8f565b9150509295509295509295565b612fb881612ddf565b82525050565b6000602082019050612fd36000830184612faf565b92915050565b60008060408385031215612ff057612fef61297c565b5b6000612ffe85828601612c73565b925050602061300f85828601612e08565b9150509250929050565b600080fd5b600080fd5b60006020828403121561303957613038613019565b5b6130436020612af2565b9050600061305384828501612e08565b60008301525092915050565b600080604083850312156130765761307561297c565b5b600061308485828601612c73565b925050602061309585828601613023565b9150509250929050565b6000602082840312156130b5576130b461297c565b5b600082013567ffffffffffffffff8111156130d3576130d2612981565b5b6130df84828501612ebc565b91505092915050565b600081519050919050565b600082825260208201905092915050565b60005b83811015613122578082015181840152602081019050613107565b60008484015250505050565b6000613139826130e8565b61314381856130f3565b9350613153818560208601613104565b61315c81612a81565b840191505092915050565b60006020820190508181036000830152613181818461312e565b905092915050565b6003811061319657600080fd5b50565b6000813590506131a881613189565b92915050565b600181106131bb57600080fd5b50565b6000813590506131cd816131ae565b92915050565b600067ffffffffffffffff8211156131ee576131ed612a92565b5b602082029050602081019050919050565b600080fd5b6000613217613212846131d3565b612af2565b9050808382526020820190506020840283018581111561323a576132396131ff565b5b835b8181101561328157803567ffffffffffffffff81111561325f5761325e612a77565b5b80860161326c8982612ebc565b8552602085019450505060208101905061323c565b5050509392505050565b600082601f8301126132a05761329f612a77565b5b81356132b0848260208601613204565b91505092915050565b600060c082840312156132cf576132ce613019565b5b6132d960c0612af2565b905060006132e984828501613199565b60008301525060206132fd84828501613199565b6020830152506040613311848285016131be565b604083015250606082013567ffffffffffffffff8111156133355761333461301e565b5b61334184828501612ebc565b606083015250608082013567ffffffffffffffff8111156133655761336461301e565b5b61337184828501612b8f565b60808301525060a082013567ffffffffffffffff8111156133955761339461301e565b5b6133a18482850161328b565b60a08301525092915050565b600080600080608085870312156133c7576133c661297c565b5b600085013567ffffffffffffffff8111156133e5576133e4612981565b5b6133f1878288016132b9565b945050602061340287828801612c73565b935050604061341387828801612cdc565b925050606061342487828801612e34565b91505092959194509250565b60006bffffffffffffffffffffffff82169050919050565b61345181613430565b82525050565b600060208201905061346c6000830184613448565b92915050565b600060ff82169050919050565b61348881613472565b811461349357600080fd5b50565b6000813590506134a58161347f565b92915050565b600080600080608085870312156134c5576134c461297c565b5b60006134d387828801612e08565b945050602085013567ffffffffffffffff8111156134f4576134f3612981565b5b6135008782880161328b565b935050604085013567ffffffffffffffff81111561352157613520612981565b5b61352d87828801612ebc565b925050606061353e87828801613496565b91505092959194509250565b6000602082840312156135605761355f61297c565b5b600061356e84828501612e08565b91505092915050565b600067ffffffffffffffff82111561359257613591612a92565b5b602082029050602081019050919050565b6000604082840312156135b9576135b8613019565b5b6135c36040612af2565b905060006135d384828501612e08565b60008301525060206135e784828501612e34565b60208301525092915050565b600061360661360184613577565b612af2565b90508083825260208201905060408402830185811115613629576136286131ff565b5b835b81811015613652578061363e88826135a3565b84526020840193505060408101905061362b565b5050509392505050565b600082601f83011261367157613670612a77565b5b81356136818482602086016135f3565b91505092915050565b600060a082840312156136a05761369f613019565b5b6136aa60a0612af2565b905060006136ba84828501612a62565b60008301525060206136ce84828501612c73565b602083015250604082013567ffffffffffffffff8111156136f2576136f161301e565b5b6136fe84828501612b8f565b604083015250606082013567ffffffffffffffff8111156137225761372161301e565b5b61372e84828501612b8f565b606083015250608082013567ffffffffffffffff8111156137525761375161301e565b5b61375e8482850161365c565b60808301525092915050565b6000613776368361368a565b9050919050565b600082825260208201905092915050565b7f436861696e206e6f7420737570706f7274656400000000000000000000000000600082015250565b60006137c460138361377d565b91506137cf8261378e565b602082019050919050565b600060208201905081810360008301526137f3816137b7565b9050919050565b600081519050919050565b6000613810826137fa565b61381a818561377d565b935061382a818560208601613104565b61383381612a81565b840191505092915050565b600060a0820190506138536000830188612faf565b6138606020830187612faf565b61386d6040830186612d95565b818103606083015261387f8185613805565b90508181036080830152613893818461312e565b90509695505050505050565b6138a881612c48565b82525050565b600082825260208201905092915050565b60006138ca826130e8565b6138d481856138ae565b93506138e4818560208601613104565b6138ed81612a81565b840191505092915050565b600081519050919050565b600082825260208201905092915050565b6000819050602082019050919050565b61392d81612ddf565b82525050565b61393c81612d8b565b82525050565b6040820160008201516139586000850182613924565b50602082015161396b6020850182613933565b50505050565b600061397d8383613942565b60408301905092915050565b6000602082019050919050565b60006139a1826138f8565b6139ab8185613903565b93506139b683613914565b8060005b838110156139e75781516139ce8882613971565b97506139d983613989565b9250506001810190506139ba565b5085935050505092915050565b600060a0830160008301518482036000860152613a1182826138bf565b91505060208301518482036020860152613a2b82826138bf565b91505060408301518482036040860152613a458282613996565b9150506060830151613a5a6060860182613924565b5060808301518482036080860152613a7282826138bf565b9150508091505092915050565b6000604082019050613a94600083018561389f565b8181036020830152613aa681846139f4565b90509392505050565b600081519050613abe81612e1d565b92915050565b600060208284031215613ada57613ad961297c565b5b6000613ae884828501613aaf565b91505092915050565b7f496e73756666696369656e742066656500000000000000000000000000000000600082015250565b6000613b2760108361377d565b9150613b3282613af1565b602082019050919050565b60006020820190508181036000830152613b5681613b1a565b9050919050565b600081519050613b6c81612a4b565b92915050565b600060208284031215613b8857613b8761297c565b5b6000613b9684828501613b5d565b91505092915050565b7f4e487b7100000000000000000000000000000000000000000000000000000000600052602260045260246000fd5b60006002820490506001821680613be657607f821691505b602082108103613bf957613bf8613b9f565b5b50919050565b60008190508160005260206000209050919050565b60006020601f8301049050919050565b600082821b905092915050565b600060088302613c617fffffffffffffffffffffffffffffffffffffffffffffffffffffffffffffffff82613c24565b613c6b8683613c24565b95508019841693508086168417925050509392505050565b6000819050919050565b6000613ca8613ca3613c9e84612d8b565b613c83565b612d8b565b9050919050565b6000819050919050565b613cc283613c8d565b613cd6613cce82613caf565b848454613c31565b825550505050565b600090565b613ceb613cde565b613cf6818484613cb9565b505050565b5b81811015613d1a57613d0f600082613ce3565b600181019050613cfc565b5050565b601f821115613d5f57613d3081613bff565b613d3984613c14565b81016020851015613d48578190505b613d5c613d5485613c14565b830182613cfb565b50505b505050565b600082821c905092915050565b6000613d8260001984600802613d64565b1980831691505092915050565b6000613d9b8383613d71565b9150826002028217905092915050565b613db4826137fa565b67ffffffffffffffff811115613dcd57613dcc612a92565b5b613dd78254613bce565b613de2828285613d1e565b600060209050601f831160018114613e155760008415613e03578287015190505b613e0d8582613d8f565b865550613e75565b601f198416613e2386613bff565b60005b82811015613e4b57848901518255600182019150602085019450602081019050613e26565b86831015613e685784890151613e64601f891682613d71565b8355505b6001600288020188555050505b505050505050565b6000613e90613e8b84612b0d565b612af2565b905082815260208101848484011115613eac57613eab612a7c565b5b613eb7848285613104565b509392505050565b600082601f830112613ed457613ed3612a77565b5b8151613ee4848260208601613e7d565b91505092915050565b600060208284031215613f0357613f0261297c565b5b600082015167ffffffffffffffff811115613f2157613f20612981565b5b613f2d84828501613ebf565b91505092915050565b613f3f81612cb5565b82525050565b6000608082019050613f5a600083018761389f565b8181036020830152613f6c818661312e565b9050613f7b6040830185613f36565b613f886060830184612d95565b95945050505050565b613f9a81613430565b8114613fa557600080fd5b50565b600081519050613fb781613f91565b92915050565b600060208284031215613fd357613fd261297c565b5b6000613fe184828501613fa8565b91505092915050565b7f546f6f206d616e79206174747269627574657300000000000000000000000000600082015250565b600061402060138361377d565b915061402b82613fea565b602082019050919050565b6000602082019050818103600083015261404f81614013565b9050919050565b7f47616d65204e6f7420466f756e64000000000000000000000000000000000000600082015250565b600061408c600e8361377d565b915061409782614056565b602082019050919050565b600060208201905081810360008301526140bb8161407f565b9050919050565b600081519050919050565b600082825260208201905092915050565b6000819050602082019050919050565b600082825260208201905092915050565b600061410a826137fa565b61411481856140ee565b9350614124818560208601613104565b61412d81612a81565b840191505092915050565b600061414483836140ff565b905092915050565b6000602082019050919050565b6000614164826140c2565b61416e81856140cd565b935083602082028501614180856140de565b8060005b858110156141bc578484038952815161419d8582614138565b94506141a88361414c565b925060208a01995050600181019050614184565b50829750879550505050505092915050565b600082825260208201905092915050565b7f2c00000000000000000000000000000000000000000000000000000000000000600082015250565b60006142156001836141ce565b9150614220826141df565b602082019050919050565b600060408201905081810360008301526142458184614159565b9050818103602083015261425881614208565b905092915050565b600061427361426e84612e49565b612af2565b90508281526020810184848401111561428f5761428e612a7c565b5b61429a848285613104565b509392505050565b600082601f8301126142b7576142b6612a77565b5b81516142c7848260208601614260565b91505092915050565b6000602082840312156142e6576142e561297c565b5b600082015167ffffffffffffffff81111561430457614303612981565b5b614310848285016142a2565b91505092915050565b7f4e487b7100000000000000000000000000000000000000000000000000000000600052603260045260246000fd5b7f4f776e61626c653a206e6577206f776e657220697320746865207a65726f206160008201527f6464726573730000000000000000000000000000000000000000000000000000602082015250565b60006143a460268361377d565b91506143af82614348565b604082019050919050565b600060208201905081810360008301526143d381614397565b9050919050565b7f416c72656164792066756c66696c6c6564000000000000000000000000000000600082015250565b600061441060118361377d565b915061441b826143da565b602082019050919050565b6000602082019050818103600083015261443f81614403565b9050919050565b7f496e76616c696420555249000000000000000000000000000000000000000000600082015250565b600061447c600b8361377d565b915061448782614446565b602082019050919050565b600060208201905081810360008301526144ab8161446f565b9050919050565b60006040820190506144c76000830185612faf565b81810360208301526144d98184613805565b90509392505050565b7f4f776e61626c653a2063616c6c6572206973206e6f7420746865206f776e6572600082015250565b600061451860208361377d565b9150614523826144e2565b602082019050919050565b600060208201905081810360008301526145478161450b565b9050919050565b600061455982612dbf565b9050919050565b6145698161454e565b811461457457600080fd5b50565b60008151905061458681614560565b92915050565b600080600080600060a086880312156145a8576145a761297c565b5b60006145b688828901614577565b95505060206145c788828901614577565b94505060406145d888828901613aaf565b935050606086015167ffffffffffffffff8111156145f9576145f8612981565b5b614605888289016142a2565b925050608086015167ffffffffffffffff81111561462657614625612981565b5b61463288828901613ebf565b9150509295509295909350565b600060c082019050614654600083018961389f565b6146616020830188612faf565b61466e6040830187612faf565b61467b6060830186612d95565b818103608083015261468d8185613805565b905081810360a08301526146a1818461312e565b9050979650505050505050565b6146b781612a0b565b82525050565b6040820160008201516146d36000850182613933565b5060208201516146e660208501826146ae565b50505050565b600060408201905061470160008301846146bd565b92915050565b7f4e487b7100000000000000000000000000000000000000000000000000000000600052602160045260246000fd5b7f4e487b7100000000000000000000000000000000000000000000000000000000600052601160045260246000fd5b600061477082612d8b565b91507fffffffffffffffffffffffffffffffffffffffffffffffffffffffffffffffff82036147a2576147a1614736565b5b600182019050919050565b7f4e487b7100000000000000000000000000000000000000000000000000000000600052601260045260246000fd5b60006060820190506147f1600083018661389f565b8181036020830152614803818561312e565b90506148126040830184613f36565b949350505050565b60008151905061482981612df1565b92915050565b6000602082840312156148455761484461297c565b5b60006148538482850161481a565b91505092915050565b600061486782612d8b565b915061487283612d8b565b925082614882576148816147ad565b5b828206905092915050565b600061489882612d8b565b91506148a383612d8b565b92508282039050818111156148bb576148ba614736565b5b92915050565b60006148cc82612d8b565b91506148d783612d8b565b92508282019050808211156148ef576148ee614736565b5b92915050565b600061490082612d8b565b915061490b83612d8b565b925082820261491981612d8b565b915082820484148315176149305761492f614736565b5b5092915050565b600061494282612d8b565b91506000820361495557614954614736565b5b600182039050919050565b7f537472696e67733a20686578206c656e67746820696e73756666696369656e74600082015250565b600061499660208361377d565b91506149a182614960565b602082019050919050565b600060208201905081810360008301526149c581614989565b9050919050565b60008160011c9050919050565b6000808291508390505b6001851115614a23578086048111156149ff576149fe614736565b5b6001851615614a0e5780820291505b8081029050614a1c856149cc565b94506149e3565b94509492505050565b600082614a3c5760019050614af8565b81614a4a5760009050614af8565b8160018114614a605760028114614a6a57614a99565b6001915050614af8565b60ff841115614a7c57614a7b614736565b5b8360020a915084821115614a9357614a92614736565b5b50614af8565b5060208310610133831016604e8410600b8410161715614ace5782820a905083811115614ac957614ac8614736565b5b614af8565b614adb84848460016149d9565b92509050818404811115614af257614af1614736565b5b81810290505b9392505050565b6000614b0a82612d8b565b9150614b1583612d8b565b9250614b427fffffffffffffffffffffffffffffffffffffffffffffffffffffffffffffffff8484614a2c565b90509291505056fea2646970667358221220232781ac787aae32062d64501b97ab41bef2fb62e73dfe13a60646e745b7a10064736f6c63430008110033",
  "immutableReferences": {
    "14": [
      {
        "length": 32,
        "start": 1624
      },
      {
        "length": 32,
        "start": 3017
      }
    ]
  },
  "source": "// SPDX-License-Identifier: MIT\r\npragma solidity ^0.8.17;\r\n\r\nimport {Assets} from \"./libraries/Assets.sol\";\r\nimport {Params} from \"./libraries/Params.sol\";\r\nimport {IKanvasInterop} from \"./interfaces/IKanvasInterop.sol\";\r\nimport {IKanvasInteropGame} from \"./interfaces/IKanvasInteropGame.sol\";\r\nimport {IKanvasGame} from \"./interfaces/IKanvasGame.sol\";\r\nimport {StringJoiner} from \"./libraries/StringJoiner.sol\";\r\n\r\nimport {Strings} from \"@openzeppelin/contracts/utils/Strings.sol\";\r\nimport {Ownable} from \"@openzeppelin/contracts/access/Ownable.sol\";\r\nimport {Context} from \"@openzeppelin/contracts/utils/Context.sol\";\r\n\r\nimport {Functions} from \"@chainlink/contracts/src/v0.8/functions/dev/v0_0_0/Functions.sol\";\r\nimport {FunctionsClient} from \"@chainlink/contracts/src/v0.8/functions/dev/v0_0_0/FunctionsClient.sol\";\r\n\r\nimport {Client} from \"@chainlink/contracts-ccip/src/v0.8/ccip/libraries/Client.sol\";\r\nimport {CCIPReceiver} from \"@chainlink/contracts-ccip/src/v0.8/ccip/applications/CCIPReceiver.sol\";\r\nimport {IRouterClient} from \"@chainlink/contracts-ccip/src/v0.8/ccip/interfaces/IRouterClient.sol\";\r\n\r\n// ! FOR POLYGON ALONE - HARDCODED VALUES\r\n\r\ncontract KanvasInterop is\r\n    IKanvasInterop,\r\n    Context,\r\n    CCIPReceiver,\r\n    FunctionsClient,\r\n    Ownable\r\n{\r\n    using Functions for Functions.Request;\r\n\r\n    uint64 private constant POLYGON_SELECTOR = 12532609583862916517;\r\n    uint256 public constant MAX_PROPERTIES_LEN = 20;\r\n    uint256 public constant MAX_TEMPLATES_LEN = 5;\r\n\r\n    string private _sourceCode;\r\n    uint64 private _subscriptionId;\r\n    uint32 private _gasLimit = 400_000;\r\n\r\n    mapping(address => address) private _games;\r\n\r\n    mapping(bytes32 => Assets.Request) private _requests;\r\n\r\n    mapping(uint64 => address) private _interops;\r\n\r\n    IRouterClient private _router;\r\n\r\n    constructor(\r\n        address ccipReceiver,\r\n        address functionOracle\r\n    ) CCIPReceiver(ccipReceiver) Ownable() FunctionsClient(functionOracle) {\r\n        _router = IRouterClient(getRouter());\r\n    }\r\n\r\n    function updateSourceCode(string memory newSourceCode) external onlyOwner {\r\n        _sourceCode = newSourceCode;\r\n    }\r\n\r\n    function updateGasLimit(uint32 newLimit) external onlyOwner {\r\n        _gasLimit = newLimit;\r\n    }\r\n\r\n    function updateSubscriptionId(uint64 newSubscriptionId) external onlyOwner {\r\n        _subscriptionId = newSubscriptionId;\r\n    }\r\n\r\n    function _createGame(\r\n        uint64 /* chainSelector */,\r\n        Params.InteropGame memory params\r\n    ) external override {\r\n        _games[_msgSender()] = params.gameId;\r\n    }\r\n\r\n    function _generateUri(\r\n        address playerId,\r\n        string[] memory props,\r\n        string memory fields,\r\n        uint8 templateId\r\n    ) external override {\r\n        require(props.length <= MAX_PROPERTIES_LEN, \"Too many attributes\");\r\n\r\n        address gameId = _games[_msgSender()];\r\n        require(_games[gameId] != address(0), \"Game Not Found\");\r\n\r\n        string[] memory args = new string[](5);\r\n        args[0] = StringJoiner.joinStrings(props, \",\");\r\n        args[1] = fields;\r\n        args[2] = Strings.toHexString(gameId);\r\n        args[3] = Strings.toHexString(playerId);\r\n        args[4] = Strings.toString(templateId);\r\n\r\n        bytes memory secrets = \"\";\r\n\r\n        // Initialize the request\r\n        Functions.Request memory req;\r\n\r\n        // Soucre code\r\n        req.initializeRequest(\r\n            Functions.Location.Inline,\r\n            Functions.CodeLanguage.JavaScript,\r\n            _sourceCode\r\n        );\r\n\r\n        // Add secrets if available\r\n        if (secrets.length > 0) {\r\n            req.addRemoteSecrets(secrets);\r\n        }\r\n\r\n        // Add arguments\r\n        req.addArgs(args);\r\n\r\n        bytes32 requestId = sendRequest(req, _subscriptionId, _gasLimit);\r\n\r\n        _requests[requestId] = Assets.Request({\r\n            gameId: gameId,\r\n            playerId: playerId,\r\n            fulfilled: false\r\n        });\r\n    }\r\n\r\n    function updateInterop(\r\n        uint64 chainSelector,\r\n        address kanvasRouter\r\n    ) external onlyOwner {\r\n        _interops[chainSelector] = kanvasRouter;\r\n    }\r\n\r\n    /** Receive the response in the form of string  */\r\n    function fulfillRequest(\r\n        bytes32 requestId,\r\n        bytes memory response,\r\n        bytes memory /* err */\r\n    ) internal override {\r\n        string memory uri = abi.decode(response, (string));\r\n\r\n        Assets.Request storage request = _requests[requestId];\r\n        require(!request.fulfilled, \"Already fulfilled\");\r\n        require(!Strings.equal(uri, \"NULL\"), \"Invalid URI\");\r\n\r\n        request.fulfilled = true;\r\n\r\n        require(_games[request.gameId] != address(0), \"Game Not Found\");\r\n\r\n        IKanvasGame game = IKanvasGame(request.gameId);\r\n        game._receiveUri(request.playerId, uri);\r\n    }\r\n\r\n    function _transferTo(\r\n        uint64 chainSelector,\r\n        address gameId,\r\n        address playerId,\r\n        uint256 tokenId,\r\n        string memory uri,\r\n        bytes memory data\r\n    ) external payable {\r\n        require(_interops[chainSelector] != address(0), \"Chain not supported\");\r\n\r\n        // Create an EVM2AnyMessage struct in memory with necessary information for sending a cross-chain message\r\n        Client.EVM2AnyMessage memory message = Client.EVM2AnyMessage({\r\n            // ABI-encoded receiver address\r\n            receiver: abi.encode(_interops[chainSelector]),\r\n            // ABI-encoded string message\r\n            data: abi.encode(gameId, playerId, tokenId, uri, data),\r\n            // Empty array indicating no tokens are being sent\r\n            tokenAmounts: new Client.EVMTokenAmount[](0),\r\n            // Additional arguments, setting gas limit and non-strict sequency mode\r\n            extraArgs: Client._argsToBytes(\r\n                Client.EVMExtraArgsV1({gasLimit: 400_000, strict: false})\r\n            ),\r\n            // Setting feeToken to zero address, indicating native asset will be used for fees\r\n            feeToken: address(0)\r\n        });\r\n\r\n        // Get the fee required to send the message\r\n        uint256 fees = _router.getFee(POLYGON_SELECTOR, message);\r\n\r\n        require(msg.value >= fees, \"Insufficient fee\");\r\n\r\n        // Send the message through the router and store the returned message ID\r\n        _router.ccipSend{value: fees}(POLYGON_SELECTOR, message);\r\n    }\r\n\r\n    // handle a received message\r\n    function _ccipReceive(\r\n        Client.Any2EVMMessage memory message\r\n    ) internal override {\r\n        (\r\n            address gameId,\r\n            address playerId,\r\n            uint256 tokenId,\r\n            string memory uri,\r\n            bytes memory data\r\n        ) = abi.decode(\r\n                message.data,\r\n                (address, address, uint256, string, bytes)\r\n            );\r\n\r\n        IKanvasInteropGame game = IKanvasInteropGame(gameId);\r\n        game._receiveFrom(\r\n            message.sourceChainSelector,\r\n            gameId,\r\n            playerId,\r\n            tokenId,\r\n            uri,\r\n            data\r\n        );\r\n    }\r\n}\r\n",
  "sourcePath": "C:\\Users\\DELL\\Documents\\kanvas\\blockchain\\contracts\\KanvasInterop.sol",
  "compiler": {
    "name": "solc",
    "version": "0.8.17+commit.8df45f5f.Emscripten.clang"
  },
  "schemaVersion": "3.4.11",
  "updatedAt": "2023-12-04T22:29:31.944Z",
  "devdoc": {
    "kind": "dev",
    "methods": {
      "ccipReceive((bytes32,uint64,bytes,bytes,(address,uint256)[]))": {
        "details": "Note ensure you check the msg.sender is the OffRampRouter",
        "params": {
          "message": "CCIP Message"
        }
      },
      "estimateCost((uint8,uint8,uint8,string,bytes,string[]),uint64,uint32,uint256)": {
        "params": {
          "gasLimit": "gas limit for the fulfillment callback",
          "req": "The initialized Functions.Request",
          "subscriptionId": "The subscription ID"
        },
        "returns": {
          "_0": "billedCost Cost in Juels (1e18) of LINK"
        }
      },
      "getDONPublicKey()": {
        "details": "All Oracles nodes have the corresponding private key needed to decrypt the secrets encrypted with the public key",
        "returns": {
          "_0": "publicKey DON's public key"
        }
      },
      "getRouter()": {
        "returns": {
          "_0": "i_router address"
        }
      },
      "handleOracleFulfillment(bytes32,bytes,bytes)": {
        "params": {
          "err": "Aggregated error either from the user code or from the execution pipeline. Either response or error parameter will be set, but never both.",
          "requestId": "The requestId returned by FunctionsClient.sendRequest().",
          "response": "Aggregated response from the user code."
        }
      },
      "owner()": {
        "details": "Returns the address of the current owner."
      },
      "renounceOwnership()": {
        "details": "Leaves the contract without owner. It will not be possible to call `onlyOwner` functions. Can only be called by the current owner. NOTE: Renouncing ownership will leave the contract without an owner, thereby disabling any functionality that is only available to the owner."
      },
      "supportsInterface(bytes4)": {
        "params": {
          "interfaceId": "The interfaceId to check"
        },
        "returns": {
          "_0": "true if the interfaceId is supported"
        }
      },
      "transferOwnership(address)": {
        "details": "Transfers ownership of the contract to a new account (`newOwner`). Can only be called by the current owner."
      }
    },
    "version": 1
  },
  "userdoc": {
    "kind": "user",
    "methods": {
      "ccipReceive((bytes32,uint64,bytes,bytes,(address,uint256)[]))": {
        "notice": "Called by the Router to deliver a message. If this reverts, any token transfers also revert. The message will move to a FAILED state and become available for manual execution."
      },
      "estimateCost((uint8,uint8,uint8,string,bytes,string[]),uint64,uint32,uint256)": {
        "notice": "Estimate the total cost that will be charged to a subscription to make a request: gas re-imbursement, plus DON fee, plus Registry fee"
      },
      "getDONPublicKey()": {
        "notice": "Returns the DON's secp256k1 public key used to encrypt secrets"
      },
      "getRouter()": {
        "notice": "Return the current router"
      },
      "handleOracleFulfillment(bytes32,bytes,bytes)": {
        "notice": "Chainlink Functions response handler called by the designated transmitter node in an OCR round."
      },
      "supportsInterface(bytes4)": {
        "notice": "IERC165 supports an interfaceId"
      }
    },
    "version": 1
  }
}