{
  "contractName": "KanvasInterop",
  "abi": [
    {
      "inputs": [
        {
          "internalType": "address",
          "name": "ccipReceiver",
          "type": "address"
        },
        {
          "internalType": "address",
          "name": "functionOracle",
          "type": "address"
        }
      ],
      "stateMutability": "nonpayable",
      "type": "constructor"
    },
    {
      "inputs": [],
      "name": "EmptyArgs",
      "type": "error"
    },
    {
      "inputs": [],
      "name": "EmptySource",
      "type": "error"
    },
    {
      "inputs": [
        {
          "internalType": "address",
          "name": "router",
          "type": "address"
        }
      ],
      "name": "InvalidRouter",
      "type": "error"
    },
    {
      "inputs": [],
      "name": "NoInlineSecrets",
      "type": "error"
    },
    {
      "inputs": [],
      "name": "OnlyRouterCanFulfill",
      "type": "error"
    },
    {
      "anonymous": false,
      "inputs": [
        {
          "indexed": false,
          "internalType": "bytes32",
          "name": "requestId",
          "type": "bytes32"
        },
        {
          "indexed": false,
          "internalType": "bytes",
          "name": "err",
          "type": "bytes"
        }
      ],
      "name": "FulfullFailed",
      "type": "event"
    },
    {
      "anonymous": false,
      "inputs": [
        {
          "indexed": false,
          "internalType": "bytes32",
          "name": "requestId",
          "type": "bytes32"
        },
        {
          "indexed": false,
          "internalType": "bytes",
          "name": "response",
          "type": "bytes"
        }
      ],
      "name": "FulfullSuccess",
      "type": "event"
    },
    {
      "anonymous": false,
      "inputs": [
        {
          "indexed": false,
          "internalType": "address",
          "name": "gameId",
          "type": "address"
        },
        {
          "indexed": false,
          "internalType": "string",
          "name": "name",
          "type": "string"
        },
        {
          "indexed": false,
          "internalType": "string",
          "name": "description",
          "type": "string"
        },
        {
          "indexed": false,
          "internalType": "string",
          "name": "avatar",
          "type": "string"
        },
        {
          "indexed": false,
          "internalType": "uint256",
          "name": "plan",
          "type": "uint256"
        },
        {
          "indexed": false,
          "internalType": "address",
          "name": "creator",
          "type": "address"
        },
        {
          "indexed": false,
          "internalType": "string",
          "name": "email",
          "type": "string"
        },
        {
          "indexed": false,
          "internalType": "string",
          "name": "website",
          "type": "string"
        }
      ],
      "name": "GameCreated",
      "type": "event"
    },
    {
      "anonymous": false,
      "inputs": [
        {
          "indexed": true,
          "internalType": "address",
          "name": "previousOwner",
          "type": "address"
        },
        {
          "indexed": true,
          "internalType": "address",
          "name": "newOwner",
          "type": "address"
        }
      ],
      "name": "OwnershipTransferred",
      "type": "event"
    },
    {
      "anonymous": false,
      "inputs": [
        {
          "indexed": false,
          "internalType": "uint256",
          "name": "planId",
          "type": "uint256"
        },
        {
          "indexed": false,
          "internalType": "string",
          "name": "name",
          "type": "string"
        },
        {
          "indexed": false,
          "internalType": "uint256",
          "name": "cost",
          "type": "uint256"
        },
        {
          "indexed": false,
          "internalType": "string",
          "name": "color",
          "type": "string"
        },
        {
          "indexed": false,
          "internalType": "uint256",
          "name": "limit",
          "type": "uint256"
        }
      ],
      "name": "PlanCreated",
      "type": "event"
    },
    {
      "anonymous": false,
      "inputs": [
        {
          "indexed": true,
          "internalType": "bytes32",
          "name": "id",
          "type": "bytes32"
        }
      ],
      "name": "RequestFulfilled",
      "type": "event"
    },
    {
      "anonymous": false,
      "inputs": [
        {
          "indexed": true,
          "internalType": "bytes32",
          "name": "id",
          "type": "bytes32"
        }
      ],
      "name": "RequestSent",
      "type": "event"
    },
    {
      "anonymous": false,
      "inputs": [
        {
          "indexed": false,
          "internalType": "bytes32",
          "name": "requestId",
          "type": "bytes32"
        },
        {
          "indexed": false,
          "internalType": "address",
          "name": "gameId",
          "type": "address"
        }
      ],
      "name": "RequestSent",
      "type": "event"
    },
    {
      "anonymous": false,
      "inputs": [
        {
          "indexed": false,
          "internalType": "address",
          "name": "gameId",
          "type": "address"
        },
        {
          "indexed": false,
          "internalType": "string",
          "name": "templateUri",
          "type": "string"
        }
      ],
      "name": "TemplateAdded",
      "type": "event"
    },
    {
      "inputs": [],
      "name": "MAX_PROPERTIES_LEN",
      "outputs": [
        {
          "internalType": "uint256",
          "name": "",
          "type": "uint256"
        }
      ],
      "stateMutability": "view",
      "type": "function"
    },
    {
      "inputs": [],
      "name": "MAX_TEMPLATES_LEN",
      "outputs": [
        {
          "internalType": "uint256",
          "name": "",
          "type": "uint256"
        }
      ],
      "stateMutability": "view",
      "type": "function"
    },
    {
      "inputs": [
        {
          "components": [
            {
              "internalType": "bytes32",
              "name": "messageId",
              "type": "bytes32"
            },
            {
              "internalType": "uint64",
              "name": "sourceChainSelector",
              "type": "uint64"
            },
            {
              "internalType": "bytes",
              "name": "sender",
              "type": "bytes"
            },
            {
              "internalType": "bytes",
              "name": "data",
              "type": "bytes"
            },
            {
              "components": [
                {
                  "internalType": "address",
                  "name": "token",
                  "type": "address"
                },
                {
                  "internalType": "uint256",
                  "name": "amount",
                  "type": "uint256"
                }
              ],
              "internalType": "struct Client.EVMTokenAmount[]",
              "name": "destTokenAmounts",
              "type": "tuple[]"
            }
          ],
          "internalType": "struct Client.Any2EVMMessage",
          "name": "message",
          "type": "tuple"
        }
      ],
      "name": "ccipReceive",
      "outputs": [],
      "stateMutability": "nonpayable",
      "type": "function"
    },
    {
      "inputs": [],
      "name": "getRouter",
      "outputs": [
        {
          "internalType": "address",
          "name": "",
          "type": "address"
        }
      ],
      "stateMutability": "view",
      "type": "function"
    },
    {
      "inputs": [
        {
          "internalType": "bytes32",
          "name": "requestId",
          "type": "bytes32"
        },
        {
          "internalType": "bytes",
          "name": "response",
          "type": "bytes"
        },
        {
          "internalType": "bytes",
          "name": "err",
          "type": "bytes"
        }
      ],
      "name": "handleOracleFulfillment",
      "outputs": [],
      "stateMutability": "nonpayable",
      "type": "function"
    },
    {
      "inputs": [],
      "name": "owner",
      "outputs": [
        {
          "internalType": "address",
          "name": "",
          "type": "address"
        }
      ],
      "stateMutability": "view",
      "type": "function"
    },
    {
      "inputs": [],
      "name": "renounceOwnership",
      "outputs": [],
      "stateMutability": "nonpayable",
      "type": "function"
    },
    {
      "inputs": [
        {
          "internalType": "bytes4",
          "name": "interfaceId",
          "type": "bytes4"
        }
      ],
      "name": "supportsInterface",
      "outputs": [
        {
          "internalType": "bool",
          "name": "",
          "type": "bool"
        }
      ],
      "stateMutability": "pure",
      "type": "function"
    },
    {
      "inputs": [
        {
          "internalType": "address",
          "name": "newOwner",
          "type": "address"
        }
      ],
      "name": "transferOwnership",
      "outputs": [],
      "stateMutability": "nonpayable",
      "type": "function"
    },
    {
      "inputs": [
        {
          "internalType": "bytes32",
          "name": "newDonId",
          "type": "bytes32"
        }
      ],
      "name": "updateDonId",
      "outputs": [],
      "stateMutability": "nonpayable",
      "type": "function"
    },
    {
      "inputs": [
        {
          "internalType": "string",
          "name": "newSourceCode",
          "type": "string"
        }
      ],
      "name": "updateSourceCode",
      "outputs": [],
      "stateMutability": "nonpayable",
      "type": "function"
    },
    {
      "inputs": [
        {
          "internalType": "uint32",
          "name": "newLimit",
          "type": "uint32"
        }
      ],
      "name": "updateGasLimit",
      "outputs": [],
      "stateMutability": "nonpayable",
      "type": "function"
    },
    {
      "inputs": [
        {
          "internalType": "uint64",
          "name": "newSubscriptionId",
          "type": "uint64"
        }
      ],
      "name": "updateSubscriptionId",
      "outputs": [],
      "stateMutability": "nonpayable",
      "type": "function"
    },
    {
      "inputs": [
        {
          "components": [
            {
              "internalType": "address",
              "name": "sourceGameId",
              "type": "address"
            }
          ],
          "internalType": "struct Params.InteropGame",
          "name": "params",
          "type": "tuple"
        }
      ],
      "name": "_createGame",
      "outputs": [],
      "stateMutability": "nonpayable",
      "type": "function"
    },
    {
      "inputs": [
        {
          "internalType": "address",
          "name": "playerId",
          "type": "address"
        },
        {
          "internalType": "string[]",
          "name": "props",
          "type": "string[]"
        },
        {
          "internalType": "string",
          "name": "fields",
          "type": "string"
        },
        {
          "internalType": "uint8",
          "name": "templateId",
          "type": "uint8"
        }
      ],
      "name": "_generateUri",
      "outputs": [],
      "stateMutability": "nonpayable",
      "type": "function"
    },
    {
      "inputs": [
        {
          "internalType": "uint64",
          "name": "chainSelector",
          "type": "uint64"
        },
        {
          "internalType": "address",
          "name": "kanvasRouter",
          "type": "address"
        }
      ],
      "name": "updateInterop",
      "outputs": [],
      "stateMutability": "nonpayable",
      "type": "function"
    },
    {
      "inputs": [
        {
          "internalType": "uint64",
          "name": "",
          "type": "uint64"
        },
        {
          "internalType": "address",
          "name": "",
          "type": "address"
        },
        {
          "internalType": "address",
          "name": "",
          "type": "address"
        },
        {
          "internalType": "uint256",
          "name": "",
          "type": "uint256"
        },
        {
          "internalType": "string",
          "name": "",
          "type": "string"
        },
        {
          "internalType": "bytes",
          "name": "",
          "type": "bytes"
        }
      ],
      "name": "_transferTo",
      "outputs": [],
      "stateMutability": "payable",
      "type": "function"
    },
    {
      "inputs": [
        {
          "internalType": "address",
          "name": "gameId",
          "type": "address"
        },
        {
          "internalType": "address",
          "name": "playerId",
          "type": "address"
        },
        {
          "internalType": "uint256",
          "name": "tokenId",
          "type": "uint256"
        },
        {
          "internalType": "string",
          "name": "uri",
          "type": "string"
        },
        {
          "internalType": "bytes",
          "name": "data",
          "type": "bytes"
        }
      ],
      "name": "_withdrawTo",
      "outputs": [],
      "stateMutability": "payable",
      "type": "function"
    }
  ],
  "bytecode": "0x60c060405261042a600260006101000a81548167ffffffffffffffff021916908367ffffffffffffffff160217905550620493e0600260086101000a81548163ffffffff021916908363ffffffff1602179055507f66756e2d706f6c79676f6e2d6d756d6261692d3100000000000000000000000060001b6003553480156200008757600080fd5b5060405162004bc838038062004bc88339818101604052810190620000ad919062000346565b8082600073ffffffffffffffffffffffffffffffffffffffff168173ffffffffffffffffffffffffffffffffffffffff1603620001245760006040517fd7f733340000000000000000000000000000000000000000000000000000000081526004016200011b91906200039e565b60405180910390fd5b8073ffffffffffffffffffffffffffffffffffffffff1660808173ffffffffffffffffffffffffffffffffffffffff1681525050508073ffffffffffffffffffffffffffffffffffffffff1660a08173ffffffffffffffffffffffffffffffffffffffff168152505050620001ae620001a26200020660201b60201c565b6200020e60201b60201c565b620001be620002d260201b60201c565b600760006101000a81548173ffffffffffffffffffffffffffffffffffffffff021916908373ffffffffffffffffffffffffffffffffffffffff1602179055505050620003bb565b600033905090565b60008060009054906101000a900473ffffffffffffffffffffffffffffffffffffffff169050816000806101000a81548173ffffffffffffffffffffffffffffffffffffffff021916908373ffffffffffffffffffffffffffffffffffffffff1602179055508173ffffffffffffffffffffffffffffffffffffffff168173ffffffffffffffffffffffffffffffffffffffff167f8be0079c531659141344cd1fd0a4f28419497f9722a3daafe3b4186f6b6457e060405160405180910390a35050565b6000608051905090565b600080fd5b600073ffffffffffffffffffffffffffffffffffffffff82169050919050565b60006200030e82620002e1565b9050919050565b620003208162000301565b81146200032c57600080fd5b50565b600081519050620003408162000315565b92915050565b6000806040838503121562000360576200035f620002dc565b5b600062000370858286016200032f565b925050602062000383858286016200032f565b9150509250929050565b620003988162000301565b82525050565b6000602082019050620003b560008301846200038d565b92915050565b60805160a0516147d9620003ef600039600081816104b40152611c470152600081816105fc015261083701526147d96000f3fe6080604052600436106101095760003560e01c80638da5cb5b11610095578063b3285e3211610064578063b3285e321461031e578063bc71c81414610347578063dff0ee4114610363578063eee6e5731461038e578063f2fde38b146103b757610109565b80638da5cb5b1461027657806392154a3d146102a1578063a0238f81146102ca578063b0f479a1146102f357610109565b80636df0c747116100dc5780636df0c747146101c6578063715018a6146101ef57806385572ffb146102065780638b8ff3581461022f5780638d6dc0eb1461025a57610109565b806301ffc9a71461010e5780630ca761751461014b57806314b1dd1b1461017457806334303bcd1461019d575b600080fd5b34801561011a57600080fd5b5061013560048036038101906101309190612821565b6103e0565b6040516101429190612869565b60405180910390f35b34801561015757600080fd5b50610172600480360381019061016d9190612a00565b6104b2565b005b34801561018057600080fd5b5061019b60048036038101906101969190612acb565b610574565b005b3480156101a957600080fd5b506101c460048036038101906101bf9190612b34565b6105a8565b005b3480156101d257600080fd5b506101ed60048036038101906101e89190612b61565b6105d4565b005b3480156101fb57600080fd5b506102046105e6565b005b34801561021257600080fd5b5061022d60048036038101906102289190612bb2565b6105fa565b005b34801561023b57600080fd5b5061024461069f565b6040516102519190612c14565b60405180910390f35b610274600480360381019061026f9190612d5a565b6106a4565b005b34801561028257600080fd5b5061028b6106df565b6040516102989190612e2e565b60405180910390f35b3480156102ad57600080fd5b506102c860048036038101906102c39190612e49565b610708565b005b3480156102d657600080fd5b506102f160048036038101906102ec9190612ecf565b61077a565b005b3480156102ff57600080fd5b50610308610833565b6040516103159190612e2e565b60405180910390f35b34801561032a57600080fd5b5061034560048036038101906103409190612efc565b61085b565b005b610361600480360381019061035c9190612f45565b610876565b005b34801561036f57600080fd5b50610378610c89565b6040516103859190612c14565b60405180910390f35b34801561039a57600080fd5b506103b560048036038101906103b09190613117565b610c8e565b005b3480156103c357600080fd5b506103de60048036038101906103d991906131b6565b611176565b005b60007f85572ffb000000000000000000000000000000000000000000000000000000007bffffffffffffffffffffffffffffffffffffffffffffffffffffffff1916827bffffffffffffffffffffffffffffffffffffffffffffffffffffffff191614806104ab57507f01ffc9a7000000000000000000000000000000000000000000000000000000007bffffffffffffffffffffffffffffffffffffffffffffffffffffffff1916827bffffffffffffffffffffffffffffffffffffffffffffffffffffffff1916145b9050919050565b7f000000000000000000000000000000000000000000000000000000000000000073ffffffffffffffffffffffffffffffffffffffff163373ffffffffffffffffffffffffffffffffffffffff1614610537576040517fc6829f8300000000000000000000000000000000000000000000000000000000815260040160405180910390fd5b6105428383836111f9565b827f85e1543bf2f84fe80c6badbce3648c8539ad1df4d2b3d822938ca0538be727e660405160405180910390a2505050565b61057c6113c2565b80600260006101000a81548167ffffffffffffffff021916908367ffffffffffffffff16021790555050565b6105b06113c2565b80600260086101000a81548163ffffffff021916908363ffffffff16021790555050565b6105dc6113c2565b8060038190555050565b6105ee6113c2565b6105f86000611440565b565b7f000000000000000000000000000000000000000000000000000000000000000073ffffffffffffffffffffffffffffffffffffffff163373ffffffffffffffffffffffffffffffffffffffff161461068a57336040517fd7f733340000000000000000000000000000000000000000000000000000000081526004016106819190612e2e565b60405180910390fd5b61069c81610697906133d6565b611504565b50565b601481565b6040517f08c379a00000000000000000000000000000000000000000000000000000000081526004016106d69061346c565b60405180910390fd5b60008060009054906101000a900473ffffffffffffffffffffffffffffffffffffffff16905090565b6107106113c2565b80600660008467ffffffffffffffff1667ffffffffffffffff16815260200190815260200160002060006101000a81548173ffffffffffffffffffffffffffffffffffffffff021916908373ffffffffffffffffffffffffffffffffffffffff1602179055505050565b61078261164b565b60046000836000015173ffffffffffffffffffffffffffffffffffffffff1673ffffffffffffffffffffffffffffffffffffffff168152602001908152602001600020600067ccf0a31a221f3c9b67ffffffffffffffff1667ffffffffffffffff16815260200190815260200160002060006101000a81548173ffffffffffffffffffffffffffffffffffffffff021916908373ffffffffffffffffffffffffffffffffffffffff16021790555050565b60007f0000000000000000000000000000000000000000000000000000000000000000905090565b6108636113c2565b806001908161087291906136a3565b5050565b600073ffffffffffffffffffffffffffffffffffffffff166006600067ccf0a31a221f3c9b67ffffffffffffffff1667ffffffffffffffff16815260200190815260200160002060009054906101000a900473ffffffffffffffffffffffffffffffffffffffff1673ffffffffffffffffffffffffffffffffffffffff1603610934576040517f08c379a000000000000000000000000000000000000000000000000000000000815260040161092b906137c1565b60405180910390fd5b60006040518060a001604052806006600067ccf0a31a221f3c9b67ffffffffffffffff1667ffffffffffffffff16815260200190815260200160002060009054906101000a900473ffffffffffffffffffffffffffffffffffffffff166040516020016109a19190612e2e565b604051602081830303815290604052815260200187878787876040516020016109ce959493929190613899565b6040516020818303038152906040528152602001600067ffffffffffffffff8111156109fd576109fc6128d5565b5b604051908082528060200260200182016040528015610a3657816020015b610a236126d9565b815260200190600190039081610a1b5790505b508152602001600073ffffffffffffffffffffffffffffffffffffffff168152602001610a7c6040518060400160405280621e8480815260200160001515815250611653565b81525090506000600760009054906101000a900473ffffffffffffffffffffffffffffffffffffffff1673ffffffffffffffffffffffffffffffffffffffff166320487ded67ccf0a31a221f3c9b846040518363ffffffff1660e01b8152600401610ae8929190613ada565b602060405180830381865afa158015610b05573d6000803e3d6000fd5b505050506040513d601f19601f82011682018060405250810190610b299190613b1f565b905080341015610b6e576040517f08c379a0000000000000000000000000000000000000000000000000000000008152600401610b6590613b98565b60405180910390fd5b600760009054906101000a900473ffffffffffffffffffffffffffffffffffffffff1673ffffffffffffffffffffffffffffffffffffffff166396f4e9f98267ccf0a31a221f3c9b856040518463ffffffff1660e01b8152600401610bd4929190613ada565b60206040518083038185885af1158015610bf2573d6000803e3d6000fd5b50505050506040513d601f19601f82011682018060405250810190610c179190613bcd565b5060008134610c269190613c29565b90506000811115610c7f5760008890508073ffffffffffffffffffffffffffffffffffffffff166108fc839081150290604051600060405180830381858888f19350505050158015610c7c573d6000803e3d6000fd5b50505b5050505050505050565b600581565b601483511115610cd3576040517f08c379a0000000000000000000000000000000000000000000000000000000008152600401610cca90613ca9565b60405180910390fd5b600060046000610ce161164b565b73ffffffffffffffffffffffffffffffffffffffff1673ffffffffffffffffffffffffffffffffffffffff168152602001908152602001600020600067ccf0a31a221f3c9b67ffffffffffffffff1667ffffffffffffffff16815260200190815260200160002060009054906101000a900473ffffffffffffffffffffffffffffffffffffffff169050600073ffffffffffffffffffffffffffffffffffffffff168173ffffffffffffffffffffffffffffffffffffffff1603610dda576040517f08c379a0000000000000000000000000000000000000000000000000000000008152600401610dd190613d15565b60405180910390fd5b6000600567ffffffffffffffff811115610df757610df66128d5565b5b604051908082528060200260200182016040528015610e2a57816020015b6060815260200190600190039081610e155790505b50905073__StringJoiner__________________________635c8656e0866040518263ffffffff1660e01b8152600401610e649190613e9e565b600060405180830381865af4158015610e81573d6000803e3d6000fd5b505050506040513d6000823e3d601f19601f82011682018060405250810190610eaa9190613f43565b81600081518110610ebe57610ebd613f8c565b5b60200260200101819052508381600181518110610ede57610edd613f8c565b5b6020026020010181905250610ef2826116d2565b81600281518110610f0657610f05613f8c565b5b6020026020010181905250610f1a866116d2565b81600381518110610f2e57610f2d613f8c565b5b6020026020010181905250610f458360ff166116ff565b81600481518110610f5957610f58613f8c565b5b6020026020010181905250610f6c612709565b61100960018054610f7c906134c6565b80601f0160208091040260200160405190810160405280929190818152602001828054610fa8906134c6565b8015610ff55780601f10610fca57610100808354040283529160200191610ff5565b820191906000526020600020905b815481529060010190602001808311610fd857829003601f168201915b5050505050826117cd90919063ffffffff16565b61101c82826117de90919063ffffffff16565b600061105c61102a83611826565b600260009054906101000a900467ffffffffffffffff16600260089054906101000a900463ffffffff16600354611c42565b905060405180606001604052808573ffffffffffffffffffffffffffffffffffffffff1681526020018973ffffffffffffffffffffffffffffffffffffffff168152602001600015158152506005600083815260200190815260200160002060008201518160000160006101000a81548173ffffffffffffffffffffffffffffffffffffffff021916908373ffffffffffffffffffffffffffffffffffffffff16021790555060208201518160010160006101000a81548173ffffffffffffffffffffffffffffffffffffffff021916908373ffffffffffffffffffffffffffffffffffffffff16021790555060408201518160010160146101000a81548160ff0219169083151502179055509050505050505050505050565b61117e6113c2565b600073ffffffffffffffffffffffffffffffffffffffff168173ffffffffffffffffffffffffffffffffffffffff16036111ed576040517f08c379a00000000000000000000000000000000000000000000000000000000081526004016111e49061402d565b60405180910390fd5b6111f681611440565b50565b600081511115611241577f980dacf15fd4de388a78b30b7137819db55322065f76cd76f26843976b4b8f3d838260405161123492919061405c565b60405180910390a16113bd565b60006005600085815260200190815260200160002090508060010160149054906101000a900460ff16156112aa576040517f08c379a00000000000000000000000000000000000000000000000000000000081526004016112a1906140d8565b60405180910390fd5b60018160010160146101000a81548160ff02191690831515021790555060008160000160009054906101000a900473ffffffffffffffffffffffffffffffffffffffff1690508073ffffffffffffffffffffffffffffffffffffffff16638f9c39568360010160009054906101000a900473ffffffffffffffffffffffffffffffffffffffff16866040518363ffffffff1660e01b815260040161134f9291906140f8565b600060405180830381600087803b15801561136957600080fd5b505af115801561137d573d6000803e3d6000fd5b505050507feaedbcf97bf9fb5a6b911a99706c1cd297c974a3bf541bb1806522fccc69e27a85856040516113b292919061405c565b60405180910390a150505b505050565b6113ca61164b565b73ffffffffffffffffffffffffffffffffffffffff166113e86106df565b73ffffffffffffffffffffffffffffffffffffffff161461143e576040517f08c379a000000000000000000000000000000000000000000000000000000000815260040161143590614174565b60405180910390fd5b565b60008060009054906101000a900473ffffffffffffffffffffffffffffffffffffffff169050816000806101000a81548173ffffffffffffffffffffffffffffffffffffffff021916908373ffffffffffffffffffffffffffffffffffffffff1602179055508173ffffffffffffffffffffffffffffffffffffffff168173ffffffffffffffffffffffffffffffffffffffff167f8be0079c531659141344cd1fd0a4f28419497f9722a3daafe3b4186f6b6457e060405160405180910390a35050565b600080600080600085606001518060200190518101906115249190614242565b945094509450945094506000600460008773ffffffffffffffffffffffffffffffffffffffff1673ffffffffffffffffffffffffffffffffffffffff168152602001908152602001600020600067ccf0a31a221f3c9b67ffffffffffffffff1667ffffffffffffffff16815260200190815260200160002060009054906101000a900473ffffffffffffffffffffffffffffffffffffffff16905060008190508073ffffffffffffffffffffffffffffffffffffffff16636d4195fb67ccf0a31a221f3c9b89898989896040518763ffffffff1660e01b815260040161160f969594939291906142f5565b600060405180830381600087803b15801561162957600080fd5b505af115801561163d573d6000803e3d6000fd5b505050505050505050505050565b600033905090565b60606397a657c960e01b8260405160240161166e91906143a2565b604051602081830303815290604052907bffffffffffffffffffffffffffffffffffffffffffffffffffffffff19166020820180517bffffffffffffffffffffffffffffffffffffffffffffffffffffffff83818316178352505050509050919050565b60606116f88273ffffffffffffffffffffffffffffffffffffffff16601460ff16611d25565b9050919050565b60606000600161170e84611f61565b01905060008167ffffffffffffffff81111561172d5761172c6128d5565b5b6040519080825280601f01601f19166020018201604052801561175f5781602001600182028036833780820191505090505b509050600082602001820190505b6001156117c2578080600190039150507f3031323334353637383961626364656600000000000000000000000000000000600a86061a8153600a85816117b6576117b56143bd565b5b0494506000850361176d575b819350505050919050565b6117da82600080846120b4565b5050565b6000815103611819576040517ffe936cb700000000000000000000000000000000000000000000000000000000815260040160405180910390fd5b808260a001819052505050565b6060600061183561010061215e565b905061187f6040518060400160405280600c81526020017f636f64654c6f636174696f6e00000000000000000000000000000000000000008152508261218590919063ffffffff16565b6118a883600001516002811115611899576118986143ec565b5b826121ae90919063ffffffff16565b6118f06040518060400160405280600881526020017f6c616e67756167650000000000000000000000000000000000000000000000008152508261218590919063ffffffff16565b6119198360400151600081111561190a576119096143ec565b5b826121ae90919063ffffffff16565b6119616040518060400160405280600681526020017f736f7572636500000000000000000000000000000000000000000000000000008152508261218590919063ffffffff16565b61197883606001518261218590919063ffffffff16565b60008360a00151511115611a34576119ce6040518060400160405280600481526020017f61726773000000000000000000000000000000000000000000000000000000008152508261218590919063ffffffff16565b6119d7816121fe565b60005b8360a0015151811015611a2957611a188460a001518281518110611a0157611a00613f8c565b5b60200260200101518361218590919063ffffffff16565b80611a229061441b565b90506119da565b50611a3381612226565b5b60008360800151511115611b755760006002811115611a5657611a556143ec565b5b83602001516002811115611a6d57611a6c6143ec565b5b03611aa4576040517fa80d31f700000000000000000000000000000000000000000000000000000000815260040160405180910390fd5b611aec6040518060400160405280600f81526020017f736563726574734c6f636174696f6e00000000000000000000000000000000008152508261218590919063ffffffff16565b611b1583602001516002811115611b0657611b056143ec565b5b826121ae90919063ffffffff16565b611b5d6040518060400160405280600781526020017f73656372657473000000000000000000000000000000000000000000000000008152508261218590919063ffffffff16565b611b7483608001518261224e90919063ffffffff16565b5b60008360c00151511115611c3157611bcb6040518060400160405280600981526020017f62797465734172677300000000000000000000000000000000000000000000008152508261218590919063ffffffff16565b611bd4816121fe565b60005b8360c0015151811015611c2657611c158460c001518281518110611bfe57611bfd613f8c565b5b60200260200101518361224e90919063ffffffff16565b80611c1f9061441b565b9050611bd7565b50611c3081612226565b5b806000015160000151915050919050565b6000807f000000000000000000000000000000000000000000000000000000000000000073ffffffffffffffffffffffffffffffffffffffff1663461d27628688600188886040518663ffffffff1660e01b8152600401611ca795949392919061448f565b6020604051808303816000875af1158015611cc6573d6000803e3d6000fd5b505050506040513d601f19601f82011682018060405250810190611cea9190613bcd565b9050807f1131472297a800fee664d1d89cfa8f7676ff07189ecc53f80bbb5f4969099db860405160405180910390a280915050949350505050565b606060006002836002611d3891906144e9565b611d42919061452b565b67ffffffffffffffff811115611d5b57611d5a6128d5565b5b6040519080825280601f01601f191660200182016040528015611d8d5781602001600182028036833780820191505090505b5090507f300000000000000000000000000000000000000000000000000000000000000081600081518110611dc557611dc4613f8c565b5b60200101907effffffffffffffffffffffffffffffffffffffffffffffffffffffffffffff1916908160001a9053507f780000000000000000000000000000000000000000000000000000000000000081600181518110611e2957611e28613f8c565b5b60200101907effffffffffffffffffffffffffffffffffffffffffffffffffffffffffffff1916908160001a90535060006001846002611e6991906144e9565b611e73919061452b565b90505b6001811115611f13577f3031323334353637383961626364656600000000000000000000000000000000600f861660108110611eb557611eb4613f8c565b5b1a60f81b828281518110611ecc57611ecb613f8c565b5b60200101907effffffffffffffffffffffffffffffffffffffffffffffffffffffffffffff1916908160001a905350600485901c945080611f0c9061455f565b9050611e76565b5060008414611f57576040517f08c379a0000000000000000000000000000000000000000000000000000000008152600401611f4e906145d4565b60405180910390fd5b8091505092915050565b600080600090507a184f03e93ff9f4daa797ed6e38ed64bf6a1f0100000000000000008310611fbf577a184f03e93ff9f4daa797ed6e38ed64bf6a1f0100000000000000008381611fb557611fb46143bd565b5b0492506040810190505b6d04ee2d6d415b85acef81000000008310611ffc576d04ee2d6d415b85acef81000000008381611ff257611ff16143bd565b5b0492506020810190505b662386f26fc10000831061202b57662386f26fc100008381612021576120206143bd565b5b0492506010810190505b6305f5e1008310612054576305f5e100838161204a576120496143bd565b5b0492506008810190505b612710831061207957612710838161206f5761206e6143bd565b5b0492506004810190505b6064831061209c5760648381612092576120916143bd565b5b0492506002810190505b600a83106120ab576001810190505b80915050919050565b60008151036120ef576040517f22ce3edd00000000000000000000000000000000000000000000000000000000815260040160405180910390fd5b8284600001906002811115612107576121066143ec565b5b9081600281111561211b5761211a6143ec565b5b815250508184604001906000811115612137576121366143ec565b5b9081600081111561214b5761214a6143ec565b5b8152505080846060018190525050505050565b61216661277b565b612174816000015183612277565b506000816020018181525050919050565b61219282600383516122f0565b6121a981836000015161249990919063ffffffff16565b505050565b6121d060026005600660ff16901b1783600001516124b590919063ffffffff16565b506121fa82826040516020016121e69190612c14565b60405160208183030381529060405261224e565b5050565b61220981600461251f565b60018160200181815161221c919061452b565b9150818152505050565b61223181600761251f565b6001816020018181516122449190613c29565b9150818152505050565b61225b82600283516122f0565b61227281836000015161249990919063ffffffff16565b505050565b61227f61279b565b600060208361228e91906145f4565b146122ba576020826122a091906145f4565b60206122ac9190613c29565b826122b7919061452b565b91505b8183602001818152505060405180845260008152828101602001818110156122e157600080fd5b80604052505082905092915050565b60178167ffffffffffffffff161161232b576123258160058460ff16901b60ff161784600001516124b590919063ffffffff16565b50612494565b60ff8167ffffffffffffffff16116123895761235e601860058460ff16901b1784600001516124b590919063ffffffff16565b506123838167ffffffffffffffff16600185600001516125459092919063ffffffff16565b50612493565b61ffff8167ffffffffffffffff16116123e8576123bd601960058460ff16901b1784600001516124b590919063ffffffff16565b506123e28167ffffffffffffffff16600285600001516125459092919063ffffffff16565b50612492565b63ffffffff8167ffffffffffffffff16116124495761241e601a60058460ff16901b1784600001516124b590919063ffffffff16565b506124438167ffffffffffffffff16600485600001516125459092919063ffffffff16565b50612491565b61246a601b60058460ff16901b1784600001516124b590919063ffffffff16565b5061248f8167ffffffffffffffff16600885600001516125459092919063ffffffff16565b505b5b5b5b505050565b6124a161279b565b6124ad838384516125d2565b905092915050565b6124bd61279b565b6000836000015151905060006001826124d6919061452b565b9050846020015182106124fa576124f9856002836124f491906144e9565b6126b5565b5b84516020838201018581538151831115612512578282525b5050849250505092915050565b612540601f60058360ff16901b1783600001516124b590919063ffffffff16565b505050565b61254d61279b565b6000846000015151905060008184612565919061452b565b9050856020015181111561258a576125898660028361258491906144e9565b6126b5565b5b600060018561010061259c9190614758565b6125a69190613c29565b9050865182810187831982511617815281518411156125c3578382525b50508693505050509392505050565b6125da61279b565b82518211156125e857600080fd5b6000846000015151905060008382612600919061452b565b90508560200151811115612625576126248660028361261f91906144e9565b6126b5565b5b60008087518051856020830101935080851115612640578482525b60208901925050505b602086106126875780518252602082612662919061452b565b9150602081612671919061452b565b90506020866126809190613c29565b9550612649565b60006001876020036101000a0390508019825116818451168181178552505050879450505050509392505050565b6000826000015190506126c88383612277565b506126d38382612499565b50505050565b6040518060400160405280600073ffffffffffffffffffffffffffffffffffffffff168152602001600081525090565b6040518060e0016040528060006002811115612728576127276143ec565b5b815260200160006002811115612741576127406143ec565b5b8152602001600080811115612759576127586143ec565b5b8152602001606081526020016060815260200160608152602001606081525090565b604051806040016040528061278e61279b565b8152602001600081525090565b604051806040016040528060608152602001600081525090565b6000604051905090565b600080fd5b600080fd5b60007fffffffff0000000000000000000000000000000000000000000000000000000082169050919050565b6127fe816127c9565b811461280957600080fd5b50565b60008135905061281b816127f5565b92915050565b600060208284031215612837576128366127bf565b5b60006128458482850161280c565b91505092915050565b60008115159050919050565b6128638161284e565b82525050565b600060208201905061287e600083018461285a565b92915050565b6000819050919050565b61289781612884565b81146128a257600080fd5b50565b6000813590506128b48161288e565b92915050565b600080fd5b600080fd5b6000601f19601f8301169050919050565b7f4e487b7100000000000000000000000000000000000000000000000000000000600052604160045260246000fd5b61290d826128c4565b810181811067ffffffffffffffff8211171561292c5761292b6128d5565b5b80604052505050565b600061293f6127b5565b905061294b8282612904565b919050565b600067ffffffffffffffff82111561296b5761296a6128d5565b5b612974826128c4565b9050602081019050919050565b82818337600083830152505050565b60006129a361299e84612950565b612935565b9050828152602081018484840111156129bf576129be6128bf565b5b6129ca848285612981565b509392505050565b600082601f8301126129e7576129e66128ba565b5b81356129f7848260208601612990565b91505092915050565b600080600060608486031215612a1957612a186127bf565b5b6000612a27868287016128a5565b935050602084013567ffffffffffffffff811115612a4857612a476127c4565b5b612a54868287016129d2565b925050604084013567ffffffffffffffff811115612a7557612a746127c4565b5b612a81868287016129d2565b9150509250925092565b600067ffffffffffffffff82169050919050565b612aa881612a8b565b8114612ab357600080fd5b50565b600081359050612ac581612a9f565b92915050565b600060208284031215612ae157612ae06127bf565b5b6000612aef84828501612ab6565b91505092915050565b600063ffffffff82169050919050565b612b1181612af8565b8114612b1c57600080fd5b50565b600081359050612b2e81612b08565b92915050565b600060208284031215612b4a57612b496127bf565b5b6000612b5884828501612b1f565b91505092915050565b600060208284031215612b7757612b766127bf565b5b6000612b85848285016128a5565b91505092915050565b600080fd5b600060a08284031215612ba957612ba8612b8e565b5b81905092915050565b600060208284031215612bc857612bc76127bf565b5b600082013567ffffffffffffffff811115612be657612be56127c4565b5b612bf284828501612b93565b91505092915050565b6000819050919050565b612c0e81612bfb565b82525050565b6000602082019050612c296000830184612c05565b92915050565b600073ffffffffffffffffffffffffffffffffffffffff82169050919050565b6000612c5a82612c2f565b9050919050565b612c6a81612c4f565b8114612c7557600080fd5b50565b600081359050612c8781612c61565b92915050565b612c9681612bfb565b8114612ca157600080fd5b50565b600081359050612cb381612c8d565b92915050565b600067ffffffffffffffff821115612cd457612cd36128d5565b5b612cdd826128c4565b9050602081019050919050565b6000612cfd612cf884612cb9565b612935565b905082815260208101848484011115612d1957612d186128bf565b5b612d24848285612981565b509392505050565b600082601f830112612d4157612d406128ba565b5b8135612d51848260208601612cea565b91505092915050565b60008060008060008060c08789031215612d7757612d766127bf565b5b6000612d8589828a01612ab6565b9650506020612d9689828a01612c78565b9550506040612da789828a01612c78565b9450506060612db889828a01612ca4565b935050608087013567ffffffffffffffff811115612dd957612dd86127c4565b5b612de589828a01612d2c565b92505060a087013567ffffffffffffffff811115612e0657612e056127c4565b5b612e1289828a016129d2565b9150509295509295509295565b612e2881612c4f565b82525050565b6000602082019050612e436000830184612e1f565b92915050565b60008060408385031215612e6057612e5f6127bf565b5b6000612e6e85828601612ab6565b9250506020612e7f85828601612c78565b9150509250929050565b600080fd5b600080fd5b600060208284031215612ea957612ea8612e89565b5b612eb36020612935565b90506000612ec384828501612c78565b60008301525092915050565b600060208284031215612ee557612ee46127bf565b5b6000612ef384828501612e93565b91505092915050565b600060208284031215612f1257612f116127bf565b5b600082013567ffffffffffffffff811115612f3057612f2f6127c4565b5b612f3c84828501612d2c565b91505092915050565b600080600080600060a08688031215612f6157612f606127bf565b5b6000612f6f88828901612c78565b9550506020612f8088828901612c78565b9450506040612f9188828901612ca4565b935050606086013567ffffffffffffffff811115612fb257612fb16127c4565b5b612fbe88828901612d2c565b925050608086013567ffffffffffffffff811115612fdf57612fde6127c4565b5b612feb888289016129d2565b9150509295509295909350565b600067ffffffffffffffff821115613013576130126128d5565b5b602082029050602081019050919050565b600080fd5b600061303c61303784612ff8565b612935565b9050808382526020820190506020840283018581111561305f5761305e613024565b5b835b818110156130a657803567ffffffffffffffff811115613084576130836128ba565b5b8086016130918982612d2c565b85526020850194505050602081019050613061565b5050509392505050565b600082601f8301126130c5576130c46128ba565b5b81356130d5848260208601613029565b91505092915050565b600060ff82169050919050565b6130f4816130de565b81146130ff57600080fd5b50565b600081359050613111816130eb565b92915050565b60008060008060808587031215613131576131306127bf565b5b600061313f87828801612c78565b945050602085013567ffffffffffffffff8111156131605761315f6127c4565b5b61316c878288016130b0565b935050604085013567ffffffffffffffff81111561318d5761318c6127c4565b5b61319987828801612d2c565b92505060606131aa87828801613102565b91505092959194509250565b6000602082840312156131cc576131cb6127bf565b5b60006131da84828501612c78565b91505092915050565b600067ffffffffffffffff8211156131fe576131fd6128d5565b5b602082029050602081019050919050565b60006040828403121561322557613224612e89565b5b61322f6040612935565b9050600061323f84828501612c78565b600083015250602061325384828501612ca4565b60208301525092915050565b600061327261326d846131e3565b612935565b9050808382526020820190506040840283018581111561329557613294613024565b5b835b818110156132be57806132aa888261320f565b845260208401935050604081019050613297565b5050509392505050565b600082601f8301126132dd576132dc6128ba565b5b81356132ed84826020860161325f565b91505092915050565b600060a0828403121561330c5761330b612e89565b5b61331660a0612935565b90506000613326848285016128a5565b600083015250602061333a84828501612ab6565b602083015250604082013567ffffffffffffffff81111561335e5761335d612e8e565b5b61336a848285016129d2565b604083015250606082013567ffffffffffffffff81111561338e5761338d612e8e565b5b61339a848285016129d2565b606083015250608082013567ffffffffffffffff8111156133be576133bd612e8e565b5b6133ca848285016132c8565b60808301525092915050565b60006133e236836132f6565b9050919050565b600082825260208201905092915050565b7f4d6574686f64206e6f7420617661696c61626c652c20757365205f776974686460008201527f726177546f000000000000000000000000000000000000000000000000000000602082015250565b60006134566025836133e9565b9150613461826133fa565b604082019050919050565b6000602082019050818103600083015261348581613449565b9050919050565b600081519050919050565b7f4e487b7100000000000000000000000000000000000000000000000000000000600052602260045260246000fd5b600060028204905060018216806134de57607f821691505b6020821081036134f1576134f0613497565b5b50919050565b60008190508160005260206000209050919050565b60006020601f8301049050919050565b600082821b905092915050565b6000600883026135597fffffffffffffffffffffffffffffffffffffffffffffffffffffffffffffffff8261351c565b613563868361351c565b95508019841693508086168417925050509392505050565b6000819050919050565b60006135a061359b61359684612bfb565b61357b565b612bfb565b9050919050565b6000819050919050565b6135ba83613585565b6135ce6135c6826135a7565b848454613529565b825550505050565b600090565b6135e36135d6565b6135ee8184846135b1565b505050565b5b81811015613612576136076000826135db565b6001810190506135f4565b5050565b601f82111561365757613628816134f7565b6136318461350c565b81016020851015613640578190505b61365461364c8561350c565b8301826135f3565b50505b505050565b600082821c905092915050565b600061367a6000198460080261365c565b1980831691505092915050565b60006136938383613669565b9150826002028217905092915050565b6136ac8261348c565b67ffffffffffffffff8111156136c5576136c46128d5565b5b6136cf82546134c6565b6136da828285613616565b600060209050601f83116001811461370d57600084156136fb578287015190505b6137058582613687565b86555061376d565b601f19841661371b866134f7565b60005b828110156137435784890151825560018201915060208501945060208101905061371e565b86831015613760578489015161375c601f891682613669565b8355505b6001600288020188555050505b505050505050565b7f436861696e206e6f7420737570706f7274656400000000000000000000000000600082015250565b60006137ab6013836133e9565b91506137b682613775565b602082019050919050565b600060208201905081810360008301526137da8161379e565b9050919050565b60005b838110156137ff5780820151818401526020810190506137e4565b60008484015250505050565b60006138168261348c565b61382081856133e9565b93506138308185602086016137e1565b613839816128c4565b840191505092915050565b600081519050919050565b600082825260208201905092915050565b600061386b82613844565b613875818561384f565b93506138858185602086016137e1565b61388e816128c4565b840191505092915050565b600060a0820190506138ae6000830188612e1f565b6138bb6020830187612e1f565b6138c86040830186612c05565b81810360608301526138da818561380b565b905081810360808301526138ee8184613860565b90509695505050505050565b61390381612a8b565b82525050565b600082825260208201905092915050565b600061392582613844565b61392f8185613909565b935061393f8185602086016137e1565b613948816128c4565b840191505092915050565b600081519050919050565b600082825260208201905092915050565b6000819050602082019050919050565b61398881612c4f565b82525050565b61399781612bfb565b82525050565b6040820160008201516139b3600085018261397f565b5060208201516139c6602085018261398e565b50505050565b60006139d8838361399d565b60408301905092915050565b6000602082019050919050565b60006139fc82613953565b613a06818561395e565b9350613a118361396f565b8060005b83811015613a42578151613a2988826139cc565b9750613a34836139e4565b925050600181019050613a15565b5085935050505092915050565b600060a0830160008301518482036000860152613a6c828261391a565b91505060208301518482036020860152613a86828261391a565b91505060408301518482036040860152613aa082826139f1565b9150506060830151613ab5606086018261397f565b5060808301518482036080860152613acd828261391a565b9150508091505092915050565b6000604082019050613aef60008301856138fa565b8181036020830152613b018184613a4f565b90509392505050565b600081519050613b1981612c8d565b92915050565b600060208284031215613b3557613b346127bf565b5b6000613b4384828501613b0a565b91505092915050565b7f496e73756666696369656e742066656500000000000000000000000000000000600082015250565b6000613b826010836133e9565b9150613b8d82613b4c565b602082019050919050565b60006020820190508181036000830152613bb181613b75565b9050919050565b600081519050613bc78161288e565b92915050565b600060208284031215613be357613be26127bf565b5b6000613bf184828501613bb8565b91505092915050565b7f4e487b7100000000000000000000000000000000000000000000000000000000600052601160045260246000fd5b6000613c3482612bfb565b9150613c3f83612bfb565b9250828203905081811115613c5757613c56613bfa565b5b92915050565b7f546f6f206d616e79206174747269627574657300000000000000000000000000600082015250565b6000613c936013836133e9565b9150613c9e82613c5d565b602082019050919050565b60006020820190508181036000830152613cc281613c86565b9050919050565b7f47616d65204e6f7420466f756e64000000000000000000000000000000000000600082015250565b6000613cff600e836133e9565b9150613d0a82613cc9565b602082019050919050565b60006020820190508181036000830152613d2e81613cf2565b9050919050565b600081519050919050565b600082825260208201905092915050565b6000819050602082019050919050565b600082825260208201905092915050565b6000613d7d8261348c565b613d878185613d61565b9350613d978185602086016137e1565b613da0816128c4565b840191505092915050565b6000613db78383613d72565b905092915050565b6000602082019050919050565b6000613dd782613d35565b613de18185613d40565b935083602082028501613df385613d51565b8060005b85811015613e2f5784840389528151613e108582613dab565b9450613e1b83613dbf565b925060208a01995050600181019050613df7565b50829750879550505050505092915050565b600082825260208201905092915050565b7f2c00000000000000000000000000000000000000000000000000000000000000600082015250565b6000613e88600183613e41565b9150613e9382613e52565b602082019050919050565b60006040820190508181036000830152613eb88184613dcc565b90508181036020830152613ecb81613e7b565b905092915050565b6000613ee6613ee184612cb9565b612935565b905082815260208101848484011115613f0257613f016128bf565b5b613f0d8482856137e1565b509392505050565b600082601f830112613f2a57613f296128ba565b5b8151613f3a848260208601613ed3565b91505092915050565b600060208284031215613f5957613f586127bf565b5b600082015167ffffffffffffffff811115613f7757613f766127c4565b5b613f8384828501613f15565b91505092915050565b7f4e487b7100000000000000000000000000000000000000000000000000000000600052603260045260246000fd5b7f4f776e61626c653a206e6577206f776e657220697320746865207a65726f206160008201527f6464726573730000000000000000000000000000000000000000000000000000602082015250565b60006140176026836133e9565b915061402282613fbb565b604082019050919050565b600060208201905081810360008301526140468161400a565b9050919050565b61405681612884565b82525050565b6000604082019050614071600083018561404d565b81810360208301526140838184613860565b90509392505050565b7f416c72656164792066756c66696c6c6564000000000000000000000000000000600082015250565b60006140c26011836133e9565b91506140cd8261408c565b602082019050919050565b600060208201905081810360008301526140f1816140b5565b9050919050565b600060408201905061410d6000830185612e1f565b818103602083015261411f818461380b565b90509392505050565b7f4f776e61626c653a2063616c6c6572206973206e6f7420746865206f776e6572600082015250565b600061415e6020836133e9565b915061416982614128565b602082019050919050565b6000602082019050818103600083015261418d81614151565b9050919050565b600061419f82612c2f565b9050919050565b6141af81614194565b81146141ba57600080fd5b50565b6000815190506141cc816141a6565b92915050565b60006141e56141e084612950565b612935565b905082815260208101848484011115614201576142006128bf565b5b61420c8482856137e1565b509392505050565b600082601f830112614229576142286128ba565b5b81516142398482602086016141d2565b91505092915050565b600080600080600060a0868803121561425e5761425d6127bf565b5b600061426c888289016141bd565b955050602061427d888289016141bd565b945050604061428e88828901613b0a565b935050606086015167ffffffffffffffff8111156142af576142ae6127c4565b5b6142bb88828901613f15565b925050608086015167ffffffffffffffff8111156142dc576142db6127c4565b5b6142e888828901614214565b9150509295509295909350565b600060c08201905061430a60008301896138fa565b6143176020830188612e1f565b6143246040830187612e1f565b6143316060830186612c05565b8181036080830152614343818561380b565b905081810360a08301526143578184613860565b9050979650505050505050565b61436d8161284e565b82525050565b604082016000820151614389600085018261398e565b50602082015161439c6020850182614364565b50505050565b60006040820190506143b76000830184614373565b92915050565b7f4e487b7100000000000000000000000000000000000000000000000000000000600052601260045260246000fd5b7f4e487b7100000000000000000000000000000000000000000000000000000000600052602160045260246000fd5b600061442682612bfb565b91507fffffffffffffffffffffffffffffffffffffffffffffffffffffffffffffffff820361445857614457613bfa565b5b600182019050919050565b600061ffff82169050919050565b61447a81614463565b82525050565b61448981612af8565b82525050565b600060a0820190506144a460008301886138fa565b81810360208301526144b68187613860565b90506144c56040830186614471565b6144d26060830185614480565b6144df608083018461404d565b9695505050505050565b60006144f482612bfb565b91506144ff83612bfb565b925082820261450d81612bfb565b9150828204841483151761452457614523613bfa565b5b5092915050565b600061453682612bfb565b915061454183612bfb565b925082820190508082111561455957614558613bfa565b5b92915050565b600061456a82612bfb565b91506000820361457d5761457c613bfa565b5b600182039050919050565b7f537472696e67733a20686578206c656e67746820696e73756666696369656e74600082015250565b60006145be6020836133e9565b91506145c982614588565b602082019050919050565b600060208201905081810360008301526145ed816145b1565b9050919050565b60006145ff82612bfb565b915061460a83612bfb565b92508261461a576146196143bd565b5b828206905092915050565b60008160011c9050919050565b6000808291508390505b600185111561467c5780860481111561465857614657613bfa565b5b60018516156146675780820291505b808102905061467585614625565b945061463c565b94509492505050565b6000826146955760019050614751565b816146a35760009050614751565b81600181146146b957600281146146c3576146f2565b6001915050614751565b60ff8411156146d5576146d4613bfa565b5b8360020a9150848211156146ec576146eb613bfa565b5b50614751565b5060208310610133831016604e8410600b84101617156147275782820a90508381111561472257614721613bfa565b5b614751565b6147348484846001614632565b9250905081840481111561474b5761474a613bfa565b5b81810290505b9392505050565b600061476382612bfb565b915061476e83612bfb565b925061479b7fffffffffffffffffffffffffffffffffffffffffffffffffffffffffffffffff8484614685565b90509291505056fea2646970667358221220e684557e638894858dad88d45a9fa6d811b1414f14d85f201000eb09f1bba61a64736f6c63430008130033",
  "immutableReferences": {
    "14": [
      {
        "length": 32,
        "start": 1532
      },
      {
        "length": 32,
        "start": 2103
      }
    ],
    "5186": [
      {
        "length": 32,
        "start": 1204
      },
      {
        "length": 32,
        "start": 7239
      }
    ]
  },
  "source": "// SPDX-License-Identifier: MIT\r\npragma solidity ^0.8.19;\r\n\r\nimport {Assets} from \"./libraries/Assets.sol\";\r\nimport {Params} from \"./libraries/Params.sol\";\r\nimport {IKanvasInterop} from \"./interfaces/IKanvasInterop.sol\";\r\nimport {IKanvasInteropGame} from \"./interfaces/IKanvasInteropGame.sol\";\r\nimport {StringJoiner} from \"./libraries/StringJoiner.sol\";\r\n\r\nimport {Strings} from \"@openzeppelin/contracts/utils/Strings.sol\";\r\nimport {Ownable} from \"@openzeppelin/contracts/access/Ownable.sol\";\r\nimport {Context} from \"@openzeppelin/contracts/utils/Context.sol\";\r\n\r\nimport {FunctionsClient} from \"./FunctionsClient.sol\";\r\nimport {FunctionsRequest} from \"@chainlink/contracts/src/v0.8/functions/dev/v1_0_0/libraries/FunctionsRequest.sol\";\r\n\r\nimport {Client} from \"@chainlink/contracts-ccip/src/v0.8/ccip/libraries/Client.sol\";\r\nimport {CCIPReceiver} from \"@chainlink/contracts-ccip/src/v0.8/ccip/applications/CCIPReceiver.sol\";\r\nimport {IRouterClient} from \"@chainlink/contracts-ccip/src/v0.8/ccip/interfaces/IRouterClient.sol\";\r\n\r\n// For Polygon Mumbai - Alone\r\n// @dev Hardcoded vaolues for Mumbai\r\n\r\ncontract KanvasInterop is\r\n    IKanvasInterop,\r\n    Context,\r\n    CCIPReceiver,\r\n    FunctionsClient,\r\n    Ownable\r\n{\r\n    using FunctionsRequest for FunctionsRequest.Request;\r\n    uint64 private constant AVAX_SELECTOR = 14767482510784806043;\r\n\r\n    uint256 public constant MAX_PROPERTIES_LEN = 20;\r\n    uint256 public constant MAX_TEMPLATES_LEN = 5;\r\n\r\n    string private _sourceCode;\r\n    uint64 private _subscriptionId = 1066;\r\n    uint32 private _gasLimit = 300_000;\r\n    bytes32 private _donId =\r\n        0x66756e2d706f6c79676f6e2d6d756d6261692d31000000000000000000000000;\r\n\r\n    mapping(address => mapping(uint64 => address)) private _games;\r\n\r\n    mapping(bytes32 => Assets.Request) private _requests;\r\n\r\n    mapping(uint64 => address) private _interops;\r\n\r\n    IRouterClient private _router;\r\n\r\n    constructor(\r\n        address ccipReceiver,\r\n        address functionOracle\r\n    ) CCIPReceiver(ccipReceiver) Ownable() FunctionsClient(functionOracle) {\r\n        _router = IRouterClient(getRouter());\r\n    }\r\n\r\n    function updateDonId(bytes32 newDonId) external onlyOwner {\r\n        _donId = newDonId;\r\n    }\r\n\r\n    function updateSourceCode(string memory newSourceCode) external onlyOwner {\r\n        _sourceCode = newSourceCode;\r\n    }\r\n\r\n    function updateGasLimit(uint32 newLimit) external onlyOwner {\r\n        _gasLimit = newLimit;\r\n    }\r\n\r\n    function updateSubscriptionId(uint64 newSubscriptionId) external onlyOwner {\r\n        _subscriptionId = newSubscriptionId;\r\n    }\r\n\r\n    function _createGame(Params.InteropGame memory params) external override {\r\n        _games[params.sourceGameId][AVAX_SELECTOR] = _msgSender();\r\n    }\r\n\r\n    function _generateUri(\r\n        address playerId,\r\n        string[] memory props,\r\n        string memory fields,\r\n        uint8 templateId\r\n    ) external override {\r\n        require(props.length <= MAX_PROPERTIES_LEN, \"Too many attributes\");\r\n\r\n        address gameId = _games[_msgSender()][AVAX_SELECTOR];\r\n        require(gameId != address(0), \"Game Not Found\");\r\n\r\n        string[] memory args = new string[](5);\r\n        args[0] = StringJoiner.joinStrings(props, \",\");\r\n        args[1] = fields;\r\n        args[2] = Strings.toHexString(gameId);\r\n        args[3] = Strings.toHexString(playerId);\r\n        args[4] = Strings.toString(templateId);\r\n\r\n        // Initialize the request\r\n        FunctionsRequest.Request memory req;\r\n\r\n        // Soucre code\r\n        req.initializeRequestForInlineJavaScript(_sourceCode);\r\n\r\n        // Add arguments\r\n        req.setArgs(args);\r\n\r\n        bytes32 requestId = _sendRequest(\r\n            req.encodeCBOR(),\r\n            _subscriptionId,\r\n            _gasLimit,\r\n            _donId\r\n        );\r\n\r\n        _requests[requestId] = Assets.Request({\r\n            gameId: gameId,\r\n            playerId: playerId,\r\n            fulfilled: false\r\n        });\r\n    }\r\n\r\n    function updateInterop(\r\n        uint64 chainSelector,\r\n        address kanvasRouter\r\n    ) external onlyOwner {\r\n        _interops[chainSelector] = kanvasRouter;\r\n    }\r\n\r\n    /** Receive the response in the form of string  */\r\n    function fulfillRequest(\r\n        bytes32 requestId,\r\n        bytes memory response,\r\n        bytes memory err\r\n    ) internal override {\r\n        if (err.length > 0) {\r\n            emit FulfullFailed(requestId, err);\r\n            return;\r\n        }\r\n\r\n        Assets.Request storage request = _requests[requestId];\r\n        require(!request.fulfilled, \"Already fulfilled\");\r\n\r\n        request.fulfilled = true;\r\n\r\n        IKanvasInteropGame game = IKanvasInteropGame(request.gameId);\r\n        game._receiveUri(request.playerId, string(response));\r\n\r\n        emit FulfullSuccess(requestId, response);\r\n    }\r\n\r\n    function _transferTo(\r\n        uint64 /* chainSelector */,\r\n        address /* gameId */,\r\n        address /* playerId */,\r\n        uint256 /* tokenId */,\r\n        string memory /* uri*/,\r\n        bytes memory /* data*/\r\n    ) external payable {\r\n        revert(\"Method not available, use _withdrawTo\");\r\n    }\r\n\r\n    function _withdrawTo(\r\n        address gameId,\r\n        address playerId,\r\n        uint256 tokenId,\r\n        string memory uri,\r\n        bytes memory data\r\n    ) external payable {\r\n        require(_interops[AVAX_SELECTOR] != address(0), \"Chain not supported\");\r\n\r\n        // Create an EVM2AnyMessage struct in memory with necessary information for sending a cross-chain message\r\n        Client.EVM2AnyMessage memory message = Client.EVM2AnyMessage({\r\n            // ABI-encoded receiver address\r\n            receiver: abi.encode(_interops[AVAX_SELECTOR]),\r\n            // ABI-encoded string message\r\n            data: abi.encode(gameId, playerId, tokenId, uri, data),\r\n            // Empty array indicating no tokens are being sent\r\n            tokenAmounts: new Client.EVMTokenAmount[](0),\r\n            // Additional arguments, setting gas limit and non-strict sequency mode\r\n            extraArgs: Client._argsToBytes(\r\n                Client.EVMExtraArgsV1({gasLimit: 2_000_000, strict: false})\r\n            ),\r\n            // Setting feeToken to zero address, indicating native asset will be used for fees\r\n            feeToken: address(0)\r\n        });\r\n\r\n        // Get the fee required to send the message\r\n        uint256 fees = _router.getFee(AVAX_SELECTOR, message);\r\n\r\n        require(msg.value >= fees, \"Insufficient fee\");\r\n\r\n        // Send the message through the router and store the returned message ID\r\n        _router.ccipSend{value: fees}(AVAX_SELECTOR, message);\r\n\r\n        uint256 overspent = msg.value - fees;\r\n\r\n        if (overspent > 0) {\r\n            address payable receiver = payable(gameId);\r\n            receiver.transfer(overspent);\r\n        }\r\n    }\r\n\r\n    // handle a received message\r\n    function _ccipReceive(\r\n        Client.Any2EVMMessage memory message\r\n    ) internal override {\r\n        (\r\n            address gameId,\r\n            address playerId,\r\n            uint256 tokenId,\r\n            string memory uri,\r\n            bytes memory data\r\n        ) = abi.decode(\r\n                message.data,\r\n                (address, address, uint256, string, bytes)\r\n            );\r\n\r\n        address interopGameId = _games[gameId][AVAX_SELECTOR];\r\n\r\n        IKanvasInteropGame game = IKanvasInteropGame(interopGameId);\r\n        game._receiveFrom(AVAX_SELECTOR, gameId, playerId, tokenId, uri, data);\r\n    }\r\n}\r\n",
  "sourcePath": "C:\\Users\\DELL\\Documents\\kanvas\\blockchain\\contracts\\KanvasInterop.sol",
  "compiler": {
    "name": "solc",
    "version": "0.8.19+commit.7dd6d404.Emscripten.clang"
  },
  "schemaVersion": "3.4.11",
  "updatedAt": "2023-12-06T16:32:49.585Z",
  "devdoc": {
    "kind": "dev",
    "methods": {
      "ccipReceive((bytes32,uint64,bytes,bytes,(address,uint256)[]))": {
        "details": "Note ensure you check the msg.sender is the OffRampRouter",
        "params": {
          "message": "CCIP Message"
        }
      },
      "getRouter()": {
        "returns": {
          "_0": "i_router address"
        }
      },
      "handleOracleFulfillment(bytes32,bytes,bytes)": {
        "details": "Either response or error parameter will be set, but never both.",
        "params": {
          "err": "Aggregated error either from the request's source code or from the execution pipeline.",
          "requestId": "The requestId returned by FunctionsClient.sendRequest().",
          "response": "Aggregated response from the request's source code."
        }
      },
      "owner()": {
        "details": "Returns the address of the current owner."
      },
      "renounceOwnership()": {
        "details": "Leaves the contract without owner. It will not be possible to call `onlyOwner` functions. Can only be called by the current owner. NOTE: Renouncing ownership will leave the contract without an owner, thereby disabling any functionality that is only available to the owner."
      },
      "supportsInterface(bytes4)": {
        "params": {
          "interfaceId": "The interfaceId to check"
        },
        "returns": {
          "_0": "true if the interfaceId is supported"
        }
      },
      "transferOwnership(address)": {
        "details": "Transfers ownership of the contract to a new account (`newOwner`). Can only be called by the current owner."
      }
    },
    "version": 1
  },
  "userdoc": {
    "kind": "user",
    "methods": {
      "ccipReceive((bytes32,uint64,bytes,bytes,(address,uint256)[]))": {
        "notice": "Called by the Router to deliver a message. If this reverts, any token transfers also revert. The message will move to a FAILED state and become available for manual execution."
      },
      "getRouter()": {
        "notice": "Return the current router"
      },
      "handleOracleFulfillment(bytes32,bytes,bytes)": {
        "notice": "Chainlink Functions response handler called by the Functions Router during fullilment from the designated transmitter node in an OCR round."
      },
      "supportsInterface(bytes4)": {
        "notice": "IERC165 supports an interfaceId"
      }
    },
    "version": 1
  }
}