{
  "contractName": "KanvasAvax",
  "abi": [
    {
      "inputs": [
        {
          "internalType": "address",
          "name": "ccipReceiver",
          "type": "address"
        },
        {
          "internalType": "address",
          "name": "functionOracle",
          "type": "address"
        }
      ],
      "stateMutability": "nonpayable",
      "type": "constructor"
    },
    {
      "inputs": [],
      "name": "EmptyArgs",
      "type": "error"
    },
    {
      "inputs": [],
      "name": "EmptySecrets",
      "type": "error"
    },
    {
      "inputs": [],
      "name": "EmptySource",
      "type": "error"
    },
    {
      "inputs": [
        {
          "internalType": "address",
          "name": "router",
          "type": "address"
        }
      ],
      "name": "InvalidRouter",
      "type": "error"
    },
    {
      "inputs": [],
      "name": "NoInlineSecrets",
      "type": "error"
    },
    {
      "inputs": [],
      "name": "RequestIsAlreadyPending",
      "type": "error"
    },
    {
      "inputs": [],
      "name": "RequestIsNotPending",
      "type": "error"
    },
    {
      "inputs": [],
      "name": "SenderIsNotRegistry",
      "type": "error"
    },
    {
      "anonymous": false,
      "inputs": [
        {
          "indexed": false,
          "internalType": "address",
          "name": "gameId",
          "type": "address"
        },
        {
          "indexed": false,
          "internalType": "string",
          "name": "name",
          "type": "string"
        },
        {
          "indexed": false,
          "internalType": "string",
          "name": "description",
          "type": "string"
        },
        {
          "indexed": false,
          "internalType": "string",
          "name": "avatar",
          "type": "string"
        },
        {
          "indexed": false,
          "internalType": "uint256",
          "name": "plan",
          "type": "uint256"
        },
        {
          "indexed": false,
          "internalType": "address",
          "name": "creator",
          "type": "address"
        },
        {
          "indexed": false,
          "internalType": "string",
          "name": "email",
          "type": "string"
        },
        {
          "indexed": false,
          "internalType": "string",
          "name": "website",
          "type": "string"
        }
      ],
      "name": "GameCreated",
      "type": "event"
    },
    {
      "anonymous": false,
      "inputs": [
        {
          "indexed": true,
          "internalType": "address",
          "name": "previousOwner",
          "type": "address"
        },
        {
          "indexed": true,
          "internalType": "address",
          "name": "newOwner",
          "type": "address"
        }
      ],
      "name": "OwnershipTransferred",
      "type": "event"
    },
    {
      "anonymous": false,
      "inputs": [
        {
          "indexed": false,
          "internalType": "uint256",
          "name": "planId",
          "type": "uint256"
        },
        {
          "indexed": false,
          "internalType": "string",
          "name": "name",
          "type": "string"
        },
        {
          "indexed": false,
          "internalType": "uint256",
          "name": "cost",
          "type": "uint256"
        },
        {
          "indexed": false,
          "internalType": "string",
          "name": "color",
          "type": "string"
        },
        {
          "indexed": false,
          "internalType": "uint256",
          "name": "limit",
          "type": "uint256"
        }
      ],
      "name": "PlanCreated",
      "type": "event"
    },
    {
      "anonymous": false,
      "inputs": [
        {
          "indexed": true,
          "internalType": "bytes32",
          "name": "id",
          "type": "bytes32"
        }
      ],
      "name": "RequestFulfilled",
      "type": "event"
    },
    {
      "anonymous": false,
      "inputs": [
        {
          "indexed": true,
          "internalType": "bytes32",
          "name": "id",
          "type": "bytes32"
        }
      ],
      "name": "RequestSent",
      "type": "event"
    },
    {
      "anonymous": false,
      "inputs": [
        {
          "indexed": false,
          "internalType": "address",
          "name": "gameId",
          "type": "address"
        },
        {
          "indexed": false,
          "internalType": "string",
          "name": "templateUri",
          "type": "string"
        }
      ],
      "name": "TemplateAdded",
      "type": "event"
    },
    {
      "inputs": [],
      "name": "MAX_PROPERTIES_LEN",
      "outputs": [
        {
          "internalType": "uint256",
          "name": "",
          "type": "uint256"
        }
      ],
      "stateMutability": "view",
      "type": "function",
      "constant": true
    },
    {
      "inputs": [],
      "name": "MAX_TEMPLATES_LEN",
      "outputs": [
        {
          "internalType": "uint256",
          "name": "",
          "type": "uint256"
        }
      ],
      "stateMutability": "view",
      "type": "function",
      "constant": true
    },
    {
      "inputs": [
        {
          "components": [
            {
              "internalType": "bytes32",
              "name": "messageId",
              "type": "bytes32"
            },
            {
              "internalType": "uint64",
              "name": "sourceChainSelector",
              "type": "uint64"
            },
            {
              "internalType": "bytes",
              "name": "sender",
              "type": "bytes"
            },
            {
              "internalType": "bytes",
              "name": "data",
              "type": "bytes"
            },
            {
              "components": [
                {
                  "internalType": "address",
                  "name": "token",
                  "type": "address"
                },
                {
                  "internalType": "uint256",
                  "name": "amount",
                  "type": "uint256"
                }
              ],
              "internalType": "struct Client.EVMTokenAmount[]",
              "name": "destTokenAmounts",
              "type": "tuple[]"
            }
          ],
          "internalType": "struct Client.Any2EVMMessage",
          "name": "message",
          "type": "tuple"
        }
      ],
      "name": "ccipReceive",
      "outputs": [],
      "stateMutability": "nonpayable",
      "type": "function"
    },
    {
      "inputs": [
        {
          "components": [
            {
              "internalType": "enum Functions.Location",
              "name": "codeLocation",
              "type": "uint8"
            },
            {
              "internalType": "enum Functions.Location",
              "name": "secretsLocation",
              "type": "uint8"
            },
            {
              "internalType": "enum Functions.CodeLanguage",
              "name": "language",
              "type": "uint8"
            },
            {
              "internalType": "string",
              "name": "source",
              "type": "string"
            },
            {
              "internalType": "bytes",
              "name": "secrets",
              "type": "bytes"
            },
            {
              "internalType": "string[]",
              "name": "args",
              "type": "string[]"
            }
          ],
          "internalType": "struct Functions.Request",
          "name": "req",
          "type": "tuple"
        },
        {
          "internalType": "uint64",
          "name": "subscriptionId",
          "type": "uint64"
        },
        {
          "internalType": "uint32",
          "name": "gasLimit",
          "type": "uint32"
        },
        {
          "internalType": "uint256",
          "name": "gasPrice",
          "type": "uint256"
        }
      ],
      "name": "estimateCost",
      "outputs": [
        {
          "internalType": "uint96",
          "name": "",
          "type": "uint96"
        }
      ],
      "stateMutability": "view",
      "type": "function",
      "constant": true
    },
    {
      "inputs": [],
      "name": "getDONPublicKey",
      "outputs": [
        {
          "internalType": "bytes",
          "name": "",
          "type": "bytes"
        }
      ],
      "stateMutability": "view",
      "type": "function",
      "constant": true
    },
    {
      "inputs": [],
      "name": "getRouter",
      "outputs": [
        {
          "internalType": "address",
          "name": "",
          "type": "address"
        }
      ],
      "stateMutability": "view",
      "type": "function",
      "constant": true
    },
    {
      "inputs": [
        {
          "internalType": "bytes32",
          "name": "requestId",
          "type": "bytes32"
        },
        {
          "internalType": "bytes",
          "name": "response",
          "type": "bytes"
        },
        {
          "internalType": "bytes",
          "name": "err",
          "type": "bytes"
        }
      ],
      "name": "handleOracleFulfillment",
      "outputs": [],
      "stateMutability": "nonpayable",
      "type": "function"
    },
    {
      "inputs": [],
      "name": "owner",
      "outputs": [
        {
          "internalType": "address",
          "name": "",
          "type": "address"
        }
      ],
      "stateMutability": "view",
      "type": "function",
      "constant": true
    },
    {
      "inputs": [],
      "name": "renounceOwnership",
      "outputs": [],
      "stateMutability": "nonpayable",
      "type": "function"
    },
    {
      "inputs": [
        {
          "internalType": "bytes4",
          "name": "interfaceId",
          "type": "bytes4"
        }
      ],
      "name": "supportsInterface",
      "outputs": [
        {
          "internalType": "bool",
          "name": "",
          "type": "bool"
        }
      ],
      "stateMutability": "pure",
      "type": "function",
      "constant": true
    },
    {
      "inputs": [
        {
          "internalType": "address",
          "name": "newOwner",
          "type": "address"
        }
      ],
      "name": "transferOwnership",
      "outputs": [],
      "stateMutability": "nonpayable",
      "type": "function"
    },
    {
      "inputs": [
        {
          "internalType": "string",
          "name": "newSourceCode",
          "type": "string"
        }
      ],
      "name": "updateSourceCode",
      "outputs": [],
      "stateMutability": "nonpayable",
      "type": "function"
    },
    {
      "inputs": [
        {
          "internalType": "uint32",
          "name": "newLimit",
          "type": "uint32"
        }
      ],
      "name": "updateGasLimit",
      "outputs": [],
      "stateMutability": "nonpayable",
      "type": "function"
    },
    {
      "inputs": [
        {
          "internalType": "uint64",
          "name": "newSubscriptionId",
          "type": "uint64"
        }
      ],
      "name": "updateSubscriptionId",
      "outputs": [],
      "stateMutability": "nonpayable",
      "type": "function"
    },
    {
      "inputs": [
        {
          "components": [
            {
              "internalType": "string",
              "name": "name",
              "type": "string"
            },
            {
              "internalType": "string",
              "name": "description",
              "type": "string"
            },
            {
              "internalType": "address",
              "name": "gameId",
              "type": "address"
            },
            {
              "internalType": "string",
              "name": "avatar",
              "type": "string"
            },
            {
              "internalType": "uint256",
              "name": "plan",
              "type": "uint256"
            },
            {
              "internalType": "string",
              "name": "email",
              "type": "string"
            },
            {
              "internalType": "string",
              "name": "website",
              "type": "string"
            }
          ],
          "internalType": "struct Params.Game",
          "name": "params",
          "type": "tuple"
        }
      ],
      "name": "createGame",
      "outputs": [],
      "stateMutability": "payable",
      "type": "function",
      "payable": true
    },
    {
      "inputs": [
        {
          "internalType": "string",
          "name": "templateUri",
          "type": "string"
        },
        {
          "internalType": "address",
          "name": "gameId",
          "type": "address"
        }
      ],
      "name": "addTemplate",
      "outputs": [],
      "stateMutability": "nonpayable",
      "type": "function"
    },
    {
      "inputs": [
        {
          "internalType": "address",
          "name": "playerId",
          "type": "address"
        },
        {
          "internalType": "string[]",
          "name": "props",
          "type": "string[]"
        },
        {
          "internalType": "string",
          "name": "fields",
          "type": "string"
        },
        {
          "internalType": "uint8",
          "name": "templateId",
          "type": "uint8"
        }
      ],
      "name": "_generateUri",
      "outputs": [],
      "stateMutability": "nonpayable",
      "type": "function"
    },
    {
      "inputs": [
        {
          "internalType": "uint64",
          "name": "chainSelector",
          "type": "uint64"
        },
        {
          "internalType": "address",
          "name": "kanvasRouter",
          "type": "address"
        }
      ],
      "name": "updateInterop",
      "outputs": [],
      "stateMutability": "nonpayable",
      "type": "function"
    },
    {
      "inputs": [
        {
          "internalType": "uint64",
          "name": "chainSelector",
          "type": "uint64"
        },
        {
          "internalType": "address",
          "name": "gameId",
          "type": "address"
        },
        {
          "internalType": "address",
          "name": "playerId",
          "type": "address"
        },
        {
          "internalType": "uint256",
          "name": "tokenId",
          "type": "uint256"
        },
        {
          "internalType": "string",
          "name": "uri",
          "type": "string"
        },
        {
          "internalType": "bytes",
          "name": "data",
          "type": "bytes"
        }
      ],
      "name": "_transferTo",
      "outputs": [],
      "stateMutability": "payable",
      "type": "function",
      "payable": true
    },
    {
      "inputs": [
        {
          "components": [
            {
              "internalType": "string",
              "name": "name",
              "type": "string"
            },
            {
              "internalType": "uint256",
              "name": "cost",
              "type": "uint256"
            },
            {
              "internalType": "string",
              "name": "color",
              "type": "string"
            },
            {
              "internalType": "uint256",
              "name": "limit",
              "type": "uint256"
            }
          ],
          "internalType": "struct Params.Plan",
          "name": "params",
          "type": "tuple"
        }
      ],
      "name": "createPlan",
      "outputs": [],
      "stateMutability": "nonpayable",
      "type": "function"
    }
  ],
  "bytecode": "0x60a060405261062c600460006101000a81548167ffffffffffffffff021916908367ffffffffffffffff16021790555062061a80600460086101000a81548163ffffffff021916908363ffffffff1602179055503480156200006057600080fd5b50604051620057e4380380620057e4833981810160405281019062000086919062000341565b8082600073ffffffffffffffffffffffffffffffffffffffff168173ffffffffffffffffffffffffffffffffffffffff1603620000fd5760006040517fd7f73334000000000000000000000000000000000000000000000000000000008152600401620000f4919062000399565b60405180910390fd5b8073ffffffffffffffffffffffffffffffffffffffff1660808173ffffffffffffffffffffffffffffffffffffffff1681525050506200014381620001bc60201b60201c565b506200016462000158620001ff60201b60201c565b6200020760201b60201c565b62000174620002cd60201b60201c565b600a60006101000a81548173ffffffffffffffffffffffffffffffffffffffff021916908373ffffffffffffffffffffffffffffffffffffffff1602179055505050620003b6565b806000806101000a81548173ffffffffffffffffffffffffffffffffffffffff021916908373ffffffffffffffffffffffffffffffffffffffff16021790555050565b600033905090565b6000600260009054906101000a900473ffffffffffffffffffffffffffffffffffffffff16905081600260006101000a81548173ffffffffffffffffffffffffffffffffffffffff021916908373ffffffffffffffffffffffffffffffffffffffff1602179055508173ffffffffffffffffffffffffffffffffffffffff168173ffffffffffffffffffffffffffffffffffffffff167f8be0079c531659141344cd1fd0a4f28419497f9722a3daafe3b4186f6b6457e060405160405180910390a35050565b6000608051905090565b600080fd5b600073ffffffffffffffffffffffffffffffffffffffff82169050919050565b60006200030982620002dc565b9050919050565b6200031b81620002fc565b81146200032757600080fd5b50565b6000815190506200033b8162000310565b92915050565b600080604083850312156200035b576200035a620002d7565b5b60006200036b858286016200032a565b92505060206200037e858286016200032a565b9150509250929050565b6200039381620002fc565b82525050565b6000602082019050620003b0600083018462000388565b92915050565b60805161540b620003d9600039600081816109040152610ee5015261540b6000f3fe60806040526004361061011f5760003560e01c80638da5cb5b116100a0578063d4b3917511610064578063d4b391751461037b578063dd3fac7c146103b8578063dff0ee41146103e1578063eee6e5731461040c578063f2fde38b146104355761011f565b80638da5cb5b146102a857806392154a3d146102d3578063b0f479a1146102fc578063b3285e3214610327578063d328a91e146103505761011f565b8063715018a6116100e7578063715018a6146101f857806385572ffb1461020f5780638b8ff358146102385780638cd176d5146102635780638d6dc0eb1461028c5761011f565b806301ffc9a7146101245780630ca761751461016157806314b1dd1b1461018a57806334303bcd146101b35780635821feae146101dc575b600080fd5b34801561013057600080fd5b5061014b60048036038101906101469190612dc1565b61045e565b6040516101589190612e09565b60405180910390f35b34801561016d57600080fd5b5061018860048036038101906101839190612fa0565b610530565b005b34801561019657600080fd5b506101b160048036038101906101ac919061306b565b61063d565b005b3480156101bf57600080fd5b506101da60048036038101906101d591906130d4565b610671565b005b6101f660048036038101906101f19190613380565b61069d565b005b34801561020457600080fd5b5061020d6108ee565b005b34801561021b57600080fd5b50610236600480360381019061023191906133ed565b610902565b005b34801561024457600080fd5b5061024d6109a7565b60405161025a9190613445565b60405180910390f35b34801561026f57600080fd5b5061028a60048036038101906102859190613510565b6109ac565b005b6102a660048036038101906102a19190613559565b610aa9565b005b3480156102b457600080fd5b506102bd610e45565b6040516102ca919061362d565b60405180910390f35b3480156102df57600080fd5b506102fa60048036038101906102f59190613648565b610e6f565b005b34801561030857600080fd5b50610311610ee1565b60405161031e919061362d565b60405180910390f35b34801561033357600080fd5b5061034e60048036038101906103499190613688565b610f09565b005b34801561035c57600080fd5b50610365610f24565b6040516103729190613750565b60405180910390f35b34801561038757600080fd5b506103a2600480360381019061039d9190613996565b610fbf565b6040516103af9190613a40565b60405180910390f35b3480156103c457600080fd5b506103df60048036038101906103da9190613a5b565b611074565b005b3480156103ed57600080fd5b506103f6611194565b6040516104039190613445565b60405180910390f35b34801561041857600080fd5b50610433600480360381019061042e9190613af0565b611199565b005b34801561044157600080fd5b5061045c60048036038101906104579190613b8f565b611684565b005b60007f85572ffb000000000000000000000000000000000000000000000000000000007bffffffffffffffffffffffffffffffffffffffffffffffffffffffff1916827bffffffffffffffffffffffffffffffffffffffffffffffffffffffff1916148061052957507f01ffc9a7000000000000000000000000000000000000000000000000000000007bffffffffffffffffffffffffffffffffffffffffffffffffffffffff1916827bffffffffffffffffffffffffffffffffffffffffffffffffffffffff1916145b9050919050565b826001600082815260200190815260200160002060009054906101000a900473ffffffffffffffffffffffffffffffffffffffff1673ffffffffffffffffffffffffffffffffffffffff163373ffffffffffffffffffffffffffffffffffffffff16146105c9576040517fa0c5ec6300000000000000000000000000000000000000000000000000000000815260040160405180910390fd5b6001600082815260200190815260200160002060006101000a81549073ffffffffffffffffffffffffffffffffffffffff0219169055807f85e1543bf2f84fe80c6badbce3648c8539ad1df4d2b3d822938ca0538be727e660405160405180910390a2610637848484611707565b50505050565b6106456119db565b80600460006101000a81548167ffffffffffffffff021916908367ffffffffffffffff16021790555050565b6106796119db565b80600460086101000a81548163ffffffff021916908363ffffffff16021790555050565b6000600660008360800151815260200190815260200160002060030154036106fa576040517f08c379a00000000000000000000000000000000000000000000000000000000081526004016106f190613c19565b60405180910390fd5b6006600082608001518152602001908152602001600020600101543414610756576040517f08c379a000000000000000000000000000000000000000000000000000000000815260040161074d90613c85565b60405180910390fd5b6040518060a0016040528082600001518152602001826060015181526020018260200151815260200182608001518152602001610791611a59565b73ffffffffffffffffffffffffffffffffffffffff1681525060076000836040015173ffffffffffffffffffffffffffffffffffffffff1673ffffffffffffffffffffffffffffffffffffffff16815260200190815260200160002060008201518160000190816108029190613ebc565b5060208201518160010190816108189190613ebc565b50604082015181600201908161082e9190613ebc565b506060820151816003015560808201518160040160006101000a81548173ffffffffffffffffffffffffffffffffffffffff021916908373ffffffffffffffffffffffffffffffffffffffff1602179055509050507fea35bbd4aeddb611341e5394e07bd5ac7513bd56730a40e7e3e3eb761e155c05816040015182600001518360200151846060015185608001516108c5611a59565b8760a001518860c001516040516108e3989796959493929190613fc7565b60405180910390a150565b6108f66119db565b6109006000611a61565b565b7f000000000000000000000000000000000000000000000000000000000000000073ffffffffffffffffffffffffffffffffffffffff163373ffffffffffffffffffffffffffffffffffffffff161461099257336040517fd7f73334000000000000000000000000000000000000000000000000000000008152600401610989919061362d565b60405180910390fd5b6109a48161099f9061425b565b611b27565b50565b601481565b6109b46119db565b600560008154809291906109c79061429d565b9190505550604051806080016040528082600001518152602001826020015181526020018260400151815260200182606001518152506006600060055481526020019081526020016000206000820151816000019081610a279190613ebc565b50602082015181600101556040820151816002019081610a479190613ebc565b50606082015181600301559050507f33c5bd102a4d38690a8d7d236985d20c88e66b73bca9de5ae6cc29376d2206fd6005548260000151836020015184604001518560600151604051610a9e9594939291906142e5565b60405180910390a150565b600073ffffffffffffffffffffffffffffffffffffffff16600960008867ffffffffffffffff1667ffffffffffffffff16815260200190815260200160002060009054906101000a900473ffffffffffffffffffffffffffffffffffffffff1673ffffffffffffffffffffffffffffffffffffffff1603610b5f576040517f08c379a0000000000000000000000000000000000000000000000000000000008152600401610b5690614392565b60405180910390fd5b60006040518060a00160405280600960008a67ffffffffffffffff1667ffffffffffffffff16815260200190815260200160002060009054906101000a900473ffffffffffffffffffffffffffffffffffffffff16604051602001610bc4919061362d565b60405160208183030381529060405281526020018787878787604051602001610bf19594939291906143b2565b6040516020818303038152906040528152602001600067ffffffffffffffff811115610c2057610c1f612e75565b5b604051908082528060200260200182016040528015610c5957816020015b610c46612c80565b815260200190600190039081610c3e5790505b508152602001600073ffffffffffffffffffffffffffffffffffffffff168152602001610c9f604051806040016040528062061a80815260200160001515815250611bd8565b81525090506000600a60009054906101000a900473ffffffffffffffffffffffffffffffffffffffff1673ffffffffffffffffffffffffffffffffffffffff166320487ded67ccf0a31a221f3c9b846040518363ffffffff1660e01b8152600401610d0b9291906145f3565b602060405180830381865afa158015610d28573d6000803e3d6000fd5b505050506040513d601f19601f82011682018060405250810190610d4c9190614638565b905080341015610d91576040517f08c379a0000000000000000000000000000000000000000000000000000000008152600401610d88906146b1565b60405180910390fd5b600a60009054906101000a900473ffffffffffffffffffffffffffffffffffffffff1673ffffffffffffffffffffffffffffffffffffffff166396f4e9f98267ccf0a31a221f3c9b856040518463ffffffff1660e01b8152600401610df79291906145f3565b60206040518083038185885af1158015610e15573d6000803e3d6000fd5b50505050506040513d601f19601f82011682018060405250810190610e3a91906146e6565b505050505050505050565b6000600260009054906101000a900473ffffffffffffffffffffffffffffffffffffffff16905090565b610e776119db565b80600960008467ffffffffffffffff1667ffffffffffffffff16815260200190815260200160002060006101000a81548173ffffffffffffffffffffffffffffffffffffffff021916908373ffffffffffffffffffffffffffffffffffffffff1602179055505050565b60007f0000000000000000000000000000000000000000000000000000000000000000905090565b610f116119db565b8060039081610f209190613ebc565b5050565b606060008054906101000a900473ffffffffffffffffffffffffffffffffffffffff1673ffffffffffffffffffffffffffffffffffffffff1663d328a91e6040518163ffffffff1660e01b8152600401600060405180830381865afa158015610f91573d6000803e3d6000fd5b505050506040513d6000823e3d601f19601f82011682018060405250810190610fba9190614783565b905090565b60008060009054906101000a900473ffffffffffffffffffffffffffffffffffffffff1673ffffffffffffffffffffffffffffffffffffffff1663d227d2458561100888611c57565b86866040518563ffffffff1660e01b815260040161102994939291906147db565b602060405180830381865afa158015611046573d6000803e3d6000fd5b505050506040513d601f19601f8201168201806040525081019061106a9190614853565b9050949350505050565b600061107e611a59565b90506000600760008473ffffffffffffffffffffffffffffffffffffffff1673ffffffffffffffffffffffffffffffffffffffff16815260200190815260200160002090508173ffffffffffffffffffffffffffffffffffffffff168160040160009054906101000a900473ffffffffffffffffffffffffffffffffffffffff1673ffffffffffffffffffffffffffffffffffffffff1614611155576040517f08c379a000000000000000000000000000000000000000000000000000000000815260040161114c906148cc565b60405180910390fd5b7fd7219b2d0e6067644335c8f4f82ee77c59a90a22e2916f1dce8683af8e8b07fa83856040516111869291906148ec565b60405180910390a150505050565b600581565b6014835111156111de576040517f08c379a00000000000000000000000000000000000000000000000000000000081526004016111d590614968565b60405180910390fd5b60006111e8611a59565b9050600073ffffffffffffffffffffffffffffffffffffffff16600760008373ffffffffffffffffffffffffffffffffffffffff1673ffffffffffffffffffffffffffffffffffffffff16815260200190815260200160002060040160009054906101000a900473ffffffffffffffffffffffffffffffffffffffff1673ffffffffffffffffffffffffffffffffffffffff16036112bb576040517f08c379a00000000000000000000000000000000000000000000000000000000081526004016112b2906149d4565b60405180910390fd5b6000600567ffffffffffffffff8111156112d8576112d7612e75565b5b60405190808252806020026020018201604052801561130b57816020015b60608152602001906001900390816112f65790505b50905073__StringJoiner__________________________635c8656e0866040518263ffffffff1660e01b81526004016113459190614b5d565b600060405180830381865af4158015611362573d6000803e3d6000fd5b505050506040513d6000823e3d601f19601f8201168201806040525081019061138b9190614c02565b8160008151811061139f5761139e614c4b565b5b602002602001018190525083816001815181106113bf576113be614c4b565b5b60200260200101819052506113d382611f57565b816002815181106113e7576113e6614c4b565b5b60200260200101819052506113fb86611f57565b8160038151811061140f5761140e614c4b565b5b60200260200101819052506114268360ff16611f84565b8160048151811061143a57611439614c4b565b5b60200260200101819052506000604051806020016040528060008152509050611461612cb0565b6115036000806003805461147490613cdf565b80601f01602080910402602001604051908101604052809291908181526020018280546114a090613cdf565b80156114ed5780601f106114c2576101008083540402835291602001916114ed565b820191906000526020600020905b8154815290600101906020018083116114d057829003601f168201915b505050505084612052909392919063ffffffff16565b6000825111156115215761152082826120fc90919063ffffffff16565b5b611534838261217590919063ffffffff16565b600061156982600460009054906101000a900467ffffffffffffffff16600460089054906101000a900463ffffffff166121bd565b905060405180606001604052808673ffffffffffffffffffffffffffffffffffffffff1681526020018a73ffffffffffffffffffffffffffffffffffffffff168152602001600015158152506008600083815260200190815260200160002060008201518160000160006101000a81548173ffffffffffffffffffffffffffffffffffffffff021916908373ffffffffffffffffffffffffffffffffffffffff16021790555060208201518160010160006101000a81548173ffffffffffffffffffffffffffffffffffffffff021916908373ffffffffffffffffffffffffffffffffffffffff16021790555060408201518160010160146101000a81548160ff021916908315150217905550905050505050505050505050565b61168c6119db565b600073ffffffffffffffffffffffffffffffffffffffff168173ffffffffffffffffffffffffffffffffffffffff16036116fb576040517f08c379a00000000000000000000000000000000000000000000000000000000081526004016116f290614cec565b60405180910390fd5b61170481611a61565b50565b60008280602001905181019061171d9190614c02565b905060006008600086815260200190815260200160002090508060010160149054906101000a900460ff1615611788576040517f08c379a000000000000000000000000000000000000000000000000000000000815260040161177f90614d58565b60405180910390fd5b6117c7826040518060400160405280600481526020017f4e554c4c00000000000000000000000000000000000000000000000000000000815250612382565b15611807576040517f08c379a00000000000000000000000000000000000000000000000000000000081526004016117fe90614dc4565b60405180910390fd5b60018160010160146101000a81548160ff021916908315150217905550600073ffffffffffffffffffffffffffffffffffffffff16600760008360000160009054906101000a900473ffffffffffffffffffffffffffffffffffffffff1673ffffffffffffffffffffffffffffffffffffffff1673ffffffffffffffffffffffffffffffffffffffff16815260200190815260200160002060040160009054906101000a900473ffffffffffffffffffffffffffffffffffffffff1673ffffffffffffffffffffffffffffffffffffffff1603611919576040517f08c379a0000000000000000000000000000000000000000000000000000000008152600401611910906149d4565b60405180910390fd5b60008160000160009054906101000a900473ffffffffffffffffffffffffffffffffffffffff1690508073ffffffffffffffffffffffffffffffffffffffff16638f9c39568360010160009054906101000a900473ffffffffffffffffffffffffffffffffffffffff16856040518363ffffffff1660e01b81526004016119a19291906148ec565b600060405180830381600087803b1580156119bb57600080fd5b505af11580156119cf573d6000803e3d6000fd5b50505050505050505050565b6119e3611a59565b73ffffffffffffffffffffffffffffffffffffffff16611a01610e45565b73ffffffffffffffffffffffffffffffffffffffff1614611a57576040517f08c379a0000000000000000000000000000000000000000000000000000000008152600401611a4e90614e30565b60405180910390fd5b565b600033905090565b6000600260009054906101000a900473ffffffffffffffffffffffffffffffffffffffff16905081600260006101000a81548173ffffffffffffffffffffffffffffffffffffffff021916908373ffffffffffffffffffffffffffffffffffffffff1602179055508173ffffffffffffffffffffffffffffffffffffffff168173ffffffffffffffffffffffffffffffffffffffff167f8be0079c531659141344cd1fd0a4f28419497f9722a3daafe3b4186f6b6457e060405160405180910390a35050565b60008060008060008560600151806020019051810190611b479190614e8e565b9450945094509450945060008590508073ffffffffffffffffffffffffffffffffffffffff16636d4195fb886020015188888888886040518763ffffffff1660e01b8152600401611b9d96959493929190614f41565b600060405180830381600087803b158015611bb757600080fd5b505af1158015611bcb573d6000803e3d6000fd5b5050505050505050505050565b60606397a657c960e01b82604051602401611bf39190614fee565b604051602081830303815290604052907bffffffffffffffffffffffffffffffffffffffffffffffffffffffff19166020820180517bffffffffffffffffffffffffffffffffffffffffffffffffffffffff83818316178352505050509050919050565b6060611c61612d1b565b611c71816000015161010061239d565b50611cb1816040518060400160405280600c81526020017f636f64654c6f636174696f6e0000000000000000000000000000000000000000815250612416565b611cd18184600001516002811115611ccc57611ccb615009565b5b61243f565b611d10816040518060400160405280600881526020017f6c616e6775616765000000000000000000000000000000000000000000000000815250612416565b611d308184604001516000811115611d2b57611d2a615009565b5b61243f565b611d6f816040518060400160405280600681526020017f736f757263650000000000000000000000000000000000000000000000000000815250612416565b611d7d818460600151612416565b60008360a00151511115611e2957611dca816040518060400160405280600481526020017f6172677300000000000000000000000000000000000000000000000000000000815250612416565b611dd38161248f565b60005b8360a0015151811015611e1e57611e0b828560a001518381518110611dfe57611dfd614c4b565b5b6020026020010151612416565b8080611e169061429d565b915050611dd6565b50611e28816124b7565b5b60008360800151511115611f465760006002811115611e4b57611e4a615009565b5b83602001516002811115611e6257611e61615009565b5b03611e99576040517fa80d31f700000000000000000000000000000000000000000000000000000000815260040160405180910390fd5b611ed8816040518060400160405280600f81526020017f736563726574734c6f636174696f6e0000000000000000000000000000000000815250612416565b611ef88184602001516002811115611ef357611ef2615009565b5b61243f565b611f37816040518060400160405280600781526020017f7365637265747300000000000000000000000000000000000000000000000000815250612416565b611f458184608001516124df565b5b806000015160000151915050919050565b6060611f7d8273ffffffffffffffffffffffffffffffffffffffff16601460ff16612508565b9050919050565b606060006001611f9384612744565b01905060008167ffffffffffffffff811115611fb257611fb1612e75565b5b6040519080825280601f01601f191660200182016040528015611fe45781602001600182028036833780820191505090505b509050600082602001820190505b600115612047578080600190039150507f3031323334353637383961626364656600000000000000000000000000000000600a86061a8153600a858161203b5761203a615038565b5b04945060008503611ff2575b819350505050919050565b600081510361208d576040517f22ce3edd00000000000000000000000000000000000000000000000000000000815260040160405180910390fd5b82846000019060028111156120a5576120a4615009565b5b908160028111156120b9576120b8615009565b5b8152505081846040019060008111156120d5576120d4615009565b5b908160008111156120e9576120e8615009565b5b8152505080846060018190525050505050565b6000815103612137576040517fe889636f00000000000000000000000000000000000000000000000000000000815260040160405180910390fd5b6001826020019060028111156121505761214f615009565b5b9081600281111561216457612163615009565b5b815250508082608001819052505050565b60008151036121b0576040517ffe936cb700000000000000000000000000000000000000000000000000000000815260040160405180910390fd5b808260a001819052505050565b60008060008054906101000a900473ffffffffffffffffffffffffffffffffffffffff1673ffffffffffffffffffffffffffffffffffffffff166328242b048561220688611c57565b866040518463ffffffff1660e01b815260040161222593929190615067565b6020604051808303816000875af1158015612244573d6000803e3d6000fd5b505050506040513d601f19601f8201168201806040525081019061226891906146e6565b905060008054906101000a900473ffffffffffffffffffffffffffffffffffffffff1673ffffffffffffffffffffffffffffffffffffffff16635ab1bd536040518163ffffffff1660e01b8152600401602060405180830381865afa1580156122d5573d6000803e3d6000fd5b505050506040513d601f19601f820116820180604052508101906122f991906150ba565b6001600083815260200190815260200160002060006101000a81548173ffffffffffffffffffffffffffffffffffffffff021916908373ffffffffffffffffffffffffffffffffffffffff160217905550807f1131472297a800fee664d1d89cfa8f7676ff07189ecc53f80bbb5f4969099db860405160405180910390a2809150509392505050565b60008180519060200120838051906020012014905092915050565b6123a5612d3b565b60006020836123b491906150e7565b146123e0576020826123c691906150e7565b60206123d29190615118565b826123dd919061514c565b91505b81836020018181525050604051808452600081528281016020018181101561240757600080fd5b80604052505082905092915050565b6124238260038351612897565b61243a818360000151612a4090919063ffffffff16565b505050565b61246160026005600660ff16901b178360000151612a5c90919063ffffffff16565b5061248b82826040516020016124779190613445565b6040516020818303038152906040526124df565b5050565b61249a816004612ac6565b6001816020018181516124ad919061514c565b9150818152505050565b6124c2816007612ac6565b6001816020018181516124d59190615118565b9150818152505050565b6124ec8260028351612897565b612503818360000151612a4090919063ffffffff16565b505050565b60606000600283600261251b9190615180565b612525919061514c565b67ffffffffffffffff81111561253e5761253d612e75565b5b6040519080825280601f01601f1916602001820160405280156125705781602001600182028036833780820191505090505b5090507f3000000000000000000000000000000000000000000000000000000000000000816000815181106125a8576125a7614c4b565b5b60200101907effffffffffffffffffffffffffffffffffffffffffffffffffffffffffffff1916908160001a9053507f78000000000000000000000000000000000000000000000000000000000000008160018151811061260c5761260b614c4b565b5b60200101907effffffffffffffffffffffffffffffffffffffffffffffffffffffffffffff1916908160001a9053506000600184600261264c9190615180565b612656919061514c565b90505b60018111156126f6577f3031323334353637383961626364656600000000000000000000000000000000600f86166010811061269857612697614c4b565b5b1a60f81b8282815181106126af576126ae614c4b565b5b60200101907effffffffffffffffffffffffffffffffffffffffffffffffffffffffffffff1916908160001a905350600485901c9450806126ef906151c2565b9050612659565b506000841461273a576040517f08c379a000000000000000000000000000000000000000000000000000000000815260040161273190615237565b60405180910390fd5b8091505092915050565b600080600090507a184f03e93ff9f4daa797ed6e38ed64bf6a1f01000000000000000083106127a2577a184f03e93ff9f4daa797ed6e38ed64bf6a1f010000000000000000838161279857612797615038565b5b0492506040810190505b6d04ee2d6d415b85acef810000000083106127df576d04ee2d6d415b85acef810000000083816127d5576127d4615038565b5b0492506020810190505b662386f26fc10000831061280e57662386f26fc10000838161280457612803615038565b5b0492506010810190505b6305f5e1008310612837576305f5e100838161282d5761282c615038565b5b0492506008810190505b612710831061285c57612710838161285257612851615038565b5b0492506004810190505b6064831061287f576064838161287557612874615038565b5b0492506002810190505b600a831061288e576001810190505b80915050919050565b60178167ffffffffffffffff16116128d2576128cc8160058460ff16901b60ff16178460000151612a5c90919063ffffffff16565b50612a3b565b60ff8167ffffffffffffffff161161293057612905601860058460ff16901b178460000151612a5c90919063ffffffff16565b5061292a8167ffffffffffffffff1660018560000151612aec9092919063ffffffff16565b50612a3a565b61ffff8167ffffffffffffffff161161298f57612964601960058460ff16901b178460000151612a5c90919063ffffffff16565b506129898167ffffffffffffffff1660028560000151612aec9092919063ffffffff16565b50612a39565b63ffffffff8167ffffffffffffffff16116129f0576129c5601a60058460ff16901b178460000151612a5c90919063ffffffff16565b506129ea8167ffffffffffffffff1660048560000151612aec9092919063ffffffff16565b50612a38565b612a11601b60058460ff16901b178460000151612a5c90919063ffffffff16565b50612a368167ffffffffffffffff1660088560000151612aec9092919063ffffffff16565b505b5b5b5b505050565b612a48612d3b565b612a5483838451612b79565b905092915050565b612a64612d3b565b600083600001515190506000600182612a7d919061514c565b905084602001518210612aa157612aa085600283612a9b9190615180565b612c5c565b5b84516020838201018581538151831115612ab9578282525b5050849250505092915050565b612ae7601f60058360ff16901b178360000151612a5c90919063ffffffff16565b505050565b612af4612d3b565b6000846000015151905060008184612b0c919061514c565b90508560200151811115612b3157612b3086600283612b2b9190615180565b612c5c565b5b6000600185610100612b43919061538a565b612b4d9190615118565b905086518281018783198251161781528151841115612b6a578382525b50508693505050509392505050565b612b81612d3b565b8251821115612b8f57600080fd5b6000846000015151905060008382612ba7919061514c565b90508560200151811115612bcc57612bcb86600283612bc69190615180565b612c5c565b5b60008087518051856020830101935080851115612be7578482525b60208901925050505b60208610612c2e5780518252602082612c09919061514c565b9150602081612c18919061514c565b9050602086612c279190615118565b9550612bf0565b60006001876020036101000a0390508019825116818451168181178552505050879450505050509392505050565b600082600001519050612c6f838361239d565b50612c7a8382612a40565b50505050565b6040518060400160405280600073ffffffffffffffffffffffffffffffffffffffff168152602001600081525090565b6040518060c0016040528060006002811115612ccf57612cce615009565b5b815260200160006002811115612ce857612ce7615009565b5b8152602001600080811115612d0057612cff615009565b5b81526020016060815260200160608152602001606081525090565b6040518060400160405280612d2e612d3b565b8152602001600081525090565b604051806040016040528060608152602001600081525090565b6000604051905090565b600080fd5b600080fd5b60007fffffffff0000000000000000000000000000000000000000000000000000000082169050919050565b612d9e81612d69565b8114612da957600080fd5b50565b600081359050612dbb81612d95565b92915050565b600060208284031215612dd757612dd6612d5f565b5b6000612de584828501612dac565b91505092915050565b60008115159050919050565b612e0381612dee565b82525050565b6000602082019050612e1e6000830184612dfa565b92915050565b6000819050919050565b612e3781612e24565b8114612e4257600080fd5b50565b600081359050612e5481612e2e565b92915050565b600080fd5b600080fd5b6000601f19601f8301169050919050565b7f4e487b7100000000000000000000000000000000000000000000000000000000600052604160045260246000fd5b612ead82612e64565b810181811067ffffffffffffffff82111715612ecc57612ecb612e75565b5b80604052505050565b6000612edf612d55565b9050612eeb8282612ea4565b919050565b600067ffffffffffffffff821115612f0b57612f0a612e75565b5b612f1482612e64565b9050602081019050919050565b82818337600083830152505050565b6000612f43612f3e84612ef0565b612ed5565b905082815260208101848484011115612f5f57612f5e612e5f565b5b612f6a848285612f21565b509392505050565b600082601f830112612f8757612f86612e5a565b5b8135612f97848260208601612f30565b91505092915050565b600080600060608486031215612fb957612fb8612d5f565b5b6000612fc786828701612e45565b935050602084013567ffffffffffffffff811115612fe857612fe7612d64565b5b612ff486828701612f72565b925050604084013567ffffffffffffffff81111561301557613014612d64565b5b61302186828701612f72565b9150509250925092565b600067ffffffffffffffff82169050919050565b6130488161302b565b811461305357600080fd5b50565b6000813590506130658161303f565b92915050565b60006020828403121561308157613080612d5f565b5b600061308f84828501613056565b91505092915050565b600063ffffffff82169050919050565b6130b181613098565b81146130bc57600080fd5b50565b6000813590506130ce816130a8565b92915050565b6000602082840312156130ea576130e9612d5f565b5b60006130f8848285016130bf565b91505092915050565b600080fd5b600080fd5b600067ffffffffffffffff82111561312657613125612e75565b5b61312f82612e64565b9050602081019050919050565b600061314f61314a8461310b565b612ed5565b90508281526020810184848401111561316b5761316a612e5f565b5b613176848285612f21565b509392505050565b600082601f83011261319357613192612e5a565b5b81356131a384826020860161313c565b91505092915050565b600073ffffffffffffffffffffffffffffffffffffffff82169050919050565b60006131d7826131ac565b9050919050565b6131e7816131cc565b81146131f257600080fd5b50565b600081359050613204816131de565b92915050565b6000819050919050565b61321d8161320a565b811461322857600080fd5b50565b60008135905061323a81613214565b92915050565b600060e0828403121561325657613255613101565b5b61326060e0612ed5565b9050600082013567ffffffffffffffff8111156132805761327f613106565b5b61328c8482850161317e565b600083015250602082013567ffffffffffffffff8111156132b0576132af613106565b5b6132bc8482850161317e565b60208301525060406132d0848285016131f5565b604083015250606082013567ffffffffffffffff8111156132f4576132f3613106565b5b6133008482850161317e565b60608301525060806133148482850161322b565b60808301525060a082013567ffffffffffffffff81111561333857613337613106565b5b6133448482850161317e565b60a08301525060c082013567ffffffffffffffff81111561336857613367613106565b5b6133748482850161317e565b60c08301525092915050565b60006020828403121561339657613395612d5f565b5b600082013567ffffffffffffffff8111156133b4576133b3612d64565b5b6133c084828501613240565b91505092915050565b600080fd5b600060a082840312156133e4576133e36133c9565b5b81905092915050565b60006020828403121561340357613402612d5f565b5b600082013567ffffffffffffffff81111561342157613420612d64565b5b61342d848285016133ce565b91505092915050565b61343f8161320a565b82525050565b600060208201905061345a6000830184613436565b92915050565b60006080828403121561347657613475613101565b5b6134806080612ed5565b9050600082013567ffffffffffffffff8111156134a05761349f613106565b5b6134ac8482850161317e565b60008301525060206134c08482850161322b565b602083015250604082013567ffffffffffffffff8111156134e4576134e3613106565b5b6134f08482850161317e565b60408301525060606135048482850161322b565b60608301525092915050565b60006020828403121561352657613525612d5f565b5b600082013567ffffffffffffffff81111561354457613543612d64565b5b61355084828501613460565b91505092915050565b60008060008060008060c0878903121561357657613575612d5f565b5b600061358489828a01613056565b965050602061359589828a016131f5565b95505060406135a689828a016131f5565b94505060606135b789828a0161322b565b935050608087013567ffffffffffffffff8111156135d8576135d7612d64565b5b6135e489828a0161317e565b92505060a087013567ffffffffffffffff81111561360557613604612d64565b5b61361189828a01612f72565b9150509295509295509295565b613627816131cc565b82525050565b6000602082019050613642600083018461361e565b92915050565b6000806040838503121561365f5761365e612d5f565b5b600061366d85828601613056565b925050602061367e858286016131f5565b9150509250929050565b60006020828403121561369e5761369d612d5f565b5b600082013567ffffffffffffffff8111156136bc576136bb612d64565b5b6136c88482850161317e565b91505092915050565b600081519050919050565b600082825260208201905092915050565b60005b8381101561370b5780820151818401526020810190506136f0565b60008484015250505050565b6000613722826136d1565b61372c81856136dc565b935061373c8185602086016136ed565b61374581612e64565b840191505092915050565b6000602082019050818103600083015261376a8184613717565b905092915050565b6003811061377f57600080fd5b50565b60008135905061379181613772565b92915050565b600181106137a457600080fd5b50565b6000813590506137b681613797565b92915050565b600067ffffffffffffffff8211156137d7576137d6612e75565b5b602082029050602081019050919050565b600080fd5b60006138006137fb846137bc565b612ed5565b90508083825260208201905060208402830185811115613823576138226137e8565b5b835b8181101561386a57803567ffffffffffffffff81111561384857613847612e5a565b5b808601613855898261317e565b85526020850194505050602081019050613825565b5050509392505050565b600082601f83011261388957613888612e5a565b5b81356138998482602086016137ed565b91505092915050565b600060c082840312156138b8576138b7613101565b5b6138c260c0612ed5565b905060006138d284828501613782565b60008301525060206138e684828501613782565b60208301525060406138fa848285016137a7565b604083015250606082013567ffffffffffffffff81111561391e5761391d613106565b5b61392a8482850161317e565b606083015250608082013567ffffffffffffffff81111561394e5761394d613106565b5b61395a84828501612f72565b60808301525060a082013567ffffffffffffffff81111561397e5761397d613106565b5b61398a84828501613874565b60a08301525092915050565b600080600080608085870312156139b0576139af612d5f565b5b600085013567ffffffffffffffff8111156139ce576139cd612d64565b5b6139da878288016138a2565b94505060206139eb87828801613056565b93505060406139fc878288016130bf565b9250506060613a0d8782880161322b565b91505092959194509250565b60006bffffffffffffffffffffffff82169050919050565b613a3a81613a19565b82525050565b6000602082019050613a556000830184613a31565b92915050565b60008060408385031215613a7257613a71612d5f565b5b600083013567ffffffffffffffff811115613a9057613a8f612d64565b5b613a9c8582860161317e565b9250506020613aad858286016131f5565b9150509250929050565b600060ff82169050919050565b613acd81613ab7565b8114613ad857600080fd5b50565b600081359050613aea81613ac4565b92915050565b60008060008060808587031215613b0a57613b09612d5f565b5b6000613b18878288016131f5565b945050602085013567ffffffffffffffff811115613b3957613b38612d64565b5b613b4587828801613874565b935050604085013567ffffffffffffffff811115613b6657613b65612d64565b5b613b728782880161317e565b9250506060613b8387828801613adb565b91505092959194509250565b600060208284031215613ba557613ba4612d5f565b5b6000613bb3848285016131f5565b91505092915050565b600082825260208201905092915050565b7f496e76616c696420706c616e0000000000000000000000000000000000000000600082015250565b6000613c03600c83613bbc565b9150613c0e82613bcd565b602082019050919050565b60006020820190508181036000830152613c3281613bf6565b9050919050565b7f496e73756666696369656e742066756e64730000000000000000000000000000600082015250565b6000613c6f601283613bbc565b9150613c7a82613c39565b602082019050919050565b60006020820190508181036000830152613c9e81613c62565b9050919050565b600081519050919050565b7f4e487b7100000000000000000000000000000000000000000000000000000000600052602260045260246000fd5b60006002820490506001821680613cf757607f821691505b602082108103613d0a57613d09613cb0565b5b50919050565b60008190508160005260206000209050919050565b60006020601f8301049050919050565b600082821b905092915050565b600060088302613d727fffffffffffffffffffffffffffffffffffffffffffffffffffffffffffffffff82613d35565b613d7c8683613d35565b95508019841693508086168417925050509392505050565b6000819050919050565b6000613db9613db4613daf8461320a565b613d94565b61320a565b9050919050565b6000819050919050565b613dd383613d9e565b613de7613ddf82613dc0565b848454613d42565b825550505050565b600090565b613dfc613def565b613e07818484613dca565b505050565b5b81811015613e2b57613e20600082613df4565b600181019050613e0d565b5050565b601f821115613e7057613e4181613d10565b613e4a84613d25565b81016020851015613e59578190505b613e6d613e6585613d25565b830182613e0c565b50505b505050565b600082821c905092915050565b6000613e9360001984600802613e75565b1980831691505092915050565b6000613eac8383613e82565b9150826002028217905092915050565b613ec582613ca5565b67ffffffffffffffff811115613ede57613edd612e75565b5b613ee88254613cdf565b613ef3828285613e2f565b600060209050601f831160018114613f265760008415613f14578287015190505b613f1e8582613ea0565b865550613f86565b601f198416613f3486613d10565b60005b82811015613f5c57848901518255600182019150602085019450602081019050613f37565b86831015613f795784890151613f75601f891682613e82565b8355505b6001600288020188555050505b505050505050565b6000613f9982613ca5565b613fa38185613bbc565b9350613fb38185602086016136ed565b613fbc81612e64565b840191505092915050565b600061010082019050613fdd600083018b61361e565b8181036020830152613fef818a613f8e565b905081810360408301526140038189613f8e565b905081810360608301526140178188613f8e565b90506140266080830187613436565b61403360a083018661361e565b81810360c08301526140458185613f8e565b905081810360e08301526140598184613f8e565b90509998505050505050505050565b600067ffffffffffffffff82111561408357614082612e75565b5b602082029050602081019050919050565b6000604082840312156140aa576140a9613101565b5b6140b46040612ed5565b905060006140c4848285016131f5565b60008301525060206140d88482850161322b565b60208301525092915050565b60006140f76140f284614068565b612ed5565b9050808382526020820190506040840283018581111561411a576141196137e8565b5b835b81811015614143578061412f8882614094565b84526020840193505060408101905061411c565b5050509392505050565b600082601f83011261416257614161612e5a565b5b81356141728482602086016140e4565b91505092915050565b600060a0828403121561419157614190613101565b5b61419b60a0612ed5565b905060006141ab84828501612e45565b60008301525060206141bf84828501613056565b602083015250604082013567ffffffffffffffff8111156141e3576141e2613106565b5b6141ef84828501612f72565b604083015250606082013567ffffffffffffffff81111561421357614212613106565b5b61421f84828501612f72565b606083015250608082013567ffffffffffffffff81111561424357614242613106565b5b61424f8482850161414d565b60808301525092915050565b6000614267368361417b565b9050919050565b7f4e487b7100000000000000000000000000000000000000000000000000000000600052601160045260246000fd5b60006142a88261320a565b91507fffffffffffffffffffffffffffffffffffffffffffffffffffffffffffffffff82036142da576142d961426e565b5b600182019050919050565b600060a0820190506142fa6000830188613436565b818103602083015261430c8187613f8e565b905061431b6040830186613436565b818103606083015261432d8185613f8e565b905061433c6080830184613436565b9695505050505050565b7f436861696e206e6f7420737570706f7274656400000000000000000000000000600082015250565b600061437c601383613bbc565b915061438782614346565b602082019050919050565b600060208201905081810360008301526143ab8161436f565b9050919050565b600060a0820190506143c7600083018861361e565b6143d4602083018761361e565b6143e16040830186613436565b81810360608301526143f38185613f8e565b905081810360808301526144078184613717565b90509695505050505050565b61441c8161302b565b82525050565b600082825260208201905092915050565b600061443e826136d1565b6144488185614422565b93506144588185602086016136ed565b61446181612e64565b840191505092915050565b600081519050919050565b600082825260208201905092915050565b6000819050602082019050919050565b6144a1816131cc565b82525050565b6144b08161320a565b82525050565b6040820160008201516144cc6000850182614498565b5060208201516144df60208501826144a7565b50505050565b60006144f183836144b6565b60408301905092915050565b6000602082019050919050565b60006145158261446c565b61451f8185614477565b935061452a83614488565b8060005b8381101561455b57815161454288826144e5565b975061454d836144fd565b92505060018101905061452e565b5085935050505092915050565b600060a08301600083015184820360008601526145858282614433565b9150506020830151848203602086015261459f8282614433565b915050604083015184820360408601526145b9828261450a565b91505060608301516145ce6060860182614498565b50608083015184820360808601526145e68282614433565b9150508091505092915050565b60006040820190506146086000830185614413565b818103602083015261461a8184614568565b90509392505050565b60008151905061463281613214565b92915050565b60006020828403121561464e5761464d612d5f565b5b600061465c84828501614623565b91505092915050565b7f496e73756666696369656e742066656500000000000000000000000000000000600082015250565b600061469b601083613bbc565b91506146a682614665565b602082019050919050565b600060208201905081810360008301526146ca8161468e565b9050919050565b6000815190506146e081612e2e565b92915050565b6000602082840312156146fc576146fb612d5f565b5b600061470a848285016146d1565b91505092915050565b600061472661472184612ef0565b612ed5565b90508281526020810184848401111561474257614741612e5f565b5b61474d8482856136ed565b509392505050565b600082601f83011261476a57614769612e5a565b5b815161477a848260208601614713565b91505092915050565b60006020828403121561479957614798612d5f565b5b600082015167ffffffffffffffff8111156147b7576147b6612d64565b5b6147c384828501614755565b91505092915050565b6147d581613098565b82525050565b60006080820190506147f06000830187614413565b81810360208301526148028186613717565b905061481160408301856147cc565b61481e6060830184613436565b95945050505050565b61483081613a19565b811461483b57600080fd5b50565b60008151905061484d81614827565b92915050565b60006020828403121561486957614868612d5f565b5b60006148778482850161483e565b91505092915050565b7f556e417574686f72697a65640000000000000000000000000000000000000000600082015250565b60006148b6600c83613bbc565b91506148c182614880565b602082019050919050565b600060208201905081810360008301526148e5816148a9565b9050919050565b6000604082019050614901600083018561361e565b81810360208301526149138184613f8e565b90509392505050565b7f546f6f206d616e79206174747269627574657300000000000000000000000000600082015250565b6000614952601383613bbc565b915061495d8261491c565b602082019050919050565b6000602082019050818103600083015261498181614945565b9050919050565b7f47616d65204e6f7420466f756e64000000000000000000000000000000000000600082015250565b60006149be600e83613bbc565b91506149c982614988565b602082019050919050565b600060208201905081810360008301526149ed816149b1565b9050919050565b600081519050919050565b600082825260208201905092915050565b6000819050602082019050919050565b600082825260208201905092915050565b6000614a3c82613ca5565b614a468185614a20565b9350614a568185602086016136ed565b614a5f81612e64565b840191505092915050565b6000614a768383614a31565b905092915050565b6000602082019050919050565b6000614a96826149f4565b614aa081856149ff565b935083602082028501614ab285614a10565b8060005b85811015614aee5784840389528151614acf8582614a6a565b9450614ada83614a7e565b925060208a01995050600181019050614ab6565b50829750879550505050505092915050565b600082825260208201905092915050565b7f2c00000000000000000000000000000000000000000000000000000000000000600082015250565b6000614b47600183614b00565b9150614b5282614b11565b602082019050919050565b60006040820190508181036000830152614b778184614a8b565b90508181036020830152614b8a81614b3a565b905092915050565b6000614ba5614ba08461310b565b612ed5565b905082815260208101848484011115614bc157614bc0612e5f565b5b614bcc8482856136ed565b509392505050565b600082601f830112614be957614be8612e5a565b5b8151614bf9848260208601614b92565b91505092915050565b600060208284031215614c1857614c17612d5f565b5b600082015167ffffffffffffffff811115614c3657614c35612d64565b5b614c4284828501614bd4565b91505092915050565b7f4e487b7100000000000000000000000000000000000000000000000000000000600052603260045260246000fd5b7f4f776e61626c653a206e6577206f776e657220697320746865207a65726f206160008201527f6464726573730000000000000000000000000000000000000000000000000000602082015250565b6000614cd6602683613bbc565b9150614ce182614c7a565b604082019050919050565b60006020820190508181036000830152614d0581614cc9565b9050919050565b7f416c72656164792066756c66696c6c6564000000000000000000000000000000600082015250565b6000614d42601183613bbc565b9150614d4d82614d0c565b602082019050919050565b60006020820190508181036000830152614d7181614d35565b9050919050565b7f496e76616c696420555249000000000000000000000000000000000000000000600082015250565b6000614dae600b83613bbc565b9150614db982614d78565b602082019050919050565b60006020820190508181036000830152614ddd81614da1565b9050919050565b7f4f776e61626c653a2063616c6c6572206973206e6f7420746865206f776e6572600082015250565b6000614e1a602083613bbc565b9150614e2582614de4565b602082019050919050565b60006020820190508181036000830152614e4981614e0d565b9050919050565b6000614e5b826131ac565b9050919050565b614e6b81614e50565b8114614e7657600080fd5b50565b600081519050614e8881614e62565b92915050565b600080600080600060a08688031215614eaa57614ea9612d5f565b5b6000614eb888828901614e79565b9550506020614ec988828901614e79565b9450506040614eda88828901614623565b935050606086015167ffffffffffffffff811115614efb57614efa612d64565b5b614f0788828901614bd4565b925050608086015167ffffffffffffffff811115614f2857614f27612d64565b5b614f3488828901614755565b9150509295509295909350565b600060c082019050614f566000830189614413565b614f63602083018861361e565b614f70604083018761361e565b614f7d6060830186613436565b8181036080830152614f8f8185613f8e565b905081810360a0830152614fa38184613717565b9050979650505050505050565b614fb981612dee565b82525050565b604082016000820151614fd560008501826144a7565b506020820151614fe86020850182614fb0565b50505050565b60006040820190506150036000830184614fbf565b92915050565b7f4e487b7100000000000000000000000000000000000000000000000000000000600052602160045260246000fd5b7f4e487b7100000000000000000000000000000000000000000000000000000000600052601260045260246000fd5b600060608201905061507c6000830186614413565b818103602083015261508e8185613717565b905061509d60408301846147cc565b949350505050565b6000815190506150b4816131de565b92915050565b6000602082840312156150d0576150cf612d5f565b5b60006150de848285016150a5565b91505092915050565b60006150f28261320a565b91506150fd8361320a565b92508261510d5761510c615038565b5b828206905092915050565b60006151238261320a565b915061512e8361320a565b92508282039050818111156151465761514561426e565b5b92915050565b60006151578261320a565b91506151628361320a565b925082820190508082111561517a5761517961426e565b5b92915050565b600061518b8261320a565b91506151968361320a565b92508282026151a48161320a565b915082820484148315176151bb576151ba61426e565b5b5092915050565b60006151cd8261320a565b9150600082036151e0576151df61426e565b5b600182039050919050565b7f537472696e67733a20686578206c656e67746820696e73756666696369656e74600082015250565b6000615221602083613bbc565b915061522c826151eb565b602082019050919050565b6000602082019050818103600083015261525081615214565b9050919050565b60008160011c9050919050565b6000808291508390505b60018511156152ae5780860481111561528a5761528961426e565b5b60018516156152995780820291505b80810290506152a785615257565b945061526e565b94509492505050565b6000826152c75760019050615383565b816152d55760009050615383565b81600181146152eb57600281146152f557615324565b6001915050615383565b60ff8411156153075761530661426e565b5b8360020a91508482111561531e5761531d61426e565b5b50615383565b5060208310610133831016604e8410600b84101617156153595782820a9050838111156153545761535361426e565b5b615383565b6153668484846001615264565b9250905081840481111561537d5761537c61426e565b5b81810290505b9392505050565b60006153958261320a565b91506153a08361320a565b92506153cd7fffffffffffffffffffffffffffffffffffffffffffffffffffffffffffffffff84846152b7565b90509291505056fea264697066735822122036c4d6ec846eccfde5ae51630b3fe03f6eda2af1fb4f9d2ceeb53c0883e65d0d64736f6c63430008110033",
  "immutableReferences": {
    "14": [
      {
        "length": 32,
        "start": 2308
      },
      {
        "length": 32,
        "start": 3813
      }
    ]
  },
  "source": "// SPDX-License-Identifier: MIT\r\npragma solidity ^0.8.17;\r\n\r\nimport {Assets} from \"./libraries/Assets.sol\";\r\nimport {Params} from \"./libraries/Params.sol\";\r\nimport {IKanvasAvax} from \"./interfaces/IKanvasAvax.sol\";\r\nimport {IKanvasGame} from \"./interfaces/IKanvasGame.sol\";\r\nimport {IKanvasInteropGame} from \"./interfaces/IKanvasInteropGame.sol\";\r\nimport {StringJoiner} from \"./libraries/StringJoiner.sol\";\r\n\r\nimport {Strings} from \"@openzeppelin/contracts/utils/Strings.sol\";\r\nimport {Ownable} from \"@openzeppelin/contracts/access/Ownable.sol\";\r\nimport {Context} from \"@openzeppelin/contracts/utils/Context.sol\";\r\n\r\nimport {Functions} from \"@chainlink/contracts/src/v0.8/functions/dev/v0_0_0/Functions.sol\";\r\nimport {FunctionsClient} from \"@chainlink/contracts/src/v0.8/functions/dev/v0_0_0/FunctionsClient.sol\";\r\n\r\nimport {Client} from \"@chainlink/contracts-ccip/src/v0.8/ccip/libraries/Client.sol\";\r\nimport {CCIPReceiver} from \"@chainlink/contracts-ccip/src/v0.8/ccip/applications/CCIPReceiver.sol\";\r\nimport {IRouterClient} from \"@chainlink/contracts-ccip/src/v0.8/ccip/interfaces/IRouterClient.sol\";\r\n\r\ncontract KanvasAvax is\r\n    IKanvasAvax,\r\n    Context,\r\n    CCIPReceiver,\r\n    FunctionsClient,\r\n    Ownable\r\n{\r\n    using Functions for Functions.Request;\r\n\r\n    uint64 private constant AVAX_SELECTOR = 14767482510784806043;\r\n    uint256 public constant MAX_PROPERTIES_LEN = 20;\r\n    uint256 public constant MAX_TEMPLATES_LEN = 5;\r\n\r\n    string private _sourceCode;\r\n    uint64 private _subscriptionId = 1580;\r\n    uint32 private _gasLimit = 400_000;\r\n\r\n    uint256 private _planId;\r\n    mapping(uint256 => Assets.Plan) private _plans;\r\n\r\n    mapping(address => Assets.Game) private _games;\r\n\r\n    mapping(bytes32 => Assets.Request) private _requests;\r\n\r\n    mapping(uint64 => address) private _interops;\r\n\r\n    IRouterClient private _router;\r\n\r\n    constructor(\r\n        address ccipReceiver,\r\n        address functionOracle\r\n    ) CCIPReceiver(ccipReceiver) Ownable() FunctionsClient(functionOracle) {\r\n        _router = IRouterClient(getRouter());\r\n    }\r\n\r\n    function updateSourceCode(string memory newSourceCode) external onlyOwner {\r\n        _sourceCode = newSourceCode;\r\n    }\r\n\r\n    function updateGasLimit(uint32 newLimit) external onlyOwner {\r\n        _gasLimit = newLimit;\r\n    }\r\n\r\n    function updateSubscriptionId(uint64 newSubscriptionId) external onlyOwner {\r\n        _subscriptionId = newSubscriptionId;\r\n    }\r\n\r\n    function createGame(Params.Game memory params) external payable {\r\n        require(_plans[params.plan].limit != 0, \"Invalid plan\");\r\n        require(msg.value == _plans[params.plan].cost, \"Insufficient funds\");\r\n\r\n        _games[params.gameId] = Assets.Game({\r\n            name: params.name,\r\n            description: params.description,\r\n            avatar: params.avatar,\r\n            plan: params.plan,\r\n            creator: _msgSender()\r\n        });\r\n\r\n        emit GameCreated(\r\n            params.gameId,\r\n            params.name,\r\n            params.description,\r\n            params.avatar,\r\n            params.plan,\r\n            _msgSender(),\r\n            params.email,\r\n            params.website\r\n        );\r\n    }\r\n\r\n    function addTemplate(string memory templateUri, address gameId) external {\r\n        address creator = _msgSender();\r\n\r\n        Assets.Game storage game = _games[gameId];\r\n\r\n        require(game.creator == creator, \"UnAuthorized\");\r\n\r\n        emit TemplateAdded(gameId, templateUri);\r\n    }\r\n\r\n    function _generateUri(\r\n        address playerId,\r\n        string[] memory props,\r\n        string memory fields,\r\n        uint8 templateId\r\n    ) external override {\r\n        require(props.length <= MAX_PROPERTIES_LEN, \"Too many attributes\");\r\n\r\n        address gameId = _msgSender();\r\n        require(_games[gameId].creator != address(0), \"Game Not Found\");\r\n\r\n        string[] memory args = new string[](5);\r\n        args[0] = StringJoiner.joinStrings(props, \",\");\r\n        args[1] = fields;\r\n        args[2] = Strings.toHexString(gameId);\r\n        args[3] = Strings.toHexString(playerId);\r\n        args[4] = Strings.toString(templateId);\r\n\r\n        bytes memory secrets = \"\";\r\n\r\n        // Initialize the request\r\n        Functions.Request memory req;\r\n\r\n        // Soucre code\r\n        req.initializeRequest(\r\n            Functions.Location.Inline,\r\n            Functions.CodeLanguage.JavaScript,\r\n            _sourceCode\r\n        );\r\n\r\n        // Add secrets if available\r\n        if (secrets.length > 0) {\r\n            req.addRemoteSecrets(secrets);\r\n        }\r\n\r\n        // Add arguments\r\n        req.addArgs(args);\r\n\r\n        bytes32 requestId = sendRequest(req, _subscriptionId, _gasLimit);\r\n\r\n        _requests[requestId] = Assets.Request({\r\n            gameId: gameId,\r\n            playerId: playerId,\r\n            fulfilled: false\r\n        });\r\n    }\r\n\r\n    function updateInterop(\r\n        uint64 chainSelector,\r\n        address kanvasRouter\r\n    ) external onlyOwner {\r\n        _interops[chainSelector] = kanvasRouter;\r\n    }\r\n\r\n    /** Receive the response in the form of string  */\r\n    function fulfillRequest(\r\n        bytes32 requestId,\r\n        bytes memory response,\r\n        bytes memory /* err */\r\n    ) internal override {\r\n        string memory uri = abi.decode(response, (string));\r\n\r\n        Assets.Request storage request = _requests[requestId];\r\n        require(!request.fulfilled, \"Already fulfilled\");\r\n        require(!Strings.equal(uri, \"NULL\"), \"Invalid URI\");\r\n\r\n        request.fulfilled = true;\r\n\r\n        require(_games[request.gameId].creator != address(0), \"Game Not Found\");\r\n\r\n        IKanvasGame game = IKanvasGame(request.gameId);\r\n        game._receiveUri(request.playerId, uri);\r\n    }\r\n\r\n    function _transferTo(\r\n        uint64 chainSelector,\r\n        address gameId,\r\n        address playerId,\r\n        uint256 tokenId,\r\n        string memory uri,\r\n        bytes memory data\r\n    ) external payable {\r\n        require(_interops[chainSelector] != address(0), \"Chain not supported\");\r\n\r\n        // Create an EVM2AnyMessage struct in memory with necessary information for sending a cross-chain message\r\n        Client.EVM2AnyMessage memory message = Client.EVM2AnyMessage({\r\n            // ABI-encoded receiver address\r\n            receiver: abi.encode(_interops[chainSelector]),\r\n            // ABI-encoded string message\r\n            data: abi.encode(gameId, playerId, tokenId, uri, data),\r\n            // Empty array indicating no tokens are being sent\r\n            tokenAmounts: new Client.EVMTokenAmount[](0),\r\n            // Additional arguments, setting gas limit and non-strict sequency mode\r\n            extraArgs: Client._argsToBytes(\r\n                Client.EVMExtraArgsV1({gasLimit: 400_000, strict: false})\r\n            ),\r\n            // Setting feeToken to zero address, indicating native asset will be used for fees\r\n            feeToken: address(0)\r\n        });\r\n\r\n        // Get the fee required to send the message\r\n        uint256 fees = _router.getFee(AVAX_SELECTOR, message);\r\n\r\n        require(msg.value >= fees, \"Insufficient fee\");\r\n\r\n        // Send the message through the router and store the returned message ID\r\n        _router.ccipSend{value: fees}(AVAX_SELECTOR, message);\r\n    }\r\n\r\n    // handle a received message\r\n    function _ccipReceive(\r\n        Client.Any2EVMMessage memory message\r\n    ) internal override {\r\n        (\r\n            address gameId,\r\n            address playerId,\r\n            uint256 tokenId,\r\n            string memory uri,\r\n            bytes memory data\r\n        ) = abi.decode(\r\n                message.data,\r\n                (address, address, uint256, string, bytes)\r\n            );\r\n\r\n        IKanvasInteropGame game = IKanvasInteropGame(gameId);\r\n        game._receiveFrom(\r\n            message.sourceChainSelector,\r\n            gameId,\r\n            playerId,\r\n            tokenId,\r\n            uri,\r\n            data\r\n        );\r\n    }\r\n\r\n    /** Create plans */\r\n    function createPlan(Params.Plan memory params) external onlyOwner {\r\n        _planId++;\r\n\r\n        _plans[_planId] = Assets.Plan({\r\n            name: params.name,\r\n            cost: params.cost,\r\n            color: params.color,\r\n            limit: params.limit\r\n        });\r\n\r\n        emit PlanCreated(\r\n            _planId,\r\n            params.name,\r\n            params.cost,\r\n            params.color,\r\n            params.limit\r\n        );\r\n    }\r\n}\r\n",
  "sourcePath": "C:\\Users\\DELL\\Documents\\kanvas\\blockchain\\contracts\\KanvasAvax.sol",
  "compiler": {
    "name": "solc",
    "version": "0.8.17+commit.8df45f5f.Emscripten.clang"
  },
  "schemaVersion": "3.4.11",
  "updatedAt": "2023-12-04T22:42:17.163Z",
  "networkType": "ethereum",
  "devdoc": {
    "kind": "dev",
    "methods": {
      "ccipReceive((bytes32,uint64,bytes,bytes,(address,uint256)[]))": {
        "details": "Note ensure you check the msg.sender is the OffRampRouter",
        "params": {
          "message": "CCIP Message"
        }
      },
      "estimateCost((uint8,uint8,uint8,string,bytes,string[]),uint64,uint32,uint256)": {
        "params": {
          "gasLimit": "gas limit for the fulfillment callback",
          "req": "The initialized Functions.Request",
          "subscriptionId": "The subscription ID"
        },
        "returns": {
          "_0": "billedCost Cost in Juels (1e18) of LINK"
        }
      },
      "getDONPublicKey()": {
        "details": "All Oracles nodes have the corresponding private key needed to decrypt the secrets encrypted with the public key",
        "returns": {
          "_0": "publicKey DON's public key"
        }
      },
      "getRouter()": {
        "returns": {
          "_0": "i_router address"
        }
      },
      "handleOracleFulfillment(bytes32,bytes,bytes)": {
        "params": {
          "err": "Aggregated error either from the user code or from the execution pipeline. Either response or error parameter will be set, but never both.",
          "requestId": "The requestId returned by FunctionsClient.sendRequest().",
          "response": "Aggregated response from the user code."
        }
      },
      "owner()": {
        "details": "Returns the address of the current owner."
      },
      "renounceOwnership()": {
        "details": "Leaves the contract without owner. It will not be possible to call `onlyOwner` functions. Can only be called by the current owner. NOTE: Renouncing ownership will leave the contract without an owner, thereby disabling any functionality that is only available to the owner."
      },
      "supportsInterface(bytes4)": {
        "params": {
          "interfaceId": "The interfaceId to check"
        },
        "returns": {
          "_0": "true if the interfaceId is supported"
        }
      },
      "transferOwnership(address)": {
        "details": "Transfers ownership of the contract to a new account (`newOwner`). Can only be called by the current owner."
      }
    },
    "version": 1
  },
  "userdoc": {
    "kind": "user",
    "methods": {
      "ccipReceive((bytes32,uint64,bytes,bytes,(address,uint256)[]))": {
        "notice": "Called by the Router to deliver a message. If this reverts, any token transfers also revert. The message will move to a FAILED state and become available for manual execution."
      },
      "createPlan((string,uint256,string,uint256))": {
        "notice": "Create plans "
      },
      "estimateCost((uint8,uint8,uint8,string,bytes,string[]),uint64,uint32,uint256)": {
        "notice": "Estimate the total cost that will be charged to a subscription to make a request: gas re-imbursement, plus DON fee, plus Registry fee"
      },
      "getDONPublicKey()": {
        "notice": "Returns the DON's secp256k1 public key used to encrypt secrets"
      },
      "getRouter()": {
        "notice": "Return the current router"
      },
      "handleOracleFulfillment(bytes32,bytes,bytes)": {
        "notice": "Chainlink Functions response handler called by the designated transmitter node in an OCR round."
      },
      "supportsInterface(bytes4)": {
        "notice": "IERC165 supports an interfaceId"
      }
    },
    "version": 1
  }
}