{
  "contractName": "KanvasCCIP",
  "abi": [
    {
      "inputs": [
        {
          "internalType": "address",
          "name": "kanvas_",
          "type": "address"
        },
        {
          "internalType": "address",
          "name": "router_",
          "type": "address"
        }
      ],
      "stateMutability": "nonpayable",
      "type": "constructor"
    },
    {
      "inputs": [
        {
          "internalType": "uint256",
          "name": "appId",
          "type": "uint256"
        },
        {
          "internalType": "address",
          "name": "to",
          "type": "address"
        },
        {
          "internalType": "bytes",
          "name": "data",
          "type": "bytes"
        }
      ],
      "name": "update",
      "outputs": [],
      "stateMutability": "nonpayable",
      "type": "function"
    }
  ],
  "bytecode": "0x608060405234801561001057600080fd5b50604051610b47380380610b478339818101604052810190610032919061011d565b816000806101000a81548173ffffffffffffffffffffffffffffffffffffffff021916908373ffffffffffffffffffffffffffffffffffffffff16021790555080600160006101000a81548173ffffffffffffffffffffffffffffffffffffffff021916908373ffffffffffffffffffffffffffffffffffffffff160217905550505061015d565b600080fd5b600073ffffffffffffffffffffffffffffffffffffffff82169050919050565b60006100ea826100bf565b9050919050565b6100fa816100df565b811461010557600080fd5b50565b600081519050610117816100f1565b92915050565b60008060408385031215610134576101336100ba565b5b600061014285828601610108565b925050602061015385828601610108565b9150509250929050565b6109db8061016c6000396000f3fe608060405234801561001057600080fd5b506004361061002b5760003560e01c8063f8d1170314610030575b600080fd5b61004a60048036038101906100459190610520565b61004c565b005b60006040518060a001604052808460405160200161006a919061059e565b60405160208183030381529060405281526020018584604051602001610091929190610647565b6040516020818303038152906040528152602001600067ffffffffffffffff8111156100c0576100bf6103f5565b5b6040519080825280602002602001820160405280156100f957816020015b6100e6610302565b8152602001906001900390816100de5790505b508152602001600073ffffffffffffffffffffffffffffffffffffffff16815260200161013f604051806040016040528062061a80815260200160001515815250610283565b81525090506000600160009054906101000a900473ffffffffffffffffffffffffffffffffffffffff16905060008173ffffffffffffffffffffffffffffffffffffffff166320487ded6724f9b897ef58a922856040518363ffffffff1660e01b81526004016101b092919061086b565b602060405180830381865afa1580156101cd573d6000803e3d6000fd5b505050506040513d601f19601f820116820180604052508101906101f191906108b0565b90508173ffffffffffffffffffffffffffffffffffffffff166396f4e9f9826724f9b897ef58a922866040518463ffffffff1660e01b815260040161023792919061086b565b60206040518083038185885af1158015610255573d6000803e3d6000fd5b50505050506040513d601f19601f8201168201806040525081019061027a9190610913565b50505050505050565b60606397a657c960e01b8260405160240161029e919061098a565b604051602081830303815290604052907bffffffffffffffffffffffffffffffffffffffffffffffffffffffff19166020820180517bffffffffffffffffffffffffffffffffffffffffffffffffffffffff83818316178352505050509050919050565b6040518060400160405280600073ffffffffffffffffffffffffffffffffffffffff168152602001600081525090565b6000604051905090565b600080fd5b600080fd5b6000819050919050565b61035981610346565b811461036457600080fd5b50565b60008135905061037681610350565b92915050565b600073ffffffffffffffffffffffffffffffffffffffff82169050919050565b60006103a78261037c565b9050919050565b6103b78161039c565b81146103c257600080fd5b50565b6000813590506103d4816103ae565b92915050565b600080fd5b600080fd5b6000601f19601f8301169050919050565b7f4e487b7100000000000000000000000000000000000000000000000000000000600052604160045260246000fd5b61042d826103e4565b810181811067ffffffffffffffff8211171561044c5761044b6103f5565b5b80604052505050565b600061045f610332565b905061046b8282610424565b919050565b600067ffffffffffffffff82111561048b5761048a6103f5565b5b610494826103e4565b9050602081019050919050565b82818337600083830152505050565b60006104c36104be84610470565b610455565b9050828152602081018484840111156104df576104de6103df565b5b6104ea8482856104a1565b509392505050565b600082601f830112610507576105066103da565b5b81356105178482602086016104b0565b91505092915050565b6000806000606084860312156105395761053861033c565b5b600061054786828701610367565b9350506020610558868287016103c5565b925050604084013567ffffffffffffffff81111561057957610578610341565b5b610585868287016104f2565b9150509250925092565b6105988161039c565b82525050565b60006020820190506105b3600083018461058f565b92915050565b6105c281610346565b82525050565b600081519050919050565b600082825260208201905092915050565b60005b838110156106025780820151818401526020810190506105e7565b60008484015250505050565b6000610619826105c8565b61062381856105d3565b93506106338185602086016105e4565b61063c816103e4565b840191505092915050565b600060408201905061065c60008301856105b9565b818103602083015261066e818461060e565b90509392505050565b600067ffffffffffffffff82169050919050565b61069481610677565b82525050565b600082825260208201905092915050565b60006106b6826105c8565b6106c0818561069a565b93506106d08185602086016105e4565b6106d9816103e4565b840191505092915050565b600081519050919050565b600082825260208201905092915050565b6000819050602082019050919050565b6107198161039c565b82525050565b61072881610346565b82525050565b6040820160008201516107446000850182610710565b506020820151610757602085018261071f565b50505050565b6000610769838361072e565b60408301905092915050565b6000602082019050919050565b600061078d826106e4565b61079781856106ef565b93506107a283610700565b8060005b838110156107d35781516107ba888261075d565b97506107c583610775565b9250506001810190506107a6565b5085935050505092915050565b600060a08301600083015184820360008601526107fd82826106ab565b9150506020830151848203602086015261081782826106ab565b915050604083015184820360408601526108318282610782565b91505060608301516108466060860182610710565b506080830151848203608086015261085e82826106ab565b9150508091505092915050565b6000604082019050610880600083018561068b565b818103602083015261089281846107e0565b90509392505050565b6000815190506108aa81610350565b92915050565b6000602082840312156108c6576108c561033c565b5b60006108d48482850161089b565b91505092915050565b6000819050919050565b6108f0816108dd565b81146108fb57600080fd5b50565b60008151905061090d816108e7565b92915050565b6000602082840312156109295761092861033c565b5b6000610937848285016108fe565b91505092915050565b60008115159050919050565b61095581610940565b82525050565b604082016000820151610971600085018261071f565b506020820151610984602085018261094c565b50505050565b600060408201905061099f600083018461095b565b9291505056fea2646970667358221220e270bb85e8696e553cf72899cec163036a7066256785287edee9c2dc62e0eb2864736f6c63430008110033",
  "immutableReferences": {},
  "source": "// SPDX-License-Identifier: MIT\r\npragma solidity ^0.8.17;\r\n\r\nimport {Ownable} from \"@openzeppelin/contracts/access/Ownable.sol\";\r\nimport {Context} from \"@openzeppelin/contracts/utils/Context.sol\";\r\n\r\nimport {IRouterClient} from \"@chainlink/contracts-ccip/src/v0.8/ccip/interfaces/IRouterClient.sol\";\r\nimport {Client} from \"@chainlink/contracts-ccip/src/v0.8/ccip/libraries/Client.sol\";\r\n\r\ncontract KanvasCCIP {\r\n    address private _kanvas;\r\n    address private _router;\r\n    uint64 private constant _avaxSelector = 2664363617261496610;\r\n\r\n    constructor(address kanvas_, address router_) {\r\n        _kanvas = kanvas_;\r\n        _router = router_;\r\n    }\r\n\r\n    // this functions call the update function for the avax core contract\r\n    function update(uint256 appId, address to, bytes memory data) external {\r\n        // Create an EVM2AnyMessage struct in memory with necessary information for sending a cross-chain message\r\n        Client.EVM2AnyMessage memory evm2AnyMessage = Client.EVM2AnyMessage({\r\n            // ABI-encoded receiver address\r\n            receiver: abi.encode(to),\r\n            // ABI-encoded string message\r\n            data: abi.encode(appId, data),\r\n            // Empty array indicating no tokens are being sent\r\n            tokenAmounts: new Client.EVMTokenAmount[](0),\r\n            // Additional arguments, setting gas limit and non-strict sequency mode\r\n            extraArgs: Client._argsToBytes(\r\n                Client.EVMExtraArgsV1({gasLimit: 400_000, strict: false})\r\n            ),\r\n            // Setting feeToken to zero address, indicating native asset will be used for fees\r\n            feeToken: address(0)\r\n        });\r\n\r\n        // Initialize a router client instance to interact with cross-chain router\r\n        IRouterClient router = IRouterClient(_router);\r\n\r\n        // Get the fee required to send the message\r\n        uint256 fees = router.getFee(_avaxSelector, evm2AnyMessage);\r\n\r\n        // Send the message through the router and store the returned message ID\r\n        router.ccipSend{value: fees}(_avaxSelector, evm2AnyMessage);\r\n    }\r\n}\r\n",
  "sourcePath": "C:\\Users\\DELL\\Documents\\kanvas\\blockchain\\contracts\\KanvasCCIP.sol",
  "compiler": {
    "name": "solc",
    "version": "0.8.17+commit.8df45f5f.Emscripten.clang"
  },
  "schemaVersion": "3.4.11",
  "updatedAt": "2023-12-01T11:25:58.903Z",
  "devdoc": {
    "kind": "dev",
    "methods": {},
    "version": 1
  },
  "userdoc": {
    "kind": "user",
    "methods": {},
    "version": 1
  }
}