{
  "contractName": "KanvasAvax",
  "abi": [
    {
      "inputs": [
        {
          "internalType": "address",
          "name": "ccipReceiver",
          "type": "address"
        },
        {
          "internalType": "address",
          "name": "functionOracle",
          "type": "address"
        }
      ],
      "stateMutability": "nonpayable",
      "type": "constructor"
    },
    {
      "inputs": [],
      "name": "EmptyArgs",
      "type": "error"
    },
    {
      "inputs": [],
      "name": "EmptySource",
      "type": "error"
    },
    {
      "inputs": [
        {
          "internalType": "address",
          "name": "router",
          "type": "address"
        }
      ],
      "name": "InvalidRouter",
      "type": "error"
    },
    {
      "inputs": [],
      "name": "NoInlineSecrets",
      "type": "error"
    },
    {
      "inputs": [],
      "name": "OnlyRouterCanFulfill",
      "type": "error"
    },
    {
      "anonymous": false,
      "inputs": [
        {
          "indexed": false,
          "internalType": "address",
          "name": "gameId",
          "type": "address"
        },
        {
          "indexed": false,
          "internalType": "string",
          "name": "name",
          "type": "string"
        },
        {
          "indexed": false,
          "internalType": "string",
          "name": "description",
          "type": "string"
        },
        {
          "indexed": false,
          "internalType": "string",
          "name": "avatar",
          "type": "string"
        },
        {
          "indexed": false,
          "internalType": "uint256",
          "name": "plan",
          "type": "uint256"
        },
        {
          "indexed": false,
          "internalType": "address",
          "name": "creator",
          "type": "address"
        },
        {
          "indexed": false,
          "internalType": "string",
          "name": "email",
          "type": "string"
        },
        {
          "indexed": false,
          "internalType": "string",
          "name": "website",
          "type": "string"
        }
      ],
      "name": "GameCreated",
      "type": "event"
    },
    {
      "anonymous": false,
      "inputs": [
        {
          "indexed": false,
          "internalType": "bytes32",
          "name": "requestId",
          "type": "bytes32"
        },
        {
          "indexed": false,
          "internalType": "address",
          "name": "gameId",
          "type": "address"
        },
        {
          "indexed": false,
          "internalType": "address",
          "name": "playerId",
          "type": "address"
        },
        {
          "indexed": false,
          "internalType": "enum Assets.EventType",
          "name": "eventType",
          "type": "uint8"
        },
        {
          "indexed": false,
          "internalType": "bytes",
          "name": "data",
          "type": "bytes"
        }
      ],
      "name": "GameEvent",
      "type": "event"
    },
    {
      "anonymous": false,
      "inputs": [
        {
          "indexed": true,
          "internalType": "address",
          "name": "previousOwner",
          "type": "address"
        },
        {
          "indexed": true,
          "internalType": "address",
          "name": "newOwner",
          "type": "address"
        }
      ],
      "name": "OwnershipTransferred",
      "type": "event"
    },
    {
      "anonymous": false,
      "inputs": [
        {
          "indexed": false,
          "internalType": "uint256",
          "name": "planId",
          "type": "uint256"
        },
        {
          "indexed": false,
          "internalType": "string",
          "name": "name",
          "type": "string"
        },
        {
          "indexed": false,
          "internalType": "uint256",
          "name": "cost",
          "type": "uint256"
        },
        {
          "indexed": false,
          "internalType": "string",
          "name": "color",
          "type": "string"
        },
        {
          "indexed": false,
          "internalType": "uint256",
          "name": "limit",
          "type": "uint256"
        }
      ],
      "name": "PlanCreated",
      "type": "event"
    },
    {
      "anonymous": false,
      "inputs": [
        {
          "indexed": true,
          "internalType": "bytes32",
          "name": "id",
          "type": "bytes32"
        }
      ],
      "name": "RequestFulfilled",
      "type": "event"
    },
    {
      "anonymous": false,
      "inputs": [
        {
          "indexed": true,
          "internalType": "bytes32",
          "name": "id",
          "type": "bytes32"
        }
      ],
      "name": "RequestSent",
      "type": "event"
    },
    {
      "anonymous": false,
      "inputs": [
        {
          "indexed": false,
          "internalType": "address",
          "name": "gameId",
          "type": "address"
        },
        {
          "indexed": false,
          "internalType": "string",
          "name": "templateUri",
          "type": "string"
        }
      ],
      "name": "TemplateAdded",
      "type": "event"
    },
    {
      "inputs": [],
      "name": "MAX_PROPERTIES_LEN",
      "outputs": [
        {
          "internalType": "uint256",
          "name": "",
          "type": "uint256"
        }
      ],
      "stateMutability": "view",
      "type": "function"
    },
    {
      "inputs": [
        {
          "components": [
            {
              "internalType": "bytes32",
              "name": "messageId",
              "type": "bytes32"
            },
            {
              "internalType": "uint64",
              "name": "sourceChainSelector",
              "type": "uint64"
            },
            {
              "internalType": "bytes",
              "name": "sender",
              "type": "bytes"
            },
            {
              "internalType": "bytes",
              "name": "data",
              "type": "bytes"
            },
            {
              "components": [
                {
                  "internalType": "address",
                  "name": "token",
                  "type": "address"
                },
                {
                  "internalType": "uint256",
                  "name": "amount",
                  "type": "uint256"
                }
              ],
              "internalType": "struct Client.EVMTokenAmount[]",
              "name": "destTokenAmounts",
              "type": "tuple[]"
            }
          ],
          "internalType": "struct Client.Any2EVMMessage",
          "name": "message",
          "type": "tuple"
        }
      ],
      "name": "ccipReceive",
      "outputs": [],
      "stateMutability": "nonpayable",
      "type": "function"
    },
    {
      "inputs": [],
      "name": "getRouter",
      "outputs": [
        {
          "internalType": "address",
          "name": "",
          "type": "address"
        }
      ],
      "stateMutability": "view",
      "type": "function"
    },
    {
      "inputs": [
        {
          "internalType": "bytes32",
          "name": "requestId",
          "type": "bytes32"
        },
        {
          "internalType": "bytes",
          "name": "response",
          "type": "bytes"
        },
        {
          "internalType": "bytes",
          "name": "err",
          "type": "bytes"
        }
      ],
      "name": "handleOracleFulfillment",
      "outputs": [],
      "stateMutability": "nonpayable",
      "type": "function"
    },
    {
      "inputs": [],
      "name": "owner",
      "outputs": [
        {
          "internalType": "address",
          "name": "",
          "type": "address"
        }
      ],
      "stateMutability": "view",
      "type": "function"
    },
    {
      "inputs": [],
      "name": "renounceOwnership",
      "outputs": [],
      "stateMutability": "nonpayable",
      "type": "function"
    },
    {
      "inputs": [
        {
          "internalType": "bytes4",
          "name": "interfaceId",
          "type": "bytes4"
        }
      ],
      "name": "supportsInterface",
      "outputs": [
        {
          "internalType": "bool",
          "name": "",
          "type": "bool"
        }
      ],
      "stateMutability": "pure",
      "type": "function"
    },
    {
      "inputs": [
        {
          "internalType": "address",
          "name": "newOwner",
          "type": "address"
        }
      ],
      "name": "transferOwnership",
      "outputs": [],
      "stateMutability": "nonpayable",
      "type": "function"
    },
    {
      "inputs": [
        {
          "internalType": "bytes32",
          "name": "newDonId",
          "type": "bytes32"
        }
      ],
      "name": "updateDonId",
      "outputs": [],
      "stateMutability": "nonpayable",
      "type": "function"
    },
    {
      "inputs": [
        {
          "internalType": "string",
          "name": "newSourceCode",
          "type": "string"
        }
      ],
      "name": "updateSourceCode",
      "outputs": [],
      "stateMutability": "nonpayable",
      "type": "function"
    },
    {
      "inputs": [
        {
          "internalType": "uint32",
          "name": "newLimit",
          "type": "uint32"
        }
      ],
      "name": "updateGasLimit",
      "outputs": [],
      "stateMutability": "nonpayable",
      "type": "function"
    },
    {
      "inputs": [
        {
          "internalType": "uint64",
          "name": "newSubscriptionId",
          "type": "uint64"
        }
      ],
      "name": "updateSubscriptionId",
      "outputs": [],
      "stateMutability": "nonpayable",
      "type": "function"
    },
    {
      "inputs": [],
      "name": "depositEth",
      "outputs": [],
      "stateMutability": "payable",
      "type": "function"
    },
    {
      "inputs": [
        {
          "components": [
            {
              "internalType": "string",
              "name": "name",
              "type": "string"
            },
            {
              "internalType": "string",
              "name": "description",
              "type": "string"
            },
            {
              "internalType": "address",
              "name": "gameId",
              "type": "address"
            },
            {
              "internalType": "string",
              "name": "avatar",
              "type": "string"
            },
            {
              "internalType": "uint256",
              "name": "plan",
              "type": "uint256"
            },
            {
              "internalType": "string",
              "name": "email",
              "type": "string"
            },
            {
              "internalType": "string",
              "name": "website",
              "type": "string"
            }
          ],
          "internalType": "struct Params.Game",
          "name": "params",
          "type": "tuple"
        }
      ],
      "name": "createGame",
      "outputs": [],
      "stateMutability": "payable",
      "type": "function"
    },
    {
      "inputs": [
        {
          "internalType": "string",
          "name": "templateUri",
          "type": "string"
        },
        {
          "internalType": "address",
          "name": "gameId",
          "type": "address"
        }
      ],
      "name": "addTemplate",
      "outputs": [],
      "stateMutability": "nonpayable",
      "type": "function"
    },
    {
      "inputs": [
        {
          "internalType": "address",
          "name": "playerId",
          "type": "address"
        },
        {
          "internalType": "string[]",
          "name": "props",
          "type": "string[]"
        },
        {
          "internalType": "string",
          "name": "fields",
          "type": "string"
        },
        {
          "internalType": "uint8",
          "name": "templateId",
          "type": "uint8"
        }
      ],
      "name": "_generateUri",
      "outputs": [],
      "stateMutability": "payable",
      "type": "function"
    },
    {
      "inputs": [
        {
          "internalType": "uint64",
          "name": "chainSelector",
          "type": "uint64"
        },
        {
          "internalType": "address",
          "name": "kanvasRouter",
          "type": "address"
        }
      ],
      "name": "updateInterop",
      "outputs": [],
      "stateMutability": "nonpayable",
      "type": "function"
    },
    {
      "inputs": [
        {
          "internalType": "uint64",
          "name": "chainSelector",
          "type": "uint64"
        },
        {
          "internalType": "address",
          "name": "gameId",
          "type": "address"
        },
        {
          "internalType": "address",
          "name": "playerId",
          "type": "address"
        },
        {
          "internalType": "uint256",
          "name": "tokenId",
          "type": "uint256"
        },
        {
          "internalType": "string",
          "name": "uri",
          "type": "string"
        },
        {
          "internalType": "bytes",
          "name": "data",
          "type": "bytes"
        }
      ],
      "name": "_transferTo",
      "outputs": [],
      "stateMutability": "payable",
      "type": "function"
    },
    {
      "inputs": [],
      "name": "_generateFee",
      "outputs": [
        {
          "internalType": "uint256",
          "name": "",
          "type": "uint256"
        }
      ],
      "stateMutability": "view",
      "type": "function"
    },
    {
      "inputs": [],
      "name": "_bridgeFee",
      "outputs": [
        {
          "internalType": "uint256",
          "name": "",
          "type": "uint256"
        }
      ],
      "stateMutability": "view",
      "type": "function"
    },
    {
      "inputs": [
        {
          "components": [
            {
              "internalType": "string",
              "name": "name",
              "type": "string"
            },
            {
              "internalType": "uint256",
              "name": "cost",
              "type": "uint256"
            },
            {
              "internalType": "string",
              "name": "color",
              "type": "string"
            },
            {
              "internalType": "uint256",
              "name": "limit",
              "type": "uint256"
            }
          ],
          "internalType": "struct Params.Plan",
          "name": "params",
          "type": "tuple"
        }
      ],
      "name": "createPlan",
      "outputs": [],
      "stateMutability": "nonpayable",
      "type": "function"
    }
  ],
  "bytecode": "0x60c0604052620493e0600260006101000a81548163ffffffff021916908363ffffffff16021790555061062c600260046101000a81548167ffffffffffffffff021916908367ffffffffffffffff1602179055507f66756e2d6176616c616e6368652d66756a692d3100000000000000000000000060001b600355600060045560006005553480156200009157600080fd5b5060405162005630380380620056308339818101604052810190620000b7919062000350565b8082600073ffffffffffffffffffffffffffffffffffffffff168173ffffffffffffffffffffffffffffffffffffffff16036200012e5760006040517fd7f73334000000000000000000000000000000000000000000000000000000008152600401620001259190620003a8565b60405180910390fd5b8073ffffffffffffffffffffffffffffffffffffffff1660808173ffffffffffffffffffffffffffffffffffffffff1681525050508073ffffffffffffffffffffffffffffffffffffffff1660a08173ffffffffffffffffffffffffffffffffffffffff168152505050620001b8620001ac6200021060201b60201c565b6200021860201b60201c565b620001c8620002dc60201b60201c565b600b60006101000a81548173ffffffffffffffffffffffffffffffffffffffff021916908373ffffffffffffffffffffffffffffffffffffffff1602179055505050620003c5565b600033905090565b60008060009054906101000a900473ffffffffffffffffffffffffffffffffffffffff169050816000806101000a81548173ffffffffffffffffffffffffffffffffffffffff021916908373ffffffffffffffffffffffffffffffffffffffff1602179055508173ffffffffffffffffffffffffffffffffffffffff168173ffffffffffffffffffffffffffffffffffffffff167f8be0079c531659141344cd1fd0a4f28419497f9722a3daafe3b4186f6b6457e060405160405180910390a35050565b6000608051905090565b600080fd5b600073ffffffffffffffffffffffffffffffffffffffff82169050919050565b60006200031882620002eb565b9050919050565b6200032a816200030b565b81146200033657600080fd5b50565b6000815190506200034a816200031f565b92915050565b600080604083850312156200036a5762000369620002e6565b5b60006200037a8582860162000339565b92505060206200038d8582860162000339565b9150509250929050565b620003a2816200030b565b82525050565b6000602082019050620003bf600083018462000397565b92915050565b60805160a051615237620003f96000396000818161053001526122510152600081816108d50152610f9901526152376000f3fe60806040526004361061012a5760003560e01c806385572ffb116100ab57806392154a3d1161006f57806392154a3d14610367578063b0f479a114610390578063b3285e32146103bb578063dd3fac7c146103e4578063eee6e5731461040d578063f2fde38b146104295761012a565b806385572ffb146102a35780638b8ff358146102cc5780638cd176d5146102f75780638d6dc0eb146103205780638da5cb5b1461033c5761012a565b8063439370b1116100f2578063439370b11461021257806348f5630b1461021c5780635821feae146102475780636df0c74714610263578063715018a61461028c5761012a565b806301ffc9a71461012f57806304d5d06c1461016c5780630ca761751461019757806314b1dd1b146101c057806334303bcd146101e9575b600080fd5b34801561013b57600080fd5b5061015660048036038101906101519190612e2b565b610452565b6040516101639190612e73565b60405180910390f35b34801561017857600080fd5b50610181610524565b60405161018e9190612ea7565b60405180910390f35b3480156101a357600080fd5b506101be60048036038101906101b9919061303e565b61052e565b005b3480156101cc57600080fd5b506101e760048036038101906101e29190613109565b6105f0565b005b3480156101f557600080fd5b50610210600480360381019061020b9190613172565b610624565b005b61021a610650565b005b34801561022857600080fd5b50610231610652565b60405161023e9190612ea7565b60405180910390f35b610261600480360381019061025c9190613414565b61065c565b005b34801561026f57600080fd5b5061028a6004803603810190610285919061345d565b6108ad565b005b34801561029857600080fd5b506102a16108bf565b005b3480156102af57600080fd5b506102ca60048036038101906102c591906134ae565b6108d3565b005b3480156102d857600080fd5b506102e1610978565b6040516102ee9190612ea7565b60405180910390f35b34801561030357600080fd5b5061031e600480360381019061031991906135a7565b61097d565b005b61033a600480360381019061033591906135f0565b610a7a565b005b34801561034857600080fd5b50610351610efa565b60405161035e91906136c4565b60405180910390f35b34801561037357600080fd5b5061038e600480360381019061038991906136df565b610f23565b005b34801561039c57600080fd5b506103a5610f95565b6040516103b291906136c4565b60405180910390f35b3480156103c757600080fd5b506103e260048036038101906103dd919061371f565b610fbd565b005b3480156103f057600080fd5b5061040b60048036038101906104069190613768565b610fd8565b005b610427600480360381019061042291906138e3565b6110f8565b005b34801561043557600080fd5b50610450600480360381019061044b9190613982565b61163a565b005b60007f85572ffb000000000000000000000000000000000000000000000000000000007bffffffffffffffffffffffffffffffffffffffffffffffffffffffff1916827bffffffffffffffffffffffffffffffffffffffffffffffffffffffff1916148061051d57507f01ffc9a7000000000000000000000000000000000000000000000000000000007bffffffffffffffffffffffffffffffffffffffffffffffffffffffff1916827bffffffffffffffffffffffffffffffffffffffffffffffffffffffff1916145b9050919050565b6000600454905090565b7f000000000000000000000000000000000000000000000000000000000000000073ffffffffffffffffffffffffffffffffffffffff163373ffffffffffffffffffffffffffffffffffffffff16146105b3576040517fc6829f8300000000000000000000000000000000000000000000000000000000815260040160405180910390fd5b6105be8383836116bd565b827f85e1543bf2f84fe80c6badbce3648c8539ad1df4d2b3d822938ca0538be727e660405160405180910390a2505050565b6105f8611a1a565b80600260046101000a81548167ffffffffffffffff021916908367ffffffffffffffff16021790555050565b61062c611a1a565b80600260006101000a81548163ffffffff021916908363ffffffff16021790555050565b565b6000600554905090565b6000600760008360800151815260200190815260200160002060030154036106b9576040517f08c379a00000000000000000000000000000000000000000000000000000000081526004016106b090613a0c565b60405180910390fd5b6007600082608001518152602001908152602001600020600101543414610715576040517f08c379a000000000000000000000000000000000000000000000000000000000815260040161070c90613a78565b60405180910390fd5b6040518060a0016040528082600001518152602001826060015181526020018260200151815260200182608001518152602001610750611a98565b73ffffffffffffffffffffffffffffffffffffffff1681525060086000836040015173ffffffffffffffffffffffffffffffffffffffff1673ffffffffffffffffffffffffffffffffffffffff16815260200190815260200160002060008201518160000190816107c19190613caf565b5060208201518160010190816107d79190613caf565b5060408201518160020190816107ed9190613caf565b506060820151816003015560808201518160040160006101000a81548173ffffffffffffffffffffffffffffffffffffffff021916908373ffffffffffffffffffffffffffffffffffffffff1602179055509050507fea35bbd4aeddb611341e5394e07bd5ac7513bd56730a40e7e3e3eb761e155c0581604001518260000151836020015184606001518560800151610884611a98565b8760a001518860c001516040516108a2989796959493929190613de4565b60405180910390a150565b6108b5611a1a565b8060038190555050565b6108c7611a1a565b6108d16000611aa0565b565b7f000000000000000000000000000000000000000000000000000000000000000073ffffffffffffffffffffffffffffffffffffffff163373ffffffffffffffffffffffffffffffffffffffff161461096357336040517fd7f7333400000000000000000000000000000000000000000000000000000000815260040161095a91906136c4565b60405180910390fd5b6109758161097090614078565b611b64565b50565b601481565b610985611a1a565b60066000815480929190610998906140ba565b91905055506040518060800160405280826000015181526020018260200151815260200182604001518152602001826060015181525060076000600654815260200190815260200160002060008201518160000190816109f89190613caf565b50602082015181600101556040820151816002019081610a189190613caf565b50606082015181600301559050507f33c5bd102a4d38690a8d7d236985d20c88e66b73bca9de5ae6cc29376d2206fd6006548260000151836020015184604001518560600151604051610a6f959493929190614102565b60405180910390a150565b6005543414610abe576040517f08c379a0000000000000000000000000000000000000000000000000000000008152600401610ab5906141af565b60405180910390fd5b600073ffffffffffffffffffffffffffffffffffffffff16600a60008867ffffffffffffffff1667ffffffffffffffff16815260200190815260200160002060009054906101000a900473ffffffffffffffffffffffffffffffffffffffff1673ffffffffffffffffffffffffffffffffffffffff1603610b74576040517f08c379a0000000000000000000000000000000000000000000000000000000008152600401610b6b9061421b565b60405180910390fd5b60006040518060a00160405280600a60008a67ffffffffffffffff1667ffffffffffffffff16815260200190815260200160002060009054906101000a900473ffffffffffffffffffffffffffffffffffffffff16604051602001610bd991906136c4565b60405160208183030381529060405281526020018787878787604051602001610c06959493929190614290565b6040516020818303038152906040528152602001600067ffffffffffffffff811115610c3557610c34612f13565b5b604051908082528060200260200182016040528015610c6e57816020015b610c5b612ce3565b815260200190600190039081610c535790505b508152602001600073ffffffffffffffffffffffffffffffffffffffff168152602001610cb46040518060400160405280621e8480815260200160001515815250611c5d565b81525090506000600b60009054906101000a900473ffffffffffffffffffffffffffffffffffffffff1673ffffffffffffffffffffffffffffffffffffffff166320487ded89846040518363ffffffff1660e01b8152600401610d189291906144d1565b602060405180830381865afa158015610d35573d6000803e3d6000fd5b505050506040513d601f19601f82011682018060405250810190610d599190614516565b905080341015610d9e576040517f08c379a0000000000000000000000000000000000000000000000000000000008152600401610d959061458f565b60405180910390fd5b6000600b60009054906101000a900473ffffffffffffffffffffffffffffffffffffffff1673ffffffffffffffffffffffffffffffffffffffff166396f4e9f9838b866040518463ffffffff1660e01b8152600401610dfe9291906144d1565b60206040518083038185885af1158015610e1c573d6000803e3d6000fd5b50505050506040513d601f19601f82011682018060405250810190610e4191906145c4565b905060008234610e5191906145f1565b90506000811115610eaa5760008990508073ffffffffffffffffffffffffffffffffffffffff166108fc839081150290604051600060405180830381858888f19350505050158015610ea7573d6000803e3d6000fd5b50505b7fe6dae862185d88c4597f4745a00933ea5be511621dcacc28511fa6029c050ccd828a8a60028860200151604051610ee69594939291906146ab565b60405180910390a150505050505050505050565b60008060009054906101000a900473ffffffffffffffffffffffffffffffffffffffff16905090565b610f2b611a1a565b80600a60008467ffffffffffffffff1667ffffffffffffffff16815260200190815260200160002060006101000a81548173ffffffffffffffffffffffffffffffffffffffff021916908373ffffffffffffffffffffffffffffffffffffffff1602179055505050565b60007f0000000000000000000000000000000000000000000000000000000000000000905090565b610fc5611a1a565b8060019081610fd49190613caf565b5050565b6000610fe2611a98565b90506000600860008473ffffffffffffffffffffffffffffffffffffffff1673ffffffffffffffffffffffffffffffffffffffff16815260200190815260200160002090508173ffffffffffffffffffffffffffffffffffffffff168160040160009054906101000a900473ffffffffffffffffffffffffffffffffffffffff1673ffffffffffffffffffffffffffffffffffffffff16146110b9576040517f08c379a00000000000000000000000000000000000000000000000000000000081526004016110b090614751565b60405180910390fd5b7fd7219b2d0e6067644335c8f4f82ee77c59a90a22e2916f1dce8683af8e8b07fa83856040516110ea929190614771565b60405180910390a150505050565b600454341461113c576040517f08c379a0000000000000000000000000000000000000000000000000000000008152600401611133906141af565b60405180910390fd5b601483511115611181576040517f08c379a0000000000000000000000000000000000000000000000000000000008152600401611178906147ed565b60405180910390fd5b600061118b611a98565b9050600073ffffffffffffffffffffffffffffffffffffffff16600860008373ffffffffffffffffffffffffffffffffffffffff1673ffffffffffffffffffffffffffffffffffffffff16815260200190815260200160002060040160009054906101000a900473ffffffffffffffffffffffffffffffffffffffff1673ffffffffffffffffffffffffffffffffffffffff160361125e576040517f08c379a000000000000000000000000000000000000000000000000000000000815260040161125590614859565b60405180910390fd5b6000600567ffffffffffffffff81111561127b5761127a612f13565b5b6040519080825280602002602001820160405280156112ae57816020015b60608152602001906001900390816112995790505b50905073__StringJoiner__________________________635c8656e0866040518263ffffffff1660e01b81526004016112e891906149e2565b600060405180830381865af4158015611305573d6000803e3d6000fd5b505050506040513d6000823e3d601f19601f8201168201806040525081019061132e9190614a87565b8160008151811061134257611341614ad0565b5b6020026020010181905250838160018151811061136257611361614ad0565b5b602002602001018190525061137682611cdc565b8160028151811061138a57611389614ad0565b5b602002602001018190525061139e86611cdc565b816003815181106113b2576113b1614ad0565b5b60200260200101819052506113c98360ff16611d09565b816004815181106113dd576113dc614ad0565b5b60200260200101819052506113f0612d13565b61148d6001805461140090613ad2565b80601f016020809104026020016040519081016040528092919081815260200182805461142c90613ad2565b80156114795780601f1061144e57610100808354040283529160200191611479565b820191906000526020600020905b81548152906001019060200180831161145c57829003601f168201915b505050505082611dd790919063ffffffff16565b6114a08282611de890919063ffffffff16565b60006114e06114ae83611e30565b600260049054906101000a900467ffffffffffffffff16600260009054906101000a900463ffffffff1660035461224c565b905060405180606001604052808573ffffffffffffffffffffffffffffffffffffffff1681526020018973ffffffffffffffffffffffffffffffffffffffff168152602001600015158152506009600083815260200190815260200160002060008201518160000160006101000a81548173ffffffffffffffffffffffffffffffffffffffff021916908373ffffffffffffffffffffffffffffffffffffffff16021790555060208201518160010160006101000a81548173ffffffffffffffffffffffffffffffffffffffff021916908373ffffffffffffffffffffffffffffffffffffffff16021790555060408201518160010160146101000a81548160ff0219169083151502179055509050507fe6dae862185d88c4597f4745a00933ea5be511621dcacc28511fa6029c050ccd81858a60008a6040516116289594939291906146ab565b60405180910390a15050505050505050565b611642611a1a565b600073ffffffffffffffffffffffffffffffffffffffff168173ffffffffffffffffffffffffffffffffffffffff16036116b1576040517f08c379a00000000000000000000000000000000000000000000000000000000081526004016116a890614b71565b60405180910390fd5b6116ba81611aa0565b50565b60006009600085815260200190815260200160002090508060010160149054906101000a900460ff1615611726576040517f08c379a000000000000000000000000000000000000000000000000000000000815260040161171d90614bdd565b60405180910390fd5b6000825111156117be577fe6dae862185d88c4597f4745a00933ea5be511621dcacc28511fa6029c050ccd848260000160009054906101000a900473ffffffffffffffffffffffffffffffffffffffff168360010160009054906101000a900473ffffffffffffffffffffffffffffffffffffffff166001866040516117b09594939291906146ab565b60405180910390a150611a15565b60018160010160146101000a81548160ff021916908315150217905550600073ffffffffffffffffffffffffffffffffffffffff16600860008360000160009054906101000a900473ffffffffffffffffffffffffffffffffffffffff1673ffffffffffffffffffffffffffffffffffffffff1673ffffffffffffffffffffffffffffffffffffffff16815260200190815260200160002060040160009054906101000a900473ffffffffffffffffffffffffffffffffffffffff1673ffffffffffffffffffffffffffffffffffffffff16036118d0576040517f08c379a00000000000000000000000000000000000000000000000000000000081526004016118c790614859565b60405180910390fd5b60008160000160009054906101000a900473ffffffffffffffffffffffffffffffffffffffff1690508073ffffffffffffffffffffffffffffffffffffffff16638f9c39568360010160009054906101000a900473ffffffffffffffffffffffffffffffffffffffff16866040518363ffffffff1660e01b8152600401611958929190614771565b600060405180830381600087803b15801561197257600080fd5b505af1158015611986573d6000803e3d6000fd5b505050507fe6dae862185d88c4597f4745a00933ea5be511621dcacc28511fa6029c050ccd858360000160009054906101000a900473ffffffffffffffffffffffffffffffffffffffff168460010160009054906101000a900473ffffffffffffffffffffffffffffffffffffffff16600188604051611a0a9594939291906146ab565b60405180910390a150505b505050565b611a22611a98565b73ffffffffffffffffffffffffffffffffffffffff16611a40610efa565b73ffffffffffffffffffffffffffffffffffffffff1614611a96576040517f08c379a0000000000000000000000000000000000000000000000000000000008152600401611a8d90614c49565b60405180910390fd5b565b600033905090565b60008060009054906101000a900473ffffffffffffffffffffffffffffffffffffffff169050816000806101000a81548173ffffffffffffffffffffffffffffffffffffffff021916908373ffffffffffffffffffffffffffffffffffffffff1602179055508173ffffffffffffffffffffffffffffffffffffffff168173ffffffffffffffffffffffffffffffffffffffff167f8be0079c531659141344cd1fd0a4f28419497f9722a3daafe3b4186f6b6457e060405160405180910390a35050565b60008060008060008560600151806020019051810190611b849190614d17565b9450945094509450945060008590508073ffffffffffffffffffffffffffffffffffffffff16636d4195fb886020015188888888886040518763ffffffff1660e01b8152600401611bda96959493929190614dca565b600060405180830381600087803b158015611bf457600080fd5b505af1158015611c08573d6000803e3d6000fd5b505050507fe6dae862185d88c4597f4745a00933ea5be511621dcacc28511fa6029c050ccd8760000151878760038b60600151604051611c4c9594939291906146ab565b60405180910390a150505050505050565b60606397a657c960e01b82604051602401611c789190614e77565b604051602081830303815290604052907bffffffffffffffffffffffffffffffffffffffffffffffffffffffff19166020820180517bffffffffffffffffffffffffffffffffffffffffffffffffffffffff83818316178352505050509050919050565b6060611d028273ffffffffffffffffffffffffffffffffffffffff16601460ff1661232f565b9050919050565b606060006001611d188461256b565b01905060008167ffffffffffffffff811115611d3757611d36612f13565b5b6040519080825280601f01601f191660200182016040528015611d695781602001600182028036833780820191505090505b509050600082602001820190505b600115611dcc578080600190039150507f3031323334353637383961626364656600000000000000000000000000000000600a86061a8153600a8581611dc057611dbf614e92565b5b04945060008503611d77575b819350505050919050565b611de482600080846126be565b5050565b6000815103611e23576040517ffe936cb700000000000000000000000000000000000000000000000000000000815260040160405180910390fd5b808260a001819052505050565b60606000611e3f610100612768565b9050611e896040518060400160405280600c81526020017f636f64654c6f636174696f6e00000000000000000000000000000000000000008152508261278f90919063ffffffff16565b611eb283600001516002811115611ea357611ea2614634565b5b826127b890919063ffffffff16565b611efa6040518060400160405280600881526020017f6c616e67756167650000000000000000000000000000000000000000000000008152508261278f90919063ffffffff16565b611f2383604001516000811115611f1457611f13614634565b5b826127b890919063ffffffff16565b611f6b6040518060400160405280600681526020017f736f7572636500000000000000000000000000000000000000000000000000008152508261278f90919063ffffffff16565b611f8283606001518261278f90919063ffffffff16565b60008360a0015151111561203e57611fd86040518060400160405280600481526020017f61726773000000000000000000000000000000000000000000000000000000008152508261278f90919063ffffffff16565b611fe181612808565b60005b8360a0015151811015612033576120228460a00151828151811061200b5761200a614ad0565b5b60200260200101518361278f90919063ffffffff16565b8061202c906140ba565b9050611fe4565b5061203d81612830565b5b6000836080015151111561217f57600060028111156120605761205f614634565b5b8360200151600281111561207757612076614634565b5b036120ae576040517fa80d31f700000000000000000000000000000000000000000000000000000000815260040160405180910390fd5b6120f66040518060400160405280600f81526020017f736563726574734c6f636174696f6e00000000000000000000000000000000008152508261278f90919063ffffffff16565b61211f836020015160028111156121105761210f614634565b5b826127b890919063ffffffff16565b6121676040518060400160405280600781526020017f73656372657473000000000000000000000000000000000000000000000000008152508261278f90919063ffffffff16565b61217e83608001518261285890919063ffffffff16565b5b60008360c0015151111561223b576121d56040518060400160405280600981526020017f62797465734172677300000000000000000000000000000000000000000000008152508261278f90919063ffffffff16565b6121de81612808565b60005b8360c00151518110156122305761221f8460c00151828151811061220857612207614ad0565b5b60200260200101518361285890919063ffffffff16565b80612229906140ba565b90506121e1565b5061223a81612830565b5b806000015160000151915050919050565b6000807f000000000000000000000000000000000000000000000000000000000000000073ffffffffffffffffffffffffffffffffffffffff1663461d27628688600188886040518663ffffffff1660e01b81526004016122b1959493929190614eed565b6020604051808303816000875af11580156122d0573d6000803e3d6000fd5b505050506040513d601f19601f820116820180604052508101906122f491906145c4565b9050807f1131472297a800fee664d1d89cfa8f7676ff07189ecc53f80bbb5f4969099db860405160405180910390a280915050949350505050565b6060600060028360026123429190614f47565b61234c9190614f89565b67ffffffffffffffff81111561236557612364612f13565b5b6040519080825280601f01601f1916602001820160405280156123975781602001600182028036833780820191505090505b5090507f3000000000000000000000000000000000000000000000000000000000000000816000815181106123cf576123ce614ad0565b5b60200101907effffffffffffffffffffffffffffffffffffffffffffffffffffffffffffff1916908160001a9053507f78000000000000000000000000000000000000000000000000000000000000008160018151811061243357612432614ad0565b5b60200101907effffffffffffffffffffffffffffffffffffffffffffffffffffffffffffff1916908160001a905350600060018460026124739190614f47565b61247d9190614f89565b90505b600181111561251d577f3031323334353637383961626364656600000000000000000000000000000000600f8616601081106124bf576124be614ad0565b5b1a60f81b8282815181106124d6576124d5614ad0565b5b60200101907effffffffffffffffffffffffffffffffffffffffffffffffffffffffffffff1916908160001a905350600485901c94508061251690614fbd565b9050612480565b5060008414612561576040517f08c379a000000000000000000000000000000000000000000000000000000000815260040161255890615032565b60405180910390fd5b8091505092915050565b600080600090507a184f03e93ff9f4daa797ed6e38ed64bf6a1f01000000000000000083106125c9577a184f03e93ff9f4daa797ed6e38ed64bf6a1f01000000000000000083816125bf576125be614e92565b5b0492506040810190505b6d04ee2d6d415b85acef81000000008310612606576d04ee2d6d415b85acef810000000083816125fc576125fb614e92565b5b0492506020810190505b662386f26fc10000831061263557662386f26fc10000838161262b5761262a614e92565b5b0492506010810190505b6305f5e100831061265e576305f5e100838161265457612653614e92565b5b0492506008810190505b612710831061268357612710838161267957612678614e92565b5b0492506004810190505b606483106126a6576064838161269c5761269b614e92565b5b0492506002810190505b600a83106126b5576001810190505b80915050919050565b60008151036126f9576040517f22ce3edd00000000000000000000000000000000000000000000000000000000815260040160405180910390fd5b828460000190600281111561271157612710614634565b5b9081600281111561272557612724614634565b5b81525050818460400190600081111561274157612740614634565b5b9081600081111561275557612754614634565b5b8152505080846060018190525050505050565b612770612d85565b61277e816000015183612881565b506000816020018181525050919050565b61279c82600383516128fa565b6127b3818360000151612aa390919063ffffffff16565b505050565b6127da60026005600660ff16901b178360000151612abf90919063ffffffff16565b5061280482826040516020016127f09190612ea7565b604051602081830303815290604052612858565b5050565b612813816004612b29565b6001816020018181516128269190614f89565b9150818152505050565b61283b816007612b29565b60018160200181815161284e91906145f1565b9150818152505050565b61286582600283516128fa565b61287c818360000151612aa390919063ffffffff16565b505050565b612889612da5565b60006020836128989190615052565b146128c4576020826128aa9190615052565b60206128b691906145f1565b826128c19190614f89565b91505b8183602001818152505060405180845260008152828101602001818110156128eb57600080fd5b80604052505082905092915050565b60178167ffffffffffffffff16116129355761292f8160058460ff16901b60ff16178460000151612abf90919063ffffffff16565b50612a9e565b60ff8167ffffffffffffffff161161299357612968601860058460ff16901b178460000151612abf90919063ffffffff16565b5061298d8167ffffffffffffffff1660018560000151612b4f9092919063ffffffff16565b50612a9d565b61ffff8167ffffffffffffffff16116129f2576129c7601960058460ff16901b178460000151612abf90919063ffffffff16565b506129ec8167ffffffffffffffff1660028560000151612b4f9092919063ffffffff16565b50612a9c565b63ffffffff8167ffffffffffffffff1611612a5357612a28601a60058460ff16901b178460000151612abf90919063ffffffff16565b50612a4d8167ffffffffffffffff1660048560000151612b4f9092919063ffffffff16565b50612a9b565b612a74601b60058460ff16901b178460000151612abf90919063ffffffff16565b50612a998167ffffffffffffffff1660088560000151612b4f9092919063ffffffff16565b505b5b5b5b505050565b612aab612da5565b612ab783838451612bdc565b905092915050565b612ac7612da5565b600083600001515190506000600182612ae09190614f89565b905084602001518210612b0457612b0385600283612afe9190614f47565b612cbf565b5b84516020838201018581538151831115612b1c578282525b5050849250505092915050565b612b4a601f60058360ff16901b178360000151612abf90919063ffffffff16565b505050565b612b57612da5565b6000846000015151905060008184612b6f9190614f89565b90508560200151811115612b9457612b9386600283612b8e9190614f47565b612cbf565b5b6000600185610100612ba691906151b6565b612bb091906145f1565b905086518281018783198251161781528151841115612bcd578382525b50508693505050509392505050565b612be4612da5565b8251821115612bf257600080fd5b6000846000015151905060008382612c0a9190614f89565b90508560200151811115612c2f57612c2e86600283612c299190614f47565b612cbf565b5b60008087518051856020830101935080851115612c4a578482525b60208901925050505b60208610612c915780518252602082612c6c9190614f89565b9150602081612c7b9190614f89565b9050602086612c8a91906145f1565b9550612c53565b60006001876020036101000a0390508019825116818451168181178552505050879450505050509392505050565b600082600001519050612cd28383612881565b50612cdd8382612aa3565b50505050565b6040518060400160405280600073ffffffffffffffffffffffffffffffffffffffff168152602001600081525090565b6040518060e0016040528060006002811115612d3257612d31614634565b5b815260200160006002811115612d4b57612d4a614634565b5b8152602001600080811115612d6357612d62614634565b5b8152602001606081526020016060815260200160608152602001606081525090565b6040518060400160405280612d98612da5565b8152602001600081525090565b604051806040016040528060608152602001600081525090565b6000604051905090565b600080fd5b600080fd5b60007fffffffff0000000000000000000000000000000000000000000000000000000082169050919050565b612e0881612dd3565b8114612e1357600080fd5b50565b600081359050612e2581612dff565b92915050565b600060208284031215612e4157612e40612dc9565b5b6000612e4f84828501612e16565b91505092915050565b60008115159050919050565b612e6d81612e58565b82525050565b6000602082019050612e886000830184612e64565b92915050565b6000819050919050565b612ea181612e8e565b82525050565b6000602082019050612ebc6000830184612e98565b92915050565b6000819050919050565b612ed581612ec2565b8114612ee057600080fd5b50565b600081359050612ef281612ecc565b92915050565b600080fd5b600080fd5b6000601f19601f8301169050919050565b7f4e487b7100000000000000000000000000000000000000000000000000000000600052604160045260246000fd5b612f4b82612f02565b810181811067ffffffffffffffff82111715612f6a57612f69612f13565b5b80604052505050565b6000612f7d612dbf565b9050612f898282612f42565b919050565b600067ffffffffffffffff821115612fa957612fa8612f13565b5b612fb282612f02565b9050602081019050919050565b82818337600083830152505050565b6000612fe1612fdc84612f8e565b612f73565b905082815260208101848484011115612ffd57612ffc612efd565b5b613008848285612fbf565b509392505050565b600082601f83011261302557613024612ef8565b5b8135613035848260208601612fce565b91505092915050565b60008060006060848603121561305757613056612dc9565b5b600061306586828701612ee3565b935050602084013567ffffffffffffffff81111561308657613085612dce565b5b61309286828701613010565b925050604084013567ffffffffffffffff8111156130b3576130b2612dce565b5b6130bf86828701613010565b9150509250925092565b600067ffffffffffffffff82169050919050565b6130e6816130c9565b81146130f157600080fd5b50565b600081359050613103816130dd565b92915050565b60006020828403121561311f5761311e612dc9565b5b600061312d848285016130f4565b91505092915050565b600063ffffffff82169050919050565b61314f81613136565b811461315a57600080fd5b50565b60008135905061316c81613146565b92915050565b60006020828403121561318857613187612dc9565b5b60006131968482850161315d565b91505092915050565b600080fd5b600080fd5b600067ffffffffffffffff8211156131c4576131c3612f13565b5b6131cd82612f02565b9050602081019050919050565b60006131ed6131e8846131a9565b612f73565b90508281526020810184848401111561320957613208612efd565b5b613214848285612fbf565b509392505050565b600082601f83011261323157613230612ef8565b5b81356132418482602086016131da565b91505092915050565b600073ffffffffffffffffffffffffffffffffffffffff82169050919050565b60006132758261324a565b9050919050565b6132858161326a565b811461329057600080fd5b50565b6000813590506132a28161327c565b92915050565b6132b181612e8e565b81146132bc57600080fd5b50565b6000813590506132ce816132a8565b92915050565b600060e082840312156132ea576132e961319f565b5b6132f460e0612f73565b9050600082013567ffffffffffffffff811115613314576133136131a4565b5b6133208482850161321c565b600083015250602082013567ffffffffffffffff811115613344576133436131a4565b5b6133508482850161321c565b602083015250604061336484828501613293565b604083015250606082013567ffffffffffffffff811115613388576133876131a4565b5b6133948482850161321c565b60608301525060806133a8848285016132bf565b60808301525060a082013567ffffffffffffffff8111156133cc576133cb6131a4565b5b6133d88482850161321c565b60a08301525060c082013567ffffffffffffffff8111156133fc576133fb6131a4565b5b6134088482850161321c565b60c08301525092915050565b60006020828403121561342a57613429612dc9565b5b600082013567ffffffffffffffff81111561344857613447612dce565b5b613454848285016132d4565b91505092915050565b60006020828403121561347357613472612dc9565b5b600061348184828501612ee3565b91505092915050565b600080fd5b600060a082840312156134a5576134a461348a565b5b81905092915050565b6000602082840312156134c4576134c3612dc9565b5b600082013567ffffffffffffffff8111156134e2576134e1612dce565b5b6134ee8482850161348f565b91505092915050565b60006080828403121561350d5761350c61319f565b5b6135176080612f73565b9050600082013567ffffffffffffffff811115613537576135366131a4565b5b6135438482850161321c565b6000830152506020613557848285016132bf565b602083015250604082013567ffffffffffffffff81111561357b5761357a6131a4565b5b6135878482850161321c565b604083015250606061359b848285016132bf565b60608301525092915050565b6000602082840312156135bd576135bc612dc9565b5b600082013567ffffffffffffffff8111156135db576135da612dce565b5b6135e7848285016134f7565b91505092915050565b60008060008060008060c0878903121561360d5761360c612dc9565b5b600061361b89828a016130f4565b965050602061362c89828a01613293565b955050604061363d89828a01613293565b945050606061364e89828a016132bf565b935050608087013567ffffffffffffffff81111561366f5761366e612dce565b5b61367b89828a0161321c565b92505060a087013567ffffffffffffffff81111561369c5761369b612dce565b5b6136a889828a01613010565b9150509295509295509295565b6136be8161326a565b82525050565b60006020820190506136d960008301846136b5565b92915050565b600080604083850312156136f6576136f5612dc9565b5b6000613704858286016130f4565b925050602061371585828601613293565b9150509250929050565b60006020828403121561373557613734612dc9565b5b600082013567ffffffffffffffff81111561375357613752612dce565b5b61375f8482850161321c565b91505092915050565b6000806040838503121561377f5761377e612dc9565b5b600083013567ffffffffffffffff81111561379d5761379c612dce565b5b6137a98582860161321c565b92505060206137ba85828601613293565b9150509250929050565b600067ffffffffffffffff8211156137df576137de612f13565b5b602082029050602081019050919050565b600080fd5b6000613808613803846137c4565b612f73565b9050808382526020820190506020840283018581111561382b5761382a6137f0565b5b835b8181101561387257803567ffffffffffffffff8111156138505761384f612ef8565b5b80860161385d898261321c565b8552602085019450505060208101905061382d565b5050509392505050565b600082601f83011261389157613890612ef8565b5b81356138a18482602086016137f5565b91505092915050565b600060ff82169050919050565b6138c0816138aa565b81146138cb57600080fd5b50565b6000813590506138dd816138b7565b92915050565b600080600080608085870312156138fd576138fc612dc9565b5b600061390b87828801613293565b945050602085013567ffffffffffffffff81111561392c5761392b612dce565b5b6139388782880161387c565b935050604085013567ffffffffffffffff81111561395957613958612dce565b5b6139658782880161321c565b9250506060613976878288016138ce565b91505092959194509250565b60006020828403121561399857613997612dc9565b5b60006139a684828501613293565b91505092915050565b600082825260208201905092915050565b7f496e76616c696420706c616e0000000000000000000000000000000000000000600082015250565b60006139f6600c836139af565b9150613a01826139c0565b602082019050919050565b60006020820190508181036000830152613a25816139e9565b9050919050565b7f496e73756666696369656e742066756e64730000000000000000000000000000600082015250565b6000613a626012836139af565b9150613a6d82613a2c565b602082019050919050565b60006020820190508181036000830152613a9181613a55565b9050919050565b600081519050919050565b7f4e487b7100000000000000000000000000000000000000000000000000000000600052602260045260246000fd5b60006002820490506001821680613aea57607f821691505b602082108103613afd57613afc613aa3565b5b50919050565b60008190508160005260206000209050919050565b60006020601f8301049050919050565b600082821b905092915050565b600060088302613b657fffffffffffffffffffffffffffffffffffffffffffffffffffffffffffffffff82613b28565b613b6f8683613b28565b95508019841693508086168417925050509392505050565b6000819050919050565b6000613bac613ba7613ba284612e8e565b613b87565b612e8e565b9050919050565b6000819050919050565b613bc683613b91565b613bda613bd282613bb3565b848454613b35565b825550505050565b600090565b613bef613be2565b613bfa818484613bbd565b505050565b5b81811015613c1e57613c13600082613be7565b600181019050613c00565b5050565b601f821115613c6357613c3481613b03565b613c3d84613b18565b81016020851015613c4c578190505b613c60613c5885613b18565b830182613bff565b50505b505050565b600082821c905092915050565b6000613c8660001984600802613c68565b1980831691505092915050565b6000613c9f8383613c75565b9150826002028217905092915050565b613cb882613a98565b67ffffffffffffffff811115613cd157613cd0612f13565b5b613cdb8254613ad2565b613ce6828285613c22565b600060209050601f831160018114613d195760008415613d07578287015190505b613d118582613c93565b865550613d79565b601f198416613d2786613b03565b60005b82811015613d4f57848901518255600182019150602085019450602081019050613d2a565b86831015613d6c5784890151613d68601f891682613c75565b8355505b6001600288020188555050505b505050505050565b60005b83811015613d9f578082015181840152602081019050613d84565b60008484015250505050565b6000613db682613a98565b613dc081856139af565b9350613dd0818560208601613d81565b613dd981612f02565b840191505092915050565b600061010082019050613dfa600083018b6136b5565b8181036020830152613e0c818a613dab565b90508181036040830152613e208189613dab565b90508181036060830152613e348188613dab565b9050613e436080830187612e98565b613e5060a08301866136b5565b81810360c0830152613e628185613dab565b905081810360e0830152613e768184613dab565b90509998505050505050505050565b600067ffffffffffffffff821115613ea057613e9f612f13565b5b602082029050602081019050919050565b600060408284031215613ec757613ec661319f565b5b613ed16040612f73565b90506000613ee184828501613293565b6000830152506020613ef5848285016132bf565b60208301525092915050565b6000613f14613f0f84613e85565b612f73565b90508083825260208201905060408402830185811115613f3757613f366137f0565b5b835b81811015613f605780613f4c8882613eb1565b845260208401935050604081019050613f39565b5050509392505050565b600082601f830112613f7f57613f7e612ef8565b5b8135613f8f848260208601613f01565b91505092915050565b600060a08284031215613fae57613fad61319f565b5b613fb860a0612f73565b90506000613fc884828501612ee3565b6000830152506020613fdc848285016130f4565b602083015250604082013567ffffffffffffffff81111561400057613fff6131a4565b5b61400c84828501613010565b604083015250606082013567ffffffffffffffff8111156140305761402f6131a4565b5b61403c84828501613010565b606083015250608082013567ffffffffffffffff8111156140605761405f6131a4565b5b61406c84828501613f6a565b60808301525092915050565b60006140843683613f98565b9050919050565b7f4e487b7100000000000000000000000000000000000000000000000000000000600052601160045260246000fd5b60006140c582612e8e565b91507fffffffffffffffffffffffffffffffffffffffffffffffffffffffffffffffff82036140f7576140f661408b565b5b600182019050919050565b600060a0820190506141176000830188612e98565b81810360208301526141298187613dab565b90506141386040830186612e98565b818103606083015261414a8185613dab565b90506141596080830184612e98565b9695505050505050565b7f696e76616c6964204b616e766173206665650000000000000000000000000000600082015250565b60006141996012836139af565b91506141a482614163565b602082019050919050565b600060208201905081810360008301526141c88161418c565b9050919050565b7f436861696e206e6f7420737570706f7274656400000000000000000000000000600082015250565b60006142056013836139af565b9150614210826141cf565b602082019050919050565b60006020820190508181036000830152614234816141f8565b9050919050565b600081519050919050565b600082825260208201905092915050565b60006142628261423b565b61426c8185614246565b935061427c818560208601613d81565b61428581612f02565b840191505092915050565b600060a0820190506142a560008301886136b5565b6142b260208301876136b5565b6142bf6040830186612e98565b81810360608301526142d18185613dab565b905081810360808301526142e58184614257565b90509695505050505050565b6142fa816130c9565b82525050565b600082825260208201905092915050565b600061431c8261423b565b6143268185614300565b9350614336818560208601613d81565b61433f81612f02565b840191505092915050565b600081519050919050565b600082825260208201905092915050565b6000819050602082019050919050565b61437f8161326a565b82525050565b61438e81612e8e565b82525050565b6040820160008201516143aa6000850182614376565b5060208201516143bd6020850182614385565b50505050565b60006143cf8383614394565b60408301905092915050565b6000602082019050919050565b60006143f38261434a565b6143fd8185614355565b935061440883614366565b8060005b8381101561443957815161442088826143c3565b975061442b836143db565b92505060018101905061440c565b5085935050505092915050565b600060a08301600083015184820360008601526144638282614311565b9150506020830151848203602086015261447d8282614311565b9150506040830151848203604086015261449782826143e8565b91505060608301516144ac6060860182614376565b50608083015184820360808601526144c48282614311565b9150508091505092915050565b60006040820190506144e660008301856142f1565b81810360208301526144f88184614446565b90509392505050565b600081519050614510816132a8565b92915050565b60006020828403121561452c5761452b612dc9565b5b600061453a84828501614501565b91505092915050565b7f496e73756666696369656e742066656500000000000000000000000000000000600082015250565b60006145796010836139af565b915061458482614543565b602082019050919050565b600060208201905081810360008301526145a88161456c565b9050919050565b6000815190506145be81612ecc565b92915050565b6000602082840312156145da576145d9612dc9565b5b60006145e8848285016145af565b91505092915050565b60006145fc82612e8e565b915061460783612e8e565b925082820390508181111561461f5761461e61408b565b5b92915050565b61462e81612ec2565b82525050565b7f4e487b7100000000000000000000000000000000000000000000000000000000600052602160045260246000fd5b6004811061467457614673614634565b5b50565b600081905061468582614663565b919050565b600061469582614677565b9050919050565b6146a58161468a565b82525050565b600060a0820190506146c06000830188614625565b6146cd60208301876136b5565b6146da60408301866136b5565b6146e7606083018561469c565b81810360808301526146f98184614257565b90509695505050505050565b7f556e417574686f72697a65640000000000000000000000000000000000000000600082015250565b600061473b600c836139af565b915061474682614705565b602082019050919050565b6000602082019050818103600083015261476a8161472e565b9050919050565b600060408201905061478660008301856136b5565b81810360208301526147988184613dab565b90509392505050565b7f546f6f206d616e79206174747269627574657300000000000000000000000000600082015250565b60006147d76013836139af565b91506147e2826147a1565b602082019050919050565b60006020820190508181036000830152614806816147ca565b9050919050565b7f47616d65204e6f7420466f756e64000000000000000000000000000000000000600082015250565b6000614843600e836139af565b915061484e8261480d565b602082019050919050565b6000602082019050818103600083015261487281614836565b9050919050565b600081519050919050565b600082825260208201905092915050565b6000819050602082019050919050565b600082825260208201905092915050565b60006148c182613a98565b6148cb81856148a5565b93506148db818560208601613d81565b6148e481612f02565b840191505092915050565b60006148fb83836148b6565b905092915050565b6000602082019050919050565b600061491b82614879565b6149258185614884565b93508360208202850161493785614895565b8060005b85811015614973578484038952815161495485826148ef565b945061495f83614903565b925060208a0199505060018101905061493b565b50829750879550505050505092915050565b600082825260208201905092915050565b7f2c00000000000000000000000000000000000000000000000000000000000000600082015250565b60006149cc600183614985565b91506149d782614996565b602082019050919050565b600060408201905081810360008301526149fc8184614910565b90508181036020830152614a0f816149bf565b905092915050565b6000614a2a614a25846131a9565b612f73565b905082815260208101848484011115614a4657614a45612efd565b5b614a51848285613d81565b509392505050565b600082601f830112614a6e57614a6d612ef8565b5b8151614a7e848260208601614a17565b91505092915050565b600060208284031215614a9d57614a9c612dc9565b5b600082015167ffffffffffffffff811115614abb57614aba612dce565b5b614ac784828501614a59565b91505092915050565b7f4e487b7100000000000000000000000000000000000000000000000000000000600052603260045260246000fd5b7f4f776e61626c653a206e6577206f776e657220697320746865207a65726f206160008201527f6464726573730000000000000000000000000000000000000000000000000000602082015250565b6000614b5b6026836139af565b9150614b6682614aff565b604082019050919050565b60006020820190508181036000830152614b8a81614b4e565b9050919050565b7f416c72656164792066756c66696c6c6564000000000000000000000000000000600082015250565b6000614bc76011836139af565b9150614bd282614b91565b602082019050919050565b60006020820190508181036000830152614bf681614bba565b9050919050565b7f4f776e61626c653a2063616c6c6572206973206e6f7420746865206f776e6572600082015250565b6000614c336020836139af565b9150614c3e82614bfd565b602082019050919050565b60006020820190508181036000830152614c6281614c26565b9050919050565b6000614c748261324a565b9050919050565b614c8481614c69565b8114614c8f57600080fd5b50565b600081519050614ca181614c7b565b92915050565b6000614cba614cb584612f8e565b612f73565b905082815260208101848484011115614cd657614cd5612efd565b5b614ce1848285613d81565b509392505050565b600082601f830112614cfe57614cfd612ef8565b5b8151614d0e848260208601614ca7565b91505092915050565b600080600080600060a08688031215614d3357614d32612dc9565b5b6000614d4188828901614c92565b9550506020614d5288828901614c92565b9450506040614d6388828901614501565b935050606086015167ffffffffffffffff811115614d8457614d83612dce565b5b614d9088828901614a59565b925050608086015167ffffffffffffffff811115614db157614db0612dce565b5b614dbd88828901614ce9565b9150509295509295909350565b600060c082019050614ddf60008301896142f1565b614dec60208301886136b5565b614df960408301876136b5565b614e066060830186612e98565b8181036080830152614e188185613dab565b905081810360a0830152614e2c8184614257565b9050979650505050505050565b614e4281612e58565b82525050565b604082016000820151614e5e6000850182614385565b506020820151614e716020850182614e39565b50505050565b6000604082019050614e8c6000830184614e48565b92915050565b7f4e487b7100000000000000000000000000000000000000000000000000000000600052601260045260246000fd5b600061ffff82169050919050565b614ed881614ec1565b82525050565b614ee781613136565b82525050565b600060a082019050614f0260008301886142f1565b8181036020830152614f148187614257565b9050614f236040830186614ecf565b614f306060830185614ede565b614f3d6080830184614625565b9695505050505050565b6000614f5282612e8e565b9150614f5d83612e8e565b9250828202614f6b81612e8e565b91508282048414831517614f8257614f8161408b565b5b5092915050565b6000614f9482612e8e565b9150614f9f83612e8e565b9250828201905080821115614fb757614fb661408b565b5b92915050565b6000614fc882612e8e565b915060008203614fdb57614fda61408b565b5b600182039050919050565b7f537472696e67733a20686578206c656e67746820696e73756666696369656e74600082015250565b600061501c6020836139af565b915061502782614fe6565b602082019050919050565b6000602082019050818103600083015261504b8161500f565b9050919050565b600061505d82612e8e565b915061506883612e8e565b92508261507857615077614e92565b5b828206905092915050565b60008160011c9050919050565b6000808291508390505b60018511156150da578086048111156150b6576150b561408b565b5b60018516156150c55780820291505b80810290506150d385615083565b945061509a565b94509492505050565b6000826150f357600190506151af565b8161510157600090506151af565b8160018114615117576002811461512157615150565b60019150506151af565b60ff8411156151335761513261408b565b5b8360020a91508482111561514a5761514961408b565b5b506151af565b5060208310610133831016604e8410600b84101617156151855782820a9050838111156151805761517f61408b565b5b6151af565b6151928484846001615090565b925090508184048111156151a9576151a861408b565b5b81810290505b9392505050565b60006151c182612e8e565b91506151cc83612e8e565b92506151f97fffffffffffffffffffffffffffffffffffffffffffffffffffffffffffffffff84846150e3565b90509291505056fea2646970667358221220f28857a1c0dd2b14809e8b1da43705b6145cbe14aab06b45375c1615d61da5aa64736f6c63430008130033",
  "immutableReferences": {
    "14": [
      {
        "length": 32,
        "start": 2261
      },
      {
        "length": 32,
        "start": 3993
      }
    ],
    "6667": [
      {
        "length": 32,
        "start": 1328
      },
      {
        "length": 32,
        "start": 8785
      }
    ]
  },
  "source": "// SPDX-License-Identifier: MIT\r\npragma solidity ^0.8.19;\r\n\r\nimport {Assets} from \"./libraries/Assets.sol\";\r\nimport {Params} from \"./libraries/Params.sol\";\r\nimport {IKanvasAvax} from \"./interfaces/IKanvasAvax.sol\";\r\nimport {IKanvasGame} from \"./interfaces/IKanvasGame.sol\";\r\nimport {IKanvasInteropGame} from \"./interfaces/IKanvasInteropGame.sol\";\r\nimport {StringJoiner} from \"./libraries/StringJoiner.sol\";\r\n\r\nimport {Strings} from \"@openzeppelin/contracts/utils/Strings.sol\";\r\nimport {Ownable} from \"@openzeppelin/contracts/access/Ownable.sol\";\r\nimport {Context} from \"@openzeppelin/contracts/utils/Context.sol\";\r\n\r\nimport {FunctionsClient} from \"./chainlink/FunctionsClient.sol\";\r\nimport {FunctionsRequest} from \"@chainlink/contracts/src/v0.8/functions/dev/v1_0_0/libraries/FunctionsRequest.sol\";\r\n\r\nimport {Client} from \"@chainlink/contracts-ccip/src/v0.8/ccip/libraries/Client.sol\";\r\nimport {CCIPReceiver} from \"@chainlink/contracts-ccip/src/v0.8/ccip/applications/CCIPReceiver.sol\";\r\nimport {IRouterClient} from \"@chainlink/contracts-ccip/src/v0.8/ccip/interfaces/IRouterClient.sol\";\r\n\r\ncontract KanvasAvax is\r\n    IKanvasAvax,\r\n    Context,\r\n    CCIPReceiver,\r\n    FunctionsClient,\r\n    Ownable\r\n{\r\n    using FunctionsRequest for FunctionsRequest.Request;\r\n\r\n    uint256 public constant MAX_PROPERTIES_LEN = 20;\r\n\r\n    // Javascript Chainlink functions source code\r\n    string private _sourceCode;\r\n\r\n    // Chainlink functions fulfill callback gas limit\r\n    uint32 private _gasLimit = 300_000;\r\n\r\n    // Chainlink Avalanche Subscription Id\r\n    uint64 private _subscriptionId = 1580;\r\n\r\n    // Chainlink Avalache DON Id\r\n    bytes32 private _donId =\r\n        0x66756e2d6176616c616e6368652d66756a692d31000000000000000000000000;\r\n\r\n    // for testing purpose the generation fee is free\r\n    uint256 private _kanvasGenerateFee = 0; // 3000000000000000\r\n\r\n    // for testing purpose the bridge fee is free\r\n    uint256 private _kanvasBridgeFee = 0; // 8000000000000000\r\n\r\n    uint256 private _planId;\r\n    mapping(uint256 => Assets.Plan) private _plans;\r\n\r\n    mapping(address => Assets.Game) private _games;\r\n\r\n    mapping(bytes32 => Assets.Request) private _requests;\r\n\r\n    mapping(uint64 => address) private _interops;\r\n\r\n    IRouterClient private _router;\r\n\r\n    constructor(\r\n        address ccipReceiver,\r\n        address functionOracle\r\n    ) CCIPReceiver(ccipReceiver) Ownable() FunctionsClient(functionOracle) {\r\n        _router = IRouterClient(getRouter());\r\n    }\r\n\r\n    function updateDonId(bytes32 newDonId) external onlyOwner {\r\n        _donId = newDonId;\r\n    }\r\n\r\n    function updateSourceCode(string memory newSourceCode) external onlyOwner {\r\n        _sourceCode = newSourceCode;\r\n    }\r\n\r\n    function updateGasLimit(uint32 newLimit) external onlyOwner {\r\n        _gasLimit = newLimit;\r\n    }\r\n\r\n    function updateSubscriptionId(uint64 newSubscriptionId) external onlyOwner {\r\n        _subscriptionId = newSubscriptionId;\r\n    }\r\n\r\n    function depositEth() external payable {}\r\n\r\n    function createGame(Params.Game memory params) external payable {\r\n        require(_plans[params.plan].limit != 0, \"Invalid plan\");\r\n        require(msg.value == _plans[params.plan].cost, \"Insufficient funds\");\r\n\r\n        _games[params.gameId] = Assets.Game({\r\n            name: params.name,\r\n            description: params.description,\r\n            avatar: params.avatar,\r\n            plan: params.plan,\r\n            creator: _msgSender()\r\n        });\r\n\r\n        emit GameCreated(\r\n            params.gameId,\r\n            params.name,\r\n            params.description,\r\n            params.avatar,\r\n            params.plan,\r\n            _msgSender(),\r\n            params.email,\r\n            params.website\r\n        );\r\n    }\r\n\r\n    function addTemplate(string memory templateUri, address gameId) external {\r\n        address creator = _msgSender();\r\n\r\n        Assets.Game storage game = _games[gameId];\r\n\r\n        require(game.creator == creator, \"UnAuthorized\");\r\n\r\n        emit TemplateAdded(gameId, templateUri);\r\n    }\r\n\r\n    function _generateUri(\r\n        address playerId,\r\n        string[] memory props,\r\n        string memory fields,\r\n        uint8 templateId\r\n    ) external payable override {\r\n        require(msg.value == _kanvasGenerateFee, \"invalid Kanvas fee\");\r\n        require(props.length <= MAX_PROPERTIES_LEN, \"Too many attributes\");\r\n\r\n        address gameId = _msgSender();\r\n        require(_games[gameId].creator != address(0), \"Game Not Found\");\r\n\r\n        string[] memory args = new string[](5);\r\n        args[0] = StringJoiner.joinStrings(props, \",\");\r\n        args[1] = fields;\r\n        args[2] = Strings.toHexString(gameId);\r\n        args[3] = Strings.toHexString(playerId);\r\n        args[4] = Strings.toString(templateId);\r\n\r\n        // Initialize the request\r\n        FunctionsRequest.Request memory req;\r\n\r\n        // Soucre code\r\n        req.initializeRequestForInlineJavaScript(_sourceCode);\r\n\r\n        // Add arguments\r\n        req.setArgs(args);\r\n\r\n        bytes32 requestId = _sendRequest(\r\n            req.encodeCBOR(),\r\n            _subscriptionId,\r\n            _gasLimit,\r\n            _donId\r\n        );\r\n\r\n        _requests[requestId] = Assets.Request({\r\n            gameId: gameId,\r\n            playerId: playerId,\r\n            fulfilled: false\r\n        });\r\n\r\n        emit GameEvent(\r\n            requestId,\r\n            gameId,\r\n            playerId,\r\n            Assets.EventType.GENERATE_URI,\r\n            bytes(fields)\r\n        );\r\n    }\r\n\r\n    function updateInterop(\r\n        uint64 chainSelector,\r\n        address kanvasRouter\r\n    ) external onlyOwner {\r\n        _interops[chainSelector] = kanvasRouter;\r\n    }\r\n\r\n    /** Receive the response in the form of string  */\r\n    function fulfillRequest(\r\n        bytes32 requestId,\r\n        bytes memory response,\r\n        bytes memory err\r\n    ) internal override {\r\n        Assets.Request storage request = _requests[requestId];\r\n        require(!request.fulfilled, \"Already fulfilled\");\r\n\r\n        if (err.length > 0) {\r\n            emit GameEvent(\r\n                requestId,\r\n                request.gameId,\r\n                request.playerId,\r\n                Assets.EventType.RECEIVE_URI,\r\n                err\r\n            );\r\n            return;\r\n        }\r\n\r\n        request.fulfilled = true;\r\n\r\n        require(_games[request.gameId].creator != address(0), \"Game Not Found\");\r\n\r\n        IKanvasGame game = IKanvasGame(request.gameId);\r\n        game._receiveUri(request.playerId, string(response));\r\n\r\n        emit GameEvent(\r\n            requestId,\r\n            request.gameId,\r\n            request.playerId,\r\n            Assets.EventType.RECEIVE_URI,\r\n            response\r\n        );\r\n    }\r\n\r\n    function _transferTo(\r\n        uint64 chainSelector,\r\n        address gameId,\r\n        address playerId,\r\n        uint256 tokenId,\r\n        string memory uri,\r\n        bytes memory data\r\n    ) external payable {\r\n        require(msg.value == _kanvasBridgeFee, \"invalid Kanvas fee\");\r\n        require(_interops[chainSelector] != address(0), \"Chain not supported\");\r\n\r\n        // Create an EVM2AnyMessage struct in memory with necessary information for sending a cross-chain message\r\n        Client.EVM2AnyMessage memory message = Client.EVM2AnyMessage({\r\n            // ABI-encoded receiver address\r\n            receiver: abi.encode(_interops[chainSelector]),\r\n            // ABI-encoded string message\r\n            data: abi.encode(gameId, playerId, tokenId, uri, data),\r\n            // Empty array indicating no tokens are being sent\r\n            tokenAmounts: new Client.EVMTokenAmount[](0),\r\n            // Additional arguments, setting gas limit and non-strict sequency mode\r\n            extraArgs: Client._argsToBytes(\r\n                Client.EVMExtraArgsV1({gasLimit: 2_000_000, strict: false})\r\n            ),\r\n            // Setting feeToken to zero address, indicating native asset will be used for fees\r\n            feeToken: address(0)\r\n        });\r\n\r\n        // Get the fee required to send the message\r\n        uint256 fees = _router.getFee(chainSelector, message);\r\n\r\n        require(msg.value >= fees, \"Insufficient fee\");\r\n\r\n        // Send the message through the router and store the returned message ID\r\n        bytes32 messageId = _router.ccipSend{value: fees}(\r\n            chainSelector,\r\n            message\r\n        );\r\n\r\n        uint256 overspent = msg.value - fees;\r\n\r\n        if (overspent > 0) {\r\n            address payable receiver = payable(gameId);\r\n            receiver.transfer(overspent);\r\n        }\r\n\r\n        emit GameEvent(\r\n            messageId,\r\n            gameId,\r\n            playerId,\r\n            Assets.EventType.TRANSFER_TO,\r\n            message.data\r\n        );\r\n    }\r\n\r\n    // handle a received message\r\n    function _ccipReceive(\r\n        Client.Any2EVMMessage memory message\r\n    ) internal override {\r\n        (\r\n            address gameId,\r\n            address playerId,\r\n            uint256 tokenId,\r\n            string memory uri,\r\n            bytes memory data\r\n        ) = abi.decode(\r\n                message.data,\r\n                (address, address, uint256, string, bytes)\r\n            );\r\n\r\n        IKanvasInteropGame game = IKanvasInteropGame(gameId);\r\n        game._receiveFrom(\r\n            message.sourceChainSelector,\r\n            gameId,\r\n            playerId,\r\n            tokenId,\r\n            uri,\r\n            data\r\n        );\r\n\r\n        emit GameEvent(\r\n            message.messageId,\r\n            gameId,\r\n            playerId,\r\n            Assets.EventType.RECEIVE_FROM,\r\n            message.data\r\n        );\r\n    }\r\n\r\n    function _generateFee() external view override returns (uint256) {\r\n        return _kanvasGenerateFee;\r\n    }\r\n\r\n    function _bridgeFee() external view override returns (uint256) {\r\n        return _kanvasBridgeFee;\r\n    }\r\n\r\n    /** Create plans */\r\n    function createPlan(Params.Plan memory params) external onlyOwner {\r\n        _planId++;\r\n\r\n        _plans[_planId] = Assets.Plan({\r\n            name: params.name,\r\n            cost: params.cost,\r\n            color: params.color,\r\n            limit: params.limit\r\n        });\r\n\r\n        emit PlanCreated(\r\n            _planId,\r\n            params.name,\r\n            params.cost,\r\n            params.color,\r\n            params.limit\r\n        );\r\n    }\r\n}\r\n",
  "sourcePath": "C:\\Users\\DELL\\Documents\\kanvas\\blockchain\\contracts\\KanvasAvax.sol",
  "compiler": {
    "name": "solc",
    "version": "0.8.19+commit.7dd6d404.Emscripten.clang"
  },
  "schemaVersion": "3.4.11",
  "updatedAt": "2023-12-09T19:08:26.745Z",
  "devdoc": {
    "kind": "dev",
    "methods": {
      "ccipReceive((bytes32,uint64,bytes,bytes,(address,uint256)[]))": {
        "details": "Note ensure you check the msg.sender is the OffRampRouter",
        "params": {
          "message": "CCIP Message"
        }
      },
      "getRouter()": {
        "returns": {
          "_0": "i_router address"
        }
      },
      "handleOracleFulfillment(bytes32,bytes,bytes)": {
        "details": "Either response or error parameter will be set, but never both.",
        "params": {
          "err": "Aggregated error either from the request's source code or from the execution pipeline.",
          "requestId": "The requestId returned by FunctionsClient.sendRequest().",
          "response": "Aggregated response from the request's source code."
        }
      },
      "owner()": {
        "details": "Returns the address of the current owner."
      },
      "renounceOwnership()": {
        "details": "Leaves the contract without owner. It will not be possible to call `onlyOwner` functions. Can only be called by the current owner. NOTE: Renouncing ownership will leave the contract without an owner, thereby disabling any functionality that is only available to the owner."
      },
      "supportsInterface(bytes4)": {
        "params": {
          "interfaceId": "The interfaceId to check"
        },
        "returns": {
          "_0": "true if the interfaceId is supported"
        }
      },
      "transferOwnership(address)": {
        "details": "Transfers ownership of the contract to a new account (`newOwner`). Can only be called by the current owner."
      }
    },
    "version": 1
  },
  "userdoc": {
    "kind": "user",
    "methods": {
      "ccipReceive((bytes32,uint64,bytes,bytes,(address,uint256)[]))": {
        "notice": "Called by the Router to deliver a message. If this reverts, any token transfers also revert. The message will move to a FAILED state and become available for manual execution."
      },
      "createPlan((string,uint256,string,uint256))": {
        "notice": "Create plans "
      },
      "getRouter()": {
        "notice": "Return the current router"
      },
      "handleOracleFulfillment(bytes32,bytes,bytes)": {
        "notice": "Chainlink Functions response handler called by the Functions Router during fullilment from the designated transmitter node in an OCR round."
      },
      "supportsInterface(bytes4)": {
        "notice": "IERC165 supports an interfaceId"
      }
    },
    "version": 1
  }
}