{
  "contractName": "KanvasAvax",
  "abi": [
    {
      "inputs": [
        {
          "internalType": "address",
          "name": "ccipReceiver",
          "type": "address"
        },
        {
          "internalType": "address",
          "name": "functionOracle",
          "type": "address"
        }
      ],
      "stateMutability": "nonpayable",
      "type": "constructor"
    },
    {
      "inputs": [],
      "name": "EmptyArgs",
      "type": "error"
    },
    {
      "inputs": [],
      "name": "EmptySource",
      "type": "error"
    },
    {
      "inputs": [
        {
          "internalType": "address",
          "name": "router",
          "type": "address"
        }
      ],
      "name": "InvalidRouter",
      "type": "error"
    },
    {
      "inputs": [],
      "name": "NoInlineSecrets",
      "type": "error"
    },
    {
      "inputs": [],
      "name": "OnlyRouterCanFulfill",
      "type": "error"
    },
    {
      "anonymous": false,
      "inputs": [
        {
          "indexed": false,
          "internalType": "bytes32",
          "name": "requestId",
          "type": "bytes32"
        },
        {
          "indexed": false,
          "internalType": "bytes",
          "name": "err",
          "type": "bytes"
        }
      ],
      "name": "FulfullFailed",
      "type": "event"
    },
    {
      "anonymous": false,
      "inputs": [
        {
          "indexed": false,
          "internalType": "bytes32",
          "name": "requestId",
          "type": "bytes32"
        },
        {
          "indexed": false,
          "internalType": "bytes",
          "name": "response",
          "type": "bytes"
        }
      ],
      "name": "FulfullSuccess",
      "type": "event"
    },
    {
      "anonymous": false,
      "inputs": [
        {
          "indexed": false,
          "internalType": "address",
          "name": "gameId",
          "type": "address"
        },
        {
          "indexed": false,
          "internalType": "string",
          "name": "name",
          "type": "string"
        },
        {
          "indexed": false,
          "internalType": "string",
          "name": "description",
          "type": "string"
        },
        {
          "indexed": false,
          "internalType": "string",
          "name": "avatar",
          "type": "string"
        },
        {
          "indexed": false,
          "internalType": "uint256",
          "name": "plan",
          "type": "uint256"
        },
        {
          "indexed": false,
          "internalType": "address",
          "name": "creator",
          "type": "address"
        },
        {
          "indexed": false,
          "internalType": "string",
          "name": "email",
          "type": "string"
        },
        {
          "indexed": false,
          "internalType": "string",
          "name": "website",
          "type": "string"
        }
      ],
      "name": "GameCreated",
      "type": "event"
    },
    {
      "anonymous": false,
      "inputs": [
        {
          "indexed": true,
          "internalType": "bytes32",
          "name": "requestId",
          "type": "bytes32"
        },
        {
          "indexed": false,
          "internalType": "bytes",
          "name": "result",
          "type": "bytes"
        },
        {
          "indexed": false,
          "internalType": "bytes",
          "name": "err",
          "type": "bytes"
        }
      ],
      "name": "OCRResponse",
      "type": "event"
    },
    {
      "anonymous": false,
      "inputs": [
        {
          "indexed": true,
          "internalType": "address",
          "name": "previousOwner",
          "type": "address"
        },
        {
          "indexed": true,
          "internalType": "address",
          "name": "newOwner",
          "type": "address"
        }
      ],
      "name": "OwnershipTransferred",
      "type": "event"
    },
    {
      "anonymous": false,
      "inputs": [
        {
          "indexed": false,
          "internalType": "uint256",
          "name": "planId",
          "type": "uint256"
        },
        {
          "indexed": false,
          "internalType": "string",
          "name": "name",
          "type": "string"
        },
        {
          "indexed": false,
          "internalType": "uint256",
          "name": "cost",
          "type": "uint256"
        },
        {
          "indexed": false,
          "internalType": "string",
          "name": "color",
          "type": "string"
        },
        {
          "indexed": false,
          "internalType": "uint256",
          "name": "limit",
          "type": "uint256"
        }
      ],
      "name": "PlanCreated",
      "type": "event"
    },
    {
      "anonymous": false,
      "inputs": [
        {
          "indexed": true,
          "internalType": "bytes32",
          "name": "id",
          "type": "bytes32"
        }
      ],
      "name": "RequestFulfilled",
      "type": "event"
    },
    {
      "anonymous": false,
      "inputs": [
        {
          "indexed": true,
          "internalType": "bytes32",
          "name": "id",
          "type": "bytes32"
        }
      ],
      "name": "RequestSent",
      "type": "event"
    },
    {
      "anonymous": false,
      "inputs": [
        {
          "indexed": false,
          "internalType": "bytes32",
          "name": "requestId",
          "type": "bytes32"
        },
        {
          "indexed": false,
          "internalType": "address",
          "name": "gameId",
          "type": "address"
        }
      ],
      "name": "RequestSent",
      "type": "event"
    },
    {
      "anonymous": false,
      "inputs": [
        {
          "indexed": false,
          "internalType": "address",
          "name": "gameId",
          "type": "address"
        },
        {
          "indexed": false,
          "internalType": "string",
          "name": "templateUri",
          "type": "string"
        }
      ],
      "name": "TemplateAdded",
      "type": "event"
    },
    {
      "inputs": [],
      "name": "MAX_PROPERTIES_LEN",
      "outputs": [
        {
          "internalType": "uint256",
          "name": "",
          "type": "uint256"
        }
      ],
      "stateMutability": "view",
      "type": "function"
    },
    {
      "inputs": [],
      "name": "MAX_TEMPLATES_LEN",
      "outputs": [
        {
          "internalType": "uint256",
          "name": "",
          "type": "uint256"
        }
      ],
      "stateMutability": "view",
      "type": "function"
    },
    {
      "inputs": [
        {
          "components": [
            {
              "internalType": "bytes32",
              "name": "messageId",
              "type": "bytes32"
            },
            {
              "internalType": "uint64",
              "name": "sourceChainSelector",
              "type": "uint64"
            },
            {
              "internalType": "bytes",
              "name": "sender",
              "type": "bytes"
            },
            {
              "internalType": "bytes",
              "name": "data",
              "type": "bytes"
            },
            {
              "components": [
                {
                  "internalType": "address",
                  "name": "token",
                  "type": "address"
                },
                {
                  "internalType": "uint256",
                  "name": "amount",
                  "type": "uint256"
                }
              ],
              "internalType": "struct Client.EVMTokenAmount[]",
              "name": "destTokenAmounts",
              "type": "tuple[]"
            }
          ],
          "internalType": "struct Client.Any2EVMMessage",
          "name": "message",
          "type": "tuple"
        }
      ],
      "name": "ccipReceive",
      "outputs": [],
      "stateMutability": "nonpayable",
      "type": "function"
    },
    {
      "inputs": [],
      "name": "getRouter",
      "outputs": [
        {
          "internalType": "address",
          "name": "",
          "type": "address"
        }
      ],
      "stateMutability": "view",
      "type": "function"
    },
    {
      "inputs": [
        {
          "internalType": "bytes32",
          "name": "requestId",
          "type": "bytes32"
        },
        {
          "internalType": "bytes",
          "name": "response",
          "type": "bytes"
        },
        {
          "internalType": "bytes",
          "name": "err",
          "type": "bytes"
        }
      ],
      "name": "handleOracleFulfillment",
      "outputs": [],
      "stateMutability": "nonpayable",
      "type": "function"
    },
    {
      "inputs": [],
      "name": "owner",
      "outputs": [
        {
          "internalType": "address",
          "name": "",
          "type": "address"
        }
      ],
      "stateMutability": "view",
      "type": "function"
    },
    {
      "inputs": [],
      "name": "renounceOwnership",
      "outputs": [],
      "stateMutability": "nonpayable",
      "type": "function"
    },
    {
      "inputs": [
        {
          "internalType": "bytes4",
          "name": "interfaceId",
          "type": "bytes4"
        }
      ],
      "name": "supportsInterface",
      "outputs": [
        {
          "internalType": "bool",
          "name": "",
          "type": "bool"
        }
      ],
      "stateMutability": "pure",
      "type": "function"
    },
    {
      "inputs": [
        {
          "internalType": "address",
          "name": "newOwner",
          "type": "address"
        }
      ],
      "name": "transferOwnership",
      "outputs": [],
      "stateMutability": "nonpayable",
      "type": "function"
    },
    {
      "inputs": [
        {
          "internalType": "bytes32",
          "name": "newDonId",
          "type": "bytes32"
        }
      ],
      "name": "updateDonId",
      "outputs": [],
      "stateMutability": "nonpayable",
      "type": "function"
    },
    {
      "inputs": [
        {
          "internalType": "string",
          "name": "newSourceCode",
          "type": "string"
        }
      ],
      "name": "updateSourceCode",
      "outputs": [],
      "stateMutability": "nonpayable",
      "type": "function"
    },
    {
      "inputs": [
        {
          "internalType": "uint32",
          "name": "newLimit",
          "type": "uint32"
        }
      ],
      "name": "updateGasLimit",
      "outputs": [],
      "stateMutability": "nonpayable",
      "type": "function"
    },
    {
      "inputs": [
        {
          "internalType": "uint64",
          "name": "newSubscriptionId",
          "type": "uint64"
        }
      ],
      "name": "updateSubscriptionId",
      "outputs": [],
      "stateMutability": "nonpayable",
      "type": "function"
    },
    {
      "inputs": [
        {
          "components": [
            {
              "internalType": "string",
              "name": "name",
              "type": "string"
            },
            {
              "internalType": "string",
              "name": "description",
              "type": "string"
            },
            {
              "internalType": "address",
              "name": "gameId",
              "type": "address"
            },
            {
              "internalType": "string",
              "name": "avatar",
              "type": "string"
            },
            {
              "internalType": "uint256",
              "name": "plan",
              "type": "uint256"
            },
            {
              "internalType": "string",
              "name": "email",
              "type": "string"
            },
            {
              "internalType": "string",
              "name": "website",
              "type": "string"
            }
          ],
          "internalType": "struct Params.Game",
          "name": "params",
          "type": "tuple"
        }
      ],
      "name": "createGame",
      "outputs": [],
      "stateMutability": "payable",
      "type": "function"
    },
    {
      "inputs": [
        {
          "internalType": "string",
          "name": "templateUri",
          "type": "string"
        },
        {
          "internalType": "address",
          "name": "gameId",
          "type": "address"
        }
      ],
      "name": "addTemplate",
      "outputs": [],
      "stateMutability": "nonpayable",
      "type": "function"
    },
    {
      "inputs": [
        {
          "internalType": "address",
          "name": "playerId",
          "type": "address"
        },
        {
          "internalType": "string[]",
          "name": "props",
          "type": "string[]"
        },
        {
          "internalType": "string",
          "name": "fields",
          "type": "string"
        },
        {
          "internalType": "uint8",
          "name": "templateId",
          "type": "uint8"
        }
      ],
      "name": "_generateUri",
      "outputs": [],
      "stateMutability": "nonpayable",
      "type": "function"
    },
    {
      "inputs": [
        {
          "internalType": "uint64",
          "name": "chainSelector",
          "type": "uint64"
        },
        {
          "internalType": "address",
          "name": "kanvasRouter",
          "type": "address"
        }
      ],
      "name": "updateInterop",
      "outputs": [],
      "stateMutability": "nonpayable",
      "type": "function"
    },
    {
      "inputs": [
        {
          "internalType": "uint64",
          "name": "chainSelector",
          "type": "uint64"
        },
        {
          "internalType": "address",
          "name": "gameId",
          "type": "address"
        },
        {
          "internalType": "address",
          "name": "playerId",
          "type": "address"
        },
        {
          "internalType": "uint256",
          "name": "tokenId",
          "type": "uint256"
        },
        {
          "internalType": "string",
          "name": "uri",
          "type": "string"
        },
        {
          "internalType": "bytes",
          "name": "data",
          "type": "bytes"
        }
      ],
      "name": "_transferTo",
      "outputs": [],
      "stateMutability": "payable",
      "type": "function"
    },
    {
      "inputs": [
        {
          "components": [
            {
              "internalType": "string",
              "name": "name",
              "type": "string"
            },
            {
              "internalType": "uint256",
              "name": "cost",
              "type": "uint256"
            },
            {
              "internalType": "string",
              "name": "color",
              "type": "string"
            },
            {
              "internalType": "uint256",
              "name": "limit",
              "type": "uint256"
            }
          ],
          "internalType": "struct Params.Plan",
          "name": "params",
          "type": "tuple"
        }
      ],
      "name": "createPlan",
      "outputs": [],
      "stateMutability": "nonpayable",
      "type": "function"
    }
  ],
  "bytecode": "0x60c0604052620493e0600260006101000a81548163ffffffff021916908363ffffffff16021790555061062c600260046101000a81548167ffffffffffffffff021916908367ffffffffffffffff1602179055507f66756e2d6176616c616e6368652d66756a692d3100000000000000000000000060001b6003553480156200008757600080fd5b506040516200537d3803806200537d8339818101604052810190620000ad919062000346565b8082600073ffffffffffffffffffffffffffffffffffffffff168173ffffffffffffffffffffffffffffffffffffffff1603620001245760006040517fd7f733340000000000000000000000000000000000000000000000000000000081526004016200011b91906200039e565b60405180910390fd5b8073ffffffffffffffffffffffffffffffffffffffff1660808173ffffffffffffffffffffffffffffffffffffffff1681525050508073ffffffffffffffffffffffffffffffffffffffff1660a08173ffffffffffffffffffffffffffffffffffffffff168152505050620001ae620001a26200020660201b60201c565b6200020e60201b60201c565b620001be620002d260201b60201c565b600960006101000a81548173ffffffffffffffffffffffffffffffffffffffff021916908373ffffffffffffffffffffffffffffffffffffffff1602179055505050620003bb565b600033905090565b60008060009054906101000a900473ffffffffffffffffffffffffffffffffffffffff169050816000806101000a81548173ffffffffffffffffffffffffffffffffffffffff021916908373ffffffffffffffffffffffffffffffffffffffff1602179055508173ffffffffffffffffffffffffffffffffffffffff168173ffffffffffffffffffffffffffffffffffffffff167f8be0079c531659141344cd1fd0a4f28419497f9722a3daafe3b4186f6b6457e060405160405180910390a35050565b6000608051905090565b600080fd5b600073ffffffffffffffffffffffffffffffffffffffff82169050919050565b60006200030e82620002e1565b9050919050565b620003208162000301565b81146200032c57600080fd5b50565b600081519050620003408162000315565b92915050565b6000806040838503121562000360576200035f620002dc565b5b600062000370858286016200032f565b925050602062000383858286016200032f565b9150509250929050565b620003988162000301565b82525050565b6000602082019050620003b560008301846200038d565b92915050565b60805160a051614f8e620003ef600039600081816104e801526120260152600081816108810152610e610152614f8e6000f3fe6080604052600436106101145760003560e01c80638cd176d5116100a0578063b3285e3211610064578063b3285e3214610345578063dd3fac7c1461036e578063dff0ee4114610397578063eee6e573146103c2578063f2fde38b146103eb57610114565b80638cd176d5146102815780638d6dc0eb146102aa5780638da5cb5b146102c657806392154a3d146102f1578063b0f479a11461031a57610114565b80635821feae116100e75780635821feae146101d15780636df0c747146101ed578063715018a61461021657806385572ffb1461022d5780638b8ff3581461025657610114565b806301ffc9a7146101195780630ca761751461015657806314b1dd1b1461017f57806334303bcd146101a8575b600080fd5b34801561012557600080fd5b50610140600480360381019061013b9190612c00565b610414565b60405161014d9190612c48565b60405180910390f35b34801561016257600080fd5b5061017d60048036038101906101789190612ddf565b6104e6565b005b34801561018b57600080fd5b506101a660048036038101906101a19190612eaa565b6105a8565b005b3480156101b457600080fd5b506101cf60048036038101906101ca9190612f13565b6105dc565b005b6101eb60048036038101906101e691906131bf565b610608565b005b3480156101f957600080fd5b50610214600480360381019061020f9190613208565b610859565b005b34801561022257600080fd5b5061022b61086b565b005b34801561023957600080fd5b50610254600480360381019061024f9190613259565b61087f565b005b34801561026257600080fd5b5061026b610924565b60405161027891906132b1565b60405180910390f35b34801561028d57600080fd5b506102a860048036038101906102a3919061337c565b610929565b005b6102c460048036038101906102bf91906133c5565b610a26565b005b3480156102d257600080fd5b506102db610dc2565b6040516102e89190613499565b60405180910390f35b3480156102fd57600080fd5b50610318600480360381019061031391906134b4565b610deb565b005b34801561032657600080fd5b5061032f610e5d565b60405161033c9190613499565b60405180910390f35b34801561035157600080fd5b5061036c600480360381019061036791906134f4565b610e85565b005b34801561037a57600080fd5b506103956004803603810190610390919061353d565b610ea0565b005b3480156103a357600080fd5b506103ac610fc0565b6040516103b991906132b1565b60405180910390f35b3480156103ce57600080fd5b506103e960048036038101906103e491906136b8565b610fc5565b005b3480156103f757600080fd5b50610412600480360381019061040d9190613757565b6114bc565b005b60007f85572ffb000000000000000000000000000000000000000000000000000000007bffffffffffffffffffffffffffffffffffffffffffffffffffffffff1916827bffffffffffffffffffffffffffffffffffffffffffffffffffffffff191614806104df57507f01ffc9a7000000000000000000000000000000000000000000000000000000007bffffffffffffffffffffffffffffffffffffffffffffffffffffffff1916827bffffffffffffffffffffffffffffffffffffffffffffffffffffffff1916145b9050919050565b7f000000000000000000000000000000000000000000000000000000000000000073ffffffffffffffffffffffffffffffffffffffff163373ffffffffffffffffffffffffffffffffffffffff161461056b576040517fc6829f8300000000000000000000000000000000000000000000000000000000815260040160405180910390fd5b61057683838361153f565b827f85e1543bf2f84fe80c6badbce3648c8539ad1df4d2b3d822938ca0538be727e660405160405180910390a2505050565b6105b0611837565b80600260046101000a81548167ffffffffffffffff021916908367ffffffffffffffff16021790555050565b6105e4611837565b80600260006101000a81548163ffffffff021916908363ffffffff16021790555050565b600060056000836080015181526020019081526020016000206003015403610665576040517f08c379a000000000000000000000000000000000000000000000000000000000815260040161065c906137e1565b60405180910390fd5b60056000826080015181526020019081526020016000206001015434146106c1576040517f08c379a00000000000000000000000000000000000000000000000000000000081526004016106b89061384d565b60405180910390fd5b6040518060a00160405280826000015181526020018260600151815260200182602001518152602001826080015181526020016106fc6118b5565b73ffffffffffffffffffffffffffffffffffffffff1681525060066000836040015173ffffffffffffffffffffffffffffffffffffffff1673ffffffffffffffffffffffffffffffffffffffff168152602001908152602001600020600082015181600001908161076d9190613a84565b5060208201518160010190816107839190613a84565b5060408201518160020190816107999190613a84565b506060820151816003015560808201518160040160006101000a81548173ffffffffffffffffffffffffffffffffffffffff021916908373ffffffffffffffffffffffffffffffffffffffff1602179055509050507fea35bbd4aeddb611341e5394e07bd5ac7513bd56730a40e7e3e3eb761e155c05816040015182600001518360200151846060015185608001516108306118b5565b8760a001518860c0015160405161084e989796959493929190613bb9565b60405180910390a150565b610861611837565b8060038190555050565b610873611837565b61087d60006118bd565b565b7f000000000000000000000000000000000000000000000000000000000000000073ffffffffffffffffffffffffffffffffffffffff163373ffffffffffffffffffffffffffffffffffffffff161461090f57336040517fd7f733340000000000000000000000000000000000000000000000000000000081526004016109069190613499565b60405180910390fd5b6109218161091c90613e4d565b611981565b50565b601481565b610931611837565b6004600081548092919061094490613e8f565b91905055506040518060800160405280826000015181526020018260200151815260200182604001518152602001826060015181525060056000600454815260200190815260200160002060008201518160000190816109a49190613a84565b506020820151816001015560408201518160020190816109c49190613a84565b50606082015181600301559050507f33c5bd102a4d38690a8d7d236985d20c88e66b73bca9de5ae6cc29376d2206fd6004548260000151836020015184604001518560600151604051610a1b959493929190613ed7565b60405180910390a150565b600073ffffffffffffffffffffffffffffffffffffffff16600860008867ffffffffffffffff1667ffffffffffffffff16815260200190815260200160002060009054906101000a900473ffffffffffffffffffffffffffffffffffffffff1673ffffffffffffffffffffffffffffffffffffffff1603610adc576040517f08c379a0000000000000000000000000000000000000000000000000000000008152600401610ad390613f84565b60405180910390fd5b60006040518060a00160405280600860008a67ffffffffffffffff1667ffffffffffffffff16815260200190815260200160002060009054906101000a900473ffffffffffffffffffffffffffffffffffffffff16604051602001610b419190613499565b60405160208183030381529060405281526020018787878787604051602001610b6e959493929190613ff9565b6040516020818303038152906040528152602001600067ffffffffffffffff811115610b9d57610b9c612cb4565b5b604051908082528060200260200182016040528015610bd657816020015b610bc3612ab8565b815260200190600190039081610bbb5790505b508152602001600073ffffffffffffffffffffffffffffffffffffffff168152602001610c1c604051806040016040528062061a80815260200160001515815250611a32565b81525090506000600960009054906101000a900473ffffffffffffffffffffffffffffffffffffffff1673ffffffffffffffffffffffffffffffffffffffff166320487ded67ccf0a31a221f3c9b846040518363ffffffff1660e01b8152600401610c8892919061423a565b602060405180830381865afa158015610ca5573d6000803e3d6000fd5b505050506040513d601f19601f82011682018060405250810190610cc9919061427f565b905080341015610d0e576040517f08c379a0000000000000000000000000000000000000000000000000000000008152600401610d05906142f8565b60405180910390fd5b600960009054906101000a900473ffffffffffffffffffffffffffffffffffffffff1673ffffffffffffffffffffffffffffffffffffffff166396f4e9f98267ccf0a31a221f3c9b856040518463ffffffff1660e01b8152600401610d7492919061423a565b60206040518083038185885af1158015610d92573d6000803e3d6000fd5b50505050506040513d601f19601f82011682018060405250810190610db7919061432d565b505050505050505050565b60008060009054906101000a900473ffffffffffffffffffffffffffffffffffffffff16905090565b610df3611837565b80600860008467ffffffffffffffff1667ffffffffffffffff16815260200190815260200160002060006101000a81548173ffffffffffffffffffffffffffffffffffffffff021916908373ffffffffffffffffffffffffffffffffffffffff1602179055505050565b60007f0000000000000000000000000000000000000000000000000000000000000000905090565b610e8d611837565b8060019081610e9c9190613a84565b5050565b6000610eaa6118b5565b90506000600660008473ffffffffffffffffffffffffffffffffffffffff1673ffffffffffffffffffffffffffffffffffffffff16815260200190815260200160002090508173ffffffffffffffffffffffffffffffffffffffff168160040160009054906101000a900473ffffffffffffffffffffffffffffffffffffffff1673ffffffffffffffffffffffffffffffffffffffff1614610f81576040517f08c379a0000000000000000000000000000000000000000000000000000000008152600401610f78906143a6565b60405180910390fd5b7fd7219b2d0e6067644335c8f4f82ee77c59a90a22e2916f1dce8683af8e8b07fa8385604051610fb29291906143c6565b60405180910390a150505050565b600581565b60148351111561100a576040517f08c379a000000000000000000000000000000000000000000000000000000000815260040161100190614442565b60405180910390fd5b60006110146118b5565b9050600073ffffffffffffffffffffffffffffffffffffffff16600660008373ffffffffffffffffffffffffffffffffffffffff1673ffffffffffffffffffffffffffffffffffffffff16815260200190815260200160002060040160009054906101000a900473ffffffffffffffffffffffffffffffffffffffff1673ffffffffffffffffffffffffffffffffffffffff16036110e7576040517f08c379a00000000000000000000000000000000000000000000000000000000081526004016110de906144ae565b60405180910390fd5b6000600567ffffffffffffffff81111561110457611103612cb4565b5b60405190808252806020026020018201604052801561113757816020015b60608152602001906001900390816111225790505b50905073__StringJoiner__________________________635c8656e0866040518263ffffffff1660e01b81526004016111719190614637565b600060405180830381865af415801561118e573d6000803e3d6000fd5b505050506040513d6000823e3d601f19601f820116820180604052508101906111b791906146dc565b816000815181106111cb576111ca614725565b5b602002602001018190525083816001815181106111eb576111ea614725565b5b60200260200101819052506111ff82611ab1565b8160028151811061121357611212614725565b5b602002602001018190525061122786611ab1565b8160038151811061123b5761123a614725565b5b60200260200101819052506112528360ff16611ade565b8160048151811061126657611265614725565b5b6020026020010181905250611279612ae8565b61131660018054611289906138a7565b80601f01602080910402602001604051908101604052809291908181526020018280546112b5906138a7565b80156113025780601f106112d757610100808354040283529160200191611302565b820191906000526020600020905b8154815290600101906020018083116112e557829003601f168201915b505050505082611bac90919063ffffffff16565b6113298282611bbd90919063ffffffff16565b600061136961133783611c05565b600260049054906101000a900467ffffffffffffffff16600260009054906101000a900463ffffffff16600354612021565b905060405180606001604052808573ffffffffffffffffffffffffffffffffffffffff1681526020018973ffffffffffffffffffffffffffffffffffffffff168152602001600015158152506007600083815260200190815260200160002060008201518160000160006101000a81548173ffffffffffffffffffffffffffffffffffffffff021916908373ffffffffffffffffffffffffffffffffffffffff16021790555060208201518160010160006101000a81548173ffffffffffffffffffffffffffffffffffffffff021916908373ffffffffffffffffffffffffffffffffffffffff16021790555060408201518160010160146101000a81548160ff0219169083151502179055509050507f91f0d67c2f27abd6cfc317e120d5e80b31e97b9926b65d3887e59402fb20adfb81856040516114aa929190614763565b60405180910390a15050505050505050565b6114c4611837565b600073ffffffffffffffffffffffffffffffffffffffff168173ffffffffffffffffffffffffffffffffffffffff1603611533576040517f08c379a000000000000000000000000000000000000000000000000000000000815260040161152a906147fe565b60405180910390fd5b61153c816118bd565b50565b827f7bab0ec163b5c132c72b8146ac4d6e067e82ed58f8b131150aa71c9258911562838360405161157192919061481e565b60405180910390a26000815111156115c1577f980dacf15fd4de388a78b30b7137819db55322065f76cd76f26843976b4b8f3d83826040516115b4929190614855565b60405180910390a1611832565b60006007600085815260200190815260200160002090508060010160149054906101000a900460ff161561162a576040517f08c379a0000000000000000000000000000000000000000000000000000000008152600401611621906148d1565b60405180910390fd5b60018160010160146101000a81548160ff021916908315150217905550600073ffffffffffffffffffffffffffffffffffffffff16600660008360000160009054906101000a900473ffffffffffffffffffffffffffffffffffffffff1673ffffffffffffffffffffffffffffffffffffffff1673ffffffffffffffffffffffffffffffffffffffff16815260200190815260200160002060040160009054906101000a900473ffffffffffffffffffffffffffffffffffffffff1673ffffffffffffffffffffffffffffffffffffffff160361173c576040517f08c379a0000000000000000000000000000000000000000000000000000000008152600401611733906144ae565b60405180910390fd5b60008160000160009054906101000a900473ffffffffffffffffffffffffffffffffffffffff1690508073ffffffffffffffffffffffffffffffffffffffff16638f9c39568360010160009054906101000a900473ffffffffffffffffffffffffffffffffffffffff16866040518363ffffffff1660e01b81526004016117c49291906143c6565b600060405180830381600087803b1580156117de57600080fd5b505af11580156117f2573d6000803e3d6000fd5b505050507feaedbcf97bf9fb5a6b911a99706c1cd297c974a3bf541bb1806522fccc69e27a8585604051611827929190614855565b60405180910390a150505b505050565b61183f6118b5565b73ffffffffffffffffffffffffffffffffffffffff1661185d610dc2565b73ffffffffffffffffffffffffffffffffffffffff16146118b3576040517f08c379a00000000000000000000000000000000000000000000000000000000081526004016118aa9061493d565b60405180910390fd5b565b600033905090565b60008060009054906101000a900473ffffffffffffffffffffffffffffffffffffffff169050816000806101000a81548173ffffffffffffffffffffffffffffffffffffffff021916908373ffffffffffffffffffffffffffffffffffffffff1602179055508173ffffffffffffffffffffffffffffffffffffffff168173ffffffffffffffffffffffffffffffffffffffff167f8be0079c531659141344cd1fd0a4f28419497f9722a3daafe3b4186f6b6457e060405160405180910390a35050565b600080600080600085606001518060200190518101906119a19190614a0b565b9450945094509450945060008590508073ffffffffffffffffffffffffffffffffffffffff16636d4195fb886020015188888888886040518763ffffffff1660e01b81526004016119f796959493929190614abe565b600060405180830381600087803b158015611a1157600080fd5b505af1158015611a25573d6000803e3d6000fd5b5050505050505050505050565b60606397a657c960e01b82604051602401611a4d9190614b6b565b604051602081830303815290604052907bffffffffffffffffffffffffffffffffffffffffffffffffffffffff19166020820180517bffffffffffffffffffffffffffffffffffffffffffffffffffffffff83818316178352505050509050919050565b6060611ad78273ffffffffffffffffffffffffffffffffffffffff16601460ff16612104565b9050919050565b606060006001611aed84612340565b01905060008167ffffffffffffffff811115611b0c57611b0b612cb4565b5b6040519080825280601f01601f191660200182016040528015611b3e5781602001600182028036833780820191505090505b509050600082602001820190505b600115611ba1578080600190039150507f3031323334353637383961626364656600000000000000000000000000000000600a86061a8153600a8581611b9557611b94614b86565b5b04945060008503611b4c575b819350505050919050565b611bb98260008084612493565b5050565b6000815103611bf8576040517ffe936cb700000000000000000000000000000000000000000000000000000000815260040160405180910390fd5b808260a001819052505050565b60606000611c1461010061253d565b9050611c5e6040518060400160405280600c81526020017f636f64654c6f636174696f6e00000000000000000000000000000000000000008152508261256490919063ffffffff16565b611c8783600001516002811115611c7857611c77614bb5565b5b8261258d90919063ffffffff16565b611ccf6040518060400160405280600881526020017f6c616e67756167650000000000000000000000000000000000000000000000008152508261256490919063ffffffff16565b611cf883604001516000811115611ce957611ce8614bb5565b5b8261258d90919063ffffffff16565b611d406040518060400160405280600681526020017f736f7572636500000000000000000000000000000000000000000000000000008152508261256490919063ffffffff16565b611d5783606001518261256490919063ffffffff16565b60008360a00151511115611e1357611dad6040518060400160405280600481526020017f61726773000000000000000000000000000000000000000000000000000000008152508261256490919063ffffffff16565b611db6816125dd565b60005b8360a0015151811015611e0857611df78460a001518281518110611de057611ddf614725565b5b60200260200101518361256490919063ffffffff16565b80611e0190613e8f565b9050611db9565b50611e1281612605565b5b60008360800151511115611f545760006002811115611e3557611e34614bb5565b5b83602001516002811115611e4c57611e4b614bb5565b5b03611e83576040517fa80d31f700000000000000000000000000000000000000000000000000000000815260040160405180910390fd5b611ecb6040518060400160405280600f81526020017f736563726574734c6f636174696f6e00000000000000000000000000000000008152508261256490919063ffffffff16565b611ef483602001516002811115611ee557611ee4614bb5565b5b8261258d90919063ffffffff16565b611f3c6040518060400160405280600781526020017f73656372657473000000000000000000000000000000000000000000000000008152508261256490919063ffffffff16565b611f5383608001518261262d90919063ffffffff16565b5b60008360c0015151111561201057611faa6040518060400160405280600981526020017f62797465734172677300000000000000000000000000000000000000000000008152508261256490919063ffffffff16565b611fb3816125dd565b60005b8360c001515181101561200557611ff48460c001518281518110611fdd57611fdc614725565b5b60200260200101518361262d90919063ffffffff16565b80611ffe90613e8f565b9050611fb6565b5061200f81612605565b5b806000015160000151915050919050565b6000807f000000000000000000000000000000000000000000000000000000000000000073ffffffffffffffffffffffffffffffffffffffff1663461d27628688600188886040518663ffffffff1660e01b8152600401612086959493929190614c10565b6020604051808303816000875af11580156120a5573d6000803e3d6000fd5b505050506040513d601f19601f820116820180604052508101906120c9919061432d565b9050807f1131472297a800fee664d1d89cfa8f7676ff07189ecc53f80bbb5f4969099db860405160405180910390a280915050949350505050565b6060600060028360026121179190614c6a565b6121219190614cac565b67ffffffffffffffff81111561213a57612139612cb4565b5b6040519080825280601f01601f19166020018201604052801561216c5781602001600182028036833780820191505090505b5090507f3000000000000000000000000000000000000000000000000000000000000000816000815181106121a4576121a3614725565b5b60200101907effffffffffffffffffffffffffffffffffffffffffffffffffffffffffffff1916908160001a9053507f78000000000000000000000000000000000000000000000000000000000000008160018151811061220857612207614725565b5b60200101907effffffffffffffffffffffffffffffffffffffffffffffffffffffffffffff1916908160001a905350600060018460026122489190614c6a565b6122529190614cac565b90505b60018111156122f2577f3031323334353637383961626364656600000000000000000000000000000000600f86166010811061229457612293614725565b5b1a60f81b8282815181106122ab576122aa614725565b5b60200101907effffffffffffffffffffffffffffffffffffffffffffffffffffffffffffff1916908160001a905350600485901c9450806122eb90614ce0565b9050612255565b5060008414612336576040517f08c379a000000000000000000000000000000000000000000000000000000000815260040161232d90614d55565b60405180910390fd5b8091505092915050565b600080600090507a184f03e93ff9f4daa797ed6e38ed64bf6a1f010000000000000000831061239e577a184f03e93ff9f4daa797ed6e38ed64bf6a1f010000000000000000838161239457612393614b86565b5b0492506040810190505b6d04ee2d6d415b85acef810000000083106123db576d04ee2d6d415b85acef810000000083816123d1576123d0614b86565b5b0492506020810190505b662386f26fc10000831061240a57662386f26fc100008381612400576123ff614b86565b5b0492506010810190505b6305f5e1008310612433576305f5e100838161242957612428614b86565b5b0492506008810190505b612710831061245857612710838161244e5761244d614b86565b5b0492506004810190505b6064831061247b576064838161247157612470614b86565b5b0492506002810190505b600a831061248a576001810190505b80915050919050565b60008151036124ce576040517f22ce3edd00000000000000000000000000000000000000000000000000000000815260040160405180910390fd5b82846000019060028111156124e6576124e5614bb5565b5b908160028111156124fa576124f9614bb5565b5b81525050818460400190600081111561251657612515614bb5565b5b9081600081111561252a57612529614bb5565b5b8152505080846060018190525050505050565b612545612b5a565b612553816000015183612656565b506000816020018181525050919050565b61257182600383516126cf565b61258881836000015161287890919063ffffffff16565b505050565b6125af60026005600660ff16901b17836000015161289490919063ffffffff16565b506125d982826040516020016125c591906132b1565b60405160208183030381529060405261262d565b5050565b6125e88160046128fe565b6001816020018181516125fb9190614cac565b9150818152505050565b6126108160076128fe565b6001816020018181516126239190614d75565b9150818152505050565b61263a82600283516126cf565b61265181836000015161287890919063ffffffff16565b505050565b61265e612b7a565b600060208361266d9190614da9565b146126995760208261267f9190614da9565b602061268b9190614d75565b826126969190614cac565b91505b8183602001818152505060405180845260008152828101602001818110156126c057600080fd5b80604052505082905092915050565b60178167ffffffffffffffff161161270a576127048160058460ff16901b60ff1617846000015161289490919063ffffffff16565b50612873565b60ff8167ffffffffffffffff16116127685761273d601860058460ff16901b17846000015161289490919063ffffffff16565b506127628167ffffffffffffffff16600185600001516129249092919063ffffffff16565b50612872565b61ffff8167ffffffffffffffff16116127c75761279c601960058460ff16901b17846000015161289490919063ffffffff16565b506127c18167ffffffffffffffff16600285600001516129249092919063ffffffff16565b50612871565b63ffffffff8167ffffffffffffffff1611612828576127fd601a60058460ff16901b17846000015161289490919063ffffffff16565b506128228167ffffffffffffffff16600485600001516129249092919063ffffffff16565b50612870565b612849601b60058460ff16901b17846000015161289490919063ffffffff16565b5061286e8167ffffffffffffffff16600885600001516129249092919063ffffffff16565b505b5b5b5b505050565b612880612b7a565b61288c838384516129b1565b905092915050565b61289c612b7a565b6000836000015151905060006001826128b59190614cac565b9050846020015182106128d9576128d8856002836128d39190614c6a565b612a94565b5b845160208382010185815381518311156128f1578282525b5050849250505092915050565b61291f601f60058360ff16901b17836000015161289490919063ffffffff16565b505050565b61292c612b7a565b60008460000151519050600081846129449190614cac565b9050856020015181111561296957612968866002836129639190614c6a565b612a94565b5b600060018561010061297b9190614f0d565b6129859190614d75565b9050865182810187831982511617815281518411156129a2578382525b50508693505050509392505050565b6129b9612b7a565b82518211156129c757600080fd5b60008460000151519050600083826129df9190614cac565b90508560200151811115612a0457612a03866002836129fe9190614c6a565b612a94565b5b60008087518051856020830101935080851115612a1f578482525b60208901925050505b60208610612a665780518252602082612a419190614cac565b9150602081612a509190614cac565b9050602086612a5f9190614d75565b9550612a28565b60006001876020036101000a0390508019825116818451168181178552505050879450505050509392505050565b600082600001519050612aa78383612656565b50612ab28382612878565b50505050565b6040518060400160405280600073ffffffffffffffffffffffffffffffffffffffff168152602001600081525090565b6040518060e0016040528060006002811115612b0757612b06614bb5565b5b815260200160006002811115612b2057612b1f614bb5565b5b8152602001600080811115612b3857612b37614bb5565b5b8152602001606081526020016060815260200160608152602001606081525090565b6040518060400160405280612b6d612b7a565b8152602001600081525090565b604051806040016040528060608152602001600081525090565b6000604051905090565b600080fd5b600080fd5b60007fffffffff0000000000000000000000000000000000000000000000000000000082169050919050565b612bdd81612ba8565b8114612be857600080fd5b50565b600081359050612bfa81612bd4565b92915050565b600060208284031215612c1657612c15612b9e565b5b6000612c2484828501612beb565b91505092915050565b60008115159050919050565b612c4281612c2d565b82525050565b6000602082019050612c5d6000830184612c39565b92915050565b6000819050919050565b612c7681612c63565b8114612c8157600080fd5b50565b600081359050612c9381612c6d565b92915050565b600080fd5b600080fd5b6000601f19601f8301169050919050565b7f4e487b7100000000000000000000000000000000000000000000000000000000600052604160045260246000fd5b612cec82612ca3565b810181811067ffffffffffffffff82111715612d0b57612d0a612cb4565b5b80604052505050565b6000612d1e612b94565b9050612d2a8282612ce3565b919050565b600067ffffffffffffffff821115612d4a57612d49612cb4565b5b612d5382612ca3565b9050602081019050919050565b82818337600083830152505050565b6000612d82612d7d84612d2f565b612d14565b905082815260208101848484011115612d9e57612d9d612c9e565b5b612da9848285612d60565b509392505050565b600082601f830112612dc657612dc5612c99565b5b8135612dd6848260208601612d6f565b91505092915050565b600080600060608486031215612df857612df7612b9e565b5b6000612e0686828701612c84565b935050602084013567ffffffffffffffff811115612e2757612e26612ba3565b5b612e3386828701612db1565b925050604084013567ffffffffffffffff811115612e5457612e53612ba3565b5b612e6086828701612db1565b9150509250925092565b600067ffffffffffffffff82169050919050565b612e8781612e6a565b8114612e9257600080fd5b50565b600081359050612ea481612e7e565b92915050565b600060208284031215612ec057612ebf612b9e565b5b6000612ece84828501612e95565b91505092915050565b600063ffffffff82169050919050565b612ef081612ed7565b8114612efb57600080fd5b50565b600081359050612f0d81612ee7565b92915050565b600060208284031215612f2957612f28612b9e565b5b6000612f3784828501612efe565b91505092915050565b600080fd5b600080fd5b600067ffffffffffffffff821115612f6557612f64612cb4565b5b612f6e82612ca3565b9050602081019050919050565b6000612f8e612f8984612f4a565b612d14565b905082815260208101848484011115612faa57612fa9612c9e565b5b612fb5848285612d60565b509392505050565b600082601f830112612fd257612fd1612c99565b5b8135612fe2848260208601612f7b565b91505092915050565b600073ffffffffffffffffffffffffffffffffffffffff82169050919050565b600061301682612feb565b9050919050565b6130268161300b565b811461303157600080fd5b50565b6000813590506130438161301d565b92915050565b6000819050919050565b61305c81613049565b811461306757600080fd5b50565b60008135905061307981613053565b92915050565b600060e0828403121561309557613094612f40565b5b61309f60e0612d14565b9050600082013567ffffffffffffffff8111156130bf576130be612f45565b5b6130cb84828501612fbd565b600083015250602082013567ffffffffffffffff8111156130ef576130ee612f45565b5b6130fb84828501612fbd565b602083015250604061310f84828501613034565b604083015250606082013567ffffffffffffffff81111561313357613132612f45565b5b61313f84828501612fbd565b60608301525060806131538482850161306a565b60808301525060a082013567ffffffffffffffff81111561317757613176612f45565b5b61318384828501612fbd565b60a08301525060c082013567ffffffffffffffff8111156131a7576131a6612f45565b5b6131b384828501612fbd565b60c08301525092915050565b6000602082840312156131d5576131d4612b9e565b5b600082013567ffffffffffffffff8111156131f3576131f2612ba3565b5b6131ff8482850161307f565b91505092915050565b60006020828403121561321e5761321d612b9e565b5b600061322c84828501612c84565b91505092915050565b600080fd5b600060a082840312156132505761324f613235565b5b81905092915050565b60006020828403121561326f5761326e612b9e565b5b600082013567ffffffffffffffff81111561328d5761328c612ba3565b5b6132998482850161323a565b91505092915050565b6132ab81613049565b82525050565b60006020820190506132c660008301846132a2565b92915050565b6000608082840312156132e2576132e1612f40565b5b6132ec6080612d14565b9050600082013567ffffffffffffffff81111561330c5761330b612f45565b5b61331884828501612fbd565b600083015250602061332c8482850161306a565b602083015250604082013567ffffffffffffffff8111156133505761334f612f45565b5b61335c84828501612fbd565b60408301525060606133708482850161306a565b60608301525092915050565b60006020828403121561339257613391612b9e565b5b600082013567ffffffffffffffff8111156133b0576133af612ba3565b5b6133bc848285016132cc565b91505092915050565b60008060008060008060c087890312156133e2576133e1612b9e565b5b60006133f089828a01612e95565b965050602061340189828a01613034565b955050604061341289828a01613034565b945050606061342389828a0161306a565b935050608087013567ffffffffffffffff81111561344457613443612ba3565b5b61345089828a01612fbd565b92505060a087013567ffffffffffffffff81111561347157613470612ba3565b5b61347d89828a01612db1565b9150509295509295509295565b6134938161300b565b82525050565b60006020820190506134ae600083018461348a565b92915050565b600080604083850312156134cb576134ca612b9e565b5b60006134d985828601612e95565b92505060206134ea85828601613034565b9150509250929050565b60006020828403121561350a57613509612b9e565b5b600082013567ffffffffffffffff81111561352857613527612ba3565b5b61353484828501612fbd565b91505092915050565b6000806040838503121561355457613553612b9e565b5b600083013567ffffffffffffffff81111561357257613571612ba3565b5b61357e85828601612fbd565b925050602061358f85828601613034565b9150509250929050565b600067ffffffffffffffff8211156135b4576135b3612cb4565b5b602082029050602081019050919050565b600080fd5b60006135dd6135d884613599565b612d14565b90508083825260208201905060208402830185811115613600576135ff6135c5565b5b835b8181101561364757803567ffffffffffffffff81111561362557613624612c99565b5b8086016136328982612fbd565b85526020850194505050602081019050613602565b5050509392505050565b600082601f83011261366657613665612c99565b5b81356136768482602086016135ca565b91505092915050565b600060ff82169050919050565b6136958161367f565b81146136a057600080fd5b50565b6000813590506136b28161368c565b92915050565b600080600080608085870312156136d2576136d1612b9e565b5b60006136e087828801613034565b945050602085013567ffffffffffffffff81111561370157613700612ba3565b5b61370d87828801613651565b935050604085013567ffffffffffffffff81111561372e5761372d612ba3565b5b61373a87828801612fbd565b925050606061374b878288016136a3565b91505092959194509250565b60006020828403121561376d5761376c612b9e565b5b600061377b84828501613034565b91505092915050565b600082825260208201905092915050565b7f496e76616c696420706c616e0000000000000000000000000000000000000000600082015250565b60006137cb600c83613784565b91506137d682613795565b602082019050919050565b600060208201905081810360008301526137fa816137be565b9050919050565b7f496e73756666696369656e742066756e64730000000000000000000000000000600082015250565b6000613837601283613784565b915061384282613801565b602082019050919050565b600060208201905081810360008301526138668161382a565b9050919050565b600081519050919050565b7f4e487b7100000000000000000000000000000000000000000000000000000000600052602260045260246000fd5b600060028204905060018216806138bf57607f821691505b6020821081036138d2576138d1613878565b5b50919050565b60008190508160005260206000209050919050565b60006020601f8301049050919050565b600082821b905092915050565b60006008830261393a7fffffffffffffffffffffffffffffffffffffffffffffffffffffffffffffffff826138fd565b61394486836138fd565b95508019841693508086168417925050509392505050565b6000819050919050565b600061398161397c61397784613049565b61395c565b613049565b9050919050565b6000819050919050565b61399b83613966565b6139af6139a782613988565b84845461390a565b825550505050565b600090565b6139c46139b7565b6139cf818484613992565b505050565b5b818110156139f3576139e86000826139bc565b6001810190506139d5565b5050565b601f821115613a3857613a09816138d8565b613a12846138ed565b81016020851015613a21578190505b613a35613a2d856138ed565b8301826139d4565b50505b505050565b600082821c905092915050565b6000613a5b60001984600802613a3d565b1980831691505092915050565b6000613a748383613a4a565b9150826002028217905092915050565b613a8d8261386d565b67ffffffffffffffff811115613aa657613aa5612cb4565b5b613ab082546138a7565b613abb8282856139f7565b600060209050601f831160018114613aee5760008415613adc578287015190505b613ae68582613a68565b865550613b4e565b601f198416613afc866138d8565b60005b82811015613b2457848901518255600182019150602085019450602081019050613aff565b86831015613b415784890151613b3d601f891682613a4a565b8355505b6001600288020188555050505b505050505050565b60005b83811015613b74578082015181840152602081019050613b59565b60008484015250505050565b6000613b8b8261386d565b613b958185613784565b9350613ba5818560208601613b56565b613bae81612ca3565b840191505092915050565b600061010082019050613bcf600083018b61348a565b8181036020830152613be1818a613b80565b90508181036040830152613bf58189613b80565b90508181036060830152613c098188613b80565b9050613c1860808301876132a2565b613c2560a083018661348a565b81810360c0830152613c378185613b80565b905081810360e0830152613c4b8184613b80565b90509998505050505050505050565b600067ffffffffffffffff821115613c7557613c74612cb4565b5b602082029050602081019050919050565b600060408284031215613c9c57613c9b612f40565b5b613ca66040612d14565b90506000613cb684828501613034565b6000830152506020613cca8482850161306a565b60208301525092915050565b6000613ce9613ce484613c5a565b612d14565b90508083825260208201905060408402830185811115613d0c57613d0b6135c5565b5b835b81811015613d355780613d218882613c86565b845260208401935050604081019050613d0e565b5050509392505050565b600082601f830112613d5457613d53612c99565b5b8135613d64848260208601613cd6565b91505092915050565b600060a08284031215613d8357613d82612f40565b5b613d8d60a0612d14565b90506000613d9d84828501612c84565b6000830152506020613db184828501612e95565b602083015250604082013567ffffffffffffffff811115613dd557613dd4612f45565b5b613de184828501612db1565b604083015250606082013567ffffffffffffffff811115613e0557613e04612f45565b5b613e1184828501612db1565b606083015250608082013567ffffffffffffffff811115613e3557613e34612f45565b5b613e4184828501613d3f565b60808301525092915050565b6000613e593683613d6d565b9050919050565b7f4e487b7100000000000000000000000000000000000000000000000000000000600052601160045260246000fd5b6000613e9a82613049565b91507fffffffffffffffffffffffffffffffffffffffffffffffffffffffffffffffff8203613ecc57613ecb613e60565b5b600182019050919050565b600060a082019050613eec60008301886132a2565b8181036020830152613efe8187613b80565b9050613f0d60408301866132a2565b8181036060830152613f1f8185613b80565b9050613f2e60808301846132a2565b9695505050505050565b7f436861696e206e6f7420737570706f7274656400000000000000000000000000600082015250565b6000613f6e601383613784565b9150613f7982613f38565b602082019050919050565b60006020820190508181036000830152613f9d81613f61565b9050919050565b600081519050919050565b600082825260208201905092915050565b6000613fcb82613fa4565b613fd58185613faf565b9350613fe5818560208601613b56565b613fee81612ca3565b840191505092915050565b600060a08201905061400e600083018861348a565b61401b602083018761348a565b61402860408301866132a2565b818103606083015261403a8185613b80565b9050818103608083015261404e8184613fc0565b90509695505050505050565b61406381612e6a565b82525050565b600082825260208201905092915050565b600061408582613fa4565b61408f8185614069565b935061409f818560208601613b56565b6140a881612ca3565b840191505092915050565b600081519050919050565b600082825260208201905092915050565b6000819050602082019050919050565b6140e88161300b565b82525050565b6140f781613049565b82525050565b60408201600082015161411360008501826140df565b50602082015161412660208501826140ee565b50505050565b600061413883836140fd565b60408301905092915050565b6000602082019050919050565b600061415c826140b3565b61416681856140be565b9350614171836140cf565b8060005b838110156141a2578151614189888261412c565b975061419483614144565b925050600181019050614175565b5085935050505092915050565b600060a08301600083015184820360008601526141cc828261407a565b915050602083015184820360208601526141e6828261407a565b915050604083015184820360408601526142008282614151565b915050606083015161421560608601826140df565b506080830151848203608086015261422d828261407a565b9150508091505092915050565b600060408201905061424f600083018561405a565b818103602083015261426181846141af565b90509392505050565b60008151905061427981613053565b92915050565b60006020828403121561429557614294612b9e565b5b60006142a38482850161426a565b91505092915050565b7f496e73756666696369656e742066656500000000000000000000000000000000600082015250565b60006142e2601083613784565b91506142ed826142ac565b602082019050919050565b60006020820190508181036000830152614311816142d5565b9050919050565b60008151905061432781612c6d565b92915050565b60006020828403121561434357614342612b9e565b5b600061435184828501614318565b91505092915050565b7f556e417574686f72697a65640000000000000000000000000000000000000000600082015250565b6000614390600c83613784565b915061439b8261435a565b602082019050919050565b600060208201905081810360008301526143bf81614383565b9050919050565b60006040820190506143db600083018561348a565b81810360208301526143ed8184613b80565b90509392505050565b7f546f6f206d616e79206174747269627574657300000000000000000000000000600082015250565b600061442c601383613784565b9150614437826143f6565b602082019050919050565b6000602082019050818103600083015261445b8161441f565b9050919050565b7f47616d65204e6f7420466f756e64000000000000000000000000000000000000600082015250565b6000614498600e83613784565b91506144a382614462565b602082019050919050565b600060208201905081810360008301526144c78161448b565b9050919050565b600081519050919050565b600082825260208201905092915050565b6000819050602082019050919050565b600082825260208201905092915050565b60006145168261386d565b61452081856144fa565b9350614530818560208601613b56565b61453981612ca3565b840191505092915050565b6000614550838361450b565b905092915050565b6000602082019050919050565b6000614570826144ce565b61457a81856144d9565b93508360208202850161458c856144ea565b8060005b858110156145c857848403895281516145a98582614544565b94506145b483614558565b925060208a01995050600181019050614590565b50829750879550505050505092915050565b600082825260208201905092915050565b7f2c00000000000000000000000000000000000000000000000000000000000000600082015250565b60006146216001836145da565b915061462c826145eb565b602082019050919050565b600060408201905081810360008301526146518184614565565b9050818103602083015261466481614614565b905092915050565b600061467f61467a84612f4a565b612d14565b90508281526020810184848401111561469b5761469a612c9e565b5b6146a6848285613b56565b509392505050565b600082601f8301126146c3576146c2612c99565b5b81516146d384826020860161466c565b91505092915050565b6000602082840312156146f2576146f1612b9e565b5b600082015167ffffffffffffffff8111156147105761470f612ba3565b5b61471c848285016146ae565b91505092915050565b7f4e487b7100000000000000000000000000000000000000000000000000000000600052603260045260246000fd5b61475d81612c63565b82525050565b60006040820190506147786000830185614754565b614785602083018461348a565b9392505050565b7f4f776e61626c653a206e6577206f776e657220697320746865207a65726f206160008201527f6464726573730000000000000000000000000000000000000000000000000000602082015250565b60006147e8602683613784565b91506147f38261478c565b604082019050919050565b60006020820190508181036000830152614817816147db565b9050919050565b600060408201905081810360008301526148388185613fc0565b9050818103602083015261484c8184613fc0565b90509392505050565b600060408201905061486a6000830185614754565b818103602083015261487c8184613fc0565b90509392505050565b7f416c72656164792066756c66696c6c6564000000000000000000000000000000600082015250565b60006148bb601183613784565b91506148c682614885565b602082019050919050565b600060208201905081810360008301526148ea816148ae565b9050919050565b7f4f776e61626c653a2063616c6c6572206973206e6f7420746865206f776e6572600082015250565b6000614927602083613784565b9150614932826148f1565b602082019050919050565b600060208201905081810360008301526149568161491a565b9050919050565b600061496882612feb565b9050919050565b6149788161495d565b811461498357600080fd5b50565b6000815190506149958161496f565b92915050565b60006149ae6149a984612d2f565b612d14565b9050828152602081018484840111156149ca576149c9612c9e565b5b6149d5848285613b56565b509392505050565b600082601f8301126149f2576149f1612c99565b5b8151614a0284826020860161499b565b91505092915050565b600080600080600060a08688031215614a2757614a26612b9e565b5b6000614a3588828901614986565b9550506020614a4688828901614986565b9450506040614a578882890161426a565b935050606086015167ffffffffffffffff811115614a7857614a77612ba3565b5b614a84888289016146ae565b925050608086015167ffffffffffffffff811115614aa557614aa4612ba3565b5b614ab1888289016149dd565b9150509295509295909350565b600060c082019050614ad3600083018961405a565b614ae0602083018861348a565b614aed604083018761348a565b614afa60608301866132a2565b8181036080830152614b0c8185613b80565b905081810360a0830152614b208184613fc0565b9050979650505050505050565b614b3681612c2d565b82525050565b604082016000820151614b5260008501826140ee565b506020820151614b656020850182614b2d565b50505050565b6000604082019050614b806000830184614b3c565b92915050565b7f4e487b7100000000000000000000000000000000000000000000000000000000600052601260045260246000fd5b7f4e487b7100000000000000000000000000000000000000000000000000000000600052602160045260246000fd5b600061ffff82169050919050565b614bfb81614be4565b82525050565b614c0a81612ed7565b82525050565b600060a082019050614c25600083018861405a565b8181036020830152614c378187613fc0565b9050614c466040830186614bf2565b614c536060830185614c01565b614c606080830184614754565b9695505050505050565b6000614c7582613049565b9150614c8083613049565b9250828202614c8e81613049565b91508282048414831517614ca557614ca4613e60565b5b5092915050565b6000614cb782613049565b9150614cc283613049565b9250828201905080821115614cda57614cd9613e60565b5b92915050565b6000614ceb82613049565b915060008203614cfe57614cfd613e60565b5b600182039050919050565b7f537472696e67733a20686578206c656e67746820696e73756666696369656e74600082015250565b6000614d3f602083613784565b9150614d4a82614d09565b602082019050919050565b60006020820190508181036000830152614d6e81614d32565b9050919050565b6000614d8082613049565b9150614d8b83613049565b9250828203905081811115614da357614da2613e60565b5b92915050565b6000614db482613049565b9150614dbf83613049565b925082614dcf57614dce614b86565b5b828206905092915050565b60008160011c9050919050565b6000808291508390505b6001851115614e3157808604811115614e0d57614e0c613e60565b5b6001851615614e1c5780820291505b8081029050614e2a85614dda565b9450614df1565b94509492505050565b600082614e4a5760019050614f06565b81614e585760009050614f06565b8160018114614e6e5760028114614e7857614ea7565b6001915050614f06565b60ff841115614e8a57614e89613e60565b5b8360020a915084821115614ea157614ea0613e60565b5b50614f06565b5060208310610133831016604e8410600b8410161715614edc5782820a905083811115614ed757614ed6613e60565b5b614f06565b614ee98484846001614de7565b92509050818404811115614f0057614eff613e60565b5b81810290505b9392505050565b6000614f1882613049565b9150614f2383613049565b9250614f507fffffffffffffffffffffffffffffffffffffffffffffffffffffffffffffffff8484614e3a565b90509291505056fea2646970667358221220a9fd37f736071ffb96b67f32b957a0d0dfa4fc92cf9dc31460be570b5e4ff63664736f6c63430008130033",
  "immutableReferences": {
    "14": [
      {
        "length": 32,
        "start": 2177
      },
      {
        "length": 32,
        "start": 3681
      }
    ],
    "5186": [
      {
        "length": 32,
        "start": 1256
      },
      {
        "length": 32,
        "start": 8230
      }
    ]
  },
  "source": "// SPDX-License-Identifier: MIT\r\npragma solidity ^0.8.19;\r\n\r\nimport {Assets} from \"./libraries/Assets.sol\";\r\nimport {Params} from \"./libraries/Params.sol\";\r\nimport {IKanvasAvax} from \"./interfaces/IKanvasAvax.sol\";\r\nimport {IKanvasGame} from \"./interfaces/IKanvasGame.sol\";\r\nimport {IKanvasInteropGame} from \"./interfaces/IKanvasInteropGame.sol\";\r\nimport {StringJoiner} from \"./libraries/StringJoiner.sol\";\r\n\r\nimport {Strings} from \"@openzeppelin/contracts/utils/Strings.sol\";\r\nimport {Ownable} from \"@openzeppelin/contracts/access/Ownable.sol\";\r\nimport {Context} from \"@openzeppelin/contracts/utils/Context.sol\";\r\n\r\nimport {FunctionsClient} from \"./FunctionsClient.sol\";\r\nimport {FunctionsRequest} from \"@chainlink/contracts/src/v0.8/functions/dev/v1_0_0/libraries/FunctionsRequest.sol\";\r\n\r\nimport {Client} from \"@chainlink/contracts-ccip/src/v0.8/ccip/libraries/Client.sol\";\r\nimport {CCIPReceiver} from \"@chainlink/contracts-ccip/src/v0.8/ccip/applications/CCIPReceiver.sol\";\r\nimport {IRouterClient} from \"@chainlink/contracts-ccip/src/v0.8/ccip/interfaces/IRouterClient.sol\";\r\n\r\ncontract KanvasAvax is\r\n    IKanvasAvax,\r\n    Context,\r\n    CCIPReceiver,\r\n    FunctionsClient,\r\n    Ownable\r\n{\r\n    using FunctionsRequest for FunctionsRequest.Request;\r\n\r\n    uint64 private constant AVAX_SELECTOR = 14767482510784806043;\r\n    uint256 public constant MAX_PROPERTIES_LEN = 20;\r\n    uint256 public constant MAX_TEMPLATES_LEN = 5;\r\n\r\n    string private _sourceCode;\r\n    uint32 private _gasLimit = 300_000;\r\n    uint64 private _subscriptionId = 1580;\r\n    bytes32 private _donId =\r\n        0x66756e2d6176616c616e6368652d66756a692d31000000000000000000000000;\r\n\r\n    uint256 private _planId;\r\n    mapping(uint256 => Assets.Plan) private _plans;\r\n\r\n    mapping(address => Assets.Game) private _games;\r\n\r\n    mapping(bytes32 => Assets.Request) private _requests;\r\n\r\n    mapping(uint64 => address) private _interops;\r\n\r\n    IRouterClient private _router;\r\n\r\n    constructor(\r\n        address ccipReceiver,\r\n        address functionOracle\r\n    ) CCIPReceiver(ccipReceiver) Ownable() FunctionsClient(functionOracle) {\r\n        _router = IRouterClient(getRouter());\r\n    }\r\n\r\n    function updateDonId(bytes32 newDonId) external onlyOwner {\r\n        _donId = newDonId;\r\n    }\r\n\r\n    function updateSourceCode(string memory newSourceCode) external onlyOwner {\r\n        _sourceCode = newSourceCode;\r\n    }\r\n\r\n    function updateGasLimit(uint32 newLimit) external onlyOwner {\r\n        _gasLimit = newLimit;\r\n    }\r\n\r\n    function updateSubscriptionId(uint64 newSubscriptionId) external onlyOwner {\r\n        _subscriptionId = newSubscriptionId;\r\n    }\r\n\r\n    function createGame(Params.Game memory params) external payable {\r\n        require(_plans[params.plan].limit != 0, \"Invalid plan\");\r\n        require(msg.value == _plans[params.plan].cost, \"Insufficient funds\");\r\n\r\n        _games[params.gameId] = Assets.Game({\r\n            name: params.name,\r\n            description: params.description,\r\n            avatar: params.avatar,\r\n            plan: params.plan,\r\n            creator: _msgSender()\r\n        });\r\n\r\n        emit GameCreated(\r\n            params.gameId,\r\n            params.name,\r\n            params.description,\r\n            params.avatar,\r\n            params.plan,\r\n            _msgSender(),\r\n            params.email,\r\n            params.website\r\n        );\r\n    }\r\n\r\n    function addTemplate(string memory templateUri, address gameId) external {\r\n        address creator = _msgSender();\r\n\r\n        Assets.Game storage game = _games[gameId];\r\n\r\n        require(game.creator == creator, \"UnAuthorized\");\r\n\r\n        emit TemplateAdded(gameId, templateUri);\r\n    }\r\n\r\n    function _generateUri(\r\n        address playerId,\r\n        string[] memory props,\r\n        string memory fields,\r\n        uint8 templateId\r\n    ) external override {\r\n        require(props.length <= MAX_PROPERTIES_LEN, \"Too many attributes\");\r\n\r\n        address gameId = _msgSender();\r\n        require(_games[gameId].creator != address(0), \"Game Not Found\");\r\n\r\n        string[] memory args = new string[](5);\r\n        args[0] = StringJoiner.joinStrings(props, \",\");\r\n        args[1] = fields;\r\n        args[2] = Strings.toHexString(gameId);\r\n        args[3] = Strings.toHexString(playerId);\r\n        args[4] = Strings.toString(templateId);\r\n\r\n        // Initialize the request\r\n        FunctionsRequest.Request memory req;\r\n\r\n        // Soucre code\r\n        req.initializeRequestForInlineJavaScript(_sourceCode);\r\n\r\n        // Add arguments\r\n        req.setArgs(args);\r\n\r\n        bytes32 requestId = _sendRequest(\r\n            req.encodeCBOR(),\r\n            _subscriptionId,\r\n            _gasLimit,\r\n            _donId\r\n        );\r\n\r\n        _requests[requestId] = Assets.Request({\r\n            gameId: gameId,\r\n            playerId: playerId,\r\n            fulfilled: false\r\n        });\r\n\r\n        emit RequestSent(requestId, gameId);\r\n    }\r\n\r\n    function updateInterop(\r\n        uint64 chainSelector,\r\n        address kanvasRouter\r\n    ) external onlyOwner {\r\n        _interops[chainSelector] = kanvasRouter;\r\n    }\r\n\r\n    /** Receive the response in the form of string  */\r\n    function fulfillRequest(\r\n        bytes32 requestId,\r\n        bytes memory response,\r\n        bytes memory err\r\n    ) internal override {\r\n        emit OCRResponse(requestId, response, err);\r\n\r\n        if (err.length > 0) {\r\n            emit FulfullFailed(requestId, err);\r\n            return;\r\n        }\r\n\r\n        Assets.Request storage request = _requests[requestId];\r\n        require(!request.fulfilled, \"Already fulfilled\");\r\n\r\n        request.fulfilled = true;\r\n\r\n        require(_games[request.gameId].creator != address(0), \"Game Not Found\");\r\n\r\n        IKanvasGame game = IKanvasGame(request.gameId);\r\n        game._receiveUri(request.playerId, string(response));\r\n\r\n        emit FulfullSuccess(requestId, response);\r\n    }\r\n\r\n    function _transferTo(\r\n        uint64 chainSelector,\r\n        address gameId,\r\n        address playerId,\r\n        uint256 tokenId,\r\n        string memory uri,\r\n        bytes memory data\r\n    ) external payable {\r\n        require(_interops[chainSelector] != address(0), \"Chain not supported\");\r\n\r\n        // Create an EVM2AnyMessage struct in memory with necessary information for sending a cross-chain message\r\n        Client.EVM2AnyMessage memory message = Client.EVM2AnyMessage({\r\n            // ABI-encoded receiver address\r\n            receiver: abi.encode(_interops[chainSelector]),\r\n            // ABI-encoded string message\r\n            data: abi.encode(gameId, playerId, tokenId, uri, data),\r\n            // Empty array indicating no tokens are being sent\r\n            tokenAmounts: new Client.EVMTokenAmount[](0),\r\n            // Additional arguments, setting gas limit and non-strict sequency mode\r\n            extraArgs: Client._argsToBytes(\r\n                Client.EVMExtraArgsV1({gasLimit: 400_000, strict: false})\r\n            ),\r\n            // Setting feeToken to zero address, indicating native asset will be used for fees\r\n            feeToken: address(0)\r\n        });\r\n\r\n        // Get the fee required to send the message\r\n        uint256 fees = _router.getFee(AVAX_SELECTOR, message);\r\n\r\n        require(msg.value >= fees, \"Insufficient fee\");\r\n\r\n        // Send the message through the router and store the returned message ID\r\n        _router.ccipSend{value: fees}(AVAX_SELECTOR, message);\r\n    }\r\n\r\n    // handle a received message\r\n    function _ccipReceive(\r\n        Client.Any2EVMMessage memory message\r\n    ) internal override {\r\n        (\r\n            address gameId,\r\n            address playerId,\r\n            uint256 tokenId,\r\n            string memory uri,\r\n            bytes memory data\r\n        ) = abi.decode(\r\n                message.data,\r\n                (address, address, uint256, string, bytes)\r\n            );\r\n\r\n        IKanvasInteropGame game = IKanvasInteropGame(gameId);\r\n        game._receiveFrom(\r\n            message.sourceChainSelector,\r\n            gameId,\r\n            playerId,\r\n            tokenId,\r\n            uri,\r\n            data\r\n        );\r\n    }\r\n\r\n    /** Create plans */\r\n    function createPlan(Params.Plan memory params) external onlyOwner {\r\n        _planId++;\r\n\r\n        _plans[_planId] = Assets.Plan({\r\n            name: params.name,\r\n            cost: params.cost,\r\n            color: params.color,\r\n            limit: params.limit\r\n        });\r\n\r\n        emit PlanCreated(\r\n            _planId,\r\n            params.name,\r\n            params.cost,\r\n            params.color,\r\n            params.limit\r\n        );\r\n    }\r\n}\r\n",
  "sourcePath": "C:\\Users\\DELL\\Documents\\kanvas\\blockchain\\contracts\\KanvasAvax.sol",
  "compiler": {
    "name": "solc",
    "version": "0.8.19+commit.7dd6d404.Emscripten.clang"
  },
  "schemaVersion": "3.4.11",
  "updatedAt": "2023-12-05T20:44:51.177Z",
  "devdoc": {
    "kind": "dev",
    "methods": {
      "ccipReceive((bytes32,uint64,bytes,bytes,(address,uint256)[]))": {
        "details": "Note ensure you check the msg.sender is the OffRampRouter",
        "params": {
          "message": "CCIP Message"
        }
      },
      "getRouter()": {
        "returns": {
          "_0": "i_router address"
        }
      },
      "handleOracleFulfillment(bytes32,bytes,bytes)": {
        "details": "Either response or error parameter will be set, but never both.",
        "params": {
          "err": "Aggregated error either from the request's source code or from the execution pipeline.",
          "requestId": "The requestId returned by FunctionsClient.sendRequest().",
          "response": "Aggregated response from the request's source code."
        }
      },
      "owner()": {
        "details": "Returns the address of the current owner."
      },
      "renounceOwnership()": {
        "details": "Leaves the contract without owner. It will not be possible to call `onlyOwner` functions. Can only be called by the current owner. NOTE: Renouncing ownership will leave the contract without an owner, thereby disabling any functionality that is only available to the owner."
      },
      "supportsInterface(bytes4)": {
        "params": {
          "interfaceId": "The interfaceId to check"
        },
        "returns": {
          "_0": "true if the interfaceId is supported"
        }
      },
      "transferOwnership(address)": {
        "details": "Transfers ownership of the contract to a new account (`newOwner`). Can only be called by the current owner."
      }
    },
    "version": 1
  },
  "userdoc": {
    "kind": "user",
    "methods": {
      "ccipReceive((bytes32,uint64,bytes,bytes,(address,uint256)[]))": {
        "notice": "Called by the Router to deliver a message. If this reverts, any token transfers also revert. The message will move to a FAILED state and become available for manual execution."
      },
      "createPlan((string,uint256,string,uint256))": {
        "notice": "Create plans "
      },
      "getRouter()": {
        "notice": "Return the current router"
      },
      "handleOracleFulfillment(bytes32,bytes,bytes)": {
        "notice": "Chainlink Functions response handler called by the Functions Router during fullilment from the designated transmitter node in an OCR round."
      },
      "supportsInterface(bytes4)": {
        "notice": "IERC165 supports an interfaceId"
      }
    },
    "version": 1
  }
}