{
  "contractName": "KanvasInterop",
  "abi": [
    {
      "inputs": [
        {
          "internalType": "address",
          "name": "ccipReceiver",
          "type": "address"
        },
        {
          "internalType": "address",
          "name": "functionOracle",
          "type": "address"
        },
        {
          "internalType": "uint64",
          "name": "chainSelector",
          "type": "uint64"
        }
      ],
      "stateMutability": "nonpayable",
      "type": "constructor"
    },
    {
      "inputs": [],
      "name": "EmptyArgs",
      "type": "error"
    },
    {
      "inputs": [],
      "name": "EmptySource",
      "type": "error"
    },
    {
      "inputs": [
        {
          "internalType": "address",
          "name": "router",
          "type": "address"
        }
      ],
      "name": "InvalidRouter",
      "type": "error"
    },
    {
      "inputs": [],
      "name": "NoInlineSecrets",
      "type": "error"
    },
    {
      "inputs": [],
      "name": "OnlyRouterCanFulfill",
      "type": "error"
    },
    {
      "anonymous": false,
      "inputs": [
        {
          "indexed": true,
          "internalType": "address",
          "name": "previousOwner",
          "type": "address"
        },
        {
          "indexed": true,
          "internalType": "address",
          "name": "newOwner",
          "type": "address"
        }
      ],
      "name": "OwnershipTransferred",
      "type": "event"
    },
    {
      "anonymous": false,
      "inputs": [
        {
          "indexed": false,
          "internalType": "uint256",
          "name": "planId",
          "type": "uint256"
        },
        {
          "indexed": false,
          "internalType": "string",
          "name": "name",
          "type": "string"
        },
        {
          "indexed": false,
          "internalType": "uint256",
          "name": "cost",
          "type": "uint256"
        },
        {
          "indexed": false,
          "internalType": "string",
          "name": "color",
          "type": "string"
        },
        {
          "indexed": false,
          "internalType": "uint256",
          "name": "limit",
          "type": "uint256"
        }
      ],
      "name": "PlanCreated",
      "type": "event"
    },
    {
      "anonymous": false,
      "inputs": [
        {
          "indexed": true,
          "internalType": "bytes32",
          "name": "id",
          "type": "bytes32"
        }
      ],
      "name": "RequestFulfilled",
      "type": "event"
    },
    {
      "anonymous": false,
      "inputs": [
        {
          "indexed": true,
          "internalType": "bytes32",
          "name": "id",
          "type": "bytes32"
        }
      ],
      "name": "RequestSent",
      "type": "event"
    },
    {
      "inputs": [],
      "name": "MAX_PROPERTIES_LEN",
      "outputs": [
        {
          "internalType": "uint256",
          "name": "",
          "type": "uint256"
        }
      ],
      "stateMutability": "view",
      "type": "function"
    },
    {
      "inputs": [],
      "name": "MAX_TEMPLATES_LEN",
      "outputs": [
        {
          "internalType": "uint256",
          "name": "",
          "type": "uint256"
        }
      ],
      "stateMutability": "view",
      "type": "function"
    },
    {
      "inputs": [
        {
          "components": [
            {
              "internalType": "bytes32",
              "name": "messageId",
              "type": "bytes32"
            },
            {
              "internalType": "uint64",
              "name": "sourceChainSelector",
              "type": "uint64"
            },
            {
              "internalType": "bytes",
              "name": "sender",
              "type": "bytes"
            },
            {
              "internalType": "bytes",
              "name": "data",
              "type": "bytes"
            },
            {
              "components": [
                {
                  "internalType": "address",
                  "name": "token",
                  "type": "address"
                },
                {
                  "internalType": "uint256",
                  "name": "amount",
                  "type": "uint256"
                }
              ],
              "internalType": "struct Client.EVMTokenAmount[]",
              "name": "destTokenAmounts",
              "type": "tuple[]"
            }
          ],
          "internalType": "struct Client.Any2EVMMessage",
          "name": "message",
          "type": "tuple"
        }
      ],
      "name": "ccipReceive",
      "outputs": [],
      "stateMutability": "nonpayable",
      "type": "function"
    },
    {
      "inputs": [],
      "name": "getRouter",
      "outputs": [
        {
          "internalType": "address",
          "name": "",
          "type": "address"
        }
      ],
      "stateMutability": "view",
      "type": "function"
    },
    {
      "inputs": [
        {
          "internalType": "bytes32",
          "name": "requestId",
          "type": "bytes32"
        },
        {
          "internalType": "bytes",
          "name": "response",
          "type": "bytes"
        },
        {
          "internalType": "bytes",
          "name": "err",
          "type": "bytes"
        }
      ],
      "name": "handleOracleFulfillment",
      "outputs": [],
      "stateMutability": "nonpayable",
      "type": "function"
    },
    {
      "inputs": [],
      "name": "owner",
      "outputs": [
        {
          "internalType": "address",
          "name": "",
          "type": "address"
        }
      ],
      "stateMutability": "view",
      "type": "function"
    },
    {
      "inputs": [],
      "name": "renounceOwnership",
      "outputs": [],
      "stateMutability": "nonpayable",
      "type": "function"
    },
    {
      "inputs": [
        {
          "internalType": "bytes4",
          "name": "interfaceId",
          "type": "bytes4"
        }
      ],
      "name": "supportsInterface",
      "outputs": [
        {
          "internalType": "bool",
          "name": "",
          "type": "bool"
        }
      ],
      "stateMutability": "pure",
      "type": "function"
    },
    {
      "inputs": [
        {
          "internalType": "address",
          "name": "newOwner",
          "type": "address"
        }
      ],
      "name": "transferOwnership",
      "outputs": [],
      "stateMutability": "nonpayable",
      "type": "function"
    },
    {
      "inputs": [
        {
          "internalType": "bytes32",
          "name": "newDonId",
          "type": "bytes32"
        }
      ],
      "name": "updateDonId",
      "outputs": [],
      "stateMutability": "nonpayable",
      "type": "function"
    },
    {
      "inputs": [
        {
          "internalType": "string",
          "name": "newSourceCode",
          "type": "string"
        }
      ],
      "name": "updateSourceCode",
      "outputs": [],
      "stateMutability": "nonpayable",
      "type": "function"
    },
    {
      "inputs": [
        {
          "internalType": "uint32",
          "name": "newLimit",
          "type": "uint32"
        }
      ],
      "name": "updateGasLimit",
      "outputs": [],
      "stateMutability": "nonpayable",
      "type": "function"
    },
    {
      "inputs": [
        {
          "internalType": "uint64",
          "name": "newSubscriptionId",
          "type": "uint64"
        }
      ],
      "name": "updateSubscriptionId",
      "outputs": [],
      "stateMutability": "nonpayable",
      "type": "function"
    },
    {
      "inputs": [
        {
          "internalType": "uint64",
          "name": "",
          "type": "uint64"
        },
        {
          "components": [
            {
              "internalType": "address",
              "name": "gameId",
              "type": "address"
            }
          ],
          "internalType": "struct Params.InteropGame",
          "name": "params",
          "type": "tuple"
        }
      ],
      "name": "_createGame",
      "outputs": [],
      "stateMutability": "nonpayable",
      "type": "function"
    },
    {
      "inputs": [
        {
          "internalType": "address",
          "name": "playerId",
          "type": "address"
        },
        {
          "internalType": "string[]",
          "name": "props",
          "type": "string[]"
        },
        {
          "internalType": "string",
          "name": "fields",
          "type": "string"
        },
        {
          "internalType": "uint8",
          "name": "templateId",
          "type": "uint8"
        }
      ],
      "name": "_generateUri",
      "outputs": [],
      "stateMutability": "nonpayable",
      "type": "function"
    },
    {
      "inputs": [
        {
          "internalType": "uint64",
          "name": "chainSelector",
          "type": "uint64"
        },
        {
          "internalType": "address",
          "name": "kanvasRouter",
          "type": "address"
        }
      ],
      "name": "updateInterop",
      "outputs": [],
      "stateMutability": "nonpayable",
      "type": "function"
    },
    {
      "inputs": [
        {
          "internalType": "uint64",
          "name": "chainSelector",
          "type": "uint64"
        },
        {
          "internalType": "address",
          "name": "gameId",
          "type": "address"
        },
        {
          "internalType": "address",
          "name": "playerId",
          "type": "address"
        },
        {
          "internalType": "uint256",
          "name": "tokenId",
          "type": "uint256"
        },
        {
          "internalType": "string",
          "name": "uri",
          "type": "string"
        },
        {
          "internalType": "bytes",
          "name": "data",
          "type": "bytes"
        }
      ],
      "name": "_transferTo",
      "outputs": [],
      "stateMutability": "payable",
      "type": "function"
    }
  ],
  "bytecode": "0x60e06040523480156200001157600080fd5b5060405162004ace38038062004ace833981810160405281019062000037919062000332565b8183600073ffffffffffffffffffffffffffffffffffffffff168173ffffffffffffffffffffffffffffffffffffffff1603620000ae5760006040517fd7f73334000000000000000000000000000000000000000000000000000000008152600401620000a591906200039f565b60405180910390fd5b8073ffffffffffffffffffffffffffffffffffffffff1660808173ffffffffffffffffffffffffffffffffffffffff1681525050508073ffffffffffffffffffffffffffffffffffffffff1660a08173ffffffffffffffffffffffffffffffffffffffff168152505050620001386200012c620001ad60201b60201c565b620001b560201b60201c565b620001486200027960201b60201c565b600760006101000a81548173ffffffffffffffffffffffffffffffffffffffff021916908373ffffffffffffffffffffffffffffffffffffffff1602179055508067ffffffffffffffff1660c08167ffffffffffffffff1681525050505050620003bc565b600033905090565b60008060009054906101000a900473ffffffffffffffffffffffffffffffffffffffff169050816000806101000a81548173ffffffffffffffffffffffffffffffffffffffff021916908373ffffffffffffffffffffffffffffffffffffffff1602179055508173ffffffffffffffffffffffffffffffffffffffff168173ffffffffffffffffffffffffffffffffffffffff167f8be0079c531659141344cd1fd0a4f28419497f9722a3daafe3b4186f6b6457e060405160405180910390a35050565b6000608051905090565b600080fd5b600073ffffffffffffffffffffffffffffffffffffffff82169050919050565b6000620002b58262000288565b9050919050565b620002c781620002a8565b8114620002d357600080fd5b50565b600081519050620002e781620002bc565b92915050565b600067ffffffffffffffff82169050919050565b6200030c81620002ed565b81146200031857600080fd5b50565b6000815190506200032c8162000301565b92915050565b6000806000606084860312156200034e576200034d62000283565b5b60006200035e86828701620002d6565b93505060206200037186828701620002d6565b925050604062000384868287016200031b565b9150509250925092565b6200039981620002a8565b82525050565b6000602082019050620003b660008301846200038e565b92915050565b60805160a05160c0516146cd62000401600039600081816108ba01526109be01526000818161048d0152611c160152600081816105d50152610b7501526146cd6000f3fe6080604052600436106100fe5760003560e01c80638d6dc0eb11610095578063b0f479a111610064578063b0f479a1146102e8578063b3285e3214610313578063dff0ee411461033c578063eee6e57314610367578063f2fde38b14610390576100fe565b80638d6dc0eb1461024f5780638da5cb5b1461026b57806392154a3d14610296578063afd21cfe146102bf576100fe565b80636df0c747116100d15780636df0c747146101bb578063715018a6146101e457806385572ffb146101fb5780638b8ff35814610224576100fe565b806301ffc9a7146101035780630ca761751461014057806314b1dd1b1461016957806334303bcd14610192575b600080fd5b34801561010f57600080fd5b5061012a6004803603810190610125919061280b565b6103b9565b6040516101379190612853565b60405180910390f35b34801561014c57600080fd5b50610167600480360381019061016291906129ea565b61048b565b005b34801561017557600080fd5b50610190600480360381019061018b9190612ab5565b61054d565b005b34801561019e57600080fd5b506101b960048036038101906101b49190612b1e565b610581565b005b3480156101c757600080fd5b506101e260048036038101906101dd9190612b4b565b6105ad565b005b3480156101f057600080fd5b506101f96105bf565b005b34801561020757600080fd5b50610222600480360381019061021d9190612b9c565b6105d3565b005b34801561023057600080fd5b50610239610678565b6040516102469190612bfe565b60405180910390f35b61026960048036038101906102649190612d44565b61067d565b005b34801561027757600080fd5b50610280610a49565b60405161028d9190612e18565b60405180910390f35b3480156102a257600080fd5b506102bd60048036038101906102b89190612e33565b610a72565b005b3480156102cb57600080fd5b506102e660048036038101906102e19190612eb9565b610ae4565b005b3480156102f457600080fd5b506102fd610b71565b60405161030a9190612e18565b60405180910390f35b34801561031f57600080fd5b5061033a60048036038101906103359190612ef9565b610b99565b005b34801561034857600080fd5b50610351610bb4565b60405161035e9190612bfe565b60405180910390f35b34801561037357600080fd5b5061038e60048036038101906103899190613061565b610bb9565b005b34801561039c57600080fd5b506103b760048036038101906103b29190613100565b6110d3565b005b60007f85572ffb000000000000000000000000000000000000000000000000000000007bffffffffffffffffffffffffffffffffffffffffffffffffffffffff1916827bffffffffffffffffffffffffffffffffffffffffffffffffffffffff1916148061048457507f01ffc9a7000000000000000000000000000000000000000000000000000000007bffffffffffffffffffffffffffffffffffffffffffffffffffffffff1916827bffffffffffffffffffffffffffffffffffffffffffffffffffffffff1916145b9050919050565b7f000000000000000000000000000000000000000000000000000000000000000073ffffffffffffffffffffffffffffffffffffffff163373ffffffffffffffffffffffffffffffffffffffff1614610510576040517fc6829f8300000000000000000000000000000000000000000000000000000000815260040160405180910390fd5b61051b838383611156565b827f85e1543bf2f84fe80c6badbce3648c8539ad1df4d2b3d822938ca0538be727e660405160405180910390a2505050565b610555611427565b80600260006101000a81548167ffffffffffffffff021916908367ffffffffffffffff16021790555050565b610589611427565b80600260086101000a81548163ffffffff021916908363ffffffff16021790555050565b6105b5611427565b8060038190555050565b6105c7611427565b6105d160006114a5565b565b7f000000000000000000000000000000000000000000000000000000000000000073ffffffffffffffffffffffffffffffffffffffff163373ffffffffffffffffffffffffffffffffffffffff161461066357336040517fd7f7333400000000000000000000000000000000000000000000000000000000815260040161065a9190612e18565b60405180910390fd5b6106758161067090613320565b611569565b50565b601481565b600073ffffffffffffffffffffffffffffffffffffffff16600660008867ffffffffffffffff1667ffffffffffffffff16815260200190815260200160002060009054906101000a900473ffffffffffffffffffffffffffffffffffffffff1673ffffffffffffffffffffffffffffffffffffffff1603610733576040517f08c379a000000000000000000000000000000000000000000000000000000000815260040161072a90613390565b60405180910390fd5b60006040518060a00160405280600660008a67ffffffffffffffff1667ffffffffffffffff16815260200190815260200160002060009054906101000a900473ffffffffffffffffffffffffffffffffffffffff166040516020016107989190612e18565b604051602081830303815290604052815260200187878787876040516020016107c5959493929190613473565b6040516020818303038152906040528152602001600067ffffffffffffffff8111156107f4576107f36128bf565b5b60405190808252806020026020018201604052801561082d57816020015b61081a6126c3565b8152602001906001900390816108125790505b508152602001600073ffffffffffffffffffffffffffffffffffffffff168152602001610873604051806040016040528062061a8081526020016000151581525061161a565b81525090506000600760009054906101000a900473ffffffffffffffffffffffffffffffffffffffff1673ffffffffffffffffffffffffffffffffffffffff166320487ded7f0000000000000000000000000000000000000000000000000000000000000000846040518363ffffffff1660e01b81526004016108f79291906136b4565b602060405180830381865afa158015610914573d6000803e3d6000fd5b505050506040513d601f19601f8201168201806040525081019061093891906136f9565b90508034101561097d576040517f08c379a000000000000000000000000000000000000000000000000000000000815260040161097490613772565b60405180910390fd5b600760009054906101000a900473ffffffffffffffffffffffffffffffffffffffff1673ffffffffffffffffffffffffffffffffffffffff166396f4e9f9827f0000000000000000000000000000000000000000000000000000000000000000856040518463ffffffff1660e01b81526004016109fb9291906136b4565b60206040518083038185885af1158015610a19573d6000803e3d6000fd5b50505050506040513d601f19601f82011682018060405250810190610a3e91906137a7565b505050505050505050565b60008060009054906101000a900473ffffffffffffffffffffffffffffffffffffffff16905090565b610a7a611427565b80600660008467ffffffffffffffff1667ffffffffffffffff16815260200190815260200160002060006101000a81548173ffffffffffffffffffffffffffffffffffffffff021916908373ffffffffffffffffffffffffffffffffffffffff1602179055505050565b806000015160046000610af5611699565b73ffffffffffffffffffffffffffffffffffffffff1673ffffffffffffffffffffffffffffffffffffffff16815260200190815260200160002060006101000a81548173ffffffffffffffffffffffffffffffffffffffff021916908373ffffffffffffffffffffffffffffffffffffffff1602179055505050565b60007f0000000000000000000000000000000000000000000000000000000000000000905090565b610ba1611427565b8060019081610bb091906139e0565b5050565b600581565b601483511115610bfe576040517f08c379a0000000000000000000000000000000000000000000000000000000008152600401610bf590613afe565b60405180910390fd5b600060046000610c0c611699565b73ffffffffffffffffffffffffffffffffffffffff1673ffffffffffffffffffffffffffffffffffffffff16815260200190815260200160002060009054906101000a900473ffffffffffffffffffffffffffffffffffffffff169050600073ffffffffffffffffffffffffffffffffffffffff16600460008373ffffffffffffffffffffffffffffffffffffffff1673ffffffffffffffffffffffffffffffffffffffff16815260200190815260200160002060009054906101000a900473ffffffffffffffffffffffffffffffffffffffff1673ffffffffffffffffffffffffffffffffffffffff1603610d37576040517f08c379a0000000000000000000000000000000000000000000000000000000008152600401610d2e90613b6a565b60405180910390fd5b6000600567ffffffffffffffff811115610d5457610d536128bf565b5b604051908082528060200260200182016040528015610d8757816020015b6060815260200190600190039081610d725790505b50905073__StringJoiner__________________________635c8656e0866040518263ffffffff1660e01b8152600401610dc19190613cf3565b600060405180830381865af4158015610dde573d6000803e3d6000fd5b505050506040513d6000823e3d601f19601f82011682018060405250810190610e079190613d98565b81600081518110610e1b57610e1a613de1565b5b60200260200101819052508381600181518110610e3b57610e3a613de1565b5b6020026020010181905250610e4f826116a1565b81600281518110610e6357610e62613de1565b5b6020026020010181905250610e77866116a1565b81600381518110610e8b57610e8a613de1565b5b6020026020010181905250610ea28360ff166116ce565b81600481518110610eb657610eb5613de1565b5b6020026020010181905250610ec96126f3565b610f6660018054610ed990613803565b80601f0160208091040260200160405190810160405280929190818152602001828054610f0590613803565b8015610f525780601f10610f2757610100808354040283529160200191610f52565b820191906000526020600020905b815481529060010190602001808311610f3557829003601f168201915b50505050508261179c90919063ffffffff16565b610f7982826117ad90919063ffffffff16565b6000610fb9610f87836117f5565b600260009054906101000a900467ffffffffffffffff16600260089054906101000a900463ffffffff16600354611c11565b905060405180606001604052808573ffffffffffffffffffffffffffffffffffffffff1681526020018973ffffffffffffffffffffffffffffffffffffffff168152602001600015158152506005600083815260200190815260200160002060008201518160000160006101000a81548173ffffffffffffffffffffffffffffffffffffffff021916908373ffffffffffffffffffffffffffffffffffffffff16021790555060208201518160010160006101000a81548173ffffffffffffffffffffffffffffffffffffffff021916908373ffffffffffffffffffffffffffffffffffffffff16021790555060408201518160010160146101000a81548160ff0219169083151502179055509050505050505050505050565b6110db611427565b600073ffffffffffffffffffffffffffffffffffffffff168173ffffffffffffffffffffffffffffffffffffffff160361114a576040517f08c379a000000000000000000000000000000000000000000000000000000000815260040161114190613e82565b60405180910390fd5b611153816114a5565b50565b60008280602001905181019061116c9190613d98565b905060006005600086815260200190815260200160002090508060010160149054906101000a900460ff16156111d7576040517f08c379a00000000000000000000000000000000000000000000000000000000081526004016111ce90613eee565b60405180910390fd5b611216826040518060400160405280600481526020017f4e554c4c00000000000000000000000000000000000000000000000000000000815250611cf4565b15611256576040517f08c379a000000000000000000000000000000000000000000000000000000000815260040161124d90613f5a565b60405180910390fd5b60018160010160146101000a81548160ff021916908315150217905550600073ffffffffffffffffffffffffffffffffffffffff16600460008360000160009054906101000a900473ffffffffffffffffffffffffffffffffffffffff1673ffffffffffffffffffffffffffffffffffffffff1673ffffffffffffffffffffffffffffffffffffffff16815260200190815260200160002060009054906101000a900473ffffffffffffffffffffffffffffffffffffffff1673ffffffffffffffffffffffffffffffffffffffff1603611365576040517f08c379a000000000000000000000000000000000000000000000000000000000815260040161135c90613b6a565b60405180910390fd5b60008160000160009054906101000a900473ffffffffffffffffffffffffffffffffffffffff1690508073ffffffffffffffffffffffffffffffffffffffff16638f9c39568360010160009054906101000a900473ffffffffffffffffffffffffffffffffffffffff16856040518363ffffffff1660e01b81526004016113ed929190613f7a565b600060405180830381600087803b15801561140757600080fd5b505af115801561141b573d6000803e3d6000fd5b50505050505050505050565b61142f611699565b73ffffffffffffffffffffffffffffffffffffffff1661144d610a49565b73ffffffffffffffffffffffffffffffffffffffff16146114a3576040517f08c379a000000000000000000000000000000000000000000000000000000000815260040161149a90613ff6565b60405180910390fd5b565b60008060009054906101000a900473ffffffffffffffffffffffffffffffffffffffff169050816000806101000a81548173ffffffffffffffffffffffffffffffffffffffff021916908373ffffffffffffffffffffffffffffffffffffffff1602179055508173ffffffffffffffffffffffffffffffffffffffff168173ffffffffffffffffffffffffffffffffffffffff167f8be0079c531659141344cd1fd0a4f28419497f9722a3daafe3b4186f6b6457e060405160405180910390a35050565b6000806000806000856060015180602001905181019061158991906140c4565b9450945094509450945060008590508073ffffffffffffffffffffffffffffffffffffffff16636d4195fb886020015188888888886040518763ffffffff1660e01b81526004016115df96959493929190614177565b600060405180830381600087803b1580156115f957600080fd5b505af115801561160d573d6000803e3d6000fd5b5050505050505050505050565b60606397a657c960e01b826040516024016116359190614224565b604051602081830303815290604052907bffffffffffffffffffffffffffffffffffffffffffffffffffffffff19166020820180517bffffffffffffffffffffffffffffffffffffffffffffffffffffffff83818316178352505050509050919050565b600033905090565b60606116c78273ffffffffffffffffffffffffffffffffffffffff16601460ff16611d0f565b9050919050565b6060600060016116dd84611f4b565b01905060008167ffffffffffffffff8111156116fc576116fb6128bf565b5b6040519080825280601f01601f19166020018201604052801561172e5781602001600182028036833780820191505090505b509050600082602001820190505b600115611791578080600190039150507f3031323334353637383961626364656600000000000000000000000000000000600a86061a8153600a85816117855761178461423f565b5b0494506000850361173c575b819350505050919050565b6117a9826000808461209e565b5050565b60008151036117e8576040517ffe936cb700000000000000000000000000000000000000000000000000000000815260040160405180910390fd5b808260a001819052505050565b60606000611804610100612148565b905061184e6040518060400160405280600c81526020017f636f64654c6f636174696f6e00000000000000000000000000000000000000008152508261216f90919063ffffffff16565b611877836000015160028111156118685761186761426e565b5b8261219890919063ffffffff16565b6118bf6040518060400160405280600881526020017f6c616e67756167650000000000000000000000000000000000000000000000008152508261216f90919063ffffffff16565b6118e8836040015160008111156118d9576118d861426e565b5b8261219890919063ffffffff16565b6119306040518060400160405280600681526020017f736f7572636500000000000000000000000000000000000000000000000000008152508261216f90919063ffffffff16565b61194783606001518261216f90919063ffffffff16565b60008360a00151511115611a035761199d6040518060400160405280600481526020017f61726773000000000000000000000000000000000000000000000000000000008152508261216f90919063ffffffff16565b6119a6816121e8565b60005b8360a00151518110156119f8576119e78460a0015182815181106119d0576119cf613de1565b5b60200260200101518361216f90919063ffffffff16565b806119f1906142cc565b90506119a9565b50611a0281612210565b5b60008360800151511115611b445760006002811115611a2557611a2461426e565b5b83602001516002811115611a3c57611a3b61426e565b5b03611a73576040517fa80d31f700000000000000000000000000000000000000000000000000000000815260040160405180910390fd5b611abb6040518060400160405280600f81526020017f736563726574734c6f636174696f6e00000000000000000000000000000000008152508261216f90919063ffffffff16565b611ae483602001516002811115611ad557611ad461426e565b5b8261219890919063ffffffff16565b611b2c6040518060400160405280600781526020017f73656372657473000000000000000000000000000000000000000000000000008152508261216f90919063ffffffff16565b611b4383608001518261223890919063ffffffff16565b5b60008360c00151511115611c0057611b9a6040518060400160405280600981526020017f62797465734172677300000000000000000000000000000000000000000000008152508261216f90919063ffffffff16565b611ba3816121e8565b60005b8360c0015151811015611bf557611be48460c001518281518110611bcd57611bcc613de1565b5b60200260200101518361223890919063ffffffff16565b80611bee906142cc565b9050611ba6565b50611bff81612210565b5b806000015160000151915050919050565b6000807f000000000000000000000000000000000000000000000000000000000000000073ffffffffffffffffffffffffffffffffffffffff1663461d27628688600188886040518663ffffffff1660e01b8152600401611c7695949392919061434f565b6020604051808303816000875af1158015611c95573d6000803e3d6000fd5b505050506040513d601f19601f82011682018060405250810190611cb991906137a7565b9050807f1131472297a800fee664d1d89cfa8f7676ff07189ecc53f80bbb5f4969099db860405160405180910390a280915050949350505050565b60008180519060200120838051906020012014905092915050565b606060006002836002611d2291906143a9565b611d2c91906143eb565b67ffffffffffffffff811115611d4557611d446128bf565b5b6040519080825280601f01601f191660200182016040528015611d775781602001600182028036833780820191505090505b5090507f300000000000000000000000000000000000000000000000000000000000000081600081518110611daf57611dae613de1565b5b60200101907effffffffffffffffffffffffffffffffffffffffffffffffffffffffffffff1916908160001a9053507f780000000000000000000000000000000000000000000000000000000000000081600181518110611e1357611e12613de1565b5b60200101907effffffffffffffffffffffffffffffffffffffffffffffffffffffffffffff1916908160001a90535060006001846002611e5391906143a9565b611e5d91906143eb565b90505b6001811115611efd577f3031323334353637383961626364656600000000000000000000000000000000600f861660108110611e9f57611e9e613de1565b5b1a60f81b828281518110611eb657611eb5613de1565b5b60200101907effffffffffffffffffffffffffffffffffffffffffffffffffffffffffffff1916908160001a905350600485901c945080611ef69061441f565b9050611e60565b5060008414611f41576040517f08c379a0000000000000000000000000000000000000000000000000000000008152600401611f3890614494565b60405180910390fd5b8091505092915050565b600080600090507a184f03e93ff9f4daa797ed6e38ed64bf6a1f0100000000000000008310611fa9577a184f03e93ff9f4daa797ed6e38ed64bf6a1f0100000000000000008381611f9f57611f9e61423f565b5b0492506040810190505b6d04ee2d6d415b85acef81000000008310611fe6576d04ee2d6d415b85acef81000000008381611fdc57611fdb61423f565b5b0492506020810190505b662386f26fc10000831061201557662386f26fc10000838161200b5761200a61423f565b5b0492506010810190505b6305f5e100831061203e576305f5e10083816120345761203361423f565b5b0492506008810190505b61271083106120635761271083816120595761205861423f565b5b0492506004810190505b60648310612086576064838161207c5761207b61423f565b5b0492506002810190505b600a8310612095576001810190505b80915050919050565b60008151036120d9576040517f22ce3edd00000000000000000000000000000000000000000000000000000000815260040160405180910390fd5b82846000019060028111156120f1576120f061426e565b5b908160028111156121055761210461426e565b5b8152505081846040019060008111156121215761212061426e565b5b908160008111156121355761213461426e565b5b8152505080846060018190525050505050565b612150612765565b61215e816000015183612261565b506000816020018181525050919050565b61217c82600383516122da565b61219381836000015161248390919063ffffffff16565b505050565b6121ba60026005600660ff16901b17836000015161249f90919063ffffffff16565b506121e482826040516020016121d09190612bfe565b604051602081830303815290604052612238565b5050565b6121f3816004612509565b60018160200181815161220691906143eb565b9150818152505050565b61221b816007612509565b60018160200181815161222e91906144b4565b9150818152505050565b61224582600283516122da565b61225c81836000015161248390919063ffffffff16565b505050565b612269612785565b600060208361227891906144e8565b146122a45760208261228a91906144e8565b602061229691906144b4565b826122a191906143eb565b91505b8183602001818152505060405180845260008152828101602001818110156122cb57600080fd5b80604052505082905092915050565b60178167ffffffffffffffff16116123155761230f8160058460ff16901b60ff1617846000015161249f90919063ffffffff16565b5061247e565b60ff8167ffffffffffffffff161161237357612348601860058460ff16901b17846000015161249f90919063ffffffff16565b5061236d8167ffffffffffffffff166001856000015161252f9092919063ffffffff16565b5061247d565b61ffff8167ffffffffffffffff16116123d2576123a7601960058460ff16901b17846000015161249f90919063ffffffff16565b506123cc8167ffffffffffffffff166002856000015161252f9092919063ffffffff16565b5061247c565b63ffffffff8167ffffffffffffffff161161243357612408601a60058460ff16901b17846000015161249f90919063ffffffff16565b5061242d8167ffffffffffffffff166004856000015161252f9092919063ffffffff16565b5061247b565b612454601b60058460ff16901b17846000015161249f90919063ffffffff16565b506124798167ffffffffffffffff166008856000015161252f9092919063ffffffff16565b505b5b5b5b505050565b61248b612785565b612497838384516125bc565b905092915050565b6124a7612785565b6000836000015151905060006001826124c091906143eb565b9050846020015182106124e4576124e3856002836124de91906143a9565b61269f565b5b845160208382010185815381518311156124fc578282525b5050849250505092915050565b61252a601f60058360ff16901b17836000015161249f90919063ffffffff16565b505050565b612537612785565b600084600001515190506000818461254f91906143eb565b90508560200151811115612574576125738660028361256e91906143a9565b61269f565b5b6000600185610100612586919061464c565b61259091906144b4565b9050865182810187831982511617815281518411156125ad578382525b50508693505050509392505050565b6125c4612785565b82518211156125d257600080fd5b60008460000151519050600083826125ea91906143eb565b9050856020015181111561260f5761260e8660028361260991906143a9565b61269f565b5b6000808751805185602083010193508085111561262a578482525b60208901925050505b60208610612671578051825260208261264c91906143eb565b915060208161265b91906143eb565b905060208661266a91906144b4565b9550612633565b60006001876020036101000a0390508019825116818451168181178552505050879450505050509392505050565b6000826000015190506126b28383612261565b506126bd8382612483565b50505050565b6040518060400160405280600073ffffffffffffffffffffffffffffffffffffffff168152602001600081525090565b6040518060e00160405280600060028111156127125761271161426e565b5b81526020016000600281111561272b5761272a61426e565b5b81526020016000808111156127435761274261426e565b5b8152602001606081526020016060815260200160608152602001606081525090565b6040518060400160405280612778612785565b8152602001600081525090565b604051806040016040528060608152602001600081525090565b6000604051905090565b600080fd5b600080fd5b60007fffffffff0000000000000000000000000000000000000000000000000000000082169050919050565b6127e8816127b3565b81146127f357600080fd5b50565b600081359050612805816127df565b92915050565b600060208284031215612821576128206127a9565b5b600061282f848285016127f6565b91505092915050565b60008115159050919050565b61284d81612838565b82525050565b60006020820190506128686000830184612844565b92915050565b6000819050919050565b6128818161286e565b811461288c57600080fd5b50565b60008135905061289e81612878565b92915050565b600080fd5b600080fd5b6000601f19601f8301169050919050565b7f4e487b7100000000000000000000000000000000000000000000000000000000600052604160045260246000fd5b6128f7826128ae565b810181811067ffffffffffffffff82111715612916576129156128bf565b5b80604052505050565b600061292961279f565b905061293582826128ee565b919050565b600067ffffffffffffffff821115612955576129546128bf565b5b61295e826128ae565b9050602081019050919050565b82818337600083830152505050565b600061298d6129888461293a565b61291f565b9050828152602081018484840111156129a9576129a86128a9565b5b6129b484828561296b565b509392505050565b600082601f8301126129d1576129d06128a4565b5b81356129e184826020860161297a565b91505092915050565b600080600060608486031215612a0357612a026127a9565b5b6000612a118682870161288f565b935050602084013567ffffffffffffffff811115612a3257612a316127ae565b5b612a3e868287016129bc565b925050604084013567ffffffffffffffff811115612a5f57612a5e6127ae565b5b612a6b868287016129bc565b9150509250925092565b600067ffffffffffffffff82169050919050565b612a9281612a75565b8114612a9d57600080fd5b50565b600081359050612aaf81612a89565b92915050565b600060208284031215612acb57612aca6127a9565b5b6000612ad984828501612aa0565b91505092915050565b600063ffffffff82169050919050565b612afb81612ae2565b8114612b0657600080fd5b50565b600081359050612b1881612af2565b92915050565b600060208284031215612b3457612b336127a9565b5b6000612b4284828501612b09565b91505092915050565b600060208284031215612b6157612b606127a9565b5b6000612b6f8482850161288f565b91505092915050565b600080fd5b600060a08284031215612b9357612b92612b78565b5b81905092915050565b600060208284031215612bb257612bb16127a9565b5b600082013567ffffffffffffffff811115612bd057612bcf6127ae565b5b612bdc84828501612b7d565b91505092915050565b6000819050919050565b612bf881612be5565b82525050565b6000602082019050612c136000830184612bef565b92915050565b600073ffffffffffffffffffffffffffffffffffffffff82169050919050565b6000612c4482612c19565b9050919050565b612c5481612c39565b8114612c5f57600080fd5b50565b600081359050612c7181612c4b565b92915050565b612c8081612be5565b8114612c8b57600080fd5b50565b600081359050612c9d81612c77565b92915050565b600067ffffffffffffffff821115612cbe57612cbd6128bf565b5b612cc7826128ae565b9050602081019050919050565b6000612ce7612ce284612ca3565b61291f565b905082815260208101848484011115612d0357612d026128a9565b5b612d0e84828561296b565b509392505050565b600082601f830112612d2b57612d2a6128a4565b5b8135612d3b848260208601612cd4565b91505092915050565b60008060008060008060c08789031215612d6157612d606127a9565b5b6000612d6f89828a01612aa0565b9650506020612d8089828a01612c62565b9550506040612d9189828a01612c62565b9450506060612da289828a01612c8e565b935050608087013567ffffffffffffffff811115612dc357612dc26127ae565b5b612dcf89828a01612d16565b92505060a087013567ffffffffffffffff811115612df057612def6127ae565b5b612dfc89828a016129bc565b9150509295509295509295565b612e1281612c39565b82525050565b6000602082019050612e2d6000830184612e09565b92915050565b60008060408385031215612e4a57612e496127a9565b5b6000612e5885828601612aa0565b9250506020612e6985828601612c62565b9150509250929050565b600080fd5b600080fd5b600060208284031215612e9357612e92612e73565b5b612e9d602061291f565b90506000612ead84828501612c62565b60008301525092915050565b60008060408385031215612ed057612ecf6127a9565b5b6000612ede85828601612aa0565b9250506020612eef85828601612e7d565b9150509250929050565b600060208284031215612f0f57612f0e6127a9565b5b600082013567ffffffffffffffff811115612f2d57612f2c6127ae565b5b612f3984828501612d16565b91505092915050565b600067ffffffffffffffff821115612f5d57612f5c6128bf565b5b602082029050602081019050919050565b600080fd5b6000612f86612f8184612f42565b61291f565b90508083825260208201905060208402830185811115612fa957612fa8612f6e565b5b835b81811015612ff057803567ffffffffffffffff811115612fce57612fcd6128a4565b5b808601612fdb8982612d16565b85526020850194505050602081019050612fab565b5050509392505050565b600082601f83011261300f5761300e6128a4565b5b813561301f848260208601612f73565b91505092915050565b600060ff82169050919050565b61303e81613028565b811461304957600080fd5b50565b60008135905061305b81613035565b92915050565b6000806000806080858703121561307b5761307a6127a9565b5b600061308987828801612c62565b945050602085013567ffffffffffffffff8111156130aa576130a96127ae565b5b6130b687828801612ffa565b935050604085013567ffffffffffffffff8111156130d7576130d66127ae565b5b6130e387828801612d16565b92505060606130f48782880161304c565b91505092959194509250565b600060208284031215613116576131156127a9565b5b600061312484828501612c62565b91505092915050565b600067ffffffffffffffff821115613148576131476128bf565b5b602082029050602081019050919050565b60006040828403121561316f5761316e612e73565b5b613179604061291f565b9050600061318984828501612c62565b600083015250602061319d84828501612c8e565b60208301525092915050565b60006131bc6131b78461312d565b61291f565b905080838252602082019050604084028301858111156131df576131de612f6e565b5b835b8181101561320857806131f48882613159565b8452602084019350506040810190506131e1565b5050509392505050565b600082601f830112613227576132266128a4565b5b81356132378482602086016131a9565b91505092915050565b600060a0828403121561325657613255612e73565b5b61326060a061291f565b905060006132708482850161288f565b600083015250602061328484828501612aa0565b602083015250604082013567ffffffffffffffff8111156132a8576132a7612e78565b5b6132b4848285016129bc565b604083015250606082013567ffffffffffffffff8111156132d8576132d7612e78565b5b6132e4848285016129bc565b606083015250608082013567ffffffffffffffff81111561330857613307612e78565b5b61331484828501613212565b60808301525092915050565b600061332c3683613240565b9050919050565b600082825260208201905092915050565b7f436861696e206e6f7420737570706f7274656400000000000000000000000000600082015250565b600061337a601383613333565b915061338582613344565b602082019050919050565b600060208201905081810360008301526133a98161336d565b9050919050565b600081519050919050565b60005b838110156133d95780820151818401526020810190506133be565b60008484015250505050565b60006133f0826133b0565b6133fa8185613333565b935061340a8185602086016133bb565b613413816128ae565b840191505092915050565b600081519050919050565b600082825260208201905092915050565b60006134458261341e565b61344f8185613429565b935061345f8185602086016133bb565b613468816128ae565b840191505092915050565b600060a0820190506134886000830188612e09565b6134956020830187612e09565b6134a26040830186612bef565b81810360608301526134b481856133e5565b905081810360808301526134c8818461343a565b90509695505050505050565b6134dd81612a75565b82525050565b600082825260208201905092915050565b60006134ff8261341e565b61350981856134e3565b93506135198185602086016133bb565b613522816128ae565b840191505092915050565b600081519050919050565b600082825260208201905092915050565b6000819050602082019050919050565b61356281612c39565b82525050565b61357181612be5565b82525050565b60408201600082015161358d6000850182613559565b5060208201516135a06020850182613568565b50505050565b60006135b28383613577565b60408301905092915050565b6000602082019050919050565b60006135d68261352d565b6135e08185613538565b93506135eb83613549565b8060005b8381101561361c57815161360388826135a6565b975061360e836135be565b9250506001810190506135ef565b5085935050505092915050565b600060a083016000830151848203600086015261364682826134f4565b9150506020830151848203602086015261366082826134f4565b9150506040830151848203604086015261367a82826135cb565b915050606083015161368f6060860182613559565b50608083015184820360808601526136a782826134f4565b9150508091505092915050565b60006040820190506136c960008301856134d4565b81810360208301526136db8184613629565b90509392505050565b6000815190506136f381612c77565b92915050565b60006020828403121561370f5761370e6127a9565b5b600061371d848285016136e4565b91505092915050565b7f496e73756666696369656e742066656500000000000000000000000000000000600082015250565b600061375c601083613333565b915061376782613726565b602082019050919050565b6000602082019050818103600083015261378b8161374f565b9050919050565b6000815190506137a181612878565b92915050565b6000602082840312156137bd576137bc6127a9565b5b60006137cb84828501613792565b91505092915050565b7f4e487b7100000000000000000000000000000000000000000000000000000000600052602260045260246000fd5b6000600282049050600182168061381b57607f821691505b60208210810361382e5761382d6137d4565b5b50919050565b60008190508160005260206000209050919050565b60006020601f8301049050919050565b600082821b905092915050565b6000600883026138967fffffffffffffffffffffffffffffffffffffffffffffffffffffffffffffffff82613859565b6138a08683613859565b95508019841693508086168417925050509392505050565b6000819050919050565b60006138dd6138d86138d384612be5565b6138b8565b612be5565b9050919050565b6000819050919050565b6138f7836138c2565b61390b613903826138e4565b848454613866565b825550505050565b600090565b613920613913565b61392b8184846138ee565b505050565b5b8181101561394f57613944600082613918565b600181019050613931565b5050565b601f8211156139945761396581613834565b61396e84613849565b8101602085101561397d578190505b61399161398985613849565b830182613930565b50505b505050565b600082821c905092915050565b60006139b760001984600802613999565b1980831691505092915050565b60006139d083836139a6565b9150826002028217905092915050565b6139e9826133b0565b67ffffffffffffffff811115613a0257613a016128bf565b5b613a0c8254613803565b613a17828285613953565b600060209050601f831160018114613a4a5760008415613a38578287015190505b613a4285826139c4565b865550613aaa565b601f198416613a5886613834565b60005b82811015613a8057848901518255600182019150602085019450602081019050613a5b565b86831015613a9d5784890151613a99601f8916826139a6565b8355505b6001600288020188555050505b505050505050565b7f546f6f206d616e79206174747269627574657300000000000000000000000000600082015250565b6000613ae8601383613333565b9150613af382613ab2565b602082019050919050565b60006020820190508181036000830152613b1781613adb565b9050919050565b7f47616d65204e6f7420466f756e64000000000000000000000000000000000000600082015250565b6000613b54600e83613333565b9150613b5f82613b1e565b602082019050919050565b60006020820190508181036000830152613b8381613b47565b9050919050565b600081519050919050565b600082825260208201905092915050565b6000819050602082019050919050565b600082825260208201905092915050565b6000613bd2826133b0565b613bdc8185613bb6565b9350613bec8185602086016133bb565b613bf5816128ae565b840191505092915050565b6000613c0c8383613bc7565b905092915050565b6000602082019050919050565b6000613c2c82613b8a565b613c368185613b95565b935083602082028501613c4885613ba6565b8060005b85811015613c845784840389528151613c658582613c00565b9450613c7083613c14565b925060208a01995050600181019050613c4c565b50829750879550505050505092915050565b600082825260208201905092915050565b7f2c00000000000000000000000000000000000000000000000000000000000000600082015250565b6000613cdd600183613c96565b9150613ce882613ca7565b602082019050919050565b60006040820190508181036000830152613d0d8184613c21565b90508181036020830152613d2081613cd0565b905092915050565b6000613d3b613d3684612ca3565b61291f565b905082815260208101848484011115613d5757613d566128a9565b5b613d628482856133bb565b509392505050565b600082601f830112613d7f57613d7e6128a4565b5b8151613d8f848260208601613d28565b91505092915050565b600060208284031215613dae57613dad6127a9565b5b600082015167ffffffffffffffff811115613dcc57613dcb6127ae565b5b613dd884828501613d6a565b91505092915050565b7f4e487b7100000000000000000000000000000000000000000000000000000000600052603260045260246000fd5b7f4f776e61626c653a206e6577206f776e657220697320746865207a65726f206160008201527f6464726573730000000000000000000000000000000000000000000000000000602082015250565b6000613e6c602683613333565b9150613e7782613e10565b604082019050919050565b60006020820190508181036000830152613e9b81613e5f565b9050919050565b7f416c72656164792066756c66696c6c6564000000000000000000000000000000600082015250565b6000613ed8601183613333565b9150613ee382613ea2565b602082019050919050565b60006020820190508181036000830152613f0781613ecb565b9050919050565b7f496e76616c696420555249000000000000000000000000000000000000000000600082015250565b6000613f44600b83613333565b9150613f4f82613f0e565b602082019050919050565b60006020820190508181036000830152613f7381613f37565b9050919050565b6000604082019050613f8f6000830185612e09565b8181036020830152613fa181846133e5565b90509392505050565b7f4f776e61626c653a2063616c6c6572206973206e6f7420746865206f776e6572600082015250565b6000613fe0602083613333565b9150613feb82613faa565b602082019050919050565b6000602082019050818103600083015261400f81613fd3565b9050919050565b600061402182612c19565b9050919050565b61403181614016565b811461403c57600080fd5b50565b60008151905061404e81614028565b92915050565b60006140676140628461293a565b61291f565b905082815260208101848484011115614083576140826128a9565b5b61408e8482856133bb565b509392505050565b600082601f8301126140ab576140aa6128a4565b5b81516140bb848260208601614054565b91505092915050565b600080600080600060a086880312156140e0576140df6127a9565b5b60006140ee8882890161403f565b95505060206140ff8882890161403f565b9450506040614110888289016136e4565b935050606086015167ffffffffffffffff811115614131576141306127ae565b5b61413d88828901613d6a565b925050608086015167ffffffffffffffff81111561415e5761415d6127ae565b5b61416a88828901614096565b9150509295509295909350565b600060c08201905061418c60008301896134d4565b6141996020830188612e09565b6141a66040830187612e09565b6141b36060830186612bef565b81810360808301526141c581856133e5565b905081810360a08301526141d9818461343a565b9050979650505050505050565b6141ef81612838565b82525050565b60408201600082015161420b6000850182613568565b50602082015161421e60208501826141e6565b50505050565b600060408201905061423960008301846141f5565b92915050565b7f4e487b7100000000000000000000000000000000000000000000000000000000600052601260045260246000fd5b7f4e487b7100000000000000000000000000000000000000000000000000000000600052602160045260246000fd5b7f4e487b7100000000000000000000000000000000000000000000000000000000600052601160045260246000fd5b60006142d782612be5565b91507fffffffffffffffffffffffffffffffffffffffffffffffffffffffffffffffff82036143095761430861429d565b5b600182019050919050565b600061ffff82169050919050565b61432b81614314565b82525050565b61433a81612ae2565b82525050565b6143498161286e565b82525050565b600060a08201905061436460008301886134d4565b8181036020830152614376818761343a565b90506143856040830186614322565b6143926060830185614331565b61439f6080830184614340565b9695505050505050565b60006143b482612be5565b91506143bf83612be5565b92508282026143cd81612be5565b915082820484148315176143e4576143e361429d565b5b5092915050565b60006143f682612be5565b915061440183612be5565b92508282019050808211156144195761441861429d565b5b92915050565b600061442a82612be5565b91506000820361443d5761443c61429d565b5b600182039050919050565b7f537472696e67733a20686578206c656e67746820696e73756666696369656e74600082015250565b600061447e602083613333565b915061448982614448565b602082019050919050565b600060208201905081810360008301526144ad81614471565b9050919050565b60006144bf82612be5565b91506144ca83612be5565b92508282039050818111156144e2576144e161429d565b5b92915050565b60006144f382612be5565b91506144fe83612be5565b92508261450e5761450d61423f565b5b828206905092915050565b60008160011c9050919050565b6000808291508390505b60018511156145705780860481111561454c5761454b61429d565b5b600185161561455b5780820291505b808102905061456985614519565b9450614530565b94509492505050565b6000826145895760019050614645565b816145975760009050614645565b81600181146145ad57600281146145b7576145e6565b6001915050614645565b60ff8411156145c9576145c861429d565b5b8360020a9150848211156145e0576145df61429d565b5b50614645565b5060208310610133831016604e8410600b841016171561461b5782820a9050838111156146165761461561429d565b5b614645565b6146288484846001614526565b9250905081840481111561463f5761463e61429d565b5b81810290505b9392505050565b600061465782612be5565b915061466283612be5565b925061468f7fffffffffffffffffffffffffffffffffffffffffffffffffffffffffffffffff8484614579565b90509291505056fea2646970667358221220d9ced8f08c4f8a1d8e11c492311cd41b610abcd701424a1d25d238f005804df564736f6c63430008130033",
  "immutableReferences": {
    "14": [
      {
        "length": 32,
        "start": 1493
      },
      {
        "length": 32,
        "start": 2933
      }
    ],
    "5186": [
      {
        "length": 32,
        "start": 1165
      },
      {
        "length": 32,
        "start": 7190
      }
    ],
    "6018": [
      {
        "length": 32,
        "start": 2234
      },
      {
        "length": 32,
        "start": 2494
      }
    ]
  },
  "source": "// SPDX-License-Identifier: MIT\r\npragma solidity ^0.8.19;\r\n\r\nimport {Assets} from \"./libraries/Assets.sol\";\r\nimport {Params} from \"./libraries/Params.sol\";\r\nimport {IKanvasInterop} from \"./interfaces/IKanvasInterop.sol\";\r\nimport {IKanvasInteropGame} from \"./interfaces/IKanvasInteropGame.sol\";\r\nimport {IKanvasGame} from \"./interfaces/IKanvasGame.sol\";\r\nimport {StringJoiner} from \"./libraries/StringJoiner.sol\";\r\n\r\nimport {Strings} from \"@openzeppelin/contracts/utils/Strings.sol\";\r\nimport {Ownable} from \"@openzeppelin/contracts/access/Ownable.sol\";\r\nimport {Context} from \"@openzeppelin/contracts/utils/Context.sol\";\r\n\r\nimport {FunctionsClient} from \"./FunctionsClient.sol\";\r\nimport {FunctionsRequest} from \"@chainlink/contracts/src/v0.8/functions/dev/v1_0_0/libraries/FunctionsRequest.sol\";\r\n\r\nimport {Client} from \"@chainlink/contracts-ccip/src/v0.8/ccip/libraries/Client.sol\";\r\nimport {CCIPReceiver} from \"@chainlink/contracts-ccip/src/v0.8/ccip/applications/CCIPReceiver.sol\";\r\nimport {IRouterClient} from \"@chainlink/contracts-ccip/src/v0.8/ccip/interfaces/IRouterClient.sol\";\r\n\r\ncontract KanvasInterop is\r\n    IKanvasInterop,\r\n    Context,\r\n    CCIPReceiver,\r\n    FunctionsClient,\r\n    Ownable\r\n{\r\n    using FunctionsRequest for FunctionsRequest.Request;\r\n\r\n    uint64 private immutable _chainSelector;\r\n\r\n    uint256 public constant MAX_PROPERTIES_LEN = 20;\r\n    uint256 public constant MAX_TEMPLATES_LEN = 5;\r\n\r\n    string private _sourceCode;\r\n    uint64 private _subscriptionId;\r\n    uint32 private _gasLimit;\r\n    bytes32 private _donId;\r\n\r\n    mapping(address => address) private _games;\r\n\r\n    mapping(bytes32 => Assets.Request) private _requests;\r\n\r\n    mapping(uint64 => address) private _interops;\r\n\r\n    IRouterClient private _router;\r\n\r\n    constructor(\r\n        address ccipReceiver,\r\n        address functionOracle,\r\n        uint64 chainSelector\r\n    ) CCIPReceiver(ccipReceiver) Ownable() FunctionsClient(functionOracle) {\r\n        _router = IRouterClient(getRouter());\r\n        _chainSelector = chainSelector;\r\n    }\r\n\r\n    function updateDonId(bytes32 newDonId) external onlyOwner {\r\n        _donId = newDonId;\r\n    }\r\n\r\n    function updateSourceCode(string memory newSourceCode) external onlyOwner {\r\n        _sourceCode = newSourceCode;\r\n    }\r\n\r\n    function updateGasLimit(uint32 newLimit) external onlyOwner {\r\n        _gasLimit = newLimit;\r\n    }\r\n\r\n    function updateSubscriptionId(uint64 newSubscriptionId) external onlyOwner {\r\n        _subscriptionId = newSubscriptionId;\r\n    }\r\n\r\n    function _createGame(\r\n        uint64 /* chainSelector */,\r\n        Params.InteropGame memory params\r\n    ) external override {\r\n        _games[_msgSender()] = params.gameId;\r\n    }\r\n\r\n    function _generateUri(\r\n        address playerId,\r\n        string[] memory props,\r\n        string memory fields,\r\n        uint8 templateId\r\n    ) external override {\r\n        require(props.length <= MAX_PROPERTIES_LEN, \"Too many attributes\");\r\n\r\n        address gameId = _games[_msgSender()];\r\n        require(_games[gameId] != address(0), \"Game Not Found\");\r\n\r\n        string[] memory args = new string[](5);\r\n        args[0] = StringJoiner.joinStrings(props, \",\");\r\n        args[1] = fields;\r\n        args[2] = Strings.toHexString(gameId);\r\n        args[3] = Strings.toHexString(playerId);\r\n        args[4] = Strings.toString(templateId);\r\n\r\n        // Initialize the request\r\n        FunctionsRequest.Request memory req;\r\n\r\n        // Soucre code\r\n        req.initializeRequestForInlineJavaScript(_sourceCode);\r\n\r\n        // Add arguments\r\n        req.setArgs(args);\r\n\r\n        bytes32 requestId = _sendRequest(\r\n            req.encodeCBOR(),\r\n            _subscriptionId,\r\n            _gasLimit,\r\n            _donId\r\n        );\r\n\r\n        _requests[requestId] = Assets.Request({\r\n            gameId: gameId,\r\n            playerId: playerId,\r\n            fulfilled: false\r\n        });\r\n    }\r\n\r\n    function updateInterop(\r\n        uint64 chainSelector,\r\n        address kanvasRouter\r\n    ) external onlyOwner {\r\n        _interops[chainSelector] = kanvasRouter;\r\n    }\r\n\r\n    /** Receive the response in the form of string  */\r\n    function fulfillRequest(\r\n        bytes32 requestId,\r\n        bytes memory response,\r\n        bytes memory /* err */\r\n    ) internal override {\r\n        string memory uri = abi.decode(response, (string));\r\n\r\n        Assets.Request storage request = _requests[requestId];\r\n        require(!request.fulfilled, \"Already fulfilled\");\r\n        require(!Strings.equal(uri, \"NULL\"), \"Invalid URI\");\r\n\r\n        request.fulfilled = true;\r\n\r\n        require(_games[request.gameId] != address(0), \"Game Not Found\");\r\n\r\n        IKanvasGame game = IKanvasGame(request.gameId);\r\n        game._receiveUri(request.playerId, uri);\r\n    }\r\n\r\n    function _transferTo(\r\n        uint64 chainSelector,\r\n        address gameId,\r\n        address playerId,\r\n        uint256 tokenId,\r\n        string memory uri,\r\n        bytes memory data\r\n    ) external payable {\r\n        require(_interops[chainSelector] != address(0), \"Chain not supported\");\r\n\r\n        // Create an EVM2AnyMessage struct in memory with necessary information for sending a cross-chain message\r\n        Client.EVM2AnyMessage memory message = Client.EVM2AnyMessage({\r\n            // ABI-encoded receiver address\r\n            receiver: abi.encode(_interops[chainSelector]),\r\n            // ABI-encoded string message\r\n            data: abi.encode(gameId, playerId, tokenId, uri, data),\r\n            // Empty array indicating no tokens are being sent\r\n            tokenAmounts: new Client.EVMTokenAmount[](0),\r\n            // Additional arguments, setting gas limit and non-strict sequency mode\r\n            extraArgs: Client._argsToBytes(\r\n                Client.EVMExtraArgsV1({gasLimit: 400_000, strict: false})\r\n            ),\r\n            // Setting feeToken to zero address, indicating native asset will be used for fees\r\n            feeToken: address(0)\r\n        });\r\n\r\n        // Get the fee required to send the message\r\n        uint256 fees = _router.getFee(_chainSelector, message);\r\n\r\n        require(msg.value >= fees, \"Insufficient fee\");\r\n\r\n        // Send the message through the router and store the returned message ID\r\n        _router.ccipSend{value: fees}(_chainSelector, message);\r\n    }\r\n\r\n    // handle a received message\r\n    function _ccipReceive(\r\n        Client.Any2EVMMessage memory message\r\n    ) internal override {\r\n        (\r\n            address gameId,\r\n            address playerId,\r\n            uint256 tokenId,\r\n            string memory uri,\r\n            bytes memory data\r\n        ) = abi.decode(\r\n                message.data,\r\n                (address, address, uint256, string, bytes)\r\n            );\r\n\r\n        IKanvasInteropGame game = IKanvasInteropGame(gameId);\r\n        game._receiveFrom(\r\n            message.sourceChainSelector,\r\n            gameId,\r\n            playerId,\r\n            tokenId,\r\n            uri,\r\n            data\r\n        );\r\n    }\r\n}\r\n",
  "sourcePath": "C:\\Users\\DELL\\Documents\\kanvas\\blockchain\\contracts\\KanvasInterop.sol",
  "compiler": {
    "name": "solc",
    "version": "0.8.19+commit.7dd6d404.Emscripten.clang"
  },
  "schemaVersion": "3.4.11",
  "updatedAt": "2023-12-05T07:26:36.489Z",
  "networkType": "ethereum",
  "devdoc": {
    "kind": "dev",
    "methods": {
      "ccipReceive((bytes32,uint64,bytes,bytes,(address,uint256)[]))": {
        "details": "Note ensure you check the msg.sender is the OffRampRouter",
        "params": {
          "message": "CCIP Message"
        }
      },
      "getRouter()": {
        "returns": {
          "_0": "i_router address"
        }
      },
      "handleOracleFulfillment(bytes32,bytes,bytes)": {
        "details": "Either response or error parameter will be set, but never both.",
        "params": {
          "err": "Aggregated error either from the request's source code or from the execution pipeline.",
          "requestId": "The requestId returned by FunctionsClient.sendRequest().",
          "response": "Aggregated response from the request's source code."
        }
      },
      "owner()": {
        "details": "Returns the address of the current owner."
      },
      "renounceOwnership()": {
        "details": "Leaves the contract without owner. It will not be possible to call `onlyOwner` functions. Can only be called by the current owner. NOTE: Renouncing ownership will leave the contract without an owner, thereby disabling any functionality that is only available to the owner."
      },
      "supportsInterface(bytes4)": {
        "params": {
          "interfaceId": "The interfaceId to check"
        },
        "returns": {
          "_0": "true if the interfaceId is supported"
        }
      },
      "transferOwnership(address)": {
        "details": "Transfers ownership of the contract to a new account (`newOwner`). Can only be called by the current owner."
      }
    },
    "version": 1
  },
  "userdoc": {
    "kind": "user",
    "methods": {
      "ccipReceive((bytes32,uint64,bytes,bytes,(address,uint256)[]))": {
        "notice": "Called by the Router to deliver a message. If this reverts, any token transfers also revert. The message will move to a FAILED state and become available for manual execution."
      },
      "getRouter()": {
        "notice": "Return the current router"
      },
      "handleOracleFulfillment(bytes32,bytes,bytes)": {
        "notice": "Chainlink Functions response handler called by the Functions Router during fullilment from the designated transmitter node in an OCR round."
      },
      "supportsInterface(bytes4)": {
        "notice": "IERC165 supports an interfaceId"
      }
    },
    "version": 1
  }
}