{
  "contractName": "KanvasInterop",
  "abi": [
    {
      "inputs": [
        {
          "internalType": "address",
          "name": "receiver",
          "type": "address"
        }
      ],
      "stateMutability": "nonpayable",
      "type": "constructor"
    },
    {
      "inputs": [
        {
          "internalType": "address",
          "name": "router",
          "type": "address"
        }
      ],
      "name": "InvalidRouter",
      "type": "error"
    },
    {
      "anonymous": false,
      "inputs": [
        {
          "indexed": true,
          "internalType": "bytes32",
          "name": "id",
          "type": "bytes32"
        }
      ],
      "name": "ChainlinkCancelled",
      "type": "event"
    },
    {
      "anonymous": false,
      "inputs": [
        {
          "indexed": true,
          "internalType": "bytes32",
          "name": "id",
          "type": "bytes32"
        }
      ],
      "name": "ChainlinkFulfilled",
      "type": "event"
    },
    {
      "anonymous": false,
      "inputs": [
        {
          "indexed": true,
          "internalType": "bytes32",
          "name": "id",
          "type": "bytes32"
        }
      ],
      "name": "ChainlinkRequested",
      "type": "event"
    },
    {
      "anonymous": false,
      "inputs": [
        {
          "indexed": true,
          "internalType": "address",
          "name": "previousOwner",
          "type": "address"
        },
        {
          "indexed": true,
          "internalType": "address",
          "name": "newOwner",
          "type": "address"
        }
      ],
      "name": "OwnershipTransferred",
      "type": "event"
    },
    {
      "anonymous": false,
      "inputs": [
        {
          "indexed": false,
          "internalType": "uint256",
          "name": "planId",
          "type": "uint256"
        },
        {
          "indexed": false,
          "internalType": "string",
          "name": "name",
          "type": "string"
        },
        {
          "indexed": false,
          "internalType": "uint256",
          "name": "cost",
          "type": "uint256"
        },
        {
          "indexed": false,
          "internalType": "string",
          "name": "color",
          "type": "string"
        },
        {
          "indexed": false,
          "internalType": "uint256",
          "name": "limit",
          "type": "uint256"
        }
      ],
      "name": "PlanCreated",
      "type": "event"
    },
    {
      "inputs": [],
      "name": "MAX_PROPERTIES_LEN",
      "outputs": [
        {
          "internalType": "uint256",
          "name": "",
          "type": "uint256"
        }
      ],
      "stateMutability": "view",
      "type": "function"
    },
    {
      "inputs": [],
      "name": "MAX_TEMPLATES_LEN",
      "outputs": [
        {
          "internalType": "uint256",
          "name": "",
          "type": "uint256"
        }
      ],
      "stateMutability": "view",
      "type": "function"
    },
    {
      "inputs": [
        {
          "components": [
            {
              "internalType": "bytes32",
              "name": "messageId",
              "type": "bytes32"
            },
            {
              "internalType": "uint64",
              "name": "sourceChainSelector",
              "type": "uint64"
            },
            {
              "internalType": "bytes",
              "name": "sender",
              "type": "bytes"
            },
            {
              "internalType": "bytes",
              "name": "data",
              "type": "bytes"
            },
            {
              "components": [
                {
                  "internalType": "address",
                  "name": "token",
                  "type": "address"
                },
                {
                  "internalType": "uint256",
                  "name": "amount",
                  "type": "uint256"
                }
              ],
              "internalType": "struct Client.EVMTokenAmount[]",
              "name": "destTokenAmounts",
              "type": "tuple[]"
            }
          ],
          "internalType": "struct Client.Any2EVMMessage",
          "name": "message",
          "type": "tuple"
        }
      ],
      "name": "ccipReceive",
      "outputs": [],
      "stateMutability": "nonpayable",
      "type": "function"
    },
    {
      "inputs": [],
      "name": "getRouter",
      "outputs": [
        {
          "internalType": "address",
          "name": "",
          "type": "address"
        }
      ],
      "stateMutability": "view",
      "type": "function"
    },
    {
      "inputs": [],
      "name": "owner",
      "outputs": [
        {
          "internalType": "address",
          "name": "",
          "type": "address"
        }
      ],
      "stateMutability": "view",
      "type": "function"
    },
    {
      "inputs": [],
      "name": "renounceOwnership",
      "outputs": [],
      "stateMutability": "nonpayable",
      "type": "function"
    },
    {
      "inputs": [
        {
          "internalType": "bytes4",
          "name": "interfaceId",
          "type": "bytes4"
        }
      ],
      "name": "supportsInterface",
      "outputs": [
        {
          "internalType": "bool",
          "name": "",
          "type": "bool"
        }
      ],
      "stateMutability": "pure",
      "type": "function"
    },
    {
      "inputs": [
        {
          "internalType": "address",
          "name": "newOwner",
          "type": "address"
        }
      ],
      "name": "transferOwnership",
      "outputs": [],
      "stateMutability": "nonpayable",
      "type": "function"
    },
    {
      "inputs": [
        {
          "internalType": "uint64",
          "name": "",
          "type": "uint64"
        },
        {
          "components": [
            {
              "internalType": "address",
              "name": "gameId",
              "type": "address"
            }
          ],
          "internalType": "struct Params.InteropGame",
          "name": "params",
          "type": "tuple"
        }
      ],
      "name": "_createGame",
      "outputs": [],
      "stateMutability": "nonpayable",
      "type": "function"
    },
    {
      "inputs": [
        {
          "internalType": "address",
          "name": "playerId",
          "type": "address"
        },
        {
          "internalType": "string[]",
          "name": "properties",
          "type": "string[]"
        },
        {
          "internalType": "string",
          "name": "fields",
          "type": "string"
        },
        {
          "internalType": "uint8",
          "name": "templateId",
          "type": "uint8"
        }
      ],
      "name": "_generateUri",
      "outputs": [],
      "stateMutability": "nonpayable",
      "type": "function"
    },
    {
      "inputs": [
        {
          "internalType": "uint64",
          "name": "chainSelector",
          "type": "uint64"
        },
        {
          "internalType": "address",
          "name": "kanvasRouter",
          "type": "address"
        }
      ],
      "name": "updateInterop",
      "outputs": [],
      "stateMutability": "nonpayable",
      "type": "function"
    },
    {
      "inputs": [
        {
          "internalType": "bytes32",
          "name": "requestId",
          "type": "bytes32"
        },
        {
          "internalType": "string",
          "name": "uri",
          "type": "string"
        }
      ],
      "name": "fulfill",
      "outputs": [],
      "stateMutability": "nonpayable",
      "type": "function"
    },
    {
      "inputs": [],
      "name": "withdrawLink",
      "outputs": [],
      "stateMutability": "nonpayable",
      "type": "function"
    },
    {
      "inputs": [
        {
          "internalType": "uint64",
          "name": "chainSelector",
          "type": "uint64"
        },
        {
          "internalType": "address",
          "name": "gameId",
          "type": "address"
        },
        {
          "internalType": "address",
          "name": "playerId",
          "type": "address"
        },
        {
          "internalType": "uint256",
          "name": "tokenId",
          "type": "uint256"
        },
        {
          "internalType": "string",
          "name": "uri",
          "type": "string"
        },
        {
          "internalType": "bytes",
          "name": "data",
          "type": "bytes"
        }
      ],
      "name": "_transferTo",
      "outputs": [],
      "stateMutability": "payable",
      "type": "function"
    }
  ],
  "bytecode": "0x60a060405260016004553480156200001657600080fd5b50604051620046363803806200463683398181016040528101906200003c9190620003c4565b80600073ffffffffffffffffffffffffffffffffffffffff168173ffffffffffffffffffffffffffffffffffffffff1603620000b25760006040517fd7f73334000000000000000000000000000000000000000000000000000000008152600401620000a9919062000407565b60405180910390fd5b8073ffffffffffffffffffffffffffffffffffffffff1660808173ffffffffffffffffffffffffffffffffffffffff16815250505062000107620000fb620001fa60201b60201c565b6200020260201b60201c565b6200012c73326c977e6efc84e512bb9c30f76e30c160ed06fb620002c860201b60201c565b620001517340193c8518bb267228fc409a613bdbd8ec5a97b36200030c60201b60201c565b7f3764383061363338366566353433613361626235323831376636373037653362600781905550600a670de0b6b3a764000060016200019191906200045d565b6200019d9190620004d7565b600881905550620001b36200035060201b60201c565b600c60006101000a81548173ffffffffffffffffffffffffffffffffffffffff021916908373ffffffffffffffffffffffffffffffffffffffff160217905550506200050f565b600033905090565b6000600660009054906101000a900473ffffffffffffffffffffffffffffffffffffffff16905081600660006101000a81548173ffffffffffffffffffffffffffffffffffffffff021916908373ffffffffffffffffffffffffffffffffffffffff1602179055508173ffffffffffffffffffffffffffffffffffffffff168173ffffffffffffffffffffffffffffffffffffffff167f8be0079c531659141344cd1fd0a4f28419497f9722a3daafe3b4186f6b6457e060405160405180910390a35050565b80600260006101000a81548173ffffffffffffffffffffffffffffffffffffffff021916908373ffffffffffffffffffffffffffffffffffffffff16021790555050565b80600360006101000a81548173ffffffffffffffffffffffffffffffffffffffff021916908373ffffffffffffffffffffffffffffffffffffffff16021790555050565b6000608051905090565b600080fd5b600073ffffffffffffffffffffffffffffffffffffffff82169050919050565b60006200038c826200035f565b9050919050565b6200039e816200037f565b8114620003aa57600080fd5b50565b600081519050620003be8162000393565b92915050565b600060208284031215620003dd57620003dc6200035a565b5b6000620003ed84828501620003ad565b91505092915050565b62000401816200037f565b82525050565b60006020820190506200041e6000830184620003f6565b92915050565b6000819050919050565b7f4e487b7100000000000000000000000000000000000000000000000000000000600052601160045260246000fd5b60006200046a8262000424565b9150620004778362000424565b9250828202620004878162000424565b91508282048414831517620004a157620004a06200042e565b5b5092915050565b7f4e487b7100000000000000000000000000000000000000000000000000000000600052601260045260246000fd5b6000620004e48262000424565b9150620004f18362000424565b925082620005045762000503620004a8565b5b828204905092915050565b60805161410462000532600039600081816107310152610db101526141046000f3fe6080604052600436106100dd5760003560e01c80638dc654a21161007f578063b0f479a111610059578063b0f479a114610263578063dff0ee411461028e578063eee6e573146102b9578063f2fde38b146102e2576100dd565b80638dc654a2146101fa57806392154a3d14610211578063afd21cfe1461023a576100dd565b806385572ffb116100bb57806385572ffb1461015f5780638b8ff358146101885780638d6dc0eb146101b35780638da5cb5b146101cf576100dd565b806301ffc9a7146100e2578063374419961461011f578063715018a614610148575b600080fd5b3480156100ee57600080fd5b5061010960048036038101906101049190612362565b61030b565b60405161011691906123aa565b60405180910390f35b34801561012b57600080fd5b5061014660048036038101906101419190612541565b6103dd565b005b34801561015457600080fd5b5061015d61071b565b005b34801561016b57600080fd5b50610186600480360381019061018191906125c1565b61072f565b005b34801561019457600080fd5b5061019d6107d4565b6040516101aa9190612623565b60405180910390f35b6101cd60048036038101906101c891906127a9565b6107d9565b005b3480156101db57600080fd5b506101e4610b75565b6040516101f1919061287d565b60405180910390f35b34801561020657600080fd5b5061020f610b9f565b005b34801561021d57600080fd5b5061023860048036038101906102339190612898565b610cae565b005b34801561024657600080fd5b50610261600480360381019061025c919061291e565b610d20565b005b34801561026f57600080fd5b50610278610dad565b604051610285919061287d565b60405180910390f35b34801561029a57600080fd5b506102a3610dd5565b6040516102b09190612623565b60405180910390f35b3480156102c557600080fd5b506102e060048036038101906102db9190612a7d565b610dda565b005b3480156102ee57600080fd5b5061030960048036038101906103049190612b1c565b611255565b005b60007f85572ffb000000000000000000000000000000000000000000000000000000007bffffffffffffffffffffffffffffffffffffffffffffffffffffffff1916827bffffffffffffffffffffffffffffffffffffffffffffffffffffffff191614806103d657507f01ffc9a7000000000000000000000000000000000000000000000000000000007bffffffffffffffffffffffffffffffffffffffffffffffffffffffff1916827bffffffffffffffffffffffffffffffffffffffffffffffffffffffff1916145b9050919050565b816005600082815260200190815260200160002060009054906101000a900473ffffffffffffffffffffffffffffffffffffffff1673ffffffffffffffffffffffffffffffffffffffff163373ffffffffffffffffffffffffffffffffffffffff161461047f576040517f08c379a000000000000000000000000000000000000000000000000000000000815260040161047690612bcc565b60405180910390fd5b6005600082815260200190815260200160002060006101000a81549073ffffffffffffffffffffffffffffffffffffffff0219169055807f7cc135e0cebb02c3480ae5d74d377283180a2601f8f644edf7987b009316c63a60405160405180910390a26000600a600085815260200190815260200160002090508060010160149054906101000a900460ff161561054b576040517f08c379a000000000000000000000000000000000000000000000000000000000815260040161054290612c38565b60405180910390fd5b60018160010160146101000a81548160ff021916908315150217905550600073ffffffffffffffffffffffffffffffffffffffff16600960008360000160009054906101000a900473ffffffffffffffffffffffffffffffffffffffff1673ffffffffffffffffffffffffffffffffffffffff1673ffffffffffffffffffffffffffffffffffffffff16815260200190815260200160002060009054906101000a900473ffffffffffffffffffffffffffffffffffffffff1673ffffffffffffffffffffffffffffffffffffffff160361065a576040517f08c379a000000000000000000000000000000000000000000000000000000000815260040161065190612ca4565b60405180910390fd5b60008160000160009054906101000a900473ffffffffffffffffffffffffffffffffffffffff1690508073ffffffffffffffffffffffffffffffffffffffff16638f9c39568360010160009054906101000a900473ffffffffffffffffffffffffffffffffffffffff16866040518363ffffffff1660e01b81526004016106e2929190612d32565b600060405180830381600087803b1580156106fc57600080fd5b505af1158015610710573d6000803e3d6000fd5b505050505050505050565b6107236112d8565b61072d6000611356565b565b7f000000000000000000000000000000000000000000000000000000000000000073ffffffffffffffffffffffffffffffffffffffff163373ffffffffffffffffffffffffffffffffffffffff16146107bf57336040517fd7f733340000000000000000000000000000000000000000000000000000000081526004016107b6919061287d565b60405180910390fd5b6107d1816107cc90612f55565b61141c565b50565b601481565b600073ffffffffffffffffffffffffffffffffffffffff16600b60008867ffffffffffffffff1667ffffffffffffffff16815260200190815260200160002060009054906101000a900473ffffffffffffffffffffffffffffffffffffffff1673ffffffffffffffffffffffffffffffffffffffff160361088f576040517f08c379a000000000000000000000000000000000000000000000000000000000815260040161088690612fb4565b60405180910390fd5b60006040518060a00160405280600b60008a67ffffffffffffffff1667ffffffffffffffff16815260200190815260200160002060009054906101000a900473ffffffffffffffffffffffffffffffffffffffff166040516020016108f4919061287d565b60405160208183030381529060405281526020018787878787604051602001610921959493929190613029565b6040516020818303038152906040528152602001600067ffffffffffffffff8111156109505761094f612416565b5b60405190808252806020026020018201604052801561098957816020015b61097661223f565b81526020019060019003908161096e5790505b508152602001600073ffffffffffffffffffffffffffffffffffffffff1681526020016109cf604051806040016040528062061a808152602001600015158152506114cd565b81525090506000600c60009054906101000a900473ffffffffffffffffffffffffffffffffffffffff1673ffffffffffffffffffffffffffffffffffffffff166320487ded67adecc60412ce25a5846040518363ffffffff1660e01b8152600401610a3b92919061326a565b602060405180830381865afa158015610a58573d6000803e3d6000fd5b505050506040513d601f19601f82011682018060405250810190610a7c91906132af565b905080341015610ac1576040517f08c379a0000000000000000000000000000000000000000000000000000000008152600401610ab890613328565b60405180910390fd5b600c60009054906101000a900473ffffffffffffffffffffffffffffffffffffffff1673ffffffffffffffffffffffffffffffffffffffff166396f4e9f98267adecc60412ce25a5856040518463ffffffff1660e01b8152600401610b2792919061326a565b60206040518083038185885af1158015610b45573d6000803e3d6000fd5b50505050506040513d601f19601f82011682018060405250810190610b6a919061335d565b505050505050505050565b6000600660009054906101000a900473ffffffffffffffffffffffffffffffffffffffff16905090565b610ba76112d8565b6000610bb161154c565b90508073ffffffffffffffffffffffffffffffffffffffff1663a9059cbb338373ffffffffffffffffffffffffffffffffffffffff166370a08231306040518263ffffffff1660e01b8152600401610c09919061287d565b602060405180830381865afa158015610c26573d6000803e3d6000fd5b505050506040513d601f19601f82011682018060405250810190610c4a91906132af565b6040518363ffffffff1660e01b8152600401610c6792919061338a565b6020604051808303816000875af1158015610c86573d6000803e3d6000fd5b505050506040513d601f19601f82011682018060405250810190610caa91906133df565b5050565b610cb66112d8565b80600b60008467ffffffffffffffff1667ffffffffffffffff16815260200190815260200160002060006101000a81548173ffffffffffffffffffffffffffffffffffffffff021916908373ffffffffffffffffffffffffffffffffffffffff1602179055505050565b806000015160096000610d31611576565b73ffffffffffffffffffffffffffffffffffffffff1673ffffffffffffffffffffffffffffffffffffffff16815260200190815260200160002060006101000a81548173ffffffffffffffffffffffffffffffffffffffff021916908373ffffffffffffffffffffffffffffffffffffffff1602179055505050565b60007f0000000000000000000000000000000000000000000000000000000000000000905090565b600581565b601483511115610e1f576040517f08c379a0000000000000000000000000000000000000000000000000000000008152600401610e1690613458565b60405180910390fd5b600060096000610e2d611576565b73ffffffffffffffffffffffffffffffffffffffff1673ffffffffffffffffffffffffffffffffffffffff16815260200190815260200160002060009054906101000a900473ffffffffffffffffffffffffffffffffffffffff169050600073ffffffffffffffffffffffffffffffffffffffff16600960008373ffffffffffffffffffffffffffffffffffffffff1673ffffffffffffffffffffffffffffffffffffffff16815260200190815260200160002060009054906101000a900473ffffffffffffffffffffffffffffffffffffffff1673ffffffffffffffffffffffffffffffffffffffff1603610f58576040517f08c379a0000000000000000000000000000000000000000000000000000000008152600401610f4f90612ca4565b60405180910390fd5b6000610f6e60075430633744199660e01b61157e565b90506110af6040518060400160405280600381526020017f67657400000000000000000000000000000000000000000000000000000000008152506040518060400160405280602081526020017f68747470733a2f2f6b616e7661732d6469356a2e6f6e72656e6465722e636f6d81525073__StringJoiner__________________________635c8656e0896040518263ffffffff1660e01b815260040161101691906135e1565b600060405180830381865af4158015611033573d6000803e3d6000fd5b505050506040513d6000823e3d601f19601f8201168201806040525081019061105c9190613686565b87611066876115af565b61106f8c6115af565b61107b8a60ff166115dc565b60405160200161109096959493929190613731565b604051602081830303815290604052836116aa9092919063ffffffff16565b61112e6040518060400160405280600481526020017f70617468000000000000000000000000000000000000000000000000000000008152506040518060400160405280600381526020017f7572690000000000000000000000000000000000000000000000000000000000815250836116aa9092919063ffffffff16565b600061113c826008546116dd565b905060405180606001604052808473ffffffffffffffffffffffffffffffffffffffff1681526020018873ffffffffffffffffffffffffffffffffffffffff16815260200160001515815250600a600083815260200190815260200160002060008201518160000160006101000a81548173ffffffffffffffffffffffffffffffffffffffff021916908373ffffffffffffffffffffffffffffffffffffffff16021790555060208201518160010160006101000a81548173ffffffffffffffffffffffffffffffffffffffff021916908373ffffffffffffffffffffffffffffffffffffffff16021790555060408201518160010160146101000a81548160ff02191690831515021790555090505050505050505050565b61125d6112d8565b600073ffffffffffffffffffffffffffffffffffffffff168173ffffffffffffffffffffffffffffffffffffffff16036112cc576040517f08c379a00000000000000000000000000000000000000000000000000000000081526004016112c390613846565b60405180910390fd5b6112d581611356565b50565b6112e0611576565b73ffffffffffffffffffffffffffffffffffffffff166112fe610b75565b73ffffffffffffffffffffffffffffffffffffffff1614611354576040517f08c379a000000000000000000000000000000000000000000000000000000000815260040161134b906138b2565b60405180910390fd5b565b6000600660009054906101000a900473ffffffffffffffffffffffffffffffffffffffff16905081600660006101000a81548173ffffffffffffffffffffffffffffffffffffffff021916908373ffffffffffffffffffffffffffffffffffffffff1602179055508173ffffffffffffffffffffffffffffffffffffffff168173ffffffffffffffffffffffffffffffffffffffff167f8be0079c531659141344cd1fd0a4f28419497f9722a3daafe3b4186f6b6457e060405160405180910390a35050565b6000806000806000856060015180602001905181019061143c9190613980565b9450945094509450945060008590508073ffffffffffffffffffffffffffffffffffffffff16636d4195fb886020015188888888886040518763ffffffff1660e01b815260040161149296959493929190613a33565b600060405180830381600087803b1580156114ac57600080fd5b505af11580156114c0573d6000803e3d6000fd5b5050505050505050505050565b60606397a657c960e01b826040516024016114e89190613ae0565b604051602081830303815290604052907bffffffffffffffffffffffffffffffffffffffffffffffffffffffff19166020820180517bffffffffffffffffffffffffffffffffffffffffffffffffffffffff83818316178352505050509050919050565b6000600260009054906101000a900473ffffffffffffffffffffffffffffffffffffffff16905090565b600033905090565b61158661226f565b61158e61226f565b6115a585858584611714909392919063ffffffff16565b9150509392505050565b60606115d58273ffffffffffffffffffffffffffffffffffffffff16601460ff166117c4565b9050919050565b6060600060016115eb84611a00565b01905060008167ffffffffffffffff81111561160a57611609612416565b5b6040519080825280601f01601f19166020018201604052801561163c5781602001600182028036833780820191505090505b509050600082602001820190505b60011561169f578080600190039150507f3031323334353637383961626364656600000000000000000000000000000000600a86061a8153600a858161169357611692613afb565b5b0494506000850361164a575b819350505050919050565b6116c1828460800151611b5390919063ffffffff16565b6116d8818460800151611b5390919063ffffffff16565b505050565b600061170c600360009054906101000a900473ffffffffffffffffffffffffffffffffffffffff168484611b78565b905092915050565b61171c61226f565b61172c8560800151610100611c44565b508385600001818152505082856020019073ffffffffffffffffffffffffffffffffffffffff16908173ffffffffffffffffffffffffffffffffffffffff16815250508185604001907bffffffffffffffffffffffffffffffffffffffffffffffffffffffff191690817bffffffffffffffffffffffffffffffffffffffffffffffffffffffff191681525050849050949350505050565b6060600060028360026117d79190613b59565b6117e19190613b9b565b67ffffffffffffffff8111156117fa576117f9612416565b5b6040519080825280601f01601f19166020018201604052801561182c5781602001600182028036833780820191505090505b5090507f30000000000000000000000000000000000000000000000000000000000000008160008151811061186457611863613bcf565b5b60200101907effffffffffffffffffffffffffffffffffffffffffffffffffffffffffffff1916908160001a9053507f7800000000000000000000000000000000000000000000000000000000000000816001815181106118c8576118c7613bcf565b5b60200101907effffffffffffffffffffffffffffffffffffffffffffffffffffffffffffff1916908160001a905350600060018460026119089190613b59565b6119129190613b9b565b90505b60018111156119b2577f3031323334353637383961626364656600000000000000000000000000000000600f86166010811061195457611953613bcf565b5b1a60f81b82828151811061196b5761196a613bcf565b5b60200101907effffffffffffffffffffffffffffffffffffffffffffffffffffffffffffff1916908160001a905350600485901c9450806119ab90613bfe565b9050611915565b50600084146119f6576040517f08c379a00000000000000000000000000000000000000000000000000000000081526004016119ed90613c73565b60405180910390fd5b8091505092915050565b600080600090507a184f03e93ff9f4daa797ed6e38ed64bf6a1f0100000000000000008310611a5e577a184f03e93ff9f4daa797ed6e38ed64bf6a1f0100000000000000008381611a5457611a53613afb565b5b0492506040810190505b6d04ee2d6d415b85acef81000000008310611a9b576d04ee2d6d415b85acef81000000008381611a9157611a90613afb565b5b0492506020810190505b662386f26fc100008310611aca57662386f26fc100008381611ac057611abf613afb565b5b0492506010810190505b6305f5e1008310611af3576305f5e1008381611ae957611ae8613afb565b5b0492506008810190505b6127108310611b18576127108381611b0e57611b0d613afb565b5b0492506004810190505b60648310611b3b5760648381611b3157611b30613afb565b5b0492506002810190505b600a8310611b4a576001810190505b80915050919050565b611b608260038351611cae565b611b738183611e3390919063ffffffff16565b505050565b6000806004549050600181611b8d9190613b9b565b6004819055506000634042994660e01b60008087600001513089604001518760018c6080015160000151604051602401611bce989796959493929190613cb1565b604051602081830303815290604052907bffffffffffffffffffffffffffffffffffffffffffffffffffffffff19166020820180517bffffffffffffffffffffffffffffffffffffffffffffffffffffffff83818316178352505050509050611c3986838684611e55565b925050509392505050565b611c4c6122dc565b6000602083611c5b9190613d36565b14611c8757602082611c6d9190613d36565b6020611c799190613d67565b82611c849190613b9b565b91505b81836020018181525050604051808452600081528281016020016040525082905092915050565b60178167ffffffffffffffff1611611ce557611cdf8160058460ff16901b60ff161784611fea90919063ffffffff16565b50611e2e565b60ff8167ffffffffffffffff1611611d3b57611d14601860058460ff16901b1784611fea90919063ffffffff16565b50611d358167ffffffffffffffff1660018561200a9092919063ffffffff16565b50611e2d565b61ffff8167ffffffffffffffff1611611d9257611d6b601960058460ff16901b1784611fea90919063ffffffff16565b50611d8c8167ffffffffffffffff1660028561200a9092919063ffffffff16565b50611e2c565b63ffffffff8167ffffffffffffffff1611611deb57611dc4601a60058460ff16901b1784611fea90919063ffffffff16565b50611de58167ffffffffffffffff1660048561200a9092919063ffffffff16565b50611e2b565b611e08601b60058460ff16901b1784611fea90919063ffffffff16565b50611e298167ffffffffffffffff1660088561200a9092919063ffffffff16565b505b5b5b5b505050565b611e3b6122dc565b611e4d8384600001515184855161202c565b905092915050565b60003084604051602001611e6a929190613e54565b604051602081830303815290604052805190602001209050846005600083815260200190815260200160002060006101000a81548173ffffffffffffffffffffffffffffffffffffffff021916908373ffffffffffffffffffffffffffffffffffffffff160217905550807fb5e6e01e79f91267dc17b4e6314d5d4d03593d2ceee0fbb452b750bd70ea5af960405160405180910390a2600260009054906101000a900473ffffffffffffffffffffffffffffffffffffffff1673ffffffffffffffffffffffffffffffffffffffff16634000aea08685856040518463ffffffff1660e01b8152600401611f6093929190613e80565b6020604051808303816000875af1158015611f7f573d6000803e3d6000fd5b505050506040513d601f19601f82011682018060405250810190611fa391906133df565b611fe2576040517f08c379a0000000000000000000000000000000000000000000000000000000008152600401611fd990613f30565b60405180910390fd5b949350505050565b611ff26122dc565b612002838460000151518461211b565b905092915050565b6120126122dc565b612023848560000151518585612171565b90509392505050565b6120346122dc565b825182111561204257600080fd5b846020015182856120539190613b9b565b111561208857612087856002612078886020015188876120739190613b9b565b6121ff565b6120829190613b59565b61221b565b5b6000808651805187602083010193508088870111156120a75787860182525b60208701925050505b602084106120ee57805182526020826120c99190613b9b565b91506020816120d89190613b9b565b90506020846120e79190613d67565b93506120b0565b60006001856020036101000a03905080198251168184511681811785525050508692505050949350505050565b6121236122dc565b836020015183106121495761214884600286602001516121439190613b59565b61221b565b5b83518051602085830101848153818603612164576001820183525b5050508390509392505050565b6121796122dc565b8460200151848361218a9190613b9b565b11156121b2576121b185600286856121a29190613b9b565b6121ac9190613b59565b61221b565b5b60006001836101006121c49190614083565b6121ce9190613d67565b905085518386820101858319825116178152815185880111156121f15784870182525b505085915050949350505050565b60008183111561221157829050612215565b8190505b92915050565b60008260000151905061222e8383611c44565b506122398382611e33565b50505050565b6040518060400160405280600073ffffffffffffffffffffffffffffffffffffffff168152602001600081525090565b6040518060a0016040528060008019168152602001600073ffffffffffffffffffffffffffffffffffffffff16815260200160007bffffffffffffffffffffffffffffffffffffffffffffffffffffffff19168152602001600081526020016122d66122dc565b81525090565b604051806040016040528060608152602001600081525090565b6000604051905090565b600080fd5b600080fd5b60007fffffffff0000000000000000000000000000000000000000000000000000000082169050919050565b61233f8161230a565b811461234a57600080fd5b50565b60008135905061235c81612336565b92915050565b60006020828403121561237857612377612300565b5b60006123868482850161234d565b91505092915050565b60008115159050919050565b6123a48161238f565b82525050565b60006020820190506123bf600083018461239b565b92915050565b6000819050919050565b6123d8816123c5565b81146123e357600080fd5b50565b6000813590506123f5816123cf565b92915050565b600080fd5b600080fd5b6000601f19601f8301169050919050565b7f4e487b7100000000000000000000000000000000000000000000000000000000600052604160045260246000fd5b61244e82612405565b810181811067ffffffffffffffff8211171561246d5761246c612416565b5b80604052505050565b60006124806122f6565b905061248c8282612445565b919050565b600067ffffffffffffffff8211156124ac576124ab612416565b5b6124b582612405565b9050602081019050919050565b82818337600083830152505050565b60006124e46124df84612491565b612476565b905082815260208101848484011115612500576124ff612400565b5b61250b8482856124c2565b509392505050565b600082601f830112612528576125276123fb565b5b81356125388482602086016124d1565b91505092915050565b6000806040838503121561255857612557612300565b5b6000612566858286016123e6565b925050602083013567ffffffffffffffff81111561258757612586612305565b5b61259385828601612513565b9150509250929050565b600080fd5b600060a082840312156125b8576125b761259d565b5b81905092915050565b6000602082840312156125d7576125d6612300565b5b600082013567ffffffffffffffff8111156125f5576125f4612305565b5b612601848285016125a2565b91505092915050565b6000819050919050565b61261d8161260a565b82525050565b60006020820190506126386000830184612614565b92915050565b600067ffffffffffffffff82169050919050565b61265b8161263e565b811461266657600080fd5b50565b60008135905061267881612652565b92915050565b600073ffffffffffffffffffffffffffffffffffffffff82169050919050565b60006126a98261267e565b9050919050565b6126b98161269e565b81146126c457600080fd5b50565b6000813590506126d6816126b0565b92915050565b6126e58161260a565b81146126f057600080fd5b50565b600081359050612702816126dc565b92915050565b600067ffffffffffffffff82111561272357612722612416565b5b61272c82612405565b9050602081019050919050565b600061274c61274784612708565b612476565b90508281526020810184848401111561276857612767612400565b5b6127738482856124c2565b509392505050565b600082601f8301126127905761278f6123fb565b5b81356127a0848260208601612739565b91505092915050565b60008060008060008060c087890312156127c6576127c5612300565b5b60006127d489828a01612669565b96505060206127e589828a016126c7565b95505060406127f689828a016126c7565b945050606061280789828a016126f3565b935050608087013567ffffffffffffffff81111561282857612827612305565b5b61283489828a01612513565b92505060a087013567ffffffffffffffff81111561285557612854612305565b5b61286189828a0161277b565b9150509295509295509295565b6128778161269e565b82525050565b6000602082019050612892600083018461286e565b92915050565b600080604083850312156128af576128ae612300565b5b60006128bd85828601612669565b92505060206128ce858286016126c7565b9150509250929050565b600080fd5b600080fd5b6000602082840312156128f8576128f76128d8565b5b6129026020612476565b90506000612912848285016126c7565b60008301525092915050565b6000806040838503121561293557612934612300565b5b600061294385828601612669565b9250506020612954858286016128e2565b9150509250929050565b600067ffffffffffffffff82111561297957612978612416565b5b602082029050602081019050919050565b600080fd5b60006129a261299d8461295e565b612476565b905080838252602082019050602084028301858111156129c5576129c461298a565b5b835b81811015612a0c57803567ffffffffffffffff8111156129ea576129e96123fb565b5b8086016129f78982612513565b855260208501945050506020810190506129c7565b5050509392505050565b600082601f830112612a2b57612a2a6123fb565b5b8135612a3b84826020860161298f565b91505092915050565b600060ff82169050919050565b612a5a81612a44565b8114612a6557600080fd5b50565b600081359050612a7781612a51565b92915050565b60008060008060808587031215612a9757612a96612300565b5b6000612aa5878288016126c7565b945050602085013567ffffffffffffffff811115612ac657612ac5612305565b5b612ad287828801612a16565b935050604085013567ffffffffffffffff811115612af357612af2612305565b5b612aff87828801612513565b9250506060612b1087828801612a68565b91505092959194509250565b600060208284031215612b3257612b31612300565b5b6000612b40848285016126c7565b91505092915050565b600082825260208201905092915050565b7f536f75726365206d75737420626520746865206f7261636c65206f662074686560008201527f2072657175657374000000000000000000000000000000000000000000000000602082015250565b6000612bb6602883612b49565b9150612bc182612b5a565b604082019050919050565b60006020820190508181036000830152612be581612ba9565b9050919050565b7f416c72656164792066756c66696c6c6564000000000000000000000000000000600082015250565b6000612c22601183612b49565b9150612c2d82612bec565b602082019050919050565b60006020820190508181036000830152612c5181612c15565b9050919050565b7f47616d65204e6f7420466f756e64000000000000000000000000000000000000600082015250565b6000612c8e600e83612b49565b9150612c9982612c58565b602082019050919050565b60006020820190508181036000830152612cbd81612c81565b9050919050565b600081519050919050565b60005b83811015612ced578082015181840152602081019050612cd2565b60008484015250505050565b6000612d0482612cc4565b612d0e8185612b49565b9350612d1e818560208601612ccf565b612d2781612405565b840191505092915050565b6000604082019050612d47600083018561286e565b8181036020830152612d598184612cf9565b90509392505050565b600067ffffffffffffffff821115612d7d57612d7c612416565b5b602082029050602081019050919050565b600060408284031215612da457612da36128d8565b5b612dae6040612476565b90506000612dbe848285016126c7565b6000830152506020612dd2848285016126f3565b60208301525092915050565b6000612df1612dec84612d62565b612476565b90508083825260208201905060408402830185811115612e1457612e1361298a565b5b835b81811015612e3d5780612e298882612d8e565b845260208401935050604081019050612e16565b5050509392505050565b600082601f830112612e5c57612e5b6123fb565b5b8135612e6c848260208601612dde565b91505092915050565b600060a08284031215612e8b57612e8a6128d8565b5b612e9560a0612476565b90506000612ea5848285016123e6565b6000830152506020612eb984828501612669565b602083015250604082013567ffffffffffffffff811115612edd57612edc6128dd565b5b612ee98482850161277b565b604083015250606082013567ffffffffffffffff811115612f0d57612f0c6128dd565b5b612f198482850161277b565b606083015250608082013567ffffffffffffffff811115612f3d57612f3c6128dd565b5b612f4984828501612e47565b60808301525092915050565b6000612f613683612e75565b9050919050565b7f436861696e206e6f7420737570706f7274656400000000000000000000000000600082015250565b6000612f9e601383612b49565b9150612fa982612f68565b602082019050919050565b60006020820190508181036000830152612fcd81612f91565b9050919050565b600081519050919050565b600082825260208201905092915050565b6000612ffb82612fd4565b6130058185612fdf565b9350613015818560208601612ccf565b61301e81612405565b840191505092915050565b600060a08201905061303e600083018861286e565b61304b602083018761286e565b6130586040830186612614565b818103606083015261306a8185612cf9565b9050818103608083015261307e8184612ff0565b90509695505050505050565b6130938161263e565b82525050565b600082825260208201905092915050565b60006130b582612fd4565b6130bf8185613099565b93506130cf818560208601612ccf565b6130d881612405565b840191505092915050565b600081519050919050565b600082825260208201905092915050565b6000819050602082019050919050565b6131188161269e565b82525050565b6131278161260a565b82525050565b604082016000820151613143600085018261310f565b506020820151613156602085018261311e565b50505050565b6000613168838361312d565b60408301905092915050565b6000602082019050919050565b600061318c826130e3565b61319681856130ee565b93506131a1836130ff565b8060005b838110156131d25781516131b9888261315c565b97506131c483613174565b9250506001810190506131a5565b5085935050505092915050565b600060a08301600083015184820360008601526131fc82826130aa565b9150506020830151848203602086015261321682826130aa565b915050604083015184820360408601526132308282613181565b9150506060830151613245606086018261310f565b506080830151848203608086015261325d82826130aa565b9150508091505092915050565b600060408201905061327f600083018561308a565b818103602083015261329181846131df565b90509392505050565b6000815190506132a9816126dc565b92915050565b6000602082840312156132c5576132c4612300565b5b60006132d38482850161329a565b91505092915050565b7f496e73756666696369656e742066656500000000000000000000000000000000600082015250565b6000613312601083612b49565b915061331d826132dc565b602082019050919050565b6000602082019050818103600083015261334181613305565b9050919050565b600081519050613357816123cf565b92915050565b60006020828403121561337357613372612300565b5b600061338184828501613348565b91505092915050565b600060408201905061339f600083018561286e565b6133ac6020830184612614565b9392505050565b6133bc8161238f565b81146133c757600080fd5b50565b6000815190506133d9816133b3565b92915050565b6000602082840312156133f5576133f4612300565b5b6000613403848285016133ca565b91505092915050565b7f546f6f206d616e79206174747269627574657300000000000000000000000000600082015250565b6000613442601383612b49565b915061344d8261340c565b602082019050919050565b6000602082019050818103600083015261347181613435565b9050919050565b600081519050919050565b600082825260208201905092915050565b6000819050602082019050919050565b600082825260208201905092915050565b60006134c082612cc4565b6134ca81856134a4565b93506134da818560208601612ccf565b6134e381612405565b840191505092915050565b60006134fa83836134b5565b905092915050565b6000602082019050919050565b600061351a82613478565b6135248185613483565b93508360208202850161353685613494565b8060005b85811015613572578484038952815161355385826134ee565b945061355e83613502565b925060208a0199505060018101905061353a565b50829750879550505050505092915050565b600082825260208201905092915050565b7f2c00000000000000000000000000000000000000000000000000000000000000600082015250565b60006135cb600183613584565b91506135d682613595565b602082019050919050565b600060408201905081810360008301526135fb818461350f565b9050818103602083015261360e816135be565b905092915050565b600061362961362484612491565b612476565b90508281526020810184848401111561364557613644612400565b5b613650848285612ccf565b509392505050565b600082601f83011261366d5761366c6123fb565b5b815161367d848260208601613616565b91505092915050565b60006020828403121561369c5761369b612300565b5b600082015167ffffffffffffffff8111156136ba576136b9612305565b5b6136c684828501613658565b91505092915050565b600081905092915050565b60006136e582612cc4565b6136ef81856136cf565b93506136ff818560208601612ccf565b80840191505092915050565b7f2f00000000000000000000000000000000000000000000000000000000000000815250565b600061373d82896136da565b91506137488261370b565b60018201915061375882886136da565b91506137638261370b565b60018201915061377382876136da565b915061377e8261370b565b60018201915061378e82866136da565b91506137998261370b565b6001820191506137a982856136da565b91506137b48261370b565b6001820191506137c482846136da565b9150819050979650505050505050565b7f4f776e61626c653a206e6577206f776e657220697320746865207a65726f206160008201527f6464726573730000000000000000000000000000000000000000000000000000602082015250565b6000613830602683612b49565b915061383b826137d4565b604082019050919050565b6000602082019050818103600083015261385f81613823565b9050919050565b7f4f776e61626c653a2063616c6c6572206973206e6f7420746865206f776e6572600082015250565b600061389c602083612b49565b91506138a782613866565b602082019050919050565b600060208201905081810360008301526138cb8161388f565b9050919050565b60006138dd8261267e565b9050919050565b6138ed816138d2565b81146138f857600080fd5b50565b60008151905061390a816138e4565b92915050565b600061392361391e84612708565b612476565b90508281526020810184848401111561393f5761393e612400565b5b61394a848285612ccf565b509392505050565b600082601f830112613967576139666123fb565b5b8151613977848260208601613910565b91505092915050565b600080600080600060a0868803121561399c5761399b612300565b5b60006139aa888289016138fb565b95505060206139bb888289016138fb565b94505060406139cc8882890161329a565b935050606086015167ffffffffffffffff8111156139ed576139ec612305565b5b6139f988828901613658565b925050608086015167ffffffffffffffff811115613a1a57613a19612305565b5b613a2688828901613952565b9150509295509295909350565b600060c082019050613a48600083018961308a565b613a55602083018861286e565b613a62604083018761286e565b613a6f6060830186612614565b8181036080830152613a818185612cf9565b905081810360a0830152613a958184612ff0565b9050979650505050505050565b613aab8161238f565b82525050565b604082016000820151613ac7600085018261311e565b506020820151613ada6020850182613aa2565b50505050565b6000604082019050613af56000830184613ab1565b92915050565b7f4e487b7100000000000000000000000000000000000000000000000000000000600052601260045260246000fd5b7f4e487b7100000000000000000000000000000000000000000000000000000000600052601160045260246000fd5b6000613b648261260a565b9150613b6f8361260a565b9250828202613b7d8161260a565b91508282048414831517613b9457613b93613b2a565b5b5092915050565b6000613ba68261260a565b9150613bb18361260a565b9250828201905080821115613bc957613bc8613b2a565b5b92915050565b7f4e487b7100000000000000000000000000000000000000000000000000000000600052603260045260246000fd5b6000613c098261260a565b915060008203613c1c57613c1b613b2a565b5b600182039050919050565b7f537472696e67733a20686578206c656e67746820696e73756666696369656e74600082015250565b6000613c5d602083612b49565b9150613c6882613c27565b602082019050919050565b60006020820190508181036000830152613c8c81613c50565b9050919050565b613c9c816123c5565b82525050565b613cab8161230a565b82525050565b600061010082019050613cc7600083018b61286e565b613cd4602083018a612614565b613ce16040830189613c93565b613cee606083018861286e565b613cfb6080830187613ca2565b613d0860a0830186612614565b613d1560c0830185612614565b81810360e0830152613d278184612ff0565b90509998505050505050505050565b6000613d418261260a565b9150613d4c8361260a565b925082613d5c57613d5b613afb565b5b828206905092915050565b6000613d728261260a565b9150613d7d8361260a565b9250828203905081811115613d9557613d94613b2a565b5b92915050565b6000819050919050565b6000613dc0613dbb613db68461267e565b613d9b565b61267e565b9050919050565b6000613dd282613da5565b9050919050565b6000613de482613dc7565b9050919050565b60008160601b9050919050565b6000613e0382613deb565b9050919050565b6000613e1582613df8565b9050919050565b613e2d613e2882613dd9565b613e0a565b82525050565b6000819050919050565b613e4e613e498261260a565b613e33565b82525050565b6000613e608285613e1c565b601482019150613e708284613e3d565b6020820191508190509392505050565b6000606082019050613e95600083018661286e565b613ea26020830185612614565b8181036040830152613eb48184612ff0565b9050949350505050565b7f756e61626c6520746f207472616e73666572416e6443616c6c20746f206f726160008201527f636c650000000000000000000000000000000000000000000000000000000000602082015250565b6000613f1a602383612b49565b9150613f2582613ebe565b604082019050919050565b60006020820190508181036000830152613f4981613f0d565b9050919050565b60008160011c9050919050565b6000808291508390505b6001851115613fa757808604811115613f8357613f82613b2a565b5b6001851615613f925780820291505b8081029050613fa085613f50565b9450613f67565b94509492505050565b600082613fc0576001905061407c565b81613fce576000905061407c565b8160018114613fe45760028114613fee5761401d565b600191505061407c565b60ff84111561400057613fff613b2a565b5b8360020a91508482111561401757614016613b2a565b5b5061407c565b5060208310610133831016604e8410600b84101617156140525782820a90508381111561404d5761404c613b2a565b5b61407c565b61405f8484846001613f5d565b9250905081840481111561407657614075613b2a565b5b81810290505b9392505050565b600061408e8261260a565b91506140998361260a565b92506140c67fffffffffffffffffffffffffffffffffffffffffffffffffffffffffffffffff8484613fb0565b90509291505056fea264697066735822122028e7b4062578cbee25e551d560ed0cac76e095f094520161079d17ab1053704664736f6c63430008110033",
  "immutableReferences": {
    "14": [
      {
        "length": 32,
        "start": 1841
      },
      {
        "length": 32,
        "start": 3505
      }
    ]
  },
  "source": "// SPDX-License-Identifier: MIT\r\npragma solidity ^0.8.17;\r\n\r\nimport {Assets} from \"./libraries/Assets.sol\";\r\nimport {Params} from \"./libraries/Params.sol\";\r\nimport {IKanvasInterop} from \"./interfaces/IKanvasInterop.sol\";\r\nimport {IKanvasInteropGame} from \"./interfaces/IKanvasInteropGame.sol\";\r\nimport {IKanvasGame} from \"./interfaces/IKanvasGame.sol\";\r\nimport {StringJoiner} from \"./libraries/StringJoiner.sol\";\r\n\r\nimport {Strings} from \"@openzeppelin/contracts/utils/Strings.sol\";\r\nimport {Ownable} from \"@openzeppelin/contracts/access/Ownable.sol\";\r\nimport {Context} from \"@openzeppelin/contracts/utils/Context.sol\";\r\n\r\nimport {CCIPReceiver} from \"@chainlink/contracts-ccip/src/v0.8/ccip/applications/CCIPReceiver.sol\";\r\nimport {IRouterClient} from \"@chainlink/contracts-ccip/src/v0.8/ccip/interfaces/IRouterClient.sol\";\r\nimport {Client} from \"@chainlink/contracts-ccip/src/v0.8/ccip/libraries/Client.sol\";\r\nimport {ChainlinkClient, Chainlink, LinkTokenInterface} from \"@chainlink/contracts/src/v0.8/ChainlinkClient.sol\";\r\n\r\n// ! FOR POLYGON ALONE - HARDCODED VALUES\r\n\r\ncontract KanvasInterop is\r\n    IKanvasInterop,\r\n    Context,\r\n    CCIPReceiver,\r\n    ChainlinkClient,\r\n    Ownable\r\n{\r\n    uint64 private constant POLYGON_SELECTOR = 12532609583862916517;\r\n    uint256 public constant MAX_PROPERTIES_LEN = 20;\r\n    uint256 public constant MAX_TEMPLATES_LEN = 5;\r\n    using Chainlink for Chainlink.Request;\r\n\r\n    string private constant BASE_URL = \"https://kanvas-di5j.onrender.com\";\r\n\r\n    bytes32 private jobId;\r\n    uint256 private fee;\r\n\r\n    mapping(address => address) private _games;\r\n\r\n    mapping(bytes32 => Assets.Request) private _requests;\r\n\r\n    mapping(uint64 => address) private _interops;\r\n\r\n    IRouterClient private _router;\r\n\r\n    constructor(address receiver) CCIPReceiver(receiver) Ownable() {\r\n        setChainlinkToken(0x326C977E6efc84E512bB9C30f76E30c160eD06FB);\r\n        setChainlinkOracle(0x40193c8518BB267228Fc409a613bDbD8eC5a97b3);\r\n        jobId = \"7d80a6386ef543a3abb52817f6707e3b\";\r\n        fee = (1 * LINK_DIVISIBILITY) / 10;\r\n\r\n        _router = IRouterClient(getRouter());\r\n    }\r\n\r\n    function _createGame(\r\n        uint64 /* chainSelector */,\r\n        Params.InteropGame memory params\r\n    ) external override {\r\n        _games[_msgSender()] = params.gameId;\r\n    }\r\n\r\n    function _generateUri(\r\n        address playerId,\r\n        string[] memory properties,\r\n        string memory fields,\r\n        uint8 templateId\r\n    ) external override {\r\n        require(properties.length <= MAX_PROPERTIES_LEN, \"Too many attributes\");\r\n\r\n        address gameId = _games[_msgSender()];\r\n        require(_games[gameId] != address(0), \"Game Not Found\");\r\n\r\n        Chainlink.Request memory req = buildChainlinkRequest(\r\n            jobId,\r\n            address(this),\r\n            this.fulfill.selector\r\n        );\r\n\r\n        // Set the URL to perform the GET request on\r\n        // https://server.com/generete/properties/fields/gameid/playerid\r\n        req.add(\r\n            \"get\",\r\n            string.concat(\r\n                BASE_URL,\r\n                \"/\",\r\n                StringJoiner.joinStrings(properties, \",\"),\r\n                \"/\",\r\n                fields,\r\n                \"/\",\r\n                Strings.toHexString(gameId),\r\n                \"/\",\r\n                Strings.toHexString(playerId),\r\n                \"/\",\r\n                Strings.toString(templateId)\r\n            )\r\n        );\r\n\r\n        // Chainlink nodes 1.0.0 and later support this format\r\n        req.add(\"path\", \"uri\");\r\n\r\n        // Sends the request\r\n        bytes32 requestId = sendChainlinkRequest(req, fee);\r\n\r\n        _requests[requestId] = Assets.Request({\r\n            gameId: gameId,\r\n            playerId: playerId,\r\n            fulfilled: false\r\n        });\r\n    }\r\n\r\n    function updateInterop(\r\n        uint64 chainSelector,\r\n        address kanvasRouter\r\n    ) external onlyOwner {\r\n        _interops[chainSelector] = kanvasRouter;\r\n    }\r\n\r\n    /** Receive the response in the form of string  */\r\n    function fulfill(\r\n        bytes32 requestId,\r\n        string memory uri\r\n    ) public recordChainlinkFulfillment(requestId) {\r\n        Assets.Request storage request = _requests[requestId];\r\n        require(!request.fulfilled, \"Already fulfilled\");\r\n\r\n        request.fulfilled = true;\r\n\r\n        require(_games[request.gameId] != address(0), \"Game Not Found\");\r\n\r\n        IKanvasGame game = IKanvasGame(request.gameId);\r\n        game._receiveUri(request.playerId, uri);\r\n    }\r\n\r\n    /** Allow withdraw of Link tokens from the contract */\r\n    function withdrawLink() public onlyOwner {\r\n        LinkTokenInterface link = LinkTokenInterface(chainlinkTokenAddress());\r\n        link.transfer(msg.sender, link.balanceOf(address(this)));\r\n    }\r\n\r\n    function _transferTo(\r\n        uint64 chainSelector,\r\n        address gameId,\r\n        address playerId,\r\n        uint256 tokenId,\r\n        string memory uri,\r\n        bytes memory data\r\n    ) external payable {\r\n        require(_interops[chainSelector] != address(0), \"Chain not supported\");\r\n\r\n        // Create an EVM2AnyMessage struct in memory with necessary information for sending a cross-chain message\r\n        Client.EVM2AnyMessage memory message = Client.EVM2AnyMessage({\r\n            // ABI-encoded receiver address\r\n            receiver: abi.encode(_interops[chainSelector]),\r\n            // ABI-encoded string message\r\n            data: abi.encode(gameId, playerId, tokenId, uri, data),\r\n            // Empty array indicating no tokens are being sent\r\n            tokenAmounts: new Client.EVMTokenAmount[](0),\r\n            // Additional arguments, setting gas limit and non-strict sequency mode\r\n            extraArgs: Client._argsToBytes(\r\n                Client.EVMExtraArgsV1({gasLimit: 400_000, strict: false})\r\n            ),\r\n            // Setting feeToken to zero address, indicating native asset will be used for fees\r\n            feeToken: address(0)\r\n        });\r\n\r\n        // Get the fee required to send the message\r\n        uint256 fees = _router.getFee(POLYGON_SELECTOR, message);\r\n\r\n        require(msg.value >= fees, \"Insufficient fee\");\r\n\r\n        // Send the message through the router and store the returned message ID\r\n        _router.ccipSend{value: fees}(POLYGON_SELECTOR, message);\r\n    }\r\n\r\n    // handle a received message\r\n    function _ccipReceive(\r\n        Client.Any2EVMMessage memory message\r\n    ) internal override {\r\n        (\r\n            address gameId,\r\n            address playerId,\r\n            uint256 tokenId,\r\n            string memory uri,\r\n            bytes memory data\r\n        ) = abi.decode(\r\n                message.data,\r\n                (address, address, uint256, string, bytes)\r\n            );\r\n\r\n        IKanvasInteropGame game = IKanvasInteropGame(gameId);\r\n        game._receiveFrom(\r\n            message.sourceChainSelector,\r\n            gameId,\r\n            playerId,\r\n            tokenId,\r\n            uri,\r\n            data\r\n        );\r\n    }\r\n}\r\n",
  "sourcePath": "C:\\Users\\DELL\\Documents\\kanvas\\blockchain\\contracts\\KanvasInterop.sol",
  "compiler": {
    "name": "solc",
    "version": "0.8.17+commit.8df45f5f.Emscripten.clang"
  },
  "schemaVersion": "3.4.11",
  "updatedAt": "2023-12-02T17:38:14.867Z",
  "devdoc": {
    "kind": "dev",
    "methods": {
      "ccipReceive((bytes32,uint64,bytes,bytes,(address,uint256)[]))": {
        "details": "Note ensure you check the msg.sender is the OffRampRouter",
        "params": {
          "message": "CCIP Message"
        }
      },
      "getRouter()": {
        "returns": {
          "_0": "i_router address"
        }
      },
      "owner()": {
        "details": "Returns the address of the current owner."
      },
      "renounceOwnership()": {
        "details": "Leaves the contract without owner. It will not be possible to call `onlyOwner` functions. Can only be called by the current owner. NOTE: Renouncing ownership will leave the contract without an owner, thereby disabling any functionality that is only available to the owner."
      },
      "supportsInterface(bytes4)": {
        "params": {
          "interfaceId": "The interfaceId to check"
        },
        "returns": {
          "_0": "true if the interfaceId is supported"
        }
      },
      "transferOwnership(address)": {
        "details": "Transfers ownership of the contract to a new account (`newOwner`). Can only be called by the current owner."
      }
    },
    "version": 1
  },
  "userdoc": {
    "kind": "user",
    "methods": {
      "ccipReceive((bytes32,uint64,bytes,bytes,(address,uint256)[]))": {
        "notice": "Called by the Router to deliver a message. If this reverts, any token transfers also revert. The message will move to a FAILED state and become available for manual execution."
      },
      "fulfill(bytes32,string)": {
        "notice": "Receive the response in the form of string  "
      },
      "getRouter()": {
        "notice": "Return the current router"
      },
      "supportsInterface(bytes4)": {
        "notice": "IERC165 supports an interfaceId"
      },
      "withdrawLink()": {
        "notice": "Allow withdraw of Link tokens from the contract "
      }
    },
    "version": 1
  }
}