{
  "contractName": "KanvasInterop",
  "abi": [
    {
      "inputs": [
        {
          "internalType": "address",
          "name": "ccipReceiver",
          "type": "address"
        },
        {
          "internalType": "address",
          "name": "functionOracle",
          "type": "address"
        }
      ],
      "stateMutability": "nonpayable",
      "type": "constructor"
    },
    {
      "inputs": [],
      "name": "EmptyArgs",
      "type": "error"
    },
    {
      "inputs": [],
      "name": "EmptySource",
      "type": "error"
    },
    {
      "inputs": [
        {
          "internalType": "address",
          "name": "router",
          "type": "address"
        }
      ],
      "name": "InvalidRouter",
      "type": "error"
    },
    {
      "inputs": [],
      "name": "NoInlineSecrets",
      "type": "error"
    },
    {
      "inputs": [],
      "name": "OnlyRouterCanFulfill",
      "type": "error"
    },
    {
      "anonymous": false,
      "inputs": [
        {
          "indexed": false,
          "internalType": "address",
          "name": "gameId",
          "type": "address"
        },
        {
          "indexed": false,
          "internalType": "string",
          "name": "name",
          "type": "string"
        },
        {
          "indexed": false,
          "internalType": "string",
          "name": "description",
          "type": "string"
        },
        {
          "indexed": false,
          "internalType": "string",
          "name": "avatar",
          "type": "string"
        },
        {
          "indexed": false,
          "internalType": "uint256",
          "name": "plan",
          "type": "uint256"
        },
        {
          "indexed": false,
          "internalType": "address",
          "name": "creator",
          "type": "address"
        },
        {
          "indexed": false,
          "internalType": "string",
          "name": "email",
          "type": "string"
        },
        {
          "indexed": false,
          "internalType": "string",
          "name": "website",
          "type": "string"
        }
      ],
      "name": "GameCreated",
      "type": "event"
    },
    {
      "anonymous": false,
      "inputs": [
        {
          "indexed": false,
          "internalType": "bytes32",
          "name": "requestId",
          "type": "bytes32"
        },
        {
          "indexed": false,
          "internalType": "address",
          "name": "gameId",
          "type": "address"
        },
        {
          "indexed": false,
          "internalType": "address",
          "name": "playerId",
          "type": "address"
        },
        {
          "indexed": false,
          "internalType": "enum Assets.EventType",
          "name": "eventType",
          "type": "uint8"
        },
        {
          "indexed": false,
          "internalType": "bytes",
          "name": "data",
          "type": "bytes"
        }
      ],
      "name": "GameEvent",
      "type": "event"
    },
    {
      "anonymous": false,
      "inputs": [
        {
          "indexed": true,
          "internalType": "address",
          "name": "previousOwner",
          "type": "address"
        },
        {
          "indexed": true,
          "internalType": "address",
          "name": "newOwner",
          "type": "address"
        }
      ],
      "name": "OwnershipTransferred",
      "type": "event"
    },
    {
      "anonymous": false,
      "inputs": [
        {
          "indexed": false,
          "internalType": "uint256",
          "name": "planId",
          "type": "uint256"
        },
        {
          "indexed": false,
          "internalType": "string",
          "name": "name",
          "type": "string"
        },
        {
          "indexed": false,
          "internalType": "uint256",
          "name": "cost",
          "type": "uint256"
        },
        {
          "indexed": false,
          "internalType": "string",
          "name": "color",
          "type": "string"
        },
        {
          "indexed": false,
          "internalType": "uint256",
          "name": "limit",
          "type": "uint256"
        }
      ],
      "name": "PlanCreated",
      "type": "event"
    },
    {
      "anonymous": false,
      "inputs": [
        {
          "indexed": true,
          "internalType": "bytes32",
          "name": "id",
          "type": "bytes32"
        }
      ],
      "name": "RequestFulfilled",
      "type": "event"
    },
    {
      "anonymous": false,
      "inputs": [
        {
          "indexed": true,
          "internalType": "bytes32",
          "name": "id",
          "type": "bytes32"
        }
      ],
      "name": "RequestSent",
      "type": "event"
    },
    {
      "anonymous": false,
      "inputs": [
        {
          "indexed": false,
          "internalType": "address",
          "name": "gameId",
          "type": "address"
        },
        {
          "indexed": false,
          "internalType": "string",
          "name": "templateUri",
          "type": "string"
        }
      ],
      "name": "TemplateAdded",
      "type": "event"
    },
    {
      "inputs": [],
      "name": "MAX_PROPERTIES_LEN",
      "outputs": [
        {
          "internalType": "uint256",
          "name": "",
          "type": "uint256"
        }
      ],
      "stateMutability": "view",
      "type": "function"
    },
    {
      "inputs": [],
      "name": "MAX_TEMPLATES_LEN",
      "outputs": [
        {
          "internalType": "uint256",
          "name": "",
          "type": "uint256"
        }
      ],
      "stateMutability": "view",
      "type": "function"
    },
    {
      "inputs": [
        {
          "components": [
            {
              "internalType": "bytes32",
              "name": "messageId",
              "type": "bytes32"
            },
            {
              "internalType": "uint64",
              "name": "sourceChainSelector",
              "type": "uint64"
            },
            {
              "internalType": "bytes",
              "name": "sender",
              "type": "bytes"
            },
            {
              "internalType": "bytes",
              "name": "data",
              "type": "bytes"
            },
            {
              "components": [
                {
                  "internalType": "address",
                  "name": "token",
                  "type": "address"
                },
                {
                  "internalType": "uint256",
                  "name": "amount",
                  "type": "uint256"
                }
              ],
              "internalType": "struct Client.EVMTokenAmount[]",
              "name": "destTokenAmounts",
              "type": "tuple[]"
            }
          ],
          "internalType": "struct Client.Any2EVMMessage",
          "name": "message",
          "type": "tuple"
        }
      ],
      "name": "ccipReceive",
      "outputs": [],
      "stateMutability": "nonpayable",
      "type": "function"
    },
    {
      "inputs": [],
      "name": "getRouter",
      "outputs": [
        {
          "internalType": "address",
          "name": "",
          "type": "address"
        }
      ],
      "stateMutability": "view",
      "type": "function"
    },
    {
      "inputs": [
        {
          "internalType": "bytes32",
          "name": "requestId",
          "type": "bytes32"
        },
        {
          "internalType": "bytes",
          "name": "response",
          "type": "bytes"
        },
        {
          "internalType": "bytes",
          "name": "err",
          "type": "bytes"
        }
      ],
      "name": "handleOracleFulfillment",
      "outputs": [],
      "stateMutability": "nonpayable",
      "type": "function"
    },
    {
      "inputs": [],
      "name": "owner",
      "outputs": [
        {
          "internalType": "address",
          "name": "",
          "type": "address"
        }
      ],
      "stateMutability": "view",
      "type": "function"
    },
    {
      "inputs": [],
      "name": "renounceOwnership",
      "outputs": [],
      "stateMutability": "nonpayable",
      "type": "function"
    },
    {
      "inputs": [
        {
          "internalType": "bytes4",
          "name": "interfaceId",
          "type": "bytes4"
        }
      ],
      "name": "supportsInterface",
      "outputs": [
        {
          "internalType": "bool",
          "name": "",
          "type": "bool"
        }
      ],
      "stateMutability": "pure",
      "type": "function"
    },
    {
      "inputs": [
        {
          "internalType": "address",
          "name": "newOwner",
          "type": "address"
        }
      ],
      "name": "transferOwnership",
      "outputs": [],
      "stateMutability": "nonpayable",
      "type": "function"
    },
    {
      "inputs": [
        {
          "internalType": "bytes32",
          "name": "newDonId",
          "type": "bytes32"
        }
      ],
      "name": "updateDonId",
      "outputs": [],
      "stateMutability": "nonpayable",
      "type": "function"
    },
    {
      "inputs": [
        {
          "internalType": "string",
          "name": "newSourceCode",
          "type": "string"
        }
      ],
      "name": "updateSourceCode",
      "outputs": [],
      "stateMutability": "nonpayable",
      "type": "function"
    },
    {
      "inputs": [
        {
          "internalType": "uint32",
          "name": "newLimit",
          "type": "uint32"
        }
      ],
      "name": "updateGasLimit",
      "outputs": [],
      "stateMutability": "nonpayable",
      "type": "function"
    },
    {
      "inputs": [
        {
          "internalType": "uint64",
          "name": "newSubscriptionId",
          "type": "uint64"
        }
      ],
      "name": "updateSubscriptionId",
      "outputs": [],
      "stateMutability": "nonpayable",
      "type": "function"
    },
    {
      "inputs": [
        {
          "components": [
            {
              "internalType": "address",
              "name": "sourceGameId",
              "type": "address"
            }
          ],
          "internalType": "struct Params.InteropGame",
          "name": "params",
          "type": "tuple"
        }
      ],
      "name": "_createGame",
      "outputs": [],
      "stateMutability": "nonpayable",
      "type": "function"
    },
    {
      "inputs": [
        {
          "internalType": "address",
          "name": "playerId",
          "type": "address"
        },
        {
          "internalType": "string[]",
          "name": "props",
          "type": "string[]"
        },
        {
          "internalType": "string",
          "name": "fields",
          "type": "string"
        },
        {
          "internalType": "uint8",
          "name": "templateId",
          "type": "uint8"
        }
      ],
      "name": "_generateUri",
      "outputs": [],
      "stateMutability": "nonpayable",
      "type": "function"
    },
    {
      "inputs": [
        {
          "internalType": "uint64",
          "name": "chainSelector",
          "type": "uint64"
        },
        {
          "internalType": "address",
          "name": "kanvasRouter",
          "type": "address"
        }
      ],
      "name": "updateInterop",
      "outputs": [],
      "stateMutability": "nonpayable",
      "type": "function"
    },
    {
      "inputs": [
        {
          "internalType": "uint64",
          "name": "",
          "type": "uint64"
        },
        {
          "internalType": "address",
          "name": "",
          "type": "address"
        },
        {
          "internalType": "address",
          "name": "",
          "type": "address"
        },
        {
          "internalType": "uint256",
          "name": "",
          "type": "uint256"
        },
        {
          "internalType": "string",
          "name": "",
          "type": "string"
        },
        {
          "internalType": "bytes",
          "name": "",
          "type": "bytes"
        }
      ],
      "name": "_transferTo",
      "outputs": [],
      "stateMutability": "payable",
      "type": "function"
    },
    {
      "inputs": [
        {
          "internalType": "address",
          "name": "gameId",
          "type": "address"
        },
        {
          "internalType": "address",
          "name": "playerId",
          "type": "address"
        },
        {
          "internalType": "uint256",
          "name": "tokenId",
          "type": "uint256"
        },
        {
          "internalType": "string",
          "name": "uri",
          "type": "string"
        },
        {
          "internalType": "bytes",
          "name": "data",
          "type": "bytes"
        }
      ],
      "name": "_withdrawTo",
      "outputs": [],
      "stateMutability": "payable",
      "type": "function"
    }
  ],
  "bytecode": "0x60c060405261042a600260006101000a81548167ffffffffffffffff021916908367ffffffffffffffff160217905550620493e0600260086101000a81548163ffffffff021916908363ffffffff1602179055507f66756e2d706f6c79676f6e2d6d756d6261692d3100000000000000000000000060001b6003553480156200008757600080fd5b5060405162004da938038062004da98339818101604052810190620000ad919062000346565b8082600073ffffffffffffffffffffffffffffffffffffffff168173ffffffffffffffffffffffffffffffffffffffff1603620001245760006040517fd7f733340000000000000000000000000000000000000000000000000000000081526004016200011b91906200039e565b60405180910390fd5b8073ffffffffffffffffffffffffffffffffffffffff1660808173ffffffffffffffffffffffffffffffffffffffff1681525050508073ffffffffffffffffffffffffffffffffffffffff1660a08173ffffffffffffffffffffffffffffffffffffffff168152505050620001ae620001a26200020660201b60201c565b6200020e60201b60201c565b620001be620002d260201b60201c565b600760006101000a81548173ffffffffffffffffffffffffffffffffffffffff021916908373ffffffffffffffffffffffffffffffffffffffff1602179055505050620003bb565b600033905090565b60008060009054906101000a900473ffffffffffffffffffffffffffffffffffffffff169050816000806101000a81548173ffffffffffffffffffffffffffffffffffffffff021916908373ffffffffffffffffffffffffffffffffffffffff1602179055508173ffffffffffffffffffffffffffffffffffffffff168173ffffffffffffffffffffffffffffffffffffffff167f8be0079c531659141344cd1fd0a4f28419497f9722a3daafe3b4186f6b6457e060405160405180910390a35050565b6000608051905090565b600080fd5b600073ffffffffffffffffffffffffffffffffffffffff82169050919050565b60006200030e82620002e1565b9050919050565b620003208162000301565b81146200032c57600080fd5b50565b600081519050620003408162000315565b92915050565b6000806040838503121562000360576200035f620002dc565b5b600062000370858286016200032f565b925050602062000383858286016200032f565b9150509250929050565b620003988162000301565b82525050565b6000602082019050620003b560008301846200038d565b92915050565b60805160a0516149ba620003ef600039600081816104b40152611db60152600081816105fc015261083701526149ba6000f3fe6080604052600436106101095760003560e01c80638da5cb5b11610095578063b3285e3211610064578063b3285e321461031e578063bc71c81414610347578063dff0ee4114610363578063eee6e5731461038e578063f2fde38b146103b757610109565b80638da5cb5b1461027657806392154a3d146102a1578063a0238f81146102ca578063b0f479a1146102f357610109565b80636df0c747116100dc5780636df0c747146101c6578063715018a6146101ef57806385572ffb146102065780638b8ff3581461022f5780638d6dc0eb1461025a57610109565b806301ffc9a71461010e5780630ca761751461014b57806314b1dd1b1461017457806334303bcd1461019d575b600080fd5b34801561011a57600080fd5b5061013560048036038101906101309190612990565b6103e0565b60405161014291906129d8565b60405180910390f35b34801561015757600080fd5b50610172600480360381019061016d9190612b6f565b6104b2565b005b34801561018057600080fd5b5061019b60048036038101906101969190612c3a565b610574565b005b3480156101a957600080fd5b506101c460048036038101906101bf9190612ca3565b6105a8565b005b3480156101d257600080fd5b506101ed60048036038101906101e89190612cd0565b6105d4565b005b3480156101fb57600080fd5b506102046105e6565b005b34801561021257600080fd5b5061022d60048036038101906102289190612d21565b6105fa565b005b34801561023b57600080fd5b5061024461069f565b6040516102519190612d83565b60405180910390f35b610274600480360381019061026f9190612ec9565b6106a4565b005b34801561028257600080fd5b5061028b6106df565b6040516102989190612f9d565b60405180910390f35b3480156102ad57600080fd5b506102c860048036038101906102c39190612fb8565b610708565b005b3480156102d657600080fd5b506102f160048036038101906102ec919061303e565b61077a565b005b3480156102ff57600080fd5b50610308610833565b6040516103159190612f9d565b60405180910390f35b34801561032a57600080fd5b506103456004803603810190610340919061306b565b61085b565b005b610361600480360381019061035c91906130b4565b610876565b005b34801561036f57600080fd5b50610378610cd1565b6040516103859190612d83565b60405180910390f35b34801561039a57600080fd5b506103b560048036038101906103b09190613286565b610cd6565b005b3480156103c357600080fd5b506103de60048036038101906103d99190613325565b6111fe565b005b60007f85572ffb000000000000000000000000000000000000000000000000000000007bffffffffffffffffffffffffffffffffffffffffffffffffffffffff1916827bffffffffffffffffffffffffffffffffffffffffffffffffffffffff191614806104ab57507f01ffc9a7000000000000000000000000000000000000000000000000000000007bffffffffffffffffffffffffffffffffffffffffffffffffffffffff1916827bffffffffffffffffffffffffffffffffffffffffffffffffffffffff1916145b9050919050565b7f000000000000000000000000000000000000000000000000000000000000000073ffffffffffffffffffffffffffffffffffffffff163373ffffffffffffffffffffffffffffffffffffffff1614610537576040517fc6829f8300000000000000000000000000000000000000000000000000000000815260040160405180910390fd5b610542838383611281565b827f85e1543bf2f84fe80c6badbce3648c8539ad1df4d2b3d822938ca0538be727e660405160405180910390a2505050565b61057c6114e9565b80600260006101000a81548167ffffffffffffffff021916908367ffffffffffffffff16021790555050565b6105b06114e9565b80600260086101000a81548163ffffffff021916908363ffffffff16021790555050565b6105dc6114e9565b8060038190555050565b6105ee6114e9565b6105f86000611567565b565b7f000000000000000000000000000000000000000000000000000000000000000073ffffffffffffffffffffffffffffffffffffffff163373ffffffffffffffffffffffffffffffffffffffff161461068a57336040517fd7f733340000000000000000000000000000000000000000000000000000000081526004016106819190612f9d565b60405180910390fd5b61069c8161069790613545565b61162b565b50565b601481565b6040517f08c379a00000000000000000000000000000000000000000000000000000000081526004016106d6906135db565b60405180910390fd5b60008060009054906101000a900473ffffffffffffffffffffffffffffffffffffffff16905090565b6107106114e9565b80600660008467ffffffffffffffff1667ffffffffffffffff16815260200190815260200160002060006101000a81548173ffffffffffffffffffffffffffffffffffffffff021916908373ffffffffffffffffffffffffffffffffffffffff1602179055505050565b6107826117ba565b60046000836000015173ffffffffffffffffffffffffffffffffffffffff1673ffffffffffffffffffffffffffffffffffffffff168152602001908152602001600020600067ccf0a31a221f3c9b67ffffffffffffffff1667ffffffffffffffff16815260200190815260200160002060006101000a81548173ffffffffffffffffffffffffffffffffffffffff021916908373ffffffffffffffffffffffffffffffffffffffff16021790555050565b60007f0000000000000000000000000000000000000000000000000000000000000000905090565b6108636114e9565b80600190816108729190613812565b5050565b600073ffffffffffffffffffffffffffffffffffffffff166006600067ccf0a31a221f3c9b67ffffffffffffffff1667ffffffffffffffff16815260200190815260200160002060009054906101000a900473ffffffffffffffffffffffffffffffffffffffff1673ffffffffffffffffffffffffffffffffffffffff1603610934576040517f08c379a000000000000000000000000000000000000000000000000000000000815260040161092b90613930565b60405180910390fd5b60006040518060a001604052806006600067ccf0a31a221f3c9b67ffffffffffffffff1667ffffffffffffffff16815260200190815260200160002060009054906101000a900473ffffffffffffffffffffffffffffffffffffffff166040516020016109a19190612f9d565b604051602081830303815290604052815260200187878787876040516020016109ce959493929190613a08565b6040516020818303038152906040528152602001600067ffffffffffffffff8111156109fd576109fc612a44565b5b604051908082528060200260200182016040528015610a3657816020015b610a23612848565b815260200190600190039081610a1b5790505b508152602001600073ffffffffffffffffffffffffffffffffffffffff168152602001610a7c6040518060400160405280621e84808152602001600015158152506117c2565b81525090506000600760009054906101000a900473ffffffffffffffffffffffffffffffffffffffff1673ffffffffffffffffffffffffffffffffffffffff166320487ded67ccf0a31a221f3c9b846040518363ffffffff1660e01b8152600401610ae8929190613c49565b602060405180830381865afa158015610b05573d6000803e3d6000fd5b505050506040513d601f19601f82011682018060405250810190610b299190613c8e565b905080341015610b6e576040517f08c379a0000000000000000000000000000000000000000000000000000000008152600401610b6590613d07565b60405180910390fd5b6000600760009054906101000a900473ffffffffffffffffffffffffffffffffffffffff1673ffffffffffffffffffffffffffffffffffffffff166396f4e9f98367ccf0a31a221f3c9b866040518463ffffffff1660e01b8152600401610bd6929190613c49565b60206040518083038185885af1158015610bf4573d6000803e3d6000fd5b50505050506040513d601f19601f82011682018060405250810190610c199190613d3c565b905060008234610c299190613d98565b90506000811115610c825760008990508073ffffffffffffffffffffffffffffffffffffffff166108fc839081150290604051600060405180830381858888f19350505050158015610c7f573d6000803e3d6000fd5b50505b7fe6dae862185d88c4597f4745a00933ea5be511621dcacc28511fa6029c050ccd828a8a60028860200151604051610cbe959493929190613e52565b60405180910390a1505050505050505050565b600581565b601483511115610d1b576040517f08c379a0000000000000000000000000000000000000000000000000000000008152600401610d1290613ef8565b60405180910390fd5b600060046000610d296117ba565b73ffffffffffffffffffffffffffffffffffffffff1673ffffffffffffffffffffffffffffffffffffffff168152602001908152602001600020600067ccf0a31a221f3c9b67ffffffffffffffff1667ffffffffffffffff16815260200190815260200160002060009054906101000a900473ffffffffffffffffffffffffffffffffffffffff169050600073ffffffffffffffffffffffffffffffffffffffff168173ffffffffffffffffffffffffffffffffffffffff1603610e22576040517f08c379a0000000000000000000000000000000000000000000000000000000008152600401610e1990613f64565b60405180910390fd5b6000600567ffffffffffffffff811115610e3f57610e3e612a44565b5b604051908082528060200260200182016040528015610e7257816020015b6060815260200190600190039081610e5d5790505b50905073__StringJoiner__________________________635c8656e0866040518263ffffffff1660e01b8152600401610eac91906140ed565b600060405180830381865af4158015610ec9573d6000803e3d6000fd5b505050506040513d6000823e3d601f19601f82011682018060405250810190610ef29190614192565b81600081518110610f0657610f056141db565b5b60200260200101819052508381600181518110610f2657610f256141db565b5b6020026020010181905250610f3a82611841565b81600281518110610f4e57610f4d6141db565b5b6020026020010181905250610f6286611841565b81600381518110610f7657610f756141db565b5b6020026020010181905250610f8d8360ff1661186e565b81600481518110610fa157610fa06141db565b5b6020026020010181905250610fb4612878565b61105160018054610fc490613635565b80601f0160208091040260200160405190810160405280929190818152602001828054610ff090613635565b801561103d5780601f106110125761010080835404028352916020019161103d565b820191906000526020600020905b81548152906001019060200180831161102057829003601f168201915b50505050508261193c90919063ffffffff16565b611064828261194d90919063ffffffff16565b60006110a461107283611995565b600260009054906101000a900467ffffffffffffffff16600260089054906101000a900463ffffffff16600354611db1565b905060405180606001604052808573ffffffffffffffffffffffffffffffffffffffff1681526020018973ffffffffffffffffffffffffffffffffffffffff168152602001600015158152506005600083815260200190815260200160002060008201518160000160006101000a81548173ffffffffffffffffffffffffffffffffffffffff021916908373ffffffffffffffffffffffffffffffffffffffff16021790555060208201518160010160006101000a81548173ffffffffffffffffffffffffffffffffffffffff021916908373ffffffffffffffffffffffffffffffffffffffff16021790555060408201518160010160146101000a81548160ff0219169083151502179055509050507fe6dae862185d88c4597f4745a00933ea5be511621dcacc28511fa6029c050ccd81858a60008a6040516111ec959493929190613e52565b60405180910390a15050505050505050565b6112066114e9565b600073ffffffffffffffffffffffffffffffffffffffff168173ffffffffffffffffffffffffffffffffffffffff1603611275576040517f08c379a000000000000000000000000000000000000000000000000000000000815260040161126c9061427c565b60405180910390fd5b61127e81611567565b50565b60006005600085815260200190815260200160002090508060010160149054906101000a900460ff16156112ea576040517f08c379a00000000000000000000000000000000000000000000000000000000081526004016112e1906142e8565b60405180910390fd5b600082511115611382577fe6dae862185d88c4597f4745a00933ea5be511621dcacc28511fa6029c050ccd848260000160009054906101000a900473ffffffffffffffffffffffffffffffffffffffff168360010160009054906101000a900473ffffffffffffffffffffffffffffffffffffffff16600186604051611374959493929190613e52565b60405180910390a1506114e4565b60018160010160146101000a81548160ff02191690831515021790555060008160000160009054906101000a900473ffffffffffffffffffffffffffffffffffffffff1690508073ffffffffffffffffffffffffffffffffffffffff16638f9c39568360010160009054906101000a900473ffffffffffffffffffffffffffffffffffffffff16866040518363ffffffff1660e01b8152600401611427929190614308565b600060405180830381600087803b15801561144157600080fd5b505af1158015611455573d6000803e3d6000fd5b505050507fe6dae862185d88c4597f4745a00933ea5be511621dcacc28511fa6029c050ccd858360000160009054906101000a900473ffffffffffffffffffffffffffffffffffffffff168460010160009054906101000a900473ffffffffffffffffffffffffffffffffffffffff166001886040516114d9959493929190613e52565b60405180910390a150505b505050565b6114f16117ba565b73ffffffffffffffffffffffffffffffffffffffff1661150f6106df565b73ffffffffffffffffffffffffffffffffffffffff1614611565576040517f08c379a000000000000000000000000000000000000000000000000000000000815260040161155c90614384565b60405180910390fd5b565b60008060009054906101000a900473ffffffffffffffffffffffffffffffffffffffff169050816000806101000a81548173ffffffffffffffffffffffffffffffffffffffff021916908373ffffffffffffffffffffffffffffffffffffffff1602179055508173ffffffffffffffffffffffffffffffffffffffff168173ffffffffffffffffffffffffffffffffffffffff167f8be0079c531659141344cd1fd0a4f28419497f9722a3daafe3b4186f6b6457e060405160405180910390a35050565b6000806000806000856060015180602001905181019061164b9190614452565b945094509450945094506000600460008773ffffffffffffffffffffffffffffffffffffffff1673ffffffffffffffffffffffffffffffffffffffff168152602001908152602001600020600067ccf0a31a221f3c9b67ffffffffffffffff1667ffffffffffffffff16815260200190815260200160002060009054906101000a900473ffffffffffffffffffffffffffffffffffffffff16905060008190508073ffffffffffffffffffffffffffffffffffffffff16636d4195fb67ccf0a31a221f3c9b89898989896040518763ffffffff1660e01b815260040161173696959493929190614505565b600060405180830381600087803b15801561175057600080fd5b505af1158015611764573d6000803e3d6000fd5b505050507fe6dae862185d88c4597f4745a00933ea5be511621dcacc28511fa6029c050ccd8860000151888860038c606001516040516117a8959493929190613e52565b60405180910390a15050505050505050565b600033905090565b60606397a657c960e01b826040516024016117dd91906145b2565b604051602081830303815290604052907bffffffffffffffffffffffffffffffffffffffffffffffffffffffff19166020820180517bffffffffffffffffffffffffffffffffffffffffffffffffffffffff83818316178352505050509050919050565b60606118678273ffffffffffffffffffffffffffffffffffffffff16601460ff16611e94565b9050919050565b60606000600161187d846120d0565b01905060008167ffffffffffffffff81111561189c5761189b612a44565b5b6040519080825280601f01601f1916602001820160405280156118ce5781602001600182028036833780820191505090505b509050600082602001820190505b600115611931578080600190039150507f3031323334353637383961626364656600000000000000000000000000000000600a86061a8153600a8581611925576119246145cd565b5b049450600085036118dc575b819350505050919050565b6119498260008084612223565b5050565b6000815103611988576040517ffe936cb700000000000000000000000000000000000000000000000000000000815260040160405180910390fd5b808260a001819052505050565b606060006119a46101006122cd565b90506119ee6040518060400160405280600c81526020017f636f64654c6f636174696f6e0000000000000000000000000000000000000000815250826122f490919063ffffffff16565b611a1783600001516002811115611a0857611a07613ddb565b5b8261231d90919063ffffffff16565b611a5f6040518060400160405280600881526020017f6c616e6775616765000000000000000000000000000000000000000000000000815250826122f490919063ffffffff16565b611a8883604001516000811115611a7957611a78613ddb565b5b8261231d90919063ffffffff16565b611ad06040518060400160405280600681526020017f736f757263650000000000000000000000000000000000000000000000000000815250826122f490919063ffffffff16565b611ae78360600151826122f490919063ffffffff16565b60008360a00151511115611ba357611b3d6040518060400160405280600481526020017f6172677300000000000000000000000000000000000000000000000000000000815250826122f490919063ffffffff16565b611b468161236d565b60005b8360a0015151811015611b9857611b878460a001518281518110611b7057611b6f6141db565b5b6020026020010151836122f490919063ffffffff16565b80611b91906145fc565b9050611b49565b50611ba281612395565b5b60008360800151511115611ce45760006002811115611bc557611bc4613ddb565b5b83602001516002811115611bdc57611bdb613ddb565b5b03611c13576040517fa80d31f700000000000000000000000000000000000000000000000000000000815260040160405180910390fd5b611c5b6040518060400160405280600f81526020017f736563726574734c6f636174696f6e0000000000000000000000000000000000815250826122f490919063ffffffff16565b611c8483602001516002811115611c7557611c74613ddb565b5b8261231d90919063ffffffff16565b611ccc6040518060400160405280600781526020017f7365637265747300000000000000000000000000000000000000000000000000815250826122f490919063ffffffff16565b611ce38360800151826123bd90919063ffffffff16565b5b60008360c00151511115611da057611d3a6040518060400160405280600981526020017f6279746573417267730000000000000000000000000000000000000000000000815250826122f490919063ffffffff16565b611d438161236d565b60005b8360c0015151811015611d9557611d848460c001518281518110611d6d57611d6c6141db565b5b6020026020010151836123bd90919063ffffffff16565b80611d8e906145fc565b9050611d46565b50611d9f81612395565b5b806000015160000151915050919050565b6000807f000000000000000000000000000000000000000000000000000000000000000073ffffffffffffffffffffffffffffffffffffffff1663461d27628688600188886040518663ffffffff1660e01b8152600401611e16959493929190614670565b6020604051808303816000875af1158015611e35573d6000803e3d6000fd5b505050506040513d601f19601f82011682018060405250810190611e599190613d3c565b9050807f1131472297a800fee664d1d89cfa8f7676ff07189ecc53f80bbb5f4969099db860405160405180910390a280915050949350505050565b606060006002836002611ea791906146ca565b611eb1919061470c565b67ffffffffffffffff811115611eca57611ec9612a44565b5b6040519080825280601f01601f191660200182016040528015611efc5781602001600182028036833780820191505090505b5090507f300000000000000000000000000000000000000000000000000000000000000081600081518110611f3457611f336141db565b5b60200101907effffffffffffffffffffffffffffffffffffffffffffffffffffffffffffff1916908160001a9053507f780000000000000000000000000000000000000000000000000000000000000081600181518110611f9857611f976141db565b5b60200101907effffffffffffffffffffffffffffffffffffffffffffffffffffffffffffff1916908160001a90535060006001846002611fd891906146ca565b611fe2919061470c565b90505b6001811115612082577f3031323334353637383961626364656600000000000000000000000000000000600f861660108110612024576120236141db565b5b1a60f81b82828151811061203b5761203a6141db565b5b60200101907effffffffffffffffffffffffffffffffffffffffffffffffffffffffffffff1916908160001a905350600485901c94508061207b90614740565b9050611fe5565b50600084146120c6576040517f08c379a00000000000000000000000000000000000000000000000000000000081526004016120bd906147b5565b60405180910390fd5b8091505092915050565b600080600090507a184f03e93ff9f4daa797ed6e38ed64bf6a1f010000000000000000831061212e577a184f03e93ff9f4daa797ed6e38ed64bf6a1f0100000000000000008381612124576121236145cd565b5b0492506040810190505b6d04ee2d6d415b85acef8100000000831061216b576d04ee2d6d415b85acef81000000008381612161576121606145cd565b5b0492506020810190505b662386f26fc10000831061219a57662386f26fc1000083816121905761218f6145cd565b5b0492506010810190505b6305f5e10083106121c3576305f5e10083816121b9576121b86145cd565b5b0492506008810190505b61271083106121e85761271083816121de576121dd6145cd565b5b0492506004810190505b6064831061220b5760648381612201576122006145cd565b5b0492506002810190505b600a831061221a576001810190505b80915050919050565b600081510361225e576040517f22ce3edd00000000000000000000000000000000000000000000000000000000815260040160405180910390fd5b828460000190600281111561227657612275613ddb565b5b9081600281111561228a57612289613ddb565b5b8152505081846040019060008111156122a6576122a5613ddb565b5b908160008111156122ba576122b9613ddb565b5b8152505080846060018190525050505050565b6122d56128ea565b6122e38160000151836123e6565b506000816020018181525050919050565b612301826003835161245f565b61231881836000015161260890919063ffffffff16565b505050565b61233f60026005600660ff16901b17836000015161262490919063ffffffff16565b5061236982826040516020016123559190612d83565b6040516020818303038152906040526123bd565b5050565b61237881600461268e565b60018160200181815161238b919061470c565b9150818152505050565b6123a081600761268e565b6001816020018181516123b39190613d98565b9150818152505050565b6123ca826002835161245f565b6123e181836000015161260890919063ffffffff16565b505050565b6123ee61290a565b60006020836123fd91906147d5565b146124295760208261240f91906147d5565b602061241b9190613d98565b82612426919061470c565b91505b81836020018181525050604051808452600081528281016020018181101561245057600080fd5b80604052505082905092915050565b60178167ffffffffffffffff161161249a576124948160058460ff16901b60ff1617846000015161262490919063ffffffff16565b50612603565b60ff8167ffffffffffffffff16116124f8576124cd601860058460ff16901b17846000015161262490919063ffffffff16565b506124f28167ffffffffffffffff16600185600001516126b49092919063ffffffff16565b50612602565b61ffff8167ffffffffffffffff16116125575761252c601960058460ff16901b17846000015161262490919063ffffffff16565b506125518167ffffffffffffffff16600285600001516126b49092919063ffffffff16565b50612601565b63ffffffff8167ffffffffffffffff16116125b85761258d601a60058460ff16901b17846000015161262490919063ffffffff16565b506125b28167ffffffffffffffff16600485600001516126b49092919063ffffffff16565b50612600565b6125d9601b60058460ff16901b17846000015161262490919063ffffffff16565b506125fe8167ffffffffffffffff16600885600001516126b49092919063ffffffff16565b505b5b5b5b505050565b61261061290a565b61261c83838451612741565b905092915050565b61262c61290a565b600083600001515190506000600182612645919061470c565b905084602001518210612669576126688560028361266391906146ca565b612824565b5b84516020838201018581538151831115612681578282525b5050849250505092915050565b6126af601f60058360ff16901b17836000015161262490919063ffffffff16565b505050565b6126bc61290a565b60008460000151519050600081846126d4919061470c565b905085602001518111156126f9576126f8866002836126f391906146ca565b612824565b5b600060018561010061270b9190614939565b6127159190613d98565b905086518281018783198251161781528151841115612732578382525b50508693505050509392505050565b61274961290a565b825182111561275757600080fd5b600084600001515190506000838261276f919061470c565b90508560200151811115612794576127938660028361278e91906146ca565b612824565b5b600080875180518560208301019350808511156127af578482525b60208901925050505b602086106127f657805182526020826127d1919061470c565b91506020816127e0919061470c565b90506020866127ef9190613d98565b95506127b8565b60006001876020036101000a0390508019825116818451168181178552505050879450505050509392505050565b60008260000151905061283783836123e6565b506128428382612608565b50505050565b6040518060400160405280600073ffffffffffffffffffffffffffffffffffffffff168152602001600081525090565b6040518060e001604052806000600281111561289757612896613ddb565b5b8152602001600060028111156128b0576128af613ddb565b5b81526020016000808111156128c8576128c7613ddb565b5b8152602001606081526020016060815260200160608152602001606081525090565b60405180604001604052806128fd61290a565b8152602001600081525090565b604051806040016040528060608152602001600081525090565b6000604051905090565b600080fd5b600080fd5b60007fffffffff0000000000000000000000000000000000000000000000000000000082169050919050565b61296d81612938565b811461297857600080fd5b50565b60008135905061298a81612964565b92915050565b6000602082840312156129a6576129a561292e565b5b60006129b48482850161297b565b91505092915050565b60008115159050919050565b6129d2816129bd565b82525050565b60006020820190506129ed60008301846129c9565b92915050565b6000819050919050565b612a06816129f3565b8114612a1157600080fd5b50565b600081359050612a23816129fd565b92915050565b600080fd5b600080fd5b6000601f19601f8301169050919050565b7f4e487b7100000000000000000000000000000000000000000000000000000000600052604160045260246000fd5b612a7c82612a33565b810181811067ffffffffffffffff82111715612a9b57612a9a612a44565b5b80604052505050565b6000612aae612924565b9050612aba8282612a73565b919050565b600067ffffffffffffffff821115612ada57612ad9612a44565b5b612ae382612a33565b9050602081019050919050565b82818337600083830152505050565b6000612b12612b0d84612abf565b612aa4565b905082815260208101848484011115612b2e57612b2d612a2e565b5b612b39848285612af0565b509392505050565b600082601f830112612b5657612b55612a29565b5b8135612b66848260208601612aff565b91505092915050565b600080600060608486031215612b8857612b8761292e565b5b6000612b9686828701612a14565b935050602084013567ffffffffffffffff811115612bb757612bb6612933565b5b612bc386828701612b41565b925050604084013567ffffffffffffffff811115612be457612be3612933565b5b612bf086828701612b41565b9150509250925092565b600067ffffffffffffffff82169050919050565b612c1781612bfa565b8114612c2257600080fd5b50565b600081359050612c3481612c0e565b92915050565b600060208284031215612c5057612c4f61292e565b5b6000612c5e84828501612c25565b91505092915050565b600063ffffffff82169050919050565b612c8081612c67565b8114612c8b57600080fd5b50565b600081359050612c9d81612c77565b92915050565b600060208284031215612cb957612cb861292e565b5b6000612cc784828501612c8e565b91505092915050565b600060208284031215612ce657612ce561292e565b5b6000612cf484828501612a14565b91505092915050565b600080fd5b600060a08284031215612d1857612d17612cfd565b5b81905092915050565b600060208284031215612d3757612d3661292e565b5b600082013567ffffffffffffffff811115612d5557612d54612933565b5b612d6184828501612d02565b91505092915050565b6000819050919050565b612d7d81612d6a565b82525050565b6000602082019050612d986000830184612d74565b92915050565b600073ffffffffffffffffffffffffffffffffffffffff82169050919050565b6000612dc982612d9e565b9050919050565b612dd981612dbe565b8114612de457600080fd5b50565b600081359050612df681612dd0565b92915050565b612e0581612d6a565b8114612e1057600080fd5b50565b600081359050612e2281612dfc565b92915050565b600067ffffffffffffffff821115612e4357612e42612a44565b5b612e4c82612a33565b9050602081019050919050565b6000612e6c612e6784612e28565b612aa4565b905082815260208101848484011115612e8857612e87612a2e565b5b612e93848285612af0565b509392505050565b600082601f830112612eb057612eaf612a29565b5b8135612ec0848260208601612e59565b91505092915050565b60008060008060008060c08789031215612ee657612ee561292e565b5b6000612ef489828a01612c25565b9650506020612f0589828a01612de7565b9550506040612f1689828a01612de7565b9450506060612f2789828a01612e13565b935050608087013567ffffffffffffffff811115612f4857612f47612933565b5b612f5489828a01612e9b565b92505060a087013567ffffffffffffffff811115612f7557612f74612933565b5b612f8189828a01612b41565b9150509295509295509295565b612f9781612dbe565b82525050565b6000602082019050612fb26000830184612f8e565b92915050565b60008060408385031215612fcf57612fce61292e565b5b6000612fdd85828601612c25565b9250506020612fee85828601612de7565b9150509250929050565b600080fd5b600080fd5b60006020828403121561301857613017612ff8565b5b6130226020612aa4565b9050600061303284828501612de7565b60008301525092915050565b6000602082840312156130545761305361292e565b5b600061306284828501613002565b91505092915050565b6000602082840312156130815761308061292e565b5b600082013567ffffffffffffffff81111561309f5761309e612933565b5b6130ab84828501612e9b565b91505092915050565b600080600080600060a086880312156130d0576130cf61292e565b5b60006130de88828901612de7565b95505060206130ef88828901612de7565b945050604061310088828901612e13565b935050606086013567ffffffffffffffff81111561312157613120612933565b5b61312d88828901612e9b565b925050608086013567ffffffffffffffff81111561314e5761314d612933565b5b61315a88828901612b41565b9150509295509295909350565b600067ffffffffffffffff82111561318257613181612a44565b5b602082029050602081019050919050565b600080fd5b60006131ab6131a684613167565b612aa4565b905080838252602082019050602084028301858111156131ce576131cd613193565b5b835b8181101561321557803567ffffffffffffffff8111156131f3576131f2612a29565b5b8086016132008982612e9b565b855260208501945050506020810190506131d0565b5050509392505050565b600082601f83011261323457613233612a29565b5b8135613244848260208601613198565b91505092915050565b600060ff82169050919050565b6132638161324d565b811461326e57600080fd5b50565b6000813590506132808161325a565b92915050565b600080600080608085870312156132a05761329f61292e565b5b60006132ae87828801612de7565b945050602085013567ffffffffffffffff8111156132cf576132ce612933565b5b6132db8782880161321f565b935050604085013567ffffffffffffffff8111156132fc576132fb612933565b5b61330887828801612e9b565b925050606061331987828801613271565b91505092959194509250565b60006020828403121561333b5761333a61292e565b5b600061334984828501612de7565b91505092915050565b600067ffffffffffffffff82111561336d5761336c612a44565b5b602082029050602081019050919050565b60006040828403121561339457613393612ff8565b5b61339e6040612aa4565b905060006133ae84828501612de7565b60008301525060206133c284828501612e13565b60208301525092915050565b60006133e16133dc84613352565b612aa4565b9050808382526020820190506040840283018581111561340457613403613193565b5b835b8181101561342d5780613419888261337e565b845260208401935050604081019050613406565b5050509392505050565b600082601f83011261344c5761344b612a29565b5b813561345c8482602086016133ce565b91505092915050565b600060a0828403121561347b5761347a612ff8565b5b61348560a0612aa4565b9050600061349584828501612a14565b60008301525060206134a984828501612c25565b602083015250604082013567ffffffffffffffff8111156134cd576134cc612ffd565b5b6134d984828501612b41565b604083015250606082013567ffffffffffffffff8111156134fd576134fc612ffd565b5b61350984828501612b41565b606083015250608082013567ffffffffffffffff81111561352d5761352c612ffd565b5b61353984828501613437565b60808301525092915050565b60006135513683613465565b9050919050565b600082825260208201905092915050565b7f4d6574686f64206e6f7420617661696c61626c652c20757365205f776974686460008201527f726177546f000000000000000000000000000000000000000000000000000000602082015250565b60006135c5602583613558565b91506135d082613569565b604082019050919050565b600060208201905081810360008301526135f4816135b8565b9050919050565b600081519050919050565b7f4e487b7100000000000000000000000000000000000000000000000000000000600052602260045260246000fd5b6000600282049050600182168061364d57607f821691505b6020821081036136605761365f613606565b5b50919050565b60008190508160005260206000209050919050565b60006020601f8301049050919050565b600082821b905092915050565b6000600883026136c87fffffffffffffffffffffffffffffffffffffffffffffffffffffffffffffffff8261368b565b6136d2868361368b565b95508019841693508086168417925050509392505050565b6000819050919050565b600061370f61370a61370584612d6a565b6136ea565b612d6a565b9050919050565b6000819050919050565b613729836136f4565b61373d61373582613716565b848454613698565b825550505050565b600090565b613752613745565b61375d818484613720565b505050565b5b818110156137815761377660008261374a565b600181019050613763565b5050565b601f8211156137c65761379781613666565b6137a08461367b565b810160208510156137af578190505b6137c36137bb8561367b565b830182613762565b50505b505050565b600082821c905092915050565b60006137e9600019846008026137cb565b1980831691505092915050565b600061380283836137d8565b9150826002028217905092915050565b61381b826135fb565b67ffffffffffffffff81111561383457613833612a44565b5b61383e8254613635565b613849828285613785565b600060209050601f83116001811461387c576000841561386a578287015190505b61387485826137f6565b8655506138dc565b601f19841661388a86613666565b60005b828110156138b25784890151825560018201915060208501945060208101905061388d565b868310156138cf57848901516138cb601f8916826137d8565b8355505b6001600288020188555050505b505050505050565b7f436861696e206e6f7420737570706f7274656400000000000000000000000000600082015250565b600061391a601383613558565b9150613925826138e4565b602082019050919050565b600060208201905081810360008301526139498161390d565b9050919050565b60005b8381101561396e578082015181840152602081019050613953565b60008484015250505050565b6000613985826135fb565b61398f8185613558565b935061399f818560208601613950565b6139a881612a33565b840191505092915050565b600081519050919050565b600082825260208201905092915050565b60006139da826139b3565b6139e481856139be565b93506139f4818560208601613950565b6139fd81612a33565b840191505092915050565b600060a082019050613a1d6000830188612f8e565b613a2a6020830187612f8e565b613a376040830186612d74565b8181036060830152613a49818561397a565b90508181036080830152613a5d81846139cf565b90509695505050505050565b613a7281612bfa565b82525050565b600082825260208201905092915050565b6000613a94826139b3565b613a9e8185613a78565b9350613aae818560208601613950565b613ab781612a33565b840191505092915050565b600081519050919050565b600082825260208201905092915050565b6000819050602082019050919050565b613af781612dbe565b82525050565b613b0681612d6a565b82525050565b604082016000820151613b226000850182613aee565b506020820151613b356020850182613afd565b50505050565b6000613b478383613b0c565b60408301905092915050565b6000602082019050919050565b6000613b6b82613ac2565b613b758185613acd565b9350613b8083613ade565b8060005b83811015613bb1578151613b988882613b3b565b9750613ba383613b53565b925050600181019050613b84565b5085935050505092915050565b600060a0830160008301518482036000860152613bdb8282613a89565b91505060208301518482036020860152613bf58282613a89565b91505060408301518482036040860152613c0f8282613b60565b9150506060830151613c246060860182613aee565b5060808301518482036080860152613c3c8282613a89565b9150508091505092915050565b6000604082019050613c5e6000830185613a69565b8181036020830152613c708184613bbe565b90509392505050565b600081519050613c8881612dfc565b92915050565b600060208284031215613ca457613ca361292e565b5b6000613cb284828501613c79565b91505092915050565b7f496e73756666696369656e742066656500000000000000000000000000000000600082015250565b6000613cf1601083613558565b9150613cfc82613cbb565b602082019050919050565b60006020820190508181036000830152613d2081613ce4565b9050919050565b600081519050613d36816129fd565b92915050565b600060208284031215613d5257613d5161292e565b5b6000613d6084828501613d27565b91505092915050565b7f4e487b7100000000000000000000000000000000000000000000000000000000600052601160045260246000fd5b6000613da382612d6a565b9150613dae83612d6a565b9250828203905081811115613dc657613dc5613d69565b5b92915050565b613dd5816129f3565b82525050565b7f4e487b7100000000000000000000000000000000000000000000000000000000600052602160045260246000fd5b60048110613e1b57613e1a613ddb565b5b50565b6000819050613e2c82613e0a565b919050565b6000613e3c82613e1e565b9050919050565b613e4c81613e31565b82525050565b600060a082019050613e676000830188613dcc565b613e746020830187612f8e565b613e816040830186612f8e565b613e8e6060830185613e43565b8181036080830152613ea081846139cf565b90509695505050505050565b7f546f6f206d616e79206174747269627574657300000000000000000000000000600082015250565b6000613ee2601383613558565b9150613eed82613eac565b602082019050919050565b60006020820190508181036000830152613f1181613ed5565b9050919050565b7f47616d65204e6f7420466f756e64000000000000000000000000000000000000600082015250565b6000613f4e600e83613558565b9150613f5982613f18565b602082019050919050565b60006020820190508181036000830152613f7d81613f41565b9050919050565b600081519050919050565b600082825260208201905092915050565b6000819050602082019050919050565b600082825260208201905092915050565b6000613fcc826135fb565b613fd68185613fb0565b9350613fe6818560208601613950565b613fef81612a33565b840191505092915050565b60006140068383613fc1565b905092915050565b6000602082019050919050565b600061402682613f84565b6140308185613f8f565b93508360208202850161404285613fa0565b8060005b8581101561407e578484038952815161405f8582613ffa565b945061406a8361400e565b925060208a01995050600181019050614046565b50829750879550505050505092915050565b600082825260208201905092915050565b7f2c00000000000000000000000000000000000000000000000000000000000000600082015250565b60006140d7600183614090565b91506140e2826140a1565b602082019050919050565b60006040820190508181036000830152614107818461401b565b9050818103602083015261411a816140ca565b905092915050565b600061413561413084612e28565b612aa4565b90508281526020810184848401111561415157614150612a2e565b5b61415c848285613950565b509392505050565b600082601f83011261417957614178612a29565b5b8151614189848260208601614122565b91505092915050565b6000602082840312156141a8576141a761292e565b5b600082015167ffffffffffffffff8111156141c6576141c5612933565b5b6141d284828501614164565b91505092915050565b7f4e487b7100000000000000000000000000000000000000000000000000000000600052603260045260246000fd5b7f4f776e61626c653a206e6577206f776e657220697320746865207a65726f206160008201527f6464726573730000000000000000000000000000000000000000000000000000602082015250565b6000614266602683613558565b91506142718261420a565b604082019050919050565b6000602082019050818103600083015261429581614259565b9050919050565b7f416c72656164792066756c66696c6c6564000000000000000000000000000000600082015250565b60006142d2601183613558565b91506142dd8261429c565b602082019050919050565b60006020820190508181036000830152614301816142c5565b9050919050565b600060408201905061431d6000830185612f8e565b818103602083015261432f818461397a565b90509392505050565b7f4f776e61626c653a2063616c6c6572206973206e6f7420746865206f776e6572600082015250565b600061436e602083613558565b915061437982614338565b602082019050919050565b6000602082019050818103600083015261439d81614361565b9050919050565b60006143af82612d9e565b9050919050565b6143bf816143a4565b81146143ca57600080fd5b50565b6000815190506143dc816143b6565b92915050565b60006143f56143f084612abf565b612aa4565b90508281526020810184848401111561441157614410612a2e565b5b61441c848285613950565b509392505050565b600082601f83011261443957614438612a29565b5b81516144498482602086016143e2565b91505092915050565b600080600080600060a0868803121561446e5761446d61292e565b5b600061447c888289016143cd565b955050602061448d888289016143cd565b945050604061449e88828901613c79565b935050606086015167ffffffffffffffff8111156144bf576144be612933565b5b6144cb88828901614164565b925050608086015167ffffffffffffffff8111156144ec576144eb612933565b5b6144f888828901614424565b9150509295509295909350565b600060c08201905061451a6000830189613a69565b6145276020830188612f8e565b6145346040830187612f8e565b6145416060830186612d74565b8181036080830152614553818561397a565b905081810360a083015261456781846139cf565b9050979650505050505050565b61457d816129bd565b82525050565b6040820160008201516145996000850182613afd565b5060208201516145ac6020850182614574565b50505050565b60006040820190506145c76000830184614583565b92915050565b7f4e487b7100000000000000000000000000000000000000000000000000000000600052601260045260246000fd5b600061460782612d6a565b91507fffffffffffffffffffffffffffffffffffffffffffffffffffffffffffffffff820361463957614638613d69565b5b600182019050919050565b600061ffff82169050919050565b61465b81614644565b82525050565b61466a81612c67565b82525050565b600060a0820190506146856000830188613a69565b818103602083015261469781876139cf565b90506146a66040830186614652565b6146b36060830185614661565b6146c06080830184613dcc565b9695505050505050565b60006146d582612d6a565b91506146e083612d6a565b92508282026146ee81612d6a565b9150828204841483151761470557614704613d69565b5b5092915050565b600061471782612d6a565b915061472283612d6a565b925082820190508082111561473a57614739613d69565b5b92915050565b600061474b82612d6a565b91506000820361475e5761475d613d69565b5b600182039050919050565b7f537472696e67733a20686578206c656e67746820696e73756666696369656e74600082015250565b600061479f602083613558565b91506147aa82614769565b602082019050919050565b600060208201905081810360008301526147ce81614792565b9050919050565b60006147e082612d6a565b91506147eb83612d6a565b9250826147fb576147fa6145cd565b5b828206905092915050565b60008160011c9050919050565b6000808291508390505b600185111561485d5780860481111561483957614838613d69565b5b60018516156148485780820291505b808102905061485685614806565b945061481d565b94509492505050565b6000826148765760019050614932565b816148845760009050614932565b816001811461489a57600281146148a4576148d3565b6001915050614932565b60ff8411156148b6576148b5613d69565b5b8360020a9150848211156148cd576148cc613d69565b5b50614932565b5060208310610133831016604e8410600b84101617156149085782820a90508381111561490357614902613d69565b5b614932565b6149158484846001614813565b9250905081840481111561492c5761492b613d69565b5b81810290505b9392505050565b600061494482612d6a565b915061494f83612d6a565b925061497c7fffffffffffffffffffffffffffffffffffffffffffffffffffffffffffffffff8484614866565b90509291505056fea264697066735822122093eeafd20cccdedb55f09be7f8df7fe9fc6f0c5ba81b684cf2a1fe0d6eb7507664736f6c63430008130033",
  "immutableReferences": {
    "14": [
      {
        "length": 32,
        "start": 1532
      },
      {
        "length": 32,
        "start": 2103
      }
    ],
    "5186": [
      {
        "length": 32,
        "start": 1204
      },
      {
        "length": 32,
        "start": 7606
      }
    ]
  },
  "source": "// SPDX-License-Identifier: MIT\r\npragma solidity ^0.8.19;\r\n\r\nimport {Assets} from \"./libraries/Assets.sol\";\r\nimport {Params} from \"./libraries/Params.sol\";\r\nimport {IKanvasInterop} from \"./interfaces/IKanvasInterop.sol\";\r\nimport {IKanvasInteropGame} from \"./interfaces/IKanvasInteropGame.sol\";\r\nimport {StringJoiner} from \"./libraries/StringJoiner.sol\";\r\n\r\nimport {Strings} from \"@openzeppelin/contracts/utils/Strings.sol\";\r\nimport {Ownable} from \"@openzeppelin/contracts/access/Ownable.sol\";\r\nimport {Context} from \"@openzeppelin/contracts/utils/Context.sol\";\r\n\r\nimport {FunctionsClient} from \"./FunctionsClient.sol\";\r\nimport {FunctionsRequest} from \"@chainlink/contracts/src/v0.8/functions/dev/v1_0_0/libraries/FunctionsRequest.sol\";\r\n\r\nimport {Client} from \"@chainlink/contracts-ccip/src/v0.8/ccip/libraries/Client.sol\";\r\nimport {CCIPReceiver} from \"@chainlink/contracts-ccip/src/v0.8/ccip/applications/CCIPReceiver.sol\";\r\nimport {IRouterClient} from \"@chainlink/contracts-ccip/src/v0.8/ccip/interfaces/IRouterClient.sol\";\r\n\r\n// For Polygon Mumbai - Alone\r\n// @dev Hardcoded vaolues for Mumbai\r\n\r\ncontract KanvasInterop is\r\n    IKanvasInterop,\r\n    Context,\r\n    CCIPReceiver,\r\n    FunctionsClient,\r\n    Ownable\r\n{\r\n    using FunctionsRequest for FunctionsRequest.Request;\r\n    uint64 private constant AVAX_SELECTOR = 14767482510784806043;\r\n\r\n    uint256 public constant MAX_PROPERTIES_LEN = 20;\r\n    uint256 public constant MAX_TEMPLATES_LEN = 5;\r\n\r\n    string private _sourceCode;\r\n    uint64 private _subscriptionId = 1066;\r\n    uint32 private _gasLimit = 300_000;\r\n    bytes32 private _donId =\r\n        0x66756e2d706f6c79676f6e2d6d756d6261692d31000000000000000000000000;\r\n\r\n    mapping(address => mapping(uint64 => address)) private _games;\r\n\r\n    mapping(bytes32 => Assets.Request) private _requests;\r\n\r\n    mapping(uint64 => address) private _interops;\r\n\r\n    IRouterClient private _router;\r\n\r\n    constructor(\r\n        address ccipReceiver,\r\n        address functionOracle\r\n    ) CCIPReceiver(ccipReceiver) Ownable() FunctionsClient(functionOracle) {\r\n        _router = IRouterClient(getRouter());\r\n    }\r\n\r\n    function updateDonId(bytes32 newDonId) external onlyOwner {\r\n        _donId = newDonId;\r\n    }\r\n\r\n    function updateSourceCode(string memory newSourceCode) external onlyOwner {\r\n        _sourceCode = newSourceCode;\r\n    }\r\n\r\n    function updateGasLimit(uint32 newLimit) external onlyOwner {\r\n        _gasLimit = newLimit;\r\n    }\r\n\r\n    function updateSubscriptionId(uint64 newSubscriptionId) external onlyOwner {\r\n        _subscriptionId = newSubscriptionId;\r\n    }\r\n\r\n    function _createGame(Params.InteropGame memory params) external override {\r\n        _games[params.sourceGameId][AVAX_SELECTOR] = _msgSender();\r\n    }\r\n\r\n    function _generateUri(\r\n        address playerId,\r\n        string[] memory props,\r\n        string memory fields,\r\n        uint8 templateId\r\n    ) external override {\r\n        require(props.length <= MAX_PROPERTIES_LEN, \"Too many attributes\");\r\n\r\n        address gameId = _games[_msgSender()][AVAX_SELECTOR];\r\n        require(gameId != address(0), \"Game Not Found\");\r\n\r\n        string[] memory args = new string[](5);\r\n        args[0] = StringJoiner.joinStrings(props, \",\");\r\n        args[1] = fields;\r\n        args[2] = Strings.toHexString(gameId);\r\n        args[3] = Strings.toHexString(playerId);\r\n        args[4] = Strings.toString(templateId);\r\n\r\n        // Initialize the request\r\n        FunctionsRequest.Request memory req;\r\n\r\n        // Soucre code\r\n        req.initializeRequestForInlineJavaScript(_sourceCode);\r\n\r\n        // Add arguments\r\n        req.setArgs(args);\r\n\r\n        bytes32 requestId = _sendRequest(\r\n            req.encodeCBOR(),\r\n            _subscriptionId,\r\n            _gasLimit,\r\n            _donId\r\n        );\r\n\r\n        _requests[requestId] = Assets.Request({\r\n            gameId: gameId,\r\n            playerId: playerId,\r\n            fulfilled: false\r\n        });\r\n\r\n        emit GameEvent(\r\n            requestId,\r\n            gameId,\r\n            playerId,\r\n            Assets.EventType.GENERATE_URI,\r\n            bytes(fields)\r\n        );\r\n    }\r\n\r\n    function updateInterop(\r\n        uint64 chainSelector,\r\n        address kanvasRouter\r\n    ) external onlyOwner {\r\n        _interops[chainSelector] = kanvasRouter;\r\n    }\r\n\r\n    /** Receive the response in the form of string  */\r\n    function fulfillRequest(\r\n        bytes32 requestId,\r\n        bytes memory response,\r\n        bytes memory err\r\n    ) internal override {\r\n        Assets.Request storage request = _requests[requestId];\r\n        require(!request.fulfilled, \"Already fulfilled\");\r\n\r\n        if (err.length > 0) {\r\n            emit GameEvent(\r\n                requestId,\r\n                request.gameId,\r\n                request.playerId,\r\n                Assets.EventType.RECEIVE_URI,\r\n                err\r\n            );\r\n            return;\r\n        }\r\n\r\n        request.fulfilled = true;\r\n\r\n        IKanvasInteropGame game = IKanvasInteropGame(request.gameId);\r\n        game._receiveUri(request.playerId, string(response));\r\n\r\n        emit GameEvent(\r\n            requestId,\r\n            request.gameId,\r\n            request.playerId,\r\n            Assets.EventType.RECEIVE_URI,\r\n            response\r\n        );\r\n    }\r\n\r\n    function _transferTo(\r\n        uint64 /* chainSelector */,\r\n        address /* gameId */,\r\n        address /* playerId */,\r\n        uint256 /* tokenId */,\r\n        string memory /* uri*/,\r\n        bytes memory /* data*/\r\n    ) external payable {\r\n        revert(\"Method not available, use _withdrawTo\");\r\n    }\r\n\r\n    function _withdrawTo(\r\n        address gameId,\r\n        address playerId,\r\n        uint256 tokenId,\r\n        string memory uri,\r\n        bytes memory data\r\n    ) external payable {\r\n        require(_interops[AVAX_SELECTOR] != address(0), \"Chain not supported\");\r\n\r\n        // Create an EVM2AnyMessage struct in memory with necessary information for sending a cross-chain message\r\n        Client.EVM2AnyMessage memory message = Client.EVM2AnyMessage({\r\n            // ABI-encoded receiver address\r\n            receiver: abi.encode(_interops[AVAX_SELECTOR]),\r\n            // ABI-encoded string message\r\n            data: abi.encode(gameId, playerId, tokenId, uri, data),\r\n            // Empty array indicating no tokens are being sent\r\n            tokenAmounts: new Client.EVMTokenAmount[](0),\r\n            // Additional arguments, setting gas limit and non-strict sequency mode\r\n            extraArgs: Client._argsToBytes(\r\n                Client.EVMExtraArgsV1({gasLimit: 2_000_000, strict: false})\r\n            ),\r\n            // Setting feeToken to zero address, indicating native asset will be used for fees\r\n            feeToken: address(0)\r\n        });\r\n\r\n        // Get the fee required to send the message\r\n        uint256 fees = _router.getFee(AVAX_SELECTOR, message);\r\n\r\n        require(msg.value >= fees, \"Insufficient fee\");\r\n\r\n        // Send the message through the router and store the returned message ID\r\n        bytes32 messageId = _router.ccipSend{value: fees}(\r\n            AVAX_SELECTOR,\r\n            message\r\n        );\r\n\r\n        uint256 overspent = msg.value - fees;\r\n\r\n        if (overspent > 0) {\r\n            address payable receiver = payable(gameId);\r\n            receiver.transfer(overspent);\r\n        }\r\n\r\n        emit GameEvent(\r\n            messageId,\r\n            gameId,\r\n            playerId,\r\n            Assets.EventType.TRANSFER_TO,\r\n            message.data\r\n        );\r\n    }\r\n\r\n    // handle a received message\r\n    function _ccipReceive(\r\n        Client.Any2EVMMessage memory message\r\n    ) internal override {\r\n        (\r\n            address gameId,\r\n            address playerId,\r\n            uint256 tokenId,\r\n            string memory uri,\r\n            bytes memory data\r\n        ) = abi.decode(\r\n                message.data,\r\n                (address, address, uint256, string, bytes)\r\n            );\r\n\r\n        address interopGameId = _games[gameId][AVAX_SELECTOR];\r\n\r\n        IKanvasInteropGame game = IKanvasInteropGame(interopGameId);\r\n        game._receiveFrom(AVAX_SELECTOR, gameId, playerId, tokenId, uri, data);\r\n\r\n        emit GameEvent(\r\n            message.messageId,\r\n            gameId,\r\n            playerId,\r\n            Assets.EventType.RECEIVE_FROM,\r\n            message.data\r\n        );\r\n    }\r\n}\r\n",
  "sourcePath": "C:\\Users\\DELL\\Documents\\kanvas\\blockchain\\contracts\\KanvasInterop.sol",
  "compiler": {
    "name": "solc",
    "version": "0.8.19+commit.7dd6d404.Emscripten.clang"
  },
  "schemaVersion": "3.4.11",
  "updatedAt": "2023-12-06T17:21:13.581Z",
  "devdoc": {
    "kind": "dev",
    "methods": {
      "ccipReceive((bytes32,uint64,bytes,bytes,(address,uint256)[]))": {
        "details": "Note ensure you check the msg.sender is the OffRampRouter",
        "params": {
          "message": "CCIP Message"
        }
      },
      "getRouter()": {
        "returns": {
          "_0": "i_router address"
        }
      },
      "handleOracleFulfillment(bytes32,bytes,bytes)": {
        "details": "Either response or error parameter will be set, but never both.",
        "params": {
          "err": "Aggregated error either from the request's source code or from the execution pipeline.",
          "requestId": "The requestId returned by FunctionsClient.sendRequest().",
          "response": "Aggregated response from the request's source code."
        }
      },
      "owner()": {
        "details": "Returns the address of the current owner."
      },
      "renounceOwnership()": {
        "details": "Leaves the contract without owner. It will not be possible to call `onlyOwner` functions. Can only be called by the current owner. NOTE: Renouncing ownership will leave the contract without an owner, thereby disabling any functionality that is only available to the owner."
      },
      "supportsInterface(bytes4)": {
        "params": {
          "interfaceId": "The interfaceId to check"
        },
        "returns": {
          "_0": "true if the interfaceId is supported"
        }
      },
      "transferOwnership(address)": {
        "details": "Transfers ownership of the contract to a new account (`newOwner`). Can only be called by the current owner."
      }
    },
    "version": 1
  },
  "userdoc": {
    "kind": "user",
    "methods": {
      "ccipReceive((bytes32,uint64,bytes,bytes,(address,uint256)[]))": {
        "notice": "Called by the Router to deliver a message. If this reverts, any token transfers also revert. The message will move to a FAILED state and become available for manual execution."
      },
      "getRouter()": {
        "notice": "Return the current router"
      },
      "handleOracleFulfillment(bytes32,bytes,bytes)": {
        "notice": "Chainlink Functions response handler called by the Functions Router during fullilment from the designated transmitter node in an OCR round."
      },
      "supportsInterface(bytes4)": {
        "notice": "IERC165 supports an interfaceId"
      }
    },
    "version": 1
  }
}