{
  "contractName": "KanvasAvax",
  "abi": [
    {
      "inputs": [
        {
          "internalType": "address",
          "name": "ccipReceiver",
          "type": "address"
        },
        {
          "internalType": "address",
          "name": "functionOracle",
          "type": "address"
        }
      ],
      "stateMutability": "nonpayable",
      "type": "constructor"
    },
    {
      "inputs": [],
      "name": "EmptyArgs",
      "type": "error"
    },
    {
      "inputs": [],
      "name": "EmptySource",
      "type": "error"
    },
    {
      "inputs": [
        {
          "internalType": "address",
          "name": "router",
          "type": "address"
        }
      ],
      "name": "InvalidRouter",
      "type": "error"
    },
    {
      "inputs": [],
      "name": "NoInlineSecrets",
      "type": "error"
    },
    {
      "inputs": [],
      "name": "OnlyRouterCanFulfill",
      "type": "error"
    },
    {
      "anonymous": false,
      "inputs": [
        {
          "indexed": false,
          "internalType": "address",
          "name": "gameId",
          "type": "address"
        },
        {
          "indexed": false,
          "internalType": "string",
          "name": "name",
          "type": "string"
        },
        {
          "indexed": false,
          "internalType": "string",
          "name": "description",
          "type": "string"
        },
        {
          "indexed": false,
          "internalType": "string",
          "name": "avatar",
          "type": "string"
        },
        {
          "indexed": false,
          "internalType": "uint256",
          "name": "plan",
          "type": "uint256"
        },
        {
          "indexed": false,
          "internalType": "address",
          "name": "creator",
          "type": "address"
        },
        {
          "indexed": false,
          "internalType": "string",
          "name": "email",
          "type": "string"
        },
        {
          "indexed": false,
          "internalType": "string",
          "name": "website",
          "type": "string"
        }
      ],
      "name": "GameCreated",
      "type": "event"
    },
    {
      "anonymous": false,
      "inputs": [
        {
          "indexed": false,
          "internalType": "bytes32",
          "name": "requestId",
          "type": "bytes32"
        },
        {
          "indexed": false,
          "internalType": "address",
          "name": "gameId",
          "type": "address"
        },
        {
          "indexed": false,
          "internalType": "address",
          "name": "playerId",
          "type": "address"
        },
        {
          "indexed": false,
          "internalType": "enum Assets.EventType",
          "name": "eventType",
          "type": "uint8"
        },
        {
          "indexed": false,
          "internalType": "bytes",
          "name": "data",
          "type": "bytes"
        }
      ],
      "name": "GameEvent",
      "type": "event"
    },
    {
      "anonymous": false,
      "inputs": [
        {
          "indexed": true,
          "internalType": "address",
          "name": "previousOwner",
          "type": "address"
        },
        {
          "indexed": true,
          "internalType": "address",
          "name": "newOwner",
          "type": "address"
        }
      ],
      "name": "OwnershipTransferred",
      "type": "event"
    },
    {
      "anonymous": false,
      "inputs": [
        {
          "indexed": false,
          "internalType": "uint256",
          "name": "planId",
          "type": "uint256"
        },
        {
          "indexed": false,
          "internalType": "string",
          "name": "name",
          "type": "string"
        },
        {
          "indexed": false,
          "internalType": "uint256",
          "name": "cost",
          "type": "uint256"
        },
        {
          "indexed": false,
          "internalType": "string",
          "name": "color",
          "type": "string"
        },
        {
          "indexed": false,
          "internalType": "uint256",
          "name": "limit",
          "type": "uint256"
        }
      ],
      "name": "PlanCreated",
      "type": "event"
    },
    {
      "anonymous": false,
      "inputs": [
        {
          "indexed": true,
          "internalType": "bytes32",
          "name": "id",
          "type": "bytes32"
        }
      ],
      "name": "RequestFulfilled",
      "type": "event"
    },
    {
      "anonymous": false,
      "inputs": [
        {
          "indexed": true,
          "internalType": "bytes32",
          "name": "id",
          "type": "bytes32"
        }
      ],
      "name": "RequestSent",
      "type": "event"
    },
    {
      "anonymous": false,
      "inputs": [
        {
          "indexed": false,
          "internalType": "address",
          "name": "gameId",
          "type": "address"
        },
        {
          "indexed": false,
          "internalType": "string",
          "name": "templateUri",
          "type": "string"
        }
      ],
      "name": "TemplateAdded",
      "type": "event"
    },
    {
      "inputs": [],
      "name": "MAX_PROPERTIES_LEN",
      "outputs": [
        {
          "internalType": "uint256",
          "name": "",
          "type": "uint256"
        }
      ],
      "stateMutability": "view",
      "type": "function"
    },
    {
      "inputs": [],
      "name": "MAX_TEMPLATES_LEN",
      "outputs": [
        {
          "internalType": "uint256",
          "name": "",
          "type": "uint256"
        }
      ],
      "stateMutability": "view",
      "type": "function"
    },
    {
      "inputs": [
        {
          "components": [
            {
              "internalType": "bytes32",
              "name": "messageId",
              "type": "bytes32"
            },
            {
              "internalType": "uint64",
              "name": "sourceChainSelector",
              "type": "uint64"
            },
            {
              "internalType": "bytes",
              "name": "sender",
              "type": "bytes"
            },
            {
              "internalType": "bytes",
              "name": "data",
              "type": "bytes"
            },
            {
              "components": [
                {
                  "internalType": "address",
                  "name": "token",
                  "type": "address"
                },
                {
                  "internalType": "uint256",
                  "name": "amount",
                  "type": "uint256"
                }
              ],
              "internalType": "struct Client.EVMTokenAmount[]",
              "name": "destTokenAmounts",
              "type": "tuple[]"
            }
          ],
          "internalType": "struct Client.Any2EVMMessage",
          "name": "message",
          "type": "tuple"
        }
      ],
      "name": "ccipReceive",
      "outputs": [],
      "stateMutability": "nonpayable",
      "type": "function"
    },
    {
      "inputs": [],
      "name": "getRouter",
      "outputs": [
        {
          "internalType": "address",
          "name": "",
          "type": "address"
        }
      ],
      "stateMutability": "view",
      "type": "function"
    },
    {
      "inputs": [
        {
          "internalType": "bytes32",
          "name": "requestId",
          "type": "bytes32"
        },
        {
          "internalType": "bytes",
          "name": "response",
          "type": "bytes"
        },
        {
          "internalType": "bytes",
          "name": "err",
          "type": "bytes"
        }
      ],
      "name": "handleOracleFulfillment",
      "outputs": [],
      "stateMutability": "nonpayable",
      "type": "function"
    },
    {
      "inputs": [],
      "name": "owner",
      "outputs": [
        {
          "internalType": "address",
          "name": "",
          "type": "address"
        }
      ],
      "stateMutability": "view",
      "type": "function"
    },
    {
      "inputs": [],
      "name": "renounceOwnership",
      "outputs": [],
      "stateMutability": "nonpayable",
      "type": "function"
    },
    {
      "inputs": [
        {
          "internalType": "bytes4",
          "name": "interfaceId",
          "type": "bytes4"
        }
      ],
      "name": "supportsInterface",
      "outputs": [
        {
          "internalType": "bool",
          "name": "",
          "type": "bool"
        }
      ],
      "stateMutability": "pure",
      "type": "function"
    },
    {
      "inputs": [
        {
          "internalType": "address",
          "name": "newOwner",
          "type": "address"
        }
      ],
      "name": "transferOwnership",
      "outputs": [],
      "stateMutability": "nonpayable",
      "type": "function"
    },
    {
      "inputs": [
        {
          "internalType": "bytes32",
          "name": "newDonId",
          "type": "bytes32"
        }
      ],
      "name": "updateDonId",
      "outputs": [],
      "stateMutability": "nonpayable",
      "type": "function"
    },
    {
      "inputs": [
        {
          "internalType": "string",
          "name": "newSourceCode",
          "type": "string"
        }
      ],
      "name": "updateSourceCode",
      "outputs": [],
      "stateMutability": "nonpayable",
      "type": "function"
    },
    {
      "inputs": [
        {
          "internalType": "uint32",
          "name": "newLimit",
          "type": "uint32"
        }
      ],
      "name": "updateGasLimit",
      "outputs": [],
      "stateMutability": "nonpayable",
      "type": "function"
    },
    {
      "inputs": [
        {
          "internalType": "uint64",
          "name": "newSubscriptionId",
          "type": "uint64"
        }
      ],
      "name": "updateSubscriptionId",
      "outputs": [],
      "stateMutability": "nonpayable",
      "type": "function"
    },
    {
      "inputs": [
        {
          "components": [
            {
              "internalType": "string",
              "name": "name",
              "type": "string"
            },
            {
              "internalType": "string",
              "name": "description",
              "type": "string"
            },
            {
              "internalType": "address",
              "name": "gameId",
              "type": "address"
            },
            {
              "internalType": "string",
              "name": "avatar",
              "type": "string"
            },
            {
              "internalType": "uint256",
              "name": "plan",
              "type": "uint256"
            },
            {
              "internalType": "string",
              "name": "email",
              "type": "string"
            },
            {
              "internalType": "string",
              "name": "website",
              "type": "string"
            }
          ],
          "internalType": "struct Params.Game",
          "name": "params",
          "type": "tuple"
        }
      ],
      "name": "createGame",
      "outputs": [],
      "stateMutability": "payable",
      "type": "function"
    },
    {
      "inputs": [
        {
          "internalType": "string",
          "name": "templateUri",
          "type": "string"
        },
        {
          "internalType": "address",
          "name": "gameId",
          "type": "address"
        }
      ],
      "name": "addTemplate",
      "outputs": [],
      "stateMutability": "nonpayable",
      "type": "function"
    },
    {
      "inputs": [
        {
          "internalType": "address",
          "name": "playerId",
          "type": "address"
        },
        {
          "internalType": "string[]",
          "name": "props",
          "type": "string[]"
        },
        {
          "internalType": "string",
          "name": "fields",
          "type": "string"
        },
        {
          "internalType": "uint8",
          "name": "templateId",
          "type": "uint8"
        }
      ],
      "name": "_generateUri",
      "outputs": [],
      "stateMutability": "nonpayable",
      "type": "function"
    },
    {
      "inputs": [
        {
          "internalType": "uint64",
          "name": "chainSelector",
          "type": "uint64"
        },
        {
          "internalType": "address",
          "name": "kanvasRouter",
          "type": "address"
        }
      ],
      "name": "updateInterop",
      "outputs": [],
      "stateMutability": "nonpayable",
      "type": "function"
    },
    {
      "inputs": [
        {
          "internalType": "uint64",
          "name": "chainSelector",
          "type": "uint64"
        },
        {
          "internalType": "address",
          "name": "gameId",
          "type": "address"
        },
        {
          "internalType": "address",
          "name": "playerId",
          "type": "address"
        },
        {
          "internalType": "uint256",
          "name": "tokenId",
          "type": "uint256"
        },
        {
          "internalType": "string",
          "name": "uri",
          "type": "string"
        },
        {
          "internalType": "bytes",
          "name": "data",
          "type": "bytes"
        }
      ],
      "name": "_transferTo",
      "outputs": [],
      "stateMutability": "payable",
      "type": "function"
    },
    {
      "inputs": [
        {
          "components": [
            {
              "internalType": "string",
              "name": "name",
              "type": "string"
            },
            {
              "internalType": "uint256",
              "name": "cost",
              "type": "uint256"
            },
            {
              "internalType": "string",
              "name": "color",
              "type": "string"
            },
            {
              "internalType": "uint256",
              "name": "limit",
              "type": "uint256"
            }
          ],
          "internalType": "struct Params.Plan",
          "name": "params",
          "type": "tuple"
        }
      ],
      "name": "createPlan",
      "outputs": [],
      "stateMutability": "nonpayable",
      "type": "function"
    }
  ],
  "bytecode": "0x60c0604052620493e0600260006101000a81548163ffffffff021916908363ffffffff16021790555061062c600260046101000a81548167ffffffffffffffff021916908367ffffffffffffffff1602179055507f66756e2d6176616c616e6368652d66756a692d3100000000000000000000000060001b6003553480156200008757600080fd5b50604051620054e3380380620054e38339818101604052810190620000ad919062000346565b8082600073ffffffffffffffffffffffffffffffffffffffff168173ffffffffffffffffffffffffffffffffffffffff1603620001245760006040517fd7f733340000000000000000000000000000000000000000000000000000000081526004016200011b91906200039e565b60405180910390fd5b8073ffffffffffffffffffffffffffffffffffffffff1660808173ffffffffffffffffffffffffffffffffffffffff1681525050508073ffffffffffffffffffffffffffffffffffffffff1660a08173ffffffffffffffffffffffffffffffffffffffff168152505050620001ae620001a26200020660201b60201c565b6200020e60201b60201c565b620001be620002d260201b60201c565b600960006101000a81548173ffffffffffffffffffffffffffffffffffffffff021916908373ffffffffffffffffffffffffffffffffffffffff1602179055505050620003bb565b600033905090565b60008060009054906101000a900473ffffffffffffffffffffffffffffffffffffffff169050816000806101000a81548173ffffffffffffffffffffffffffffffffffffffff021916908373ffffffffffffffffffffffffffffffffffffffff1602179055508173ffffffffffffffffffffffffffffffffffffffff168173ffffffffffffffffffffffffffffffffffffffff167f8be0079c531659141344cd1fd0a4f28419497f9722a3daafe3b4186f6b6457e060405160405180910390a35050565b6000608051905090565b600080fd5b600073ffffffffffffffffffffffffffffffffffffffff82169050919050565b60006200030e82620002e1565b9050919050565b620003208162000301565b81146200032c57600080fd5b50565b600081519050620003408162000315565b92915050565b6000806040838503121562000360576200035f620002dc565b5b600062000370858286016200032f565b925050602062000383858286016200032f565b9150509250929050565b620003988162000301565b82525050565b6000602082019050620003b560008301846200038d565b92915050565b60805160a0516150f4620003ef600039600081816104e8015261217a0152600081816108810152610f0101526150f46000f3fe6080604052600436106101145760003560e01c80638cd176d5116100a0578063b3285e3211610064578063b3285e3214610345578063dd3fac7c1461036e578063dff0ee4114610397578063eee6e573146103c2578063f2fde38b146103eb57610114565b80638cd176d5146102815780638d6dc0eb146102aa5780638da5cb5b146102c657806392154a3d146102f1578063b0f479a11461031a57610114565b80635821feae116100e75780635821feae146101d15780636df0c747146101ed578063715018a61461021657806385572ffb1461022d5780638b8ff3581461025657610114565b806301ffc9a7146101195780630ca761751461015657806314b1dd1b1461017f57806334303bcd146101a8575b600080fd5b34801561012557600080fd5b50610140600480360381019061013b9190612d54565b610414565b60405161014d9190612d9c565b60405180910390f35b34801561016257600080fd5b5061017d60048036038101906101789190612f33565b6104e6565b005b34801561018b57600080fd5b506101a660048036038101906101a19190612ffe565b6105a8565b005b3480156101b457600080fd5b506101cf60048036038101906101ca9190613067565b6105dc565b005b6101eb60048036038101906101e69190613313565b610608565b005b3480156101f957600080fd5b50610214600480360381019061020f919061335c565b610859565b005b34801561022257600080fd5b5061022b61086b565b005b34801561023957600080fd5b50610254600480360381019061024f91906133ad565b61087f565b005b34801561026257600080fd5b5061026b610924565b6040516102789190613405565b60405180910390f35b34801561028d57600080fd5b506102a860048036038101906102a391906134d0565b610929565b005b6102c460048036038101906102bf9190613519565b610a26565b005b3480156102d257600080fd5b506102db610e62565b6040516102e891906135ed565b60405180910390f35b3480156102fd57600080fd5b5061031860048036038101906103139190613608565b610e8b565b005b34801561032657600080fd5b5061032f610efd565b60405161033c91906135ed565b60405180910390f35b34801561035157600080fd5b5061036c60048036038101906103679190613648565b610f25565b005b34801561037a57600080fd5b5061039560048036038101906103909190613691565b610f40565b005b3480156103a357600080fd5b506103ac611060565b6040516103b99190613405565b60405180910390f35b3480156103ce57600080fd5b506103e960048036038101906103e4919061380c565b611065565b005b3480156103f757600080fd5b50610412600480360381019061040d91906138ab565b611563565b005b60007f85572ffb000000000000000000000000000000000000000000000000000000007bffffffffffffffffffffffffffffffffffffffffffffffffffffffff1916827bffffffffffffffffffffffffffffffffffffffffffffffffffffffff191614806104df57507f01ffc9a7000000000000000000000000000000000000000000000000000000007bffffffffffffffffffffffffffffffffffffffffffffffffffffffff1916827bffffffffffffffffffffffffffffffffffffffffffffffffffffffff1916145b9050919050565b7f000000000000000000000000000000000000000000000000000000000000000073ffffffffffffffffffffffffffffffffffffffff163373ffffffffffffffffffffffffffffffffffffffff161461056b576040517fc6829f8300000000000000000000000000000000000000000000000000000000815260040160405180910390fd5b6105768383836115e6565b827f85e1543bf2f84fe80c6badbce3648c8539ad1df4d2b3d822938ca0538be727e660405160405180910390a2505050565b6105b0611943565b80600260046101000a81548167ffffffffffffffff021916908367ffffffffffffffff16021790555050565b6105e4611943565b80600260006101000a81548163ffffffff021916908363ffffffff16021790555050565b600060056000836080015181526020019081526020016000206003015403610665576040517f08c379a000000000000000000000000000000000000000000000000000000000815260040161065c90613935565b60405180910390fd5b60056000826080015181526020019081526020016000206001015434146106c1576040517f08c379a00000000000000000000000000000000000000000000000000000000081526004016106b8906139a1565b60405180910390fd5b6040518060a00160405280826000015181526020018260600151815260200182602001518152602001826080015181526020016106fc6119c1565b73ffffffffffffffffffffffffffffffffffffffff1681525060066000836040015173ffffffffffffffffffffffffffffffffffffffff1673ffffffffffffffffffffffffffffffffffffffff168152602001908152602001600020600082015181600001908161076d9190613bd8565b5060208201518160010190816107839190613bd8565b5060408201518160020190816107999190613bd8565b506060820151816003015560808201518160040160006101000a81548173ffffffffffffffffffffffffffffffffffffffff021916908373ffffffffffffffffffffffffffffffffffffffff1602179055509050507fea35bbd4aeddb611341e5394e07bd5ac7513bd56730a40e7e3e3eb761e155c05816040015182600001518360200151846060015185608001516108306119c1565b8760a001518860c0015160405161084e989796959493929190613d0d565b60405180910390a150565b610861611943565b8060038190555050565b610873611943565b61087d60006119c9565b565b7f000000000000000000000000000000000000000000000000000000000000000073ffffffffffffffffffffffffffffffffffffffff163373ffffffffffffffffffffffffffffffffffffffff161461090f57336040517fd7f7333400000000000000000000000000000000000000000000000000000000815260040161090691906135ed565b60405180910390fd5b6109218161091c90613fa1565b611a8d565b50565b601481565b610931611943565b6004600081548092919061094490613fe3565b91905055506040518060800160405280826000015181526020018260200151815260200182604001518152602001826060015181525060056000600454815260200190815260200160002060008201518160000190816109a49190613bd8565b506020820151816001015560408201518160020190816109c49190613bd8565b50606082015181600301559050507f33c5bd102a4d38690a8d7d236985d20c88e66b73bca9de5ae6cc29376d2206fd6004548260000151836020015184604001518560600151604051610a1b95949392919061402b565b60405180910390a150565b600073ffffffffffffffffffffffffffffffffffffffff16600860008867ffffffffffffffff1667ffffffffffffffff16815260200190815260200160002060009054906101000a900473ffffffffffffffffffffffffffffffffffffffff1673ffffffffffffffffffffffffffffffffffffffff1603610adc576040517f08c379a0000000000000000000000000000000000000000000000000000000008152600401610ad3906140d8565b60405180910390fd5b60006040518060a00160405280600860008a67ffffffffffffffff1667ffffffffffffffff16815260200190815260200160002060009054906101000a900473ffffffffffffffffffffffffffffffffffffffff16604051602001610b4191906135ed565b60405160208183030381529060405281526020018787878787604051602001610b6e95949392919061414d565b6040516020818303038152906040528152602001600067ffffffffffffffff811115610b9d57610b9c612e08565b5b604051908082528060200260200182016040528015610bd657816020015b610bc3612c0c565b815260200190600190039081610bbb5790505b508152602001600073ffffffffffffffffffffffffffffffffffffffff168152602001610c1c6040518060400160405280621e8480815260200160001515815250611b86565b81525090506000600960009054906101000a900473ffffffffffffffffffffffffffffffffffffffff1673ffffffffffffffffffffffffffffffffffffffff166320487ded89846040518363ffffffff1660e01b8152600401610c8092919061438e565b602060405180830381865afa158015610c9d573d6000803e3d6000fd5b505050506040513d601f19601f82011682018060405250810190610cc191906143d3565b905080341015610d06576040517f08c379a0000000000000000000000000000000000000000000000000000000008152600401610cfd9061444c565b60405180910390fd5b6000600960009054906101000a900473ffffffffffffffffffffffffffffffffffffffff1673ffffffffffffffffffffffffffffffffffffffff166396f4e9f9838b866040518463ffffffff1660e01b8152600401610d6692919061438e565b60206040518083038185885af1158015610d84573d6000803e3d6000fd5b50505050506040513d601f19601f82011682018060405250810190610da99190614481565b905060008234610db991906144ae565b90506000811115610e125760008990508073ffffffffffffffffffffffffffffffffffffffff166108fc839081150290604051600060405180830381858888f19350505050158015610e0f573d6000803e3d6000fd5b50505b7fe6dae862185d88c4597f4745a00933ea5be511621dcacc28511fa6029c050ccd828a8a60028860200151604051610e4e959493929190614568565b60405180910390a150505050505050505050565b60008060009054906101000a900473ffffffffffffffffffffffffffffffffffffffff16905090565b610e93611943565b80600860008467ffffffffffffffff1667ffffffffffffffff16815260200190815260200160002060006101000a81548173ffffffffffffffffffffffffffffffffffffffff021916908373ffffffffffffffffffffffffffffffffffffffff1602179055505050565b60007f0000000000000000000000000000000000000000000000000000000000000000905090565b610f2d611943565b8060019081610f3c9190613bd8565b5050565b6000610f4a6119c1565b90506000600660008473ffffffffffffffffffffffffffffffffffffffff1673ffffffffffffffffffffffffffffffffffffffff16815260200190815260200160002090508173ffffffffffffffffffffffffffffffffffffffff168160040160009054906101000a900473ffffffffffffffffffffffffffffffffffffffff1673ffffffffffffffffffffffffffffffffffffffff1614611021576040517f08c379a00000000000000000000000000000000000000000000000000000000081526004016110189061460e565b60405180910390fd5b7fd7219b2d0e6067644335c8f4f82ee77c59a90a22e2916f1dce8683af8e8b07fa838560405161105292919061462e565b60405180910390a150505050565b600581565b6014835111156110aa576040517f08c379a00000000000000000000000000000000000000000000000000000000081526004016110a1906146aa565b60405180910390fd5b60006110b46119c1565b9050600073ffffffffffffffffffffffffffffffffffffffff16600660008373ffffffffffffffffffffffffffffffffffffffff1673ffffffffffffffffffffffffffffffffffffffff16815260200190815260200160002060040160009054906101000a900473ffffffffffffffffffffffffffffffffffffffff1673ffffffffffffffffffffffffffffffffffffffff1603611187576040517f08c379a000000000000000000000000000000000000000000000000000000000815260040161117e90614716565b60405180910390fd5b6000600567ffffffffffffffff8111156111a4576111a3612e08565b5b6040519080825280602002602001820160405280156111d757816020015b60608152602001906001900390816111c25790505b50905073__StringJoiner__________________________635c8656e0866040518263ffffffff1660e01b8152600401611211919061489f565b600060405180830381865af415801561122e573d6000803e3d6000fd5b505050506040513d6000823e3d601f19601f820116820180604052508101906112579190614944565b8160008151811061126b5761126a61498d565b5b6020026020010181905250838160018151811061128b5761128a61498d565b5b602002602001018190525061129f82611c05565b816002815181106112b3576112b261498d565b5b60200260200101819052506112c786611c05565b816003815181106112db576112da61498d565b5b60200260200101819052506112f28360ff16611c32565b816004815181106113065761130561498d565b5b6020026020010181905250611319612c3c565b6113b660018054611329906139fb565b80601f0160208091040260200160405190810160405280929190818152602001828054611355906139fb565b80156113a25780601f10611377576101008083540402835291602001916113a2565b820191906000526020600020905b81548152906001019060200180831161138557829003601f168201915b505050505082611d0090919063ffffffff16565b6113c98282611d1190919063ffffffff16565b60006114096113d783611d59565b600260049054906101000a900467ffffffffffffffff16600260009054906101000a900463ffffffff16600354612175565b905060405180606001604052808573ffffffffffffffffffffffffffffffffffffffff1681526020018973ffffffffffffffffffffffffffffffffffffffff168152602001600015158152506007600083815260200190815260200160002060008201518160000160006101000a81548173ffffffffffffffffffffffffffffffffffffffff021916908373ffffffffffffffffffffffffffffffffffffffff16021790555060208201518160010160006101000a81548173ffffffffffffffffffffffffffffffffffffffff021916908373ffffffffffffffffffffffffffffffffffffffff16021790555060408201518160010160146101000a81548160ff0219169083151502179055509050507fe6dae862185d88c4597f4745a00933ea5be511621dcacc28511fa6029c050ccd81858a60008a604051611551959493929190614568565b60405180910390a15050505050505050565b61156b611943565b600073ffffffffffffffffffffffffffffffffffffffff168173ffffffffffffffffffffffffffffffffffffffff16036115da576040517f08c379a00000000000000000000000000000000000000000000000000000000081526004016115d190614a2e565b60405180910390fd5b6115e3816119c9565b50565b60006007600085815260200190815260200160002090508060010160149054906101000a900460ff161561164f576040517f08c379a000000000000000000000000000000000000000000000000000000000815260040161164690614a9a565b60405180910390fd5b6000825111156116e7577fe6dae862185d88c4597f4745a00933ea5be511621dcacc28511fa6029c050ccd848260000160009054906101000a900473ffffffffffffffffffffffffffffffffffffffff168360010160009054906101000a900473ffffffffffffffffffffffffffffffffffffffff166001866040516116d9959493929190614568565b60405180910390a15061193e565b60018160010160146101000a81548160ff021916908315150217905550600073ffffffffffffffffffffffffffffffffffffffff16600660008360000160009054906101000a900473ffffffffffffffffffffffffffffffffffffffff1673ffffffffffffffffffffffffffffffffffffffff1673ffffffffffffffffffffffffffffffffffffffff16815260200190815260200160002060040160009054906101000a900473ffffffffffffffffffffffffffffffffffffffff1673ffffffffffffffffffffffffffffffffffffffff16036117f9576040517f08c379a00000000000000000000000000000000000000000000000000000000081526004016117f090614716565b60405180910390fd5b60008160000160009054906101000a900473ffffffffffffffffffffffffffffffffffffffff1690508073ffffffffffffffffffffffffffffffffffffffff16638f9c39568360010160009054906101000a900473ffffffffffffffffffffffffffffffffffffffff16866040518363ffffffff1660e01b815260040161188192919061462e565b600060405180830381600087803b15801561189b57600080fd5b505af11580156118af573d6000803e3d6000fd5b505050507fe6dae862185d88c4597f4745a00933ea5be511621dcacc28511fa6029c050ccd858360000160009054906101000a900473ffffffffffffffffffffffffffffffffffffffff168460010160009054906101000a900473ffffffffffffffffffffffffffffffffffffffff16600188604051611933959493929190614568565b60405180910390a150505b505050565b61194b6119c1565b73ffffffffffffffffffffffffffffffffffffffff16611969610e62565b73ffffffffffffffffffffffffffffffffffffffff16146119bf576040517f08c379a00000000000000000000000000000000000000000000000000000000081526004016119b690614b06565b60405180910390fd5b565b600033905090565b60008060009054906101000a900473ffffffffffffffffffffffffffffffffffffffff169050816000806101000a81548173ffffffffffffffffffffffffffffffffffffffff021916908373ffffffffffffffffffffffffffffffffffffffff1602179055508173ffffffffffffffffffffffffffffffffffffffff168173ffffffffffffffffffffffffffffffffffffffff167f8be0079c531659141344cd1fd0a4f28419497f9722a3daafe3b4186f6b6457e060405160405180910390a35050565b60008060008060008560600151806020019051810190611aad9190614bd4565b9450945094509450945060008590508073ffffffffffffffffffffffffffffffffffffffff16636d4195fb886020015188888888886040518763ffffffff1660e01b8152600401611b0396959493929190614c87565b600060405180830381600087803b158015611b1d57600080fd5b505af1158015611b31573d6000803e3d6000fd5b505050507fe6dae862185d88c4597f4745a00933ea5be511621dcacc28511fa6029c050ccd8760000151878760038b60600151604051611b75959493929190614568565b60405180910390a150505050505050565b60606397a657c960e01b82604051602401611ba19190614d34565b604051602081830303815290604052907bffffffffffffffffffffffffffffffffffffffffffffffffffffffff19166020820180517bffffffffffffffffffffffffffffffffffffffffffffffffffffffff83818316178352505050509050919050565b6060611c2b8273ffffffffffffffffffffffffffffffffffffffff16601460ff16612258565b9050919050565b606060006001611c4184612494565b01905060008167ffffffffffffffff811115611c6057611c5f612e08565b5b6040519080825280601f01601f191660200182016040528015611c925781602001600182028036833780820191505090505b509050600082602001820190505b600115611cf5578080600190039150507f3031323334353637383961626364656600000000000000000000000000000000600a86061a8153600a8581611ce957611ce8614d4f565b5b04945060008503611ca0575b819350505050919050565b611d0d82600080846125e7565b5050565b6000815103611d4c576040517ffe936cb700000000000000000000000000000000000000000000000000000000815260040160405180910390fd5b808260a001819052505050565b60606000611d68610100612691565b9050611db26040518060400160405280600c81526020017f636f64654c6f636174696f6e0000000000000000000000000000000000000000815250826126b890919063ffffffff16565b611ddb83600001516002811115611dcc57611dcb6144f1565b5b826126e190919063ffffffff16565b611e236040518060400160405280600881526020017f6c616e6775616765000000000000000000000000000000000000000000000000815250826126b890919063ffffffff16565b611e4c83604001516000811115611e3d57611e3c6144f1565b5b826126e190919063ffffffff16565b611e946040518060400160405280600681526020017f736f757263650000000000000000000000000000000000000000000000000000815250826126b890919063ffffffff16565b611eab8360600151826126b890919063ffffffff16565b60008360a00151511115611f6757611f016040518060400160405280600481526020017f6172677300000000000000000000000000000000000000000000000000000000815250826126b890919063ffffffff16565b611f0a81612731565b60005b8360a0015151811015611f5c57611f4b8460a001518281518110611f3457611f3361498d565b5b6020026020010151836126b890919063ffffffff16565b80611f5590613fe3565b9050611f0d565b50611f6681612759565b5b600083608001515111156120a85760006002811115611f8957611f886144f1565b5b83602001516002811115611fa057611f9f6144f1565b5b03611fd7576040517fa80d31f700000000000000000000000000000000000000000000000000000000815260040160405180910390fd5b61201f6040518060400160405280600f81526020017f736563726574734c6f636174696f6e0000000000000000000000000000000000815250826126b890919063ffffffff16565b61204883602001516002811115612039576120386144f1565b5b826126e190919063ffffffff16565b6120906040518060400160405280600781526020017f7365637265747300000000000000000000000000000000000000000000000000815250826126b890919063ffffffff16565b6120a783608001518261278190919063ffffffff16565b5b60008360c00151511115612164576120fe6040518060400160405280600981526020017f6279746573417267730000000000000000000000000000000000000000000000815250826126b890919063ffffffff16565b61210781612731565b60005b8360c0015151811015612159576121488460c0015182815181106121315761213061498d565b5b60200260200101518361278190919063ffffffff16565b8061215290613fe3565b905061210a565b5061216381612759565b5b806000015160000151915050919050565b6000807f000000000000000000000000000000000000000000000000000000000000000073ffffffffffffffffffffffffffffffffffffffff1663461d27628688600188886040518663ffffffff1660e01b81526004016121da959493929190614daa565b6020604051808303816000875af11580156121f9573d6000803e3d6000fd5b505050506040513d601f19601f8201168201806040525081019061221d9190614481565b9050807f1131472297a800fee664d1d89cfa8f7676ff07189ecc53f80bbb5f4969099db860405160405180910390a280915050949350505050565b60606000600283600261226b9190614e04565b6122759190614e46565b67ffffffffffffffff81111561228e5761228d612e08565b5b6040519080825280601f01601f1916602001820160405280156122c05781602001600182028036833780820191505090505b5090507f3000000000000000000000000000000000000000000000000000000000000000816000815181106122f8576122f761498d565b5b60200101907effffffffffffffffffffffffffffffffffffffffffffffffffffffffffffff1916908160001a9053507f78000000000000000000000000000000000000000000000000000000000000008160018151811061235c5761235b61498d565b5b60200101907effffffffffffffffffffffffffffffffffffffffffffffffffffffffffffff1916908160001a9053506000600184600261239c9190614e04565b6123a69190614e46565b90505b6001811115612446577f3031323334353637383961626364656600000000000000000000000000000000600f8616601081106123e8576123e761498d565b5b1a60f81b8282815181106123ff576123fe61498d565b5b60200101907effffffffffffffffffffffffffffffffffffffffffffffffffffffffffffff1916908160001a905350600485901c94508061243f90614e7a565b90506123a9565b506000841461248a576040517f08c379a000000000000000000000000000000000000000000000000000000000815260040161248190614eef565b60405180910390fd5b8091505092915050565b600080600090507a184f03e93ff9f4daa797ed6e38ed64bf6a1f01000000000000000083106124f2577a184f03e93ff9f4daa797ed6e38ed64bf6a1f01000000000000000083816124e8576124e7614d4f565b5b0492506040810190505b6d04ee2d6d415b85acef8100000000831061252f576d04ee2d6d415b85acef8100000000838161252557612524614d4f565b5b0492506020810190505b662386f26fc10000831061255e57662386f26fc10000838161255457612553614d4f565b5b0492506010810190505b6305f5e1008310612587576305f5e100838161257d5761257c614d4f565b5b0492506008810190505b61271083106125ac5761271083816125a2576125a1614d4f565b5b0492506004810190505b606483106125cf57606483816125c5576125c4614d4f565b5b0492506002810190505b600a83106125de576001810190505b80915050919050565b6000815103612622576040517f22ce3edd00000000000000000000000000000000000000000000000000000000815260040160405180910390fd5b828460000190600281111561263a576126396144f1565b5b9081600281111561264e5761264d6144f1565b5b81525050818460400190600081111561266a576126696144f1565b5b9081600081111561267e5761267d6144f1565b5b8152505080846060018190525050505050565b612699612cae565b6126a78160000151836127aa565b506000816020018181525050919050565b6126c58260038351612823565b6126dc8183600001516129cc90919063ffffffff16565b505050565b61270360026005600660ff16901b1783600001516129e890919063ffffffff16565b5061272d82826040516020016127199190613405565b604051602081830303815290604052612781565b5050565b61273c816004612a52565b60018160200181815161274f9190614e46565b9150818152505050565b612764816007612a52565b60018160200181815161277791906144ae565b9150818152505050565b61278e8260028351612823565b6127a58183600001516129cc90919063ffffffff16565b505050565b6127b2612cce565b60006020836127c19190614f0f565b146127ed576020826127d39190614f0f565b60206127df91906144ae565b826127ea9190614e46565b91505b81836020018181525050604051808452600081528281016020018181101561281457600080fd5b80604052505082905092915050565b60178167ffffffffffffffff161161285e576128588160058460ff16901b60ff161784600001516129e890919063ffffffff16565b506129c7565b60ff8167ffffffffffffffff16116128bc57612891601860058460ff16901b1784600001516129e890919063ffffffff16565b506128b68167ffffffffffffffff1660018560000151612a789092919063ffffffff16565b506129c6565b61ffff8167ffffffffffffffff161161291b576128f0601960058460ff16901b1784600001516129e890919063ffffffff16565b506129158167ffffffffffffffff1660028560000151612a789092919063ffffffff16565b506129c5565b63ffffffff8167ffffffffffffffff161161297c57612951601a60058460ff16901b1784600001516129e890919063ffffffff16565b506129768167ffffffffffffffff1660048560000151612a789092919063ffffffff16565b506129c4565b61299d601b60058460ff16901b1784600001516129e890919063ffffffff16565b506129c28167ffffffffffffffff1660088560000151612a789092919063ffffffff16565b505b5b5b5b505050565b6129d4612cce565b6129e083838451612b05565b905092915050565b6129f0612cce565b600083600001515190506000600182612a099190614e46565b905084602001518210612a2d57612a2c85600283612a279190614e04565b612be8565b5b84516020838201018581538151831115612a45578282525b5050849250505092915050565b612a73601f60058360ff16901b1783600001516129e890919063ffffffff16565b505050565b612a80612cce565b6000846000015151905060008184612a989190614e46565b90508560200151811115612abd57612abc86600283612ab79190614e04565b612be8565b5b6000600185610100612acf9190615073565b612ad991906144ae565b905086518281018783198251161781528151841115612af6578382525b50508693505050509392505050565b612b0d612cce565b8251821115612b1b57600080fd5b6000846000015151905060008382612b339190614e46565b90508560200151811115612b5857612b5786600283612b529190614e04565b612be8565b5b60008087518051856020830101935080851115612b73578482525b60208901925050505b60208610612bba5780518252602082612b959190614e46565b9150602081612ba49190614e46565b9050602086612bb391906144ae565b9550612b7c565b60006001876020036101000a0390508019825116818451168181178552505050879450505050509392505050565b600082600001519050612bfb83836127aa565b50612c0683826129cc565b50505050565b6040518060400160405280600073ffffffffffffffffffffffffffffffffffffffff168152602001600081525090565b6040518060e0016040528060006002811115612c5b57612c5a6144f1565b5b815260200160006002811115612c7457612c736144f1565b5b8152602001600080811115612c8c57612c8b6144f1565b5b8152602001606081526020016060815260200160608152602001606081525090565b6040518060400160405280612cc1612cce565b8152602001600081525090565b604051806040016040528060608152602001600081525090565b6000604051905090565b600080fd5b600080fd5b60007fffffffff0000000000000000000000000000000000000000000000000000000082169050919050565b612d3181612cfc565b8114612d3c57600080fd5b50565b600081359050612d4e81612d28565b92915050565b600060208284031215612d6a57612d69612cf2565b5b6000612d7884828501612d3f565b91505092915050565b60008115159050919050565b612d9681612d81565b82525050565b6000602082019050612db16000830184612d8d565b92915050565b6000819050919050565b612dca81612db7565b8114612dd557600080fd5b50565b600081359050612de781612dc1565b92915050565b600080fd5b600080fd5b6000601f19601f8301169050919050565b7f4e487b7100000000000000000000000000000000000000000000000000000000600052604160045260246000fd5b612e4082612df7565b810181811067ffffffffffffffff82111715612e5f57612e5e612e08565b5b80604052505050565b6000612e72612ce8565b9050612e7e8282612e37565b919050565b600067ffffffffffffffff821115612e9e57612e9d612e08565b5b612ea782612df7565b9050602081019050919050565b82818337600083830152505050565b6000612ed6612ed184612e83565b612e68565b905082815260208101848484011115612ef257612ef1612df2565b5b612efd848285612eb4565b509392505050565b600082601f830112612f1a57612f19612ded565b5b8135612f2a848260208601612ec3565b91505092915050565b600080600060608486031215612f4c57612f4b612cf2565b5b6000612f5a86828701612dd8565b935050602084013567ffffffffffffffff811115612f7b57612f7a612cf7565b5b612f8786828701612f05565b925050604084013567ffffffffffffffff811115612fa857612fa7612cf7565b5b612fb486828701612f05565b9150509250925092565b600067ffffffffffffffff82169050919050565b612fdb81612fbe565b8114612fe657600080fd5b50565b600081359050612ff881612fd2565b92915050565b60006020828403121561301457613013612cf2565b5b600061302284828501612fe9565b91505092915050565b600063ffffffff82169050919050565b6130448161302b565b811461304f57600080fd5b50565b6000813590506130618161303b565b92915050565b60006020828403121561307d5761307c612cf2565b5b600061308b84828501613052565b91505092915050565b600080fd5b600080fd5b600067ffffffffffffffff8211156130b9576130b8612e08565b5b6130c282612df7565b9050602081019050919050565b60006130e26130dd8461309e565b612e68565b9050828152602081018484840111156130fe576130fd612df2565b5b613109848285612eb4565b509392505050565b600082601f83011261312657613125612ded565b5b81356131368482602086016130cf565b91505092915050565b600073ffffffffffffffffffffffffffffffffffffffff82169050919050565b600061316a8261313f565b9050919050565b61317a8161315f565b811461318557600080fd5b50565b60008135905061319781613171565b92915050565b6000819050919050565b6131b08161319d565b81146131bb57600080fd5b50565b6000813590506131cd816131a7565b92915050565b600060e082840312156131e9576131e8613094565b5b6131f360e0612e68565b9050600082013567ffffffffffffffff81111561321357613212613099565b5b61321f84828501613111565b600083015250602082013567ffffffffffffffff81111561324357613242613099565b5b61324f84828501613111565b602083015250604061326384828501613188565b604083015250606082013567ffffffffffffffff81111561328757613286613099565b5b61329384828501613111565b60608301525060806132a7848285016131be565b60808301525060a082013567ffffffffffffffff8111156132cb576132ca613099565b5b6132d784828501613111565b60a08301525060c082013567ffffffffffffffff8111156132fb576132fa613099565b5b61330784828501613111565b60c08301525092915050565b60006020828403121561332957613328612cf2565b5b600082013567ffffffffffffffff81111561334757613346612cf7565b5b613353848285016131d3565b91505092915050565b60006020828403121561337257613371612cf2565b5b600061338084828501612dd8565b91505092915050565b600080fd5b600060a082840312156133a4576133a3613389565b5b81905092915050565b6000602082840312156133c3576133c2612cf2565b5b600082013567ffffffffffffffff8111156133e1576133e0612cf7565b5b6133ed8482850161338e565b91505092915050565b6133ff8161319d565b82525050565b600060208201905061341a60008301846133f6565b92915050565b60006080828403121561343657613435613094565b5b6134406080612e68565b9050600082013567ffffffffffffffff8111156134605761345f613099565b5b61346c84828501613111565b6000830152506020613480848285016131be565b602083015250604082013567ffffffffffffffff8111156134a4576134a3613099565b5b6134b084828501613111565b60408301525060606134c4848285016131be565b60608301525092915050565b6000602082840312156134e6576134e5612cf2565b5b600082013567ffffffffffffffff81111561350457613503612cf7565b5b61351084828501613420565b91505092915050565b60008060008060008060c0878903121561353657613535612cf2565b5b600061354489828a01612fe9565b965050602061355589828a01613188565b955050604061356689828a01613188565b945050606061357789828a016131be565b935050608087013567ffffffffffffffff81111561359857613597612cf7565b5b6135a489828a01613111565b92505060a087013567ffffffffffffffff8111156135c5576135c4612cf7565b5b6135d189828a01612f05565b9150509295509295509295565b6135e78161315f565b82525050565b600060208201905061360260008301846135de565b92915050565b6000806040838503121561361f5761361e612cf2565b5b600061362d85828601612fe9565b925050602061363e85828601613188565b9150509250929050565b60006020828403121561365e5761365d612cf2565b5b600082013567ffffffffffffffff81111561367c5761367b612cf7565b5b61368884828501613111565b91505092915050565b600080604083850312156136a8576136a7612cf2565b5b600083013567ffffffffffffffff8111156136c6576136c5612cf7565b5b6136d285828601613111565b92505060206136e385828601613188565b9150509250929050565b600067ffffffffffffffff82111561370857613707612e08565b5b602082029050602081019050919050565b600080fd5b600061373161372c846136ed565b612e68565b9050808382526020820190506020840283018581111561375457613753613719565b5b835b8181101561379b57803567ffffffffffffffff81111561377957613778612ded565b5b8086016137868982613111565b85526020850194505050602081019050613756565b5050509392505050565b600082601f8301126137ba576137b9612ded565b5b81356137ca84826020860161371e565b91505092915050565b600060ff82169050919050565b6137e9816137d3565b81146137f457600080fd5b50565b600081359050613806816137e0565b92915050565b6000806000806080858703121561382657613825612cf2565b5b600061383487828801613188565b945050602085013567ffffffffffffffff81111561385557613854612cf7565b5b613861878288016137a5565b935050604085013567ffffffffffffffff81111561388257613881612cf7565b5b61388e87828801613111565b925050606061389f878288016137f7565b91505092959194509250565b6000602082840312156138c1576138c0612cf2565b5b60006138cf84828501613188565b91505092915050565b600082825260208201905092915050565b7f496e76616c696420706c616e0000000000000000000000000000000000000000600082015250565b600061391f600c836138d8565b915061392a826138e9565b602082019050919050565b6000602082019050818103600083015261394e81613912565b9050919050565b7f496e73756666696369656e742066756e64730000000000000000000000000000600082015250565b600061398b6012836138d8565b915061399682613955565b602082019050919050565b600060208201905081810360008301526139ba8161397e565b9050919050565b600081519050919050565b7f4e487b7100000000000000000000000000000000000000000000000000000000600052602260045260246000fd5b60006002820490506001821680613a1357607f821691505b602082108103613a2657613a256139cc565b5b50919050565b60008190508160005260206000209050919050565b60006020601f8301049050919050565b600082821b905092915050565b600060088302613a8e7fffffffffffffffffffffffffffffffffffffffffffffffffffffffffffffffff82613a51565b613a988683613a51565b95508019841693508086168417925050509392505050565b6000819050919050565b6000613ad5613ad0613acb8461319d565b613ab0565b61319d565b9050919050565b6000819050919050565b613aef83613aba565b613b03613afb82613adc565b848454613a5e565b825550505050565b600090565b613b18613b0b565b613b23818484613ae6565b505050565b5b81811015613b4757613b3c600082613b10565b600181019050613b29565b5050565b601f821115613b8c57613b5d81613a2c565b613b6684613a41565b81016020851015613b75578190505b613b89613b8185613a41565b830182613b28565b50505b505050565b600082821c905092915050565b6000613baf60001984600802613b91565b1980831691505092915050565b6000613bc88383613b9e565b9150826002028217905092915050565b613be1826139c1565b67ffffffffffffffff811115613bfa57613bf9612e08565b5b613c0482546139fb565b613c0f828285613b4b565b600060209050601f831160018114613c425760008415613c30578287015190505b613c3a8582613bbc565b865550613ca2565b601f198416613c5086613a2c565b60005b82811015613c7857848901518255600182019150602085019450602081019050613c53565b86831015613c955784890151613c91601f891682613b9e565b8355505b6001600288020188555050505b505050505050565b60005b83811015613cc8578082015181840152602081019050613cad565b60008484015250505050565b6000613cdf826139c1565b613ce981856138d8565b9350613cf9818560208601613caa565b613d0281612df7565b840191505092915050565b600061010082019050613d23600083018b6135de565b8181036020830152613d35818a613cd4565b90508181036040830152613d498189613cd4565b90508181036060830152613d5d8188613cd4565b9050613d6c60808301876133f6565b613d7960a08301866135de565b81810360c0830152613d8b8185613cd4565b905081810360e0830152613d9f8184613cd4565b90509998505050505050505050565b600067ffffffffffffffff821115613dc957613dc8612e08565b5b602082029050602081019050919050565b600060408284031215613df057613def613094565b5b613dfa6040612e68565b90506000613e0a84828501613188565b6000830152506020613e1e848285016131be565b60208301525092915050565b6000613e3d613e3884613dae565b612e68565b90508083825260208201905060408402830185811115613e6057613e5f613719565b5b835b81811015613e895780613e758882613dda565b845260208401935050604081019050613e62565b5050509392505050565b600082601f830112613ea857613ea7612ded565b5b8135613eb8848260208601613e2a565b91505092915050565b600060a08284031215613ed757613ed6613094565b5b613ee160a0612e68565b90506000613ef184828501612dd8565b6000830152506020613f0584828501612fe9565b602083015250604082013567ffffffffffffffff811115613f2957613f28613099565b5b613f3584828501612f05565b604083015250606082013567ffffffffffffffff811115613f5957613f58613099565b5b613f6584828501612f05565b606083015250608082013567ffffffffffffffff811115613f8957613f88613099565b5b613f9584828501613e93565b60808301525092915050565b6000613fad3683613ec1565b9050919050565b7f4e487b7100000000000000000000000000000000000000000000000000000000600052601160045260246000fd5b6000613fee8261319d565b91507fffffffffffffffffffffffffffffffffffffffffffffffffffffffffffffffff82036140205761401f613fb4565b5b600182019050919050565b600060a08201905061404060008301886133f6565b81810360208301526140528187613cd4565b905061406160408301866133f6565b81810360608301526140738185613cd4565b905061408260808301846133f6565b9695505050505050565b7f436861696e206e6f7420737570706f7274656400000000000000000000000000600082015250565b60006140c26013836138d8565b91506140cd8261408c565b602082019050919050565b600060208201905081810360008301526140f1816140b5565b9050919050565b600081519050919050565b600082825260208201905092915050565b600061411f826140f8565b6141298185614103565b9350614139818560208601613caa565b61414281612df7565b840191505092915050565b600060a08201905061416260008301886135de565b61416f60208301876135de565b61417c60408301866133f6565b818103606083015261418e8185613cd4565b905081810360808301526141a28184614114565b90509695505050505050565b6141b781612fbe565b82525050565b600082825260208201905092915050565b60006141d9826140f8565b6141e381856141bd565b93506141f3818560208601613caa565b6141fc81612df7565b840191505092915050565b600081519050919050565b600082825260208201905092915050565b6000819050602082019050919050565b61423c8161315f565b82525050565b61424b8161319d565b82525050565b6040820160008201516142676000850182614233565b50602082015161427a6020850182614242565b50505050565b600061428c8383614251565b60408301905092915050565b6000602082019050919050565b60006142b082614207565b6142ba8185614212565b93506142c583614223565b8060005b838110156142f65781516142dd8882614280565b97506142e883614298565b9250506001810190506142c9565b5085935050505092915050565b600060a083016000830151848203600086015261432082826141ce565b9150506020830151848203602086015261433a82826141ce565b9150506040830151848203604086015261435482826142a5565b91505060608301516143696060860182614233565b506080830151848203608086015261438182826141ce565b9150508091505092915050565b60006040820190506143a360008301856141ae565b81810360208301526143b58184614303565b90509392505050565b6000815190506143cd816131a7565b92915050565b6000602082840312156143e9576143e8612cf2565b5b60006143f7848285016143be565b91505092915050565b7f496e73756666696369656e742066656500000000000000000000000000000000600082015250565b60006144366010836138d8565b915061444182614400565b602082019050919050565b6000602082019050818103600083015261446581614429565b9050919050565b60008151905061447b81612dc1565b92915050565b60006020828403121561449757614496612cf2565b5b60006144a58482850161446c565b91505092915050565b60006144b98261319d565b91506144c48361319d565b92508282039050818111156144dc576144db613fb4565b5b92915050565b6144eb81612db7565b82525050565b7f4e487b7100000000000000000000000000000000000000000000000000000000600052602160045260246000fd5b60048110614531576145306144f1565b5b50565b600081905061454282614520565b919050565b600061455282614534565b9050919050565b61456281614547565b82525050565b600060a08201905061457d60008301886144e2565b61458a60208301876135de565b61459760408301866135de565b6145a46060830185614559565b81810360808301526145b68184614114565b90509695505050505050565b7f556e417574686f72697a65640000000000000000000000000000000000000000600082015250565b60006145f8600c836138d8565b9150614603826145c2565b602082019050919050565b60006020820190508181036000830152614627816145eb565b9050919050565b600060408201905061464360008301856135de565b81810360208301526146558184613cd4565b90509392505050565b7f546f6f206d616e79206174747269627574657300000000000000000000000000600082015250565b60006146946013836138d8565b915061469f8261465e565b602082019050919050565b600060208201905081810360008301526146c381614687565b9050919050565b7f47616d65204e6f7420466f756e64000000000000000000000000000000000000600082015250565b6000614700600e836138d8565b915061470b826146ca565b602082019050919050565b6000602082019050818103600083015261472f816146f3565b9050919050565b600081519050919050565b600082825260208201905092915050565b6000819050602082019050919050565b600082825260208201905092915050565b600061477e826139c1565b6147888185614762565b9350614798818560208601613caa565b6147a181612df7565b840191505092915050565b60006147b88383614773565b905092915050565b6000602082019050919050565b60006147d882614736565b6147e28185614741565b9350836020820285016147f485614752565b8060005b85811015614830578484038952815161481185826147ac565b945061481c836147c0565b925060208a019950506001810190506147f8565b50829750879550505050505092915050565b600082825260208201905092915050565b7f2c00000000000000000000000000000000000000000000000000000000000000600082015250565b6000614889600183614842565b915061489482614853565b602082019050919050565b600060408201905081810360008301526148b981846147cd565b905081810360208301526148cc8161487c565b905092915050565b60006148e76148e28461309e565b612e68565b90508281526020810184848401111561490357614902612df2565b5b61490e848285613caa565b509392505050565b600082601f83011261492b5761492a612ded565b5b815161493b8482602086016148d4565b91505092915050565b60006020828403121561495a57614959612cf2565b5b600082015167ffffffffffffffff81111561497857614977612cf7565b5b61498484828501614916565b91505092915050565b7f4e487b7100000000000000000000000000000000000000000000000000000000600052603260045260246000fd5b7f4f776e61626c653a206e6577206f776e657220697320746865207a65726f206160008201527f6464726573730000000000000000000000000000000000000000000000000000602082015250565b6000614a186026836138d8565b9150614a23826149bc565b604082019050919050565b60006020820190508181036000830152614a4781614a0b565b9050919050565b7f416c72656164792066756c66696c6c6564000000000000000000000000000000600082015250565b6000614a846011836138d8565b9150614a8f82614a4e565b602082019050919050565b60006020820190508181036000830152614ab381614a77565b9050919050565b7f4f776e61626c653a2063616c6c6572206973206e6f7420746865206f776e6572600082015250565b6000614af06020836138d8565b9150614afb82614aba565b602082019050919050565b60006020820190508181036000830152614b1f81614ae3565b9050919050565b6000614b318261313f565b9050919050565b614b4181614b26565b8114614b4c57600080fd5b50565b600081519050614b5e81614b38565b92915050565b6000614b77614b7284612e83565b612e68565b905082815260208101848484011115614b9357614b92612df2565b5b614b9e848285613caa565b509392505050565b600082601f830112614bbb57614bba612ded565b5b8151614bcb848260208601614b64565b91505092915050565b600080600080600060a08688031215614bf057614bef612cf2565b5b6000614bfe88828901614b4f565b9550506020614c0f88828901614b4f565b9450506040614c20888289016143be565b935050606086015167ffffffffffffffff811115614c4157614c40612cf7565b5b614c4d88828901614916565b925050608086015167ffffffffffffffff811115614c6e57614c6d612cf7565b5b614c7a88828901614ba6565b9150509295509295909350565b600060c082019050614c9c60008301896141ae565b614ca960208301886135de565b614cb660408301876135de565b614cc360608301866133f6565b8181036080830152614cd58185613cd4565b905081810360a0830152614ce98184614114565b9050979650505050505050565b614cff81612d81565b82525050565b604082016000820151614d1b6000850182614242565b506020820151614d2e6020850182614cf6565b50505050565b6000604082019050614d496000830184614d05565b92915050565b7f4e487b7100000000000000000000000000000000000000000000000000000000600052601260045260246000fd5b600061ffff82169050919050565b614d9581614d7e565b82525050565b614da48161302b565b82525050565b600060a082019050614dbf60008301886141ae565b8181036020830152614dd18187614114565b9050614de06040830186614d8c565b614ded6060830185614d9b565b614dfa60808301846144e2565b9695505050505050565b6000614e0f8261319d565b9150614e1a8361319d565b9250828202614e288161319d565b91508282048414831517614e3f57614e3e613fb4565b5b5092915050565b6000614e518261319d565b9150614e5c8361319d565b9250828201905080821115614e7457614e73613fb4565b5b92915050565b6000614e858261319d565b915060008203614e9857614e97613fb4565b5b600182039050919050565b7f537472696e67733a20686578206c656e67746820696e73756666696369656e74600082015250565b6000614ed96020836138d8565b9150614ee482614ea3565b602082019050919050565b60006020820190508181036000830152614f0881614ecc565b9050919050565b6000614f1a8261319d565b9150614f258361319d565b925082614f3557614f34614d4f565b5b828206905092915050565b60008160011c9050919050565b6000808291508390505b6001851115614f9757808604811115614f7357614f72613fb4565b5b6001851615614f825780820291505b8081029050614f9085614f40565b9450614f57565b94509492505050565b600082614fb0576001905061506c565b81614fbe576000905061506c565b8160018114614fd45760028114614fde5761500d565b600191505061506c565b60ff841115614ff057614fef613fb4565b5b8360020a91508482111561500757615006613fb4565b5b5061506c565b5060208310610133831016604e8410600b84101617156150425782820a90508381111561503d5761503c613fb4565b5b61506c565b61504f8484846001614f4d565b9250905081840481111561506657615065613fb4565b5b81810290505b9392505050565b600061507e8261319d565b91506150898361319d565b92506150b67fffffffffffffffffffffffffffffffffffffffffffffffffffffffffffffffff8484614fa0565b90509291505056fea2646970667358221220b8bce6a9f1add8257b023bb2084c21a3836a33da1e39b503069928ee0867cf4964736f6c63430008130033",
  "immutableReferences": {
    "14": [
      {
        "length": 32,
        "start": 2177
      },
      {
        "length": 32,
        "start": 3841
      }
    ],
    "5186": [
      {
        "length": 32,
        "start": 1256
      },
      {
        "length": 32,
        "start": 8570
      }
    ]
  },
  "source": "// SPDX-License-Identifier: MIT\r\npragma solidity ^0.8.19;\r\n\r\nimport {Assets} from \"./libraries/Assets.sol\";\r\nimport {Params} from \"./libraries/Params.sol\";\r\nimport {IKanvasAvax} from \"./interfaces/IKanvasAvax.sol\";\r\nimport {IKanvasGame} from \"./interfaces/IKanvasGame.sol\";\r\nimport {IKanvasInteropGame} from \"./interfaces/IKanvasInteropGame.sol\";\r\nimport {StringJoiner} from \"./libraries/StringJoiner.sol\";\r\n\r\nimport {Strings} from \"@openzeppelin/contracts/utils/Strings.sol\";\r\nimport {Ownable} from \"@openzeppelin/contracts/access/Ownable.sol\";\r\nimport {Context} from \"@openzeppelin/contracts/utils/Context.sol\";\r\n\r\nimport {FunctionsClient} from \"./FunctionsClient.sol\";\r\nimport {FunctionsRequest} from \"@chainlink/contracts/src/v0.8/functions/dev/v1_0_0/libraries/FunctionsRequest.sol\";\r\n\r\nimport {Client} from \"@chainlink/contracts-ccip/src/v0.8/ccip/libraries/Client.sol\";\r\nimport {CCIPReceiver} from \"@chainlink/contracts-ccip/src/v0.8/ccip/applications/CCIPReceiver.sol\";\r\nimport {IRouterClient} from \"@chainlink/contracts-ccip/src/v0.8/ccip/interfaces/IRouterClient.sol\";\r\n\r\ncontract KanvasAvax is\r\n    IKanvasAvax,\r\n    Context,\r\n    CCIPReceiver,\r\n    FunctionsClient,\r\n    Ownable\r\n{\r\n    using FunctionsRequest for FunctionsRequest.Request;\r\n\r\n    uint256 public constant MAX_PROPERTIES_LEN = 20;\r\n    uint256 public constant MAX_TEMPLATES_LEN = 5;\r\n\r\n    string private _sourceCode;\r\n    uint32 private _gasLimit = 300_000;\r\n    uint64 private _subscriptionId = 1580;\r\n    bytes32 private _donId =\r\n        0x66756e2d6176616c616e6368652d66756a692d31000000000000000000000000;\r\n\r\n    uint256 private _planId;\r\n    mapping(uint256 => Assets.Plan) private _plans;\r\n\r\n    mapping(address => Assets.Game) private _games;\r\n\r\n    mapping(bytes32 => Assets.Request) private _requests;\r\n\r\n    mapping(uint64 => address) private _interops;\r\n\r\n    IRouterClient private _router;\r\n\r\n    constructor(\r\n        address ccipReceiver,\r\n        address functionOracle\r\n    ) CCIPReceiver(ccipReceiver) Ownable() FunctionsClient(functionOracle) {\r\n        _router = IRouterClient(getRouter());\r\n    }\r\n\r\n    function updateDonId(bytes32 newDonId) external onlyOwner {\r\n        _donId = newDonId;\r\n    }\r\n\r\n    function updateSourceCode(string memory newSourceCode) external onlyOwner {\r\n        _sourceCode = newSourceCode;\r\n    }\r\n\r\n    function updateGasLimit(uint32 newLimit) external onlyOwner {\r\n        _gasLimit = newLimit;\r\n    }\r\n\r\n    function updateSubscriptionId(uint64 newSubscriptionId) external onlyOwner {\r\n        _subscriptionId = newSubscriptionId;\r\n    }\r\n\r\n    function createGame(Params.Game memory params) external payable {\r\n        require(_plans[params.plan].limit != 0, \"Invalid plan\");\r\n        require(msg.value == _plans[params.plan].cost, \"Insufficient funds\");\r\n\r\n        _games[params.gameId] = Assets.Game({\r\n            name: params.name,\r\n            description: params.description,\r\n            avatar: params.avatar,\r\n            plan: params.plan,\r\n            creator: _msgSender()\r\n        });\r\n\r\n        emit GameCreated(\r\n            params.gameId,\r\n            params.name,\r\n            params.description,\r\n            params.avatar,\r\n            params.plan,\r\n            _msgSender(),\r\n            params.email,\r\n            params.website\r\n        );\r\n    }\r\n\r\n    function addTemplate(string memory templateUri, address gameId) external {\r\n        address creator = _msgSender();\r\n\r\n        Assets.Game storage game = _games[gameId];\r\n\r\n        require(game.creator == creator, \"UnAuthorized\");\r\n\r\n        emit TemplateAdded(gameId, templateUri);\r\n    }\r\n\r\n    function _generateUri(\r\n        address playerId,\r\n        string[] memory props,\r\n        string memory fields,\r\n        uint8 templateId\r\n    ) external override {\r\n        require(props.length <= MAX_PROPERTIES_LEN, \"Too many attributes\");\r\n\r\n        address gameId = _msgSender();\r\n        require(_games[gameId].creator != address(0), \"Game Not Found\");\r\n\r\n        string[] memory args = new string[](5);\r\n        args[0] = StringJoiner.joinStrings(props, \",\");\r\n        args[1] = fields;\r\n        args[2] = Strings.toHexString(gameId);\r\n        args[3] = Strings.toHexString(playerId);\r\n        args[4] = Strings.toString(templateId);\r\n\r\n        // Initialize the request\r\n        FunctionsRequest.Request memory req;\r\n\r\n        // Soucre code\r\n        req.initializeRequestForInlineJavaScript(_sourceCode);\r\n\r\n        // Add arguments\r\n        req.setArgs(args);\r\n\r\n        bytes32 requestId = _sendRequest(\r\n            req.encodeCBOR(),\r\n            _subscriptionId,\r\n            _gasLimit,\r\n            _donId\r\n        );\r\n\r\n        _requests[requestId] = Assets.Request({\r\n            gameId: gameId,\r\n            playerId: playerId,\r\n            fulfilled: false\r\n        });\r\n\r\n        emit GameEvent(\r\n            requestId,\r\n            gameId,\r\n            playerId,\r\n            Assets.EventType.GENERATE_URI,\r\n            bytes(fields)\r\n        );\r\n    }\r\n\r\n    function updateInterop(\r\n        uint64 chainSelector,\r\n        address kanvasRouter\r\n    ) external onlyOwner {\r\n        _interops[chainSelector] = kanvasRouter;\r\n    }\r\n\r\n    /** Receive the response in the form of string  */\r\n    function fulfillRequest(\r\n        bytes32 requestId,\r\n        bytes memory response,\r\n        bytes memory err\r\n    ) internal override {\r\n        Assets.Request storage request = _requests[requestId];\r\n        require(!request.fulfilled, \"Already fulfilled\");\r\n\r\n        if (err.length > 0) {\r\n            emit GameEvent(\r\n                requestId,\r\n                request.gameId,\r\n                request.playerId,\r\n                Assets.EventType.RECEIVE_URI,\r\n                err\r\n            );\r\n            return;\r\n        }\r\n\r\n        request.fulfilled = true;\r\n\r\n        require(_games[request.gameId].creator != address(0), \"Game Not Found\");\r\n\r\n        IKanvasGame game = IKanvasGame(request.gameId);\r\n        game._receiveUri(request.playerId, string(response));\r\n\r\n        emit GameEvent(\r\n            requestId,\r\n            request.gameId,\r\n            request.playerId,\r\n            Assets.EventType.RECEIVE_URI,\r\n            response\r\n        );\r\n    }\r\n\r\n    function _transferTo(\r\n        uint64 chainSelector,\r\n        address gameId,\r\n        address playerId,\r\n        uint256 tokenId,\r\n        string memory uri,\r\n        bytes memory data\r\n    ) external payable {\r\n        require(_interops[chainSelector] != address(0), \"Chain not supported\");\r\n\r\n        // Create an EVM2AnyMessage struct in memory with necessary information for sending a cross-chain message\r\n        Client.EVM2AnyMessage memory message = Client.EVM2AnyMessage({\r\n            // ABI-encoded receiver address\r\n            receiver: abi.encode(_interops[chainSelector]),\r\n            // ABI-encoded string message\r\n            data: abi.encode(gameId, playerId, tokenId, uri, data),\r\n            // Empty array indicating no tokens are being sent\r\n            tokenAmounts: new Client.EVMTokenAmount[](0),\r\n            // Additional arguments, setting gas limit and non-strict sequency mode\r\n            extraArgs: Client._argsToBytes(\r\n                Client.EVMExtraArgsV1({gasLimit: 2_000_000, strict: false})\r\n            ),\r\n            // Setting feeToken to zero address, indicating native asset will be used for fees\r\n            feeToken: address(0)\r\n        });\r\n\r\n        // Get the fee required to send the message\r\n        uint256 fees = _router.getFee(chainSelector, message);\r\n\r\n        require(msg.value >= fees, \"Insufficient fee\");\r\n\r\n        // Send the message through the router and store the returned message ID\r\n        bytes32 messageId = _router.ccipSend{value: fees}(\r\n            chainSelector,\r\n            message\r\n        );\r\n\r\n        uint256 overspent = msg.value - fees;\r\n\r\n        if (overspent > 0) {\r\n            address payable receiver = payable(gameId);\r\n            receiver.transfer(overspent);\r\n        }\r\n\r\n        emit GameEvent(\r\n            messageId,\r\n            gameId,\r\n            playerId,\r\n            Assets.EventType.TRANSFER_TO,\r\n            message.data\r\n        );\r\n    }\r\n\r\n    // handle a received message\r\n    function _ccipReceive(\r\n        Client.Any2EVMMessage memory message\r\n    ) internal override {\r\n        (\r\n            address gameId,\r\n            address playerId,\r\n            uint256 tokenId,\r\n            string memory uri,\r\n            bytes memory data\r\n        ) = abi.decode(\r\n                message.data,\r\n                (address, address, uint256, string, bytes)\r\n            );\r\n\r\n        IKanvasInteropGame game = IKanvasInteropGame(gameId);\r\n        game._receiveFrom(\r\n            message.sourceChainSelector,\r\n            gameId,\r\n            playerId,\r\n            tokenId,\r\n            uri,\r\n            data\r\n        );\r\n\r\n        emit GameEvent(\r\n            message.messageId,\r\n            gameId,\r\n            playerId,\r\n            Assets.EventType.RECEIVE_FROM,\r\n            message.data\r\n        );\r\n    }\r\n\r\n    /** Create plans */\r\n    function createPlan(Params.Plan memory params) external onlyOwner {\r\n        _planId++;\r\n\r\n        _plans[_planId] = Assets.Plan({\r\n            name: params.name,\r\n            cost: params.cost,\r\n            color: params.color,\r\n            limit: params.limit\r\n        });\r\n\r\n        emit PlanCreated(\r\n            _planId,\r\n            params.name,\r\n            params.cost,\r\n            params.color,\r\n            params.limit\r\n        );\r\n    }\r\n}\r\n",
  "sourcePath": "C:\\Users\\DELL\\Documents\\kanvas\\blockchain\\contracts\\KanvasAvax.sol",
  "compiler": {
    "name": "solc",
    "version": "0.8.19+commit.7dd6d404.Emscripten.clang"
  },
  "schemaVersion": "3.4.11",
  "updatedAt": "2023-12-06T17:21:13.548Z",
  "devdoc": {
    "kind": "dev",
    "methods": {
      "ccipReceive((bytes32,uint64,bytes,bytes,(address,uint256)[]))": {
        "details": "Note ensure you check the msg.sender is the OffRampRouter",
        "params": {
          "message": "CCIP Message"
        }
      },
      "getRouter()": {
        "returns": {
          "_0": "i_router address"
        }
      },
      "handleOracleFulfillment(bytes32,bytes,bytes)": {
        "details": "Either response or error parameter will be set, but never both.",
        "params": {
          "err": "Aggregated error either from the request's source code or from the execution pipeline.",
          "requestId": "The requestId returned by FunctionsClient.sendRequest().",
          "response": "Aggregated response from the request's source code."
        }
      },
      "owner()": {
        "details": "Returns the address of the current owner."
      },
      "renounceOwnership()": {
        "details": "Leaves the contract without owner. It will not be possible to call `onlyOwner` functions. Can only be called by the current owner. NOTE: Renouncing ownership will leave the contract without an owner, thereby disabling any functionality that is only available to the owner."
      },
      "supportsInterface(bytes4)": {
        "params": {
          "interfaceId": "The interfaceId to check"
        },
        "returns": {
          "_0": "true if the interfaceId is supported"
        }
      },
      "transferOwnership(address)": {
        "details": "Transfers ownership of the contract to a new account (`newOwner`). Can only be called by the current owner."
      }
    },
    "version": 1
  },
  "userdoc": {
    "kind": "user",
    "methods": {
      "ccipReceive((bytes32,uint64,bytes,bytes,(address,uint256)[]))": {
        "notice": "Called by the Router to deliver a message. If this reverts, any token transfers also revert. The message will move to a FAILED state and become available for manual execution."
      },
      "createPlan((string,uint256,string,uint256))": {
        "notice": "Create plans "
      },
      "getRouter()": {
        "notice": "Return the current router"
      },
      "handleOracleFulfillment(bytes32,bytes,bytes)": {
        "notice": "Chainlink Functions response handler called by the Functions Router during fullilment from the designated transmitter node in an OCR round."
      },
      "supportsInterface(bytes4)": {
        "notice": "IERC165 supports an interfaceId"
      }
    },
    "version": 1
  }
}