{
  "contractName": "KanvasInterop",
  "abi": [
    {
      "inputs": [
        {
          "internalType": "address",
          "name": "receiver",
          "type": "address"
        }
      ],
      "stateMutability": "nonpayable",
      "type": "constructor"
    },
    {
      "inputs": [
        {
          "internalType": "address",
          "name": "router",
          "type": "address"
        }
      ],
      "name": "InvalidRouter",
      "type": "error"
    },
    {
      "anonymous": false,
      "inputs": [
        {
          "indexed": true,
          "internalType": "bytes32",
          "name": "id",
          "type": "bytes32"
        }
      ],
      "name": "ChainlinkCancelled",
      "type": "event"
    },
    {
      "anonymous": false,
      "inputs": [
        {
          "indexed": true,
          "internalType": "bytes32",
          "name": "id",
          "type": "bytes32"
        }
      ],
      "name": "ChainlinkFulfilled",
      "type": "event"
    },
    {
      "anonymous": false,
      "inputs": [
        {
          "indexed": true,
          "internalType": "bytes32",
          "name": "id",
          "type": "bytes32"
        }
      ],
      "name": "ChainlinkRequested",
      "type": "event"
    },
    {
      "anonymous": false,
      "inputs": [
        {
          "indexed": true,
          "internalType": "address",
          "name": "previousOwner",
          "type": "address"
        },
        {
          "indexed": true,
          "internalType": "address",
          "name": "newOwner",
          "type": "address"
        }
      ],
      "name": "OwnershipTransferred",
      "type": "event"
    },
    {
      "anonymous": false,
      "inputs": [
        {
          "indexed": false,
          "internalType": "uint256",
          "name": "planId",
          "type": "uint256"
        },
        {
          "indexed": false,
          "internalType": "string",
          "name": "name",
          "type": "string"
        },
        {
          "indexed": false,
          "internalType": "uint256",
          "name": "cost",
          "type": "uint256"
        },
        {
          "indexed": false,
          "internalType": "string",
          "name": "color",
          "type": "string"
        },
        {
          "indexed": false,
          "internalType": "uint256",
          "name": "limit",
          "type": "uint256"
        }
      ],
      "name": "PlanCreated",
      "type": "event"
    },
    {
      "inputs": [],
      "name": "MAX_PROPERTIES_LEN",
      "outputs": [
        {
          "internalType": "uint256",
          "name": "",
          "type": "uint256"
        }
      ],
      "stateMutability": "view",
      "type": "function"
    },
    {
      "inputs": [],
      "name": "MAX_TEMPLATES_LEN",
      "outputs": [
        {
          "internalType": "uint256",
          "name": "",
          "type": "uint256"
        }
      ],
      "stateMutability": "view",
      "type": "function"
    },
    {
      "inputs": [
        {
          "components": [
            {
              "internalType": "bytes32",
              "name": "messageId",
              "type": "bytes32"
            },
            {
              "internalType": "uint64",
              "name": "sourceChainSelector",
              "type": "uint64"
            },
            {
              "internalType": "bytes",
              "name": "sender",
              "type": "bytes"
            },
            {
              "internalType": "bytes",
              "name": "data",
              "type": "bytes"
            },
            {
              "components": [
                {
                  "internalType": "address",
                  "name": "token",
                  "type": "address"
                },
                {
                  "internalType": "uint256",
                  "name": "amount",
                  "type": "uint256"
                }
              ],
              "internalType": "struct Client.EVMTokenAmount[]",
              "name": "destTokenAmounts",
              "type": "tuple[]"
            }
          ],
          "internalType": "struct Client.Any2EVMMessage",
          "name": "message",
          "type": "tuple"
        }
      ],
      "name": "ccipReceive",
      "outputs": [],
      "stateMutability": "nonpayable",
      "type": "function"
    },
    {
      "inputs": [],
      "name": "getRouter",
      "outputs": [
        {
          "internalType": "address",
          "name": "",
          "type": "address"
        }
      ],
      "stateMutability": "view",
      "type": "function"
    },
    {
      "inputs": [],
      "name": "owner",
      "outputs": [
        {
          "internalType": "address",
          "name": "",
          "type": "address"
        }
      ],
      "stateMutability": "view",
      "type": "function"
    },
    {
      "inputs": [],
      "name": "renounceOwnership",
      "outputs": [],
      "stateMutability": "nonpayable",
      "type": "function"
    },
    {
      "inputs": [
        {
          "internalType": "bytes4",
          "name": "interfaceId",
          "type": "bytes4"
        }
      ],
      "name": "supportsInterface",
      "outputs": [
        {
          "internalType": "bool",
          "name": "",
          "type": "bool"
        }
      ],
      "stateMutability": "pure",
      "type": "function"
    },
    {
      "inputs": [
        {
          "internalType": "address",
          "name": "newOwner",
          "type": "address"
        }
      ],
      "name": "transferOwnership",
      "outputs": [],
      "stateMutability": "nonpayable",
      "type": "function"
    },
    {
      "inputs": [
        {
          "internalType": "uint64",
          "name": "",
          "type": "uint64"
        },
        {
          "components": [
            {
              "internalType": "address",
              "name": "gameId",
              "type": "address"
            }
          ],
          "internalType": "struct Params.InteropGame",
          "name": "params",
          "type": "tuple"
        }
      ],
      "name": "_createGame",
      "outputs": [],
      "stateMutability": "nonpayable",
      "type": "function"
    },
    {
      "inputs": [
        {
          "internalType": "address",
          "name": "playerId",
          "type": "address"
        },
        {
          "internalType": "string[]",
          "name": "properties",
          "type": "string[]"
        },
        {
          "internalType": "string",
          "name": "fields",
          "type": "string"
        }
      ],
      "name": "_generateUri",
      "outputs": [],
      "stateMutability": "nonpayable",
      "type": "function"
    },
    {
      "inputs": [
        {
          "internalType": "string",
          "name": "newBaseUrl",
          "type": "string"
        }
      ],
      "name": "updateBaseUrl",
      "outputs": [],
      "stateMutability": "nonpayable",
      "type": "function"
    },
    {
      "inputs": [
        {
          "internalType": "uint64",
          "name": "chainSelector",
          "type": "uint64"
        },
        {
          "internalType": "address",
          "name": "kanvasRouter",
          "type": "address"
        }
      ],
      "name": "updateInterop",
      "outputs": [],
      "stateMutability": "nonpayable",
      "type": "function"
    },
    {
      "inputs": [
        {
          "internalType": "bytes32",
          "name": "requestId",
          "type": "bytes32"
        },
        {
          "internalType": "string",
          "name": "uri",
          "type": "string"
        }
      ],
      "name": "fulfill",
      "outputs": [],
      "stateMutability": "nonpayable",
      "type": "function"
    },
    {
      "inputs": [],
      "name": "withdrawLink",
      "outputs": [],
      "stateMutability": "nonpayable",
      "type": "function"
    },
    {
      "inputs": [
        {
          "internalType": "uint64",
          "name": "chainSelector",
          "type": "uint64"
        },
        {
          "internalType": "address",
          "name": "gameId",
          "type": "address"
        },
        {
          "internalType": "address",
          "name": "playerId",
          "type": "address"
        },
        {
          "internalType": "uint256",
          "name": "tokenId",
          "type": "uint256"
        },
        {
          "internalType": "string",
          "name": "uri",
          "type": "string"
        },
        {
          "internalType": "bytes",
          "name": "data",
          "type": "bytes"
        }
      ],
      "name": "_transferTo",
      "outputs": [],
      "stateMutability": "payable",
      "type": "function"
    }
  ],
  "bytecode": "0x60a060405260016004556040518060200160405280600081525060079081620000299190620005f5565b503480156200003757600080fd5b50604051620049af380380620049af83398181016040528101906200005d919062000746565b80600073ffffffffffffffffffffffffffffffffffffffff168173ffffffffffffffffffffffffffffffffffffffff1603620000d35760006040517fd7f73334000000000000000000000000000000000000000000000000000000008152600401620000ca919062000789565b60405180910390fd5b8073ffffffffffffffffffffffffffffffffffffffff1660808173ffffffffffffffffffffffffffffffffffffffff168152505050620001286200011c6200021b60201b60201c565b6200022360201b60201c565b6200014d730b9d5d9136855f6fec3c0993fee6e9ce8a297846620002e960201b60201c565b6200017273022eea14a6010167ca026b32576d6686dd7e85d26200032d60201b60201c565b7f3764383061363338366566353433613361626235323831376636373037653362600881905550600a670de0b6b3a76400006001620001b29190620007d5565b620001be91906200084f565b600981905550620001d46200037160201b60201c565b600d60006101000a81548173ffffffffffffffffffffffffffffffffffffffff021916908373ffffffffffffffffffffffffffffffffffffffff1602179055505062000887565b600033905090565b6000600660009054906101000a900473ffffffffffffffffffffffffffffffffffffffff16905081600660006101000a81548173ffffffffffffffffffffffffffffffffffffffff021916908373ffffffffffffffffffffffffffffffffffffffff1602179055508173ffffffffffffffffffffffffffffffffffffffff168173ffffffffffffffffffffffffffffffffffffffff167f8be0079c531659141344cd1fd0a4f28419497f9722a3daafe3b4186f6b6457e060405160405180910390a35050565b80600260006101000a81548173ffffffffffffffffffffffffffffffffffffffff021916908373ffffffffffffffffffffffffffffffffffffffff16021790555050565b80600360006101000a81548173ffffffffffffffffffffffffffffffffffffffff021916908373ffffffffffffffffffffffffffffffffffffffff16021790555050565b6000608051905090565b600081519050919050565b7f4e487b7100000000000000000000000000000000000000000000000000000000600052604160045260246000fd5b7f4e487b7100000000000000000000000000000000000000000000000000000000600052602260045260246000fd5b60006002820490506001821680620003fd57607f821691505b602082108103620004135762000412620003b5565b5b50919050565b60008190508160005260206000209050919050565b60006020601f8301049050919050565b600082821b905092915050565b6000600883026200047d7fffffffffffffffffffffffffffffffffffffffffffffffffffffffffffffffff826200043e565b6200048986836200043e565b95508019841693508086168417925050509392505050565b6000819050919050565b6000819050919050565b6000620004d6620004d0620004ca84620004a1565b620004ab565b620004a1565b9050919050565b6000819050919050565b620004f283620004b5565b6200050a6200050182620004dd565b8484546200044b565b825550505050565b600090565b6200052162000512565b6200052e818484620004e7565b505050565b5b8181101562000556576200054a60008262000517565b60018101905062000534565b5050565b601f821115620005a5576200056f8162000419565b6200057a846200042e565b810160208510156200058a578190505b620005a262000599856200042e565b83018262000533565b50505b505050565b600082821c905092915050565b6000620005ca60001984600802620005aa565b1980831691505092915050565b6000620005e58383620005b7565b9150826002028217905092915050565b62000600826200037b565b67ffffffffffffffff8111156200061c576200061b62000386565b5b620006288254620003e4565b620006358282856200055a565b600060209050601f8311600181146200066d576000841562000658578287015190505b620006648582620005d7565b865550620006d4565b601f1984166200067d8662000419565b60005b82811015620006a75784890151825560018201915060208501945060208101905062000680565b86831015620006c75784890151620006c3601f891682620005b7565b8355505b6001600288020188555050505b505050505050565b600080fd5b600073ffffffffffffffffffffffffffffffffffffffff82169050919050565b60006200070e82620006e1565b9050919050565b620007208162000701565b81146200072c57600080fd5b50565b600081519050620007408162000715565b92915050565b6000602082840312156200075f576200075e620006dc565b5b60006200076f848285016200072f565b91505092915050565b620007838162000701565b82525050565b6000602082019050620007a0600083018462000778565b92915050565b7f4e487b7100000000000000000000000000000000000000000000000000000000600052601160045260246000fd5b6000620007e282620004a1565b9150620007ef83620004a1565b9250828202620007ff81620004a1565b91508282048414831517620008195762000818620007a6565b5b5092915050565b7f4e487b7100000000000000000000000000000000000000000000000000000000600052601260045260246000fd5b60006200085c82620004a1565b91506200086983620004a1565b9250826200087c576200087b62000820565b5b828204905092915050565b608051614105620008aa60003960008181610b9e015261116801526141056000f3fe6080604052600436106100e85760003560e01c80638da5cb5b1161008a578063b0f479a111610059578063b0f479a114610297578063dff0ee41146102c2578063ea21e5eb146102ed578063f2fde38b14610316576100e8565b80638da5cb5b146102035780638dc654a21461022e57806392154a3d14610245578063afd21cfe1461026e576100e8565b806375948bb0116100c657806375948bb01461016a57806385572ffb146101935780638b8ff358146101bc5780638d6dc0eb146101e7576100e8565b806301ffc9a7146100ed578063374419961461012a578063715018a614610153575b600080fd5b3480156100f957600080fd5b50610114600480360381019061010f9190612098565b61033f565b60405161012191906120e0565b60405180910390f35b34801561013657600080fd5b50610151600480360381019061014c9190612277565b610411565b005b34801561015f57600080fd5b5061016861074f565b005b34801561017657600080fd5b50610191600480360381019061018c9190612417565b610763565b005b34801561019f57600080fd5b506101ba60048036038101906101b591906124c6565b610b9c565b005b3480156101c857600080fd5b506101d1610c41565b6040516101de9190612528565b60405180910390f35b61020160048036038101906101fc9190612650565b610c46565b005b34801561020f57600080fd5b50610218610f2c565b6040516102259190612724565b60405180910390f35b34801561023a57600080fd5b50610243610f56565b005b34801561025157600080fd5b5061026c6004803603810190610267919061273f565b611065565b005b34801561027a57600080fd5b50610295600480360381019061029091906127c5565b6110d7565b005b3480156102a357600080fd5b506102ac611164565b6040516102b99190612724565b60405180910390f35b3480156102ce57600080fd5b506102d761118c565b6040516102e49190612528565b60405180910390f35b3480156102f957600080fd5b50610314600480360381019061030f9190612805565b611191565b005b34801561032257600080fd5b5061033d6004803603810190610338919061284e565b6111ac565b005b60007f85572ffb000000000000000000000000000000000000000000000000000000007bffffffffffffffffffffffffffffffffffffffffffffffffffffffff1916827bffffffffffffffffffffffffffffffffffffffffffffffffffffffff1916148061040a57507f01ffc9a7000000000000000000000000000000000000000000000000000000007bffffffffffffffffffffffffffffffffffffffffffffffffffffffff1916827bffffffffffffffffffffffffffffffffffffffffffffffffffffffff1916145b9050919050565b816005600082815260200190815260200160002060009054906101000a900473ffffffffffffffffffffffffffffffffffffffff1673ffffffffffffffffffffffffffffffffffffffff163373ffffffffffffffffffffffffffffffffffffffff16146104b3576040517f08c379a00000000000000000000000000000000000000000000000000000000081526004016104aa906128fe565b60405180910390fd5b6005600082815260200190815260200160002060006101000a81549073ffffffffffffffffffffffffffffffffffffffff0219169055807f7cc135e0cebb02c3480ae5d74d377283180a2601f8f644edf7987b009316c63a60405160405180910390a26000600b600085815260200190815260200160002090508060010160149054906101000a900460ff161561057f576040517f08c379a00000000000000000000000000000000000000000000000000000000081526004016105769061296a565b60405180910390fd5b60018160010160146101000a81548160ff021916908315150217905550600073ffffffffffffffffffffffffffffffffffffffff16600a60008360000160009054906101000a900473ffffffffffffffffffffffffffffffffffffffff1673ffffffffffffffffffffffffffffffffffffffff1673ffffffffffffffffffffffffffffffffffffffff16815260200190815260200160002060009054906101000a900473ffffffffffffffffffffffffffffffffffffffff1673ffffffffffffffffffffffffffffffffffffffff160361068e576040517f08c379a0000000000000000000000000000000000000000000000000000000008152600401610685906129d6565b60405180910390fd5b60008160000160009054906101000a900473ffffffffffffffffffffffffffffffffffffffff1690508073ffffffffffffffffffffffffffffffffffffffff16638f9c39568360010160009054906101000a900473ffffffffffffffffffffffffffffffffffffffff16866040518363ffffffff1660e01b8152600401610716929190612a64565b600060405180830381600087803b15801561073057600080fd5b505af1158015610744573d6000803e3d6000fd5b505050505050505050565b61075761122f565b61076160006112ad565b565b6014825111156107a8576040517f08c379a000000000000000000000000000000000000000000000000000000000815260040161079f90612ae0565b60405180910390fd5b6000600a60006107b6611373565b73ffffffffffffffffffffffffffffffffffffffff1673ffffffffffffffffffffffffffffffffffffffff16815260200190815260200160002060009054906101000a900473ffffffffffffffffffffffffffffffffffffffff169050600073ffffffffffffffffffffffffffffffffffffffff16600a60008373ffffffffffffffffffffffffffffffffffffffff1673ffffffffffffffffffffffffffffffffffffffff16815260200190815260200160002060009054906101000a900473ffffffffffffffffffffffffffffffffffffffff1673ffffffffffffffffffffffffffffffffffffffff16036108e1576040517f08c379a00000000000000000000000000000000000000000000000000000000081526004016108d8906129d6565b60405180910390fd5b60006108f760085430633744199660e01b61137b565b90506109f76040518060400160405280600381526020017f6765740000000000000000000000000000000000000000000000000000000000815250600773__StringJoiner__________________________635c8656e0886040518263ffffffff1660e01b815260040161096b9190612c69565b600060405180830381865af4158015610988573d6000803e3d6000fd5b505050506040513d6000823e3d601f19601f820116820180604052508101906109b19190612d0e565b866109bb876113ac565b6109c48b6113ac565b6040516020016109d8959493929190612eb1565b604051602081830303815290604052836113d99092919063ffffffff16565b610a766040518060400160405280600481526020017f70617468000000000000000000000000000000000000000000000000000000008152506040518060400160405280600381526020017f7572690000000000000000000000000000000000000000000000000000000000815250836113d99092919063ffffffff16565b6000610a848260095461140c565b905060405180606001604052808473ffffffffffffffffffffffffffffffffffffffff1681526020018773ffffffffffffffffffffffffffffffffffffffff16815260200160001515815250600b600083815260200190815260200160002060008201518160000160006101000a81548173ffffffffffffffffffffffffffffffffffffffff021916908373ffffffffffffffffffffffffffffffffffffffff16021790555060208201518160010160006101000a81548173ffffffffffffffffffffffffffffffffffffffff021916908373ffffffffffffffffffffffffffffffffffffffff16021790555060408201518160010160146101000a81548160ff021916908315150217905550905050505050505050565b7f000000000000000000000000000000000000000000000000000000000000000073ffffffffffffffffffffffffffffffffffffffff163373ffffffffffffffffffffffffffffffffffffffff1614610c2c57336040517fd7f73334000000000000000000000000000000000000000000000000000000008152600401610c239190612724565b60405180910390fd5b610c3e81610c399061312b565b611443565b50565b601481565b60006040518060a00160405280600c60008a67ffffffffffffffff1667ffffffffffffffff16815260200190815260200160002060009054906101000a900473ffffffffffffffffffffffffffffffffffffffff16604051602001610cab9190612724565b60405160208183030381529060405281526020018787878787604051602001610cd8959493929190613193565b6040516020818303038152906040528152602001600067ffffffffffffffff811115610d0757610d0661214c565b5b604051908082528060200260200182016040528015610d4057816020015b610d2d611f75565b815260200190600190039081610d255790505b508152602001600073ffffffffffffffffffffffffffffffffffffffff168152602001610d86604051806040016040528062061a808152602001600015158152506114f4565b81525090506000600d60009054906101000a900473ffffffffffffffffffffffffffffffffffffffff1673ffffffffffffffffffffffffffffffffffffffff166320487ded67ccf0a31a221f3c9b846040518363ffffffff1660e01b8152600401610df29291906133d4565b602060405180830381865afa158015610e0f573d6000803e3d6000fd5b505050506040513d601f19601f82011682018060405250810190610e339190613419565b905080341015610e78576040517f08c379a0000000000000000000000000000000000000000000000000000000008152600401610e6f90613492565b60405180910390fd5b600d60009054906101000a900473ffffffffffffffffffffffffffffffffffffffff1673ffffffffffffffffffffffffffffffffffffffff166396f4e9f98267ccf0a31a221f3c9b856040518463ffffffff1660e01b8152600401610ede9291906133d4565b60206040518083038185885af1158015610efc573d6000803e3d6000fd5b50505050506040513d601f19601f82011682018060405250810190610f2191906134c7565b505050505050505050565b6000600660009054906101000a900473ffffffffffffffffffffffffffffffffffffffff16905090565b610f5e61122f565b6000610f68611573565b90508073ffffffffffffffffffffffffffffffffffffffff1663a9059cbb338373ffffffffffffffffffffffffffffffffffffffff166370a08231306040518263ffffffff1660e01b8152600401610fc09190612724565b602060405180830381865afa158015610fdd573d6000803e3d6000fd5b505050506040513d601f19601f820116820180604052508101906110019190613419565b6040518363ffffffff1660e01b815260040161101e9291906134f4565b6020604051808303816000875af115801561103d573d6000803e3d6000fd5b505050506040513d601f19601f820116820180604052508101906110619190613549565b5050565b61106d61122f565b80600c60008467ffffffffffffffff1667ffffffffffffffff16815260200190815260200160002060006101000a81548173ffffffffffffffffffffffffffffffffffffffff021916908373ffffffffffffffffffffffffffffffffffffffff1602179055505050565b8060000151600a60006110e8611373565b73ffffffffffffffffffffffffffffffffffffffff1673ffffffffffffffffffffffffffffffffffffffff16815260200190815260200160002060006101000a81548173ffffffffffffffffffffffffffffffffffffffff021916908373ffffffffffffffffffffffffffffffffffffffff1602179055505050565b60007f0000000000000000000000000000000000000000000000000000000000000000905090565b600581565b61119961122f565b80600790816111a8919061370d565b5050565b6111b461122f565b600073ffffffffffffffffffffffffffffffffffffffff168173ffffffffffffffffffffffffffffffffffffffff1603611223576040517f08c379a000000000000000000000000000000000000000000000000000000000815260040161121a90613851565b60405180910390fd5b61122c816112ad565b50565b611237611373565b73ffffffffffffffffffffffffffffffffffffffff16611255610f2c565b73ffffffffffffffffffffffffffffffffffffffff16146112ab576040517f08c379a00000000000000000000000000000000000000000000000000000000081526004016112a2906138bd565b60405180910390fd5b565b6000600660009054906101000a900473ffffffffffffffffffffffffffffffffffffffff16905081600660006101000a81548173ffffffffffffffffffffffffffffffffffffffff021916908373ffffffffffffffffffffffffffffffffffffffff1602179055508173ffffffffffffffffffffffffffffffffffffffff168173ffffffffffffffffffffffffffffffffffffffff167f8be0079c531659141344cd1fd0a4f28419497f9722a3daafe3b4186f6b6457e060405160405180910390a35050565b600033905090565b611383611fa5565b61138b611fa5565b6113a28585858461159d909392919063ffffffff16565b9150509392505050565b60606113d28273ffffffffffffffffffffffffffffffffffffffff16601460ff1661164d565b9050919050565b6113f082846080015161188990919063ffffffff16565b61140781846080015161188990919063ffffffff16565b505050565b600061143b600360009054906101000a900473ffffffffffffffffffffffffffffffffffffffff1684846118ae565b905092915050565b60008060008060008560600151806020019051810190611463919061398b565b9450945094509450945060008590508073ffffffffffffffffffffffffffffffffffffffff16636d4195fb886020015188888888886040518763ffffffff1660e01b81526004016114b996959493929190613a3e565b600060405180830381600087803b1580156114d357600080fd5b505af11580156114e7573d6000803e3d6000fd5b5050505050505050505050565b60606397a657c960e01b8260405160240161150f9190613aeb565b604051602081830303815290604052907bffffffffffffffffffffffffffffffffffffffffffffffffffffffff19166020820180517bffffffffffffffffffffffffffffffffffffffffffffffffffffffff83818316178352505050509050919050565b6000600260009054906101000a900473ffffffffffffffffffffffffffffffffffffffff16905090565b6115a5611fa5565b6115b5856080015161010061197a565b508385600001818152505082856020019073ffffffffffffffffffffffffffffffffffffffff16908173ffffffffffffffffffffffffffffffffffffffff16815250508185604001907bffffffffffffffffffffffffffffffffffffffffffffffffffffffff191690817bffffffffffffffffffffffffffffffffffffffffffffffffffffffff191681525050849050949350505050565b6060600060028360026116609190613b35565b61166a9190613b77565b67ffffffffffffffff8111156116835761168261214c565b5b6040519080825280601f01601f1916602001820160405280156116b55781602001600182028036833780820191505090505b5090507f3000000000000000000000000000000000000000000000000000000000000000816000815181106116ed576116ec613bab565b5b60200101907effffffffffffffffffffffffffffffffffffffffffffffffffffffffffffff1916908160001a9053507f78000000000000000000000000000000000000000000000000000000000000008160018151811061175157611750613bab565b5b60200101907effffffffffffffffffffffffffffffffffffffffffffffffffffffffffffff1916908160001a905350600060018460026117919190613b35565b61179b9190613b77565b90505b600181111561183b577f3031323334353637383961626364656600000000000000000000000000000000600f8616601081106117dd576117dc613bab565b5b1a60f81b8282815181106117f4576117f3613bab565b5b60200101907effffffffffffffffffffffffffffffffffffffffffffffffffffffffffffff1916908160001a905350600485901c94508061183490613bda565b905061179e565b506000841461187f576040517f08c379a000000000000000000000000000000000000000000000000000000000815260040161187690613c4f565b60405180910390fd5b8091505092915050565b61189682600383516119e4565b6118a98183611b6990919063ffffffff16565b505050565b60008060045490506001816118c39190613b77565b6004819055506000634042994660e01b60008087600001513089604001518760018c6080015160000151604051602401611904989796959493929190613c8d565b604051602081830303815290604052907bffffffffffffffffffffffffffffffffffffffffffffffffffffffff19166020820180517bffffffffffffffffffffffffffffffffffffffffffffffffffffffff8381831617835250505050905061196f86838684611b8b565b925050509392505050565b611982612012565b60006020836119919190613d41565b146119bd576020826119a39190613d41565b60206119af9190613d72565b826119ba9190613b77565b91505b81836020018181525050604051808452600081528281016020016040525082905092915050565b60178167ffffffffffffffff1611611a1b57611a158160058460ff16901b60ff161784611d2090919063ffffffff16565b50611b64565b60ff8167ffffffffffffffff1611611a7157611a4a601860058460ff16901b1784611d2090919063ffffffff16565b50611a6b8167ffffffffffffffff16600185611d409092919063ffffffff16565b50611b63565b61ffff8167ffffffffffffffff1611611ac857611aa1601960058460ff16901b1784611d2090919063ffffffff16565b50611ac28167ffffffffffffffff16600285611d409092919063ffffffff16565b50611b62565b63ffffffff8167ffffffffffffffff1611611b2157611afa601a60058460ff16901b1784611d2090919063ffffffff16565b50611b1b8167ffffffffffffffff16600485611d409092919063ffffffff16565b50611b61565b611b3e601b60058460ff16901b1784611d2090919063ffffffff16565b50611b5f8167ffffffffffffffff16600885611d409092919063ffffffff16565b505b5b5b5b505050565b611b71612012565b611b8383846000015151848551611d62565b905092915050565b60003084604051602001611ba0929190613e55565b604051602081830303815290604052805190602001209050846005600083815260200190815260200160002060006101000a81548173ffffffffffffffffffffffffffffffffffffffff021916908373ffffffffffffffffffffffffffffffffffffffff160217905550807fb5e6e01e79f91267dc17b4e6314d5d4d03593d2ceee0fbb452b750bd70ea5af960405160405180910390a2600260009054906101000a900473ffffffffffffffffffffffffffffffffffffffff1673ffffffffffffffffffffffffffffffffffffffff16634000aea08685856040518463ffffffff1660e01b8152600401611c9693929190613e81565b6020604051808303816000875af1158015611cb5573d6000803e3d6000fd5b505050506040513d601f19601f82011682018060405250810190611cd99190613549565b611d18576040517f08c379a0000000000000000000000000000000000000000000000000000000008152600401611d0f90613f31565b60405180910390fd5b949350505050565b611d28612012565b611d388384600001515184611e51565b905092915050565b611d48612012565b611d59848560000151518585611ea7565b90509392505050565b611d6a612012565b8251821115611d7857600080fd5b84602001518285611d899190613b77565b1115611dbe57611dbd856002611dae88602001518887611da99190613b77565b611f35565b611db89190613b35565b611f51565b5b600080865180518760208301019350808887011115611ddd5787860182525b60208701925050505b60208410611e245780518252602082611dff9190613b77565b9150602081611e0e9190613b77565b9050602084611e1d9190613d72565b9350611de6565b60006001856020036101000a03905080198251168184511681811785525050508692505050949350505050565b611e59612012565b83602001518310611e7f57611e7e8460028660200151611e799190613b35565b611f51565b5b83518051602085830101848153818603611e9a576001820183525b5050508390509392505050565b611eaf612012565b84602001518483611ec09190613b77565b1115611ee857611ee78560028685611ed89190613b77565b611ee29190613b35565b611f51565b5b6000600183610100611efa9190614084565b611f049190613d72565b90508551838682010185831982511617815281518588011115611f275784870182525b505085915050949350505050565b600081831115611f4757829050611f4b565b8190505b92915050565b600082600001519050611f64838361197a565b50611f6f8382611b69565b50505050565b6040518060400160405280600073ffffffffffffffffffffffffffffffffffffffff168152602001600081525090565b6040518060a0016040528060008019168152602001600073ffffffffffffffffffffffffffffffffffffffff16815260200160007bffffffffffffffffffffffffffffffffffffffffffffffffffffffff191681526020016000815260200161200c612012565b81525090565b604051806040016040528060608152602001600081525090565b6000604051905090565b600080fd5b600080fd5b60007fffffffff0000000000000000000000000000000000000000000000000000000082169050919050565b61207581612040565b811461208057600080fd5b50565b6000813590506120928161206c565b92915050565b6000602082840312156120ae576120ad612036565b5b60006120bc84828501612083565b91505092915050565b60008115159050919050565b6120da816120c5565b82525050565b60006020820190506120f560008301846120d1565b92915050565b6000819050919050565b61210e816120fb565b811461211957600080fd5b50565b60008135905061212b81612105565b92915050565b600080fd5b600080fd5b6000601f19601f8301169050919050565b7f4e487b7100000000000000000000000000000000000000000000000000000000600052604160045260246000fd5b6121848261213b565b810181811067ffffffffffffffff821117156121a3576121a261214c565b5b80604052505050565b60006121b661202c565b90506121c2828261217b565b919050565b600067ffffffffffffffff8211156121e2576121e161214c565b5b6121eb8261213b565b9050602081019050919050565b82818337600083830152505050565b600061221a612215846121c7565b6121ac565b90508281526020810184848401111561223657612235612136565b5b6122418482856121f8565b509392505050565b600082601f83011261225e5761225d612131565b5b813561226e848260208601612207565b91505092915050565b6000806040838503121561228e5761228d612036565b5b600061229c8582860161211c565b925050602083013567ffffffffffffffff8111156122bd576122bc61203b565b5b6122c985828601612249565b9150509250929050565b600073ffffffffffffffffffffffffffffffffffffffff82169050919050565b60006122fe826122d3565b9050919050565b61230e816122f3565b811461231957600080fd5b50565b60008135905061232b81612305565b92915050565b600067ffffffffffffffff82111561234c5761234b61214c565b5b602082029050602081019050919050565b600080fd5b600061237561237084612331565b6121ac565b905080838252602082019050602084028301858111156123985761239761235d565b5b835b818110156123df57803567ffffffffffffffff8111156123bd576123bc612131565b5b8086016123ca8982612249565b8552602085019450505060208101905061239a565b5050509392505050565b600082601f8301126123fe576123fd612131565b5b813561240e848260208601612362565b91505092915050565b6000806000606084860312156124305761242f612036565b5b600061243e8682870161231c565b935050602084013567ffffffffffffffff81111561245f5761245e61203b565b5b61246b868287016123e9565b925050604084013567ffffffffffffffff81111561248c5761248b61203b565b5b61249886828701612249565b9150509250925092565b600080fd5b600060a082840312156124bd576124bc6124a2565b5b81905092915050565b6000602082840312156124dc576124db612036565b5b600082013567ffffffffffffffff8111156124fa576124f961203b565b5b612506848285016124a7565b91505092915050565b6000819050919050565b6125228161250f565b82525050565b600060208201905061253d6000830184612519565b92915050565b600067ffffffffffffffff82169050919050565b61256081612543565b811461256b57600080fd5b50565b60008135905061257d81612557565b92915050565b61258c8161250f565b811461259757600080fd5b50565b6000813590506125a981612583565b92915050565b600067ffffffffffffffff8211156125ca576125c961214c565b5b6125d38261213b565b9050602081019050919050565b60006125f36125ee846125af565b6121ac565b90508281526020810184848401111561260f5761260e612136565b5b61261a8482856121f8565b509392505050565b600082601f83011261263757612636612131565b5b81356126478482602086016125e0565b91505092915050565b60008060008060008060c0878903121561266d5761266c612036565b5b600061267b89828a0161256e565b965050602061268c89828a0161231c565b955050604061269d89828a0161231c565b94505060606126ae89828a0161259a565b935050608087013567ffffffffffffffff8111156126cf576126ce61203b565b5b6126db89828a01612249565b92505060a087013567ffffffffffffffff8111156126fc576126fb61203b565b5b61270889828a01612622565b9150509295509295509295565b61271e816122f3565b82525050565b60006020820190506127396000830184612715565b92915050565b6000806040838503121561275657612755612036565b5b60006127648582860161256e565b92505060206127758582860161231c565b9150509250929050565b600080fd5b600080fd5b60006020828403121561279f5761279e61277f565b5b6127a960206121ac565b905060006127b98482850161231c565b60008301525092915050565b600080604083850312156127dc576127db612036565b5b60006127ea8582860161256e565b92505060206127fb85828601612789565b9150509250929050565b60006020828403121561281b5761281a612036565b5b600082013567ffffffffffffffff8111156128395761283861203b565b5b61284584828501612249565b91505092915050565b60006020828403121561286457612863612036565b5b60006128728482850161231c565b91505092915050565b600082825260208201905092915050565b7f536f75726365206d75737420626520746865206f7261636c65206f662074686560008201527f2072657175657374000000000000000000000000000000000000000000000000602082015250565b60006128e860288361287b565b91506128f38261288c565b604082019050919050565b60006020820190508181036000830152612917816128db565b9050919050565b7f416c72656164792066756c66696c6c6564000000000000000000000000000000600082015250565b600061295460118361287b565b915061295f8261291e565b602082019050919050565b6000602082019050818103600083015261298381612947565b9050919050565b7f47616d65204e6f7420466f756e64000000000000000000000000000000000000600082015250565b60006129c0600e8361287b565b91506129cb8261298a565b602082019050919050565b600060208201905081810360008301526129ef816129b3565b9050919050565b600081519050919050565b60005b83811015612a1f578082015181840152602081019050612a04565b60008484015250505050565b6000612a36826129f6565b612a40818561287b565b9350612a50818560208601612a01565b612a598161213b565b840191505092915050565b6000604082019050612a796000830185612715565b8181036020830152612a8b8184612a2b565b90509392505050565b7f546f6f206d616e79206174747269627574657300000000000000000000000000600082015250565b6000612aca60138361287b565b9150612ad582612a94565b602082019050919050565b60006020820190508181036000830152612af981612abd565b9050919050565b600081519050919050565b600082825260208201905092915050565b6000819050602082019050919050565b600082825260208201905092915050565b6000612b48826129f6565b612b528185612b2c565b9350612b62818560208601612a01565b612b6b8161213b565b840191505092915050565b6000612b828383612b3d565b905092915050565b6000602082019050919050565b6000612ba282612b00565b612bac8185612b0b565b935083602082028501612bbe85612b1c565b8060005b85811015612bfa5784840389528151612bdb8582612b76565b9450612be683612b8a565b925060208a01995050600181019050612bc2565b50829750879550505050505092915050565b600082825260208201905092915050565b7f2c00000000000000000000000000000000000000000000000000000000000000600082015250565b6000612c53600183612c0c565b9150612c5e82612c1d565b602082019050919050565b60006040820190508181036000830152612c838184612b97565b90508181036020830152612c9681612c46565b905092915050565b6000612cb1612cac846121c7565b6121ac565b905082815260208101848484011115612ccd57612ccc612136565b5b612cd8848285612a01565b509392505050565b600082601f830112612cf557612cf4612131565b5b8151612d05848260208601612c9e565b91505092915050565b600060208284031215612d2457612d23612036565b5b600082015167ffffffffffffffff811115612d4257612d4161203b565b5b612d4e84828501612ce0565b91505092915050565b7f4e487b7100000000000000000000000000000000000000000000000000000000600052602260045260246000fd5b60006002820490506001821680612d9e57607f821691505b602082108103612db157612db0612d57565b5b50919050565b600081905092915050565b60008190508160005260206000209050919050565b60008154612de481612d86565b612dee8186612db7565b94506001821660008114612e095760018114612e1e57612e51565b60ff1983168652811515820286019350612e51565b612e2785612dc2565b60005b83811015612e4957815481890152600182019150602081019050612e2a565b838801955050505b50505092915050565b7f2f00000000000000000000000000000000000000000000000000000000000000815250565b6000612e8b826129f6565b612e958185612db7565b9350612ea5818560208601612a01565b80840191505092915050565b6000612ebd8288612dd7565b9150612ec882612e5a565b600182019150612ed88287612e80565b9150612ee382612e5a565b600182019150612ef38286612e80565b9150612efe82612e5a565b600182019150612f0e8285612e80565b9150612f1982612e5a565b600182019150612f298284612e80565b91508190509695505050505050565b600067ffffffffffffffff821115612f5357612f5261214c565b5b602082029050602081019050919050565b600060408284031215612f7a57612f7961277f565b5b612f8460406121ac565b90506000612f948482850161231c565b6000830152506020612fa88482850161259a565b60208301525092915050565b6000612fc7612fc284612f38565b6121ac565b90508083825260208201905060408402830185811115612fea57612fe961235d565b5b835b818110156130135780612fff8882612f64565b845260208401935050604081019050612fec565b5050509392505050565b600082601f83011261303257613031612131565b5b8135613042848260208601612fb4565b91505092915050565b600060a082840312156130615761306061277f565b5b61306b60a06121ac565b9050600061307b8482850161211c565b600083015250602061308f8482850161256e565b602083015250604082013567ffffffffffffffff8111156130b3576130b2612784565b5b6130bf84828501612622565b604083015250606082013567ffffffffffffffff8111156130e3576130e2612784565b5b6130ef84828501612622565b606083015250608082013567ffffffffffffffff81111561311357613112612784565b5b61311f8482850161301d565b60808301525092915050565b6000613137368361304b565b9050919050565b600081519050919050565b600082825260208201905092915050565b60006131658261313e565b61316f8185613149565b935061317f818560208601612a01565b6131888161213b565b840191505092915050565b600060a0820190506131a86000830188612715565b6131b56020830187612715565b6131c26040830186612519565b81810360608301526131d48185612a2b565b905081810360808301526131e8818461315a565b90509695505050505050565b6131fd81612543565b82525050565b600082825260208201905092915050565b600061321f8261313e565b6132298185613203565b9350613239818560208601612a01565b6132428161213b565b840191505092915050565b600081519050919050565b600082825260208201905092915050565b6000819050602082019050919050565b613282816122f3565b82525050565b6132918161250f565b82525050565b6040820160008201516132ad6000850182613279565b5060208201516132c06020850182613288565b50505050565b60006132d28383613297565b60408301905092915050565b6000602082019050919050565b60006132f68261324d565b6133008185613258565b935061330b83613269565b8060005b8381101561333c57815161332388826132c6565b975061332e836132de565b92505060018101905061330f565b5085935050505092915050565b600060a08301600083015184820360008601526133668282613214565b915050602083015184820360208601526133808282613214565b9150506040830151848203604086015261339a82826132eb565b91505060608301516133af6060860182613279565b50608083015184820360808601526133c78282613214565b9150508091505092915050565b60006040820190506133e960008301856131f4565b81810360208301526133fb8184613349565b90509392505050565b60008151905061341381612583565b92915050565b60006020828403121561342f5761342e612036565b5b600061343d84828501613404565b91505092915050565b7f496e73756666696369656e742066656500000000000000000000000000000000600082015250565b600061347c60108361287b565b915061348782613446565b602082019050919050565b600060208201905081810360008301526134ab8161346f565b9050919050565b6000815190506134c181612105565b92915050565b6000602082840312156134dd576134dc612036565b5b60006134eb848285016134b2565b91505092915050565b60006040820190506135096000830185612715565b6135166020830184612519565b9392505050565b613526816120c5565b811461353157600080fd5b50565b6000815190506135438161351d565b92915050565b60006020828403121561355f5761355e612036565b5b600061356d84828501613534565b91505092915050565b60006020601f8301049050919050565b600082821b905092915050565b6000600883026135c37fffffffffffffffffffffffffffffffffffffffffffffffffffffffffffffffff82613586565b6135cd8683613586565b95508019841693508086168417925050509392505050565b6000819050919050565b600061360a6136056136008461250f565b6135e5565b61250f565b9050919050565b6000819050919050565b613624836135ef565b61363861363082613611565b848454613593565b825550505050565b600090565b61364d613640565b61365881848461361b565b505050565b5b8181101561367c57613671600082613645565b60018101905061365e565b5050565b601f8211156136c15761369281612dc2565b61369b84613576565b810160208510156136aa578190505b6136be6136b685613576565b83018261365d565b50505b505050565b600082821c905092915050565b60006136e4600019846008026136c6565b1980831691505092915050565b60006136fd83836136d3565b9150826002028217905092915050565b613716826129f6565b67ffffffffffffffff81111561372f5761372e61214c565b5b6137398254612d86565b613744828285613680565b600060209050601f8311600181146137775760008415613765578287015190505b61376f85826136f1565b8655506137d7565b601f19841661378586612dc2565b60005b828110156137ad57848901518255600182019150602085019450602081019050613788565b868310156137ca57848901516137c6601f8916826136d3565b8355505b6001600288020188555050505b505050505050565b7f4f776e61626c653a206e6577206f776e657220697320746865207a65726f206160008201527f6464726573730000000000000000000000000000000000000000000000000000602082015250565b600061383b60268361287b565b9150613846826137df565b604082019050919050565b6000602082019050818103600083015261386a8161382e565b9050919050565b7f4f776e61626c653a2063616c6c6572206973206e6f7420746865206f776e6572600082015250565b60006138a760208361287b565b91506138b282613871565b602082019050919050565b600060208201905081810360008301526138d68161389a565b9050919050565b60006138e8826122d3565b9050919050565b6138f8816138dd565b811461390357600080fd5b50565b600081519050613915816138ef565b92915050565b600061392e613929846125af565b6121ac565b90508281526020810184848401111561394a57613949612136565b5b613955848285612a01565b509392505050565b600082601f83011261397257613971612131565b5b815161398284826020860161391b565b91505092915050565b600080600080600060a086880312156139a7576139a6612036565b5b60006139b588828901613906565b95505060206139c688828901613906565b94505060406139d788828901613404565b935050606086015167ffffffffffffffff8111156139f8576139f761203b565b5b613a0488828901612ce0565b925050608086015167ffffffffffffffff811115613a2557613a2461203b565b5b613a318882890161395d565b9150509295509295909350565b600060c082019050613a5360008301896131f4565b613a606020830188612715565b613a6d6040830187612715565b613a7a6060830186612519565b8181036080830152613a8c8185612a2b565b905081810360a0830152613aa0818461315a565b9050979650505050505050565b613ab6816120c5565b82525050565b604082016000820151613ad26000850182613288565b506020820151613ae56020850182613aad565b50505050565b6000604082019050613b006000830184613abc565b92915050565b7f4e487b7100000000000000000000000000000000000000000000000000000000600052601160045260246000fd5b6000613b408261250f565b9150613b4b8361250f565b9250828202613b598161250f565b91508282048414831517613b7057613b6f613b06565b5b5092915050565b6000613b828261250f565b9150613b8d8361250f565b9250828201905080821115613ba557613ba4613b06565b5b92915050565b7f4e487b7100000000000000000000000000000000000000000000000000000000600052603260045260246000fd5b6000613be58261250f565b915060008203613bf857613bf7613b06565b5b600182039050919050565b7f537472696e67733a20686578206c656e67746820696e73756666696369656e74600082015250565b6000613c3960208361287b565b9150613c4482613c03565b602082019050919050565b60006020820190508181036000830152613c6881613c2c565b9050919050565b613c78816120fb565b82525050565b613c8781612040565b82525050565b600061010082019050613ca3600083018b612715565b613cb0602083018a612519565b613cbd6040830189613c6f565b613cca6060830188612715565b613cd76080830187613c7e565b613ce460a0830186612519565b613cf160c0830185612519565b81810360e0830152613d03818461315a565b90509998505050505050505050565b7f4e487b7100000000000000000000000000000000000000000000000000000000600052601260045260246000fd5b6000613d4c8261250f565b9150613d578361250f565b925082613d6757613d66613d12565b5b828206905092915050565b6000613d7d8261250f565b9150613d888361250f565b9250828203905081811115613da057613d9f613b06565b5b92915050565b6000613dc1613dbc613db7846122d3565b6135e5565b6122d3565b9050919050565b6000613dd382613da6565b9050919050565b6000613de582613dc8565b9050919050565b60008160601b9050919050565b6000613e0482613dec565b9050919050565b6000613e1682613df9565b9050919050565b613e2e613e2982613dda565b613e0b565b82525050565b6000819050919050565b613e4f613e4a8261250f565b613e34565b82525050565b6000613e618285613e1d565b601482019150613e718284613e3e565b6020820191508190509392505050565b6000606082019050613e966000830186612715565b613ea36020830185612519565b8181036040830152613eb5818461315a565b9050949350505050565b7f756e61626c6520746f207472616e73666572416e6443616c6c20746f206f726160008201527f636c650000000000000000000000000000000000000000000000000000000000602082015250565b6000613f1b60238361287b565b9150613f2682613ebf565b604082019050919050565b60006020820190508181036000830152613f4a81613f0e565b9050919050565b60008160011c9050919050565b6000808291508390505b6001851115613fa857808604811115613f8457613f83613b06565b5b6001851615613f935780820291505b8081029050613fa185613f51565b9450613f68565b94509492505050565b600082613fc1576001905061407d565b81613fcf576000905061407d565b8160018114613fe55760028114613fef5761401e565b600191505061407d565b60ff84111561400157614000613b06565b5b8360020a91508482111561401857614017613b06565b5b5061407d565b5060208310610133831016604e8410600b84101617156140535782820a90508381111561404e5761404d613b06565b5b61407d565b6140608484846001613f5e565b9250905081840481111561407757614076613b06565b5b81810290505b9392505050565b600061408f8261250f565b915061409a8361250f565b92506140c77fffffffffffffffffffffffffffffffffffffffffffffffffffffffffffffffff8484613fb1565b90509291505056fea2646970667358221220e4597d96d893b7e0c53aa2bb945f3b65a60e47c7ca713ac31218ce349360928164736f6c63430008110033",
  "immutableReferences": {
    "14": [
      {
        "length": 32,
        "start": 2974
      },
      {
        "length": 32,
        "start": 4456
      }
    ]
  },
  "source": "// SPDX-License-Identifier: MIT\r\npragma solidity ^0.8.17;\r\n\r\nimport {Assets} from \"./libraries/Assets.sol\";\r\nimport {Params} from \"./libraries/Params.sol\";\r\nimport {IKanvasInterop} from \"./interfaces/IKanvasInterop.sol\";\r\nimport {IKanvasInteropGame} from \"./interfaces/IKanvasInteropGame.sol\";\r\nimport {IKanvasGame} from \"./interfaces/IKanvasGame.sol\";\r\nimport {StringJoiner} from \"./libraries/StringJoiner.sol\";\r\n\r\nimport {Strings} from \"@openzeppelin/contracts/utils/Strings.sol\";\r\nimport {Ownable} from \"@openzeppelin/contracts/access/Ownable.sol\";\r\nimport {Context} from \"@openzeppelin/contracts/utils/Context.sol\";\r\n\r\nimport {CCIPReceiver} from \"@chainlink/contracts-ccip/src/v0.8/ccip/applications/CCIPReceiver.sol\";\r\nimport {IRouterClient} from \"@chainlink/contracts-ccip/src/v0.8/ccip/interfaces/IRouterClient.sol\";\r\nimport {Client} from \"@chainlink/contracts-ccip/src/v0.8/ccip/libraries/Client.sol\";\r\nimport {ChainlinkClient, Chainlink, LinkTokenInterface} from \"@chainlink/contracts/src/v0.8/ChainlinkClient.sol\";\r\n\r\n// ! FOR POLYGON ALONE - HARDCODED VALUES\r\n\r\ncontract KanvasInterop is\r\n    IKanvasInterop,\r\n    Context,\r\n    CCIPReceiver,\r\n    ChainlinkClient,\r\n    Ownable\r\n{\r\n    uint64 private constant POLYGON_SELECTOR = 14767482510784806043;\r\n    uint256 public constant MAX_PROPERTIES_LEN = 20;\r\n    uint256 public constant MAX_TEMPLATES_LEN = 5;\r\n    using Chainlink for Chainlink.Request;\r\n\r\n    string private BASE_URL = \"\";\r\n\r\n    bytes32 private jobId;\r\n    uint256 private fee;\r\n\r\n    mapping(address => address) private _games;\r\n\r\n    mapping(bytes32 => Assets.Request) private _requests;\r\n\r\n    mapping(uint64 => address) private _interops;\r\n\r\n    IRouterClient private _router;\r\n\r\n    constructor(address receiver) CCIPReceiver(receiver) Ownable() {\r\n        setChainlinkToken(0x0b9d5D9136855f6FEc3c0993feE6E9CE8a297846);\r\n        setChainlinkOracle(0x022EEA14A6010167ca026B32576D6686dD7e85d2);\r\n        jobId = \"7d80a6386ef543a3abb52817f6707e3b\";\r\n        fee = (1 * LINK_DIVISIBILITY) / 10;\r\n\r\n        _router = IRouterClient(getRouter());\r\n    }\r\n\r\n    function _createGame(\r\n        uint64 /* chainSelector */,\r\n        Params.InteropGame memory params\r\n    ) external override {\r\n        _games[_msgSender()] = params.gameId;\r\n    }\r\n\r\n    function _generateUri(\r\n        address playerId,\r\n        string[] memory properties,\r\n        string memory fields\r\n    ) external override {\r\n        require(properties.length <= MAX_PROPERTIES_LEN, \"Too many attributes\");\r\n\r\n        address gameId = _games[_msgSender()];\r\n        require(_games[gameId] != address(0), \"Game Not Found\");\r\n\r\n        Chainlink.Request memory req = buildChainlinkRequest(\r\n            jobId,\r\n            address(this),\r\n            this.fulfill.selector\r\n        );\r\n\r\n        // Set the URL to perform the GET request on\r\n        // https://server.com/generete/properties/fields/gameid/playerid\r\n        req.add(\r\n            \"get\",\r\n            string.concat(\r\n                BASE_URL,\r\n                \"/\",\r\n                StringJoiner.joinStrings(properties, \",\"),\r\n                \"/\",\r\n                fields,\r\n                \"/\",\r\n                Strings.toHexString(gameId),\r\n                \"/\",\r\n                Strings.toHexString(playerId)\r\n            )\r\n        );\r\n\r\n        // Chainlink nodes 1.0.0 and later support this format\r\n        req.add(\"path\", \"uri\");\r\n\r\n        // Sends the request\r\n        bytes32 requestId = sendChainlinkRequest(req, fee);\r\n\r\n        _requests[requestId] = Assets.Request({\r\n            gameId: gameId,\r\n            playerId: playerId,\r\n            fulfilled: false\r\n        });\r\n    }\r\n\r\n    function updateBaseUrl(string memory newBaseUrl) external onlyOwner {\r\n        BASE_URL = newBaseUrl;\r\n    }\r\n\r\n    function updateInterop(\r\n        uint64 chainSelector,\r\n        address kanvasRouter\r\n    ) external onlyOwner {\r\n        _interops[chainSelector] = kanvasRouter;\r\n    }\r\n\r\n    /** Receive the response in the form of string  */\r\n    function fulfill(\r\n        bytes32 requestId,\r\n        string memory uri\r\n    ) public recordChainlinkFulfillment(requestId) {\r\n        Assets.Request storage request = _requests[requestId];\r\n        require(!request.fulfilled, \"Already fulfilled\");\r\n\r\n        request.fulfilled = true;\r\n\r\n        require(_games[request.gameId] != address(0), \"Game Not Found\");\r\n\r\n        IKanvasGame game = IKanvasGame(request.gameId);\r\n        game._receiveUri(request.playerId, uri);\r\n    }\r\n\r\n    /** Allow withdraw of Link tokens from the contract */\r\n    function withdrawLink() public onlyOwner {\r\n        LinkTokenInterface link = LinkTokenInterface(chainlinkTokenAddress());\r\n        link.transfer(msg.sender, link.balanceOf(address(this)));\r\n    }\r\n\r\n    function _transferTo(\r\n        uint64 chainSelector,\r\n        address gameId,\r\n        address playerId,\r\n        uint256 tokenId,\r\n        string memory uri,\r\n        bytes memory data\r\n    ) external payable {\r\n        // Create an EVM2AnyMessage struct in memory with necessary information for sending a cross-chain message\r\n        Client.EVM2AnyMessage memory evm2AnyMessage = Client.EVM2AnyMessage({\r\n            // ABI-encoded receiver address\r\n            receiver: abi.encode(_interops[chainSelector]),\r\n            // ABI-encoded string message\r\n            data: abi.encode(gameId, playerId, tokenId, uri, data),\r\n            // Empty array indicating no tokens are being sent\r\n            tokenAmounts: new Client.EVMTokenAmount[](0),\r\n            // Additional arguments, setting gas limit and non-strict sequency mode\r\n            extraArgs: Client._argsToBytes(\r\n                Client.EVMExtraArgsV1({gasLimit: 400_000, strict: false})\r\n            ),\r\n            // Setting feeToken to zero address, indicating native asset will be used for fees\r\n            feeToken: address(0)\r\n        });\r\n\r\n        // Get the fee required to send the message\r\n        uint256 fees = _router.getFee(POLYGON_SELECTOR, evm2AnyMessage);\r\n\r\n        require(msg.value >= fees, \"Insufficient fee\");\r\n\r\n        // Send the message through the router and store the returned message ID\r\n        _router.ccipSend{value: fees}(POLYGON_SELECTOR, evm2AnyMessage);\r\n    }\r\n\r\n    // handle a received message\r\n    function _ccipReceive(\r\n        Client.Any2EVMMessage memory message\r\n    ) internal override {\r\n        (\r\n            address gameId,\r\n            address playerId,\r\n            uint256 tokenId,\r\n            string memory uri,\r\n            bytes memory data\r\n        ) = abi.decode(\r\n                message.data,\r\n                (address, address, uint256, string, bytes)\r\n            );\r\n\r\n        IKanvasInteropGame game = IKanvasInteropGame(gameId);\r\n        game._receiveFrom(\r\n            message.sourceChainSelector,\r\n            gameId,\r\n            playerId,\r\n            tokenId,\r\n            uri,\r\n            data\r\n        );\r\n    }\r\n}\r\n",
  "sourcePath": "C:\\Users\\DELL\\Documents\\kanvas\\blockchain\\contracts\\KanvasInterop.sol",
  "compiler": {
    "name": "solc",
    "version": "0.8.17+commit.8df45f5f.Emscripten.clang"
  },
  "schemaVersion": "3.4.11",
  "updatedAt": "2023-12-02T16:02:22.460Z",
  "devdoc": {
    "kind": "dev",
    "methods": {
      "ccipReceive((bytes32,uint64,bytes,bytes,(address,uint256)[]))": {
        "details": "Note ensure you check the msg.sender is the OffRampRouter",
        "params": {
          "message": "CCIP Message"
        }
      },
      "getRouter()": {
        "returns": {
          "_0": "i_router address"
        }
      },
      "owner()": {
        "details": "Returns the address of the current owner."
      },
      "renounceOwnership()": {
        "details": "Leaves the contract without owner. It will not be possible to call `onlyOwner` functions. Can only be called by the current owner. NOTE: Renouncing ownership will leave the contract without an owner, thereby disabling any functionality that is only available to the owner."
      },
      "supportsInterface(bytes4)": {
        "params": {
          "interfaceId": "The interfaceId to check"
        },
        "returns": {
          "_0": "true if the interfaceId is supported"
        }
      },
      "transferOwnership(address)": {
        "details": "Transfers ownership of the contract to a new account (`newOwner`). Can only be called by the current owner."
      }
    },
    "version": 1
  },
  "userdoc": {
    "kind": "user",
    "methods": {
      "ccipReceive((bytes32,uint64,bytes,bytes,(address,uint256)[]))": {
        "notice": "Called by the Router to deliver a message. If this reverts, any token transfers also revert. The message will move to a FAILED state and become available for manual execution."
      },
      "fulfill(bytes32,string)": {
        "notice": "Receive the response in the form of string  "
      },
      "getRouter()": {
        "notice": "Return the current router"
      },
      "supportsInterface(bytes4)": {
        "notice": "IERC165 supports an interfaceId"
      },
      "withdrawLink()": {
        "notice": "Allow withdraw of Link tokens from the contract "
      }
    },
    "version": 1
  }
}