{
  "contractName": "KanvasInterop",
  "abi": [
    {
      "inputs": [
        {
          "internalType": "address",
          "name": "ccipReceiver",
          "type": "address"
        },
        {
          "internalType": "address",
          "name": "functionOracle",
          "type": "address"
        }
      ],
      "stateMutability": "nonpayable",
      "type": "constructor"
    },
    {
      "inputs": [],
      "name": "EmptyArgs",
      "type": "error"
    },
    {
      "inputs": [],
      "name": "EmptySource",
      "type": "error"
    },
    {
      "inputs": [
        {
          "internalType": "address",
          "name": "router",
          "type": "address"
        }
      ],
      "name": "InvalidRouter",
      "type": "error"
    },
    {
      "inputs": [],
      "name": "NoInlineSecrets",
      "type": "error"
    },
    {
      "inputs": [],
      "name": "OnlyRouterCanFulfill",
      "type": "error"
    },
    {
      "anonymous": false,
      "inputs": [
        {
          "indexed": false,
          "internalType": "address",
          "name": "gameId",
          "type": "address"
        },
        {
          "indexed": false,
          "internalType": "string",
          "name": "name",
          "type": "string"
        },
        {
          "indexed": false,
          "internalType": "string",
          "name": "description",
          "type": "string"
        },
        {
          "indexed": false,
          "internalType": "string",
          "name": "avatar",
          "type": "string"
        },
        {
          "indexed": false,
          "internalType": "uint256",
          "name": "plan",
          "type": "uint256"
        },
        {
          "indexed": false,
          "internalType": "address",
          "name": "creator",
          "type": "address"
        },
        {
          "indexed": false,
          "internalType": "string",
          "name": "email",
          "type": "string"
        },
        {
          "indexed": false,
          "internalType": "string",
          "name": "website",
          "type": "string"
        }
      ],
      "name": "GameCreated",
      "type": "event"
    },
    {
      "anonymous": false,
      "inputs": [
        {
          "indexed": false,
          "internalType": "bytes32",
          "name": "requestId",
          "type": "bytes32"
        },
        {
          "indexed": false,
          "internalType": "address",
          "name": "gameId",
          "type": "address"
        },
        {
          "indexed": false,
          "internalType": "address",
          "name": "playerId",
          "type": "address"
        },
        {
          "indexed": false,
          "internalType": "enum Assets.EventType",
          "name": "eventType",
          "type": "uint8"
        },
        {
          "indexed": false,
          "internalType": "bytes",
          "name": "data",
          "type": "bytes"
        }
      ],
      "name": "GameEvent",
      "type": "event"
    },
    {
      "anonymous": false,
      "inputs": [
        {
          "indexed": true,
          "internalType": "address",
          "name": "previousOwner",
          "type": "address"
        },
        {
          "indexed": true,
          "internalType": "address",
          "name": "newOwner",
          "type": "address"
        }
      ],
      "name": "OwnershipTransferred",
      "type": "event"
    },
    {
      "anonymous": false,
      "inputs": [
        {
          "indexed": false,
          "internalType": "uint256",
          "name": "planId",
          "type": "uint256"
        },
        {
          "indexed": false,
          "internalType": "string",
          "name": "name",
          "type": "string"
        },
        {
          "indexed": false,
          "internalType": "uint256",
          "name": "cost",
          "type": "uint256"
        },
        {
          "indexed": false,
          "internalType": "string",
          "name": "color",
          "type": "string"
        },
        {
          "indexed": false,
          "internalType": "uint256",
          "name": "limit",
          "type": "uint256"
        }
      ],
      "name": "PlanCreated",
      "type": "event"
    },
    {
      "anonymous": false,
      "inputs": [
        {
          "indexed": true,
          "internalType": "bytes32",
          "name": "id",
          "type": "bytes32"
        }
      ],
      "name": "RequestFulfilled",
      "type": "event"
    },
    {
      "anonymous": false,
      "inputs": [
        {
          "indexed": true,
          "internalType": "bytes32",
          "name": "id",
          "type": "bytes32"
        }
      ],
      "name": "RequestSent",
      "type": "event"
    },
    {
      "anonymous": false,
      "inputs": [
        {
          "indexed": false,
          "internalType": "address",
          "name": "gameId",
          "type": "address"
        },
        {
          "indexed": false,
          "internalType": "string",
          "name": "templateUri",
          "type": "string"
        }
      ],
      "name": "TemplateAdded",
      "type": "event"
    },
    {
      "inputs": [],
      "name": "MAX_PROPERTIES_LEN",
      "outputs": [
        {
          "internalType": "uint256",
          "name": "",
          "type": "uint256"
        }
      ],
      "stateMutability": "view",
      "type": "function",
      "constant": true
    },
    {
      "inputs": [
        {
          "components": [
            {
              "internalType": "bytes32",
              "name": "messageId",
              "type": "bytes32"
            },
            {
              "internalType": "uint64",
              "name": "sourceChainSelector",
              "type": "uint64"
            },
            {
              "internalType": "bytes",
              "name": "sender",
              "type": "bytes"
            },
            {
              "internalType": "bytes",
              "name": "data",
              "type": "bytes"
            },
            {
              "components": [
                {
                  "internalType": "address",
                  "name": "token",
                  "type": "address"
                },
                {
                  "internalType": "uint256",
                  "name": "amount",
                  "type": "uint256"
                }
              ],
              "internalType": "struct Client.EVMTokenAmount[]",
              "name": "destTokenAmounts",
              "type": "tuple[]"
            }
          ],
          "internalType": "struct Client.Any2EVMMessage",
          "name": "message",
          "type": "tuple"
        }
      ],
      "name": "ccipReceive",
      "outputs": [],
      "stateMutability": "nonpayable",
      "type": "function"
    },
    {
      "inputs": [],
      "name": "getRouter",
      "outputs": [
        {
          "internalType": "address",
          "name": "",
          "type": "address"
        }
      ],
      "stateMutability": "view",
      "type": "function",
      "constant": true
    },
    {
      "inputs": [
        {
          "internalType": "bytes32",
          "name": "requestId",
          "type": "bytes32"
        },
        {
          "internalType": "bytes",
          "name": "response",
          "type": "bytes"
        },
        {
          "internalType": "bytes",
          "name": "err",
          "type": "bytes"
        }
      ],
      "name": "handleOracleFulfillment",
      "outputs": [],
      "stateMutability": "nonpayable",
      "type": "function"
    },
    {
      "inputs": [],
      "name": "owner",
      "outputs": [
        {
          "internalType": "address",
          "name": "",
          "type": "address"
        }
      ],
      "stateMutability": "view",
      "type": "function",
      "constant": true
    },
    {
      "inputs": [],
      "name": "renounceOwnership",
      "outputs": [],
      "stateMutability": "nonpayable",
      "type": "function"
    },
    {
      "inputs": [
        {
          "internalType": "bytes4",
          "name": "interfaceId",
          "type": "bytes4"
        }
      ],
      "name": "supportsInterface",
      "outputs": [
        {
          "internalType": "bool",
          "name": "",
          "type": "bool"
        }
      ],
      "stateMutability": "pure",
      "type": "function",
      "constant": true
    },
    {
      "inputs": [
        {
          "internalType": "address",
          "name": "newOwner",
          "type": "address"
        }
      ],
      "name": "transferOwnership",
      "outputs": [],
      "stateMutability": "nonpayable",
      "type": "function"
    },
    {
      "inputs": [
        {
          "internalType": "bytes32",
          "name": "newDonId",
          "type": "bytes32"
        }
      ],
      "name": "updateDonId",
      "outputs": [],
      "stateMutability": "nonpayable",
      "type": "function"
    },
    {
      "inputs": [
        {
          "internalType": "string",
          "name": "newSourceCode",
          "type": "string"
        }
      ],
      "name": "updateSourceCode",
      "outputs": [],
      "stateMutability": "nonpayable",
      "type": "function"
    },
    {
      "inputs": [
        {
          "internalType": "uint32",
          "name": "newLimit",
          "type": "uint32"
        }
      ],
      "name": "updateGasLimit",
      "outputs": [],
      "stateMutability": "nonpayable",
      "type": "function"
    },
    {
      "inputs": [
        {
          "internalType": "uint64",
          "name": "newSubscriptionId",
          "type": "uint64"
        }
      ],
      "name": "updateSubscriptionId",
      "outputs": [],
      "stateMutability": "nonpayable",
      "type": "function"
    },
    {
      "inputs": [],
      "name": "depositEth",
      "outputs": [],
      "stateMutability": "payable",
      "type": "function",
      "payable": true
    },
    {
      "inputs": [
        {
          "components": [
            {
              "internalType": "address",
              "name": "sourceGameId",
              "type": "address"
            }
          ],
          "internalType": "struct Params.InteropGame",
          "name": "params",
          "type": "tuple"
        }
      ],
      "name": "_createGame",
      "outputs": [],
      "stateMutability": "nonpayable",
      "type": "function"
    },
    {
      "inputs": [
        {
          "internalType": "address",
          "name": "playerId",
          "type": "address"
        },
        {
          "internalType": "string[]",
          "name": "props",
          "type": "string[]"
        },
        {
          "internalType": "string",
          "name": "fields",
          "type": "string"
        },
        {
          "internalType": "uint8",
          "name": "templateId",
          "type": "uint8"
        }
      ],
      "name": "_generateUri",
      "outputs": [],
      "stateMutability": "payable",
      "type": "function",
      "payable": true
    },
    {
      "inputs": [
        {
          "internalType": "uint64",
          "name": "chainSelector",
          "type": "uint64"
        },
        {
          "internalType": "address",
          "name": "kanvasRouter",
          "type": "address"
        }
      ],
      "name": "updateInterop",
      "outputs": [],
      "stateMutability": "nonpayable",
      "type": "function"
    },
    {
      "inputs": [
        {
          "internalType": "uint64",
          "name": "",
          "type": "uint64"
        },
        {
          "internalType": "address",
          "name": "",
          "type": "address"
        },
        {
          "internalType": "address",
          "name": "",
          "type": "address"
        },
        {
          "internalType": "uint256",
          "name": "",
          "type": "uint256"
        },
        {
          "internalType": "string",
          "name": "",
          "type": "string"
        },
        {
          "internalType": "bytes",
          "name": "",
          "type": "bytes"
        }
      ],
      "name": "_transferTo",
      "outputs": [],
      "stateMutability": "payable",
      "type": "function",
      "payable": true
    },
    {
      "inputs": [
        {
          "internalType": "address",
          "name": "gameId",
          "type": "address"
        },
        {
          "internalType": "address",
          "name": "playerId",
          "type": "address"
        },
        {
          "internalType": "uint256",
          "name": "tokenId",
          "type": "uint256"
        },
        {
          "internalType": "string",
          "name": "uri",
          "type": "string"
        },
        {
          "internalType": "bytes",
          "name": "data",
          "type": "bytes"
        }
      ],
      "name": "_withdrawTo",
      "outputs": [],
      "stateMutability": "payable",
      "type": "function",
      "payable": true
    },
    {
      "inputs": [],
      "name": "_generateFee",
      "outputs": [
        {
          "internalType": "uint256",
          "name": "",
          "type": "uint256"
        }
      ],
      "stateMutability": "view",
      "type": "function",
      "constant": true
    },
    {
      "inputs": [],
      "name": "_bridgeFee",
      "outputs": [
        {
          "internalType": "uint256",
          "name": "",
          "type": "uint256"
        }
      ],
      "stateMutability": "view",
      "type": "function",
      "constant": true
    }
  ],
  "bytecode": "0x60c060405261042a600260006101000a81548167ffffffffffffffff021916908367ffffffffffffffff160217905550620493e0600260086101000a81548163ffffffff021916908363ffffffff1602179055507f66756e2d706f6c79676f6e2d6d756d6261692d3100000000000000000000000060001b600355600060045560006005553480156200009157600080fd5b5060405162004e8e38038062004e8e8339818101604052810190620000b7919062000350565b8082600073ffffffffffffffffffffffffffffffffffffffff168173ffffffffffffffffffffffffffffffffffffffff16036200012e5760006040517fd7f73334000000000000000000000000000000000000000000000000000000008152600401620001259190620003a8565b60405180910390fd5b8073ffffffffffffffffffffffffffffffffffffffff1660808173ffffffffffffffffffffffffffffffffffffffff1681525050508073ffffffffffffffffffffffffffffffffffffffff1660a08173ffffffffffffffffffffffffffffffffffffffff168152505050620001b8620001ac6200021060201b60201c565b6200021860201b60201c565b620001c8620002dc60201b60201c565b600960006101000a81548173ffffffffffffffffffffffffffffffffffffffff021916908373ffffffffffffffffffffffffffffffffffffffff1602179055505050620003c5565b600033905090565b60008060009054906101000a900473ffffffffffffffffffffffffffffffffffffffff169050816000806101000a81548173ffffffffffffffffffffffffffffffffffffffff021916908373ffffffffffffffffffffffffffffffffffffffff1602179055508173ffffffffffffffffffffffffffffffffffffffff168173ffffffffffffffffffffffffffffffffffffffff167f8be0079c531659141344cd1fd0a4f28419497f9722a3daafe3b4186f6b6457e060405160405180910390a35050565b6000608051905090565b600080fd5b600073ffffffffffffffffffffffffffffffffffffffff82169050919050565b60006200031882620002eb565b9050919050565b6200032a816200030b565b81146200033657600080fd5b50565b6000815190506200034a816200031f565b92915050565b600080604083850312156200036a5762000369620002e6565b5b60006200037a8582860162000339565b92505060206200038d8582860162000339565b9150509250929050565b620003a2816200030b565b82525050565b6000602082019050620003bf600083018462000397565b92915050565b60805160a051614a95620003f9600039600081816104fc0152611e25015260008181610650015261088b0152614a956000f3fe60806040526004361061011f5760003560e01c80638b8ff358116100a0578063b0f479a111610064578063b0f479a114610369578063b3285e3214610394578063bc71c814146103bd578063eee6e573146103d9578063f2fde38b146103f55761011f565b80638b8ff358146102a55780638d6dc0eb146102d05780638da5cb5b146102ec57806392154a3d14610317578063a0238f81146103405761011f565b8063439370b1116100e7578063439370b11461020757806348f5630b146102115780636df0c7471461023c578063715018a61461026557806385572ffb1461027c5761011f565b806301ffc9a71461012457806304d5d06c146101615780630ca761751461018c57806314b1dd1b146101b557806334303bcd146101de575b600080fd5b34801561013057600080fd5b5061014b600480360381019061014691906129ff565b61041e565b6040516101589190612a47565b60405180910390f35b34801561016d57600080fd5b506101766104f0565b6040516101839190612a7b565b60405180910390f35b34801561019857600080fd5b506101b360048036038101906101ae9190612c12565b6104fa565b005b3480156101c157600080fd5b506101dc60048036038101906101d79190612cdd565b6105bc565b005b3480156101ea57600080fd5b5061020560048036038101906102009190612d46565b6105f0565b005b61020f61061c565b005b34801561021d57600080fd5b5061022661061e565b6040516102339190612a7b565b60405180910390f35b34801561024857600080fd5b50610263600480360381019061025e9190612d73565b610628565b005b34801561027157600080fd5b5061027a61063a565b005b34801561028857600080fd5b506102a3600480360381019061029e9190612dc4565b61064e565b005b3480156102b157600080fd5b506102ba6106f3565b6040516102c79190612a7b565b60405180910390f35b6102ea60048036038101906102e59190612f38565b6106f8565b005b3480156102f857600080fd5b50610301610733565b60405161030e919061300c565b60405180910390f35b34801561032357600080fd5b5061033e60048036038101906103399190613027565b61075c565b005b34801561034c57600080fd5b50610367600480360381019061036291906130ad565b6107ce565b005b34801561037557600080fd5b5061037e610887565b60405161038b919061300c565b60405180910390f35b3480156103a057600080fd5b506103bb60048036038101906103b691906130da565b6108af565b005b6103d760048036038101906103d29190613123565b6108ca565b005b6103f360048036038101906103ee91906132f5565b610d01565b005b34801561040157600080fd5b5061041c60048036038101906104179190613394565b61126d565b005b60007f85572ffb000000000000000000000000000000000000000000000000000000007bffffffffffffffffffffffffffffffffffffffffffffffffffffffff1916827bffffffffffffffffffffffffffffffffffffffffffffffffffffffff191614806104e957507f01ffc9a7000000000000000000000000000000000000000000000000000000007bffffffffffffffffffffffffffffffffffffffffffffffffffffffff1916827bffffffffffffffffffffffffffffffffffffffffffffffffffffffff1916145b9050919050565b6000600454905090565b7f000000000000000000000000000000000000000000000000000000000000000073ffffffffffffffffffffffffffffffffffffffff163373ffffffffffffffffffffffffffffffffffffffff161461057f576040517fc6829f8300000000000000000000000000000000000000000000000000000000815260040160405180910390fd5b61058a8383836112f0565b827f85e1543bf2f84fe80c6badbce3648c8539ad1df4d2b3d822938ca0538be727e660405160405180910390a2505050565b6105c4611558565b80600260006101000a81548167ffffffffffffffff021916908367ffffffffffffffff16021790555050565b6105f8611558565b80600260086101000a81548163ffffffff021916908363ffffffff16021790555050565b565b6000600554905090565b610630611558565b8060038190555050565b610642611558565b61064c60006115d6565b565b7f000000000000000000000000000000000000000000000000000000000000000073ffffffffffffffffffffffffffffffffffffffff163373ffffffffffffffffffffffffffffffffffffffff16146106de57336040517fd7f733340000000000000000000000000000000000000000000000000000000081526004016106d5919061300c565b60405180910390fd5b6106f0816106eb906135b4565b61169a565b50565b601481565b6040517f08c379a000000000000000000000000000000000000000000000000000000000815260040161072a9061364a565b60405180910390fd5b60008060009054906101000a900473ffffffffffffffffffffffffffffffffffffffff16905090565b610764611558565b80600860008467ffffffffffffffff1667ffffffffffffffff16815260200190815260200160002060006101000a81548173ffffffffffffffffffffffffffffffffffffffff021916908373ffffffffffffffffffffffffffffffffffffffff1602179055505050565b6107d6611829565b60066000836000015173ffffffffffffffffffffffffffffffffffffffff1673ffffffffffffffffffffffffffffffffffffffff168152602001908152602001600020600067ccf0a31a221f3c9b67ffffffffffffffff1667ffffffffffffffff16815260200190815260200160002060006101000a81548173ffffffffffffffffffffffffffffffffffffffff021916908373ffffffffffffffffffffffffffffffffffffffff16021790555050565b60007f0000000000000000000000000000000000000000000000000000000000000000905090565b6108b7611558565b80600190816108c69190613881565b5050565b600554341461090e576040517f08c379a00000000000000000000000000000000000000000000000000000000081526004016109059061399f565b60405180910390fd5b600073ffffffffffffffffffffffffffffffffffffffff166008600067ccf0a31a221f3c9b67ffffffffffffffff1667ffffffffffffffff16815260200190815260200160002060009054906101000a900473ffffffffffffffffffffffffffffffffffffffff1673ffffffffffffffffffffffffffffffffffffffff16036109cc576040517f08c379a00000000000000000000000000000000000000000000000000000000081526004016109c390613a0b565b60405180910390fd5b60006040518060a001604052806008600067ccf0a31a221f3c9b67ffffffffffffffff1667ffffffffffffffff16815260200190815260200160002060009054906101000a900473ffffffffffffffffffffffffffffffffffffffff16604051602001610a39919061300c565b60405160208183030381529060405281526020018787878787604051602001610a66959493929190613ae3565b6040516020818303038152906040528152602001600067ffffffffffffffff811115610a9557610a94612ae7565b5b604051908082528060200260200182016040528015610ace57816020015b610abb6128b7565b815260200190600190039081610ab35790505b508152602001600073ffffffffffffffffffffffffffffffffffffffff168152602001610b146040518060400160405280621e8480815260200160001515815250611831565b81525090506000600960009054906101000a900473ffffffffffffffffffffffffffffffffffffffff1673ffffffffffffffffffffffffffffffffffffffff166320487ded67ccf0a31a221f3c9b846040518363ffffffff1660e01b8152600401610b80929190613d24565b602060405180830381865afa158015610b9d573d6000803e3d6000fd5b505050506040513d601f19601f82011682018060405250810190610bc19190613d69565b905080471015610c06576040517f08c379a0000000000000000000000000000000000000000000000000000000008152600401610bfd90613de2565b60405180910390fd5b6000600960009054906101000a900473ffffffffffffffffffffffffffffffffffffffff1673ffffffffffffffffffffffffffffffffffffffff166396f4e9f98367ccf0a31a221f3c9b866040518463ffffffff1660e01b8152600401610c6e929190613d24565b60206040518083038185885af1158015610c8c573d6000803e3d6000fd5b50505050506040513d601f19601f82011682018060405250810190610cb19190613e17565b90507fe6dae862185d88c4597f4745a00933ea5be511621dcacc28511fa6029c050ccd81898960028760200151604051610cef959493929190613eca565b60405180910390a15050505050505050565b6004543414610d45576040517f08c379a0000000000000000000000000000000000000000000000000000000008152600401610d3c9061399f565b60405180910390fd5b601483511115610d8a576040517f08c379a0000000000000000000000000000000000000000000000000000000008152600401610d8190613f70565b60405180910390fd5b600060066000610d98611829565b73ffffffffffffffffffffffffffffffffffffffff1673ffffffffffffffffffffffffffffffffffffffff168152602001908152602001600020600067ccf0a31a221f3c9b67ffffffffffffffff1667ffffffffffffffff16815260200190815260200160002060009054906101000a900473ffffffffffffffffffffffffffffffffffffffff169050600073ffffffffffffffffffffffffffffffffffffffff168173ffffffffffffffffffffffffffffffffffffffff1603610e91576040517f08c379a0000000000000000000000000000000000000000000000000000000008152600401610e8890613fdc565b60405180910390fd5b6000600567ffffffffffffffff811115610eae57610ead612ae7565b5b604051908082528060200260200182016040528015610ee157816020015b6060815260200190600190039081610ecc5790505b50905073__StringJoiner__________________________635c8656e0866040518263ffffffff1660e01b8152600401610f1b9190614165565b600060405180830381865af4158015610f38573d6000803e3d6000fd5b505050506040513d6000823e3d601f19601f82011682018060405250810190610f61919061420a565b81600081518110610f7557610f74614253565b5b60200260200101819052508381600181518110610f9557610f94614253565b5b6020026020010181905250610fa9826118b0565b81600281518110610fbd57610fbc614253565b5b6020026020010181905250610fd1866118b0565b81600381518110610fe557610fe4614253565b5b6020026020010181905250610ffc8360ff166118dd565b816004815181106110105761100f614253565b5b60200260200101819052506110236128e7565b6110c060018054611033906136a4565b80601f016020809104026020016040519081016040528092919081815260200182805461105f906136a4565b80156110ac5780601f10611081576101008083540402835291602001916110ac565b820191906000526020600020905b81548152906001019060200180831161108f57829003601f168201915b5050505050826119ab90919063ffffffff16565b6110d382826119bc90919063ffffffff16565b60006111136110e183611a04565b600260009054906101000a900467ffffffffffffffff16600260089054906101000a900463ffffffff16600354611e20565b905060405180606001604052808573ffffffffffffffffffffffffffffffffffffffff1681526020018973ffffffffffffffffffffffffffffffffffffffff168152602001600015158152506007600083815260200190815260200160002060008201518160000160006101000a81548173ffffffffffffffffffffffffffffffffffffffff021916908373ffffffffffffffffffffffffffffffffffffffff16021790555060208201518160010160006101000a81548173ffffffffffffffffffffffffffffffffffffffff021916908373ffffffffffffffffffffffffffffffffffffffff16021790555060408201518160010160146101000a81548160ff0219169083151502179055509050507fe6dae862185d88c4597f4745a00933ea5be511621dcacc28511fa6029c050ccd81858a60008a60405161125b959493929190613eca565b60405180910390a15050505050505050565b611275611558565b600073ffffffffffffffffffffffffffffffffffffffff168173ffffffffffffffffffffffffffffffffffffffff16036112e4576040517f08c379a00000000000000000000000000000000000000000000000000000000081526004016112db906142f4565b60405180910390fd5b6112ed816115d6565b50565b60006007600085815260200190815260200160002090508060010160149054906101000a900460ff1615611359576040517f08c379a000000000000000000000000000000000000000000000000000000000815260040161135090614360565b60405180910390fd5b6000825111156113f1577fe6dae862185d88c4597f4745a00933ea5be511621dcacc28511fa6029c050ccd848260000160009054906101000a900473ffffffffffffffffffffffffffffffffffffffff168360010160009054906101000a900473ffffffffffffffffffffffffffffffffffffffff166001866040516113e3959493929190613eca565b60405180910390a150611553565b60018160010160146101000a81548160ff02191690831515021790555060008160000160009054906101000a900473ffffffffffffffffffffffffffffffffffffffff1690508073ffffffffffffffffffffffffffffffffffffffff16638f9c39568360010160009054906101000a900473ffffffffffffffffffffffffffffffffffffffff16866040518363ffffffff1660e01b8152600401611496929190614380565b600060405180830381600087803b1580156114b057600080fd5b505af11580156114c4573d6000803e3d6000fd5b505050507fe6dae862185d88c4597f4745a00933ea5be511621dcacc28511fa6029c050ccd858360000160009054906101000a900473ffffffffffffffffffffffffffffffffffffffff168460010160009054906101000a900473ffffffffffffffffffffffffffffffffffffffff16600188604051611548959493929190613eca565b60405180910390a150505b505050565b611560611829565b73ffffffffffffffffffffffffffffffffffffffff1661157e610733565b73ffffffffffffffffffffffffffffffffffffffff16146115d4576040517f08c379a00000000000000000000000000000000000000000000000000000000081526004016115cb906143fc565b60405180910390fd5b565b60008060009054906101000a900473ffffffffffffffffffffffffffffffffffffffff169050816000806101000a81548173ffffffffffffffffffffffffffffffffffffffff021916908373ffffffffffffffffffffffffffffffffffffffff1602179055508173ffffffffffffffffffffffffffffffffffffffff168173ffffffffffffffffffffffffffffffffffffffff167f8be0079c531659141344cd1fd0a4f28419497f9722a3daafe3b4186f6b6457e060405160405180910390a35050565b600080600080600085606001518060200190518101906116ba91906144ca565b945094509450945094506000600660008773ffffffffffffffffffffffffffffffffffffffff1673ffffffffffffffffffffffffffffffffffffffff168152602001908152602001600020600067ccf0a31a221f3c9b67ffffffffffffffff1667ffffffffffffffff16815260200190815260200160002060009054906101000a900473ffffffffffffffffffffffffffffffffffffffff16905060008190508073ffffffffffffffffffffffffffffffffffffffff16636d4195fb67ccf0a31a221f3c9b89898989896040518763ffffffff1660e01b81526004016117a59695949392919061457d565b600060405180830381600087803b1580156117bf57600080fd5b505af11580156117d3573d6000803e3d6000fd5b505050507fe6dae862185d88c4597f4745a00933ea5be511621dcacc28511fa6029c050ccd8860000151888860038c60600151604051611817959493929190613eca565b60405180910390a15050505050505050565b600033905090565b60606397a657c960e01b8260405160240161184c919061462a565b604051602081830303815290604052907bffffffffffffffffffffffffffffffffffffffffffffffffffffffff19166020820180517bffffffffffffffffffffffffffffffffffffffffffffffffffffffff83818316178352505050509050919050565b60606118d68273ffffffffffffffffffffffffffffffffffffffff16601460ff16611f03565b9050919050565b6060600060016118ec8461213f565b01905060008167ffffffffffffffff81111561190b5761190a612ae7565b5b6040519080825280601f01601f19166020018201604052801561193d5781602001600182028036833780820191505090505b509050600082602001820190505b6001156119a0578080600190039150507f3031323334353637383961626364656600000000000000000000000000000000600a86061a8153600a858161199457611993614645565b5b0494506000850361194b575b819350505050919050565b6119b88260008084612292565b5050565b60008151036119f7576040517ffe936cb700000000000000000000000000000000000000000000000000000000815260040160405180910390fd5b808260a001819052505050565b60606000611a1361010061233c565b9050611a5d6040518060400160405280600c81526020017f636f64654c6f636174696f6e00000000000000000000000000000000000000008152508261236390919063ffffffff16565b611a8683600001516002811115611a7757611a76613e53565b5b8261238c90919063ffffffff16565b611ace6040518060400160405280600881526020017f6c616e67756167650000000000000000000000000000000000000000000000008152508261236390919063ffffffff16565b611af783604001516000811115611ae857611ae7613e53565b5b8261238c90919063ffffffff16565b611b3f6040518060400160405280600681526020017f736f7572636500000000000000000000000000000000000000000000000000008152508261236390919063ffffffff16565b611b5683606001518261236390919063ffffffff16565b60008360a00151511115611c1257611bac6040518060400160405280600481526020017f61726773000000000000000000000000000000000000000000000000000000008152508261236390919063ffffffff16565b611bb5816123dc565b60005b8360a0015151811015611c0757611bf68460a001518281518110611bdf57611bde614253565b5b60200260200101518361236390919063ffffffff16565b80611c00906146a3565b9050611bb8565b50611c1181612404565b5b60008360800151511115611d535760006002811115611c3457611c33613e53565b5b83602001516002811115611c4b57611c4a613e53565b5b03611c82576040517fa80d31f700000000000000000000000000000000000000000000000000000000815260040160405180910390fd5b611cca6040518060400160405280600f81526020017f736563726574734c6f636174696f6e00000000000000000000000000000000008152508261236390919063ffffffff16565b611cf383602001516002811115611ce457611ce3613e53565b5b8261238c90919063ffffffff16565b611d3b6040518060400160405280600781526020017f73656372657473000000000000000000000000000000000000000000000000008152508261236390919063ffffffff16565b611d5283608001518261242c90919063ffffffff16565b5b60008360c00151511115611e0f57611da96040518060400160405280600981526020017f62797465734172677300000000000000000000000000000000000000000000008152508261236390919063ffffffff16565b611db2816123dc565b60005b8360c0015151811015611e0457611df38460c001518281518110611ddc57611ddb614253565b5b60200260200101518361242c90919063ffffffff16565b80611dfd906146a3565b9050611db5565b50611e0e81612404565b5b806000015160000151915050919050565b6000807f000000000000000000000000000000000000000000000000000000000000000073ffffffffffffffffffffffffffffffffffffffff1663461d27628688600188886040518663ffffffff1660e01b8152600401611e85959493929190614717565b6020604051808303816000875af1158015611ea4573d6000803e3d6000fd5b505050506040513d601f19601f82011682018060405250810190611ec89190613e17565b9050807f1131472297a800fee664d1d89cfa8f7676ff07189ecc53f80bbb5f4969099db860405160405180910390a280915050949350505050565b606060006002836002611f169190614771565b611f2091906147b3565b67ffffffffffffffff811115611f3957611f38612ae7565b5b6040519080825280601f01601f191660200182016040528015611f6b5781602001600182028036833780820191505090505b5090507f300000000000000000000000000000000000000000000000000000000000000081600081518110611fa357611fa2614253565b5b60200101907effffffffffffffffffffffffffffffffffffffffffffffffffffffffffffff1916908160001a9053507f78000000000000000000000000000000000000000000000000000000000000008160018151811061200757612006614253565b5b60200101907effffffffffffffffffffffffffffffffffffffffffffffffffffffffffffff1916908160001a905350600060018460026120479190614771565b61205191906147b3565b90505b60018111156120f1577f3031323334353637383961626364656600000000000000000000000000000000600f86166010811061209357612092614253565b5b1a60f81b8282815181106120aa576120a9614253565b5b60200101907effffffffffffffffffffffffffffffffffffffffffffffffffffffffffffff1916908160001a905350600485901c9450806120ea906147e7565b9050612054565b5060008414612135576040517f08c379a000000000000000000000000000000000000000000000000000000000815260040161212c9061485c565b60405180910390fd5b8091505092915050565b600080600090507a184f03e93ff9f4daa797ed6e38ed64bf6a1f010000000000000000831061219d577a184f03e93ff9f4daa797ed6e38ed64bf6a1f010000000000000000838161219357612192614645565b5b0492506040810190505b6d04ee2d6d415b85acef810000000083106121da576d04ee2d6d415b85acef810000000083816121d0576121cf614645565b5b0492506020810190505b662386f26fc10000831061220957662386f26fc1000083816121ff576121fe614645565b5b0492506010810190505b6305f5e1008310612232576305f5e100838161222857612227614645565b5b0492506008810190505b612710831061225757612710838161224d5761224c614645565b5b0492506004810190505b6064831061227a57606483816122705761226f614645565b5b0492506002810190505b600a8310612289576001810190505b80915050919050565b60008151036122cd576040517f22ce3edd00000000000000000000000000000000000000000000000000000000815260040160405180910390fd5b82846000019060028111156122e5576122e4613e53565b5b908160028111156122f9576122f8613e53565b5b81525050818460400190600081111561231557612314613e53565b5b9081600081111561232957612328613e53565b5b8152505080846060018190525050505050565b612344612959565b612352816000015183612455565b506000816020018181525050919050565b61237082600383516124ce565b61238781836000015161267790919063ffffffff16565b505050565b6123ae60026005600660ff16901b17836000015161269390919063ffffffff16565b506123d882826040516020016123c49190612a7b565b60405160208183030381529060405261242c565b5050565b6123e78160046126fd565b6001816020018181516123fa91906147b3565b9150818152505050565b61240f8160076126fd565b600181602001818151612422919061487c565b9150818152505050565b61243982600283516124ce565b61245081836000015161267790919063ffffffff16565b505050565b61245d612979565b600060208361246c91906148b0565b146124985760208261247e91906148b0565b602061248a919061487c565b8261249591906147b3565b91505b8183602001818152505060405180845260008152828101602001818110156124bf57600080fd5b80604052505082905092915050565b60178167ffffffffffffffff1611612509576125038160058460ff16901b60ff1617846000015161269390919063ffffffff16565b50612672565b60ff8167ffffffffffffffff16116125675761253c601860058460ff16901b17846000015161269390919063ffffffff16565b506125618167ffffffffffffffff16600185600001516127239092919063ffffffff16565b50612671565b61ffff8167ffffffffffffffff16116125c65761259b601960058460ff16901b17846000015161269390919063ffffffff16565b506125c08167ffffffffffffffff16600285600001516127239092919063ffffffff16565b50612670565b63ffffffff8167ffffffffffffffff1611612627576125fc601a60058460ff16901b17846000015161269390919063ffffffff16565b506126218167ffffffffffffffff16600485600001516127239092919063ffffffff16565b5061266f565b612648601b60058460ff16901b17846000015161269390919063ffffffff16565b5061266d8167ffffffffffffffff16600885600001516127239092919063ffffffff16565b505b5b5b5b505050565b61267f612979565b61268b838384516127b0565b905092915050565b61269b612979565b6000836000015151905060006001826126b491906147b3565b9050846020015182106126d8576126d7856002836126d29190614771565b612893565b5b845160208382010185815381518311156126f0578282525b5050849250505092915050565b61271e601f60058360ff16901b17836000015161269390919063ffffffff16565b505050565b61272b612979565b600084600001515190506000818461274391906147b3565b9050856020015181111561276857612767866002836127629190614771565b612893565b5b600060018561010061277a9190614a14565b612784919061487c565b9050865182810187831982511617815281518411156127a1578382525b50508693505050509392505050565b6127b8612979565b82518211156127c657600080fd5b60008460000151519050600083826127de91906147b3565b9050856020015181111561280357612802866002836127fd9190614771565b612893565b5b6000808751805185602083010193508085111561281e578482525b60208901925050505b60208610612865578051825260208261284091906147b3565b915060208161284f91906147b3565b905060208661285e919061487c565b9550612827565b60006001876020036101000a0390508019825116818451168181178552505050879450505050509392505050565b6000826000015190506128a68383612455565b506128b18382612677565b50505050565b6040518060400160405280600073ffffffffffffffffffffffffffffffffffffffff168152602001600081525090565b6040518060e001604052806000600281111561290657612905613e53565b5b81526020016000600281111561291f5761291e613e53565b5b815260200160008081111561293757612936613e53565b5b8152602001606081526020016060815260200160608152602001606081525090565b604051806040016040528061296c612979565b8152602001600081525090565b604051806040016040528060608152602001600081525090565b6000604051905090565b600080fd5b600080fd5b60007fffffffff0000000000000000000000000000000000000000000000000000000082169050919050565b6129dc816129a7565b81146129e757600080fd5b50565b6000813590506129f9816129d3565b92915050565b600060208284031215612a1557612a1461299d565b5b6000612a23848285016129ea565b91505092915050565b60008115159050919050565b612a4181612a2c565b82525050565b6000602082019050612a5c6000830184612a38565b92915050565b6000819050919050565b612a7581612a62565b82525050565b6000602082019050612a906000830184612a6c565b92915050565b6000819050919050565b612aa981612a96565b8114612ab457600080fd5b50565b600081359050612ac681612aa0565b92915050565b600080fd5b600080fd5b6000601f19601f8301169050919050565b7f4e487b7100000000000000000000000000000000000000000000000000000000600052604160045260246000fd5b612b1f82612ad6565b810181811067ffffffffffffffff82111715612b3e57612b3d612ae7565b5b80604052505050565b6000612b51612993565b9050612b5d8282612b16565b919050565b600067ffffffffffffffff821115612b7d57612b7c612ae7565b5b612b8682612ad6565b9050602081019050919050565b82818337600083830152505050565b6000612bb5612bb084612b62565b612b47565b905082815260208101848484011115612bd157612bd0612ad1565b5b612bdc848285612b93565b509392505050565b600082601f830112612bf957612bf8612acc565b5b8135612c09848260208601612ba2565b91505092915050565b600080600060608486031215612c2b57612c2a61299d565b5b6000612c3986828701612ab7565b935050602084013567ffffffffffffffff811115612c5a57612c596129a2565b5b612c6686828701612be4565b925050604084013567ffffffffffffffff811115612c8757612c866129a2565b5b612c9386828701612be4565b9150509250925092565b600067ffffffffffffffff82169050919050565b612cba81612c9d565b8114612cc557600080fd5b50565b600081359050612cd781612cb1565b92915050565b600060208284031215612cf357612cf261299d565b5b6000612d0184828501612cc8565b91505092915050565b600063ffffffff82169050919050565b612d2381612d0a565b8114612d2e57600080fd5b50565b600081359050612d4081612d1a565b92915050565b600060208284031215612d5c57612d5b61299d565b5b6000612d6a84828501612d31565b91505092915050565b600060208284031215612d8957612d8861299d565b5b6000612d9784828501612ab7565b91505092915050565b600080fd5b600060a08284031215612dbb57612dba612da0565b5b81905092915050565b600060208284031215612dda57612dd961299d565b5b600082013567ffffffffffffffff811115612df857612df76129a2565b5b612e0484828501612da5565b91505092915050565b600073ffffffffffffffffffffffffffffffffffffffff82169050919050565b6000612e3882612e0d565b9050919050565b612e4881612e2d565b8114612e5357600080fd5b50565b600081359050612e6581612e3f565b92915050565b612e7481612a62565b8114612e7f57600080fd5b50565b600081359050612e9181612e6b565b92915050565b600067ffffffffffffffff821115612eb257612eb1612ae7565b5b612ebb82612ad6565b9050602081019050919050565b6000612edb612ed684612e97565b612b47565b905082815260208101848484011115612ef757612ef6612ad1565b5b612f02848285612b93565b509392505050565b600082601f830112612f1f57612f1e612acc565b5b8135612f2f848260208601612ec8565b91505092915050565b60008060008060008060c08789031215612f5557612f5461299d565b5b6000612f6389828a01612cc8565b9650506020612f7489828a01612e56565b9550506040612f8589828a01612e56565b9450506060612f9689828a01612e82565b935050608087013567ffffffffffffffff811115612fb757612fb66129a2565b5b612fc389828a01612f0a565b92505060a087013567ffffffffffffffff811115612fe457612fe36129a2565b5b612ff089828a01612be4565b9150509295509295509295565b61300681612e2d565b82525050565b60006020820190506130216000830184612ffd565b92915050565b6000806040838503121561303e5761303d61299d565b5b600061304c85828601612cc8565b925050602061305d85828601612e56565b9150509250929050565b600080fd5b600080fd5b60006020828403121561308757613086613067565b5b6130916020612b47565b905060006130a184828501612e56565b60008301525092915050565b6000602082840312156130c3576130c261299d565b5b60006130d184828501613071565b91505092915050565b6000602082840312156130f0576130ef61299d565b5b600082013567ffffffffffffffff81111561310e5761310d6129a2565b5b61311a84828501612f0a565b91505092915050565b600080600080600060a0868803121561313f5761313e61299d565b5b600061314d88828901612e56565b955050602061315e88828901612e56565b945050604061316f88828901612e82565b935050606086013567ffffffffffffffff8111156131905761318f6129a2565b5b61319c88828901612f0a565b925050608086013567ffffffffffffffff8111156131bd576131bc6129a2565b5b6131c988828901612be4565b9150509295509295909350565b600067ffffffffffffffff8211156131f1576131f0612ae7565b5b602082029050602081019050919050565b600080fd5b600061321a613215846131d6565b612b47565b9050808382526020820190506020840283018581111561323d5761323c613202565b5b835b8181101561328457803567ffffffffffffffff81111561326257613261612acc565b5b80860161326f8982612f0a565b8552602085019450505060208101905061323f565b5050509392505050565b600082601f8301126132a3576132a2612acc565b5b81356132b3848260208601613207565b91505092915050565b600060ff82169050919050565b6132d2816132bc565b81146132dd57600080fd5b50565b6000813590506132ef816132c9565b92915050565b6000806000806080858703121561330f5761330e61299d565b5b600061331d87828801612e56565b945050602085013567ffffffffffffffff81111561333e5761333d6129a2565b5b61334a8782880161328e565b935050604085013567ffffffffffffffff81111561336b5761336a6129a2565b5b61337787828801612f0a565b9250506060613388878288016132e0565b91505092959194509250565b6000602082840312156133aa576133a961299d565b5b60006133b884828501612e56565b91505092915050565b600067ffffffffffffffff8211156133dc576133db612ae7565b5b602082029050602081019050919050565b60006040828403121561340357613402613067565b5b61340d6040612b47565b9050600061341d84828501612e56565b600083015250602061343184828501612e82565b60208301525092915050565b600061345061344b846133c1565b612b47565b9050808382526020820190506040840283018581111561347357613472613202565b5b835b8181101561349c578061348888826133ed565b845260208401935050604081019050613475565b5050509392505050565b600082601f8301126134bb576134ba612acc565b5b81356134cb84826020860161343d565b91505092915050565b600060a082840312156134ea576134e9613067565b5b6134f460a0612b47565b9050600061350484828501612ab7565b600083015250602061351884828501612cc8565b602083015250604082013567ffffffffffffffff81111561353c5761353b61306c565b5b61354884828501612be4565b604083015250606082013567ffffffffffffffff81111561356c5761356b61306c565b5b61357884828501612be4565b606083015250608082013567ffffffffffffffff81111561359c5761359b61306c565b5b6135a8848285016134a6565b60808301525092915050565b60006135c036836134d4565b9050919050565b600082825260208201905092915050565b7f4d6574686f64206e6f7420617661696c61626c652c20757365205f776974686460008201527f726177546f000000000000000000000000000000000000000000000000000000602082015250565b60006136346025836135c7565b915061363f826135d8565b604082019050919050565b6000602082019050818103600083015261366381613627565b9050919050565b600081519050919050565b7f4e487b7100000000000000000000000000000000000000000000000000000000600052602260045260246000fd5b600060028204905060018216806136bc57607f821691505b6020821081036136cf576136ce613675565b5b50919050565b60008190508160005260206000209050919050565b60006020601f8301049050919050565b600082821b905092915050565b6000600883026137377fffffffffffffffffffffffffffffffffffffffffffffffffffffffffffffffff826136fa565b61374186836136fa565b95508019841693508086168417925050509392505050565b6000819050919050565b600061377e61377961377484612a62565b613759565b612a62565b9050919050565b6000819050919050565b61379883613763565b6137ac6137a482613785565b848454613707565b825550505050565b600090565b6137c16137b4565b6137cc81848461378f565b505050565b5b818110156137f0576137e56000826137b9565b6001810190506137d2565b5050565b601f82111561383557613806816136d5565b61380f846136ea565b8101602085101561381e578190505b61383261382a856136ea565b8301826137d1565b50505b505050565b600082821c905092915050565b60006138586000198460080261383a565b1980831691505092915050565b60006138718383613847565b9150826002028217905092915050565b61388a8261366a565b67ffffffffffffffff8111156138a3576138a2612ae7565b5b6138ad82546136a4565b6138b88282856137f4565b600060209050601f8311600181146138eb57600084156138d9578287015190505b6138e38582613865565b86555061394b565b601f1984166138f9866136d5565b60005b82811015613921578489015182556001820191506020850194506020810190506138fc565b8683101561393e578489015161393a601f891682613847565b8355505b6001600288020188555050505b505050505050565b7f696e76616c6964204b616e766173206665650000000000000000000000000000600082015250565b60006139896012836135c7565b915061399482613953565b602082019050919050565b600060208201905081810360008301526139b88161397c565b9050919050565b7f436861696e206e6f7420737570706f7274656400000000000000000000000000600082015250565b60006139f56013836135c7565b9150613a00826139bf565b602082019050919050565b60006020820190508181036000830152613a24816139e8565b9050919050565b60005b83811015613a49578082015181840152602081019050613a2e565b60008484015250505050565b6000613a608261366a565b613a6a81856135c7565b9350613a7a818560208601613a2b565b613a8381612ad6565b840191505092915050565b600081519050919050565b600082825260208201905092915050565b6000613ab582613a8e565b613abf8185613a99565b9350613acf818560208601613a2b565b613ad881612ad6565b840191505092915050565b600060a082019050613af86000830188612ffd565b613b056020830187612ffd565b613b126040830186612a6c565b8181036060830152613b248185613a55565b90508181036080830152613b388184613aaa565b90509695505050505050565b613b4d81612c9d565b82525050565b600082825260208201905092915050565b6000613b6f82613a8e565b613b798185613b53565b9350613b89818560208601613a2b565b613b9281612ad6565b840191505092915050565b600081519050919050565b600082825260208201905092915050565b6000819050602082019050919050565b613bd281612e2d565b82525050565b613be181612a62565b82525050565b604082016000820151613bfd6000850182613bc9565b506020820151613c106020850182613bd8565b50505050565b6000613c228383613be7565b60408301905092915050565b6000602082019050919050565b6000613c4682613b9d565b613c508185613ba8565b9350613c5b83613bb9565b8060005b83811015613c8c578151613c738882613c16565b9750613c7e83613c2e565b925050600181019050613c5f565b5085935050505092915050565b600060a0830160008301518482036000860152613cb68282613b64565b91505060208301518482036020860152613cd08282613b64565b91505060408301518482036040860152613cea8282613c3b565b9150506060830151613cff6060860182613bc9565b5060808301518482036080860152613d178282613b64565b9150508091505092915050565b6000604082019050613d396000830185613b44565b8181036020830152613d4b8184613c99565b90509392505050565b600081519050613d6381612e6b565b92915050565b600060208284031215613d7f57613d7e61299d565b5b6000613d8d84828501613d54565b91505092915050565b7f496e73756666696369656e742066656500000000000000000000000000000000600082015250565b6000613dcc6010836135c7565b9150613dd782613d96565b602082019050919050565b60006020820190508181036000830152613dfb81613dbf565b9050919050565b600081519050613e1181612aa0565b92915050565b600060208284031215613e2d57613e2c61299d565b5b6000613e3b84828501613e02565b91505092915050565b613e4d81612a96565b82525050565b7f4e487b7100000000000000000000000000000000000000000000000000000000600052602160045260246000fd5b60048110613e9357613e92613e53565b5b50565b6000819050613ea482613e82565b919050565b6000613eb482613e96565b9050919050565b613ec481613ea9565b82525050565b600060a082019050613edf6000830188613e44565b613eec6020830187612ffd565b613ef96040830186612ffd565b613f066060830185613ebb565b8181036080830152613f188184613aaa565b90509695505050505050565b7f546f6f206d616e79206174747269627574657300000000000000000000000000600082015250565b6000613f5a6013836135c7565b9150613f6582613f24565b602082019050919050565b60006020820190508181036000830152613f8981613f4d565b9050919050565b7f47616d65204e6f7420466f756e64000000000000000000000000000000000000600082015250565b6000613fc6600e836135c7565b9150613fd182613f90565b602082019050919050565b60006020820190508181036000830152613ff581613fb9565b9050919050565b600081519050919050565b600082825260208201905092915050565b6000819050602082019050919050565b600082825260208201905092915050565b60006140448261366a565b61404e8185614028565b935061405e818560208601613a2b565b61406781612ad6565b840191505092915050565b600061407e8383614039565b905092915050565b6000602082019050919050565b600061409e82613ffc565b6140a88185614007565b9350836020820285016140ba85614018565b8060005b858110156140f657848403895281516140d78582614072565b94506140e283614086565b925060208a019950506001810190506140be565b50829750879550505050505092915050565b600082825260208201905092915050565b7f2c00000000000000000000000000000000000000000000000000000000000000600082015250565b600061414f600183614108565b915061415a82614119565b602082019050919050565b6000604082019050818103600083015261417f8184614093565b9050818103602083015261419281614142565b905092915050565b60006141ad6141a884612e97565b612b47565b9050828152602081018484840111156141c9576141c8612ad1565b5b6141d4848285613a2b565b509392505050565b600082601f8301126141f1576141f0612acc565b5b815161420184826020860161419a565b91505092915050565b6000602082840312156142205761421f61299d565b5b600082015167ffffffffffffffff81111561423e5761423d6129a2565b5b61424a848285016141dc565b91505092915050565b7f4e487b7100000000000000000000000000000000000000000000000000000000600052603260045260246000fd5b7f4f776e61626c653a206e6577206f776e657220697320746865207a65726f206160008201527f6464726573730000000000000000000000000000000000000000000000000000602082015250565b60006142de6026836135c7565b91506142e982614282565b604082019050919050565b6000602082019050818103600083015261430d816142d1565b9050919050565b7f416c72656164792066756c66696c6c6564000000000000000000000000000000600082015250565b600061434a6011836135c7565b915061435582614314565b602082019050919050565b600060208201905081810360008301526143798161433d565b9050919050565b60006040820190506143956000830185612ffd565b81810360208301526143a78184613a55565b90509392505050565b7f4f776e61626c653a2063616c6c6572206973206e6f7420746865206f776e6572600082015250565b60006143e66020836135c7565b91506143f1826143b0565b602082019050919050565b60006020820190508181036000830152614415816143d9565b9050919050565b600061442782612e0d565b9050919050565b6144378161441c565b811461444257600080fd5b50565b6000815190506144548161442e565b92915050565b600061446d61446884612b62565b612b47565b90508281526020810184848401111561448957614488612ad1565b5b614494848285613a2b565b509392505050565b600082601f8301126144b1576144b0612acc565b5b81516144c184826020860161445a565b91505092915050565b600080600080600060a086880312156144e6576144e561299d565b5b60006144f488828901614445565b955050602061450588828901614445565b945050604061451688828901613d54565b935050606086015167ffffffffffffffff811115614537576145366129a2565b5b614543888289016141dc565b925050608086015167ffffffffffffffff811115614564576145636129a2565b5b6145708882890161449c565b9150509295509295909350565b600060c0820190506145926000830189613b44565b61459f6020830188612ffd565b6145ac6040830187612ffd565b6145b96060830186612a6c565b81810360808301526145cb8185613a55565b905081810360a08301526145df8184613aaa565b9050979650505050505050565b6145f581612a2c565b82525050565b6040820160008201516146116000850182613bd8565b50602082015161462460208501826145ec565b50505050565b600060408201905061463f60008301846145fb565b92915050565b7f4e487b7100000000000000000000000000000000000000000000000000000000600052601260045260246000fd5b7f4e487b7100000000000000000000000000000000000000000000000000000000600052601160045260246000fd5b60006146ae82612a62565b91507fffffffffffffffffffffffffffffffffffffffffffffffffffffffffffffffff82036146e0576146df614674565b5b600182019050919050565b600061ffff82169050919050565b614702816146eb565b82525050565b61471181612d0a565b82525050565b600060a08201905061472c6000830188613b44565b818103602083015261473e8187613aaa565b905061474d60408301866146f9565b61475a6060830185614708565b6147676080830184613e44565b9695505050505050565b600061477c82612a62565b915061478783612a62565b925082820261479581612a62565b915082820484148315176147ac576147ab614674565b5b5092915050565b60006147be82612a62565b91506147c983612a62565b92508282019050808211156147e1576147e0614674565b5b92915050565b60006147f282612a62565b91506000820361480557614804614674565b5b600182039050919050565b7f537472696e67733a20686578206c656e67746820696e73756666696369656e74600082015250565b60006148466020836135c7565b915061485182614810565b602082019050919050565b6000602082019050818103600083015261487581614839565b9050919050565b600061488782612a62565b915061489283612a62565b92508282039050818111156148aa576148a9614674565b5b92915050565b60006148bb82612a62565b91506148c683612a62565b9250826148d6576148d5614645565b5b828206905092915050565b60008160011c9050919050565b6000808291508390505b60018511156149385780860481111561491457614913614674565b5b60018516156149235780820291505b8081029050614931856148e1565b94506148f8565b94509492505050565b6000826149515760019050614a0d565b8161495f5760009050614a0d565b8160018114614975576002811461497f576149ae565b6001915050614a0d565b60ff84111561499157614990614674565b5b8360020a9150848211156149a8576149a7614674565b5b50614a0d565b5060208310610133831016604e8410600b84101617156149e35782820a9050838111156149de576149dd614674565b5b614a0d565b6149f084848460016148ee565b92509050818404811115614a0757614a06614674565b5b81810290505b9392505050565b6000614a1f82612a62565b9150614a2a83612a62565b9250614a577fffffffffffffffffffffffffffffffffffffffffffffffffffffffffffffffff8484614941565b90509291505056fea2646970667358221220d531c14c9fccee9d3ee58a21e9f456e6678b05b30cb545f24a36ccea9f1970a764736f6c63430008130033",
  "immutableReferences": {
    "14": [
      {
        "length": 32,
        "start": 1616
      },
      {
        "length": 32,
        "start": 2187
      }
    ],
    "6623": [
      {
        "length": 32,
        "start": 1276
      },
      {
        "length": 32,
        "start": 7717
      }
    ]
  },
  "source": "// SPDX-License-Identifier: MIT\r\npragma solidity ^0.8.19;\r\n\r\nimport {Assets} from \"./libraries/Assets.sol\";\r\nimport {Params} from \"./libraries/Params.sol\";\r\nimport {IKanvasInterop} from \"./interfaces/IKanvasInterop.sol\";\r\nimport {IKanvasInteropGame} from \"./interfaces/IKanvasInteropGame.sol\";\r\nimport {StringJoiner} from \"./libraries/StringJoiner.sol\";\r\n\r\nimport {Strings} from \"@openzeppelin/contracts/utils/Strings.sol\";\r\nimport {Ownable} from \"@openzeppelin/contracts/access/Ownable.sol\";\r\nimport {Context} from \"@openzeppelin/contracts/utils/Context.sol\";\r\n\r\nimport {FunctionsClient} from \"./chainlink/FunctionsClient.sol\";\r\nimport {FunctionsRequest} from \"@chainlink/contracts/src/v0.8/functions/dev/v1_0_0/libraries/FunctionsRequest.sol\";\r\n\r\nimport {Client} from \"@chainlink/contracts-ccip/src/v0.8/ccip/libraries/Client.sol\";\r\nimport {CCIPReceiver} from \"@chainlink/contracts-ccip/src/v0.8/ccip/applications/CCIPReceiver.sol\";\r\nimport {IRouterClient} from \"@chainlink/contracts-ccip/src/v0.8/ccip/interfaces/IRouterClient.sol\";\r\n\r\n// For Polygon Mumbai - Alone\r\n// @dev Hardcoded vaolues for Mumbai\r\n\r\ncontract KanvasInterop is\r\n    IKanvasInterop,\r\n    Context,\r\n    CCIPReceiver,\r\n    FunctionsClient,\r\n    Ownable\r\n{\r\n    using FunctionsRequest for FunctionsRequest.Request;\r\n    uint64 private constant AVAX_SELECTOR = 14767482510784806043;\r\n\r\n    uint256 public constant MAX_PROPERTIES_LEN = 20;\r\n\r\n    // Javascript Chainlink functions source code\r\n    string private _sourceCode;\r\n\r\n    // Chainlink Polygon Subscription Id\r\n    uint64 private _subscriptionId = 1066;\r\n\r\n    // Chainlink functions fulfill callback gas limit\r\n    uint32 private _gasLimit = 300_000;\r\n\r\n    // Chainlink Polygon DON Id\r\n    bytes32 private _donId =\r\n        0x66756e2d706f6c79676f6e2d6d756d6261692d31000000000000000000000000;\r\n\r\n    // for testing purpose the generation fee is free\r\n    uint256 private _kanvasGenerateFee = 0;\r\n\r\n    // for testing purpose the bridge fee is free\r\n    uint256 private _kanvasBridgeFee = 0;\r\n\r\n    mapping(address => mapping(uint64 => address)) private _games;\r\n\r\n    mapping(bytes32 => Assets.Request) private _requests;\r\n\r\n    mapping(uint64 => address) private _interops;\r\n\r\n    IRouterClient private _router;\r\n\r\n    constructor(\r\n        address ccipReceiver,\r\n        address functionOracle\r\n    ) CCIPReceiver(ccipReceiver) Ownable() FunctionsClient(functionOracle) {\r\n        _router = IRouterClient(getRouter());\r\n    }\r\n\r\n    function updateDonId(bytes32 newDonId) external onlyOwner {\r\n        _donId = newDonId;\r\n    }\r\n\r\n    function updateSourceCode(string memory newSourceCode) external onlyOwner {\r\n        _sourceCode = newSourceCode;\r\n    }\r\n\r\n    function updateGasLimit(uint32 newLimit) external onlyOwner {\r\n        _gasLimit = newLimit;\r\n    }\r\n\r\n    function updateSubscriptionId(uint64 newSubscriptionId) external onlyOwner {\r\n        _subscriptionId = newSubscriptionId;\r\n    }\r\n\r\n    function depositEth() external payable {}\r\n\r\n    function _createGame(Params.InteropGame memory params) external override {\r\n        _games[params.sourceGameId][AVAX_SELECTOR] = _msgSender();\r\n    }\r\n\r\n    function _generateUri(\r\n        address playerId,\r\n        string[] memory props,\r\n        string memory fields,\r\n        uint8 templateId\r\n    ) external payable override {\r\n        require(msg.value == _kanvasGenerateFee, \"invalid Kanvas fee\");\r\n        require(props.length <= MAX_PROPERTIES_LEN, \"Too many attributes\");\r\n\r\n        address gameId = _games[_msgSender()][AVAX_SELECTOR];\r\n        require(gameId != address(0), \"Game Not Found\");\r\n\r\n        string[] memory args = new string[](5);\r\n        args[0] = StringJoiner.joinStrings(props, \",\");\r\n        args[1] = fields;\r\n        args[2] = Strings.toHexString(gameId);\r\n        args[3] = Strings.toHexString(playerId);\r\n        args[4] = Strings.toString(templateId);\r\n\r\n        // Initialize the request\r\n        FunctionsRequest.Request memory req;\r\n\r\n        // Soucre code\r\n        req.initializeRequestForInlineJavaScript(_sourceCode);\r\n\r\n        // Add arguments\r\n        req.setArgs(args);\r\n\r\n        bytes32 requestId = _sendRequest(\r\n            req.encodeCBOR(),\r\n            _subscriptionId,\r\n            _gasLimit,\r\n            _donId\r\n        );\r\n\r\n        _requests[requestId] = Assets.Request({\r\n            gameId: gameId,\r\n            playerId: playerId,\r\n            fulfilled: false\r\n        });\r\n\r\n        emit GameEvent(\r\n            requestId,\r\n            gameId,\r\n            playerId,\r\n            Assets.EventType.GENERATE_URI,\r\n            bytes(fields)\r\n        );\r\n    }\r\n\r\n    function updateInterop(\r\n        uint64 chainSelector,\r\n        address kanvasRouter\r\n    ) external onlyOwner {\r\n        _interops[chainSelector] = kanvasRouter;\r\n    }\r\n\r\n    /** Receive the response in the form of string  */\r\n    function fulfillRequest(\r\n        bytes32 requestId,\r\n        bytes memory response,\r\n        bytes memory err\r\n    ) internal override {\r\n        Assets.Request storage request = _requests[requestId];\r\n        require(!request.fulfilled, \"Already fulfilled\");\r\n\r\n        if (err.length > 0) {\r\n            emit GameEvent(\r\n                requestId,\r\n                request.gameId,\r\n                request.playerId,\r\n                Assets.EventType.RECEIVE_URI,\r\n                err\r\n            );\r\n            return;\r\n        }\r\n\r\n        request.fulfilled = true;\r\n\r\n        IKanvasInteropGame game = IKanvasInteropGame(request.gameId);\r\n        game._receiveUri(request.playerId, string(response));\r\n\r\n        emit GameEvent(\r\n            requestId,\r\n            request.gameId,\r\n            request.playerId,\r\n            Assets.EventType.RECEIVE_URI,\r\n            response\r\n        );\r\n    }\r\n\r\n    function _transferTo(\r\n        uint64 /* chainSelector */,\r\n        address /* gameId */,\r\n        address /* playerId */,\r\n        uint256 /* tokenId */,\r\n        string memory /* uri*/,\r\n        bytes memory /* data*/\r\n    ) external payable {\r\n        revert(\"Method not available, use _withdrawTo\");\r\n    }\r\n\r\n    function _withdrawTo(\r\n        address gameId,\r\n        address playerId,\r\n        uint256 tokenId,\r\n        string memory uri,\r\n        bytes memory data\r\n    ) external payable {\r\n        require(msg.value == _kanvasBridgeFee, \"invalid Kanvas fee\");\r\n        require(_interops[AVAX_SELECTOR] != address(0), \"Chain not supported\");\r\n\r\n        // Create an EVM2AnyMessage struct in memory with necessary information for sending a cross-chain message\r\n        Client.EVM2AnyMessage memory message = Client.EVM2AnyMessage({\r\n            // ABI-encoded receiver address\r\n            receiver: abi.encode(_interops[AVAX_SELECTOR]),\r\n            // ABI-encoded string message\r\n            data: abi.encode(gameId, playerId, tokenId, uri, data),\r\n            // Empty array indicating no tokens are being sent\r\n            tokenAmounts: new Client.EVMTokenAmount[](0),\r\n            // Additional arguments, setting gas limit and non-strict sequency mode\r\n            extraArgs: Client._argsToBytes(\r\n                Client.EVMExtraArgsV1({gasLimit: 2_000_000, strict: false})\r\n            ),\r\n            // Setting feeToken to zero address, indicating native asset will be used for fees\r\n            feeToken: address(0)\r\n        });\r\n\r\n        // Get the fee required to send the message\r\n        uint256 fees = _router.getFee(AVAX_SELECTOR, message);\r\n\r\n        require(address(this).balance >= fees, \"Insufficient fee\");\r\n\r\n        // Send the message through the router and store the returned message ID\r\n        bytes32 messageId = _router.ccipSend{value: fees}(\r\n            AVAX_SELECTOR,\r\n            message\r\n        );\r\n\r\n        // uint256 overspent = msg.value - fees;\r\n\r\n        // if (overspent > 0) {\r\n        //     address payable receiver = payable(gameId);\r\n        //     receiver.transfer(overspent);\r\n        // }\r\n\r\n        emit GameEvent(\r\n            messageId,\r\n            gameId,\r\n            playerId,\r\n            Assets.EventType.TRANSFER_TO,\r\n            message.data\r\n        );\r\n    }\r\n\r\n    function _generateFee() external view override returns (uint256) {\r\n        return _kanvasGenerateFee;\r\n    }\r\n\r\n    function _bridgeFee() external view override returns (uint256) {\r\n        return _kanvasBridgeFee;\r\n    }\r\n\r\n    // handle a received message\r\n    function _ccipReceive(\r\n        Client.Any2EVMMessage memory message\r\n    ) internal override {\r\n        (\r\n            address gameId,\r\n            address playerId,\r\n            uint256 tokenId,\r\n            string memory uri,\r\n            bytes memory data\r\n        ) = abi.decode(\r\n                message.data,\r\n                (address, address, uint256, string, bytes)\r\n            );\r\n\r\n        address interopGameId = _games[gameId][AVAX_SELECTOR];\r\n\r\n        IKanvasInteropGame game = IKanvasInteropGame(interopGameId);\r\n        game._receiveFrom(AVAX_SELECTOR, gameId, playerId, tokenId, uri, data);\r\n\r\n        emit GameEvent(\r\n            message.messageId,\r\n            gameId,\r\n            playerId,\r\n            Assets.EventType.RECEIVE_FROM,\r\n            message.data\r\n        );\r\n    }\r\n}\r\n",
  "sourcePath": "C:\\Users\\DELL\\Documents\\kanvas\\blockchain\\contracts\\KanvasInterop.sol",
  "compiler": {
    "name": "solc",
    "version": "0.8.19+commit.7dd6d404.Emscripten.clang"
  },
  "schemaVersion": "3.4.11",
  "updatedAt": "2023-12-10T21:39:36.063Z",
  "networkType": "ethereum",
  "devdoc": {
    "kind": "dev",
    "methods": {
      "ccipReceive((bytes32,uint64,bytes,bytes,(address,uint256)[]))": {
        "details": "Note ensure you check the msg.sender is the OffRampRouter",
        "params": {
          "message": "CCIP Message"
        }
      },
      "getRouter()": {
        "returns": {
          "_0": "i_router address"
        }
      },
      "handleOracleFulfillment(bytes32,bytes,bytes)": {
        "details": "Either response or error parameter will be set, but never both.",
        "params": {
          "err": "Aggregated error either from the request's source code or from the execution pipeline.",
          "requestId": "The requestId returned by FunctionsClient.sendRequest().",
          "response": "Aggregated response from the request's source code."
        }
      },
      "owner()": {
        "details": "Returns the address of the current owner."
      },
      "renounceOwnership()": {
        "details": "Leaves the contract without owner. It will not be possible to call `onlyOwner` functions. Can only be called by the current owner. NOTE: Renouncing ownership will leave the contract without an owner, thereby disabling any functionality that is only available to the owner."
      },
      "supportsInterface(bytes4)": {
        "params": {
          "interfaceId": "The interfaceId to check"
        },
        "returns": {
          "_0": "true if the interfaceId is supported"
        }
      },
      "transferOwnership(address)": {
        "details": "Transfers ownership of the contract to a new account (`newOwner`). Can only be called by the current owner."
      }
    },
    "version": 1
  },
  "userdoc": {
    "kind": "user",
    "methods": {
      "ccipReceive((bytes32,uint64,bytes,bytes,(address,uint256)[]))": {
        "notice": "Called by the Router to deliver a message. If this reverts, any token transfers also revert. The message will move to a FAILED state and become available for manual execution."
      },
      "getRouter()": {
        "notice": "Return the current router"
      },
      "handleOracleFulfillment(bytes32,bytes,bytes)": {
        "notice": "Chainlink Functions response handler called by the Functions Router during fullilment from the designated transmitter node in an OCR round."
      },
      "supportsInterface(bytes4)": {
        "notice": "IERC165 supports an interfaceId"
      }
    },
    "version": 1
  }
}