{
  "contractName": "KanvasInterop",
  "abi": [
    {
      "inputs": [
        {
          "internalType": "address",
          "name": "ccipReceiver",
          "type": "address"
        },
        {
          "internalType": "address",
          "name": "functionOracle",
          "type": "address"
        }
      ],
      "stateMutability": "nonpayable",
      "type": "constructor"
    },
    {
      "inputs": [],
      "name": "EmptyArgs",
      "type": "error"
    },
    {
      "inputs": [],
      "name": "EmptySource",
      "type": "error"
    },
    {
      "inputs": [
        {
          "internalType": "address",
          "name": "router",
          "type": "address"
        }
      ],
      "name": "InvalidRouter",
      "type": "error"
    },
    {
      "inputs": [],
      "name": "NoInlineSecrets",
      "type": "error"
    },
    {
      "inputs": [],
      "name": "OnlyRouterCanFulfill",
      "type": "error"
    },
    {
      "anonymous": false,
      "inputs": [
        {
          "indexed": false,
          "internalType": "address",
          "name": "gameId",
          "type": "address"
        },
        {
          "indexed": false,
          "internalType": "string",
          "name": "name",
          "type": "string"
        },
        {
          "indexed": false,
          "internalType": "string",
          "name": "description",
          "type": "string"
        },
        {
          "indexed": false,
          "internalType": "string",
          "name": "avatar",
          "type": "string"
        },
        {
          "indexed": false,
          "internalType": "uint256",
          "name": "plan",
          "type": "uint256"
        },
        {
          "indexed": false,
          "internalType": "address",
          "name": "creator",
          "type": "address"
        },
        {
          "indexed": false,
          "internalType": "string",
          "name": "email",
          "type": "string"
        },
        {
          "indexed": false,
          "internalType": "string",
          "name": "website",
          "type": "string"
        }
      ],
      "name": "GameCreated",
      "type": "event"
    },
    {
      "anonymous": false,
      "inputs": [
        {
          "indexed": false,
          "internalType": "bytes32",
          "name": "requestId",
          "type": "bytes32"
        },
        {
          "indexed": false,
          "internalType": "address",
          "name": "gameId",
          "type": "address"
        },
        {
          "indexed": false,
          "internalType": "address",
          "name": "playerId",
          "type": "address"
        },
        {
          "indexed": false,
          "internalType": "enum Assets.EventType",
          "name": "eventType",
          "type": "uint8"
        },
        {
          "indexed": false,
          "internalType": "bytes",
          "name": "data",
          "type": "bytes"
        }
      ],
      "name": "GameEvent",
      "type": "event"
    },
    {
      "anonymous": false,
      "inputs": [
        {
          "indexed": true,
          "internalType": "address",
          "name": "previousOwner",
          "type": "address"
        },
        {
          "indexed": true,
          "internalType": "address",
          "name": "newOwner",
          "type": "address"
        }
      ],
      "name": "OwnershipTransferred",
      "type": "event"
    },
    {
      "anonymous": false,
      "inputs": [
        {
          "indexed": false,
          "internalType": "uint256",
          "name": "planId",
          "type": "uint256"
        },
        {
          "indexed": false,
          "internalType": "string",
          "name": "name",
          "type": "string"
        },
        {
          "indexed": false,
          "internalType": "uint256",
          "name": "cost",
          "type": "uint256"
        },
        {
          "indexed": false,
          "internalType": "string",
          "name": "color",
          "type": "string"
        },
        {
          "indexed": false,
          "internalType": "uint256",
          "name": "limit",
          "type": "uint256"
        }
      ],
      "name": "PlanCreated",
      "type": "event"
    },
    {
      "anonymous": false,
      "inputs": [
        {
          "indexed": true,
          "internalType": "bytes32",
          "name": "id",
          "type": "bytes32"
        }
      ],
      "name": "RequestFulfilled",
      "type": "event"
    },
    {
      "anonymous": false,
      "inputs": [
        {
          "indexed": true,
          "internalType": "bytes32",
          "name": "id",
          "type": "bytes32"
        }
      ],
      "name": "RequestSent",
      "type": "event"
    },
    {
      "anonymous": false,
      "inputs": [
        {
          "indexed": false,
          "internalType": "address",
          "name": "gameId",
          "type": "address"
        },
        {
          "indexed": false,
          "internalType": "string",
          "name": "templateUri",
          "type": "string"
        }
      ],
      "name": "TemplateAdded",
      "type": "event"
    },
    {
      "inputs": [],
      "name": "MAX_PROPERTIES_LEN",
      "outputs": [
        {
          "internalType": "uint256",
          "name": "",
          "type": "uint256"
        }
      ],
      "stateMutability": "view",
      "type": "function"
    },
    {
      "inputs": [
        {
          "components": [
            {
              "internalType": "bytes32",
              "name": "messageId",
              "type": "bytes32"
            },
            {
              "internalType": "uint64",
              "name": "sourceChainSelector",
              "type": "uint64"
            },
            {
              "internalType": "bytes",
              "name": "sender",
              "type": "bytes"
            },
            {
              "internalType": "bytes",
              "name": "data",
              "type": "bytes"
            },
            {
              "components": [
                {
                  "internalType": "address",
                  "name": "token",
                  "type": "address"
                },
                {
                  "internalType": "uint256",
                  "name": "amount",
                  "type": "uint256"
                }
              ],
              "internalType": "struct Client.EVMTokenAmount[]",
              "name": "destTokenAmounts",
              "type": "tuple[]"
            }
          ],
          "internalType": "struct Client.Any2EVMMessage",
          "name": "message",
          "type": "tuple"
        }
      ],
      "name": "ccipReceive",
      "outputs": [],
      "stateMutability": "nonpayable",
      "type": "function"
    },
    {
      "inputs": [],
      "name": "getRouter",
      "outputs": [
        {
          "internalType": "address",
          "name": "",
          "type": "address"
        }
      ],
      "stateMutability": "view",
      "type": "function"
    },
    {
      "inputs": [
        {
          "internalType": "bytes32",
          "name": "requestId",
          "type": "bytes32"
        },
        {
          "internalType": "bytes",
          "name": "response",
          "type": "bytes"
        },
        {
          "internalType": "bytes",
          "name": "err",
          "type": "bytes"
        }
      ],
      "name": "handleOracleFulfillment",
      "outputs": [],
      "stateMutability": "nonpayable",
      "type": "function"
    },
    {
      "inputs": [],
      "name": "owner",
      "outputs": [
        {
          "internalType": "address",
          "name": "",
          "type": "address"
        }
      ],
      "stateMutability": "view",
      "type": "function"
    },
    {
      "inputs": [],
      "name": "renounceOwnership",
      "outputs": [],
      "stateMutability": "nonpayable",
      "type": "function"
    },
    {
      "inputs": [
        {
          "internalType": "bytes4",
          "name": "interfaceId",
          "type": "bytes4"
        }
      ],
      "name": "supportsInterface",
      "outputs": [
        {
          "internalType": "bool",
          "name": "",
          "type": "bool"
        }
      ],
      "stateMutability": "pure",
      "type": "function"
    },
    {
      "inputs": [
        {
          "internalType": "address",
          "name": "newOwner",
          "type": "address"
        }
      ],
      "name": "transferOwnership",
      "outputs": [],
      "stateMutability": "nonpayable",
      "type": "function"
    },
    {
      "inputs": [
        {
          "internalType": "bytes32",
          "name": "newDonId",
          "type": "bytes32"
        }
      ],
      "name": "updateDonId",
      "outputs": [],
      "stateMutability": "nonpayable",
      "type": "function"
    },
    {
      "inputs": [
        {
          "internalType": "string",
          "name": "newSourceCode",
          "type": "string"
        }
      ],
      "name": "updateSourceCode",
      "outputs": [],
      "stateMutability": "nonpayable",
      "type": "function"
    },
    {
      "inputs": [
        {
          "internalType": "uint32",
          "name": "newLimit",
          "type": "uint32"
        }
      ],
      "name": "updateGasLimit",
      "outputs": [],
      "stateMutability": "nonpayable",
      "type": "function"
    },
    {
      "inputs": [
        {
          "internalType": "uint64",
          "name": "newSubscriptionId",
          "type": "uint64"
        }
      ],
      "name": "updateSubscriptionId",
      "outputs": [],
      "stateMutability": "nonpayable",
      "type": "function"
    },
    {
      "inputs": [
        {
          "components": [
            {
              "internalType": "address",
              "name": "sourceGameId",
              "type": "address"
            }
          ],
          "internalType": "struct Params.InteropGame",
          "name": "params",
          "type": "tuple"
        }
      ],
      "name": "_createGame",
      "outputs": [],
      "stateMutability": "nonpayable",
      "type": "function"
    },
    {
      "inputs": [
        {
          "internalType": "address",
          "name": "playerId",
          "type": "address"
        },
        {
          "internalType": "string[]",
          "name": "props",
          "type": "string[]"
        },
        {
          "internalType": "string",
          "name": "fields",
          "type": "string"
        },
        {
          "internalType": "uint8",
          "name": "templateId",
          "type": "uint8"
        }
      ],
      "name": "_generateUri",
      "outputs": [],
      "stateMutability": "payable",
      "type": "function"
    },
    {
      "inputs": [
        {
          "internalType": "uint64",
          "name": "chainSelector",
          "type": "uint64"
        },
        {
          "internalType": "address",
          "name": "kanvasRouter",
          "type": "address"
        }
      ],
      "name": "updateInterop",
      "outputs": [],
      "stateMutability": "nonpayable",
      "type": "function"
    },
    {
      "inputs": [
        {
          "internalType": "uint64",
          "name": "",
          "type": "uint64"
        },
        {
          "internalType": "address",
          "name": "",
          "type": "address"
        },
        {
          "internalType": "address",
          "name": "",
          "type": "address"
        },
        {
          "internalType": "uint256",
          "name": "",
          "type": "uint256"
        },
        {
          "internalType": "string",
          "name": "",
          "type": "string"
        },
        {
          "internalType": "bytes",
          "name": "",
          "type": "bytes"
        }
      ],
      "name": "_transferTo",
      "outputs": [],
      "stateMutability": "payable",
      "type": "function"
    },
    {
      "inputs": [
        {
          "internalType": "address",
          "name": "gameId",
          "type": "address"
        },
        {
          "internalType": "address",
          "name": "playerId",
          "type": "address"
        },
        {
          "internalType": "uint256",
          "name": "tokenId",
          "type": "uint256"
        },
        {
          "internalType": "string",
          "name": "uri",
          "type": "string"
        },
        {
          "internalType": "bytes",
          "name": "data",
          "type": "bytes"
        }
      ],
      "name": "_withdrawTo",
      "outputs": [],
      "stateMutability": "payable",
      "type": "function"
    },
    {
      "inputs": [],
      "name": "_generateFee",
      "outputs": [
        {
          "internalType": "uint256",
          "name": "",
          "type": "uint256"
        }
      ],
      "stateMutability": "view",
      "type": "function"
    },
    {
      "inputs": [],
      "name": "_bridgeFee",
      "outputs": [
        {
          "internalType": "uint256",
          "name": "",
          "type": "uint256"
        }
      ],
      "stateMutability": "view",
      "type": "function"
    }
  ],
  "bytecode": "0x60c060405261042a600260006101000a81548167ffffffffffffffff021916908367ffffffffffffffff160217905550620493e0600260086101000a81548163ffffffff021916908363ffffffff1602179055507f66756e2d706f6c79676f6e2d6d756d6261692d3100000000000000000000000060001b600355600060045560006005553480156200009157600080fd5b5060405162004edf38038062004edf8339818101604052810190620000b7919062000350565b8082600073ffffffffffffffffffffffffffffffffffffffff168173ffffffffffffffffffffffffffffffffffffffff16036200012e5760006040517fd7f73334000000000000000000000000000000000000000000000000000000008152600401620001259190620003a8565b60405180910390fd5b8073ffffffffffffffffffffffffffffffffffffffff1660808173ffffffffffffffffffffffffffffffffffffffff1681525050508073ffffffffffffffffffffffffffffffffffffffff1660a08173ffffffffffffffffffffffffffffffffffffffff168152505050620001b8620001ac6200021060201b60201c565b6200021860201b60201c565b620001c8620002dc60201b60201c565b600960006101000a81548173ffffffffffffffffffffffffffffffffffffffff021916908373ffffffffffffffffffffffffffffffffffffffff1602179055505050620003c5565b600033905090565b60008060009054906101000a900473ffffffffffffffffffffffffffffffffffffffff169050816000806101000a81548173ffffffffffffffffffffffffffffffffffffffff021916908373ffffffffffffffffffffffffffffffffffffffff1602179055508173ffffffffffffffffffffffffffffffffffffffff168173ffffffffffffffffffffffffffffffffffffffff167f8be0079c531659141344cd1fd0a4f28419497f9722a3daafe3b4186f6b6457e060405160405180910390a35050565b6000608051905090565b600080fd5b600073ffffffffffffffffffffffffffffffffffffffff82169050919050565b60006200031882620002eb565b9050919050565b6200032a816200030b565b81146200033657600080fd5b50565b6000815190506200034a816200031f565b92915050565b600080604083850312156200036a5762000369620002e6565b5b60006200037a8582860162000339565b92505060206200038d8582860162000339565b9150509250929050565b620003a2816200030b565b82525050565b6000602082019050620003bf600083018462000397565b92915050565b60805160a051614ae6620003f9600039600081816104e70152611e7601526000818161063901526108740152614ae66000f3fe6080604052600436106101145760003560e01c80638b8ff358116100a0578063b0f479a111610064578063b0f479a114610354578063b3285e321461037f578063bc71c814146103a8578063eee6e573146103c4578063f2fde38b146103e057610114565b80638b8ff358146102905780638d6dc0eb146102bb5780638da5cb5b146102d757806392154a3d14610302578063a0238f811461032b57610114565b806334303bcd116100e757806334303bcd146101d357806348f5630b146101fc5780636df0c74714610227578063715018a61461025057806385572ffb1461026757610114565b806301ffc9a71461011957806304d5d06c146101565780630ca761751461018157806314b1dd1b146101aa575b600080fd5b34801561012557600080fd5b50610140600480360381019061013b9190612a50565b610409565b60405161014d9190612a98565b60405180910390f35b34801561016257600080fd5b5061016b6104db565b6040516101789190612acc565b60405180910390f35b34801561018d57600080fd5b506101a860048036038101906101a39190612c63565b6104e5565b005b3480156101b657600080fd5b506101d160048036038101906101cc9190612d2e565b6105a7565b005b3480156101df57600080fd5b506101fa60048036038101906101f59190612d97565b6105db565b005b34801561020857600080fd5b50610211610607565b60405161021e9190612acc565b60405180910390f35b34801561023357600080fd5b5061024e60048036038101906102499190612dc4565b610611565b005b34801561025c57600080fd5b50610265610623565b005b34801561027357600080fd5b5061028e60048036038101906102899190612e15565b610637565b005b34801561029c57600080fd5b506102a56106dc565b6040516102b29190612acc565b60405180910390f35b6102d560048036038101906102d09190612f89565b6106e1565b005b3480156102e357600080fd5b506102ec61071c565b6040516102f9919061305d565b60405180910390f35b34801561030e57600080fd5b5061032960048036038101906103249190613078565b610745565b005b34801561033757600080fd5b50610352600480360381019061034d91906130fe565b6107b7565b005b34801561036057600080fd5b50610369610870565b604051610376919061305d565b60405180910390f35b34801561038b57600080fd5b506103a660048036038101906103a1919061312b565b610898565b005b6103c260048036038101906103bd9190613174565b6108b3565b005b6103de60048036038101906103d99190613346565b610d52565b005b3480156103ec57600080fd5b50610407600480360381019061040291906133e5565b6112be565b005b60007f85572ffb000000000000000000000000000000000000000000000000000000007bffffffffffffffffffffffffffffffffffffffffffffffffffffffff1916827bffffffffffffffffffffffffffffffffffffffffffffffffffffffff191614806104d457507f01ffc9a7000000000000000000000000000000000000000000000000000000007bffffffffffffffffffffffffffffffffffffffffffffffffffffffff1916827bffffffffffffffffffffffffffffffffffffffffffffffffffffffff1916145b9050919050565b6000600454905090565b7f000000000000000000000000000000000000000000000000000000000000000073ffffffffffffffffffffffffffffffffffffffff163373ffffffffffffffffffffffffffffffffffffffff161461056a576040517fc6829f8300000000000000000000000000000000000000000000000000000000815260040160405180910390fd5b610575838383611341565b827f85e1543bf2f84fe80c6badbce3648c8539ad1df4d2b3d822938ca0538be727e660405160405180910390a2505050565b6105af6115a9565b80600260006101000a81548167ffffffffffffffff021916908367ffffffffffffffff16021790555050565b6105e36115a9565b80600260086101000a81548163ffffffff021916908363ffffffff16021790555050565b6000600554905090565b6106196115a9565b8060038190555050565b61062b6115a9565b6106356000611627565b565b7f000000000000000000000000000000000000000000000000000000000000000073ffffffffffffffffffffffffffffffffffffffff163373ffffffffffffffffffffffffffffffffffffffff16146106c757336040517fd7f733340000000000000000000000000000000000000000000000000000000081526004016106be919061305d565b60405180910390fd5b6106d9816106d490613605565b6116eb565b50565b601481565b6040517f08c379a00000000000000000000000000000000000000000000000000000000081526004016107139061369b565b60405180910390fd5b60008060009054906101000a900473ffffffffffffffffffffffffffffffffffffffff16905090565b61074d6115a9565b80600860008467ffffffffffffffff1667ffffffffffffffff16815260200190815260200160002060006101000a81548173ffffffffffffffffffffffffffffffffffffffff021916908373ffffffffffffffffffffffffffffffffffffffff1602179055505050565b6107bf61187a565b60066000836000015173ffffffffffffffffffffffffffffffffffffffff1673ffffffffffffffffffffffffffffffffffffffff168152602001908152602001600020600067ccf0a31a221f3c9b67ffffffffffffffff1667ffffffffffffffff16815260200190815260200160002060006101000a81548173ffffffffffffffffffffffffffffffffffffffff021916908373ffffffffffffffffffffffffffffffffffffffff16021790555050565b60007f0000000000000000000000000000000000000000000000000000000000000000905090565b6108a06115a9565b80600190816108af91906138d2565b5050565b60055434146108f7576040517f08c379a00000000000000000000000000000000000000000000000000000000081526004016108ee906139f0565b60405180910390fd5b600073ffffffffffffffffffffffffffffffffffffffff166008600067ccf0a31a221f3c9b67ffffffffffffffff1667ffffffffffffffff16815260200190815260200160002060009054906101000a900473ffffffffffffffffffffffffffffffffffffffff1673ffffffffffffffffffffffffffffffffffffffff16036109b5576040517f08c379a00000000000000000000000000000000000000000000000000000000081526004016109ac90613a5c565b60405180910390fd5b60006040518060a001604052806008600067ccf0a31a221f3c9b67ffffffffffffffff1667ffffffffffffffff16815260200190815260200160002060009054906101000a900473ffffffffffffffffffffffffffffffffffffffff16604051602001610a22919061305d565b60405160208183030381529060405281526020018787878787604051602001610a4f959493929190613b34565b6040516020818303038152906040528152602001600067ffffffffffffffff811115610a7e57610a7d612b38565b5b604051908082528060200260200182016040528015610ab757816020015b610aa4612908565b815260200190600190039081610a9c5790505b508152602001600073ffffffffffffffffffffffffffffffffffffffff168152602001610afd6040518060400160405280621e8480815260200160001515815250611882565b81525090506000600960009054906101000a900473ffffffffffffffffffffffffffffffffffffffff1673ffffffffffffffffffffffffffffffffffffffff166320487ded67ccf0a31a221f3c9b846040518363ffffffff1660e01b8152600401610b69929190613d75565b602060405180830381865afa158015610b86573d6000803e3d6000fd5b505050506040513d601f19601f82011682018060405250810190610baa9190613dba565b905080341015610bef576040517f08c379a0000000000000000000000000000000000000000000000000000000008152600401610be690613e33565b60405180910390fd5b6000600960009054906101000a900473ffffffffffffffffffffffffffffffffffffffff1673ffffffffffffffffffffffffffffffffffffffff166396f4e9f98367ccf0a31a221f3c9b866040518463ffffffff1660e01b8152600401610c57929190613d75565b60206040518083038185885af1158015610c75573d6000803e3d6000fd5b50505050506040513d601f19601f82011682018060405250810190610c9a9190613e68565b905060008234610caa9190613ec4565b90506000811115610d035760008990508073ffffffffffffffffffffffffffffffffffffffff166108fc839081150290604051600060405180830381858888f19350505050158015610d00573d6000803e3d6000fd5b50505b7fe6dae862185d88c4597f4745a00933ea5be511621dcacc28511fa6029c050ccd828a8a60028860200151604051610d3f959493929190613f7e565b60405180910390a1505050505050505050565b6004543414610d96576040517f08c379a0000000000000000000000000000000000000000000000000000000008152600401610d8d906139f0565b60405180910390fd5b601483511115610ddb576040517f08c379a0000000000000000000000000000000000000000000000000000000008152600401610dd290614024565b60405180910390fd5b600060066000610de961187a565b73ffffffffffffffffffffffffffffffffffffffff1673ffffffffffffffffffffffffffffffffffffffff168152602001908152602001600020600067ccf0a31a221f3c9b67ffffffffffffffff1667ffffffffffffffff16815260200190815260200160002060009054906101000a900473ffffffffffffffffffffffffffffffffffffffff169050600073ffffffffffffffffffffffffffffffffffffffff168173ffffffffffffffffffffffffffffffffffffffff1603610ee2576040517f08c379a0000000000000000000000000000000000000000000000000000000008152600401610ed990614090565b60405180910390fd5b6000600567ffffffffffffffff811115610eff57610efe612b38565b5b604051908082528060200260200182016040528015610f3257816020015b6060815260200190600190039081610f1d5790505b50905073__StringJoiner__________________________635c8656e0866040518263ffffffff1660e01b8152600401610f6c9190614219565b600060405180830381865af4158015610f89573d6000803e3d6000fd5b505050506040513d6000823e3d601f19601f82011682018060405250810190610fb291906142be565b81600081518110610fc657610fc5614307565b5b60200260200101819052508381600181518110610fe657610fe5614307565b5b6020026020010181905250610ffa82611901565b8160028151811061100e5761100d614307565b5b602002602001018190525061102286611901565b8160038151811061103657611035614307565b5b602002602001018190525061104d8360ff1661192e565b8160048151811061106157611060614307565b5b6020026020010181905250611074612938565b61111160018054611084906136f5565b80601f01602080910402602001604051908101604052809291908181526020018280546110b0906136f5565b80156110fd5780601f106110d2576101008083540402835291602001916110fd565b820191906000526020600020905b8154815290600101906020018083116110e057829003601f168201915b5050505050826119fc90919063ffffffff16565b6111248282611a0d90919063ffffffff16565b600061116461113283611a55565b600260009054906101000a900467ffffffffffffffff16600260089054906101000a900463ffffffff16600354611e71565b905060405180606001604052808573ffffffffffffffffffffffffffffffffffffffff1681526020018973ffffffffffffffffffffffffffffffffffffffff168152602001600015158152506007600083815260200190815260200160002060008201518160000160006101000a81548173ffffffffffffffffffffffffffffffffffffffff021916908373ffffffffffffffffffffffffffffffffffffffff16021790555060208201518160010160006101000a81548173ffffffffffffffffffffffffffffffffffffffff021916908373ffffffffffffffffffffffffffffffffffffffff16021790555060408201518160010160146101000a81548160ff0219169083151502179055509050507fe6dae862185d88c4597f4745a00933ea5be511621dcacc28511fa6029c050ccd81858a60008a6040516112ac959493929190613f7e565b60405180910390a15050505050505050565b6112c66115a9565b600073ffffffffffffffffffffffffffffffffffffffff168173ffffffffffffffffffffffffffffffffffffffff1603611335576040517f08c379a000000000000000000000000000000000000000000000000000000000815260040161132c906143a8565b60405180910390fd5b61133e81611627565b50565b60006007600085815260200190815260200160002090508060010160149054906101000a900460ff16156113aa576040517f08c379a00000000000000000000000000000000000000000000000000000000081526004016113a190614414565b60405180910390fd5b600082511115611442577fe6dae862185d88c4597f4745a00933ea5be511621dcacc28511fa6029c050ccd848260000160009054906101000a900473ffffffffffffffffffffffffffffffffffffffff168360010160009054906101000a900473ffffffffffffffffffffffffffffffffffffffff16600186604051611434959493929190613f7e565b60405180910390a1506115a4565b60018160010160146101000a81548160ff02191690831515021790555060008160000160009054906101000a900473ffffffffffffffffffffffffffffffffffffffff1690508073ffffffffffffffffffffffffffffffffffffffff16638f9c39568360010160009054906101000a900473ffffffffffffffffffffffffffffffffffffffff16866040518363ffffffff1660e01b81526004016114e7929190614434565b600060405180830381600087803b15801561150157600080fd5b505af1158015611515573d6000803e3d6000fd5b505050507fe6dae862185d88c4597f4745a00933ea5be511621dcacc28511fa6029c050ccd858360000160009054906101000a900473ffffffffffffffffffffffffffffffffffffffff168460010160009054906101000a900473ffffffffffffffffffffffffffffffffffffffff16600188604051611599959493929190613f7e565b60405180910390a150505b505050565b6115b161187a565b73ffffffffffffffffffffffffffffffffffffffff166115cf61071c565b73ffffffffffffffffffffffffffffffffffffffff1614611625576040517f08c379a000000000000000000000000000000000000000000000000000000000815260040161161c906144b0565b60405180910390fd5b565b60008060009054906101000a900473ffffffffffffffffffffffffffffffffffffffff169050816000806101000a81548173ffffffffffffffffffffffffffffffffffffffff021916908373ffffffffffffffffffffffffffffffffffffffff1602179055508173ffffffffffffffffffffffffffffffffffffffff168173ffffffffffffffffffffffffffffffffffffffff167f8be0079c531659141344cd1fd0a4f28419497f9722a3daafe3b4186f6b6457e060405160405180910390a35050565b6000806000806000856060015180602001905181019061170b919061457e565b945094509450945094506000600660008773ffffffffffffffffffffffffffffffffffffffff1673ffffffffffffffffffffffffffffffffffffffff168152602001908152602001600020600067ccf0a31a221f3c9b67ffffffffffffffff1667ffffffffffffffff16815260200190815260200160002060009054906101000a900473ffffffffffffffffffffffffffffffffffffffff16905060008190508073ffffffffffffffffffffffffffffffffffffffff16636d4195fb67ccf0a31a221f3c9b89898989896040518763ffffffff1660e01b81526004016117f696959493929190614631565b600060405180830381600087803b15801561181057600080fd5b505af1158015611824573d6000803e3d6000fd5b505050507fe6dae862185d88c4597f4745a00933ea5be511621dcacc28511fa6029c050ccd8860000151888860038c60600151604051611868959493929190613f7e565b60405180910390a15050505050505050565b600033905090565b60606397a657c960e01b8260405160240161189d91906146de565b604051602081830303815290604052907bffffffffffffffffffffffffffffffffffffffffffffffffffffffff19166020820180517bffffffffffffffffffffffffffffffffffffffffffffffffffffffff83818316178352505050509050919050565b60606119278273ffffffffffffffffffffffffffffffffffffffff16601460ff16611f54565b9050919050565b60606000600161193d84612190565b01905060008167ffffffffffffffff81111561195c5761195b612b38565b5b6040519080825280601f01601f19166020018201604052801561198e5781602001600182028036833780820191505090505b509050600082602001820190505b6001156119f1578080600190039150507f3031323334353637383961626364656600000000000000000000000000000000600a86061a8153600a85816119e5576119e46146f9565b5b0494506000850361199c575b819350505050919050565b611a0982600080846122e3565b5050565b6000815103611a48576040517ffe936cb700000000000000000000000000000000000000000000000000000000815260040160405180910390fd5b808260a001819052505050565b60606000611a6461010061238d565b9050611aae6040518060400160405280600c81526020017f636f64654c6f636174696f6e0000000000000000000000000000000000000000815250826123b490919063ffffffff16565b611ad783600001516002811115611ac857611ac7613f07565b5b826123dd90919063ffffffff16565b611b1f6040518060400160405280600881526020017f6c616e6775616765000000000000000000000000000000000000000000000000815250826123b490919063ffffffff16565b611b4883604001516000811115611b3957611b38613f07565b5b826123dd90919063ffffffff16565b611b906040518060400160405280600681526020017f736f757263650000000000000000000000000000000000000000000000000000815250826123b490919063ffffffff16565b611ba78360600151826123b490919063ffffffff16565b60008360a00151511115611c6357611bfd6040518060400160405280600481526020017f6172677300000000000000000000000000000000000000000000000000000000815250826123b490919063ffffffff16565b611c068161242d565b60005b8360a0015151811015611c5857611c478460a001518281518110611c3057611c2f614307565b5b6020026020010151836123b490919063ffffffff16565b80611c5190614728565b9050611c09565b50611c6281612455565b5b60008360800151511115611da45760006002811115611c8557611c84613f07565b5b83602001516002811115611c9c57611c9b613f07565b5b03611cd3576040517fa80d31f700000000000000000000000000000000000000000000000000000000815260040160405180910390fd5b611d1b6040518060400160405280600f81526020017f736563726574734c6f636174696f6e0000000000000000000000000000000000815250826123b490919063ffffffff16565b611d4483602001516002811115611d3557611d34613f07565b5b826123dd90919063ffffffff16565b611d8c6040518060400160405280600781526020017f7365637265747300000000000000000000000000000000000000000000000000815250826123b490919063ffffffff16565b611da383608001518261247d90919063ffffffff16565b5b60008360c00151511115611e6057611dfa6040518060400160405280600981526020017f6279746573417267730000000000000000000000000000000000000000000000815250826123b490919063ffffffff16565b611e038161242d565b60005b8360c0015151811015611e5557611e448460c001518281518110611e2d57611e2c614307565b5b60200260200101518361247d90919063ffffffff16565b80611e4e90614728565b9050611e06565b50611e5f81612455565b5b806000015160000151915050919050565b6000807f000000000000000000000000000000000000000000000000000000000000000073ffffffffffffffffffffffffffffffffffffffff1663461d27628688600188886040518663ffffffff1660e01b8152600401611ed695949392919061479c565b6020604051808303816000875af1158015611ef5573d6000803e3d6000fd5b505050506040513d601f19601f82011682018060405250810190611f199190613e68565b9050807f1131472297a800fee664d1d89cfa8f7676ff07189ecc53f80bbb5f4969099db860405160405180910390a280915050949350505050565b606060006002836002611f6791906147f6565b611f719190614838565b67ffffffffffffffff811115611f8a57611f89612b38565b5b6040519080825280601f01601f191660200182016040528015611fbc5781602001600182028036833780820191505090505b5090507f300000000000000000000000000000000000000000000000000000000000000081600081518110611ff457611ff3614307565b5b60200101907effffffffffffffffffffffffffffffffffffffffffffffffffffffffffffff1916908160001a9053507f78000000000000000000000000000000000000000000000000000000000000008160018151811061205857612057614307565b5b60200101907effffffffffffffffffffffffffffffffffffffffffffffffffffffffffffff1916908160001a9053506000600184600261209891906147f6565b6120a29190614838565b90505b6001811115612142577f3031323334353637383961626364656600000000000000000000000000000000600f8616601081106120e4576120e3614307565b5b1a60f81b8282815181106120fb576120fa614307565b5b60200101907effffffffffffffffffffffffffffffffffffffffffffffffffffffffffffff1916908160001a905350600485901c94508061213b9061486c565b90506120a5565b5060008414612186576040517f08c379a000000000000000000000000000000000000000000000000000000000815260040161217d906148e1565b60405180910390fd5b8091505092915050565b600080600090507a184f03e93ff9f4daa797ed6e38ed64bf6a1f01000000000000000083106121ee577a184f03e93ff9f4daa797ed6e38ed64bf6a1f01000000000000000083816121e4576121e36146f9565b5b0492506040810190505b6d04ee2d6d415b85acef8100000000831061222b576d04ee2d6d415b85acef81000000008381612221576122206146f9565b5b0492506020810190505b662386f26fc10000831061225a57662386f26fc1000083816122505761224f6146f9565b5b0492506010810190505b6305f5e1008310612283576305f5e1008381612279576122786146f9565b5b0492506008810190505b61271083106122a857612710838161229e5761229d6146f9565b5b0492506004810190505b606483106122cb57606483816122c1576122c06146f9565b5b0492506002810190505b600a83106122da576001810190505b80915050919050565b600081510361231e576040517f22ce3edd00000000000000000000000000000000000000000000000000000000815260040160405180910390fd5b828460000190600281111561233657612335613f07565b5b9081600281111561234a57612349613f07565b5b81525050818460400190600081111561236657612365613f07565b5b9081600081111561237a57612379613f07565b5b8152505080846060018190525050505050565b6123956129aa565b6123a38160000151836124a6565b506000816020018181525050919050565b6123c1826003835161251f565b6123d88183600001516126c890919063ffffffff16565b505050565b6123ff60026005600660ff16901b1783600001516126e490919063ffffffff16565b5061242982826040516020016124159190612acc565b60405160208183030381529060405261247d565b5050565b61243881600461274e565b60018160200181815161244b9190614838565b9150818152505050565b61246081600761274e565b6001816020018181516124739190613ec4565b9150818152505050565b61248a826002835161251f565b6124a18183600001516126c890919063ffffffff16565b505050565b6124ae6129ca565b60006020836124bd9190614901565b146124e9576020826124cf9190614901565b60206124db9190613ec4565b826124e69190614838565b91505b81836020018181525050604051808452600081528281016020018181101561251057600080fd5b80604052505082905092915050565b60178167ffffffffffffffff161161255a576125548160058460ff16901b60ff161784600001516126e490919063ffffffff16565b506126c3565b60ff8167ffffffffffffffff16116125b85761258d601860058460ff16901b1784600001516126e490919063ffffffff16565b506125b28167ffffffffffffffff16600185600001516127749092919063ffffffff16565b506126c2565b61ffff8167ffffffffffffffff1611612617576125ec601960058460ff16901b1784600001516126e490919063ffffffff16565b506126118167ffffffffffffffff16600285600001516127749092919063ffffffff16565b506126c1565b63ffffffff8167ffffffffffffffff16116126785761264d601a60058460ff16901b1784600001516126e490919063ffffffff16565b506126728167ffffffffffffffff16600485600001516127749092919063ffffffff16565b506126c0565b612699601b60058460ff16901b1784600001516126e490919063ffffffff16565b506126be8167ffffffffffffffff16600885600001516127749092919063ffffffff16565b505b5b5b5b505050565b6126d06129ca565b6126dc83838451612801565b905092915050565b6126ec6129ca565b6000836000015151905060006001826127059190614838565b905084602001518210612729576127288560028361272391906147f6565b6128e4565b5b84516020838201018581538151831115612741578282525b5050849250505092915050565b61276f601f60058360ff16901b1783600001516126e490919063ffffffff16565b505050565b61277c6129ca565b60008460000151519050600081846127949190614838565b905085602001518111156127b9576127b8866002836127b391906147f6565b6128e4565b5b60006001856101006127cb9190614a65565b6127d59190613ec4565b9050865182810187831982511617815281518411156127f2578382525b50508693505050509392505050565b6128096129ca565b825182111561281757600080fd5b600084600001515190506000838261282f9190614838565b90508560200151811115612854576128538660028361284e91906147f6565b6128e4565b5b6000808751805185602083010193508085111561286f578482525b60208901925050505b602086106128b657805182526020826128919190614838565b91506020816128a09190614838565b90506020866128af9190613ec4565b9550612878565b60006001876020036101000a0390508019825116818451168181178552505050879450505050509392505050565b6000826000015190506128f783836124a6565b5061290283826126c8565b50505050565b6040518060400160405280600073ffffffffffffffffffffffffffffffffffffffff168152602001600081525090565b6040518060e001604052806000600281111561295757612956613f07565b5b8152602001600060028111156129705761296f613f07565b5b815260200160008081111561298857612987613f07565b5b8152602001606081526020016060815260200160608152602001606081525090565b60405180604001604052806129bd6129ca565b8152602001600081525090565b604051806040016040528060608152602001600081525090565b6000604051905090565b600080fd5b600080fd5b60007fffffffff0000000000000000000000000000000000000000000000000000000082169050919050565b612a2d816129f8565b8114612a3857600080fd5b50565b600081359050612a4a81612a24565b92915050565b600060208284031215612a6657612a656129ee565b5b6000612a7484828501612a3b565b91505092915050565b60008115159050919050565b612a9281612a7d565b82525050565b6000602082019050612aad6000830184612a89565b92915050565b6000819050919050565b612ac681612ab3565b82525050565b6000602082019050612ae16000830184612abd565b92915050565b6000819050919050565b612afa81612ae7565b8114612b0557600080fd5b50565b600081359050612b1781612af1565b92915050565b600080fd5b600080fd5b6000601f19601f8301169050919050565b7f4e487b7100000000000000000000000000000000000000000000000000000000600052604160045260246000fd5b612b7082612b27565b810181811067ffffffffffffffff82111715612b8f57612b8e612b38565b5b80604052505050565b6000612ba26129e4565b9050612bae8282612b67565b919050565b600067ffffffffffffffff821115612bce57612bcd612b38565b5b612bd782612b27565b9050602081019050919050565b82818337600083830152505050565b6000612c06612c0184612bb3565b612b98565b905082815260208101848484011115612c2257612c21612b22565b5b612c2d848285612be4565b509392505050565b600082601f830112612c4a57612c49612b1d565b5b8135612c5a848260208601612bf3565b91505092915050565b600080600060608486031215612c7c57612c7b6129ee565b5b6000612c8a86828701612b08565b935050602084013567ffffffffffffffff811115612cab57612caa6129f3565b5b612cb786828701612c35565b925050604084013567ffffffffffffffff811115612cd857612cd76129f3565b5b612ce486828701612c35565b9150509250925092565b600067ffffffffffffffff82169050919050565b612d0b81612cee565b8114612d1657600080fd5b50565b600081359050612d2881612d02565b92915050565b600060208284031215612d4457612d436129ee565b5b6000612d5284828501612d19565b91505092915050565b600063ffffffff82169050919050565b612d7481612d5b565b8114612d7f57600080fd5b50565b600081359050612d9181612d6b565b92915050565b600060208284031215612dad57612dac6129ee565b5b6000612dbb84828501612d82565b91505092915050565b600060208284031215612dda57612dd96129ee565b5b6000612de884828501612b08565b91505092915050565b600080fd5b600060a08284031215612e0c57612e0b612df1565b5b81905092915050565b600060208284031215612e2b57612e2a6129ee565b5b600082013567ffffffffffffffff811115612e4957612e486129f3565b5b612e5584828501612df6565b91505092915050565b600073ffffffffffffffffffffffffffffffffffffffff82169050919050565b6000612e8982612e5e565b9050919050565b612e9981612e7e565b8114612ea457600080fd5b50565b600081359050612eb681612e90565b92915050565b612ec581612ab3565b8114612ed057600080fd5b50565b600081359050612ee281612ebc565b92915050565b600067ffffffffffffffff821115612f0357612f02612b38565b5b612f0c82612b27565b9050602081019050919050565b6000612f2c612f2784612ee8565b612b98565b905082815260208101848484011115612f4857612f47612b22565b5b612f53848285612be4565b509392505050565b600082601f830112612f7057612f6f612b1d565b5b8135612f80848260208601612f19565b91505092915050565b60008060008060008060c08789031215612fa657612fa56129ee565b5b6000612fb489828a01612d19565b9650506020612fc589828a01612ea7565b9550506040612fd689828a01612ea7565b9450506060612fe789828a01612ed3565b935050608087013567ffffffffffffffff811115613008576130076129f3565b5b61301489828a01612f5b565b92505060a087013567ffffffffffffffff811115613035576130346129f3565b5b61304189828a01612c35565b9150509295509295509295565b61305781612e7e565b82525050565b6000602082019050613072600083018461304e565b92915050565b6000806040838503121561308f5761308e6129ee565b5b600061309d85828601612d19565b92505060206130ae85828601612ea7565b9150509250929050565b600080fd5b600080fd5b6000602082840312156130d8576130d76130b8565b5b6130e26020612b98565b905060006130f284828501612ea7565b60008301525092915050565b600060208284031215613114576131136129ee565b5b6000613122848285016130c2565b91505092915050565b600060208284031215613141576131406129ee565b5b600082013567ffffffffffffffff81111561315f5761315e6129f3565b5b61316b84828501612f5b565b91505092915050565b600080600080600060a086880312156131905761318f6129ee565b5b600061319e88828901612ea7565b95505060206131af88828901612ea7565b94505060406131c088828901612ed3565b935050606086013567ffffffffffffffff8111156131e1576131e06129f3565b5b6131ed88828901612f5b565b925050608086013567ffffffffffffffff81111561320e5761320d6129f3565b5b61321a88828901612c35565b9150509295509295909350565b600067ffffffffffffffff82111561324257613241612b38565b5b602082029050602081019050919050565b600080fd5b600061326b61326684613227565b612b98565b9050808382526020820190506020840283018581111561328e5761328d613253565b5b835b818110156132d557803567ffffffffffffffff8111156132b3576132b2612b1d565b5b8086016132c08982612f5b565b85526020850194505050602081019050613290565b5050509392505050565b600082601f8301126132f4576132f3612b1d565b5b8135613304848260208601613258565b91505092915050565b600060ff82169050919050565b6133238161330d565b811461332e57600080fd5b50565b6000813590506133408161331a565b92915050565b600080600080608085870312156133605761335f6129ee565b5b600061336e87828801612ea7565b945050602085013567ffffffffffffffff81111561338f5761338e6129f3565b5b61339b878288016132df565b935050604085013567ffffffffffffffff8111156133bc576133bb6129f3565b5b6133c887828801612f5b565b92505060606133d987828801613331565b91505092959194509250565b6000602082840312156133fb576133fa6129ee565b5b600061340984828501612ea7565b91505092915050565b600067ffffffffffffffff82111561342d5761342c612b38565b5b602082029050602081019050919050565b600060408284031215613454576134536130b8565b5b61345e6040612b98565b9050600061346e84828501612ea7565b600083015250602061348284828501612ed3565b60208301525092915050565b60006134a161349c84613412565b612b98565b905080838252602082019050604084028301858111156134c4576134c3613253565b5b835b818110156134ed57806134d9888261343e565b8452602084019350506040810190506134c6565b5050509392505050565b600082601f83011261350c5761350b612b1d565b5b813561351c84826020860161348e565b91505092915050565b600060a0828403121561353b5761353a6130b8565b5b61354560a0612b98565b9050600061355584828501612b08565b600083015250602061356984828501612d19565b602083015250604082013567ffffffffffffffff81111561358d5761358c6130bd565b5b61359984828501612c35565b604083015250606082013567ffffffffffffffff8111156135bd576135bc6130bd565b5b6135c984828501612c35565b606083015250608082013567ffffffffffffffff8111156135ed576135ec6130bd565b5b6135f9848285016134f7565b60808301525092915050565b60006136113683613525565b9050919050565b600082825260208201905092915050565b7f4d6574686f64206e6f7420617661696c61626c652c20757365205f776974686460008201527f726177546f000000000000000000000000000000000000000000000000000000602082015250565b6000613685602583613618565b915061369082613629565b604082019050919050565b600060208201905081810360008301526136b481613678565b9050919050565b600081519050919050565b7f4e487b7100000000000000000000000000000000000000000000000000000000600052602260045260246000fd5b6000600282049050600182168061370d57607f821691505b6020821081036137205761371f6136c6565b5b50919050565b60008190508160005260206000209050919050565b60006020601f8301049050919050565b600082821b905092915050565b6000600883026137887fffffffffffffffffffffffffffffffffffffffffffffffffffffffffffffffff8261374b565b613792868361374b565b95508019841693508086168417925050509392505050565b6000819050919050565b60006137cf6137ca6137c584612ab3565b6137aa565b612ab3565b9050919050565b6000819050919050565b6137e9836137b4565b6137fd6137f5826137d6565b848454613758565b825550505050565b600090565b613812613805565b61381d8184846137e0565b505050565b5b818110156138415761383660008261380a565b600181019050613823565b5050565b601f8211156138865761385781613726565b6138608461373b565b8101602085101561386f578190505b61388361387b8561373b565b830182613822565b50505b505050565b600082821c905092915050565b60006138a96000198460080261388b565b1980831691505092915050565b60006138c28383613898565b9150826002028217905092915050565b6138db826136bb565b67ffffffffffffffff8111156138f4576138f3612b38565b5b6138fe82546136f5565b613909828285613845565b600060209050601f83116001811461393c576000841561392a578287015190505b61393485826138b6565b86555061399c565b601f19841661394a86613726565b60005b828110156139725784890151825560018201915060208501945060208101905061394d565b8683101561398f578489015161398b601f891682613898565b8355505b6001600288020188555050505b505050505050565b7f696e76616c6964204b616e766173206665650000000000000000000000000000600082015250565b60006139da601283613618565b91506139e5826139a4565b602082019050919050565b60006020820190508181036000830152613a09816139cd565b9050919050565b7f436861696e206e6f7420737570706f7274656400000000000000000000000000600082015250565b6000613a46601383613618565b9150613a5182613a10565b602082019050919050565b60006020820190508181036000830152613a7581613a39565b9050919050565b60005b83811015613a9a578082015181840152602081019050613a7f565b60008484015250505050565b6000613ab1826136bb565b613abb8185613618565b9350613acb818560208601613a7c565b613ad481612b27565b840191505092915050565b600081519050919050565b600082825260208201905092915050565b6000613b0682613adf565b613b108185613aea565b9350613b20818560208601613a7c565b613b2981612b27565b840191505092915050565b600060a082019050613b49600083018861304e565b613b56602083018761304e565b613b636040830186612abd565b8181036060830152613b758185613aa6565b90508181036080830152613b898184613afb565b90509695505050505050565b613b9e81612cee565b82525050565b600082825260208201905092915050565b6000613bc082613adf565b613bca8185613ba4565b9350613bda818560208601613a7c565b613be381612b27565b840191505092915050565b600081519050919050565b600082825260208201905092915050565b6000819050602082019050919050565b613c2381612e7e565b82525050565b613c3281612ab3565b82525050565b604082016000820151613c4e6000850182613c1a565b506020820151613c616020850182613c29565b50505050565b6000613c738383613c38565b60408301905092915050565b6000602082019050919050565b6000613c9782613bee565b613ca18185613bf9565b9350613cac83613c0a565b8060005b83811015613cdd578151613cc48882613c67565b9750613ccf83613c7f565b925050600181019050613cb0565b5085935050505092915050565b600060a0830160008301518482036000860152613d078282613bb5565b91505060208301518482036020860152613d218282613bb5565b91505060408301518482036040860152613d3b8282613c8c565b9150506060830151613d506060860182613c1a565b5060808301518482036080860152613d688282613bb5565b9150508091505092915050565b6000604082019050613d8a6000830185613b95565b8181036020830152613d9c8184613cea565b90509392505050565b600081519050613db481612ebc565b92915050565b600060208284031215613dd057613dcf6129ee565b5b6000613dde84828501613da5565b91505092915050565b7f496e73756666696369656e742066656500000000000000000000000000000000600082015250565b6000613e1d601083613618565b9150613e2882613de7565b602082019050919050565b60006020820190508181036000830152613e4c81613e10565b9050919050565b600081519050613e6281612af1565b92915050565b600060208284031215613e7e57613e7d6129ee565b5b6000613e8c84828501613e53565b91505092915050565b7f4e487b7100000000000000000000000000000000000000000000000000000000600052601160045260246000fd5b6000613ecf82612ab3565b9150613eda83612ab3565b9250828203905081811115613ef257613ef1613e95565b5b92915050565b613f0181612ae7565b82525050565b7f4e487b7100000000000000000000000000000000000000000000000000000000600052602160045260246000fd5b60048110613f4757613f46613f07565b5b50565b6000819050613f5882613f36565b919050565b6000613f6882613f4a565b9050919050565b613f7881613f5d565b82525050565b600060a082019050613f936000830188613ef8565b613fa0602083018761304e565b613fad604083018661304e565b613fba6060830185613f6f565b8181036080830152613fcc8184613afb565b90509695505050505050565b7f546f6f206d616e79206174747269627574657300000000000000000000000000600082015250565b600061400e601383613618565b915061401982613fd8565b602082019050919050565b6000602082019050818103600083015261403d81614001565b9050919050565b7f47616d65204e6f7420466f756e64000000000000000000000000000000000000600082015250565b600061407a600e83613618565b915061408582614044565b602082019050919050565b600060208201905081810360008301526140a98161406d565b9050919050565b600081519050919050565b600082825260208201905092915050565b6000819050602082019050919050565b600082825260208201905092915050565b60006140f8826136bb565b61410281856140dc565b9350614112818560208601613a7c565b61411b81612b27565b840191505092915050565b600061413283836140ed565b905092915050565b6000602082019050919050565b6000614152826140b0565b61415c81856140bb565b93508360208202850161416e856140cc565b8060005b858110156141aa578484038952815161418b8582614126565b94506141968361413a565b925060208a01995050600181019050614172565b50829750879550505050505092915050565b600082825260208201905092915050565b7f2c00000000000000000000000000000000000000000000000000000000000000600082015250565b60006142036001836141bc565b915061420e826141cd565b602082019050919050565b600060408201905081810360008301526142338184614147565b90508181036020830152614246816141f6565b905092915050565b600061426161425c84612ee8565b612b98565b90508281526020810184848401111561427d5761427c612b22565b5b614288848285613a7c565b509392505050565b600082601f8301126142a5576142a4612b1d565b5b81516142b584826020860161424e565b91505092915050565b6000602082840312156142d4576142d36129ee565b5b600082015167ffffffffffffffff8111156142f2576142f16129f3565b5b6142fe84828501614290565b91505092915050565b7f4e487b7100000000000000000000000000000000000000000000000000000000600052603260045260246000fd5b7f4f776e61626c653a206e6577206f776e657220697320746865207a65726f206160008201527f6464726573730000000000000000000000000000000000000000000000000000602082015250565b6000614392602683613618565b915061439d82614336565b604082019050919050565b600060208201905081810360008301526143c181614385565b9050919050565b7f416c72656164792066756c66696c6c6564000000000000000000000000000000600082015250565b60006143fe601183613618565b9150614409826143c8565b602082019050919050565b6000602082019050818103600083015261442d816143f1565b9050919050565b6000604082019050614449600083018561304e565b818103602083015261445b8184613aa6565b90509392505050565b7f4f776e61626c653a2063616c6c6572206973206e6f7420746865206f776e6572600082015250565b600061449a602083613618565b91506144a582614464565b602082019050919050565b600060208201905081810360008301526144c98161448d565b9050919050565b60006144db82612e5e565b9050919050565b6144eb816144d0565b81146144f657600080fd5b50565b600081519050614508816144e2565b92915050565b600061452161451c84612bb3565b612b98565b90508281526020810184848401111561453d5761453c612b22565b5b614548848285613a7c565b509392505050565b600082601f83011261456557614564612b1d565b5b815161457584826020860161450e565b91505092915050565b600080600080600060a0868803121561459a576145996129ee565b5b60006145a8888289016144f9565b95505060206145b9888289016144f9565b94505060406145ca88828901613da5565b935050606086015167ffffffffffffffff8111156145eb576145ea6129f3565b5b6145f788828901614290565b925050608086015167ffffffffffffffff811115614618576146176129f3565b5b61462488828901614550565b9150509295509295909350565b600060c0820190506146466000830189613b95565b614653602083018861304e565b614660604083018761304e565b61466d6060830186612abd565b818103608083015261467f8185613aa6565b905081810360a08301526146938184613afb565b9050979650505050505050565b6146a981612a7d565b82525050565b6040820160008201516146c56000850182613c29565b5060208201516146d860208501826146a0565b50505050565b60006040820190506146f360008301846146af565b92915050565b7f4e487b7100000000000000000000000000000000000000000000000000000000600052601260045260246000fd5b600061473382612ab3565b91507fffffffffffffffffffffffffffffffffffffffffffffffffffffffffffffffff820361476557614764613e95565b5b600182019050919050565b600061ffff82169050919050565b61478781614770565b82525050565b61479681612d5b565b82525050565b600060a0820190506147b16000830188613b95565b81810360208301526147c38187613afb565b90506147d2604083018661477e565b6147df606083018561478d565b6147ec6080830184613ef8565b9695505050505050565b600061480182612ab3565b915061480c83612ab3565b925082820261481a81612ab3565b9150828204841483151761483157614830613e95565b5b5092915050565b600061484382612ab3565b915061484e83612ab3565b925082820190508082111561486657614865613e95565b5b92915050565b600061487782612ab3565b91506000820361488a57614889613e95565b5b600182039050919050565b7f537472696e67733a20686578206c656e67746820696e73756666696369656e74600082015250565b60006148cb602083613618565b91506148d682614895565b602082019050919050565b600060208201905081810360008301526148fa816148be565b9050919050565b600061490c82612ab3565b915061491783612ab3565b925082614927576149266146f9565b5b828206905092915050565b60008160011c9050919050565b6000808291508390505b60018511156149895780860481111561496557614964613e95565b5b60018516156149745780820291505b808102905061498285614932565b9450614949565b94509492505050565b6000826149a25760019050614a5e565b816149b05760009050614a5e565b81600181146149c657600281146149d0576149ff565b6001915050614a5e565b60ff8411156149e2576149e1613e95565b5b8360020a9150848211156149f9576149f8613e95565b5b50614a5e565b5060208310610133831016604e8410600b8410161715614a345782820a905083811115614a2f57614a2e613e95565b5b614a5e565b614a41848484600161493f565b92509050818404811115614a5857614a57613e95565b5b81810290505b9392505050565b6000614a7082612ab3565b9150614a7b83612ab3565b9250614aa87fffffffffffffffffffffffffffffffffffffffffffffffffffffffffffffffff8484614992565b90509291505056fea2646970667358221220d827b319a406e6ca8b25777f95818346a44c59e89bd55786714ef7da1c898ab564736f6c63430008130033",
  "immutableReferences": {
    "14": [
      {
        "length": 32,
        "start": 1593
      },
      {
        "length": 32,
        "start": 2164
      }
    ],
    "5186": [
      {
        "length": 32,
        "start": 1255
      },
      {
        "length": 32,
        "start": 7798
      }
    ]
  },
  "source": "// SPDX-License-Identifier: MIT\r\npragma solidity ^0.8.19;\r\n\r\nimport {Assets} from \"./libraries/Assets.sol\";\r\nimport {Params} from \"./libraries/Params.sol\";\r\nimport {IKanvasInterop} from \"./interfaces/IKanvasInterop.sol\";\r\nimport {IKanvasInteropGame} from \"./interfaces/IKanvasInteropGame.sol\";\r\nimport {StringJoiner} from \"./libraries/StringJoiner.sol\";\r\n\r\nimport {Strings} from \"@openzeppelin/contracts/utils/Strings.sol\";\r\nimport {Ownable} from \"@openzeppelin/contracts/access/Ownable.sol\";\r\nimport {Context} from \"@openzeppelin/contracts/utils/Context.sol\";\r\n\r\nimport {FunctionsClient} from \"./FunctionsClient.sol\";\r\nimport {FunctionsRequest} from \"@chainlink/contracts/src/v0.8/functions/dev/v1_0_0/libraries/FunctionsRequest.sol\";\r\n\r\nimport {Client} from \"@chainlink/contracts-ccip/src/v0.8/ccip/libraries/Client.sol\";\r\nimport {CCIPReceiver} from \"@chainlink/contracts-ccip/src/v0.8/ccip/applications/CCIPReceiver.sol\";\r\nimport {IRouterClient} from \"@chainlink/contracts-ccip/src/v0.8/ccip/interfaces/IRouterClient.sol\";\r\n\r\n// For Polygon Mumbai - Alone\r\n// @dev Hardcoded vaolues for Mumbai\r\n\r\ncontract KanvasInterop is\r\n    IKanvasInterop,\r\n    Context,\r\n    CCIPReceiver,\r\n    FunctionsClient,\r\n    Ownable\r\n{\r\n    using FunctionsRequest for FunctionsRequest.Request;\r\n    uint64 private constant AVAX_SELECTOR = 14767482510784806043;\r\n\r\n    uint256 public constant MAX_PROPERTIES_LEN = 20;\r\n\r\n    // Javascript Chainlink functions source code\r\n    string private _sourceCode;\r\n\r\n    // Chainlink Polygon Subscription Id\r\n    uint64 private _subscriptionId = 1066;\r\n\r\n    // Chainlink functions fulfill callback gas limit\r\n    uint32 private _gasLimit = 300_000;\r\n\r\n    // Chainlink Polygon DON Id\r\n    bytes32 private _donId =\r\n        0x66756e2d706f6c79676f6e2d6d756d6261692d31000000000000000000000000;\r\n\r\n    // for testing purpose the generation fee is free\r\n    uint256 private _kanvasGenerateFee = 0;\r\n\r\n    // for testing purpose the bridge fee is free\r\n    uint256 private _kanvasBridgeFee = 0;\r\n\r\n    mapping(address => mapping(uint64 => address)) private _games;\r\n\r\n    mapping(bytes32 => Assets.Request) private _requests;\r\n\r\n    mapping(uint64 => address) private _interops;\r\n\r\n    IRouterClient private _router;\r\n\r\n    constructor(\r\n        address ccipReceiver,\r\n        address functionOracle\r\n    ) CCIPReceiver(ccipReceiver) Ownable() FunctionsClient(functionOracle) {\r\n        _router = IRouterClient(getRouter());\r\n    }\r\n\r\n    function updateDonId(bytes32 newDonId) external onlyOwner {\r\n        _donId = newDonId;\r\n    }\r\n\r\n    function updateSourceCode(string memory newSourceCode) external onlyOwner {\r\n        _sourceCode = newSourceCode;\r\n    }\r\n\r\n    function updateGasLimit(uint32 newLimit) external onlyOwner {\r\n        _gasLimit = newLimit;\r\n    }\r\n\r\n    function updateSubscriptionId(uint64 newSubscriptionId) external onlyOwner {\r\n        _subscriptionId = newSubscriptionId;\r\n    }\r\n\r\n    function _createGame(Params.InteropGame memory params) external override {\r\n        _games[params.sourceGameId][AVAX_SELECTOR] = _msgSender();\r\n    }\r\n\r\n    function _generateUri(\r\n        address playerId,\r\n        string[] memory props,\r\n        string memory fields,\r\n        uint8 templateId\r\n    ) external payable override {\r\n        require(msg.value == _kanvasGenerateFee, \"invalid Kanvas fee\");\r\n        require(props.length <= MAX_PROPERTIES_LEN, \"Too many attributes\");\r\n\r\n        address gameId = _games[_msgSender()][AVAX_SELECTOR];\r\n        require(gameId != address(0), \"Game Not Found\");\r\n\r\n        string[] memory args = new string[](5);\r\n        args[0] = StringJoiner.joinStrings(props, \",\");\r\n        args[1] = fields;\r\n        args[2] = Strings.toHexString(gameId);\r\n        args[3] = Strings.toHexString(playerId);\r\n        args[4] = Strings.toString(templateId);\r\n\r\n        // Initialize the request\r\n        FunctionsRequest.Request memory req;\r\n\r\n        // Soucre code\r\n        req.initializeRequestForInlineJavaScript(_sourceCode);\r\n\r\n        // Add arguments\r\n        req.setArgs(args);\r\n\r\n        bytes32 requestId = _sendRequest(\r\n            req.encodeCBOR(),\r\n            _subscriptionId,\r\n            _gasLimit,\r\n            _donId\r\n        );\r\n\r\n        _requests[requestId] = Assets.Request({\r\n            gameId: gameId,\r\n            playerId: playerId,\r\n            fulfilled: false\r\n        });\r\n\r\n        emit GameEvent(\r\n            requestId,\r\n            gameId,\r\n            playerId,\r\n            Assets.EventType.GENERATE_URI,\r\n            bytes(fields)\r\n        );\r\n    }\r\n\r\n    function updateInterop(\r\n        uint64 chainSelector,\r\n        address kanvasRouter\r\n    ) external onlyOwner {\r\n        _interops[chainSelector] = kanvasRouter;\r\n    }\r\n\r\n    /** Receive the response in the form of string  */\r\n    function fulfillRequest(\r\n        bytes32 requestId,\r\n        bytes memory response,\r\n        bytes memory err\r\n    ) internal override {\r\n        Assets.Request storage request = _requests[requestId];\r\n        require(!request.fulfilled, \"Already fulfilled\");\r\n\r\n        if (err.length > 0) {\r\n            emit GameEvent(\r\n                requestId,\r\n                request.gameId,\r\n                request.playerId,\r\n                Assets.EventType.RECEIVE_URI,\r\n                err\r\n            );\r\n            return;\r\n        }\r\n\r\n        request.fulfilled = true;\r\n\r\n        IKanvasInteropGame game = IKanvasInteropGame(request.gameId);\r\n        game._receiveUri(request.playerId, string(response));\r\n\r\n        emit GameEvent(\r\n            requestId,\r\n            request.gameId,\r\n            request.playerId,\r\n            Assets.EventType.RECEIVE_URI,\r\n            response\r\n        );\r\n    }\r\n\r\n    function _transferTo(\r\n        uint64 /* chainSelector */,\r\n        address /* gameId */,\r\n        address /* playerId */,\r\n        uint256 /* tokenId */,\r\n        string memory /* uri*/,\r\n        bytes memory /* data*/\r\n    ) external payable {\r\n        revert(\"Method not available, use _withdrawTo\");\r\n    }\r\n\r\n    function _withdrawTo(\r\n        address gameId,\r\n        address playerId,\r\n        uint256 tokenId,\r\n        string memory uri,\r\n        bytes memory data\r\n    ) external payable {\r\n        require(msg.value == _kanvasBridgeFee, \"invalid Kanvas fee\");\r\n        require(_interops[AVAX_SELECTOR] != address(0), \"Chain not supported\");\r\n\r\n        // Create an EVM2AnyMessage struct in memory with necessary information for sending a cross-chain message\r\n        Client.EVM2AnyMessage memory message = Client.EVM2AnyMessage({\r\n            // ABI-encoded receiver address\r\n            receiver: abi.encode(_interops[AVAX_SELECTOR]),\r\n            // ABI-encoded string message\r\n            data: abi.encode(gameId, playerId, tokenId, uri, data),\r\n            // Empty array indicating no tokens are being sent\r\n            tokenAmounts: new Client.EVMTokenAmount[](0),\r\n            // Additional arguments, setting gas limit and non-strict sequency mode\r\n            extraArgs: Client._argsToBytes(\r\n                Client.EVMExtraArgsV1({gasLimit: 2_000_000, strict: false})\r\n            ),\r\n            // Setting feeToken to zero address, indicating native asset will be used for fees\r\n            feeToken: address(0)\r\n        });\r\n\r\n        // Get the fee required to send the message\r\n        uint256 fees = _router.getFee(AVAX_SELECTOR, message);\r\n\r\n        require(msg.value >= fees, \"Insufficient fee\");\r\n\r\n        // Send the message through the router and store the returned message ID\r\n        bytes32 messageId = _router.ccipSend{value: fees}(\r\n            AVAX_SELECTOR,\r\n            message\r\n        );\r\n\r\n        uint256 overspent = msg.value - fees;\r\n\r\n        if (overspent > 0) {\r\n            address payable receiver = payable(gameId);\r\n            receiver.transfer(overspent);\r\n        }\r\n\r\n        emit GameEvent(\r\n            messageId,\r\n            gameId,\r\n            playerId,\r\n            Assets.EventType.TRANSFER_TO,\r\n            message.data\r\n        );\r\n    }\r\n\r\n    function _generateFee() external view override returns (uint256) {\r\n        return _kanvasGenerateFee;\r\n    }\r\n\r\n    function _bridgeFee() external view override returns (uint256) {\r\n        return _kanvasBridgeFee;\r\n    }\r\n\r\n    // handle a received message\r\n    function _ccipReceive(\r\n        Client.Any2EVMMessage memory message\r\n    ) internal override {\r\n        (\r\n            address gameId,\r\n            address playerId,\r\n            uint256 tokenId,\r\n            string memory uri,\r\n            bytes memory data\r\n        ) = abi.decode(\r\n                message.data,\r\n                (address, address, uint256, string, bytes)\r\n            );\r\n\r\n        address interopGameId = _games[gameId][AVAX_SELECTOR];\r\n\r\n        IKanvasInteropGame game = IKanvasInteropGame(interopGameId);\r\n        game._receiveFrom(AVAX_SELECTOR, gameId, playerId, tokenId, uri, data);\r\n\r\n        emit GameEvent(\r\n            message.messageId,\r\n            gameId,\r\n            playerId,\r\n            Assets.EventType.RECEIVE_FROM,\r\n            message.data\r\n        );\r\n    }\r\n}\r\n",
  "sourcePath": "C:\\Users\\DELL\\Documents\\kanvas\\blockchain\\contracts\\KanvasInterop.sol",
  "compiler": {
    "name": "solc",
    "version": "0.8.19+commit.7dd6d404.Emscripten.clang"
  },
  "schemaVersion": "3.4.11",
  "updatedAt": "2023-12-08T17:37:29.856Z",
  "devdoc": {
    "kind": "dev",
    "methods": {
      "ccipReceive((bytes32,uint64,bytes,bytes,(address,uint256)[]))": {
        "details": "Note ensure you check the msg.sender is the OffRampRouter",
        "params": {
          "message": "CCIP Message"
        }
      },
      "getRouter()": {
        "returns": {
          "_0": "i_router address"
        }
      },
      "handleOracleFulfillment(bytes32,bytes,bytes)": {
        "details": "Either response or error parameter will be set, but never both.",
        "params": {
          "err": "Aggregated error either from the request's source code or from the execution pipeline.",
          "requestId": "The requestId returned by FunctionsClient.sendRequest().",
          "response": "Aggregated response from the request's source code."
        }
      },
      "owner()": {
        "details": "Returns the address of the current owner."
      },
      "renounceOwnership()": {
        "details": "Leaves the contract without owner. It will not be possible to call `onlyOwner` functions. Can only be called by the current owner. NOTE: Renouncing ownership will leave the contract without an owner, thereby disabling any functionality that is only available to the owner."
      },
      "supportsInterface(bytes4)": {
        "params": {
          "interfaceId": "The interfaceId to check"
        },
        "returns": {
          "_0": "true if the interfaceId is supported"
        }
      },
      "transferOwnership(address)": {
        "details": "Transfers ownership of the contract to a new account (`newOwner`). Can only be called by the current owner."
      }
    },
    "version": 1
  },
  "userdoc": {
    "kind": "user",
    "methods": {
      "ccipReceive((bytes32,uint64,bytes,bytes,(address,uint256)[]))": {
        "notice": "Called by the Router to deliver a message. If this reverts, any token transfers also revert. The message will move to a FAILED state and become available for manual execution."
      },
      "getRouter()": {
        "notice": "Return the current router"
      },
      "handleOracleFulfillment(bytes32,bytes,bytes)": {
        "notice": "Chainlink Functions response handler called by the Functions Router during fullilment from the designated transmitter node in an OCR round."
      },
      "supportsInterface(bytes4)": {
        "notice": "IERC165 supports an interfaceId"
      }
    },
    "version": 1
  }
}