{
  "contractName": "KanvasInterop",
  "abi": [
    {
      "inputs": [
        {
          "internalType": "address",
          "name": "receiver",
          "type": "address"
        }
      ],
      "stateMutability": "nonpayable",
      "type": "constructor"
    },
    {
      "inputs": [
        {
          "internalType": "address",
          "name": "router",
          "type": "address"
        }
      ],
      "name": "InvalidRouter",
      "type": "error"
    },
    {
      "anonymous": false,
      "inputs": [
        {
          "indexed": true,
          "internalType": "bytes32",
          "name": "id",
          "type": "bytes32"
        }
      ],
      "name": "ChainlinkCancelled",
      "type": "event"
    },
    {
      "anonymous": false,
      "inputs": [
        {
          "indexed": true,
          "internalType": "bytes32",
          "name": "id",
          "type": "bytes32"
        }
      ],
      "name": "ChainlinkFulfilled",
      "type": "event"
    },
    {
      "anonymous": false,
      "inputs": [
        {
          "indexed": true,
          "internalType": "bytes32",
          "name": "id",
          "type": "bytes32"
        }
      ],
      "name": "ChainlinkRequested",
      "type": "event"
    },
    {
      "anonymous": false,
      "inputs": [
        {
          "indexed": true,
          "internalType": "address",
          "name": "previousOwner",
          "type": "address"
        },
        {
          "indexed": true,
          "internalType": "address",
          "name": "newOwner",
          "type": "address"
        }
      ],
      "name": "OwnershipTransferred",
      "type": "event"
    },
    {
      "anonymous": false,
      "inputs": [
        {
          "indexed": false,
          "internalType": "uint256",
          "name": "planId",
          "type": "uint256"
        },
        {
          "indexed": false,
          "internalType": "string",
          "name": "name",
          "type": "string"
        },
        {
          "indexed": false,
          "internalType": "uint256",
          "name": "cost",
          "type": "uint256"
        },
        {
          "indexed": false,
          "internalType": "string",
          "name": "color",
          "type": "string"
        },
        {
          "indexed": false,
          "internalType": "uint256",
          "name": "limit",
          "type": "uint256"
        }
      ],
      "name": "PlanCreated",
      "type": "event"
    },
    {
      "inputs": [],
      "name": "MAX_PROPERTIES_LEN",
      "outputs": [
        {
          "internalType": "uint256",
          "name": "",
          "type": "uint256"
        }
      ],
      "stateMutability": "view",
      "type": "function"
    },
    {
      "inputs": [],
      "name": "MAX_TEMPLATES_LEN",
      "outputs": [
        {
          "internalType": "uint256",
          "name": "",
          "type": "uint256"
        }
      ],
      "stateMutability": "view",
      "type": "function"
    },
    {
      "inputs": [
        {
          "components": [
            {
              "internalType": "bytes32",
              "name": "messageId",
              "type": "bytes32"
            },
            {
              "internalType": "uint64",
              "name": "sourceChainSelector",
              "type": "uint64"
            },
            {
              "internalType": "bytes",
              "name": "sender",
              "type": "bytes"
            },
            {
              "internalType": "bytes",
              "name": "data",
              "type": "bytes"
            },
            {
              "components": [
                {
                  "internalType": "address",
                  "name": "token",
                  "type": "address"
                },
                {
                  "internalType": "uint256",
                  "name": "amount",
                  "type": "uint256"
                }
              ],
              "internalType": "struct Client.EVMTokenAmount[]",
              "name": "destTokenAmounts",
              "type": "tuple[]"
            }
          ],
          "internalType": "struct Client.Any2EVMMessage",
          "name": "message",
          "type": "tuple"
        }
      ],
      "name": "ccipReceive",
      "outputs": [],
      "stateMutability": "nonpayable",
      "type": "function"
    },
    {
      "inputs": [],
      "name": "getRouter",
      "outputs": [
        {
          "internalType": "address",
          "name": "",
          "type": "address"
        }
      ],
      "stateMutability": "view",
      "type": "function"
    },
    {
      "inputs": [],
      "name": "owner",
      "outputs": [
        {
          "internalType": "address",
          "name": "",
          "type": "address"
        }
      ],
      "stateMutability": "view",
      "type": "function"
    },
    {
      "inputs": [],
      "name": "renounceOwnership",
      "outputs": [],
      "stateMutability": "nonpayable",
      "type": "function"
    },
    {
      "inputs": [
        {
          "internalType": "bytes4",
          "name": "interfaceId",
          "type": "bytes4"
        }
      ],
      "name": "supportsInterface",
      "outputs": [
        {
          "internalType": "bool",
          "name": "",
          "type": "bool"
        }
      ],
      "stateMutability": "pure",
      "type": "function"
    },
    {
      "inputs": [
        {
          "internalType": "address",
          "name": "newOwner",
          "type": "address"
        }
      ],
      "name": "transferOwnership",
      "outputs": [],
      "stateMutability": "nonpayable",
      "type": "function"
    },
    {
      "inputs": [
        {
          "internalType": "uint64",
          "name": "",
          "type": "uint64"
        },
        {
          "components": [
            {
              "internalType": "address",
              "name": "gameId",
              "type": "address"
            }
          ],
          "internalType": "struct Params.InteropGame",
          "name": "params",
          "type": "tuple"
        }
      ],
      "name": "_createGame",
      "outputs": [],
      "stateMutability": "nonpayable",
      "type": "function"
    },
    {
      "inputs": [
        {
          "internalType": "address",
          "name": "playerId",
          "type": "address"
        },
        {
          "internalType": "string[]",
          "name": "properties",
          "type": "string[]"
        },
        {
          "internalType": "string",
          "name": "fields",
          "type": "string"
        },
        {
          "internalType": "uint8",
          "name": "templateId",
          "type": "uint8"
        }
      ],
      "name": "_generateUri",
      "outputs": [],
      "stateMutability": "nonpayable",
      "type": "function"
    },
    {
      "inputs": [
        {
          "internalType": "uint64",
          "name": "chainSelector",
          "type": "uint64"
        },
        {
          "internalType": "address",
          "name": "kanvasRouter",
          "type": "address"
        }
      ],
      "name": "updateInterop",
      "outputs": [],
      "stateMutability": "nonpayable",
      "type": "function"
    },
    {
      "inputs": [
        {
          "internalType": "bytes32",
          "name": "requestId",
          "type": "bytes32"
        },
        {
          "internalType": "string",
          "name": "uri",
          "type": "string"
        }
      ],
      "name": "fulfill",
      "outputs": [],
      "stateMutability": "nonpayable",
      "type": "function"
    },
    {
      "inputs": [],
      "name": "withdrawLink",
      "outputs": [],
      "stateMutability": "nonpayable",
      "type": "function"
    },
    {
      "inputs": [
        {
          "internalType": "uint64",
          "name": "chainSelector",
          "type": "uint64"
        },
        {
          "internalType": "address",
          "name": "gameId",
          "type": "address"
        },
        {
          "internalType": "address",
          "name": "playerId",
          "type": "address"
        },
        {
          "internalType": "uint256",
          "name": "tokenId",
          "type": "uint256"
        },
        {
          "internalType": "string",
          "name": "uri",
          "type": "string"
        },
        {
          "internalType": "bytes",
          "name": "data",
          "type": "bytes"
        }
      ],
      "name": "_transferTo",
      "outputs": [],
      "stateMutability": "payable",
      "type": "function"
    }
  ],
  "bytecode": "0x60a060405260016004553480156200001657600080fd5b50604051620046f2380380620046f283398181016040528101906200003c9190620003c4565b80600073ffffffffffffffffffffffffffffffffffffffff168173ffffffffffffffffffffffffffffffffffffffff1603620000b25760006040517fd7f73334000000000000000000000000000000000000000000000000000000008152600401620000a9919062000407565b60405180910390fd5b8073ffffffffffffffffffffffffffffffffffffffff1660808173ffffffffffffffffffffffffffffffffffffffff16815250505062000107620000fb620001fa60201b60201c565b6200020260201b60201c565b6200012c73326c977e6efc84e512bb9c30f76e30c160ed06fb620002c860201b60201c565b620001517340193c8518bb267228fc409a613bdbd8ec5a97b36200030c60201b60201c565b7f3764383061363338366566353433613361626235323831376636373037653362600781905550600a670de0b6b3a764000060016200019191906200045d565b6200019d9190620004d7565b600881905550620001b36200035060201b60201c565b600c60006101000a81548173ffffffffffffffffffffffffffffffffffffffff021916908373ffffffffffffffffffffffffffffffffffffffff160217905550506200050f565b600033905090565b6000600660009054906101000a900473ffffffffffffffffffffffffffffffffffffffff16905081600660006101000a81548173ffffffffffffffffffffffffffffffffffffffff021916908373ffffffffffffffffffffffffffffffffffffffff1602179055508173ffffffffffffffffffffffffffffffffffffffff168173ffffffffffffffffffffffffffffffffffffffff167f8be0079c531659141344cd1fd0a4f28419497f9722a3daafe3b4186f6b6457e060405160405180910390a35050565b80600260006101000a81548173ffffffffffffffffffffffffffffffffffffffff021916908373ffffffffffffffffffffffffffffffffffffffff16021790555050565b80600360006101000a81548173ffffffffffffffffffffffffffffffffffffffff021916908373ffffffffffffffffffffffffffffffffffffffff16021790555050565b6000608051905090565b600080fd5b600073ffffffffffffffffffffffffffffffffffffffff82169050919050565b60006200038c826200035f565b9050919050565b6200039e816200037f565b8114620003aa57600080fd5b50565b600081519050620003be8162000393565b92915050565b600060208284031215620003dd57620003dc6200035a565b5b6000620003ed84828501620003ad565b91505092915050565b62000401816200037f565b82525050565b60006020820190506200041e6000830184620003f6565b92915050565b6000819050919050565b7f4e487b7100000000000000000000000000000000000000000000000000000000600052601160045260246000fd5b60006200046a8262000424565b9150620004778362000424565b9250828202620004878162000424565b91508282048414831517620004a157620004a06200042e565b5b5092915050565b7f4e487b7100000000000000000000000000000000000000000000000000000000600052601260045260246000fd5b6000620004e48262000424565b9150620004f18362000424565b925082620005045762000503620004a8565b5b828204905092915050565b6080516141c062000532600039600081816107750152610df501526141c06000f3fe6080604052600436106100dd5760003560e01c80638dc654a21161007f578063b0f479a111610059578063b0f479a114610263578063dff0ee411461028e578063eee6e573146102b9578063f2fde38b146102e2576100dd565b80638dc654a2146101fa57806392154a3d14610211578063afd21cfe1461023a576100dd565b806385572ffb116100bb57806385572ffb1461015f5780638b8ff358146101885780638d6dc0eb146101b35780638da5cb5b146101cf576100dd565b806301ffc9a7146100e2578063374419961461011f578063715018a614610148575b600080fd5b3480156100ee57600080fd5b5061010960048036038101906101049190612389565b61030b565b60405161011691906123d1565b60405180910390f35b34801561012b57600080fd5b5061014660048036038101906101419190612568565b6103dd565b005b34801561015457600080fd5b5061015d61075f565b005b34801561016b57600080fd5b50610186600480360381019061018191906125e8565b610773565b005b34801561019457600080fd5b5061019d610818565b6040516101aa919061264a565b60405180910390f35b6101cd60048036038101906101c891906127d0565b61081d565b005b3480156101db57600080fd5b506101e4610bb9565b6040516101f191906128a4565b60405180910390f35b34801561020657600080fd5b5061020f610be3565b005b34801561021d57600080fd5b50610238600480360381019061023391906128bf565b610cf2565b005b34801561024657600080fd5b50610261600480360381019061025c9190612945565b610d64565b005b34801561026f57600080fd5b50610278610df1565b60405161028591906128a4565b60405180910390f35b34801561029a57600080fd5b506102a3610e19565b6040516102b0919061264a565b60405180910390f35b3480156102c557600080fd5b506102e060048036038101906102db9190612aa4565b610e1e565b005b3480156102ee57600080fd5b5061030960048036038101906103049190612b43565b61127c565b005b60007f85572ffb000000000000000000000000000000000000000000000000000000007bffffffffffffffffffffffffffffffffffffffffffffffffffffffff1916827bffffffffffffffffffffffffffffffffffffffffffffffffffffffff191614806103d657507f01ffc9a7000000000000000000000000000000000000000000000000000000007bffffffffffffffffffffffffffffffffffffffffffffffffffffffff1916827bffffffffffffffffffffffffffffffffffffffffffffffffffffffff1916145b9050919050565b816005600082815260200190815260200160002060009054906101000a900473ffffffffffffffffffffffffffffffffffffffff1673ffffffffffffffffffffffffffffffffffffffff163373ffffffffffffffffffffffffffffffffffffffff161461047f576040517f08c379a000000000000000000000000000000000000000000000000000000000815260040161047690612bf3565b60405180910390fd5b6005600082815260200190815260200160002060006101000a81549073ffffffffffffffffffffffffffffffffffffffff0219169055807f7cc135e0cebb02c3480ae5d74d377283180a2601f8f644edf7987b009316c63a60405160405180910390a26000600a600085815260200190815260200160002090508060010160149054906101000a900460ff161561054b576040517f08c379a000000000000000000000000000000000000000000000000000000000815260040161054290612c5f565b60405180910390fd5b600083511161058f576040517f08c379a000000000000000000000000000000000000000000000000000000000815260040161058690612ccb565b60405180910390fd5b60018160010160146101000a81548160ff021916908315150217905550600073ffffffffffffffffffffffffffffffffffffffff16600960008360000160009054906101000a900473ffffffffffffffffffffffffffffffffffffffff1673ffffffffffffffffffffffffffffffffffffffff1673ffffffffffffffffffffffffffffffffffffffff16815260200190815260200160002060009054906101000a900473ffffffffffffffffffffffffffffffffffffffff1673ffffffffffffffffffffffffffffffffffffffff160361069e576040517f08c379a000000000000000000000000000000000000000000000000000000000815260040161069590612d37565b60405180910390fd5b60008160000160009054906101000a900473ffffffffffffffffffffffffffffffffffffffff1690508073ffffffffffffffffffffffffffffffffffffffff16638f9c39568360010160009054906101000a900473ffffffffffffffffffffffffffffffffffffffff16866040518363ffffffff1660e01b8152600401610726929190612dc5565b600060405180830381600087803b15801561074057600080fd5b505af1158015610754573d6000803e3d6000fd5b505050505050505050565b6107676112ff565b610771600061137d565b565b7f000000000000000000000000000000000000000000000000000000000000000073ffffffffffffffffffffffffffffffffffffffff163373ffffffffffffffffffffffffffffffffffffffff161461080357336040517fd7f733340000000000000000000000000000000000000000000000000000000081526004016107fa91906128a4565b60405180910390fd5b6108158161081090612fe8565b611443565b50565b601481565b600073ffffffffffffffffffffffffffffffffffffffff16600b60008867ffffffffffffffff1667ffffffffffffffff16815260200190815260200160002060009054906101000a900473ffffffffffffffffffffffffffffffffffffffff1673ffffffffffffffffffffffffffffffffffffffff16036108d3576040517f08c379a00000000000000000000000000000000000000000000000000000000081526004016108ca90613047565b60405180910390fd5b60006040518060a00160405280600b60008a67ffffffffffffffff1667ffffffffffffffff16815260200190815260200160002060009054906101000a900473ffffffffffffffffffffffffffffffffffffffff1660405160200161093891906128a4565b604051602081830303815290604052815260200187878787876040516020016109659594939291906130bc565b6040516020818303038152906040528152602001600067ffffffffffffffff8111156109945761099361243d565b5b6040519080825280602002602001820160405280156109cd57816020015b6109ba612266565b8152602001906001900390816109b25790505b508152602001600073ffffffffffffffffffffffffffffffffffffffff168152602001610a13604051806040016040528062061a808152602001600015158152506114f4565b81525090506000600c60009054906101000a900473ffffffffffffffffffffffffffffffffffffffff1673ffffffffffffffffffffffffffffffffffffffff166320487ded67adecc60412ce25a5846040518363ffffffff1660e01b8152600401610a7f9291906132fd565b602060405180830381865afa158015610a9c573d6000803e3d6000fd5b505050506040513d601f19601f82011682018060405250810190610ac09190613342565b905080341015610b05576040517f08c379a0000000000000000000000000000000000000000000000000000000008152600401610afc906133bb565b60405180910390fd5b600c60009054906101000a900473ffffffffffffffffffffffffffffffffffffffff1673ffffffffffffffffffffffffffffffffffffffff166396f4e9f98267adecc60412ce25a5856040518463ffffffff1660e01b8152600401610b6b9291906132fd565b60206040518083038185885af1158015610b89573d6000803e3d6000fd5b50505050506040513d601f19601f82011682018060405250810190610bae91906133f0565b505050505050505050565b6000600660009054906101000a900473ffffffffffffffffffffffffffffffffffffffff16905090565b610beb6112ff565b6000610bf5611573565b90508073ffffffffffffffffffffffffffffffffffffffff1663a9059cbb338373ffffffffffffffffffffffffffffffffffffffff166370a08231306040518263ffffffff1660e01b8152600401610c4d91906128a4565b602060405180830381865afa158015610c6a573d6000803e3d6000fd5b505050506040513d601f19601f82011682018060405250810190610c8e9190613342565b6040518363ffffffff1660e01b8152600401610cab92919061341d565b6020604051808303816000875af1158015610cca573d6000803e3d6000fd5b505050506040513d601f19601f82011682018060405250810190610cee9190613472565b5050565b610cfa6112ff565b80600b60008467ffffffffffffffff1667ffffffffffffffff16815260200190815260200160002060006101000a81548173ffffffffffffffffffffffffffffffffffffffff021916908373ffffffffffffffffffffffffffffffffffffffff1602179055505050565b806000015160096000610d7561159d565b73ffffffffffffffffffffffffffffffffffffffff1673ffffffffffffffffffffffffffffffffffffffff16815260200190815260200160002060006101000a81548173ffffffffffffffffffffffffffffffffffffffff021916908373ffffffffffffffffffffffffffffffffffffffff1602179055505050565b60007f0000000000000000000000000000000000000000000000000000000000000000905090565b600581565b601483511115610e63576040517f08c379a0000000000000000000000000000000000000000000000000000000008152600401610e5a906134eb565b60405180910390fd5b600060096000610e7161159d565b73ffffffffffffffffffffffffffffffffffffffff1673ffffffffffffffffffffffffffffffffffffffff16815260200190815260200160002060009054906101000a900473ffffffffffffffffffffffffffffffffffffffff169050600073ffffffffffffffffffffffffffffffffffffffff16600960008373ffffffffffffffffffffffffffffffffffffffff1673ffffffffffffffffffffffffffffffffffffffff16815260200190815260200160002060009054906101000a900473ffffffffffffffffffffffffffffffffffffffff1673ffffffffffffffffffffffffffffffffffffffff1603610f9c576040517f08c379a0000000000000000000000000000000000000000000000000000000008152600401610f9390612d37565b60405180910390fd5b6000610fb260075430633744199660e01b6115a5565b90506110d66040518060400160405280600381526020017f67657400000000000000000000000000000000000000000000000000000000008152506040518060600160405280602981526020016141626029913973__StringJoiner__________________________635c8656e0896040518263ffffffff1660e01b815260040161103d9190613674565b600060405180830381865af415801561105a573d6000803e3d6000fd5b505050506040513d6000823e3d601f19601f820116820180604052508101906110839190613719565b8761108d876115d6565b6110968c6115d6565b6110a28a60ff16611603565b6040516020016110b7969594939291906137c4565b604051602081830303815290604052836116d19092919063ffffffff16565b6111556040518060400160405280600481526020017f70617468000000000000000000000000000000000000000000000000000000008152506040518060400160405280600381526020017f7572690000000000000000000000000000000000000000000000000000000000815250836116d19092919063ffffffff16565b600061116382600854611704565b905060405180606001604052808473ffffffffffffffffffffffffffffffffffffffff1681526020018873ffffffffffffffffffffffffffffffffffffffff16815260200160001515815250600a600083815260200190815260200160002060008201518160000160006101000a81548173ffffffffffffffffffffffffffffffffffffffff021916908373ffffffffffffffffffffffffffffffffffffffff16021790555060208201518160010160006101000a81548173ffffffffffffffffffffffffffffffffffffffff021916908373ffffffffffffffffffffffffffffffffffffffff16021790555060408201518160010160146101000a81548160ff02191690831515021790555090505050505050505050565b6112846112ff565b600073ffffffffffffffffffffffffffffffffffffffff168173ffffffffffffffffffffffffffffffffffffffff16036112f3576040517f08c379a00000000000000000000000000000000000000000000000000000000081526004016112ea906138d9565b60405180910390fd5b6112fc8161137d565b50565b61130761159d565b73ffffffffffffffffffffffffffffffffffffffff16611325610bb9565b73ffffffffffffffffffffffffffffffffffffffff161461137b576040517f08c379a000000000000000000000000000000000000000000000000000000000815260040161137290613945565b60405180910390fd5b565b6000600660009054906101000a900473ffffffffffffffffffffffffffffffffffffffff16905081600660006101000a81548173ffffffffffffffffffffffffffffffffffffffff021916908373ffffffffffffffffffffffffffffffffffffffff1602179055508173ffffffffffffffffffffffffffffffffffffffff168173ffffffffffffffffffffffffffffffffffffffff167f8be0079c531659141344cd1fd0a4f28419497f9722a3daafe3b4186f6b6457e060405160405180910390a35050565b600080600080600085606001518060200190518101906114639190613a13565b9450945094509450945060008590508073ffffffffffffffffffffffffffffffffffffffff16636d4195fb886020015188888888886040518763ffffffff1660e01b81526004016114b996959493929190613ac6565b600060405180830381600087803b1580156114d357600080fd5b505af11580156114e7573d6000803e3d6000fd5b5050505050505050505050565b60606397a657c960e01b8260405160240161150f9190613b73565b604051602081830303815290604052907bffffffffffffffffffffffffffffffffffffffffffffffffffffffff19166020820180517bffffffffffffffffffffffffffffffffffffffffffffffffffffffff83818316178352505050509050919050565b6000600260009054906101000a900473ffffffffffffffffffffffffffffffffffffffff16905090565b600033905090565b6115ad612296565b6115b5612296565b6115cc8585858461173b909392919063ffffffff16565b9150509392505050565b60606115fc8273ffffffffffffffffffffffffffffffffffffffff16601460ff166117eb565b9050919050565b60606000600161161284611a27565b01905060008167ffffffffffffffff8111156116315761163061243d565b5b6040519080825280601f01601f1916602001820160405280156116635781602001600182028036833780820191505090505b509050600082602001820190505b6001156116c6578080600190039150507f3031323334353637383961626364656600000000000000000000000000000000600a86061a8153600a85816116ba576116b9613b8e565b5b04945060008503611671575b819350505050919050565b6116e8828460800151611b7a90919063ffffffff16565b6116ff818460800151611b7a90919063ffffffff16565b505050565b6000611733600360009054906101000a900473ffffffffffffffffffffffffffffffffffffffff168484611b9f565b905092915050565b611743612296565b6117538560800151610100611c6b565b508385600001818152505082856020019073ffffffffffffffffffffffffffffffffffffffff16908173ffffffffffffffffffffffffffffffffffffffff16815250508185604001907bffffffffffffffffffffffffffffffffffffffffffffffffffffffff191690817bffffffffffffffffffffffffffffffffffffffffffffffffffffffff191681525050849050949350505050565b6060600060028360026117fe9190613bec565b6118089190613c2e565b67ffffffffffffffff8111156118215761182061243d565b5b6040519080825280601f01601f1916602001820160405280156118535781602001600182028036833780820191505090505b5090507f30000000000000000000000000000000000000000000000000000000000000008160008151811061188b5761188a613c62565b5b60200101907effffffffffffffffffffffffffffffffffffffffffffffffffffffffffffff1916908160001a9053507f7800000000000000000000000000000000000000000000000000000000000000816001815181106118ef576118ee613c62565b5b60200101907effffffffffffffffffffffffffffffffffffffffffffffffffffffffffffff1916908160001a9053506000600184600261192f9190613bec565b6119399190613c2e565b90505b60018111156119d9577f3031323334353637383961626364656600000000000000000000000000000000600f86166010811061197b5761197a613c62565b5b1a60f81b82828151811061199257611991613c62565b5b60200101907effffffffffffffffffffffffffffffffffffffffffffffffffffffffffffff1916908160001a905350600485901c9450806119d290613c91565b905061193c565b5060008414611a1d576040517f08c379a0000000000000000000000000000000000000000000000000000000008152600401611a1490613d06565b60405180910390fd5b8091505092915050565b600080600090507a184f03e93ff9f4daa797ed6e38ed64bf6a1f0100000000000000008310611a85577a184f03e93ff9f4daa797ed6e38ed64bf6a1f0100000000000000008381611a7b57611a7a613b8e565b5b0492506040810190505b6d04ee2d6d415b85acef81000000008310611ac2576d04ee2d6d415b85acef81000000008381611ab857611ab7613b8e565b5b0492506020810190505b662386f26fc100008310611af157662386f26fc100008381611ae757611ae6613b8e565b5b0492506010810190505b6305f5e1008310611b1a576305f5e1008381611b1057611b0f613b8e565b5b0492506008810190505b6127108310611b3f576127108381611b3557611b34613b8e565b5b0492506004810190505b60648310611b625760648381611b5857611b57613b8e565b5b0492506002810190505b600a8310611b71576001810190505b80915050919050565b611b878260038351611cd5565b611b9a8183611e5a90919063ffffffff16565b505050565b6000806004549050600181611bb49190613c2e565b6004819055506000634042994660e01b60008087600001513089604001518760018c6080015160000151604051602401611bf5989796959493929190613d44565b604051602081830303815290604052907bffffffffffffffffffffffffffffffffffffffffffffffffffffffff19166020820180517bffffffffffffffffffffffffffffffffffffffffffffffffffffffff83818316178352505050509050611c6086838684611e7c565b925050509392505050565b611c73612303565b6000602083611c829190613dc9565b14611cae57602082611c949190613dc9565b6020611ca09190613dfa565b82611cab9190613c2e565b91505b81836020018181525050604051808452600081528281016020016040525082905092915050565b60178167ffffffffffffffff1611611d0c57611d068160058460ff16901b60ff16178461201190919063ffffffff16565b50611e55565b60ff8167ffffffffffffffff1611611d6257611d3b601860058460ff16901b178461201190919063ffffffff16565b50611d5c8167ffffffffffffffff166001856120319092919063ffffffff16565b50611e54565b61ffff8167ffffffffffffffff1611611db957611d92601960058460ff16901b178461201190919063ffffffff16565b50611db38167ffffffffffffffff166002856120319092919063ffffffff16565b50611e53565b63ffffffff8167ffffffffffffffff1611611e1257611deb601a60058460ff16901b178461201190919063ffffffff16565b50611e0c8167ffffffffffffffff166004856120319092919063ffffffff16565b50611e52565b611e2f601b60058460ff16901b178461201190919063ffffffff16565b50611e508167ffffffffffffffff166008856120319092919063ffffffff16565b505b5b5b5b505050565b611e62612303565b611e7483846000015151848551612053565b905092915050565b60003084604051602001611e91929190613ee7565b604051602081830303815290604052805190602001209050846005600083815260200190815260200160002060006101000a81548173ffffffffffffffffffffffffffffffffffffffff021916908373ffffffffffffffffffffffffffffffffffffffff160217905550807fb5e6e01e79f91267dc17b4e6314d5d4d03593d2ceee0fbb452b750bd70ea5af960405160405180910390a2600260009054906101000a900473ffffffffffffffffffffffffffffffffffffffff1673ffffffffffffffffffffffffffffffffffffffff16634000aea08685856040518463ffffffff1660e01b8152600401611f8793929190613f13565b6020604051808303816000875af1158015611fa6573d6000803e3d6000fd5b505050506040513d601f19601f82011682018060405250810190611fca9190613472565b612009576040517f08c379a000000000000000000000000000000000000000000000000000000000815260040161200090613fc3565b60405180910390fd5b949350505050565b612019612303565b6120298384600001515184612142565b905092915050565b612039612303565b61204a848560000151518585612198565b90509392505050565b61205b612303565b825182111561206957600080fd5b8460200151828561207a9190613c2e565b11156120af576120ae85600261209f8860200151888761209a9190613c2e565b612226565b6120a99190613bec565b612242565b5b6000808651805187602083010193508088870111156120ce5787860182525b60208701925050505b6020841061211557805182526020826120f09190613c2e565b91506020816120ff9190613c2e565b905060208461210e9190613dfa565b93506120d7565b60006001856020036101000a03905080198251168184511681811785525050508692505050949350505050565b61214a612303565b836020015183106121705761216f846002866020015161216a9190613bec565b612242565b5b8351805160208583010184815381860361218b576001820183525b5050508390509392505050565b6121a0612303565b846020015184836121b19190613c2e565b11156121d9576121d885600286856121c99190613c2e565b6121d39190613bec565b612242565b5b60006001836101006121eb9190614116565b6121f59190613dfa565b905085518386820101858319825116178152815185880111156122185784870182525b505085915050949350505050565b6000818311156122385782905061223c565b8190505b92915050565b6000826000015190506122558383611c6b565b506122608382611e5a565b50505050565b6040518060400160405280600073ffffffffffffffffffffffffffffffffffffffff168152602001600081525090565b6040518060a0016040528060008019168152602001600073ffffffffffffffffffffffffffffffffffffffff16815260200160007bffffffffffffffffffffffffffffffffffffffffffffffffffffffff19168152602001600081526020016122fd612303565b81525090565b604051806040016040528060608152602001600081525090565b6000604051905090565b600080fd5b600080fd5b60007fffffffff0000000000000000000000000000000000000000000000000000000082169050919050565b61236681612331565b811461237157600080fd5b50565b6000813590506123838161235d565b92915050565b60006020828403121561239f5761239e612327565b5b60006123ad84828501612374565b91505092915050565b60008115159050919050565b6123cb816123b6565b82525050565b60006020820190506123e660008301846123c2565b92915050565b6000819050919050565b6123ff816123ec565b811461240a57600080fd5b50565b60008135905061241c816123f6565b92915050565b600080fd5b600080fd5b6000601f19601f8301169050919050565b7f4e487b7100000000000000000000000000000000000000000000000000000000600052604160045260246000fd5b6124758261242c565b810181811067ffffffffffffffff821117156124945761249361243d565b5b80604052505050565b60006124a761231d565b90506124b3828261246c565b919050565b600067ffffffffffffffff8211156124d3576124d261243d565b5b6124dc8261242c565b9050602081019050919050565b82818337600083830152505050565b600061250b612506846124b8565b61249d565b90508281526020810184848401111561252757612526612427565b5b6125328482856124e9565b509392505050565b600082601f83011261254f5761254e612422565b5b813561255f8482602086016124f8565b91505092915050565b6000806040838503121561257f5761257e612327565b5b600061258d8582860161240d565b925050602083013567ffffffffffffffff8111156125ae576125ad61232c565b5b6125ba8582860161253a565b9150509250929050565b600080fd5b600060a082840312156125df576125de6125c4565b5b81905092915050565b6000602082840312156125fe576125fd612327565b5b600082013567ffffffffffffffff81111561261c5761261b61232c565b5b612628848285016125c9565b91505092915050565b6000819050919050565b61264481612631565b82525050565b600060208201905061265f600083018461263b565b92915050565b600067ffffffffffffffff82169050919050565b61268281612665565b811461268d57600080fd5b50565b60008135905061269f81612679565b92915050565b600073ffffffffffffffffffffffffffffffffffffffff82169050919050565b60006126d0826126a5565b9050919050565b6126e0816126c5565b81146126eb57600080fd5b50565b6000813590506126fd816126d7565b92915050565b61270c81612631565b811461271757600080fd5b50565b60008135905061272981612703565b92915050565b600067ffffffffffffffff82111561274a5761274961243d565b5b6127538261242c565b9050602081019050919050565b600061277361276e8461272f565b61249d565b90508281526020810184848401111561278f5761278e612427565b5b61279a8482856124e9565b509392505050565b600082601f8301126127b7576127b6612422565b5b81356127c7848260208601612760565b91505092915050565b60008060008060008060c087890312156127ed576127ec612327565b5b60006127fb89828a01612690565b965050602061280c89828a016126ee565b955050604061281d89828a016126ee565b945050606061282e89828a0161271a565b935050608087013567ffffffffffffffff81111561284f5761284e61232c565b5b61285b89828a0161253a565b92505060a087013567ffffffffffffffff81111561287c5761287b61232c565b5b61288889828a016127a2565b9150509295509295509295565b61289e816126c5565b82525050565b60006020820190506128b96000830184612895565b92915050565b600080604083850312156128d6576128d5612327565b5b60006128e485828601612690565b92505060206128f5858286016126ee565b9150509250929050565b600080fd5b600080fd5b60006020828403121561291f5761291e6128ff565b5b612929602061249d565b90506000612939848285016126ee565b60008301525092915050565b6000806040838503121561295c5761295b612327565b5b600061296a85828601612690565b925050602061297b85828601612909565b9150509250929050565b600067ffffffffffffffff8211156129a05761299f61243d565b5b602082029050602081019050919050565b600080fd5b60006129c96129c484612985565b61249d565b905080838252602082019050602084028301858111156129ec576129eb6129b1565b5b835b81811015612a3357803567ffffffffffffffff811115612a1157612a10612422565b5b808601612a1e898261253a565b855260208501945050506020810190506129ee565b5050509392505050565b600082601f830112612a5257612a51612422565b5b8135612a628482602086016129b6565b91505092915050565b600060ff82169050919050565b612a8181612a6b565b8114612a8c57600080fd5b50565b600081359050612a9e81612a78565b92915050565b60008060008060808587031215612abe57612abd612327565b5b6000612acc878288016126ee565b945050602085013567ffffffffffffffff811115612aed57612aec61232c565b5b612af987828801612a3d565b935050604085013567ffffffffffffffff811115612b1a57612b1961232c565b5b612b268782880161253a565b9250506060612b3787828801612a8f565b91505092959194509250565b600060208284031215612b5957612b58612327565b5b6000612b67848285016126ee565b91505092915050565b600082825260208201905092915050565b7f536f75726365206d75737420626520746865206f7261636c65206f662074686560008201527f2072657175657374000000000000000000000000000000000000000000000000602082015250565b6000612bdd602883612b70565b9150612be882612b81565b604082019050919050565b60006020820190508181036000830152612c0c81612bd0565b9050919050565b7f416c72656164792066756c66696c6c6564000000000000000000000000000000600082015250565b6000612c49601183612b70565b9150612c5482612c13565b602082019050919050565b60006020820190508181036000830152612c7881612c3c565b9050919050565b7f496e76616c696420555249000000000000000000000000000000000000000000600082015250565b6000612cb5600b83612b70565b9150612cc082612c7f565b602082019050919050565b60006020820190508181036000830152612ce481612ca8565b9050919050565b7f47616d65204e6f7420466f756e64000000000000000000000000000000000000600082015250565b6000612d21600e83612b70565b9150612d2c82612ceb565b602082019050919050565b60006020820190508181036000830152612d5081612d14565b9050919050565b600081519050919050565b60005b83811015612d80578082015181840152602081019050612d65565b60008484015250505050565b6000612d9782612d57565b612da18185612b70565b9350612db1818560208601612d62565b612dba8161242c565b840191505092915050565b6000604082019050612dda6000830185612895565b8181036020830152612dec8184612d8c565b90509392505050565b600067ffffffffffffffff821115612e1057612e0f61243d565b5b602082029050602081019050919050565b600060408284031215612e3757612e366128ff565b5b612e41604061249d565b90506000612e51848285016126ee565b6000830152506020612e658482850161271a565b60208301525092915050565b6000612e84612e7f84612df5565b61249d565b90508083825260208201905060408402830185811115612ea757612ea66129b1565b5b835b81811015612ed05780612ebc8882612e21565b845260208401935050604081019050612ea9565b5050509392505050565b600082601f830112612eef57612eee612422565b5b8135612eff848260208601612e71565b91505092915050565b600060a08284031215612f1e57612f1d6128ff565b5b612f2860a061249d565b90506000612f388482850161240d565b6000830152506020612f4c84828501612690565b602083015250604082013567ffffffffffffffff811115612f7057612f6f612904565b5b612f7c848285016127a2565b604083015250606082013567ffffffffffffffff811115612fa057612f9f612904565b5b612fac848285016127a2565b606083015250608082013567ffffffffffffffff811115612fd057612fcf612904565b5b612fdc84828501612eda565b60808301525092915050565b6000612ff43683612f08565b9050919050565b7f436861696e206e6f7420737570706f7274656400000000000000000000000000600082015250565b6000613031601383612b70565b915061303c82612ffb565b602082019050919050565b6000602082019050818103600083015261306081613024565b9050919050565b600081519050919050565b600082825260208201905092915050565b600061308e82613067565b6130988185613072565b93506130a8818560208601612d62565b6130b18161242c565b840191505092915050565b600060a0820190506130d16000830188612895565b6130de6020830187612895565b6130eb604083018661263b565b81810360608301526130fd8185612d8c565b905081810360808301526131118184613083565b90509695505050505050565b61312681612665565b82525050565b600082825260208201905092915050565b600061314882613067565b613152818561312c565b9350613162818560208601612d62565b61316b8161242c565b840191505092915050565b600081519050919050565b600082825260208201905092915050565b6000819050602082019050919050565b6131ab816126c5565b82525050565b6131ba81612631565b82525050565b6040820160008201516131d660008501826131a2565b5060208201516131e960208501826131b1565b50505050565b60006131fb83836131c0565b60408301905092915050565b6000602082019050919050565b600061321f82613176565b6132298185613181565b935061323483613192565b8060005b8381101561326557815161324c88826131ef565b975061325783613207565b925050600181019050613238565b5085935050505092915050565b600060a083016000830151848203600086015261328f828261313d565b915050602083015184820360208601526132a9828261313d565b915050604083015184820360408601526132c38282613214565b91505060608301516132d860608601826131a2565b50608083015184820360808601526132f0828261313d565b9150508091505092915050565b6000604082019050613312600083018561311d565b81810360208301526133248184613272565b90509392505050565b60008151905061333c81612703565b92915050565b60006020828403121561335857613357612327565b5b60006133668482850161332d565b91505092915050565b7f496e73756666696369656e742066656500000000000000000000000000000000600082015250565b60006133a5601083612b70565b91506133b08261336f565b602082019050919050565b600060208201905081810360008301526133d481613398565b9050919050565b6000815190506133ea816123f6565b92915050565b60006020828403121561340657613405612327565b5b6000613414848285016133db565b91505092915050565b60006040820190506134326000830185612895565b61343f602083018461263b565b9392505050565b61344f816123b6565b811461345a57600080fd5b50565b60008151905061346c81613446565b92915050565b60006020828403121561348857613487612327565b5b60006134968482850161345d565b91505092915050565b7f546f6f206d616e79206174747269627574657300000000000000000000000000600082015250565b60006134d5601383612b70565b91506134e08261349f565b602082019050919050565b60006020820190508181036000830152613504816134c8565b9050919050565b600081519050919050565b600082825260208201905092915050565b6000819050602082019050919050565b600082825260208201905092915050565b600061355382612d57565b61355d8185613537565b935061356d818560208601612d62565b6135768161242c565b840191505092915050565b600061358d8383613548565b905092915050565b6000602082019050919050565b60006135ad8261350b565b6135b78185613516565b9350836020820285016135c985613527565b8060005b8581101561360557848403895281516135e68582613581565b94506135f183613595565b925060208a019950506001810190506135cd565b50829750879550505050505092915050565b600082825260208201905092915050565b7f2c00000000000000000000000000000000000000000000000000000000000000600082015250565b600061365e600183613617565b915061366982613628565b602082019050919050565b6000604082019050818103600083015261368e81846135a2565b905081810360208301526136a181613651565b905092915050565b60006136bc6136b7846124b8565b61249d565b9050828152602081018484840111156136d8576136d7612427565b5b6136e3848285612d62565b509392505050565b600082601f830112613700576136ff612422565b5b81516137108482602086016136a9565b91505092915050565b60006020828403121561372f5761372e612327565b5b600082015167ffffffffffffffff81111561374d5761374c61232c565b5b613759848285016136eb565b91505092915050565b600081905092915050565b600061377882612d57565b6137828185613762565b9350613792818560208601612d62565b80840191505092915050565b7f2f00000000000000000000000000000000000000000000000000000000000000815250565b60006137d0828961376d565b91506137db8261379e565b6001820191506137eb828861376d565b91506137f68261379e565b600182019150613806828761376d565b91506138118261379e565b600182019150613821828661376d565b915061382c8261379e565b60018201915061383c828561376d565b91506138478261379e565b600182019150613857828461376d565b9150819050979650505050505050565b7f4f776e61626c653a206e6577206f776e657220697320746865207a65726f206160008201527f6464726573730000000000000000000000000000000000000000000000000000602082015250565b60006138c3602683612b70565b91506138ce82613867565b604082019050919050565b600060208201905081810360008301526138f2816138b6565b9050919050565b7f4f776e61626c653a2063616c6c6572206973206e6f7420746865206f776e6572600082015250565b600061392f602083612b70565b915061393a826138f9565b602082019050919050565b6000602082019050818103600083015261395e81613922565b9050919050565b6000613970826126a5565b9050919050565b61398081613965565b811461398b57600080fd5b50565b60008151905061399d81613977565b92915050565b60006139b66139b18461272f565b61249d565b9050828152602081018484840111156139d2576139d1612427565b5b6139dd848285612d62565b509392505050565b600082601f8301126139fa576139f9612422565b5b8151613a0a8482602086016139a3565b91505092915050565b600080600080600060a08688031215613a2f57613a2e612327565b5b6000613a3d8882890161398e565b9550506020613a4e8882890161398e565b9450506040613a5f8882890161332d565b935050606086015167ffffffffffffffff811115613a8057613a7f61232c565b5b613a8c888289016136eb565b925050608086015167ffffffffffffffff811115613aad57613aac61232c565b5b613ab9888289016139e5565b9150509295509295909350565b600060c082019050613adb600083018961311d565b613ae86020830188612895565b613af56040830187612895565b613b02606083018661263b565b8181036080830152613b148185612d8c565b905081810360a0830152613b288184613083565b9050979650505050505050565b613b3e816123b6565b82525050565b604082016000820151613b5a60008501826131b1565b506020820151613b6d6020850182613b35565b50505050565b6000604082019050613b886000830184613b44565b92915050565b7f4e487b7100000000000000000000000000000000000000000000000000000000600052601260045260246000fd5b7f4e487b7100000000000000000000000000000000000000000000000000000000600052601160045260246000fd5b6000613bf782612631565b9150613c0283612631565b9250828202613c1081612631565b91508282048414831517613c2757613c26613bbd565b5b5092915050565b6000613c3982612631565b9150613c4483612631565b9250828201905080821115613c5c57613c5b613bbd565b5b92915050565b7f4e487b7100000000000000000000000000000000000000000000000000000000600052603260045260246000fd5b6000613c9c82612631565b915060008203613caf57613cae613bbd565b5b600182039050919050565b7f537472696e67733a20686578206c656e67746820696e73756666696369656e74600082015250565b6000613cf0602083612b70565b9150613cfb82613cba565b602082019050919050565b60006020820190508181036000830152613d1f81613ce3565b9050919050565b613d2f816123ec565b82525050565b613d3e81612331565b82525050565b600061010082019050613d5a600083018b612895565b613d67602083018a61263b565b613d746040830189613d26565b613d816060830188612895565b613d8e6080830187613d35565b613d9b60a083018661263b565b613da860c083018561263b565b81810360e0830152613dba8184613083565b90509998505050505050505050565b6000613dd482612631565b9150613ddf83612631565b925082613def57613dee613b8e565b5b828206905092915050565b6000613e0582612631565b9150613e1083612631565b9250828203905081811115613e2857613e27613bbd565b5b92915050565b6000819050919050565b6000613e53613e4e613e49846126a5565b613e2e565b6126a5565b9050919050565b6000613e6582613e38565b9050919050565b6000613e7782613e5a565b9050919050565b60008160601b9050919050565b6000613e9682613e7e565b9050919050565b6000613ea882613e8b565b9050919050565b613ec0613ebb82613e6c565b613e9d565b82525050565b6000819050919050565b613ee1613edc82612631565b613ec6565b82525050565b6000613ef38285613eaf565b601482019150613f038284613ed0565b6020820191508190509392505050565b6000606082019050613f286000830186612895565b613f35602083018561263b565b8181036040830152613f478184613083565b9050949350505050565b7f756e61626c6520746f207472616e73666572416e6443616c6c20746f206f726160008201527f636c650000000000000000000000000000000000000000000000000000000000602082015250565b6000613fad602383612b70565b9150613fb882613f51565b604082019050919050565b60006020820190508181036000830152613fdc81613fa0565b9050919050565b60008160011c9050919050565b6000808291508390505b600185111561403a5780860481111561401657614015613bbd565b5b60018516156140255780820291505b808102905061403385613fe3565b9450613ffa565b94509492505050565b600082614053576001905061410f565b81614061576000905061410f565b81600181146140775760028114614081576140b0565b600191505061410f565b60ff84111561409357614092613bbd565b5b8360020a9150848211156140aa576140a9613bbd565b5b5061410f565b5060208310610133831016604e8410600b84101617156140e55782820a9050838111156140e0576140df613bbd565b5b61410f565b6140f28484846001613ff0565b9250905081840481111561410957614108613bbd565b5b81810290505b9392505050565b600061412182612631565b915061412c83612631565b92506141597fffffffffffffffffffffffffffffffffffffffffffffffffffffffffffffffff8484614043565b90509291505056fe68747470733a2f2f6b616e7661732d6469356a2e6f6e72656e6465722e636f6d2f67656e6572617465a2646970667358221220a00bdea7a5667e622387f6089a0eb75b5cc996fff93a8e461eb5e497d2d1d4b564736f6c63430008110033",
  "immutableReferences": {
    "14": [
      {
        "length": 32,
        "start": 1909
      },
      {
        "length": 32,
        "start": 3573
      }
    ]
  },
  "source": "// SPDX-License-Identifier: MIT\r\npragma solidity ^0.8.17;\r\n\r\nimport {Assets} from \"./libraries/Assets.sol\";\r\nimport {Params} from \"./libraries/Params.sol\";\r\nimport {IKanvasInterop} from \"./interfaces/IKanvasInterop.sol\";\r\nimport {IKanvasInteropGame} from \"./interfaces/IKanvasInteropGame.sol\";\r\nimport {IKanvasGame} from \"./interfaces/IKanvasGame.sol\";\r\nimport {StringJoiner} from \"./libraries/StringJoiner.sol\";\r\n\r\nimport {Strings} from \"@openzeppelin/contracts/utils/Strings.sol\";\r\nimport {Ownable} from \"@openzeppelin/contracts/access/Ownable.sol\";\r\nimport {Context} from \"@openzeppelin/contracts/utils/Context.sol\";\r\n\r\nimport {CCIPReceiver} from \"@chainlink/contracts-ccip/src/v0.8/ccip/applications/CCIPReceiver.sol\";\r\nimport {IRouterClient} from \"@chainlink/contracts-ccip/src/v0.8/ccip/interfaces/IRouterClient.sol\";\r\nimport {Client} from \"@chainlink/contracts-ccip/src/v0.8/ccip/libraries/Client.sol\";\r\nimport {ChainlinkClient, Chainlink, LinkTokenInterface} from \"@chainlink/contracts/src/v0.8/ChainlinkClient.sol\";\r\n\r\n// ! FOR POLYGON ALONE - HARDCODED VALUES\r\n\r\ncontract KanvasInterop is\r\n    IKanvasInterop,\r\n    Context,\r\n    CCIPReceiver,\r\n    ChainlinkClient,\r\n    Ownable\r\n{\r\n    uint64 private constant POLYGON_SELECTOR = 12532609583862916517;\r\n    uint256 public constant MAX_PROPERTIES_LEN = 20;\r\n    uint256 public constant MAX_TEMPLATES_LEN = 5;\r\n    using Chainlink for Chainlink.Request;\r\n\r\n    string private constant BASE_URL =\r\n        \"https://kanvas-di5j.onrender.com/generate\";\r\n\r\n    bytes32 private jobId;\r\n    uint256 private fee;\r\n\r\n    mapping(address => address) private _games;\r\n\r\n    mapping(bytes32 => Assets.Request) private _requests;\r\n\r\n    mapping(uint64 => address) private _interops;\r\n\r\n    IRouterClient private _router;\r\n\r\n    constructor(address receiver) CCIPReceiver(receiver) Ownable() {\r\n        setChainlinkToken(0x326C977E6efc84E512bB9C30f76E30c160eD06FB);\r\n        setChainlinkOracle(0x40193c8518BB267228Fc409a613bDbD8eC5a97b3);\r\n        jobId = \"7d80a6386ef543a3abb52817f6707e3b\";\r\n        fee = (1 * LINK_DIVISIBILITY) / 10;\r\n\r\n        _router = IRouterClient(getRouter());\r\n    }\r\n\r\n    function _createGame(\r\n        uint64 /* chainSelector */,\r\n        Params.InteropGame memory params\r\n    ) external override {\r\n        _games[_msgSender()] = params.gameId;\r\n    }\r\n\r\n    function _generateUri(\r\n        address playerId,\r\n        string[] memory properties,\r\n        string memory fields,\r\n        uint8 templateId\r\n    ) external override {\r\n        require(properties.length <= MAX_PROPERTIES_LEN, \"Too many attributes\");\r\n\r\n        address gameId = _games[_msgSender()];\r\n        require(_games[gameId] != address(0), \"Game Not Found\");\r\n\r\n        Chainlink.Request memory req = buildChainlinkRequest(\r\n            jobId,\r\n            address(this),\r\n            this.fulfill.selector\r\n        );\r\n\r\n        // Set the URL to perform the GET request on\r\n        // https://server.com/generete/properties/fields/gameid/playerid\r\n        req.add(\r\n            \"get\",\r\n            string.concat(\r\n                BASE_URL,\r\n                \"/\",\r\n                StringJoiner.joinStrings(properties, \",\"),\r\n                \"/\",\r\n                fields,\r\n                \"/\",\r\n                Strings.toHexString(gameId),\r\n                \"/\",\r\n                Strings.toHexString(playerId),\r\n                \"/\",\r\n                Strings.toString(templateId)\r\n            )\r\n        );\r\n\r\n        // Chainlink nodes 1.0.0 and later support this format\r\n        req.add(\"path\", \"uri\");\r\n\r\n        // Sends the request\r\n        bytes32 requestId = sendChainlinkRequest(req, fee);\r\n\r\n        _requests[requestId] = Assets.Request({\r\n            gameId: gameId,\r\n            playerId: playerId,\r\n            fulfilled: false\r\n        });\r\n    }\r\n\r\n    function updateInterop(\r\n        uint64 chainSelector,\r\n        address kanvasRouter\r\n    ) external onlyOwner {\r\n        _interops[chainSelector] = kanvasRouter;\r\n    }\r\n\r\n    /** Receive the response in the form of string  */\r\n    function fulfill(\r\n        bytes32 requestId,\r\n        string memory uri\r\n    ) public recordChainlinkFulfillment(requestId) {\r\n        Assets.Request storage request = _requests[requestId];\r\n        require(!request.fulfilled, \"Already fulfilled\");\r\n        require(bytes(uri).length > 0, \"Invalid URI\");\r\n\r\n        request.fulfilled = true;\r\n\r\n        require(_games[request.gameId] != address(0), \"Game Not Found\");\r\n\r\n        IKanvasGame game = IKanvasGame(request.gameId);\r\n        game._receiveUri(request.playerId, uri);\r\n    }\r\n\r\n    /** Allow withdraw of Link tokens from the contract */\r\n    function withdrawLink() public onlyOwner {\r\n        LinkTokenInterface link = LinkTokenInterface(chainlinkTokenAddress());\r\n        link.transfer(msg.sender, link.balanceOf(address(this)));\r\n    }\r\n\r\n    function _transferTo(\r\n        uint64 chainSelector,\r\n        address gameId,\r\n        address playerId,\r\n        uint256 tokenId,\r\n        string memory uri,\r\n        bytes memory data\r\n    ) external payable {\r\n        require(_interops[chainSelector] != address(0), \"Chain not supported\");\r\n\r\n        // Create an EVM2AnyMessage struct in memory with necessary information for sending a cross-chain message\r\n        Client.EVM2AnyMessage memory message = Client.EVM2AnyMessage({\r\n            // ABI-encoded receiver address\r\n            receiver: abi.encode(_interops[chainSelector]),\r\n            // ABI-encoded string message\r\n            data: abi.encode(gameId, playerId, tokenId, uri, data),\r\n            // Empty array indicating no tokens are being sent\r\n            tokenAmounts: new Client.EVMTokenAmount[](0),\r\n            // Additional arguments, setting gas limit and non-strict sequency mode\r\n            extraArgs: Client._argsToBytes(\r\n                Client.EVMExtraArgsV1({gasLimit: 400_000, strict: false})\r\n            ),\r\n            // Setting feeToken to zero address, indicating native asset will be used for fees\r\n            feeToken: address(0)\r\n        });\r\n\r\n        // Get the fee required to send the message\r\n        uint256 fees = _router.getFee(POLYGON_SELECTOR, message);\r\n\r\n        require(msg.value >= fees, \"Insufficient fee\");\r\n\r\n        // Send the message through the router and store the returned message ID\r\n        _router.ccipSend{value: fees}(POLYGON_SELECTOR, message);\r\n    }\r\n\r\n    // handle a received message\r\n    function _ccipReceive(\r\n        Client.Any2EVMMessage memory message\r\n    ) internal override {\r\n        (\r\n            address gameId,\r\n            address playerId,\r\n            uint256 tokenId,\r\n            string memory uri,\r\n            bytes memory data\r\n        ) = abi.decode(\r\n                message.data,\r\n                (address, address, uint256, string, bytes)\r\n            );\r\n\r\n        IKanvasInteropGame game = IKanvasInteropGame(gameId);\r\n        game._receiveFrom(\r\n            message.sourceChainSelector,\r\n            gameId,\r\n            playerId,\r\n            tokenId,\r\n            uri,\r\n            data\r\n        );\r\n    }\r\n}\r\n",
  "sourcePath": "C:\\Users\\DELL\\Documents\\kanvas\\blockchain\\contracts\\KanvasInterop.sol",
  "compiler": {
    "name": "solc",
    "version": "0.8.17+commit.8df45f5f.Emscripten.clang"
  },
  "schemaVersion": "3.4.11",
  "updatedAt": "2023-12-03T13:36:55.776Z",
  "devdoc": {
    "kind": "dev",
    "methods": {
      "ccipReceive((bytes32,uint64,bytes,bytes,(address,uint256)[]))": {
        "details": "Note ensure you check the msg.sender is the OffRampRouter",
        "params": {
          "message": "CCIP Message"
        }
      },
      "getRouter()": {
        "returns": {
          "_0": "i_router address"
        }
      },
      "owner()": {
        "details": "Returns the address of the current owner."
      },
      "renounceOwnership()": {
        "details": "Leaves the contract without owner. It will not be possible to call `onlyOwner` functions. Can only be called by the current owner. NOTE: Renouncing ownership will leave the contract without an owner, thereby disabling any functionality that is only available to the owner."
      },
      "supportsInterface(bytes4)": {
        "params": {
          "interfaceId": "The interfaceId to check"
        },
        "returns": {
          "_0": "true if the interfaceId is supported"
        }
      },
      "transferOwnership(address)": {
        "details": "Transfers ownership of the contract to a new account (`newOwner`). Can only be called by the current owner."
      }
    },
    "version": 1
  },
  "userdoc": {
    "kind": "user",
    "methods": {
      "ccipReceive((bytes32,uint64,bytes,bytes,(address,uint256)[]))": {
        "notice": "Called by the Router to deliver a message. If this reverts, any token transfers also revert. The message will move to a FAILED state and become available for manual execution."
      },
      "fulfill(bytes32,string)": {
        "notice": "Receive the response in the form of string  "
      },
      "getRouter()": {
        "notice": "Return the current router"
      },
      "supportsInterface(bytes4)": {
        "notice": "IERC165 supports an interfaceId"
      },
      "withdrawLink()": {
        "notice": "Allow withdraw of Link tokens from the contract "
      }
    },
    "version": 1
  }
}