{
  "contractName": "KanvasInterop",
  "abi": [
    {
      "inputs": [
        {
          "internalType": "address",
          "name": "receiver",
          "type": "address"
        }
      ],
      "stateMutability": "nonpayable",
      "type": "constructor"
    },
    {
      "inputs": [
        {
          "internalType": "address",
          "name": "router",
          "type": "address"
        }
      ],
      "name": "InvalidRouter",
      "type": "error"
    },
    {
      "anonymous": false,
      "inputs": [
        {
          "indexed": true,
          "internalType": "bytes32",
          "name": "id",
          "type": "bytes32"
        }
      ],
      "name": "ChainlinkCancelled",
      "type": "event"
    },
    {
      "anonymous": false,
      "inputs": [
        {
          "indexed": true,
          "internalType": "bytes32",
          "name": "id",
          "type": "bytes32"
        }
      ],
      "name": "ChainlinkFulfilled",
      "type": "event"
    },
    {
      "anonymous": false,
      "inputs": [
        {
          "indexed": true,
          "internalType": "bytes32",
          "name": "id",
          "type": "bytes32"
        }
      ],
      "name": "ChainlinkRequested",
      "type": "event"
    },
    {
      "anonymous": false,
      "inputs": [
        {
          "indexed": true,
          "internalType": "address",
          "name": "previousOwner",
          "type": "address"
        },
        {
          "indexed": true,
          "internalType": "address",
          "name": "newOwner",
          "type": "address"
        }
      ],
      "name": "OwnershipTransferred",
      "type": "event"
    },
    {
      "anonymous": false,
      "inputs": [
        {
          "indexed": false,
          "internalType": "uint256",
          "name": "planId",
          "type": "uint256"
        },
        {
          "indexed": false,
          "internalType": "string",
          "name": "name",
          "type": "string"
        },
        {
          "indexed": false,
          "internalType": "uint256",
          "name": "cost",
          "type": "uint256"
        },
        {
          "indexed": false,
          "internalType": "string",
          "name": "color",
          "type": "string"
        },
        {
          "indexed": false,
          "internalType": "uint256",
          "name": "limit",
          "type": "uint256"
        }
      ],
      "name": "PlanCreated",
      "type": "event"
    },
    {
      "inputs": [],
      "name": "MAX_PROPERTIES_LEN",
      "outputs": [
        {
          "internalType": "uint256",
          "name": "",
          "type": "uint256"
        }
      ],
      "stateMutability": "view",
      "type": "function"
    },
    {
      "inputs": [],
      "name": "MAX_TEMPLATES_LEN",
      "outputs": [
        {
          "internalType": "uint256",
          "name": "",
          "type": "uint256"
        }
      ],
      "stateMutability": "view",
      "type": "function"
    },
    {
      "inputs": [
        {
          "components": [
            {
              "internalType": "bytes32",
              "name": "messageId",
              "type": "bytes32"
            },
            {
              "internalType": "uint64",
              "name": "sourceChainSelector",
              "type": "uint64"
            },
            {
              "internalType": "bytes",
              "name": "sender",
              "type": "bytes"
            },
            {
              "internalType": "bytes",
              "name": "data",
              "type": "bytes"
            },
            {
              "components": [
                {
                  "internalType": "address",
                  "name": "token",
                  "type": "address"
                },
                {
                  "internalType": "uint256",
                  "name": "amount",
                  "type": "uint256"
                }
              ],
              "internalType": "struct Client.EVMTokenAmount[]",
              "name": "destTokenAmounts",
              "type": "tuple[]"
            }
          ],
          "internalType": "struct Client.Any2EVMMessage",
          "name": "message",
          "type": "tuple"
        }
      ],
      "name": "ccipReceive",
      "outputs": [],
      "stateMutability": "nonpayable",
      "type": "function"
    },
    {
      "inputs": [],
      "name": "getRouter",
      "outputs": [
        {
          "internalType": "address",
          "name": "",
          "type": "address"
        }
      ],
      "stateMutability": "view",
      "type": "function"
    },
    {
      "inputs": [],
      "name": "owner",
      "outputs": [
        {
          "internalType": "address",
          "name": "",
          "type": "address"
        }
      ],
      "stateMutability": "view",
      "type": "function"
    },
    {
      "inputs": [],
      "name": "renounceOwnership",
      "outputs": [],
      "stateMutability": "nonpayable",
      "type": "function"
    },
    {
      "inputs": [
        {
          "internalType": "bytes4",
          "name": "interfaceId",
          "type": "bytes4"
        }
      ],
      "name": "supportsInterface",
      "outputs": [
        {
          "internalType": "bool",
          "name": "",
          "type": "bool"
        }
      ],
      "stateMutability": "pure",
      "type": "function"
    },
    {
      "inputs": [
        {
          "internalType": "address",
          "name": "newOwner",
          "type": "address"
        }
      ],
      "name": "transferOwnership",
      "outputs": [],
      "stateMutability": "nonpayable",
      "type": "function"
    },
    {
      "inputs": [
        {
          "internalType": "uint64",
          "name": "",
          "type": "uint64"
        },
        {
          "components": [
            {
              "internalType": "address",
              "name": "gameId",
              "type": "address"
            }
          ],
          "internalType": "struct Params.InteropGame",
          "name": "params",
          "type": "tuple"
        }
      ],
      "name": "_createGame",
      "outputs": [],
      "stateMutability": "nonpayable",
      "type": "function"
    },
    {
      "inputs": [
        {
          "internalType": "address",
          "name": "playerId",
          "type": "address"
        },
        {
          "internalType": "string[]",
          "name": "properties",
          "type": "string[]"
        },
        {
          "internalType": "string",
          "name": "fields",
          "type": "string"
        },
        {
          "internalType": "uint8",
          "name": "templateId",
          "type": "uint8"
        }
      ],
      "name": "_generateUri",
      "outputs": [],
      "stateMutability": "nonpayable",
      "type": "function"
    },
    {
      "inputs": [
        {
          "internalType": "string",
          "name": "newBaseUrl",
          "type": "string"
        }
      ],
      "name": "updateBaseUrl",
      "outputs": [],
      "stateMutability": "nonpayable",
      "type": "function"
    },
    {
      "inputs": [
        {
          "internalType": "uint64",
          "name": "chainSelector",
          "type": "uint64"
        },
        {
          "internalType": "address",
          "name": "kanvasRouter",
          "type": "address"
        }
      ],
      "name": "updateInterop",
      "outputs": [],
      "stateMutability": "nonpayable",
      "type": "function"
    },
    {
      "inputs": [
        {
          "internalType": "bytes32",
          "name": "requestId",
          "type": "bytes32"
        },
        {
          "internalType": "string",
          "name": "uri",
          "type": "string"
        }
      ],
      "name": "fulfill",
      "outputs": [],
      "stateMutability": "nonpayable",
      "type": "function"
    },
    {
      "inputs": [],
      "name": "withdrawLink",
      "outputs": [],
      "stateMutability": "nonpayable",
      "type": "function"
    },
    {
      "inputs": [
        {
          "internalType": "uint64",
          "name": "chainSelector",
          "type": "uint64"
        },
        {
          "internalType": "address",
          "name": "gameId",
          "type": "address"
        },
        {
          "internalType": "address",
          "name": "playerId",
          "type": "address"
        },
        {
          "internalType": "uint256",
          "name": "tokenId",
          "type": "uint256"
        },
        {
          "internalType": "string",
          "name": "uri",
          "type": "string"
        },
        {
          "internalType": "bytes",
          "name": "data",
          "type": "bytes"
        }
      ],
      "name": "_transferTo",
      "outputs": [],
      "stateMutability": "payable",
      "type": "function"
    }
  ],
  "bytecode": "0x60a060405260016004556040518060200160405280600081525060079081620000299190620005f5565b503480156200003757600080fd5b5060405162004c4738038062004c4783398181016040528101906200005d919062000746565b80600073ffffffffffffffffffffffffffffffffffffffff168173ffffffffffffffffffffffffffffffffffffffff1603620000d35760006040517fd7f73334000000000000000000000000000000000000000000000000000000008152600401620000ca919062000789565b60405180910390fd5b8073ffffffffffffffffffffffffffffffffffffffff1660808173ffffffffffffffffffffffffffffffffffffffff168152505050620001286200011c6200021b60201b60201c565b6200022360201b60201c565b6200014d73326c977e6efc84e512bb9c30f76e30c160ed06fb620002e960201b60201c565b620001727340193c8518bb267228fc409a613bdbd8ec5a97b36200032d60201b60201c565b7f3764383061363338366566353433613361626235323831376636373037653362600881905550600a670de0b6b3a76400006001620001b29190620007d5565b620001be91906200084f565b600981905550620001d46200037160201b60201c565b600d60006101000a81548173ffffffffffffffffffffffffffffffffffffffff021916908373ffffffffffffffffffffffffffffffffffffffff1602179055505062000887565b600033905090565b6000600660009054906101000a900473ffffffffffffffffffffffffffffffffffffffff16905081600660006101000a81548173ffffffffffffffffffffffffffffffffffffffff021916908373ffffffffffffffffffffffffffffffffffffffff1602179055508173ffffffffffffffffffffffffffffffffffffffff168173ffffffffffffffffffffffffffffffffffffffff167f8be0079c531659141344cd1fd0a4f28419497f9722a3daafe3b4186f6b6457e060405160405180910390a35050565b80600260006101000a81548173ffffffffffffffffffffffffffffffffffffffff021916908373ffffffffffffffffffffffffffffffffffffffff16021790555050565b80600360006101000a81548173ffffffffffffffffffffffffffffffffffffffff021916908373ffffffffffffffffffffffffffffffffffffffff16021790555050565b6000608051905090565b600081519050919050565b7f4e487b7100000000000000000000000000000000000000000000000000000000600052604160045260246000fd5b7f4e487b7100000000000000000000000000000000000000000000000000000000600052602260045260246000fd5b60006002820490506001821680620003fd57607f821691505b602082108103620004135762000412620003b5565b5b50919050565b60008190508160005260206000209050919050565b60006020601f8301049050919050565b600082821b905092915050565b6000600883026200047d7fffffffffffffffffffffffffffffffffffffffffffffffffffffffffffffffff826200043e565b6200048986836200043e565b95508019841693508086168417925050509392505050565b6000819050919050565b6000819050919050565b6000620004d6620004d0620004ca84620004a1565b620004ab565b620004a1565b9050919050565b6000819050919050565b620004f283620004b5565b6200050a6200050182620004dd565b8484546200044b565b825550505050565b600090565b6200052162000512565b6200052e818484620004e7565b505050565b5b8181101562000556576200054a60008262000517565b60018101905062000534565b5050565b601f821115620005a5576200056f8162000419565b6200057a846200042e565b810160208510156200058a578190505b620005a262000599856200042e565b83018262000533565b50505b505050565b600082821c905092915050565b6000620005ca60001984600802620005aa565b1980831691505092915050565b6000620005e58383620005b7565b9150826002028217905092915050565b62000600826200037b565b67ffffffffffffffff8111156200061c576200061b62000386565b5b620006288254620003e4565b620006358282856200055a565b600060209050601f8311600181146200066d576000841562000658578287015190505b620006648582620005d7565b865550620006d4565b601f1984166200067d8662000419565b60005b82811015620006a75784890151825560018201915060208501945060208101905062000680565b86831015620006c75784890151620006c3601f891682620005b7565b8355505b6001600288020188555050505b505050505050565b600080fd5b600073ffffffffffffffffffffffffffffffffffffffff82169050919050565b60006200070e82620006e1565b9050919050565b620007208162000701565b81146200072c57600080fd5b50565b600081519050620007408162000715565b92915050565b6000602082840312156200075f576200075e620006dc565b5b60006200076f848285016200072f565b91505092915050565b620007838162000701565b82525050565b6000602082019050620007a0600083018462000778565b92915050565b7f4e487b7100000000000000000000000000000000000000000000000000000000600052601160045260246000fd5b6000620007e282620004a1565b9150620007ef83620004a1565b9250828202620007ff81620004a1565b91508282048414831517620008195762000818620007a6565b5b5092915050565b7f4e487b7100000000000000000000000000000000000000000000000000000000600052601260045260246000fd5b60006200085c82620004a1565b91506200086983620004a1565b9250826200087c576200087b62000820565b5b828204905092915050565b60805161439d620008aa600039600081816107650152610d2f015261439d6000f3fe6080604052600436106100e85760003560e01c80638dc654a21161008a578063dff0ee4111610059578063dff0ee4114610299578063ea21e5eb146102c4578063eee6e573146102ed578063f2fde38b14610316576100e8565b80638dc654a21461020557806392154a3d1461021c578063afd21cfe14610245578063b0f479a11461026e576100e8565b806385572ffb116100c657806385572ffb1461016a5780638b8ff358146101935780638d6dc0eb146101be5780638da5cb5b146101da576100e8565b806301ffc9a7146100ed578063374419961461012a578063715018a614610153575b600080fd5b3480156100f957600080fd5b50610114600480360381019061010f91906122c7565b61033f565b604051610121919061230f565b60405180910390f35b34801561013657600080fd5b50610151600480360381019061014c91906124a6565b610411565b005b34801561015f57600080fd5b5061016861074f565b005b34801561017657600080fd5b50610191600480360381019061018c9190612526565b610763565b005b34801561019f57600080fd5b506101a8610808565b6040516101b59190612588565b60405180910390f35b6101d860048036038101906101d3919061270e565b61080d565b005b3480156101e657600080fd5b506101ef610af3565b6040516101fc91906127e2565b60405180910390f35b34801561021157600080fd5b5061021a610b1d565b005b34801561022857600080fd5b50610243600480360381019061023e91906127fd565b610c2c565b005b34801561025157600080fd5b5061026c60048036038101906102679190612883565b610c9e565b005b34801561027a57600080fd5b50610283610d2b565b60405161029091906127e2565b60405180910390f35b3480156102a557600080fd5b506102ae610d53565b6040516102bb9190612588565b60405180910390f35b3480156102d057600080fd5b506102eb60048036038101906102e691906128c3565b610d58565b005b3480156102f957600080fd5b50610314600480360381019061030f9190612a2b565b610d73565b005b34801561032257600080fd5b5061033d60048036038101906103389190612aca565b6111ba565b005b60007f85572ffb000000000000000000000000000000000000000000000000000000007bffffffffffffffffffffffffffffffffffffffffffffffffffffffff1916827bffffffffffffffffffffffffffffffffffffffffffffffffffffffff1916148061040a57507f01ffc9a7000000000000000000000000000000000000000000000000000000007bffffffffffffffffffffffffffffffffffffffffffffffffffffffff1916827bffffffffffffffffffffffffffffffffffffffffffffffffffffffff1916145b9050919050565b816005600082815260200190815260200160002060009054906101000a900473ffffffffffffffffffffffffffffffffffffffff1673ffffffffffffffffffffffffffffffffffffffff163373ffffffffffffffffffffffffffffffffffffffff16146104b3576040517f08c379a00000000000000000000000000000000000000000000000000000000081526004016104aa90612b7a565b60405180910390fd5b6005600082815260200190815260200160002060006101000a81549073ffffffffffffffffffffffffffffffffffffffff0219169055807f7cc135e0cebb02c3480ae5d74d377283180a2601f8f644edf7987b009316c63a60405160405180910390a26000600b600085815260200190815260200160002090508060010160149054906101000a900460ff161561057f576040517f08c379a000000000000000000000000000000000000000000000000000000000815260040161057690612be6565b60405180910390fd5b60018160010160146101000a81548160ff021916908315150217905550600073ffffffffffffffffffffffffffffffffffffffff16600a60008360000160009054906101000a900473ffffffffffffffffffffffffffffffffffffffff1673ffffffffffffffffffffffffffffffffffffffff1673ffffffffffffffffffffffffffffffffffffffff16815260200190815260200160002060009054906101000a900473ffffffffffffffffffffffffffffffffffffffff1673ffffffffffffffffffffffffffffffffffffffff160361068e576040517f08c379a000000000000000000000000000000000000000000000000000000000815260040161068590612c52565b60405180910390fd5b60008160000160009054906101000a900473ffffffffffffffffffffffffffffffffffffffff1690508073ffffffffffffffffffffffffffffffffffffffff16638f9c39568360010160009054906101000a900473ffffffffffffffffffffffffffffffffffffffff16866040518363ffffffff1660e01b8152600401610716929190612ce0565b600060405180830381600087803b15801561073057600080fd5b505af1158015610744573d6000803e3d6000fd5b505050505050505050565b61075761123d565b61076160006112bb565b565b7f000000000000000000000000000000000000000000000000000000000000000073ffffffffffffffffffffffffffffffffffffffff163373ffffffffffffffffffffffffffffffffffffffff16146107f357336040517fd7f733340000000000000000000000000000000000000000000000000000000081526004016107ea91906127e2565b60405180910390fd5b6108058161080090612f03565b611381565b50565b601481565b60006040518060a00160405280600c60008a67ffffffffffffffff1667ffffffffffffffff16815260200190815260200160002060009054906101000a900473ffffffffffffffffffffffffffffffffffffffff1660405160200161087291906127e2565b6040516020818303038152906040528152602001878787878760405160200161089f959493929190612f6b565b6040516020818303038152906040528152602001600067ffffffffffffffff8111156108ce576108cd61237b565b5b60405190808252806020026020018201604052801561090757816020015b6108f46121a4565b8152602001906001900390816108ec5790505b508152602001600073ffffffffffffffffffffffffffffffffffffffff16815260200161094d604051806040016040528062061a80815260200160001515815250611432565b81525090506000600d60009054906101000a900473ffffffffffffffffffffffffffffffffffffffff1673ffffffffffffffffffffffffffffffffffffffff166320487ded67adecc60412ce25a5846040518363ffffffff1660e01b81526004016109b99291906131ac565b602060405180830381865afa1580156109d6573d6000803e3d6000fd5b505050506040513d601f19601f820116820180604052508101906109fa91906131f1565b905080341015610a3f576040517f08c379a0000000000000000000000000000000000000000000000000000000008152600401610a369061326a565b60405180910390fd5b600d60009054906101000a900473ffffffffffffffffffffffffffffffffffffffff1673ffffffffffffffffffffffffffffffffffffffff166396f4e9f98267adecc60412ce25a5856040518463ffffffff1660e01b8152600401610aa59291906131ac565b60206040518083038185885af1158015610ac3573d6000803e3d6000fd5b50505050506040513d601f19601f82011682018060405250810190610ae8919061329f565b505050505050505050565b6000600660009054906101000a900473ffffffffffffffffffffffffffffffffffffffff16905090565b610b2561123d565b6000610b2f6114b1565b90508073ffffffffffffffffffffffffffffffffffffffff1663a9059cbb338373ffffffffffffffffffffffffffffffffffffffff166370a08231306040518263ffffffff1660e01b8152600401610b8791906127e2565b602060405180830381865afa158015610ba4573d6000803e3d6000fd5b505050506040513d601f19601f82011682018060405250810190610bc891906131f1565b6040518363ffffffff1660e01b8152600401610be59291906132cc565b6020604051808303816000875af1158015610c04573d6000803e3d6000fd5b505050506040513d601f19601f82011682018060405250810190610c289190613321565b5050565b610c3461123d565b80600c60008467ffffffffffffffff1667ffffffffffffffff16815260200190815260200160002060006101000a81548173ffffffffffffffffffffffffffffffffffffffff021916908373ffffffffffffffffffffffffffffffffffffffff1602179055505050565b8060000151600a6000610caf6114db565b73ffffffffffffffffffffffffffffffffffffffff1673ffffffffffffffffffffffffffffffffffffffff16815260200190815260200160002060006101000a81548173ffffffffffffffffffffffffffffffffffffffff021916908373ffffffffffffffffffffffffffffffffffffffff1602179055505050565b60007f0000000000000000000000000000000000000000000000000000000000000000905090565b600581565b610d6061123d565b8060079081610d6f919061355a565b5050565b601483511115610db8576040517f08c379a0000000000000000000000000000000000000000000000000000000008152600401610daf90613678565b60405180910390fd5b6000600a6000610dc66114db565b73ffffffffffffffffffffffffffffffffffffffff1673ffffffffffffffffffffffffffffffffffffffff16815260200190815260200160002060009054906101000a900473ffffffffffffffffffffffffffffffffffffffff169050600073ffffffffffffffffffffffffffffffffffffffff16600a60008373ffffffffffffffffffffffffffffffffffffffff1673ffffffffffffffffffffffffffffffffffffffff16815260200190815260200160002060009054906101000a900473ffffffffffffffffffffffffffffffffffffffff1673ffffffffffffffffffffffffffffffffffffffff1603610ef1576040517f08c379a0000000000000000000000000000000000000000000000000000000008152600401610ee890612c52565b60405180910390fd5b6000610f0760085430633744199660e01b6114e3565b90506110146040518060400160405280600381526020017f6765740000000000000000000000000000000000000000000000000000000000815250600773__StringJoiner__________________________635c8656e0896040518263ffffffff1660e01b8152600401610f7b9190613801565b600060405180830381865af4158015610f98573d6000803e3d6000fd5b505050506040513d6000823e3d601f19601f82011682018060405250810190610fc191906138a6565b87610fcb87611514565b610fd48c611514565b610fe08a60ff16611541565b604051602001610ff5969594939291906139d4565b6040516020818303038152906040528361160f9092919063ffffffff16565b6110936040518060400160405280600481526020017f70617468000000000000000000000000000000000000000000000000000000008152506040518060400160405280600381526020017f75726900000000000000000000000000000000000000000000000000000000008152508361160f9092919063ffffffff16565b60006110a182600954611642565b905060405180606001604052808473ffffffffffffffffffffffffffffffffffffffff1681526020018873ffffffffffffffffffffffffffffffffffffffff16815260200160001515815250600b600083815260200190815260200160002060008201518160000160006101000a81548173ffffffffffffffffffffffffffffffffffffffff021916908373ffffffffffffffffffffffffffffffffffffffff16021790555060208201518160010160006101000a81548173ffffffffffffffffffffffffffffffffffffffff021916908373ffffffffffffffffffffffffffffffffffffffff16021790555060408201518160010160146101000a81548160ff02191690831515021790555090505050505050505050565b6111c261123d565b600073ffffffffffffffffffffffffffffffffffffffff168173ffffffffffffffffffffffffffffffffffffffff1603611231576040517f08c379a000000000000000000000000000000000000000000000000000000000815260040161122890613ae9565b60405180910390fd5b61123a816112bb565b50565b6112456114db565b73ffffffffffffffffffffffffffffffffffffffff16611263610af3565b73ffffffffffffffffffffffffffffffffffffffff16146112b9576040517f08c379a00000000000000000000000000000000000000000000000000000000081526004016112b090613b55565b60405180910390fd5b565b6000600660009054906101000a900473ffffffffffffffffffffffffffffffffffffffff16905081600660006101000a81548173ffffffffffffffffffffffffffffffffffffffff021916908373ffffffffffffffffffffffffffffffffffffffff1602179055508173ffffffffffffffffffffffffffffffffffffffff168173ffffffffffffffffffffffffffffffffffffffff167f8be0079c531659141344cd1fd0a4f28419497f9722a3daafe3b4186f6b6457e060405160405180910390a35050565b600080600080600085606001518060200190518101906113a19190613c23565b9450945094509450945060008590508073ffffffffffffffffffffffffffffffffffffffff16636d4195fb886020015188888888886040518763ffffffff1660e01b81526004016113f796959493929190613cd6565b600060405180830381600087803b15801561141157600080fd5b505af1158015611425573d6000803e3d6000fd5b5050505050505050505050565b60606397a657c960e01b8260405160240161144d9190613d83565b604051602081830303815290604052907bffffffffffffffffffffffffffffffffffffffffffffffffffffffff19166020820180517bffffffffffffffffffffffffffffffffffffffffffffffffffffffff83818316178352505050509050919050565b6000600260009054906101000a900473ffffffffffffffffffffffffffffffffffffffff16905090565b600033905090565b6114eb6121d4565b6114f36121d4565b61150a85858584611679909392919063ffffffff16565b9150509392505050565b606061153a8273ffffffffffffffffffffffffffffffffffffffff16601460ff16611729565b9050919050565b60606000600161155084611965565b01905060008167ffffffffffffffff81111561156f5761156e61237b565b5b6040519080825280601f01601f1916602001820160405280156115a15781602001600182028036833780820191505090505b509050600082602001820190505b600115611604578080600190039150507f3031323334353637383961626364656600000000000000000000000000000000600a86061a8153600a85816115f8576115f7613d9e565b5b049450600085036115af575b819350505050919050565b611626828460800151611ab890919063ffffffff16565b61163d818460800151611ab890919063ffffffff16565b505050565b6000611671600360009054906101000a900473ffffffffffffffffffffffffffffffffffffffff168484611add565b905092915050565b6116816121d4565b6116918560800151610100611ba9565b508385600001818152505082856020019073ffffffffffffffffffffffffffffffffffffffff16908173ffffffffffffffffffffffffffffffffffffffff16815250508185604001907bffffffffffffffffffffffffffffffffffffffffffffffffffffffff191690817bffffffffffffffffffffffffffffffffffffffffffffffffffffffff191681525050849050949350505050565b60606000600283600261173c9190613dfc565b6117469190613e3e565b67ffffffffffffffff81111561175f5761175e61237b565b5b6040519080825280601f01601f1916602001820160405280156117915781602001600182028036833780820191505090505b5090507f3000000000000000000000000000000000000000000000000000000000000000816000815181106117c9576117c8613e72565b5b60200101907effffffffffffffffffffffffffffffffffffffffffffffffffffffffffffff1916908160001a9053507f78000000000000000000000000000000000000000000000000000000000000008160018151811061182d5761182c613e72565b5b60200101907effffffffffffffffffffffffffffffffffffffffffffffffffffffffffffff1916908160001a9053506000600184600261186d9190613dfc565b6118779190613e3e565b90505b6001811115611917577f3031323334353637383961626364656600000000000000000000000000000000600f8616601081106118b9576118b8613e72565b5b1a60f81b8282815181106118d0576118cf613e72565b5b60200101907effffffffffffffffffffffffffffffffffffffffffffffffffffffffffffff1916908160001a905350600485901c94508061191090613ea1565b905061187a565b506000841461195b576040517f08c379a000000000000000000000000000000000000000000000000000000000815260040161195290613f16565b60405180910390fd5b8091505092915050565b600080600090507a184f03e93ff9f4daa797ed6e38ed64bf6a1f01000000000000000083106119c3577a184f03e93ff9f4daa797ed6e38ed64bf6a1f01000000000000000083816119b9576119b8613d9e565b5b0492506040810190505b6d04ee2d6d415b85acef81000000008310611a00576d04ee2d6d415b85acef810000000083816119f6576119f5613d9e565b5b0492506020810190505b662386f26fc100008310611a2f57662386f26fc100008381611a2557611a24613d9e565b5b0492506010810190505b6305f5e1008310611a58576305f5e1008381611a4e57611a4d613d9e565b5b0492506008810190505b6127108310611a7d576127108381611a7357611a72613d9e565b5b0492506004810190505b60648310611aa05760648381611a9657611a95613d9e565b5b0492506002810190505b600a8310611aaf576001810190505b80915050919050565b611ac58260038351611c13565b611ad88183611d9890919063ffffffff16565b505050565b6000806004549050600181611af29190613e3e565b6004819055506000634042994660e01b60008087600001513089604001518760018c6080015160000151604051602401611b33989796959493929190613f54565b604051602081830303815290604052907bffffffffffffffffffffffffffffffffffffffffffffffffffffffff19166020820180517bffffffffffffffffffffffffffffffffffffffffffffffffffffffff83818316178352505050509050611b9e86838684611dba565b925050509392505050565b611bb1612241565b6000602083611bc09190613fd9565b14611bec57602082611bd29190613fd9565b6020611bde919061400a565b82611be99190613e3e565b91505b81836020018181525050604051808452600081528281016020016040525082905092915050565b60178167ffffffffffffffff1611611c4a57611c448160058460ff16901b60ff161784611f4f90919063ffffffff16565b50611d93565b60ff8167ffffffffffffffff1611611ca057611c79601860058460ff16901b1784611f4f90919063ffffffff16565b50611c9a8167ffffffffffffffff16600185611f6f9092919063ffffffff16565b50611d92565b61ffff8167ffffffffffffffff1611611cf757611cd0601960058460ff16901b1784611f4f90919063ffffffff16565b50611cf18167ffffffffffffffff16600285611f6f9092919063ffffffff16565b50611d91565b63ffffffff8167ffffffffffffffff1611611d5057611d29601a60058460ff16901b1784611f4f90919063ffffffff16565b50611d4a8167ffffffffffffffff16600485611f6f9092919063ffffffff16565b50611d90565b611d6d601b60058460ff16901b1784611f4f90919063ffffffff16565b50611d8e8167ffffffffffffffff16600885611f6f9092919063ffffffff16565b505b5b5b5b505050565b611da0612241565b611db283846000015151848551611f91565b905092915050565b60003084604051602001611dcf9291906140ed565b604051602081830303815290604052805190602001209050846005600083815260200190815260200160002060006101000a81548173ffffffffffffffffffffffffffffffffffffffff021916908373ffffffffffffffffffffffffffffffffffffffff160217905550807fb5e6e01e79f91267dc17b4e6314d5d4d03593d2ceee0fbb452b750bd70ea5af960405160405180910390a2600260009054906101000a900473ffffffffffffffffffffffffffffffffffffffff1673ffffffffffffffffffffffffffffffffffffffff16634000aea08685856040518463ffffffff1660e01b8152600401611ec593929190614119565b6020604051808303816000875af1158015611ee4573d6000803e3d6000fd5b505050506040513d601f19601f82011682018060405250810190611f089190613321565b611f47576040517f08c379a0000000000000000000000000000000000000000000000000000000008152600401611f3e906141c9565b60405180910390fd5b949350505050565b611f57612241565b611f678384600001515184612080565b905092915050565b611f77612241565b611f888485600001515185856120d6565b90509392505050565b611f99612241565b8251821115611fa757600080fd5b84602001518285611fb89190613e3e565b1115611fed57611fec856002611fdd88602001518887611fd89190613e3e565b612164565b611fe79190613dfc565b612180565b5b60008086518051876020830101935080888701111561200c5787860182525b60208701925050505b60208410612053578051825260208261202e9190613e3e565b915060208161203d9190613e3e565b905060208461204c919061400a565b9350612015565b60006001856020036101000a03905080198251168184511681811785525050508692505050949350505050565b612088612241565b836020015183106120ae576120ad84600286602001516120a89190613dfc565b612180565b5b835180516020858301018481538186036120c9576001820183525b5050508390509392505050565b6120de612241565b846020015184836120ef9190613e3e565b11156121175761211685600286856121079190613e3e565b6121119190613dfc565b612180565b5b6000600183610100612129919061431c565b612133919061400a565b905085518386820101858319825116178152815185880111156121565784870182525b505085915050949350505050565b6000818311156121765782905061217a565b8190505b92915050565b6000826000015190506121938383611ba9565b5061219e8382611d98565b50505050565b6040518060400160405280600073ffffffffffffffffffffffffffffffffffffffff168152602001600081525090565b6040518060a0016040528060008019168152602001600073ffffffffffffffffffffffffffffffffffffffff16815260200160007bffffffffffffffffffffffffffffffffffffffffffffffffffffffff191681526020016000815260200161223b612241565b81525090565b604051806040016040528060608152602001600081525090565b6000604051905090565b600080fd5b600080fd5b60007fffffffff0000000000000000000000000000000000000000000000000000000082169050919050565b6122a48161226f565b81146122af57600080fd5b50565b6000813590506122c18161229b565b92915050565b6000602082840312156122dd576122dc612265565b5b60006122eb848285016122b2565b91505092915050565b60008115159050919050565b612309816122f4565b82525050565b60006020820190506123246000830184612300565b92915050565b6000819050919050565b61233d8161232a565b811461234857600080fd5b50565b60008135905061235a81612334565b92915050565b600080fd5b600080fd5b6000601f19601f8301169050919050565b7f4e487b7100000000000000000000000000000000000000000000000000000000600052604160045260246000fd5b6123b38261236a565b810181811067ffffffffffffffff821117156123d2576123d161237b565b5b80604052505050565b60006123e561225b565b90506123f182826123aa565b919050565b600067ffffffffffffffff8211156124115761241061237b565b5b61241a8261236a565b9050602081019050919050565b82818337600083830152505050565b6000612449612444846123f6565b6123db565b90508281526020810184848401111561246557612464612365565b5b612470848285612427565b509392505050565b600082601f83011261248d5761248c612360565b5b813561249d848260208601612436565b91505092915050565b600080604083850312156124bd576124bc612265565b5b60006124cb8582860161234b565b925050602083013567ffffffffffffffff8111156124ec576124eb61226a565b5b6124f885828601612478565b9150509250929050565b600080fd5b600060a0828403121561251d5761251c612502565b5b81905092915050565b60006020828403121561253c5761253b612265565b5b600082013567ffffffffffffffff81111561255a5761255961226a565b5b61256684828501612507565b91505092915050565b6000819050919050565b6125828161256f565b82525050565b600060208201905061259d6000830184612579565b92915050565b600067ffffffffffffffff82169050919050565b6125c0816125a3565b81146125cb57600080fd5b50565b6000813590506125dd816125b7565b92915050565b600073ffffffffffffffffffffffffffffffffffffffff82169050919050565b600061260e826125e3565b9050919050565b61261e81612603565b811461262957600080fd5b50565b60008135905061263b81612615565b92915050565b61264a8161256f565b811461265557600080fd5b50565b60008135905061266781612641565b92915050565b600067ffffffffffffffff8211156126885761268761237b565b5b6126918261236a565b9050602081019050919050565b60006126b16126ac8461266d565b6123db565b9050828152602081018484840111156126cd576126cc612365565b5b6126d8848285612427565b509392505050565b600082601f8301126126f5576126f4612360565b5b813561270584826020860161269e565b91505092915050565b60008060008060008060c0878903121561272b5761272a612265565b5b600061273989828a016125ce565b965050602061274a89828a0161262c565b955050604061275b89828a0161262c565b945050606061276c89828a01612658565b935050608087013567ffffffffffffffff81111561278d5761278c61226a565b5b61279989828a01612478565b92505060a087013567ffffffffffffffff8111156127ba576127b961226a565b5b6127c689828a016126e0565b9150509295509295509295565b6127dc81612603565b82525050565b60006020820190506127f760008301846127d3565b92915050565b6000806040838503121561281457612813612265565b5b6000612822858286016125ce565b92505060206128338582860161262c565b9150509250929050565b600080fd5b600080fd5b60006020828403121561285d5761285c61283d565b5b61286760206123db565b905060006128778482850161262c565b60008301525092915050565b6000806040838503121561289a57612899612265565b5b60006128a8858286016125ce565b92505060206128b985828601612847565b9150509250929050565b6000602082840312156128d9576128d8612265565b5b600082013567ffffffffffffffff8111156128f7576128f661226a565b5b61290384828501612478565b91505092915050565b600067ffffffffffffffff8211156129275761292661237b565b5b602082029050602081019050919050565b600080fd5b600061295061294b8461290c565b6123db565b9050808382526020820190506020840283018581111561297357612972612938565b5b835b818110156129ba57803567ffffffffffffffff81111561299857612997612360565b5b8086016129a58982612478565b85526020850194505050602081019050612975565b5050509392505050565b600082601f8301126129d9576129d8612360565b5b81356129e984826020860161293d565b91505092915050565b600060ff82169050919050565b612a08816129f2565b8114612a1357600080fd5b50565b600081359050612a25816129ff565b92915050565b60008060008060808587031215612a4557612a44612265565b5b6000612a538782880161262c565b945050602085013567ffffffffffffffff811115612a7457612a7361226a565b5b612a80878288016129c4565b935050604085013567ffffffffffffffff811115612aa157612aa061226a565b5b612aad87828801612478565b9250506060612abe87828801612a16565b91505092959194509250565b600060208284031215612ae057612adf612265565b5b6000612aee8482850161262c565b91505092915050565b600082825260208201905092915050565b7f536f75726365206d75737420626520746865206f7261636c65206f662074686560008201527f2072657175657374000000000000000000000000000000000000000000000000602082015250565b6000612b64602883612af7565b9150612b6f82612b08565b604082019050919050565b60006020820190508181036000830152612b9381612b57565b9050919050565b7f416c72656164792066756c66696c6c6564000000000000000000000000000000600082015250565b6000612bd0601183612af7565b9150612bdb82612b9a565b602082019050919050565b60006020820190508181036000830152612bff81612bc3565b9050919050565b7f47616d65204e6f7420466f756e64000000000000000000000000000000000000600082015250565b6000612c3c600e83612af7565b9150612c4782612c06565b602082019050919050565b60006020820190508181036000830152612c6b81612c2f565b9050919050565b600081519050919050565b60005b83811015612c9b578082015181840152602081019050612c80565b60008484015250505050565b6000612cb282612c72565b612cbc8185612af7565b9350612ccc818560208601612c7d565b612cd58161236a565b840191505092915050565b6000604082019050612cf560008301856127d3565b8181036020830152612d078184612ca7565b90509392505050565b600067ffffffffffffffff821115612d2b57612d2a61237b565b5b602082029050602081019050919050565b600060408284031215612d5257612d5161283d565b5b612d5c60406123db565b90506000612d6c8482850161262c565b6000830152506020612d8084828501612658565b60208301525092915050565b6000612d9f612d9a84612d10565b6123db565b90508083825260208201905060408402830185811115612dc257612dc1612938565b5b835b81811015612deb5780612dd78882612d3c565b845260208401935050604081019050612dc4565b5050509392505050565b600082601f830112612e0a57612e09612360565b5b8135612e1a848260208601612d8c565b91505092915050565b600060a08284031215612e3957612e3861283d565b5b612e4360a06123db565b90506000612e538482850161234b565b6000830152506020612e67848285016125ce565b602083015250604082013567ffffffffffffffff811115612e8b57612e8a612842565b5b612e97848285016126e0565b604083015250606082013567ffffffffffffffff811115612ebb57612eba612842565b5b612ec7848285016126e0565b606083015250608082013567ffffffffffffffff811115612eeb57612eea612842565b5b612ef784828501612df5565b60808301525092915050565b6000612f0f3683612e23565b9050919050565b600081519050919050565b600082825260208201905092915050565b6000612f3d82612f16565b612f478185612f21565b9350612f57818560208601612c7d565b612f608161236a565b840191505092915050565b600060a082019050612f8060008301886127d3565b612f8d60208301876127d3565b612f9a6040830186612579565b8181036060830152612fac8185612ca7565b90508181036080830152612fc08184612f32565b90509695505050505050565b612fd5816125a3565b82525050565b600082825260208201905092915050565b6000612ff782612f16565b6130018185612fdb565b9350613011818560208601612c7d565b61301a8161236a565b840191505092915050565b600081519050919050565b600082825260208201905092915050565b6000819050602082019050919050565b61305a81612603565b82525050565b6130698161256f565b82525050565b6040820160008201516130856000850182613051565b5060208201516130986020850182613060565b50505050565b60006130aa838361306f565b60408301905092915050565b6000602082019050919050565b60006130ce82613025565b6130d88185613030565b93506130e383613041565b8060005b838110156131145781516130fb888261309e565b9750613106836130b6565b9250506001810190506130e7565b5085935050505092915050565b600060a083016000830151848203600086015261313e8282612fec565b915050602083015184820360208601526131588282612fec565b9150506040830151848203604086015261317282826130c3565b91505060608301516131876060860182613051565b506080830151848203608086015261319f8282612fec565b9150508091505092915050565b60006040820190506131c16000830185612fcc565b81810360208301526131d38184613121565b90509392505050565b6000815190506131eb81612641565b92915050565b60006020828403121561320757613206612265565b5b6000613215848285016131dc565b91505092915050565b7f496e73756666696369656e742066656500000000000000000000000000000000600082015250565b6000613254601083612af7565b915061325f8261321e565b602082019050919050565b6000602082019050818103600083015261328381613247565b9050919050565b60008151905061329981612334565b92915050565b6000602082840312156132b5576132b4612265565b5b60006132c38482850161328a565b91505092915050565b60006040820190506132e160008301856127d3565b6132ee6020830184612579565b9392505050565b6132fe816122f4565b811461330957600080fd5b50565b60008151905061331b816132f5565b92915050565b60006020828403121561333757613336612265565b5b60006133458482850161330c565b91505092915050565b7f4e487b7100000000000000000000000000000000000000000000000000000000600052602260045260246000fd5b6000600282049050600182168061339557607f821691505b6020821081036133a8576133a761334e565b5b50919050565b60008190508160005260206000209050919050565b60006020601f8301049050919050565b600082821b905092915050565b6000600883026134107fffffffffffffffffffffffffffffffffffffffffffffffffffffffffffffffff826133d3565b61341a86836133d3565b95508019841693508086168417925050509392505050565b6000819050919050565b600061345761345261344d8461256f565b613432565b61256f565b9050919050565b6000819050919050565b6134718361343c565b61348561347d8261345e565b8484546133e0565b825550505050565b600090565b61349a61348d565b6134a5818484613468565b505050565b5b818110156134c9576134be600082613492565b6001810190506134ab565b5050565b601f82111561350e576134df816133ae565b6134e8846133c3565b810160208510156134f7578190505b61350b613503856133c3565b8301826134aa565b50505b505050565b600082821c905092915050565b600061353160001984600802613513565b1980831691505092915050565b600061354a8383613520565b9150826002028217905092915050565b61356382612c72565b67ffffffffffffffff81111561357c5761357b61237b565b5b613586825461337d565b6135918282856134cd565b600060209050601f8311600181146135c457600084156135b2578287015190505b6135bc858261353e565b865550613624565b601f1984166135d2866133ae565b60005b828110156135fa578489015182556001820191506020850194506020810190506135d5565b868310156136175784890151613613601f891682613520565b8355505b6001600288020188555050505b505050505050565b7f546f6f206d616e79206174747269627574657300000000000000000000000000600082015250565b6000613662601383612af7565b915061366d8261362c565b602082019050919050565b6000602082019050818103600083015261369181613655565b9050919050565b600081519050919050565b600082825260208201905092915050565b6000819050602082019050919050565b600082825260208201905092915050565b60006136e082612c72565b6136ea81856136c4565b93506136fa818560208601612c7d565b6137038161236a565b840191505092915050565b600061371a83836136d5565b905092915050565b6000602082019050919050565b600061373a82613698565b61374481856136a3565b935083602082028501613756856136b4565b8060005b858110156137925784840389528151613773858261370e565b945061377e83613722565b925060208a0199505060018101905061375a565b50829750879550505050505092915050565b600082825260208201905092915050565b7f2c00000000000000000000000000000000000000000000000000000000000000600082015250565b60006137eb6001836137a4565b91506137f6826137b5565b602082019050919050565b6000604082019050818103600083015261381b818461372f565b9050818103602083015261382e816137de565b905092915050565b6000613849613844846123f6565b6123db565b90508281526020810184848401111561386557613864612365565b5b613870848285612c7d565b509392505050565b600082601f83011261388d5761388c612360565b5b815161389d848260208601613836565b91505092915050565b6000602082840312156138bc576138bb612265565b5b600082015167ffffffffffffffff8111156138da576138d961226a565b5b6138e684828501613878565b91505092915050565b600081905092915050565b600081546139078161337d565b61391181866138ef565b9450600182166000811461392c576001811461394157613974565b60ff1983168652811515820286019350613974565b61394a856133ae565b60005b8381101561396c5781548189015260018201915060208101905061394d565b838801955050505b50505092915050565b7f2f00000000000000000000000000000000000000000000000000000000000000815250565b60006139ae82612c72565b6139b881856138ef565b93506139c8818560208601612c7d565b80840191505092915050565b60006139e082896138fa565b91506139eb8261397d565b6001820191506139fb82886139a3565b9150613a068261397d565b600182019150613a1682876139a3565b9150613a218261397d565b600182019150613a3182866139a3565b9150613a3c8261397d565b600182019150613a4c82856139a3565b9150613a578261397d565b600182019150613a6782846139a3565b9150819050979650505050505050565b7f4f776e61626c653a206e6577206f776e657220697320746865207a65726f206160008201527f6464726573730000000000000000000000000000000000000000000000000000602082015250565b6000613ad3602683612af7565b9150613ade82613a77565b604082019050919050565b60006020820190508181036000830152613b0281613ac6565b9050919050565b7f4f776e61626c653a2063616c6c6572206973206e6f7420746865206f776e6572600082015250565b6000613b3f602083612af7565b9150613b4a82613b09565b602082019050919050565b60006020820190508181036000830152613b6e81613b32565b9050919050565b6000613b80826125e3565b9050919050565b613b9081613b75565b8114613b9b57600080fd5b50565b600081519050613bad81613b87565b92915050565b6000613bc6613bc18461266d565b6123db565b905082815260208101848484011115613be257613be1612365565b5b613bed848285612c7d565b509392505050565b600082601f830112613c0a57613c09612360565b5b8151613c1a848260208601613bb3565b91505092915050565b600080600080600060a08688031215613c3f57613c3e612265565b5b6000613c4d88828901613b9e565b9550506020613c5e88828901613b9e565b9450506040613c6f888289016131dc565b935050606086015167ffffffffffffffff811115613c9057613c8f61226a565b5b613c9c88828901613878565b925050608086015167ffffffffffffffff811115613cbd57613cbc61226a565b5b613cc988828901613bf5565b9150509295509295909350565b600060c082019050613ceb6000830189612fcc565b613cf860208301886127d3565b613d0560408301876127d3565b613d126060830186612579565b8181036080830152613d248185612ca7565b905081810360a0830152613d388184612f32565b9050979650505050505050565b613d4e816122f4565b82525050565b604082016000820151613d6a6000850182613060565b506020820151613d7d6020850182613d45565b50505050565b6000604082019050613d986000830184613d54565b92915050565b7f4e487b7100000000000000000000000000000000000000000000000000000000600052601260045260246000fd5b7f4e487b7100000000000000000000000000000000000000000000000000000000600052601160045260246000fd5b6000613e078261256f565b9150613e128361256f565b9250828202613e208161256f565b91508282048414831517613e3757613e36613dcd565b5b5092915050565b6000613e498261256f565b9150613e548361256f565b9250828201905080821115613e6c57613e6b613dcd565b5b92915050565b7f4e487b7100000000000000000000000000000000000000000000000000000000600052603260045260246000fd5b6000613eac8261256f565b915060008203613ebf57613ebe613dcd565b5b600182039050919050565b7f537472696e67733a20686578206c656e67746820696e73756666696369656e74600082015250565b6000613f00602083612af7565b9150613f0b82613eca565b602082019050919050565b60006020820190508181036000830152613f2f81613ef3565b9050919050565b613f3f8161232a565b82525050565b613f4e8161226f565b82525050565b600061010082019050613f6a600083018b6127d3565b613f77602083018a612579565b613f846040830189613f36565b613f9160608301886127d3565b613f9e6080830187613f45565b613fab60a0830186612579565b613fb860c0830185612579565b81810360e0830152613fca8184612f32565b90509998505050505050505050565b6000613fe48261256f565b9150613fef8361256f565b925082613fff57613ffe613d9e565b5b828206905092915050565b60006140158261256f565b91506140208361256f565b925082820390508181111561403857614037613dcd565b5b92915050565b600061405961405461404f846125e3565b613432565b6125e3565b9050919050565b600061406b8261403e565b9050919050565b600061407d82614060565b9050919050565b60008160601b9050919050565b600061409c82614084565b9050919050565b60006140ae82614091565b9050919050565b6140c66140c182614072565b6140a3565b82525050565b6000819050919050565b6140e76140e28261256f565b6140cc565b82525050565b60006140f982856140b5565b60148201915061410982846140d6565b6020820191508190509392505050565b600060608201905061412e60008301866127d3565b61413b6020830185612579565b818103604083015261414d8184612f32565b9050949350505050565b7f756e61626c6520746f207472616e73666572416e6443616c6c20746f206f726160008201527f636c650000000000000000000000000000000000000000000000000000000000602082015250565b60006141b3602383612af7565b91506141be82614157565b604082019050919050565b600060208201905081810360008301526141e2816141a6565b9050919050565b60008160011c9050919050565b6000808291508390505b60018511156142405780860481111561421c5761421b613dcd565b5b600185161561422b5780820291505b8081029050614239856141e9565b9450614200565b94509492505050565b6000826142595760019050614315565b816142675760009050614315565b816001811461427d5760028114614287576142b6565b6001915050614315565b60ff84111561429957614298613dcd565b5b8360020a9150848211156142b0576142af613dcd565b5b50614315565b5060208310610133831016604e8410600b84101617156142eb5782820a9050838111156142e6576142e5613dcd565b5b614315565b6142f884848460016141f6565b9250905081840481111561430f5761430e613dcd565b5b81810290505b9392505050565b60006143278261256f565b91506143328361256f565b925061435f7fffffffffffffffffffffffffffffffffffffffffffffffffffffffffffffffff8484614249565b90509291505056fea26469706673582212209d479ea1ff710142612af72bba0011cc9f40b57d4b07d8c79a650834583fc03e64736f6c63430008110033",
  "immutableReferences": {
    "14": [
      {
        "length": 32,
        "start": 1893
      },
      {
        "length": 32,
        "start": 3375
      }
    ]
  },
  "source": "// SPDX-License-Identifier: MIT\r\npragma solidity ^0.8.17;\r\n\r\nimport {Assets} from \"./libraries/Assets.sol\";\r\nimport {Params} from \"./libraries/Params.sol\";\r\nimport {IKanvasInterop} from \"./interfaces/IKanvasInterop.sol\";\r\nimport {IKanvasInteropGame} from \"./interfaces/IKanvasInteropGame.sol\";\r\nimport {IKanvasGame} from \"./interfaces/IKanvasGame.sol\";\r\nimport {StringJoiner} from \"./libraries/StringJoiner.sol\";\r\n\r\nimport {Strings} from \"@openzeppelin/contracts/utils/Strings.sol\";\r\nimport {Ownable} from \"@openzeppelin/contracts/access/Ownable.sol\";\r\nimport {Context} from \"@openzeppelin/contracts/utils/Context.sol\";\r\n\r\nimport {CCIPReceiver} from \"@chainlink/contracts-ccip/src/v0.8/ccip/applications/CCIPReceiver.sol\";\r\nimport {IRouterClient} from \"@chainlink/contracts-ccip/src/v0.8/ccip/interfaces/IRouterClient.sol\";\r\nimport {Client} from \"@chainlink/contracts-ccip/src/v0.8/ccip/libraries/Client.sol\";\r\nimport {ChainlinkClient, Chainlink, LinkTokenInterface} from \"@chainlink/contracts/src/v0.8/ChainlinkClient.sol\";\r\n\r\n// ! FOR POLYGON ALONE - HARDCODED VALUES\r\n\r\ncontract KanvasInterop is\r\n    IKanvasInterop,\r\n    Context,\r\n    CCIPReceiver,\r\n    ChainlinkClient,\r\n    Ownable\r\n{\r\n    uint64 private constant POLYGON_SELECTOR = 12532609583862916517;\r\n    uint256 public constant MAX_PROPERTIES_LEN = 20;\r\n    uint256 public constant MAX_TEMPLATES_LEN = 5;\r\n    using Chainlink for Chainlink.Request;\r\n\r\n    string private BASE_URL = \"\";\r\n\r\n    bytes32 private jobId;\r\n    uint256 private fee;\r\n\r\n    mapping(address => address) private _games;\r\n\r\n    mapping(bytes32 => Assets.Request) private _requests;\r\n\r\n    mapping(uint64 => address) private _interops;\r\n\r\n    IRouterClient private _router;\r\n\r\n    constructor(address receiver) CCIPReceiver(receiver) Ownable() {\r\n        setChainlinkToken(0x326C977E6efc84E512bB9C30f76E30c160eD06FB);\r\n        setChainlinkOracle(0x40193c8518BB267228Fc409a613bDbD8eC5a97b3);\r\n        jobId = \"7d80a6386ef543a3abb52817f6707e3b\";\r\n        fee = (1 * LINK_DIVISIBILITY) / 10;\r\n\r\n        _router = IRouterClient(getRouter());\r\n    }\r\n\r\n    function _createGame(\r\n        uint64 /* chainSelector */,\r\n        Params.InteropGame memory params\r\n    ) external override {\r\n        _games[_msgSender()] = params.gameId;\r\n    }\r\n\r\n    function _generateUri(\r\n        address playerId,\r\n        string[] memory properties,\r\n        string memory fields,\r\n        uint8 templateId\r\n    ) external override {\r\n        require(properties.length <= MAX_PROPERTIES_LEN, \"Too many attributes\");\r\n\r\n        address gameId = _games[_msgSender()];\r\n        require(_games[gameId] != address(0), \"Game Not Found\");\r\n\r\n        Chainlink.Request memory req = buildChainlinkRequest(\r\n            jobId,\r\n            address(this),\r\n            this.fulfill.selector\r\n        );\r\n\r\n        // Set the URL to perform the GET request on\r\n        // https://server.com/generete/properties/fields/gameid/playerid\r\n        req.add(\r\n            \"get\",\r\n            string.concat(\r\n                BASE_URL,\r\n                \"/\",\r\n                StringJoiner.joinStrings(properties, \",\"),\r\n                \"/\",\r\n                fields,\r\n                \"/\",\r\n                Strings.toHexString(gameId),\r\n                \"/\",\r\n                Strings.toHexString(playerId),\r\n                \"/\",\r\n                Strings.toString(templateId)\r\n            )\r\n        );\r\n\r\n        // Chainlink nodes 1.0.0 and later support this format\r\n        req.add(\"path\", \"uri\");\r\n\r\n        // Sends the request\r\n        bytes32 requestId = sendChainlinkRequest(req, fee);\r\n\r\n        _requests[requestId] = Assets.Request({\r\n            gameId: gameId,\r\n            playerId: playerId,\r\n            fulfilled: false\r\n        });\r\n    }\r\n\r\n    function updateBaseUrl(string memory newBaseUrl) external onlyOwner {\r\n        BASE_URL = newBaseUrl;\r\n    }\r\n\r\n    function updateInterop(\r\n        uint64 chainSelector,\r\n        address kanvasRouter\r\n    ) external onlyOwner {\r\n        _interops[chainSelector] = kanvasRouter;\r\n    }\r\n\r\n    /** Receive the response in the form of string  */\r\n    function fulfill(\r\n        bytes32 requestId,\r\n        string memory uri\r\n    ) public recordChainlinkFulfillment(requestId) {\r\n        Assets.Request storage request = _requests[requestId];\r\n        require(!request.fulfilled, \"Already fulfilled\");\r\n\r\n        request.fulfilled = true;\r\n\r\n        require(_games[request.gameId] != address(0), \"Game Not Found\");\r\n\r\n        IKanvasGame game = IKanvasGame(request.gameId);\r\n        game._receiveUri(request.playerId, uri);\r\n    }\r\n\r\n    /** Allow withdraw of Link tokens from the contract */\r\n    function withdrawLink() public onlyOwner {\r\n        LinkTokenInterface link = LinkTokenInterface(chainlinkTokenAddress());\r\n        link.transfer(msg.sender, link.balanceOf(address(this)));\r\n    }\r\n\r\n    function _transferTo(\r\n        uint64 chainSelector,\r\n        address gameId,\r\n        address playerId,\r\n        uint256 tokenId,\r\n        string memory uri,\r\n        bytes memory data\r\n    ) external payable {\r\n        // Create an EVM2AnyMessage struct in memory with necessary information for sending a cross-chain message\r\n        Client.EVM2AnyMessage memory evm2AnyMessage = Client.EVM2AnyMessage({\r\n            // ABI-encoded receiver address\r\n            receiver: abi.encode(_interops[chainSelector]),\r\n            // ABI-encoded string message\r\n            data: abi.encode(gameId, playerId, tokenId, uri, data),\r\n            // Empty array indicating no tokens are being sent\r\n            tokenAmounts: new Client.EVMTokenAmount[](0),\r\n            // Additional arguments, setting gas limit and non-strict sequency mode\r\n            extraArgs: Client._argsToBytes(\r\n                Client.EVMExtraArgsV1({gasLimit: 400_000, strict: false})\r\n            ),\r\n            // Setting feeToken to zero address, indicating native asset will be used for fees\r\n            feeToken: address(0)\r\n        });\r\n\r\n        // Get the fee required to send the message\r\n        uint256 fees = _router.getFee(POLYGON_SELECTOR, evm2AnyMessage);\r\n\r\n        require(msg.value >= fees, \"Insufficient fee\");\r\n\r\n        // Send the message through the router and store the returned message ID\r\n        _router.ccipSend{value: fees}(POLYGON_SELECTOR, evm2AnyMessage);\r\n    }\r\n\r\n    // handle a received message\r\n    function _ccipReceive(\r\n        Client.Any2EVMMessage memory message\r\n    ) internal override {\r\n        (\r\n            address gameId,\r\n            address playerId,\r\n            uint256 tokenId,\r\n            string memory uri,\r\n            bytes memory data\r\n        ) = abi.decode(\r\n                message.data,\r\n                (address, address, uint256, string, bytes)\r\n            );\r\n\r\n        IKanvasInteropGame game = IKanvasInteropGame(gameId);\r\n        game._receiveFrom(\r\n            message.sourceChainSelector,\r\n            gameId,\r\n            playerId,\r\n            tokenId,\r\n            uri,\r\n            data\r\n        );\r\n    }\r\n}\r\n",
  "sourcePath": "C:\\Users\\DELL\\Documents\\kanvas\\blockchain\\contracts\\KanvasInterop.sol",
  "compiler": {
    "name": "solc",
    "version": "0.8.17+commit.8df45f5f.Emscripten.clang"
  },
  "schemaVersion": "3.4.11",
  "updatedAt": "2023-12-02T17:26:17.881Z",
  "devdoc": {
    "kind": "dev",
    "methods": {
      "ccipReceive((bytes32,uint64,bytes,bytes,(address,uint256)[]))": {
        "details": "Note ensure you check the msg.sender is the OffRampRouter",
        "params": {
          "message": "CCIP Message"
        }
      },
      "getRouter()": {
        "returns": {
          "_0": "i_router address"
        }
      },
      "owner()": {
        "details": "Returns the address of the current owner."
      },
      "renounceOwnership()": {
        "details": "Leaves the contract without owner. It will not be possible to call `onlyOwner` functions. Can only be called by the current owner. NOTE: Renouncing ownership will leave the contract without an owner, thereby disabling any functionality that is only available to the owner."
      },
      "supportsInterface(bytes4)": {
        "params": {
          "interfaceId": "The interfaceId to check"
        },
        "returns": {
          "_0": "true if the interfaceId is supported"
        }
      },
      "transferOwnership(address)": {
        "details": "Transfers ownership of the contract to a new account (`newOwner`). Can only be called by the current owner."
      }
    },
    "version": 1
  },
  "userdoc": {
    "kind": "user",
    "methods": {
      "ccipReceive((bytes32,uint64,bytes,bytes,(address,uint256)[]))": {
        "notice": "Called by the Router to deliver a message. If this reverts, any token transfers also revert. The message will move to a FAILED state and become available for manual execution."
      },
      "fulfill(bytes32,string)": {
        "notice": "Receive the response in the form of string  "
      },
      "getRouter()": {
        "notice": "Return the current router"
      },
      "supportsInterface(bytes4)": {
        "notice": "IERC165 supports an interfaceId"
      },
      "withdrawLink()": {
        "notice": "Allow withdraw of Link tokens from the contract "
      }
    },
    "version": 1
  }
}