{
  "contractName": "KanvasAvax",
  "abi": [
    {
      "inputs": [
        {
          "internalType": "address",
          "name": "receiver",
          "type": "address"
        }
      ],
      "stateMutability": "nonpayable",
      "type": "constructor"
    },
    {
      "inputs": [
        {
          "internalType": "address",
          "name": "router",
          "type": "address"
        }
      ],
      "name": "InvalidRouter",
      "type": "error"
    },
    {
      "anonymous": false,
      "inputs": [
        {
          "indexed": true,
          "internalType": "bytes32",
          "name": "id",
          "type": "bytes32"
        }
      ],
      "name": "ChainlinkCancelled",
      "type": "event"
    },
    {
      "anonymous": false,
      "inputs": [
        {
          "indexed": true,
          "internalType": "bytes32",
          "name": "id",
          "type": "bytes32"
        }
      ],
      "name": "ChainlinkFulfilled",
      "type": "event"
    },
    {
      "anonymous": false,
      "inputs": [
        {
          "indexed": true,
          "internalType": "bytes32",
          "name": "id",
          "type": "bytes32"
        }
      ],
      "name": "ChainlinkRequested",
      "type": "event"
    },
    {
      "anonymous": false,
      "inputs": [
        {
          "indexed": false,
          "internalType": "address",
          "name": "gameId",
          "type": "address"
        },
        {
          "indexed": false,
          "internalType": "string",
          "name": "name",
          "type": "string"
        },
        {
          "indexed": false,
          "internalType": "string",
          "name": "description",
          "type": "string"
        },
        {
          "indexed": false,
          "internalType": "string",
          "name": "avatar",
          "type": "string"
        },
        {
          "indexed": false,
          "internalType": "uint256",
          "name": "plan",
          "type": "uint256"
        },
        {
          "indexed": false,
          "internalType": "address",
          "name": "creator",
          "type": "address"
        },
        {
          "indexed": false,
          "internalType": "string",
          "name": "email",
          "type": "string"
        },
        {
          "indexed": false,
          "internalType": "string",
          "name": "website",
          "type": "string"
        }
      ],
      "name": "GameCreated",
      "type": "event"
    },
    {
      "anonymous": false,
      "inputs": [
        {
          "indexed": true,
          "internalType": "address",
          "name": "previousOwner",
          "type": "address"
        },
        {
          "indexed": true,
          "internalType": "address",
          "name": "newOwner",
          "type": "address"
        }
      ],
      "name": "OwnershipTransferred",
      "type": "event"
    },
    {
      "anonymous": false,
      "inputs": [
        {
          "indexed": false,
          "internalType": "uint256",
          "name": "planId",
          "type": "uint256"
        },
        {
          "indexed": false,
          "internalType": "string",
          "name": "name",
          "type": "string"
        },
        {
          "indexed": false,
          "internalType": "uint256",
          "name": "cost",
          "type": "uint256"
        },
        {
          "indexed": false,
          "internalType": "string",
          "name": "color",
          "type": "string"
        },
        {
          "indexed": false,
          "internalType": "uint256",
          "name": "limit",
          "type": "uint256"
        }
      ],
      "name": "PlanCreated",
      "type": "event"
    },
    {
      "anonymous": false,
      "inputs": [
        {
          "indexed": false,
          "internalType": "address",
          "name": "gameId",
          "type": "address"
        },
        {
          "indexed": false,
          "internalType": "string",
          "name": "templateUri",
          "type": "string"
        }
      ],
      "name": "TemplateAdded",
      "type": "event"
    },
    {
      "inputs": [],
      "name": "MAX_PROPERTIES_LEN",
      "outputs": [
        {
          "internalType": "uint256",
          "name": "",
          "type": "uint256"
        }
      ],
      "stateMutability": "view",
      "type": "function"
    },
    {
      "inputs": [],
      "name": "MAX_TEMPLATES_LEN",
      "outputs": [
        {
          "internalType": "uint256",
          "name": "",
          "type": "uint256"
        }
      ],
      "stateMutability": "view",
      "type": "function"
    },
    {
      "inputs": [
        {
          "components": [
            {
              "internalType": "bytes32",
              "name": "messageId",
              "type": "bytes32"
            },
            {
              "internalType": "uint64",
              "name": "sourceChainSelector",
              "type": "uint64"
            },
            {
              "internalType": "bytes",
              "name": "sender",
              "type": "bytes"
            },
            {
              "internalType": "bytes",
              "name": "data",
              "type": "bytes"
            },
            {
              "components": [
                {
                  "internalType": "address",
                  "name": "token",
                  "type": "address"
                },
                {
                  "internalType": "uint256",
                  "name": "amount",
                  "type": "uint256"
                }
              ],
              "internalType": "struct Client.EVMTokenAmount[]",
              "name": "destTokenAmounts",
              "type": "tuple[]"
            }
          ],
          "internalType": "struct Client.Any2EVMMessage",
          "name": "message",
          "type": "tuple"
        }
      ],
      "name": "ccipReceive",
      "outputs": [],
      "stateMutability": "nonpayable",
      "type": "function"
    },
    {
      "inputs": [],
      "name": "getRouter",
      "outputs": [
        {
          "internalType": "address",
          "name": "",
          "type": "address"
        }
      ],
      "stateMutability": "view",
      "type": "function"
    },
    {
      "inputs": [],
      "name": "owner",
      "outputs": [
        {
          "internalType": "address",
          "name": "",
          "type": "address"
        }
      ],
      "stateMutability": "view",
      "type": "function"
    },
    {
      "inputs": [],
      "name": "renounceOwnership",
      "outputs": [],
      "stateMutability": "nonpayable",
      "type": "function"
    },
    {
      "inputs": [
        {
          "internalType": "bytes4",
          "name": "interfaceId",
          "type": "bytes4"
        }
      ],
      "name": "supportsInterface",
      "outputs": [
        {
          "internalType": "bool",
          "name": "",
          "type": "bool"
        }
      ],
      "stateMutability": "pure",
      "type": "function"
    },
    {
      "inputs": [
        {
          "internalType": "address",
          "name": "newOwner",
          "type": "address"
        }
      ],
      "name": "transferOwnership",
      "outputs": [],
      "stateMutability": "nonpayable",
      "type": "function"
    },
    {
      "inputs": [
        {
          "components": [
            {
              "internalType": "string",
              "name": "name",
              "type": "string"
            },
            {
              "internalType": "string",
              "name": "description",
              "type": "string"
            },
            {
              "internalType": "address",
              "name": "gameId",
              "type": "address"
            },
            {
              "internalType": "string",
              "name": "avatar",
              "type": "string"
            },
            {
              "internalType": "uint256",
              "name": "plan",
              "type": "uint256"
            },
            {
              "internalType": "string",
              "name": "email",
              "type": "string"
            },
            {
              "internalType": "string",
              "name": "website",
              "type": "string"
            }
          ],
          "internalType": "struct Params.Game",
          "name": "params",
          "type": "tuple"
        }
      ],
      "name": "createGame",
      "outputs": [],
      "stateMutability": "payable",
      "type": "function"
    },
    {
      "inputs": [
        {
          "internalType": "string",
          "name": "templateUri",
          "type": "string"
        },
        {
          "internalType": "address",
          "name": "gameId",
          "type": "address"
        }
      ],
      "name": "addTemplate",
      "outputs": [],
      "stateMutability": "nonpayable",
      "type": "function"
    },
    {
      "inputs": [
        {
          "internalType": "address",
          "name": "playerId",
          "type": "address"
        },
        {
          "internalType": "string[]",
          "name": "properties",
          "type": "string[]"
        },
        {
          "internalType": "string",
          "name": "fields",
          "type": "string"
        },
        {
          "internalType": "uint8",
          "name": "templateId",
          "type": "uint8"
        }
      ],
      "name": "_generateUri",
      "outputs": [],
      "stateMutability": "nonpayable",
      "type": "function"
    },
    {
      "inputs": [
        {
          "internalType": "uint64",
          "name": "chainSelector",
          "type": "uint64"
        },
        {
          "internalType": "address",
          "name": "kanvasRouter",
          "type": "address"
        }
      ],
      "name": "updateInterop",
      "outputs": [],
      "stateMutability": "nonpayable",
      "type": "function"
    },
    {
      "inputs": [
        {
          "internalType": "bytes32",
          "name": "requestId",
          "type": "bytes32"
        },
        {
          "internalType": "string",
          "name": "uri",
          "type": "string"
        }
      ],
      "name": "fulfill",
      "outputs": [],
      "stateMutability": "nonpayable",
      "type": "function"
    },
    {
      "inputs": [],
      "name": "withdrawLink",
      "outputs": [],
      "stateMutability": "nonpayable",
      "type": "function"
    },
    {
      "inputs": [
        {
          "internalType": "uint64",
          "name": "chainSelector",
          "type": "uint64"
        },
        {
          "internalType": "address",
          "name": "gameId",
          "type": "address"
        },
        {
          "internalType": "address",
          "name": "playerId",
          "type": "address"
        },
        {
          "internalType": "uint256",
          "name": "tokenId",
          "type": "uint256"
        },
        {
          "internalType": "string",
          "name": "uri",
          "type": "string"
        },
        {
          "internalType": "bytes",
          "name": "data",
          "type": "bytes"
        }
      ],
      "name": "_transferTo",
      "outputs": [],
      "stateMutability": "payable",
      "type": "function"
    },
    {
      "inputs": [
        {
          "components": [
            {
              "internalType": "string",
              "name": "name",
              "type": "string"
            },
            {
              "internalType": "uint256",
              "name": "cost",
              "type": "uint256"
            },
            {
              "internalType": "string",
              "name": "color",
              "type": "string"
            },
            {
              "internalType": "uint256",
              "name": "limit",
              "type": "uint256"
            }
          ],
          "internalType": "struct Params.Plan",
          "name": "params",
          "type": "tuple"
        }
      ],
      "name": "createPlan",
      "outputs": [],
      "stateMutability": "nonpayable",
      "type": "function"
    }
  ],
  "bytecode": "0x60a060405260016004553480156200001657600080fd5b50604051620052993803806200529983398181016040528101906200003c9190620003c4565b80600073ffffffffffffffffffffffffffffffffffffffff168173ffffffffffffffffffffffffffffffffffffffff1603620000b25760006040517fd7f73334000000000000000000000000000000000000000000000000000000008152600401620000a9919062000407565b60405180910390fd5b8073ffffffffffffffffffffffffffffffffffffffff1660808173ffffffffffffffffffffffffffffffffffffffff16815250505062000107620000fb620001fa60201b60201c565b6200020260201b60201c565b6200012c730b9d5d9136855f6fec3c0993fee6e9ce8a297846620002c860201b60201c565b6200015173022eea14a6010167ca026b32576d6686dd7e85d26200030c60201b60201c565b7f3764383061363338366566353433613361626235323831376636373037653362600781905550600a670de0b6b3a764000060016200019191906200045d565b6200019d9190620004d7565b600881905550620001b36200035060201b60201c565b600e60006101000a81548173ffffffffffffffffffffffffffffffffffffffff021916908373ffffffffffffffffffffffffffffffffffffffff160217905550506200050f565b600033905090565b6000600660009054906101000a900473ffffffffffffffffffffffffffffffffffffffff16905081600660006101000a81548173ffffffffffffffffffffffffffffffffffffffff021916908373ffffffffffffffffffffffffffffffffffffffff1602179055508173ffffffffffffffffffffffffffffffffffffffff168173ffffffffffffffffffffffffffffffffffffffff167f8be0079c531659141344cd1fd0a4f28419497f9722a3daafe3b4186f6b6457e060405160405180910390a35050565b80600260006101000a81548173ffffffffffffffffffffffffffffffffffffffff021916908373ffffffffffffffffffffffffffffffffffffffff16021790555050565b80600360006101000a81548173ffffffffffffffffffffffffffffffffffffffff021916908373ffffffffffffffffffffffffffffffffffffffff16021790555050565b6000608051905090565b600080fd5b600073ffffffffffffffffffffffffffffffffffffffff82169050919050565b60006200038c826200035f565b9050919050565b6200039e816200037f565b8114620003aa57600080fd5b50565b600081519050620003be8162000393565b92915050565b600060208284031215620003dd57620003dc6200035a565b5b6000620003ed84828501620003ad565b91505092915050565b62000401816200037f565b82525050565b60006020820190506200041e6000830184620003f6565b92915050565b6000819050919050565b7f4e487b7100000000000000000000000000000000000000000000000000000000600052601160045260246000fd5b60006200046a8262000424565b9150620004778362000424565b9250828202620004878162000424565b91508282048414831517620004a157620004a06200042e565b5b5092915050565b7f4e487b7100000000000000000000000000000000000000000000000000000000600052601260045260246000fd5b6000620004e48262000424565b9150620004f18362000424565b925082620005045762000503620004a8565b5b828204905092915050565b608051614d676200053260003960008181610a2401526111140152614d676000f3fe6080604052600436106100f35760003560e01c80638da5cb5b1161008a578063dd3fac7c11610059578063dd3fac7c146102c0578063dff0ee41146102e9578063eee6e57314610314578063f2fde38b1461033d576100f3565b80638da5cb5b1461022a5780638dc654a21461025557806392154a3d1461026c578063b0f479a114610295576100f3565b806385572ffb116100c657806385572ffb146101915780638b8ff358146101ba5780638cd176d5146101e55780638d6dc0eb1461020e576100f3565b806301ffc9a7146100f857806337441996146101355780635821feae1461015e578063715018a61461017a575b600080fd5b34801561010457600080fd5b5061011f600480360381019061011a919061276c565b610366565b60405161012c91906127b4565b60405180910390f35b34801561014157600080fd5b5061015c6004803603810190610157919061294b565b610438565b005b61017860048036038101906101739190612b85565b6107bd565b005b34801561018657600080fd5b5061018f610a0e565b005b34801561019d57600080fd5b506101b860048036038101906101b39190612bf2565b610a22565b005b3480156101c657600080fd5b506101cf610ac7565b6040516101dc9190612c4a565b60405180910390f35b3480156101f157600080fd5b5061020c60048036038101906102079190612d15565b610acc565b005b61022860048036038101906102239190612e3f565b610bc9565b005b34801561023657600080fd5b5061023f610f65565b60405161024c9190612f13565b60405180910390f35b34801561026157600080fd5b5061026a610f8f565b005b34801561027857600080fd5b50610293600480360381019061028e9190612f2e565b61109e565b005b3480156102a157600080fd5b506102aa611110565b6040516102b79190612f13565b60405180910390f35b3480156102cc57600080fd5b506102e760048036038101906102e29190612f6e565b611138565b005b3480156102f557600080fd5b506102fe611258565b60405161030b9190612c4a565b60405180910390f35b34801561032057600080fd5b5061033b600480360381019061033691906130e9565b61125d565b005b34801561034957600080fd5b50610364600480360381019061035f9190613188565b61165f565b005b60007f85572ffb000000000000000000000000000000000000000000000000000000007bffffffffffffffffffffffffffffffffffffffffffffffffffffffff1916827bffffffffffffffffffffffffffffffffffffffffffffffffffffffff1916148061043157507f01ffc9a7000000000000000000000000000000000000000000000000000000007bffffffffffffffffffffffffffffffffffffffffffffffffffffffff1916827bffffffffffffffffffffffffffffffffffffffffffffffffffffffff1916145b9050919050565b816005600082815260200190815260200160002060009054906101000a900473ffffffffffffffffffffffffffffffffffffffff1673ffffffffffffffffffffffffffffffffffffffff163373ffffffffffffffffffffffffffffffffffffffff16146104da576040517f08c379a00000000000000000000000000000000000000000000000000000000081526004016104d190613238565b60405180910390fd5b6005600082815260200190815260200160002060006101000a81549073ffffffffffffffffffffffffffffffffffffffff0219169055807f7cc135e0cebb02c3480ae5d74d377283180a2601f8f644edf7987b009316c63a60405160405180910390a26000600c600085815260200190815260200160002090508060010160149054906101000a900460ff16156105a6576040517f08c379a000000000000000000000000000000000000000000000000000000000815260040161059d906132a4565b60405180910390fd5b60008351116105ea576040517f08c379a00000000000000000000000000000000000000000000000000000000081526004016105e190613310565b60405180910390fd5b60018160010160146101000a81548160ff021916908315150217905550600073ffffffffffffffffffffffffffffffffffffffff16600b60008360000160009054906101000a900473ffffffffffffffffffffffffffffffffffffffff1673ffffffffffffffffffffffffffffffffffffffff1673ffffffffffffffffffffffffffffffffffffffff16815260200190815260200160002060040160009054906101000a900473ffffffffffffffffffffffffffffffffffffffff1673ffffffffffffffffffffffffffffffffffffffff16036106fc576040517f08c379a00000000000000000000000000000000000000000000000000000000081526004016106f39061337c565b60405180910390fd5b60008160000160009054906101000a900473ffffffffffffffffffffffffffffffffffffffff1690508073ffffffffffffffffffffffffffffffffffffffff16638f9c39568360010160009054906101000a900473ffffffffffffffffffffffffffffffffffffffff16866040518363ffffffff1660e01b815260040161078492919061340a565b600060405180830381600087803b15801561079e57600080fd5b505af11580156107b2573d6000803e3d6000fd5b505050505050505050565b6000600a600083608001518152602001908152602001600020600301540361081a576040517f08c379a000000000000000000000000000000000000000000000000000000000815260040161081190613486565b60405180910390fd5b600a600082608001518152602001908152602001600020600101543414610876576040517f08c379a000000000000000000000000000000000000000000000000000000000815260040161086d906134f2565b60405180910390fd5b6040518060a00160405280826000015181526020018260600151815260200182602001518152602001826080015181526020016108b16116e2565b73ffffffffffffffffffffffffffffffffffffffff16815250600b6000836040015173ffffffffffffffffffffffffffffffffffffffff1673ffffffffffffffffffffffffffffffffffffffff1681526020019081526020016000206000820151816000019081610922919061371e565b506020820151816001019081610938919061371e565b50604082015181600201908161094e919061371e565b506060820151816003015560808201518160040160006101000a81548173ffffffffffffffffffffffffffffffffffffffff021916908373ffffffffffffffffffffffffffffffffffffffff1602179055509050507fea35bbd4aeddb611341e5394e07bd5ac7513bd56730a40e7e3e3eb761e155c05816040015182600001518360200151846060015185608001516109e56116e2565b8760a001518860c00151604051610a039897969594939291906137f0565b60405180910390a150565b610a166116ea565b610a206000611768565b565b7f000000000000000000000000000000000000000000000000000000000000000073ffffffffffffffffffffffffffffffffffffffff163373ffffffffffffffffffffffffffffffffffffffff1614610ab257336040517fd7f73334000000000000000000000000000000000000000000000000000000008152600401610aa99190612f13565b60405180910390fd5b610ac481610abf90613a84565b61182e565b50565b601481565b610ad46116ea565b60096000815480929190610ae790613ac6565b919050555060405180608001604052808260000151815260200182602001518152602001826040015181526020018260600151815250600a600060095481526020019081526020016000206000820151816000019081610b47919061371e565b50602082015181600101556040820151816002019081610b67919061371e565b50606082015181600301559050507f33c5bd102a4d38690a8d7d236985d20c88e66b73bca9de5ae6cc29376d2206fd6009548260000151836020015184604001518560600151604051610bbe959493929190613b0e565b60405180910390a150565b600073ffffffffffffffffffffffffffffffffffffffff16600d60008867ffffffffffffffff1667ffffffffffffffff16815260200190815260200160002060009054906101000a900473ffffffffffffffffffffffffffffffffffffffff1673ffffffffffffffffffffffffffffffffffffffff1603610c7f576040517f08c379a0000000000000000000000000000000000000000000000000000000008152600401610c7690613bbb565b60405180910390fd5b60006040518060a00160405280600d60008a67ffffffffffffffff1667ffffffffffffffff16815260200190815260200160002060009054906101000a900473ffffffffffffffffffffffffffffffffffffffff16604051602001610ce49190612f13565b60405160208183030381529060405281526020018787878787604051602001610d11959493929190613c30565b6040516020818303038152906040528152602001600067ffffffffffffffff811115610d4057610d3f612820565b5b604051908082528060200260200182016040528015610d7957816020015b610d66612649565b815260200190600190039081610d5e5790505b508152602001600073ffffffffffffffffffffffffffffffffffffffff168152602001610dbf604051806040016040528062061a808152602001600015158152506118df565b81525090506000600e60009054906101000a900473ffffffffffffffffffffffffffffffffffffffff1673ffffffffffffffffffffffffffffffffffffffff166320487ded67ccf0a31a221f3c9b846040518363ffffffff1660e01b8152600401610e2b929190613e71565b602060405180830381865afa158015610e48573d6000803e3d6000fd5b505050506040513d601f19601f82011682018060405250810190610e6c9190613eb6565b905080341015610eb1576040517f08c379a0000000000000000000000000000000000000000000000000000000008152600401610ea890613f2f565b60405180910390fd5b600e60009054906101000a900473ffffffffffffffffffffffffffffffffffffffff1673ffffffffffffffffffffffffffffffffffffffff166396f4e9f98267ccf0a31a221f3c9b856040518463ffffffff1660e01b8152600401610f17929190613e71565b60206040518083038185885af1158015610f35573d6000803e3d6000fd5b50505050506040513d601f19601f82011682018060405250810190610f5a9190613f64565b505050505050505050565b6000600660009054906101000a900473ffffffffffffffffffffffffffffffffffffffff16905090565b610f976116ea565b6000610fa161195e565b90508073ffffffffffffffffffffffffffffffffffffffff1663a9059cbb338373ffffffffffffffffffffffffffffffffffffffff166370a08231306040518263ffffffff1660e01b8152600401610ff99190612f13565b602060405180830381865afa158015611016573d6000803e3d6000fd5b505050506040513d601f19601f8201168201806040525081019061103a9190613eb6565b6040518363ffffffff1660e01b8152600401611057929190613f91565b6020604051808303816000875af1158015611076573d6000803e3d6000fd5b505050506040513d601f19601f8201168201806040525081019061109a9190613fe6565b5050565b6110a66116ea565b80600d60008467ffffffffffffffff1667ffffffffffffffff16815260200190815260200160002060006101000a81548173ffffffffffffffffffffffffffffffffffffffff021916908373ffffffffffffffffffffffffffffffffffffffff1602179055505050565b60007f0000000000000000000000000000000000000000000000000000000000000000905090565b60006111426116e2565b90506000600b60008473ffffffffffffffffffffffffffffffffffffffff1673ffffffffffffffffffffffffffffffffffffffff16815260200190815260200160002090508173ffffffffffffffffffffffffffffffffffffffff168160040160009054906101000a900473ffffffffffffffffffffffffffffffffffffffff1673ffffffffffffffffffffffffffffffffffffffff1614611219576040517f08c379a00000000000000000000000000000000000000000000000000000000081526004016112109061405f565b60405180910390fd5b7fd7219b2d0e6067644335c8f4f82ee77c59a90a22e2916f1dce8683af8e8b07fa838560405161124a92919061340a565b60405180910390a150505050565b600581565b6014835111156112a2576040517f08c379a0000000000000000000000000000000000000000000000000000000008152600401611299906140cb565b60405180910390fd5b60006112ac6116e2565b9050600073ffffffffffffffffffffffffffffffffffffffff16600b60008373ffffffffffffffffffffffffffffffffffffffff1673ffffffffffffffffffffffffffffffffffffffff16815260200190815260200160002060040160009054906101000a900473ffffffffffffffffffffffffffffffffffffffff1673ffffffffffffffffffffffffffffffffffffffff160361137f576040517f08c379a00000000000000000000000000000000000000000000000000000000081526004016113769061337c565b60405180910390fd5b600061139560075430633744199660e01b611988565b90506114b96040518060400160405280600381526020017f6765740000000000000000000000000000000000000000000000000000000000815250604051806060016040528060298152602001614d096029913973__StringJoiner__________________________635c8656e0896040518263ffffffff1660e01b81526004016114209190614254565b600060405180830381865af415801561143d573d6000803e3d6000fd5b505050506040513d6000823e3d601f19601f8201168201806040525081019061146691906142f9565b87611470876119b9565b6114798c6119b9565b6114858a60ff166119e6565b60405160200161149a969594939291906143a4565b60405160208183030381529060405283611ab49092919063ffffffff16565b6115386040518060400160405280600481526020017f70617468000000000000000000000000000000000000000000000000000000008152506040518060400160405280600381526020017f757269000000000000000000000000000000000000000000000000000000000081525083611ab49092919063ffffffff16565b600061154682600854611ae7565b905060405180606001604052808473ffffffffffffffffffffffffffffffffffffffff1681526020018873ffffffffffffffffffffffffffffffffffffffff16815260200160001515815250600c600083815260200190815260200160002060008201518160000160006101000a81548173ffffffffffffffffffffffffffffffffffffffff021916908373ffffffffffffffffffffffffffffffffffffffff16021790555060208201518160010160006101000a81548173ffffffffffffffffffffffffffffffffffffffff021916908373ffffffffffffffffffffffffffffffffffffffff16021790555060408201518160010160146101000a81548160ff02191690831515021790555090505050505050505050565b6116676116ea565b600073ffffffffffffffffffffffffffffffffffffffff168173ffffffffffffffffffffffffffffffffffffffff16036116d6576040517f08c379a00000000000000000000000000000000000000000000000000000000081526004016116cd906144b9565b60405180910390fd5b6116df81611768565b50565b600033905090565b6116f26116e2565b73ffffffffffffffffffffffffffffffffffffffff16611710610f65565b73ffffffffffffffffffffffffffffffffffffffff1614611766576040517f08c379a000000000000000000000000000000000000000000000000000000000815260040161175d90614525565b60405180910390fd5b565b6000600660009054906101000a900473ffffffffffffffffffffffffffffffffffffffff16905081600660006101000a81548173ffffffffffffffffffffffffffffffffffffffff021916908373ffffffffffffffffffffffffffffffffffffffff1602179055508173ffffffffffffffffffffffffffffffffffffffff168173ffffffffffffffffffffffffffffffffffffffff167f8be0079c531659141344cd1fd0a4f28419497f9722a3daafe3b4186f6b6457e060405160405180910390a35050565b6000806000806000856060015180602001905181019061184e91906145f3565b9450945094509450945060008590508073ffffffffffffffffffffffffffffffffffffffff16636d4195fb886020015188888888886040518763ffffffff1660e01b81526004016118a4969594939291906146a6565b600060405180830381600087803b1580156118be57600080fd5b505af11580156118d2573d6000803e3d6000fd5b5050505050505050505050565b60606397a657c960e01b826040516024016118fa9190614753565b604051602081830303815290604052907bffffffffffffffffffffffffffffffffffffffffffffffffffffffff19166020820180517bffffffffffffffffffffffffffffffffffffffffffffffffffffffff83818316178352505050509050919050565b6000600260009054906101000a900473ffffffffffffffffffffffffffffffffffffffff16905090565b611990612679565b611998612679565b6119af85858584611b1e909392919063ffffffff16565b9150509392505050565b60606119df8273ffffffffffffffffffffffffffffffffffffffff16601460ff16611bce565b9050919050565b6060600060016119f584611e0a565b01905060008167ffffffffffffffff811115611a1457611a13612820565b5b6040519080825280601f01601f191660200182016040528015611a465781602001600182028036833780820191505090505b509050600082602001820190505b600115611aa9578080600190039150507f3031323334353637383961626364656600000000000000000000000000000000600a86061a8153600a8581611a9d57611a9c61476e565b5b04945060008503611a54575b819350505050919050565b611acb828460800151611f5d90919063ffffffff16565b611ae2818460800151611f5d90919063ffffffff16565b505050565b6000611b16600360009054906101000a900473ffffffffffffffffffffffffffffffffffffffff168484611f82565b905092915050565b611b26612679565b611b36856080015161010061204e565b508385600001818152505082856020019073ffffffffffffffffffffffffffffffffffffffff16908173ffffffffffffffffffffffffffffffffffffffff16815250508185604001907bffffffffffffffffffffffffffffffffffffffffffffffffffffffff191690817bffffffffffffffffffffffffffffffffffffffffffffffffffffffff191681525050849050949350505050565b606060006002836002611be1919061479d565b611beb91906147df565b67ffffffffffffffff811115611c0457611c03612820565b5b6040519080825280601f01601f191660200182016040528015611c365781602001600182028036833780820191505090505b5090507f300000000000000000000000000000000000000000000000000000000000000081600081518110611c6e57611c6d614813565b5b60200101907effffffffffffffffffffffffffffffffffffffffffffffffffffffffffffff1916908160001a9053507f780000000000000000000000000000000000000000000000000000000000000081600181518110611cd257611cd1614813565b5b60200101907effffffffffffffffffffffffffffffffffffffffffffffffffffffffffffff1916908160001a90535060006001846002611d12919061479d565b611d1c91906147df565b90505b6001811115611dbc577f3031323334353637383961626364656600000000000000000000000000000000600f861660108110611d5e57611d5d614813565b5b1a60f81b828281518110611d7557611d74614813565b5b60200101907effffffffffffffffffffffffffffffffffffffffffffffffffffffffffffff1916908160001a905350600485901c945080611db590614842565b9050611d1f565b5060008414611e00576040517f08c379a0000000000000000000000000000000000000000000000000000000008152600401611df7906148b7565b60405180910390fd5b8091505092915050565b600080600090507a184f03e93ff9f4daa797ed6e38ed64bf6a1f0100000000000000008310611e68577a184f03e93ff9f4daa797ed6e38ed64bf6a1f0100000000000000008381611e5e57611e5d61476e565b5b0492506040810190505b6d04ee2d6d415b85acef81000000008310611ea5576d04ee2d6d415b85acef81000000008381611e9b57611e9a61476e565b5b0492506020810190505b662386f26fc100008310611ed457662386f26fc100008381611eca57611ec961476e565b5b0492506010810190505b6305f5e1008310611efd576305f5e1008381611ef357611ef261476e565b5b0492506008810190505b6127108310611f22576127108381611f1857611f1761476e565b5b0492506004810190505b60648310611f455760648381611f3b57611f3a61476e565b5b0492506002810190505b600a8310611f54576001810190505b80915050919050565b611f6a82600383516120b8565b611f7d818361223d90919063ffffffff16565b505050565b6000806004549050600181611f9791906147df565b6004819055506000634042994660e01b60008087600001513089604001518760018c6080015160000151604051602401611fd89897969594939291906148f5565b604051602081830303815290604052907bffffffffffffffffffffffffffffffffffffffffffffffffffffffff19166020820180517bffffffffffffffffffffffffffffffffffffffffffffffffffffffff838183161783525050505090506120438683868461225f565b925050509392505050565b6120566126e6565b6000602083612065919061497a565b1461209157602082612077919061497a565b602061208391906149ab565b8261208e91906147df565b91505b81836020018181525050604051808452600081528281016020016040525082905092915050565b60178167ffffffffffffffff16116120ef576120e98160058460ff16901b60ff1617846123f490919063ffffffff16565b50612238565b60ff8167ffffffffffffffff16116121455761211e601860058460ff16901b17846123f490919063ffffffff16565b5061213f8167ffffffffffffffff166001856124149092919063ffffffff16565b50612237565b61ffff8167ffffffffffffffff161161219c57612175601960058460ff16901b17846123f490919063ffffffff16565b506121968167ffffffffffffffff166002856124149092919063ffffffff16565b50612236565b63ffffffff8167ffffffffffffffff16116121f5576121ce601a60058460ff16901b17846123f490919063ffffffff16565b506121ef8167ffffffffffffffff166004856124149092919063ffffffff16565b50612235565b612212601b60058460ff16901b17846123f490919063ffffffff16565b506122338167ffffffffffffffff166008856124149092919063ffffffff16565b505b5b5b5b505050565b6122456126e6565b61225783846000015151848551612436565b905092915050565b60003084604051602001612274929190614a8e565b604051602081830303815290604052805190602001209050846005600083815260200190815260200160002060006101000a81548173ffffffffffffffffffffffffffffffffffffffff021916908373ffffffffffffffffffffffffffffffffffffffff160217905550807fb5e6e01e79f91267dc17b4e6314d5d4d03593d2ceee0fbb452b750bd70ea5af960405160405180910390a2600260009054906101000a900473ffffffffffffffffffffffffffffffffffffffff1673ffffffffffffffffffffffffffffffffffffffff16634000aea08685856040518463ffffffff1660e01b815260040161236a93929190614aba565b6020604051808303816000875af1158015612389573d6000803e3d6000fd5b505050506040513d601f19601f820116820180604052508101906123ad9190613fe6565b6123ec576040517f08c379a00000000000000000000000000000000000000000000000000000000081526004016123e390614b6a565b60405180910390fd5b949350505050565b6123fc6126e6565b61240c8384600001515184612525565b905092915050565b61241c6126e6565b61242d84856000015151858561257b565b90509392505050565b61243e6126e6565b825182111561244c57600080fd5b8460200151828561245d91906147df565b1115612492576124918560026124828860200151888761247d91906147df565b612609565b61248c919061479d565b612625565b5b6000808651805187602083010193508088870111156124b15787860182525b60208701925050505b602084106124f857805182526020826124d391906147df565b91506020816124e291906147df565b90506020846124f191906149ab565b93506124ba565b60006001856020036101000a03905080198251168184511681811785525050508692505050949350505050565b61252d6126e6565b8360200151831061255357612552846002866020015161254d919061479d565b612625565b5b8351805160208583010184815381860361256e576001820183525b5050508390509392505050565b6125836126e6565b8460200151848361259491906147df565b11156125bc576125bb85600286856125ac91906147df565b6125b6919061479d565b612625565b5b60006001836101006125ce9190614cbd565b6125d891906149ab565b905085518386820101858319825116178152815185880111156125fb5784870182525b505085915050949350505050565b60008183111561261b5782905061261f565b8190505b92915050565b600082600001519050612638838361204e565b50612643838261223d565b50505050565b6040518060400160405280600073ffffffffffffffffffffffffffffffffffffffff168152602001600081525090565b6040518060a0016040528060008019168152602001600073ffffffffffffffffffffffffffffffffffffffff16815260200160007bffffffffffffffffffffffffffffffffffffffffffffffffffffffff19168152602001600081526020016126e06126e6565b81525090565b604051806040016040528060608152602001600081525090565b6000604051905090565b600080fd5b600080fd5b60007fffffffff0000000000000000000000000000000000000000000000000000000082169050919050565b61274981612714565b811461275457600080fd5b50565b60008135905061276681612740565b92915050565b6000602082840312156127825761278161270a565b5b600061279084828501612757565b91505092915050565b60008115159050919050565b6127ae81612799565b82525050565b60006020820190506127c960008301846127a5565b92915050565b6000819050919050565b6127e2816127cf565b81146127ed57600080fd5b50565b6000813590506127ff816127d9565b92915050565b600080fd5b600080fd5b6000601f19601f8301169050919050565b7f4e487b7100000000000000000000000000000000000000000000000000000000600052604160045260246000fd5b6128588261280f565b810181811067ffffffffffffffff8211171561287757612876612820565b5b80604052505050565b600061288a612700565b9050612896828261284f565b919050565b600067ffffffffffffffff8211156128b6576128b5612820565b5b6128bf8261280f565b9050602081019050919050565b82818337600083830152505050565b60006128ee6128e98461289b565b612880565b90508281526020810184848401111561290a5761290961280a565b5b6129158482856128cc565b509392505050565b600082601f83011261293257612931612805565b5b81356129428482602086016128db565b91505092915050565b600080604083850312156129625761296161270a565b5b6000612970858286016127f0565b925050602083013567ffffffffffffffff8111156129915761299061270f565b5b61299d8582860161291d565b9150509250929050565b600080fd5b600080fd5b600073ffffffffffffffffffffffffffffffffffffffff82169050919050565b60006129dc826129b1565b9050919050565b6129ec816129d1565b81146129f757600080fd5b50565b600081359050612a09816129e3565b92915050565b6000819050919050565b612a2281612a0f565b8114612a2d57600080fd5b50565b600081359050612a3f81612a19565b92915050565b600060e08284031215612a5b57612a5a6129a7565b5b612a6560e0612880565b9050600082013567ffffffffffffffff811115612a8557612a846129ac565b5b612a918482850161291d565b600083015250602082013567ffffffffffffffff811115612ab557612ab46129ac565b5b612ac18482850161291d565b6020830152506040612ad5848285016129fa565b604083015250606082013567ffffffffffffffff811115612af957612af86129ac565b5b612b058482850161291d565b6060830152506080612b1984828501612a30565b60808301525060a082013567ffffffffffffffff811115612b3d57612b3c6129ac565b5b612b498482850161291d565b60a08301525060c082013567ffffffffffffffff811115612b6d57612b6c6129ac565b5b612b798482850161291d565b60c08301525092915050565b600060208284031215612b9b57612b9a61270a565b5b600082013567ffffffffffffffff811115612bb957612bb861270f565b5b612bc584828501612a45565b91505092915050565b600080fd5b600060a08284031215612be957612be8612bce565b5b81905092915050565b600060208284031215612c0857612c0761270a565b5b600082013567ffffffffffffffff811115612c2657612c2561270f565b5b612c3284828501612bd3565b91505092915050565b612c4481612a0f565b82525050565b6000602082019050612c5f6000830184612c3b565b92915050565b600060808284031215612c7b57612c7a6129a7565b5b612c856080612880565b9050600082013567ffffffffffffffff811115612ca557612ca46129ac565b5b612cb18482850161291d565b6000830152506020612cc584828501612a30565b602083015250604082013567ffffffffffffffff811115612ce957612ce86129ac565b5b612cf58482850161291d565b6040830152506060612d0984828501612a30565b60608301525092915050565b600060208284031215612d2b57612d2a61270a565b5b600082013567ffffffffffffffff811115612d4957612d4861270f565b5b612d5584828501612c65565b91505092915050565b600067ffffffffffffffff82169050919050565b612d7b81612d5e565b8114612d8657600080fd5b50565b600081359050612d9881612d72565b92915050565b600067ffffffffffffffff821115612db957612db8612820565b5b612dc28261280f565b9050602081019050919050565b6000612de2612ddd84612d9e565b612880565b905082815260208101848484011115612dfe57612dfd61280a565b5b612e098482856128cc565b509392505050565b600082601f830112612e2657612e25612805565b5b8135612e36848260208601612dcf565b91505092915050565b60008060008060008060c08789031215612e5c57612e5b61270a565b5b6000612e6a89828a01612d89565b9650506020612e7b89828a016129fa565b9550506040612e8c89828a016129fa565b9450506060612e9d89828a01612a30565b935050608087013567ffffffffffffffff811115612ebe57612ebd61270f565b5b612eca89828a0161291d565b92505060a087013567ffffffffffffffff811115612eeb57612eea61270f565b5b612ef789828a01612e11565b9150509295509295509295565b612f0d816129d1565b82525050565b6000602082019050612f286000830184612f04565b92915050565b60008060408385031215612f4557612f4461270a565b5b6000612f5385828601612d89565b9250506020612f64858286016129fa565b9150509250929050565b60008060408385031215612f8557612f8461270a565b5b600083013567ffffffffffffffff811115612fa357612fa261270f565b5b612faf8582860161291d565b9250506020612fc0858286016129fa565b9150509250929050565b600067ffffffffffffffff821115612fe557612fe4612820565b5b602082029050602081019050919050565b600080fd5b600061300e61300984612fca565b612880565b9050808382526020820190506020840283018581111561303157613030612ff6565b5b835b8181101561307857803567ffffffffffffffff81111561305657613055612805565b5b808601613063898261291d565b85526020850194505050602081019050613033565b5050509392505050565b600082601f83011261309757613096612805565b5b81356130a7848260208601612ffb565b91505092915050565b600060ff82169050919050565b6130c6816130b0565b81146130d157600080fd5b50565b6000813590506130e3816130bd565b92915050565b600080600080608085870312156131035761310261270a565b5b6000613111878288016129fa565b945050602085013567ffffffffffffffff8111156131325761313161270f565b5b61313e87828801613082565b935050604085013567ffffffffffffffff81111561315f5761315e61270f565b5b61316b8782880161291d565b925050606061317c878288016130d4565b91505092959194509250565b60006020828403121561319e5761319d61270a565b5b60006131ac848285016129fa565b91505092915050565b600082825260208201905092915050565b7f536f75726365206d75737420626520746865206f7261636c65206f662074686560008201527f2072657175657374000000000000000000000000000000000000000000000000602082015250565b60006132226028836131b5565b915061322d826131c6565b604082019050919050565b6000602082019050818103600083015261325181613215565b9050919050565b7f416c72656164792066756c66696c6c6564000000000000000000000000000000600082015250565b600061328e6011836131b5565b915061329982613258565b602082019050919050565b600060208201905081810360008301526132bd81613281565b9050919050565b7f496e76616c696420555249000000000000000000000000000000000000000000600082015250565b60006132fa600b836131b5565b9150613305826132c4565b602082019050919050565b60006020820190508181036000830152613329816132ed565b9050919050565b7f47616d65204e6f7420466f756e64000000000000000000000000000000000000600082015250565b6000613366600e836131b5565b915061337182613330565b602082019050919050565b6000602082019050818103600083015261339581613359565b9050919050565b600081519050919050565b60005b838110156133c55780820151818401526020810190506133aa565b60008484015250505050565b60006133dc8261339c565b6133e681856131b5565b93506133f68185602086016133a7565b6133ff8161280f565b840191505092915050565b600060408201905061341f6000830185612f04565b818103602083015261343181846133d1565b90509392505050565b7f496e76616c696420706c616e0000000000000000000000000000000000000000600082015250565b6000613470600c836131b5565b915061347b8261343a565b602082019050919050565b6000602082019050818103600083015261349f81613463565b9050919050565b7f496e73756666696369656e742066756e64730000000000000000000000000000600082015250565b60006134dc6012836131b5565b91506134e7826134a6565b602082019050919050565b6000602082019050818103600083015261350b816134cf565b9050919050565b7f4e487b7100000000000000000000000000000000000000000000000000000000600052602260045260246000fd5b6000600282049050600182168061355957607f821691505b60208210810361356c5761356b613512565b5b50919050565b60008190508160005260206000209050919050565b60006020601f8301049050919050565b600082821b905092915050565b6000600883026135d47fffffffffffffffffffffffffffffffffffffffffffffffffffffffffffffffff82613597565b6135de8683613597565b95508019841693508086168417925050509392505050565b6000819050919050565b600061361b61361661361184612a0f565b6135f6565b612a0f565b9050919050565b6000819050919050565b61363583613600565b61364961364182613622565b8484546135a4565b825550505050565b600090565b61365e613651565b61366981848461362c565b505050565b5b8181101561368d57613682600082613656565b60018101905061366f565b5050565b601f8211156136d2576136a381613572565b6136ac84613587565b810160208510156136bb578190505b6136cf6136c785613587565b83018261366e565b50505b505050565b600082821c905092915050565b60006136f5600019846008026136d7565b1980831691505092915050565b600061370e83836136e4565b9150826002028217905092915050565b6137278261339c565b67ffffffffffffffff8111156137405761373f612820565b5b61374a8254613541565b613755828285613691565b600060209050601f8311600181146137885760008415613776578287015190505b6137808582613702565b8655506137e8565b601f19841661379686613572565b60005b828110156137be57848901518255600182019150602085019450602081019050613799565b868310156137db57848901516137d7601f8916826136e4565b8355505b6001600288020188555050505b505050505050565b600061010082019050613806600083018b612f04565b8181036020830152613818818a6133d1565b9050818103604083015261382c81896133d1565b9050818103606083015261384081886133d1565b905061384f6080830187612c3b565b61385c60a0830186612f04565b81810360c083015261386e81856133d1565b905081810360e083015261388281846133d1565b90509998505050505050505050565b600067ffffffffffffffff8211156138ac576138ab612820565b5b602082029050602081019050919050565b6000604082840312156138d3576138d26129a7565b5b6138dd6040612880565b905060006138ed848285016129fa565b600083015250602061390184828501612a30565b60208301525092915050565b600061392061391b84613891565b612880565b9050808382526020820190506040840283018581111561394357613942612ff6565b5b835b8181101561396c578061395888826138bd565b845260208401935050604081019050613945565b5050509392505050565b600082601f83011261398b5761398a612805565b5b813561399b84826020860161390d565b91505092915050565b600060a082840312156139ba576139b96129a7565b5b6139c460a0612880565b905060006139d4848285016127f0565b60008301525060206139e884828501612d89565b602083015250604082013567ffffffffffffffff811115613a0c57613a0b6129ac565b5b613a1884828501612e11565b604083015250606082013567ffffffffffffffff811115613a3c57613a3b6129ac565b5b613a4884828501612e11565b606083015250608082013567ffffffffffffffff811115613a6c57613a6b6129ac565b5b613a7884828501613976565b60808301525092915050565b6000613a9036836139a4565b9050919050565b7f4e487b7100000000000000000000000000000000000000000000000000000000600052601160045260246000fd5b6000613ad182612a0f565b91507fffffffffffffffffffffffffffffffffffffffffffffffffffffffffffffffff8203613b0357613b02613a97565b5b600182019050919050565b600060a082019050613b236000830188612c3b565b8181036020830152613b3581876133d1565b9050613b446040830186612c3b565b8181036060830152613b5681856133d1565b9050613b656080830184612c3b565b9695505050505050565b7f436861696e206e6f7420737570706f7274656400000000000000000000000000600082015250565b6000613ba56013836131b5565b9150613bb082613b6f565b602082019050919050565b60006020820190508181036000830152613bd481613b98565b9050919050565b600081519050919050565b600082825260208201905092915050565b6000613c0282613bdb565b613c0c8185613be6565b9350613c1c8185602086016133a7565b613c258161280f565b840191505092915050565b600060a082019050613c456000830188612f04565b613c526020830187612f04565b613c5f6040830186612c3b565b8181036060830152613c7181856133d1565b90508181036080830152613c858184613bf7565b90509695505050505050565b613c9a81612d5e565b82525050565b600082825260208201905092915050565b6000613cbc82613bdb565b613cc68185613ca0565b9350613cd68185602086016133a7565b613cdf8161280f565b840191505092915050565b600081519050919050565b600082825260208201905092915050565b6000819050602082019050919050565b613d1f816129d1565b82525050565b613d2e81612a0f565b82525050565b604082016000820151613d4a6000850182613d16565b506020820151613d5d6020850182613d25565b50505050565b6000613d6f8383613d34565b60408301905092915050565b6000602082019050919050565b6000613d9382613cea565b613d9d8185613cf5565b9350613da883613d06565b8060005b83811015613dd9578151613dc08882613d63565b9750613dcb83613d7b565b925050600181019050613dac565b5085935050505092915050565b600060a0830160008301518482036000860152613e038282613cb1565b91505060208301518482036020860152613e1d8282613cb1565b91505060408301518482036040860152613e378282613d88565b9150506060830151613e4c6060860182613d16565b5060808301518482036080860152613e648282613cb1565b9150508091505092915050565b6000604082019050613e866000830185613c91565b8181036020830152613e988184613de6565b90509392505050565b600081519050613eb081612a19565b92915050565b600060208284031215613ecc57613ecb61270a565b5b6000613eda84828501613ea1565b91505092915050565b7f496e73756666696369656e742066656500000000000000000000000000000000600082015250565b6000613f196010836131b5565b9150613f2482613ee3565b602082019050919050565b60006020820190508181036000830152613f4881613f0c565b9050919050565b600081519050613f5e816127d9565b92915050565b600060208284031215613f7a57613f7961270a565b5b6000613f8884828501613f4f565b91505092915050565b6000604082019050613fa66000830185612f04565b613fb36020830184612c3b565b9392505050565b613fc381612799565b8114613fce57600080fd5b50565b600081519050613fe081613fba565b92915050565b600060208284031215613ffc57613ffb61270a565b5b600061400a84828501613fd1565b91505092915050565b7f556e417574686f72697a65640000000000000000000000000000000000000000600082015250565b6000614049600c836131b5565b915061405482614013565b602082019050919050565b600060208201905081810360008301526140788161403c565b9050919050565b7f546f6f206d616e79206174747269627574657300000000000000000000000000600082015250565b60006140b56013836131b5565b91506140c08261407f565b602082019050919050565b600060208201905081810360008301526140e4816140a8565b9050919050565b600081519050919050565b600082825260208201905092915050565b6000819050602082019050919050565b600082825260208201905092915050565b60006141338261339c565b61413d8185614117565b935061414d8185602086016133a7565b6141568161280f565b840191505092915050565b600061416d8383614128565b905092915050565b6000602082019050919050565b600061418d826140eb565b61419781856140f6565b9350836020820285016141a985614107565b8060005b858110156141e557848403895281516141c68582614161565b94506141d183614175565b925060208a019950506001810190506141ad565b50829750879550505050505092915050565b600082825260208201905092915050565b7f2c00000000000000000000000000000000000000000000000000000000000000600082015250565b600061423e6001836141f7565b915061424982614208565b602082019050919050565b6000604082019050818103600083015261426e8184614182565b9050818103602083015261428181614231565b905092915050565b600061429c6142978461289b565b612880565b9050828152602081018484840111156142b8576142b761280a565b5b6142c38482856133a7565b509392505050565b600082601f8301126142e0576142df612805565b5b81516142f0848260208601614289565b91505092915050565b60006020828403121561430f5761430e61270a565b5b600082015167ffffffffffffffff81111561432d5761432c61270f565b5b614339848285016142cb565b91505092915050565b600081905092915050565b60006143588261339c565b6143628185614342565b93506143728185602086016133a7565b80840191505092915050565b7f2f00000000000000000000000000000000000000000000000000000000000000815250565b60006143b0828961434d565b91506143bb8261437e565b6001820191506143cb828861434d565b91506143d68261437e565b6001820191506143e6828761434d565b91506143f18261437e565b600182019150614401828661434d565b915061440c8261437e565b60018201915061441c828561434d565b91506144278261437e565b600182019150614437828461434d565b9150819050979650505050505050565b7f4f776e61626c653a206e6577206f776e657220697320746865207a65726f206160008201527f6464726573730000000000000000000000000000000000000000000000000000602082015250565b60006144a36026836131b5565b91506144ae82614447565b604082019050919050565b600060208201905081810360008301526144d281614496565b9050919050565b7f4f776e61626c653a2063616c6c6572206973206e6f7420746865206f776e6572600082015250565b600061450f6020836131b5565b915061451a826144d9565b602082019050919050565b6000602082019050818103600083015261453e81614502565b9050919050565b6000614550826129b1565b9050919050565b61456081614545565b811461456b57600080fd5b50565b60008151905061457d81614557565b92915050565b600061459661459184612d9e565b612880565b9050828152602081018484840111156145b2576145b161280a565b5b6145bd8482856133a7565b509392505050565b600082601f8301126145da576145d9612805565b5b81516145ea848260208601614583565b91505092915050565b600080600080600060a0868803121561460f5761460e61270a565b5b600061461d8882890161456e565b955050602061462e8882890161456e565b945050604061463f88828901613ea1565b935050606086015167ffffffffffffffff8111156146605761465f61270f565b5b61466c888289016142cb565b925050608086015167ffffffffffffffff81111561468d5761468c61270f565b5b614699888289016145c5565b9150509295509295909350565b600060c0820190506146bb6000830189613c91565b6146c86020830188612f04565b6146d56040830187612f04565b6146e26060830186612c3b565b81810360808301526146f481856133d1565b905081810360a08301526147088184613bf7565b9050979650505050505050565b61471e81612799565b82525050565b60408201600082015161473a6000850182613d25565b50602082015161474d6020850182614715565b50505050565b60006040820190506147686000830184614724565b92915050565b7f4e487b7100000000000000000000000000000000000000000000000000000000600052601260045260246000fd5b60006147a882612a0f565b91506147b383612a0f565b92508282026147c181612a0f565b915082820484148315176147d8576147d7613a97565b5b5092915050565b60006147ea82612a0f565b91506147f583612a0f565b925082820190508082111561480d5761480c613a97565b5b92915050565b7f4e487b7100000000000000000000000000000000000000000000000000000000600052603260045260246000fd5b600061484d82612a0f565b9150600082036148605761485f613a97565b5b600182039050919050565b7f537472696e67733a20686578206c656e67746820696e73756666696369656e74600082015250565b60006148a16020836131b5565b91506148ac8261486b565b602082019050919050565b600060208201905081810360008301526148d081614894565b9050919050565b6148e0816127cf565b82525050565b6148ef81612714565b82525050565b60006101008201905061490b600083018b612f04565b614918602083018a612c3b565b61492560408301896148d7565b6149326060830188612f04565b61493f60808301876148e6565b61494c60a0830186612c3b565b61495960c0830185612c3b565b81810360e083015261496b8184613bf7565b90509998505050505050505050565b600061498582612a0f565b915061499083612a0f565b9250826149a05761499f61476e565b5b828206905092915050565b60006149b682612a0f565b91506149c183612a0f565b92508282039050818111156149d9576149d8613a97565b5b92915050565b60006149fa6149f56149f0846129b1565b6135f6565b6129b1565b9050919050565b6000614a0c826149df565b9050919050565b6000614a1e82614a01565b9050919050565b60008160601b9050919050565b6000614a3d82614a25565b9050919050565b6000614a4f82614a32565b9050919050565b614a67614a6282614a13565b614a44565b82525050565b6000819050919050565b614a88614a8382612a0f565b614a6d565b82525050565b6000614a9a8285614a56565b601482019150614aaa8284614a77565b6020820191508190509392505050565b6000606082019050614acf6000830186612f04565b614adc6020830185612c3b565b8181036040830152614aee8184613bf7565b9050949350505050565b7f756e61626c6520746f207472616e73666572416e6443616c6c20746f206f726160008201527f636c650000000000000000000000000000000000000000000000000000000000602082015250565b6000614b546023836131b5565b9150614b5f82614af8565b604082019050919050565b60006020820190508181036000830152614b8381614b47565b9050919050565b60008160011c9050919050565b6000808291508390505b6001851115614be157808604811115614bbd57614bbc613a97565b5b6001851615614bcc5780820291505b8081029050614bda85614b8a565b9450614ba1565b94509492505050565b600082614bfa5760019050614cb6565b81614c085760009050614cb6565b8160018114614c1e5760028114614c2857614c57565b6001915050614cb6565b60ff841115614c3a57614c39613a97565b5b8360020a915084821115614c5157614c50613a97565b5b50614cb6565b5060208310610133831016604e8410600b8410161715614c8c5782820a905083811115614c8757614c86613a97565b5b614cb6565b614c998484846001614b97565b92509050818404811115614cb057614caf613a97565b5b81810290505b9392505050565b6000614cc882612a0f565b9150614cd383612a0f565b9250614d007fffffffffffffffffffffffffffffffffffffffffffffffffffffffffffffffff8484614bea565b90509291505056fe68747470733a2f2f6b616e7661732d6469356a2e6f6e72656e6465722e636f6d2f67656e6572617465a2646970667358221220ad04123f286605f8181574684dc1972daef8904cfdd10cd6e542c11de9765e9b64736f6c63430008110033",
  "immutableReferences": {
    "14": [
      {
        "length": 32,
        "start": 2596
      },
      {
        "length": 32,
        "start": 4372
      }
    ]
  },
  "source": "// SPDX-License-Identifier: MIT\r\npragma solidity ^0.8.17;\r\n\r\nimport {Assets} from \"./libraries/Assets.sol\";\r\nimport {Params} from \"./libraries/Params.sol\";\r\nimport {IKanvasAvax} from \"./interfaces/IKanvasAvax.sol\";\r\nimport {IKanvasGame} from \"./interfaces/IKanvasGame.sol\";\r\nimport {IKanvasInteropGame} from \"./interfaces/IKanvasInteropGame.sol\";\r\nimport {StringJoiner} from \"./libraries/StringJoiner.sol\";\r\n\r\nimport {Strings} from \"@openzeppelin/contracts/utils/Strings.sol\";\r\nimport {Ownable} from \"@openzeppelin/contracts/access/Ownable.sol\";\r\nimport {Context} from \"@openzeppelin/contracts/utils/Context.sol\";\r\n\r\nimport {CCIPReceiver} from \"@chainlink/contracts-ccip/src/v0.8/ccip/applications/CCIPReceiver.sol\";\r\nimport {IRouterClient} from \"@chainlink/contracts-ccip/src/v0.8/ccip/interfaces/IRouterClient.sol\";\r\nimport {Client} from \"@chainlink/contracts-ccip/src/v0.8/ccip/libraries/Client.sol\";\r\nimport {ChainlinkClient, Chainlink, LinkTokenInterface} from \"@chainlink/contracts/src/v0.8/ChainlinkClient.sol\";\r\n\r\ncontract KanvasAvax is\r\n    IKanvasAvax,\r\n    Context,\r\n    CCIPReceiver,\r\n    ChainlinkClient,\r\n    Ownable\r\n{\r\n    uint64 private constant AVAX_SELECTOR = 14767482510784806043;\r\n    uint256 public constant MAX_PROPERTIES_LEN = 20;\r\n    uint256 public constant MAX_TEMPLATES_LEN = 5;\r\n    using Chainlink for Chainlink.Request;\r\n\r\n    string private constant BASE_URL =\r\n        \"https://kanvas-di5j.onrender.com/generate\";\r\n\r\n    bytes32 private jobId;\r\n    uint256 private fee;\r\n\r\n    uint256 private _planId;\r\n    mapping(uint256 => Assets.Plan) private _plans;\r\n\r\n    mapping(address => Assets.Game) private _games;\r\n\r\n    mapping(bytes32 => Assets.Request) private _requests;\r\n\r\n    mapping(uint64 => address) private _interops;\r\n\r\n    IRouterClient private _router;\r\n\r\n    constructor(address receiver) CCIPReceiver(receiver) Ownable() {\r\n        setChainlinkToken(0x0b9d5D9136855f6FEc3c0993feE6E9CE8a297846);\r\n        setChainlinkOracle(0x022EEA14A6010167ca026B32576D6686dD7e85d2);\r\n        jobId = \"7d80a6386ef543a3abb52817f6707e3b\";\r\n        fee = (1 * LINK_DIVISIBILITY) / 10;\r\n\r\n        _router = IRouterClient(getRouter());\r\n    }\r\n\r\n    function createGame(Params.Game memory params) external payable {\r\n        require(_plans[params.plan].limit != 0, \"Invalid plan\");\r\n        require(msg.value == _plans[params.plan].cost, \"Insufficient funds\");\r\n\r\n        _games[params.gameId] = Assets.Game({\r\n            name: params.name,\r\n            description: params.description,\r\n            avatar: params.avatar,\r\n            plan: params.plan,\r\n            creator: _msgSender()\r\n        });\r\n\r\n        emit GameCreated(\r\n            params.gameId,\r\n            params.name,\r\n            params.description,\r\n            params.avatar,\r\n            params.plan,\r\n            _msgSender(),\r\n            params.email,\r\n            params.website\r\n        );\r\n    }\r\n\r\n    function addTemplate(string memory templateUri, address gameId) external {\r\n        address creator = _msgSender();\r\n\r\n        Assets.Game storage game = _games[gameId];\r\n\r\n        require(game.creator == creator, \"UnAuthorized\");\r\n\r\n        emit TemplateAdded(gameId, templateUri);\r\n    }\r\n\r\n    function _generateUri(\r\n        address playerId,\r\n        string[] memory properties,\r\n        string memory fields,\r\n        uint8 templateId\r\n    ) external override {\r\n        require(properties.length <= MAX_PROPERTIES_LEN, \"Too many attributes\");\r\n\r\n        address gameId = _msgSender();\r\n        require(_games[gameId].creator != address(0), \"Game Not Found\");\r\n\r\n        Chainlink.Request memory req = buildChainlinkRequest(\r\n            jobId,\r\n            address(this),\r\n            this.fulfill.selector\r\n        );\r\n\r\n        // Set the URL to perform the GET request on\r\n        // https://server.com/generete/properties/fields/gameid/playerid\r\n        req.add(\r\n            \"get\",\r\n            string.concat(\r\n                BASE_URL,\r\n                \"/\",\r\n                StringJoiner.joinStrings(properties, \",\"),\r\n                \"/\",\r\n                fields,\r\n                \"/\",\r\n                Strings.toHexString(gameId),\r\n                \"/\",\r\n                Strings.toHexString(playerId),\r\n                \"/\",\r\n                Strings.toString(templateId)\r\n            )\r\n        );\r\n\r\n        // Chainlink nodes 1.0.0 and later support this format\r\n        req.add(\"path\", \"uri\");\r\n\r\n        // Sends the request\r\n        bytes32 requestId = sendChainlinkRequest(req, fee);\r\n\r\n        _requests[requestId] = Assets.Request({\r\n            gameId: gameId,\r\n            playerId: playerId,\r\n            fulfilled: false\r\n        });\r\n    }\r\n\r\n    function updateInterop(\r\n        uint64 chainSelector,\r\n        address kanvasRouter\r\n    ) external onlyOwner {\r\n        _interops[chainSelector] = kanvasRouter;\r\n    }\r\n\r\n    /** Receive the response in the form of string  */\r\n    function fulfill(\r\n        bytes32 requestId,\r\n        string memory uri\r\n    ) public recordChainlinkFulfillment(requestId) {\r\n        Assets.Request storage request = _requests[requestId];\r\n        require(!request.fulfilled, \"Already fulfilled\");\r\n        require(bytes(uri).length > 0, \"Invalid URI\");\r\n\r\n        request.fulfilled = true;\r\n\r\n        require(_games[request.gameId].creator != address(0), \"Game Not Found\");\r\n\r\n        IKanvasGame game = IKanvasGame(request.gameId);\r\n        game._receiveUri(request.playerId, uri);\r\n    }\r\n\r\n    /** Allow withdraw of Link tokens from the contract */\r\n    function withdrawLink() public onlyOwner {\r\n        LinkTokenInterface link = LinkTokenInterface(chainlinkTokenAddress());\r\n        link.transfer(msg.sender, link.balanceOf(address(this)));\r\n    }\r\n\r\n    function _transferTo(\r\n        uint64 chainSelector,\r\n        address gameId,\r\n        address playerId,\r\n        uint256 tokenId,\r\n        string memory uri,\r\n        bytes memory data\r\n    ) external payable {\r\n        require(_interops[chainSelector] != address(0), \"Chain not supported\");\r\n\r\n        // Create an EVM2AnyMessage struct in memory with necessary information for sending a cross-chain message\r\n        Client.EVM2AnyMessage memory message = Client.EVM2AnyMessage({\r\n            // ABI-encoded receiver address\r\n            receiver: abi.encode(_interops[chainSelector]),\r\n            // ABI-encoded string message\r\n            data: abi.encode(gameId, playerId, tokenId, uri, data),\r\n            // Empty array indicating no tokens are being sent\r\n            tokenAmounts: new Client.EVMTokenAmount[](0),\r\n            // Additional arguments, setting gas limit and non-strict sequency mode\r\n            extraArgs: Client._argsToBytes(\r\n                Client.EVMExtraArgsV1({gasLimit: 400_000, strict: false})\r\n            ),\r\n            // Setting feeToken to zero address, indicating native asset will be used for fees\r\n            feeToken: address(0)\r\n        });\r\n\r\n        // Get the fee required to send the message\r\n        uint256 fees = _router.getFee(AVAX_SELECTOR, message);\r\n\r\n        require(msg.value >= fees, \"Insufficient fee\");\r\n\r\n        // Send the message through the router and store the returned message ID\r\n        _router.ccipSend{value: fees}(AVAX_SELECTOR, message);\r\n    }\r\n\r\n    // handle a received message\r\n    function _ccipReceive(\r\n        Client.Any2EVMMessage memory message\r\n    ) internal override {\r\n        (\r\n            address gameId,\r\n            address playerId,\r\n            uint256 tokenId,\r\n            string memory uri,\r\n            bytes memory data\r\n        ) = abi.decode(\r\n                message.data,\r\n                (address, address, uint256, string, bytes)\r\n            );\r\n\r\n        IKanvasInteropGame game = IKanvasInteropGame(gameId);\r\n        game._receiveFrom(\r\n            message.sourceChainSelector,\r\n            gameId,\r\n            playerId,\r\n            tokenId,\r\n            uri,\r\n            data\r\n        );\r\n    }\r\n\r\n    /** Create plans */\r\n    function createPlan(Params.Plan memory params) external onlyOwner {\r\n        _planId++;\r\n\r\n        _plans[_planId] = Assets.Plan({\r\n            name: params.name,\r\n            cost: params.cost,\r\n            color: params.color,\r\n            limit: params.limit\r\n        });\r\n\r\n        emit PlanCreated(\r\n            _planId,\r\n            params.name,\r\n            params.cost,\r\n            params.color,\r\n            params.limit\r\n        );\r\n    }\r\n}\r\n",
  "sourcePath": "C:\\Users\\DELL\\Documents\\kanvas\\blockchain\\contracts\\KanvasAvax.sol",
  "compiler": {
    "name": "solc",
    "version": "0.8.17+commit.8df45f5f.Emscripten.clang"
  },
  "schemaVersion": "3.4.11",
  "updatedAt": "2023-12-03T19:05:30.112Z",
  "devdoc": {
    "kind": "dev",
    "methods": {
      "ccipReceive((bytes32,uint64,bytes,bytes,(address,uint256)[]))": {
        "details": "Note ensure you check the msg.sender is the OffRampRouter",
        "params": {
          "message": "CCIP Message"
        }
      },
      "getRouter()": {
        "returns": {
          "_0": "i_router address"
        }
      },
      "owner()": {
        "details": "Returns the address of the current owner."
      },
      "renounceOwnership()": {
        "details": "Leaves the contract without owner. It will not be possible to call `onlyOwner` functions. Can only be called by the current owner. NOTE: Renouncing ownership will leave the contract without an owner, thereby disabling any functionality that is only available to the owner."
      },
      "supportsInterface(bytes4)": {
        "params": {
          "interfaceId": "The interfaceId to check"
        },
        "returns": {
          "_0": "true if the interfaceId is supported"
        }
      },
      "transferOwnership(address)": {
        "details": "Transfers ownership of the contract to a new account (`newOwner`). Can only be called by the current owner."
      }
    },
    "version": 1
  },
  "userdoc": {
    "kind": "user",
    "methods": {
      "ccipReceive((bytes32,uint64,bytes,bytes,(address,uint256)[]))": {
        "notice": "Called by the Router to deliver a message. If this reverts, any token transfers also revert. The message will move to a FAILED state and become available for manual execution."
      },
      "createPlan((string,uint256,string,uint256))": {
        "notice": "Create plans "
      },
      "fulfill(bytes32,string)": {
        "notice": "Receive the response in the form of string  "
      },
      "getRouter()": {
        "notice": "Return the current router"
      },
      "supportsInterface(bytes4)": {
        "notice": "IERC165 supports an interfaceId"
      },
      "withdrawLink()": {
        "notice": "Allow withdraw of Link tokens from the contract "
      }
    },
    "version": 1
  }
}