{
  "contractName": "KanvasAvax",
  "abi": [
    {
      "inputs": [
        {
          "internalType": "address",
          "name": "receiver",
          "type": "address"
        }
      ],
      "stateMutability": "nonpayable",
      "type": "constructor"
    },
    {
      "inputs": [
        {
          "internalType": "address",
          "name": "router",
          "type": "address"
        }
      ],
      "name": "InvalidRouter",
      "type": "error"
    },
    {
      "anonymous": false,
      "inputs": [
        {
          "indexed": true,
          "internalType": "bytes32",
          "name": "id",
          "type": "bytes32"
        }
      ],
      "name": "ChainlinkCancelled",
      "type": "event"
    },
    {
      "anonymous": false,
      "inputs": [
        {
          "indexed": true,
          "internalType": "bytes32",
          "name": "id",
          "type": "bytes32"
        }
      ],
      "name": "ChainlinkFulfilled",
      "type": "event"
    },
    {
      "anonymous": false,
      "inputs": [
        {
          "indexed": true,
          "internalType": "bytes32",
          "name": "id",
          "type": "bytes32"
        }
      ],
      "name": "ChainlinkRequested",
      "type": "event"
    },
    {
      "anonymous": false,
      "inputs": [
        {
          "indexed": false,
          "internalType": "address",
          "name": "gameId",
          "type": "address"
        },
        {
          "indexed": false,
          "internalType": "string",
          "name": "name",
          "type": "string"
        },
        {
          "indexed": false,
          "internalType": "string",
          "name": "description",
          "type": "string"
        },
        {
          "indexed": false,
          "internalType": "string",
          "name": "avatar",
          "type": "string"
        },
        {
          "indexed": false,
          "internalType": "uint256",
          "name": "plan",
          "type": "uint256"
        },
        {
          "indexed": false,
          "internalType": "address",
          "name": "creator",
          "type": "address"
        },
        {
          "indexed": false,
          "internalType": "string",
          "name": "email",
          "type": "string"
        },
        {
          "indexed": false,
          "internalType": "string",
          "name": "website",
          "type": "string"
        }
      ],
      "name": "GameCreated",
      "type": "event"
    },
    {
      "anonymous": false,
      "inputs": [
        {
          "indexed": true,
          "internalType": "address",
          "name": "previousOwner",
          "type": "address"
        },
        {
          "indexed": true,
          "internalType": "address",
          "name": "newOwner",
          "type": "address"
        }
      ],
      "name": "OwnershipTransferred",
      "type": "event"
    },
    {
      "anonymous": false,
      "inputs": [
        {
          "indexed": false,
          "internalType": "uint256",
          "name": "planId",
          "type": "uint256"
        },
        {
          "indexed": false,
          "internalType": "string",
          "name": "name",
          "type": "string"
        },
        {
          "indexed": false,
          "internalType": "uint256",
          "name": "cost",
          "type": "uint256"
        },
        {
          "indexed": false,
          "internalType": "string",
          "name": "color",
          "type": "string"
        },
        {
          "indexed": false,
          "internalType": "uint256",
          "name": "limit",
          "type": "uint256"
        }
      ],
      "name": "PlanCreated",
      "type": "event"
    },
    {
      "anonymous": false,
      "inputs": [
        {
          "indexed": false,
          "internalType": "address",
          "name": "gameId",
          "type": "address"
        },
        {
          "indexed": false,
          "internalType": "string",
          "name": "template",
          "type": "string"
        }
      ],
      "name": "TemplateAdded",
      "type": "event"
    },
    {
      "inputs": [],
      "name": "MAX_PROPERTIES_LEN",
      "outputs": [
        {
          "internalType": "uint256",
          "name": "",
          "type": "uint256"
        }
      ],
      "stateMutability": "view",
      "type": "function"
    },
    {
      "inputs": [],
      "name": "MAX_TEMPLATES_LEN",
      "outputs": [
        {
          "internalType": "uint256",
          "name": "",
          "type": "uint256"
        }
      ],
      "stateMutability": "view",
      "type": "function"
    },
    {
      "inputs": [
        {
          "components": [
            {
              "internalType": "bytes32",
              "name": "messageId",
              "type": "bytes32"
            },
            {
              "internalType": "uint64",
              "name": "sourceChainSelector",
              "type": "uint64"
            },
            {
              "internalType": "bytes",
              "name": "sender",
              "type": "bytes"
            },
            {
              "internalType": "bytes",
              "name": "data",
              "type": "bytes"
            },
            {
              "components": [
                {
                  "internalType": "address",
                  "name": "token",
                  "type": "address"
                },
                {
                  "internalType": "uint256",
                  "name": "amount",
                  "type": "uint256"
                }
              ],
              "internalType": "struct Client.EVMTokenAmount[]",
              "name": "destTokenAmounts",
              "type": "tuple[]"
            }
          ],
          "internalType": "struct Client.Any2EVMMessage",
          "name": "message",
          "type": "tuple"
        }
      ],
      "name": "ccipReceive",
      "outputs": [],
      "stateMutability": "nonpayable",
      "type": "function"
    },
    {
      "inputs": [],
      "name": "getRouter",
      "outputs": [
        {
          "internalType": "address",
          "name": "",
          "type": "address"
        }
      ],
      "stateMutability": "view",
      "type": "function"
    },
    {
      "inputs": [],
      "name": "owner",
      "outputs": [
        {
          "internalType": "address",
          "name": "",
          "type": "address"
        }
      ],
      "stateMutability": "view",
      "type": "function"
    },
    {
      "inputs": [],
      "name": "renounceOwnership",
      "outputs": [],
      "stateMutability": "nonpayable",
      "type": "function"
    },
    {
      "inputs": [
        {
          "internalType": "bytes4",
          "name": "interfaceId",
          "type": "bytes4"
        }
      ],
      "name": "supportsInterface",
      "outputs": [
        {
          "internalType": "bool",
          "name": "",
          "type": "bool"
        }
      ],
      "stateMutability": "pure",
      "type": "function"
    },
    {
      "inputs": [
        {
          "internalType": "address",
          "name": "newOwner",
          "type": "address"
        }
      ],
      "name": "transferOwnership",
      "outputs": [],
      "stateMutability": "nonpayable",
      "type": "function"
    },
    {
      "inputs": [
        {
          "components": [
            {
              "internalType": "string",
              "name": "name",
              "type": "string"
            },
            {
              "internalType": "string",
              "name": "description",
              "type": "string"
            },
            {
              "internalType": "address",
              "name": "gameId",
              "type": "address"
            },
            {
              "internalType": "string",
              "name": "avatar",
              "type": "string"
            },
            {
              "internalType": "uint256",
              "name": "plan",
              "type": "uint256"
            },
            {
              "internalType": "string",
              "name": "email",
              "type": "string"
            },
            {
              "internalType": "string",
              "name": "website",
              "type": "string"
            }
          ],
          "internalType": "struct Params.Game",
          "name": "params",
          "type": "tuple"
        }
      ],
      "name": "createGame",
      "outputs": [],
      "stateMutability": "payable",
      "type": "function"
    },
    {
      "inputs": [
        {
          "internalType": "string",
          "name": "params",
          "type": "string"
        },
        {
          "internalType": "address",
          "name": "gameId",
          "type": "address"
        }
      ],
      "name": "addTemplate",
      "outputs": [],
      "stateMutability": "nonpayable",
      "type": "function"
    },
    {
      "inputs": [
        {
          "internalType": "address",
          "name": "playerId",
          "type": "address"
        },
        {
          "internalType": "string[]",
          "name": "properties",
          "type": "string[]"
        },
        {
          "internalType": "string",
          "name": "fields",
          "type": "string"
        }
      ],
      "name": "_generateUri",
      "outputs": [],
      "stateMutability": "nonpayable",
      "type": "function"
    },
    {
      "inputs": [
        {
          "internalType": "string",
          "name": "newBaseUrl",
          "type": "string"
        }
      ],
      "name": "updateBaseUrl",
      "outputs": [],
      "stateMutability": "nonpayable",
      "type": "function"
    },
    {
      "inputs": [
        {
          "internalType": "bytes32",
          "name": "requestId",
          "type": "bytes32"
        },
        {
          "internalType": "string",
          "name": "uri",
          "type": "string"
        }
      ],
      "name": "fulfill",
      "outputs": [],
      "stateMutability": "nonpayable",
      "type": "function"
    },
    {
      "inputs": [],
      "name": "withdrawLink",
      "outputs": [],
      "stateMutability": "nonpayable",
      "type": "function"
    },
    {
      "inputs": [
        {
          "internalType": "uint64",
          "name": "chainSelector",
          "type": "uint64"
        },
        {
          "internalType": "bytes",
          "name": "data",
          "type": "bytes"
        }
      ],
      "name": "_transferTo",
      "outputs": [],
      "stateMutability": "payable",
      "type": "function"
    },
    {
      "inputs": [
        {
          "components": [
            {
              "internalType": "string",
              "name": "name",
              "type": "string"
            },
            {
              "internalType": "uint256",
              "name": "cost",
              "type": "uint256"
            },
            {
              "internalType": "string",
              "name": "color",
              "type": "string"
            },
            {
              "internalType": "uint256",
              "name": "limit",
              "type": "uint256"
            }
          ],
          "internalType": "struct Params.Plan",
          "name": "params",
          "type": "tuple"
        }
      ],
      "name": "createPlan",
      "outputs": [],
      "stateMutability": "nonpayable",
      "type": "function"
    }
  ],
  "bytecode": "0x60a060405260016004556040518060200160405280600081525060079081620000299190620005f5565b503480156200003757600080fd5b5060405162004f5738038062004f5783398181016040528101906200005d919062000746565b80600073ffffffffffffffffffffffffffffffffffffffff168173ffffffffffffffffffffffffffffffffffffffff1603620000d35760006040517fd7f73334000000000000000000000000000000000000000000000000000000008152600401620000ca919062000789565b60405180910390fd5b8073ffffffffffffffffffffffffffffffffffffffff1660808173ffffffffffffffffffffffffffffffffffffffff168152505050620001286200011c6200021b60201b60201c565b6200022360201b60201c565b6200014d730b9d5d9136855f6fec3c0993fee6e9ce8a297846620002e960201b60201c565b6200017273022eea14a6010167ca026b32576d6686dd7e85d26200032d60201b60201c565b7f3764383061363338366566353433613361626235323831376636373037653362600881905550600a670de0b6b3a76400006001620001b29190620007d5565b620001be91906200084f565b600981905550620001d46200037160201b60201c565b600e60006101000a81548173ffffffffffffffffffffffffffffffffffffffff021916908373ffffffffffffffffffffffffffffffffffffffff1602179055505062000887565b600033905090565b6000600660009054906101000a900473ffffffffffffffffffffffffffffffffffffffff16905081600660006101000a81548173ffffffffffffffffffffffffffffffffffffffff021916908373ffffffffffffffffffffffffffffffffffffffff1602179055508173ffffffffffffffffffffffffffffffffffffffff168173ffffffffffffffffffffffffffffffffffffffff167f8be0079c531659141344cd1fd0a4f28419497f9722a3daafe3b4186f6b6457e060405160405180910390a35050565b80600260006101000a81548173ffffffffffffffffffffffffffffffffffffffff021916908373ffffffffffffffffffffffffffffffffffffffff16021790555050565b80600360006101000a81548173ffffffffffffffffffffffffffffffffffffffff021916908373ffffffffffffffffffffffffffffffffffffffff16021790555050565b6000608051905090565b600081519050919050565b7f4e487b7100000000000000000000000000000000000000000000000000000000600052604160045260246000fd5b7f4e487b7100000000000000000000000000000000000000000000000000000000600052602260045260246000fd5b60006002820490506001821680620003fd57607f821691505b602082108103620004135762000412620003b5565b5b50919050565b60008190508160005260206000209050919050565b60006020601f8301049050919050565b600082821b905092915050565b6000600883026200047d7fffffffffffffffffffffffffffffffffffffffffffffffffffffffffffffffff826200043e565b6200048986836200043e565b95508019841693508086168417925050509392505050565b6000819050919050565b6000819050919050565b6000620004d6620004d0620004ca84620004a1565b620004ab565b620004a1565b9050919050565b6000819050919050565b620004f283620004b5565b6200050a6200050182620004dd565b8484546200044b565b825550505050565b600090565b6200052162000512565b6200052e818484620004e7565b505050565b5b8181101562000556576200054a60008262000517565b60018101905062000534565b5050565b601f821115620005a5576200056f8162000419565b6200057a846200042e565b810160208510156200058a578190505b620005a262000599856200042e565b83018262000533565b50505b505050565b600082821c905092915050565b6000620005ca60001984600802620005aa565b1980831691505092915050565b6000620005e58383620005b7565b9150826002028217905092915050565b62000600826200037b565b67ffffffffffffffff8111156200061c576200061b62000386565b5b620006288254620003e4565b620006358282856200055a565b600060209050601f8311600181146200066d576000841562000658578287015190505b620006648582620005d7565b865550620006d4565b601f1984166200067d8662000419565b60005b82811015620006a75784890151825560018201915060208501945060208101905062000680565b86831015620006c75784890151620006c3601f891682620005b7565b8355505b6001600288020188555050505b505050505050565b600080fd5b600073ffffffffffffffffffffffffffffffffffffffff82169050919050565b60006200070e82620006e1565b9050919050565b620007208162000701565b81146200072c57600080fd5b50565b600081519050620007408162000715565b92915050565b6000602082840312156200075f576200075e620006dc565b5b60006200076f848285016200072f565b91505092915050565b620007838162000701565b82525050565b6000602082019050620007a0600083018462000778565b92915050565b7f4e487b7100000000000000000000000000000000000000000000000000000000600052601160045260246000fd5b6000620007e282620004a1565b9150620007ef83620004a1565b9250828202620007ff81620004a1565b91508282048414831517620008195762000818620007a6565b5b5092915050565b7f4e487b7100000000000000000000000000000000000000000000000000000000600052601260045260246000fd5b60006200085c82620004a1565b91506200086983620004a1565b9250826200087c576200087b62000820565b5b828204905092915050565b6080516146ad620008aa60003960008181610f4c015261122e01526146ad6000f3fe6080604052600436106100f35760003560e01c80638cd176d51161008a578063dd3fac7c11610059578063dd3fac7c146102c0578063dff0ee41146102e9578063ea21e5eb14610314578063f2fde38b1461033d576100f3565b80638cd176d51461022a5780638da5cb5b146102535780638dc654a21461027e578063b0f479a114610295576100f3565b8063715018a6116100c6578063715018a61461019657806375948bb0146101ad57806385572ffb146101d65780638b8ff358146101ff576100f3565b806301ffc9a7146100f85780632f5e44451461013557806337441996146101515780635821feae1461017a575b600080fd5b34801561010457600080fd5b5061011f600480360381019061011a919061242a565b610366565b60405161012c9190612472565b60405180910390f35b61014f600480360381019061014a9190612613565b610438565b005b34801561015d57600080fd5b5061017860048036038101906101739190612746565b6106b3565b005b610194600480360381019061018f9190612980565b610897565b005b3480156101a257600080fd5b506101ab610b59565b005b3480156101b957600080fd5b506101d460048036038101906101cf9190612aaf565b610b6d565b005b3480156101e257600080fd5b506101fd60048036038101906101f89190612b5e565b610f4a565b005b34801561020b57600080fd5b50610214610fef565b6040516102219190612bb6565b60405180910390f35b34801561023657600080fd5b50610251600480360381019061024c9190612c81565b610ff4565b005b34801561025f57600080fd5b506102686110f1565b6040516102759190612cd9565b60405180910390f35b34801561028a57600080fd5b5061029361111b565b005b3480156102a157600080fd5b506102aa61122a565b6040516102b79190612cd9565b60405180910390f35b3480156102cc57600080fd5b506102e760048036038101906102e29190612cf4565b611252565b005b3480156102f557600080fd5b506102fe6113a9565b60405161030b9190612bb6565b60405180910390f35b34801561032057600080fd5b5061033b60048036038101906103369190612d50565b6113ae565b005b34801561034957600080fd5b50610364600480360381019061035f9190612d99565b6113c9565b005b60007f85572ffb000000000000000000000000000000000000000000000000000000007bffffffffffffffffffffffffffffffffffffffffffffffffffffffff1916827bffffffffffffffffffffffffffffffffffffffffffffffffffffffff1916148061043157507f01ffc9a7000000000000000000000000000000000000000000000000000000007bffffffffffffffffffffffffffffffffffffffffffffffffffffffff1916827bffffffffffffffffffffffffffffffffffffffffffffffffffffffff1916145b9050919050565b60006040518060a0016040528061044d61144c565b60405160200161045d9190612cd9565b6040516020818303038152906040528152602001838152602001600067ffffffffffffffff811115610492576104916124e8565b5b6040519080825280602002602001820160405280156104cb57816020015b6104b861222d565b8152602001906001900390816104b05790505b508152602001600073ffffffffffffffffffffffffffffffffffffffff168152602001610511604051806040016040528062061a80815260200160001515815250611454565b81525090506000600e60009054906101000a900473ffffffffffffffffffffffffffffffffffffffff1673ffffffffffffffffffffffffffffffffffffffff166320487ded67ccf0a31a221f3c9b846040518363ffffffff1660e01b815260040161057d929190612fdb565b602060405180830381865afa15801561059a573d6000803e3d6000fd5b505050506040513d601f19601f820116820180604052508101906105be9190613020565b905080341015610603576040517f08c379a00000000000000000000000000000000000000000000000000000000081526004016105fa906130aa565b60405180910390fd5b600e60009054906101000a900473ffffffffffffffffffffffffffffffffffffffff1673ffffffffffffffffffffffffffffffffffffffff166396f4e9f98267ccf0a31a221f3c9b856040518463ffffffff1660e01b8152600401610669929190612fdb565b60206040518083038185885af1158015610687573d6000803e3d6000fd5b50505050506040513d601f19601f820116820180604052508101906106ac91906130df565b5050505050565b816005600082815260200190815260200160002060009054906101000a900473ffffffffffffffffffffffffffffffffffffffff1673ffffffffffffffffffffffffffffffffffffffff163373ffffffffffffffffffffffffffffffffffffffff1614610755576040517f08c379a000000000000000000000000000000000000000000000000000000000815260040161074c9061317e565b60405180910390fd5b6005600082815260200190815260200160002060006101000a81549073ffffffffffffffffffffffffffffffffffffffff0219169055807f7cc135e0cebb02c3480ae5d74d377283180a2601f8f644edf7987b009316c63a60405160405180910390a26000600d600085815260200190815260200160002090508060010160149054906101000a900460ff1615610821576040517f08c379a0000000000000000000000000000000000000000000000000000000008152600401610818906131ea565b60405180910390fd5b60018160010160146101000a81548160ff0219169083151502179055506108918160000160009054906101000a900473ffffffffffffffffffffffffffffffffffffffff168260010160009054906101000a900473ffffffffffffffffffffffffffffffffffffffff16856114d3565b50505050565b6000600b60008360800151815260200190815260200160002060030154036108f4576040517f08c379a00000000000000000000000000000000000000000000000000000000081526004016108eb90613256565b60405180910390fd5b600b600082608001518152602001908152602001600020600101543414610950576040517f08c379a0000000000000000000000000000000000000000000000000000000008152600401610947906132c2565b60405180910390fd5b6040518060c001604052808260000151815260200182606001518152602001826020015181526020018260800151815260200161098b61144c565b73ffffffffffffffffffffffffffffffffffffffff168152602001600567ffffffffffffffff8111156109c1576109c06124e8565b5b6040519080825280602002602001820160405280156109f457816020015b60608152602001906001900390816109df5790505b50815250600c6000836040015173ffffffffffffffffffffffffffffffffffffffff1673ffffffffffffffffffffffffffffffffffffffff1681526020019081526020016000206000820151816000019081610a5091906134f9565b506020820151816001019081610a6691906134f9565b506040820151816002019081610a7c91906134f9565b506060820151816003015560808201518160040160006101000a81548173ffffffffffffffffffffffffffffffffffffffff021916908373ffffffffffffffffffffffffffffffffffffffff16021790555060a0820151816005019080519060200190610aea92919061225d565b509050507fea35bbd4aeddb611341e5394e07bd5ac7513bd56730a40e7e3e3eb761e155c0581604001518260000151836020015184606001518560800151610b3061144c565b8760a001518860c00151604051610b4e989796959493929190613604565b60405180910390a150565b610b6161161c565b610b6b600061169a565b565b601482511115610bb2576040517f08c379a0000000000000000000000000000000000000000000000000000000008152600401610ba9906136f1565b60405180910390fd5b6000610bbc61144c565b9050600073ffffffffffffffffffffffffffffffffffffffff16600c60008373ffffffffffffffffffffffffffffffffffffffff1673ffffffffffffffffffffffffffffffffffffffff16815260200190815260200160002060040160009054906101000a900473ffffffffffffffffffffffffffffffffffffffff1673ffffffffffffffffffffffffffffffffffffffff1603610c8f576040517f08c379a0000000000000000000000000000000000000000000000000000000008152600401610c869061375d565b60405180910390fd5b6000610ca560085430633744199660e01b611760565b9050610da56040518060400160405280600381526020017f6765740000000000000000000000000000000000000000000000000000000000815250600773__StringJoiner__________________________635c8656e0886040518263ffffffff1660e01b8152600401610d1991906138e6565b600060405180830381865af4158015610d36573d6000803e3d6000fd5b505050506040513d6000823e3d601f19601f82011682018060405250810190610d5f919061398b565b86610d6987611791565b610d728b611791565b604051602001610d86959493929190613ab9565b604051602081830303815290604052836117be9092919063ffffffff16565b610e246040518060400160405280600481526020017f70617468000000000000000000000000000000000000000000000000000000008152506040518060400160405280600881526020017f646174612c757269000000000000000000000000000000000000000000000000815250836117be9092919063ffffffff16565b6000610e32826009546117f1565b905060405180606001604052808473ffffffffffffffffffffffffffffffffffffffff1681526020018773ffffffffffffffffffffffffffffffffffffffff16815260200160001515815250600d600083815260200190815260200160002060008201518160000160006101000a81548173ffffffffffffffffffffffffffffffffffffffff021916908373ffffffffffffffffffffffffffffffffffffffff16021790555060208201518160010160006101000a81548173ffffffffffffffffffffffffffffffffffffffff021916908373ffffffffffffffffffffffffffffffffffffffff16021790555060408201518160010160146101000a81548160ff021916908315150217905550905050505050505050565b7f000000000000000000000000000000000000000000000000000000000000000073ffffffffffffffffffffffffffffffffffffffff163373ffffffffffffffffffffffffffffffffffffffff1614610fda57336040517fd7f73334000000000000000000000000000000000000000000000000000000008152600401610fd19190612cd9565b60405180910390fd5b610fec81610fe790613d33565b611828565b50565b601481565b610ffc61161c565b600a600081548092919061100f90613d75565b919050555060405180608001604052808260000151815260200182602001518152602001826040015181526020018260600151815250600b6000600a548152602001908152602001600020600082015181600001908161106f91906134f9565b5060208201518160010155604082015181600201908161108f91906134f9565b50606082015181600301559050507f33c5bd102a4d38690a8d7d236985d20c88e66b73bca9de5ae6cc29376d2206fd600a5482600001518360200151846040015185606001516040516110e6959493929190613dbd565b60405180910390a150565b6000600660009054906101000a900473ffffffffffffffffffffffffffffffffffffffff16905090565b61112361161c565b600061112d61182b565b90508073ffffffffffffffffffffffffffffffffffffffff1663a9059cbb338373ffffffffffffffffffffffffffffffffffffffff166370a08231306040518263ffffffff1660e01b81526004016111859190612cd9565b602060405180830381865afa1580156111a2573d6000803e3d6000fd5b505050506040513d601f19601f820116820180604052508101906111c69190613020565b6040518363ffffffff1660e01b81526004016111e3929190613e1e565b6020604051808303816000875af1158015611202573d6000803e3d6000fd5b505050506040513d601f19601f820116820180604052508101906112269190613e73565b5050565b60007f0000000000000000000000000000000000000000000000000000000000000000905090565b600061125c61144c565b90506000600c60008473ffffffffffffffffffffffffffffffffffffffff1673ffffffffffffffffffffffffffffffffffffffff16815260200190815260200160002090508173ffffffffffffffffffffffffffffffffffffffff168160040160009054906101000a900473ffffffffffffffffffffffffffffffffffffffff1673ffffffffffffffffffffffffffffffffffffffff1614611333576040517f08c379a000000000000000000000000000000000000000000000000000000000815260040161132a90613eec565b60405180910390fd5b806005018490806001815401808255809150506001900390600052602060002001600090919091909150908161136991906134f9565b507fd7219b2d0e6067644335c8f4f82ee77c59a90a22e2916f1dce8683af8e8b07fa838560405161139b929190613f0c565b60405180910390a150505050565b600581565b6113b661161c565b80600790816113c591906134f9565b5050565b6113d161161c565b600073ffffffffffffffffffffffffffffffffffffffff168173ffffffffffffffffffffffffffffffffffffffff1603611440576040517f08c379a000000000000000000000000000000000000000000000000000000000815260040161143790613fae565b60405180910390fd5b6114498161169a565b50565b600033905090565b60606397a657c960e01b8260405160240161146f919061400c565b604051602081830303815290604052907bffffffffffffffffffffffffffffffffffffffffffffffffffffffff19166020820180517bffffffffffffffffffffffffffffffffffffffffffffffffffffffff83818316178352505050509050919050565b600073ffffffffffffffffffffffffffffffffffffffff16600c60008573ffffffffffffffffffffffffffffffffffffffff1673ffffffffffffffffffffffffffffffffffffffff16815260200190815260200160002060040160009054906101000a900473ffffffffffffffffffffffffffffffffffffffff1673ffffffffffffffffffffffffffffffffffffffff16036115a4576040517f08c379a000000000000000000000000000000000000000000000000000000000815260040161159b9061375d565b60405180910390fd5b60008390508073ffffffffffffffffffffffffffffffffffffffff16638f9c395684846040518363ffffffff1660e01b81526004016115e4929190613f0c565b600060405180830381600087803b1580156115fe57600080fd5b505af1158015611612573d6000803e3d6000fd5b5050505050505050565b61162461144c565b73ffffffffffffffffffffffffffffffffffffffff166116426110f1565b73ffffffffffffffffffffffffffffffffffffffff1614611698576040517f08c379a000000000000000000000000000000000000000000000000000000000815260040161168f90614073565b60405180910390fd5b565b6000600660009054906101000a900473ffffffffffffffffffffffffffffffffffffffff16905081600660006101000a81548173ffffffffffffffffffffffffffffffffffffffff021916908373ffffffffffffffffffffffffffffffffffffffff1602179055508173ffffffffffffffffffffffffffffffffffffffff168173ffffffffffffffffffffffffffffffffffffffff167f8be0079c531659141344cd1fd0a4f28419497f9722a3daafe3b4186f6b6457e060405160405180910390a35050565b6117686122b6565b6117706122b6565b61178785858584611855909392919063ffffffff16565b9150509392505050565b60606117b78273ffffffffffffffffffffffffffffffffffffffff16601460ff16611905565b9050919050565b6117d5828460800151611b4190919063ffffffff16565b6117ec818460800151611b4190919063ffffffff16565b505050565b6000611820600360009054906101000a900473ffffffffffffffffffffffffffffffffffffffff168484611b66565b905092915050565b50565b6000600260009054906101000a900473ffffffffffffffffffffffffffffffffffffffff16905090565b61185d6122b6565b61186d8560800151610100611c32565b508385600001818152505082856020019073ffffffffffffffffffffffffffffffffffffffff16908173ffffffffffffffffffffffffffffffffffffffff16815250508185604001907bffffffffffffffffffffffffffffffffffffffffffffffffffffffff191690817bffffffffffffffffffffffffffffffffffffffffffffffffffffffff191681525050849050949350505050565b6060600060028360026119189190614093565b61192291906140d5565b67ffffffffffffffff81111561193b5761193a6124e8565b5b6040519080825280601f01601f19166020018201604052801561196d5781602001600182028036833780820191505090505b5090507f3000000000000000000000000000000000000000000000000000000000000000816000815181106119a5576119a4614109565b5b60200101907effffffffffffffffffffffffffffffffffffffffffffffffffffffffffffff1916908160001a9053507f780000000000000000000000000000000000000000000000000000000000000081600181518110611a0957611a08614109565b5b60200101907effffffffffffffffffffffffffffffffffffffffffffffffffffffffffffff1916908160001a90535060006001846002611a499190614093565b611a5391906140d5565b90505b6001811115611af3577f3031323334353637383961626364656600000000000000000000000000000000600f861660108110611a9557611a94614109565b5b1a60f81b828281518110611aac57611aab614109565b5b60200101907effffffffffffffffffffffffffffffffffffffffffffffffffffffffffffff1916908160001a905350600485901c945080611aec90614138565b9050611a56565b5060008414611b37576040517f08c379a0000000000000000000000000000000000000000000000000000000008152600401611b2e906141ad565b60405180910390fd5b8091505092915050565b611b4e8260038351611c9c565b611b618183611e2190919063ffffffff16565b505050565b6000806004549050600181611b7b91906140d5565b6004819055506000634042994660e01b60008087600001513089604001518760018c6080015160000151604051602401611bbc989796959493929190614235565b604051602081830303815290604052907bffffffffffffffffffffffffffffffffffffffffffffffffffffffff19166020820180517bffffffffffffffffffffffffffffffffffffffffffffffffffffffff83818316178352505050509050611c2786838684611e43565b925050509392505050565b611c3a612323565b6000602083611c4991906142e9565b14611c7557602082611c5b91906142e9565b6020611c67919061431a565b82611c7291906140d5565b91505b81836020018181525050604051808452600081528281016020016040525082905092915050565b60178167ffffffffffffffff1611611cd357611ccd8160058460ff16901b60ff161784611fd890919063ffffffff16565b50611e1c565b60ff8167ffffffffffffffff1611611d2957611d02601860058460ff16901b1784611fd890919063ffffffff16565b50611d238167ffffffffffffffff16600185611ff89092919063ffffffff16565b50611e1b565b61ffff8167ffffffffffffffff1611611d8057611d59601960058460ff16901b1784611fd890919063ffffffff16565b50611d7a8167ffffffffffffffff16600285611ff89092919063ffffffff16565b50611e1a565b63ffffffff8167ffffffffffffffff1611611dd957611db2601a60058460ff16901b1784611fd890919063ffffffff16565b50611dd38167ffffffffffffffff16600485611ff89092919063ffffffff16565b50611e19565b611df6601b60058460ff16901b1784611fd890919063ffffffff16565b50611e178167ffffffffffffffff16600885611ff89092919063ffffffff16565b505b5b5b5b505050565b611e29612323565b611e3b8384600001515184855161201a565b905092915050565b60003084604051602001611e589291906143fd565b604051602081830303815290604052805190602001209050846005600083815260200190815260200160002060006101000a81548173ffffffffffffffffffffffffffffffffffffffff021916908373ffffffffffffffffffffffffffffffffffffffff160217905550807fb5e6e01e79f91267dc17b4e6314d5d4d03593d2ceee0fbb452b750bd70ea5af960405160405180910390a2600260009054906101000a900473ffffffffffffffffffffffffffffffffffffffff1673ffffffffffffffffffffffffffffffffffffffff16634000aea08685856040518463ffffffff1660e01b8152600401611f4e93929190614429565b6020604051808303816000875af1158015611f6d573d6000803e3d6000fd5b505050506040513d601f19601f82011682018060405250810190611f919190613e73565b611fd0576040517f08c379a0000000000000000000000000000000000000000000000000000000008152600401611fc7906144d9565b60405180910390fd5b949350505050565b611fe0612323565b611ff08384600001515184612109565b905092915050565b612000612323565b61201184856000015151858561215f565b90509392505050565b612022612323565b825182111561203057600080fd5b8460200151828561204191906140d5565b1115612076576120758560026120668860200151888761206191906140d5565b6121ed565b6120709190614093565b612209565b5b6000808651805187602083010193508088870111156120955787860182525b60208701925050505b602084106120dc57805182526020826120b791906140d5565b91506020816120c691906140d5565b90506020846120d5919061431a565b935061209e565b60006001856020036101000a03905080198251168184511681811785525050508692505050949350505050565b612111612323565b836020015183106121375761213684600286602001516121319190614093565b612209565b5b83518051602085830101848153818603612152576001820183525b5050508390509392505050565b612167612323565b8460200151848361217891906140d5565b11156121a05761219f856002868561219091906140d5565b61219a9190614093565b612209565b5b60006001836101006121b2919061462c565b6121bc919061431a565b905085518386820101858319825116178152815185880111156121df5784870182525b505085915050949350505050565b6000818311156121ff57829050612203565b8190505b92915050565b60008260000151905061221c8383611c32565b506122278382611e21565b50505050565b6040518060400160405280600073ffffffffffffffffffffffffffffffffffffffff168152602001600081525090565b8280548282559060005260206000209081019282156122a5579160200282015b828111156122a457825182908161229491906134f9565b509160200191906001019061227d565b5b5090506122b2919061233d565b5090565b6040518060a0016040528060008019168152602001600073ffffffffffffffffffffffffffffffffffffffff16815260200160007bffffffffffffffffffffffffffffffffffffffffffffffffffffffff191681526020016000815260200161231d612323565b81525090565b604051806040016040528060608152602001600081525090565b5b8082111561235d57600081816123549190612361565b5060010161233e565b5090565b50805461236d9061331c565b6000825580601f1061237f575061239e565b601f01602090049060005260206000209081019061239d91906123a1565b5b50565b5b808211156123ba5760008160009055506001016123a2565b5090565b6000604051905090565b600080fd5b600080fd5b60007fffffffff0000000000000000000000000000000000000000000000000000000082169050919050565b612407816123d2565b811461241257600080fd5b50565b600081359050612424816123fe565b92915050565b6000602082840312156124405761243f6123c8565b5b600061244e84828501612415565b91505092915050565b60008115159050919050565b61246c81612457565b82525050565b60006020820190506124876000830184612463565b92915050565b600067ffffffffffffffff82169050919050565b6124aa8161248d565b81146124b557600080fd5b50565b6000813590506124c7816124a1565b92915050565b600080fd5b600080fd5b6000601f19601f8301169050919050565b7f4e487b7100000000000000000000000000000000000000000000000000000000600052604160045260246000fd5b612520826124d7565b810181811067ffffffffffffffff8211171561253f5761253e6124e8565b5b80604052505050565b60006125526123be565b905061255e8282612517565b919050565b600067ffffffffffffffff82111561257e5761257d6124e8565b5b612587826124d7565b9050602081019050919050565b82818337600083830152505050565b60006125b66125b184612563565b612548565b9050828152602081018484840111156125d2576125d16124d2565b5b6125dd848285612594565b509392505050565b600082601f8301126125fa576125f96124cd565b5b813561260a8482602086016125a3565b91505092915050565b6000806040838503121561262a576126296123c8565b5b6000612638858286016124b8565b925050602083013567ffffffffffffffff811115612659576126586123cd565b5b612665858286016125e5565b9150509250929050565b6000819050919050565b6126828161266f565b811461268d57600080fd5b50565b60008135905061269f81612679565b92915050565b600067ffffffffffffffff8211156126c0576126bf6124e8565b5b6126c9826124d7565b9050602081019050919050565b60006126e96126e4846126a5565b612548565b905082815260208101848484011115612705576127046124d2565b5b612710848285612594565b509392505050565b600082601f83011261272d5761272c6124cd565b5b813561273d8482602086016126d6565b91505092915050565b6000806040838503121561275d5761275c6123c8565b5b600061276b85828601612690565b925050602083013567ffffffffffffffff81111561278c5761278b6123cd565b5b61279885828601612718565b9150509250929050565b600080fd5b600080fd5b600073ffffffffffffffffffffffffffffffffffffffff82169050919050565b60006127d7826127ac565b9050919050565b6127e7816127cc565b81146127f257600080fd5b50565b600081359050612804816127de565b92915050565b6000819050919050565b61281d8161280a565b811461282857600080fd5b50565b60008135905061283a81612814565b92915050565b600060e08284031215612856576128556127a2565b5b61286060e0612548565b9050600082013567ffffffffffffffff8111156128805761287f6127a7565b5b61288c84828501612718565b600083015250602082013567ffffffffffffffff8111156128b0576128af6127a7565b5b6128bc84828501612718565b60208301525060406128d0848285016127f5565b604083015250606082013567ffffffffffffffff8111156128f4576128f36127a7565b5b61290084828501612718565b60608301525060806129148482850161282b565b60808301525060a082013567ffffffffffffffff811115612938576129376127a7565b5b61294484828501612718565b60a08301525060c082013567ffffffffffffffff811115612968576129676127a7565b5b61297484828501612718565b60c08301525092915050565b600060208284031215612996576129956123c8565b5b600082013567ffffffffffffffff8111156129b4576129b36123cd565b5b6129c084828501612840565b91505092915050565b600067ffffffffffffffff8211156129e4576129e36124e8565b5b602082029050602081019050919050565b600080fd5b6000612a0d612a08846129c9565b612548565b90508083825260208201905060208402830185811115612a3057612a2f6129f5565b5b835b81811015612a7757803567ffffffffffffffff811115612a5557612a546124cd565b5b808601612a628982612718565b85526020850194505050602081019050612a32565b5050509392505050565b600082601f830112612a9657612a956124cd565b5b8135612aa68482602086016129fa565b91505092915050565b600080600060608486031215612ac857612ac76123c8565b5b6000612ad6868287016127f5565b935050602084013567ffffffffffffffff811115612af757612af66123cd565b5b612b0386828701612a81565b925050604084013567ffffffffffffffff811115612b2457612b236123cd565b5b612b3086828701612718565b9150509250925092565b600080fd5b600060a08284031215612b5557612b54612b3a565b5b81905092915050565b600060208284031215612b7457612b736123c8565b5b600082013567ffffffffffffffff811115612b9257612b916123cd565b5b612b9e84828501612b3f565b91505092915050565b612bb08161280a565b82525050565b6000602082019050612bcb6000830184612ba7565b92915050565b600060808284031215612be757612be66127a2565b5b612bf16080612548565b9050600082013567ffffffffffffffff811115612c1157612c106127a7565b5b612c1d84828501612718565b6000830152506020612c318482850161282b565b602083015250604082013567ffffffffffffffff811115612c5557612c546127a7565b5b612c6184828501612718565b6040830152506060612c758482850161282b565b60608301525092915050565b600060208284031215612c9757612c966123c8565b5b600082013567ffffffffffffffff811115612cb557612cb46123cd565b5b612cc184828501612bd1565b91505092915050565b612cd3816127cc565b82525050565b6000602082019050612cee6000830184612cca565b92915050565b60008060408385031215612d0b57612d0a6123c8565b5b600083013567ffffffffffffffff811115612d2957612d286123cd565b5b612d3585828601612718565b9250506020612d46858286016127f5565b9150509250929050565b600060208284031215612d6657612d656123c8565b5b600082013567ffffffffffffffff811115612d8457612d836123cd565b5b612d9084828501612718565b91505092915050565b600060208284031215612daf57612dae6123c8565b5b6000612dbd848285016127f5565b91505092915050565b612dcf8161248d565b82525050565b600081519050919050565b600082825260208201905092915050565b60005b83811015612e0f578082015181840152602081019050612df4565b60008484015250505050565b6000612e2682612dd5565b612e308185612de0565b9350612e40818560208601612df1565b612e49816124d7565b840191505092915050565b600081519050919050565b600082825260208201905092915050565b6000819050602082019050919050565b612e89816127cc565b82525050565b612e988161280a565b82525050565b604082016000820151612eb46000850182612e80565b506020820151612ec76020850182612e8f565b50505050565b6000612ed98383612e9e565b60408301905092915050565b6000602082019050919050565b6000612efd82612e54565b612f078185612e5f565b9350612f1283612e70565b8060005b83811015612f43578151612f2a8882612ecd565b9750612f3583612ee5565b925050600181019050612f16565b5085935050505092915050565b600060a0830160008301518482036000860152612f6d8282612e1b565b91505060208301518482036020860152612f878282612e1b565b91505060408301518482036040860152612fa18282612ef2565b9150506060830151612fb66060860182612e80565b5060808301518482036080860152612fce8282612e1b565b9150508091505092915050565b6000604082019050612ff06000830185612dc6565b81810360208301526130028184612f50565b90509392505050565b60008151905061301a81612814565b92915050565b600060208284031215613036576130356123c8565b5b60006130448482850161300b565b91505092915050565b600082825260208201905092915050565b7f496e73756666696369656e742066656500000000000000000000000000000000600082015250565b600061309460108361304d565b915061309f8261305e565b602082019050919050565b600060208201905081810360008301526130c381613087565b9050919050565b6000815190506130d981612679565b92915050565b6000602082840312156130f5576130f46123c8565b5b6000613103848285016130ca565b91505092915050565b7f536f75726365206d75737420626520746865206f7261636c65206f662074686560008201527f2072657175657374000000000000000000000000000000000000000000000000602082015250565b600061316860288361304d565b91506131738261310c565b604082019050919050565b600060208201905081810360008301526131978161315b565b9050919050565b7f416c72656164792066756c66696c6c6564000000000000000000000000000000600082015250565b60006131d460118361304d565b91506131df8261319e565b602082019050919050565b60006020820190508181036000830152613203816131c7565b9050919050565b7f496e76616c696420706c616e0000000000000000000000000000000000000000600082015250565b6000613240600c8361304d565b915061324b8261320a565b602082019050919050565b6000602082019050818103600083015261326f81613233565b9050919050565b7f496e73756666696369656e742066756e64730000000000000000000000000000600082015250565b60006132ac60128361304d565b91506132b782613276565b602082019050919050565b600060208201905081810360008301526132db8161329f565b9050919050565b600081519050919050565b7f4e487b7100000000000000000000000000000000000000000000000000000000600052602260045260246000fd5b6000600282049050600182168061333457607f821691505b602082108103613347576133466132ed565b5b50919050565b60008190508160005260206000209050919050565b60006020601f8301049050919050565b600082821b905092915050565b6000600883026133af7fffffffffffffffffffffffffffffffffffffffffffffffffffffffffffffffff82613372565b6133b98683613372565b95508019841693508086168417925050509392505050565b6000819050919050565b60006133f66133f16133ec8461280a565b6133d1565b61280a565b9050919050565b6000819050919050565b613410836133db565b61342461341c826133fd565b84845461337f565b825550505050565b600090565b61343961342c565b613444818484613407565b505050565b5b818110156134685761345d600082613431565b60018101905061344a565b5050565b601f8211156134ad5761347e8161334d565b61348784613362565b81016020851015613496578190505b6134aa6134a285613362565b830182613449565b50505b505050565b600082821c905092915050565b60006134d0600019846008026134b2565b1980831691505092915050565b60006134e983836134bf565b9150826002028217905092915050565b613502826132e2565b67ffffffffffffffff81111561351b5761351a6124e8565b5b613525825461331c565b61353082828561346c565b600060209050601f8311600181146135635760008415613551578287015190505b61355b85826134dd565b8655506135c3565b601f1984166135718661334d565b60005b8281101561359957848901518255600182019150602085019450602081019050613574565b868310156135b657848901516135b2601f8916826134bf565b8355505b6001600288020188555050505b505050505050565b60006135d6826132e2565b6135e0818561304d565b93506135f0818560208601612df1565b6135f9816124d7565b840191505092915050565b60006101008201905061361a600083018b612cca565b818103602083015261362c818a6135cb565b9050818103604083015261364081896135cb565b9050818103606083015261365481886135cb565b90506136636080830187612ba7565b61367060a0830186612cca565b81810360c083015261368281856135cb565b905081810360e083015261369681846135cb565b90509998505050505050505050565b7f546f6f206d616e79206174747269627574657300000000000000000000000000600082015250565b60006136db60138361304d565b91506136e6826136a5565b602082019050919050565b6000602082019050818103600083015261370a816136ce565b9050919050565b7f47616d65204e6f7420466f756e64000000000000000000000000000000000000600082015250565b6000613747600e8361304d565b915061375282613711565b602082019050919050565b600060208201905081810360008301526137768161373a565b9050919050565b600081519050919050565b600082825260208201905092915050565b6000819050602082019050919050565b600082825260208201905092915050565b60006137c5826132e2565b6137cf81856137a9565b93506137df818560208601612df1565b6137e8816124d7565b840191505092915050565b60006137ff83836137ba565b905092915050565b6000602082019050919050565b600061381f8261377d565b6138298185613788565b93508360208202850161383b85613799565b8060005b85811015613877578484038952815161385885826137f3565b945061386383613807565b925060208a0199505060018101905061383f565b50829750879550505050505092915050565b600082825260208201905092915050565b7f2c00000000000000000000000000000000000000000000000000000000000000600082015250565b60006138d0600183613889565b91506138db8261389a565b602082019050919050565b600060408201905081810360008301526139008184613814565b90508181036020830152613913816138c3565b905092915050565b600061392e613929846126a5565b612548565b90508281526020810184848401111561394a576139496124d2565b5b613955848285612df1565b509392505050565b600082601f830112613972576139716124cd565b5b815161398284826020860161391b565b91505092915050565b6000602082840312156139a1576139a06123c8565b5b600082015167ffffffffffffffff8111156139bf576139be6123cd565b5b6139cb8482850161395d565b91505092915050565b600081905092915050565b600081546139ec8161331c565b6139f681866139d4565b94506001821660008114613a115760018114613a2657613a59565b60ff1983168652811515820286019350613a59565b613a2f8561334d565b60005b83811015613a5157815481890152600182019150602081019050613a32565b838801955050505b50505092915050565b7f2f00000000000000000000000000000000000000000000000000000000000000815250565b6000613a93826132e2565b613a9d81856139d4565b9350613aad818560208601612df1565b80840191505092915050565b6000613ac582886139df565b9150613ad082613a62565b600182019150613ae08287613a88565b9150613aeb82613a62565b600182019150613afb8286613a88565b9150613b0682613a62565b600182019150613b168285613a88565b9150613b2182613a62565b600182019150613b318284613a88565b91508190509695505050505050565b600067ffffffffffffffff821115613b5b57613b5a6124e8565b5b602082029050602081019050919050565b600060408284031215613b8257613b816127a2565b5b613b8c6040612548565b90506000613b9c848285016127f5565b6000830152506020613bb08482850161282b565b60208301525092915050565b6000613bcf613bca84613b40565b612548565b90508083825260208201905060408402830185811115613bf257613bf16129f5565b5b835b81811015613c1b5780613c078882613b6c565b845260208401935050604081019050613bf4565b5050509392505050565b600082601f830112613c3a57613c396124cd565b5b8135613c4a848260208601613bbc565b91505092915050565b600060a08284031215613c6957613c686127a2565b5b613c7360a0612548565b90506000613c8384828501612690565b6000830152506020613c97848285016124b8565b602083015250604082013567ffffffffffffffff811115613cbb57613cba6127a7565b5b613cc7848285016125e5565b604083015250606082013567ffffffffffffffff811115613ceb57613cea6127a7565b5b613cf7848285016125e5565b606083015250608082013567ffffffffffffffff811115613d1b57613d1a6127a7565b5b613d2784828501613c25565b60808301525092915050565b6000613d3f3683613c53565b9050919050565b7f4e487b7100000000000000000000000000000000000000000000000000000000600052601160045260246000fd5b6000613d808261280a565b91507fffffffffffffffffffffffffffffffffffffffffffffffffffffffffffffffff8203613db257613db1613d46565b5b600182019050919050565b600060a082019050613dd26000830188612ba7565b8181036020830152613de481876135cb565b9050613df36040830186612ba7565b8181036060830152613e0581856135cb565b9050613e146080830184612ba7565b9695505050505050565b6000604082019050613e336000830185612cca565b613e406020830184612ba7565b9392505050565b613e5081612457565b8114613e5b57600080fd5b50565b600081519050613e6d81613e47565b92915050565b600060208284031215613e8957613e886123c8565b5b6000613e9784828501613e5e565b91505092915050565b7f556e417574686f72697a65640000000000000000000000000000000000000000600082015250565b6000613ed6600c8361304d565b9150613ee182613ea0565b602082019050919050565b60006020820190508181036000830152613f0581613ec9565b9050919050565b6000604082019050613f216000830185612cca565b8181036020830152613f3381846135cb565b90509392505050565b7f4f776e61626c653a206e6577206f776e657220697320746865207a65726f206160008201527f6464726573730000000000000000000000000000000000000000000000000000602082015250565b6000613f9860268361304d565b9150613fa382613f3c565b604082019050919050565b60006020820190508181036000830152613fc781613f8b565b9050919050565b613fd781612457565b82525050565b604082016000820151613ff36000850182612e8f565b5060208201516140066020850182613fce565b50505050565b60006040820190506140216000830184613fdd565b92915050565b7f4f776e61626c653a2063616c6c6572206973206e6f7420746865206f776e6572600082015250565b600061405d60208361304d565b915061406882614027565b602082019050919050565b6000602082019050818103600083015261408c81614050565b9050919050565b600061409e8261280a565b91506140a98361280a565b92508282026140b78161280a565b915082820484148315176140ce576140cd613d46565b5b5092915050565b60006140e08261280a565b91506140eb8361280a565b925082820190508082111561410357614102613d46565b5b92915050565b7f4e487b7100000000000000000000000000000000000000000000000000000000600052603260045260246000fd5b60006141438261280a565b91506000820361415657614155613d46565b5b600182039050919050565b7f537472696e67733a20686578206c656e67746820696e73756666696369656e74600082015250565b600061419760208361304d565b91506141a282614161565b602082019050919050565b600060208201905081810360008301526141c68161418a565b9050919050565b6141d68161266f565b82525050565b6141e5816123d2565b82525050565b600082825260208201905092915050565b600061420782612dd5565b61421181856141eb565b9350614221818560208601612df1565b61422a816124d7565b840191505092915050565b60006101008201905061424b600083018b612cca565b614258602083018a612ba7565b61426560408301896141cd565b6142726060830188612cca565b61427f60808301876141dc565b61428c60a0830186612ba7565b61429960c0830185612ba7565b81810360e08301526142ab81846141fc565b90509998505050505050505050565b7f4e487b7100000000000000000000000000000000000000000000000000000000600052601260045260246000fd5b60006142f48261280a565b91506142ff8361280a565b92508261430f5761430e6142ba565b5b828206905092915050565b60006143258261280a565b91506143308361280a565b925082820390508181111561434857614347613d46565b5b92915050565b600061436961436461435f846127ac565b6133d1565b6127ac565b9050919050565b600061437b8261434e565b9050919050565b600061438d82614370565b9050919050565b60008160601b9050919050565b60006143ac82614394565b9050919050565b60006143be826143a1565b9050919050565b6143d66143d182614382565b6143b3565b82525050565b6000819050919050565b6143f76143f28261280a565b6143dc565b82525050565b600061440982856143c5565b60148201915061441982846143e6565b6020820191508190509392505050565b600060608201905061443e6000830186612cca565b61444b6020830185612ba7565b818103604083015261445d81846141fc565b9050949350505050565b7f756e61626c6520746f207472616e73666572416e6443616c6c20746f206f726160008201527f636c650000000000000000000000000000000000000000000000000000000000602082015250565b60006144c360238361304d565b91506144ce82614467565b604082019050919050565b600060208201905081810360008301526144f2816144b6565b9050919050565b60008160011c9050919050565b6000808291508390505b60018511156145505780860481111561452c5761452b613d46565b5b600185161561453b5780820291505b8081029050614549856144f9565b9450614510565b94509492505050565b6000826145695760019050614625565b816145775760009050614625565b816001811461458d5760028114614597576145c6565b6001915050614625565b60ff8411156145a9576145a8613d46565b5b8360020a9150848211156145c0576145bf613d46565b5b50614625565b5060208310610133831016604e8410600b84101617156145fb5782820a9050838111156145f6576145f5613d46565b5b614625565b6146088484846001614506565b9250905081840481111561461f5761461e613d46565b5b81810290505b9392505050565b60006146378261280a565b91506146428361280a565b925061466f7fffffffffffffffffffffffffffffffffffffffffffffffffffffffffffffffff8484614559565b90509291505056fea2646970667358221220f0db97ba3a43a2ab132003ab096bfff544bcf8c30357283d79cd5ed923f3376964736f6c63430008110033",
  "immutableReferences": {
    "14": [
      {
        "length": 32,
        "start": 3916
      },
      {
        "length": 32,
        "start": 4654
      }
    ]
  },
  "source": "// SPDX-License-Identifier: MIT\r\npragma solidity ^0.8.17;\r\n\r\nimport {Assets} from \"./libraries/Assets.sol\";\r\nimport {Params} from \"./libraries/Params.sol\";\r\nimport {IKanvasAvax} from \"./interfaces/IKanvasAvax.sol\";\r\nimport {IKanvasGame} from \"./interfaces/IKanvasGame.sol\";\r\nimport {StringJoiner} from \"./libraries/StringJoiner.sol\";\r\n\r\nimport {Strings} from \"@openzeppelin/contracts/utils/Strings.sol\";\r\nimport {Ownable} from \"@openzeppelin/contracts/access/Ownable.sol\";\r\nimport {Context} from \"@openzeppelin/contracts/utils/Context.sol\";\r\n\r\nimport {CCIPReceiver} from \"@chainlink/contracts-ccip/src/v0.8/ccip/applications/CCIPReceiver.sol\";\r\nimport {IRouterClient} from \"@chainlink/contracts-ccip/src/v0.8/ccip/interfaces/IRouterClient.sol\";\r\nimport {Client} from \"@chainlink/contracts-ccip/src/v0.8/ccip/libraries/Client.sol\";\r\n\r\nimport \"@chainlink/contracts/src/v0.8/ChainlinkClient.sol\";\r\nimport \"@chainlink/contracts/src/v0.8/shared/access/ConfirmedOwner.sol\";\r\n\r\ncontract KanvasAvax is\r\n    IKanvasAvax,\r\n    Context,\r\n    CCIPReceiver,\r\n    ChainlinkClient,\r\n    Ownable\r\n{\r\n    uint64 private constant AVAX_SELECTOR = 14767482510784806043;\r\n    uint256 public constant MAX_PROPERTIES_LEN = 20;\r\n    uint256 public constant MAX_TEMPLATES_LEN = 5;\r\n    using Chainlink for Chainlink.Request;\r\n\r\n    string private BASE_URL = \"\";\r\n\r\n    bytes32 private jobId;\r\n    uint256 private fee;\r\n\r\n    uint256 private _planId;\r\n    mapping(uint256 => Assets.Plan) private _plans;\r\n\r\n    mapping(address => Assets.Game) private _games;\r\n\r\n    mapping(bytes32 => Assets.Request) private _requests;\r\n\r\n    IRouterClient private _router;\r\n\r\n    constructor(address receiver) CCIPReceiver(receiver) Ownable() {\r\n        setChainlinkToken(0x0b9d5D9136855f6FEc3c0993feE6E9CE8a297846);\r\n        setChainlinkOracle(0x022EEA14A6010167ca026B32576D6686dD7e85d2);\r\n        jobId = \"7d80a6386ef543a3abb52817f6707e3b\";\r\n        fee = (1 * LINK_DIVISIBILITY) / 10;\r\n\r\n        _router = IRouterClient(getRouter());\r\n    }\r\n\r\n    function createGame(Params.Game memory params) external payable {\r\n        require(_plans[params.plan].limit != 0, \"Invalid plan\");\r\n        require(msg.value == _plans[params.plan].cost, \"Insufficient funds\");\r\n\r\n        _games[params.gameId] = Assets.Game({\r\n            name: params.name,\r\n            description: params.description,\r\n            avatar: params.avatar,\r\n            plan: params.plan,\r\n            creator: _msgSender(),\r\n            templates: new string[](MAX_TEMPLATES_LEN)\r\n        });\r\n\r\n        emit GameCreated(\r\n            params.gameId,\r\n            params.name,\r\n            params.description,\r\n            params.avatar,\r\n            params.plan,\r\n            _msgSender(),\r\n            params.email,\r\n            params.website\r\n        );\r\n    }\r\n\r\n    function addTemplate(string memory params, address gameId) external {\r\n        address creator = _msgSender();\r\n\r\n        Assets.Game storage game = _games[gameId];\r\n\r\n        require(game.creator == creator, \"UnAuthorized\");\r\n\r\n        game.templates.push(params);\r\n\r\n        emit TemplateAdded(gameId, params);\r\n    }\r\n\r\n    function _generateUri(\r\n        address playerId,\r\n        string[] memory properties,\r\n        string memory fields\r\n    ) external {\r\n        require(properties.length <= MAX_PROPERTIES_LEN, \"Too many attributes\");\r\n\r\n        address gameId = _msgSender();\r\n        require(_games[gameId].creator != address(0), \"Game Not Found\");\r\n\r\n        Chainlink.Request memory req = buildChainlinkRequest(\r\n            jobId,\r\n            address(this),\r\n            this.fulfill.selector\r\n        );\r\n\r\n        // Set the URL to perform the GET request on\r\n        // https://server.com/generete/properties/fields/gameid/playerid\r\n        req.add(\r\n            \"get\",\r\n            string.concat(\r\n                BASE_URL,\r\n                \"/\",\r\n                StringJoiner.joinStrings(properties, \",\"),\r\n                \"/\",\r\n                fields,\r\n                \"/\",\r\n                Strings.toHexString(gameId),\r\n                \"/\",\r\n                Strings.toHexString(playerId)\r\n            )\r\n        );\r\n\r\n        // Chainlink nodes 1.0.0 and later support this format\r\n        req.add(\"path\", \"data,uri\");\r\n\r\n        // Sends the request\r\n        bytes32 requestId = sendChainlinkRequest(req, fee);\r\n\r\n        _requests[requestId] = Assets.Request({\r\n            gameId: gameId,\r\n            playerId: playerId,\r\n            fulfilled: false\r\n        });\r\n    }\r\n\r\n    function updateBaseUrl(string memory newBaseUrl) external onlyOwner {\r\n        BASE_URL = newBaseUrl;\r\n    }\r\n\r\n    /**\r\n     * Receive the response in the form of uint256\r\n     */\r\n    function fulfill(\r\n        bytes32 requestId,\r\n        string memory uri\r\n    ) public recordChainlinkFulfillment(requestId) {\r\n        Assets.Request storage request = _requests[requestId];\r\n        require(!request.fulfilled, \"Already fulfilled\");\r\n\r\n        request.fulfilled = true;\r\n\r\n        execute(request.gameId, request.playerId, uri);\r\n    }\r\n\r\n    /** Allow withdraw of Link tokens from the contract */\r\n    function withdrawLink() public onlyOwner {\r\n        LinkTokenInterface link = LinkTokenInterface(chainlinkTokenAddress());\r\n        link.transfer(msg.sender, link.balanceOf(address(this)));\r\n    }\r\n\r\n    function _transferTo(\r\n        uint64 chainSelector,\r\n        bytes memory data\r\n    ) external payable {\r\n        // Create an EVM2AnyMessage struct in memory with necessary information for sending a cross-chain message\r\n        Client.EVM2AnyMessage memory evm2AnyMessage = Client.EVM2AnyMessage({\r\n            // ABI-encoded receiver address\r\n            receiver: abi.encode(_msgSender()),\r\n            // ABI-encoded string message\r\n            data: data,\r\n            // Empty array indicating no tokens are being sent\r\n            tokenAmounts: new Client.EVMTokenAmount[](0),\r\n            // Additional arguments, setting gas limit and non-strict sequency mode\r\n            extraArgs: Client._argsToBytes(\r\n                Client.EVMExtraArgsV1({gasLimit: 400_000, strict: false})\r\n            ),\r\n            // Setting feeToken to zero address, indicating native asset will be used for fees\r\n            feeToken: address(0)\r\n        });\r\n\r\n        // Get the fee required to send the message\r\n        uint256 fees = _router.getFee(AVAX_SELECTOR, evm2AnyMessage);\r\n\r\n        require(msg.value >= fees, \"Insufficient fee\");\r\n\r\n        // Send the message through the router and store the returned message ID\r\n        _router.ccipSend{value: fees}(AVAX_SELECTOR, evm2AnyMessage);\r\n    }\r\n\r\n    // handle a received message\r\n    function _ccipReceive(\r\n        Client.Any2EVMMessage memory message\r\n    ) internal override {}\r\n\r\n    function execute(\r\n        address gameId,\r\n        address playerId,\r\n        string memory uri\r\n    ) internal {\r\n        require(_games[gameId].creator != address(0), \"Game Not Found\");\r\n\r\n        IKanvasGame game = IKanvasGame(gameId);\r\n        game._receiveUri(playerId, uri);\r\n    }\r\n\r\n    /** Create plans */\r\n    function createPlan(Params.Plan memory params) external onlyOwner {\r\n        _planId++;\r\n\r\n        _plans[_planId] = Assets.Plan({\r\n            name: params.name,\r\n            cost: params.cost,\r\n            color: params.color,\r\n            limit: params.limit\r\n        });\r\n\r\n        emit PlanCreated(\r\n            _planId,\r\n            params.name,\r\n            params.cost,\r\n            params.color,\r\n            params.limit\r\n        );\r\n    }\r\n}\r\n",
  "sourcePath": "C:\\Users\\DELL\\Documents\\kanvas\\blockchain\\contracts\\KanvasAvax.sol",
  "compiler": {
    "name": "solc",
    "version": "0.8.17+commit.8df45f5f.Emscripten.clang"
  },
  "schemaVersion": "3.4.11",
  "updatedAt": "2023-12-01T15:08:34.739Z",
  "devdoc": {
    "kind": "dev",
    "methods": {
      "ccipReceive((bytes32,uint64,bytes,bytes,(address,uint256)[]))": {
        "details": "Note ensure you check the msg.sender is the OffRampRouter",
        "params": {
          "message": "CCIP Message"
        }
      },
      "getRouter()": {
        "returns": {
          "_0": "i_router address"
        }
      },
      "owner()": {
        "details": "Returns the address of the current owner."
      },
      "renounceOwnership()": {
        "details": "Leaves the contract without owner. It will not be possible to call `onlyOwner` functions. Can only be called by the current owner. NOTE: Renouncing ownership will leave the contract without an owner, thereby disabling any functionality that is only available to the owner."
      },
      "supportsInterface(bytes4)": {
        "params": {
          "interfaceId": "The interfaceId to check"
        },
        "returns": {
          "_0": "true if the interfaceId is supported"
        }
      },
      "transferOwnership(address)": {
        "details": "Transfers ownership of the contract to a new account (`newOwner`). Can only be called by the current owner."
      }
    },
    "version": 1
  },
  "userdoc": {
    "kind": "user",
    "methods": {
      "ccipReceive((bytes32,uint64,bytes,bytes,(address,uint256)[]))": {
        "notice": "Called by the Router to deliver a message. If this reverts, any token transfers also revert. The message will move to a FAILED state and become available for manual execution."
      },
      "createPlan((string,uint256,string,uint256))": {
        "notice": "Create plans "
      },
      "fulfill(bytes32,string)": {
        "notice": "Receive the response in the form of uint256"
      },
      "getRouter()": {
        "notice": "Return the current router"
      },
      "supportsInterface(bytes4)": {
        "notice": "IERC165 supports an interfaceId"
      },
      "withdrawLink()": {
        "notice": "Allow withdraw of Link tokens from the contract "
      }
    },
    "version": 1
  }
}