{
  "contractName": "RockPaperScissorsInterop",
  "abi": [
    {
      "inputs": [
        {
          "internalType": "address",
          "name": "kanvasRouter",
          "type": "address"
        },
        {
          "internalType": "address",
          "name": "sourceGameId",
          "type": "address"
        }
      ],
      "stateMutability": "nonpayable",
      "type": "constructor"
    },
    {
      "anonymous": false,
      "inputs": [
        {
          "indexed": true,
          "internalType": "address",
          "name": "owner",
          "type": "address"
        },
        {
          "indexed": true,
          "internalType": "address",
          "name": "approved",
          "type": "address"
        },
        {
          "indexed": true,
          "internalType": "uint256",
          "name": "tokenId",
          "type": "uint256"
        }
      ],
      "name": "Approval",
      "type": "event"
    },
    {
      "anonymous": false,
      "inputs": [
        {
          "indexed": true,
          "internalType": "address",
          "name": "owner",
          "type": "address"
        },
        {
          "indexed": true,
          "internalType": "address",
          "name": "operator",
          "type": "address"
        },
        {
          "indexed": false,
          "internalType": "bool",
          "name": "approved",
          "type": "bool"
        }
      ],
      "name": "ApprovalForAll",
      "type": "event"
    },
    {
      "anonymous": false,
      "inputs": [
        {
          "indexed": true,
          "internalType": "address",
          "name": "from",
          "type": "address"
        },
        {
          "indexed": true,
          "internalType": "address",
          "name": "to",
          "type": "address"
        },
        {
          "indexed": true,
          "internalType": "uint256",
          "name": "tokenId",
          "type": "uint256"
        }
      ],
      "name": "Transfer",
      "type": "event"
    },
    {
      "inputs": [],
      "name": "MAX_PROPERTIES_LEN",
      "outputs": [
        {
          "internalType": "uint256",
          "name": "",
          "type": "uint256"
        }
      ],
      "stateMutability": "view",
      "type": "function"
    },
    {
      "inputs": [
        {
          "internalType": "address",
          "name": "to",
          "type": "address"
        },
        {
          "internalType": "uint256",
          "name": "tokenId",
          "type": "uint256"
        }
      ],
      "name": "approve",
      "outputs": [],
      "stateMutability": "nonpayable",
      "type": "function"
    },
    {
      "inputs": [
        {
          "internalType": "address",
          "name": "owner",
          "type": "address"
        }
      ],
      "name": "balanceOf",
      "outputs": [
        {
          "internalType": "uint256",
          "name": "",
          "type": "uint256"
        }
      ],
      "stateMutability": "view",
      "type": "function"
    },
    {
      "inputs": [
        {
          "internalType": "uint256",
          "name": "tokenId",
          "type": "uint256"
        }
      ],
      "name": "getApproved",
      "outputs": [
        {
          "internalType": "address",
          "name": "",
          "type": "address"
        }
      ],
      "stateMutability": "view",
      "type": "function"
    },
    {
      "inputs": [
        {
          "internalType": "address",
          "name": "owner",
          "type": "address"
        },
        {
          "internalType": "address",
          "name": "operator",
          "type": "address"
        }
      ],
      "name": "isApprovedForAll",
      "outputs": [
        {
          "internalType": "bool",
          "name": "",
          "type": "bool"
        }
      ],
      "stateMutability": "view",
      "type": "function"
    },
    {
      "inputs": [],
      "name": "name",
      "outputs": [
        {
          "internalType": "string",
          "name": "",
          "type": "string"
        }
      ],
      "stateMutability": "view",
      "type": "function"
    },
    {
      "inputs": [
        {
          "internalType": "uint256",
          "name": "tokenId",
          "type": "uint256"
        }
      ],
      "name": "ownerOf",
      "outputs": [
        {
          "internalType": "address",
          "name": "",
          "type": "address"
        }
      ],
      "stateMutability": "view",
      "type": "function"
    },
    {
      "inputs": [
        {
          "internalType": "address",
          "name": "from",
          "type": "address"
        },
        {
          "internalType": "address",
          "name": "to",
          "type": "address"
        },
        {
          "internalType": "uint256",
          "name": "tokenId",
          "type": "uint256"
        }
      ],
      "name": "safeTransferFrom",
      "outputs": [],
      "stateMutability": "nonpayable",
      "type": "function"
    },
    {
      "inputs": [
        {
          "internalType": "address",
          "name": "from",
          "type": "address"
        },
        {
          "internalType": "address",
          "name": "to",
          "type": "address"
        },
        {
          "internalType": "uint256",
          "name": "tokenId",
          "type": "uint256"
        },
        {
          "internalType": "bytes",
          "name": "data",
          "type": "bytes"
        }
      ],
      "name": "safeTransferFrom",
      "outputs": [],
      "stateMutability": "nonpayable",
      "type": "function"
    },
    {
      "inputs": [
        {
          "internalType": "address",
          "name": "operator",
          "type": "address"
        },
        {
          "internalType": "bool",
          "name": "approved",
          "type": "bool"
        }
      ],
      "name": "setApprovalForAll",
      "outputs": [],
      "stateMutability": "nonpayable",
      "type": "function"
    },
    {
      "inputs": [
        {
          "internalType": "bytes4",
          "name": "interfaceId",
          "type": "bytes4"
        }
      ],
      "name": "supportsInterface",
      "outputs": [
        {
          "internalType": "bool",
          "name": "",
          "type": "bool"
        }
      ],
      "stateMutability": "view",
      "type": "function"
    },
    {
      "inputs": [],
      "name": "symbol",
      "outputs": [
        {
          "internalType": "string",
          "name": "",
          "type": "string"
        }
      ],
      "stateMutability": "view",
      "type": "function"
    },
    {
      "inputs": [
        {
          "internalType": "uint256",
          "name": "tokenId",
          "type": "uint256"
        }
      ],
      "name": "tokenURI",
      "outputs": [
        {
          "internalType": "string",
          "name": "",
          "type": "string"
        }
      ],
      "stateMutability": "view",
      "type": "function"
    },
    {
      "inputs": [
        {
          "internalType": "address",
          "name": "from",
          "type": "address"
        },
        {
          "internalType": "address",
          "name": "to",
          "type": "address"
        },
        {
          "internalType": "uint256",
          "name": "tokenId",
          "type": "uint256"
        }
      ],
      "name": "transferFrom",
      "outputs": [],
      "stateMutability": "nonpayable",
      "type": "function"
    },
    {
      "inputs": [
        {
          "internalType": "address",
          "name": "playerId",
          "type": "address"
        }
      ],
      "name": "upgradePlayer",
      "outputs": [],
      "stateMutability": "nonpayable",
      "type": "function"
    },
    {
      "inputs": [
        {
          "internalType": "address",
          "name": "playerId",
          "type": "address"
        }
      ],
      "name": "downgradePlayer",
      "outputs": [],
      "stateMutability": "nonpayable",
      "type": "function"
    },
    {
      "inputs": [
        {
          "internalType": "uint64",
          "name": "chainSelector",
          "type": "uint64"
        }
      ],
      "name": "transferTo",
      "outputs": [],
      "stateMutability": "payable",
      "type": "function"
    },
    {
      "inputs": [
        {
          "internalType": "uint64",
          "name": "",
          "type": "uint64"
        },
        {
          "internalType": "address",
          "name": "",
          "type": "address"
        },
        {
          "internalType": "address",
          "name": "playerId",
          "type": "address"
        },
        {
          "internalType": "uint256",
          "name": "tokenId",
          "type": "uint256"
        },
        {
          "internalType": "string",
          "name": "uri",
          "type": "string"
        },
        {
          "internalType": "bytes",
          "name": "data",
          "type": "bytes"
        }
      ],
      "name": "_receiveFrom",
      "outputs": [],
      "stateMutability": "nonpayable",
      "type": "function"
    }
  ],
  "bytecode": "0x60806040523480156200001157600080fd5b50604051620040d6380380620040d683398181016040528101906200003791906200023b565b6040518060400160405280601181526020017f526f636b506170657253636973736f72730000000000000000000000000000008152506040518060400160405280600381526020017f52505300000000000000000000000000000000000000000000000000000000008152508160009081620000b49190620004fc565b508060019081620000c69190620004fc565b50505081600960006101000a81548173ffffffffffffffffffffffffffffffffffffffff021916908373ffffffffffffffffffffffffffffffffffffffff160217905550600960009054906101000a900473ffffffffffffffffffffffffffffffffffffffff1673ffffffffffffffffffffffffffffffffffffffff1663afd21cfe67ccf0a31a221f3c9b60405180602001604052808573ffffffffffffffffffffffffffffffffffffffff168152506040518363ffffffff1660e01b81526004016200019592919062000637565b600060405180830381600087803b158015620001b057600080fd5b505af1158015620001c5573d6000803e3d6000fd5b50505050505062000664565b600080fd5b600073ffffffffffffffffffffffffffffffffffffffff82169050919050565b60006200020382620001d6565b9050919050565b6200021581620001f6565b81146200022157600080fd5b50565b60008151905062000235816200020a565b92915050565b60008060408385031215620002555762000254620001d1565b5b6000620002658582860162000224565b9250506020620002788582860162000224565b9150509250929050565b600081519050919050565b7f4e487b7100000000000000000000000000000000000000000000000000000000600052604160045260246000fd5b7f4e487b7100000000000000000000000000000000000000000000000000000000600052602260045260246000fd5b600060028204905060018216806200030457607f821691505b6020821081036200031a5762000319620002bc565b5b50919050565b60008190508160005260206000209050919050565b60006020601f8301049050919050565b600082821b905092915050565b600060088302620003847fffffffffffffffffffffffffffffffffffffffffffffffffffffffffffffffff8262000345565b62000390868362000345565b95508019841693508086168417925050509392505050565b6000819050919050565b6000819050919050565b6000620003dd620003d7620003d184620003a8565b620003b2565b620003a8565b9050919050565b6000819050919050565b620003f983620003bc565b620004116200040882620003e4565b84845462000352565b825550505050565b600090565b6200042862000419565b62000435818484620003ee565b505050565b5b818110156200045d57620004516000826200041e565b6001810190506200043b565b5050565b601f821115620004ac57620004768162000320565b620004818462000335565b8101602085101562000491578190505b620004a9620004a08562000335565b8301826200043a565b50505b505050565b600082821c905092915050565b6000620004d160001984600802620004b1565b1980831691505092915050565b6000620004ec8383620004be565b9150826002028217905092915050565b620005078262000282565b67ffffffffffffffff8111156200052357620005226200028d565b5b6200052f8254620002eb565b6200053c82828562000461565b600060209050601f8311600181146200057457600084156200055f578287015190505b6200056b8582620004de565b865550620005db565b601f198416620005848662000320565b60005b82811015620005ae5784890151825560018201915060208501945060208101905062000587565b86831015620005ce5784890151620005ca601f891682620004be565b8355505b6001600288020188555050505b505050505050565b600067ffffffffffffffff82169050919050565b6200060281620005e3565b82525050565b6200061381620001f6565b82525050565b60208201600082015162000631600085018262000608565b50505050565b60006040820190506200064e6000830185620005f7565b6200065d602083018462000619565b9392505050565b613a6280620006746000396000f3fe6080604052600436106101095760003560e01c806370a0823111610095578063a22cb46511610064578063a22cb46514610379578063af3ef62e146103a2578063b88d4fde146103be578063c87b56dd146103e7578063e985e9c51461042457610109565b806370a08231146102bd5780638b8ff358146102fa57806395d89b4114610325578063a06422a71461035057610109565b806323b872dd116100dc57806323b872dd146101dc57806340f873921461020557806342842e0e1461022e5780636352211e146102575780636d4195fb1461029457610109565b806301ffc9a71461010e57806306fdde031461014b578063081812fc14610176578063095ea7b3146101b3575b600080fd5b34801561011a57600080fd5b5061013560048036038101906101309190612465565b610461565b60405161014291906124ad565b60405180910390f35b34801561015757600080fd5b50610160610543565b60405161016d9190612558565b60405180910390f35b34801561018257600080fd5b5061019d600480360381019061019891906125b0565b6105d5565b6040516101aa919061261e565b60405180910390f35b3480156101bf57600080fd5b506101da60048036038101906101d59190612665565b61061b565b005b3480156101e857600080fd5b5061020360048036038101906101fe91906126a5565b610732565b005b34801561021157600080fd5b5061022c600480360381019061022791906126f8565b610792565b005b34801561023a57600080fd5b50610255600480360381019061025091906126a5565b610a86565b005b34801561026357600080fd5b5061027e600480360381019061027991906125b0565b610aa6565b60405161028b919061261e565b60405180910390f35b3480156102a057600080fd5b506102bb60048036038101906102b6919061293b565b610b2c565b005b3480156102c957600080fd5b506102e460048036038101906102df91906126f8565b610c57565b6040516102f19190612a0f565b60405180910390f35b34801561030657600080fd5b5061030f610d0e565b60405161031c9190612a0f565b60405180910390f35b34801561033157600080fd5b5061033a610d13565b6040516103479190612558565b60405180910390f35b34801561035c57600080fd5b50610377600480360381019061037291906126f8565b610da5565b005b34801561038557600080fd5b506103a0600480360381019061039b9190612a56565b611051565b005b6103bc60048036038101906103b79190612a96565b611067565b005b3480156103ca57600080fd5b506103e560048036038101906103e09190612ac3565b61139b565b005b3480156103f357600080fd5b5061040e600480360381019061040991906125b0565b6113fd565b60405161041b9190612558565b60405180910390f35b34801561043057600080fd5b5061044b60048036038101906104469190612b46565b611465565b60405161045891906124ad565b60405180910390f35b60007f80ac58cd000000000000000000000000000000000000000000000000000000007bffffffffffffffffffffffffffffffffffffffffffffffffffffffff1916827bffffffffffffffffffffffffffffffffffffffffffffffffffffffff1916148061052c57507f5b5e139f000000000000000000000000000000000000000000000000000000007bffffffffffffffffffffffffffffffffffffffffffffffffffffffff1916827bffffffffffffffffffffffffffffffffffffffffffffffffffffffff1916145b8061053c575061053b826114f9565b5b9050919050565b60606000805461055290612bb5565b80601f016020809104026020016040519081016040528092919081815260200182805461057e90612bb5565b80156105cb5780601f106105a0576101008083540402835291602001916105cb565b820191906000526020600020905b8154815290600101906020018083116105ae57829003601f168201915b5050505050905090565b60006105e082611563565b6004600083815260200190815260200160002060009054906101000a900473ffffffffffffffffffffffffffffffffffffffff169050919050565b600061062682610aa6565b90508073ffffffffffffffffffffffffffffffffffffffff168373ffffffffffffffffffffffffffffffffffffffff1603610696576040517f08c379a000000000000000000000000000000000000000000000000000000000815260040161068d90612c58565b60405180910390fd5b8073ffffffffffffffffffffffffffffffffffffffff166106b56115ae565b73ffffffffffffffffffffffffffffffffffffffff1614806106e457506106e3816106de6115ae565b611465565b5b610723576040517f08c379a000000000000000000000000000000000000000000000000000000000815260040161071a90612cea565b60405180910390fd5b61072d83836115b6565b505050565b61074361073d6115ae565b8261166f565b610782576040517f08c379a000000000000000000000000000000000000000000000000000000000815260040161077990612d7c565b60405180910390fd5b61078d838383611704565b505050565b6000600a60008373ffffffffffffffffffffffffffffffffffffffff1673ffffffffffffffffffffffffffffffffffffffff16815260200190815260200160002090508060020160009054906101000a900460ff16610826576040517f08c379a000000000000000000000000000000000000000000000000000000000815260040161081d90612de8565b60405180910390fd5b60058160010154101561086e576040517f08c379a000000000000000000000000000000000000000000000000000000000815260040161086590612e54565b60405180910390fd5b6005816001015461087f9190612ea3565b81600101819055506000601467ffffffffffffffff8111156108a4576108a361276f565b5b6040519080825280602002602001820160405280156108d757816020015b60608152602001906001900390816108c25790505b5090508160000180546108e990612bb5565b80601f016020809104026020016040519081016040528092919081815260200182805461091590612bb5565b80156109625780601f1061093757610100808354040283529160200191610962565b820191906000526020600020905b81548152906001019060200180831161094557829003601f168201915b50505050508160008151811061097b5761097a612ed7565b5b602002602001018190525061099382600101546119fd565b816001815181106109a7576109a6612ed7565b5b602002602001018190525060006040518060400160405280601d81526020017f24706c617965725f6e616d65242024706c617965725f706f696e7473240000008152509050600960009054906101000a900473ffffffffffffffffffffffffffffffffffffffff1673ffffffffffffffffffffffffffffffffffffffff1663eee6e57385848460016040518563ffffffff1660e01b8152600401610a4e949392919061302e565b600060405180830381600087803b158015610a6857600080fd5b505af1158015610a7c573d6000803e3d6000fd5b5050505050505050565b610aa18383836040518060200160405280600081525061139b565b505050565b600080610ab283611acb565b9050600073ffffffffffffffffffffffffffffffffffffffff168173ffffffffffffffffffffffffffffffffffffffff1603610b23576040517f08c379a0000000000000000000000000000000000000000000000000000000008152600401610b1a906130cd565b60405180910390fd5b80915050919050565b60008082806020019051810190610b439190613172565b91509150610b518686611b08565b83600760008781526020019081526020016000209081610b71919061337a565b5081600a60008873ffffffffffffffffffffffffffffffffffffffff1673ffffffffffffffffffffffffffffffffffffffff1681526020019081526020016000206000019081610bc1919061337a565b5080600a60008873ffffffffffffffffffffffffffffffffffffffff1673ffffffffffffffffffffffffffffffffffffffff1681526020019081526020016000206001018190555084600860008873ffffffffffffffffffffffffffffffffffffffff1673ffffffffffffffffffffffffffffffffffffffff168152602001908152602001600020819055505050505050505050565b60008073ffffffffffffffffffffffffffffffffffffffff168273ffffffffffffffffffffffffffffffffffffffff1603610cc7576040517f08c379a0000000000000000000000000000000000000000000000000000000008152600401610cbe906134be565b60405180910390fd5b600360008373ffffffffffffffffffffffffffffffffffffffff1673ffffffffffffffffffffffffffffffffffffffff168152602001908152602001600020549050919050565b601481565b606060018054610d2290612bb5565b80601f0160208091040260200160405190810160405280929190818152602001828054610d4e90612bb5565b8015610d9b5780601f10610d7057610100808354040283529160200191610d9b565b820191906000526020600020905b815481529060010190602001808311610d7e57829003601f168201915b5050505050905090565b6000600a60008373ffffffffffffffffffffffffffffffffffffffff1673ffffffffffffffffffffffffffffffffffffffff16815260200190815260200160002090508060020160009054906101000a900460ff16610e39576040517f08c379a0000000000000000000000000000000000000000000000000000000008152600401610e3090612de8565b60405180910390fd5b60058160010154610e4a91906134de565b81600101819055506000601467ffffffffffffffff811115610e6f57610e6e61276f565b5b604051908082528060200260200182016040528015610ea257816020015b6060815260200190600190039081610e8d5790505b509050816000018054610eb490612bb5565b80601f0160208091040260200160405190810160405280929190818152602001828054610ee090612bb5565b8015610f2d5780601f10610f0257610100808354040283529160200191610f2d565b820191906000526020600020905b815481529060010190602001808311610f1057829003601f168201915b505050505081600081518110610f4657610f45612ed7565b5b6020026020010181905250610f5e82600101546119fd565b81600181518110610f7257610f71612ed7565b5b602002602001018190525060006040518060400160405280601d81526020017f24706c617965725f6e616d65242024706c617965725f706f696e7473240000008152509050600960009054906101000a900473ffffffffffffffffffffffffffffffffffffffff1673ffffffffffffffffffffffffffffffffffffffff1663eee6e57385848460006040518563ffffffff1660e01b8152600401611019949392919061302e565b600060405180830381600087803b15801561103357600080fd5b505af1158015611047573d6000803e3d6000fd5b5050505050505050565b61106361105c6115ae565b8383611d25565b5050565b60006110716115ae565b90506000600860008373ffffffffffffffffffffffffffffffffffffffff1673ffffffffffffffffffffffffffffffffffffffff1681526020019081526020016000205490506110c081611e91565b6007600082815260200190815260200160002060006110df919061239c565b600860008373ffffffffffffffffffffffffffffffffffffffff1673ffffffffffffffffffffffffffffffffffffffff168152602001908152602001600020600090556000309050600060076000848152602001908152602001600020805461114790612bb5565b80601f016020809104026020016040519081016040528092919081815260200182805461117390612bb5565b80156111c05780601f10611195576101008083540402835291602001916111c0565b820191906000526020600020905b8154815290600101906020018083116111a357829003601f168201915b505050505090506000600a60008673ffffffffffffffffffffffffffffffffffffffff1673ffffffffffffffffffffffffffffffffffffffff16815260200190815260200160002060405180606001604052908160008201805461122390612bb5565b80601f016020809104026020016040519081016040528092919081815260200182805461124f90612bb5565b801561129c5780601f106112715761010080835404028352916020019161129c565b820191906000526020600020905b81548152906001019060200180831161127f57829003601f168201915b50505050508152602001600182015481526020016002820160009054906101000a900460ff16151515158152505090506000816000015182602001516040516020016112e9929190613512565b6040516020818303038152906040529050600960009054906101000a900473ffffffffffffffffffffffffffffffffffffffff1673ffffffffffffffffffffffffffffffffffffffff16638d6dc0eb3489878a8a89886040518863ffffffff1660e01b8152600401611360969594939291906135a6565b6000604051808303818588803b15801561137957600080fd5b505af115801561138d573d6000803e3d6000fd5b505050505050505050505050565b6113ac6113a66115ae565b8361166f565b6113eb576040517f08c379a00000000000000000000000000000000000000000000000000000000081526004016113e290612d7c565b60405180910390fd5b6113f784848484611fdf565b50505050565b606061140882611563565b600061141261203b565b90506000815111611432576040518060200160405280600081525061145d565b8061143c846119fd565b60405160200161144d929190613651565b6040516020818303038152906040525b915050919050565b6000600560008473ffffffffffffffffffffffffffffffffffffffff1673ffffffffffffffffffffffffffffffffffffffff16815260200190815260200160002060008373ffffffffffffffffffffffffffffffffffffffff1673ffffffffffffffffffffffffffffffffffffffff16815260200190815260200160002060009054906101000a900460ff16905092915050565b60007f01ffc9a7000000000000000000000000000000000000000000000000000000007bffffffffffffffffffffffffffffffffffffffffffffffffffffffff1916827bffffffffffffffffffffffffffffffffffffffffffffffffffffffff1916149050919050565b61156c81612052565b6115ab576040517f08c379a00000000000000000000000000000000000000000000000000000000081526004016115a2906130cd565b60405180910390fd5b50565b600033905090565b816004600083815260200190815260200160002060006101000a81548173ffffffffffffffffffffffffffffffffffffffff021916908373ffffffffffffffffffffffffffffffffffffffff160217905550808273ffffffffffffffffffffffffffffffffffffffff1661162983610aa6565b73ffffffffffffffffffffffffffffffffffffffff167f8c5be1e5ebec7d5bd14f71427d1e84f3dd0314c0f7b2291e5b200ac8c7c3b92560405160405180910390a45050565b60008061167b83610aa6565b90508073ffffffffffffffffffffffffffffffffffffffff168473ffffffffffffffffffffffffffffffffffffffff1614806116bd57506116bc8185611465565b5b806116fb57508373ffffffffffffffffffffffffffffffffffffffff166116e3846105d5565b73ffffffffffffffffffffffffffffffffffffffff16145b91505092915050565b8273ffffffffffffffffffffffffffffffffffffffff1661172482610aa6565b73ffffffffffffffffffffffffffffffffffffffff161461177a576040517f08c379a0000000000000000000000000000000000000000000000000000000008152600401611771906136e7565b60405180910390fd5b600073ffffffffffffffffffffffffffffffffffffffff168273ffffffffffffffffffffffffffffffffffffffff16036117e9576040517f08c379a00000000000000000000000000000000000000000000000000000000081526004016117e090613779565b60405180910390fd5b6117f68383836001612093565b8273ffffffffffffffffffffffffffffffffffffffff1661181682610aa6565b73ffffffffffffffffffffffffffffffffffffffff161461186c576040517f08c379a0000000000000000000000000000000000000000000000000000000008152600401611863906136e7565b60405180910390fd5b6004600082815260200190815260200160002060006101000a81549073ffffffffffffffffffffffffffffffffffffffff02191690556001600360008573ffffffffffffffffffffffffffffffffffffffff1673ffffffffffffffffffffffffffffffffffffffff168152602001908152602001600020600082825403925050819055506001600360008473ffffffffffffffffffffffffffffffffffffffff1673ffffffffffffffffffffffffffffffffffffffff16815260200190815260200160002060008282540192505081905550816002600083815260200190815260200160002060006101000a81548173ffffffffffffffffffffffffffffffffffffffff021916908373ffffffffffffffffffffffffffffffffffffffff160217905550808273ffffffffffffffffffffffffffffffffffffffff168473ffffffffffffffffffffffffffffffffffffffff167fddf252ad1be2c89b69c2b068fc378daa952ba7f163c4a11628f55a4df523b3ef60405160405180910390a46119f88383836001612099565b505050565b606060006001611a0c8461209f565b01905060008167ffffffffffffffff811115611a2b57611a2a61276f565b5b6040519080825280601f01601f191660200182016040528015611a5d5781602001600182028036833780820191505090505b509050600082602001820190505b600115611ac0578080600190039150507f3031323334353637383961626364656600000000000000000000000000000000600a86061a8153600a8581611ab457611ab3613799565b5b04945060008503611a6b575b819350505050919050565b60006002600083815260200190815260200160002060009054906101000a900473ffffffffffffffffffffffffffffffffffffffff169050919050565b600073ffffffffffffffffffffffffffffffffffffffff168273ffffffffffffffffffffffffffffffffffffffff1603611b77576040517f08c379a0000000000000000000000000000000000000000000000000000000008152600401611b6e90613814565b60405180910390fd5b611b8081612052565b15611bc0576040517f08c379a0000000000000000000000000000000000000000000000000000000008152600401611bb790613880565b60405180910390fd5b611bce600083836001612093565b611bd781612052565b15611c17576040517f08c379a0000000000000000000000000000000000000000000000000000000008152600401611c0e90613880565b60405180910390fd5b6001600360008473ffffffffffffffffffffffffffffffffffffffff1673ffffffffffffffffffffffffffffffffffffffff16815260200190815260200160002060008282540192505081905550816002600083815260200190815260200160002060006101000a81548173ffffffffffffffffffffffffffffffffffffffff021916908373ffffffffffffffffffffffffffffffffffffffff160217905550808273ffffffffffffffffffffffffffffffffffffffff16600073ffffffffffffffffffffffffffffffffffffffff167fddf252ad1be2c89b69c2b068fc378daa952ba7f163c4a11628f55a4df523b3ef60405160405180910390a4611d21600083836001612099565b5050565b8173ffffffffffffffffffffffffffffffffffffffff168373ffffffffffffffffffffffffffffffffffffffff1603611d93576040517f08c379a0000000000000000000000000000000000000000000000000000000008152600401611d8a906138ec565b60405180910390fd5b80600560008573ffffffffffffffffffffffffffffffffffffffff1673ffffffffffffffffffffffffffffffffffffffff16815260200190815260200160002060008473ffffffffffffffffffffffffffffffffffffffff1673ffffffffffffffffffffffffffffffffffffffff16815260200190815260200160002060006101000a81548160ff0219169083151502179055508173ffffffffffffffffffffffffffffffffffffffff168373ffffffffffffffffffffffffffffffffffffffff167f17307eab39ab6107e8899845ad3d59bd9653f200f220920489ca2b5937696c3183604051611e8491906124ad565b60405180910390a3505050565b6000611e9c82610aa6565b9050611eac816000846001612093565b611eb582610aa6565b90506004600083815260200190815260200160002060006101000a81549073ffffffffffffffffffffffffffffffffffffffff02191690556001600360008373ffffffffffffffffffffffffffffffffffffffff1673ffffffffffffffffffffffffffffffffffffffff168152602001908152602001600020600082825403925050819055506002600083815260200190815260200160002060006101000a81549073ffffffffffffffffffffffffffffffffffffffff021916905581600073ffffffffffffffffffffffffffffffffffffffff168273ffffffffffffffffffffffffffffffffffffffff167fddf252ad1be2c89b69c2b068fc378daa952ba7f163c4a11628f55a4df523b3ef60405160405180910390a4611fdb816000846001612099565b5050565b611fea848484611704565b611ff6848484846121f2565b612035576040517f08c379a000000000000000000000000000000000000000000000000000000000815260040161202c9061397e565b60405180910390fd5b50505050565b606060405180602001604052806000815250905090565b60008073ffffffffffffffffffffffffffffffffffffffff1661207483611acb565b73ffffffffffffffffffffffffffffffffffffffff1614159050919050565b50505050565b50505050565b600080600090507a184f03e93ff9f4daa797ed6e38ed64bf6a1f01000000000000000083106120fd577a184f03e93ff9f4daa797ed6e38ed64bf6a1f01000000000000000083816120f3576120f2613799565b5b0492506040810190505b6d04ee2d6d415b85acef8100000000831061213a576d04ee2d6d415b85acef810000000083816121305761212f613799565b5b0492506020810190505b662386f26fc10000831061216957662386f26fc10000838161215f5761215e613799565b5b0492506010810190505b6305f5e1008310612192576305f5e100838161218857612187613799565b5b0492506008810190505b61271083106121b75761271083816121ad576121ac613799565b5b0492506004810190505b606483106121da57606483816121d0576121cf613799565b5b0492506002810190505b600a83106121e9576001810190505b80915050919050565b60006122138473ffffffffffffffffffffffffffffffffffffffff16612379565b1561236c578373ffffffffffffffffffffffffffffffffffffffff1663150b7a0261223c6115ae565b8786866040518563ffffffff1660e01b815260040161225e949392919061399e565b6020604051808303816000875af192505050801561229a57506040513d601f19601f8201168201806040525081019061229791906139ff565b60015b61231c573d80600081146122ca576040519150601f19603f3d011682016040523d82523d6000602084013e6122cf565b606091505b506000815103612314576040517f08c379a000000000000000000000000000000000000000000000000000000000815260040161230b9061397e565b60405180910390fd5b805181602001fd5b63150b7a0260e01b7bffffffffffffffffffffffffffffffffffffffffffffffffffffffff1916817bffffffffffffffffffffffffffffffffffffffffffffffffffffffff191614915050612371565b600190505b949350505050565b6000808273ffffffffffffffffffffffffffffffffffffffff163b119050919050565b5080546123a890612bb5565b6000825580601f106123ba57506123d9565b601f0160209004906000526020600020908101906123d891906123dc565b5b50565b5b808211156123f55760008160009055506001016123dd565b5090565b6000604051905090565b600080fd5b600080fd5b60007fffffffff0000000000000000000000000000000000000000000000000000000082169050919050565b6124428161240d565b811461244d57600080fd5b50565b60008135905061245f81612439565b92915050565b60006020828403121561247b5761247a612403565b5b600061248984828501612450565b91505092915050565b60008115159050919050565b6124a781612492565b82525050565b60006020820190506124c2600083018461249e565b92915050565b600081519050919050565b600082825260208201905092915050565b60005b838110156125025780820151818401526020810190506124e7565b60008484015250505050565b6000601f19601f8301169050919050565b600061252a826124c8565b61253481856124d3565b93506125448185602086016124e4565b61254d8161250e565b840191505092915050565b60006020820190508181036000830152612572818461251f565b905092915050565b6000819050919050565b61258d8161257a565b811461259857600080fd5b50565b6000813590506125aa81612584565b92915050565b6000602082840312156125c6576125c5612403565b5b60006125d48482850161259b565b91505092915050565b600073ffffffffffffffffffffffffffffffffffffffff82169050919050565b6000612608826125dd565b9050919050565b612618816125fd565b82525050565b6000602082019050612633600083018461260f565b92915050565b612642816125fd565b811461264d57600080fd5b50565b60008135905061265f81612639565b92915050565b6000806040838503121561267c5761267b612403565b5b600061268a85828601612650565b925050602061269b8582860161259b565b9150509250929050565b6000806000606084860312156126be576126bd612403565b5b60006126cc86828701612650565b93505060206126dd86828701612650565b92505060406126ee8682870161259b565b9150509250925092565b60006020828403121561270e5761270d612403565b5b600061271c84828501612650565b91505092915050565b600067ffffffffffffffff82169050919050565b61274281612725565b811461274d57600080fd5b50565b60008135905061275f81612739565b92915050565b600080fd5b600080fd5b7f4e487b7100000000000000000000000000000000000000000000000000000000600052604160045260246000fd5b6127a78261250e565b810181811067ffffffffffffffff821117156127c6576127c561276f565b5b80604052505050565b60006127d96123f9565b90506127e5828261279e565b919050565b600067ffffffffffffffff8211156128055761280461276f565b5b61280e8261250e565b9050602081019050919050565b82818337600083830152505050565b600061283d612838846127ea565b6127cf565b9050828152602081018484840111156128595761285861276a565b5b61286484828561281b565b509392505050565b600082601f83011261288157612880612765565b5b813561289184826020860161282a565b91505092915050565b600067ffffffffffffffff8211156128b5576128b461276f565b5b6128be8261250e565b9050602081019050919050565b60006128de6128d98461289a565b6127cf565b9050828152602081018484840111156128fa576128f961276a565b5b61290584828561281b565b509392505050565b600082601f83011261292257612921612765565b5b81356129328482602086016128cb565b91505092915050565b60008060008060008060c0878903121561295857612957612403565b5b600061296689828a01612750565b965050602061297789828a01612650565b955050604061298889828a01612650565b945050606061299989828a0161259b565b935050608087013567ffffffffffffffff8111156129ba576129b9612408565b5b6129c689828a0161286c565b92505060a087013567ffffffffffffffff8111156129e7576129e6612408565b5b6129f389828a0161290d565b9150509295509295509295565b612a098161257a565b82525050565b6000602082019050612a246000830184612a00565b92915050565b612a3381612492565b8114612a3e57600080fd5b50565b600081359050612a5081612a2a565b92915050565b60008060408385031215612a6d57612a6c612403565b5b6000612a7b85828601612650565b9250506020612a8c85828601612a41565b9150509250929050565b600060208284031215612aac57612aab612403565b5b6000612aba84828501612750565b91505092915050565b60008060008060808587031215612add57612adc612403565b5b6000612aeb87828801612650565b9450506020612afc87828801612650565b9350506040612b0d8782880161259b565b925050606085013567ffffffffffffffff811115612b2e57612b2d612408565b5b612b3a8782880161290d565b91505092959194509250565b60008060408385031215612b5d57612b5c612403565b5b6000612b6b85828601612650565b9250506020612b7c85828601612650565b9150509250929050565b7f4e487b7100000000000000000000000000000000000000000000000000000000600052602260045260246000fd5b60006002820490506001821680612bcd57607f821691505b602082108103612be057612bdf612b86565b5b50919050565b7f4552433732313a20617070726f76616c20746f2063757272656e74206f776e6560008201527f7200000000000000000000000000000000000000000000000000000000000000602082015250565b6000612c426021836124d3565b9150612c4d82612be6565b604082019050919050565b60006020820190508181036000830152612c7181612c35565b9050919050565b7f4552433732313a20617070726f76652063616c6c6572206973206e6f7420746f60008201527f6b656e206f776e6572206f7220617070726f76656420666f7220616c6c000000602082015250565b6000612cd4603d836124d3565b9150612cdf82612c78565b604082019050919050565b60006020820190508181036000830152612d0381612cc7565b9050919050565b7f4552433732313a2063616c6c6572206973206e6f7420746f6b656e206f776e6560008201527f72206f7220617070726f76656400000000000000000000000000000000000000602082015250565b6000612d66602d836124d3565b9150612d7182612d0a565b604082019050919050565b60006020820190508181036000830152612d9581612d59565b9050919050565b7f437265617465207468697320706c617965722066697273740000000000000000600082015250565b6000612dd26018836124d3565b9150612ddd82612d9c565b602082019050919050565b60006020820190508181036000830152612e0181612dc5565b9050919050565b7f416c7265616479206465666561746564203a2900000000000000000000000000600082015250565b6000612e3e6013836124d3565b9150612e4982612e08565b602082019050919050565b60006020820190508181036000830152612e6d81612e31565b9050919050565b7f4e487b7100000000000000000000000000000000000000000000000000000000600052601160045260246000fd5b6000612eae8261257a565b9150612eb98361257a565b9250828203905081811115612ed157612ed0612e74565b5b92915050565b7f4e487b7100000000000000000000000000000000000000000000000000000000600052603260045260246000fd5b600081519050919050565b600082825260208201905092915050565b6000819050602082019050919050565b600082825260208201905092915050565b6000612f4e826124c8565b612f588185612f32565b9350612f688185602086016124e4565b612f718161250e565b840191505092915050565b6000612f888383612f43565b905092915050565b6000602082019050919050565b6000612fa882612f06565b612fb28185612f11565b935083602082028501612fc485612f22565b8060005b858110156130005784840389528151612fe18582612f7c565b9450612fec83612f90565b925060208a01995050600181019050612fc8565b50829750879550505050505092915050565b600060ff82169050919050565b61302881613012565b82525050565b6000608082019050613043600083018761260f565b81810360208301526130558186612f9d565b90508181036040830152613069818561251f565b9050613078606083018461301f565b95945050505050565b7f4552433732313a20696e76616c696420746f6b656e2049440000000000000000600082015250565b60006130b76018836124d3565b91506130c282613081565b602082019050919050565b600060208201905081810360008301526130e6816130aa565b9050919050565b60006131006130fb846127ea565b6127cf565b90508281526020810184848401111561311c5761311b61276a565b5b6131278482856124e4565b509392505050565b600082601f83011261314457613143612765565b5b81516131548482602086016130ed565b91505092915050565b60008151905061316c81612584565b92915050565b6000806040838503121561318957613188612403565b5b600083015167ffffffffffffffff8111156131a7576131a6612408565b5b6131b38582860161312f565b92505060206131c48582860161315d565b9150509250929050565b60008190508160005260206000209050919050565b60006020601f8301049050919050565b600082821b905092915050565b6000600883026132307fffffffffffffffffffffffffffffffffffffffffffffffffffffffffffffffff826131f3565b61323a86836131f3565b95508019841693508086168417925050509392505050565b6000819050919050565b600061327761327261326d8461257a565b613252565b61257a565b9050919050565b6000819050919050565b6132918361325c565b6132a561329d8261327e565b848454613200565b825550505050565b600090565b6132ba6132ad565b6132c5818484613288565b505050565b5b818110156132e9576132de6000826132b2565b6001810190506132cb565b5050565b601f82111561332e576132ff816131ce565b613308846131e3565b81016020851015613317578190505b61332b613323856131e3565b8301826132ca565b50505b505050565b600082821c905092915050565b600061335160001984600802613333565b1980831691505092915050565b600061336a8383613340565b9150826002028217905092915050565b613383826124c8565b67ffffffffffffffff81111561339c5761339b61276f565b5b6133a68254612bb5565b6133b18282856132ed565b600060209050601f8311600181146133e457600084156133d2578287015190505b6133dc858261335e565b865550613444565b601f1984166133f2866131ce565b60005b8281101561341a578489015182556001820191506020850194506020810190506133f5565b868310156134375784890151613433601f891682613340565b8355505b6001600288020188555050505b505050505050565b7f4552433732313a2061646472657373207a65726f206973206e6f74206120766160008201527f6c6964206f776e65720000000000000000000000000000000000000000000000602082015250565b60006134a86029836124d3565b91506134b38261344c565b604082019050919050565b600060208201905081810360008301526134d78161349b565b9050919050565b60006134e98261257a565b91506134f48361257a565b925082820190508082111561350c5761350b612e74565b5b92915050565b6000604082019050818103600083015261352c818561251f565b905061353b6020830184612a00565b9392505050565b61354b81612725565b82525050565b600081519050919050565b600082825260208201905092915050565b600061357882613551565b613582818561355c565b93506135928185602086016124e4565b61359b8161250e565b840191505092915050565b600060c0820190506135bb6000830189613542565b6135c8602083018861260f565b6135d5604083018761260f565b6135e26060830186612a00565b81810360808301526135f4818561251f565b905081810360a0830152613608818461356d565b9050979650505050505050565b600081905092915050565b600061362b826124c8565b6136358185613615565b93506136458185602086016124e4565b80840191505092915050565b600061365d8285613620565b91506136698284613620565b91508190509392505050565b7f4552433732313a207472616e736665722066726f6d20696e636f72726563742060008201527f6f776e6572000000000000000000000000000000000000000000000000000000602082015250565b60006136d16025836124d3565b91506136dc82613675565b604082019050919050565b60006020820190508181036000830152613700816136c4565b9050919050565b7f4552433732313a207472616e7366657220746f20746865207a65726f2061646460008201527f7265737300000000000000000000000000000000000000000000000000000000602082015250565b60006137636024836124d3565b915061376e82613707565b604082019050919050565b6000602082019050818103600083015261379281613756565b9050919050565b7f4e487b7100000000000000000000000000000000000000000000000000000000600052601260045260246000fd5b7f4552433732313a206d696e7420746f20746865207a65726f2061646472657373600082015250565b60006137fe6020836124d3565b9150613809826137c8565b602082019050919050565b6000602082019050818103600083015261382d816137f1565b9050919050565b7f4552433732313a20746f6b656e20616c7265616479206d696e74656400000000600082015250565b600061386a601c836124d3565b915061387582613834565b602082019050919050565b600060208201905081810360008301526138998161385d565b9050919050565b7f4552433732313a20617070726f766520746f2063616c6c657200000000000000600082015250565b60006138d66019836124d3565b91506138e1826138a0565b602082019050919050565b60006020820190508181036000830152613905816138c9565b9050919050565b7f4552433732313a207472616e7366657220746f206e6f6e20455243373231526560008201527f63656976657220696d706c656d656e7465720000000000000000000000000000602082015250565b60006139686032836124d3565b91506139738261390c565b604082019050919050565b600060208201905081810360008301526139978161395b565b9050919050565b60006080820190506139b3600083018761260f565b6139c0602083018661260f565b6139cd6040830185612a00565b81810360608301526139df818461356d565b905095945050505050565b6000815190506139f981612439565b92915050565b600060208284031215613a1557613a14612403565b5b6000613a23848285016139ea565b9150509291505056fea2646970667358221220344b3d410fc0b155b8529132904456fc8dedc1ff5aed3ff039c040884f19bd5664736f6c63430008110033",
  "immutableReferences": {},
  "source": "// SPDX-License-Identifier: MIT\r\npragma solidity ^0.8.17;\r\n\r\nimport {Params} from \"../libraries/Params.sol\";\r\nimport {IKanvasInterop} from \"../interfaces/IKanvasInterop.sol\";\r\nimport {IKanvasInteropGame} from \"../interfaces/IKanvasInteropGame.sol\";\r\n\r\nimport {ERC721} from \"@openzeppelin/contracts/token/ERC721/ERC721.sol\";\r\nimport {Strings} from \"@openzeppelin/contracts/utils/Strings.sol\";\r\n\r\ncontract RockPaperScissorsInterop is IKanvasInteropGame, ERC721 {\r\n    uint64 private constant AVAX_SELECTOR = 14767482510784806043;\r\n    uint256 public constant MAX_PROPERTIES_LEN = 20;\r\n\r\n    uint8 private constant WIN_NFT_TEMPLATE = 0;\r\n    uint8 private constant LOST_NFT_TEMPLATE = 1;\r\n\r\n    uint256 private _tokenId;\r\n\r\n    mapping(uint256 => string) private _tokenURIs;\r\n    mapping(address => uint256) private _playerNfts;\r\n\r\n    IKanvasInterop private kanvas;\r\n\r\n    struct Player {\r\n        string name;\r\n        uint256 points;\r\n        bool created;\r\n    }\r\n\r\n    mapping(address => Player) private _players;\r\n\r\n    constructor(\r\n        address kanvasRouter,\r\n        address sourceGameId\r\n    ) ERC721(\"RockPaperScissors\", \"RPS\") IKanvasInteropGame() {\r\n        kanvas = IKanvasInterop(kanvasRouter);\r\n        kanvas._createGame(\r\n            AVAX_SELECTOR,\r\n            Params.InteropGame({gameId: sourceGameId})\r\n        );\r\n    }\r\n\r\n    function upgradePlayer(address playerId) external {\r\n        Player storage player = _players[playerId];\r\n        require(player.created, \"Create this player first\");\r\n\r\n        player.points = player.points + 5;\r\n\r\n        string[] memory properties = new string[](MAX_PROPERTIES_LEN);\r\n        properties[0] = player.name;\r\n        properties[1] = Strings.toString(player.points);\r\n\r\n        string memory fields = \"$player_name$ $player_points$\";\r\n\r\n        kanvas._generateUri(playerId, properties, fields, WIN_NFT_TEMPLATE);\r\n    }\r\n\r\n    function downgradePlayer(address playerId) external {\r\n        Player storage player = _players[playerId];\r\n        require(player.created, \"Create this player first\");\r\n        require(player.points >= 5, \"Already defeated :)\");\r\n\r\n        player.points = player.points - 5;\r\n\r\n        string[] memory properties = new string[](MAX_PROPERTIES_LEN);\r\n        properties[0] = player.name;\r\n        properties[1] = Strings.toString(player.points);\r\n\r\n        string memory fields = \"$player_name$ $player_points$\";\r\n\r\n        kanvas._generateUri(playerId, properties, fields, LOST_NFT_TEMPLATE);\r\n    }\r\n\r\n    function transferTo(uint64 chainSelector) external payable {\r\n        address playerId = _msgSender();\r\n        uint256 tokenId = _playerNfts[playerId];\r\n\r\n        _burn(tokenId);\r\n        delete _tokenURIs[tokenId];\r\n\r\n        delete _playerNfts[playerId];\r\n\r\n        address gameId = address(this);\r\n        string memory uri = _tokenURIs[tokenId];\r\n        Player memory player = _players[playerId];\r\n\r\n        bytes memory data = abi.encode(player.name, player.points);\r\n\r\n        kanvas._transferTo{value: msg.value}(\r\n            chainSelector,\r\n            gameId,\r\n            playerId,\r\n            tokenId,\r\n            uri,\r\n            data\r\n        );\r\n    }\r\n\r\n    function _receiveFrom(\r\n        uint64 /* chainSelector */,\r\n        address /* gameId */,\r\n        address playerId,\r\n        uint256 tokenId,\r\n        string memory uri,\r\n        bytes memory data\r\n    ) external override {\r\n        (string memory name, uint256 points) = abi.decode(\r\n            data,\r\n            (string, uint256)\r\n        );\r\n\r\n        _mint(playerId, tokenId);\r\n        _tokenURIs[tokenId] = uri;\r\n\r\n        _players[playerId].name = name;\r\n        _players[playerId].points = points;\r\n\r\n        _playerNfts[playerId] = tokenId;\r\n    }\r\n}\r\n",
  "sourcePath": "C:\\Users\\DELL\\Documents\\kanvas\\blockchain\\contracts\\rock-paper-scissors\\RockPaperScissorsInterop.sol",
  "compiler": {
    "name": "solc",
    "version": "0.8.17+commit.8df45f5f.Emscripten.clang"
  },
  "schemaVersion": "3.4.11",
  "updatedAt": "2023-12-02T17:38:14.923Z",
  "devdoc": {
    "kind": "dev",
    "methods": {
      "approve(address,uint256)": {
        "details": "See {IERC721-approve}."
      },
      "balanceOf(address)": {
        "details": "See {IERC721-balanceOf}."
      },
      "getApproved(uint256)": {
        "details": "See {IERC721-getApproved}."
      },
      "isApprovedForAll(address,address)": {
        "details": "See {IERC721-isApprovedForAll}."
      },
      "name()": {
        "details": "See {IERC721Metadata-name}."
      },
      "ownerOf(uint256)": {
        "details": "See {IERC721-ownerOf}."
      },
      "safeTransferFrom(address,address,uint256)": {
        "details": "See {IERC721-safeTransferFrom}."
      },
      "safeTransferFrom(address,address,uint256,bytes)": {
        "details": "See {IERC721-safeTransferFrom}."
      },
      "setApprovalForAll(address,bool)": {
        "details": "See {IERC721-setApprovalForAll}."
      },
      "supportsInterface(bytes4)": {
        "details": "See {IERC165-supportsInterface}."
      },
      "symbol()": {
        "details": "See {IERC721Metadata-symbol}."
      },
      "tokenURI(uint256)": {
        "details": "See {IERC721Metadata-tokenURI}."
      },
      "transferFrom(address,address,uint256)": {
        "details": "See {IERC721-transferFrom}."
      }
    },
    "version": 1
  },
  "userdoc": {
    "kind": "user",
    "methods": {},
    "version": 1
  }
}