{
  "contractName": "RockPaperScissors",
  "abi": [
    {
      "inputs": [
        {
          "internalType": "address",
          "name": "kanvasRouter",
          "type": "address"
        }
      ],
      "stateMutability": "nonpayable",
      "type": "constructor"
    },
    {
      "anonymous": false,
      "inputs": [
        {
          "indexed": true,
          "internalType": "address",
          "name": "owner",
          "type": "address"
        },
        {
          "indexed": true,
          "internalType": "address",
          "name": "approved",
          "type": "address"
        },
        {
          "indexed": true,
          "internalType": "uint256",
          "name": "tokenId",
          "type": "uint256"
        }
      ],
      "name": "Approval",
      "type": "event"
    },
    {
      "anonymous": false,
      "inputs": [
        {
          "indexed": true,
          "internalType": "address",
          "name": "owner",
          "type": "address"
        },
        {
          "indexed": true,
          "internalType": "address",
          "name": "operator",
          "type": "address"
        },
        {
          "indexed": false,
          "internalType": "bool",
          "name": "approved",
          "type": "bool"
        }
      ],
      "name": "ApprovalForAll",
      "type": "event"
    },
    {
      "anonymous": false,
      "inputs": [
        {
          "indexed": true,
          "internalType": "address",
          "name": "previousOwner",
          "type": "address"
        },
        {
          "indexed": true,
          "internalType": "address",
          "name": "newOwner",
          "type": "address"
        }
      ],
      "name": "OwnershipTransferred",
      "type": "event"
    },
    {
      "anonymous": false,
      "inputs": [
        {
          "indexed": true,
          "internalType": "address",
          "name": "from",
          "type": "address"
        },
        {
          "indexed": true,
          "internalType": "address",
          "name": "to",
          "type": "address"
        },
        {
          "indexed": true,
          "internalType": "uint256",
          "name": "tokenId",
          "type": "uint256"
        }
      ],
      "name": "Transfer",
      "type": "event"
    },
    {
      "inputs": [
        {
          "internalType": "address",
          "name": "to",
          "type": "address"
        },
        {
          "internalType": "uint256",
          "name": "tokenId",
          "type": "uint256"
        }
      ],
      "name": "approve",
      "outputs": [],
      "stateMutability": "nonpayable",
      "type": "function"
    },
    {
      "inputs": [
        {
          "internalType": "address",
          "name": "owner",
          "type": "address"
        }
      ],
      "name": "balanceOf",
      "outputs": [
        {
          "internalType": "uint256",
          "name": "",
          "type": "uint256"
        }
      ],
      "stateMutability": "view",
      "type": "function"
    },
    {
      "inputs": [
        {
          "internalType": "uint256",
          "name": "tokenId",
          "type": "uint256"
        }
      ],
      "name": "getApproved",
      "outputs": [
        {
          "internalType": "address",
          "name": "",
          "type": "address"
        }
      ],
      "stateMutability": "view",
      "type": "function"
    },
    {
      "inputs": [
        {
          "internalType": "address",
          "name": "owner",
          "type": "address"
        },
        {
          "internalType": "address",
          "name": "operator",
          "type": "address"
        }
      ],
      "name": "isApprovedForAll",
      "outputs": [
        {
          "internalType": "bool",
          "name": "",
          "type": "bool"
        }
      ],
      "stateMutability": "view",
      "type": "function"
    },
    {
      "inputs": [],
      "name": "name",
      "outputs": [
        {
          "internalType": "string",
          "name": "",
          "type": "string"
        }
      ],
      "stateMutability": "view",
      "type": "function"
    },
    {
      "inputs": [],
      "name": "owner",
      "outputs": [
        {
          "internalType": "address",
          "name": "",
          "type": "address"
        }
      ],
      "stateMutability": "view",
      "type": "function"
    },
    {
      "inputs": [
        {
          "internalType": "uint256",
          "name": "tokenId",
          "type": "uint256"
        }
      ],
      "name": "ownerOf",
      "outputs": [
        {
          "internalType": "address",
          "name": "",
          "type": "address"
        }
      ],
      "stateMutability": "view",
      "type": "function"
    },
    {
      "inputs": [],
      "name": "renounceOwnership",
      "outputs": [],
      "stateMutability": "nonpayable",
      "type": "function"
    },
    {
      "inputs": [
        {
          "internalType": "address",
          "name": "from",
          "type": "address"
        },
        {
          "internalType": "address",
          "name": "to",
          "type": "address"
        },
        {
          "internalType": "uint256",
          "name": "tokenId",
          "type": "uint256"
        }
      ],
      "name": "safeTransferFrom",
      "outputs": [],
      "stateMutability": "nonpayable",
      "type": "function"
    },
    {
      "inputs": [
        {
          "internalType": "address",
          "name": "from",
          "type": "address"
        },
        {
          "internalType": "address",
          "name": "to",
          "type": "address"
        },
        {
          "internalType": "uint256",
          "name": "tokenId",
          "type": "uint256"
        },
        {
          "internalType": "bytes",
          "name": "data",
          "type": "bytes"
        }
      ],
      "name": "safeTransferFrom",
      "outputs": [],
      "stateMutability": "nonpayable",
      "type": "function"
    },
    {
      "inputs": [
        {
          "internalType": "address",
          "name": "operator",
          "type": "address"
        },
        {
          "internalType": "bool",
          "name": "approved",
          "type": "bool"
        }
      ],
      "name": "setApprovalForAll",
      "outputs": [],
      "stateMutability": "nonpayable",
      "type": "function"
    },
    {
      "inputs": [
        {
          "internalType": "bytes4",
          "name": "interfaceId",
          "type": "bytes4"
        }
      ],
      "name": "supportsInterface",
      "outputs": [
        {
          "internalType": "bool",
          "name": "",
          "type": "bool"
        }
      ],
      "stateMutability": "view",
      "type": "function"
    },
    {
      "inputs": [],
      "name": "symbol",
      "outputs": [
        {
          "internalType": "string",
          "name": "",
          "type": "string"
        }
      ],
      "stateMutability": "view",
      "type": "function"
    },
    {
      "inputs": [
        {
          "internalType": "address",
          "name": "from",
          "type": "address"
        },
        {
          "internalType": "address",
          "name": "to",
          "type": "address"
        },
        {
          "internalType": "uint256",
          "name": "tokenId",
          "type": "uint256"
        }
      ],
      "name": "transferFrom",
      "outputs": [],
      "stateMutability": "nonpayable",
      "type": "function"
    },
    {
      "inputs": [
        {
          "internalType": "address",
          "name": "newOwner",
          "type": "address"
        }
      ],
      "name": "transferOwnership",
      "outputs": [],
      "stateMutability": "nonpayable",
      "type": "function"
    },
    {
      "stateMutability": "payable",
      "type": "receive"
    },
    {
      "inputs": [
        {
          "internalType": "address",
          "name": "playerId",
          "type": "address"
        },
        {
          "internalType": "string",
          "name": "name",
          "type": "string"
        }
      ],
      "name": "createPlayer",
      "outputs": [],
      "stateMutability": "nonpayable",
      "type": "function"
    },
    {
      "inputs": [
        {
          "internalType": "address",
          "name": "playerId",
          "type": "address"
        }
      ],
      "name": "getPlayer",
      "outputs": [
        {
          "components": [
            {
              "internalType": "string",
              "name": "name",
              "type": "string"
            },
            {
              "internalType": "uint256",
              "name": "points",
              "type": "uint256"
            },
            {
              "internalType": "uint256",
              "name": "tokenId",
              "type": "uint256"
            },
            {
              "internalType": "bool",
              "name": "created",
              "type": "bool"
            }
          ],
          "internalType": "struct RockPaperScissors.Player",
          "name": "",
          "type": "tuple"
        }
      ],
      "stateMutability": "view",
      "type": "function"
    },
    {
      "inputs": [
        {
          "internalType": "address",
          "name": "playerId",
          "type": "address"
        }
      ],
      "name": "upgradePlayer",
      "outputs": [],
      "stateMutability": "nonpayable",
      "type": "function"
    },
    {
      "inputs": [
        {
          "internalType": "address",
          "name": "playerId",
          "type": "address"
        }
      ],
      "name": "downgradePlayer",
      "outputs": [],
      "stateMutability": "nonpayable",
      "type": "function"
    },
    {
      "inputs": [
        {
          "internalType": "uint64",
          "name": "chainSelector",
          "type": "uint64"
        }
      ],
      "name": "transferTo",
      "outputs": [],
      "stateMutability": "payable",
      "type": "function"
    },
    {
      "inputs": [
        {
          "internalType": "uint64",
          "name": "",
          "type": "uint64"
        },
        {
          "internalType": "address",
          "name": "",
          "type": "address"
        },
        {
          "internalType": "address",
          "name": "playerId",
          "type": "address"
        },
        {
          "internalType": "uint256",
          "name": "tokenId",
          "type": "uint256"
        },
        {
          "internalType": "string",
          "name": "uri",
          "type": "string"
        },
        {
          "internalType": "bytes",
          "name": "data",
          "type": "bytes"
        }
      ],
      "name": "_receiveFrom",
      "outputs": [],
      "stateMutability": "nonpayable",
      "type": "function"
    },
    {
      "inputs": [
        {
          "internalType": "address",
          "name": "playerId",
          "type": "address"
        },
        {
          "internalType": "string",
          "name": "uri",
          "type": "string"
        }
      ],
      "name": "_receiveUri",
      "outputs": [],
      "stateMutability": "nonpayable",
      "type": "function"
    },
    {
      "inputs": [
        {
          "internalType": "uint256",
          "name": "tokenId",
          "type": "uint256"
        }
      ],
      "name": "tokenURI",
      "outputs": [
        {
          "internalType": "string",
          "name": "",
          "type": "string"
        }
      ],
      "stateMutability": "view",
      "type": "function"
    }
  ],
  "bytecode": "0x60806040523480156200001157600080fd5b506040516200515838038062005158833981810160405281019062000037919062000269565b6040518060400160405280601181526020017f526f636b506170657253636973736f72730000000000000000000000000000008152506040518060400160405280600381526020017f52505300000000000000000000000000000000000000000000000000000000008152508160009081620000b4919062000515565b508060019081620000c6919062000515565b505050620000e9620000dd6200013160201b60201c565b6200013960201b60201c565b80600960006101000a81548173ffffffffffffffffffffffffffffffffffffffff021916908373ffffffffffffffffffffffffffffffffffffffff16021790555050620005fc565b600033905090565b6000600660009054906101000a900473ffffffffffffffffffffffffffffffffffffffff16905081600660006101000a81548173ffffffffffffffffffffffffffffffffffffffff021916908373ffffffffffffffffffffffffffffffffffffffff1602179055508173ffffffffffffffffffffffffffffffffffffffff168173ffffffffffffffffffffffffffffffffffffffff167f8be0079c531659141344cd1fd0a4f28419497f9722a3daafe3b4186f6b6457e060405160405180910390a35050565b600080fd5b600073ffffffffffffffffffffffffffffffffffffffff82169050919050565b6000620002318262000204565b9050919050565b620002438162000224565b81146200024f57600080fd5b50565b600081519050620002638162000238565b92915050565b600060208284031215620002825762000281620001ff565b5b6000620002928482850162000252565b91505092915050565b600081519050919050565b7f4e487b7100000000000000000000000000000000000000000000000000000000600052604160045260246000fd5b7f4e487b7100000000000000000000000000000000000000000000000000000000600052602260045260246000fd5b600060028204905060018216806200031d57607f821691505b602082108103620003335762000332620002d5565b5b50919050565b60008190508160005260206000209050919050565b60006020601f8301049050919050565b600082821b905092915050565b6000600883026200039d7fffffffffffffffffffffffffffffffffffffffffffffffffffffffffffffffff826200035e565b620003a986836200035e565b95508019841693508086168417925050509392505050565b6000819050919050565b6000819050919050565b6000620003f6620003f0620003ea84620003c1565b620003cb565b620003c1565b9050919050565b6000819050919050565b6200041283620003d5565b6200042a6200042182620003fd565b8484546200036b565b825550505050565b600090565b6200044162000432565b6200044e81848462000407565b505050565b5b8181101562000476576200046a60008262000437565b60018101905062000454565b5050565b601f821115620004c5576200048f8162000339565b6200049a846200034e565b81016020851015620004aa578190505b620004c2620004b9856200034e565b83018262000453565b50505b505050565b600082821c905092915050565b6000620004ea60001984600802620004ca565b1980831691505092915050565b6000620005058383620004d7565b9150826002028217905092915050565b62000520826200029b565b67ffffffffffffffff8111156200053c576200053b620002a6565b5b62000548825462000304565b620005558282856200047a565b600060209050601f8311600181146200058d576000841562000578578287015190505b620005848582620004f7565b865550620005f4565b601f1984166200059d8662000339565b60005b82811015620005c757848901518255600182019150602085019450602081019050620005a0565b86831015620005e75784890151620005e3601f891682620004d7565b8355505b6001600288020188555050505b505050505050565b614b4c806200060c6000396000f3fe6080604052600436106101445760003560e01c8063715018a6116100b6578063af3ef62e1161006f578063af3ef62e14610461578063b64fe1c61461047d578063b88d4fde146104a6578063c87b56dd146104cf578063e985e9c51461050c578063f2fde38b146105495761014b565b8063715018a6146103795780638da5cb5b146103905780638f9c3956146103bb57806395d89b41146103e4578063a06422a71461040f578063a22cb465146104385761014b565b806340f873921161010857806340f873921461024757806342842e0e146102705780635c12cd4b146102995780636352211e146102d65780636d4195fb1461031357806370a082311461033c5761014b565b806301ffc9a71461015057806306fdde031461018d578063081812fc146101b8578063095ea7b3146101f557806323b872dd1461021e5761014b565b3661014b57005b600080fd5b34801561015c57600080fd5b506101776004803603810190610172919061318d565b610572565b60405161018491906131d5565b60405180910390f35b34801561019957600080fd5b506101a2610654565b6040516101af9190613280565b60405180910390f35b3480156101c457600080fd5b506101df60048036038101906101da91906132d8565b6106e6565b6040516101ec9190613346565b60405180910390f35b34801561020157600080fd5b5061021c6004803603810190610217919061338d565b61072c565b005b34801561022a57600080fd5b50610245600480360381019061024091906133cd565b610843565b005b34801561025357600080fd5b5061026e60048036038101906102699190613420565b6108a3565b005b34801561027c57600080fd5b50610297600480360381019061029291906133cd565b610c36565b005b3480156102a557600080fd5b506102c060048036038101906102bb9190613420565b610c56565b6040516102cd9190613518565b60405180910390f35b3480156102e257600080fd5b506102fd60048036038101906102f891906132d8565b610d70565b60405161030a9190613346565b60405180910390f35b34801561031f57600080fd5b5061033a60048036038101906103359190613750565b610df6565b005b34801561034857600080fd5b50610363600480360381019061035e9190613420565b610fbb565b6040516103709190613824565b60405180910390f35b34801561038557600080fd5b5061038e611072565b005b34801561039c57600080fd5b506103a5611086565b6040516103b29190613346565b60405180910390f35b3480156103c757600080fd5b506103e260048036038101906103dd919061383f565b6110b0565b005b3480156103f057600080fd5b506103f96111ae565b6040516104069190613280565b60405180910390f35b34801561041b57600080fd5b5061043660048036038101906104319190613420565b611240565b005b34801561044457600080fd5b5061045f600480360381019061045a91906138c7565b61158b565b005b61047b60048036038101906104769190613907565b6115a1565b005b34801561048957600080fd5b506104a4600480360381019061049f919061383f565b6119b7565b005b3480156104b257600080fd5b506104cd60048036038101906104c89190613934565b611d4f565b005b3480156104db57600080fd5b506104f660048036038101906104f191906132d8565b611db1565b6040516105039190613280565b60405180910390f35b34801561051857600080fd5b50610533600480360381019061052e91906139b7565b611e56565b60405161054091906131d5565b60405180910390f35b34801561055557600080fd5b50610570600480360381019061056b9190613420565b611eea565b005b60007f80ac58cd000000000000000000000000000000000000000000000000000000007bffffffffffffffffffffffffffffffffffffffffffffffffffffffff1916827bffffffffffffffffffffffffffffffffffffffffffffffffffffffff1916148061063d57507f5b5e139f000000000000000000000000000000000000000000000000000000007bffffffffffffffffffffffffffffffffffffffffffffffffffffffff1916827bffffffffffffffffffffffffffffffffffffffffffffffffffffffff1916145b8061064d575061064c82611f6d565b5b9050919050565b60606000805461066390613a26565b80601f016020809104026020016040519081016040528092919081815260200182805461068f90613a26565b80156106dc5780601f106106b1576101008083540402835291602001916106dc565b820191906000526020600020905b8154815290600101906020018083116106bf57829003601f168201915b5050505050905090565b60006106f182611fd7565b6004600083815260200190815260200160002060009054906101000a900473ffffffffffffffffffffffffffffffffffffffff169050919050565b600061073782610d70565b90508073ffffffffffffffffffffffffffffffffffffffff168373ffffffffffffffffffffffffffffffffffffffff16036107a7576040517f08c379a000000000000000000000000000000000000000000000000000000000815260040161079e90613ac9565b60405180910390fd5b8073ffffffffffffffffffffffffffffffffffffffff166107c6612022565b73ffffffffffffffffffffffffffffffffffffffff1614806107f557506107f4816107ef612022565b611e56565b5b610834576040517f08c379a000000000000000000000000000000000000000000000000000000000815260040161082b90613b5b565b60405180910390fd5b61083e838361202a565b505050565b61085461084e612022565b826120e3565b610893576040517f08c379a000000000000000000000000000000000000000000000000000000000815260040161088a90613bed565b60405180910390fd5b61089e838383612178565b505050565b6108ab6122d5565b6000600a60008373ffffffffffffffffffffffffffffffffffffffff1673ffffffffffffffffffffffffffffffffffffffff16815260200190815260200160002090508060030160009054906101000a900460ff1661093f576040517f08c379a000000000000000000000000000000000000000000000000000000000815260040161093690613c59565b60405180910390fd5b600181600101541015610987576040517f08c379a000000000000000000000000000000000000000000000000000000000815260040161097e90613cc5565b60405180910390fd5b600181600101546109989190613d14565b81600101819055506000600267ffffffffffffffff8111156109bd576109bc613584565b5b6040519080825280602002602001820160405280156109f057816020015b60608152602001906001900390816109db5790505b509050816000018054610a0290613a26565b80601f0160208091040260200160405190810160405280929190818152602001828054610a2e90613a26565b8015610a7b5780601f10610a5057610100808354040283529160200191610a7b565b820191906000526020600020905b815481529060010190602001808311610a5e57829003601f168201915b505050505081600081518110610a9457610a93613d48565b5b6020026020010181905250610aac8260010154612353565b81600181518110610ac057610abf613d48565b5b602002602001018190525060006040518060400160405280600f81526020017f246e616d65242024706f696e747324000000000000000000000000000000000081525090506000600960009054906101000a900473ffffffffffffffffffffffffffffffffffffffff1673ffffffffffffffffffffffffffffffffffffffff166304d5d06c6040518163ffffffff1660e01b8152600401602060405180830381865afa158015610b74573d6000803e3d6000fd5b505050506040513d601f19601f82011682018060405250810190610b989190613d8c565b9050600960009054906101000a900473ffffffffffffffffffffffffffffffffffffffff1673ffffffffffffffffffffffffffffffffffffffff1663eee6e5738287868660016040518663ffffffff1660e01b8152600401610bfd9493929190613e97565b6000604051808303818588803b158015610c1657600080fd5b505af1158015610c2a573d6000803e3d6000fd5b50505050505050505050565b610c5183838360405180602001604052806000815250611d4f565b505050565b610c5e61309a565b600a60008373ffffffffffffffffffffffffffffffffffffffff1673ffffffffffffffffffffffffffffffffffffffff168152602001908152602001600020604051806080016040529081600082018054610cb890613a26565b80601f0160208091040260200160405190810160405280929190818152602001828054610ce490613a26565b8015610d315780601f10610d0657610100808354040283529160200191610d31565b820191906000526020600020905b815481529060010190602001808311610d1457829003601f168201915b5050505050815260200160018201548152602001600282015481526020016003820160009054906101000a900460ff1615151515815250509050919050565b600080610d7c83612421565b9050600073ffffffffffffffffffffffffffffffffffffffff168173ffffffffffffffffffffffffffffffffffffffff1603610ded576040517f08c379a0000000000000000000000000000000000000000000000000000000008152600401610de490613f36565b60405180910390fd5b80915050919050565b600960009054906101000a900473ffffffffffffffffffffffffffffffffffffffff1673ffffffffffffffffffffffffffffffffffffffff16610e37612022565b73ffffffffffffffffffffffffffffffffffffffff1614610e8d576040517f08c379a0000000000000000000000000000000000000000000000000000000008152600401610e8490613fa2565b60405180910390fd5b60008082806020019051810190610ea49190614032565b91509150610eb2868661245e565b83600860008781526020019081526020016000209081610ed2919061423a565b5081600a60008873ffffffffffffffffffffffffffffffffffffffff1673ffffffffffffffffffffffffffffffffffffffff1681526020019081526020016000206000019081610f22919061423a565b5080600a60008873ffffffffffffffffffffffffffffffffffffffff1673ffffffffffffffffffffffffffffffffffffffff1681526020019081526020016000206001018190555084600a60008873ffffffffffffffffffffffffffffffffffffffff1673ffffffffffffffffffffffffffffffffffffffff168152602001908152602001600020600201819055505050505050505050565b60008073ffffffffffffffffffffffffffffffffffffffff168273ffffffffffffffffffffffffffffffffffffffff160361102b576040517f08c379a00000000000000000000000000000000000000000000000000000000081526004016110229061437e565b60405180910390fd5b600360008373ffffffffffffffffffffffffffffffffffffffff1673ffffffffffffffffffffffffffffffffffffffff168152602001908152602001600020549050919050565b61107a6122d5565b611084600061267b565b565b6000600660009054906101000a900473ffffffffffffffffffffffffffffffffffffffff16905090565b600960009054906101000a900473ffffffffffffffffffffffffffffffffffffffff1673ffffffffffffffffffffffffffffffffffffffff166110f1612022565b73ffffffffffffffffffffffffffffffffffffffff1614611147576040517f08c379a000000000000000000000000000000000000000000000000000000000815260040161113e90613fa2565b60405180910390fd5b8060086000600a60008673ffffffffffffffffffffffffffffffffffffffff1673ffffffffffffffffffffffffffffffffffffffff16815260200190815260200160002060020154815260200190815260200160002090816111a9919061423a565b505050565b6060600180546111bd90613a26565b80601f01602080910402602001604051908101604052809291908181526020018280546111e990613a26565b80156112365780601f1061120b57610100808354040283529160200191611236565b820191906000526020600020905b81548152906001019060200180831161121957829003601f168201915b5050505050905090565b6112486122d5565b6000600a60008373ffffffffffffffffffffffffffffffffffffffff1673ffffffffffffffffffffffffffffffffffffffff16815260200190815260200160002090508060030160009054906101000a900460ff166112dc576040517f08c379a00000000000000000000000000000000000000000000000000000000081526004016112d390613c59565b60405180910390fd5b600581600101546112ed919061439e565b81600101819055506000600267ffffffffffffffff81111561131257611311613584565b5b60405190808252806020026020018201604052801561134557816020015b60608152602001906001900390816113305790505b50905081600001805461135790613a26565b80601f016020809104026020016040519081016040528092919081815260200182805461138390613a26565b80156113d05780601f106113a5576101008083540402835291602001916113d0565b820191906000526020600020905b8154815290600101906020018083116113b357829003601f168201915b5050505050816000815181106113e9576113e8613d48565b5b60200260200101819052506114018260010154612353565b8160018151811061141557611414613d48565b5b602002602001018190525060006040518060400160405280600f81526020017f246e616d65242024706f696e747324000000000000000000000000000000000081525090506000600960009054906101000a900473ffffffffffffffffffffffffffffffffffffffff1673ffffffffffffffffffffffffffffffffffffffff166304d5d06c6040518163ffffffff1660e01b8152600401602060405180830381865afa1580156114c9573d6000803e3d6000fd5b505050506040513d601f19601f820116820180604052508101906114ed9190613d8c565b9050600960009054906101000a900473ffffffffffffffffffffffffffffffffffffffff1673ffffffffffffffffffffffffffffffffffffffff1663eee6e5738287868660006040518663ffffffff1660e01b81526004016115529493929190613e97565b6000604051808303818588803b15801561156b57600080fd5b505af115801561157f573d6000803e3d6000fd5b50505050505050505050565b61159d611596612022565b8383612741565b5050565b60006115ab612022565b90506000600a60008373ffffffffffffffffffffffffffffffffffffffff1673ffffffffffffffffffffffffffffffffffffffff16815260200190815260200160002060405180608001604052908160008201805461160990613a26565b80601f016020809104026020016040519081016040528092919081815260200182805461163590613a26565b80156116825780601f1061165757610100808354040283529160200191611682565b820191906000526020600020905b81548152906001019060200180831161166557829003601f168201915b5050505050815260200160018201548152602001600282015481526020016003820160009054906101000a900460ff16151515158152505090508060600151611700576040517f08c379a00000000000000000000000000000000000000000000000000000000081526004016116f79061441e565b60405180910390fd5b600030905060006008600084604001518152602001908152602001600020805461172990613a26565b80601f016020809104026020016040519081016040528092919081815260200182805461175590613a26565b80156117a25780601f10611777576101008083540402835291602001916117a2565b820191906000526020600020905b81548152906001019060200180831161178557829003601f168201915b505050505090506000836000015184602001516040516020016117c692919061443e565b60405160208183030381529060405290506000600960009054906101000a900473ffffffffffffffffffffffffffffffffffffffff1673ffffffffffffffffffffffffffffffffffffffff166348f5630b6040518163ffffffff1660e01b8152600401602060405180830381865afa158015611846573d6000803e3d6000fd5b505050506040513d601f19601f8201168201806040525081019061186a9190613d8c565b9050600960009054906101000a900473ffffffffffffffffffffffffffffffffffffffff1673ffffffffffffffffffffffffffffffffffffffff16638d6dc0eb8289878a8a6040015189896040518863ffffffff1660e01b81526004016118d6969594939291906144d2565b6000604051808303818588803b1580156118ef57600080fd5b505af1158015611903573d6000803e3d6000fd5b505050505061191585604001516128ad565b6008600086604001518152602001908152602001600020600061193891906130c4565b600a60008773ffffffffffffffffffffffffffffffffffffffff1673ffffffffffffffffffffffffffffffffffffffff1681526020019081526020016000206000808201600061198891906130c4565b600182016000905560028201600090556003820160006101000a81549060ff0219169055505050505050505050565b6000600a60008473ffffffffffffffffffffffffffffffffffffffff1673ffffffffffffffffffffffffffffffffffffffff16815260200190815260200160002090508060030160009054906101000a900460ff1615611a4c576040517f08c379a0000000000000000000000000000000000000000000000000000000008152600401611a439061458d565b60405180910390fd5b81816000019081611a5d919061423a565b506005816001018190555060018160030160006101000a81548160ff02191690831515021790555060076000815480929190611a98906145ad565b919050555060006007549050611aae848261245e565b8082600201819055506000600267ffffffffffffffff811115611ad457611ad3613584565b5b604051908082528060200260200182016040528015611b0757816020015b6060815260200190600190039081611af25790505b509050826000018054611b1990613a26565b80601f0160208091040260200160405190810160405280929190818152602001828054611b4590613a26565b8015611b925780601f10611b6757610100808354040283529160200191611b92565b820191906000526020600020905b815481529060010190602001808311611b7557829003601f168201915b505050505081600081518110611bab57611baa613d48565b5b6020026020010181905250611bc38360010154612353565b81600181518110611bd757611bd6613d48565b5b602002602001018190525060006040518060400160405280600f81526020017f246e616d65242024706f696e747324000000000000000000000000000000000081525090506000600960009054906101000a900473ffffffffffffffffffffffffffffffffffffffff1673ffffffffffffffffffffffffffffffffffffffff166304d5d06c6040518163ffffffff1660e01b8152600401602060405180830381865afa158015611c8b573d6000803e3d6000fd5b505050506040513d601f19601f82011682018060405250810190611caf9190613d8c565b9050600960009054906101000a900473ffffffffffffffffffffffffffffffffffffffff1673ffffffffffffffffffffffffffffffffffffffff1663eee6e5738289868660006040518663ffffffff1660e01b8152600401611d149493929190613e97565b6000604051808303818588803b158015611d2d57600080fd5b505af1158015611d41573d6000803e3d6000fd5b505050505050505050505050565b611d60611d5a612022565b836120e3565b611d9f576040517f08c379a0000000000000000000000000000000000000000000000000000000008152600401611d9690613bed565b60405180910390fd5b611dab848484846129fb565b50505050565b6060600860008381526020019081526020016000208054611dd190613a26565b80601f0160208091040260200160405190810160405280929190818152602001828054611dfd90613a26565b8015611e4a5780601f10611e1f57610100808354040283529160200191611e4a565b820191906000526020600020905b815481529060010190602001808311611e2d57829003601f168201915b50505050509050919050565b6000600560008473ffffffffffffffffffffffffffffffffffffffff1673ffffffffffffffffffffffffffffffffffffffff16815260200190815260200160002060008373ffffffffffffffffffffffffffffffffffffffff1673ffffffffffffffffffffffffffffffffffffffff16815260200190815260200160002060009054906101000a900460ff16905092915050565b611ef26122d5565b600073ffffffffffffffffffffffffffffffffffffffff168173ffffffffffffffffffffffffffffffffffffffff1603611f61576040517f08c379a0000000000000000000000000000000000000000000000000000000008152600401611f5890614667565b60405180910390fd5b611f6a8161267b565b50565b60007f01ffc9a7000000000000000000000000000000000000000000000000000000007bffffffffffffffffffffffffffffffffffffffffffffffffffffffff1916827bffffffffffffffffffffffffffffffffffffffffffffffffffffffff1916149050919050565b611fe081612a57565b61201f576040517f08c379a000000000000000000000000000000000000000000000000000000000815260040161201690613f36565b60405180910390fd5b50565b600033905090565b816004600083815260200190815260200160002060006101000a81548173ffffffffffffffffffffffffffffffffffffffff021916908373ffffffffffffffffffffffffffffffffffffffff160217905550808273ffffffffffffffffffffffffffffffffffffffff1661209d83610d70565b73ffffffffffffffffffffffffffffffffffffffff167f8c5be1e5ebec7d5bd14f71427d1e84f3dd0314c0f7b2291e5b200ac8c7c3b92560405160405180910390a45050565b6000806120ef83610d70565b90508073ffffffffffffffffffffffffffffffffffffffff168473ffffffffffffffffffffffffffffffffffffffff16148061213157506121308185611e56565b5b8061216f57508373ffffffffffffffffffffffffffffffffffffffff16612157846106e6565b73ffffffffffffffffffffffffffffffffffffffff16145b91505092915050565b6000600a60008473ffffffffffffffffffffffffffffffffffffffff1673ffffffffffffffffffffffffffffffffffffffff16815260200190815260200160002090508060030160009054906101000a900460ff161561220d576040517f08c379a0000000000000000000000000000000000000000000000000000000008152600401612204906146d3565b60405180910390fd5b600a60008573ffffffffffffffffffffffffffffffffffffffff1673ffffffffffffffffffffffffffffffffffffffff1681526020019081526020016000209050600a60008573ffffffffffffffffffffffffffffffffffffffff1673ffffffffffffffffffffffffffffffffffffffff1681526020019081526020016000206000808201600061229e91906130c4565b600182016000905560028201600090556003820160006101000a81549060ff021916905550506122cf848484612a98565b50505050565b6122dd612022565b73ffffffffffffffffffffffffffffffffffffffff166122fb611086565b73ffffffffffffffffffffffffffffffffffffffff1614612351576040517f08c379a00000000000000000000000000000000000000000000000000000000081526004016123489061473f565b60405180910390fd5b565b60606000600161236284612d91565b01905060008167ffffffffffffffff81111561238157612380613584565b5b6040519080825280601f01601f1916602001820160405280156123b35781602001600182028036833780820191505090505b509050600082602001820190505b600115612416578080600190039150507f3031323334353637383961626364656600000000000000000000000000000000600a86061a8153600a858161240a5761240961475f565b5b049450600085036123c1575b819350505050919050565b60006002600083815260200190815260200160002060009054906101000a900473ffffffffffffffffffffffffffffffffffffffff169050919050565b600073ffffffffffffffffffffffffffffffffffffffff168273ffffffffffffffffffffffffffffffffffffffff16036124cd576040517f08c379a00000000000000000000000000000000000000000000000000000000081526004016124c4906147da565b60405180910390fd5b6124d681612a57565b15612516576040517f08c379a000000000000000000000000000000000000000000000000000000000815260040161250d90614846565b60405180910390fd5b612524600083836001612ee4565b61252d81612a57565b1561256d576040517f08c379a000000000000000000000000000000000000000000000000000000000815260040161256490614846565b60405180910390fd5b6001600360008473ffffffffffffffffffffffffffffffffffffffff1673ffffffffffffffffffffffffffffffffffffffff16815260200190815260200160002060008282540192505081905550816002600083815260200190815260200160002060006101000a81548173ffffffffffffffffffffffffffffffffffffffff021916908373ffffffffffffffffffffffffffffffffffffffff160217905550808273ffffffffffffffffffffffffffffffffffffffff16600073ffffffffffffffffffffffffffffffffffffffff167fddf252ad1be2c89b69c2b068fc378daa952ba7f163c4a11628f55a4df523b3ef60405160405180910390a4612677600083836001612eea565b5050565b6000600660009054906101000a900473ffffffffffffffffffffffffffffffffffffffff16905081600660006101000a81548173ffffffffffffffffffffffffffffffffffffffff021916908373ffffffffffffffffffffffffffffffffffffffff1602179055508173ffffffffffffffffffffffffffffffffffffffff168173ffffffffffffffffffffffffffffffffffffffff167f8be0079c531659141344cd1fd0a4f28419497f9722a3daafe3b4186f6b6457e060405160405180910390a35050565b8173ffffffffffffffffffffffffffffffffffffffff168373ffffffffffffffffffffffffffffffffffffffff16036127af576040517f08c379a00000000000000000000000000000000000000000000000000000000081526004016127a6906148b2565b60405180910390fd5b80600560008573ffffffffffffffffffffffffffffffffffffffff1673ffffffffffffffffffffffffffffffffffffffff16815260200190815260200160002060008473ffffffffffffffffffffffffffffffffffffffff1673ffffffffffffffffffffffffffffffffffffffff16815260200190815260200160002060006101000a81548160ff0219169083151502179055508173ffffffffffffffffffffffffffffffffffffffff168373ffffffffffffffffffffffffffffffffffffffff167f17307eab39ab6107e8899845ad3d59bd9653f200f220920489ca2b5937696c31836040516128a091906131d5565b60405180910390a3505050565b60006128b882610d70565b90506128c8816000846001612ee4565b6128d182610d70565b90506004600083815260200190815260200160002060006101000a81549073ffffffffffffffffffffffffffffffffffffffff02191690556001600360008373ffffffffffffffffffffffffffffffffffffffff1673ffffffffffffffffffffffffffffffffffffffff168152602001908152602001600020600082825403925050819055506002600083815260200190815260200160002060006101000a81549073ffffffffffffffffffffffffffffffffffffffff021916905581600073ffffffffffffffffffffffffffffffffffffffff168273ffffffffffffffffffffffffffffffffffffffff167fddf252ad1be2c89b69c2b068fc378daa952ba7f163c4a11628f55a4df523b3ef60405160405180910390a46129f7816000846001612eea565b5050565b612a06848484612178565b612a1284848484612ef0565b612a51576040517f08c379a0000000000000000000000000000000000000000000000000000000008152600401612a4890614944565b60405180910390fd5b50505050565b60008073ffffffffffffffffffffffffffffffffffffffff16612a7983612421565b73ffffffffffffffffffffffffffffffffffffffff1614159050919050565b8273ffffffffffffffffffffffffffffffffffffffff16612ab882610d70565b73ffffffffffffffffffffffffffffffffffffffff1614612b0e576040517f08c379a0000000000000000000000000000000000000000000000000000000008152600401612b05906149d6565b60405180910390fd5b600073ffffffffffffffffffffffffffffffffffffffff168273ffffffffffffffffffffffffffffffffffffffff1603612b7d576040517f08c379a0000000000000000000000000000000000000000000000000000000008152600401612b7490614a68565b60405180910390fd5b612b8a8383836001612ee4565b8273ffffffffffffffffffffffffffffffffffffffff16612baa82610d70565b73ffffffffffffffffffffffffffffffffffffffff1614612c00576040517f08c379a0000000000000000000000000000000000000000000000000000000008152600401612bf7906149d6565b60405180910390fd5b6004600082815260200190815260200160002060006101000a81549073ffffffffffffffffffffffffffffffffffffffff02191690556001600360008573ffffffffffffffffffffffffffffffffffffffff1673ffffffffffffffffffffffffffffffffffffffff168152602001908152602001600020600082825403925050819055506001600360008473ffffffffffffffffffffffffffffffffffffffff1673ffffffffffffffffffffffffffffffffffffffff16815260200190815260200160002060008282540192505081905550816002600083815260200190815260200160002060006101000a81548173ffffffffffffffffffffffffffffffffffffffff021916908373ffffffffffffffffffffffffffffffffffffffff160217905550808273ffffffffffffffffffffffffffffffffffffffff168473ffffffffffffffffffffffffffffffffffffffff167fddf252ad1be2c89b69c2b068fc378daa952ba7f163c4a11628f55a4df523b3ef60405160405180910390a4612d8c8383836001612eea565b505050565b600080600090507a184f03e93ff9f4daa797ed6e38ed64bf6a1f0100000000000000008310612def577a184f03e93ff9f4daa797ed6e38ed64bf6a1f0100000000000000008381612de557612de461475f565b5b0492506040810190505b6d04ee2d6d415b85acef81000000008310612e2c576d04ee2d6d415b85acef81000000008381612e2257612e2161475f565b5b0492506020810190505b662386f26fc100008310612e5b57662386f26fc100008381612e5157612e5061475f565b5b0492506010810190505b6305f5e1008310612e84576305f5e1008381612e7a57612e7961475f565b5b0492506008810190505b6127108310612ea9576127108381612e9f57612e9e61475f565b5b0492506004810190505b60648310612ecc5760648381612ec257612ec161475f565b5b0492506002810190505b600a8310612edb576001810190505b80915050919050565b50505050565b50505050565b6000612f118473ffffffffffffffffffffffffffffffffffffffff16613077565b1561306a578373ffffffffffffffffffffffffffffffffffffffff1663150b7a02612f3a612022565b8786866040518563ffffffff1660e01b8152600401612f5c9493929190614a88565b6020604051808303816000875af1925050508015612f9857506040513d601f19601f82011682018060405250810190612f959190614ae9565b60015b61301a573d8060008114612fc8576040519150601f19603f3d011682016040523d82523d6000602084013e612fcd565b606091505b506000815103613012576040517f08c379a000000000000000000000000000000000000000000000000000000000815260040161300990614944565b60405180910390fd5b805181602001fd5b63150b7a0260e01b7bffffffffffffffffffffffffffffffffffffffffffffffffffffffff1916817bffffffffffffffffffffffffffffffffffffffffffffffffffffffff19161491505061306f565b600190505b949350505050565b6000808273ffffffffffffffffffffffffffffffffffffffff163b119050919050565b60405180608001604052806060815260200160008152602001600081526020016000151581525090565b5080546130d090613a26565b6000825580601f106130e25750613101565b601f0160209004906000526020600020908101906131009190613104565b5b50565b5b8082111561311d576000816000905550600101613105565b5090565b6000604051905090565b600080fd5b600080fd5b60007fffffffff0000000000000000000000000000000000000000000000000000000082169050919050565b61316a81613135565b811461317557600080fd5b50565b60008135905061318781613161565b92915050565b6000602082840312156131a3576131a261312b565b5b60006131b184828501613178565b91505092915050565b60008115159050919050565b6131cf816131ba565b82525050565b60006020820190506131ea60008301846131c6565b92915050565b600081519050919050565b600082825260208201905092915050565b60005b8381101561322a57808201518184015260208101905061320f565b60008484015250505050565b6000601f19601f8301169050919050565b6000613252826131f0565b61325c81856131fb565b935061326c81856020860161320c565b61327581613236565b840191505092915050565b6000602082019050818103600083015261329a8184613247565b905092915050565b6000819050919050565b6132b5816132a2565b81146132c057600080fd5b50565b6000813590506132d2816132ac565b92915050565b6000602082840312156132ee576132ed61312b565b5b60006132fc848285016132c3565b91505092915050565b600073ffffffffffffffffffffffffffffffffffffffff82169050919050565b600061333082613305565b9050919050565b61334081613325565b82525050565b600060208201905061335b6000830184613337565b92915050565b61336a81613325565b811461337557600080fd5b50565b60008135905061338781613361565b92915050565b600080604083850312156133a4576133a361312b565b5b60006133b285828601613378565b92505060206133c3858286016132c3565b9150509250929050565b6000806000606084860312156133e6576133e561312b565b5b60006133f486828701613378565b935050602061340586828701613378565b9250506040613416868287016132c3565b9150509250925092565b6000602082840312156134365761343561312b565b5b600061344484828501613378565b91505092915050565b600082825260208201905092915050565b6000613469826131f0565b613473818561344d565b935061348381856020860161320c565b61348c81613236565b840191505092915050565b6134a0816132a2565b82525050565b6134af816131ba565b82525050565b600060808301600083015184820360008601526134d2828261345e565b91505060208301516134e76020860182613497565b5060408301516134fa6040860182613497565b50606083015161350d60608601826134a6565b508091505092915050565b6000602082019050818103600083015261353281846134b5565b905092915050565b600067ffffffffffffffff82169050919050565b6135578161353a565b811461356257600080fd5b50565b6000813590506135748161354e565b92915050565b600080fd5b600080fd5b7f4e487b7100000000000000000000000000000000000000000000000000000000600052604160045260246000fd5b6135bc82613236565b810181811067ffffffffffffffff821117156135db576135da613584565b5b80604052505050565b60006135ee613121565b90506135fa82826135b3565b919050565b600067ffffffffffffffff82111561361a57613619613584565b5b61362382613236565b9050602081019050919050565b82818337600083830152505050565b600061365261364d846135ff565b6135e4565b90508281526020810184848401111561366e5761366d61357f565b5b613679848285613630565b509392505050565b600082601f8301126136965761369561357a565b5b81356136a684826020860161363f565b91505092915050565b600067ffffffffffffffff8211156136ca576136c9613584565b5b6136d382613236565b9050602081019050919050565b60006136f36136ee846136af565b6135e4565b90508281526020810184848401111561370f5761370e61357f565b5b61371a848285613630565b509392505050565b600082601f8301126137375761373661357a565b5b81356137478482602086016136e0565b91505092915050565b60008060008060008060c0878903121561376d5761376c61312b565b5b600061377b89828a01613565565b965050602061378c89828a01613378565b955050604061379d89828a01613378565b94505060606137ae89828a016132c3565b935050608087013567ffffffffffffffff8111156137cf576137ce613130565b5b6137db89828a01613681565b92505060a087013567ffffffffffffffff8111156137fc576137fb613130565b5b61380889828a01613722565b9150509295509295509295565b61381e816132a2565b82525050565b60006020820190506138396000830184613815565b92915050565b600080604083850312156138565761385561312b565b5b600061386485828601613378565b925050602083013567ffffffffffffffff81111561388557613884613130565b5b61389185828601613681565b9150509250929050565b6138a4816131ba565b81146138af57600080fd5b50565b6000813590506138c18161389b565b92915050565b600080604083850312156138de576138dd61312b565b5b60006138ec85828601613378565b92505060206138fd858286016138b2565b9150509250929050565b60006020828403121561391d5761391c61312b565b5b600061392b84828501613565565b91505092915050565b6000806000806080858703121561394e5761394d61312b565b5b600061395c87828801613378565b945050602061396d87828801613378565b935050604061397e878288016132c3565b925050606085013567ffffffffffffffff81111561399f5761399e613130565b5b6139ab87828801613722565b91505092959194509250565b600080604083850312156139ce576139cd61312b565b5b60006139dc85828601613378565b92505060206139ed85828601613378565b9150509250929050565b7f4e487b7100000000000000000000000000000000000000000000000000000000600052602260045260246000fd5b60006002820490506001821680613a3e57607f821691505b602082108103613a5157613a506139f7565b5b50919050565b7f4552433732313a20617070726f76616c20746f2063757272656e74206f776e6560008201527f7200000000000000000000000000000000000000000000000000000000000000602082015250565b6000613ab36021836131fb565b9150613abe82613a57565b604082019050919050565b60006020820190508181036000830152613ae281613aa6565b9050919050565b7f4552433732313a20617070726f76652063616c6c6572206973206e6f7420746f60008201527f6b656e206f776e6572206f7220617070726f76656420666f7220616c6c000000602082015250565b6000613b45603d836131fb565b9150613b5082613ae9565b604082019050919050565b60006020820190508181036000830152613b7481613b38565b9050919050565b7f4552433732313a2063616c6c6572206973206e6f7420746f6b656e206f776e6560008201527f72206f7220617070726f76656400000000000000000000000000000000000000602082015250565b6000613bd7602d836131fb565b9150613be282613b7b565b604082019050919050565b60006020820190508181036000830152613c0681613bca565b9050919050565b7f437265617465207468697320706c617965722066697273740000000000000000600082015250565b6000613c436018836131fb565b9150613c4e82613c0d565b602082019050919050565b60006020820190508181036000830152613c7281613c36565b9050919050565b7f416c7265616479206465666561746564203a2900000000000000000000000000600082015250565b6000613caf6013836131fb565b9150613cba82613c79565b602082019050919050565b60006020820190508181036000830152613cde81613ca2565b9050919050565b7f4e487b7100000000000000000000000000000000000000000000000000000000600052601160045260246000fd5b6000613d1f826132a2565b9150613d2a836132a2565b9250828203905081811115613d4257613d41613ce5565b5b92915050565b7f4e487b7100000000000000000000000000000000000000000000000000000000600052603260045260246000fd5b600081519050613d86816132ac565b92915050565b600060208284031215613da257613da161312b565b5b6000613db084828501613d77565b91505092915050565b600081519050919050565b600082825260208201905092915050565b6000819050602082019050919050565b6000613df1838361345e565b905092915050565b6000602082019050919050565b6000613e1182613db9565b613e1b8185613dc4565b935083602082028501613e2d85613dd5565b8060005b85811015613e695784840389528151613e4a8582613de5565b9450613e5583613df9565b925060208a01995050600181019050613e31565b50829750879550505050505092915050565b600060ff82169050919050565b613e9181613e7b565b82525050565b6000608082019050613eac6000830187613337565b8181036020830152613ebe8186613e06565b90508181036040830152613ed28185613247565b9050613ee16060830184613e88565b95945050505050565b7f4552433732313a20696e76616c696420746f6b656e2049440000000000000000600082015250565b6000613f206018836131fb565b9150613f2b82613eea565b602082019050919050565b60006020820190508181036000830152613f4f81613f13565b9050919050565b7f556e417574686f72697a65640000000000000000000000000000000000000000600082015250565b6000613f8c600c836131fb565b9150613f9782613f56565b602082019050919050565b60006020820190508181036000830152613fbb81613f7f565b9050919050565b6000613fd5613fd0846135ff565b6135e4565b905082815260208101848484011115613ff157613ff061357f565b5b613ffc84828561320c565b509392505050565b600082601f8301126140195761401861357a565b5b8151614029848260208601613fc2565b91505092915050565b600080604083850312156140495761404861312b565b5b600083015167ffffffffffffffff81111561406757614066613130565b5b61407385828601614004565b925050602061408485828601613d77565b9150509250929050565b60008190508160005260206000209050919050565b60006020601f8301049050919050565b600082821b905092915050565b6000600883026140f07fffffffffffffffffffffffffffffffffffffffffffffffffffffffffffffffff826140b3565b6140fa86836140b3565b95508019841693508086168417925050509392505050565b6000819050919050565b600061413761413261412d846132a2565b614112565b6132a2565b9050919050565b6000819050919050565b6141518361411c565b61416561415d8261413e565b8484546140c0565b825550505050565b600090565b61417a61416d565b614185818484614148565b505050565b5b818110156141a95761419e600082614172565b60018101905061418b565b5050565b601f8211156141ee576141bf8161408e565b6141c8846140a3565b810160208510156141d7578190505b6141eb6141e3856140a3565b83018261418a565b50505b505050565b600082821c905092915050565b6000614211600019846008026141f3565b1980831691505092915050565b600061422a8383614200565b9150826002028217905092915050565b614243826131f0565b67ffffffffffffffff81111561425c5761425b613584565b5b6142668254613a26565b6142718282856141ad565b600060209050601f8311600181146142a45760008415614292578287015190505b61429c858261421e565b865550614304565b601f1984166142b28661408e565b60005b828110156142da578489015182556001820191506020850194506020810190506142b5565b868310156142f757848901516142f3601f891682614200565b8355505b6001600288020188555050505b505050505050565b7f4552433732313a2061646472657373207a65726f206973206e6f74206120766160008201527f6c6964206f776e65720000000000000000000000000000000000000000000000602082015250565b60006143686029836131fb565b91506143738261430c565b604082019050919050565b600060208201905081810360008301526143978161435b565b9050919050565b60006143a9826132a2565b91506143b4836132a2565b92508282019050808211156143cc576143cb613ce5565b5b92915050565b7f506c6179657220646f6573206e6f742065786973747300000000000000000000600082015250565b60006144086016836131fb565b9150614413826143d2565b602082019050919050565b60006020820190508181036000830152614437816143fb565b9050919050565b600060408201905081810360008301526144588185613247565b90506144676020830184613815565b9392505050565b6144778161353a565b82525050565b600081519050919050565b600082825260208201905092915050565b60006144a48261447d565b6144ae8185614488565b93506144be81856020860161320c565b6144c781613236565b840191505092915050565b600060c0820190506144e7600083018961446e565b6144f46020830188613337565b6145016040830187613337565b61450e6060830186613815565b81810360808301526145208185613247565b905081810360a08301526145348184614499565b9050979650505050505050565b7f506c6179657220686173206265656e2063726561746564000000000000000000600082015250565b60006145776017836131fb565b915061458282614541565b602082019050919050565b600060208201905081810360008301526145a68161456a565b9050919050565b60006145b8826132a2565b91507fffffffffffffffffffffffffffffffffffffffffffffffffffffffffffffffff82036145ea576145e9613ce5565b5b600182019050919050565b7f4f776e61626c653a206e6577206f776e657220697320746865207a65726f206160008201527f6464726573730000000000000000000000000000000000000000000000000000602082015250565b60006146516026836131fb565b915061465c826145f5565b604082019050919050565b6000602082019050818103600083015261468081614644565b9050919050565b7f506c6179657220686173207468656972206f776e206163636f756e7400000000600082015250565b60006146bd601c836131fb565b91506146c882614687565b602082019050919050565b600060208201905081810360008301526146ec816146b0565b9050919050565b7f4f776e61626c653a2063616c6c6572206973206e6f7420746865206f776e6572600082015250565b60006147296020836131fb565b9150614734826146f3565b602082019050919050565b600060208201905081810360008301526147588161471c565b9050919050565b7f4e487b7100000000000000000000000000000000000000000000000000000000600052601260045260246000fd5b7f4552433732313a206d696e7420746f20746865207a65726f2061646472657373600082015250565b60006147c46020836131fb565b91506147cf8261478e565b602082019050919050565b600060208201905081810360008301526147f3816147b7565b9050919050565b7f4552433732313a20746f6b656e20616c7265616479206d696e74656400000000600082015250565b6000614830601c836131fb565b915061483b826147fa565b602082019050919050565b6000602082019050818103600083015261485f81614823565b9050919050565b7f4552433732313a20617070726f766520746f2063616c6c657200000000000000600082015250565b600061489c6019836131fb565b91506148a782614866565b602082019050919050565b600060208201905081810360008301526148cb8161488f565b9050919050565b7f4552433732313a207472616e7366657220746f206e6f6e20455243373231526560008201527f63656976657220696d706c656d656e7465720000000000000000000000000000602082015250565b600061492e6032836131fb565b9150614939826148d2565b604082019050919050565b6000602082019050818103600083015261495d81614921565b9050919050565b7f4552433732313a207472616e736665722066726f6d20696e636f72726563742060008201527f6f776e6572000000000000000000000000000000000000000000000000000000602082015250565b60006149c06025836131fb565b91506149cb82614964565b604082019050919050565b600060208201905081810360008301526149ef816149b3565b9050919050565b7f4552433732313a207472616e7366657220746f20746865207a65726f2061646460008201527f7265737300000000000000000000000000000000000000000000000000000000602082015250565b6000614a526024836131fb565b9150614a5d826149f6565b604082019050919050565b60006020820190508181036000830152614a8181614a45565b9050919050565b6000608082019050614a9d6000830187613337565b614aaa6020830186613337565b614ab76040830185613815565b8181036060830152614ac98184614499565b905095945050505050565b600081519050614ae381613161565b92915050565b600060208284031215614aff57614afe61312b565b5b6000614b0d84828501614ad4565b9150509291505056fea2646970667358221220f4a38f9ddb535e4e8b9300d97b2c76172c057b4175c706f6e8b2890daea6f49b64736f6c63430008130033",
  "immutableReferences": {},
  "source": "// SPDX-License-Identifier: MIT\r\npragma solidity ^0.8.19;\r\n\r\nimport {IKanvasAvax} from \"../../interfaces/IKanvasAvax.sol\";\r\nimport {IKanvasGame} from \"../../interfaces/IKanvasGame.sol\";\r\nimport {IKanvasInteropGame} from \"../../interfaces/IKanvasInteropGame.sol\";\r\n\r\nimport {Ownable} from \"@openzeppelin/contracts/access/Ownable.sol\";\r\nimport {ERC721} from \"@openzeppelin/contracts/token/ERC721/ERC721.sol\";\r\nimport {Strings} from \"@openzeppelin/contracts/utils/Strings.sol\";\r\n\r\ncontract RockPaperScissors is IKanvasGame, IKanvasInteropGame, ERC721, Ownable {\r\n    uint8 private constant WIN_NFT_TEMPLATE = 0;\r\n    uint8 private constant LOST_NFT_TEMPLATE = 1;\r\n\r\n    uint256 private _tokenId;\r\n\r\n    mapping(uint256 => string) private _tokenURIs;\r\n\r\n    IKanvasAvax private kanvas;\r\n\r\n    struct Player {\r\n        string name;\r\n        uint256 points;\r\n        uint256 tokenId;\r\n        bool created;\r\n    }\r\n\r\n    receive() external payable {}\r\n\r\n    mapping(address => Player) private _players;\r\n\r\n    constructor(\r\n        address kanvasRouter\r\n    ) ERC721(\"RockPaperScissors\", \"RPS\") IKanvasGame() Ownable() {\r\n        kanvas = IKanvasAvax(kanvasRouter);\r\n    }\r\n\r\n    function _transfer(\r\n        address from,\r\n        address to,\r\n        uint256 tokenId\r\n    ) internal override {\r\n        Player storage newPlayer = _players[to];\r\n        // check if receiver has their own account\r\n        require(!newPlayer.created, \"Player has their own account\");\r\n\r\n        // create new player account\r\n        newPlayer = _players[from];\r\n\r\n        // delete sender accounts\r\n        delete _players[from];\r\n\r\n        super._transfer(from, to, tokenId);\r\n    }\r\n\r\n    function createPlayer(address playerId, string memory name) external {\r\n        Player storage player = _players[playerId];\r\n        require(!player.created, \"Player has been created\");\r\n\r\n        player.name = name;\r\n        player.points = 5;\r\n        player.created = true;\r\n\r\n        _tokenId++;\r\n        uint256 tokenId = _tokenId;\r\n\r\n        _mint(playerId, tokenId);\r\n        player.tokenId = tokenId;\r\n\r\n        string[] memory props = new string[](2);\r\n        props[0] = player.name;\r\n        props[1] = Strings.toString(player.points);\r\n\r\n        string memory fields = \"$name$ $points$\";\r\n\r\n        // get URI generating fee\r\n        uint256 fee = kanvas._generateFee();\r\n\r\n        kanvas._generateUri{value: fee}(\r\n            playerId,\r\n            props,\r\n            fields,\r\n            WIN_NFT_TEMPLATE\r\n        );\r\n    }\r\n\r\n    // Retsrns the player struct\r\n    function getPlayer(address playerId) external view returns (Player memory) {\r\n        return _players[playerId];\r\n    }\r\n\r\n    /** Increase player points */\r\n    function upgradePlayer(address playerId) external onlyOwner {\r\n        Player storage player = _players[playerId];\r\n        require(player.created, \"Create this player first\");\r\n\r\n        player.points = player.points + 5;\r\n\r\n        string[] memory props = new string[](2);\r\n        props[0] = player.name;\r\n        props[1] = Strings.toString(player.points);\r\n\r\n        string memory fields = \"$name$ $points$\";\r\n\r\n        // get URI generating fee\r\n        uint256 fee = kanvas._generateFee();\r\n\r\n        kanvas._generateUri{value: fee}(\r\n            playerId,\r\n            props,\r\n            fields,\r\n            WIN_NFT_TEMPLATE\r\n        );\r\n    }\r\n\r\n    /** Reduce player points */\r\n    function downgradePlayer(address playerId) external onlyOwner {\r\n        Player storage player = _players[playerId];\r\n        require(player.created, \"Create this player first\");\r\n        require(player.points >= 1, \"Already defeated :)\");\r\n\r\n        player.points = player.points - 1;\r\n\r\n        string[] memory props = new string[](2);\r\n        props[0] = player.name;\r\n        props[1] = Strings.toString(player.points);\r\n\r\n        string memory fields = \"$name$ $points$\";\r\n\r\n        // get URI generating fee\r\n        uint256 fee = kanvas._generateFee();\r\n\r\n        kanvas._generateUri{value: fee}(\r\n            playerId,\r\n            props,\r\n            fields,\r\n            LOST_NFT_TEMPLATE\r\n        );\r\n    }\r\n\r\n    /** Bridge game Nft function */\r\n    function transferTo(uint64 chainSelector) external payable {\r\n        address playerId = _msgSender();\r\n        Player memory player = _players[playerId];\r\n        require(player.created, \"Player does not exists\");\r\n\r\n        address gameId = address(this);\r\n        string memory uri = _tokenURIs[player.tokenId];\r\n\r\n        bytes memory data = abi.encode(player.name, player.points);\r\n\r\n        // get URI generating fee\r\n        uint256 fee = kanvas._bridgeFee();\r\n\r\n        /** Cross chain transfer function */\r\n        kanvas._transferTo{value: fee}(\r\n            chainSelector,\r\n            gameId,\r\n            playerId,\r\n            player.tokenId,\r\n            uri,\r\n            data\r\n        );\r\n\r\n        _burn(player.tokenId);\r\n        delete _tokenURIs[player.tokenId];\r\n\r\n        // player will be deleted when they transfer the game NFT\r\n        delete _players[playerId];\r\n    }\r\n\r\n    /** Cross chain receiver callback function */\r\n    function _receiveFrom(\r\n        uint64 /* chainSelector */,\r\n        address /* gameId */,\r\n        address playerId,\r\n        uint256 tokenId,\r\n        string memory uri,\r\n        bytes memory data\r\n    ) external override {\r\n        require(_msgSender() == address(kanvas), \"UnAuthorized\");\r\n\r\n        (string memory name, uint256 points) = abi.decode(\r\n            data,\r\n            (string, uint256)\r\n        );\r\n\r\n        _mint(playerId, tokenId);\r\n        _tokenURIs[tokenId] = uri;\r\n\r\n        // player will be created when they receive the game NFT\r\n        _players[playerId].name = name;\r\n        _players[playerId].points = points;\r\n\r\n        _players[playerId].tokenId = tokenId;\r\n    }\r\n\r\n    function _receiveUri(\r\n        address playerId,\r\n        string memory uri\r\n    ) external override {\r\n        require(_msgSender() == address(kanvas), \"UnAuthorized\");\r\n        _tokenURIs[_players[playerId].tokenId] = uri;\r\n    }\r\n\r\n    function tokenURI(\r\n        uint256 tokenId\r\n    ) public view virtual override returns (string memory) {\r\n        return _tokenURIs[tokenId];\r\n    }\r\n}\r\n",
  "sourcePath": "C:\\Users\\DELL\\Documents\\kanvas\\blockchain\\contracts\\use-cases\\gaming\\RockPaperScissors.sol",
  "compiler": {
    "name": "solc",
    "version": "0.8.19+commit.7dd6d404.Emscripten.clang"
  },
  "schemaVersion": "3.4.11",
  "updatedAt": "2023-12-08T18:05:42.944Z",
  "devdoc": {
    "events": {
      "Approval(address,address,uint256)": {
        "details": "Emitted when `owner` enables `approved` to manage the `tokenId` token."
      },
      "ApprovalForAll(address,address,bool)": {
        "details": "Emitted when `owner` enables or disables (`approved`) `operator` to manage all of its assets."
      },
      "Transfer(address,address,uint256)": {
        "details": "Emitted when `tokenId` token is transferred from `from` to `to`."
      }
    },
    "kind": "dev",
    "methods": {
      "approve(address,uint256)": {
        "details": "See {IERC721-approve}."
      },
      "balanceOf(address)": {
        "details": "See {IERC721-balanceOf}."
      },
      "getApproved(uint256)": {
        "details": "See {IERC721-getApproved}."
      },
      "isApprovedForAll(address,address)": {
        "details": "See {IERC721-isApprovedForAll}."
      },
      "name()": {
        "details": "See {IERC721Metadata-name}."
      },
      "owner()": {
        "details": "Returns the address of the current owner."
      },
      "ownerOf(uint256)": {
        "details": "See {IERC721-ownerOf}."
      },
      "renounceOwnership()": {
        "details": "Leaves the contract without owner. It will not be possible to call `onlyOwner` functions. Can only be called by the current owner. NOTE: Renouncing ownership will leave the contract without an owner, thereby disabling any functionality that is only available to the owner."
      },
      "safeTransferFrom(address,address,uint256)": {
        "details": "See {IERC721-safeTransferFrom}."
      },
      "safeTransferFrom(address,address,uint256,bytes)": {
        "details": "See {IERC721-safeTransferFrom}."
      },
      "setApprovalForAll(address,bool)": {
        "details": "See {IERC721-setApprovalForAll}."
      },
      "supportsInterface(bytes4)": {
        "details": "See {IERC165-supportsInterface}."
      },
      "symbol()": {
        "details": "See {IERC721Metadata-symbol}."
      },
      "tokenURI(uint256)": {
        "details": "See {IERC721Metadata-tokenURI}."
      },
      "transferFrom(address,address,uint256)": {
        "details": "See {IERC721-transferFrom}."
      },
      "transferOwnership(address)": {
        "details": "Transfers ownership of the contract to a new account (`newOwner`). Can only be called by the current owner."
      }
    },
    "version": 1
  },
  "userdoc": {
    "kind": "user",
    "methods": {
      "_receiveFrom(uint64,address,address,uint256,string,bytes)": {
        "notice": "Cross chain receiver callback function "
      },
      "downgradePlayer(address)": {
        "notice": "Reduce player points "
      },
      "transferTo(uint64)": {
        "notice": "Bridge game Nft function "
      },
      "upgradePlayer(address)": {
        "notice": "Increase player points "
      }
    },
    "version": 1
  }
}