{
  "contractName": "RockPaperScissorsInterop",
  "abi": [
    {
      "inputs": [
        {
          "internalType": "address",
          "name": "kanvasRouter",
          "type": "address"
        },
        {
          "internalType": "address",
          "name": "sourceGameId",
          "type": "address"
        }
      ],
      "stateMutability": "nonpayable",
      "type": "constructor"
    },
    {
      "anonymous": false,
      "inputs": [
        {
          "indexed": true,
          "internalType": "address",
          "name": "owner",
          "type": "address"
        },
        {
          "indexed": true,
          "internalType": "address",
          "name": "approved",
          "type": "address"
        },
        {
          "indexed": true,
          "internalType": "uint256",
          "name": "tokenId",
          "type": "uint256"
        }
      ],
      "name": "Approval",
      "type": "event"
    },
    {
      "anonymous": false,
      "inputs": [
        {
          "indexed": true,
          "internalType": "address",
          "name": "owner",
          "type": "address"
        },
        {
          "indexed": true,
          "internalType": "address",
          "name": "operator",
          "type": "address"
        },
        {
          "indexed": false,
          "internalType": "bool",
          "name": "approved",
          "type": "bool"
        }
      ],
      "name": "ApprovalForAll",
      "type": "event"
    },
    {
      "anonymous": false,
      "inputs": [
        {
          "indexed": true,
          "internalType": "address",
          "name": "previousOwner",
          "type": "address"
        },
        {
          "indexed": true,
          "internalType": "address",
          "name": "newOwner",
          "type": "address"
        }
      ],
      "name": "OwnershipTransferred",
      "type": "event"
    },
    {
      "anonymous": false,
      "inputs": [
        {
          "indexed": true,
          "internalType": "address",
          "name": "from",
          "type": "address"
        },
        {
          "indexed": true,
          "internalType": "address",
          "name": "to",
          "type": "address"
        },
        {
          "indexed": true,
          "internalType": "uint256",
          "name": "tokenId",
          "type": "uint256"
        }
      ],
      "name": "Transfer",
      "type": "event"
    },
    {
      "inputs": [],
      "name": "MAX_PROPERTIES_LEN",
      "outputs": [
        {
          "internalType": "uint256",
          "name": "",
          "type": "uint256"
        }
      ],
      "stateMutability": "view",
      "type": "function"
    },
    {
      "inputs": [
        {
          "internalType": "address",
          "name": "to",
          "type": "address"
        },
        {
          "internalType": "uint256",
          "name": "tokenId",
          "type": "uint256"
        }
      ],
      "name": "approve",
      "outputs": [],
      "stateMutability": "nonpayable",
      "type": "function"
    },
    {
      "inputs": [
        {
          "internalType": "address",
          "name": "owner",
          "type": "address"
        }
      ],
      "name": "balanceOf",
      "outputs": [
        {
          "internalType": "uint256",
          "name": "",
          "type": "uint256"
        }
      ],
      "stateMutability": "view",
      "type": "function"
    },
    {
      "inputs": [
        {
          "internalType": "uint256",
          "name": "tokenId",
          "type": "uint256"
        }
      ],
      "name": "getApproved",
      "outputs": [
        {
          "internalType": "address",
          "name": "",
          "type": "address"
        }
      ],
      "stateMutability": "view",
      "type": "function"
    },
    {
      "inputs": [
        {
          "internalType": "address",
          "name": "owner",
          "type": "address"
        },
        {
          "internalType": "address",
          "name": "operator",
          "type": "address"
        }
      ],
      "name": "isApprovedForAll",
      "outputs": [
        {
          "internalType": "bool",
          "name": "",
          "type": "bool"
        }
      ],
      "stateMutability": "view",
      "type": "function"
    },
    {
      "inputs": [],
      "name": "name",
      "outputs": [
        {
          "internalType": "string",
          "name": "",
          "type": "string"
        }
      ],
      "stateMutability": "view",
      "type": "function"
    },
    {
      "inputs": [],
      "name": "owner",
      "outputs": [
        {
          "internalType": "address",
          "name": "",
          "type": "address"
        }
      ],
      "stateMutability": "view",
      "type": "function"
    },
    {
      "inputs": [
        {
          "internalType": "uint256",
          "name": "tokenId",
          "type": "uint256"
        }
      ],
      "name": "ownerOf",
      "outputs": [
        {
          "internalType": "address",
          "name": "",
          "type": "address"
        }
      ],
      "stateMutability": "view",
      "type": "function"
    },
    {
      "inputs": [],
      "name": "renounceOwnership",
      "outputs": [],
      "stateMutability": "nonpayable",
      "type": "function"
    },
    {
      "inputs": [
        {
          "internalType": "address",
          "name": "from",
          "type": "address"
        },
        {
          "internalType": "address",
          "name": "to",
          "type": "address"
        },
        {
          "internalType": "uint256",
          "name": "tokenId",
          "type": "uint256"
        }
      ],
      "name": "safeTransferFrom",
      "outputs": [],
      "stateMutability": "nonpayable",
      "type": "function"
    },
    {
      "inputs": [
        {
          "internalType": "address",
          "name": "from",
          "type": "address"
        },
        {
          "internalType": "address",
          "name": "to",
          "type": "address"
        },
        {
          "internalType": "uint256",
          "name": "tokenId",
          "type": "uint256"
        },
        {
          "internalType": "bytes",
          "name": "data",
          "type": "bytes"
        }
      ],
      "name": "safeTransferFrom",
      "outputs": [],
      "stateMutability": "nonpayable",
      "type": "function"
    },
    {
      "inputs": [
        {
          "internalType": "address",
          "name": "operator",
          "type": "address"
        },
        {
          "internalType": "bool",
          "name": "approved",
          "type": "bool"
        }
      ],
      "name": "setApprovalForAll",
      "outputs": [],
      "stateMutability": "nonpayable",
      "type": "function"
    },
    {
      "inputs": [
        {
          "internalType": "bytes4",
          "name": "interfaceId",
          "type": "bytes4"
        }
      ],
      "name": "supportsInterface",
      "outputs": [
        {
          "internalType": "bool",
          "name": "",
          "type": "bool"
        }
      ],
      "stateMutability": "view",
      "type": "function"
    },
    {
      "inputs": [],
      "name": "symbol",
      "outputs": [
        {
          "internalType": "string",
          "name": "",
          "type": "string"
        }
      ],
      "stateMutability": "view",
      "type": "function"
    },
    {
      "inputs": [
        {
          "internalType": "uint256",
          "name": "tokenId",
          "type": "uint256"
        }
      ],
      "name": "tokenURI",
      "outputs": [
        {
          "internalType": "string",
          "name": "",
          "type": "string"
        }
      ],
      "stateMutability": "view",
      "type": "function"
    },
    {
      "inputs": [
        {
          "internalType": "address",
          "name": "from",
          "type": "address"
        },
        {
          "internalType": "address",
          "name": "to",
          "type": "address"
        },
        {
          "internalType": "uint256",
          "name": "tokenId",
          "type": "uint256"
        }
      ],
      "name": "transferFrom",
      "outputs": [],
      "stateMutability": "nonpayable",
      "type": "function"
    },
    {
      "inputs": [
        {
          "internalType": "address",
          "name": "newOwner",
          "type": "address"
        }
      ],
      "name": "transferOwnership",
      "outputs": [],
      "stateMutability": "nonpayable",
      "type": "function"
    },
    {
      "inputs": [
        {
          "internalType": "address",
          "name": "playerId",
          "type": "address"
        }
      ],
      "name": "getPlayer",
      "outputs": [
        {
          "components": [
            {
              "internalType": "string",
              "name": "name",
              "type": "string"
            },
            {
              "internalType": "uint256",
              "name": "points",
              "type": "uint256"
            },
            {
              "internalType": "bool",
              "name": "created",
              "type": "bool"
            }
          ],
          "internalType": "struct RockPaperScissorsInterop.Player",
          "name": "",
          "type": "tuple"
        }
      ],
      "stateMutability": "view",
      "type": "function"
    },
    {
      "inputs": [
        {
          "internalType": "address",
          "name": "playerId",
          "type": "address"
        }
      ],
      "name": "upgradePlayer",
      "outputs": [],
      "stateMutability": "nonpayable",
      "type": "function"
    },
    {
      "inputs": [
        {
          "internalType": "address",
          "name": "playerId",
          "type": "address"
        }
      ],
      "name": "downgradePlayer",
      "outputs": [],
      "stateMutability": "nonpayable",
      "type": "function"
    },
    {
      "inputs": [
        {
          "internalType": "uint64",
          "name": "chainSelector",
          "type": "uint64"
        }
      ],
      "name": "transferTo",
      "outputs": [],
      "stateMutability": "payable",
      "type": "function"
    },
    {
      "inputs": [
        {
          "internalType": "uint64",
          "name": "",
          "type": "uint64"
        },
        {
          "internalType": "address",
          "name": "",
          "type": "address"
        },
        {
          "internalType": "address",
          "name": "playerId",
          "type": "address"
        },
        {
          "internalType": "uint256",
          "name": "tokenId",
          "type": "uint256"
        },
        {
          "internalType": "string",
          "name": "uri",
          "type": "string"
        },
        {
          "internalType": "bytes",
          "name": "data",
          "type": "bytes"
        }
      ],
      "name": "_receiveFrom",
      "outputs": [],
      "stateMutability": "nonpayable",
      "type": "function"
    }
  ],
  "bytecode": "0x60806040523480156200001157600080fd5b5060405162004b2638038062004b26833981810160405281019062000037919062000329565b6040518060400160405280601181526020017f526f636b506170657253636973736f72730000000000000000000000000000008152506040518060400160405280600381526020017f52505300000000000000000000000000000000000000000000000000000000008152508160009081620000b49190620005ea565b508060019081620000c69190620005ea565b505050620000e9620000dd620001f160201b60201c565b620001f960201b60201c565b81600a60006101000a81548173ffffffffffffffffffffffffffffffffffffffff021916908373ffffffffffffffffffffffffffffffffffffffff160217905550600a60009054906101000a900473ffffffffffffffffffffffffffffffffffffffff1673ffffffffffffffffffffffffffffffffffffffff1663afd21cfe67ccf0a31a221f3c9b60405180602001604052808573ffffffffffffffffffffffffffffffffffffffff168152506040518363ffffffff1660e01b8152600401620001b592919062000725565b600060405180830381600087803b158015620001d057600080fd5b505af1158015620001e5573d6000803e3d6000fd5b50505050505062000752565b600033905090565b6000600660009054906101000a900473ffffffffffffffffffffffffffffffffffffffff16905081600660006101000a81548173ffffffffffffffffffffffffffffffffffffffff021916908373ffffffffffffffffffffffffffffffffffffffff1602179055508173ffffffffffffffffffffffffffffffffffffffff168173ffffffffffffffffffffffffffffffffffffffff167f8be0079c531659141344cd1fd0a4f28419497f9722a3daafe3b4186f6b6457e060405160405180910390a35050565b600080fd5b600073ffffffffffffffffffffffffffffffffffffffff82169050919050565b6000620002f182620002c4565b9050919050565b6200030381620002e4565b81146200030f57600080fd5b50565b6000815190506200032381620002f8565b92915050565b60008060408385031215620003435762000342620002bf565b5b6000620003538582860162000312565b9250506020620003668582860162000312565b9150509250929050565b600081519050919050565b7f4e487b7100000000000000000000000000000000000000000000000000000000600052604160045260246000fd5b7f4e487b7100000000000000000000000000000000000000000000000000000000600052602260045260246000fd5b60006002820490506001821680620003f257607f821691505b602082108103620004085762000407620003aa565b5b50919050565b60008190508160005260206000209050919050565b60006020601f8301049050919050565b600082821b905092915050565b600060088302620004727fffffffffffffffffffffffffffffffffffffffffffffffffffffffffffffffff8262000433565b6200047e868362000433565b95508019841693508086168417925050509392505050565b6000819050919050565b6000819050919050565b6000620004cb620004c5620004bf8462000496565b620004a0565b62000496565b9050919050565b6000819050919050565b620004e783620004aa565b620004ff620004f682620004d2565b84845462000440565b825550505050565b600090565b6200051662000507565b62000523818484620004dc565b505050565b5b818110156200054b576200053f6000826200050c565b60018101905062000529565b5050565b601f8211156200059a5762000564816200040e565b6200056f8462000423565b810160208510156200057f578190505b620005976200058e8562000423565b83018262000528565b50505b505050565b600082821c905092915050565b6000620005bf600019846008026200059f565b1980831691505092915050565b6000620005da8383620005ac565b9150826002028217905092915050565b620005f58262000370565b67ffffffffffffffff8111156200061157620006106200037b565b5b6200061d8254620003d9565b6200062a8282856200054f565b600060209050601f8311600181146200066257600084156200064d578287015190505b620006598582620005cc565b865550620006c9565b601f19841662000672866200040e565b60005b828110156200069c5784890151825560018201915060208501945060208101905062000675565b86831015620006bc5784890151620006b8601f891682620005ac565b8355505b6001600288020188555050505b505050505050565b600067ffffffffffffffff82169050919050565b620006f081620006d1565b82525050565b6200070181620002e4565b82525050565b6020820160008201516200071f6000850182620006f6565b50505050565b60006040820190506200073c6000830185620006e5565b6200074b602083018462000707565b9392505050565b6143c480620007626000396000f3fe6080604052600436106101355760003560e01c8063715018a6116100ab578063a22cb4651161006f578063a22cb46514610424578063af3ef62e1461044d578063b88d4fde14610469578063c87b56dd14610492578063e985e9c5146104cf578063f2fde38b1461050c57610135565b8063715018a6146103635780638b8ff3581461037a5780638da5cb5b146103a557806395d89b41146103d0578063a06422a7146103fb57610135565b806340f87392116100fd57806340f873921461023157806342842e0e1461025a5780635c12cd4b146102835780636352211e146102c05780636d4195fb146102fd57806370a082311461032657610135565b806301ffc9a71461013a57806306fdde0314610177578063081812fc146101a2578063095ea7b3146101df57806323b872dd14610208575b600080fd5b34801561014657600080fd5b50610161600480360381019061015c9190612aba565b610535565b60405161016e9190612b02565b60405180910390f35b34801561018357600080fd5b5061018c610617565b6040516101999190612bad565b60405180910390f35b3480156101ae57600080fd5b506101c960048036038101906101c49190612c05565b6106a9565b6040516101d69190612c73565b60405180910390f35b3480156101eb57600080fd5b5061020660048036038101906102019190612cba565b6106ef565b005b34801561021457600080fd5b5061022f600480360381019061022a9190612cfa565b610806565b005b34801561023d57600080fd5b5061025860048036038101906102539190612d4d565b610866565b005b34801561026657600080fd5b50610281600480360381019061027c9190612cfa565b610b62565b005b34801561028f57600080fd5b506102aa60048036038101906102a59190612d4d565b610b82565b6040516102b79190612e32565b60405180910390f35b3480156102cc57600080fd5b506102e760048036038101906102e29190612c05565b610c92565b6040516102f49190612c73565b60405180910390f35b34801561030957600080fd5b50610324600480360381019061031f919061306a565b610d18565b005b34801561033257600080fd5b5061034d60048036038101906103489190612d4d565b610e43565b60405161035a919061313e565b60405180910390f35b34801561036f57600080fd5b50610378610efa565b005b34801561038657600080fd5b5061038f610f0e565b60405161039c919061313e565b60405180910390f35b3480156103b157600080fd5b506103ba610f13565b6040516103c79190612c73565b60405180910390f35b3480156103dc57600080fd5b506103e5610f3d565b6040516103f29190612bad565b60405180910390f35b34801561040757600080fd5b50610422600480360381019061041d9190612d4d565b610fcf565b005b34801561043057600080fd5b5061044b60048036038101906104469190613185565b611283565b005b610467600480360381019061046291906131c5565b611299565b005b34801561047557600080fd5b50610490600480360381019061048b91906131f2565b6115cd565b005b34801561049e57600080fd5b506104b960048036038101906104b49190612c05565b61162f565b6040516104c69190612bad565b60405180910390f35b3480156104db57600080fd5b506104f660048036038101906104f19190613275565b611697565b6040516105039190612b02565b60405180910390f35b34801561051857600080fd5b50610533600480360381019061052e9190612d4d565b61172b565b005b60007f80ac58cd000000000000000000000000000000000000000000000000000000007bffffffffffffffffffffffffffffffffffffffffffffffffffffffff1916827bffffffffffffffffffffffffffffffffffffffffffffffffffffffff1916148061060057507f5b5e139f000000000000000000000000000000000000000000000000000000007bffffffffffffffffffffffffffffffffffffffffffffffffffffffff1916827bffffffffffffffffffffffffffffffffffffffffffffffffffffffff1916145b80610610575061060f826117ae565b5b9050919050565b606060008054610626906132e4565b80601f0160208091040260200160405190810160405280929190818152602001828054610652906132e4565b801561069f5780601f106106745761010080835404028352916020019161069f565b820191906000526020600020905b81548152906001019060200180831161068257829003601f168201915b5050505050905090565b60006106b482611818565b6004600083815260200190815260200160002060009054906101000a900473ffffffffffffffffffffffffffffffffffffffff169050919050565b60006106fa82610c92565b90508073ffffffffffffffffffffffffffffffffffffffff168373ffffffffffffffffffffffffffffffffffffffff160361076a576040517f08c379a000000000000000000000000000000000000000000000000000000000815260040161076190613387565b60405180910390fd5b8073ffffffffffffffffffffffffffffffffffffffff16610789611863565b73ffffffffffffffffffffffffffffffffffffffff1614806107b857506107b7816107b2611863565b611697565b5b6107f7576040517f08c379a00000000000000000000000000000000000000000000000000000000081526004016107ee90613419565b60405180910390fd5b610801838361186b565b505050565b610817610811611863565b82611924565b610856576040517f08c379a000000000000000000000000000000000000000000000000000000000815260040161084d906134ab565b60405180910390fd5b6108618383836119b9565b505050565b61086e611bf2565b6000600b60008373ffffffffffffffffffffffffffffffffffffffff1673ffffffffffffffffffffffffffffffffffffffff16815260200190815260200160002090508060020160009054906101000a900460ff16610902576040517f08c379a00000000000000000000000000000000000000000000000000000000081526004016108f990613517565b60405180910390fd5b60018160010154101561094a576040517f08c379a000000000000000000000000000000000000000000000000000000000815260040161094190613583565b60405180910390fd5b6001816001015461095b91906135d2565b81600101819055506000601467ffffffffffffffff8111156109805761097f612e9e565b5b6040519080825280602002602001820160405280156109b357816020015b606081526020019060019003908161099e5790505b5090508160000180546109c5906132e4565b80601f01602080910402602001604051908101604052809291908181526020018280546109f1906132e4565b8015610a3e5780601f10610a1357610100808354040283529160200191610a3e565b820191906000526020600020905b815481529060010190602001808311610a2157829003601f168201915b505050505081600081518110610a5757610a56613606565b5b6020026020010181905250610a6f8260010154611c70565b81600181518110610a8357610a82613606565b5b602002602001018190525060006040518060400160405280601d81526020017f24706c617965725f6e616d65242024706c617965725f706f696e7473240000008152509050600a60009054906101000a900473ffffffffffffffffffffffffffffffffffffffff1673ffffffffffffffffffffffffffffffffffffffff1663eee6e57385848460016040518563ffffffff1660e01b8152600401610b2a9493929190613713565b600060405180830381600087803b158015610b4457600080fd5b505af1158015610b58573d6000803e3d6000fd5b5050505050505050565b610b7d838383604051806020016040528060008152506115cd565b505050565b610b8a6129ce565b600b60008373ffffffffffffffffffffffffffffffffffffffff1673ffffffffffffffffffffffffffffffffffffffff168152602001908152602001600020604051806060016040529081600082018054610be4906132e4565b80601f0160208091040260200160405190810160405280929190818152602001828054610c10906132e4565b8015610c5d5780601f10610c3257610100808354040283529160200191610c5d565b820191906000526020600020905b815481529060010190602001808311610c4057829003601f168201915b50505050508152602001600182015481526020016002820160009054906101000a900460ff1615151515815250509050919050565b600080610c9e83611d3e565b9050600073ffffffffffffffffffffffffffffffffffffffff168173ffffffffffffffffffffffffffffffffffffffff1603610d0f576040517f08c379a0000000000000000000000000000000000000000000000000000000008152600401610d06906137b2565b60405180910390fd5b80915050919050565b60008082806020019051810190610d2f9190613857565b91509150610d3d8686611d7b565b83600860008781526020019081526020016000209081610d5d9190613a5f565b5081600b60008873ffffffffffffffffffffffffffffffffffffffff1673ffffffffffffffffffffffffffffffffffffffff1681526020019081526020016000206000019081610dad9190613a5f565b5080600b60008873ffffffffffffffffffffffffffffffffffffffff1673ffffffffffffffffffffffffffffffffffffffff1681526020019081526020016000206001018190555084600960008873ffffffffffffffffffffffffffffffffffffffff1673ffffffffffffffffffffffffffffffffffffffff168152602001908152602001600020819055505050505050505050565b60008073ffffffffffffffffffffffffffffffffffffffff168273ffffffffffffffffffffffffffffffffffffffff1603610eb3576040517f08c379a0000000000000000000000000000000000000000000000000000000008152600401610eaa90613ba3565b60405180910390fd5b600360008373ffffffffffffffffffffffffffffffffffffffff1673ffffffffffffffffffffffffffffffffffffffff168152602001908152602001600020549050919050565b610f02611bf2565b610f0c6000611f98565b565b601481565b6000600660009054906101000a900473ffffffffffffffffffffffffffffffffffffffff16905090565b606060018054610f4c906132e4565b80601f0160208091040260200160405190810160405280929190818152602001828054610f78906132e4565b8015610fc55780601f10610f9a57610100808354040283529160200191610fc5565b820191906000526020600020905b815481529060010190602001808311610fa857829003601f168201915b5050505050905090565b610fd7611bf2565b6000600b60008373ffffffffffffffffffffffffffffffffffffffff1673ffffffffffffffffffffffffffffffffffffffff16815260200190815260200160002090508060020160009054906101000a900460ff1661106b576040517f08c379a000000000000000000000000000000000000000000000000000000000815260040161106290613517565b60405180910390fd5b6005816001015461107c9190613bc3565b81600101819055506000601467ffffffffffffffff8111156110a1576110a0612e9e565b5b6040519080825280602002602001820160405280156110d457816020015b60608152602001906001900390816110bf5790505b5090508160000180546110e6906132e4565b80601f0160208091040260200160405190810160405280929190818152602001828054611112906132e4565b801561115f5780601f106111345761010080835404028352916020019161115f565b820191906000526020600020905b81548152906001019060200180831161114257829003601f168201915b50505050508160008151811061117857611177613606565b5b60200260200101819052506111908260010154611c70565b816001815181106111a4576111a3613606565b5b602002602001018190525060006040518060400160405280601d81526020017f24706c617965725f6e616d65242024706c617965725f706f696e7473240000008152509050600a60009054906101000a900473ffffffffffffffffffffffffffffffffffffffff1673ffffffffffffffffffffffffffffffffffffffff1663eee6e57385848460006040518563ffffffff1660e01b815260040161124b9493929190613713565b600060405180830381600087803b15801561126557600080fd5b505af1158015611279573d6000803e3d6000fd5b5050505050505050565b61129561128e611863565b838361205e565b5050565b60006112a3611863565b90506000600960008373ffffffffffffffffffffffffffffffffffffffff1673ffffffffffffffffffffffffffffffffffffffff1681526020019081526020016000205490506112f2816121ca565b60086000828152602001908152602001600020600061131191906129f1565b600960008373ffffffffffffffffffffffffffffffffffffffff1673ffffffffffffffffffffffffffffffffffffffff1681526020019081526020016000206000905560003090506000600860008481526020019081526020016000208054611379906132e4565b80601f01602080910402602001604051908101604052809291908181526020018280546113a5906132e4565b80156113f25780601f106113c7576101008083540402835291602001916113f2565b820191906000526020600020905b8154815290600101906020018083116113d557829003601f168201915b505050505090506000600b60008673ffffffffffffffffffffffffffffffffffffffff1673ffffffffffffffffffffffffffffffffffffffff168152602001908152602001600020604051806060016040529081600082018054611455906132e4565b80601f0160208091040260200160405190810160405280929190818152602001828054611481906132e4565b80156114ce5780601f106114a3576101008083540402835291602001916114ce565b820191906000526020600020905b8154815290600101906020018083116114b157829003601f168201915b50505050508152602001600182015481526020016002820160009054906101000a900460ff161515151581525050905060008160000151826020015160405160200161151b929190613bf7565b6040516020818303038152906040529050600a60009054906101000a900473ffffffffffffffffffffffffffffffffffffffff1673ffffffffffffffffffffffffffffffffffffffff16638d6dc0eb3489878a8a89886040518863ffffffff1660e01b815260040161159296959493929190613c8b565b6000604051808303818588803b1580156115ab57600080fd5b505af11580156115bf573d6000803e3d6000fd5b505050505050505050505050565b6115de6115d8611863565b83611924565b61161d576040517f08c379a0000000000000000000000000000000000000000000000000000000008152600401611614906134ab565b60405180910390fd5b61162984848484612318565b50505050565b606061163a82611818565b6000611644612374565b90506000815111611664576040518060200160405280600081525061168f565b8061166e84611c70565b60405160200161167f929190613d36565b6040516020818303038152906040525b915050919050565b6000600560008473ffffffffffffffffffffffffffffffffffffffff1673ffffffffffffffffffffffffffffffffffffffff16815260200190815260200160002060008373ffffffffffffffffffffffffffffffffffffffff1673ffffffffffffffffffffffffffffffffffffffff16815260200190815260200160002060009054906101000a900460ff16905092915050565b611733611bf2565b600073ffffffffffffffffffffffffffffffffffffffff168173ffffffffffffffffffffffffffffffffffffffff16036117a2576040517f08c379a000000000000000000000000000000000000000000000000000000000815260040161179990613dcc565b60405180910390fd5b6117ab81611f98565b50565b60007f01ffc9a7000000000000000000000000000000000000000000000000000000007bffffffffffffffffffffffffffffffffffffffffffffffffffffffff1916827bffffffffffffffffffffffffffffffffffffffffffffffffffffffff1916149050919050565b6118218161238b565b611860576040517f08c379a0000000000000000000000000000000000000000000000000000000008152600401611857906137b2565b60405180910390fd5b50565b600033905090565b816004600083815260200190815260200160002060006101000a81548173ffffffffffffffffffffffffffffffffffffffff021916908373ffffffffffffffffffffffffffffffffffffffff160217905550808273ffffffffffffffffffffffffffffffffffffffff166118de83610c92565b73ffffffffffffffffffffffffffffffffffffffff167f8c5be1e5ebec7d5bd14f71427d1e84f3dd0314c0f7b2291e5b200ac8c7c3b92560405160405180910390a45050565b60008061193083610c92565b90508073ffffffffffffffffffffffffffffffffffffffff168473ffffffffffffffffffffffffffffffffffffffff16148061197257506119718185611697565b5b806119b057508373ffffffffffffffffffffffffffffffffffffffff16611998846106a9565b73ffffffffffffffffffffffffffffffffffffffff16145b91505092915050565b6000600b60008473ffffffffffffffffffffffffffffffffffffffff1673ffffffffffffffffffffffffffffffffffffffff16815260200190815260200160002090508060020160009054906101000a900460ff1615611a4e576040517f08c379a0000000000000000000000000000000000000000000000000000000008152600401611a4590613e38565b60405180910390fd5b81600960008573ffffffffffffffffffffffffffffffffffffffff1673ffffffffffffffffffffffffffffffffffffffff16815260200190815260200160002081905550600b60008573ffffffffffffffffffffffffffffffffffffffff1673ffffffffffffffffffffffffffffffffffffffff168152602001908152602001600020600001816000019081611ae49190613e83565b50600b60008573ffffffffffffffffffffffffffffffffffffffff1673ffffffffffffffffffffffffffffffffffffffff168152602001908152602001600020600101548160010181905550600960008573ffffffffffffffffffffffffffffffffffffffff1673ffffffffffffffffffffffffffffffffffffffff16815260200190815260200160002060009055600b60008573ffffffffffffffffffffffffffffffffffffffff1673ffffffffffffffffffffffffffffffffffffffff16815260200190815260200160002060008082016000611bc391906129f1565b60018201600090556002820160006101000a81549060ff02191690555050611bec8484846123cc565b50505050565b611bfa611863565b73ffffffffffffffffffffffffffffffffffffffff16611c18610f13565b73ffffffffffffffffffffffffffffffffffffffff1614611c6e576040517f08c379a0000000000000000000000000000000000000000000000000000000008152600401611c6590613fb7565b60405180910390fd5b565b606060006001611c7f846126c5565b01905060008167ffffffffffffffff811115611c9e57611c9d612e9e565b5b6040519080825280601f01601f191660200182016040528015611cd05781602001600182028036833780820191505090505b509050600082602001820190505b600115611d33578080600190039150507f3031323334353637383961626364656600000000000000000000000000000000600a86061a8153600a8581611d2757611d26613fd7565b5b04945060008503611cde575b819350505050919050565b60006002600083815260200190815260200160002060009054906101000a900473ffffffffffffffffffffffffffffffffffffffff169050919050565b600073ffffffffffffffffffffffffffffffffffffffff168273ffffffffffffffffffffffffffffffffffffffff1603611dea576040517f08c379a0000000000000000000000000000000000000000000000000000000008152600401611de190614052565b60405180910390fd5b611df38161238b565b15611e33576040517f08c379a0000000000000000000000000000000000000000000000000000000008152600401611e2a906140be565b60405180910390fd5b611e41600083836001612818565b611e4a8161238b565b15611e8a576040517f08c379a0000000000000000000000000000000000000000000000000000000008152600401611e81906140be565b60405180910390fd5b6001600360008473ffffffffffffffffffffffffffffffffffffffff1673ffffffffffffffffffffffffffffffffffffffff16815260200190815260200160002060008282540192505081905550816002600083815260200190815260200160002060006101000a81548173ffffffffffffffffffffffffffffffffffffffff021916908373ffffffffffffffffffffffffffffffffffffffff160217905550808273ffffffffffffffffffffffffffffffffffffffff16600073ffffffffffffffffffffffffffffffffffffffff167fddf252ad1be2c89b69c2b068fc378daa952ba7f163c4a11628f55a4df523b3ef60405160405180910390a4611f9460008383600161281e565b5050565b6000600660009054906101000a900473ffffffffffffffffffffffffffffffffffffffff16905081600660006101000a81548173ffffffffffffffffffffffffffffffffffffffff021916908373ffffffffffffffffffffffffffffffffffffffff1602179055508173ffffffffffffffffffffffffffffffffffffffff168173ffffffffffffffffffffffffffffffffffffffff167f8be0079c531659141344cd1fd0a4f28419497f9722a3daafe3b4186f6b6457e060405160405180910390a35050565b8173ffffffffffffffffffffffffffffffffffffffff168373ffffffffffffffffffffffffffffffffffffffff16036120cc576040517f08c379a00000000000000000000000000000000000000000000000000000000081526004016120c39061412a565b60405180910390fd5b80600560008573ffffffffffffffffffffffffffffffffffffffff1673ffffffffffffffffffffffffffffffffffffffff16815260200190815260200160002060008473ffffffffffffffffffffffffffffffffffffffff1673ffffffffffffffffffffffffffffffffffffffff16815260200190815260200160002060006101000a81548160ff0219169083151502179055508173ffffffffffffffffffffffffffffffffffffffff168373ffffffffffffffffffffffffffffffffffffffff167f17307eab39ab6107e8899845ad3d59bd9653f200f220920489ca2b5937696c31836040516121bd9190612b02565b60405180910390a3505050565b60006121d582610c92565b90506121e5816000846001612818565b6121ee82610c92565b90506004600083815260200190815260200160002060006101000a81549073ffffffffffffffffffffffffffffffffffffffff02191690556001600360008373ffffffffffffffffffffffffffffffffffffffff1673ffffffffffffffffffffffffffffffffffffffff168152602001908152602001600020600082825403925050819055506002600083815260200190815260200160002060006101000a81549073ffffffffffffffffffffffffffffffffffffffff021916905581600073ffffffffffffffffffffffffffffffffffffffff168273ffffffffffffffffffffffffffffffffffffffff167fddf252ad1be2c89b69c2b068fc378daa952ba7f163c4a11628f55a4df523b3ef60405160405180910390a461231481600084600161281e565b5050565b6123238484846119b9565b61232f84848484612824565b61236e576040517f08c379a0000000000000000000000000000000000000000000000000000000008152600401612365906141bc565b60405180910390fd5b50505050565b606060405180602001604052806000815250905090565b60008073ffffffffffffffffffffffffffffffffffffffff166123ad83611d3e565b73ffffffffffffffffffffffffffffffffffffffff1614159050919050565b8273ffffffffffffffffffffffffffffffffffffffff166123ec82610c92565b73ffffffffffffffffffffffffffffffffffffffff1614612442576040517f08c379a00000000000000000000000000000000000000000000000000000000081526004016124399061424e565b60405180910390fd5b600073ffffffffffffffffffffffffffffffffffffffff168273ffffffffffffffffffffffffffffffffffffffff16036124b1576040517f08c379a00000000000000000000000000000000000000000000000000000000081526004016124a8906142e0565b60405180910390fd5b6124be8383836001612818565b8273ffffffffffffffffffffffffffffffffffffffff166124de82610c92565b73ffffffffffffffffffffffffffffffffffffffff1614612534576040517f08c379a000000000000000000000000000000000000000000000000000000000815260040161252b9061424e565b60405180910390fd5b6004600082815260200190815260200160002060006101000a81549073ffffffffffffffffffffffffffffffffffffffff02191690556001600360008573ffffffffffffffffffffffffffffffffffffffff1673ffffffffffffffffffffffffffffffffffffffff168152602001908152602001600020600082825403925050819055506001600360008473ffffffffffffffffffffffffffffffffffffffff1673ffffffffffffffffffffffffffffffffffffffff16815260200190815260200160002060008282540192505081905550816002600083815260200190815260200160002060006101000a81548173ffffffffffffffffffffffffffffffffffffffff021916908373ffffffffffffffffffffffffffffffffffffffff160217905550808273ffffffffffffffffffffffffffffffffffffffff168473ffffffffffffffffffffffffffffffffffffffff167fddf252ad1be2c89b69c2b068fc378daa952ba7f163c4a11628f55a4df523b3ef60405160405180910390a46126c0838383600161281e565b505050565b600080600090507a184f03e93ff9f4daa797ed6e38ed64bf6a1f0100000000000000008310612723577a184f03e93ff9f4daa797ed6e38ed64bf6a1f010000000000000000838161271957612718613fd7565b5b0492506040810190505b6d04ee2d6d415b85acef81000000008310612760576d04ee2d6d415b85acef8100000000838161275657612755613fd7565b5b0492506020810190505b662386f26fc10000831061278f57662386f26fc10000838161278557612784613fd7565b5b0492506010810190505b6305f5e10083106127b8576305f5e10083816127ae576127ad613fd7565b5b0492506008810190505b61271083106127dd5761271083816127d3576127d2613fd7565b5b0492506004810190505b6064831061280057606483816127f6576127f5613fd7565b5b0492506002810190505b600a831061280f576001810190505b80915050919050565b50505050565b50505050565b60006128458473ffffffffffffffffffffffffffffffffffffffff166129ab565b1561299e578373ffffffffffffffffffffffffffffffffffffffff1663150b7a0261286e611863565b8786866040518563ffffffff1660e01b81526004016128909493929190614300565b6020604051808303816000875af19250505080156128cc57506040513d601f19601f820116820180604052508101906128c99190614361565b60015b61294e573d80600081146128fc576040519150601f19603f3d011682016040523d82523d6000602084013e612901565b606091505b506000815103612946576040517f08c379a000000000000000000000000000000000000000000000000000000000815260040161293d906141bc565b60405180910390fd5b805181602001fd5b63150b7a0260e01b7bffffffffffffffffffffffffffffffffffffffffffffffffffffffff1916817bffffffffffffffffffffffffffffffffffffffffffffffffffffffff1916149150506129a3565b600190505b949350505050565b6000808273ffffffffffffffffffffffffffffffffffffffff163b119050919050565b604051806060016040528060608152602001600081526020016000151581525090565b5080546129fd906132e4565b6000825580601f10612a0f5750612a2e565b601f016020900490600052602060002090810190612a2d9190612a31565b5b50565b5b80821115612a4a576000816000905550600101612a32565b5090565b6000604051905090565b600080fd5b600080fd5b60007fffffffff0000000000000000000000000000000000000000000000000000000082169050919050565b612a9781612a62565b8114612aa257600080fd5b50565b600081359050612ab481612a8e565b92915050565b600060208284031215612ad057612acf612a58565b5b6000612ade84828501612aa5565b91505092915050565b60008115159050919050565b612afc81612ae7565b82525050565b6000602082019050612b176000830184612af3565b92915050565b600081519050919050565b600082825260208201905092915050565b60005b83811015612b57578082015181840152602081019050612b3c565b60008484015250505050565b6000601f19601f8301169050919050565b6000612b7f82612b1d565b612b898185612b28565b9350612b99818560208601612b39565b612ba281612b63565b840191505092915050565b60006020820190508181036000830152612bc78184612b74565b905092915050565b6000819050919050565b612be281612bcf565b8114612bed57600080fd5b50565b600081359050612bff81612bd9565b92915050565b600060208284031215612c1b57612c1a612a58565b5b6000612c2984828501612bf0565b91505092915050565b600073ffffffffffffffffffffffffffffffffffffffff82169050919050565b6000612c5d82612c32565b9050919050565b612c6d81612c52565b82525050565b6000602082019050612c886000830184612c64565b92915050565b612c9781612c52565b8114612ca257600080fd5b50565b600081359050612cb481612c8e565b92915050565b60008060408385031215612cd157612cd0612a58565b5b6000612cdf85828601612ca5565b9250506020612cf085828601612bf0565b9150509250929050565b600080600060608486031215612d1357612d12612a58565b5b6000612d2186828701612ca5565b9350506020612d3286828701612ca5565b9250506040612d4386828701612bf0565b9150509250925092565b600060208284031215612d6357612d62612a58565b5b6000612d7184828501612ca5565b91505092915050565b600082825260208201905092915050565b6000612d9682612b1d565b612da08185612d7a565b9350612db0818560208601612b39565b612db981612b63565b840191505092915050565b612dcd81612bcf565b82525050565b612ddc81612ae7565b82525050565b60006060830160008301518482036000860152612dff8282612d8b565b9150506020830151612e146020860182612dc4565b506040830151612e276040860182612dd3565b508091505092915050565b60006020820190508181036000830152612e4c8184612de2565b905092915050565b600067ffffffffffffffff82169050919050565b612e7181612e54565b8114612e7c57600080fd5b50565b600081359050612e8e81612e68565b92915050565b600080fd5b600080fd5b7f4e487b7100000000000000000000000000000000000000000000000000000000600052604160045260246000fd5b612ed682612b63565b810181811067ffffffffffffffff82111715612ef557612ef4612e9e565b5b80604052505050565b6000612f08612a4e565b9050612f148282612ecd565b919050565b600067ffffffffffffffff821115612f3457612f33612e9e565b5b612f3d82612b63565b9050602081019050919050565b82818337600083830152505050565b6000612f6c612f6784612f19565b612efe565b905082815260208101848484011115612f8857612f87612e99565b5b612f93848285612f4a565b509392505050565b600082601f830112612fb057612faf612e94565b5b8135612fc0848260208601612f59565b91505092915050565b600067ffffffffffffffff821115612fe457612fe3612e9e565b5b612fed82612b63565b9050602081019050919050565b600061300d61300884612fc9565b612efe565b90508281526020810184848401111561302957613028612e99565b5b613034848285612f4a565b509392505050565b600082601f83011261305157613050612e94565b5b8135613061848260208601612ffa565b91505092915050565b60008060008060008060c0878903121561308757613086612a58565b5b600061309589828a01612e7f565b96505060206130a689828a01612ca5565b95505060406130b789828a01612ca5565b94505060606130c889828a01612bf0565b935050608087013567ffffffffffffffff8111156130e9576130e8612a5d565b5b6130f589828a01612f9b565b92505060a087013567ffffffffffffffff81111561311657613115612a5d565b5b61312289828a0161303c565b9150509295509295509295565b61313881612bcf565b82525050565b6000602082019050613153600083018461312f565b92915050565b61316281612ae7565b811461316d57600080fd5b50565b60008135905061317f81613159565b92915050565b6000806040838503121561319c5761319b612a58565b5b60006131aa85828601612ca5565b92505060206131bb85828601613170565b9150509250929050565b6000602082840312156131db576131da612a58565b5b60006131e984828501612e7f565b91505092915050565b6000806000806080858703121561320c5761320b612a58565b5b600061321a87828801612ca5565b945050602061322b87828801612ca5565b935050604061323c87828801612bf0565b925050606085013567ffffffffffffffff81111561325d5761325c612a5d565b5b6132698782880161303c565b91505092959194509250565b6000806040838503121561328c5761328b612a58565b5b600061329a85828601612ca5565b92505060206132ab85828601612ca5565b9150509250929050565b7f4e487b7100000000000000000000000000000000000000000000000000000000600052602260045260246000fd5b600060028204905060018216806132fc57607f821691505b60208210810361330f5761330e6132b5565b5b50919050565b7f4552433732313a20617070726f76616c20746f2063757272656e74206f776e6560008201527f7200000000000000000000000000000000000000000000000000000000000000602082015250565b6000613371602183612b28565b915061337c82613315565b604082019050919050565b600060208201905081810360008301526133a081613364565b9050919050565b7f4552433732313a20617070726f76652063616c6c6572206973206e6f7420746f60008201527f6b656e206f776e6572206f7220617070726f76656420666f7220616c6c000000602082015250565b6000613403603d83612b28565b915061340e826133a7565b604082019050919050565b60006020820190508181036000830152613432816133f6565b9050919050565b7f4552433732313a2063616c6c6572206973206e6f7420746f6b656e206f776e6560008201527f72206f7220617070726f76656400000000000000000000000000000000000000602082015250565b6000613495602d83612b28565b91506134a082613439565b604082019050919050565b600060208201905081810360008301526134c481613488565b9050919050565b7f437265617465207468697320706c617965722066697273740000000000000000600082015250565b6000613501601883612b28565b915061350c826134cb565b602082019050919050565b60006020820190508181036000830152613530816134f4565b9050919050565b7f416c7265616479206465666561746564203a2900000000000000000000000000600082015250565b600061356d601383612b28565b915061357882613537565b602082019050919050565b6000602082019050818103600083015261359c81613560565b9050919050565b7f4e487b7100000000000000000000000000000000000000000000000000000000600052601160045260246000fd5b60006135dd82612bcf565b91506135e883612bcf565b9250828203905081811115613600576135ff6135a3565b5b92915050565b7f4e487b7100000000000000000000000000000000000000000000000000000000600052603260045260246000fd5b600081519050919050565b600082825260208201905092915050565b6000819050602082019050919050565b600061366d8383612d8b565b905092915050565b6000602082019050919050565b600061368d82613635565b6136978185613640565b9350836020820285016136a985613651565b8060005b858110156136e557848403895281516136c68582613661565b94506136d183613675565b925060208a019950506001810190506136ad565b50829750879550505050505092915050565b600060ff82169050919050565b61370d816136f7565b82525050565b60006080820190506137286000830187612c64565b818103602083015261373a8186613682565b9050818103604083015261374e8185612b74565b905061375d6060830184613704565b95945050505050565b7f4552433732313a20696e76616c696420746f6b656e2049440000000000000000600082015250565b600061379c601883612b28565b91506137a782613766565b602082019050919050565b600060208201905081810360008301526137cb8161378f565b9050919050565b60006137e56137e084612f19565b612efe565b90508281526020810184848401111561380157613800612e99565b5b61380c848285612b39565b509392505050565b600082601f83011261382957613828612e94565b5b81516138398482602086016137d2565b91505092915050565b60008151905061385181612bd9565b92915050565b6000806040838503121561386e5761386d612a58565b5b600083015167ffffffffffffffff81111561388c5761388b612a5d565b5b61389885828601613814565b92505060206138a985828601613842565b9150509250929050565b60008190508160005260206000209050919050565b60006020601f8301049050919050565b600082821b905092915050565b6000600883026139157fffffffffffffffffffffffffffffffffffffffffffffffffffffffffffffffff826138d8565b61391f86836138d8565b95508019841693508086168417925050509392505050565b6000819050919050565b600061395c61395761395284612bcf565b613937565b612bcf565b9050919050565b6000819050919050565b61397683613941565b61398a61398282613963565b8484546138e5565b825550505050565b600090565b61399f613992565b6139aa81848461396d565b505050565b5b818110156139ce576139c3600082613997565b6001810190506139b0565b5050565b601f821115613a13576139e4816138b3565b6139ed846138c8565b810160208510156139fc578190505b613a10613a08856138c8565b8301826139af565b50505b505050565b600082821c905092915050565b6000613a3660001984600802613a18565b1980831691505092915050565b6000613a4f8383613a25565b9150826002028217905092915050565b613a6882612b1d565b67ffffffffffffffff811115613a8157613a80612e9e565b5b613a8b82546132e4565b613a968282856139d2565b600060209050601f831160018114613ac95760008415613ab7578287015190505b613ac18582613a43565b865550613b29565b601f198416613ad7866138b3565b60005b82811015613aff57848901518255600182019150602085019450602081019050613ada565b86831015613b1c5784890151613b18601f891682613a25565b8355505b6001600288020188555050505b505050505050565b7f4552433732313a2061646472657373207a65726f206973206e6f74206120766160008201527f6c6964206f776e65720000000000000000000000000000000000000000000000602082015250565b6000613b8d602983612b28565b9150613b9882613b31565b604082019050919050565b60006020820190508181036000830152613bbc81613b80565b9050919050565b6000613bce82612bcf565b9150613bd983612bcf565b9250828201905080821115613bf157613bf06135a3565b5b92915050565b60006040820190508181036000830152613c118185612b74565b9050613c20602083018461312f565b9392505050565b613c3081612e54565b82525050565b600081519050919050565b600082825260208201905092915050565b6000613c5d82613c36565b613c678185613c41565b9350613c77818560208601612b39565b613c8081612b63565b840191505092915050565b600060c082019050613ca06000830189613c27565b613cad6020830188612c64565b613cba6040830187612c64565b613cc7606083018661312f565b8181036080830152613cd98185612b74565b905081810360a0830152613ced8184613c52565b9050979650505050505050565b600081905092915050565b6000613d1082612b1d565b613d1a8185613cfa565b9350613d2a818560208601612b39565b80840191505092915050565b6000613d428285613d05565b9150613d4e8284613d05565b91508190509392505050565b7f4f776e61626c653a206e6577206f776e657220697320746865207a65726f206160008201527f6464726573730000000000000000000000000000000000000000000000000000602082015250565b6000613db6602683612b28565b9150613dc182613d5a565b604082019050919050565b60006020820190508181036000830152613de581613da9565b9050919050565b7f506c6179657220686173207468656972206f776e206163636f756e7400000000600082015250565b6000613e22601c83612b28565b9150613e2d82613dec565b602082019050919050565b60006020820190508181036000830152613e5181613e15565b9050919050565b600081549050613e67816132e4565b9050919050565b60008190508160005260206000209050919050565b818103613e91575050613f69565b613e9a82613e58565b67ffffffffffffffff811115613eb357613eb2612e9e565b5b613ebd82546132e4565b613ec88282856139d2565b6000601f831160018114613ef75760008415613ee5578287015490505b613eef8582613a43565b865550613f62565b601f198416613f0587613e6e565b9650613f10866138b3565b60005b82811015613f3857848901548255600182019150600185019450602081019050613f13565b86831015613f555784890154613f51601f891682613a25565b8355505b6001600288020188555050505b5050505050505b565b7f4f776e61626c653a2063616c6c6572206973206e6f7420746865206f776e6572600082015250565b6000613fa1602083612b28565b9150613fac82613f6b565b602082019050919050565b60006020820190508181036000830152613fd081613f94565b9050919050565b7f4e487b7100000000000000000000000000000000000000000000000000000000600052601260045260246000fd5b7f4552433732313a206d696e7420746f20746865207a65726f2061646472657373600082015250565b600061403c602083612b28565b915061404782614006565b602082019050919050565b6000602082019050818103600083015261406b8161402f565b9050919050565b7f4552433732313a20746f6b656e20616c7265616479206d696e74656400000000600082015250565b60006140a8601c83612b28565b91506140b382614072565b602082019050919050565b600060208201905081810360008301526140d78161409b565b9050919050565b7f4552433732313a20617070726f766520746f2063616c6c657200000000000000600082015250565b6000614114601983612b28565b915061411f826140de565b602082019050919050565b6000602082019050818103600083015261414381614107565b9050919050565b7f4552433732313a207472616e7366657220746f206e6f6e20455243373231526560008201527f63656976657220696d706c656d656e7465720000000000000000000000000000602082015250565b60006141a6603283612b28565b91506141b18261414a565b604082019050919050565b600060208201905081810360008301526141d581614199565b9050919050565b7f4552433732313a207472616e736665722066726f6d20696e636f72726563742060008201527f6f776e6572000000000000000000000000000000000000000000000000000000602082015250565b6000614238602583612b28565b9150614243826141dc565b604082019050919050565b600060208201905081810360008301526142678161422b565b9050919050565b7f4552433732313a207472616e7366657220746f20746865207a65726f2061646460008201527f7265737300000000000000000000000000000000000000000000000000000000602082015250565b60006142ca602483612b28565b91506142d58261426e565b604082019050919050565b600060208201905081810360008301526142f9816142bd565b9050919050565b60006080820190506143156000830187612c64565b6143226020830186612c64565b61432f604083018561312f565b81810360608301526143418184613c52565b905095945050505050565b60008151905061435b81612a8e565b92915050565b60006020828403121561437757614376612a58565b5b60006143858482850161434c565b9150509291505056fea2646970667358221220a487d11d04c329c3b697b013167bec9f15712ddb6a861fcf4e9c92f33874d1a864736f6c63430008110033",
  "immutableReferences": {},
  "source": "// SPDX-License-Identifier: MIT\r\npragma solidity ^0.8.17;\r\n\r\nimport {Params} from \"../libraries/Params.sol\";\r\nimport {IKanvasInterop} from \"../interfaces/IKanvasInterop.sol\";\r\nimport {IKanvasInteropGame} from \"../interfaces/IKanvasInteropGame.sol\";\r\n\r\nimport {Ownable} from \"@openzeppelin/contracts/access/Ownable.sol\";\r\nimport {ERC721} from \"@openzeppelin/contracts/token/ERC721/ERC721.sol\";\r\nimport {Strings} from \"@openzeppelin/contracts/utils/Strings.sol\";\r\n\r\ncontract RockPaperScissorsInterop is IKanvasInteropGame, ERC721, Ownable {\r\n    uint64 private constant AVAX_SELECTOR = 14767482510784806043;\r\n    uint256 public constant MAX_PROPERTIES_LEN = 20;\r\n\r\n    uint8 private constant WIN_NFT_TEMPLATE = 0;\r\n    uint8 private constant LOST_NFT_TEMPLATE = 1;\r\n\r\n    uint256 private _tokenId;\r\n\r\n    mapping(uint256 => string) private _tokenURIs;\r\n    mapping(address => uint256) private _playerNfts;\r\n\r\n    IKanvasInterop private kanvas;\r\n\r\n    struct Player {\r\n        string name;\r\n        uint256 points;\r\n        bool created;\r\n    }\r\n\r\n    mapping(address => Player) private _players;\r\n\r\n    constructor(\r\n        address kanvasRouter,\r\n        address sourceGameId\r\n    ) ERC721(\"RockPaperScissors\", \"RPS\") IKanvasInteropGame() Ownable() {\r\n        kanvas = IKanvasInterop(kanvasRouter);\r\n        kanvas._createGame(\r\n            AVAX_SELECTOR,\r\n            Params.InteropGame({gameId: sourceGameId})\r\n        );\r\n    }\r\n\r\n    function _transfer(\r\n        address from,\r\n        address to,\r\n        uint256 tokenId\r\n    ) internal override {\r\n        Player storage player = _players[to];\r\n        // check if receiver has their own account\r\n        require(!player.created, \"Player has their own account\");\r\n\r\n        _playerNfts[to] = tokenId;\r\n\r\n        player.name = _players[from].name;\r\n        player.points = _players[from].points;\r\n\r\n        // delete send accounts\r\n        delete _playerNfts[from];\r\n        delete _players[from];\r\n\r\n        super._transfer(from, to, tokenId);\r\n    }\r\n\r\n    function getPlayer(address playerId) external view returns (Player memory) {\r\n        return _players[playerId];\r\n    }\r\n\r\n    /** Increase player points */\r\n    function upgradePlayer(address playerId) external onlyOwner {\r\n        Player storage player = _players[playerId];\r\n        require(player.created, \"Create this player first\");\r\n\r\n        player.points = player.points + 5;\r\n\r\n        string[] memory properties = new string[](MAX_PROPERTIES_LEN);\r\n        properties[0] = player.name;\r\n        properties[1] = Strings.toString(player.points);\r\n\r\n        string memory fields = \"$player_name$ $player_points$\";\r\n\r\n        kanvas._generateUri(playerId, properties, fields, WIN_NFT_TEMPLATE);\r\n    }\r\n\r\n    /** Reduce player points */\r\n    function downgradePlayer(address playerId) external onlyOwner {\r\n        Player storage player = _players[playerId];\r\n        require(player.created, \"Create this player first\");\r\n        require(player.points >= 1, \"Already defeated :)\");\r\n\r\n        player.points = player.points - 1;\r\n\r\n        string[] memory properties = new string[](MAX_PROPERTIES_LEN);\r\n        properties[0] = player.name;\r\n        properties[1] = Strings.toString(player.points);\r\n\r\n        string memory fields = \"$player_name$ $player_points$\";\r\n\r\n        kanvas._generateUri(playerId, properties, fields, LOST_NFT_TEMPLATE);\r\n    }\r\n\r\n    /** Bridge game Nft function */\r\n    function transferTo(uint64 chainSelector) external payable {\r\n        address playerId = _msgSender();\r\n        uint256 tokenId = _playerNfts[playerId];\r\n\r\n        _burn(tokenId);\r\n        delete _tokenURIs[tokenId];\r\n\r\n        // player will be deleted when they transfer the game NFT\r\n        delete _playerNfts[playerId];\r\n\r\n        address gameId = address(this);\r\n        string memory uri = _tokenURIs[tokenId];\r\n        Player memory player = _players[playerId];\r\n\r\n        bytes memory data = abi.encode(player.name, player.points);\r\n\r\n        /** Cross chain transfer function */\r\n        kanvas._transferTo{value: msg.value}(\r\n            chainSelector,\r\n            gameId,\r\n            playerId,\r\n            tokenId,\r\n            uri,\r\n            data\r\n        );\r\n    }\r\n\r\n    /** Cross chain receiver callback function */\r\n    function _receiveFrom(\r\n        uint64 /* chainSelector */,\r\n        address /* gameId */,\r\n        address playerId,\r\n        uint256 tokenId,\r\n        string memory uri,\r\n        bytes memory data\r\n    ) external override {\r\n        (string memory name, uint256 points) = abi.decode(\r\n            data,\r\n            (string, uint256)\r\n        );\r\n\r\n        _mint(playerId, tokenId);\r\n        _tokenURIs[tokenId] = uri;\r\n\r\n        // player will be created when they receive the game NFT\r\n        _players[playerId].name = name;\r\n        _players[playerId].points = points;\r\n\r\n        _playerNfts[playerId] = tokenId;\r\n    }\r\n}\r\n",
  "sourcePath": "C:\\Users\\DELL\\Documents\\kanvas\\blockchain\\contracts\\rock-paper-scissors\\RockPaperScissorsInterop.sol",
  "compiler": {
    "name": "solc",
    "version": "0.8.17+commit.8df45f5f.Emscripten.clang"
  },
  "schemaVersion": "3.4.11",
  "updatedAt": "2023-12-04T07:59:20.468Z",
  "devdoc": {
    "kind": "dev",
    "methods": {
      "approve(address,uint256)": {
        "details": "See {IERC721-approve}."
      },
      "balanceOf(address)": {
        "details": "See {IERC721-balanceOf}."
      },
      "getApproved(uint256)": {
        "details": "See {IERC721-getApproved}."
      },
      "isApprovedForAll(address,address)": {
        "details": "See {IERC721-isApprovedForAll}."
      },
      "name()": {
        "details": "See {IERC721Metadata-name}."
      },
      "owner()": {
        "details": "Returns the address of the current owner."
      },
      "ownerOf(uint256)": {
        "details": "See {IERC721-ownerOf}."
      },
      "renounceOwnership()": {
        "details": "Leaves the contract without owner. It will not be possible to call `onlyOwner` functions. Can only be called by the current owner. NOTE: Renouncing ownership will leave the contract without an owner, thereby disabling any functionality that is only available to the owner."
      },
      "safeTransferFrom(address,address,uint256)": {
        "details": "See {IERC721-safeTransferFrom}."
      },
      "safeTransferFrom(address,address,uint256,bytes)": {
        "details": "See {IERC721-safeTransferFrom}."
      },
      "setApprovalForAll(address,bool)": {
        "details": "See {IERC721-setApprovalForAll}."
      },
      "supportsInterface(bytes4)": {
        "details": "See {IERC165-supportsInterface}."
      },
      "symbol()": {
        "details": "See {IERC721Metadata-symbol}."
      },
      "tokenURI(uint256)": {
        "details": "See {IERC721Metadata-tokenURI}."
      },
      "transferFrom(address,address,uint256)": {
        "details": "See {IERC721-transferFrom}."
      },
      "transferOwnership(address)": {
        "details": "Transfers ownership of the contract to a new account (`newOwner`). Can only be called by the current owner."
      }
    },
    "version": 1
  },
  "userdoc": {
    "kind": "user",
    "methods": {
      "_receiveFrom(uint64,address,address,uint256,string,bytes)": {
        "notice": "Cross chain receiver callback function "
      },
      "downgradePlayer(address)": {
        "notice": "Reduce player points "
      },
      "transferTo(uint64)": {
        "notice": "Bridge game Nft function "
      },
      "upgradePlayer(address)": {
        "notice": "Increase player points "
      }
    },
    "version": 1
  }
}