{
  "contractName": "RockPaperScissorsInterop",
  "abi": [
    {
      "inputs": [
        {
          "internalType": "address",
          "name": "kanvasRouter",
          "type": "address"
        },
        {
          "internalType": "address",
          "name": "sourceGameId",
          "type": "address"
        }
      ],
      "stateMutability": "nonpayable",
      "type": "constructor"
    },
    {
      "anonymous": false,
      "inputs": [
        {
          "indexed": true,
          "internalType": "address",
          "name": "owner",
          "type": "address"
        },
        {
          "indexed": true,
          "internalType": "address",
          "name": "approved",
          "type": "address"
        },
        {
          "indexed": true,
          "internalType": "uint256",
          "name": "tokenId",
          "type": "uint256"
        }
      ],
      "name": "Approval",
      "type": "event"
    },
    {
      "anonymous": false,
      "inputs": [
        {
          "indexed": true,
          "internalType": "address",
          "name": "owner",
          "type": "address"
        },
        {
          "indexed": true,
          "internalType": "address",
          "name": "operator",
          "type": "address"
        },
        {
          "indexed": false,
          "internalType": "bool",
          "name": "approved",
          "type": "bool"
        }
      ],
      "name": "ApprovalForAll",
      "type": "event"
    },
    {
      "anonymous": false,
      "inputs": [
        {
          "indexed": true,
          "internalType": "address",
          "name": "from",
          "type": "address"
        },
        {
          "indexed": true,
          "internalType": "address",
          "name": "to",
          "type": "address"
        },
        {
          "indexed": true,
          "internalType": "uint256",
          "name": "tokenId",
          "type": "uint256"
        }
      ],
      "name": "Transfer",
      "type": "event"
    },
    {
      "inputs": [],
      "name": "MAX_PROPERTIES_LEN",
      "outputs": [
        {
          "internalType": "uint256",
          "name": "",
          "type": "uint256"
        }
      ],
      "stateMutability": "view",
      "type": "function"
    },
    {
      "inputs": [
        {
          "internalType": "address",
          "name": "to",
          "type": "address"
        },
        {
          "internalType": "uint256",
          "name": "tokenId",
          "type": "uint256"
        }
      ],
      "name": "approve",
      "outputs": [],
      "stateMutability": "nonpayable",
      "type": "function"
    },
    {
      "inputs": [
        {
          "internalType": "address",
          "name": "owner",
          "type": "address"
        }
      ],
      "name": "balanceOf",
      "outputs": [
        {
          "internalType": "uint256",
          "name": "",
          "type": "uint256"
        }
      ],
      "stateMutability": "view",
      "type": "function"
    },
    {
      "inputs": [
        {
          "internalType": "uint256",
          "name": "tokenId",
          "type": "uint256"
        }
      ],
      "name": "getApproved",
      "outputs": [
        {
          "internalType": "address",
          "name": "",
          "type": "address"
        }
      ],
      "stateMutability": "view",
      "type": "function"
    },
    {
      "inputs": [
        {
          "internalType": "address",
          "name": "owner",
          "type": "address"
        },
        {
          "internalType": "address",
          "name": "operator",
          "type": "address"
        }
      ],
      "name": "isApprovedForAll",
      "outputs": [
        {
          "internalType": "bool",
          "name": "",
          "type": "bool"
        }
      ],
      "stateMutability": "view",
      "type": "function"
    },
    {
      "inputs": [],
      "name": "name",
      "outputs": [
        {
          "internalType": "string",
          "name": "",
          "type": "string"
        }
      ],
      "stateMutability": "view",
      "type": "function"
    },
    {
      "inputs": [
        {
          "internalType": "uint256",
          "name": "tokenId",
          "type": "uint256"
        }
      ],
      "name": "ownerOf",
      "outputs": [
        {
          "internalType": "address",
          "name": "",
          "type": "address"
        }
      ],
      "stateMutability": "view",
      "type": "function"
    },
    {
      "inputs": [
        {
          "internalType": "address",
          "name": "from",
          "type": "address"
        },
        {
          "internalType": "address",
          "name": "to",
          "type": "address"
        },
        {
          "internalType": "uint256",
          "name": "tokenId",
          "type": "uint256"
        }
      ],
      "name": "safeTransferFrom",
      "outputs": [],
      "stateMutability": "nonpayable",
      "type": "function"
    },
    {
      "inputs": [
        {
          "internalType": "address",
          "name": "from",
          "type": "address"
        },
        {
          "internalType": "address",
          "name": "to",
          "type": "address"
        },
        {
          "internalType": "uint256",
          "name": "tokenId",
          "type": "uint256"
        },
        {
          "internalType": "bytes",
          "name": "data",
          "type": "bytes"
        }
      ],
      "name": "safeTransferFrom",
      "outputs": [],
      "stateMutability": "nonpayable",
      "type": "function"
    },
    {
      "inputs": [
        {
          "internalType": "address",
          "name": "operator",
          "type": "address"
        },
        {
          "internalType": "bool",
          "name": "approved",
          "type": "bool"
        }
      ],
      "name": "setApprovalForAll",
      "outputs": [],
      "stateMutability": "nonpayable",
      "type": "function"
    },
    {
      "inputs": [
        {
          "internalType": "bytes4",
          "name": "interfaceId",
          "type": "bytes4"
        }
      ],
      "name": "supportsInterface",
      "outputs": [
        {
          "internalType": "bool",
          "name": "",
          "type": "bool"
        }
      ],
      "stateMutability": "view",
      "type": "function"
    },
    {
      "inputs": [],
      "name": "symbol",
      "outputs": [
        {
          "internalType": "string",
          "name": "",
          "type": "string"
        }
      ],
      "stateMutability": "view",
      "type": "function"
    },
    {
      "inputs": [
        {
          "internalType": "uint256",
          "name": "tokenId",
          "type": "uint256"
        }
      ],
      "name": "tokenURI",
      "outputs": [
        {
          "internalType": "string",
          "name": "",
          "type": "string"
        }
      ],
      "stateMutability": "view",
      "type": "function"
    },
    {
      "inputs": [
        {
          "internalType": "address",
          "name": "from",
          "type": "address"
        },
        {
          "internalType": "address",
          "name": "to",
          "type": "address"
        },
        {
          "internalType": "uint256",
          "name": "tokenId",
          "type": "uint256"
        }
      ],
      "name": "transferFrom",
      "outputs": [],
      "stateMutability": "nonpayable",
      "type": "function"
    },
    {
      "inputs": [
        {
          "internalType": "address",
          "name": "playerId",
          "type": "address"
        }
      ],
      "name": "upgradePlayer",
      "outputs": [],
      "stateMutability": "nonpayable",
      "type": "function"
    },
    {
      "inputs": [
        {
          "internalType": "uint64",
          "name": "chainSelector",
          "type": "uint64"
        }
      ],
      "name": "transferTo",
      "outputs": [],
      "stateMutability": "nonpayable",
      "type": "function"
    },
    {
      "inputs": [
        {
          "internalType": "uint64",
          "name": "",
          "type": "uint64"
        },
        {
          "internalType": "address",
          "name": "",
          "type": "address"
        },
        {
          "internalType": "address",
          "name": "playerId",
          "type": "address"
        },
        {
          "internalType": "uint256",
          "name": "tokenId",
          "type": "uint256"
        },
        {
          "internalType": "string",
          "name": "uri",
          "type": "string"
        },
        {
          "internalType": "bytes",
          "name": "data",
          "type": "bytes"
        }
      ],
      "name": "_receiveFrom",
      "outputs": [],
      "stateMutability": "nonpayable",
      "type": "function"
    }
  ],
  "bytecode": "0x60806040523480156200001157600080fd5b5060405162003c1d38038062003c1d83398181016040528101906200003791906200023b565b6040518060400160405280601181526020017f526f636b506170657253636973736f72730000000000000000000000000000008152506040518060400160405280600381526020017f52505300000000000000000000000000000000000000000000000000000000008152508160009081620000b49190620004fc565b508060019081620000c69190620004fc565b50505081600960006101000a81548173ffffffffffffffffffffffffffffffffffffffff021916908373ffffffffffffffffffffffffffffffffffffffff160217905550600960009054906101000a900473ffffffffffffffffffffffffffffffffffffffff1673ffffffffffffffffffffffffffffffffffffffff1663afd21cfe67ccf0a31a221f3c9b60405180602001604052808573ffffffffffffffffffffffffffffffffffffffff168152506040518363ffffffff1660e01b81526004016200019592919062000637565b600060405180830381600087803b158015620001b057600080fd5b505af1158015620001c5573d6000803e3d6000fd5b50505050505062000664565b600080fd5b600073ffffffffffffffffffffffffffffffffffffffff82169050919050565b60006200020382620001d6565b9050919050565b6200021581620001f6565b81146200022157600080fd5b50565b60008151905062000235816200020a565b92915050565b60008060408385031215620002555762000254620001d1565b5b6000620002658582860162000224565b9250506020620002788582860162000224565b9150509250929050565b600081519050919050565b7f4e487b7100000000000000000000000000000000000000000000000000000000600052604160045260246000fd5b7f4e487b7100000000000000000000000000000000000000000000000000000000600052602260045260246000fd5b600060028204905060018216806200030457607f821691505b6020821081036200031a5762000319620002bc565b5b50919050565b60008190508160005260206000209050919050565b60006020601f8301049050919050565b600082821b905092915050565b600060088302620003847fffffffffffffffffffffffffffffffffffffffffffffffffffffffffffffffff8262000345565b62000390868362000345565b95508019841693508086168417925050509392505050565b6000819050919050565b6000819050919050565b6000620003dd620003d7620003d184620003a8565b620003b2565b620003a8565b9050919050565b6000819050919050565b620003f983620003bc565b620004116200040882620003e4565b84845462000352565b825550505050565b600090565b6200042862000419565b62000435818484620003ee565b505050565b5b818110156200045d57620004516000826200041e565b6001810190506200043b565b5050565b601f821115620004ac57620004768162000320565b620004818462000335565b8101602085101562000491578190505b620004a9620004a08562000335565b8301826200043a565b50505b505050565b600082821c905092915050565b6000620004d160001984600802620004b1565b1980831691505092915050565b6000620004ec8383620004be565b9150826002028217905092915050565b620005078262000282565b67ffffffffffffffff8111156200052357620005226200028d565b5b6200052f8254620002eb565b6200053c82828562000461565b600060209050601f8311600181146200057457600084156200055f578287015190505b6200056b8582620004de565b865550620005db565b601f198416620005848662000320565b60005b82811015620005ae5784890151825560018201915060208501945060208101905062000587565b86831015620005ce5784890151620005ca601f891682620004be565b8355505b6001600288020188555050505b505050505050565b600067ffffffffffffffff82169050919050565b6200060281620005e3565b82525050565b6200061381620001f6565b82525050565b60208201600082015162000631600085018262000608565b50505050565b60006040820190506200064e6000830185620005f7565b6200065d602083018462000619565b9392505050565b6135a980620006746000396000f3fe608060405234801561001057600080fd5b506004361061010b5760003560e01c806370a08231116100a2578063a22cb46511610071578063a22cb465146102b6578063af3ef62e146102d2578063b88d4fde146102ee578063c87b56dd1461030a578063e985e9c51461033a5761010b565b806370a082311461022e5780638b8ff3581461025e57806395d89b411461027c578063a06422a71461029a5761010b565b806323b872dd116100de57806323b872dd146101aa57806342842e0e146101c65780636352211e146101e25780636d4195fb146102125761010b565b806301ffc9a71461011057806306fdde0314610140578063081812fc1461015e578063095ea7b31461018e575b600080fd5b61012a60048036038101906101259190612076565b61036a565b60405161013791906120be565b60405180910390f35b61014861044c565b6040516101559190612169565b60405180910390f35b610178600480360381019061017391906121c1565b6104de565b604051610185919061222f565b60405180910390f35b6101a860048036038101906101a39190612276565b610524565b005b6101c460048036038101906101bf91906122b6565b61063b565b005b6101e060048036038101906101db91906122b6565b61069b565b005b6101fc60048036038101906101f791906121c1565b6106bb565b604051610209919061222f565b60405180910390f35b61022c6004803603810190610227919061251f565b610741565b005b610248600480360381019061024391906125e4565b61086c565b6040516102559190612620565b60405180910390f35b610266610923565b6040516102739190612620565b60405180910390f35b610284610928565b6040516102919190612169565b60405180910390f35b6102b460048036038101906102af91906125e4565b6109ba565b005b6102d060048036038101906102cb9190612667565b610c63565b005b6102ec60048036038101906102e791906126a7565b610c79565b005b610308600480360381019061030391906126d4565b610fac565b005b610324600480360381019061031f91906121c1565b61100e565b6040516103319190612169565b60405180910390f35b610354600480360381019061034f9190612757565b611076565b60405161036191906120be565b60405180910390f35b60007f80ac58cd000000000000000000000000000000000000000000000000000000007bffffffffffffffffffffffffffffffffffffffffffffffffffffffff1916827bffffffffffffffffffffffffffffffffffffffffffffffffffffffff1916148061043557507f5b5e139f000000000000000000000000000000000000000000000000000000007bffffffffffffffffffffffffffffffffffffffffffffffffffffffff1916827bffffffffffffffffffffffffffffffffffffffffffffffffffffffff1916145b8061044557506104448261110a565b5b9050919050565b60606000805461045b906127c6565b80601f0160208091040260200160405190810160405280929190818152602001828054610487906127c6565b80156104d45780601f106104a9576101008083540402835291602001916104d4565b820191906000526020600020905b8154815290600101906020018083116104b757829003601f168201915b5050505050905090565b60006104e982611174565b6004600083815260200190815260200160002060009054906101000a900473ffffffffffffffffffffffffffffffffffffffff169050919050565b600061052f826106bb565b90508073ffffffffffffffffffffffffffffffffffffffff168373ffffffffffffffffffffffffffffffffffffffff160361059f576040517f08c379a000000000000000000000000000000000000000000000000000000000815260040161059690612869565b60405180910390fd5b8073ffffffffffffffffffffffffffffffffffffffff166105be6111bf565b73ffffffffffffffffffffffffffffffffffffffff1614806105ed57506105ec816105e76111bf565b611076565b5b61062c576040517f08c379a0000000000000000000000000000000000000000000000000000000008152600401610623906128fb565b60405180910390fd5b61063683836111c7565b505050565b61064c6106466111bf565b82611280565b61068b576040517f08c379a00000000000000000000000000000000000000000000000000000000081526004016106829061298d565b60405180910390fd5b610696838383611315565b505050565b6106b683838360405180602001604052806000815250610fac565b505050565b6000806106c78361160e565b9050600073ffffffffffffffffffffffffffffffffffffffff168173ffffffffffffffffffffffffffffffffffffffff1603610738576040517f08c379a000000000000000000000000000000000000000000000000000000000815260040161072f906129f9565b60405180910390fd5b80915050919050565b600080828060200190518101906107589190612a9e565b91509150610766868661164b565b836007600087815260200190815260200160002090816107869190612ca6565b5081600a60008873ffffffffffffffffffffffffffffffffffffffff1673ffffffffffffffffffffffffffffffffffffffff16815260200190815260200160002060000190816107d69190612ca6565b5080600a60008873ffffffffffffffffffffffffffffffffffffffff1673ffffffffffffffffffffffffffffffffffffffff1681526020019081526020016000206001018190555084600860008873ffffffffffffffffffffffffffffffffffffffff1673ffffffffffffffffffffffffffffffffffffffff168152602001908152602001600020819055505050505050505050565b60008073ffffffffffffffffffffffffffffffffffffffff168273ffffffffffffffffffffffffffffffffffffffff16036108dc576040517f08c379a00000000000000000000000000000000000000000000000000000000081526004016108d390612dea565b60405180910390fd5b600360008373ffffffffffffffffffffffffffffffffffffffff1673ffffffffffffffffffffffffffffffffffffffff168152602001908152602001600020549050919050565b601481565b606060018054610937906127c6565b80601f0160208091040260200160405190810160405280929190818152602001828054610963906127c6565b80156109b05780601f10610985576101008083540402835291602001916109b0565b820191906000526020600020905b81548152906001019060200180831161099357829003601f168201915b5050505050905090565b6000600a60008373ffffffffffffffffffffffffffffffffffffffff1673ffffffffffffffffffffffffffffffffffffffff16815260200190815260200160002090508060020160009054906101000a900460ff16610a4e576040517f08c379a0000000000000000000000000000000000000000000000000000000008152600401610a4590612e56565b60405180910390fd5b60058160010154610a5f9190612ea5565b81600101819055506000601467ffffffffffffffff811115610a8457610a83612353565b5b604051908082528060200260200182016040528015610ab757816020015b6060815260200190600190039081610aa25790505b509050816000018054610ac9906127c6565b80601f0160208091040260200160405190810160405280929190818152602001828054610af5906127c6565b8015610b425780601f10610b1757610100808354040283529160200191610b42565b820191906000526020600020905b815481529060010190602001808311610b2557829003601f168201915b505050505081600081518110610b5b57610b5a612ed9565b5b6020026020010181905250610b738260010154611868565b81600181518110610b8757610b86612ed9565b5b602002602001018190525060006040518060400160405280601d81526020017f24706c617965725f6e616d65242024706c617965725f706f696e7473240000008152509050600960009054906101000a900473ffffffffffffffffffffffffffffffffffffffff1673ffffffffffffffffffffffffffffffffffffffff166375948bb08584846040518463ffffffff1660e01b8152600401610c2b93929190613014565b600060405180830381600087803b158015610c4557600080fd5b505af1158015610c59573d6000803e3d6000fd5b5050505050505050565b610c75610c6e6111bf565b8383611936565b5050565b6000610c836111bf565b90506000600860008373ffffffffffffffffffffffffffffffffffffffff1673ffffffffffffffffffffffffffffffffffffffff168152602001908152602001600020549050610cd281611aa2565b600760008281526020019081526020016000206000610cf19190611fad565b600860008373ffffffffffffffffffffffffffffffffffffffff1673ffffffffffffffffffffffffffffffffffffffff1681526020019081526020016000206000905560003090506000600760008481526020019081526020016000208054610d59906127c6565b80601f0160208091040260200160405190810160405280929190818152602001828054610d85906127c6565b8015610dd25780601f10610da757610100808354040283529160200191610dd2565b820191906000526020600020905b815481529060010190602001808311610db557829003601f168201915b505050505090506000600a60008673ffffffffffffffffffffffffffffffffffffffff1673ffffffffffffffffffffffffffffffffffffffff168152602001908152602001600020604051806060016040529081600082018054610e35906127c6565b80601f0160208091040260200160405190810160405280929190818152602001828054610e61906127c6565b8015610eae5780601f10610e8357610100808354040283529160200191610eae565b820191906000526020600020905b815481529060010190602001808311610e9157829003601f168201915b50505050508152602001600182015481526020016002820160009054906101000a900460ff1615151515815250509050600081600001518260200151604051602001610efb929190613059565b6040516020818303038152906040529050600960009054906101000a900473ffffffffffffffffffffffffffffffffffffffff1673ffffffffffffffffffffffffffffffffffffffff16638d6dc0eb8886898988876040518763ffffffff1660e01b8152600401610f71969594939291906130ed565b600060405180830381600087803b158015610f8b57600080fd5b505af1158015610f9f573d6000803e3d6000fd5b5050505050505050505050565b610fbd610fb76111bf565b83611280565b610ffc576040517f08c379a0000000000000000000000000000000000000000000000000000000008152600401610ff39061298d565b60405180910390fd5b61100884848484611bf0565b50505050565b606061101982611174565b6000611023611c4c565b90506000815111611043576040518060200160405280600081525061106e565b8061104d84611868565b60405160200161105e929190613198565b6040516020818303038152906040525b915050919050565b6000600560008473ffffffffffffffffffffffffffffffffffffffff1673ffffffffffffffffffffffffffffffffffffffff16815260200190815260200160002060008373ffffffffffffffffffffffffffffffffffffffff1673ffffffffffffffffffffffffffffffffffffffff16815260200190815260200160002060009054906101000a900460ff16905092915050565b60007f01ffc9a7000000000000000000000000000000000000000000000000000000007bffffffffffffffffffffffffffffffffffffffffffffffffffffffff1916827bffffffffffffffffffffffffffffffffffffffffffffffffffffffff1916149050919050565b61117d81611c63565b6111bc576040517f08c379a00000000000000000000000000000000000000000000000000000000081526004016111b3906129f9565b60405180910390fd5b50565b600033905090565b816004600083815260200190815260200160002060006101000a81548173ffffffffffffffffffffffffffffffffffffffff021916908373ffffffffffffffffffffffffffffffffffffffff160217905550808273ffffffffffffffffffffffffffffffffffffffff1661123a836106bb565b73ffffffffffffffffffffffffffffffffffffffff167f8c5be1e5ebec7d5bd14f71427d1e84f3dd0314c0f7b2291e5b200ac8c7c3b92560405160405180910390a45050565b60008061128c836106bb565b90508073ffffffffffffffffffffffffffffffffffffffff168473ffffffffffffffffffffffffffffffffffffffff1614806112ce57506112cd8185611076565b5b8061130c57508373ffffffffffffffffffffffffffffffffffffffff166112f4846104de565b73ffffffffffffffffffffffffffffffffffffffff16145b91505092915050565b8273ffffffffffffffffffffffffffffffffffffffff16611335826106bb565b73ffffffffffffffffffffffffffffffffffffffff161461138b576040517f08c379a00000000000000000000000000000000000000000000000000000000081526004016113829061322e565b60405180910390fd5b600073ffffffffffffffffffffffffffffffffffffffff168273ffffffffffffffffffffffffffffffffffffffff16036113fa576040517f08c379a00000000000000000000000000000000000000000000000000000000081526004016113f1906132c0565b60405180910390fd5b6114078383836001611ca4565b8273ffffffffffffffffffffffffffffffffffffffff16611427826106bb565b73ffffffffffffffffffffffffffffffffffffffff161461147d576040517f08c379a00000000000000000000000000000000000000000000000000000000081526004016114749061322e565b60405180910390fd5b6004600082815260200190815260200160002060006101000a81549073ffffffffffffffffffffffffffffffffffffffff02191690556001600360008573ffffffffffffffffffffffffffffffffffffffff1673ffffffffffffffffffffffffffffffffffffffff168152602001908152602001600020600082825403925050819055506001600360008473ffffffffffffffffffffffffffffffffffffffff1673ffffffffffffffffffffffffffffffffffffffff16815260200190815260200160002060008282540192505081905550816002600083815260200190815260200160002060006101000a81548173ffffffffffffffffffffffffffffffffffffffff021916908373ffffffffffffffffffffffffffffffffffffffff160217905550808273ffffffffffffffffffffffffffffffffffffffff168473ffffffffffffffffffffffffffffffffffffffff167fddf252ad1be2c89b69c2b068fc378daa952ba7f163c4a11628f55a4df523b3ef60405160405180910390a46116098383836001611caa565b505050565b60006002600083815260200190815260200160002060009054906101000a900473ffffffffffffffffffffffffffffffffffffffff169050919050565b600073ffffffffffffffffffffffffffffffffffffffff168273ffffffffffffffffffffffffffffffffffffffff16036116ba576040517f08c379a00000000000000000000000000000000000000000000000000000000081526004016116b19061332c565b60405180910390fd5b6116c381611c63565b15611703576040517f08c379a00000000000000000000000000000000000000000000000000000000081526004016116fa90613398565b60405180910390fd5b611711600083836001611ca4565b61171a81611c63565b1561175a576040517f08c379a000000000000000000000000000000000000000000000000000000000815260040161175190613398565b60405180910390fd5b6001600360008473ffffffffffffffffffffffffffffffffffffffff1673ffffffffffffffffffffffffffffffffffffffff16815260200190815260200160002060008282540192505081905550816002600083815260200190815260200160002060006101000a81548173ffffffffffffffffffffffffffffffffffffffff021916908373ffffffffffffffffffffffffffffffffffffffff160217905550808273ffffffffffffffffffffffffffffffffffffffff16600073ffffffffffffffffffffffffffffffffffffffff167fddf252ad1be2c89b69c2b068fc378daa952ba7f163c4a11628f55a4df523b3ef60405160405180910390a4611864600083836001611caa565b5050565b60606000600161187784611cb0565b01905060008167ffffffffffffffff81111561189657611895612353565b5b6040519080825280601f01601f1916602001820160405280156118c85781602001600182028036833780820191505090505b509050600082602001820190505b60011561192b578080600190039150507f3031323334353637383961626364656600000000000000000000000000000000600a86061a8153600a858161191f5761191e6133b8565b5b049450600085036118d6575b819350505050919050565b8173ffffffffffffffffffffffffffffffffffffffff168373ffffffffffffffffffffffffffffffffffffffff16036119a4576040517f08c379a000000000000000000000000000000000000000000000000000000000815260040161199b90613433565b60405180910390fd5b80600560008573ffffffffffffffffffffffffffffffffffffffff1673ffffffffffffffffffffffffffffffffffffffff16815260200190815260200160002060008473ffffffffffffffffffffffffffffffffffffffff1673ffffffffffffffffffffffffffffffffffffffff16815260200190815260200160002060006101000a81548160ff0219169083151502179055508173ffffffffffffffffffffffffffffffffffffffff168373ffffffffffffffffffffffffffffffffffffffff167f17307eab39ab6107e8899845ad3d59bd9653f200f220920489ca2b5937696c3183604051611a9591906120be565b60405180910390a3505050565b6000611aad826106bb565b9050611abd816000846001611ca4565b611ac6826106bb565b90506004600083815260200190815260200160002060006101000a81549073ffffffffffffffffffffffffffffffffffffffff02191690556001600360008373ffffffffffffffffffffffffffffffffffffffff1673ffffffffffffffffffffffffffffffffffffffff168152602001908152602001600020600082825403925050819055506002600083815260200190815260200160002060006101000a81549073ffffffffffffffffffffffffffffffffffffffff021916905581600073ffffffffffffffffffffffffffffffffffffffff168273ffffffffffffffffffffffffffffffffffffffff167fddf252ad1be2c89b69c2b068fc378daa952ba7f163c4a11628f55a4df523b3ef60405160405180910390a4611bec816000846001611caa565b5050565b611bfb848484611315565b611c0784848484611e03565b611c46576040517f08c379a0000000000000000000000000000000000000000000000000000000008152600401611c3d906134c5565b60405180910390fd5b50505050565b606060405180602001604052806000815250905090565b60008073ffffffffffffffffffffffffffffffffffffffff16611c858361160e565b73ffffffffffffffffffffffffffffffffffffffff1614159050919050565b50505050565b50505050565b600080600090507a184f03e93ff9f4daa797ed6e38ed64bf6a1f0100000000000000008310611d0e577a184f03e93ff9f4daa797ed6e38ed64bf6a1f0100000000000000008381611d0457611d036133b8565b5b0492506040810190505b6d04ee2d6d415b85acef81000000008310611d4b576d04ee2d6d415b85acef81000000008381611d4157611d406133b8565b5b0492506020810190505b662386f26fc100008310611d7a57662386f26fc100008381611d7057611d6f6133b8565b5b0492506010810190505b6305f5e1008310611da3576305f5e1008381611d9957611d986133b8565b5b0492506008810190505b6127108310611dc8576127108381611dbe57611dbd6133b8565b5b0492506004810190505b60648310611deb5760648381611de157611de06133b8565b5b0492506002810190505b600a8310611dfa576001810190505b80915050919050565b6000611e248473ffffffffffffffffffffffffffffffffffffffff16611f8a565b15611f7d578373ffffffffffffffffffffffffffffffffffffffff1663150b7a02611e4d6111bf565b8786866040518563ffffffff1660e01b8152600401611e6f94939291906134e5565b6020604051808303816000875af1925050508015611eab57506040513d601f19601f82011682018060405250810190611ea89190613546565b60015b611f2d573d8060008114611edb576040519150601f19603f3d011682016040523d82523d6000602084013e611ee0565b606091505b506000815103611f25576040517f08c379a0000000000000000000000000000000000000000000000000000000008152600401611f1c906134c5565b60405180910390fd5b805181602001fd5b63150b7a0260e01b7bffffffffffffffffffffffffffffffffffffffffffffffffffffffff1916817bffffffffffffffffffffffffffffffffffffffffffffffffffffffff191614915050611f82565b600190505b949350505050565b6000808273ffffffffffffffffffffffffffffffffffffffff163b119050919050565b508054611fb9906127c6565b6000825580601f10611fcb5750611fea565b601f016020900490600052602060002090810190611fe99190611fed565b5b50565b5b80821115612006576000816000905550600101611fee565b5090565b6000604051905090565b600080fd5b600080fd5b60007fffffffff0000000000000000000000000000000000000000000000000000000082169050919050565b6120538161201e565b811461205e57600080fd5b50565b6000813590506120708161204a565b92915050565b60006020828403121561208c5761208b612014565b5b600061209a84828501612061565b91505092915050565b60008115159050919050565b6120b8816120a3565b82525050565b60006020820190506120d360008301846120af565b92915050565b600081519050919050565b600082825260208201905092915050565b60005b838110156121135780820151818401526020810190506120f8565b60008484015250505050565b6000601f19601f8301169050919050565b600061213b826120d9565b61214581856120e4565b93506121558185602086016120f5565b61215e8161211f565b840191505092915050565b600060208201905081810360008301526121838184612130565b905092915050565b6000819050919050565b61219e8161218b565b81146121a957600080fd5b50565b6000813590506121bb81612195565b92915050565b6000602082840312156121d7576121d6612014565b5b60006121e5848285016121ac565b91505092915050565b600073ffffffffffffffffffffffffffffffffffffffff82169050919050565b6000612219826121ee565b9050919050565b6122298161220e565b82525050565b60006020820190506122446000830184612220565b92915050565b6122538161220e565b811461225e57600080fd5b50565b6000813590506122708161224a565b92915050565b6000806040838503121561228d5761228c612014565b5b600061229b85828601612261565b92505060206122ac858286016121ac565b9150509250929050565b6000806000606084860312156122cf576122ce612014565b5b60006122dd86828701612261565b93505060206122ee86828701612261565b92505060406122ff868287016121ac565b9150509250925092565b600067ffffffffffffffff82169050919050565b61232681612309565b811461233157600080fd5b50565b6000813590506123438161231d565b92915050565b600080fd5b600080fd5b7f4e487b7100000000000000000000000000000000000000000000000000000000600052604160045260246000fd5b61238b8261211f565b810181811067ffffffffffffffff821117156123aa576123a9612353565b5b80604052505050565b60006123bd61200a565b90506123c98282612382565b919050565b600067ffffffffffffffff8211156123e9576123e8612353565b5b6123f28261211f565b9050602081019050919050565b82818337600083830152505050565b600061242161241c846123ce565b6123b3565b90508281526020810184848401111561243d5761243c61234e565b5b6124488482856123ff565b509392505050565b600082601f83011261246557612464612349565b5b813561247584826020860161240e565b91505092915050565b600067ffffffffffffffff82111561249957612498612353565b5b6124a28261211f565b9050602081019050919050565b60006124c26124bd8461247e565b6123b3565b9050828152602081018484840111156124de576124dd61234e565b5b6124e98482856123ff565b509392505050565b600082601f83011261250657612505612349565b5b81356125168482602086016124af565b91505092915050565b60008060008060008060c0878903121561253c5761253b612014565b5b600061254a89828a01612334565b965050602061255b89828a01612261565b955050604061256c89828a01612261565b945050606061257d89828a016121ac565b935050608087013567ffffffffffffffff81111561259e5761259d612019565b5b6125aa89828a01612450565b92505060a087013567ffffffffffffffff8111156125cb576125ca612019565b5b6125d789828a016124f1565b9150509295509295509295565b6000602082840312156125fa576125f9612014565b5b600061260884828501612261565b91505092915050565b61261a8161218b565b82525050565b60006020820190506126356000830184612611565b92915050565b612644816120a3565b811461264f57600080fd5b50565b6000813590506126618161263b565b92915050565b6000806040838503121561267e5761267d612014565b5b600061268c85828601612261565b925050602061269d85828601612652565b9150509250929050565b6000602082840312156126bd576126bc612014565b5b60006126cb84828501612334565b91505092915050565b600080600080608085870312156126ee576126ed612014565b5b60006126fc87828801612261565b945050602061270d87828801612261565b935050604061271e878288016121ac565b925050606085013567ffffffffffffffff81111561273f5761273e612019565b5b61274b878288016124f1565b91505092959194509250565b6000806040838503121561276e5761276d612014565b5b600061277c85828601612261565b925050602061278d85828601612261565b9150509250929050565b7f4e487b7100000000000000000000000000000000000000000000000000000000600052602260045260246000fd5b600060028204905060018216806127de57607f821691505b6020821081036127f1576127f0612797565b5b50919050565b7f4552433732313a20617070726f76616c20746f2063757272656e74206f776e6560008201527f7200000000000000000000000000000000000000000000000000000000000000602082015250565b60006128536021836120e4565b915061285e826127f7565b604082019050919050565b6000602082019050818103600083015261288281612846565b9050919050565b7f4552433732313a20617070726f76652063616c6c6572206973206e6f7420746f60008201527f6b656e206f776e6572206f7220617070726f76656420666f7220616c6c000000602082015250565b60006128e5603d836120e4565b91506128f082612889565b604082019050919050565b60006020820190508181036000830152612914816128d8565b9050919050565b7f4552433732313a2063616c6c6572206973206e6f7420746f6b656e206f776e6560008201527f72206f7220617070726f76656400000000000000000000000000000000000000602082015250565b6000612977602d836120e4565b91506129828261291b565b604082019050919050565b600060208201905081810360008301526129a68161296a565b9050919050565b7f4552433732313a20696e76616c696420746f6b656e2049440000000000000000600082015250565b60006129e36018836120e4565b91506129ee826129ad565b602082019050919050565b60006020820190508181036000830152612a12816129d6565b9050919050565b6000612a2c612a27846123ce565b6123b3565b905082815260208101848484011115612a4857612a4761234e565b5b612a538482856120f5565b509392505050565b600082601f830112612a7057612a6f612349565b5b8151612a80848260208601612a19565b91505092915050565b600081519050612a9881612195565b92915050565b60008060408385031215612ab557612ab4612014565b5b600083015167ffffffffffffffff811115612ad357612ad2612019565b5b612adf85828601612a5b565b9250506020612af085828601612a89565b9150509250929050565b60008190508160005260206000209050919050565b60006020601f8301049050919050565b600082821b905092915050565b600060088302612b5c7fffffffffffffffffffffffffffffffffffffffffffffffffffffffffffffffff82612b1f565b612b668683612b1f565b95508019841693508086168417925050509392505050565b6000819050919050565b6000612ba3612b9e612b998461218b565b612b7e565b61218b565b9050919050565b6000819050919050565b612bbd83612b88565b612bd1612bc982612baa565b848454612b2c565b825550505050565b600090565b612be6612bd9565b612bf1818484612bb4565b505050565b5b81811015612c1557612c0a600082612bde565b600181019050612bf7565b5050565b601f821115612c5a57612c2b81612afa565b612c3484612b0f565b81016020851015612c43578190505b612c57612c4f85612b0f565b830182612bf6565b50505b505050565b600082821c905092915050565b6000612c7d60001984600802612c5f565b1980831691505092915050565b6000612c968383612c6c565b9150826002028217905092915050565b612caf826120d9565b67ffffffffffffffff811115612cc857612cc7612353565b5b612cd282546127c6565b612cdd828285612c19565b600060209050601f831160018114612d105760008415612cfe578287015190505b612d088582612c8a565b865550612d70565b601f198416612d1e86612afa565b60005b82811015612d4657848901518255600182019150602085019450602081019050612d21565b86831015612d635784890151612d5f601f891682612c6c565b8355505b6001600288020188555050505b505050505050565b7f4552433732313a2061646472657373207a65726f206973206e6f74206120766160008201527f6c6964206f776e65720000000000000000000000000000000000000000000000602082015250565b6000612dd46029836120e4565b9150612ddf82612d78565b604082019050919050565b60006020820190508181036000830152612e0381612dc7565b9050919050565b7f437265617465207468697320706c617965722066697273740000000000000000600082015250565b6000612e406018836120e4565b9150612e4b82612e0a565b602082019050919050565b60006020820190508181036000830152612e6f81612e33565b9050919050565b7f4e487b7100000000000000000000000000000000000000000000000000000000600052601160045260246000fd5b6000612eb08261218b565b9150612ebb8361218b565b9250828201905080821115612ed357612ed2612e76565b5b92915050565b7f4e487b7100000000000000000000000000000000000000000000000000000000600052603260045260246000fd5b600081519050919050565b600082825260208201905092915050565b6000819050602082019050919050565b600082825260208201905092915050565b6000612f50826120d9565b612f5a8185612f34565b9350612f6a8185602086016120f5565b612f738161211f565b840191505092915050565b6000612f8a8383612f45565b905092915050565b6000602082019050919050565b6000612faa82612f08565b612fb48185612f13565b935083602082028501612fc685612f24565b8060005b858110156130025784840389528151612fe38582612f7e565b9450612fee83612f92565b925060208a01995050600181019050612fca565b50829750879550505050505092915050565b60006060820190506130296000830186612220565b818103602083015261303b8185612f9f565b9050818103604083015261304f8184612130565b9050949350505050565b600060408201905081810360008301526130738185612130565b90506130826020830184612611565b9392505050565b61309281612309565b82525050565b600081519050919050565b600082825260208201905092915050565b60006130bf82613098565b6130c981856130a3565b93506130d98185602086016120f5565b6130e28161211f565b840191505092915050565b600060c0820190506131026000830189613089565b61310f6020830188612220565b61311c6040830187612220565b6131296060830186612611565b818103608083015261313b8185612130565b905081810360a083015261314f81846130b4565b9050979650505050505050565b600081905092915050565b6000613172826120d9565b61317c818561315c565b935061318c8185602086016120f5565b80840191505092915050565b60006131a48285613167565b91506131b08284613167565b91508190509392505050565b7f4552433732313a207472616e736665722066726f6d20696e636f72726563742060008201527f6f776e6572000000000000000000000000000000000000000000000000000000602082015250565b60006132186025836120e4565b9150613223826131bc565b604082019050919050565b600060208201905081810360008301526132478161320b565b9050919050565b7f4552433732313a207472616e7366657220746f20746865207a65726f2061646460008201527f7265737300000000000000000000000000000000000000000000000000000000602082015250565b60006132aa6024836120e4565b91506132b58261324e565b604082019050919050565b600060208201905081810360008301526132d98161329d565b9050919050565b7f4552433732313a206d696e7420746f20746865207a65726f2061646472657373600082015250565b60006133166020836120e4565b9150613321826132e0565b602082019050919050565b6000602082019050818103600083015261334581613309565b9050919050565b7f4552433732313a20746f6b656e20616c7265616479206d696e74656400000000600082015250565b6000613382601c836120e4565b915061338d8261334c565b602082019050919050565b600060208201905081810360008301526133b181613375565b9050919050565b7f4e487b7100000000000000000000000000000000000000000000000000000000600052601260045260246000fd5b7f4552433732313a20617070726f766520746f2063616c6c657200000000000000600082015250565b600061341d6019836120e4565b9150613428826133e7565b602082019050919050565b6000602082019050818103600083015261344c81613410565b9050919050565b7f4552433732313a207472616e7366657220746f206e6f6e20455243373231526560008201527f63656976657220696d706c656d656e7465720000000000000000000000000000602082015250565b60006134af6032836120e4565b91506134ba82613453565b604082019050919050565b600060208201905081810360008301526134de816134a2565b9050919050565b60006080820190506134fa6000830187612220565b6135076020830186612220565b6135146040830185612611565b818103606083015261352681846130b4565b905095945050505050565b6000815190506135408161204a565b92915050565b60006020828403121561355c5761355b612014565b5b600061356a84828501613531565b9150509291505056fea2646970667358221220f8e53f9f82dea7d38966bb760e221f291529e5985827d6d65a2789e0017e3d9864736f6c63430008110033",
  "immutableReferences": {},
  "source": "// SPDX-License-Identifier: MIT\r\npragma solidity ^0.8.17;\r\n\r\nimport {Params} from \"../libraries/Params.sol\";\r\nimport {IKanvasInterop} from \"../interfaces/IKanvasInterop.sol\";\r\nimport {IKanvasInteropGame} from \"../interfaces/IKanvasInteropGame.sol\";\r\n\r\nimport {ERC721} from \"@openzeppelin/contracts/token/ERC721/ERC721.sol\";\r\nimport {Strings} from \"@openzeppelin/contracts/utils/Strings.sol\";\r\n\r\ncontract RockPaperScissorsInterop is IKanvasInteropGame, ERC721 {\r\n    uint64 private constant AVAX_SELECTOR = 14767482510784806043;\r\n    uint256 public constant MAX_PROPERTIES_LEN = 20;\r\n\r\n    uint256 private _tokenId;\r\n\r\n    mapping(uint256 => string) private _tokenURIs;\r\n    mapping(address => uint256) private _playerNfts;\r\n\r\n    IKanvasInterop private kanvas;\r\n\r\n    struct Player {\r\n        string name;\r\n        uint256 points;\r\n        bool created;\r\n    }\r\n\r\n    mapping(address => Player) private _players;\r\n\r\n    constructor(\r\n        address kanvasRouter,\r\n        address sourceGameId\r\n    ) ERC721(\"RockPaperScissors\", \"RPS\") IKanvasInteropGame() {\r\n        kanvas = IKanvasInterop(kanvasRouter);\r\n        kanvas._createGame(\r\n            AVAX_SELECTOR,\r\n            Params.InteropGame({gameId: sourceGameId})\r\n        );\r\n    }\r\n\r\n    function upgradePlayer(address playerId) external {\r\n        Player storage player = _players[playerId];\r\n        require(player.created, \"Create this player first\");\r\n\r\n        player.points = player.points + 5;\r\n\r\n        string[] memory properties = new string[](MAX_PROPERTIES_LEN);\r\n        properties[0] = player.name;\r\n        properties[1] = Strings.toString(player.points);\r\n\r\n        string memory fields = \"$player_name$ $player_points$\";\r\n\r\n        kanvas._generateUri(playerId, properties, fields);\r\n    }\r\n\r\n    function transferTo(uint64 chainSelector) external {\r\n        address playerId = _msgSender();\r\n        uint256 tokenId = _playerNfts[playerId];\r\n\r\n        _burn(tokenId);\r\n        delete _tokenURIs[tokenId];\r\n\r\n        delete _playerNfts[playerId];\r\n\r\n        address gameId = address(this);\r\n        string memory uri = _tokenURIs[tokenId];\r\n        Player memory player = _players[playerId];\r\n\r\n        bytes memory data = abi.encode(player.name, player.points);\r\n\r\n        kanvas._transferTo(chainSelector, gameId, playerId, tokenId, uri, data);\r\n    }\r\n\r\n    function _receiveFrom(\r\n        uint64 /* chainSelector */,\r\n        address /* gameId */,\r\n        address playerId,\r\n        uint256 tokenId,\r\n        string memory uri,\r\n        bytes memory data\r\n    ) external override {\r\n        (string memory name, uint256 points) = abi.decode(\r\n            data,\r\n            (string, uint256)\r\n        );\r\n\r\n        _mint(playerId, tokenId);\r\n        _tokenURIs[tokenId] = uri;\r\n\r\n        _players[playerId].name = name;\r\n        _players[playerId].points = points;\r\n\r\n        _playerNfts[playerId] = tokenId;\r\n    }\r\n}\r\n",
  "sourcePath": "C:\\Users\\DELL\\Documents\\kanvas\\blockchain\\contracts\\rock-paper-scissors\\RockPaperScissorsInterop.sol",
  "compiler": {
    "name": "solc",
    "version": "0.8.17+commit.8df45f5f.Emscripten.clang"
  },
  "schemaVersion": "3.4.11",
  "updatedAt": "2023-12-02T16:02:22.495Z",
  "devdoc": {
    "kind": "dev",
    "methods": {
      "approve(address,uint256)": {
        "details": "See {IERC721-approve}."
      },
      "balanceOf(address)": {
        "details": "See {IERC721-balanceOf}."
      },
      "getApproved(uint256)": {
        "details": "See {IERC721-getApproved}."
      },
      "isApprovedForAll(address,address)": {
        "details": "See {IERC721-isApprovedForAll}."
      },
      "name()": {
        "details": "See {IERC721Metadata-name}."
      },
      "ownerOf(uint256)": {
        "details": "See {IERC721-ownerOf}."
      },
      "safeTransferFrom(address,address,uint256)": {
        "details": "See {IERC721-safeTransferFrom}."
      },
      "safeTransferFrom(address,address,uint256,bytes)": {
        "details": "See {IERC721-safeTransferFrom}."
      },
      "setApprovalForAll(address,bool)": {
        "details": "See {IERC721-setApprovalForAll}."
      },
      "supportsInterface(bytes4)": {
        "details": "See {IERC165-supportsInterface}."
      },
      "symbol()": {
        "details": "See {IERC721Metadata-symbol}."
      },
      "tokenURI(uint256)": {
        "details": "See {IERC721Metadata-tokenURI}."
      },
      "transferFrom(address,address,uint256)": {
        "details": "See {IERC721-transferFrom}."
      }
    },
    "version": 1
  },
  "userdoc": {
    "kind": "user",
    "methods": {},
    "version": 1
  }
}