{
  "contractName": "RockPaperScissors",
  "abi": [
    {
      "inputs": [
        {
          "internalType": "address",
          "name": "kanvasRouter",
          "type": "address"
        }
      ],
      "stateMutability": "nonpayable",
      "type": "constructor"
    },
    {
      "anonymous": false,
      "inputs": [
        {
          "indexed": true,
          "internalType": "address",
          "name": "owner",
          "type": "address"
        },
        {
          "indexed": true,
          "internalType": "address",
          "name": "approved",
          "type": "address"
        },
        {
          "indexed": true,
          "internalType": "uint256",
          "name": "tokenId",
          "type": "uint256"
        }
      ],
      "name": "Approval",
      "type": "event"
    },
    {
      "anonymous": false,
      "inputs": [
        {
          "indexed": true,
          "internalType": "address",
          "name": "owner",
          "type": "address"
        },
        {
          "indexed": true,
          "internalType": "address",
          "name": "operator",
          "type": "address"
        },
        {
          "indexed": false,
          "internalType": "bool",
          "name": "approved",
          "type": "bool"
        }
      ],
      "name": "ApprovalForAll",
      "type": "event"
    },
    {
      "anonymous": false,
      "inputs": [
        {
          "indexed": true,
          "internalType": "address",
          "name": "previousOwner",
          "type": "address"
        },
        {
          "indexed": true,
          "internalType": "address",
          "name": "newOwner",
          "type": "address"
        }
      ],
      "name": "OwnershipTransferred",
      "type": "event"
    },
    {
      "anonymous": false,
      "inputs": [
        {
          "indexed": true,
          "internalType": "address",
          "name": "from",
          "type": "address"
        },
        {
          "indexed": true,
          "internalType": "address",
          "name": "to",
          "type": "address"
        },
        {
          "indexed": true,
          "internalType": "uint256",
          "name": "tokenId",
          "type": "uint256"
        }
      ],
      "name": "Transfer",
      "type": "event"
    },
    {
      "inputs": [],
      "name": "MAX_PROPERTIES_LEN",
      "outputs": [
        {
          "internalType": "uint256",
          "name": "",
          "type": "uint256"
        }
      ],
      "stateMutability": "view",
      "type": "function"
    },
    {
      "inputs": [
        {
          "internalType": "address",
          "name": "to",
          "type": "address"
        },
        {
          "internalType": "uint256",
          "name": "tokenId",
          "type": "uint256"
        }
      ],
      "name": "approve",
      "outputs": [],
      "stateMutability": "nonpayable",
      "type": "function"
    },
    {
      "inputs": [
        {
          "internalType": "address",
          "name": "owner",
          "type": "address"
        }
      ],
      "name": "balanceOf",
      "outputs": [
        {
          "internalType": "uint256",
          "name": "",
          "type": "uint256"
        }
      ],
      "stateMutability": "view",
      "type": "function"
    },
    {
      "inputs": [
        {
          "internalType": "uint256",
          "name": "tokenId",
          "type": "uint256"
        }
      ],
      "name": "getApproved",
      "outputs": [
        {
          "internalType": "address",
          "name": "",
          "type": "address"
        }
      ],
      "stateMutability": "view",
      "type": "function"
    },
    {
      "inputs": [
        {
          "internalType": "address",
          "name": "owner",
          "type": "address"
        },
        {
          "internalType": "address",
          "name": "operator",
          "type": "address"
        }
      ],
      "name": "isApprovedForAll",
      "outputs": [
        {
          "internalType": "bool",
          "name": "",
          "type": "bool"
        }
      ],
      "stateMutability": "view",
      "type": "function"
    },
    {
      "inputs": [],
      "name": "name",
      "outputs": [
        {
          "internalType": "string",
          "name": "",
          "type": "string"
        }
      ],
      "stateMutability": "view",
      "type": "function"
    },
    {
      "inputs": [],
      "name": "owner",
      "outputs": [
        {
          "internalType": "address",
          "name": "",
          "type": "address"
        }
      ],
      "stateMutability": "view",
      "type": "function"
    },
    {
      "inputs": [
        {
          "internalType": "uint256",
          "name": "tokenId",
          "type": "uint256"
        }
      ],
      "name": "ownerOf",
      "outputs": [
        {
          "internalType": "address",
          "name": "",
          "type": "address"
        }
      ],
      "stateMutability": "view",
      "type": "function"
    },
    {
      "inputs": [],
      "name": "renounceOwnership",
      "outputs": [],
      "stateMutability": "nonpayable",
      "type": "function"
    },
    {
      "inputs": [
        {
          "internalType": "address",
          "name": "from",
          "type": "address"
        },
        {
          "internalType": "address",
          "name": "to",
          "type": "address"
        },
        {
          "internalType": "uint256",
          "name": "tokenId",
          "type": "uint256"
        }
      ],
      "name": "safeTransferFrom",
      "outputs": [],
      "stateMutability": "nonpayable",
      "type": "function"
    },
    {
      "inputs": [
        {
          "internalType": "address",
          "name": "from",
          "type": "address"
        },
        {
          "internalType": "address",
          "name": "to",
          "type": "address"
        },
        {
          "internalType": "uint256",
          "name": "tokenId",
          "type": "uint256"
        },
        {
          "internalType": "bytes",
          "name": "data",
          "type": "bytes"
        }
      ],
      "name": "safeTransferFrom",
      "outputs": [],
      "stateMutability": "nonpayable",
      "type": "function"
    },
    {
      "inputs": [
        {
          "internalType": "address",
          "name": "operator",
          "type": "address"
        },
        {
          "internalType": "bool",
          "name": "approved",
          "type": "bool"
        }
      ],
      "name": "setApprovalForAll",
      "outputs": [],
      "stateMutability": "nonpayable",
      "type": "function"
    },
    {
      "inputs": [
        {
          "internalType": "bytes4",
          "name": "interfaceId",
          "type": "bytes4"
        }
      ],
      "name": "supportsInterface",
      "outputs": [
        {
          "internalType": "bool",
          "name": "",
          "type": "bool"
        }
      ],
      "stateMutability": "view",
      "type": "function"
    },
    {
      "inputs": [],
      "name": "symbol",
      "outputs": [
        {
          "internalType": "string",
          "name": "",
          "type": "string"
        }
      ],
      "stateMutability": "view",
      "type": "function"
    },
    {
      "inputs": [
        {
          "internalType": "address",
          "name": "from",
          "type": "address"
        },
        {
          "internalType": "address",
          "name": "to",
          "type": "address"
        },
        {
          "internalType": "uint256",
          "name": "tokenId",
          "type": "uint256"
        }
      ],
      "name": "transferFrom",
      "outputs": [],
      "stateMutability": "nonpayable",
      "type": "function"
    },
    {
      "inputs": [
        {
          "internalType": "address",
          "name": "newOwner",
          "type": "address"
        }
      ],
      "name": "transferOwnership",
      "outputs": [],
      "stateMutability": "nonpayable",
      "type": "function"
    },
    {
      "inputs": [
        {
          "internalType": "address",
          "name": "playerId",
          "type": "address"
        },
        {
          "internalType": "string",
          "name": "name",
          "type": "string"
        }
      ],
      "name": "createPlayer",
      "outputs": [],
      "stateMutability": "nonpayable",
      "type": "function"
    },
    {
      "inputs": [
        {
          "internalType": "address",
          "name": "playerId",
          "type": "address"
        }
      ],
      "name": "getPlayer",
      "outputs": [
        {
          "components": [
            {
              "internalType": "string",
              "name": "name",
              "type": "string"
            },
            {
              "internalType": "uint256",
              "name": "points",
              "type": "uint256"
            },
            {
              "internalType": "bool",
              "name": "created",
              "type": "bool"
            }
          ],
          "internalType": "struct RockPaperScissors.Player",
          "name": "",
          "type": "tuple"
        }
      ],
      "stateMutability": "view",
      "type": "function"
    },
    {
      "inputs": [
        {
          "internalType": "address",
          "name": "playerId",
          "type": "address"
        }
      ],
      "name": "upgradePlayer",
      "outputs": [],
      "stateMutability": "nonpayable",
      "type": "function"
    },
    {
      "inputs": [
        {
          "internalType": "address",
          "name": "playerId",
          "type": "address"
        }
      ],
      "name": "downgradePlayer",
      "outputs": [],
      "stateMutability": "nonpayable",
      "type": "function"
    },
    {
      "inputs": [
        {
          "internalType": "uint64",
          "name": "chainSelector",
          "type": "uint64"
        }
      ],
      "name": "transferTo",
      "outputs": [],
      "stateMutability": "payable",
      "type": "function"
    },
    {
      "inputs": [
        {
          "internalType": "uint64",
          "name": "",
          "type": "uint64"
        },
        {
          "internalType": "address",
          "name": "",
          "type": "address"
        },
        {
          "internalType": "address",
          "name": "playerId",
          "type": "address"
        },
        {
          "internalType": "uint256",
          "name": "tokenId",
          "type": "uint256"
        },
        {
          "internalType": "string",
          "name": "uri",
          "type": "string"
        },
        {
          "internalType": "bytes",
          "name": "data",
          "type": "bytes"
        }
      ],
      "name": "_receiveFrom",
      "outputs": [],
      "stateMutability": "nonpayable",
      "type": "function"
    },
    {
      "inputs": [
        {
          "internalType": "address",
          "name": "playerId",
          "type": "address"
        },
        {
          "internalType": "string",
          "name": "uri",
          "type": "string"
        }
      ],
      "name": "_receiveUri",
      "outputs": [],
      "stateMutability": "nonpayable",
      "type": "function"
    },
    {
      "inputs": [
        {
          "internalType": "uint256",
          "name": "tokenId",
          "type": "uint256"
        }
      ],
      "name": "tokenURI",
      "outputs": [
        {
          "internalType": "string",
          "name": "",
          "type": "string"
        }
      ],
      "stateMutability": "view",
      "type": "function"
    }
  ],
  "bytecode": "0x60806040523480156200001157600080fd5b5060405162004eba38038062004eba833981810160405281019062000037919062000269565b6040518060400160405280601181526020017f526f636b506170657253636973736f72730000000000000000000000000000008152506040518060400160405280600381526020017f52505300000000000000000000000000000000000000000000000000000000008152508160009081620000b4919062000515565b508060019081620000c6919062000515565b505050620000e9620000dd6200013160201b60201c565b6200013960201b60201c565b80600a60006101000a81548173ffffffffffffffffffffffffffffffffffffffff021916908373ffffffffffffffffffffffffffffffffffffffff16021790555050620005fc565b600033905090565b6000600660009054906101000a900473ffffffffffffffffffffffffffffffffffffffff16905081600660006101000a81548173ffffffffffffffffffffffffffffffffffffffff021916908373ffffffffffffffffffffffffffffffffffffffff1602179055508173ffffffffffffffffffffffffffffffffffffffff168173ffffffffffffffffffffffffffffffffffffffff167f8be0079c531659141344cd1fd0a4f28419497f9722a3daafe3b4186f6b6457e060405160405180910390a35050565b600080fd5b600073ffffffffffffffffffffffffffffffffffffffff82169050919050565b6000620002318262000204565b9050919050565b620002438162000224565b81146200024f57600080fd5b50565b600081519050620002638162000238565b92915050565b600060208284031215620002825762000281620001ff565b5b6000620002928482850162000252565b91505092915050565b600081519050919050565b7f4e487b7100000000000000000000000000000000000000000000000000000000600052604160045260246000fd5b7f4e487b7100000000000000000000000000000000000000000000000000000000600052602260045260246000fd5b600060028204905060018216806200031d57607f821691505b602082108103620003335762000332620002d5565b5b50919050565b60008190508160005260206000209050919050565b60006020601f8301049050919050565b600082821b905092915050565b6000600883026200039d7fffffffffffffffffffffffffffffffffffffffffffffffffffffffffffffffff826200035e565b620003a986836200035e565b95508019841693508086168417925050509392505050565b6000819050919050565b6000819050919050565b6000620003f6620003f0620003ea84620003c1565b620003cb565b620003c1565b9050919050565b6000819050919050565b6200041283620003d5565b6200042a6200042182620003fd565b8484546200036b565b825550505050565b600090565b6200044162000432565b6200044e81848462000407565b505050565b5b8181101562000476576200046a60008262000437565b60018101905062000454565b5050565b601f821115620004c5576200048f8162000339565b6200049a846200034e565b81016020851015620004aa578190505b620004c2620004b9856200034e565b83018262000453565b50505b505050565b600082821c905092915050565b6000620004ea60001984600802620004ca565b1980831691505092915050565b6000620005058383620004d7565b9150826002028217905092915050565b62000520826200029b565b67ffffffffffffffff8111156200053c576200053b620002a6565b5b62000548825462000304565b620005558282856200047a565b600060209050601f8311600181146200058d576000841562000578578287015190505b620005848582620004f7565b865550620005f4565b601f1984166200059d8662000339565b60005b82811015620005c757848901518255600182019150602085019450602081019050620005a0565b86831015620005e75784890151620005e3601f891682620004d7565b8355505b6001600288020188555050505b505050505050565b6148ae806200060c6000396000f3fe60806040526004361061014b5760003560e01c80638b8ff358116100b6578063af3ef62e1161006f578063af3ef62e1461048c578063b64fe1c6146104a8578063b88d4fde146104d1578063c87b56dd146104fa578063e985e9c514610537578063f2fde38b146105745761014b565b80638b8ff358146103905780638da5cb5b146103bb5780638f9c3956146103e657806395d89b411461040f578063a06422a71461043a578063a22cb465146104635761014b565b806342842e0e1161010857806342842e0e146102705780635c12cd4b146102995780636352211e146102d65780636d4195fb1461031357806370a082311461033c578063715018a6146103795761014b565b806301ffc9a71461015057806306fdde031461018d578063081812fc146101b8578063095ea7b3146101f557806323b872dd1461021e57806340f8739214610247575b600080fd5b34801561015c57600080fd5b5061017760048036038101906101729190612ef4565b61059d565b6040516101849190612f3c565b60405180910390f35b34801561019957600080fd5b506101a261067f565b6040516101af9190612fe7565b60405180910390f35b3480156101c457600080fd5b506101df60048036038101906101da919061303f565b610711565b6040516101ec91906130ad565b60405180910390f35b34801561020157600080fd5b5061021c600480360381019061021791906130f4565b610757565b005b34801561022a57600080fd5b5061024560048036038101906102409190613134565b61086e565b005b34801561025357600080fd5b5061026e60048036038101906102699190613187565b6108ce565b005b34801561027c57600080fd5b5061029760048036038101906102929190613134565b610bca565b005b3480156102a557600080fd5b506102c060048036038101906102bb9190613187565b610bea565b6040516102cd919061326c565b60405180910390f35b3480156102e257600080fd5b506102fd60048036038101906102f8919061303f565b610cfa565b60405161030a91906130ad565b60405180910390f35b34801561031f57600080fd5b5061033a600480360381019061033591906134a4565b610d80565b005b34801561034857600080fd5b50610363600480360381019061035e9190613187565b610eab565b6040516103709190613578565b60405180910390f35b34801561038557600080fd5b5061038e610f62565b005b34801561039c57600080fd5b506103a5610f76565b6040516103b29190613578565b60405180910390f35b3480156103c757600080fd5b506103d0610f7b565b6040516103dd91906130ad565b60405180910390f35b3480156103f257600080fd5b5061040d60048036038101906104089190613593565b610fa5565b005b34801561041b57600080fd5b50610424611083565b6040516104319190612fe7565b60405180910390f35b34801561044657600080fd5b50610461600480360381019061045c9190613187565b611115565b005b34801561046f57600080fd5b5061048a6004803603810190610485919061361b565b6113c9565b005b6104a660048036038101906104a1919061365b565b6113df565b005b3480156104b457600080fd5b506104cf60048036038101906104ca9190613593565b611713565b005b3480156104dd57600080fd5b506104f860048036038101906104f39190613688565b6119e1565b005b34801561050657600080fd5b50610521600480360381019061051c919061303f565b611a43565b60405161052e9190612fe7565b60405180910390f35b34801561054357600080fd5b5061055e6004803603810190610559919061370b565b611ae8565b60405161056b9190612f3c565b60405180910390f35b34801561058057600080fd5b5061059b60048036038101906105969190613187565b611b7c565b005b60007f80ac58cd000000000000000000000000000000000000000000000000000000007bffffffffffffffffffffffffffffffffffffffffffffffffffffffff1916827bffffffffffffffffffffffffffffffffffffffffffffffffffffffff1916148061066857507f5b5e139f000000000000000000000000000000000000000000000000000000007bffffffffffffffffffffffffffffffffffffffffffffffffffffffff1916827bffffffffffffffffffffffffffffffffffffffffffffffffffffffff1916145b80610678575061067782611bff565b5b9050919050565b60606000805461068e9061377a565b80601f01602080910402602001604051908101604052809291908181526020018280546106ba9061377a565b80156107075780601f106106dc57610100808354040283529160200191610707565b820191906000526020600020905b8154815290600101906020018083116106ea57829003601f168201915b5050505050905090565b600061071c82611c69565b6004600083815260200190815260200160002060009054906101000a900473ffffffffffffffffffffffffffffffffffffffff169050919050565b600061076282610cfa565b90508073ffffffffffffffffffffffffffffffffffffffff168373ffffffffffffffffffffffffffffffffffffffff16036107d2576040517f08c379a00000000000000000000000000000000000000000000000000000000081526004016107c99061381d565b60405180910390fd5b8073ffffffffffffffffffffffffffffffffffffffff166107f1611cb4565b73ffffffffffffffffffffffffffffffffffffffff161480610820575061081f8161081a611cb4565b611ae8565b5b61085f576040517f08c379a0000000000000000000000000000000000000000000000000000000008152600401610856906138af565b60405180910390fd5b6108698383611cbc565b505050565b61087f610879611cb4565b82611d75565b6108be576040517f08c379a00000000000000000000000000000000000000000000000000000000081526004016108b590613941565b60405180910390fd5b6108c9838383611e0a565b505050565b6108d6612043565b6000600b60008373ffffffffffffffffffffffffffffffffffffffff1673ffffffffffffffffffffffffffffffffffffffff16815260200190815260200160002090508060020160009054906101000a900460ff1661096a576040517f08c379a0000000000000000000000000000000000000000000000000000000008152600401610961906139ad565b60405180910390fd5b6001816001015410156109b2576040517f08c379a00000000000000000000000000000000000000000000000000000000081526004016109a990613a19565b60405180910390fd5b600181600101546109c39190613a68565b81600101819055506000601467ffffffffffffffff8111156109e8576109e76132d8565b5b604051908082528060200260200182016040528015610a1b57816020015b6060815260200190600190039081610a065790505b509050816000018054610a2d9061377a565b80601f0160208091040260200160405190810160405280929190818152602001828054610a599061377a565b8015610aa65780601f10610a7b57610100808354040283529160200191610aa6565b820191906000526020600020905b815481529060010190602001808311610a8957829003601f168201915b505050505081600081518110610abf57610abe613a9c565b5b6020026020010181905250610ad782600101546120c1565b81600181518110610aeb57610aea613a9c565b5b602002602001018190525060006040518060400160405280600f81526020017f246e616d65242024706f696e74732400000000000000000000000000000000008152509050600a60009054906101000a900473ffffffffffffffffffffffffffffffffffffffff1673ffffffffffffffffffffffffffffffffffffffff1663eee6e57385848460016040518563ffffffff1660e01b8152600401610b929493929190613ba9565b600060405180830381600087803b158015610bac57600080fd5b505af1158015610bc0573d6000803e3d6000fd5b5050505050505050565b610be5838383604051806020016040528060008152506119e1565b505050565b610bf2612e08565b600b60008373ffffffffffffffffffffffffffffffffffffffff1673ffffffffffffffffffffffffffffffffffffffff168152602001908152602001600020604051806060016040529081600082018054610c4c9061377a565b80601f0160208091040260200160405190810160405280929190818152602001828054610c789061377a565b8015610cc55780601f10610c9a57610100808354040283529160200191610cc5565b820191906000526020600020905b815481529060010190602001808311610ca857829003601f168201915b50505050508152602001600182015481526020016002820160009054906101000a900460ff1615151515815250509050919050565b600080610d068361218f565b9050600073ffffffffffffffffffffffffffffffffffffffff168173ffffffffffffffffffffffffffffffffffffffff1603610d77576040517f08c379a0000000000000000000000000000000000000000000000000000000008152600401610d6e90613c48565b60405180910390fd5b80915050919050565b60008082806020019051810190610d979190613ced565b91509150610da586866121cc565b83600860008781526020019081526020016000209081610dc59190613ef5565b5081600b60008873ffffffffffffffffffffffffffffffffffffffff1673ffffffffffffffffffffffffffffffffffffffff1681526020019081526020016000206000019081610e159190613ef5565b5080600b60008873ffffffffffffffffffffffffffffffffffffffff1673ffffffffffffffffffffffffffffffffffffffff1681526020019081526020016000206001018190555084600960008873ffffffffffffffffffffffffffffffffffffffff1673ffffffffffffffffffffffffffffffffffffffff168152602001908152602001600020819055505050505050505050565b60008073ffffffffffffffffffffffffffffffffffffffff168273ffffffffffffffffffffffffffffffffffffffff1603610f1b576040517f08c379a0000000000000000000000000000000000000000000000000000000008152600401610f1290614039565b60405180910390fd5b600360008373ffffffffffffffffffffffffffffffffffffffff1673ffffffffffffffffffffffffffffffffffffffff168152602001908152602001600020549050919050565b610f6a612043565b610f7460006123e9565b565b601481565b6000600660009054906101000a900473ffffffffffffffffffffffffffffffffffffffff16905090565b6000600960008473ffffffffffffffffffffffffffffffffffffffff1673ffffffffffffffffffffffffffffffffffffffff1681526020019081526020016000205490506000810361105d576007600081548092919061100490614059565b9190505550600754905061101883826121cc565b80600960008573ffffffffffffffffffffffffffffffffffffffff1673ffffffffffffffffffffffffffffffffffffffff168152602001908152602001600020819055505b8160086000838152602001908152602001600020908161107d9190613ef5565b50505050565b6060600180546110929061377a565b80601f01602080910402602001604051908101604052809291908181526020018280546110be9061377a565b801561110b5780601f106110e05761010080835404028352916020019161110b565b820191906000526020600020905b8154815290600101906020018083116110ee57829003601f168201915b5050505050905090565b61111d612043565b6000600b60008373ffffffffffffffffffffffffffffffffffffffff1673ffffffffffffffffffffffffffffffffffffffff16815260200190815260200160002090508060020160009054906101000a900460ff166111b1576040517f08c379a00000000000000000000000000000000000000000000000000000000081526004016111a8906139ad565b60405180910390fd5b600581600101546111c291906140a1565b81600101819055506000601467ffffffffffffffff8111156111e7576111e66132d8565b5b60405190808252806020026020018201604052801561121a57816020015b60608152602001906001900390816112055790505b50905081600001805461122c9061377a565b80601f01602080910402602001604051908101604052809291908181526020018280546112589061377a565b80156112a55780601f1061127a576101008083540402835291602001916112a5565b820191906000526020600020905b81548152906001019060200180831161128857829003601f168201915b5050505050816000815181106112be576112bd613a9c565b5b60200260200101819052506112d682600101546120c1565b816001815181106112ea576112e9613a9c565b5b602002602001018190525060006040518060400160405280600f81526020017f246e616d65242024706f696e74732400000000000000000000000000000000008152509050600a60009054906101000a900473ffffffffffffffffffffffffffffffffffffffff1673ffffffffffffffffffffffffffffffffffffffff1663eee6e57385848460006040518563ffffffff1660e01b81526004016113919493929190613ba9565b600060405180830381600087803b1580156113ab57600080fd5b505af11580156113bf573d6000803e3d6000fd5b5050505050505050565b6113db6113d4611cb4565b83836124af565b5050565b60006113e9611cb4565b90506000600960008373ffffffffffffffffffffffffffffffffffffffff1673ffffffffffffffffffffffffffffffffffffffff1681526020019081526020016000205490506114388161261b565b6008600082815260200190815260200160002060006114579190612e2b565b600960008373ffffffffffffffffffffffffffffffffffffffff1673ffffffffffffffffffffffffffffffffffffffff16815260200190815260200160002060009055600030905060006008600084815260200190815260200160002080546114bf9061377a565b80601f01602080910402602001604051908101604052809291908181526020018280546114eb9061377a565b80156115385780601f1061150d57610100808354040283529160200191611538565b820191906000526020600020905b81548152906001019060200180831161151b57829003601f168201915b505050505090506000600b60008673ffffffffffffffffffffffffffffffffffffffff1673ffffffffffffffffffffffffffffffffffffffff16815260200190815260200160002060405180606001604052908160008201805461159b9061377a565b80601f01602080910402602001604051908101604052809291908181526020018280546115c79061377a565b80156116145780601f106115e957610100808354040283529160200191611614565b820191906000526020600020905b8154815290600101906020018083116115f757829003601f168201915b50505050508152602001600182015481526020016002820160009054906101000a900460ff16151515158152505090506000816000015182602001516040516020016116619291906140d5565b6040516020818303038152906040529050600a60009054906101000a900473ffffffffffffffffffffffffffffffffffffffff1673ffffffffffffffffffffffffffffffffffffffff16638d6dc0eb3489878a8a89886040518863ffffffff1660e01b81526004016116d896959493929190614169565b6000604051808303818588803b1580156116f157600080fd5b505af1158015611705573d6000803e3d6000fd5b505050505050505050505050565b6000600b60008473ffffffffffffffffffffffffffffffffffffffff1673ffffffffffffffffffffffffffffffffffffffff16815260200190815260200160002090508060020160009054906101000a900460ff16156117a8576040517f08c379a000000000000000000000000000000000000000000000000000000000815260040161179f90614224565b60405180910390fd5b818160000190816117b99190613ef5565b506005816001018190555060018160020160006101000a81548160ff0219169083151502179055506000601467ffffffffffffffff8111156117fe576117fd6132d8565b5b60405190808252806020026020018201604052801561183157816020015b606081526020019060019003908161181c5790505b5090508160000180546118439061377a565b80601f016020809104026020016040519081016040528092919081815260200182805461186f9061377a565b80156118bc5780601f10611891576101008083540402835291602001916118bc565b820191906000526020600020905b81548152906001019060200180831161189f57829003601f168201915b5050505050816000815181106118d5576118d4613a9c565b5b60200260200101819052506118ed82600101546120c1565b8160018151811061190157611900613a9c565b5b602002602001018190525060006040518060400160405280600f81526020017f246e616d65242024706f696e74732400000000000000000000000000000000008152509050600a60009054906101000a900473ffffffffffffffffffffffffffffffffffffffff1673ffffffffffffffffffffffffffffffffffffffff1663eee6e57386848460006040518563ffffffff1660e01b81526004016119a89493929190613ba9565b600060405180830381600087803b1580156119c257600080fd5b505af11580156119d6573d6000803e3d6000fd5b505050505050505050565b6119f26119ec611cb4565b83611d75565b611a31576040517f08c379a0000000000000000000000000000000000000000000000000000000008152600401611a2890613941565b60405180910390fd5b611a3d84848484612769565b50505050565b6060600860008381526020019081526020016000208054611a639061377a565b80601f0160208091040260200160405190810160405280929190818152602001828054611a8f9061377a565b8015611adc5780601f10611ab157610100808354040283529160200191611adc565b820191906000526020600020905b815481529060010190602001808311611abf57829003601f168201915b50505050509050919050565b6000600560008473ffffffffffffffffffffffffffffffffffffffff1673ffffffffffffffffffffffffffffffffffffffff16815260200190815260200160002060008373ffffffffffffffffffffffffffffffffffffffff1673ffffffffffffffffffffffffffffffffffffffff16815260200190815260200160002060009054906101000a900460ff16905092915050565b611b84612043565b600073ffffffffffffffffffffffffffffffffffffffff168173ffffffffffffffffffffffffffffffffffffffff1603611bf3576040517f08c379a0000000000000000000000000000000000000000000000000000000008152600401611bea906142b6565b60405180910390fd5b611bfc816123e9565b50565b60007f01ffc9a7000000000000000000000000000000000000000000000000000000007bffffffffffffffffffffffffffffffffffffffffffffffffffffffff1916827bffffffffffffffffffffffffffffffffffffffffffffffffffffffff1916149050919050565b611c72816127c5565b611cb1576040517f08c379a0000000000000000000000000000000000000000000000000000000008152600401611ca890613c48565b60405180910390fd5b50565b600033905090565b816004600083815260200190815260200160002060006101000a81548173ffffffffffffffffffffffffffffffffffffffff021916908373ffffffffffffffffffffffffffffffffffffffff160217905550808273ffffffffffffffffffffffffffffffffffffffff16611d2f83610cfa565b73ffffffffffffffffffffffffffffffffffffffff167f8c5be1e5ebec7d5bd14f71427d1e84f3dd0314c0f7b2291e5b200ac8c7c3b92560405160405180910390a45050565b600080611d8183610cfa565b90508073ffffffffffffffffffffffffffffffffffffffff168473ffffffffffffffffffffffffffffffffffffffff161480611dc35750611dc28185611ae8565b5b80611e0157508373ffffffffffffffffffffffffffffffffffffffff16611de984610711565b73ffffffffffffffffffffffffffffffffffffffff16145b91505092915050565b6000600b60008473ffffffffffffffffffffffffffffffffffffffff1673ffffffffffffffffffffffffffffffffffffffff16815260200190815260200160002090508060020160009054906101000a900460ff1615611e9f576040517f08c379a0000000000000000000000000000000000000000000000000000000008152600401611e9690614322565b60405180910390fd5b81600960008573ffffffffffffffffffffffffffffffffffffffff1673ffffffffffffffffffffffffffffffffffffffff16815260200190815260200160002081905550600b60008573ffffffffffffffffffffffffffffffffffffffff1673ffffffffffffffffffffffffffffffffffffffff168152602001908152602001600020600001816000019081611f35919061436d565b50600b60008573ffffffffffffffffffffffffffffffffffffffff1673ffffffffffffffffffffffffffffffffffffffff168152602001908152602001600020600101548160010181905550600960008573ffffffffffffffffffffffffffffffffffffffff1673ffffffffffffffffffffffffffffffffffffffff16815260200190815260200160002060009055600b60008573ffffffffffffffffffffffffffffffffffffffff1673ffffffffffffffffffffffffffffffffffffffff168152602001908152602001600020600080820160006120149190612e2b565b60018201600090556002820160006101000a81549060ff0219169055505061203d848484612806565b50505050565b61204b611cb4565b73ffffffffffffffffffffffffffffffffffffffff16612069610f7b565b73ffffffffffffffffffffffffffffffffffffffff16146120bf576040517f08c379a00000000000000000000000000000000000000000000000000000000081526004016120b6906144a1565b60405180910390fd5b565b6060600060016120d084612aff565b01905060008167ffffffffffffffff8111156120ef576120ee6132d8565b5b6040519080825280601f01601f1916602001820160405280156121215781602001600182028036833780820191505090505b509050600082602001820190505b600115612184578080600190039150507f3031323334353637383961626364656600000000000000000000000000000000600a86061a8153600a8581612178576121776144c1565b5b0494506000850361212f575b819350505050919050565b60006002600083815260200190815260200160002060009054906101000a900473ffffffffffffffffffffffffffffffffffffffff169050919050565b600073ffffffffffffffffffffffffffffffffffffffff168273ffffffffffffffffffffffffffffffffffffffff160361223b576040517f08c379a00000000000000000000000000000000000000000000000000000000081526004016122329061453c565b60405180910390fd5b612244816127c5565b15612284576040517f08c379a000000000000000000000000000000000000000000000000000000000815260040161227b906145a8565b60405180910390fd5b612292600083836001612c52565b61229b816127c5565b156122db576040517f08c379a00000000000000000000000000000000000000000000000000000000081526004016122d2906145a8565b60405180910390fd5b6001600360008473ffffffffffffffffffffffffffffffffffffffff1673ffffffffffffffffffffffffffffffffffffffff16815260200190815260200160002060008282540192505081905550816002600083815260200190815260200160002060006101000a81548173ffffffffffffffffffffffffffffffffffffffff021916908373ffffffffffffffffffffffffffffffffffffffff160217905550808273ffffffffffffffffffffffffffffffffffffffff16600073ffffffffffffffffffffffffffffffffffffffff167fddf252ad1be2c89b69c2b068fc378daa952ba7f163c4a11628f55a4df523b3ef60405160405180910390a46123e5600083836001612c58565b5050565b6000600660009054906101000a900473ffffffffffffffffffffffffffffffffffffffff16905081600660006101000a81548173ffffffffffffffffffffffffffffffffffffffff021916908373ffffffffffffffffffffffffffffffffffffffff1602179055508173ffffffffffffffffffffffffffffffffffffffff168173ffffffffffffffffffffffffffffffffffffffff167f8be0079c531659141344cd1fd0a4f28419497f9722a3daafe3b4186f6b6457e060405160405180910390a35050565b8173ffffffffffffffffffffffffffffffffffffffff168373ffffffffffffffffffffffffffffffffffffffff160361251d576040517f08c379a000000000000000000000000000000000000000000000000000000000815260040161251490614614565b60405180910390fd5b80600560008573ffffffffffffffffffffffffffffffffffffffff1673ffffffffffffffffffffffffffffffffffffffff16815260200190815260200160002060008473ffffffffffffffffffffffffffffffffffffffff1673ffffffffffffffffffffffffffffffffffffffff16815260200190815260200160002060006101000a81548160ff0219169083151502179055508173ffffffffffffffffffffffffffffffffffffffff168373ffffffffffffffffffffffffffffffffffffffff167f17307eab39ab6107e8899845ad3d59bd9653f200f220920489ca2b5937696c318360405161260e9190612f3c565b60405180910390a3505050565b600061262682610cfa565b9050612636816000846001612c52565b61263f82610cfa565b90506004600083815260200190815260200160002060006101000a81549073ffffffffffffffffffffffffffffffffffffffff02191690556001600360008373ffffffffffffffffffffffffffffffffffffffff1673ffffffffffffffffffffffffffffffffffffffff168152602001908152602001600020600082825403925050819055506002600083815260200190815260200160002060006101000a81549073ffffffffffffffffffffffffffffffffffffffff021916905581600073ffffffffffffffffffffffffffffffffffffffff168273ffffffffffffffffffffffffffffffffffffffff167fddf252ad1be2c89b69c2b068fc378daa952ba7f163c4a11628f55a4df523b3ef60405160405180910390a4612765816000846001612c58565b5050565b612774848484611e0a565b61278084848484612c5e565b6127bf576040517f08c379a00000000000000000000000000000000000000000000000000000000081526004016127b6906146a6565b60405180910390fd5b50505050565b60008073ffffffffffffffffffffffffffffffffffffffff166127e78361218f565b73ffffffffffffffffffffffffffffffffffffffff1614159050919050565b8273ffffffffffffffffffffffffffffffffffffffff1661282682610cfa565b73ffffffffffffffffffffffffffffffffffffffff161461287c576040517f08c379a000000000000000000000000000000000000000000000000000000000815260040161287390614738565b60405180910390fd5b600073ffffffffffffffffffffffffffffffffffffffff168273ffffffffffffffffffffffffffffffffffffffff16036128eb576040517f08c379a00000000000000000000000000000000000000000000000000000000081526004016128e2906147ca565b60405180910390fd5b6128f88383836001612c52565b8273ffffffffffffffffffffffffffffffffffffffff1661291882610cfa565b73ffffffffffffffffffffffffffffffffffffffff161461296e576040517f08c379a000000000000000000000000000000000000000000000000000000000815260040161296590614738565b60405180910390fd5b6004600082815260200190815260200160002060006101000a81549073ffffffffffffffffffffffffffffffffffffffff02191690556001600360008573ffffffffffffffffffffffffffffffffffffffff1673ffffffffffffffffffffffffffffffffffffffff168152602001908152602001600020600082825403925050819055506001600360008473ffffffffffffffffffffffffffffffffffffffff1673ffffffffffffffffffffffffffffffffffffffff16815260200190815260200160002060008282540192505081905550816002600083815260200190815260200160002060006101000a81548173ffffffffffffffffffffffffffffffffffffffff021916908373ffffffffffffffffffffffffffffffffffffffff160217905550808273ffffffffffffffffffffffffffffffffffffffff168473ffffffffffffffffffffffffffffffffffffffff167fddf252ad1be2c89b69c2b068fc378daa952ba7f163c4a11628f55a4df523b3ef60405160405180910390a4612afa8383836001612c58565b505050565b600080600090507a184f03e93ff9f4daa797ed6e38ed64bf6a1f0100000000000000008310612b5d577a184f03e93ff9f4daa797ed6e38ed64bf6a1f0100000000000000008381612b5357612b526144c1565b5b0492506040810190505b6d04ee2d6d415b85acef81000000008310612b9a576d04ee2d6d415b85acef81000000008381612b9057612b8f6144c1565b5b0492506020810190505b662386f26fc100008310612bc957662386f26fc100008381612bbf57612bbe6144c1565b5b0492506010810190505b6305f5e1008310612bf2576305f5e1008381612be857612be76144c1565b5b0492506008810190505b6127108310612c17576127108381612c0d57612c0c6144c1565b5b0492506004810190505b60648310612c3a5760648381612c3057612c2f6144c1565b5b0492506002810190505b600a8310612c49576001810190505b80915050919050565b50505050565b50505050565b6000612c7f8473ffffffffffffffffffffffffffffffffffffffff16612de5565b15612dd8578373ffffffffffffffffffffffffffffffffffffffff1663150b7a02612ca8611cb4565b8786866040518563ffffffff1660e01b8152600401612cca94939291906147ea565b6020604051808303816000875af1925050508015612d0657506040513d601f19601f82011682018060405250810190612d03919061484b565b60015b612d88573d8060008114612d36576040519150601f19603f3d011682016040523d82523d6000602084013e612d3b565b606091505b506000815103612d80576040517f08c379a0000000000000000000000000000000000000000000000000000000008152600401612d77906146a6565b60405180910390fd5b805181602001fd5b63150b7a0260e01b7bffffffffffffffffffffffffffffffffffffffffffffffffffffffff1916817bffffffffffffffffffffffffffffffffffffffffffffffffffffffff191614915050612ddd565b600190505b949350505050565b6000808273ffffffffffffffffffffffffffffffffffffffff163b119050919050565b604051806060016040528060608152602001600081526020016000151581525090565b508054612e379061377a565b6000825580601f10612e495750612e68565b601f016020900490600052602060002090810190612e679190612e6b565b5b50565b5b80821115612e84576000816000905550600101612e6c565b5090565b6000604051905090565b600080fd5b600080fd5b60007fffffffff0000000000000000000000000000000000000000000000000000000082169050919050565b612ed181612e9c565b8114612edc57600080fd5b50565b600081359050612eee81612ec8565b92915050565b600060208284031215612f0a57612f09612e92565b5b6000612f1884828501612edf565b91505092915050565b60008115159050919050565b612f3681612f21565b82525050565b6000602082019050612f516000830184612f2d565b92915050565b600081519050919050565b600082825260208201905092915050565b60005b83811015612f91578082015181840152602081019050612f76565b60008484015250505050565b6000601f19601f8301169050919050565b6000612fb982612f57565b612fc38185612f62565b9350612fd3818560208601612f73565b612fdc81612f9d565b840191505092915050565b600060208201905081810360008301526130018184612fae565b905092915050565b6000819050919050565b61301c81613009565b811461302757600080fd5b50565b60008135905061303981613013565b92915050565b60006020828403121561305557613054612e92565b5b60006130638482850161302a565b91505092915050565b600073ffffffffffffffffffffffffffffffffffffffff82169050919050565b60006130978261306c565b9050919050565b6130a78161308c565b82525050565b60006020820190506130c2600083018461309e565b92915050565b6130d18161308c565b81146130dc57600080fd5b50565b6000813590506130ee816130c8565b92915050565b6000806040838503121561310b5761310a612e92565b5b6000613119858286016130df565b925050602061312a8582860161302a565b9150509250929050565b60008060006060848603121561314d5761314c612e92565b5b600061315b868287016130df565b935050602061316c868287016130df565b925050604061317d8682870161302a565b9150509250925092565b60006020828403121561319d5761319c612e92565b5b60006131ab848285016130df565b91505092915050565b600082825260208201905092915050565b60006131d082612f57565b6131da81856131b4565b93506131ea818560208601612f73565b6131f381612f9d565b840191505092915050565b61320781613009565b82525050565b61321681612f21565b82525050565b6000606083016000830151848203600086015261323982826131c5565b915050602083015161324e60208601826131fe565b506040830151613261604086018261320d565b508091505092915050565b60006020820190508181036000830152613286818461321c565b905092915050565b600067ffffffffffffffff82169050919050565b6132ab8161328e565b81146132b657600080fd5b50565b6000813590506132c8816132a2565b92915050565b600080fd5b600080fd5b7f4e487b7100000000000000000000000000000000000000000000000000000000600052604160045260246000fd5b61331082612f9d565b810181811067ffffffffffffffff8211171561332f5761332e6132d8565b5b80604052505050565b6000613342612e88565b905061334e8282613307565b919050565b600067ffffffffffffffff82111561336e5761336d6132d8565b5b61337782612f9d565b9050602081019050919050565b82818337600083830152505050565b60006133a66133a184613353565b613338565b9050828152602081018484840111156133c2576133c16132d3565b5b6133cd848285613384565b509392505050565b600082601f8301126133ea576133e96132ce565b5b81356133fa848260208601613393565b91505092915050565b600067ffffffffffffffff82111561341e5761341d6132d8565b5b61342782612f9d565b9050602081019050919050565b600061344761344284613403565b613338565b905082815260208101848484011115613463576134626132d3565b5b61346e848285613384565b509392505050565b600082601f83011261348b5761348a6132ce565b5b813561349b848260208601613434565b91505092915050565b60008060008060008060c087890312156134c1576134c0612e92565b5b60006134cf89828a016132b9565b96505060206134e089828a016130df565b95505060406134f189828a016130df565b945050606061350289828a0161302a565b935050608087013567ffffffffffffffff81111561352357613522612e97565b5b61352f89828a016133d5565b92505060a087013567ffffffffffffffff8111156135505761354f612e97565b5b61355c89828a01613476565b9150509295509295509295565b61357281613009565b82525050565b600060208201905061358d6000830184613569565b92915050565b600080604083850312156135aa576135a9612e92565b5b60006135b8858286016130df565b925050602083013567ffffffffffffffff8111156135d9576135d8612e97565b5b6135e5858286016133d5565b9150509250929050565b6135f881612f21565b811461360357600080fd5b50565b600081359050613615816135ef565b92915050565b6000806040838503121561363257613631612e92565b5b6000613640858286016130df565b925050602061365185828601613606565b9150509250929050565b60006020828403121561367157613670612e92565b5b600061367f848285016132b9565b91505092915050565b600080600080608085870312156136a2576136a1612e92565b5b60006136b0878288016130df565b94505060206136c1878288016130df565b93505060406136d28782880161302a565b925050606085013567ffffffffffffffff8111156136f3576136f2612e97565b5b6136ff87828801613476565b91505092959194509250565b6000806040838503121561372257613721612e92565b5b6000613730858286016130df565b9250506020613741858286016130df565b9150509250929050565b7f4e487b7100000000000000000000000000000000000000000000000000000000600052602260045260246000fd5b6000600282049050600182168061379257607f821691505b6020821081036137a5576137a461374b565b5b50919050565b7f4552433732313a20617070726f76616c20746f2063757272656e74206f776e6560008201527f7200000000000000000000000000000000000000000000000000000000000000602082015250565b6000613807602183612f62565b9150613812826137ab565b604082019050919050565b60006020820190508181036000830152613836816137fa565b9050919050565b7f4552433732313a20617070726f76652063616c6c6572206973206e6f7420746f60008201527f6b656e206f776e6572206f7220617070726f76656420666f7220616c6c000000602082015250565b6000613899603d83612f62565b91506138a48261383d565b604082019050919050565b600060208201905081810360008301526138c88161388c565b9050919050565b7f4552433732313a2063616c6c6572206973206e6f7420746f6b656e206f776e6560008201527f72206f7220617070726f76656400000000000000000000000000000000000000602082015250565b600061392b602d83612f62565b9150613936826138cf565b604082019050919050565b6000602082019050818103600083015261395a8161391e565b9050919050565b7f437265617465207468697320706c617965722066697273740000000000000000600082015250565b6000613997601883612f62565b91506139a282613961565b602082019050919050565b600060208201905081810360008301526139c68161398a565b9050919050565b7f416c7265616479206465666561746564203a2900000000000000000000000000600082015250565b6000613a03601383612f62565b9150613a0e826139cd565b602082019050919050565b60006020820190508181036000830152613a32816139f6565b9050919050565b7f4e487b7100000000000000000000000000000000000000000000000000000000600052601160045260246000fd5b6000613a7382613009565b9150613a7e83613009565b9250828203905081811115613a9657613a95613a39565b5b92915050565b7f4e487b7100000000000000000000000000000000000000000000000000000000600052603260045260246000fd5b600081519050919050565b600082825260208201905092915050565b6000819050602082019050919050565b6000613b0383836131c5565b905092915050565b6000602082019050919050565b6000613b2382613acb565b613b2d8185613ad6565b935083602082028501613b3f85613ae7565b8060005b85811015613b7b5784840389528151613b5c8582613af7565b9450613b6783613b0b565b925060208a01995050600181019050613b43565b50829750879550505050505092915050565b600060ff82169050919050565b613ba381613b8d565b82525050565b6000608082019050613bbe600083018761309e565b8181036020830152613bd08186613b18565b90508181036040830152613be48185612fae565b9050613bf36060830184613b9a565b95945050505050565b7f4552433732313a20696e76616c696420746f6b656e2049440000000000000000600082015250565b6000613c32601883612f62565b9150613c3d82613bfc565b602082019050919050565b60006020820190508181036000830152613c6181613c25565b9050919050565b6000613c7b613c7684613353565b613338565b905082815260208101848484011115613c9757613c966132d3565b5b613ca2848285612f73565b509392505050565b600082601f830112613cbf57613cbe6132ce565b5b8151613ccf848260208601613c68565b91505092915050565b600081519050613ce781613013565b92915050565b60008060408385031215613d0457613d03612e92565b5b600083015167ffffffffffffffff811115613d2257613d21612e97565b5b613d2e85828601613caa565b9250506020613d3f85828601613cd8565b9150509250929050565b60008190508160005260206000209050919050565b60006020601f8301049050919050565b600082821b905092915050565b600060088302613dab7fffffffffffffffffffffffffffffffffffffffffffffffffffffffffffffffff82613d6e565b613db58683613d6e565b95508019841693508086168417925050509392505050565b6000819050919050565b6000613df2613ded613de884613009565b613dcd565b613009565b9050919050565b6000819050919050565b613e0c83613dd7565b613e20613e1882613df9565b848454613d7b565b825550505050565b600090565b613e35613e28565b613e40818484613e03565b505050565b5b81811015613e6457613e59600082613e2d565b600181019050613e46565b5050565b601f821115613ea957613e7a81613d49565b613e8384613d5e565b81016020851015613e92578190505b613ea6613e9e85613d5e565b830182613e45565b50505b505050565b600082821c905092915050565b6000613ecc60001984600802613eae565b1980831691505092915050565b6000613ee58383613ebb565b9150826002028217905092915050565b613efe82612f57565b67ffffffffffffffff811115613f1757613f166132d8565b5b613f21825461377a565b613f2c828285613e68565b600060209050601f831160018114613f5f5760008415613f4d578287015190505b613f578582613ed9565b865550613fbf565b601f198416613f6d86613d49565b60005b82811015613f9557848901518255600182019150602085019450602081019050613f70565b86831015613fb25784890151613fae601f891682613ebb565b8355505b6001600288020188555050505b505050505050565b7f4552433732313a2061646472657373207a65726f206973206e6f74206120766160008201527f6c6964206f776e65720000000000000000000000000000000000000000000000602082015250565b6000614023602983612f62565b915061402e82613fc7565b604082019050919050565b6000602082019050818103600083015261405281614016565b9050919050565b600061406482613009565b91507fffffffffffffffffffffffffffffffffffffffffffffffffffffffffffffffff820361409657614095613a39565b5b600182019050919050565b60006140ac82613009565b91506140b783613009565b92508282019050808211156140cf576140ce613a39565b5b92915050565b600060408201905081810360008301526140ef8185612fae565b90506140fe6020830184613569565b9392505050565b61410e8161328e565b82525050565b600081519050919050565b600082825260208201905092915050565b600061413b82614114565b614145818561411f565b9350614155818560208601612f73565b61415e81612f9d565b840191505092915050565b600060c08201905061417e6000830189614105565b61418b602083018861309e565b614198604083018761309e565b6141a56060830186613569565b81810360808301526141b78185612fae565b905081810360a08301526141cb8184614130565b9050979650505050505050565b7f506c6179657220686173206265656e2063726561746564000000000000000000600082015250565b600061420e601783612f62565b9150614219826141d8565b602082019050919050565b6000602082019050818103600083015261423d81614201565b9050919050565b7f4f776e61626c653a206e6577206f776e657220697320746865207a65726f206160008201527f6464726573730000000000000000000000000000000000000000000000000000602082015250565b60006142a0602683612f62565b91506142ab82614244565b604082019050919050565b600060208201905081810360008301526142cf81614293565b9050919050565b7f506c6179657220686173207468656972206f776e206163636f756e7400000000600082015250565b600061430c601c83612f62565b9150614317826142d6565b602082019050919050565b6000602082019050818103600083015261433b816142ff565b9050919050565b6000815490506143518161377a565b9050919050565b60008190508160005260206000209050919050565b81810361437b575050614453565b61438482614342565b67ffffffffffffffff81111561439d5761439c6132d8565b5b6143a7825461377a565b6143b2828285613e68565b6000601f8311600181146143e157600084156143cf578287015490505b6143d98582613ed9565b86555061444c565b601f1984166143ef87614358565b96506143fa86613d49565b60005b82811015614422578489015482556001820191506001850194506020810190506143fd565b8683101561443f578489015461443b601f891682613ebb565b8355505b6001600288020188555050505b5050505050505b565b7f4f776e61626c653a2063616c6c6572206973206e6f7420746865206f776e6572600082015250565b600061448b602083612f62565b915061449682614455565b602082019050919050565b600060208201905081810360008301526144ba8161447e565b9050919050565b7f4e487b7100000000000000000000000000000000000000000000000000000000600052601260045260246000fd5b7f4552433732313a206d696e7420746f20746865207a65726f2061646472657373600082015250565b6000614526602083612f62565b9150614531826144f0565b602082019050919050565b6000602082019050818103600083015261455581614519565b9050919050565b7f4552433732313a20746f6b656e20616c7265616479206d696e74656400000000600082015250565b6000614592601c83612f62565b915061459d8261455c565b602082019050919050565b600060208201905081810360008301526145c181614585565b9050919050565b7f4552433732313a20617070726f766520746f2063616c6c657200000000000000600082015250565b60006145fe601983612f62565b9150614609826145c8565b602082019050919050565b6000602082019050818103600083015261462d816145f1565b9050919050565b7f4552433732313a207472616e7366657220746f206e6f6e20455243373231526560008201527f63656976657220696d706c656d656e7465720000000000000000000000000000602082015250565b6000614690603283612f62565b915061469b82614634565b604082019050919050565b600060208201905081810360008301526146bf81614683565b9050919050565b7f4552433732313a207472616e736665722066726f6d20696e636f72726563742060008201527f6f776e6572000000000000000000000000000000000000000000000000000000602082015250565b6000614722602583612f62565b915061472d826146c6565b604082019050919050565b6000602082019050818103600083015261475181614715565b9050919050565b7f4552433732313a207472616e7366657220746f20746865207a65726f2061646460008201527f7265737300000000000000000000000000000000000000000000000000000000602082015250565b60006147b4602483612f62565b91506147bf82614758565b604082019050919050565b600060208201905081810360008301526147e3816147a7565b9050919050565b60006080820190506147ff600083018761309e565b61480c602083018661309e565b6148196040830185613569565b818103606083015261482b8184614130565b905095945050505050565b60008151905061484581612ec8565b92915050565b60006020828403121561486157614860612e92565b5b600061486f84828501614836565b9150509291505056fea264697066735822122099a5859a938d91bf8a377b2f02ce72d75ce9e9ce4a43768d928508ebc526e01f64736f6c63430008110033",
  "immutableReferences": {},
  "source": "// SPDX-License-Identifier: MIT\r\npragma solidity ^0.8.17;\r\n\r\nimport {IKanvasAvax} from \"../interfaces/IKanvasAvax.sol\";\r\nimport {IKanvasGame} from \"../interfaces/IKanvasGame.sol\";\r\nimport {IKanvasInteropGame} from \"../interfaces/IKanvasInteropGame.sol\";\r\n\r\nimport {Ownable} from \"@openzeppelin/contracts/access/Ownable.sol\";\r\nimport {ERC721} from \"@openzeppelin/contracts/token/ERC721/ERC721.sol\";\r\nimport {Strings} from \"@openzeppelin/contracts/utils/Strings.sol\";\r\n\r\ncontract RockPaperScissors is IKanvasGame, IKanvasInteropGame, ERC721, Ownable {\r\n    uint8 private constant WIN_NFT_TEMPLATE = 0;\r\n    uint8 private constant LOST_NFT_TEMPLATE = 1;\r\n\r\n    uint256 public constant MAX_PROPERTIES_LEN = 20;\r\n\r\n    uint256 private _tokenId;\r\n\r\n    mapping(uint256 => string) private _tokenURIs;\r\n    mapping(address => uint256) private _playerNfts;\r\n\r\n    IKanvasAvax private kanvas;\r\n\r\n    struct Player {\r\n        string name;\r\n        uint256 points;\r\n        bool created;\r\n    }\r\n\r\n    mapping(address => Player) private _players;\r\n\r\n    constructor(\r\n        address kanvasRouter\r\n    ) ERC721(\"RockPaperScissors\", \"RPS\") IKanvasGame() Ownable() {\r\n        kanvas = IKanvasAvax(kanvasRouter);\r\n    }\r\n\r\n    function _transfer(\r\n        address from,\r\n        address to,\r\n        uint256 tokenId\r\n    ) internal override {\r\n        Player storage player = _players[to];\r\n        // check if receiver has their own account\r\n        require(!player.created, \"Player has their own account\");\r\n\r\n        _playerNfts[to] = tokenId;\r\n\r\n        player.name = _players[from].name;\r\n        player.points = _players[from].points;\r\n\r\n        // delete send accounts\r\n        delete _playerNfts[from];\r\n        delete _players[from];\r\n\r\n        super._transfer(from, to, tokenId);\r\n    }\r\n\r\n    function createPlayer(address playerId, string memory name) external {\r\n        Player storage player = _players[playerId];\r\n        require(!player.created, \"Player has been created\");\r\n\r\n        player.name = name;\r\n        player.points = 5;\r\n        player.created = true;\r\n\r\n        string[] memory properties = new string[](MAX_PROPERTIES_LEN);\r\n        properties[0] = player.name;\r\n        properties[1] = Strings.toString(player.points);\r\n\r\n        string memory fields = \"$name$ $points$\";\r\n\r\n        kanvas._generateUri(playerId, properties, fields, WIN_NFT_TEMPLATE);\r\n    }\r\n\r\n    function getPlayer(address playerId) external view returns (Player memory) {\r\n        return _players[playerId];\r\n    }\r\n\r\n    /** Increase player points */\r\n    function upgradePlayer(address playerId) external onlyOwner {\r\n        Player storage player = _players[playerId];\r\n        require(player.created, \"Create this player first\");\r\n\r\n        player.points = player.points + 5;\r\n\r\n        string[] memory properties = new string[](MAX_PROPERTIES_LEN);\r\n        properties[0] = player.name;\r\n        properties[1] = Strings.toString(player.points);\r\n\r\n        string memory fields = \"$name$ $points$\";\r\n\r\n        kanvas._generateUri(playerId, properties, fields, WIN_NFT_TEMPLATE);\r\n    }\r\n\r\n    /** Reduce player points */\r\n    function downgradePlayer(address playerId) external onlyOwner {\r\n        Player storage player = _players[playerId];\r\n        require(player.created, \"Create this player first\");\r\n        require(player.points >= 1, \"Already defeated :)\");\r\n\r\n        player.points = player.points - 1;\r\n\r\n        string[] memory properties = new string[](MAX_PROPERTIES_LEN);\r\n        properties[0] = player.name;\r\n        properties[1] = Strings.toString(player.points);\r\n\r\n        string memory fields = \"$name$ $points$\";\r\n\r\n        kanvas._generateUri(playerId, properties, fields, LOST_NFT_TEMPLATE);\r\n    }\r\n\r\n    /** Bridge game Nft function */\r\n    function transferTo(uint64 chainSelector) external payable {\r\n        address playerId = _msgSender();\r\n        uint256 tokenId = _playerNfts[playerId];\r\n\r\n        _burn(tokenId);\r\n        delete _tokenURIs[tokenId];\r\n\r\n        // player will be deleted when they transfer the game NFT\r\n        delete _playerNfts[playerId];\r\n\r\n        address gameId = address(this);\r\n        string memory uri = _tokenURIs[tokenId];\r\n        Player memory player = _players[playerId];\r\n\r\n        bytes memory data = abi.encode(player.name, player.points);\r\n\r\n        /** Cross chain transfer function */\r\n        kanvas._transferTo{value: msg.value}(\r\n            chainSelector,\r\n            gameId,\r\n            playerId,\r\n            tokenId,\r\n            uri,\r\n            data\r\n        );\r\n    }\r\n\r\n    /** Cross chain receiver callback function */\r\n    function _receiveFrom(\r\n        uint64 /* chainSelector */,\r\n        address /* gameId */,\r\n        address playerId,\r\n        uint256 tokenId,\r\n        string memory uri,\r\n        bytes memory data\r\n    ) external override {\r\n        (string memory name, uint256 points) = abi.decode(\r\n            data,\r\n            (string, uint256)\r\n        );\r\n\r\n        _mint(playerId, tokenId);\r\n        _tokenURIs[tokenId] = uri;\r\n\r\n        // player will be created when they receive the game NFT\r\n        _players[playerId].name = name;\r\n        _players[playerId].points = points;\r\n\r\n        _playerNfts[playerId] = tokenId;\r\n    }\r\n\r\n    function _receiveUri(\r\n        address playerId,\r\n        string memory uri\r\n    ) external override {\r\n        uint256 tokenId = _playerNfts[playerId];\r\n\r\n        // this player does not have the game nft\r\n        if (tokenId == 0) {\r\n            _tokenId++;\r\n\r\n            // mint the game Nft for player\r\n            tokenId = _tokenId;\r\n\r\n            _mint(playerId, tokenId);\r\n            _playerNfts[playerId] = tokenId;\r\n        }\r\n\r\n        _tokenURIs[tokenId] = uri;\r\n    }\r\n\r\n    function tokenURI(\r\n        uint256 tokenId\r\n    ) public view virtual override returns (string memory) {\r\n        return _tokenURIs[tokenId];\r\n    }\r\n}\r\n",
  "sourcePath": "C:\\Users\\DELL\\Documents\\kanvas\\blockchain\\contracts\\rock-paper-scissors\\RockPaperScissors.sol",
  "compiler": {
    "name": "solc",
    "version": "0.8.17+commit.8df45f5f.Emscripten.clang"
  },
  "schemaVersion": "3.4.11",
  "updatedAt": "2023-12-04T07:59:20.441Z",
  "devdoc": {
    "kind": "dev",
    "methods": {
      "approve(address,uint256)": {
        "details": "See {IERC721-approve}."
      },
      "balanceOf(address)": {
        "details": "See {IERC721-balanceOf}."
      },
      "getApproved(uint256)": {
        "details": "See {IERC721-getApproved}."
      },
      "isApprovedForAll(address,address)": {
        "details": "See {IERC721-isApprovedForAll}."
      },
      "name()": {
        "details": "See {IERC721Metadata-name}."
      },
      "owner()": {
        "details": "Returns the address of the current owner."
      },
      "ownerOf(uint256)": {
        "details": "See {IERC721-ownerOf}."
      },
      "renounceOwnership()": {
        "details": "Leaves the contract without owner. It will not be possible to call `onlyOwner` functions. Can only be called by the current owner. NOTE: Renouncing ownership will leave the contract without an owner, thereby disabling any functionality that is only available to the owner."
      },
      "safeTransferFrom(address,address,uint256)": {
        "details": "See {IERC721-safeTransferFrom}."
      },
      "safeTransferFrom(address,address,uint256,bytes)": {
        "details": "See {IERC721-safeTransferFrom}."
      },
      "setApprovalForAll(address,bool)": {
        "details": "See {IERC721-setApprovalForAll}."
      },
      "supportsInterface(bytes4)": {
        "details": "See {IERC165-supportsInterface}."
      },
      "symbol()": {
        "details": "See {IERC721Metadata-symbol}."
      },
      "tokenURI(uint256)": {
        "details": "See {IERC721Metadata-tokenURI}."
      },
      "transferFrom(address,address,uint256)": {
        "details": "See {IERC721-transferFrom}."
      },
      "transferOwnership(address)": {
        "details": "Transfers ownership of the contract to a new account (`newOwner`). Can only be called by the current owner."
      }
    },
    "version": 1
  },
  "userdoc": {
    "kind": "user",
    "methods": {
      "_receiveFrom(uint64,address,address,uint256,string,bytes)": {
        "notice": "Cross chain receiver callback function "
      },
      "downgradePlayer(address)": {
        "notice": "Reduce player points "
      },
      "transferTo(uint64)": {
        "notice": "Bridge game Nft function "
      },
      "upgradePlayer(address)": {
        "notice": "Increase player points "
      }
    },
    "version": 1
  }
}