{
  "contractName": "RockPaperScissors",
  "abi": [
    {
      "inputs": [
        {
          "internalType": "address",
          "name": "kanvasRouter",
          "type": "address"
        }
      ],
      "stateMutability": "nonpayable",
      "type": "constructor"
    },
    {
      "anonymous": false,
      "inputs": [
        {
          "indexed": true,
          "internalType": "address",
          "name": "owner",
          "type": "address"
        },
        {
          "indexed": true,
          "internalType": "address",
          "name": "approved",
          "type": "address"
        },
        {
          "indexed": true,
          "internalType": "uint256",
          "name": "tokenId",
          "type": "uint256"
        }
      ],
      "name": "Approval",
      "type": "event"
    },
    {
      "anonymous": false,
      "inputs": [
        {
          "indexed": true,
          "internalType": "address",
          "name": "owner",
          "type": "address"
        },
        {
          "indexed": true,
          "internalType": "address",
          "name": "operator",
          "type": "address"
        },
        {
          "indexed": false,
          "internalType": "bool",
          "name": "approved",
          "type": "bool"
        }
      ],
      "name": "ApprovalForAll",
      "type": "event"
    },
    {
      "anonymous": false,
      "inputs": [
        {
          "indexed": true,
          "internalType": "address",
          "name": "from",
          "type": "address"
        },
        {
          "indexed": true,
          "internalType": "address",
          "name": "to",
          "type": "address"
        },
        {
          "indexed": true,
          "internalType": "uint256",
          "name": "tokenId",
          "type": "uint256"
        }
      ],
      "name": "Transfer",
      "type": "event"
    },
    {
      "inputs": [],
      "name": "MAX_PROPERTIES_LEN",
      "outputs": [
        {
          "internalType": "uint256",
          "name": "",
          "type": "uint256"
        }
      ],
      "stateMutability": "view",
      "type": "function"
    },
    {
      "inputs": [
        {
          "internalType": "address",
          "name": "to",
          "type": "address"
        },
        {
          "internalType": "uint256",
          "name": "tokenId",
          "type": "uint256"
        }
      ],
      "name": "approve",
      "outputs": [],
      "stateMutability": "nonpayable",
      "type": "function"
    },
    {
      "inputs": [
        {
          "internalType": "address",
          "name": "owner",
          "type": "address"
        }
      ],
      "name": "balanceOf",
      "outputs": [
        {
          "internalType": "uint256",
          "name": "",
          "type": "uint256"
        }
      ],
      "stateMutability": "view",
      "type": "function"
    },
    {
      "inputs": [
        {
          "internalType": "uint256",
          "name": "tokenId",
          "type": "uint256"
        }
      ],
      "name": "getApproved",
      "outputs": [
        {
          "internalType": "address",
          "name": "",
          "type": "address"
        }
      ],
      "stateMutability": "view",
      "type": "function"
    },
    {
      "inputs": [
        {
          "internalType": "address",
          "name": "owner",
          "type": "address"
        },
        {
          "internalType": "address",
          "name": "operator",
          "type": "address"
        }
      ],
      "name": "isApprovedForAll",
      "outputs": [
        {
          "internalType": "bool",
          "name": "",
          "type": "bool"
        }
      ],
      "stateMutability": "view",
      "type": "function"
    },
    {
      "inputs": [],
      "name": "name",
      "outputs": [
        {
          "internalType": "string",
          "name": "",
          "type": "string"
        }
      ],
      "stateMutability": "view",
      "type": "function"
    },
    {
      "inputs": [
        {
          "internalType": "uint256",
          "name": "tokenId",
          "type": "uint256"
        }
      ],
      "name": "ownerOf",
      "outputs": [
        {
          "internalType": "address",
          "name": "",
          "type": "address"
        }
      ],
      "stateMutability": "view",
      "type": "function"
    },
    {
      "inputs": [
        {
          "internalType": "address",
          "name": "from",
          "type": "address"
        },
        {
          "internalType": "address",
          "name": "to",
          "type": "address"
        },
        {
          "internalType": "uint256",
          "name": "tokenId",
          "type": "uint256"
        }
      ],
      "name": "safeTransferFrom",
      "outputs": [],
      "stateMutability": "nonpayable",
      "type": "function"
    },
    {
      "inputs": [
        {
          "internalType": "address",
          "name": "from",
          "type": "address"
        },
        {
          "internalType": "address",
          "name": "to",
          "type": "address"
        },
        {
          "internalType": "uint256",
          "name": "tokenId",
          "type": "uint256"
        },
        {
          "internalType": "bytes",
          "name": "data",
          "type": "bytes"
        }
      ],
      "name": "safeTransferFrom",
      "outputs": [],
      "stateMutability": "nonpayable",
      "type": "function"
    },
    {
      "inputs": [
        {
          "internalType": "address",
          "name": "operator",
          "type": "address"
        },
        {
          "internalType": "bool",
          "name": "approved",
          "type": "bool"
        }
      ],
      "name": "setApprovalForAll",
      "outputs": [],
      "stateMutability": "nonpayable",
      "type": "function"
    },
    {
      "inputs": [
        {
          "internalType": "bytes4",
          "name": "interfaceId",
          "type": "bytes4"
        }
      ],
      "name": "supportsInterface",
      "outputs": [
        {
          "internalType": "bool",
          "name": "",
          "type": "bool"
        }
      ],
      "stateMutability": "view",
      "type": "function"
    },
    {
      "inputs": [],
      "name": "symbol",
      "outputs": [
        {
          "internalType": "string",
          "name": "",
          "type": "string"
        }
      ],
      "stateMutability": "view",
      "type": "function"
    },
    {
      "inputs": [
        {
          "internalType": "address",
          "name": "from",
          "type": "address"
        },
        {
          "internalType": "address",
          "name": "to",
          "type": "address"
        },
        {
          "internalType": "uint256",
          "name": "tokenId",
          "type": "uint256"
        }
      ],
      "name": "transferFrom",
      "outputs": [],
      "stateMutability": "nonpayable",
      "type": "function"
    },
    {
      "inputs": [
        {
          "internalType": "address",
          "name": "playerId",
          "type": "address"
        },
        {
          "internalType": "string",
          "name": "name",
          "type": "string"
        }
      ],
      "name": "createPlayer",
      "outputs": [],
      "stateMutability": "nonpayable",
      "type": "function"
    },
    {
      "inputs": [
        {
          "internalType": "address",
          "name": "playerId",
          "type": "address"
        }
      ],
      "name": "upgradePlayer",
      "outputs": [],
      "stateMutability": "nonpayable",
      "type": "function"
    },
    {
      "inputs": [
        {
          "internalType": "address",
          "name": "playerId",
          "type": "address"
        }
      ],
      "name": "downgradePlayer",
      "outputs": [],
      "stateMutability": "nonpayable",
      "type": "function"
    },
    {
      "inputs": [
        {
          "internalType": "uint64",
          "name": "chainSelector",
          "type": "uint64"
        }
      ],
      "name": "transferTo",
      "outputs": [],
      "stateMutability": "nonpayable",
      "type": "function"
    },
    {
      "inputs": [
        {
          "internalType": "uint64",
          "name": "",
          "type": "uint64"
        },
        {
          "internalType": "address",
          "name": "",
          "type": "address"
        },
        {
          "internalType": "address",
          "name": "playerId",
          "type": "address"
        },
        {
          "internalType": "uint256",
          "name": "tokenId",
          "type": "uint256"
        },
        {
          "internalType": "string",
          "name": "uri",
          "type": "string"
        },
        {
          "internalType": "bytes",
          "name": "data",
          "type": "bytes"
        }
      ],
      "name": "_receiveFrom",
      "outputs": [],
      "stateMutability": "nonpayable",
      "type": "function"
    },
    {
      "inputs": [
        {
          "internalType": "address",
          "name": "playerId",
          "type": "address"
        },
        {
          "internalType": "string",
          "name": "uri",
          "type": "string"
        }
      ],
      "name": "_receiveUri",
      "outputs": [],
      "stateMutability": "nonpayable",
      "type": "function"
    },
    {
      "inputs": [
        {
          "internalType": "uint256",
          "name": "tokenId",
          "type": "uint256"
        }
      ],
      "name": "tokenURI",
      "outputs": [
        {
          "internalType": "string",
          "name": "",
          "type": "string"
        }
      ],
      "stateMutability": "view",
      "type": "function"
    }
  ],
  "bytecode": "0x60806040523480156200001157600080fd5b506040516200417a3803806200417a83398181016040528101906200003791906200017b565b6040518060400160405280601181526020017f526f636b506170657253636973736f72730000000000000000000000000000008152506040518060400160405280600381526020017f52505300000000000000000000000000000000000000000000000000000000008152508160009081620000b4919062000427565b508060019081620000c6919062000427565b50505080600960006101000a81548173ffffffffffffffffffffffffffffffffffffffff021916908373ffffffffffffffffffffffffffffffffffffffff160217905550506200050e565b600080fd5b600073ffffffffffffffffffffffffffffffffffffffff82169050919050565b6000620001438262000116565b9050919050565b620001558162000136565b81146200016157600080fd5b50565b60008151905062000175816200014a565b92915050565b60006020828403121562000194576200019362000111565b5b6000620001a48482850162000164565b91505092915050565b600081519050919050565b7f4e487b7100000000000000000000000000000000000000000000000000000000600052604160045260246000fd5b7f4e487b7100000000000000000000000000000000000000000000000000000000600052602260045260246000fd5b600060028204905060018216806200022f57607f821691505b602082108103620002455762000244620001e7565b5b50919050565b60008190508160005260206000209050919050565b60006020601f8301049050919050565b600082821b905092915050565b600060088302620002af7fffffffffffffffffffffffffffffffffffffffffffffffffffffffffffffffff8262000270565b620002bb868362000270565b95508019841693508086168417925050509392505050565b6000819050919050565b6000819050919050565b60006200030862000302620002fc84620002d3565b620002dd565b620002d3565b9050919050565b6000819050919050565b6200032483620002e7565b6200033c62000333826200030f565b8484546200027d565b825550505050565b600090565b6200035362000344565b6200036081848462000319565b505050565b5b8181101562000388576200037c60008262000349565b60018101905062000366565b5050565b601f821115620003d757620003a1816200024b565b620003ac8462000260565b81016020851015620003bc578190505b620003d4620003cb8562000260565b83018262000365565b50505b505050565b600082821c905092915050565b6000620003fc60001984600802620003dc565b1980831691505092915050565b6000620004178383620003e9565b9150826002028217905092915050565b6200043282620001ad565b67ffffffffffffffff8111156200044e576200044d620001b8565b5b6200045a825462000216565b620004678282856200038c565b600060209050601f8311600181146200049f57600084156200048a578287015190505b62000496858262000409565b86555062000506565b601f198416620004af866200024b565b60005b82811015620004d957848901518255600182019150602085019450602081019050620004b2565b86831015620004f95784890151620004f5601f891682620003e9565b8355505b6001600288020188555050505b505050505050565b613c5c806200051e6000396000f3fe608060405234801561001057600080fd5b506004361061012c5760003560e01c80638b8ff358116100ad578063af3ef62e11610071578063af3ef62e1461032b578063b64fe1c614610347578063b88d4fde14610363578063c87b56dd1461037f578063e985e9c5146103af5761012c565b80638b8ff3581461029b5780638f9c3956146102b957806395d89b41146102d5578063a06422a7146102f3578063a22cb4651461030f5761012c565b806340f87392116100f457806340f87392146101e757806342842e0e146102035780636352211e1461021f5780636d4195fb1461024f57806370a082311461026b5761012c565b806301ffc9a71461013157806306fdde0314610161578063081812fc1461017f578063095ea7b3146101af57806323b872dd146101cb575b600080fd5b61014b600480360381019061014691906125af565b6103df565b60405161015891906125f7565b60405180910390f35b6101696104c1565b60405161017691906126a2565b60405180910390f35b610199600480360381019061019491906126fa565b610553565b6040516101a69190612768565b60405180910390f35b6101c960048036038101906101c491906127af565b610599565b005b6101e560048036038101906101e091906127ef565b6106b0565b005b61020160048036038101906101fc9190612842565b610710565b005b61021d600480360381019061021891906127ef565b610a04565b005b610239600480360381019061023491906126fa565b610a24565b6040516102469190612768565b60405180910390f35b61026960048036038101906102649190612a85565b610aaa565b005b61028560048036038101906102809190612842565b610bd5565b6040516102929190612b59565b60405180910390f35b6102a3610c8c565b6040516102b09190612b59565b60405180910390f35b6102d360048036038101906102ce9190612b74565b610c91565b005b6102dd610d6f565b6040516102ea91906126a2565b60405180910390f35b61030d60048036038101906103089190612842565b610e01565b005b61032960048036038101906103249190612bfc565b6110ad565b005b61034560048036038101906103409190612c3c565b6110c3565b005b610361600480360381019061035c9190612b74565b6113f6565b005b61037d60048036038101906103789190612c69565b6114bf565b005b610399600480360381019061039491906126fa565b611521565b6040516103a691906126a2565b60405180910390f35b6103c960048036038101906103c49190612cec565b6115c6565b6040516103d691906125f7565b60405180910390f35b60007f80ac58cd000000000000000000000000000000000000000000000000000000007bffffffffffffffffffffffffffffffffffffffffffffffffffffffff1916827bffffffffffffffffffffffffffffffffffffffffffffffffffffffff191614806104aa57507f5b5e139f000000000000000000000000000000000000000000000000000000007bffffffffffffffffffffffffffffffffffffffffffffffffffffffff1916827bffffffffffffffffffffffffffffffffffffffffffffffffffffffff1916145b806104ba57506104b98261165a565b5b9050919050565b6060600080546104d090612d5b565b80601f01602080910402602001604051908101604052809291908181526020018280546104fc90612d5b565b80156105495780601f1061051e57610100808354040283529160200191610549565b820191906000526020600020905b81548152906001019060200180831161052c57829003601f168201915b5050505050905090565b600061055e826116c4565b6004600083815260200190815260200160002060009054906101000a900473ffffffffffffffffffffffffffffffffffffffff169050919050565b60006105a482610a24565b90508073ffffffffffffffffffffffffffffffffffffffff168373ffffffffffffffffffffffffffffffffffffffff1603610614576040517f08c379a000000000000000000000000000000000000000000000000000000000815260040161060b90612dfe565b60405180910390fd5b8073ffffffffffffffffffffffffffffffffffffffff1661063361170f565b73ffffffffffffffffffffffffffffffffffffffff16148061066257506106618161065c61170f565b6115c6565b5b6106a1576040517f08c379a000000000000000000000000000000000000000000000000000000000815260040161069890612e90565b60405180910390fd5b6106ab8383611717565b505050565b6106c16106bb61170f565b826117d0565b610700576040517f08c379a00000000000000000000000000000000000000000000000000000000081526004016106f790612f22565b60405180910390fd5b61070b838383611865565b505050565b6000600a60008373ffffffffffffffffffffffffffffffffffffffff1673ffffffffffffffffffffffffffffffffffffffff16815260200190815260200160002090508060020160009054906101000a900460ff166107a4576040517f08c379a000000000000000000000000000000000000000000000000000000000815260040161079b90612f8e565b60405180910390fd5b6005816001015410156107ec576040517f08c379a00000000000000000000000000000000000000000000000000000000081526004016107e390612ffa565b60405180910390fd5b600581600101546107fd9190613049565b81600101819055506000601467ffffffffffffffff811115610822576108216128b9565b5b60405190808252806020026020018201604052801561085557816020015b60608152602001906001900390816108405790505b50905081600001805461086790612d5b565b80601f016020809104026020016040519081016040528092919081815260200182805461089390612d5b565b80156108e05780601f106108b5576101008083540402835291602001916108e0565b820191906000526020600020905b8154815290600101906020018083116108c357829003601f168201915b5050505050816000815181106108f9576108f861307d565b5b60200260200101819052506109118260010154611b5e565b816001815181106109255761092461307d565b5b602002602001018190525060006040518060400160405280601d81526020017f24706c617965725f6e616d65242024706c617965725f706f696e7473240000008152509050600960009054906101000a900473ffffffffffffffffffffffffffffffffffffffff1673ffffffffffffffffffffffffffffffffffffffff1663eee6e57385848460026040518563ffffffff1660e01b81526004016109cc94939291906131d4565b600060405180830381600087803b1580156109e657600080fd5b505af11580156109fa573d6000803e3d6000fd5b5050505050505050565b610a1f838383604051806020016040528060008152506114bf565b505050565b600080610a3083611c2c565b9050600073ffffffffffffffffffffffffffffffffffffffff168173ffffffffffffffffffffffffffffffffffffffff1603610aa1576040517f08c379a0000000000000000000000000000000000000000000000000000000008152600401610a9890613273565b60405180910390fd5b80915050919050565b60008082806020019051810190610ac19190613318565b91509150610acf8686611c69565b83600760008781526020019081526020016000209081610aef9190613520565b5081600a60008873ffffffffffffffffffffffffffffffffffffffff1673ffffffffffffffffffffffffffffffffffffffff1681526020019081526020016000206000019081610b3f9190613520565b5080600a60008873ffffffffffffffffffffffffffffffffffffffff1673ffffffffffffffffffffffffffffffffffffffff1681526020019081526020016000206001018190555084600860008873ffffffffffffffffffffffffffffffffffffffff1673ffffffffffffffffffffffffffffffffffffffff168152602001908152602001600020819055505050505050505050565b60008073ffffffffffffffffffffffffffffffffffffffff168273ffffffffffffffffffffffffffffffffffffffff1603610c45576040517f08c379a0000000000000000000000000000000000000000000000000000000008152600401610c3c90613664565b60405180910390fd5b600360008373ffffffffffffffffffffffffffffffffffffffff1673ffffffffffffffffffffffffffffffffffffffff168152602001908152602001600020549050919050565b601481565b6000600860008473ffffffffffffffffffffffffffffffffffffffff1673ffffffffffffffffffffffffffffffffffffffff16815260200190815260200160002054905060008103610d495760066000815480929190610cf090613684565b91905055506006549050610d048382611c69565b80600860008573ffffffffffffffffffffffffffffffffffffffff1673ffffffffffffffffffffffffffffffffffffffff168152602001908152602001600020819055505b81600760008381526020019081526020016000209081610d699190613520565b50505050565b606060018054610d7e90612d5b565b80601f0160208091040260200160405190810160405280929190818152602001828054610daa90612d5b565b8015610df75780601f10610dcc57610100808354040283529160200191610df7565b820191906000526020600020905b815481529060010190602001808311610dda57829003601f168201915b5050505050905090565b6000600a60008373ffffffffffffffffffffffffffffffffffffffff1673ffffffffffffffffffffffffffffffffffffffff16815260200190815260200160002090508060020160009054906101000a900460ff16610e95576040517f08c379a0000000000000000000000000000000000000000000000000000000008152600401610e8c90612f8e565b60405180910390fd5b60058160010154610ea691906136cc565b81600101819055506000601467ffffffffffffffff811115610ecb57610eca6128b9565b5b604051908082528060200260200182016040528015610efe57816020015b6060815260200190600190039081610ee95790505b509050816000018054610f1090612d5b565b80601f0160208091040260200160405190810160405280929190818152602001828054610f3c90612d5b565b8015610f895780601f10610f5e57610100808354040283529160200191610f89565b820191906000526020600020905b815481529060010190602001808311610f6c57829003601f168201915b505050505081600081518110610fa257610fa161307d565b5b6020026020010181905250610fba8260010154611b5e565b81600181518110610fce57610fcd61307d565b5b602002602001018190525060006040518060400160405280601d81526020017f24706c617965725f6e616d65242024706c617965725f706f696e7473240000008152509050600960009054906101000a900473ffffffffffffffffffffffffffffffffffffffff1673ffffffffffffffffffffffffffffffffffffffff1663eee6e57385848460016040518563ffffffff1660e01b815260040161107594939291906131d4565b600060405180830381600087803b15801561108f57600080fd5b505af11580156110a3573d6000803e3d6000fd5b5050505050505050565b6110bf6110b861170f565b8383611e86565b5050565b60006110cd61170f565b90506000600860008373ffffffffffffffffffffffffffffffffffffffff1673ffffffffffffffffffffffffffffffffffffffff16815260200190815260200160002054905061111c81611ff2565b60076000828152602001908152602001600020600061113b91906124e6565b600860008373ffffffffffffffffffffffffffffffffffffffff1673ffffffffffffffffffffffffffffffffffffffff16815260200190815260200160002060009055600030905060006007600084815260200190815260200160002080546111a390612d5b565b80601f01602080910402602001604051908101604052809291908181526020018280546111cf90612d5b565b801561121c5780601f106111f15761010080835404028352916020019161121c565b820191906000526020600020905b8154815290600101906020018083116111ff57829003601f168201915b505050505090506000600a60008673ffffffffffffffffffffffffffffffffffffffff1673ffffffffffffffffffffffffffffffffffffffff16815260200190815260200160002060405180606001604052908160008201805461127f90612d5b565b80601f01602080910402602001604051908101604052809291908181526020018280546112ab90612d5b565b80156112f85780601f106112cd576101008083540402835291602001916112f8565b820191906000526020600020905b8154815290600101906020018083116112db57829003601f168201915b50505050508152602001600182015481526020016002820160009054906101000a900460ff1615151515815250509050600081600001518260200151604051602001611345929190613700565b6040516020818303038152906040529050600960009054906101000a900473ffffffffffffffffffffffffffffffffffffffff1673ffffffffffffffffffffffffffffffffffffffff16638d6dc0eb8886898988876040518763ffffffff1660e01b81526004016113bb96959493929190613794565b600060405180830381600087803b1580156113d557600080fd5b505af11580156113e9573d6000803e3d6000fd5b5050505050505050505050565b6000600a60008473ffffffffffffffffffffffffffffffffffffffff1673ffffffffffffffffffffffffffffffffffffffff16815260200190815260200160002090508060020160009054906101000a900460ff161561148b576040517f08c379a00000000000000000000000000000000000000000000000000000000081526004016114829061384f565b60405180910390fd5b8181600001908161149c9190613520565b5060018160020160006101000a81548160ff021916908315150217905550505050565b6114d06114ca61170f565b836117d0565b61150f576040517f08c379a000000000000000000000000000000000000000000000000000000000815260040161150690612f22565b60405180910390fd5b61151b84848484612140565b50505050565b606060076000838152602001908152602001600020805461154190612d5b565b80601f016020809104026020016040519081016040528092919081815260200182805461156d90612d5b565b80156115ba5780601f1061158f576101008083540402835291602001916115ba565b820191906000526020600020905b81548152906001019060200180831161159d57829003601f168201915b50505050509050919050565b6000600560008473ffffffffffffffffffffffffffffffffffffffff1673ffffffffffffffffffffffffffffffffffffffff16815260200190815260200160002060008373ffffffffffffffffffffffffffffffffffffffff1673ffffffffffffffffffffffffffffffffffffffff16815260200190815260200160002060009054906101000a900460ff16905092915050565b60007f01ffc9a7000000000000000000000000000000000000000000000000000000007bffffffffffffffffffffffffffffffffffffffffffffffffffffffff1916827bffffffffffffffffffffffffffffffffffffffffffffffffffffffff1916149050919050565b6116cd8161219c565b61170c576040517f08c379a000000000000000000000000000000000000000000000000000000000815260040161170390613273565b60405180910390fd5b50565b600033905090565b816004600083815260200190815260200160002060006101000a81548173ffffffffffffffffffffffffffffffffffffffff021916908373ffffffffffffffffffffffffffffffffffffffff160217905550808273ffffffffffffffffffffffffffffffffffffffff1661178a83610a24565b73ffffffffffffffffffffffffffffffffffffffff167f8c5be1e5ebec7d5bd14f71427d1e84f3dd0314c0f7b2291e5b200ac8c7c3b92560405160405180910390a45050565b6000806117dc83610a24565b90508073ffffffffffffffffffffffffffffffffffffffff168473ffffffffffffffffffffffffffffffffffffffff16148061181e575061181d81856115c6565b5b8061185c57508373ffffffffffffffffffffffffffffffffffffffff1661184484610553565b73ffffffffffffffffffffffffffffffffffffffff16145b91505092915050565b8273ffffffffffffffffffffffffffffffffffffffff1661188582610a24565b73ffffffffffffffffffffffffffffffffffffffff16146118db576040517f08c379a00000000000000000000000000000000000000000000000000000000081526004016118d2906138e1565b60405180910390fd5b600073ffffffffffffffffffffffffffffffffffffffff168273ffffffffffffffffffffffffffffffffffffffff160361194a576040517f08c379a000000000000000000000000000000000000000000000000000000000815260040161194190613973565b60405180910390fd5b61195783838360016121dd565b8273ffffffffffffffffffffffffffffffffffffffff1661197782610a24565b73ffffffffffffffffffffffffffffffffffffffff16146119cd576040517f08c379a00000000000000000000000000000000000000000000000000000000081526004016119c4906138e1565b60405180910390fd5b6004600082815260200190815260200160002060006101000a81549073ffffffffffffffffffffffffffffffffffffffff02191690556001600360008573ffffffffffffffffffffffffffffffffffffffff1673ffffffffffffffffffffffffffffffffffffffff168152602001908152602001600020600082825403925050819055506001600360008473ffffffffffffffffffffffffffffffffffffffff1673ffffffffffffffffffffffffffffffffffffffff16815260200190815260200160002060008282540192505081905550816002600083815260200190815260200160002060006101000a81548173ffffffffffffffffffffffffffffffffffffffff021916908373ffffffffffffffffffffffffffffffffffffffff160217905550808273ffffffffffffffffffffffffffffffffffffffff168473ffffffffffffffffffffffffffffffffffffffff167fddf252ad1be2c89b69c2b068fc378daa952ba7f163c4a11628f55a4df523b3ef60405160405180910390a4611b5983838360016121e3565b505050565b606060006001611b6d846121e9565b01905060008167ffffffffffffffff811115611b8c57611b8b6128b9565b5b6040519080825280601f01601f191660200182016040528015611bbe5781602001600182028036833780820191505090505b509050600082602001820190505b600115611c21578080600190039150507f3031323334353637383961626364656600000000000000000000000000000000600a86061a8153600a8581611c1557611c14613993565b5b04945060008503611bcc575b819350505050919050565b60006002600083815260200190815260200160002060009054906101000a900473ffffffffffffffffffffffffffffffffffffffff169050919050565b600073ffffffffffffffffffffffffffffffffffffffff168273ffffffffffffffffffffffffffffffffffffffff1603611cd8576040517f08c379a0000000000000000000000000000000000000000000000000000000008152600401611ccf90613a0e565b60405180910390fd5b611ce18161219c565b15611d21576040517f08c379a0000000000000000000000000000000000000000000000000000000008152600401611d1890613a7a565b60405180910390fd5b611d2f6000838360016121dd565b611d388161219c565b15611d78576040517f08c379a0000000000000000000000000000000000000000000000000000000008152600401611d6f90613a7a565b60405180910390fd5b6001600360008473ffffffffffffffffffffffffffffffffffffffff1673ffffffffffffffffffffffffffffffffffffffff16815260200190815260200160002060008282540192505081905550816002600083815260200190815260200160002060006101000a81548173ffffffffffffffffffffffffffffffffffffffff021916908373ffffffffffffffffffffffffffffffffffffffff160217905550808273ffffffffffffffffffffffffffffffffffffffff16600073ffffffffffffffffffffffffffffffffffffffff167fddf252ad1be2c89b69c2b068fc378daa952ba7f163c4a11628f55a4df523b3ef60405160405180910390a4611e826000838360016121e3565b5050565b8173ffffffffffffffffffffffffffffffffffffffff168373ffffffffffffffffffffffffffffffffffffffff1603611ef4576040517f08c379a0000000000000000000000000000000000000000000000000000000008152600401611eeb90613ae6565b60405180910390fd5b80600560008573ffffffffffffffffffffffffffffffffffffffff1673ffffffffffffffffffffffffffffffffffffffff16815260200190815260200160002060008473ffffffffffffffffffffffffffffffffffffffff1673ffffffffffffffffffffffffffffffffffffffff16815260200190815260200160002060006101000a81548160ff0219169083151502179055508173ffffffffffffffffffffffffffffffffffffffff168373ffffffffffffffffffffffffffffffffffffffff167f17307eab39ab6107e8899845ad3d59bd9653f200f220920489ca2b5937696c3183604051611fe591906125f7565b60405180910390a3505050565b6000611ffd82610a24565b905061200d8160008460016121dd565b61201682610a24565b90506004600083815260200190815260200160002060006101000a81549073ffffffffffffffffffffffffffffffffffffffff02191690556001600360008373ffffffffffffffffffffffffffffffffffffffff1673ffffffffffffffffffffffffffffffffffffffff168152602001908152602001600020600082825403925050819055506002600083815260200190815260200160002060006101000a81549073ffffffffffffffffffffffffffffffffffffffff021916905581600073ffffffffffffffffffffffffffffffffffffffff168273ffffffffffffffffffffffffffffffffffffffff167fddf252ad1be2c89b69c2b068fc378daa952ba7f163c4a11628f55a4df523b3ef60405160405180910390a461213c8160008460016121e3565b5050565b61214b848484611865565b6121578484848461233c565b612196576040517f08c379a000000000000000000000000000000000000000000000000000000000815260040161218d90613b78565b60405180910390fd5b50505050565b60008073ffffffffffffffffffffffffffffffffffffffff166121be83611c2c565b73ffffffffffffffffffffffffffffffffffffffff1614159050919050565b50505050565b50505050565b600080600090507a184f03e93ff9f4daa797ed6e38ed64bf6a1f0100000000000000008310612247577a184f03e93ff9f4daa797ed6e38ed64bf6a1f010000000000000000838161223d5761223c613993565b5b0492506040810190505b6d04ee2d6d415b85acef81000000008310612284576d04ee2d6d415b85acef8100000000838161227a57612279613993565b5b0492506020810190505b662386f26fc1000083106122b357662386f26fc1000083816122a9576122a8613993565b5b0492506010810190505b6305f5e10083106122dc576305f5e10083816122d2576122d1613993565b5b0492506008810190505b61271083106123015761271083816122f7576122f6613993565b5b0492506004810190505b60648310612324576064838161231a57612319613993565b5b0492506002810190505b600a8310612333576001810190505b80915050919050565b600061235d8473ffffffffffffffffffffffffffffffffffffffff166124c3565b156124b6578373ffffffffffffffffffffffffffffffffffffffff1663150b7a0261238661170f565b8786866040518563ffffffff1660e01b81526004016123a89493929190613b98565b6020604051808303816000875af19250505080156123e457506040513d601f19601f820116820180604052508101906123e19190613bf9565b60015b612466573d8060008114612414576040519150601f19603f3d011682016040523d82523d6000602084013e612419565b606091505b50600081510361245e576040517f08c379a000000000000000000000000000000000000000000000000000000000815260040161245590613b78565b60405180910390fd5b805181602001fd5b63150b7a0260e01b7bffffffffffffffffffffffffffffffffffffffffffffffffffffffff1916817bffffffffffffffffffffffffffffffffffffffffffffffffffffffff1916149150506124bb565b600190505b949350505050565b6000808273ffffffffffffffffffffffffffffffffffffffff163b119050919050565b5080546124f290612d5b565b6000825580601f106125045750612523565b601f0160209004906000526020600020908101906125229190612526565b5b50565b5b8082111561253f576000816000905550600101612527565b5090565b6000604051905090565b600080fd5b600080fd5b60007fffffffff0000000000000000000000000000000000000000000000000000000082169050919050565b61258c81612557565b811461259757600080fd5b50565b6000813590506125a981612583565b92915050565b6000602082840312156125c5576125c461254d565b5b60006125d38482850161259a565b91505092915050565b60008115159050919050565b6125f1816125dc565b82525050565b600060208201905061260c60008301846125e8565b92915050565b600081519050919050565b600082825260208201905092915050565b60005b8381101561264c578082015181840152602081019050612631565b60008484015250505050565b6000601f19601f8301169050919050565b600061267482612612565b61267e818561261d565b935061268e81856020860161262e565b61269781612658565b840191505092915050565b600060208201905081810360008301526126bc8184612669565b905092915050565b6000819050919050565b6126d7816126c4565b81146126e257600080fd5b50565b6000813590506126f4816126ce565b92915050565b6000602082840312156127105761270f61254d565b5b600061271e848285016126e5565b91505092915050565b600073ffffffffffffffffffffffffffffffffffffffff82169050919050565b600061275282612727565b9050919050565b61276281612747565b82525050565b600060208201905061277d6000830184612759565b92915050565b61278c81612747565b811461279757600080fd5b50565b6000813590506127a981612783565b92915050565b600080604083850312156127c6576127c561254d565b5b60006127d48582860161279a565b92505060206127e5858286016126e5565b9150509250929050565b6000806000606084860312156128085761280761254d565b5b60006128168682870161279a565b93505060206128278682870161279a565b9250506040612838868287016126e5565b9150509250925092565b6000602082840312156128585761285761254d565b5b60006128668482850161279a565b91505092915050565b600067ffffffffffffffff82169050919050565b61288c8161286f565b811461289757600080fd5b50565b6000813590506128a981612883565b92915050565b600080fd5b600080fd5b7f4e487b7100000000000000000000000000000000000000000000000000000000600052604160045260246000fd5b6128f182612658565b810181811067ffffffffffffffff821117156129105761290f6128b9565b5b80604052505050565b6000612923612543565b905061292f82826128e8565b919050565b600067ffffffffffffffff82111561294f5761294e6128b9565b5b61295882612658565b9050602081019050919050565b82818337600083830152505050565b600061298761298284612934565b612919565b9050828152602081018484840111156129a3576129a26128b4565b5b6129ae848285612965565b509392505050565b600082601f8301126129cb576129ca6128af565b5b81356129db848260208601612974565b91505092915050565b600067ffffffffffffffff8211156129ff576129fe6128b9565b5b612a0882612658565b9050602081019050919050565b6000612a28612a23846129e4565b612919565b905082815260208101848484011115612a4457612a436128b4565b5b612a4f848285612965565b509392505050565b600082601f830112612a6c57612a6b6128af565b5b8135612a7c848260208601612a15565b91505092915050565b60008060008060008060c08789031215612aa257612aa161254d565b5b6000612ab089828a0161289a565b9650506020612ac189828a0161279a565b9550506040612ad289828a0161279a565b9450506060612ae389828a016126e5565b935050608087013567ffffffffffffffff811115612b0457612b03612552565b5b612b1089828a016129b6565b92505060a087013567ffffffffffffffff811115612b3157612b30612552565b5b612b3d89828a01612a57565b9150509295509295509295565b612b53816126c4565b82525050565b6000602082019050612b6e6000830184612b4a565b92915050565b60008060408385031215612b8b57612b8a61254d565b5b6000612b998582860161279a565b925050602083013567ffffffffffffffff811115612bba57612bb9612552565b5b612bc6858286016129b6565b9150509250929050565b612bd9816125dc565b8114612be457600080fd5b50565b600081359050612bf681612bd0565b92915050565b60008060408385031215612c1357612c1261254d565b5b6000612c218582860161279a565b9250506020612c3285828601612be7565b9150509250929050565b600060208284031215612c5257612c5161254d565b5b6000612c608482850161289a565b91505092915050565b60008060008060808587031215612c8357612c8261254d565b5b6000612c918782880161279a565b9450506020612ca28782880161279a565b9350506040612cb3878288016126e5565b925050606085013567ffffffffffffffff811115612cd457612cd3612552565b5b612ce087828801612a57565b91505092959194509250565b60008060408385031215612d0357612d0261254d565b5b6000612d118582860161279a565b9250506020612d228582860161279a565b9150509250929050565b7f4e487b7100000000000000000000000000000000000000000000000000000000600052602260045260246000fd5b60006002820490506001821680612d7357607f821691505b602082108103612d8657612d85612d2c565b5b50919050565b7f4552433732313a20617070726f76616c20746f2063757272656e74206f776e6560008201527f7200000000000000000000000000000000000000000000000000000000000000602082015250565b6000612de860218361261d565b9150612df382612d8c565b604082019050919050565b60006020820190508181036000830152612e1781612ddb565b9050919050565b7f4552433732313a20617070726f76652063616c6c6572206973206e6f7420746f60008201527f6b656e206f776e6572206f7220617070726f76656420666f7220616c6c000000602082015250565b6000612e7a603d8361261d565b9150612e8582612e1e565b604082019050919050565b60006020820190508181036000830152612ea981612e6d565b9050919050565b7f4552433732313a2063616c6c6572206973206e6f7420746f6b656e206f776e6560008201527f72206f7220617070726f76656400000000000000000000000000000000000000602082015250565b6000612f0c602d8361261d565b9150612f1782612eb0565b604082019050919050565b60006020820190508181036000830152612f3b81612eff565b9050919050565b7f437265617465207468697320706c617965722066697273740000000000000000600082015250565b6000612f7860188361261d565b9150612f8382612f42565b602082019050919050565b60006020820190508181036000830152612fa781612f6b565b9050919050565b7f416c7265616479206465666561746564203a2900000000000000000000000000600082015250565b6000612fe460138361261d565b9150612fef82612fae565b602082019050919050565b6000602082019050818103600083015261301381612fd7565b9050919050565b7f4e487b7100000000000000000000000000000000000000000000000000000000600052601160045260246000fd5b6000613054826126c4565b915061305f836126c4565b92508282039050818111156130775761307661301a565b5b92915050565b7f4e487b7100000000000000000000000000000000000000000000000000000000600052603260045260246000fd5b600081519050919050565b600082825260208201905092915050565b6000819050602082019050919050565b600082825260208201905092915050565b60006130f482612612565b6130fe81856130d8565b935061310e81856020860161262e565b61311781612658565b840191505092915050565b600061312e83836130e9565b905092915050565b6000602082019050919050565b600061314e826130ac565b61315881856130b7565b93508360208202850161316a856130c8565b8060005b858110156131a657848403895281516131878582613122565b945061319283613136565b925060208a0199505060018101905061316e565b50829750879550505050505092915050565b600060ff82169050919050565b6131ce816131b8565b82525050565b60006080820190506131e96000830187612759565b81810360208301526131fb8186613143565b9050818103604083015261320f8185612669565b905061321e60608301846131c5565b95945050505050565b7f4552433732313a20696e76616c696420746f6b656e2049440000000000000000600082015250565b600061325d60188361261d565b915061326882613227565b602082019050919050565b6000602082019050818103600083015261328c81613250565b9050919050565b60006132a66132a184612934565b612919565b9050828152602081018484840111156132c2576132c16128b4565b5b6132cd84828561262e565b509392505050565b600082601f8301126132ea576132e96128af565b5b81516132fa848260208601613293565b91505092915050565b600081519050613312816126ce565b92915050565b6000806040838503121561332f5761332e61254d565b5b600083015167ffffffffffffffff81111561334d5761334c612552565b5b613359858286016132d5565b925050602061336a85828601613303565b9150509250929050565b60008190508160005260206000209050919050565b60006020601f8301049050919050565b600082821b905092915050565b6000600883026133d67fffffffffffffffffffffffffffffffffffffffffffffffffffffffffffffffff82613399565b6133e08683613399565b95508019841693508086168417925050509392505050565b6000819050919050565b600061341d613418613413846126c4565b6133f8565b6126c4565b9050919050565b6000819050919050565b61343783613402565b61344b61344382613424565b8484546133a6565b825550505050565b600090565b613460613453565b61346b81848461342e565b505050565b5b8181101561348f57613484600082613458565b600181019050613471565b5050565b601f8211156134d4576134a581613374565b6134ae84613389565b810160208510156134bd578190505b6134d16134c985613389565b830182613470565b50505b505050565b600082821c905092915050565b60006134f7600019846008026134d9565b1980831691505092915050565b600061351083836134e6565b9150826002028217905092915050565b61352982612612565b67ffffffffffffffff811115613542576135416128b9565b5b61354c8254612d5b565b613557828285613493565b600060209050601f83116001811461358a5760008415613578578287015190505b6135828582613504565b8655506135ea565b601f19841661359886613374565b60005b828110156135c05784890151825560018201915060208501945060208101905061359b565b868310156135dd57848901516135d9601f8916826134e6565b8355505b6001600288020188555050505b505050505050565b7f4552433732313a2061646472657373207a65726f206973206e6f74206120766160008201527f6c6964206f776e65720000000000000000000000000000000000000000000000602082015250565b600061364e60298361261d565b9150613659826135f2565b604082019050919050565b6000602082019050818103600083015261367d81613641565b9050919050565b600061368f826126c4565b91507fffffffffffffffffffffffffffffffffffffffffffffffffffffffffffffffff82036136c1576136c061301a565b5b600182019050919050565b60006136d7826126c4565b91506136e2836126c4565b92508282019050808211156136fa576136f961301a565b5b92915050565b6000604082019050818103600083015261371a8185612669565b90506137296020830184612b4a565b9392505050565b6137398161286f565b82525050565b600081519050919050565b600082825260208201905092915050565b60006137668261373f565b613770818561374a565b935061378081856020860161262e565b61378981612658565b840191505092915050565b600060c0820190506137a96000830189613730565b6137b66020830188612759565b6137c36040830187612759565b6137d06060830186612b4a565b81810360808301526137e28185612669565b905081810360a08301526137f6818461375b565b9050979650505050505050565b7f506c6179657220686173206265656e2063726561746564000000000000000000600082015250565b600061383960178361261d565b915061384482613803565b602082019050919050565b600060208201905081810360008301526138688161382c565b9050919050565b7f4552433732313a207472616e736665722066726f6d20696e636f72726563742060008201527f6f776e6572000000000000000000000000000000000000000000000000000000602082015250565b60006138cb60258361261d565b91506138d68261386f565b604082019050919050565b600060208201905081810360008301526138fa816138be565b9050919050565b7f4552433732313a207472616e7366657220746f20746865207a65726f2061646460008201527f7265737300000000000000000000000000000000000000000000000000000000602082015250565b600061395d60248361261d565b915061396882613901565b604082019050919050565b6000602082019050818103600083015261398c81613950565b9050919050565b7f4e487b7100000000000000000000000000000000000000000000000000000000600052601260045260246000fd5b7f4552433732313a206d696e7420746f20746865207a65726f2061646472657373600082015250565b60006139f860208361261d565b9150613a03826139c2565b602082019050919050565b60006020820190508181036000830152613a27816139eb565b9050919050565b7f4552433732313a20746f6b656e20616c7265616479206d696e74656400000000600082015250565b6000613a64601c8361261d565b9150613a6f82613a2e565b602082019050919050565b60006020820190508181036000830152613a9381613a57565b9050919050565b7f4552433732313a20617070726f766520746f2063616c6c657200000000000000600082015250565b6000613ad060198361261d565b9150613adb82613a9a565b602082019050919050565b60006020820190508181036000830152613aff81613ac3565b9050919050565b7f4552433732313a207472616e7366657220746f206e6f6e20455243373231526560008201527f63656976657220696d706c656d656e7465720000000000000000000000000000602082015250565b6000613b6260328361261d565b9150613b6d82613b06565b604082019050919050565b60006020820190508181036000830152613b9181613b55565b9050919050565b6000608082019050613bad6000830187612759565b613bba6020830186612759565b613bc76040830185612b4a565b8181036060830152613bd9818461375b565b905095945050505050565b600081519050613bf381612583565b92915050565b600060208284031215613c0f57613c0e61254d565b5b6000613c1d84828501613be4565b9150509291505056fea2646970667358221220c14012d9b71f5d39dd1bdc675ac44ba2f7692b298caebbc219d82f911414c1c664736f6c63430008110033",
  "immutableReferences": {},
  "source": "// SPDX-License-Identifier: MIT\r\npragma solidity ^0.8.17;\r\n\r\nimport {IKanvasAvax} from \"../interfaces/IKanvasAvax.sol\";\r\nimport {IKanvasGame} from \"../interfaces/IKanvasGame.sol\";\r\nimport {IKanvasInteropGame} from \"../interfaces/IKanvasInteropGame.sol\";\r\n\r\nimport {ERC721} from \"@openzeppelin/contracts/token/ERC721/ERC721.sol\";\r\nimport {Strings} from \"@openzeppelin/contracts/utils/Strings.sol\";\r\n\r\ncontract RockPaperScissors is IKanvasGame, IKanvasInteropGame, ERC721 {\r\n    uint8 private constant WIN_NFT_TEMPLATE = 1;\r\n    uint8 private constant LOST_NFT_TEMPLATE = 2;\r\n\r\n    uint256 public constant MAX_PROPERTIES_LEN = 20;\r\n\r\n    uint256 private _tokenId;\r\n\r\n    mapping(uint256 => string) private _tokenURIs;\r\n    mapping(address => uint256) private _playerNfts;\r\n\r\n    IKanvasAvax private kanvas;\r\n\r\n    struct Player {\r\n        string name;\r\n        uint256 points;\r\n        bool created;\r\n    }\r\n\r\n    mapping(address => Player) private _players;\r\n\r\n    constructor(\r\n        address kanvasRouter\r\n    ) ERC721(\"RockPaperScissors\", \"RPS\") IKanvasGame() {\r\n        kanvas = IKanvasAvax(kanvasRouter);\r\n    }\r\n\r\n    function createPlayer(address playerId, string memory name) external {\r\n        Player storage player = _players[playerId];\r\n        require(!player.created, \"Player has been created\");\r\n\r\n        player.name = name;\r\n        player.created = true;\r\n    }\r\n\r\n    function upgradePlayer(address playerId) external {\r\n        Player storage player = _players[playerId];\r\n        require(player.created, \"Create this player first\");\r\n\r\n        player.points = player.points + 5;\r\n\r\n        string[] memory properties = new string[](MAX_PROPERTIES_LEN);\r\n        properties[0] = player.name;\r\n        properties[1] = Strings.toString(player.points);\r\n\r\n        string memory fields = \"$player_name$ $player_points$\";\r\n\r\n        kanvas._generateUri(playerId, properties, fields, WIN_NFT_TEMPLATE);\r\n    }\r\n\r\n    function downgradePlayer(address playerId) external {\r\n        Player storage player = _players[playerId];\r\n        require(player.created, \"Create this player first\");\r\n        require(player.points >= 5, \"Already defeated :)\");\r\n\r\n        player.points = player.points - 5;\r\n\r\n        string[] memory properties = new string[](MAX_PROPERTIES_LEN);\r\n        properties[0] = player.name;\r\n        properties[1] = Strings.toString(player.points);\r\n\r\n        string memory fields = \"$player_name$ $player_points$\";\r\n\r\n        kanvas._generateUri(playerId, properties, fields, LOST_NFT_TEMPLATE);\r\n    }\r\n\r\n    function transferTo(uint64 chainSelector) external {\r\n        address playerId = _msgSender();\r\n        uint256 tokenId = _playerNfts[playerId];\r\n\r\n        _burn(tokenId);\r\n        delete _tokenURIs[tokenId];\r\n\r\n        delete _playerNfts[playerId];\r\n\r\n        address gameId = address(this);\r\n        string memory uri = _tokenURIs[tokenId];\r\n        Player memory player = _players[playerId];\r\n\r\n        bytes memory data = abi.encode(player.name, player.points);\r\n\r\n        kanvas._transferTo(chainSelector, gameId, playerId, tokenId, uri, data);\r\n    }\r\n\r\n    function _receiveFrom(\r\n        uint64 /* chainSelector */,\r\n        address /* gameId */,\r\n        address playerId,\r\n        uint256 tokenId,\r\n        string memory uri,\r\n        bytes memory data\r\n    ) external override {\r\n        (string memory name, uint256 points) = abi.decode(\r\n            data,\r\n            (string, uint256)\r\n        );\r\n\r\n        _mint(playerId, tokenId);\r\n        _tokenURIs[tokenId] = uri;\r\n\r\n        _players[playerId].name = name;\r\n        _players[playerId].points = points;\r\n\r\n        _playerNfts[playerId] = tokenId;\r\n    }\r\n\r\n    function _receiveUri(address playerId, string memory uri) external {\r\n        uint256 tokenId = _playerNfts[playerId];\r\n\r\n        // this player does not have the game nft\r\n        if (tokenId == 0) {\r\n            // mint the game nft for player\r\n            _tokenId++;\r\n            tokenId = _tokenId;\r\n\r\n            _mint(playerId, tokenId);\r\n\r\n            _playerNfts[playerId] = tokenId;\r\n        }\r\n\r\n        _tokenURIs[tokenId] = uri;\r\n    }\r\n\r\n    function tokenURI(\r\n        uint256 tokenId\r\n    ) public view virtual override returns (string memory) {\r\n        return _tokenURIs[tokenId];\r\n    }\r\n}\r\n",
  "sourcePath": "C:\\Users\\DELL\\Documents\\kanvas\\blockchain\\contracts\\rock-paper-scissors\\RockPaperScissors.sol",
  "compiler": {
    "name": "solc",
    "version": "0.8.17+commit.8df45f5f.Emscripten.clang"
  },
  "schemaVersion": "3.4.11",
  "updatedAt": "2023-12-02T17:04:40.783Z",
  "devdoc": {
    "kind": "dev",
    "methods": {
      "approve(address,uint256)": {
        "details": "See {IERC721-approve}."
      },
      "balanceOf(address)": {
        "details": "See {IERC721-balanceOf}."
      },
      "getApproved(uint256)": {
        "details": "See {IERC721-getApproved}."
      },
      "isApprovedForAll(address,address)": {
        "details": "See {IERC721-isApprovedForAll}."
      },
      "name()": {
        "details": "See {IERC721Metadata-name}."
      },
      "ownerOf(uint256)": {
        "details": "See {IERC721-ownerOf}."
      },
      "safeTransferFrom(address,address,uint256)": {
        "details": "See {IERC721-safeTransferFrom}."
      },
      "safeTransferFrom(address,address,uint256,bytes)": {
        "details": "See {IERC721-safeTransferFrom}."
      },
      "setApprovalForAll(address,bool)": {
        "details": "See {IERC721-setApprovalForAll}."
      },
      "supportsInterface(bytes4)": {
        "details": "See {IERC165-supportsInterface}."
      },
      "symbol()": {
        "details": "See {IERC721Metadata-symbol}."
      },
      "tokenURI(uint256)": {
        "details": "See {IERC721Metadata-tokenURI}."
      },
      "transferFrom(address,address,uint256)": {
        "details": "See {IERC721-transferFrom}."
      }
    },
    "version": 1
  },
  "userdoc": {
    "kind": "user",
    "methods": {},
    "version": 1
  }
}