{
  "contractName": "RockPaperScissorsInterop",
  "abi": [
    {
      "inputs": [
        {
          "internalType": "address",
          "name": "kanvasRouter",
          "type": "address"
        },
        {
          "internalType": "address",
          "name": "sourceGameId",
          "type": "address"
        }
      ],
      "stateMutability": "nonpayable",
      "type": "constructor"
    },
    {
      "anonymous": false,
      "inputs": [
        {
          "indexed": true,
          "internalType": "address",
          "name": "owner",
          "type": "address"
        },
        {
          "indexed": true,
          "internalType": "address",
          "name": "approved",
          "type": "address"
        },
        {
          "indexed": true,
          "internalType": "uint256",
          "name": "tokenId",
          "type": "uint256"
        }
      ],
      "name": "Approval",
      "type": "event"
    },
    {
      "anonymous": false,
      "inputs": [
        {
          "indexed": true,
          "internalType": "address",
          "name": "owner",
          "type": "address"
        },
        {
          "indexed": true,
          "internalType": "address",
          "name": "operator",
          "type": "address"
        },
        {
          "indexed": false,
          "internalType": "bool",
          "name": "approved",
          "type": "bool"
        }
      ],
      "name": "ApprovalForAll",
      "type": "event"
    },
    {
      "anonymous": false,
      "inputs": [
        {
          "indexed": true,
          "internalType": "address",
          "name": "previousOwner",
          "type": "address"
        },
        {
          "indexed": true,
          "internalType": "address",
          "name": "newOwner",
          "type": "address"
        }
      ],
      "name": "OwnershipTransferred",
      "type": "event"
    },
    {
      "anonymous": false,
      "inputs": [
        {
          "indexed": true,
          "internalType": "address",
          "name": "from",
          "type": "address"
        },
        {
          "indexed": true,
          "internalType": "address",
          "name": "to",
          "type": "address"
        },
        {
          "indexed": true,
          "internalType": "uint256",
          "name": "tokenId",
          "type": "uint256"
        }
      ],
      "name": "Transfer",
      "type": "event"
    },
    {
      "inputs": [],
      "name": "MAX_PROPERTIES_LEN",
      "outputs": [
        {
          "internalType": "uint256",
          "name": "",
          "type": "uint256"
        }
      ],
      "stateMutability": "view",
      "type": "function",
      "constant": true
    },
    {
      "inputs": [
        {
          "internalType": "address",
          "name": "to",
          "type": "address"
        },
        {
          "internalType": "uint256",
          "name": "tokenId",
          "type": "uint256"
        }
      ],
      "name": "approve",
      "outputs": [],
      "stateMutability": "nonpayable",
      "type": "function"
    },
    {
      "inputs": [
        {
          "internalType": "address",
          "name": "owner",
          "type": "address"
        }
      ],
      "name": "balanceOf",
      "outputs": [
        {
          "internalType": "uint256",
          "name": "",
          "type": "uint256"
        }
      ],
      "stateMutability": "view",
      "type": "function",
      "constant": true
    },
    {
      "inputs": [
        {
          "internalType": "uint256",
          "name": "tokenId",
          "type": "uint256"
        }
      ],
      "name": "getApproved",
      "outputs": [
        {
          "internalType": "address",
          "name": "",
          "type": "address"
        }
      ],
      "stateMutability": "view",
      "type": "function",
      "constant": true
    },
    {
      "inputs": [
        {
          "internalType": "address",
          "name": "owner",
          "type": "address"
        },
        {
          "internalType": "address",
          "name": "operator",
          "type": "address"
        }
      ],
      "name": "isApprovedForAll",
      "outputs": [
        {
          "internalType": "bool",
          "name": "",
          "type": "bool"
        }
      ],
      "stateMutability": "view",
      "type": "function",
      "constant": true
    },
    {
      "inputs": [],
      "name": "name",
      "outputs": [
        {
          "internalType": "string",
          "name": "",
          "type": "string"
        }
      ],
      "stateMutability": "view",
      "type": "function",
      "constant": true
    },
    {
      "inputs": [],
      "name": "owner",
      "outputs": [
        {
          "internalType": "address",
          "name": "",
          "type": "address"
        }
      ],
      "stateMutability": "view",
      "type": "function",
      "constant": true
    },
    {
      "inputs": [
        {
          "internalType": "uint256",
          "name": "tokenId",
          "type": "uint256"
        }
      ],
      "name": "ownerOf",
      "outputs": [
        {
          "internalType": "address",
          "name": "",
          "type": "address"
        }
      ],
      "stateMutability": "view",
      "type": "function",
      "constant": true
    },
    {
      "inputs": [],
      "name": "renounceOwnership",
      "outputs": [],
      "stateMutability": "nonpayable",
      "type": "function"
    },
    {
      "inputs": [
        {
          "internalType": "address",
          "name": "from",
          "type": "address"
        },
        {
          "internalType": "address",
          "name": "to",
          "type": "address"
        },
        {
          "internalType": "uint256",
          "name": "tokenId",
          "type": "uint256"
        }
      ],
      "name": "safeTransferFrom",
      "outputs": [],
      "stateMutability": "nonpayable",
      "type": "function"
    },
    {
      "inputs": [
        {
          "internalType": "address",
          "name": "from",
          "type": "address"
        },
        {
          "internalType": "address",
          "name": "to",
          "type": "address"
        },
        {
          "internalType": "uint256",
          "name": "tokenId",
          "type": "uint256"
        },
        {
          "internalType": "bytes",
          "name": "data",
          "type": "bytes"
        }
      ],
      "name": "safeTransferFrom",
      "outputs": [],
      "stateMutability": "nonpayable",
      "type": "function"
    },
    {
      "inputs": [
        {
          "internalType": "address",
          "name": "operator",
          "type": "address"
        },
        {
          "internalType": "bool",
          "name": "approved",
          "type": "bool"
        }
      ],
      "name": "setApprovalForAll",
      "outputs": [],
      "stateMutability": "nonpayable",
      "type": "function"
    },
    {
      "inputs": [
        {
          "internalType": "bytes4",
          "name": "interfaceId",
          "type": "bytes4"
        }
      ],
      "name": "supportsInterface",
      "outputs": [
        {
          "internalType": "bool",
          "name": "",
          "type": "bool"
        }
      ],
      "stateMutability": "view",
      "type": "function",
      "constant": true
    },
    {
      "inputs": [],
      "name": "symbol",
      "outputs": [
        {
          "internalType": "string",
          "name": "",
          "type": "string"
        }
      ],
      "stateMutability": "view",
      "type": "function",
      "constant": true
    },
    {
      "inputs": [
        {
          "internalType": "address",
          "name": "from",
          "type": "address"
        },
        {
          "internalType": "address",
          "name": "to",
          "type": "address"
        },
        {
          "internalType": "uint256",
          "name": "tokenId",
          "type": "uint256"
        }
      ],
      "name": "transferFrom",
      "outputs": [],
      "stateMutability": "nonpayable",
      "type": "function"
    },
    {
      "inputs": [
        {
          "internalType": "address",
          "name": "newOwner",
          "type": "address"
        }
      ],
      "name": "transferOwnership",
      "outputs": [],
      "stateMutability": "nonpayable",
      "type": "function"
    },
    {
      "stateMutability": "payable",
      "type": "receive",
      "payable": true
    },
    {
      "inputs": [
        {
          "internalType": "address",
          "name": "playerId",
          "type": "address"
        }
      ],
      "name": "getPlayer",
      "outputs": [
        {
          "components": [
            {
              "internalType": "string",
              "name": "name",
              "type": "string"
            },
            {
              "internalType": "uint256",
              "name": "points",
              "type": "uint256"
            },
            {
              "internalType": "uint256",
              "name": "tokenId",
              "type": "uint256"
            },
            {
              "internalType": "bool",
              "name": "created",
              "type": "bool"
            }
          ],
          "internalType": "struct RockPaperScissorsInterop.Player",
          "name": "",
          "type": "tuple"
        }
      ],
      "stateMutability": "view",
      "type": "function",
      "constant": true
    },
    {
      "inputs": [
        {
          "internalType": "address",
          "name": "playerId",
          "type": "address"
        }
      ],
      "name": "upgradePlayer",
      "outputs": [],
      "stateMutability": "nonpayable",
      "type": "function"
    },
    {
      "inputs": [
        {
          "internalType": "address",
          "name": "playerId",
          "type": "address"
        }
      ],
      "name": "downgradePlayer",
      "outputs": [],
      "stateMutability": "nonpayable",
      "type": "function"
    },
    {
      "inputs": [
        {
          "internalType": "uint64",
          "name": "chainSelector",
          "type": "uint64"
        }
      ],
      "name": "transferTo",
      "outputs": [],
      "stateMutability": "payable",
      "type": "function",
      "payable": true
    },
    {
      "inputs": [
        {
          "internalType": "uint64",
          "name": "",
          "type": "uint64"
        },
        {
          "internalType": "address",
          "name": "",
          "type": "address"
        },
        {
          "internalType": "address",
          "name": "playerId",
          "type": "address"
        },
        {
          "internalType": "uint256",
          "name": "tokenId",
          "type": "uint256"
        },
        {
          "internalType": "string",
          "name": "uri",
          "type": "string"
        },
        {
          "internalType": "bytes",
          "name": "data",
          "type": "bytes"
        }
      ],
      "name": "_receiveFrom",
      "outputs": [],
      "stateMutability": "nonpayable",
      "type": "function"
    },
    {
      "inputs": [
        {
          "internalType": "address",
          "name": "playerId",
          "type": "address"
        },
        {
          "internalType": "string",
          "name": "uri",
          "type": "string"
        }
      ],
      "name": "_receiveUri",
      "outputs": [],
      "stateMutability": "nonpayable",
      "type": "function"
    },
    {
      "inputs": [
        {
          "internalType": "uint256",
          "name": "tokenId",
          "type": "uint256"
        }
      ],
      "name": "tokenURI",
      "outputs": [
        {
          "internalType": "string",
          "name": "",
          "type": "string"
        }
      ],
      "stateMutability": "view",
      "type": "function",
      "constant": true
    }
  ],
  "bytecode": "0x60806040523480156200001157600080fd5b5060405162004b3938038062004b39833981810160405281019062000037919062000329565b6040518060400160405280601181526020017f526f636b506170657253636973736f72730000000000000000000000000000008152506040518060400160405280600381526020017f52505300000000000000000000000000000000000000000000000000000000008152508160009081620000b49190620005ea565b508060019081620000c69190620005ea565b505050620000e9620000dd620001f160201b60201c565b620001f960201b60201c565b81600a60006101000a81548173ffffffffffffffffffffffffffffffffffffffff021916908373ffffffffffffffffffffffffffffffffffffffff160217905550600a60009054906101000a900473ffffffffffffffffffffffffffffffffffffffff1673ffffffffffffffffffffffffffffffffffffffff1663afd21cfe67ccf0a31a221f3c9b60405180602001604052808573ffffffffffffffffffffffffffffffffffffffff168152506040518363ffffffff1660e01b8152600401620001b592919062000725565b600060405180830381600087803b158015620001d057600080fd5b505af1158015620001e5573d6000803e3d6000fd5b50505050505062000752565b600033905090565b6000600660009054906101000a900473ffffffffffffffffffffffffffffffffffffffff16905081600660006101000a81548173ffffffffffffffffffffffffffffffffffffffff021916908373ffffffffffffffffffffffffffffffffffffffff1602179055508173ffffffffffffffffffffffffffffffffffffffff168173ffffffffffffffffffffffffffffffffffffffff167f8be0079c531659141344cd1fd0a4f28419497f9722a3daafe3b4186f6b6457e060405160405180910390a35050565b600080fd5b600073ffffffffffffffffffffffffffffffffffffffff82169050919050565b6000620002f182620002c4565b9050919050565b6200030381620002e4565b81146200030f57600080fd5b50565b6000815190506200032381620002f8565b92915050565b60008060408385031215620003435762000342620002bf565b5b6000620003538582860162000312565b9250506020620003668582860162000312565b9150509250929050565b600081519050919050565b7f4e487b7100000000000000000000000000000000000000000000000000000000600052604160045260246000fd5b7f4e487b7100000000000000000000000000000000000000000000000000000000600052602260045260246000fd5b60006002820490506001821680620003f257607f821691505b602082108103620004085762000407620003aa565b5b50919050565b60008190508160005260206000209050919050565b60006020601f8301049050919050565b600082821b905092915050565b600060088302620004727fffffffffffffffffffffffffffffffffffffffffffffffffffffffffffffffff8262000433565b6200047e868362000433565b95508019841693508086168417925050509392505050565b6000819050919050565b6000819050919050565b6000620004cb620004c5620004bf8462000496565b620004a0565b62000496565b9050919050565b6000819050919050565b620004e783620004aa565b620004ff620004f682620004d2565b84845462000440565b825550505050565b600090565b6200051662000507565b62000523818484620004dc565b505050565b5b818110156200054b576200053f6000826200050c565b60018101905062000529565b5050565b601f8211156200059a5762000564816200040e565b6200056f8462000423565b810160208510156200057f578190505b620005976200058e8562000423565b83018262000528565b50505b505050565b600082821c905092915050565b6000620005bf600019846008026200059f565b1980831691505092915050565b6000620005da8383620005ac565b9150826002028217905092915050565b620005f58262000370565b67ffffffffffffffff8111156200061157620006106200037b565b5b6200061d8254620003d9565b6200062a8282856200054f565b600060209050601f8311600181146200066257600084156200064d578287015190505b620006598582620005cc565b865550620006c9565b601f19841662000672866200040e565b60005b828110156200069c5784890151825560018201915060208501945060208101905062000675565b86831015620006bc5784890151620006b8601f891682620005ac565b8355505b6001600288020188555050505b505050505050565b600067ffffffffffffffff82169050919050565b620006f081620006d1565b82525050565b6200070181620002e4565b82525050565b6020820160008201516200071f6000850182620006f6565b50505050565b60006040820190506200073c6000830185620006e5565b6200074b602083018462000707565b9392505050565b6143d780620007626000396000f3fe6080604052600436106101445760003560e01c8063715018a6116100b6578063a22cb4651161006f578063a22cb46514610463578063af3ef62e1461048c578063b88d4fde146104a8578063c87b56dd146104d1578063e985e9c51461050e578063f2fde38b1461054b5761014b565b8063715018a6146103795780638b8ff358146103905780638da5cb5b146103bb5780638f9c3956146103e657806395d89b411461040f578063a06422a71461043a5761014b565b806340f873921161010857806340f873921461024757806342842e0e146102705780635c12cd4b146102995780636352211e146102d65780636d4195fb1461031357806370a082311461033c5761014b565b806301ffc9a71461015057806306fdde031461018d578063081812fc146101b8578063095ea7b3146101f557806323b872dd1461021e5761014b565b3661014b57005b600080fd5b34801561015c57600080fd5b5061017760048036038101906101729190612b65565b610574565b6040516101849190612bad565b60405180910390f35b34801561019957600080fd5b506101a2610656565b6040516101af9190612c58565b60405180910390f35b3480156101c457600080fd5b506101df60048036038101906101da9190612cb0565b6106e8565b6040516101ec9190612d1e565b60405180910390f35b34801561020157600080fd5b5061021c60048036038101906102179190612d65565b61072e565b005b34801561022a57600080fd5b5061024560048036038101906102409190612da5565b610845565b005b34801561025357600080fd5b5061026e60048036038101906102699190612df8565b6108a5565b005b34801561027c57600080fd5b5061029760048036038101906102929190612da5565b610ba1565b005b3480156102a557600080fd5b506102c060048036038101906102bb9190612df8565b610bc1565b6040516102cd9190612ef0565b60405180910390f35b3480156102e257600080fd5b506102fd60048036038101906102f89190612cb0565b610cdb565b60405161030a9190612d1e565b60405180910390f35b34801561031f57600080fd5b5061033a60048036038101906103359190613128565b610d61565b005b34801561034857600080fd5b50610363600480360381019061035e9190612df8565b610eea565b60405161037091906131fc565b60405180910390f35b34801561038557600080fd5b5061038e610fa1565b005b34801561039c57600080fd5b506103a5610fb5565b6040516103b291906131fc565b60405180910390f35b3480156103c757600080fd5b506103d0610fba565b6040516103dd9190612d1e565b60405180910390f35b3480156103f257600080fd5b5061040d60048036038101906104089190613217565b610fe4565b005b34801561041b57600080fd5b5061042461104b565b6040516104319190612c58565b60405180910390f35b34801561044657600080fd5b50610461600480360381019061045c9190612df8565b6110dd565b005b34801561046f57600080fd5b5061048a6004803603810190610485919061329f565b611391565b005b6104a660048036038101906104a191906132df565b6113a7565b005b3480156104b457600080fd5b506104cf60048036038101906104ca919061330c565b611727565b005b3480156104dd57600080fd5b506104f860048036038101906104f39190612cb0565b611789565b6040516105059190612c58565b60405180910390f35b34801561051a57600080fd5b506105356004803603810190610530919061338f565b61182e565b6040516105429190612bad565b60405180910390f35b34801561055757600080fd5b50610572600480360381019061056d9190612df8565b6118c2565b005b60007f80ac58cd000000000000000000000000000000000000000000000000000000007bffffffffffffffffffffffffffffffffffffffffffffffffffffffff1916827bffffffffffffffffffffffffffffffffffffffffffffffffffffffff1916148061063f57507f5b5e139f000000000000000000000000000000000000000000000000000000007bffffffffffffffffffffffffffffffffffffffffffffffffffffffff1916827bffffffffffffffffffffffffffffffffffffffffffffffffffffffff1916145b8061064f575061064e82611945565b5b9050919050565b606060008054610665906133fe565b80601f0160208091040260200160405190810160405280929190818152602001828054610691906133fe565b80156106de5780601f106106b3576101008083540402835291602001916106de565b820191906000526020600020905b8154815290600101906020018083116106c157829003601f168201915b5050505050905090565b60006106f3826119af565b6004600083815260200190815260200160002060009054906101000a900473ffffffffffffffffffffffffffffffffffffffff169050919050565b600061073982610cdb565b90508073ffffffffffffffffffffffffffffffffffffffff168373ffffffffffffffffffffffffffffffffffffffff16036107a9576040517f08c379a00000000000000000000000000000000000000000000000000000000081526004016107a0906134a1565b60405180910390fd5b8073ffffffffffffffffffffffffffffffffffffffff166107c86119fa565b73ffffffffffffffffffffffffffffffffffffffff1614806107f757506107f6816107f16119fa565b61182e565b5b610836576040517f08c379a000000000000000000000000000000000000000000000000000000000815260040161082d90613533565b60405180910390fd5b6108408383611a02565b505050565b6108566108506119fa565b82611abb565b610895576040517f08c379a000000000000000000000000000000000000000000000000000000000815260040161088c906135c5565b60405180910390fd5b6108a0838383611b50565b505050565b6108ad611cad565b6000600b60008373ffffffffffffffffffffffffffffffffffffffff1673ffffffffffffffffffffffffffffffffffffffff16815260200190815260200160002090508060030160009054906101000a900460ff16610941576040517f08c379a000000000000000000000000000000000000000000000000000000000815260040161093890613631565b60405180910390fd5b600181600101541015610989576040517f08c379a00000000000000000000000000000000000000000000000000000000081526004016109809061369d565b60405180910390fd5b6001816001015461099a91906136ec565b81600101819055506000601467ffffffffffffffff8111156109bf576109be612f5c565b5b6040519080825280602002602001820160405280156109f257816020015b60608152602001906001900390816109dd5790505b509050816000018054610a04906133fe565b80601f0160208091040260200160405190810160405280929190818152602001828054610a30906133fe565b8015610a7d5780601f10610a5257610100808354040283529160200191610a7d565b820191906000526020600020905b815481529060010190602001808311610a6057829003601f168201915b505050505081600081518110610a9657610a95613720565b5b6020026020010181905250610aae8260010154611d2b565b81600181518110610ac257610ac1613720565b5b602002602001018190525060006040518060400160405280600f81526020017f246e616d65242024706f696e74732400000000000000000000000000000000008152509050600a60009054906101000a900473ffffffffffffffffffffffffffffffffffffffff1673ffffffffffffffffffffffffffffffffffffffff1663eee6e57385848460016040518563ffffffff1660e01b8152600401610b69949392919061382d565b600060405180830381600087803b158015610b8357600080fd5b505af1158015610b97573d6000803e3d6000fd5b5050505050505050565b610bbc83838360405180602001604052806000815250611727565b505050565b610bc9612a72565b600b60008373ffffffffffffffffffffffffffffffffffffffff1673ffffffffffffffffffffffffffffffffffffffff168152602001908152602001600020604051806080016040529081600082018054610c23906133fe565b80601f0160208091040260200160405190810160405280929190818152602001828054610c4f906133fe565b8015610c9c5780601f10610c7157610100808354040283529160200191610c9c565b820191906000526020600020905b815481529060010190602001808311610c7f57829003601f168201915b5050505050815260200160018201548152602001600282015481526020016003820160009054906101000a900460ff1615151515815250509050919050565b600080610ce783611df9565b9050600073ffffffffffffffffffffffffffffffffffffffff168173ffffffffffffffffffffffffffffffffffffffff1603610d58576040517f08c379a0000000000000000000000000000000000000000000000000000000008152600401610d4f906138cc565b60405180910390fd5b80915050919050565b60008082806020019051810190610d789190613971565b91509150610d868686611e36565b83600860008781526020019081526020016000209081610da69190613b79565b5081600b60008873ffffffffffffffffffffffffffffffffffffffff1673ffffffffffffffffffffffffffffffffffffffff1681526020019081526020016000206000019081610df69190613b79565b5080600b60008873ffffffffffffffffffffffffffffffffffffffff1673ffffffffffffffffffffffffffffffffffffffff168152602001908152602001600020600101819055506001600b60008873ffffffffffffffffffffffffffffffffffffffff1673ffffffffffffffffffffffffffffffffffffffff16815260200190815260200160002060030160006101000a81548160ff02191690831515021790555084600b60008873ffffffffffffffffffffffffffffffffffffffff1673ffffffffffffffffffffffffffffffffffffffff168152602001908152602001600020600201819055505050505050505050565b60008073ffffffffffffffffffffffffffffffffffffffff168273ffffffffffffffffffffffffffffffffffffffff1603610f5a576040517f08c379a0000000000000000000000000000000000000000000000000000000008152600401610f5190613cbd565b60405180910390fd5b600360008373ffffffffffffffffffffffffffffffffffffffff1673ffffffffffffffffffffffffffffffffffffffff168152602001908152602001600020549050919050565b610fa9611cad565b610fb36000612053565b565b601481565b6000600660009054906101000a900473ffffffffffffffffffffffffffffffffffffffff16905090565b8060086000600b60008673ffffffffffffffffffffffffffffffffffffffff1673ffffffffffffffffffffffffffffffffffffffff16815260200190815260200160002060020154815260200190815260200160002090816110469190613b79565b505050565b60606001805461105a906133fe565b80601f0160208091040260200160405190810160405280929190818152602001828054611086906133fe565b80156110d35780601f106110a8576101008083540402835291602001916110d3565b820191906000526020600020905b8154815290600101906020018083116110b657829003601f168201915b5050505050905090565b6110e5611cad565b6000600b60008373ffffffffffffffffffffffffffffffffffffffff1673ffffffffffffffffffffffffffffffffffffffff16815260200190815260200160002090508060030160009054906101000a900460ff16611179576040517f08c379a000000000000000000000000000000000000000000000000000000000815260040161117090613631565b60405180910390fd5b6005816001015461118a9190613cdd565b81600101819055506000601467ffffffffffffffff8111156111af576111ae612f5c565b5b6040519080825280602002602001820160405280156111e257816020015b60608152602001906001900390816111cd5790505b5090508160000180546111f4906133fe565b80601f0160208091040260200160405190810160405280929190818152602001828054611220906133fe565b801561126d5780601f106112425761010080835404028352916020019161126d565b820191906000526020600020905b81548152906001019060200180831161125057829003601f168201915b50505050508160008151811061128657611285613720565b5b602002602001018190525061129e8260010154611d2b565b816001815181106112b2576112b1613720565b5b602002602001018190525060006040518060400160405280600f81526020017f246e616d65242024706f696e74732400000000000000000000000000000000008152509050600a60009054906101000a900473ffffffffffffffffffffffffffffffffffffffff1673ffffffffffffffffffffffffffffffffffffffff1663eee6e57385848460006040518563ffffffff1660e01b8152600401611359949392919061382d565b600060405180830381600087803b15801561137357600080fd5b505af1158015611387573d6000803e3d6000fd5b5050505050505050565b6113a361139c6119fa565b8383612119565b5050565b60006113b16119fa565b90506000600b60008373ffffffffffffffffffffffffffffffffffffffff1673ffffffffffffffffffffffffffffffffffffffff16815260200190815260200160002060405180608001604052908160008201805461140f906133fe565b80601f016020809104026020016040519081016040528092919081815260200182805461143b906133fe565b80156114885780601f1061145d57610100808354040283529160200191611488565b820191906000526020600020905b81548152906001019060200180831161146b57829003601f168201915b5050505050815260200160018201548152602001600282015481526020016003820160009054906101000a900460ff16151515158152505090508060600151611506576040517f08c379a00000000000000000000000000000000000000000000000000000000081526004016114fd90613d5d565b60405180910390fd5b600030905060006008600084604001518152602001908152602001600020805461152f906133fe565b80601f016020809104026020016040519081016040528092919081815260200182805461155b906133fe565b80156115a85780601f1061157d576101008083540402835291602001916115a8565b820191906000526020600020905b81548152906001019060200180831161158b57829003601f168201915b505050505090506000836000015184602001516040516020016115cc929190613d7d565b6040516020818303038152906040529050600a60009054906101000a900473ffffffffffffffffffffffffffffffffffffffff1673ffffffffffffffffffffffffffffffffffffffff16638d6dc0eb34888689896040015188886040518863ffffffff1660e01b815260040161164796959493929190613e11565b6000604051808303818588803b15801561166057600080fd5b505af1158015611674573d6000803e3d6000fd5b50505050506116868460400151612285565b600860008560400151815260200190815260200160002060006116a99190612a9c565b600b60008673ffffffffffffffffffffffffffffffffffffffff1673ffffffffffffffffffffffffffffffffffffffff168152602001908152602001600020600080820160006116f99190612a9c565b600182016000905560028201600090556003820160006101000a81549060ff02191690555050505050505050565b6117386117326119fa565b83611abb565b611777576040517f08c379a000000000000000000000000000000000000000000000000000000000815260040161176e906135c5565b60405180910390fd5b611783848484846123d3565b50505050565b60606008600083815260200190815260200160002080546117a9906133fe565b80601f01602080910402602001604051908101604052809291908181526020018280546117d5906133fe565b80156118225780601f106117f757610100808354040283529160200191611822565b820191906000526020600020905b81548152906001019060200180831161180557829003601f168201915b50505050509050919050565b6000600560008473ffffffffffffffffffffffffffffffffffffffff1673ffffffffffffffffffffffffffffffffffffffff16815260200190815260200160002060008373ffffffffffffffffffffffffffffffffffffffff1673ffffffffffffffffffffffffffffffffffffffff16815260200190815260200160002060009054906101000a900460ff16905092915050565b6118ca611cad565b600073ffffffffffffffffffffffffffffffffffffffff168173ffffffffffffffffffffffffffffffffffffffff1603611939576040517f08c379a000000000000000000000000000000000000000000000000000000000815260040161193090613ef2565b60405180910390fd5b61194281612053565b50565b60007f01ffc9a7000000000000000000000000000000000000000000000000000000007bffffffffffffffffffffffffffffffffffffffffffffffffffffffff1916827bffffffffffffffffffffffffffffffffffffffffffffffffffffffff1916149050919050565b6119b88161242f565b6119f7576040517f08c379a00000000000000000000000000000000000000000000000000000000081526004016119ee906138cc565b60405180910390fd5b50565b600033905090565b816004600083815260200190815260200160002060006101000a81548173ffffffffffffffffffffffffffffffffffffffff021916908373ffffffffffffffffffffffffffffffffffffffff160217905550808273ffffffffffffffffffffffffffffffffffffffff16611a7583610cdb565b73ffffffffffffffffffffffffffffffffffffffff167f8c5be1e5ebec7d5bd14f71427d1e84f3dd0314c0f7b2291e5b200ac8c7c3b92560405160405180910390a45050565b600080611ac783610cdb565b90508073ffffffffffffffffffffffffffffffffffffffff168473ffffffffffffffffffffffffffffffffffffffff161480611b095750611b08818561182e565b5b80611b4757508373ffffffffffffffffffffffffffffffffffffffff16611b2f846106e8565b73ffffffffffffffffffffffffffffffffffffffff16145b91505092915050565b6000600b60008473ffffffffffffffffffffffffffffffffffffffff1673ffffffffffffffffffffffffffffffffffffffff16815260200190815260200160002090508060030160009054906101000a900460ff1615611be5576040517f08c379a0000000000000000000000000000000000000000000000000000000008152600401611bdc90613f5e565b60405180910390fd5b600b60008573ffffffffffffffffffffffffffffffffffffffff1673ffffffffffffffffffffffffffffffffffffffff1681526020019081526020016000209050600b60008573ffffffffffffffffffffffffffffffffffffffff1673ffffffffffffffffffffffffffffffffffffffff16815260200190815260200160002060008082016000611c769190612a9c565b600182016000905560028201600090556003820160006101000a81549060ff02191690555050611ca7848484612470565b50505050565b611cb56119fa565b73ffffffffffffffffffffffffffffffffffffffff16611cd3610fba565b73ffffffffffffffffffffffffffffffffffffffff1614611d29576040517f08c379a0000000000000000000000000000000000000000000000000000000008152600401611d2090613fca565b60405180910390fd5b565b606060006001611d3a84612769565b01905060008167ffffffffffffffff811115611d5957611d58612f5c565b5b6040519080825280601f01601f191660200182016040528015611d8b5781602001600182028036833780820191505090505b509050600082602001820190505b600115611dee578080600190039150507f3031323334353637383961626364656600000000000000000000000000000000600a86061a8153600a8581611de257611de1613fea565b5b04945060008503611d99575b819350505050919050565b60006002600083815260200190815260200160002060009054906101000a900473ffffffffffffffffffffffffffffffffffffffff169050919050565b600073ffffffffffffffffffffffffffffffffffffffff168273ffffffffffffffffffffffffffffffffffffffff1603611ea5576040517f08c379a0000000000000000000000000000000000000000000000000000000008152600401611e9c90614065565b60405180910390fd5b611eae8161242f565b15611eee576040517f08c379a0000000000000000000000000000000000000000000000000000000008152600401611ee5906140d1565b60405180910390fd5b611efc6000838360016128bc565b611f058161242f565b15611f45576040517f08c379a0000000000000000000000000000000000000000000000000000000008152600401611f3c906140d1565b60405180910390fd5b6001600360008473ffffffffffffffffffffffffffffffffffffffff1673ffffffffffffffffffffffffffffffffffffffff16815260200190815260200160002060008282540192505081905550816002600083815260200190815260200160002060006101000a81548173ffffffffffffffffffffffffffffffffffffffff021916908373ffffffffffffffffffffffffffffffffffffffff160217905550808273ffffffffffffffffffffffffffffffffffffffff16600073ffffffffffffffffffffffffffffffffffffffff167fddf252ad1be2c89b69c2b068fc378daa952ba7f163c4a11628f55a4df523b3ef60405160405180910390a461204f6000838360016128c2565b5050565b6000600660009054906101000a900473ffffffffffffffffffffffffffffffffffffffff16905081600660006101000a81548173ffffffffffffffffffffffffffffffffffffffff021916908373ffffffffffffffffffffffffffffffffffffffff1602179055508173ffffffffffffffffffffffffffffffffffffffff168173ffffffffffffffffffffffffffffffffffffffff167f8be0079c531659141344cd1fd0a4f28419497f9722a3daafe3b4186f6b6457e060405160405180910390a35050565b8173ffffffffffffffffffffffffffffffffffffffff168373ffffffffffffffffffffffffffffffffffffffff1603612187576040517f08c379a000000000000000000000000000000000000000000000000000000000815260040161217e9061413d565b60405180910390fd5b80600560008573ffffffffffffffffffffffffffffffffffffffff1673ffffffffffffffffffffffffffffffffffffffff16815260200190815260200160002060008473ffffffffffffffffffffffffffffffffffffffff1673ffffffffffffffffffffffffffffffffffffffff16815260200190815260200160002060006101000a81548160ff0219169083151502179055508173ffffffffffffffffffffffffffffffffffffffff168373ffffffffffffffffffffffffffffffffffffffff167f17307eab39ab6107e8899845ad3d59bd9653f200f220920489ca2b5937696c31836040516122789190612bad565b60405180910390a3505050565b600061229082610cdb565b90506122a08160008460016128bc565b6122a982610cdb565b90506004600083815260200190815260200160002060006101000a81549073ffffffffffffffffffffffffffffffffffffffff02191690556001600360008373ffffffffffffffffffffffffffffffffffffffff1673ffffffffffffffffffffffffffffffffffffffff168152602001908152602001600020600082825403925050819055506002600083815260200190815260200160002060006101000a81549073ffffffffffffffffffffffffffffffffffffffff021916905581600073ffffffffffffffffffffffffffffffffffffffff168273ffffffffffffffffffffffffffffffffffffffff167fddf252ad1be2c89b69c2b068fc378daa952ba7f163c4a11628f55a4df523b3ef60405160405180910390a46123cf8160008460016128c2565b5050565b6123de848484611b50565b6123ea848484846128c8565b612429576040517f08c379a0000000000000000000000000000000000000000000000000000000008152600401612420906141cf565b60405180910390fd5b50505050565b60008073ffffffffffffffffffffffffffffffffffffffff1661245183611df9565b73ffffffffffffffffffffffffffffffffffffffff1614159050919050565b8273ffffffffffffffffffffffffffffffffffffffff1661249082610cdb565b73ffffffffffffffffffffffffffffffffffffffff16146124e6576040517f08c379a00000000000000000000000000000000000000000000000000000000081526004016124dd90614261565b60405180910390fd5b600073ffffffffffffffffffffffffffffffffffffffff168273ffffffffffffffffffffffffffffffffffffffff1603612555576040517f08c379a000000000000000000000000000000000000000000000000000000000815260040161254c906142f3565b60405180910390fd5b61256283838360016128bc565b8273ffffffffffffffffffffffffffffffffffffffff1661258282610cdb565b73ffffffffffffffffffffffffffffffffffffffff16146125d8576040517f08c379a00000000000000000000000000000000000000000000000000000000081526004016125cf90614261565b60405180910390fd5b6004600082815260200190815260200160002060006101000a81549073ffffffffffffffffffffffffffffffffffffffff02191690556001600360008573ffffffffffffffffffffffffffffffffffffffff1673ffffffffffffffffffffffffffffffffffffffff168152602001908152602001600020600082825403925050819055506001600360008473ffffffffffffffffffffffffffffffffffffffff1673ffffffffffffffffffffffffffffffffffffffff16815260200190815260200160002060008282540192505081905550816002600083815260200190815260200160002060006101000a81548173ffffffffffffffffffffffffffffffffffffffff021916908373ffffffffffffffffffffffffffffffffffffffff160217905550808273ffffffffffffffffffffffffffffffffffffffff168473ffffffffffffffffffffffffffffffffffffffff167fddf252ad1be2c89b69c2b068fc378daa952ba7f163c4a11628f55a4df523b3ef60405160405180910390a461276483838360016128c2565b505050565b600080600090507a184f03e93ff9f4daa797ed6e38ed64bf6a1f01000000000000000083106127c7577a184f03e93ff9f4daa797ed6e38ed64bf6a1f01000000000000000083816127bd576127bc613fea565b5b0492506040810190505b6d04ee2d6d415b85acef81000000008310612804576d04ee2d6d415b85acef810000000083816127fa576127f9613fea565b5b0492506020810190505b662386f26fc10000831061283357662386f26fc10000838161282957612828613fea565b5b0492506010810190505b6305f5e100831061285c576305f5e100838161285257612851613fea565b5b0492506008810190505b612710831061288157612710838161287757612876613fea565b5b0492506004810190505b606483106128a4576064838161289a57612899613fea565b5b0492506002810190505b600a83106128b3576001810190505b80915050919050565b50505050565b50505050565b60006128e98473ffffffffffffffffffffffffffffffffffffffff16612a4f565b15612a42578373ffffffffffffffffffffffffffffffffffffffff1663150b7a026129126119fa565b8786866040518563ffffffff1660e01b81526004016129349493929190614313565b6020604051808303816000875af192505050801561297057506040513d601f19601f8201168201806040525081019061296d9190614374565b60015b6129f2573d80600081146129a0576040519150601f19603f3d011682016040523d82523d6000602084013e6129a5565b606091505b5060008151036129ea576040517f08c379a00000000000000000000000000000000000000000000000000000000081526004016129e1906141cf565b60405180910390fd5b805181602001fd5b63150b7a0260e01b7bffffffffffffffffffffffffffffffffffffffffffffffffffffffff1916817bffffffffffffffffffffffffffffffffffffffffffffffffffffffff191614915050612a47565b600190505b949350505050565b6000808273ffffffffffffffffffffffffffffffffffffffff163b119050919050565b60405180608001604052806060815260200160008152602001600081526020016000151581525090565b508054612aa8906133fe565b6000825580601f10612aba5750612ad9565b601f016020900490600052602060002090810190612ad89190612adc565b5b50565b5b80821115612af5576000816000905550600101612add565b5090565b6000604051905090565b600080fd5b600080fd5b60007fffffffff0000000000000000000000000000000000000000000000000000000082169050919050565b612b4281612b0d565b8114612b4d57600080fd5b50565b600081359050612b5f81612b39565b92915050565b600060208284031215612b7b57612b7a612b03565b5b6000612b8984828501612b50565b91505092915050565b60008115159050919050565b612ba781612b92565b82525050565b6000602082019050612bc26000830184612b9e565b92915050565b600081519050919050565b600082825260208201905092915050565b60005b83811015612c02578082015181840152602081019050612be7565b60008484015250505050565b6000601f19601f8301169050919050565b6000612c2a82612bc8565b612c348185612bd3565b9350612c44818560208601612be4565b612c4d81612c0e565b840191505092915050565b60006020820190508181036000830152612c728184612c1f565b905092915050565b6000819050919050565b612c8d81612c7a565b8114612c9857600080fd5b50565b600081359050612caa81612c84565b92915050565b600060208284031215612cc657612cc5612b03565b5b6000612cd484828501612c9b565b91505092915050565b600073ffffffffffffffffffffffffffffffffffffffff82169050919050565b6000612d0882612cdd565b9050919050565b612d1881612cfd565b82525050565b6000602082019050612d336000830184612d0f565b92915050565b612d4281612cfd565b8114612d4d57600080fd5b50565b600081359050612d5f81612d39565b92915050565b60008060408385031215612d7c57612d7b612b03565b5b6000612d8a85828601612d50565b9250506020612d9b85828601612c9b565b9150509250929050565b600080600060608486031215612dbe57612dbd612b03565b5b6000612dcc86828701612d50565b9350506020612ddd86828701612d50565b9250506040612dee86828701612c9b565b9150509250925092565b600060208284031215612e0e57612e0d612b03565b5b6000612e1c84828501612d50565b91505092915050565b600082825260208201905092915050565b6000612e4182612bc8565b612e4b8185612e25565b9350612e5b818560208601612be4565b612e6481612c0e565b840191505092915050565b612e7881612c7a565b82525050565b612e8781612b92565b82525050565b60006080830160008301518482036000860152612eaa8282612e36565b9150506020830151612ebf6020860182612e6f565b506040830151612ed26040860182612e6f565b506060830151612ee56060860182612e7e565b508091505092915050565b60006020820190508181036000830152612f0a8184612e8d565b905092915050565b600067ffffffffffffffff82169050919050565b612f2f81612f12565b8114612f3a57600080fd5b50565b600081359050612f4c81612f26565b92915050565b600080fd5b600080fd5b7f4e487b7100000000000000000000000000000000000000000000000000000000600052604160045260246000fd5b612f9482612c0e565b810181811067ffffffffffffffff82111715612fb357612fb2612f5c565b5b80604052505050565b6000612fc6612af9565b9050612fd28282612f8b565b919050565b600067ffffffffffffffff821115612ff257612ff1612f5c565b5b612ffb82612c0e565b9050602081019050919050565b82818337600083830152505050565b600061302a61302584612fd7565b612fbc565b90508281526020810184848401111561304657613045612f57565b5b613051848285613008565b509392505050565b600082601f83011261306e5761306d612f52565b5b813561307e848260208601613017565b91505092915050565b600067ffffffffffffffff8211156130a2576130a1612f5c565b5b6130ab82612c0e565b9050602081019050919050565b60006130cb6130c684613087565b612fbc565b9050828152602081018484840111156130e7576130e6612f57565b5b6130f2848285613008565b509392505050565b600082601f83011261310f5761310e612f52565b5b813561311f8482602086016130b8565b91505092915050565b60008060008060008060c0878903121561314557613144612b03565b5b600061315389828a01612f3d565b965050602061316489828a01612d50565b955050604061317589828a01612d50565b945050606061318689828a01612c9b565b935050608087013567ffffffffffffffff8111156131a7576131a6612b08565b5b6131b389828a01613059565b92505060a087013567ffffffffffffffff8111156131d4576131d3612b08565b5b6131e089828a016130fa565b9150509295509295509295565b6131f681612c7a565b82525050565b600060208201905061321160008301846131ed565b92915050565b6000806040838503121561322e5761322d612b03565b5b600061323c85828601612d50565b925050602083013567ffffffffffffffff81111561325d5761325c612b08565b5b61326985828601613059565b9150509250929050565b61327c81612b92565b811461328757600080fd5b50565b60008135905061329981613273565b92915050565b600080604083850312156132b6576132b5612b03565b5b60006132c485828601612d50565b92505060206132d58582860161328a565b9150509250929050565b6000602082840312156132f5576132f4612b03565b5b600061330384828501612f3d565b91505092915050565b6000806000806080858703121561332657613325612b03565b5b600061333487828801612d50565b945050602061334587828801612d50565b935050604061335687828801612c9b565b925050606085013567ffffffffffffffff81111561337757613376612b08565b5b613383878288016130fa565b91505092959194509250565b600080604083850312156133a6576133a5612b03565b5b60006133b485828601612d50565b92505060206133c585828601612d50565b9150509250929050565b7f4e487b7100000000000000000000000000000000000000000000000000000000600052602260045260246000fd5b6000600282049050600182168061341657607f821691505b602082108103613429576134286133cf565b5b50919050565b7f4552433732313a20617070726f76616c20746f2063757272656e74206f776e6560008201527f7200000000000000000000000000000000000000000000000000000000000000602082015250565b600061348b602183612bd3565b91506134968261342f565b604082019050919050565b600060208201905081810360008301526134ba8161347e565b9050919050565b7f4552433732313a20617070726f76652063616c6c6572206973206e6f7420746f60008201527f6b656e206f776e6572206f7220617070726f76656420666f7220616c6c000000602082015250565b600061351d603d83612bd3565b9150613528826134c1565b604082019050919050565b6000602082019050818103600083015261354c81613510565b9050919050565b7f4552433732313a2063616c6c6572206973206e6f7420746f6b656e206f776e6560008201527f72206f7220617070726f76656400000000000000000000000000000000000000602082015250565b60006135af602d83612bd3565b91506135ba82613553565b604082019050919050565b600060208201905081810360008301526135de816135a2565b9050919050565b7f437265617465207468697320706c617965722066697273740000000000000000600082015250565b600061361b601883612bd3565b9150613626826135e5565b602082019050919050565b6000602082019050818103600083015261364a8161360e565b9050919050565b7f416c7265616479206465666561746564203a2900000000000000000000000000600082015250565b6000613687601383612bd3565b915061369282613651565b602082019050919050565b600060208201905081810360008301526136b68161367a565b9050919050565b7f4e487b7100000000000000000000000000000000000000000000000000000000600052601160045260246000fd5b60006136f782612c7a565b915061370283612c7a565b925082820390508181111561371a576137196136bd565b5b92915050565b7f4e487b7100000000000000000000000000000000000000000000000000000000600052603260045260246000fd5b600081519050919050565b600082825260208201905092915050565b6000819050602082019050919050565b60006137878383612e36565b905092915050565b6000602082019050919050565b60006137a78261374f565b6137b1818561375a565b9350836020820285016137c38561376b565b8060005b858110156137ff57848403895281516137e0858261377b565b94506137eb8361378f565b925060208a019950506001810190506137c7565b50829750879550505050505092915050565b600060ff82169050919050565b61382781613811565b82525050565b60006080820190506138426000830187612d0f565b8181036020830152613854818661379c565b905081810360408301526138688185612c1f565b9050613877606083018461381e565b95945050505050565b7f4552433732313a20696e76616c696420746f6b656e2049440000000000000000600082015250565b60006138b6601883612bd3565b91506138c182613880565b602082019050919050565b600060208201905081810360008301526138e5816138a9565b9050919050565b60006138ff6138fa84612fd7565b612fbc565b90508281526020810184848401111561391b5761391a612f57565b5b613926848285612be4565b509392505050565b600082601f83011261394357613942612f52565b5b81516139538482602086016138ec565b91505092915050565b60008151905061396b81612c84565b92915050565b6000806040838503121561398857613987612b03565b5b600083015167ffffffffffffffff8111156139a6576139a5612b08565b5b6139b28582860161392e565b92505060206139c38582860161395c565b9150509250929050565b60008190508160005260206000209050919050565b60006020601f8301049050919050565b600082821b905092915050565b600060088302613a2f7fffffffffffffffffffffffffffffffffffffffffffffffffffffffffffffffff826139f2565b613a3986836139f2565b95508019841693508086168417925050509392505050565b6000819050919050565b6000613a76613a71613a6c84612c7a565b613a51565b612c7a565b9050919050565b6000819050919050565b613a9083613a5b565b613aa4613a9c82613a7d565b8484546139ff565b825550505050565b600090565b613ab9613aac565b613ac4818484613a87565b505050565b5b81811015613ae857613add600082613ab1565b600181019050613aca565b5050565b601f821115613b2d57613afe816139cd565b613b07846139e2565b81016020851015613b16578190505b613b2a613b22856139e2565b830182613ac9565b50505b505050565b600082821c905092915050565b6000613b5060001984600802613b32565b1980831691505092915050565b6000613b698383613b3f565b9150826002028217905092915050565b613b8282612bc8565b67ffffffffffffffff811115613b9b57613b9a612f5c565b5b613ba582546133fe565b613bb0828285613aec565b600060209050601f831160018114613be35760008415613bd1578287015190505b613bdb8582613b5d565b865550613c43565b601f198416613bf1866139cd565b60005b82811015613c1957848901518255600182019150602085019450602081019050613bf4565b86831015613c365784890151613c32601f891682613b3f565b8355505b6001600288020188555050505b505050505050565b7f4552433732313a2061646472657373207a65726f206973206e6f74206120766160008201527f6c6964206f776e65720000000000000000000000000000000000000000000000602082015250565b6000613ca7602983612bd3565b9150613cb282613c4b565b604082019050919050565b60006020820190508181036000830152613cd681613c9a565b9050919050565b6000613ce882612c7a565b9150613cf383612c7a565b9250828201905080821115613d0b57613d0a6136bd565b5b92915050565b7f506c6179657220646f6573206e6f742065786973747300000000000000000000600082015250565b6000613d47601683612bd3565b9150613d5282613d11565b602082019050919050565b60006020820190508181036000830152613d7681613d3a565b9050919050565b60006040820190508181036000830152613d978185612c1f565b9050613da660208301846131ed565b9392505050565b613db681612f12565b82525050565b600081519050919050565b600082825260208201905092915050565b6000613de382613dbc565b613ded8185613dc7565b9350613dfd818560208601612be4565b613e0681612c0e565b840191505092915050565b600060c082019050613e266000830189613dad565b613e336020830188612d0f565b613e406040830187612d0f565b613e4d60608301866131ed565b8181036080830152613e5f8185612c1f565b905081810360a0830152613e738184613dd8565b9050979650505050505050565b7f4f776e61626c653a206e6577206f776e657220697320746865207a65726f206160008201527f6464726573730000000000000000000000000000000000000000000000000000602082015250565b6000613edc602683612bd3565b9150613ee782613e80565b604082019050919050565b60006020820190508181036000830152613f0b81613ecf565b9050919050565b7f506c6179657220686173207468656972206f776e206163636f756e7400000000600082015250565b6000613f48601c83612bd3565b9150613f5382613f12565b602082019050919050565b60006020820190508181036000830152613f7781613f3b565b9050919050565b7f4f776e61626c653a2063616c6c6572206973206e6f7420746865206f776e6572600082015250565b6000613fb4602083612bd3565b9150613fbf82613f7e565b602082019050919050565b60006020820190508181036000830152613fe381613fa7565b9050919050565b7f4e487b7100000000000000000000000000000000000000000000000000000000600052601260045260246000fd5b7f4552433732313a206d696e7420746f20746865207a65726f2061646472657373600082015250565b600061404f602083612bd3565b915061405a82614019565b602082019050919050565b6000602082019050818103600083015261407e81614042565b9050919050565b7f4552433732313a20746f6b656e20616c7265616479206d696e74656400000000600082015250565b60006140bb601c83612bd3565b91506140c682614085565b602082019050919050565b600060208201905081810360008301526140ea816140ae565b9050919050565b7f4552433732313a20617070726f766520746f2063616c6c657200000000000000600082015250565b6000614127601983612bd3565b9150614132826140f1565b602082019050919050565b600060208201905081810360008301526141568161411a565b9050919050565b7f4552433732313a207472616e7366657220746f206e6f6e20455243373231526560008201527f63656976657220696d706c656d656e7465720000000000000000000000000000602082015250565b60006141b9603283612bd3565b91506141c48261415d565b604082019050919050565b600060208201905081810360008301526141e8816141ac565b9050919050565b7f4552433732313a207472616e736665722066726f6d20696e636f72726563742060008201527f6f776e6572000000000000000000000000000000000000000000000000000000602082015250565b600061424b602583612bd3565b9150614256826141ef565b604082019050919050565b6000602082019050818103600083015261427a8161423e565b9050919050565b7f4552433732313a207472616e7366657220746f20746865207a65726f2061646460008201527f7265737300000000000000000000000000000000000000000000000000000000602082015250565b60006142dd602483612bd3565b91506142e882614281565b604082019050919050565b6000602082019050818103600083015261430c816142d0565b9050919050565b60006080820190506143286000830187612d0f565b6143356020830186612d0f565b61434260408301856131ed565b81810360608301526143548184613dd8565b905095945050505050565b60008151905061436e81612b39565b92915050565b60006020828403121561438a57614389612b03565b5b60006143988482850161435f565b9150509291505056fea2646970667358221220fe1702445a625035c48fe3939b1de1d180fc535e3bf799a3928832e9dfce4d6364736f6c63430008130033",
  "immutableReferences": {},
  "source": "// SPDX-License-Identifier: MIT\r\npragma solidity ^0.8.19;\r\n\r\nimport {Params} from \"../libraries/Params.sol\";\r\nimport {IKanvasInterop} from \"../interfaces/IKanvasInterop.sol\";\r\nimport {IKanvasInteropGame} from \"../interfaces/IKanvasInteropGame.sol\";\r\n\r\nimport {Ownable} from \"@openzeppelin/contracts/access/Ownable.sol\";\r\nimport {ERC721} from \"@openzeppelin/contracts/token/ERC721/ERC721.sol\";\r\nimport {Strings} from \"@openzeppelin/contracts/utils/Strings.sol\";\r\n\r\ncontract RockPaperScissorsInterop is IKanvasInteropGame, ERC721, Ownable {\r\n    uint64 private constant AVAX_SELECTOR = 14767482510784806043;\r\n    uint256 public constant MAX_PROPERTIES_LEN = 20;\r\n\r\n    uint8 private constant WIN_NFT_TEMPLATE = 0;\r\n    uint8 private constant LOST_NFT_TEMPLATE = 1;\r\n\r\n    uint256 private _tokenId;\r\n\r\n    mapping(uint256 => string) private _tokenURIs;\r\n    mapping(address => uint256) private _playerNfts;\r\n\r\n    IKanvasInterop private kanvas;\r\n\r\n    struct Player {\r\n        string name;\r\n        uint256 points;\r\n        uint256 tokenId;\r\n        bool created;\r\n    }\r\n\r\n    receive() external payable {}\r\n\r\n    mapping(address => Player) private _players;\r\n\r\n    constructor(\r\n        address kanvasRouter,\r\n        address sourceGameId\r\n    ) ERC721(\"RockPaperScissors\", \"RPS\") IKanvasInteropGame() Ownable() {\r\n        kanvas = IKanvasInterop(kanvasRouter);\r\n        kanvas._createGame(\r\n            AVAX_SELECTOR,\r\n            Params.InteropGame({gameId: sourceGameId})\r\n        );\r\n    }\r\n\r\n    function _transfer(\r\n        address from,\r\n        address to,\r\n        uint256 tokenId\r\n    ) internal override {\r\n        Player storage newPlayer = _players[to];\r\n        // check if receiver has their own account\r\n        require(!newPlayer.created, \"Player has their own account\");\r\n\r\n        // create new player account\r\n        newPlayer = _players[from];\r\n\r\n        // delete sender accounts\r\n        delete _players[from];\r\n\r\n        super._transfer(from, to, tokenId);\r\n    }\r\n\r\n    // Retsrns the player struct\r\n    function getPlayer(address playerId) external view returns (Player memory) {\r\n        return _players[playerId];\r\n    }\r\n\r\n    /** Increase player points */\r\n    function upgradePlayer(address playerId) external onlyOwner {\r\n        Player storage player = _players[playerId];\r\n        require(player.created, \"Create this player first\");\r\n\r\n        player.points = player.points + 5;\r\n\r\n        string[] memory props = new string[](MAX_PROPERTIES_LEN);\r\n        props[0] = player.name;\r\n        props[1] = Strings.toString(player.points);\r\n\r\n        string memory fields = \"$name$ $points$\";\r\n\r\n        kanvas._generateUri(playerId, props, fields, WIN_NFT_TEMPLATE);\r\n    }\r\n\r\n    /** Reduce player points */\r\n    function downgradePlayer(address playerId) external onlyOwner {\r\n        Player storage player = _players[playerId];\r\n        require(player.created, \"Create this player first\");\r\n        require(player.points >= 1, \"Already defeated :)\");\r\n\r\n        player.points = player.points - 1;\r\n\r\n        string[] memory props = new string[](MAX_PROPERTIES_LEN);\r\n        props[0] = player.name;\r\n        props[1] = Strings.toString(player.points);\r\n\r\n        string memory fields = \"$name$ $points$\";\r\n\r\n        kanvas._generateUri(playerId, props, fields, LOST_NFT_TEMPLATE);\r\n    }\r\n\r\n    /** Bridge game Nft function */\r\n    function transferTo(uint64 chainSelector) external payable {\r\n        address playerId = _msgSender();\r\n        Player memory player = _players[playerId];\r\n        require(player.created, \"Player does not exists\");\r\n\r\n        address gameId = address(this);\r\n        string memory uri = _tokenURIs[player.tokenId];\r\n\r\n        bytes memory data = abi.encode(player.name, player.points);\r\n\r\n        /** Cross chain transfer function */\r\n        kanvas._transferTo{value: msg.value}(\r\n            chainSelector,\r\n            gameId,\r\n            playerId,\r\n            player.tokenId,\r\n            uri,\r\n            data\r\n        );\r\n\r\n        _burn(player.tokenId);\r\n        delete _tokenURIs[player.tokenId];\r\n\r\n        // player will be deleted when they transfer the game NFT\r\n        delete _players[playerId];\r\n    }\r\n\r\n    /** Cross chain receiver callback function */\r\n    function _receiveFrom(\r\n        uint64 /* chainSelector */,\r\n        address /* gameId */,\r\n        address playerId,\r\n        uint256 tokenId,\r\n        string memory uri,\r\n        bytes memory data\r\n    ) external override {\r\n        (string memory name, uint256 points) = abi.decode(\r\n            data,\r\n            (string, uint256)\r\n        );\r\n\r\n        _mint(playerId, tokenId);\r\n        _tokenURIs[tokenId] = uri;\r\n\r\n        // player will be created when they receive the game NFT\r\n        _players[playerId].name = name;\r\n        _players[playerId].points = points;\r\n        _players[playerId].created = true;\r\n\r\n        _players[playerId].tokenId = tokenId;\r\n    }\r\n\r\n    function _receiveUri(\r\n        address playerId,\r\n        string memory uri\r\n    ) external override {\r\n        _tokenURIs[_players[playerId].tokenId] = uri;\r\n    }\r\n\r\n    function tokenURI(\r\n        uint256 tokenId\r\n    ) public view virtual override returns (string memory) {\r\n        return _tokenURIs[tokenId];\r\n    }\r\n}\r\n",
  "sourcePath": "C:\\Users\\DELL\\Documents\\kanvas\\blockchain\\contracts\\rock-paper-scissors\\RockPaperScissorsInterop.sol",
  "compiler": {
    "name": "solc",
    "version": "0.8.19+commit.7dd6d404.Emscripten.clang"
  },
  "schemaVersion": "3.4.11",
  "updatedAt": "2023-12-06T09:42:29.701Z",
  "networkType": "ethereum",
  "devdoc": {
    "events": {
      "Approval(address,address,uint256)": {
        "details": "Emitted when `owner` enables `approved` to manage the `tokenId` token."
      },
      "ApprovalForAll(address,address,bool)": {
        "details": "Emitted when `owner` enables or disables (`approved`) `operator` to manage all of its assets."
      },
      "Transfer(address,address,uint256)": {
        "details": "Emitted when `tokenId` token is transferred from `from` to `to`."
      }
    },
    "kind": "dev",
    "methods": {
      "approve(address,uint256)": {
        "details": "See {IERC721-approve}."
      },
      "balanceOf(address)": {
        "details": "See {IERC721-balanceOf}."
      },
      "getApproved(uint256)": {
        "details": "See {IERC721-getApproved}."
      },
      "isApprovedForAll(address,address)": {
        "details": "See {IERC721-isApprovedForAll}."
      },
      "name()": {
        "details": "See {IERC721Metadata-name}."
      },
      "owner()": {
        "details": "Returns the address of the current owner."
      },
      "ownerOf(uint256)": {
        "details": "See {IERC721-ownerOf}."
      },
      "renounceOwnership()": {
        "details": "Leaves the contract without owner. It will not be possible to call `onlyOwner` functions. Can only be called by the current owner. NOTE: Renouncing ownership will leave the contract without an owner, thereby disabling any functionality that is only available to the owner."
      },
      "safeTransferFrom(address,address,uint256)": {
        "details": "See {IERC721-safeTransferFrom}."
      },
      "safeTransferFrom(address,address,uint256,bytes)": {
        "details": "See {IERC721-safeTransferFrom}."
      },
      "setApprovalForAll(address,bool)": {
        "details": "See {IERC721-setApprovalForAll}."
      },
      "supportsInterface(bytes4)": {
        "details": "See {IERC165-supportsInterface}."
      },
      "symbol()": {
        "details": "See {IERC721Metadata-symbol}."
      },
      "tokenURI(uint256)": {
        "details": "See {IERC721Metadata-tokenURI}."
      },
      "transferFrom(address,address,uint256)": {
        "details": "See {IERC721-transferFrom}."
      },
      "transferOwnership(address)": {
        "details": "Transfers ownership of the contract to a new account (`newOwner`). Can only be called by the current owner."
      }
    },
    "version": 1
  },
  "userdoc": {
    "kind": "user",
    "methods": {
      "_receiveFrom(uint64,address,address,uint256,string,bytes)": {
        "notice": "Cross chain receiver callback function "
      },
      "downgradePlayer(address)": {
        "notice": "Reduce player points "
      },
      "transferTo(uint64)": {
        "notice": "Bridge game Nft function "
      },
      "upgradePlayer(address)": {
        "notice": "Increase player points "
      }
    },
    "version": 1
  }
}