{
  "contractName": "RockPaperScissorsInterop",
  "abi": [
    {
      "inputs": [
        {
          "internalType": "address",
          "name": "kanvasRouter",
          "type": "address"
        },
        {
          "internalType": "address",
          "name": "sourceGameId",
          "type": "address"
        }
      ],
      "stateMutability": "nonpayable",
      "type": "constructor"
    },
    {
      "anonymous": false,
      "inputs": [
        {
          "indexed": true,
          "internalType": "address",
          "name": "owner",
          "type": "address"
        },
        {
          "indexed": true,
          "internalType": "address",
          "name": "approved",
          "type": "address"
        },
        {
          "indexed": true,
          "internalType": "uint256",
          "name": "tokenId",
          "type": "uint256"
        }
      ],
      "name": "Approval",
      "type": "event"
    },
    {
      "anonymous": false,
      "inputs": [
        {
          "indexed": true,
          "internalType": "address",
          "name": "owner",
          "type": "address"
        },
        {
          "indexed": true,
          "internalType": "address",
          "name": "operator",
          "type": "address"
        },
        {
          "indexed": false,
          "internalType": "bool",
          "name": "approved",
          "type": "bool"
        }
      ],
      "name": "ApprovalForAll",
      "type": "event"
    },
    {
      "anonymous": false,
      "inputs": [
        {
          "indexed": true,
          "internalType": "address",
          "name": "previousOwner",
          "type": "address"
        },
        {
          "indexed": true,
          "internalType": "address",
          "name": "newOwner",
          "type": "address"
        }
      ],
      "name": "OwnershipTransferred",
      "type": "event"
    },
    {
      "anonymous": false,
      "inputs": [
        {
          "indexed": true,
          "internalType": "address",
          "name": "from",
          "type": "address"
        },
        {
          "indexed": true,
          "internalType": "address",
          "name": "to",
          "type": "address"
        },
        {
          "indexed": true,
          "internalType": "uint256",
          "name": "tokenId",
          "type": "uint256"
        }
      ],
      "name": "Transfer",
      "type": "event"
    },
    {
      "inputs": [],
      "name": "MAX_PROPERTIES_LEN",
      "outputs": [
        {
          "internalType": "uint256",
          "name": "",
          "type": "uint256"
        }
      ],
      "stateMutability": "view",
      "type": "function"
    },
    {
      "inputs": [
        {
          "internalType": "address",
          "name": "to",
          "type": "address"
        },
        {
          "internalType": "uint256",
          "name": "tokenId",
          "type": "uint256"
        }
      ],
      "name": "approve",
      "outputs": [],
      "stateMutability": "nonpayable",
      "type": "function"
    },
    {
      "inputs": [
        {
          "internalType": "address",
          "name": "owner",
          "type": "address"
        }
      ],
      "name": "balanceOf",
      "outputs": [
        {
          "internalType": "uint256",
          "name": "",
          "type": "uint256"
        }
      ],
      "stateMutability": "view",
      "type": "function"
    },
    {
      "inputs": [
        {
          "internalType": "uint256",
          "name": "tokenId",
          "type": "uint256"
        }
      ],
      "name": "getApproved",
      "outputs": [
        {
          "internalType": "address",
          "name": "",
          "type": "address"
        }
      ],
      "stateMutability": "view",
      "type": "function"
    },
    {
      "inputs": [
        {
          "internalType": "address",
          "name": "owner",
          "type": "address"
        },
        {
          "internalType": "address",
          "name": "operator",
          "type": "address"
        }
      ],
      "name": "isApprovedForAll",
      "outputs": [
        {
          "internalType": "bool",
          "name": "",
          "type": "bool"
        }
      ],
      "stateMutability": "view",
      "type": "function"
    },
    {
      "inputs": [],
      "name": "name",
      "outputs": [
        {
          "internalType": "string",
          "name": "",
          "type": "string"
        }
      ],
      "stateMutability": "view",
      "type": "function"
    },
    {
      "inputs": [],
      "name": "owner",
      "outputs": [
        {
          "internalType": "address",
          "name": "",
          "type": "address"
        }
      ],
      "stateMutability": "view",
      "type": "function"
    },
    {
      "inputs": [
        {
          "internalType": "uint256",
          "name": "tokenId",
          "type": "uint256"
        }
      ],
      "name": "ownerOf",
      "outputs": [
        {
          "internalType": "address",
          "name": "",
          "type": "address"
        }
      ],
      "stateMutability": "view",
      "type": "function"
    },
    {
      "inputs": [],
      "name": "renounceOwnership",
      "outputs": [],
      "stateMutability": "nonpayable",
      "type": "function"
    },
    {
      "inputs": [
        {
          "internalType": "address",
          "name": "from",
          "type": "address"
        },
        {
          "internalType": "address",
          "name": "to",
          "type": "address"
        },
        {
          "internalType": "uint256",
          "name": "tokenId",
          "type": "uint256"
        }
      ],
      "name": "safeTransferFrom",
      "outputs": [],
      "stateMutability": "nonpayable",
      "type": "function"
    },
    {
      "inputs": [
        {
          "internalType": "address",
          "name": "from",
          "type": "address"
        },
        {
          "internalType": "address",
          "name": "to",
          "type": "address"
        },
        {
          "internalType": "uint256",
          "name": "tokenId",
          "type": "uint256"
        },
        {
          "internalType": "bytes",
          "name": "data",
          "type": "bytes"
        }
      ],
      "name": "safeTransferFrom",
      "outputs": [],
      "stateMutability": "nonpayable",
      "type": "function"
    },
    {
      "inputs": [
        {
          "internalType": "address",
          "name": "operator",
          "type": "address"
        },
        {
          "internalType": "bool",
          "name": "approved",
          "type": "bool"
        }
      ],
      "name": "setApprovalForAll",
      "outputs": [],
      "stateMutability": "nonpayable",
      "type": "function"
    },
    {
      "inputs": [
        {
          "internalType": "bytes4",
          "name": "interfaceId",
          "type": "bytes4"
        }
      ],
      "name": "supportsInterface",
      "outputs": [
        {
          "internalType": "bool",
          "name": "",
          "type": "bool"
        }
      ],
      "stateMutability": "view",
      "type": "function"
    },
    {
      "inputs": [],
      "name": "symbol",
      "outputs": [
        {
          "internalType": "string",
          "name": "",
          "type": "string"
        }
      ],
      "stateMutability": "view",
      "type": "function"
    },
    {
      "inputs": [
        {
          "internalType": "address",
          "name": "from",
          "type": "address"
        },
        {
          "internalType": "address",
          "name": "to",
          "type": "address"
        },
        {
          "internalType": "uint256",
          "name": "tokenId",
          "type": "uint256"
        }
      ],
      "name": "transferFrom",
      "outputs": [],
      "stateMutability": "nonpayable",
      "type": "function"
    },
    {
      "inputs": [
        {
          "internalType": "address",
          "name": "newOwner",
          "type": "address"
        }
      ],
      "name": "transferOwnership",
      "outputs": [],
      "stateMutability": "nonpayable",
      "type": "function"
    },
    {
      "stateMutability": "payable",
      "type": "receive"
    },
    {
      "inputs": [
        {
          "internalType": "address",
          "name": "playerId",
          "type": "address"
        }
      ],
      "name": "getPlayer",
      "outputs": [
        {
          "components": [
            {
              "internalType": "string",
              "name": "name",
              "type": "string"
            },
            {
              "internalType": "uint256",
              "name": "points",
              "type": "uint256"
            },
            {
              "internalType": "uint256",
              "name": "tokenId",
              "type": "uint256"
            },
            {
              "internalType": "bool",
              "name": "created",
              "type": "bool"
            }
          ],
          "internalType": "struct RockPaperScissorsInterop.Player",
          "name": "",
          "type": "tuple"
        }
      ],
      "stateMutability": "view",
      "type": "function"
    },
    {
      "inputs": [
        {
          "internalType": "address",
          "name": "playerId",
          "type": "address"
        }
      ],
      "name": "upgradePlayer",
      "outputs": [],
      "stateMutability": "nonpayable",
      "type": "function"
    },
    {
      "inputs": [
        {
          "internalType": "address",
          "name": "playerId",
          "type": "address"
        }
      ],
      "name": "downgradePlayer",
      "outputs": [],
      "stateMutability": "nonpayable",
      "type": "function"
    },
    {
      "inputs": [],
      "name": "withdrawTo",
      "outputs": [],
      "stateMutability": "payable",
      "type": "function"
    },
    {
      "inputs": [
        {
          "internalType": "uint64",
          "name": "",
          "type": "uint64"
        },
        {
          "internalType": "address",
          "name": "",
          "type": "address"
        },
        {
          "internalType": "address",
          "name": "playerId",
          "type": "address"
        },
        {
          "internalType": "uint256",
          "name": "tokenId",
          "type": "uint256"
        },
        {
          "internalType": "string",
          "name": "uri",
          "type": "string"
        },
        {
          "internalType": "bytes",
          "name": "data",
          "type": "bytes"
        }
      ],
      "name": "_receiveFrom",
      "outputs": [],
      "stateMutability": "nonpayable",
      "type": "function"
    },
    {
      "inputs": [
        {
          "internalType": "address",
          "name": "playerId",
          "type": "address"
        },
        {
          "internalType": "string",
          "name": "uri",
          "type": "string"
        }
      ],
      "name": "_receiveUri",
      "outputs": [],
      "stateMutability": "nonpayable",
      "type": "function"
    },
    {
      "inputs": [
        {
          "internalType": "uint256",
          "name": "tokenId",
          "type": "uint256"
        }
      ],
      "name": "tokenURI",
      "outputs": [
        {
          "internalType": "string",
          "name": "",
          "type": "string"
        }
      ],
      "stateMutability": "view",
      "type": "function"
    }
  ],
  "bytecode": "0x60806040523480156200001157600080fd5b5060405162004c3538038062004c3583398181016040528101906200003791906200031f565b6040518060400160405280601181526020017f526f636b506170657253636973736f72730000000000000000000000000000008152506040518060400160405280600381526020017f52505300000000000000000000000000000000000000000000000000000000008152508160009081620000b49190620005e0565b508060019081620000c69190620005e0565b505050620000e9620000dd620001e760201b60201c565b620001ef60201b60201c565b81600a60006101000a81548173ffffffffffffffffffffffffffffffffffffffff021916908373ffffffffffffffffffffffffffffffffffffffff160217905550600a60009054906101000a900473ffffffffffffffffffffffffffffffffffffffff1673ffffffffffffffffffffffffffffffffffffffff1663a0238f8160405180602001604052808473ffffffffffffffffffffffffffffffffffffffff168152506040518263ffffffff1660e01b8152600401620001ab9190620006f6565b600060405180830381600087803b158015620001c657600080fd5b505af1158015620001db573d6000803e3d6000fd5b50505050505062000713565b600033905090565b6000600660009054906101000a900473ffffffffffffffffffffffffffffffffffffffff16905081600660006101000a81548173ffffffffffffffffffffffffffffffffffffffff021916908373ffffffffffffffffffffffffffffffffffffffff1602179055508173ffffffffffffffffffffffffffffffffffffffff168173ffffffffffffffffffffffffffffffffffffffff167f8be0079c531659141344cd1fd0a4f28419497f9722a3daafe3b4186f6b6457e060405160405180910390a35050565b600080fd5b600073ffffffffffffffffffffffffffffffffffffffff82169050919050565b6000620002e782620002ba565b9050919050565b620002f981620002da565b81146200030557600080fd5b50565b6000815190506200031981620002ee565b92915050565b60008060408385031215620003395762000338620002b5565b5b6000620003498582860162000308565b92505060206200035c8582860162000308565b9150509250929050565b600081519050919050565b7f4e487b7100000000000000000000000000000000000000000000000000000000600052604160045260246000fd5b7f4e487b7100000000000000000000000000000000000000000000000000000000600052602260045260246000fd5b60006002820490506001821680620003e857607f821691505b602082108103620003fe57620003fd620003a0565b5b50919050565b60008190508160005260206000209050919050565b60006020601f8301049050919050565b600082821b905092915050565b600060088302620004687fffffffffffffffffffffffffffffffffffffffffffffffffffffffffffffffff8262000429565b62000474868362000429565b95508019841693508086168417925050509392505050565b6000819050919050565b6000819050919050565b6000620004c1620004bb620004b5846200048c565b62000496565b6200048c565b9050919050565b6000819050919050565b620004dd83620004a0565b620004f5620004ec82620004c8565b84845462000436565b825550505050565b600090565b6200050c620004fd565b62000519818484620004d2565b505050565b5b8181101562000541576200053560008262000502565b6001810190506200051f565b5050565b601f82111562000590576200055a8162000404565b620005658462000419565b8101602085101562000575578190505b6200058d620005848562000419565b8301826200051e565b50505b505050565b600082821c905092915050565b6000620005b56000198460080262000595565b1980831691505092915050565b6000620005d08383620005a2565b9150826002028217905092915050565b620005eb8262000366565b67ffffffffffffffff81111562000607576200060662000371565b5b620006138254620003cf565b6200062082828562000545565b600060209050601f83116001811462000658576000841562000643578287015190505b6200064f8582620005c2565b865550620006bf565b601f198416620006688662000404565b60005b8281101562000692578489015182556001820191506020850194506020810190506200066b565b86831015620006b25784890151620006ae601f891682620005a2565b8355505b6001600288020188555050505b505050505050565b620006d281620002da565b82525050565b602082016000820151620006f06000850182620006c7565b50505050565b60006020820190506200070d6000830184620006d8565b92915050565b61451280620007236000396000f3fe6080604052600436106101445760003560e01c8063715018a6116100b6578063a06422a71161006f578063a06422a714610444578063a22cb4651461046d578063b88d4fde14610496578063c87b56dd146104bf578063e985e9c5146104fc578063f2fde38b146105395761014b565b8063715018a6146103795780638b8ff358146103905780638bcd3e93146103bb5780638da5cb5b146103c55780638f9c3956146103f057806395d89b41146104195761014b565b806340f873921161010857806340f873921461024757806342842e0e146102705780635c12cd4b146102995780636352211e146102d65780636d4195fb1461031357806370a082311461033c5761014b565b806301ffc9a71461015057806306fdde031461018d578063081812fc146101b8578063095ea7b3146101f557806323b872dd1461021e5761014b565b3661014b57005b600080fd5b34801561015c57600080fd5b5061017760048036038101906101729190612c7e565b610562565b6040516101849190612cc6565b60405180910390f35b34801561019957600080fd5b506101a2610644565b6040516101af9190612d71565b60405180910390f35b3480156101c457600080fd5b506101df60048036038101906101da9190612dc9565b6106d6565b6040516101ec9190612e37565b60405180910390f35b34801561020157600080fd5b5061021c60048036038101906102179190612e7e565b61071c565b005b34801561022a57600080fd5b5061024560048036038101906102409190612ebe565b610833565b005b34801561025357600080fd5b5061026e60048036038101906102699190612f11565b610893565b005b34801561027c57600080fd5b5061029760048036038101906102929190612ebe565b610b8f565b005b3480156102a557600080fd5b506102c060048036038101906102bb9190612f11565b610baf565b6040516102cd9190613009565b60405180910390f35b3480156102e257600080fd5b506102fd60048036038101906102f89190612dc9565b610cc9565b60405161030a9190612e37565b60405180910390f35b34801561031f57600080fd5b5061033a60048036038101906103359190613241565b610d4f565b005b34801561034857600080fd5b50610363600480360381019061035e9190612f11565b610f6f565b6040516103709190613315565b60405180910390f35b34801561038557600080fd5b5061038e611026565b005b34801561039c57600080fd5b506103a561103a565b6040516103b29190613315565b60405180910390f35b6103c361103f565b005b3480156103d157600080fd5b506103da6113bc565b6040516103e79190612e37565b60405180910390f35b3480156103fc57600080fd5b5061041760048036038101906104129190613330565b6113e6565b005b34801561042557600080fd5b5061042e6114e4565b60405161043b9190612d71565b60405180910390f35b34801561045057600080fd5b5061046b60048036038101906104669190612f11565b611576565b005b34801561047957600080fd5b50610494600480360381019061048f91906133b8565b61182a565b005b3480156104a257600080fd5b506104bd60048036038101906104b891906133f8565b611840565b005b3480156104cb57600080fd5b506104e660048036038101906104e19190612dc9565b6118a2565b6040516104f39190612d71565b60405180910390f35b34801561050857600080fd5b50610523600480360381019061051e919061347b565b611947565b6040516105309190612cc6565b60405180910390f35b34801561054557600080fd5b50610560600480360381019061055b9190612f11565b6119db565b005b60007f80ac58cd000000000000000000000000000000000000000000000000000000007bffffffffffffffffffffffffffffffffffffffffffffffffffffffff1916827bffffffffffffffffffffffffffffffffffffffffffffffffffffffff1916148061062d57507f5b5e139f000000000000000000000000000000000000000000000000000000007bffffffffffffffffffffffffffffffffffffffffffffffffffffffff1916827bffffffffffffffffffffffffffffffffffffffffffffffffffffffff1916145b8061063d575061063c82611a5e565b5b9050919050565b606060008054610653906134ea565b80601f016020809104026020016040519081016040528092919081815260200182805461067f906134ea565b80156106cc5780601f106106a1576101008083540402835291602001916106cc565b820191906000526020600020905b8154815290600101906020018083116106af57829003601f168201915b5050505050905090565b60006106e182611ac8565b6004600083815260200190815260200160002060009054906101000a900473ffffffffffffffffffffffffffffffffffffffff169050919050565b600061072782610cc9565b90508073ffffffffffffffffffffffffffffffffffffffff168373ffffffffffffffffffffffffffffffffffffffff1603610797576040517f08c379a000000000000000000000000000000000000000000000000000000000815260040161078e9061358d565b60405180910390fd5b8073ffffffffffffffffffffffffffffffffffffffff166107b6611b13565b73ffffffffffffffffffffffffffffffffffffffff1614806107e557506107e4816107df611b13565b611947565b5b610824576040517f08c379a000000000000000000000000000000000000000000000000000000000815260040161081b9061361f565b60405180910390fd5b61082e8383611b1b565b505050565b61084461083e611b13565b82611bd4565b610883576040517f08c379a000000000000000000000000000000000000000000000000000000000815260040161087a906136b1565b60405180910390fd5b61088e838383611c69565b505050565b61089b611dc6565b6000600b60008373ffffffffffffffffffffffffffffffffffffffff1673ffffffffffffffffffffffffffffffffffffffff16815260200190815260200160002090508060030160009054906101000a900460ff1661092f576040517f08c379a00000000000000000000000000000000000000000000000000000000081526004016109269061371d565b60405180910390fd5b600181600101541015610977576040517f08c379a000000000000000000000000000000000000000000000000000000000815260040161096e90613789565b60405180910390fd5b6001816001015461098891906137d8565b81600101819055506000601467ffffffffffffffff8111156109ad576109ac613075565b5b6040519080825280602002602001820160405280156109e057816020015b60608152602001906001900390816109cb5790505b5090508160000180546109f2906134ea565b80601f0160208091040260200160405190810160405280929190818152602001828054610a1e906134ea565b8015610a6b5780601f10610a4057610100808354040283529160200191610a6b565b820191906000526020600020905b815481529060010190602001808311610a4e57829003601f168201915b505050505081600081518110610a8457610a8361380c565b5b6020026020010181905250610a9c8260010154611e44565b81600181518110610ab057610aaf61380c565b5b602002602001018190525060006040518060400160405280600f81526020017f246e616d65242024706f696e74732400000000000000000000000000000000008152509050600a60009054906101000a900473ffffffffffffffffffffffffffffffffffffffff1673ffffffffffffffffffffffffffffffffffffffff1663eee6e57385848460016040518563ffffffff1660e01b8152600401610b579493929190613919565b600060405180830381600087803b158015610b7157600080fd5b505af1158015610b85573d6000803e3d6000fd5b5050505050505050565b610baa83838360405180602001604052806000815250611840565b505050565b610bb7612b8b565b600b60008373ffffffffffffffffffffffffffffffffffffffff1673ffffffffffffffffffffffffffffffffffffffff168152602001908152602001600020604051806080016040529081600082018054610c11906134ea565b80601f0160208091040260200160405190810160405280929190818152602001828054610c3d906134ea565b8015610c8a5780601f10610c5f57610100808354040283529160200191610c8a565b820191906000526020600020905b815481529060010190602001808311610c6d57829003601f168201915b5050505050815260200160018201548152602001600282015481526020016003820160009054906101000a900460ff1615151515815250509050919050565b600080610cd583611f12565b9050600073ffffffffffffffffffffffffffffffffffffffff168173ffffffffffffffffffffffffffffffffffffffff1603610d46576040517f08c379a0000000000000000000000000000000000000000000000000000000008152600401610d3d906139b8565b60405180910390fd5b80915050919050565b600a60009054906101000a900473ffffffffffffffffffffffffffffffffffffffff1673ffffffffffffffffffffffffffffffffffffffff16610d90611b13565b73ffffffffffffffffffffffffffffffffffffffff1614610de6576040517f08c379a0000000000000000000000000000000000000000000000000000000008152600401610ddd90613a24565b60405180910390fd5b60008082806020019051810190610dfd9190613ac9565b91509150610e0b8686611f4f565b83600860008781526020019081526020016000209081610e2b9190613cd1565b5081600b60008873ffffffffffffffffffffffffffffffffffffffff1673ffffffffffffffffffffffffffffffffffffffff1681526020019081526020016000206000019081610e7b9190613cd1565b5080600b60008873ffffffffffffffffffffffffffffffffffffffff1673ffffffffffffffffffffffffffffffffffffffff168152602001908152602001600020600101819055506001600b60008873ffffffffffffffffffffffffffffffffffffffff1673ffffffffffffffffffffffffffffffffffffffff16815260200190815260200160002060030160006101000a81548160ff02191690831515021790555084600b60008873ffffffffffffffffffffffffffffffffffffffff1673ffffffffffffffffffffffffffffffffffffffff168152602001908152602001600020600201819055505050505050505050565b60008073ffffffffffffffffffffffffffffffffffffffff168273ffffffffffffffffffffffffffffffffffffffff1603610fdf576040517f08c379a0000000000000000000000000000000000000000000000000000000008152600401610fd690613e15565b60405180910390fd5b600360008373ffffffffffffffffffffffffffffffffffffffff1673ffffffffffffffffffffffffffffffffffffffff168152602001908152602001600020549050919050565b61102e611dc6565b611038600061216c565b565b601481565b6000611049611b13565b90506000600b60008373ffffffffffffffffffffffffffffffffffffffff1673ffffffffffffffffffffffffffffffffffffffff1681526020019081526020016000206040518060800160405290816000820180546110a7906134ea565b80601f01602080910402602001604051908101604052809291908181526020018280546110d3906134ea565b80156111205780601f106110f557610100808354040283529160200191611120565b820191906000526020600020905b81548152906001019060200180831161110357829003601f168201915b5050505050815260200160018201548152602001600282015481526020016003820160009054906101000a900460ff1615151515815250509050806060015161119e576040517f08c379a000000000000000000000000000000000000000000000000000000000815260040161119590613e81565b60405180910390fd5b60003090506000600860008460400151815260200190815260200160002080546111c7906134ea565b80601f01602080910402602001604051908101604052809291908181526020018280546111f3906134ea565b80156112405780601f1061121557610100808354040283529160200191611240565b820191906000526020600020905b81548152906001019060200180831161122357829003601f168201915b50505050509050600083600001518460200151604051602001611264929190613ea1565b6040516020818303038152906040529050600a60009054906101000a900473ffffffffffffffffffffffffffffffffffffffff1673ffffffffffffffffffffffffffffffffffffffff1663bc71c814348588886040015187876040518763ffffffff1660e01b81526004016112dd959493929190613f26565b6000604051808303818588803b1580156112f657600080fd5b505af115801561130a573d6000803e3d6000fd5b505050505061131c8460400151612232565b6008600085604001518152602001908152602001600020600061133f9190612bb5565b600b60008673ffffffffffffffffffffffffffffffffffffffff1673ffffffffffffffffffffffffffffffffffffffff1681526020019081526020016000206000808201600061138f9190612bb5565b600182016000905560028201600090556003820160006101000a81549060ff021916905550505050505050565b6000600660009054906101000a900473ffffffffffffffffffffffffffffffffffffffff16905090565b600a60009054906101000a900473ffffffffffffffffffffffffffffffffffffffff1673ffffffffffffffffffffffffffffffffffffffff16611427611b13565b73ffffffffffffffffffffffffffffffffffffffff161461147d576040517f08c379a000000000000000000000000000000000000000000000000000000000815260040161147490613a24565b60405180910390fd5b8060086000600b60008673ffffffffffffffffffffffffffffffffffffffff1673ffffffffffffffffffffffffffffffffffffffff16815260200190815260200160002060020154815260200190815260200160002090816114df9190613cd1565b505050565b6060600180546114f3906134ea565b80601f016020809104026020016040519081016040528092919081815260200182805461151f906134ea565b801561156c5780601f106115415761010080835404028352916020019161156c565b820191906000526020600020905b81548152906001019060200180831161154f57829003601f168201915b5050505050905090565b61157e611dc6565b6000600b60008373ffffffffffffffffffffffffffffffffffffffff1673ffffffffffffffffffffffffffffffffffffffff16815260200190815260200160002090508060030160009054906101000a900460ff16611612576040517f08c379a00000000000000000000000000000000000000000000000000000000081526004016116099061371d565b60405180910390fd5b600581600101546116239190613f87565b81600101819055506000601467ffffffffffffffff81111561164857611647613075565b5b60405190808252806020026020018201604052801561167b57816020015b60608152602001906001900390816116665790505b50905081600001805461168d906134ea565b80601f01602080910402602001604051908101604052809291908181526020018280546116b9906134ea565b80156117065780601f106116db57610100808354040283529160200191611706565b820191906000526020600020905b8154815290600101906020018083116116e957829003601f168201915b50505050508160008151811061171f5761171e61380c565b5b60200260200101819052506117378260010154611e44565b8160018151811061174b5761174a61380c565b5b602002602001018190525060006040518060400160405280600f81526020017f246e616d65242024706f696e74732400000000000000000000000000000000008152509050600a60009054906101000a900473ffffffffffffffffffffffffffffffffffffffff1673ffffffffffffffffffffffffffffffffffffffff1663eee6e57385848460006040518563ffffffff1660e01b81526004016117f29493929190613919565b600060405180830381600087803b15801561180c57600080fd5b505af1158015611820573d6000803e3d6000fd5b5050505050505050565b61183c611835611b13565b8383612380565b5050565b61185161184b611b13565b83611bd4565b611890576040517f08c379a0000000000000000000000000000000000000000000000000000000008152600401611887906136b1565b60405180910390fd5b61189c848484846124ec565b50505050565b60606008600083815260200190815260200160002080546118c2906134ea565b80601f01602080910402602001604051908101604052809291908181526020018280546118ee906134ea565b801561193b5780601f106119105761010080835404028352916020019161193b565b820191906000526020600020905b81548152906001019060200180831161191e57829003601f168201915b50505050509050919050565b6000600560008473ffffffffffffffffffffffffffffffffffffffff1673ffffffffffffffffffffffffffffffffffffffff16815260200190815260200160002060008373ffffffffffffffffffffffffffffffffffffffff1673ffffffffffffffffffffffffffffffffffffffff16815260200190815260200160002060009054906101000a900460ff16905092915050565b6119e3611dc6565b600073ffffffffffffffffffffffffffffffffffffffff168173ffffffffffffffffffffffffffffffffffffffff1603611a52576040517f08c379a0000000000000000000000000000000000000000000000000000000008152600401611a499061402d565b60405180910390fd5b611a5b8161216c565b50565b60007f01ffc9a7000000000000000000000000000000000000000000000000000000007bffffffffffffffffffffffffffffffffffffffffffffffffffffffff1916827bffffffffffffffffffffffffffffffffffffffffffffffffffffffff1916149050919050565b611ad181612548565b611b10576040517f08c379a0000000000000000000000000000000000000000000000000000000008152600401611b07906139b8565b60405180910390fd5b50565b600033905090565b816004600083815260200190815260200160002060006101000a81548173ffffffffffffffffffffffffffffffffffffffff021916908373ffffffffffffffffffffffffffffffffffffffff160217905550808273ffffffffffffffffffffffffffffffffffffffff16611b8e83610cc9565b73ffffffffffffffffffffffffffffffffffffffff167f8c5be1e5ebec7d5bd14f71427d1e84f3dd0314c0f7b2291e5b200ac8c7c3b92560405160405180910390a45050565b600080611be083610cc9565b90508073ffffffffffffffffffffffffffffffffffffffff168473ffffffffffffffffffffffffffffffffffffffff161480611c225750611c218185611947565b5b80611c6057508373ffffffffffffffffffffffffffffffffffffffff16611c48846106d6565b73ffffffffffffffffffffffffffffffffffffffff16145b91505092915050565b6000600b60008473ffffffffffffffffffffffffffffffffffffffff1673ffffffffffffffffffffffffffffffffffffffff16815260200190815260200160002090508060030160009054906101000a900460ff1615611cfe576040517f08c379a0000000000000000000000000000000000000000000000000000000008152600401611cf590614099565b60405180910390fd5b600b60008573ffffffffffffffffffffffffffffffffffffffff1673ffffffffffffffffffffffffffffffffffffffff1681526020019081526020016000209050600b60008573ffffffffffffffffffffffffffffffffffffffff1673ffffffffffffffffffffffffffffffffffffffff16815260200190815260200160002060008082016000611d8f9190612bb5565b600182016000905560028201600090556003820160006101000a81549060ff02191690555050611dc0848484612589565b50505050565b611dce611b13565b73ffffffffffffffffffffffffffffffffffffffff16611dec6113bc565b73ffffffffffffffffffffffffffffffffffffffff1614611e42576040517f08c379a0000000000000000000000000000000000000000000000000000000008152600401611e3990614105565b60405180910390fd5b565b606060006001611e5384612882565b01905060008167ffffffffffffffff811115611e7257611e71613075565b5b6040519080825280601f01601f191660200182016040528015611ea45781602001600182028036833780820191505090505b509050600082602001820190505b600115611f07578080600190039150507f3031323334353637383961626364656600000000000000000000000000000000600a86061a8153600a8581611efb57611efa614125565b5b04945060008503611eb2575b819350505050919050565b60006002600083815260200190815260200160002060009054906101000a900473ffffffffffffffffffffffffffffffffffffffff169050919050565b600073ffffffffffffffffffffffffffffffffffffffff168273ffffffffffffffffffffffffffffffffffffffff1603611fbe576040517f08c379a0000000000000000000000000000000000000000000000000000000008152600401611fb5906141a0565b60405180910390fd5b611fc781612548565b15612007576040517f08c379a0000000000000000000000000000000000000000000000000000000008152600401611ffe9061420c565b60405180910390fd5b6120156000838360016129d5565b61201e81612548565b1561205e576040517f08c379a00000000000000000000000000000000000000000000000000000000081526004016120559061420c565b60405180910390fd5b6001600360008473ffffffffffffffffffffffffffffffffffffffff1673ffffffffffffffffffffffffffffffffffffffff16815260200190815260200160002060008282540192505081905550816002600083815260200190815260200160002060006101000a81548173ffffffffffffffffffffffffffffffffffffffff021916908373ffffffffffffffffffffffffffffffffffffffff160217905550808273ffffffffffffffffffffffffffffffffffffffff16600073ffffffffffffffffffffffffffffffffffffffff167fddf252ad1be2c89b69c2b068fc378daa952ba7f163c4a11628f55a4df523b3ef60405160405180910390a46121686000838360016129db565b5050565b6000600660009054906101000a900473ffffffffffffffffffffffffffffffffffffffff16905081600660006101000a81548173ffffffffffffffffffffffffffffffffffffffff021916908373ffffffffffffffffffffffffffffffffffffffff1602179055508173ffffffffffffffffffffffffffffffffffffffff168173ffffffffffffffffffffffffffffffffffffffff167f8be0079c531659141344cd1fd0a4f28419497f9722a3daafe3b4186f6b6457e060405160405180910390a35050565b600061223d82610cc9565b905061224d8160008460016129d5565b61225682610cc9565b90506004600083815260200190815260200160002060006101000a81549073ffffffffffffffffffffffffffffffffffffffff02191690556001600360008373ffffffffffffffffffffffffffffffffffffffff1673ffffffffffffffffffffffffffffffffffffffff168152602001908152602001600020600082825403925050819055506002600083815260200190815260200160002060006101000a81549073ffffffffffffffffffffffffffffffffffffffff021916905581600073ffffffffffffffffffffffffffffffffffffffff168273ffffffffffffffffffffffffffffffffffffffff167fddf252ad1be2c89b69c2b068fc378daa952ba7f163c4a11628f55a4df523b3ef60405160405180910390a461237c8160008460016129db565b5050565b8173ffffffffffffffffffffffffffffffffffffffff168373ffffffffffffffffffffffffffffffffffffffff16036123ee576040517f08c379a00000000000000000000000000000000000000000000000000000000081526004016123e590614278565b60405180910390fd5b80600560008573ffffffffffffffffffffffffffffffffffffffff1673ffffffffffffffffffffffffffffffffffffffff16815260200190815260200160002060008473ffffffffffffffffffffffffffffffffffffffff1673ffffffffffffffffffffffffffffffffffffffff16815260200190815260200160002060006101000a81548160ff0219169083151502179055508173ffffffffffffffffffffffffffffffffffffffff168373ffffffffffffffffffffffffffffffffffffffff167f17307eab39ab6107e8899845ad3d59bd9653f200f220920489ca2b5937696c31836040516124df9190612cc6565b60405180910390a3505050565b6124f7848484611c69565b612503848484846129e1565b612542576040517f08c379a00000000000000000000000000000000000000000000000000000000081526004016125399061430a565b60405180910390fd5b50505050565b60008073ffffffffffffffffffffffffffffffffffffffff1661256a83611f12565b73ffffffffffffffffffffffffffffffffffffffff1614159050919050565b8273ffffffffffffffffffffffffffffffffffffffff166125a982610cc9565b73ffffffffffffffffffffffffffffffffffffffff16146125ff576040517f08c379a00000000000000000000000000000000000000000000000000000000081526004016125f69061439c565b60405180910390fd5b600073ffffffffffffffffffffffffffffffffffffffff168273ffffffffffffffffffffffffffffffffffffffff160361266e576040517f08c379a00000000000000000000000000000000000000000000000000000000081526004016126659061442e565b60405180910390fd5b61267b83838360016129d5565b8273ffffffffffffffffffffffffffffffffffffffff1661269b82610cc9565b73ffffffffffffffffffffffffffffffffffffffff16146126f1576040517f08c379a00000000000000000000000000000000000000000000000000000000081526004016126e89061439c565b60405180910390fd5b6004600082815260200190815260200160002060006101000a81549073ffffffffffffffffffffffffffffffffffffffff02191690556001600360008573ffffffffffffffffffffffffffffffffffffffff1673ffffffffffffffffffffffffffffffffffffffff168152602001908152602001600020600082825403925050819055506001600360008473ffffffffffffffffffffffffffffffffffffffff1673ffffffffffffffffffffffffffffffffffffffff16815260200190815260200160002060008282540192505081905550816002600083815260200190815260200160002060006101000a81548173ffffffffffffffffffffffffffffffffffffffff021916908373ffffffffffffffffffffffffffffffffffffffff160217905550808273ffffffffffffffffffffffffffffffffffffffff168473ffffffffffffffffffffffffffffffffffffffff167fddf252ad1be2c89b69c2b068fc378daa952ba7f163c4a11628f55a4df523b3ef60405160405180910390a461287d83838360016129db565b505050565b600080600090507a184f03e93ff9f4daa797ed6e38ed64bf6a1f01000000000000000083106128e0577a184f03e93ff9f4daa797ed6e38ed64bf6a1f01000000000000000083816128d6576128d5614125565b5b0492506040810190505b6d04ee2d6d415b85acef8100000000831061291d576d04ee2d6d415b85acef8100000000838161291357612912614125565b5b0492506020810190505b662386f26fc10000831061294c57662386f26fc10000838161294257612941614125565b5b0492506010810190505b6305f5e1008310612975576305f5e100838161296b5761296a614125565b5b0492506008810190505b612710831061299a5761271083816129905761298f614125565b5b0492506004810190505b606483106129bd57606483816129b3576129b2614125565b5b0492506002810190505b600a83106129cc576001810190505b80915050919050565b50505050565b50505050565b6000612a028473ffffffffffffffffffffffffffffffffffffffff16612b68565b15612b5b578373ffffffffffffffffffffffffffffffffffffffff1663150b7a02612a2b611b13565b8786866040518563ffffffff1660e01b8152600401612a4d949392919061444e565b6020604051808303816000875af1925050508015612a8957506040513d601f19601f82011682018060405250810190612a8691906144af565b60015b612b0b573d8060008114612ab9576040519150601f19603f3d011682016040523d82523d6000602084013e612abe565b606091505b506000815103612b03576040517f08c379a0000000000000000000000000000000000000000000000000000000008152600401612afa9061430a565b60405180910390fd5b805181602001fd5b63150b7a0260e01b7bffffffffffffffffffffffffffffffffffffffffffffffffffffffff1916817bffffffffffffffffffffffffffffffffffffffffffffffffffffffff191614915050612b60565b600190505b949350505050565b6000808273ffffffffffffffffffffffffffffffffffffffff163b119050919050565b60405180608001604052806060815260200160008152602001600081526020016000151581525090565b508054612bc1906134ea565b6000825580601f10612bd35750612bf2565b601f016020900490600052602060002090810190612bf19190612bf5565b5b50565b5b80821115612c0e576000816000905550600101612bf6565b5090565b6000604051905090565b600080fd5b600080fd5b60007fffffffff0000000000000000000000000000000000000000000000000000000082169050919050565b612c5b81612c26565b8114612c6657600080fd5b50565b600081359050612c7881612c52565b92915050565b600060208284031215612c9457612c93612c1c565b5b6000612ca284828501612c69565b91505092915050565b60008115159050919050565b612cc081612cab565b82525050565b6000602082019050612cdb6000830184612cb7565b92915050565b600081519050919050565b600082825260208201905092915050565b60005b83811015612d1b578082015181840152602081019050612d00565b60008484015250505050565b6000601f19601f8301169050919050565b6000612d4382612ce1565b612d4d8185612cec565b9350612d5d818560208601612cfd565b612d6681612d27565b840191505092915050565b60006020820190508181036000830152612d8b8184612d38565b905092915050565b6000819050919050565b612da681612d93565b8114612db157600080fd5b50565b600081359050612dc381612d9d565b92915050565b600060208284031215612ddf57612dde612c1c565b5b6000612ded84828501612db4565b91505092915050565b600073ffffffffffffffffffffffffffffffffffffffff82169050919050565b6000612e2182612df6565b9050919050565b612e3181612e16565b82525050565b6000602082019050612e4c6000830184612e28565b92915050565b612e5b81612e16565b8114612e6657600080fd5b50565b600081359050612e7881612e52565b92915050565b60008060408385031215612e9557612e94612c1c565b5b6000612ea385828601612e69565b9250506020612eb485828601612db4565b9150509250929050565b600080600060608486031215612ed757612ed6612c1c565b5b6000612ee586828701612e69565b9350506020612ef686828701612e69565b9250506040612f0786828701612db4565b9150509250925092565b600060208284031215612f2757612f26612c1c565b5b6000612f3584828501612e69565b91505092915050565b600082825260208201905092915050565b6000612f5a82612ce1565b612f648185612f3e565b9350612f74818560208601612cfd565b612f7d81612d27565b840191505092915050565b612f9181612d93565b82525050565b612fa081612cab565b82525050565b60006080830160008301518482036000860152612fc38282612f4f565b9150506020830151612fd86020860182612f88565b506040830151612feb6040860182612f88565b506060830151612ffe6060860182612f97565b508091505092915050565b600060208201905081810360008301526130238184612fa6565b905092915050565b600067ffffffffffffffff82169050919050565b6130488161302b565b811461305357600080fd5b50565b6000813590506130658161303f565b92915050565b600080fd5b600080fd5b7f4e487b7100000000000000000000000000000000000000000000000000000000600052604160045260246000fd5b6130ad82612d27565b810181811067ffffffffffffffff821117156130cc576130cb613075565b5b80604052505050565b60006130df612c12565b90506130eb82826130a4565b919050565b600067ffffffffffffffff82111561310b5761310a613075565b5b61311482612d27565b9050602081019050919050565b82818337600083830152505050565b600061314361313e846130f0565b6130d5565b90508281526020810184848401111561315f5761315e613070565b5b61316a848285613121565b509392505050565b600082601f8301126131875761318661306b565b5b8135613197848260208601613130565b91505092915050565b600067ffffffffffffffff8211156131bb576131ba613075565b5b6131c482612d27565b9050602081019050919050565b60006131e46131df846131a0565b6130d5565b905082815260208101848484011115613200576131ff613070565b5b61320b848285613121565b509392505050565b600082601f8301126132285761322761306b565b5b81356132388482602086016131d1565b91505092915050565b60008060008060008060c0878903121561325e5761325d612c1c565b5b600061326c89828a01613056565b965050602061327d89828a01612e69565b955050604061328e89828a01612e69565b945050606061329f89828a01612db4565b935050608087013567ffffffffffffffff8111156132c0576132bf612c21565b5b6132cc89828a01613172565b92505060a087013567ffffffffffffffff8111156132ed576132ec612c21565b5b6132f989828a01613213565b9150509295509295509295565b61330f81612d93565b82525050565b600060208201905061332a6000830184613306565b92915050565b6000806040838503121561334757613346612c1c565b5b600061335585828601612e69565b925050602083013567ffffffffffffffff81111561337657613375612c21565b5b61338285828601613172565b9150509250929050565b61339581612cab565b81146133a057600080fd5b50565b6000813590506133b28161338c565b92915050565b600080604083850312156133cf576133ce612c1c565b5b60006133dd85828601612e69565b92505060206133ee858286016133a3565b9150509250929050565b6000806000806080858703121561341257613411612c1c565b5b600061342087828801612e69565b945050602061343187828801612e69565b935050604061344287828801612db4565b925050606085013567ffffffffffffffff81111561346357613462612c21565b5b61346f87828801613213565b91505092959194509250565b6000806040838503121561349257613491612c1c565b5b60006134a085828601612e69565b92505060206134b185828601612e69565b9150509250929050565b7f4e487b7100000000000000000000000000000000000000000000000000000000600052602260045260246000fd5b6000600282049050600182168061350257607f821691505b602082108103613515576135146134bb565b5b50919050565b7f4552433732313a20617070726f76616c20746f2063757272656e74206f776e6560008201527f7200000000000000000000000000000000000000000000000000000000000000602082015250565b6000613577602183612cec565b91506135828261351b565b604082019050919050565b600060208201905081810360008301526135a68161356a565b9050919050565b7f4552433732313a20617070726f76652063616c6c6572206973206e6f7420746f60008201527f6b656e206f776e6572206f7220617070726f76656420666f7220616c6c000000602082015250565b6000613609603d83612cec565b9150613614826135ad565b604082019050919050565b60006020820190508181036000830152613638816135fc565b9050919050565b7f4552433732313a2063616c6c6572206973206e6f7420746f6b656e206f776e6560008201527f72206f7220617070726f76656400000000000000000000000000000000000000602082015250565b600061369b602d83612cec565b91506136a68261363f565b604082019050919050565b600060208201905081810360008301526136ca8161368e565b9050919050565b7f437265617465207468697320706c617965722066697273740000000000000000600082015250565b6000613707601883612cec565b9150613712826136d1565b602082019050919050565b60006020820190508181036000830152613736816136fa565b9050919050565b7f416c7265616479206465666561746564203a2900000000000000000000000000600082015250565b6000613773601383612cec565b915061377e8261373d565b602082019050919050565b600060208201905081810360008301526137a281613766565b9050919050565b7f4e487b7100000000000000000000000000000000000000000000000000000000600052601160045260246000fd5b60006137e382612d93565b91506137ee83612d93565b9250828203905081811115613806576138056137a9565b5b92915050565b7f4e487b7100000000000000000000000000000000000000000000000000000000600052603260045260246000fd5b600081519050919050565b600082825260208201905092915050565b6000819050602082019050919050565b60006138738383612f4f565b905092915050565b6000602082019050919050565b60006138938261383b565b61389d8185613846565b9350836020820285016138af85613857565b8060005b858110156138eb57848403895281516138cc8582613867565b94506138d78361387b565b925060208a019950506001810190506138b3565b50829750879550505050505092915050565b600060ff82169050919050565b613913816138fd565b82525050565b600060808201905061392e6000830187612e28565b81810360208301526139408186613888565b905081810360408301526139548185612d38565b9050613963606083018461390a565b95945050505050565b7f4552433732313a20696e76616c696420746f6b656e2049440000000000000000600082015250565b60006139a2601883612cec565b91506139ad8261396c565b602082019050919050565b600060208201905081810360008301526139d181613995565b9050919050565b7f556e417574686f72697a65640000000000000000000000000000000000000000600082015250565b6000613a0e600c83612cec565b9150613a19826139d8565b602082019050919050565b60006020820190508181036000830152613a3d81613a01565b9050919050565b6000613a57613a52846130f0565b6130d5565b905082815260208101848484011115613a7357613a72613070565b5b613a7e848285612cfd565b509392505050565b600082601f830112613a9b57613a9a61306b565b5b8151613aab848260208601613a44565b91505092915050565b600081519050613ac381612d9d565b92915050565b60008060408385031215613ae057613adf612c1c565b5b600083015167ffffffffffffffff811115613afe57613afd612c21565b5b613b0a85828601613a86565b9250506020613b1b85828601613ab4565b9150509250929050565b60008190508160005260206000209050919050565b60006020601f8301049050919050565b600082821b905092915050565b600060088302613b877fffffffffffffffffffffffffffffffffffffffffffffffffffffffffffffffff82613b4a565b613b918683613b4a565b95508019841693508086168417925050509392505050565b6000819050919050565b6000613bce613bc9613bc484612d93565b613ba9565b612d93565b9050919050565b6000819050919050565b613be883613bb3565b613bfc613bf482613bd5565b848454613b57565b825550505050565b600090565b613c11613c04565b613c1c818484613bdf565b505050565b5b81811015613c4057613c35600082613c09565b600181019050613c22565b5050565b601f821115613c8557613c5681613b25565b613c5f84613b3a565b81016020851015613c6e578190505b613c82613c7a85613b3a565b830182613c21565b50505b505050565b600082821c905092915050565b6000613ca860001984600802613c8a565b1980831691505092915050565b6000613cc18383613c97565b9150826002028217905092915050565b613cda82612ce1565b67ffffffffffffffff811115613cf357613cf2613075565b5b613cfd82546134ea565b613d08828285613c44565b600060209050601f831160018114613d3b5760008415613d29578287015190505b613d338582613cb5565b865550613d9b565b601f198416613d4986613b25565b60005b82811015613d7157848901518255600182019150602085019450602081019050613d4c565b86831015613d8e5784890151613d8a601f891682613c97565b8355505b6001600288020188555050505b505050505050565b7f4552433732313a2061646472657373207a65726f206973206e6f74206120766160008201527f6c6964206f776e65720000000000000000000000000000000000000000000000602082015250565b6000613dff602983612cec565b9150613e0a82613da3565b604082019050919050565b60006020820190508181036000830152613e2e81613df2565b9050919050565b7f506c6179657220646f6573206e6f742065786973747300000000000000000000600082015250565b6000613e6b601683612cec565b9150613e7682613e35565b602082019050919050565b60006020820190508181036000830152613e9a81613e5e565b9050919050565b60006040820190508181036000830152613ebb8185612d38565b9050613eca6020830184613306565b9392505050565b600081519050919050565b600082825260208201905092915050565b6000613ef882613ed1565b613f028185613edc565b9350613f12818560208601612cfd565b613f1b81612d27565b840191505092915050565b600060a082019050613f3b6000830188612e28565b613f486020830187612e28565b613f556040830186613306565b8181036060830152613f678185612d38565b90508181036080830152613f7b8184613eed565b90509695505050505050565b6000613f9282612d93565b9150613f9d83612d93565b9250828201905080821115613fb557613fb46137a9565b5b92915050565b7f4f776e61626c653a206e6577206f776e657220697320746865207a65726f206160008201527f6464726573730000000000000000000000000000000000000000000000000000602082015250565b6000614017602683612cec565b915061402282613fbb565b604082019050919050565b600060208201905081810360008301526140468161400a565b9050919050565b7f506c6179657220686173207468656972206f776e206163636f756e7400000000600082015250565b6000614083601c83612cec565b915061408e8261404d565b602082019050919050565b600060208201905081810360008301526140b281614076565b9050919050565b7f4f776e61626c653a2063616c6c6572206973206e6f7420746865206f776e6572600082015250565b60006140ef602083612cec565b91506140fa826140b9565b602082019050919050565b6000602082019050818103600083015261411e816140e2565b9050919050565b7f4e487b7100000000000000000000000000000000000000000000000000000000600052601260045260246000fd5b7f4552433732313a206d696e7420746f20746865207a65726f2061646472657373600082015250565b600061418a602083612cec565b915061419582614154565b602082019050919050565b600060208201905081810360008301526141b98161417d565b9050919050565b7f4552433732313a20746f6b656e20616c7265616479206d696e74656400000000600082015250565b60006141f6601c83612cec565b9150614201826141c0565b602082019050919050565b60006020820190508181036000830152614225816141e9565b9050919050565b7f4552433732313a20617070726f766520746f2063616c6c657200000000000000600082015250565b6000614262601983612cec565b915061426d8261422c565b602082019050919050565b6000602082019050818103600083015261429181614255565b9050919050565b7f4552433732313a207472616e7366657220746f206e6f6e20455243373231526560008201527f63656976657220696d706c656d656e7465720000000000000000000000000000602082015250565b60006142f4603283612cec565b91506142ff82614298565b604082019050919050565b60006020820190508181036000830152614323816142e7565b9050919050565b7f4552433732313a207472616e736665722066726f6d20696e636f72726563742060008201527f6f776e6572000000000000000000000000000000000000000000000000000000602082015250565b6000614386602583612cec565b91506143918261432a565b604082019050919050565b600060208201905081810360008301526143b581614379565b9050919050565b7f4552433732313a207472616e7366657220746f20746865207a65726f2061646460008201527f7265737300000000000000000000000000000000000000000000000000000000602082015250565b6000614418602483612cec565b9150614423826143bc565b604082019050919050565b600060208201905081810360008301526144478161440b565b9050919050565b60006080820190506144636000830187612e28565b6144706020830186612e28565b61447d6040830185613306565b818103606083015261448f8184613eed565b905095945050505050565b6000815190506144a981612c52565b92915050565b6000602082840312156144c5576144c4612c1c565b5b60006144d38482850161449a565b9150509291505056fea2646970667358221220dff94f4a0ec037ed3262ca3c2f0597088865d4c3746d64459fce2d9777db146464736f6c63430008130033",
  "immutableReferences": {},
  "source": "// SPDX-License-Identifier: MIT\r\npragma solidity ^0.8.19;\r\n\r\nimport {Params} from \"../../libraries/Params.sol\";\r\nimport {IKanvasInterop} from \"../../interfaces/IKanvasInterop.sol\";\r\nimport {IKanvasInteropGame} from \"../../interfaces/IKanvasInteropGame.sol\";\r\n\r\nimport {Ownable} from \"@openzeppelin/contracts/access/Ownable.sol\";\r\nimport {ERC721} from \"@openzeppelin/contracts/token/ERC721/ERC721.sol\";\r\nimport {Strings} from \"@openzeppelin/contracts/utils/Strings.sol\";\r\n\r\ncontract RockPaperScissorsInterop is IKanvasInteropGame, ERC721, Ownable {\r\n    uint256 public constant MAX_PROPERTIES_LEN = 20;\r\n\r\n    uint8 private constant WIN_NFT_TEMPLATE = 0;\r\n    uint8 private constant LOST_NFT_TEMPLATE = 1;\r\n\r\n    uint256 private _tokenId;\r\n\r\n    mapping(uint256 => string) private _tokenURIs;\r\n    mapping(address => uint256) private _playerNfts;\r\n\r\n    IKanvasInterop private kanvas;\r\n\r\n    struct Player {\r\n        string name;\r\n        uint256 points;\r\n        uint256 tokenId;\r\n        bool created;\r\n    }\r\n\r\n    receive() external payable {}\r\n\r\n    mapping(address => Player) private _players;\r\n\r\n    constructor(\r\n        address kanvasRouter,\r\n        address sourceGameId\r\n    ) ERC721(\"RockPaperScissors\", \"RPS\") IKanvasInteropGame() Ownable() {\r\n        kanvas = IKanvasInterop(kanvasRouter);\r\n        kanvas._createGame(Params.InteropGame({sourceGameId: sourceGameId}));\r\n    }\r\n\r\n    function _transfer(\r\n        address from,\r\n        address to,\r\n        uint256 tokenId\r\n    ) internal override {\r\n        Player storage newPlayer = _players[to];\r\n        // check if receiver has their own account\r\n        require(!newPlayer.created, \"Player has their own account\");\r\n\r\n        // create new player account\r\n        newPlayer = _players[from];\r\n\r\n        // delete sender accounts\r\n        delete _players[from];\r\n\r\n        super._transfer(from, to, tokenId);\r\n    }\r\n\r\n    // Retsrns the player struct\r\n    function getPlayer(address playerId) external view returns (Player memory) {\r\n        return _players[playerId];\r\n    }\r\n\r\n    /** Increase player points */\r\n    function upgradePlayer(address playerId) external onlyOwner {\r\n        Player storage player = _players[playerId];\r\n        require(player.created, \"Create this player first\");\r\n\r\n        player.points = player.points + 5;\r\n\r\n        string[] memory props = new string[](MAX_PROPERTIES_LEN);\r\n        props[0] = player.name;\r\n        props[1] = Strings.toString(player.points);\r\n\r\n        string memory fields = \"$name$ $points$\";\r\n\r\n        kanvas._generateUri(playerId, props, fields, WIN_NFT_TEMPLATE);\r\n    }\r\n\r\n    /** Reduce player points */\r\n    function downgradePlayer(address playerId) external onlyOwner {\r\n        Player storage player = _players[playerId];\r\n        require(player.created, \"Create this player first\");\r\n        require(player.points >= 1, \"Already defeated :)\");\r\n\r\n        player.points = player.points - 1;\r\n\r\n        string[] memory props = new string[](MAX_PROPERTIES_LEN);\r\n        props[0] = player.name;\r\n        props[1] = Strings.toString(player.points);\r\n\r\n        string memory fields = \"$name$ $points$\";\r\n\r\n        kanvas._generateUri(playerId, props, fields, LOST_NFT_TEMPLATE);\r\n    }\r\n\r\n    /** Bridge back game Nft function */\r\n    function withdrawTo() external payable {\r\n        address playerId = _msgSender();\r\n        Player memory player = _players[playerId];\r\n        require(player.created, \"Player does not exists\");\r\n\r\n        address gameId = address(this);\r\n        string memory uri = _tokenURIs[player.tokenId];\r\n\r\n        bytes memory data = abi.encode(player.name, player.points);\r\n\r\n        /** Cross chain transfer function */\r\n        kanvas._withdrawTo{value: msg.value}(\r\n            gameId,\r\n            playerId,\r\n            player.tokenId,\r\n            uri,\r\n            data\r\n        );\r\n\r\n        _burn(player.tokenId);\r\n        delete _tokenURIs[player.tokenId];\r\n\r\n        // player will be deleted when they transfer the game NFT\r\n        delete _players[playerId];\r\n    }\r\n\r\n    /** Cross chain receiver callback function */\r\n    function _receiveFrom(\r\n        uint64 /* chainSelector */,\r\n        address /* gameId */,\r\n        address playerId,\r\n        uint256 tokenId,\r\n        string memory uri,\r\n        bytes memory data\r\n    ) external override {\r\n        require(_msgSender() == address(kanvas), \"UnAuthorized\");\r\n\r\n        (string memory name, uint256 points) = abi.decode(\r\n            data,\r\n            (string, uint256)\r\n        );\r\n\r\n        _mint(playerId, tokenId);\r\n        _tokenURIs[tokenId] = uri;\r\n\r\n        // player will be created when they receive the game NFT\r\n        _players[playerId].name = name;\r\n        _players[playerId].points = points;\r\n        _players[playerId].created = true;\r\n\r\n        _players[playerId].tokenId = tokenId;\r\n    }\r\n\r\n    function _receiveUri(\r\n        address playerId,\r\n        string memory uri\r\n    ) external override {\r\n        require(_msgSender() == address(kanvas), \"UnAuthorized\");\r\n        _tokenURIs[_players[playerId].tokenId] = uri;\r\n    }\r\n\r\n    function tokenURI(\r\n        uint256 tokenId\r\n    ) public view virtual override returns (string memory) {\r\n        return _tokenURIs[tokenId];\r\n    }\r\n}\r\n",
  "sourcePath": "C:\\Users\\DELL\\Documents\\kanvas\\blockchain\\contracts\\use-cases\\gaming\\RockPaperScissorsInterop.sol",
  "compiler": {
    "name": "solc",
    "version": "0.8.19+commit.7dd6d404.Emscripten.clang"
  },
  "schemaVersion": "3.4.11",
  "updatedAt": "2023-12-06T17:31:26.171Z",
  "devdoc": {
    "events": {
      "Approval(address,address,uint256)": {
        "details": "Emitted when `owner` enables `approved` to manage the `tokenId` token."
      },
      "ApprovalForAll(address,address,bool)": {
        "details": "Emitted when `owner` enables or disables (`approved`) `operator` to manage all of its assets."
      },
      "Transfer(address,address,uint256)": {
        "details": "Emitted when `tokenId` token is transferred from `from` to `to`."
      }
    },
    "kind": "dev",
    "methods": {
      "approve(address,uint256)": {
        "details": "See {IERC721-approve}."
      },
      "balanceOf(address)": {
        "details": "See {IERC721-balanceOf}."
      },
      "getApproved(uint256)": {
        "details": "See {IERC721-getApproved}."
      },
      "isApprovedForAll(address,address)": {
        "details": "See {IERC721-isApprovedForAll}."
      },
      "name()": {
        "details": "See {IERC721Metadata-name}."
      },
      "owner()": {
        "details": "Returns the address of the current owner."
      },
      "ownerOf(uint256)": {
        "details": "See {IERC721-ownerOf}."
      },
      "renounceOwnership()": {
        "details": "Leaves the contract without owner. It will not be possible to call `onlyOwner` functions. Can only be called by the current owner. NOTE: Renouncing ownership will leave the contract without an owner, thereby disabling any functionality that is only available to the owner."
      },
      "safeTransferFrom(address,address,uint256)": {
        "details": "See {IERC721-safeTransferFrom}."
      },
      "safeTransferFrom(address,address,uint256,bytes)": {
        "details": "See {IERC721-safeTransferFrom}."
      },
      "setApprovalForAll(address,bool)": {
        "details": "See {IERC721-setApprovalForAll}."
      },
      "supportsInterface(bytes4)": {
        "details": "See {IERC165-supportsInterface}."
      },
      "symbol()": {
        "details": "See {IERC721Metadata-symbol}."
      },
      "tokenURI(uint256)": {
        "details": "See {IERC721Metadata-tokenURI}."
      },
      "transferFrom(address,address,uint256)": {
        "details": "See {IERC721-transferFrom}."
      },
      "transferOwnership(address)": {
        "details": "Transfers ownership of the contract to a new account (`newOwner`). Can only be called by the current owner."
      }
    },
    "version": 1
  },
  "userdoc": {
    "kind": "user",
    "methods": {
      "_receiveFrom(uint64,address,address,uint256,string,bytes)": {
        "notice": "Cross chain receiver callback function "
      },
      "downgradePlayer(address)": {
        "notice": "Reduce player points "
      },
      "upgradePlayer(address)": {
        "notice": "Increase player points "
      },
      "withdrawTo()": {
        "notice": "Bridge back game Nft function "
      }
    },
    "version": 1
  }
}