{
  "contractName": "RockPaperScissorsInterop",
  "abi": [
    {
      "inputs": [
        {
          "internalType": "address",
          "name": "kanvasRouter",
          "type": "address"
        },
        {
          "internalType": "address",
          "name": "sourceGameId",
          "type": "address"
        }
      ],
      "stateMutability": "nonpayable",
      "type": "constructor"
    },
    {
      "anonymous": false,
      "inputs": [
        {
          "indexed": true,
          "internalType": "address",
          "name": "owner",
          "type": "address"
        },
        {
          "indexed": true,
          "internalType": "address",
          "name": "approved",
          "type": "address"
        },
        {
          "indexed": true,
          "internalType": "uint256",
          "name": "tokenId",
          "type": "uint256"
        }
      ],
      "name": "Approval",
      "type": "event"
    },
    {
      "anonymous": false,
      "inputs": [
        {
          "indexed": true,
          "internalType": "address",
          "name": "owner",
          "type": "address"
        },
        {
          "indexed": true,
          "internalType": "address",
          "name": "operator",
          "type": "address"
        },
        {
          "indexed": false,
          "internalType": "bool",
          "name": "approved",
          "type": "bool"
        }
      ],
      "name": "ApprovalForAll",
      "type": "event"
    },
    {
      "anonymous": false,
      "inputs": [
        {
          "indexed": true,
          "internalType": "address",
          "name": "previousOwner",
          "type": "address"
        },
        {
          "indexed": true,
          "internalType": "address",
          "name": "newOwner",
          "type": "address"
        }
      ],
      "name": "OwnershipTransferred",
      "type": "event"
    },
    {
      "anonymous": false,
      "inputs": [
        {
          "indexed": true,
          "internalType": "address",
          "name": "from",
          "type": "address"
        },
        {
          "indexed": true,
          "internalType": "address",
          "name": "to",
          "type": "address"
        },
        {
          "indexed": true,
          "internalType": "uint256",
          "name": "tokenId",
          "type": "uint256"
        }
      ],
      "name": "Transfer",
      "type": "event"
    },
    {
      "inputs": [],
      "name": "MAX_PROPERTIES_LEN",
      "outputs": [
        {
          "internalType": "uint256",
          "name": "",
          "type": "uint256"
        }
      ],
      "stateMutability": "view",
      "type": "function"
    },
    {
      "inputs": [
        {
          "internalType": "address",
          "name": "to",
          "type": "address"
        },
        {
          "internalType": "uint256",
          "name": "tokenId",
          "type": "uint256"
        }
      ],
      "name": "approve",
      "outputs": [],
      "stateMutability": "nonpayable",
      "type": "function"
    },
    {
      "inputs": [
        {
          "internalType": "address",
          "name": "owner",
          "type": "address"
        }
      ],
      "name": "balanceOf",
      "outputs": [
        {
          "internalType": "uint256",
          "name": "",
          "type": "uint256"
        }
      ],
      "stateMutability": "view",
      "type": "function"
    },
    {
      "inputs": [
        {
          "internalType": "uint256",
          "name": "tokenId",
          "type": "uint256"
        }
      ],
      "name": "getApproved",
      "outputs": [
        {
          "internalType": "address",
          "name": "",
          "type": "address"
        }
      ],
      "stateMutability": "view",
      "type": "function"
    },
    {
      "inputs": [
        {
          "internalType": "address",
          "name": "owner",
          "type": "address"
        },
        {
          "internalType": "address",
          "name": "operator",
          "type": "address"
        }
      ],
      "name": "isApprovedForAll",
      "outputs": [
        {
          "internalType": "bool",
          "name": "",
          "type": "bool"
        }
      ],
      "stateMutability": "view",
      "type": "function"
    },
    {
      "inputs": [],
      "name": "name",
      "outputs": [
        {
          "internalType": "string",
          "name": "",
          "type": "string"
        }
      ],
      "stateMutability": "view",
      "type": "function"
    },
    {
      "inputs": [],
      "name": "owner",
      "outputs": [
        {
          "internalType": "address",
          "name": "",
          "type": "address"
        }
      ],
      "stateMutability": "view",
      "type": "function"
    },
    {
      "inputs": [
        {
          "internalType": "uint256",
          "name": "tokenId",
          "type": "uint256"
        }
      ],
      "name": "ownerOf",
      "outputs": [
        {
          "internalType": "address",
          "name": "",
          "type": "address"
        }
      ],
      "stateMutability": "view",
      "type": "function"
    },
    {
      "inputs": [],
      "name": "renounceOwnership",
      "outputs": [],
      "stateMutability": "nonpayable",
      "type": "function"
    },
    {
      "inputs": [
        {
          "internalType": "address",
          "name": "from",
          "type": "address"
        },
        {
          "internalType": "address",
          "name": "to",
          "type": "address"
        },
        {
          "internalType": "uint256",
          "name": "tokenId",
          "type": "uint256"
        }
      ],
      "name": "safeTransferFrom",
      "outputs": [],
      "stateMutability": "nonpayable",
      "type": "function"
    },
    {
      "inputs": [
        {
          "internalType": "address",
          "name": "from",
          "type": "address"
        },
        {
          "internalType": "address",
          "name": "to",
          "type": "address"
        },
        {
          "internalType": "uint256",
          "name": "tokenId",
          "type": "uint256"
        },
        {
          "internalType": "bytes",
          "name": "data",
          "type": "bytes"
        }
      ],
      "name": "safeTransferFrom",
      "outputs": [],
      "stateMutability": "nonpayable",
      "type": "function"
    },
    {
      "inputs": [
        {
          "internalType": "address",
          "name": "operator",
          "type": "address"
        },
        {
          "internalType": "bool",
          "name": "approved",
          "type": "bool"
        }
      ],
      "name": "setApprovalForAll",
      "outputs": [],
      "stateMutability": "nonpayable",
      "type": "function"
    },
    {
      "inputs": [
        {
          "internalType": "bytes4",
          "name": "interfaceId",
          "type": "bytes4"
        }
      ],
      "name": "supportsInterface",
      "outputs": [
        {
          "internalType": "bool",
          "name": "",
          "type": "bool"
        }
      ],
      "stateMutability": "view",
      "type": "function"
    },
    {
      "inputs": [],
      "name": "symbol",
      "outputs": [
        {
          "internalType": "string",
          "name": "",
          "type": "string"
        }
      ],
      "stateMutability": "view",
      "type": "function"
    },
    {
      "inputs": [
        {
          "internalType": "address",
          "name": "from",
          "type": "address"
        },
        {
          "internalType": "address",
          "name": "to",
          "type": "address"
        },
        {
          "internalType": "uint256",
          "name": "tokenId",
          "type": "uint256"
        }
      ],
      "name": "transferFrom",
      "outputs": [],
      "stateMutability": "nonpayable",
      "type": "function"
    },
    {
      "inputs": [
        {
          "internalType": "address",
          "name": "newOwner",
          "type": "address"
        }
      ],
      "name": "transferOwnership",
      "outputs": [],
      "stateMutability": "nonpayable",
      "type": "function"
    },
    {
      "stateMutability": "payable",
      "type": "receive"
    },
    {
      "inputs": [
        {
          "internalType": "address",
          "name": "playerId",
          "type": "address"
        }
      ],
      "name": "getPlayer",
      "outputs": [
        {
          "components": [
            {
              "internalType": "string",
              "name": "name",
              "type": "string"
            },
            {
              "internalType": "uint256",
              "name": "points",
              "type": "uint256"
            },
            {
              "internalType": "uint256",
              "name": "tokenId",
              "type": "uint256"
            },
            {
              "internalType": "bool",
              "name": "created",
              "type": "bool"
            }
          ],
          "internalType": "struct RockPaperScissorsInterop.Player",
          "name": "",
          "type": "tuple"
        }
      ],
      "stateMutability": "view",
      "type": "function"
    },
    {
      "inputs": [
        {
          "internalType": "address",
          "name": "playerId",
          "type": "address"
        }
      ],
      "name": "upgradePlayer",
      "outputs": [],
      "stateMutability": "nonpayable",
      "type": "function"
    },
    {
      "inputs": [
        {
          "internalType": "address",
          "name": "playerId",
          "type": "address"
        }
      ],
      "name": "downgradePlayer",
      "outputs": [],
      "stateMutability": "nonpayable",
      "type": "function"
    },
    {
      "inputs": [],
      "name": "withdrawTo",
      "outputs": [],
      "stateMutability": "payable",
      "type": "function"
    },
    {
      "inputs": [
        {
          "internalType": "uint64",
          "name": "",
          "type": "uint64"
        },
        {
          "internalType": "address",
          "name": "",
          "type": "address"
        },
        {
          "internalType": "address",
          "name": "playerId",
          "type": "address"
        },
        {
          "internalType": "uint256",
          "name": "tokenId",
          "type": "uint256"
        },
        {
          "internalType": "string",
          "name": "uri",
          "type": "string"
        },
        {
          "internalType": "bytes",
          "name": "data",
          "type": "bytes"
        }
      ],
      "name": "_receiveFrom",
      "outputs": [],
      "stateMutability": "nonpayable",
      "type": "function"
    },
    {
      "inputs": [
        {
          "internalType": "address",
          "name": "playerId",
          "type": "address"
        },
        {
          "internalType": "string",
          "name": "uri",
          "type": "string"
        }
      ],
      "name": "_receiveUri",
      "outputs": [],
      "stateMutability": "nonpayable",
      "type": "function"
    },
    {
      "inputs": [
        {
          "internalType": "uint256",
          "name": "tokenId",
          "type": "uint256"
        }
      ],
      "name": "tokenURI",
      "outputs": [
        {
          "internalType": "string",
          "name": "",
          "type": "string"
        }
      ],
      "stateMutability": "view",
      "type": "function"
    }
  ],
  "bytecode": "0x60806040523480156200001157600080fd5b5060405162004a9b38038062004a9b83398181016040528101906200003791906200031f565b6040518060400160405280601181526020017f526f636b506170657253636973736f72730000000000000000000000000000008152506040518060400160405280600381526020017f52505300000000000000000000000000000000000000000000000000000000008152508160009081620000b49190620005e0565b508060019081620000c69190620005e0565b505050620000e9620000dd620001e760201b60201c565b620001ef60201b60201c565b81600a60006101000a81548173ffffffffffffffffffffffffffffffffffffffff021916908373ffffffffffffffffffffffffffffffffffffffff160217905550600a60009054906101000a900473ffffffffffffffffffffffffffffffffffffffff1673ffffffffffffffffffffffffffffffffffffffff1663a0238f8160405180602001604052808473ffffffffffffffffffffffffffffffffffffffff168152506040518263ffffffff1660e01b8152600401620001ab9190620006f6565b600060405180830381600087803b158015620001c657600080fd5b505af1158015620001db573d6000803e3d6000fd5b50505050505062000713565b600033905090565b6000600660009054906101000a900473ffffffffffffffffffffffffffffffffffffffff16905081600660006101000a81548173ffffffffffffffffffffffffffffffffffffffff021916908373ffffffffffffffffffffffffffffffffffffffff1602179055508173ffffffffffffffffffffffffffffffffffffffff168173ffffffffffffffffffffffffffffffffffffffff167f8be0079c531659141344cd1fd0a4f28419497f9722a3daafe3b4186f6b6457e060405160405180910390a35050565b600080fd5b600073ffffffffffffffffffffffffffffffffffffffff82169050919050565b6000620002e782620002ba565b9050919050565b620002f981620002da565b81146200030557600080fd5b50565b6000815190506200031981620002ee565b92915050565b60008060408385031215620003395762000338620002b5565b5b6000620003498582860162000308565b92505060206200035c8582860162000308565b9150509250929050565b600081519050919050565b7f4e487b7100000000000000000000000000000000000000000000000000000000600052604160045260246000fd5b7f4e487b7100000000000000000000000000000000000000000000000000000000600052602260045260246000fd5b60006002820490506001821680620003e857607f821691505b602082108103620003fe57620003fd620003a0565b5b50919050565b60008190508160005260206000209050919050565b60006020601f8301049050919050565b600082821b905092915050565b600060088302620004687fffffffffffffffffffffffffffffffffffffffffffffffffffffffffffffffff8262000429565b62000474868362000429565b95508019841693508086168417925050509392505050565b6000819050919050565b6000819050919050565b6000620004c1620004bb620004b5846200048c565b62000496565b6200048c565b9050919050565b6000819050919050565b620004dd83620004a0565b620004f5620004ec82620004c8565b84845462000436565b825550505050565b600090565b6200050c620004fd565b62000519818484620004d2565b505050565b5b8181101562000541576200053560008262000502565b6001810190506200051f565b5050565b601f82111562000590576200055a8162000404565b620005658462000419565b8101602085101562000575578190505b6200058d620005848562000419565b8301826200051e565b50505b505050565b600082821c905092915050565b6000620005b56000198460080262000595565b1980831691505092915050565b6000620005d08383620005a2565b9150826002028217905092915050565b620005eb8262000366565b67ffffffffffffffff81111562000607576200060662000371565b5b620006138254620003cf565b6200062082828562000545565b600060209050601f83116001811462000658576000841562000643578287015190505b6200064f8582620005c2565b865550620006bf565b601f198416620006688662000404565b60005b8281101562000692578489015182556001820191506020850194506020810190506200066b565b86831015620006b25784890151620006ae601f891682620005a2565b8355505b6001600288020188555050505b505050505050565b620006d281620002da565b82525050565b602082016000820151620006f06000850182620006c7565b50505050565b60006020820190506200070d6000830184620006d8565b92915050565b61437880620007236000396000f3fe6080604052600436106101445760003560e01c8063715018a6116100b6578063a06422a71161006f578063a06422a714610444578063a22cb4651461046d578063b88d4fde14610496578063c87b56dd146104bf578063e985e9c5146104fc578063f2fde38b146105395761014b565b8063715018a6146103795780638b8ff358146103905780638bcd3e93146103bb5780638da5cb5b146103c55780638f9c3956146103f057806395d89b41146104195761014b565b806340f873921161010857806340f873921461024757806342842e0e146102705780635c12cd4b146102995780636352211e146102d65780636d4195fb1461031357806370a082311461033c5761014b565b806301ffc9a71461015057806306fdde031461018d578063081812fc146101b8578063095ea7b3146101f557806323b872dd1461021e5761014b565b3661014b57005b600080fd5b34801561015c57600080fd5b5061017760048036038101906101729190612b50565b610562565b6040516101849190612b98565b60405180910390f35b34801561019957600080fd5b506101a2610644565b6040516101af9190612c43565b60405180910390f35b3480156101c457600080fd5b506101df60048036038101906101da9190612c9b565b6106d6565b6040516101ec9190612d09565b60405180910390f35b34801561020157600080fd5b5061021c60048036038101906102179190612d50565b61071c565b005b34801561022a57600080fd5b5061024560048036038101906102409190612d90565b610833565b005b34801561025357600080fd5b5061026e60048036038101906102699190612de3565b610893565b005b34801561027c57600080fd5b5061029760048036038101906102929190612d90565b610b8f565b005b3480156102a557600080fd5b506102c060048036038101906102bb9190612de3565b610baf565b6040516102cd9190612edb565b60405180910390f35b3480156102e257600080fd5b506102fd60048036038101906102f89190612c9b565b610cc9565b60405161030a9190612d09565b60405180910390f35b34801561031f57600080fd5b5061033a60048036038101906103359190613113565b610d4f565b005b34801561034857600080fd5b50610363600480360381019061035e9190612de3565b610ed8565b60405161037091906131e7565b60405180910390f35b34801561038557600080fd5b5061038e610f8f565b005b34801561039c57600080fd5b506103a5610fa3565b6040516103b291906131e7565b60405180910390f35b6103c3610fa8565b005b3480156103d157600080fd5b506103da611325565b6040516103e79190612d09565b60405180910390f35b3480156103fc57600080fd5b5061041760048036038101906104129190613202565b61134f565b005b34801561042557600080fd5b5061042e6113b6565b60405161043b9190612c43565b60405180910390f35b34801561045057600080fd5b5061046b60048036038101906104669190612de3565b611448565b005b34801561047957600080fd5b50610494600480360381019061048f919061328a565b6116fc565b005b3480156104a257600080fd5b506104bd60048036038101906104b891906132ca565b611712565b005b3480156104cb57600080fd5b506104e660048036038101906104e19190612c9b565b611774565b6040516104f39190612c43565b60405180910390f35b34801561050857600080fd5b50610523600480360381019061051e919061334d565b611819565b6040516105309190612b98565b60405180910390f35b34801561054557600080fd5b50610560600480360381019061055b9190612de3565b6118ad565b005b60007f80ac58cd000000000000000000000000000000000000000000000000000000007bffffffffffffffffffffffffffffffffffffffffffffffffffffffff1916827bffffffffffffffffffffffffffffffffffffffffffffffffffffffff1916148061062d57507f5b5e139f000000000000000000000000000000000000000000000000000000007bffffffffffffffffffffffffffffffffffffffffffffffffffffffff1916827bffffffffffffffffffffffffffffffffffffffffffffffffffffffff1916145b8061063d575061063c82611930565b5b9050919050565b606060008054610653906133bc565b80601f016020809104026020016040519081016040528092919081815260200182805461067f906133bc565b80156106cc5780601f106106a1576101008083540402835291602001916106cc565b820191906000526020600020905b8154815290600101906020018083116106af57829003601f168201915b5050505050905090565b60006106e18261199a565b6004600083815260200190815260200160002060009054906101000a900473ffffffffffffffffffffffffffffffffffffffff169050919050565b600061072782610cc9565b90508073ffffffffffffffffffffffffffffffffffffffff168373ffffffffffffffffffffffffffffffffffffffff1603610797576040517f08c379a000000000000000000000000000000000000000000000000000000000815260040161078e9061345f565b60405180910390fd5b8073ffffffffffffffffffffffffffffffffffffffff166107b66119e5565b73ffffffffffffffffffffffffffffffffffffffff1614806107e557506107e4816107df6119e5565b611819565b5b610824576040517f08c379a000000000000000000000000000000000000000000000000000000000815260040161081b906134f1565b60405180910390fd5b61082e83836119ed565b505050565b61084461083e6119e5565b82611aa6565b610883576040517f08c379a000000000000000000000000000000000000000000000000000000000815260040161087a90613583565b60405180910390fd5b61088e838383611b3b565b505050565b61089b611c98565b6000600b60008373ffffffffffffffffffffffffffffffffffffffff1673ffffffffffffffffffffffffffffffffffffffff16815260200190815260200160002090508060030160009054906101000a900460ff1661092f576040517f08c379a0000000000000000000000000000000000000000000000000000000008152600401610926906135ef565b60405180910390fd5b600181600101541015610977576040517f08c379a000000000000000000000000000000000000000000000000000000000815260040161096e9061365b565b60405180910390fd5b6001816001015461098891906136aa565b81600101819055506000601467ffffffffffffffff8111156109ad576109ac612f47565b5b6040519080825280602002602001820160405280156109e057816020015b60608152602001906001900390816109cb5790505b5090508160000180546109f2906133bc565b80601f0160208091040260200160405190810160405280929190818152602001828054610a1e906133bc565b8015610a6b5780601f10610a4057610100808354040283529160200191610a6b565b820191906000526020600020905b815481529060010190602001808311610a4e57829003601f168201915b505050505081600081518110610a8457610a836136de565b5b6020026020010181905250610a9c8260010154611d16565b81600181518110610ab057610aaf6136de565b5b602002602001018190525060006040518060400160405280600f81526020017f246e616d65242024706f696e74732400000000000000000000000000000000008152509050600a60009054906101000a900473ffffffffffffffffffffffffffffffffffffffff1673ffffffffffffffffffffffffffffffffffffffff1663eee6e57385848460016040518563ffffffff1660e01b8152600401610b5794939291906137eb565b600060405180830381600087803b158015610b7157600080fd5b505af1158015610b85573d6000803e3d6000fd5b5050505050505050565b610baa83838360405180602001604052806000815250611712565b505050565b610bb7612a5d565b600b60008373ffffffffffffffffffffffffffffffffffffffff1673ffffffffffffffffffffffffffffffffffffffff168152602001908152602001600020604051806080016040529081600082018054610c11906133bc565b80601f0160208091040260200160405190810160405280929190818152602001828054610c3d906133bc565b8015610c8a5780601f10610c5f57610100808354040283529160200191610c8a565b820191906000526020600020905b815481529060010190602001808311610c6d57829003601f168201915b5050505050815260200160018201548152602001600282015481526020016003820160009054906101000a900460ff1615151515815250509050919050565b600080610cd583611de4565b9050600073ffffffffffffffffffffffffffffffffffffffff168173ffffffffffffffffffffffffffffffffffffffff1603610d46576040517f08c379a0000000000000000000000000000000000000000000000000000000008152600401610d3d9061388a565b60405180910390fd5b80915050919050565b60008082806020019051810190610d66919061392f565b91509150610d748686611e21565b83600860008781526020019081526020016000209081610d949190613b37565b5081600b60008873ffffffffffffffffffffffffffffffffffffffff1673ffffffffffffffffffffffffffffffffffffffff1681526020019081526020016000206000019081610de49190613b37565b5080600b60008873ffffffffffffffffffffffffffffffffffffffff1673ffffffffffffffffffffffffffffffffffffffff168152602001908152602001600020600101819055506001600b60008873ffffffffffffffffffffffffffffffffffffffff1673ffffffffffffffffffffffffffffffffffffffff16815260200190815260200160002060030160006101000a81548160ff02191690831515021790555084600b60008873ffffffffffffffffffffffffffffffffffffffff1673ffffffffffffffffffffffffffffffffffffffff168152602001908152602001600020600201819055505050505050505050565b60008073ffffffffffffffffffffffffffffffffffffffff168273ffffffffffffffffffffffffffffffffffffffff1603610f48576040517f08c379a0000000000000000000000000000000000000000000000000000000008152600401610f3f90613c7b565b60405180910390fd5b600360008373ffffffffffffffffffffffffffffffffffffffff1673ffffffffffffffffffffffffffffffffffffffff168152602001908152602001600020549050919050565b610f97611c98565b610fa1600061203e565b565b601481565b6000610fb26119e5565b90506000600b60008373ffffffffffffffffffffffffffffffffffffffff1673ffffffffffffffffffffffffffffffffffffffff168152602001908152602001600020604051806080016040529081600082018054611010906133bc565b80601f016020809104026020016040519081016040528092919081815260200182805461103c906133bc565b80156110895780601f1061105e57610100808354040283529160200191611089565b820191906000526020600020905b81548152906001019060200180831161106c57829003601f168201915b5050505050815260200160018201548152602001600282015481526020016003820160009054906101000a900460ff16151515158152505090508060600151611107576040517f08c379a00000000000000000000000000000000000000000000000000000000081526004016110fe90613ce7565b60405180910390fd5b6000309050600060086000846040015181526020019081526020016000208054611130906133bc565b80601f016020809104026020016040519081016040528092919081815260200182805461115c906133bc565b80156111a95780601f1061117e576101008083540402835291602001916111a9565b820191906000526020600020905b81548152906001019060200180831161118c57829003601f168201915b505050505090506000836000015184602001516040516020016111cd929190613d07565b6040516020818303038152906040529050600a60009054906101000a900473ffffffffffffffffffffffffffffffffffffffff1673ffffffffffffffffffffffffffffffffffffffff1663bc71c814348588886040015187876040518763ffffffff1660e01b8152600401611246959493929190613d8c565b6000604051808303818588803b15801561125f57600080fd5b505af1158015611273573d6000803e3d6000fd5b50505050506112858460400151612104565b600860008560400151815260200190815260200160002060006112a89190612a87565b600b60008673ffffffffffffffffffffffffffffffffffffffff1673ffffffffffffffffffffffffffffffffffffffff168152602001908152602001600020600080820160006112f89190612a87565b600182016000905560028201600090556003820160006101000a81549060ff021916905550505050505050565b6000600660009054906101000a900473ffffffffffffffffffffffffffffffffffffffff16905090565b8060086000600b60008673ffffffffffffffffffffffffffffffffffffffff1673ffffffffffffffffffffffffffffffffffffffff16815260200190815260200160002060020154815260200190815260200160002090816113b19190613b37565b505050565b6060600180546113c5906133bc565b80601f01602080910402602001604051908101604052809291908181526020018280546113f1906133bc565b801561143e5780601f106114135761010080835404028352916020019161143e565b820191906000526020600020905b81548152906001019060200180831161142157829003601f168201915b5050505050905090565b611450611c98565b6000600b60008373ffffffffffffffffffffffffffffffffffffffff1673ffffffffffffffffffffffffffffffffffffffff16815260200190815260200160002090508060030160009054906101000a900460ff166114e4576040517f08c379a00000000000000000000000000000000000000000000000000000000081526004016114db906135ef565b60405180910390fd5b600581600101546114f59190613ded565b81600101819055506000601467ffffffffffffffff81111561151a57611519612f47565b5b60405190808252806020026020018201604052801561154d57816020015b60608152602001906001900390816115385790505b50905081600001805461155f906133bc565b80601f016020809104026020016040519081016040528092919081815260200182805461158b906133bc565b80156115d85780601f106115ad576101008083540402835291602001916115d8565b820191906000526020600020905b8154815290600101906020018083116115bb57829003601f168201915b5050505050816000815181106115f1576115f06136de565b5b60200260200101819052506116098260010154611d16565b8160018151811061161d5761161c6136de565b5b602002602001018190525060006040518060400160405280600f81526020017f246e616d65242024706f696e74732400000000000000000000000000000000008152509050600a60009054906101000a900473ffffffffffffffffffffffffffffffffffffffff1673ffffffffffffffffffffffffffffffffffffffff1663eee6e57385848460006040518563ffffffff1660e01b81526004016116c494939291906137eb565b600060405180830381600087803b1580156116de57600080fd5b505af11580156116f2573d6000803e3d6000fd5b5050505050505050565b61170e6117076119e5565b8383612252565b5050565b61172361171d6119e5565b83611aa6565b611762576040517f08c379a000000000000000000000000000000000000000000000000000000000815260040161175990613583565b60405180910390fd5b61176e848484846123be565b50505050565b6060600860008381526020019081526020016000208054611794906133bc565b80601f01602080910402602001604051908101604052809291908181526020018280546117c0906133bc565b801561180d5780601f106117e25761010080835404028352916020019161180d565b820191906000526020600020905b8154815290600101906020018083116117f057829003601f168201915b50505050509050919050565b6000600560008473ffffffffffffffffffffffffffffffffffffffff1673ffffffffffffffffffffffffffffffffffffffff16815260200190815260200160002060008373ffffffffffffffffffffffffffffffffffffffff1673ffffffffffffffffffffffffffffffffffffffff16815260200190815260200160002060009054906101000a900460ff16905092915050565b6118b5611c98565b600073ffffffffffffffffffffffffffffffffffffffff168173ffffffffffffffffffffffffffffffffffffffff1603611924576040517f08c379a000000000000000000000000000000000000000000000000000000000815260040161191b90613e93565b60405180910390fd5b61192d8161203e565b50565b60007f01ffc9a7000000000000000000000000000000000000000000000000000000007bffffffffffffffffffffffffffffffffffffffffffffffffffffffff1916827bffffffffffffffffffffffffffffffffffffffffffffffffffffffff1916149050919050565b6119a38161241a565b6119e2576040517f08c379a00000000000000000000000000000000000000000000000000000000081526004016119d99061388a565b60405180910390fd5b50565b600033905090565b816004600083815260200190815260200160002060006101000a81548173ffffffffffffffffffffffffffffffffffffffff021916908373ffffffffffffffffffffffffffffffffffffffff160217905550808273ffffffffffffffffffffffffffffffffffffffff16611a6083610cc9565b73ffffffffffffffffffffffffffffffffffffffff167f8c5be1e5ebec7d5bd14f71427d1e84f3dd0314c0f7b2291e5b200ac8c7c3b92560405160405180910390a45050565b600080611ab283610cc9565b90508073ffffffffffffffffffffffffffffffffffffffff168473ffffffffffffffffffffffffffffffffffffffff161480611af45750611af38185611819565b5b80611b3257508373ffffffffffffffffffffffffffffffffffffffff16611b1a846106d6565b73ffffffffffffffffffffffffffffffffffffffff16145b91505092915050565b6000600b60008473ffffffffffffffffffffffffffffffffffffffff1673ffffffffffffffffffffffffffffffffffffffff16815260200190815260200160002090508060030160009054906101000a900460ff1615611bd0576040517f08c379a0000000000000000000000000000000000000000000000000000000008152600401611bc790613eff565b60405180910390fd5b600b60008573ffffffffffffffffffffffffffffffffffffffff1673ffffffffffffffffffffffffffffffffffffffff1681526020019081526020016000209050600b60008573ffffffffffffffffffffffffffffffffffffffff1673ffffffffffffffffffffffffffffffffffffffff16815260200190815260200160002060008082016000611c619190612a87565b600182016000905560028201600090556003820160006101000a81549060ff02191690555050611c9284848461245b565b50505050565b611ca06119e5565b73ffffffffffffffffffffffffffffffffffffffff16611cbe611325565b73ffffffffffffffffffffffffffffffffffffffff1614611d14576040517f08c379a0000000000000000000000000000000000000000000000000000000008152600401611d0b90613f6b565b60405180910390fd5b565b606060006001611d2584612754565b01905060008167ffffffffffffffff811115611d4457611d43612f47565b5b6040519080825280601f01601f191660200182016040528015611d765781602001600182028036833780820191505090505b509050600082602001820190505b600115611dd9578080600190039150507f3031323334353637383961626364656600000000000000000000000000000000600a86061a8153600a8581611dcd57611dcc613f8b565b5b04945060008503611d84575b819350505050919050565b60006002600083815260200190815260200160002060009054906101000a900473ffffffffffffffffffffffffffffffffffffffff169050919050565b600073ffffffffffffffffffffffffffffffffffffffff168273ffffffffffffffffffffffffffffffffffffffff1603611e90576040517f08c379a0000000000000000000000000000000000000000000000000000000008152600401611e8790614006565b60405180910390fd5b611e998161241a565b15611ed9576040517f08c379a0000000000000000000000000000000000000000000000000000000008152600401611ed090614072565b60405180910390fd5b611ee76000838360016128a7565b611ef08161241a565b15611f30576040517f08c379a0000000000000000000000000000000000000000000000000000000008152600401611f2790614072565b60405180910390fd5b6001600360008473ffffffffffffffffffffffffffffffffffffffff1673ffffffffffffffffffffffffffffffffffffffff16815260200190815260200160002060008282540192505081905550816002600083815260200190815260200160002060006101000a81548173ffffffffffffffffffffffffffffffffffffffff021916908373ffffffffffffffffffffffffffffffffffffffff160217905550808273ffffffffffffffffffffffffffffffffffffffff16600073ffffffffffffffffffffffffffffffffffffffff167fddf252ad1be2c89b69c2b068fc378daa952ba7f163c4a11628f55a4df523b3ef60405160405180910390a461203a6000838360016128ad565b5050565b6000600660009054906101000a900473ffffffffffffffffffffffffffffffffffffffff16905081600660006101000a81548173ffffffffffffffffffffffffffffffffffffffff021916908373ffffffffffffffffffffffffffffffffffffffff1602179055508173ffffffffffffffffffffffffffffffffffffffff168173ffffffffffffffffffffffffffffffffffffffff167f8be0079c531659141344cd1fd0a4f28419497f9722a3daafe3b4186f6b6457e060405160405180910390a35050565b600061210f82610cc9565b905061211f8160008460016128a7565b61212882610cc9565b90506004600083815260200190815260200160002060006101000a81549073ffffffffffffffffffffffffffffffffffffffff02191690556001600360008373ffffffffffffffffffffffffffffffffffffffff1673ffffffffffffffffffffffffffffffffffffffff168152602001908152602001600020600082825403925050819055506002600083815260200190815260200160002060006101000a81549073ffffffffffffffffffffffffffffffffffffffff021916905581600073ffffffffffffffffffffffffffffffffffffffff168273ffffffffffffffffffffffffffffffffffffffff167fddf252ad1be2c89b69c2b068fc378daa952ba7f163c4a11628f55a4df523b3ef60405160405180910390a461224e8160008460016128ad565b5050565b8173ffffffffffffffffffffffffffffffffffffffff168373ffffffffffffffffffffffffffffffffffffffff16036122c0576040517f08c379a00000000000000000000000000000000000000000000000000000000081526004016122b7906140de565b60405180910390fd5b80600560008573ffffffffffffffffffffffffffffffffffffffff1673ffffffffffffffffffffffffffffffffffffffff16815260200190815260200160002060008473ffffffffffffffffffffffffffffffffffffffff1673ffffffffffffffffffffffffffffffffffffffff16815260200190815260200160002060006101000a81548160ff0219169083151502179055508173ffffffffffffffffffffffffffffffffffffffff168373ffffffffffffffffffffffffffffffffffffffff167f17307eab39ab6107e8899845ad3d59bd9653f200f220920489ca2b5937696c31836040516123b19190612b98565b60405180910390a3505050565b6123c9848484611b3b565b6123d5848484846128b3565b612414576040517f08c379a000000000000000000000000000000000000000000000000000000000815260040161240b90614170565b60405180910390fd5b50505050565b60008073ffffffffffffffffffffffffffffffffffffffff1661243c83611de4565b73ffffffffffffffffffffffffffffffffffffffff1614159050919050565b8273ffffffffffffffffffffffffffffffffffffffff1661247b82610cc9565b73ffffffffffffffffffffffffffffffffffffffff16146124d1576040517f08c379a00000000000000000000000000000000000000000000000000000000081526004016124c890614202565b60405180910390fd5b600073ffffffffffffffffffffffffffffffffffffffff168273ffffffffffffffffffffffffffffffffffffffff1603612540576040517f08c379a000000000000000000000000000000000000000000000000000000000815260040161253790614294565b60405180910390fd5b61254d83838360016128a7565b8273ffffffffffffffffffffffffffffffffffffffff1661256d82610cc9565b73ffffffffffffffffffffffffffffffffffffffff16146125c3576040517f08c379a00000000000000000000000000000000000000000000000000000000081526004016125ba90614202565b60405180910390fd5b6004600082815260200190815260200160002060006101000a81549073ffffffffffffffffffffffffffffffffffffffff02191690556001600360008573ffffffffffffffffffffffffffffffffffffffff1673ffffffffffffffffffffffffffffffffffffffff168152602001908152602001600020600082825403925050819055506001600360008473ffffffffffffffffffffffffffffffffffffffff1673ffffffffffffffffffffffffffffffffffffffff16815260200190815260200160002060008282540192505081905550816002600083815260200190815260200160002060006101000a81548173ffffffffffffffffffffffffffffffffffffffff021916908373ffffffffffffffffffffffffffffffffffffffff160217905550808273ffffffffffffffffffffffffffffffffffffffff168473ffffffffffffffffffffffffffffffffffffffff167fddf252ad1be2c89b69c2b068fc378daa952ba7f163c4a11628f55a4df523b3ef60405160405180910390a461274f83838360016128ad565b505050565b600080600090507a184f03e93ff9f4daa797ed6e38ed64bf6a1f01000000000000000083106127b2577a184f03e93ff9f4daa797ed6e38ed64bf6a1f01000000000000000083816127a8576127a7613f8b565b5b0492506040810190505b6d04ee2d6d415b85acef810000000083106127ef576d04ee2d6d415b85acef810000000083816127e5576127e4613f8b565b5b0492506020810190505b662386f26fc10000831061281e57662386f26fc10000838161281457612813613f8b565b5b0492506010810190505b6305f5e1008310612847576305f5e100838161283d5761283c613f8b565b5b0492506008810190505b612710831061286c57612710838161286257612861613f8b565b5b0492506004810190505b6064831061288f576064838161288557612884613f8b565b5b0492506002810190505b600a831061289e576001810190505b80915050919050565b50505050565b50505050565b60006128d48473ffffffffffffffffffffffffffffffffffffffff16612a3a565b15612a2d578373ffffffffffffffffffffffffffffffffffffffff1663150b7a026128fd6119e5565b8786866040518563ffffffff1660e01b815260040161291f94939291906142b4565b6020604051808303816000875af192505050801561295b57506040513d601f19601f820116820180604052508101906129589190614315565b60015b6129dd573d806000811461298b576040519150601f19603f3d011682016040523d82523d6000602084013e612990565b606091505b5060008151036129d5576040517f08c379a00000000000000000000000000000000000000000000000000000000081526004016129cc90614170565b60405180910390fd5b805181602001fd5b63150b7a0260e01b7bffffffffffffffffffffffffffffffffffffffffffffffffffffffff1916817bffffffffffffffffffffffffffffffffffffffffffffffffffffffff191614915050612a32565b600190505b949350505050565b6000808273ffffffffffffffffffffffffffffffffffffffff163b119050919050565b60405180608001604052806060815260200160008152602001600081526020016000151581525090565b508054612a93906133bc565b6000825580601f10612aa55750612ac4565b601f016020900490600052602060002090810190612ac39190612ac7565b5b50565b5b80821115612ae0576000816000905550600101612ac8565b5090565b6000604051905090565b600080fd5b600080fd5b60007fffffffff0000000000000000000000000000000000000000000000000000000082169050919050565b612b2d81612af8565b8114612b3857600080fd5b50565b600081359050612b4a81612b24565b92915050565b600060208284031215612b6657612b65612aee565b5b6000612b7484828501612b3b565b91505092915050565b60008115159050919050565b612b9281612b7d565b82525050565b6000602082019050612bad6000830184612b89565b92915050565b600081519050919050565b600082825260208201905092915050565b60005b83811015612bed578082015181840152602081019050612bd2565b60008484015250505050565b6000601f19601f8301169050919050565b6000612c1582612bb3565b612c1f8185612bbe565b9350612c2f818560208601612bcf565b612c3881612bf9565b840191505092915050565b60006020820190508181036000830152612c5d8184612c0a565b905092915050565b6000819050919050565b612c7881612c65565b8114612c8357600080fd5b50565b600081359050612c9581612c6f565b92915050565b600060208284031215612cb157612cb0612aee565b5b6000612cbf84828501612c86565b91505092915050565b600073ffffffffffffffffffffffffffffffffffffffff82169050919050565b6000612cf382612cc8565b9050919050565b612d0381612ce8565b82525050565b6000602082019050612d1e6000830184612cfa565b92915050565b612d2d81612ce8565b8114612d3857600080fd5b50565b600081359050612d4a81612d24565b92915050565b60008060408385031215612d6757612d66612aee565b5b6000612d7585828601612d3b565b9250506020612d8685828601612c86565b9150509250929050565b600080600060608486031215612da957612da8612aee565b5b6000612db786828701612d3b565b9350506020612dc886828701612d3b565b9250506040612dd986828701612c86565b9150509250925092565b600060208284031215612df957612df8612aee565b5b6000612e0784828501612d3b565b91505092915050565b600082825260208201905092915050565b6000612e2c82612bb3565b612e368185612e10565b9350612e46818560208601612bcf565b612e4f81612bf9565b840191505092915050565b612e6381612c65565b82525050565b612e7281612b7d565b82525050565b60006080830160008301518482036000860152612e958282612e21565b9150506020830151612eaa6020860182612e5a565b506040830151612ebd6040860182612e5a565b506060830151612ed06060860182612e69565b508091505092915050565b60006020820190508181036000830152612ef58184612e78565b905092915050565b600067ffffffffffffffff82169050919050565b612f1a81612efd565b8114612f2557600080fd5b50565b600081359050612f3781612f11565b92915050565b600080fd5b600080fd5b7f4e487b7100000000000000000000000000000000000000000000000000000000600052604160045260246000fd5b612f7f82612bf9565b810181811067ffffffffffffffff82111715612f9e57612f9d612f47565b5b80604052505050565b6000612fb1612ae4565b9050612fbd8282612f76565b919050565b600067ffffffffffffffff821115612fdd57612fdc612f47565b5b612fe682612bf9565b9050602081019050919050565b82818337600083830152505050565b600061301561301084612fc2565b612fa7565b90508281526020810184848401111561303157613030612f42565b5b61303c848285612ff3565b509392505050565b600082601f83011261305957613058612f3d565b5b8135613069848260208601613002565b91505092915050565b600067ffffffffffffffff82111561308d5761308c612f47565b5b61309682612bf9565b9050602081019050919050565b60006130b66130b184613072565b612fa7565b9050828152602081018484840111156130d2576130d1612f42565b5b6130dd848285612ff3565b509392505050565b600082601f8301126130fa576130f9612f3d565b5b813561310a8482602086016130a3565b91505092915050565b60008060008060008060c087890312156131305761312f612aee565b5b600061313e89828a01612f28565b965050602061314f89828a01612d3b565b955050604061316089828a01612d3b565b945050606061317189828a01612c86565b935050608087013567ffffffffffffffff81111561319257613191612af3565b5b61319e89828a01613044565b92505060a087013567ffffffffffffffff8111156131bf576131be612af3565b5b6131cb89828a016130e5565b9150509295509295509295565b6131e181612c65565b82525050565b60006020820190506131fc60008301846131d8565b92915050565b6000806040838503121561321957613218612aee565b5b600061322785828601612d3b565b925050602083013567ffffffffffffffff81111561324857613247612af3565b5b61325485828601613044565b9150509250929050565b61326781612b7d565b811461327257600080fd5b50565b6000813590506132848161325e565b92915050565b600080604083850312156132a1576132a0612aee565b5b60006132af85828601612d3b565b92505060206132c085828601613275565b9150509250929050565b600080600080608085870312156132e4576132e3612aee565b5b60006132f287828801612d3b565b945050602061330387828801612d3b565b935050604061331487828801612c86565b925050606085013567ffffffffffffffff81111561333557613334612af3565b5b613341878288016130e5565b91505092959194509250565b6000806040838503121561336457613363612aee565b5b600061337285828601612d3b565b925050602061338385828601612d3b565b9150509250929050565b7f4e487b7100000000000000000000000000000000000000000000000000000000600052602260045260246000fd5b600060028204905060018216806133d457607f821691505b6020821081036133e7576133e661338d565b5b50919050565b7f4552433732313a20617070726f76616c20746f2063757272656e74206f776e6560008201527f7200000000000000000000000000000000000000000000000000000000000000602082015250565b6000613449602183612bbe565b9150613454826133ed565b604082019050919050565b600060208201905081810360008301526134788161343c565b9050919050565b7f4552433732313a20617070726f76652063616c6c6572206973206e6f7420746f60008201527f6b656e206f776e6572206f7220617070726f76656420666f7220616c6c000000602082015250565b60006134db603d83612bbe565b91506134e68261347f565b604082019050919050565b6000602082019050818103600083015261350a816134ce565b9050919050565b7f4552433732313a2063616c6c6572206973206e6f7420746f6b656e206f776e6560008201527f72206f7220617070726f76656400000000000000000000000000000000000000602082015250565b600061356d602d83612bbe565b915061357882613511565b604082019050919050565b6000602082019050818103600083015261359c81613560565b9050919050565b7f437265617465207468697320706c617965722066697273740000000000000000600082015250565b60006135d9601883612bbe565b91506135e4826135a3565b602082019050919050565b60006020820190508181036000830152613608816135cc565b9050919050565b7f416c7265616479206465666561746564203a2900000000000000000000000000600082015250565b6000613645601383612bbe565b91506136508261360f565b602082019050919050565b6000602082019050818103600083015261367481613638565b9050919050565b7f4e487b7100000000000000000000000000000000000000000000000000000000600052601160045260246000fd5b60006136b582612c65565b91506136c083612c65565b92508282039050818111156136d8576136d761367b565b5b92915050565b7f4e487b7100000000000000000000000000000000000000000000000000000000600052603260045260246000fd5b600081519050919050565b600082825260208201905092915050565b6000819050602082019050919050565b60006137458383612e21565b905092915050565b6000602082019050919050565b60006137658261370d565b61376f8185613718565b93508360208202850161378185613729565b8060005b858110156137bd578484038952815161379e8582613739565b94506137a98361374d565b925060208a01995050600181019050613785565b50829750879550505050505092915050565b600060ff82169050919050565b6137e5816137cf565b82525050565b60006080820190506138006000830187612cfa565b8181036020830152613812818661375a565b905081810360408301526138268185612c0a565b905061383560608301846137dc565b95945050505050565b7f4552433732313a20696e76616c696420746f6b656e2049440000000000000000600082015250565b6000613874601883612bbe565b915061387f8261383e565b602082019050919050565b600060208201905081810360008301526138a381613867565b9050919050565b60006138bd6138b884612fc2565b612fa7565b9050828152602081018484840111156138d9576138d8612f42565b5b6138e4848285612bcf565b509392505050565b600082601f83011261390157613900612f3d565b5b81516139118482602086016138aa565b91505092915050565b60008151905061392981612c6f565b92915050565b6000806040838503121561394657613945612aee565b5b600083015167ffffffffffffffff81111561396457613963612af3565b5b613970858286016138ec565b92505060206139818582860161391a565b9150509250929050565b60008190508160005260206000209050919050565b60006020601f8301049050919050565b600082821b905092915050565b6000600883026139ed7fffffffffffffffffffffffffffffffffffffffffffffffffffffffffffffffff826139b0565b6139f786836139b0565b95508019841693508086168417925050509392505050565b6000819050919050565b6000613a34613a2f613a2a84612c65565b613a0f565b612c65565b9050919050565b6000819050919050565b613a4e83613a19565b613a62613a5a82613a3b565b8484546139bd565b825550505050565b600090565b613a77613a6a565b613a82818484613a45565b505050565b5b81811015613aa657613a9b600082613a6f565b600181019050613a88565b5050565b601f821115613aeb57613abc8161398b565b613ac5846139a0565b81016020851015613ad4578190505b613ae8613ae0856139a0565b830182613a87565b50505b505050565b600082821c905092915050565b6000613b0e60001984600802613af0565b1980831691505092915050565b6000613b278383613afd565b9150826002028217905092915050565b613b4082612bb3565b67ffffffffffffffff811115613b5957613b58612f47565b5b613b6382546133bc565b613b6e828285613aaa565b600060209050601f831160018114613ba15760008415613b8f578287015190505b613b998582613b1b565b865550613c01565b601f198416613baf8661398b565b60005b82811015613bd757848901518255600182019150602085019450602081019050613bb2565b86831015613bf45784890151613bf0601f891682613afd565b8355505b6001600288020188555050505b505050505050565b7f4552433732313a2061646472657373207a65726f206973206e6f74206120766160008201527f6c6964206f776e65720000000000000000000000000000000000000000000000602082015250565b6000613c65602983612bbe565b9150613c7082613c09565b604082019050919050565b60006020820190508181036000830152613c9481613c58565b9050919050565b7f506c6179657220646f6573206e6f742065786973747300000000000000000000600082015250565b6000613cd1601683612bbe565b9150613cdc82613c9b565b602082019050919050565b60006020820190508181036000830152613d0081613cc4565b9050919050565b60006040820190508181036000830152613d218185612c0a565b9050613d3060208301846131d8565b9392505050565b600081519050919050565b600082825260208201905092915050565b6000613d5e82613d37565b613d688185613d42565b9350613d78818560208601612bcf565b613d8181612bf9565b840191505092915050565b600060a082019050613da16000830188612cfa565b613dae6020830187612cfa565b613dbb60408301866131d8565b8181036060830152613dcd8185612c0a565b90508181036080830152613de18184613d53565b90509695505050505050565b6000613df882612c65565b9150613e0383612c65565b9250828201905080821115613e1b57613e1a61367b565b5b92915050565b7f4f776e61626c653a206e6577206f776e657220697320746865207a65726f206160008201527f6464726573730000000000000000000000000000000000000000000000000000602082015250565b6000613e7d602683612bbe565b9150613e8882613e21565b604082019050919050565b60006020820190508181036000830152613eac81613e70565b9050919050565b7f506c6179657220686173207468656972206f776e206163636f756e7400000000600082015250565b6000613ee9601c83612bbe565b9150613ef482613eb3565b602082019050919050565b60006020820190508181036000830152613f1881613edc565b9050919050565b7f4f776e61626c653a2063616c6c6572206973206e6f7420746865206f776e6572600082015250565b6000613f55602083612bbe565b9150613f6082613f1f565b602082019050919050565b60006020820190508181036000830152613f8481613f48565b9050919050565b7f4e487b7100000000000000000000000000000000000000000000000000000000600052601260045260246000fd5b7f4552433732313a206d696e7420746f20746865207a65726f2061646472657373600082015250565b6000613ff0602083612bbe565b9150613ffb82613fba565b602082019050919050565b6000602082019050818103600083015261401f81613fe3565b9050919050565b7f4552433732313a20746f6b656e20616c7265616479206d696e74656400000000600082015250565b600061405c601c83612bbe565b915061406782614026565b602082019050919050565b6000602082019050818103600083015261408b8161404f565b9050919050565b7f4552433732313a20617070726f766520746f2063616c6c657200000000000000600082015250565b60006140c8601983612bbe565b91506140d382614092565b602082019050919050565b600060208201905081810360008301526140f7816140bb565b9050919050565b7f4552433732313a207472616e7366657220746f206e6f6e20455243373231526560008201527f63656976657220696d706c656d656e7465720000000000000000000000000000602082015250565b600061415a603283612bbe565b9150614165826140fe565b604082019050919050565b600060208201905081810360008301526141898161414d565b9050919050565b7f4552433732313a207472616e736665722066726f6d20696e636f72726563742060008201527f6f776e6572000000000000000000000000000000000000000000000000000000602082015250565b60006141ec602583612bbe565b91506141f782614190565b604082019050919050565b6000602082019050818103600083015261421b816141df565b9050919050565b7f4552433732313a207472616e7366657220746f20746865207a65726f2061646460008201527f7265737300000000000000000000000000000000000000000000000000000000602082015250565b600061427e602483612bbe565b915061428982614222565b604082019050919050565b600060208201905081810360008301526142ad81614271565b9050919050565b60006080820190506142c96000830187612cfa565b6142d66020830186612cfa565b6142e360408301856131d8565b81810360608301526142f58184613d53565b905095945050505050565b60008151905061430f81612b24565b92915050565b60006020828403121561432b5761432a612aee565b5b600061433984828501614300565b9150509291505056fea26469706673582212204bb11a3d00ac20934e157a0565bfaabb1c56c4ea2cfaa00d8e0dc755eb9c3eb964736f6c63430008130033",
  "immutableReferences": {},
  "source": "// SPDX-License-Identifier: MIT\r\npragma solidity ^0.8.19;\r\n\r\nimport {Params} from \"../libraries/Params.sol\";\r\nimport {IKanvasInterop} from \"../interfaces/IKanvasInterop.sol\";\r\nimport {IKanvasInteropGame} from \"../interfaces/IKanvasInteropGame.sol\";\r\n\r\nimport {Ownable} from \"@openzeppelin/contracts/access/Ownable.sol\";\r\nimport {ERC721} from \"@openzeppelin/contracts/token/ERC721/ERC721.sol\";\r\nimport {Strings} from \"@openzeppelin/contracts/utils/Strings.sol\";\r\n\r\ncontract RockPaperScissorsInterop is IKanvasInteropGame, ERC721, Ownable {\r\n    uint256 public constant MAX_PROPERTIES_LEN = 20;\r\n\r\n    uint8 private constant WIN_NFT_TEMPLATE = 0;\r\n    uint8 private constant LOST_NFT_TEMPLATE = 1;\r\n\r\n    uint256 private _tokenId;\r\n\r\n    mapping(uint256 => string) private _tokenURIs;\r\n    mapping(address => uint256) private _playerNfts;\r\n\r\n    IKanvasInterop private kanvas;\r\n\r\n    struct Player {\r\n        string name;\r\n        uint256 points;\r\n        uint256 tokenId;\r\n        bool created;\r\n    }\r\n\r\n    receive() external payable {}\r\n\r\n    mapping(address => Player) private _players;\r\n\r\n    constructor(\r\n        address kanvasRouter,\r\n        address sourceGameId\r\n    ) ERC721(\"RockPaperScissors\", \"RPS\") IKanvasInteropGame() Ownable() {\r\n        kanvas = IKanvasInterop(kanvasRouter);\r\n        kanvas._createGame(Params.InteropGame({sourceGameId: sourceGameId}));\r\n    }\r\n\r\n    function _transfer(\r\n        address from,\r\n        address to,\r\n        uint256 tokenId\r\n    ) internal override {\r\n        Player storage newPlayer = _players[to];\r\n        // check if receiver has their own account\r\n        require(!newPlayer.created, \"Player has their own account\");\r\n\r\n        // create new player account\r\n        newPlayer = _players[from];\r\n\r\n        // delete sender accounts\r\n        delete _players[from];\r\n\r\n        super._transfer(from, to, tokenId);\r\n    }\r\n\r\n    // Retsrns the player struct\r\n    function getPlayer(address playerId) external view returns (Player memory) {\r\n        return _players[playerId];\r\n    }\r\n\r\n    /** Increase player points */\r\n    function upgradePlayer(address playerId) external onlyOwner {\r\n        Player storage player = _players[playerId];\r\n        require(player.created, \"Create this player first\");\r\n\r\n        player.points = player.points + 5;\r\n\r\n        string[] memory props = new string[](MAX_PROPERTIES_LEN);\r\n        props[0] = player.name;\r\n        props[1] = Strings.toString(player.points);\r\n\r\n        string memory fields = \"$name$ $points$\";\r\n\r\n        kanvas._generateUri(playerId, props, fields, WIN_NFT_TEMPLATE);\r\n    }\r\n\r\n    /** Reduce player points */\r\n    function downgradePlayer(address playerId) external onlyOwner {\r\n        Player storage player = _players[playerId];\r\n        require(player.created, \"Create this player first\");\r\n        require(player.points >= 1, \"Already defeated :)\");\r\n\r\n        player.points = player.points - 1;\r\n\r\n        string[] memory props = new string[](MAX_PROPERTIES_LEN);\r\n        props[0] = player.name;\r\n        props[1] = Strings.toString(player.points);\r\n\r\n        string memory fields = \"$name$ $points$\";\r\n\r\n        kanvas._generateUri(playerId, props, fields, LOST_NFT_TEMPLATE);\r\n    }\r\n\r\n    /** Bridge back game Nft function */\r\n    function withdrawTo() external payable {\r\n        address playerId = _msgSender();\r\n        Player memory player = _players[playerId];\r\n        require(player.created, \"Player does not exists\");\r\n\r\n        address gameId = address(this);\r\n        string memory uri = _tokenURIs[player.tokenId];\r\n\r\n        bytes memory data = abi.encode(player.name, player.points);\r\n\r\n        /** Cross chain transfer function */\r\n        kanvas._withdrawTo{value: msg.value}(\r\n            gameId,\r\n            playerId,\r\n            player.tokenId,\r\n            uri,\r\n            data\r\n        );\r\n\r\n        _burn(player.tokenId);\r\n        delete _tokenURIs[player.tokenId];\r\n\r\n        // player will be deleted when they transfer the game NFT\r\n        delete _players[playerId];\r\n    }\r\n\r\n    /** Cross chain receiver callback function */\r\n    function _receiveFrom(\r\n        uint64 /* chainSelector */,\r\n        address /* gameId */,\r\n        address playerId,\r\n        uint256 tokenId,\r\n        string memory uri,\r\n        bytes memory data\r\n    ) external override {\r\n        (string memory name, uint256 points) = abi.decode(\r\n            data,\r\n            (string, uint256)\r\n        );\r\n\r\n        _mint(playerId, tokenId);\r\n        _tokenURIs[tokenId] = uri;\r\n\r\n        // player will be created when they receive the game NFT\r\n        _players[playerId].name = name;\r\n        _players[playerId].points = points;\r\n        _players[playerId].created = true;\r\n\r\n        _players[playerId].tokenId = tokenId;\r\n    }\r\n\r\n    function _receiveUri(\r\n        address playerId,\r\n        string memory uri\r\n    ) external override {\r\n        _tokenURIs[_players[playerId].tokenId] = uri;\r\n    }\r\n\r\n    function tokenURI(\r\n        uint256 tokenId\r\n    ) public view virtual override returns (string memory) {\r\n        return _tokenURIs[tokenId];\r\n    }\r\n}\r\n",
  "sourcePath": "C:\\Users\\DELL\\Documents\\kanvas\\blockchain\\contracts\\rock-paper-scissors\\RockPaperScissorsInterop.sol",
  "compiler": {
    "name": "solc",
    "version": "0.8.19+commit.7dd6d404.Emscripten.clang"
  },
  "schemaVersion": "3.4.11",
  "updatedAt": "2023-12-06T16:32:49.640Z",
  "devdoc": {
    "events": {
      "Approval(address,address,uint256)": {
        "details": "Emitted when `owner` enables `approved` to manage the `tokenId` token."
      },
      "ApprovalForAll(address,address,bool)": {
        "details": "Emitted when `owner` enables or disables (`approved`) `operator` to manage all of its assets."
      },
      "Transfer(address,address,uint256)": {
        "details": "Emitted when `tokenId` token is transferred from `from` to `to`."
      }
    },
    "kind": "dev",
    "methods": {
      "approve(address,uint256)": {
        "details": "See {IERC721-approve}."
      },
      "balanceOf(address)": {
        "details": "See {IERC721-balanceOf}."
      },
      "getApproved(uint256)": {
        "details": "See {IERC721-getApproved}."
      },
      "isApprovedForAll(address,address)": {
        "details": "See {IERC721-isApprovedForAll}."
      },
      "name()": {
        "details": "See {IERC721Metadata-name}."
      },
      "owner()": {
        "details": "Returns the address of the current owner."
      },
      "ownerOf(uint256)": {
        "details": "See {IERC721-ownerOf}."
      },
      "renounceOwnership()": {
        "details": "Leaves the contract without owner. It will not be possible to call `onlyOwner` functions. Can only be called by the current owner. NOTE: Renouncing ownership will leave the contract without an owner, thereby disabling any functionality that is only available to the owner."
      },
      "safeTransferFrom(address,address,uint256)": {
        "details": "See {IERC721-safeTransferFrom}."
      },
      "safeTransferFrom(address,address,uint256,bytes)": {
        "details": "See {IERC721-safeTransferFrom}."
      },
      "setApprovalForAll(address,bool)": {
        "details": "See {IERC721-setApprovalForAll}."
      },
      "supportsInterface(bytes4)": {
        "details": "See {IERC165-supportsInterface}."
      },
      "symbol()": {
        "details": "See {IERC721Metadata-symbol}."
      },
      "tokenURI(uint256)": {
        "details": "See {IERC721Metadata-tokenURI}."
      },
      "transferFrom(address,address,uint256)": {
        "details": "See {IERC721-transferFrom}."
      },
      "transferOwnership(address)": {
        "details": "Transfers ownership of the contract to a new account (`newOwner`). Can only be called by the current owner."
      }
    },
    "version": 1
  },
  "userdoc": {
    "kind": "user",
    "methods": {
      "_receiveFrom(uint64,address,address,uint256,string,bytes)": {
        "notice": "Cross chain receiver callback function "
      },
      "downgradePlayer(address)": {
        "notice": "Reduce player points "
      },
      "upgradePlayer(address)": {
        "notice": "Increase player points "
      },
      "withdrawTo()": {
        "notice": "Bridge back game Nft function "
      }
    },
    "version": 1
  }
}