{
  "contractName": "RockPaperScissors",
  "abi": [
    {
      "inputs": [
        {
          "internalType": "address",
          "name": "kanvasRouter",
          "type": "address"
        }
      ],
      "stateMutability": "nonpayable",
      "type": "constructor"
    },
    {
      "anonymous": false,
      "inputs": [
        {
          "indexed": true,
          "internalType": "address",
          "name": "owner",
          "type": "address"
        },
        {
          "indexed": true,
          "internalType": "address",
          "name": "approved",
          "type": "address"
        },
        {
          "indexed": true,
          "internalType": "uint256",
          "name": "tokenId",
          "type": "uint256"
        }
      ],
      "name": "Approval",
      "type": "event"
    },
    {
      "anonymous": false,
      "inputs": [
        {
          "indexed": true,
          "internalType": "address",
          "name": "owner",
          "type": "address"
        },
        {
          "indexed": true,
          "internalType": "address",
          "name": "operator",
          "type": "address"
        },
        {
          "indexed": false,
          "internalType": "bool",
          "name": "approved",
          "type": "bool"
        }
      ],
      "name": "ApprovalForAll",
      "type": "event"
    },
    {
      "anonymous": false,
      "inputs": [
        {
          "indexed": true,
          "internalType": "address",
          "name": "previousOwner",
          "type": "address"
        },
        {
          "indexed": true,
          "internalType": "address",
          "name": "newOwner",
          "type": "address"
        }
      ],
      "name": "OwnershipTransferred",
      "type": "event"
    },
    {
      "anonymous": false,
      "inputs": [
        {
          "indexed": true,
          "internalType": "address",
          "name": "from",
          "type": "address"
        },
        {
          "indexed": true,
          "internalType": "address",
          "name": "to",
          "type": "address"
        },
        {
          "indexed": true,
          "internalType": "uint256",
          "name": "tokenId",
          "type": "uint256"
        }
      ],
      "name": "Transfer",
      "type": "event"
    },
    {
      "inputs": [],
      "name": "MAX_PROPERTIES_LEN",
      "outputs": [
        {
          "internalType": "uint256",
          "name": "",
          "type": "uint256"
        }
      ],
      "stateMutability": "view",
      "type": "function",
      "constant": true
    },
    {
      "inputs": [
        {
          "internalType": "address",
          "name": "to",
          "type": "address"
        },
        {
          "internalType": "uint256",
          "name": "tokenId",
          "type": "uint256"
        }
      ],
      "name": "approve",
      "outputs": [],
      "stateMutability": "nonpayable",
      "type": "function"
    },
    {
      "inputs": [
        {
          "internalType": "address",
          "name": "owner",
          "type": "address"
        }
      ],
      "name": "balanceOf",
      "outputs": [
        {
          "internalType": "uint256",
          "name": "",
          "type": "uint256"
        }
      ],
      "stateMutability": "view",
      "type": "function",
      "constant": true
    },
    {
      "inputs": [
        {
          "internalType": "uint256",
          "name": "tokenId",
          "type": "uint256"
        }
      ],
      "name": "getApproved",
      "outputs": [
        {
          "internalType": "address",
          "name": "",
          "type": "address"
        }
      ],
      "stateMutability": "view",
      "type": "function",
      "constant": true
    },
    {
      "inputs": [
        {
          "internalType": "address",
          "name": "owner",
          "type": "address"
        },
        {
          "internalType": "address",
          "name": "operator",
          "type": "address"
        }
      ],
      "name": "isApprovedForAll",
      "outputs": [
        {
          "internalType": "bool",
          "name": "",
          "type": "bool"
        }
      ],
      "stateMutability": "view",
      "type": "function",
      "constant": true
    },
    {
      "inputs": [],
      "name": "name",
      "outputs": [
        {
          "internalType": "string",
          "name": "",
          "type": "string"
        }
      ],
      "stateMutability": "view",
      "type": "function",
      "constant": true
    },
    {
      "inputs": [],
      "name": "owner",
      "outputs": [
        {
          "internalType": "address",
          "name": "",
          "type": "address"
        }
      ],
      "stateMutability": "view",
      "type": "function",
      "constant": true
    },
    {
      "inputs": [
        {
          "internalType": "uint256",
          "name": "tokenId",
          "type": "uint256"
        }
      ],
      "name": "ownerOf",
      "outputs": [
        {
          "internalType": "address",
          "name": "",
          "type": "address"
        }
      ],
      "stateMutability": "view",
      "type": "function",
      "constant": true
    },
    {
      "inputs": [],
      "name": "renounceOwnership",
      "outputs": [],
      "stateMutability": "nonpayable",
      "type": "function"
    },
    {
      "inputs": [
        {
          "internalType": "address",
          "name": "from",
          "type": "address"
        },
        {
          "internalType": "address",
          "name": "to",
          "type": "address"
        },
        {
          "internalType": "uint256",
          "name": "tokenId",
          "type": "uint256"
        }
      ],
      "name": "safeTransferFrom",
      "outputs": [],
      "stateMutability": "nonpayable",
      "type": "function"
    },
    {
      "inputs": [
        {
          "internalType": "address",
          "name": "from",
          "type": "address"
        },
        {
          "internalType": "address",
          "name": "to",
          "type": "address"
        },
        {
          "internalType": "uint256",
          "name": "tokenId",
          "type": "uint256"
        },
        {
          "internalType": "bytes",
          "name": "data",
          "type": "bytes"
        }
      ],
      "name": "safeTransferFrom",
      "outputs": [],
      "stateMutability": "nonpayable",
      "type": "function"
    },
    {
      "inputs": [
        {
          "internalType": "address",
          "name": "operator",
          "type": "address"
        },
        {
          "internalType": "bool",
          "name": "approved",
          "type": "bool"
        }
      ],
      "name": "setApprovalForAll",
      "outputs": [],
      "stateMutability": "nonpayable",
      "type": "function"
    },
    {
      "inputs": [
        {
          "internalType": "bytes4",
          "name": "interfaceId",
          "type": "bytes4"
        }
      ],
      "name": "supportsInterface",
      "outputs": [
        {
          "internalType": "bool",
          "name": "",
          "type": "bool"
        }
      ],
      "stateMutability": "view",
      "type": "function",
      "constant": true
    },
    {
      "inputs": [],
      "name": "symbol",
      "outputs": [
        {
          "internalType": "string",
          "name": "",
          "type": "string"
        }
      ],
      "stateMutability": "view",
      "type": "function",
      "constant": true
    },
    {
      "inputs": [
        {
          "internalType": "address",
          "name": "from",
          "type": "address"
        },
        {
          "internalType": "address",
          "name": "to",
          "type": "address"
        },
        {
          "internalType": "uint256",
          "name": "tokenId",
          "type": "uint256"
        }
      ],
      "name": "transferFrom",
      "outputs": [],
      "stateMutability": "nonpayable",
      "type": "function"
    },
    {
      "inputs": [
        {
          "internalType": "address",
          "name": "newOwner",
          "type": "address"
        }
      ],
      "name": "transferOwnership",
      "outputs": [],
      "stateMutability": "nonpayable",
      "type": "function"
    },
    {
      "inputs": [
        {
          "internalType": "address",
          "name": "playerId",
          "type": "address"
        },
        {
          "internalType": "string",
          "name": "name",
          "type": "string"
        }
      ],
      "name": "createPlayer",
      "outputs": [],
      "stateMutability": "nonpayable",
      "type": "function"
    },
    {
      "inputs": [
        {
          "internalType": "address",
          "name": "playerId",
          "type": "address"
        }
      ],
      "name": "getPlayer",
      "outputs": [
        {
          "components": [
            {
              "internalType": "string",
              "name": "name",
              "type": "string"
            },
            {
              "internalType": "uint256",
              "name": "points",
              "type": "uint256"
            },
            {
              "internalType": "uint256",
              "name": "tokenId",
              "type": "uint256"
            },
            {
              "internalType": "bool",
              "name": "created",
              "type": "bool"
            }
          ],
          "internalType": "struct RockPaperScissors.Player",
          "name": "",
          "type": "tuple"
        }
      ],
      "stateMutability": "view",
      "type": "function",
      "constant": true
    },
    {
      "inputs": [
        {
          "internalType": "address",
          "name": "playerId",
          "type": "address"
        }
      ],
      "name": "upgradePlayer",
      "outputs": [],
      "stateMutability": "nonpayable",
      "type": "function"
    },
    {
      "inputs": [
        {
          "internalType": "address",
          "name": "playerId",
          "type": "address"
        }
      ],
      "name": "downgradePlayer",
      "outputs": [],
      "stateMutability": "nonpayable",
      "type": "function"
    },
    {
      "inputs": [
        {
          "internalType": "uint64",
          "name": "chainSelector",
          "type": "uint64"
        }
      ],
      "name": "transferTo",
      "outputs": [],
      "stateMutability": "payable",
      "type": "function",
      "payable": true
    },
    {
      "inputs": [
        {
          "internalType": "uint64",
          "name": "",
          "type": "uint64"
        },
        {
          "internalType": "address",
          "name": "",
          "type": "address"
        },
        {
          "internalType": "address",
          "name": "playerId",
          "type": "address"
        },
        {
          "internalType": "uint256",
          "name": "tokenId",
          "type": "uint256"
        },
        {
          "internalType": "string",
          "name": "uri",
          "type": "string"
        },
        {
          "internalType": "bytes",
          "name": "data",
          "type": "bytes"
        }
      ],
      "name": "_receiveFrom",
      "outputs": [],
      "stateMutability": "nonpayable",
      "type": "function"
    },
    {
      "inputs": [
        {
          "internalType": "address",
          "name": "playerId",
          "type": "address"
        },
        {
          "internalType": "string",
          "name": "uri",
          "type": "string"
        }
      ],
      "name": "_receiveUri",
      "outputs": [],
      "stateMutability": "nonpayable",
      "type": "function"
    },
    {
      "inputs": [
        {
          "internalType": "uint256",
          "name": "tokenId",
          "type": "uint256"
        }
      ],
      "name": "tokenURI",
      "outputs": [
        {
          "internalType": "string",
          "name": "",
          "type": "string"
        }
      ],
      "stateMutability": "view",
      "type": "function",
      "constant": true
    }
  ],
  "bytecode": "0x60806040523480156200001157600080fd5b5060405162004dc938038062004dc9833981810160405281019062000037919062000269565b6040518060400160405280601181526020017f526f636b506170657253636973736f72730000000000000000000000000000008152506040518060400160405280600381526020017f52505300000000000000000000000000000000000000000000000000000000008152508160009081620000b4919062000515565b508060019081620000c6919062000515565b505050620000e9620000dd6200013160201b60201c565b6200013960201b60201c565b80600960006101000a81548173ffffffffffffffffffffffffffffffffffffffff021916908373ffffffffffffffffffffffffffffffffffffffff16021790555050620005fc565b600033905090565b6000600660009054906101000a900473ffffffffffffffffffffffffffffffffffffffff16905081600660006101000a81548173ffffffffffffffffffffffffffffffffffffffff021916908373ffffffffffffffffffffffffffffffffffffffff1602179055508173ffffffffffffffffffffffffffffffffffffffff168173ffffffffffffffffffffffffffffffffffffffff167f8be0079c531659141344cd1fd0a4f28419497f9722a3daafe3b4186f6b6457e060405160405180910390a35050565b600080fd5b600073ffffffffffffffffffffffffffffffffffffffff82169050919050565b6000620002318262000204565b9050919050565b620002438162000224565b81146200024f57600080fd5b50565b600081519050620002638162000238565b92915050565b600060208284031215620002825762000281620001ff565b5b6000620002928482850162000252565b91505092915050565b600081519050919050565b7f4e487b7100000000000000000000000000000000000000000000000000000000600052604160045260246000fd5b7f4e487b7100000000000000000000000000000000000000000000000000000000600052602260045260246000fd5b600060028204905060018216806200031d57607f821691505b602082108103620003335762000332620002d5565b5b50919050565b60008190508160005260206000209050919050565b60006020601f8301049050919050565b600082821b905092915050565b6000600883026200039d7fffffffffffffffffffffffffffffffffffffffffffffffffffffffffffffffff826200035e565b620003a986836200035e565b95508019841693508086168417925050509392505050565b6000819050919050565b6000819050919050565b6000620003f6620003f0620003ea84620003c1565b620003cb565b620003c1565b9050919050565b6000819050919050565b6200041283620003d5565b6200042a6200042182620003fd565b8484546200036b565b825550505050565b600090565b6200044162000432565b6200044e81848462000407565b505050565b5b8181101562000476576200046a60008262000437565b60018101905062000454565b5050565b601f821115620004c5576200048f8162000339565b6200049a846200034e565b81016020851015620004aa578190505b620004c2620004b9856200034e565b83018262000453565b50505b505050565b600082821c905092915050565b6000620004ea60001984600802620004ca565b1980831691505092915050565b6000620005058383620004d7565b9150826002028217905092915050565b62000520826200029b565b67ffffffffffffffff8111156200053c576200053b620002a6565b5b62000548825462000304565b620005558282856200047a565b600060209050601f8311600181146200058d576000841562000578578287015190505b620005848582620004f7565b865550620005f4565b601f1984166200059d8662000339565b60005b82811015620005c757848901518255600182019150602085019450602081019050620005a0565b86831015620005e75784890151620005e3601f891682620004d7565b8355505b6001600288020188555050505b505050505050565b6147bd806200060c6000396000f3fe60806040526004361061014b5760003560e01c80638b8ff358116100b6578063af3ef62e1161006f578063af3ef62e1461048c578063b64fe1c6146104a8578063b88d4fde146104d1578063c87b56dd146104fa578063e985e9c514610537578063f2fde38b146105745761014b565b80638b8ff358146103905780638da5cb5b146103bb5780638f9c3956146103e657806395d89b411461040f578063a06422a71461043a578063a22cb465146104635761014b565b806342842e0e1161010857806342842e0e146102705780635c12cd4b146102995780636352211e146102d65780636d4195fb1461031357806370a082311461033c578063715018a6146103795761014b565b806301ffc9a71461015057806306fdde031461018d578063081812fc146101b8578063095ea7b3146101f557806323b872dd1461021e57806340f8739214610247575b600080fd5b34801561015c57600080fd5b5061017760048036038101906101729190612e97565b61059d565b6040516101849190612edf565b60405180910390f35b34801561019957600080fd5b506101a261067f565b6040516101af9190612f8a565b60405180910390f35b3480156101c457600080fd5b506101df60048036038101906101da9190612fe2565b610711565b6040516101ec9190613050565b60405180910390f35b34801561020157600080fd5b5061021c60048036038101906102179190613097565b610757565b005b34801561022a57600080fd5b50610245600480360381019061024091906130d7565b61086e565b005b34801561025357600080fd5b5061026e6004803603810190610269919061312a565b6108ce565b005b34801561027c57600080fd5b50610297600480360381019061029291906130d7565b610bca565b005b3480156102a557600080fd5b506102c060048036038101906102bb919061312a565b610bea565b6040516102cd9190613222565b60405180910390f35b3480156102e257600080fd5b506102fd60048036038101906102f89190612fe2565b610d04565b60405161030a9190613050565b60405180910390f35b34801561031f57600080fd5b5061033a6004803603810190610335919061345a565b610d8a565b005b34801561034857600080fd5b50610363600480360381019061035e919061312a565b610eb8565b604051610370919061352e565b60405180910390f35b34801561038557600080fd5b5061038e610f6f565b005b34801561039c57600080fd5b506103a5610f83565b6040516103b2919061352e565b60405180910390f35b3480156103c757600080fd5b506103d0610f88565b6040516103dd9190613050565b60405180910390f35b3480156103f257600080fd5b5061040d60048036038101906104089190613549565b610fb2565b005b34801561041b57600080fd5b506104246110af565b6040516104319190612f8a565b60405180910390f35b34801561044657600080fd5b50610461600480360381019061045c919061312a565b611141565b005b34801561046f57600080fd5b5061048a600480360381019061048591906135d1565b6113f5565b005b6104a660048036038101906104a19190613611565b61140b565b005b3480156104b457600080fd5b506104cf60048036038101906104ca9190613549565b61178b565b005b3480156104dd57600080fd5b506104f860048036038101906104f3919061363e565b611a59565b005b34801561050657600080fd5b50610521600480360381019061051c9190612fe2565b611abb565b60405161052e9190612f8a565b60405180910390f35b34801561054357600080fd5b5061055e600480360381019061055991906136c1565b611b60565b60405161056b9190612edf565b60405180910390f35b34801561058057600080fd5b5061059b6004803603810190610596919061312a565b611bf4565b005b60007f80ac58cd000000000000000000000000000000000000000000000000000000007bffffffffffffffffffffffffffffffffffffffffffffffffffffffff1916827bffffffffffffffffffffffffffffffffffffffffffffffffffffffff1916148061066857507f5b5e139f000000000000000000000000000000000000000000000000000000007bffffffffffffffffffffffffffffffffffffffffffffffffffffffff1916827bffffffffffffffffffffffffffffffffffffffffffffffffffffffff1916145b80610678575061067782611c77565b5b9050919050565b60606000805461068e90613730565b80601f01602080910402602001604051908101604052809291908181526020018280546106ba90613730565b80156107075780601f106106dc57610100808354040283529160200191610707565b820191906000526020600020905b8154815290600101906020018083116106ea57829003601f168201915b5050505050905090565b600061071c82611ce1565b6004600083815260200190815260200160002060009054906101000a900473ffffffffffffffffffffffffffffffffffffffff169050919050565b600061076282610d04565b90508073ffffffffffffffffffffffffffffffffffffffff168373ffffffffffffffffffffffffffffffffffffffff16036107d2576040517f08c379a00000000000000000000000000000000000000000000000000000000081526004016107c9906137d3565b60405180910390fd5b8073ffffffffffffffffffffffffffffffffffffffff166107f1611d2c565b73ffffffffffffffffffffffffffffffffffffffff161480610820575061081f8161081a611d2c565b611b60565b5b61085f576040517f08c379a000000000000000000000000000000000000000000000000000000000815260040161085690613865565b60405180910390fd5b6108698383611d34565b505050565b61087f610879611d2c565b82611ded565b6108be576040517f08c379a00000000000000000000000000000000000000000000000000000000081526004016108b5906138f7565b60405180910390fd5b6108c9838383611e82565b505050565b6108d6611fdf565b6000600a60008373ffffffffffffffffffffffffffffffffffffffff1673ffffffffffffffffffffffffffffffffffffffff16815260200190815260200160002090508060030160009054906101000a900460ff1661096a576040517f08c379a000000000000000000000000000000000000000000000000000000000815260040161096190613963565b60405180910390fd5b6001816001015410156109b2576040517f08c379a00000000000000000000000000000000000000000000000000000000081526004016109a9906139cf565b60405180910390fd5b600181600101546109c39190613a1e565b81600101819055506000601467ffffffffffffffff8111156109e8576109e761328e565b5b604051908082528060200260200182016040528015610a1b57816020015b6060815260200190600190039081610a065790505b509050816000018054610a2d90613730565b80601f0160208091040260200160405190810160405280929190818152602001828054610a5990613730565b8015610aa65780601f10610a7b57610100808354040283529160200191610aa6565b820191906000526020600020905b815481529060010190602001808311610a8957829003601f168201915b505050505081600081518110610abf57610abe613a52565b5b6020026020010181905250610ad7826001015461205d565b81600181518110610aeb57610aea613a52565b5b602002602001018190525060006040518060400160405280600f81526020017f246e616d65242024706f696e74732400000000000000000000000000000000008152509050600960009054906101000a900473ffffffffffffffffffffffffffffffffffffffff1673ffffffffffffffffffffffffffffffffffffffff1663eee6e57385848460016040518563ffffffff1660e01b8152600401610b929493929190613b5f565b600060405180830381600087803b158015610bac57600080fd5b505af1158015610bc0573d6000803e3d6000fd5b5050505050505050565b610be583838360405180602001604052806000815250611a59565b505050565b610bf2612da4565b600a60008373ffffffffffffffffffffffffffffffffffffffff1673ffffffffffffffffffffffffffffffffffffffff168152602001908152602001600020604051806080016040529081600082018054610c4c90613730565b80601f0160208091040260200160405190810160405280929190818152602001828054610c7890613730565b8015610cc55780601f10610c9a57610100808354040283529160200191610cc5565b820191906000526020600020905b815481529060010190602001808311610ca857829003601f168201915b5050505050815260200160018201548152602001600282015481526020016003820160009054906101000a900460ff1615151515815250509050919050565b600080610d108361212b565b9050600073ffffffffffffffffffffffffffffffffffffffff168173ffffffffffffffffffffffffffffffffffffffff1603610d81576040517f08c379a0000000000000000000000000000000000000000000000000000000008152600401610d7890613bfe565b60405180910390fd5b80915050919050565b60008082806020019051810190610da19190613ca3565b91509150610daf8686612168565b83600860008781526020019081526020016000209081610dcf9190613eab565b5081600a60008873ffffffffffffffffffffffffffffffffffffffff1673ffffffffffffffffffffffffffffffffffffffff1681526020019081526020016000206000019081610e1f9190613eab565b5080600a60008873ffffffffffffffffffffffffffffffffffffffff1673ffffffffffffffffffffffffffffffffffffffff1681526020019081526020016000206001018190555084600a60008873ffffffffffffffffffffffffffffffffffffffff1673ffffffffffffffffffffffffffffffffffffffff168152602001908152602001600020600201819055505050505050505050565b60008073ffffffffffffffffffffffffffffffffffffffff168273ffffffffffffffffffffffffffffffffffffffff1603610f28576040517f08c379a0000000000000000000000000000000000000000000000000000000008152600401610f1f90613fef565b60405180910390fd5b600360008373ffffffffffffffffffffffffffffffffffffffff1673ffffffffffffffffffffffffffffffffffffffff168152602001908152602001600020549050919050565b610f77611fdf565b610f816000612385565b565b601481565b6000600660009054906101000a900473ffffffffffffffffffffffffffffffffffffffff16905090565b6000600a60008473ffffffffffffffffffffffffffffffffffffffff1673ffffffffffffffffffffffffffffffffffffffff16815260200190815260200160002090508060030160009054906101000a900460ff16611046576040517f08c379a000000000000000000000000000000000000000000000000000000000815260040161103d9061405b565b60405180910390fd5b60008160020154905060008103611088576007600081548092919061106a9061407b565b9190505550600754905061107e8482612168565b8082600201819055505b826008600083815260200190815260200160002090816110a89190613eab565b5050505050565b6060600180546110be90613730565b80601f01602080910402602001604051908101604052809291908181526020018280546110ea90613730565b80156111375780601f1061110c57610100808354040283529160200191611137565b820191906000526020600020905b81548152906001019060200180831161111a57829003601f168201915b5050505050905090565b611149611fdf565b6000600a60008373ffffffffffffffffffffffffffffffffffffffff1673ffffffffffffffffffffffffffffffffffffffff16815260200190815260200160002090508060030160009054906101000a900460ff166111dd576040517f08c379a00000000000000000000000000000000000000000000000000000000081526004016111d490613963565b60405180910390fd5b600581600101546111ee91906140c3565b81600101819055506000601467ffffffffffffffff8111156112135761121261328e565b5b60405190808252806020026020018201604052801561124657816020015b60608152602001906001900390816112315790505b50905081600001805461125890613730565b80601f016020809104026020016040519081016040528092919081815260200182805461128490613730565b80156112d15780601f106112a6576101008083540402835291602001916112d1565b820191906000526020600020905b8154815290600101906020018083116112b457829003601f168201915b5050505050816000815181106112ea576112e9613a52565b5b6020026020010181905250611302826001015461205d565b8160018151811061131657611315613a52565b5b602002602001018190525060006040518060400160405280600f81526020017f246e616d65242024706f696e74732400000000000000000000000000000000008152509050600960009054906101000a900473ffffffffffffffffffffffffffffffffffffffff1673ffffffffffffffffffffffffffffffffffffffff1663eee6e57385848460006040518563ffffffff1660e01b81526004016113bd9493929190613b5f565b600060405180830381600087803b1580156113d757600080fd5b505af11580156113eb573d6000803e3d6000fd5b5050505050505050565b611407611400611d2c565b838361244b565b5050565b6000611415611d2c565b90506000600a60008373ffffffffffffffffffffffffffffffffffffffff1673ffffffffffffffffffffffffffffffffffffffff16815260200190815260200160002060405180608001604052908160008201805461147390613730565b80601f016020809104026020016040519081016040528092919081815260200182805461149f90613730565b80156114ec5780601f106114c1576101008083540402835291602001916114ec565b820191906000526020600020905b8154815290600101906020018083116114cf57829003601f168201915b5050505050815260200160018201548152602001600282015481526020016003820160009054906101000a900460ff1615151515815250509050806060015161156a576040517f08c379a00000000000000000000000000000000000000000000000000000000081526004016115619061405b565b60405180910390fd5b600030905060006008600084604001518152602001908152602001600020805461159390613730565b80601f01602080910402602001604051908101604052809291908181526020018280546115bf90613730565b801561160c5780601f106115e15761010080835404028352916020019161160c565b820191906000526020600020905b8154815290600101906020018083116115ef57829003601f168201915b505050505090506000836000015184602001516040516020016116309291906140f7565b6040516020818303038152906040529050600960009054906101000a900473ffffffffffffffffffffffffffffffffffffffff1673ffffffffffffffffffffffffffffffffffffffff16638d6dc0eb34888689896040015188886040518863ffffffff1660e01b81526004016116ab9695949392919061418b565b6000604051808303818588803b1580156116c457600080fd5b505af11580156116d8573d6000803e3d6000fd5b50505050506116ea84604001516125b7565b6008600085604001518152602001908152602001600020600061170d9190612dce565b600a60008673ffffffffffffffffffffffffffffffffffffffff1673ffffffffffffffffffffffffffffffffffffffff1681526020019081526020016000206000808201600061175d9190612dce565b600182016000905560028201600090556003820160006101000a81549060ff02191690555050505050505050565b6000600a60008473ffffffffffffffffffffffffffffffffffffffff1673ffffffffffffffffffffffffffffffffffffffff16815260200190815260200160002090508060030160009054906101000a900460ff1615611820576040517f08c379a000000000000000000000000000000000000000000000000000000000815260040161181790614246565b60405180910390fd5b818160000190816118319190613eab565b506005816001018190555060018160030160006101000a81548160ff0219169083151502179055506000601467ffffffffffffffff8111156118765761187561328e565b5b6040519080825280602002602001820160405280156118a957816020015b60608152602001906001900390816118945790505b5090508160000180546118bb90613730565b80601f01602080910402602001604051908101604052809291908181526020018280546118e790613730565b80156119345780601f1061190957610100808354040283529160200191611934565b820191906000526020600020905b81548152906001019060200180831161191757829003601f168201915b50505050508160008151811061194d5761194c613a52565b5b6020026020010181905250611965826001015461205d565b8160018151811061197957611978613a52565b5b602002602001018190525060006040518060400160405280600f81526020017f246e616d65242024706f696e74732400000000000000000000000000000000008152509050600960009054906101000a900473ffffffffffffffffffffffffffffffffffffffff1673ffffffffffffffffffffffffffffffffffffffff1663eee6e57386848460006040518563ffffffff1660e01b8152600401611a209493929190613b5f565b600060405180830381600087803b158015611a3a57600080fd5b505af1158015611a4e573d6000803e3d6000fd5b505050505050505050565b611a6a611a64611d2c565b83611ded565b611aa9576040517f08c379a0000000000000000000000000000000000000000000000000000000008152600401611aa0906138f7565b60405180910390fd5b611ab584848484612705565b50505050565b6060600860008381526020019081526020016000208054611adb90613730565b80601f0160208091040260200160405190810160405280929190818152602001828054611b0790613730565b8015611b545780601f10611b2957610100808354040283529160200191611b54565b820191906000526020600020905b815481529060010190602001808311611b3757829003601f168201915b50505050509050919050565b6000600560008473ffffffffffffffffffffffffffffffffffffffff1673ffffffffffffffffffffffffffffffffffffffff16815260200190815260200160002060008373ffffffffffffffffffffffffffffffffffffffff1673ffffffffffffffffffffffffffffffffffffffff16815260200190815260200160002060009054906101000a900460ff16905092915050565b611bfc611fdf565b600073ffffffffffffffffffffffffffffffffffffffff168173ffffffffffffffffffffffffffffffffffffffff1603611c6b576040517f08c379a0000000000000000000000000000000000000000000000000000000008152600401611c62906142d8565b60405180910390fd5b611c7481612385565b50565b60007f01ffc9a7000000000000000000000000000000000000000000000000000000007bffffffffffffffffffffffffffffffffffffffffffffffffffffffff1916827bffffffffffffffffffffffffffffffffffffffffffffffffffffffff1916149050919050565b611cea81612761565b611d29576040517f08c379a0000000000000000000000000000000000000000000000000000000008152600401611d2090613bfe565b60405180910390fd5b50565b600033905090565b816004600083815260200190815260200160002060006101000a81548173ffffffffffffffffffffffffffffffffffffffff021916908373ffffffffffffffffffffffffffffffffffffffff160217905550808273ffffffffffffffffffffffffffffffffffffffff16611da783610d04565b73ffffffffffffffffffffffffffffffffffffffff167f8c5be1e5ebec7d5bd14f71427d1e84f3dd0314c0f7b2291e5b200ac8c7c3b92560405160405180910390a45050565b600080611df983610d04565b90508073ffffffffffffffffffffffffffffffffffffffff168473ffffffffffffffffffffffffffffffffffffffff161480611e3b5750611e3a8185611b60565b5b80611e7957508373ffffffffffffffffffffffffffffffffffffffff16611e6184610711565b73ffffffffffffffffffffffffffffffffffffffff16145b91505092915050565b6000600a60008473ffffffffffffffffffffffffffffffffffffffff1673ffffffffffffffffffffffffffffffffffffffff16815260200190815260200160002090508060030160009054906101000a900460ff1615611f17576040517f08c379a0000000000000000000000000000000000000000000000000000000008152600401611f0e90614344565b60405180910390fd5b600a60008573ffffffffffffffffffffffffffffffffffffffff1673ffffffffffffffffffffffffffffffffffffffff1681526020019081526020016000209050600a60008573ffffffffffffffffffffffffffffffffffffffff1673ffffffffffffffffffffffffffffffffffffffff16815260200190815260200160002060008082016000611fa89190612dce565b600182016000905560028201600090556003820160006101000a81549060ff02191690555050611fd98484846127a2565b50505050565b611fe7611d2c565b73ffffffffffffffffffffffffffffffffffffffff16612005610f88565b73ffffffffffffffffffffffffffffffffffffffff161461205b576040517f08c379a0000000000000000000000000000000000000000000000000000000008152600401612052906143b0565b60405180910390fd5b565b60606000600161206c84612a9b565b01905060008167ffffffffffffffff81111561208b5761208a61328e565b5b6040519080825280601f01601f1916602001820160405280156120bd5781602001600182028036833780820191505090505b509050600082602001820190505b600115612120578080600190039150507f3031323334353637383961626364656600000000000000000000000000000000600a86061a8153600a8581612114576121136143d0565b5b049450600085036120cb575b819350505050919050565b60006002600083815260200190815260200160002060009054906101000a900473ffffffffffffffffffffffffffffffffffffffff169050919050565b600073ffffffffffffffffffffffffffffffffffffffff168273ffffffffffffffffffffffffffffffffffffffff16036121d7576040517f08c379a00000000000000000000000000000000000000000000000000000000081526004016121ce9061444b565b60405180910390fd5b6121e081612761565b15612220576040517f08c379a0000000000000000000000000000000000000000000000000000000008152600401612217906144b7565b60405180910390fd5b61222e600083836001612bee565b61223781612761565b15612277576040517f08c379a000000000000000000000000000000000000000000000000000000000815260040161226e906144b7565b60405180910390fd5b6001600360008473ffffffffffffffffffffffffffffffffffffffff1673ffffffffffffffffffffffffffffffffffffffff16815260200190815260200160002060008282540192505081905550816002600083815260200190815260200160002060006101000a81548173ffffffffffffffffffffffffffffffffffffffff021916908373ffffffffffffffffffffffffffffffffffffffff160217905550808273ffffffffffffffffffffffffffffffffffffffff16600073ffffffffffffffffffffffffffffffffffffffff167fddf252ad1be2c89b69c2b068fc378daa952ba7f163c4a11628f55a4df523b3ef60405160405180910390a4612381600083836001612bf4565b5050565b6000600660009054906101000a900473ffffffffffffffffffffffffffffffffffffffff16905081600660006101000a81548173ffffffffffffffffffffffffffffffffffffffff021916908373ffffffffffffffffffffffffffffffffffffffff1602179055508173ffffffffffffffffffffffffffffffffffffffff168173ffffffffffffffffffffffffffffffffffffffff167f8be0079c531659141344cd1fd0a4f28419497f9722a3daafe3b4186f6b6457e060405160405180910390a35050565b8173ffffffffffffffffffffffffffffffffffffffff168373ffffffffffffffffffffffffffffffffffffffff16036124b9576040517f08c379a00000000000000000000000000000000000000000000000000000000081526004016124b090614523565b60405180910390fd5b80600560008573ffffffffffffffffffffffffffffffffffffffff1673ffffffffffffffffffffffffffffffffffffffff16815260200190815260200160002060008473ffffffffffffffffffffffffffffffffffffffff1673ffffffffffffffffffffffffffffffffffffffff16815260200190815260200160002060006101000a81548160ff0219169083151502179055508173ffffffffffffffffffffffffffffffffffffffff168373ffffffffffffffffffffffffffffffffffffffff167f17307eab39ab6107e8899845ad3d59bd9653f200f220920489ca2b5937696c31836040516125aa9190612edf565b60405180910390a3505050565b60006125c282610d04565b90506125d2816000846001612bee565b6125db82610d04565b90506004600083815260200190815260200160002060006101000a81549073ffffffffffffffffffffffffffffffffffffffff02191690556001600360008373ffffffffffffffffffffffffffffffffffffffff1673ffffffffffffffffffffffffffffffffffffffff168152602001908152602001600020600082825403925050819055506002600083815260200190815260200160002060006101000a81549073ffffffffffffffffffffffffffffffffffffffff021916905581600073ffffffffffffffffffffffffffffffffffffffff168273ffffffffffffffffffffffffffffffffffffffff167fddf252ad1be2c89b69c2b068fc378daa952ba7f163c4a11628f55a4df523b3ef60405160405180910390a4612701816000846001612bf4565b5050565b612710848484611e82565b61271c84848484612bfa565b61275b576040517f08c379a0000000000000000000000000000000000000000000000000000000008152600401612752906145b5565b60405180910390fd5b50505050565b60008073ffffffffffffffffffffffffffffffffffffffff166127838361212b565b73ffffffffffffffffffffffffffffffffffffffff1614159050919050565b8273ffffffffffffffffffffffffffffffffffffffff166127c282610d04565b73ffffffffffffffffffffffffffffffffffffffff1614612818576040517f08c379a000000000000000000000000000000000000000000000000000000000815260040161280f90614647565b60405180910390fd5b600073ffffffffffffffffffffffffffffffffffffffff168273ffffffffffffffffffffffffffffffffffffffff1603612887576040517f08c379a000000000000000000000000000000000000000000000000000000000815260040161287e906146d9565b60405180910390fd5b6128948383836001612bee565b8273ffffffffffffffffffffffffffffffffffffffff166128b482610d04565b73ffffffffffffffffffffffffffffffffffffffff161461290a576040517f08c379a000000000000000000000000000000000000000000000000000000000815260040161290190614647565b60405180910390fd5b6004600082815260200190815260200160002060006101000a81549073ffffffffffffffffffffffffffffffffffffffff02191690556001600360008573ffffffffffffffffffffffffffffffffffffffff1673ffffffffffffffffffffffffffffffffffffffff168152602001908152602001600020600082825403925050819055506001600360008473ffffffffffffffffffffffffffffffffffffffff1673ffffffffffffffffffffffffffffffffffffffff16815260200190815260200160002060008282540192505081905550816002600083815260200190815260200160002060006101000a81548173ffffffffffffffffffffffffffffffffffffffff021916908373ffffffffffffffffffffffffffffffffffffffff160217905550808273ffffffffffffffffffffffffffffffffffffffff168473ffffffffffffffffffffffffffffffffffffffff167fddf252ad1be2c89b69c2b068fc378daa952ba7f163c4a11628f55a4df523b3ef60405160405180910390a4612a968383836001612bf4565b505050565b600080600090507a184f03e93ff9f4daa797ed6e38ed64bf6a1f0100000000000000008310612af9577a184f03e93ff9f4daa797ed6e38ed64bf6a1f0100000000000000008381612aef57612aee6143d0565b5b0492506040810190505b6d04ee2d6d415b85acef81000000008310612b36576d04ee2d6d415b85acef81000000008381612b2c57612b2b6143d0565b5b0492506020810190505b662386f26fc100008310612b6557662386f26fc100008381612b5b57612b5a6143d0565b5b0492506010810190505b6305f5e1008310612b8e576305f5e1008381612b8457612b836143d0565b5b0492506008810190505b6127108310612bb3576127108381612ba957612ba86143d0565b5b0492506004810190505b60648310612bd65760648381612bcc57612bcb6143d0565b5b0492506002810190505b600a8310612be5576001810190505b80915050919050565b50505050565b50505050565b6000612c1b8473ffffffffffffffffffffffffffffffffffffffff16612d81565b15612d74578373ffffffffffffffffffffffffffffffffffffffff1663150b7a02612c44611d2c565b8786866040518563ffffffff1660e01b8152600401612c6694939291906146f9565b6020604051808303816000875af1925050508015612ca257506040513d601f19601f82011682018060405250810190612c9f919061475a565b60015b612d24573d8060008114612cd2576040519150601f19603f3d011682016040523d82523d6000602084013e612cd7565b606091505b506000815103612d1c576040517f08c379a0000000000000000000000000000000000000000000000000000000008152600401612d13906145b5565b60405180910390fd5b805181602001fd5b63150b7a0260e01b7bffffffffffffffffffffffffffffffffffffffffffffffffffffffff1916817bffffffffffffffffffffffffffffffffffffffffffffffffffffffff191614915050612d79565b600190505b949350505050565b6000808273ffffffffffffffffffffffffffffffffffffffff163b119050919050565b60405180608001604052806060815260200160008152602001600081526020016000151581525090565b508054612dda90613730565b6000825580601f10612dec5750612e0b565b601f016020900490600052602060002090810190612e0a9190612e0e565b5b50565b5b80821115612e27576000816000905550600101612e0f565b5090565b6000604051905090565b600080fd5b600080fd5b60007fffffffff0000000000000000000000000000000000000000000000000000000082169050919050565b612e7481612e3f565b8114612e7f57600080fd5b50565b600081359050612e9181612e6b565b92915050565b600060208284031215612ead57612eac612e35565b5b6000612ebb84828501612e82565b91505092915050565b60008115159050919050565b612ed981612ec4565b82525050565b6000602082019050612ef46000830184612ed0565b92915050565b600081519050919050565b600082825260208201905092915050565b60005b83811015612f34578082015181840152602081019050612f19565b60008484015250505050565b6000601f19601f8301169050919050565b6000612f5c82612efa565b612f668185612f05565b9350612f76818560208601612f16565b612f7f81612f40565b840191505092915050565b60006020820190508181036000830152612fa48184612f51565b905092915050565b6000819050919050565b612fbf81612fac565b8114612fca57600080fd5b50565b600081359050612fdc81612fb6565b92915050565b600060208284031215612ff857612ff7612e35565b5b600061300684828501612fcd565b91505092915050565b600073ffffffffffffffffffffffffffffffffffffffff82169050919050565b600061303a8261300f565b9050919050565b61304a8161302f565b82525050565b60006020820190506130656000830184613041565b92915050565b6130748161302f565b811461307f57600080fd5b50565b6000813590506130918161306b565b92915050565b600080604083850312156130ae576130ad612e35565b5b60006130bc85828601613082565b92505060206130cd85828601612fcd565b9150509250929050565b6000806000606084860312156130f0576130ef612e35565b5b60006130fe86828701613082565b935050602061310f86828701613082565b925050604061312086828701612fcd565b9150509250925092565b6000602082840312156131405761313f612e35565b5b600061314e84828501613082565b91505092915050565b600082825260208201905092915050565b600061317382612efa565b61317d8185613157565b935061318d818560208601612f16565b61319681612f40565b840191505092915050565b6131aa81612fac565b82525050565b6131b981612ec4565b82525050565b600060808301600083015184820360008601526131dc8282613168565b91505060208301516131f160208601826131a1565b50604083015161320460408601826131a1565b50606083015161321760608601826131b0565b508091505092915050565b6000602082019050818103600083015261323c81846131bf565b905092915050565b600067ffffffffffffffff82169050919050565b61326181613244565b811461326c57600080fd5b50565b60008135905061327e81613258565b92915050565b600080fd5b600080fd5b7f4e487b7100000000000000000000000000000000000000000000000000000000600052604160045260246000fd5b6132c682612f40565b810181811067ffffffffffffffff821117156132e5576132e461328e565b5b80604052505050565b60006132f8612e2b565b905061330482826132bd565b919050565b600067ffffffffffffffff8211156133245761332361328e565b5b61332d82612f40565b9050602081019050919050565b82818337600083830152505050565b600061335c61335784613309565b6132ee565b90508281526020810184848401111561337857613377613289565b5b61338384828561333a565b509392505050565b600082601f8301126133a05761339f613284565b5b81356133b0848260208601613349565b91505092915050565b600067ffffffffffffffff8211156133d4576133d361328e565b5b6133dd82612f40565b9050602081019050919050565b60006133fd6133f8846133b9565b6132ee565b90508281526020810184848401111561341957613418613289565b5b61342484828561333a565b509392505050565b600082601f83011261344157613440613284565b5b81356134518482602086016133ea565b91505092915050565b60008060008060008060c0878903121561347757613476612e35565b5b600061348589828a0161326f565b965050602061349689828a01613082565b95505060406134a789828a01613082565b94505060606134b889828a01612fcd565b935050608087013567ffffffffffffffff8111156134d9576134d8612e3a565b5b6134e589828a0161338b565b92505060a087013567ffffffffffffffff81111561350657613505612e3a565b5b61351289828a0161342c565b9150509295509295509295565b61352881612fac565b82525050565b6000602082019050613543600083018461351f565b92915050565b600080604083850312156135605761355f612e35565b5b600061356e85828601613082565b925050602083013567ffffffffffffffff81111561358f5761358e612e3a565b5b61359b8582860161338b565b9150509250929050565b6135ae81612ec4565b81146135b957600080fd5b50565b6000813590506135cb816135a5565b92915050565b600080604083850312156135e8576135e7612e35565b5b60006135f685828601613082565b9250506020613607858286016135bc565b9150509250929050565b60006020828403121561362757613626612e35565b5b60006136358482850161326f565b91505092915050565b6000806000806080858703121561365857613657612e35565b5b600061366687828801613082565b945050602061367787828801613082565b935050604061368887828801612fcd565b925050606085013567ffffffffffffffff8111156136a9576136a8612e3a565b5b6136b58782880161342c565b91505092959194509250565b600080604083850312156136d8576136d7612e35565b5b60006136e685828601613082565b92505060206136f785828601613082565b9150509250929050565b7f4e487b7100000000000000000000000000000000000000000000000000000000600052602260045260246000fd5b6000600282049050600182168061374857607f821691505b60208210810361375b5761375a613701565b5b50919050565b7f4552433732313a20617070726f76616c20746f2063757272656e74206f776e6560008201527f7200000000000000000000000000000000000000000000000000000000000000602082015250565b60006137bd602183612f05565b91506137c882613761565b604082019050919050565b600060208201905081810360008301526137ec816137b0565b9050919050565b7f4552433732313a20617070726f76652063616c6c6572206973206e6f7420746f60008201527f6b656e206f776e6572206f7220617070726f76656420666f7220616c6c000000602082015250565b600061384f603d83612f05565b915061385a826137f3565b604082019050919050565b6000602082019050818103600083015261387e81613842565b9050919050565b7f4552433732313a2063616c6c6572206973206e6f7420746f6b656e206f776e6560008201527f72206f7220617070726f76656400000000000000000000000000000000000000602082015250565b60006138e1602d83612f05565b91506138ec82613885565b604082019050919050565b60006020820190508181036000830152613910816138d4565b9050919050565b7f437265617465207468697320706c617965722066697273740000000000000000600082015250565b600061394d601883612f05565b915061395882613917565b602082019050919050565b6000602082019050818103600083015261397c81613940565b9050919050565b7f416c7265616479206465666561746564203a2900000000000000000000000000600082015250565b60006139b9601383612f05565b91506139c482613983565b602082019050919050565b600060208201905081810360008301526139e8816139ac565b9050919050565b7f4e487b7100000000000000000000000000000000000000000000000000000000600052601160045260246000fd5b6000613a2982612fac565b9150613a3483612fac565b9250828203905081811115613a4c57613a4b6139ef565b5b92915050565b7f4e487b7100000000000000000000000000000000000000000000000000000000600052603260045260246000fd5b600081519050919050565b600082825260208201905092915050565b6000819050602082019050919050565b6000613ab98383613168565b905092915050565b6000602082019050919050565b6000613ad982613a81565b613ae38185613a8c565b935083602082028501613af585613a9d565b8060005b85811015613b315784840389528151613b128582613aad565b9450613b1d83613ac1565b925060208a01995050600181019050613af9565b50829750879550505050505092915050565b600060ff82169050919050565b613b5981613b43565b82525050565b6000608082019050613b746000830187613041565b8181036020830152613b868186613ace565b90508181036040830152613b9a8185612f51565b9050613ba96060830184613b50565b95945050505050565b7f4552433732313a20696e76616c696420746f6b656e2049440000000000000000600082015250565b6000613be8601883612f05565b9150613bf382613bb2565b602082019050919050565b60006020820190508181036000830152613c1781613bdb565b9050919050565b6000613c31613c2c84613309565b6132ee565b905082815260208101848484011115613c4d57613c4c613289565b5b613c58848285612f16565b509392505050565b600082601f830112613c7557613c74613284565b5b8151613c85848260208601613c1e565b91505092915050565b600081519050613c9d81612fb6565b92915050565b60008060408385031215613cba57613cb9612e35565b5b600083015167ffffffffffffffff811115613cd857613cd7612e3a565b5b613ce485828601613c60565b9250506020613cf585828601613c8e565b9150509250929050565b60008190508160005260206000209050919050565b60006020601f8301049050919050565b600082821b905092915050565b600060088302613d617fffffffffffffffffffffffffffffffffffffffffffffffffffffffffffffffff82613d24565b613d6b8683613d24565b95508019841693508086168417925050509392505050565b6000819050919050565b6000613da8613da3613d9e84612fac565b613d83565b612fac565b9050919050565b6000819050919050565b613dc283613d8d565b613dd6613dce82613daf565b848454613d31565b825550505050565b600090565b613deb613dde565b613df6818484613db9565b505050565b5b81811015613e1a57613e0f600082613de3565b600181019050613dfc565b5050565b601f821115613e5f57613e3081613cff565b613e3984613d14565b81016020851015613e48578190505b613e5c613e5485613d14565b830182613dfb565b50505b505050565b600082821c905092915050565b6000613e8260001984600802613e64565b1980831691505092915050565b6000613e9b8383613e71565b9150826002028217905092915050565b613eb482612efa565b67ffffffffffffffff811115613ecd57613ecc61328e565b5b613ed78254613730565b613ee2828285613e1e565b600060209050601f831160018114613f155760008415613f03578287015190505b613f0d8582613e8f565b865550613f75565b601f198416613f2386613cff565b60005b82811015613f4b57848901518255600182019150602085019450602081019050613f26565b86831015613f685784890151613f64601f891682613e71565b8355505b6001600288020188555050505b505050505050565b7f4552433732313a2061646472657373207a65726f206973206e6f74206120766160008201527f6c6964206f776e65720000000000000000000000000000000000000000000000602082015250565b6000613fd9602983612f05565b9150613fe482613f7d565b604082019050919050565b6000602082019050818103600083015261400881613fcc565b9050919050565b7f506c6179657220646f6573206e6f742065786973747300000000000000000000600082015250565b6000614045601683612f05565b91506140508261400f565b602082019050919050565b6000602082019050818103600083015261407481614038565b9050919050565b600061408682612fac565b91507fffffffffffffffffffffffffffffffffffffffffffffffffffffffffffffffff82036140b8576140b76139ef565b5b600182019050919050565b60006140ce82612fac565b91506140d983612fac565b92508282019050808211156140f1576140f06139ef565b5b92915050565b600060408201905081810360008301526141118185612f51565b9050614120602083018461351f565b9392505050565b61413081613244565b82525050565b600081519050919050565b600082825260208201905092915050565b600061415d82614136565b6141678185614141565b9350614177818560208601612f16565b61418081612f40565b840191505092915050565b600060c0820190506141a06000830189614127565b6141ad6020830188613041565b6141ba6040830187613041565b6141c7606083018661351f565b81810360808301526141d98185612f51565b905081810360a08301526141ed8184614152565b9050979650505050505050565b7f506c6179657220686173206265656e2063726561746564000000000000000000600082015250565b6000614230601783612f05565b915061423b826141fa565b602082019050919050565b6000602082019050818103600083015261425f81614223565b9050919050565b7f4f776e61626c653a206e6577206f776e657220697320746865207a65726f206160008201527f6464726573730000000000000000000000000000000000000000000000000000602082015250565b60006142c2602683612f05565b91506142cd82614266565b604082019050919050565b600060208201905081810360008301526142f1816142b5565b9050919050565b7f506c6179657220686173207468656972206f776e206163636f756e7400000000600082015250565b600061432e601c83612f05565b9150614339826142f8565b602082019050919050565b6000602082019050818103600083015261435d81614321565b9050919050565b7f4f776e61626c653a2063616c6c6572206973206e6f7420746865206f776e6572600082015250565b600061439a602083612f05565b91506143a582614364565b602082019050919050565b600060208201905081810360008301526143c98161438d565b9050919050565b7f4e487b7100000000000000000000000000000000000000000000000000000000600052601260045260246000fd5b7f4552433732313a206d696e7420746f20746865207a65726f2061646472657373600082015250565b6000614435602083612f05565b9150614440826143ff565b602082019050919050565b6000602082019050818103600083015261446481614428565b9050919050565b7f4552433732313a20746f6b656e20616c7265616479206d696e74656400000000600082015250565b60006144a1601c83612f05565b91506144ac8261446b565b602082019050919050565b600060208201905081810360008301526144d081614494565b9050919050565b7f4552433732313a20617070726f766520746f2063616c6c657200000000000000600082015250565b600061450d601983612f05565b9150614518826144d7565b602082019050919050565b6000602082019050818103600083015261453c81614500565b9050919050565b7f4552433732313a207472616e7366657220746f206e6f6e20455243373231526560008201527f63656976657220696d706c656d656e7465720000000000000000000000000000602082015250565b600061459f603283612f05565b91506145aa82614543565b604082019050919050565b600060208201905081810360008301526145ce81614592565b9050919050565b7f4552433732313a207472616e736665722066726f6d20696e636f72726563742060008201527f6f776e6572000000000000000000000000000000000000000000000000000000602082015250565b6000614631602583612f05565b915061463c826145d5565b604082019050919050565b6000602082019050818103600083015261466081614624565b9050919050565b7f4552433732313a207472616e7366657220746f20746865207a65726f2061646460008201527f7265737300000000000000000000000000000000000000000000000000000000602082015250565b60006146c3602483612f05565b91506146ce82614667565b604082019050919050565b600060208201905081810360008301526146f2816146b6565b9050919050565b600060808201905061470e6000830187613041565b61471b6020830186613041565b614728604083018561351f565b818103606083015261473a8184614152565b905095945050505050565b60008151905061475481612e6b565b92915050565b6000602082840312156147705761476f612e35565b5b600061477e84828501614745565b9150509291505056fea2646970667358221220ec437c5f8e92b721ac83217f1eed8a3f994879c119def9702b26a16ccdb6f96764736f6c63430008130033",
  "immutableReferences": {},
  "source": "// SPDX-License-Identifier: MIT\r\npragma solidity ^0.8.19;\r\n\r\nimport {IKanvasAvax} from \"../interfaces/IKanvasAvax.sol\";\r\nimport {IKanvasGame} from \"../interfaces/IKanvasGame.sol\";\r\nimport {IKanvasInteropGame} from \"../interfaces/IKanvasInteropGame.sol\";\r\n\r\nimport {Ownable} from \"@openzeppelin/contracts/access/Ownable.sol\";\r\nimport {ERC721} from \"@openzeppelin/contracts/token/ERC721/ERC721.sol\";\r\nimport {Strings} from \"@openzeppelin/contracts/utils/Strings.sol\";\r\n\r\ncontract RockPaperScissors is IKanvasGame, IKanvasInteropGame, ERC721, Ownable {\r\n    uint8 private constant WIN_NFT_TEMPLATE = 0;\r\n    uint8 private constant LOST_NFT_TEMPLATE = 1;\r\n\r\n    uint256 public constant MAX_PROPERTIES_LEN = 20;\r\n\r\n    uint256 private _tokenId;\r\n\r\n    mapping(uint256 => string) private _tokenURIs;\r\n\r\n    IKanvasAvax private kanvas;\r\n\r\n    struct Player {\r\n        string name;\r\n        uint256 points;\r\n        uint256 tokenId;\r\n        bool created;\r\n    }\r\n\r\n    mapping(address => Player) private _players;\r\n\r\n    constructor(\r\n        address kanvasRouter\r\n    ) ERC721(\"RockPaperScissors\", \"RPS\") IKanvasGame() Ownable() {\r\n        kanvas = IKanvasAvax(kanvasRouter);\r\n    }\r\n\r\n    function _transfer(\r\n        address from,\r\n        address to,\r\n        uint256 tokenId\r\n    ) internal override {\r\n        Player storage newPlayer = _players[to];\r\n        // check if receiver has their own account\r\n        require(!newPlayer.created, \"Player has their own account\");\r\n\r\n        // create new player account\r\n        newPlayer = _players[from];\r\n\r\n        // delete sender accounts\r\n        delete _players[from];\r\n\r\n        super._transfer(from, to, tokenId);\r\n    }\r\n\r\n    function createPlayer(address playerId, string memory name) external {\r\n        Player storage player = _players[playerId];\r\n        require(!player.created, \"Player has been created\");\r\n\r\n        player.name = name;\r\n        player.points = 5;\r\n        player.created = true;\r\n\r\n        string[] memory props = new string[](MAX_PROPERTIES_LEN);\r\n        props[0] = player.name;\r\n        props[1] = Strings.toString(player.points);\r\n\r\n        string memory fields = \"$name$ $points$\";\r\n\r\n        kanvas._generateUri(playerId, props, fields, WIN_NFT_TEMPLATE);\r\n    }\r\n\r\n    // Retsrns the player struct\r\n    function getPlayer(address playerId) external view returns (Player memory) {\r\n        return _players[playerId];\r\n    }\r\n\r\n    /** Increase player points */\r\n    function upgradePlayer(address playerId) external onlyOwner {\r\n        Player storage player = _players[playerId];\r\n        require(player.created, \"Create this player first\");\r\n\r\n        player.points = player.points + 5;\r\n\r\n        string[] memory props = new string[](MAX_PROPERTIES_LEN);\r\n        props[0] = player.name;\r\n        props[1] = Strings.toString(player.points);\r\n\r\n        string memory fields = \"$name$ $points$\";\r\n\r\n        kanvas._generateUri(playerId, props, fields, WIN_NFT_TEMPLATE);\r\n    }\r\n\r\n    /** Reduce player points */\r\n    function downgradePlayer(address playerId) external onlyOwner {\r\n        Player storage player = _players[playerId];\r\n        require(player.created, \"Create this player first\");\r\n        require(player.points >= 1, \"Already defeated :)\");\r\n\r\n        player.points = player.points - 1;\r\n\r\n        string[] memory props = new string[](MAX_PROPERTIES_LEN);\r\n        props[0] = player.name;\r\n        props[1] = Strings.toString(player.points);\r\n\r\n        string memory fields = \"$name$ $points$\";\r\n\r\n        kanvas._generateUri(playerId, props, fields, LOST_NFT_TEMPLATE);\r\n    }\r\n\r\n    /** Bridge game Nft function */\r\n    function transferTo(uint64 chainSelector) external payable {\r\n        address playerId = _msgSender();\r\n        Player memory player = _players[playerId];\r\n        require(player.created, \"Player does not exists\");\r\n\r\n        address gameId = address(this);\r\n        string memory uri = _tokenURIs[player.tokenId];\r\n\r\n        bytes memory data = abi.encode(player.name, player.points);\r\n\r\n        /** Cross chain transfer function */\r\n        kanvas._transferTo{value: msg.value}(\r\n            chainSelector,\r\n            gameId,\r\n            playerId,\r\n            player.tokenId,\r\n            uri,\r\n            data\r\n        );\r\n\r\n        _burn(player.tokenId);\r\n        delete _tokenURIs[player.tokenId];\r\n\r\n        // player will be deleted when they transfer the game NFT\r\n        delete _players[playerId];\r\n    }\r\n\r\n    /** Cross chain receiver callback function */\r\n    function _receiveFrom(\r\n        uint64 /* chainSelector */,\r\n        address /* gameId */,\r\n        address playerId,\r\n        uint256 tokenId,\r\n        string memory uri,\r\n        bytes memory data\r\n    ) external override {\r\n        (string memory name, uint256 points) = abi.decode(\r\n            data,\r\n            (string, uint256)\r\n        );\r\n\r\n        _mint(playerId, tokenId);\r\n        _tokenURIs[tokenId] = uri;\r\n\r\n        // player will be created when they receive the game NFT\r\n        _players[playerId].name = name;\r\n        _players[playerId].points = points;\r\n\r\n        _players[playerId].tokenId = tokenId;\r\n    }\r\n\r\n    function _receiveUri(\r\n        address playerId,\r\n        string memory uri\r\n    ) external override {\r\n        Player storage player = _players[playerId];\r\n        require(player.created, \"Player does not exists\");\r\n\r\n        uint256 tokenId = player.tokenId;\r\n\r\n        // this player does not have the game nft\r\n        if (tokenId == 0) {\r\n            _tokenId++;\r\n\r\n            // mint the game Nft for player\r\n            tokenId = _tokenId;\r\n\r\n            _mint(playerId, tokenId);\r\n            player.tokenId = tokenId;\r\n        }\r\n\r\n        _tokenURIs[tokenId] = uri;\r\n    }\r\n\r\n    function tokenURI(\r\n        uint256 tokenId\r\n    ) public view virtual override returns (string memory) {\r\n        return _tokenURIs[tokenId];\r\n    }\r\n}\r\n",
  "sourcePath": "C:\\Users\\DELL\\Documents\\kanvas\\blockchain\\contracts\\rock-paper-scissors\\RockPaperScissors.sol",
  "compiler": {
    "name": "solc",
    "version": "0.8.19+commit.7dd6d404.Emscripten.clang"
  },
  "schemaVersion": "3.4.11",
  "updatedAt": "2023-12-05T09:00:38.064Z",
  "networkType": "ethereum",
  "devdoc": {
    "events": {
      "Approval(address,address,uint256)": {
        "details": "Emitted when `owner` enables `approved` to manage the `tokenId` token."
      },
      "ApprovalForAll(address,address,bool)": {
        "details": "Emitted when `owner` enables or disables (`approved`) `operator` to manage all of its assets."
      },
      "Transfer(address,address,uint256)": {
        "details": "Emitted when `tokenId` token is transferred from `from` to `to`."
      }
    },
    "kind": "dev",
    "methods": {
      "approve(address,uint256)": {
        "details": "See {IERC721-approve}."
      },
      "balanceOf(address)": {
        "details": "See {IERC721-balanceOf}."
      },
      "getApproved(uint256)": {
        "details": "See {IERC721-getApproved}."
      },
      "isApprovedForAll(address,address)": {
        "details": "See {IERC721-isApprovedForAll}."
      },
      "name()": {
        "details": "See {IERC721Metadata-name}."
      },
      "owner()": {
        "details": "Returns the address of the current owner."
      },
      "ownerOf(uint256)": {
        "details": "See {IERC721-ownerOf}."
      },
      "renounceOwnership()": {
        "details": "Leaves the contract without owner. It will not be possible to call `onlyOwner` functions. Can only be called by the current owner. NOTE: Renouncing ownership will leave the contract without an owner, thereby disabling any functionality that is only available to the owner."
      },
      "safeTransferFrom(address,address,uint256)": {
        "details": "See {IERC721-safeTransferFrom}."
      },
      "safeTransferFrom(address,address,uint256,bytes)": {
        "details": "See {IERC721-safeTransferFrom}."
      },
      "setApprovalForAll(address,bool)": {
        "details": "See {IERC721-setApprovalForAll}."
      },
      "supportsInterface(bytes4)": {
        "details": "See {IERC165-supportsInterface}."
      },
      "symbol()": {
        "details": "See {IERC721Metadata-symbol}."
      },
      "tokenURI(uint256)": {
        "details": "See {IERC721Metadata-tokenURI}."
      },
      "transferFrom(address,address,uint256)": {
        "details": "See {IERC721-transferFrom}."
      },
      "transferOwnership(address)": {
        "details": "Transfers ownership of the contract to a new account (`newOwner`). Can only be called by the current owner."
      }
    },
    "version": 1
  },
  "userdoc": {
    "kind": "user",
    "methods": {
      "_receiveFrom(uint64,address,address,uint256,string,bytes)": {
        "notice": "Cross chain receiver callback function "
      },
      "downgradePlayer(address)": {
        "notice": "Reduce player points "
      },
      "transferTo(uint64)": {
        "notice": "Bridge game Nft function "
      },
      "upgradePlayer(address)": {
        "notice": "Increase player points "
      }
    },
    "version": 1
  }
}