{
  "contractName": "RockPaperScissors",
  "abi": [
    {
      "inputs": [
        {
          "internalType": "address",
          "name": "kanvasRouter",
          "type": "address"
        }
      ],
      "stateMutability": "nonpayable",
      "type": "constructor"
    },
    {
      "anonymous": false,
      "inputs": [
        {
          "indexed": true,
          "internalType": "address",
          "name": "owner",
          "type": "address"
        },
        {
          "indexed": true,
          "internalType": "address",
          "name": "approved",
          "type": "address"
        },
        {
          "indexed": true,
          "internalType": "uint256",
          "name": "tokenId",
          "type": "uint256"
        }
      ],
      "name": "Approval",
      "type": "event"
    },
    {
      "anonymous": false,
      "inputs": [
        {
          "indexed": true,
          "internalType": "address",
          "name": "owner",
          "type": "address"
        },
        {
          "indexed": true,
          "internalType": "address",
          "name": "operator",
          "type": "address"
        },
        {
          "indexed": false,
          "internalType": "bool",
          "name": "approved",
          "type": "bool"
        }
      ],
      "name": "ApprovalForAll",
      "type": "event"
    },
    {
      "anonymous": false,
      "inputs": [
        {
          "indexed": true,
          "internalType": "address",
          "name": "from",
          "type": "address"
        },
        {
          "indexed": true,
          "internalType": "address",
          "name": "to",
          "type": "address"
        },
        {
          "indexed": true,
          "internalType": "uint256",
          "name": "tokenId",
          "type": "uint256"
        }
      ],
      "name": "Transfer",
      "type": "event"
    },
    {
      "inputs": [],
      "name": "MAX_PROPERTIES_LEN",
      "outputs": [
        {
          "internalType": "uint256",
          "name": "",
          "type": "uint256"
        }
      ],
      "stateMutability": "view",
      "type": "function"
    },
    {
      "inputs": [
        {
          "internalType": "address",
          "name": "to",
          "type": "address"
        },
        {
          "internalType": "uint256",
          "name": "tokenId",
          "type": "uint256"
        }
      ],
      "name": "approve",
      "outputs": [],
      "stateMutability": "nonpayable",
      "type": "function"
    },
    {
      "inputs": [
        {
          "internalType": "address",
          "name": "owner",
          "type": "address"
        }
      ],
      "name": "balanceOf",
      "outputs": [
        {
          "internalType": "uint256",
          "name": "",
          "type": "uint256"
        }
      ],
      "stateMutability": "view",
      "type": "function"
    },
    {
      "inputs": [
        {
          "internalType": "uint256",
          "name": "tokenId",
          "type": "uint256"
        }
      ],
      "name": "getApproved",
      "outputs": [
        {
          "internalType": "address",
          "name": "",
          "type": "address"
        }
      ],
      "stateMutability": "view",
      "type": "function"
    },
    {
      "inputs": [
        {
          "internalType": "address",
          "name": "owner",
          "type": "address"
        },
        {
          "internalType": "address",
          "name": "operator",
          "type": "address"
        }
      ],
      "name": "isApprovedForAll",
      "outputs": [
        {
          "internalType": "bool",
          "name": "",
          "type": "bool"
        }
      ],
      "stateMutability": "view",
      "type": "function"
    },
    {
      "inputs": [],
      "name": "name",
      "outputs": [
        {
          "internalType": "string",
          "name": "",
          "type": "string"
        }
      ],
      "stateMutability": "view",
      "type": "function"
    },
    {
      "inputs": [
        {
          "internalType": "uint256",
          "name": "tokenId",
          "type": "uint256"
        }
      ],
      "name": "ownerOf",
      "outputs": [
        {
          "internalType": "address",
          "name": "",
          "type": "address"
        }
      ],
      "stateMutability": "view",
      "type": "function"
    },
    {
      "inputs": [
        {
          "internalType": "address",
          "name": "from",
          "type": "address"
        },
        {
          "internalType": "address",
          "name": "to",
          "type": "address"
        },
        {
          "internalType": "uint256",
          "name": "tokenId",
          "type": "uint256"
        }
      ],
      "name": "safeTransferFrom",
      "outputs": [],
      "stateMutability": "nonpayable",
      "type": "function"
    },
    {
      "inputs": [
        {
          "internalType": "address",
          "name": "from",
          "type": "address"
        },
        {
          "internalType": "address",
          "name": "to",
          "type": "address"
        },
        {
          "internalType": "uint256",
          "name": "tokenId",
          "type": "uint256"
        },
        {
          "internalType": "bytes",
          "name": "data",
          "type": "bytes"
        }
      ],
      "name": "safeTransferFrom",
      "outputs": [],
      "stateMutability": "nonpayable",
      "type": "function"
    },
    {
      "inputs": [
        {
          "internalType": "address",
          "name": "operator",
          "type": "address"
        },
        {
          "internalType": "bool",
          "name": "approved",
          "type": "bool"
        }
      ],
      "name": "setApprovalForAll",
      "outputs": [],
      "stateMutability": "nonpayable",
      "type": "function"
    },
    {
      "inputs": [
        {
          "internalType": "bytes4",
          "name": "interfaceId",
          "type": "bytes4"
        }
      ],
      "name": "supportsInterface",
      "outputs": [
        {
          "internalType": "bool",
          "name": "",
          "type": "bool"
        }
      ],
      "stateMutability": "view",
      "type": "function"
    },
    {
      "inputs": [],
      "name": "symbol",
      "outputs": [
        {
          "internalType": "string",
          "name": "",
          "type": "string"
        }
      ],
      "stateMutability": "view",
      "type": "function"
    },
    {
      "inputs": [
        {
          "internalType": "address",
          "name": "from",
          "type": "address"
        },
        {
          "internalType": "address",
          "name": "to",
          "type": "address"
        },
        {
          "internalType": "uint256",
          "name": "tokenId",
          "type": "uint256"
        }
      ],
      "name": "transferFrom",
      "outputs": [],
      "stateMutability": "nonpayable",
      "type": "function"
    },
    {
      "inputs": [
        {
          "internalType": "address",
          "name": "playerId",
          "type": "address"
        },
        {
          "internalType": "string",
          "name": "name",
          "type": "string"
        }
      ],
      "name": "createPlayer",
      "outputs": [],
      "stateMutability": "nonpayable",
      "type": "function"
    },
    {
      "inputs": [
        {
          "internalType": "address",
          "name": "playerId",
          "type": "address"
        }
      ],
      "name": "upgradePlayer",
      "outputs": [],
      "stateMutability": "nonpayable",
      "type": "function"
    },
    {
      "inputs": [
        {
          "internalType": "uint64",
          "name": "chainSelector",
          "type": "uint64"
        }
      ],
      "name": "transferTo",
      "outputs": [],
      "stateMutability": "nonpayable",
      "type": "function"
    },
    {
      "inputs": [
        {
          "internalType": "uint64",
          "name": "chainSelector",
          "type": "uint64"
        },
        {
          "internalType": "bytes",
          "name": "data",
          "type": "bytes"
        }
      ],
      "name": "_receiveFrom",
      "outputs": [],
      "stateMutability": "nonpayable",
      "type": "function"
    },
    {
      "inputs": [
        {
          "internalType": "address",
          "name": "playerId",
          "type": "address"
        },
        {
          "internalType": "string",
          "name": "uri",
          "type": "string"
        }
      ],
      "name": "_receiveUri",
      "outputs": [],
      "stateMutability": "nonpayable",
      "type": "function"
    },
    {
      "inputs": [
        {
          "internalType": "uint256",
          "name": "tokenId",
          "type": "uint256"
        }
      ],
      "name": "tokenURI",
      "outputs": [
        {
          "internalType": "string",
          "name": "",
          "type": "string"
        }
      ],
      "stateMutability": "view",
      "type": "function"
    }
  ],
  "bytecode": "0x60806040523480156200001157600080fd5b5060405162003fc138038062003fc183398181016040528101906200003791906200017b565b6040518060400160405280601181526020017f526f636b506170657253636973736f72730000000000000000000000000000008152506040518060400160405280600381526020017f52505300000000000000000000000000000000000000000000000000000000008152508160009081620000b4919062000427565b508060019081620000c6919062000427565b50505080600a60006101000a81548173ffffffffffffffffffffffffffffffffffffffff021916908373ffffffffffffffffffffffffffffffffffffffff160217905550506200050e565b600080fd5b600073ffffffffffffffffffffffffffffffffffffffff82169050919050565b6000620001438262000116565b9050919050565b620001558162000136565b81146200016157600080fd5b50565b60008151905062000175816200014a565b92915050565b60006020828403121562000194576200019362000111565b5b6000620001a48482850162000164565b91505092915050565b600081519050919050565b7f4e487b7100000000000000000000000000000000000000000000000000000000600052604160045260246000fd5b7f4e487b7100000000000000000000000000000000000000000000000000000000600052602260045260246000fd5b600060028204905060018216806200022f57607f821691505b602082108103620002455762000244620001e7565b5b50919050565b60008190508160005260206000209050919050565b60006020601f8301049050919050565b600082821b905092915050565b600060088302620002af7fffffffffffffffffffffffffffffffffffffffffffffffffffffffffffffffff8262000270565b620002bb868362000270565b95508019841693508086168417925050509392505050565b6000819050919050565b6000819050919050565b60006200030862000302620002fc84620002d3565b620002dd565b620002d3565b9050919050565b6000819050919050565b6200032483620002e7565b6200033c62000333826200030f565b8484546200027d565b825550505050565b600090565b6200035362000344565b6200036081848462000319565b505050565b5b8181101562000388576200037c60008262000349565b60018101905062000366565b5050565b601f821115620003d757620003a1816200024b565b620003ac8462000260565b81016020851015620003bc578190505b620003d4620003cb8562000260565b83018262000365565b50505b505050565b600082821c905092915050565b6000620003fc60001984600802620003dc565b1980831691505092915050565b6000620004178383620003e9565b9150826002028217905092915050565b6200043282620001ad565b67ffffffffffffffff8111156200044e576200044d620001b8565b5b6200045a825462000216565b620004678282856200038c565b600060209050601f8311600181146200049f57600084156200048a578287015190505b62000496858262000409565b86555062000506565b601f198416620004af866200024b565b60005b82811015620004d957848901518255600182019150602085019450602081019050620004b2565b86831015620004f95784890151620004f5601f891682620003e9565b8355505b6001600288020188555050505b505050505050565b613aa3806200051e6000396000f3fe608060405234801561001057600080fd5b50600436106101215760003560e01c80638b8ff358116100ad578063af3ef62e11610071578063af3ef62e14610304578063b64fe1c614610320578063b88d4fde1461033c578063c87b56dd14610358578063e985e9c51461038857610121565b80638b8ff358146102745780638f9c39561461029257806395d89b41146102ae578063a06422a7146102cc578063a22cb465146102e857610121565b806323b872dd116100f457806323b872dd146101c05780633130a0d2146101dc57806342842e0e146101f85780636352211e1461021457806370a082311461024457610121565b806301ffc9a71461012657806306fdde0314610156578063081812fc14610174578063095ea7b3146101a4575b600080fd5b610140600480360381019061013b9190612372565b6103b8565b60405161014d91906123ba565b60405180910390f35b61015e61049a565b60405161016b9190612465565b60405180910390f35b61018e600480360381019061018991906124bd565b61052c565b60405161019b919061252b565b60405180910390f35b6101be60048036038101906101b99190612572565b610572565b005b6101da60048036038101906101d591906125b2565b610689565b005b6101f660048036038101906101f1919061277a565b6106e9565b005b610212600480360381019061020d91906125b2565b61077e565b005b61022e600480360381019061022991906124bd565b61079e565b60405161023b919061252b565b60405180910390f35b61025e600480360381019061025991906127d6565b610824565b60405161026b9190612812565b60405180910390f35b61027c6108db565b6040516102899190612812565b60405180910390f35b6102ac60048036038101906102a791906128ce565b6108e0565b005b6102b66109be565b6040516102c39190612465565b60405180910390f35b6102e660048036038101906102e191906127d6565b610a50565b005b61030260048036038101906102fd9190612956565b610d45565b005b61031e60048036038101906103199190612996565b610d5b565b005b61033a600480360381019061033591906128ce565b610ee5565b005b610356600480360381019061035191906129c3565b611282565b005b610372600480360381019061036d91906124bd565b6112e4565b60405161037f9190612465565b60405180910390f35b6103a2600480360381019061039d9190612a46565b611389565b6040516103af91906123ba565b60405180910390f35b60007f80ac58cd000000000000000000000000000000000000000000000000000000007bffffffffffffffffffffffffffffffffffffffffffffffffffffffff1916827bffffffffffffffffffffffffffffffffffffffffffffffffffffffff1916148061048357507f5b5e139f000000000000000000000000000000000000000000000000000000007bffffffffffffffffffffffffffffffffffffffffffffffffffffffff1916827bffffffffffffffffffffffffffffffffffffffffffffffffffffffff1916145b8061049357506104928261141d565b5b9050919050565b6060600080546104a990612ab5565b80601f01602080910402602001604051908101604052809291908181526020018280546104d590612ab5565b80156105225780601f106104f757610100808354040283529160200191610522565b820191906000526020600020905b81548152906001019060200180831161050557829003601f168201915b5050505050905090565b600061053782611487565b6004600083815260200190815260200160002060009054906101000a900473ffffffffffffffffffffffffffffffffffffffff169050919050565b600061057d8261079e565b90508073ffffffffffffffffffffffffffffffffffffffff168373ffffffffffffffffffffffffffffffffffffffff16036105ed576040517f08c379a00000000000000000000000000000000000000000000000000000000081526004016105e490612b58565b60405180910390fd5b8073ffffffffffffffffffffffffffffffffffffffff1661060c6114d2565b73ffffffffffffffffffffffffffffffffffffffff16148061063b575061063a816106356114d2565b611389565b5b61067a576040517f08c379a000000000000000000000000000000000000000000000000000000000815260040161067190612bea565b60405180910390fd5b61068483836114da565b505050565b61069a6106946114d2565b82611593565b6106d9576040517f08c379a00000000000000000000000000000000000000000000000000000000081526004016106d090612c7c565b60405180910390fd5b6106e4838383611628565b505050565b6000806000838060200190518101906107029190612d5f565b9250925092506107128383611921565b806008600084815260200190815260200160002090816107329190612f7a565b5081600960008573ffffffffffffffffffffffffffffffffffffffff1673ffffffffffffffffffffffffffffffffffffffff168152602001908152602001600020819055505050505050565b61079983838360405180602001604052806000815250611282565b505050565b6000806107aa83611b3e565b9050600073ffffffffffffffffffffffffffffffffffffffff168173ffffffffffffffffffffffffffffffffffffffff160361081b576040517f08c379a000000000000000000000000000000000000000000000000000000000815260040161081290613098565b60405180910390fd5b80915050919050565b60008073ffffffffffffffffffffffffffffffffffffffff168273ffffffffffffffffffffffffffffffffffffffff1603610894576040517f08c379a000000000000000000000000000000000000000000000000000000000815260040161088b9061312a565b60405180910390fd5b600360008373ffffffffffffffffffffffffffffffffffffffff1673ffffffffffffffffffffffffffffffffffffffff168152602001908152602001600020549050919050565b601481565b6000600960008473ffffffffffffffffffffffffffffffffffffffff1673ffffffffffffffffffffffffffffffffffffffff16815260200190815260200160002054905060008103610998576007600081548092919061093f90613179565b919050555060075490506109538382611921565b80600960008573ffffffffffffffffffffffffffffffffffffffff1673ffffffffffffffffffffffffffffffffffffffff168152602001908152602001600020819055505b816008600083815260200190815260200160002090816109b89190612f7a565b50505050565b6060600180546109cd90612ab5565b80601f01602080910402602001604051908101604052809291908181526020018280546109f990612ab5565b8015610a465780601f10610a1b57610100808354040283529160200191610a46565b820191906000526020600020905b815481529060010190602001808311610a2957829003601f168201915b5050505050905090565b6000600b60008373ffffffffffffffffffffffffffffffffffffffff1673ffffffffffffffffffffffffffffffffffffffff16815260200190815260200160002090508060040160009054906101000a900460ff16610ae4576040517f08c379a0000000000000000000000000000000000000000000000000000000008152600401610adb9061320d565b60405180910390fd5b60018160020154610af5919061322d565b816002018190555060058160030154610b0e919061322d565b81600301819055506006816002015481548110610b2e57610b2d613261565b5b90600052602060002001816001019081610b4891906132bb565b506000601467ffffffffffffffff811115610b6657610b6561264f565b5b604051908082528060200260200182016040528015610b9957816020015b6060815260200190600190039081610b845790505b509050610ba98260030154611b7b565b81600081518110610bbd57610bbc613261565b5b6020026020010181905250816001018054610bd790612ab5565b80601f0160208091040260200160405190810160405280929190818152602001828054610c0390612ab5565b8015610c505780601f10610c2557610100808354040283529160200191610c50565b820191906000526020600020905b815481529060010190602001808311610c3357829003601f168201915b505050505081600081518110610c6957610c68613261565b5b602002602001018190525060006040518060400160405280601081526020017f24706f696e7473242024636f6c6f7224000000000000000000000000000000008152509050600a60009054906101000a900473ffffffffffffffffffffffffffffffffffffffff1673ffffffffffffffffffffffffffffffffffffffff166375948bb08584846040518463ffffffff1660e01b8152600401610d0d939291906134af565b600060405180830381600087803b158015610d2757600080fd5b505af1158015610d3b573d6000803e3d6000fd5b5050505050505050565b610d57610d506114d2565b8383611c49565b5050565b6000610d656114d2565b90506000600960008373ffffffffffffffffffffffffffffffffffffffff1673ffffffffffffffffffffffffffffffffffffffff1681526020019081526020016000205490506000828260086000858152602001908152602001600020604051602001610dd493929190613578565b6040516020818303038152906040529050610dee82611db5565b600860008381526020019081526020016000206000610e0d91906122a9565b600960008473ffffffffffffffffffffffffffffffffffffffff1673ffffffffffffffffffffffffffffffffffffffff16815260200190815260200160002060009055600a60009054906101000a900473ffffffffffffffffffffffffffffffffffffffff1673ffffffffffffffffffffffffffffffffffffffff16632f5e444585836040518363ffffffff1660e01b8152600401610ead92919061361a565b600060405180830381600087803b158015610ec757600080fd5b505af1158015610edb573d6000803e3d6000fd5b5050505050505050565b6000600b60008473ffffffffffffffffffffffffffffffffffffffff1673ffffffffffffffffffffffffffffffffffffffff16815260200190815260200160002090508060040160009054906101000a900460ff1615610f7a576040517f08c379a0000000000000000000000000000000000000000000000000000000008152600401610f7190613696565b60405180910390fd5b81816000019081610f8b9190612f7a565b5060018160040160006101000a81548160ff0219169083151502179055506006600081548110610fbe57610fbd613261565b5b90600052602060002001816001019081610fd891906132bb565b506000601467ffffffffffffffff811115610ff657610ff561264f565b5b60405190808252806020026020018201604052801561102957816020015b60608152602001906001900390816110145790505b50905081600001805461103b90612ab5565b80601f016020809104026020016040519081016040528092919081815260200182805461106790612ab5565b80156110b45780601f10611089576101008083540402835291602001916110b4565b820191906000526020600020905b81548152906001019060200180831161109757829003601f168201915b5050505050816000815181106110cd576110cc613261565b5b60200260200101819052506110e58260030154611b7b565b816001815181106110f9576110f8613261565b5b602002602001018190525081600101805461111390612ab5565b80601f016020809104026020016040519081016040528092919081815260200182805461113f90612ab5565b801561118c5780601f106111615761010080835404028352916020019161118c565b820191906000526020600020905b81548152906001019060200180831161116f57829003601f168201915b5050505050816002815181106111a5576111a4613261565b5b602002602001018190525060006040518060400160405280601781526020017f246e616d65242024706f696e7473242024636f6c6f72240000000000000000008152509050600a60009054906101000a900473ffffffffffffffffffffffffffffffffffffffff1673ffffffffffffffffffffffffffffffffffffffff166375948bb08684846040518463ffffffff1660e01b8152600401611249939291906134af565b600060405180830381600087803b15801561126357600080fd5b505af1158015611277573d6000803e3d6000fd5b505050505050505050565b61129361128d6114d2565b83611593565b6112d2576040517f08c379a00000000000000000000000000000000000000000000000000000000081526004016112c990612c7c565b60405180910390fd5b6112de84848484611f03565b50505050565b606060086000838152602001908152602001600020805461130490612ab5565b80601f016020809104026020016040519081016040528092919081815260200182805461133090612ab5565b801561137d5780601f106113525761010080835404028352916020019161137d565b820191906000526020600020905b81548152906001019060200180831161136057829003601f168201915b50505050509050919050565b6000600560008473ffffffffffffffffffffffffffffffffffffffff1673ffffffffffffffffffffffffffffffffffffffff16815260200190815260200160002060008373ffffffffffffffffffffffffffffffffffffffff1673ffffffffffffffffffffffffffffffffffffffff16815260200190815260200160002060009054906101000a900460ff16905092915050565b60007f01ffc9a7000000000000000000000000000000000000000000000000000000007bffffffffffffffffffffffffffffffffffffffffffffffffffffffff1916827bffffffffffffffffffffffffffffffffffffffffffffffffffffffff1916149050919050565b61149081611f5f565b6114cf576040517f08c379a00000000000000000000000000000000000000000000000000000000081526004016114c690613098565b60405180910390fd5b50565b600033905090565b816004600083815260200190815260200160002060006101000a81548173ffffffffffffffffffffffffffffffffffffffff021916908373ffffffffffffffffffffffffffffffffffffffff160217905550808273ffffffffffffffffffffffffffffffffffffffff1661154d8361079e565b73ffffffffffffffffffffffffffffffffffffffff167f8c5be1e5ebec7d5bd14f71427d1e84f3dd0314c0f7b2291e5b200ac8c7c3b92560405160405180910390a45050565b60008061159f8361079e565b90508073ffffffffffffffffffffffffffffffffffffffff168473ffffffffffffffffffffffffffffffffffffffff1614806115e157506115e08185611389565b5b8061161f57508373ffffffffffffffffffffffffffffffffffffffff166116078461052c565b73ffffffffffffffffffffffffffffffffffffffff16145b91505092915050565b8273ffffffffffffffffffffffffffffffffffffffff166116488261079e565b73ffffffffffffffffffffffffffffffffffffffff161461169e576040517f08c379a000000000000000000000000000000000000000000000000000000000815260040161169590613728565b60405180910390fd5b600073ffffffffffffffffffffffffffffffffffffffff168273ffffffffffffffffffffffffffffffffffffffff160361170d576040517f08c379a0000000000000000000000000000000000000000000000000000000008152600401611704906137ba565b60405180910390fd5b61171a8383836001611fa0565b8273ffffffffffffffffffffffffffffffffffffffff1661173a8261079e565b73ffffffffffffffffffffffffffffffffffffffff1614611790576040517f08c379a000000000000000000000000000000000000000000000000000000000815260040161178790613728565b60405180910390fd5b6004600082815260200190815260200160002060006101000a81549073ffffffffffffffffffffffffffffffffffffffff02191690556001600360008573ffffffffffffffffffffffffffffffffffffffff1673ffffffffffffffffffffffffffffffffffffffff168152602001908152602001600020600082825403925050819055506001600360008473ffffffffffffffffffffffffffffffffffffffff1673ffffffffffffffffffffffffffffffffffffffff16815260200190815260200160002060008282540192505081905550816002600083815260200190815260200160002060006101000a81548173ffffffffffffffffffffffffffffffffffffffff021916908373ffffffffffffffffffffffffffffffffffffffff160217905550808273ffffffffffffffffffffffffffffffffffffffff168473ffffffffffffffffffffffffffffffffffffffff167fddf252ad1be2c89b69c2b068fc378daa952ba7f163c4a11628f55a4df523b3ef60405160405180910390a461191c8383836001611fa6565b505050565b600073ffffffffffffffffffffffffffffffffffffffff168273ffffffffffffffffffffffffffffffffffffffff1603611990576040517f08c379a000000000000000000000000000000000000000000000000000000000815260040161198790613826565b60405180910390fd5b61199981611f5f565b156119d9576040517f08c379a00000000000000000000000000000000000000000000000000000000081526004016119d090613892565b60405180910390fd5b6119e7600083836001611fa0565b6119f081611f5f565b15611a30576040517f08c379a0000000000000000000000000000000000000000000000000000000008152600401611a2790613892565b60405180910390fd5b6001600360008473ffffffffffffffffffffffffffffffffffffffff1673ffffffffffffffffffffffffffffffffffffffff16815260200190815260200160002060008282540192505081905550816002600083815260200190815260200160002060006101000a81548173ffffffffffffffffffffffffffffffffffffffff021916908373ffffffffffffffffffffffffffffffffffffffff160217905550808273ffffffffffffffffffffffffffffffffffffffff16600073ffffffffffffffffffffffffffffffffffffffff167fddf252ad1be2c89b69c2b068fc378daa952ba7f163c4a11628f55a4df523b3ef60405160405180910390a4611b3a600083836001611fa6565b5050565b60006002600083815260200190815260200160002060009054906101000a900473ffffffffffffffffffffffffffffffffffffffff169050919050565b606060006001611b8a84611fac565b01905060008167ffffffffffffffff811115611ba957611ba861264f565b5b6040519080825280601f01601f191660200182016040528015611bdb5781602001600182028036833780820191505090505b509050600082602001820190505b600115611c3e578080600190039150507f3031323334353637383961626364656600000000000000000000000000000000600a86061a8153600a8581611c3257611c316138b2565b5b04945060008503611be9575b819350505050919050565b8173ffffffffffffffffffffffffffffffffffffffff168373ffffffffffffffffffffffffffffffffffffffff1603611cb7576040517f08c379a0000000000000000000000000000000000000000000000000000000008152600401611cae9061392d565b60405180910390fd5b80600560008573ffffffffffffffffffffffffffffffffffffffff1673ffffffffffffffffffffffffffffffffffffffff16815260200190815260200160002060008473ffffffffffffffffffffffffffffffffffffffff1673ffffffffffffffffffffffffffffffffffffffff16815260200190815260200160002060006101000a81548160ff0219169083151502179055508173ffffffffffffffffffffffffffffffffffffffff168373ffffffffffffffffffffffffffffffffffffffff167f17307eab39ab6107e8899845ad3d59bd9653f200f220920489ca2b5937696c3183604051611da891906123ba565b60405180910390a3505050565b6000611dc08261079e565b9050611dd0816000846001611fa0565b611dd98261079e565b90506004600083815260200190815260200160002060006101000a81549073ffffffffffffffffffffffffffffffffffffffff02191690556001600360008373ffffffffffffffffffffffffffffffffffffffff1673ffffffffffffffffffffffffffffffffffffffff168152602001908152602001600020600082825403925050819055506002600083815260200190815260200160002060006101000a81549073ffffffffffffffffffffffffffffffffffffffff021916905581600073ffffffffffffffffffffffffffffffffffffffff168273ffffffffffffffffffffffffffffffffffffffff167fddf252ad1be2c89b69c2b068fc378daa952ba7f163c4a11628f55a4df523b3ef60405160405180910390a4611eff816000846001611fa6565b5050565b611f0e848484611628565b611f1a848484846120ff565b611f59576040517f08c379a0000000000000000000000000000000000000000000000000000000008152600401611f50906139bf565b60405180910390fd5b50505050565b60008073ffffffffffffffffffffffffffffffffffffffff16611f8183611b3e565b73ffffffffffffffffffffffffffffffffffffffff1614159050919050565b50505050565b50505050565b600080600090507a184f03e93ff9f4daa797ed6e38ed64bf6a1f010000000000000000831061200a577a184f03e93ff9f4daa797ed6e38ed64bf6a1f010000000000000000838161200057611fff6138b2565b5b0492506040810190505b6d04ee2d6d415b85acef81000000008310612047576d04ee2d6d415b85acef8100000000838161203d5761203c6138b2565b5b0492506020810190505b662386f26fc10000831061207657662386f26fc10000838161206c5761206b6138b2565b5b0492506010810190505b6305f5e100831061209f576305f5e1008381612095576120946138b2565b5b0492506008810190505b61271083106120c45761271083816120ba576120b96138b2565b5b0492506004810190505b606483106120e757606483816120dd576120dc6138b2565b5b0492506002810190505b600a83106120f6576001810190505b80915050919050565b60006121208473ffffffffffffffffffffffffffffffffffffffff16612286565b15612279578373ffffffffffffffffffffffffffffffffffffffff1663150b7a026121496114d2565b8786866040518563ffffffff1660e01b815260040161216b94939291906139df565b6020604051808303816000875af19250505080156121a757506040513d601f19601f820116820180604052508101906121a49190613a40565b60015b612229573d80600081146121d7576040519150601f19603f3d011682016040523d82523d6000602084013e6121dc565b606091505b506000815103612221576040517f08c379a0000000000000000000000000000000000000000000000000000000008152600401612218906139bf565b60405180910390fd5b805181602001fd5b63150b7a0260e01b7bffffffffffffffffffffffffffffffffffffffffffffffffffffffff1916817bffffffffffffffffffffffffffffffffffffffffffffffffffffffff19161491505061227e565b600190505b949350505050565b6000808273ffffffffffffffffffffffffffffffffffffffff163b119050919050565b5080546122b590612ab5565b6000825580601f106122c757506122e6565b601f0160209004906000526020600020908101906122e591906122e9565b5b50565b5b808211156123025760008160009055506001016122ea565b5090565b6000604051905090565b600080fd5b600080fd5b60007fffffffff0000000000000000000000000000000000000000000000000000000082169050919050565b61234f8161231a565b811461235a57600080fd5b50565b60008135905061236c81612346565b92915050565b60006020828403121561238857612387612310565b5b60006123968482850161235d565b91505092915050565b60008115159050919050565b6123b48161239f565b82525050565b60006020820190506123cf60008301846123ab565b92915050565b600081519050919050565b600082825260208201905092915050565b60005b8381101561240f5780820151818401526020810190506123f4565b60008484015250505050565b6000601f19601f8301169050919050565b6000612437826123d5565b61244181856123e0565b93506124518185602086016123f1565b61245a8161241b565b840191505092915050565b6000602082019050818103600083015261247f818461242c565b905092915050565b6000819050919050565b61249a81612487565b81146124a557600080fd5b50565b6000813590506124b781612491565b92915050565b6000602082840312156124d3576124d2612310565b5b60006124e1848285016124a8565b91505092915050565b600073ffffffffffffffffffffffffffffffffffffffff82169050919050565b6000612515826124ea565b9050919050565b6125258161250a565b82525050565b6000602082019050612540600083018461251c565b92915050565b61254f8161250a565b811461255a57600080fd5b50565b60008135905061256c81612546565b92915050565b6000806040838503121561258957612588612310565b5b60006125978582860161255d565b92505060206125a8858286016124a8565b9150509250929050565b6000806000606084860312156125cb576125ca612310565b5b60006125d98682870161255d565b93505060206125ea8682870161255d565b92505060406125fb868287016124a8565b9150509250925092565b600067ffffffffffffffff82169050919050565b61262281612605565b811461262d57600080fd5b50565b60008135905061263f81612619565b92915050565b600080fd5b600080fd5b7f4e487b7100000000000000000000000000000000000000000000000000000000600052604160045260246000fd5b6126878261241b565b810181811067ffffffffffffffff821117156126a6576126a561264f565b5b80604052505050565b60006126b9612306565b90506126c5828261267e565b919050565b600067ffffffffffffffff8211156126e5576126e461264f565b5b6126ee8261241b565b9050602081019050919050565b82818337600083830152505050565b600061271d612718846126ca565b6126af565b9050828152602081018484840111156127395761273861264a565b5b6127448482856126fb565b509392505050565b600082601f83011261276157612760612645565b5b813561277184826020860161270a565b91505092915050565b6000806040838503121561279157612790612310565b5b600061279f85828601612630565b925050602083013567ffffffffffffffff8111156127c0576127bf612315565b5b6127cc8582860161274c565b9150509250929050565b6000602082840312156127ec576127eb612310565b5b60006127fa8482850161255d565b91505092915050565b61280c81612487565b82525050565b60006020820190506128276000830184612803565b92915050565b600067ffffffffffffffff8211156128485761284761264f565b5b6128518261241b565b9050602081019050919050565b600061287161286c8461282d565b6126af565b90508281526020810184848401111561288d5761288c61264a565b5b6128988482856126fb565b509392505050565b600082601f8301126128b5576128b4612645565b5b81356128c584826020860161285e565b91505092915050565b600080604083850312156128e5576128e4612310565b5b60006128f38582860161255d565b925050602083013567ffffffffffffffff81111561291457612913612315565b5b612920858286016128a0565b9150509250929050565b6129338161239f565b811461293e57600080fd5b50565b6000813590506129508161292a565b92915050565b6000806040838503121561296d5761296c612310565b5b600061297b8582860161255d565b925050602061298c85828601612941565b9150509250929050565b6000602082840312156129ac576129ab612310565b5b60006129ba84828501612630565b91505092915050565b600080600080608085870312156129dd576129dc612310565b5b60006129eb8782880161255d565b94505060206129fc8782880161255d565b9350506040612a0d878288016124a8565b925050606085013567ffffffffffffffff811115612a2e57612a2d612315565b5b612a3a8782880161274c565b91505092959194509250565b60008060408385031215612a5d57612a5c612310565b5b6000612a6b8582860161255d565b9250506020612a7c8582860161255d565b9150509250929050565b7f4e487b7100000000000000000000000000000000000000000000000000000000600052602260045260246000fd5b60006002820490506001821680612acd57607f821691505b602082108103612ae057612adf612a86565b5b50919050565b7f4552433732313a20617070726f76616c20746f2063757272656e74206f776e6560008201527f7200000000000000000000000000000000000000000000000000000000000000602082015250565b6000612b426021836123e0565b9150612b4d82612ae6565b604082019050919050565b60006020820190508181036000830152612b7181612b35565b9050919050565b7f4552433732313a20617070726f76652063616c6c6572206973206e6f7420746f60008201527f6b656e206f776e6572206f7220617070726f76656420666f7220616c6c000000602082015250565b6000612bd4603d836123e0565b9150612bdf82612b78565b604082019050919050565b60006020820190508181036000830152612c0381612bc7565b9050919050565b7f4552433732313a2063616c6c6572206973206e6f7420746f6b656e206f776e6560008201527f72206f7220617070726f76656400000000000000000000000000000000000000602082015250565b6000612c66602d836123e0565b9150612c7182612c0a565b604082019050919050565b60006020820190508181036000830152612c9581612c59565b9050919050565b6000612ca7826124ea565b9050919050565b612cb781612c9c565b8114612cc257600080fd5b50565b600081519050612cd481612cae565b92915050565b600081519050612ce981612491565b92915050565b6000612d02612cfd8461282d565b6126af565b905082815260208101848484011115612d1e57612d1d61264a565b5b612d298482856123f1565b509392505050565b600082601f830112612d4657612d45612645565b5b8151612d56848260208601612cef565b91505092915050565b600080600060608486031215612d7857612d77612310565b5b6000612d8686828701612cc5565b9350506020612d9786828701612cda565b925050604084015167ffffffffffffffff811115612db857612db7612315565b5b612dc486828701612d31565b9150509250925092565b60008190508160005260206000209050919050565b60006020601f8301049050919050565b600082821b905092915050565b600060088302612e307fffffffffffffffffffffffffffffffffffffffffffffffffffffffffffffffff82612df3565b612e3a8683612df3565b95508019841693508086168417925050509392505050565b6000819050919050565b6000612e77612e72612e6d84612487565b612e52565b612487565b9050919050565b6000819050919050565b612e9183612e5c565b612ea5612e9d82612e7e565b848454612e00565b825550505050565b600090565b612eba612ead565b612ec5818484612e88565b505050565b5b81811015612ee957612ede600082612eb2565b600181019050612ecb565b5050565b601f821115612f2e57612eff81612dce565b612f0884612de3565b81016020851015612f17578190505b612f2b612f2385612de3565b830182612eca565b50505b505050565b600082821c905092915050565b6000612f5160001984600802612f33565b1980831691505092915050565b6000612f6a8383612f40565b9150826002028217905092915050565b612f83826123d5565b67ffffffffffffffff811115612f9c57612f9b61264f565b5b612fa68254612ab5565b612fb1828285612eed565b600060209050601f831160018114612fe45760008415612fd2578287015190505b612fdc8582612f5e565b865550613044565b601f198416612ff286612dce565b60005b8281101561301a57848901518255600182019150602085019450602081019050612ff5565b868310156130375784890151613033601f891682612f40565b8355505b6001600288020188555050505b505050505050565b7f4552433732313a20696e76616c696420746f6b656e2049440000000000000000600082015250565b60006130826018836123e0565b915061308d8261304c565b602082019050919050565b600060208201905081810360008301526130b181613075565b9050919050565b7f4552433732313a2061646472657373207a65726f206973206e6f74206120766160008201527f6c6964206f776e65720000000000000000000000000000000000000000000000602082015250565b60006131146029836123e0565b915061311f826130b8565b604082019050919050565b6000602082019050818103600083015261314381613107565b9050919050565b7f4e487b7100000000000000000000000000000000000000000000000000000000600052601160045260246000fd5b600061318482612487565b91507fffffffffffffffffffffffffffffffffffffffffffffffffffffffffffffffff82036131b6576131b561314a565b5b600182019050919050565b7f437265617465207468697320706c617965722066697273740000000000000000600082015250565b60006131f76018836123e0565b9150613202826131c1565b602082019050919050565b60006020820190508181036000830152613226816131ea565b9050919050565b600061323882612487565b915061324383612487565b925082820190508082111561325b5761325a61314a565b5b92915050565b7f4e487b7100000000000000000000000000000000000000000000000000000000600052603260045260246000fd5b60008154905061329f81612ab5565b9050919050565b60008190508160005260206000209050919050565b8181036132c95750506133a1565b6132d282613290565b67ffffffffffffffff8111156132eb576132ea61264f565b5b6132f58254612ab5565b613300828285612eed565b6000601f83116001811461332f576000841561331d578287015490505b6133278582612f5e565b86555061339a565b601f19841661333d876132a6565b965061334886612dce565b60005b828110156133705784890154825560018201915060018501945060208101905061334b565b8683101561338d5784890154613389601f891682612f40565b8355505b6001600288020188555050505b5050505050505b565b600081519050919050565b600082825260208201905092915050565b6000819050602082019050919050565b600082825260208201905092915050565b60006133eb826123d5565b6133f581856133cf565b93506134058185602086016123f1565b61340e8161241b565b840191505092915050565b600061342583836133e0565b905092915050565b6000602082019050919050565b6000613445826133a3565b61344f81856133ae565b935083602082028501613461856133bf565b8060005b8581101561349d578484038952815161347e8582613419565b94506134898361342d565b925060208a01995050600181019050613465565b50829750879550505050505092915050565b60006060820190506134c4600083018661251c565b81810360208301526134d6818561343a565b905081810360408301526134ea818461242c565b9050949350505050565b6000815461350181612ab5565b61350b81866123e0565b94506001821660008114613526576001811461353c5761356f565b60ff19831686528115156020028601935061356f565b61354585612dce565b60005b8381101561356757815481890152600182019150602081019050613548565b808801955050505b50505092915050565b600060608201905061358d600083018661251c565b61359a6020830185612803565b81810360408301526135ac81846134f4565b9050949350505050565b6135bf81612605565b82525050565b600081519050919050565b600082825260208201905092915050565b60006135ec826135c5565b6135f681856135d0565b93506136068185602086016123f1565b61360f8161241b565b840191505092915050565b600060408201905061362f60008301856135b6565b818103602083015261364181846135e1565b90509392505050565b7f506c6179657220686173206265656e2063726561746564000000000000000000600082015250565b60006136806017836123e0565b915061368b8261364a565b602082019050919050565b600060208201905081810360008301526136af81613673565b9050919050565b7f4552433732313a207472616e736665722066726f6d20696e636f72726563742060008201527f6f776e6572000000000000000000000000000000000000000000000000000000602082015250565b60006137126025836123e0565b915061371d826136b6565b604082019050919050565b6000602082019050818103600083015261374181613705565b9050919050565b7f4552433732313a207472616e7366657220746f20746865207a65726f2061646460008201527f7265737300000000000000000000000000000000000000000000000000000000602082015250565b60006137a46024836123e0565b91506137af82613748565b604082019050919050565b600060208201905081810360008301526137d381613797565b9050919050565b7f4552433732313a206d696e7420746f20746865207a65726f2061646472657373600082015250565b60006138106020836123e0565b915061381b826137da565b602082019050919050565b6000602082019050818103600083015261383f81613803565b9050919050565b7f4552433732313a20746f6b656e20616c7265616479206d696e74656400000000600082015250565b600061387c601c836123e0565b915061388782613846565b602082019050919050565b600060208201905081810360008301526138ab8161386f565b9050919050565b7f4e487b7100000000000000000000000000000000000000000000000000000000600052601260045260246000fd5b7f4552433732313a20617070726f766520746f2063616c6c657200000000000000600082015250565b60006139176019836123e0565b9150613922826138e1565b602082019050919050565b600060208201905081810360008301526139468161390a565b9050919050565b7f4552433732313a207472616e7366657220746f206e6f6e20455243373231526560008201527f63656976657220696d706c656d656e7465720000000000000000000000000000602082015250565b60006139a96032836123e0565b91506139b48261394d565b604082019050919050565b600060208201905081810360008301526139d88161399c565b9050919050565b60006080820190506139f4600083018761251c565b613a01602083018661251c565b613a0e6040830185612803565b8181036060830152613a2081846135e1565b905095945050505050565b600081519050613a3a81612346565b92915050565b600060208284031215613a5657613a55612310565b5b6000613a6484828501613a2b565b9150509291505056fea26469706673582212208a2bc9436e0e6ae8852119d1d7ffb162473c79ff4505e84114ebc62f4153bbf464736f6c63430008110033",
  "immutableReferences": {},
  "source": "// SPDX-License-Identifier: MIT\r\npragma solidity ^0.8.17;\r\n\r\nimport {IKanvasAvax} from \"../interfaces/IKanvasAvax.sol\";\r\nimport {IKanvasGame} from \"../interfaces/IKanvasGame.sol\";\r\nimport {ERC721} from \"@openzeppelin/contracts/token/ERC721/ERC721.sol\";\r\nimport {Strings} from \"@openzeppelin/contracts/utils/Strings.sol\";\r\n\r\ncontract RockPaperScissors is IKanvasGame, ERC721 {\r\n    uint256 public constant MAX_PROPERTIES_LEN = 20;\r\n\r\n    string[] private _colors;\r\n\r\n    uint256 private _tokenId;\r\n    mapping(uint256 => string) private _tokenURIs;\r\n    mapping(address => uint256) private _playerNfts;\r\n\r\n    IKanvasAvax private kanvas;\r\n\r\n    struct Player {\r\n        string name;\r\n        string color;\r\n        uint256 level;\r\n        uint256 points;\r\n        bool created;\r\n    }\r\n\r\n    mapping(address => Player) private _players;\r\n\r\n    constructor(\r\n        address kanvasRouter\r\n    ) ERC721(\"RockPaperScissors\", \"RPS\") IKanvasGame() {\r\n        kanvas = IKanvasAvax(kanvasRouter);\r\n    }\r\n\r\n    function createPlayer(address playerId, string memory name) external {\r\n        Player storage player = _players[playerId];\r\n        require(!player.created, \"Player has been created\");\r\n\r\n        player.name = name;\r\n        player.created = true;\r\n        player.color = _colors[0];\r\n\r\n        string[] memory properties = new string[](MAX_PROPERTIES_LEN);\r\n        properties[0] = player.name;\r\n        properties[1] = Strings.toString(player.points);\r\n        properties[2] = player.color;\r\n\r\n        string memory fields = \"$name$ $points$ $color$\";\r\n\r\n        kanvas._generateUri(playerId, properties, fields);\r\n    }\r\n\r\n    function upgradePlayer(address playerId) external {\r\n        Player storage player = _players[playerId];\r\n        require(player.created, \"Create this player first\");\r\n\r\n        player.level = player.level + 1;\r\n        player.points = player.points + 5;\r\n        player.color = _colors[player.level];\r\n\r\n        string[] memory properties = new string[](MAX_PROPERTIES_LEN);\r\n        properties[0] = Strings.toString(player.points);\r\n        properties[0] = player.color;\r\n\r\n        string memory fields = \"$points$ $color$\";\r\n\r\n        kanvas._generateUri(playerId, properties, fields);\r\n    }\r\n\r\n    function transferTo(uint64 chainSelector) external {\r\n        address player = _msgSender();\r\n        uint256 tokenId = _playerNfts[player];\r\n\r\n        bytes memory data = abi.encode(player, tokenId, _tokenURIs[tokenId]);\r\n\r\n        _burn(tokenId);\r\n        delete _tokenURIs[tokenId];\r\n\r\n        delete _playerNfts[player];\r\n\r\n        kanvas._transferTo(chainSelector, data);\r\n    }\r\n\r\n    function _receiveFrom(uint64 chainSelector, bytes memory data) external {\r\n        (address playerId, uint256 tokenId, string memory uri) = abi.decode(\r\n            data,\r\n            (address, uint256, string)\r\n        );\r\n\r\n        _mint(playerId, tokenId);\r\n        _tokenURIs[tokenId] = uri;\r\n\r\n        _playerNfts[playerId] = tokenId;\r\n    }\r\n\r\n    function _receiveUri(address playerId, string memory uri) external {\r\n        uint256 tokenId = _playerNfts[playerId];\r\n\r\n        // this player does not have the game nft\r\n        if (tokenId == 0) {\r\n            // mint the game nft for player\r\n            _tokenId++;\r\n            tokenId = _tokenId;\r\n\r\n            _mint(playerId, tokenId);\r\n\r\n            _playerNfts[playerId] = tokenId;\r\n        }\r\n\r\n        _tokenURIs[tokenId] = uri;\r\n    }\r\n\r\n    function tokenURI(\r\n        uint256 tokenId\r\n    ) public view virtual override returns (string memory) {\r\n        return _tokenURIs[tokenId];\r\n    }\r\n}\r\n",
  "sourcePath": "C:\\Users\\DELL\\Documents\\kanvas\\blockchain\\contracts\\rock-paper-scissors\\RockPaperScissors.sol",
  "compiler": {
    "name": "solc",
    "version": "0.8.17+commit.8df45f5f.Emscripten.clang"
  },
  "schemaVersion": "3.4.11",
  "updatedAt": "2023-12-01T12:07:01.011Z",
  "devdoc": {
    "kind": "dev",
    "methods": {
      "approve(address,uint256)": {
        "details": "See {IERC721-approve}."
      },
      "balanceOf(address)": {
        "details": "See {IERC721-balanceOf}."
      },
      "getApproved(uint256)": {
        "details": "See {IERC721-getApproved}."
      },
      "isApprovedForAll(address,address)": {
        "details": "See {IERC721-isApprovedForAll}."
      },
      "name()": {
        "details": "See {IERC721Metadata-name}."
      },
      "ownerOf(uint256)": {
        "details": "See {IERC721-ownerOf}."
      },
      "safeTransferFrom(address,address,uint256)": {
        "details": "See {IERC721-safeTransferFrom}."
      },
      "safeTransferFrom(address,address,uint256,bytes)": {
        "details": "See {IERC721-safeTransferFrom}."
      },
      "setApprovalForAll(address,bool)": {
        "details": "See {IERC721-setApprovalForAll}."
      },
      "supportsInterface(bytes4)": {
        "details": "See {IERC165-supportsInterface}."
      },
      "symbol()": {
        "details": "See {IERC721Metadata-symbol}."
      },
      "tokenURI(uint256)": {
        "details": "See {IERC721Metadata-tokenURI}."
      },
      "transferFrom(address,address,uint256)": {
        "details": "See {IERC721-transferFrom}."
      }
    },
    "version": 1
  },
  "userdoc": {
    "kind": "user",
    "methods": {},
    "version": 1
  }
}