{
  "contractName": "RockPaperScissors",
  "abi": [
    {
      "inputs": [
        {
          "internalType": "address",
          "name": "kanvasRouter",
          "type": "address"
        }
      ],
      "stateMutability": "nonpayable",
      "type": "constructor"
    },
    {
      "anonymous": false,
      "inputs": [
        {
          "indexed": true,
          "internalType": "address",
          "name": "owner",
          "type": "address"
        },
        {
          "indexed": true,
          "internalType": "address",
          "name": "approved",
          "type": "address"
        },
        {
          "indexed": true,
          "internalType": "uint256",
          "name": "tokenId",
          "type": "uint256"
        }
      ],
      "name": "Approval",
      "type": "event"
    },
    {
      "anonymous": false,
      "inputs": [
        {
          "indexed": true,
          "internalType": "address",
          "name": "owner",
          "type": "address"
        },
        {
          "indexed": true,
          "internalType": "address",
          "name": "operator",
          "type": "address"
        },
        {
          "indexed": false,
          "internalType": "bool",
          "name": "approved",
          "type": "bool"
        }
      ],
      "name": "ApprovalForAll",
      "type": "event"
    },
    {
      "anonymous": false,
      "inputs": [
        {
          "indexed": true,
          "internalType": "address",
          "name": "from",
          "type": "address"
        },
        {
          "indexed": true,
          "internalType": "address",
          "name": "to",
          "type": "address"
        },
        {
          "indexed": true,
          "internalType": "uint256",
          "name": "tokenId",
          "type": "uint256"
        }
      ],
      "name": "Transfer",
      "type": "event"
    },
    {
      "inputs": [],
      "name": "MAX_PROPERTIES_LEN",
      "outputs": [
        {
          "internalType": "uint256",
          "name": "",
          "type": "uint256"
        }
      ],
      "stateMutability": "view",
      "type": "function"
    },
    {
      "inputs": [
        {
          "internalType": "address",
          "name": "to",
          "type": "address"
        },
        {
          "internalType": "uint256",
          "name": "tokenId",
          "type": "uint256"
        }
      ],
      "name": "approve",
      "outputs": [],
      "stateMutability": "nonpayable",
      "type": "function"
    },
    {
      "inputs": [
        {
          "internalType": "address",
          "name": "owner",
          "type": "address"
        }
      ],
      "name": "balanceOf",
      "outputs": [
        {
          "internalType": "uint256",
          "name": "",
          "type": "uint256"
        }
      ],
      "stateMutability": "view",
      "type": "function"
    },
    {
      "inputs": [
        {
          "internalType": "uint256",
          "name": "tokenId",
          "type": "uint256"
        }
      ],
      "name": "getApproved",
      "outputs": [
        {
          "internalType": "address",
          "name": "",
          "type": "address"
        }
      ],
      "stateMutability": "view",
      "type": "function"
    },
    {
      "inputs": [
        {
          "internalType": "address",
          "name": "owner",
          "type": "address"
        },
        {
          "internalType": "address",
          "name": "operator",
          "type": "address"
        }
      ],
      "name": "isApprovedForAll",
      "outputs": [
        {
          "internalType": "bool",
          "name": "",
          "type": "bool"
        }
      ],
      "stateMutability": "view",
      "type": "function"
    },
    {
      "inputs": [],
      "name": "name",
      "outputs": [
        {
          "internalType": "string",
          "name": "",
          "type": "string"
        }
      ],
      "stateMutability": "view",
      "type": "function"
    },
    {
      "inputs": [
        {
          "internalType": "uint256",
          "name": "tokenId",
          "type": "uint256"
        }
      ],
      "name": "ownerOf",
      "outputs": [
        {
          "internalType": "address",
          "name": "",
          "type": "address"
        }
      ],
      "stateMutability": "view",
      "type": "function"
    },
    {
      "inputs": [
        {
          "internalType": "address",
          "name": "from",
          "type": "address"
        },
        {
          "internalType": "address",
          "name": "to",
          "type": "address"
        },
        {
          "internalType": "uint256",
          "name": "tokenId",
          "type": "uint256"
        }
      ],
      "name": "safeTransferFrom",
      "outputs": [],
      "stateMutability": "nonpayable",
      "type": "function"
    },
    {
      "inputs": [
        {
          "internalType": "address",
          "name": "from",
          "type": "address"
        },
        {
          "internalType": "address",
          "name": "to",
          "type": "address"
        },
        {
          "internalType": "uint256",
          "name": "tokenId",
          "type": "uint256"
        },
        {
          "internalType": "bytes",
          "name": "data",
          "type": "bytes"
        }
      ],
      "name": "safeTransferFrom",
      "outputs": [],
      "stateMutability": "nonpayable",
      "type": "function"
    },
    {
      "inputs": [
        {
          "internalType": "address",
          "name": "operator",
          "type": "address"
        },
        {
          "internalType": "bool",
          "name": "approved",
          "type": "bool"
        }
      ],
      "name": "setApprovalForAll",
      "outputs": [],
      "stateMutability": "nonpayable",
      "type": "function"
    },
    {
      "inputs": [
        {
          "internalType": "bytes4",
          "name": "interfaceId",
          "type": "bytes4"
        }
      ],
      "name": "supportsInterface",
      "outputs": [
        {
          "internalType": "bool",
          "name": "",
          "type": "bool"
        }
      ],
      "stateMutability": "view",
      "type": "function"
    },
    {
      "inputs": [],
      "name": "symbol",
      "outputs": [
        {
          "internalType": "string",
          "name": "",
          "type": "string"
        }
      ],
      "stateMutability": "view",
      "type": "function"
    },
    {
      "inputs": [
        {
          "internalType": "address",
          "name": "from",
          "type": "address"
        },
        {
          "internalType": "address",
          "name": "to",
          "type": "address"
        },
        {
          "internalType": "uint256",
          "name": "tokenId",
          "type": "uint256"
        }
      ],
      "name": "transferFrom",
      "outputs": [],
      "stateMutability": "nonpayable",
      "type": "function"
    },
    {
      "inputs": [
        {
          "internalType": "address",
          "name": "playerId",
          "type": "address"
        },
        {
          "internalType": "string",
          "name": "name",
          "type": "string"
        }
      ],
      "name": "createPlayer",
      "outputs": [],
      "stateMutability": "nonpayable",
      "type": "function"
    },
    {
      "inputs": [
        {
          "internalType": "address",
          "name": "playerId",
          "type": "address"
        }
      ],
      "name": "upgradePlayer",
      "outputs": [],
      "stateMutability": "nonpayable",
      "type": "function"
    },
    {
      "inputs": [
        {
          "internalType": "uint64",
          "name": "chainSelector",
          "type": "uint64"
        }
      ],
      "name": "transferTo",
      "outputs": [],
      "stateMutability": "nonpayable",
      "type": "function"
    },
    {
      "inputs": [
        {
          "internalType": "uint64",
          "name": "",
          "type": "uint64"
        },
        {
          "internalType": "address",
          "name": "",
          "type": "address"
        },
        {
          "internalType": "address",
          "name": "playerId",
          "type": "address"
        },
        {
          "internalType": "uint256",
          "name": "tokenId",
          "type": "uint256"
        },
        {
          "internalType": "string",
          "name": "uri",
          "type": "string"
        },
        {
          "internalType": "bytes",
          "name": "data",
          "type": "bytes"
        }
      ],
      "name": "_receiveFrom",
      "outputs": [],
      "stateMutability": "nonpayable",
      "type": "function"
    },
    {
      "inputs": [
        {
          "internalType": "address",
          "name": "playerId",
          "type": "address"
        },
        {
          "internalType": "string",
          "name": "uri",
          "type": "string"
        }
      ],
      "name": "_receiveUri",
      "outputs": [],
      "stateMutability": "nonpayable",
      "type": "function"
    },
    {
      "inputs": [
        {
          "internalType": "uint256",
          "name": "tokenId",
          "type": "uint256"
        }
      ],
      "name": "tokenURI",
      "outputs": [
        {
          "internalType": "string",
          "name": "",
          "type": "string"
        }
      ],
      "stateMutability": "view",
      "type": "function"
    }
  ],
  "bytecode": "0x60806040523480156200001157600080fd5b5060405162003f8a38038062003f8a83398181016040528101906200003791906200017b565b6040518060400160405280601181526020017f526f636b506170657253636973736f72730000000000000000000000000000008152506040518060400160405280600381526020017f52505300000000000000000000000000000000000000000000000000000000008152508160009081620000b4919062000427565b508060019081620000c6919062000427565b50505080600960006101000a81548173ffffffffffffffffffffffffffffffffffffffff021916908373ffffffffffffffffffffffffffffffffffffffff160217905550506200050e565b600080fd5b600073ffffffffffffffffffffffffffffffffffffffff82169050919050565b6000620001438262000116565b9050919050565b620001558162000136565b81146200016157600080fd5b50565b60008151905062000175816200014a565b92915050565b60006020828403121562000194576200019362000111565b5b6000620001a48482850162000164565b91505092915050565b600081519050919050565b7f4e487b7100000000000000000000000000000000000000000000000000000000600052604160045260246000fd5b7f4e487b7100000000000000000000000000000000000000000000000000000000600052602260045260246000fd5b600060028204905060018216806200022f57607f821691505b602082108103620002455762000244620001e7565b5b50919050565b60008190508160005260206000209050919050565b60006020601f8301049050919050565b600082821b905092915050565b600060088302620002af7fffffffffffffffffffffffffffffffffffffffffffffffffffffffffffffffff8262000270565b620002bb868362000270565b95508019841693508086168417925050509392505050565b6000819050919050565b6000819050919050565b60006200030862000302620002fc84620002d3565b620002dd565b620002d3565b9050919050565b6000819050919050565b6200032483620002e7565b6200033c62000333826200030f565b8484546200027d565b825550505050565b600090565b6200035362000344565b6200036081848462000319565b505050565b5b8181101562000388576200037c60008262000349565b60018101905062000366565b5050565b601f821115620003d757620003a1816200024b565b620003ac8462000260565b81016020851015620003bc578190505b620003d4620003cb8562000260565b83018262000365565b50505b505050565b600082821c905092915050565b6000620003fc60001984600802620003dc565b1980831691505092915050565b6000620004178383620003e9565b9150826002028217905092915050565b6200043282620001ad565b67ffffffffffffffff8111156200044e576200044d620001b8565b5b6200045a825462000216565b620004678282856200038c565b600060209050601f8311600181146200049f57600084156200048a578287015190505b62000496858262000409565b86555062000506565b601f198416620004af866200024b565b60005b82811015620004d957848901518255600182019150602085019450602081019050620004b2565b86831015620004f95784890151620004f5601f891682620003e9565b8355505b6001600288020188555050505b505050505050565b613a6c806200051e6000396000f3fe608060405234801561001057600080fd5b50600436106101215760003560e01c80638b8ff358116100ad578063af3ef62e11610071578063af3ef62e14610304578063b64fe1c614610320578063b88d4fde1461033c578063c87b56dd14610358578063e985e9c51461038857610121565b80638b8ff358146102745780638f9c39561461029257806395d89b41146102ae578063a06422a7146102cc578063a22cb465146102e857610121565b806323b872dd116100f457806323b872dd146101c057806342842e0e146101dc5780636352211e146101f85780636d4195fb1461022857806370a082311461024457610121565b806301ffc9a71461012657806306fdde0314610156578063081812fc14610174578063095ea7b3146101a4575b600080fd5b610140600480360381019061013b9190612489565b6103b8565b60405161014d91906124d1565b60405180910390f35b61015e61049a565b60405161016b919061257c565b60405180910390f35b61018e600480360381019061018991906125d4565b61052c565b60405161019b9190612642565b60405180910390f35b6101be60048036038101906101b99190612689565b610572565b005b6101da60048036038101906101d591906126c9565b610689565b005b6101f660048036038101906101f191906126c9565b6106e9565b005b610212600480360381019061020d91906125d4565b610709565b60405161021f9190612642565b60405180910390f35b610242600480360381019061023d9190612932565b61078f565b005b61025e600480360381019061025991906129f7565b6108ba565b60405161026b9190612a33565b60405180910390f35b61027c610971565b6040516102899190612a33565b60405180910390f35b6102ac60048036038101906102a79190612a4e565b610976565b005b6102b6610a54565b6040516102c3919061257c565b60405180910390f35b6102e660048036038101906102e191906129f7565b610ae6565b005b61030260048036038101906102fd9190612ad6565b610d8f565b005b61031e60048036038101906103199190612b16565b610da5565b005b61033a60048036038101906103359190612a4e565b6110d8565b005b61035660048036038101906103519190612b43565b611399565b005b610372600480360381019061036d91906125d4565b6113fb565b60405161037f919061257c565b60405180910390f35b6103a2600480360381019061039d9190612bc6565b6114a0565b6040516103af91906124d1565b60405180910390f35b60007f80ac58cd000000000000000000000000000000000000000000000000000000007bffffffffffffffffffffffffffffffffffffffffffffffffffffffff1916827bffffffffffffffffffffffffffffffffffffffffffffffffffffffff1916148061048357507f5b5e139f000000000000000000000000000000000000000000000000000000007bffffffffffffffffffffffffffffffffffffffffffffffffffffffff1916827bffffffffffffffffffffffffffffffffffffffffffffffffffffffff1916145b80610493575061049282611534565b5b9050919050565b6060600080546104a990612c35565b80601f01602080910402602001604051908101604052809291908181526020018280546104d590612c35565b80156105225780601f106104f757610100808354040283529160200191610522565b820191906000526020600020905b81548152906001019060200180831161050557829003601f168201915b5050505050905090565b60006105378261159e565b6004600083815260200190815260200160002060009054906101000a900473ffffffffffffffffffffffffffffffffffffffff169050919050565b600061057d82610709565b90508073ffffffffffffffffffffffffffffffffffffffff168373ffffffffffffffffffffffffffffffffffffffff16036105ed576040517f08c379a00000000000000000000000000000000000000000000000000000000081526004016105e490612cd8565b60405180910390fd5b8073ffffffffffffffffffffffffffffffffffffffff1661060c6115e9565b73ffffffffffffffffffffffffffffffffffffffff16148061063b575061063a816106356115e9565b6114a0565b5b61067a576040517f08c379a000000000000000000000000000000000000000000000000000000000815260040161067190612d6a565b60405180910390fd5b61068483836115f1565b505050565b61069a6106946115e9565b826116aa565b6106d9576040517f08c379a00000000000000000000000000000000000000000000000000000000081526004016106d090612dfc565b60405180910390fd5b6106e483838361173f565b505050565b61070483838360405180602001604052806000815250611399565b505050565b60008061071583611a38565b9050600073ffffffffffffffffffffffffffffffffffffffff168173ffffffffffffffffffffffffffffffffffffffff1603610786576040517f08c379a000000000000000000000000000000000000000000000000000000000815260040161077d90612e68565b60405180910390fd5b80915050919050565b600080828060200190518101906107a69190612f0d565b915091506107b48686611a75565b836007600087815260200190815260200160002090816107d49190613115565b5081600a60008873ffffffffffffffffffffffffffffffffffffffff1673ffffffffffffffffffffffffffffffffffffffff16815260200190815260200160002060000190816108249190613115565b5080600a60008873ffffffffffffffffffffffffffffffffffffffff1673ffffffffffffffffffffffffffffffffffffffff1681526020019081526020016000206001018190555084600860008873ffffffffffffffffffffffffffffffffffffffff1673ffffffffffffffffffffffffffffffffffffffff168152602001908152602001600020819055505050505050505050565b60008073ffffffffffffffffffffffffffffffffffffffff168273ffffffffffffffffffffffffffffffffffffffff160361092a576040517f08c379a000000000000000000000000000000000000000000000000000000000815260040161092190613259565b60405180910390fd5b600360008373ffffffffffffffffffffffffffffffffffffffff1673ffffffffffffffffffffffffffffffffffffffff168152602001908152602001600020549050919050565b601481565b6000600860008473ffffffffffffffffffffffffffffffffffffffff1673ffffffffffffffffffffffffffffffffffffffff16815260200190815260200160002054905060008103610a2e57600660008154809291906109d5906132a8565b919050555060065490506109e98382611a75565b80600860008573ffffffffffffffffffffffffffffffffffffffff1673ffffffffffffffffffffffffffffffffffffffff168152602001908152602001600020819055505b81600760008381526020019081526020016000209081610a4e9190613115565b50505050565b606060018054610a6390612c35565b80601f0160208091040260200160405190810160405280929190818152602001828054610a8f90612c35565b8015610adc5780601f10610ab157610100808354040283529160200191610adc565b820191906000526020600020905b815481529060010190602001808311610abf57829003601f168201915b5050505050905090565b6000600a60008373ffffffffffffffffffffffffffffffffffffffff1673ffffffffffffffffffffffffffffffffffffffff16815260200190815260200160002090508060020160009054906101000a900460ff16610b7a576040517f08c379a0000000000000000000000000000000000000000000000000000000008152600401610b719061333c565b60405180910390fd5b60058160010154610b8b919061335c565b81600101819055506000601467ffffffffffffffff811115610bb057610baf612766565b5b604051908082528060200260200182016040528015610be357816020015b6060815260200190600190039081610bce5790505b509050816000018054610bf590612c35565b80601f0160208091040260200160405190810160405280929190818152602001828054610c2190612c35565b8015610c6e5780601f10610c4357610100808354040283529160200191610c6e565b820191906000526020600020905b815481529060010190602001808311610c5157829003601f168201915b505050505081600081518110610c8757610c86613390565b5b6020026020010181905250610c9f8260010154611c92565b81600181518110610cb357610cb2613390565b5b602002602001018190525060006040518060400160405280601d81526020017f24706c617965725f6e616d65242024706c617965725f706f696e7473240000008152509050600960009054906101000a900473ffffffffffffffffffffffffffffffffffffffff1673ffffffffffffffffffffffffffffffffffffffff166375948bb08584846040518463ffffffff1660e01b8152600401610d57939291906134cb565b600060405180830381600087803b158015610d7157600080fd5b505af1158015610d85573d6000803e3d6000fd5b5050505050505050565b610da1610d9a6115e9565b8383611d60565b5050565b6000610daf6115e9565b90506000600860008373ffffffffffffffffffffffffffffffffffffffff1673ffffffffffffffffffffffffffffffffffffffff168152602001908152602001600020549050610dfe81611ecc565b600760008281526020019081526020016000206000610e1d91906123c0565b600860008373ffffffffffffffffffffffffffffffffffffffff1673ffffffffffffffffffffffffffffffffffffffff1681526020019081526020016000206000905560003090506000600760008481526020019081526020016000208054610e8590612c35565b80601f0160208091040260200160405190810160405280929190818152602001828054610eb190612c35565b8015610efe5780601f10610ed357610100808354040283529160200191610efe565b820191906000526020600020905b815481529060010190602001808311610ee157829003601f168201915b505050505090506000600a60008673ffffffffffffffffffffffffffffffffffffffff1673ffffffffffffffffffffffffffffffffffffffff168152602001908152602001600020604051806060016040529081600082018054610f6190612c35565b80601f0160208091040260200160405190810160405280929190818152602001828054610f8d90612c35565b8015610fda5780601f10610faf57610100808354040283529160200191610fda565b820191906000526020600020905b815481529060010190602001808311610fbd57829003601f168201915b50505050508152602001600182015481526020016002820160009054906101000a900460ff1615151515815250509050600081600001518260200151604051602001611027929190613510565b6040516020818303038152906040529050600960009054906101000a900473ffffffffffffffffffffffffffffffffffffffff1673ffffffffffffffffffffffffffffffffffffffff16638d6dc0eb8886898988876040518763ffffffff1660e01b815260040161109d969594939291906135a4565b600060405180830381600087803b1580156110b757600080fd5b505af11580156110cb573d6000803e3d6000fd5b5050505050505050505050565b6000600a60008473ffffffffffffffffffffffffffffffffffffffff1673ffffffffffffffffffffffffffffffffffffffff16815260200190815260200160002090508060020160009054906101000a900460ff161561116d576040517f08c379a00000000000000000000000000000000000000000000000000000000081526004016111649061365f565b60405180910390fd5b8181600001908161117e9190613115565b5060018160020160006101000a81548160ff0219169083151502179055506000601467ffffffffffffffff8111156111b9576111b8612766565b5b6040519080825280602002602001820160405280156111ec57816020015b60608152602001906001900390816111d75790505b5090508160000180546111fe90612c35565b80601f016020809104026020016040519081016040528092919081815260200182805461122a90612c35565b80156112775780601f1061124c57610100808354040283529160200191611277565b820191906000526020600020905b81548152906001019060200180831161125a57829003601f168201915b5050505050816000815181106112905761128f613390565b5b60200260200101819052506112a88260010154611c92565b816001815181106112bc576112bb613390565b5b602002602001018190525060006040518060400160405280601d81526020017f24706c617965725f6e616d65242024706c617965725f706f696e7473240000008152509050600960009054906101000a900473ffffffffffffffffffffffffffffffffffffffff1673ffffffffffffffffffffffffffffffffffffffff166375948bb08684846040518463ffffffff1660e01b8152600401611360939291906134cb565b600060405180830381600087803b15801561137a57600080fd5b505af115801561138e573d6000803e3d6000fd5b505050505050505050565b6113aa6113a46115e9565b836116aa565b6113e9576040517f08c379a00000000000000000000000000000000000000000000000000000000081526004016113e090612dfc565b60405180910390fd5b6113f58484848461201a565b50505050565b606060076000838152602001908152602001600020805461141b90612c35565b80601f016020809104026020016040519081016040528092919081815260200182805461144790612c35565b80156114945780601f1061146957610100808354040283529160200191611494565b820191906000526020600020905b81548152906001019060200180831161147757829003601f168201915b50505050509050919050565b6000600560008473ffffffffffffffffffffffffffffffffffffffff1673ffffffffffffffffffffffffffffffffffffffff16815260200190815260200160002060008373ffffffffffffffffffffffffffffffffffffffff1673ffffffffffffffffffffffffffffffffffffffff16815260200190815260200160002060009054906101000a900460ff16905092915050565b60007f01ffc9a7000000000000000000000000000000000000000000000000000000007bffffffffffffffffffffffffffffffffffffffffffffffffffffffff1916827bffffffffffffffffffffffffffffffffffffffffffffffffffffffff1916149050919050565b6115a781612076565b6115e6576040517f08c379a00000000000000000000000000000000000000000000000000000000081526004016115dd90612e68565b60405180910390fd5b50565b600033905090565b816004600083815260200190815260200160002060006101000a81548173ffffffffffffffffffffffffffffffffffffffff021916908373ffffffffffffffffffffffffffffffffffffffff160217905550808273ffffffffffffffffffffffffffffffffffffffff1661166483610709565b73ffffffffffffffffffffffffffffffffffffffff167f8c5be1e5ebec7d5bd14f71427d1e84f3dd0314c0f7b2291e5b200ac8c7c3b92560405160405180910390a45050565b6000806116b683610709565b90508073ffffffffffffffffffffffffffffffffffffffff168473ffffffffffffffffffffffffffffffffffffffff1614806116f857506116f781856114a0565b5b8061173657508373ffffffffffffffffffffffffffffffffffffffff1661171e8461052c565b73ffffffffffffffffffffffffffffffffffffffff16145b91505092915050565b8273ffffffffffffffffffffffffffffffffffffffff1661175f82610709565b73ffffffffffffffffffffffffffffffffffffffff16146117b5576040517f08c379a00000000000000000000000000000000000000000000000000000000081526004016117ac906136f1565b60405180910390fd5b600073ffffffffffffffffffffffffffffffffffffffff168273ffffffffffffffffffffffffffffffffffffffff1603611824576040517f08c379a000000000000000000000000000000000000000000000000000000000815260040161181b90613783565b60405180910390fd5b61183183838360016120b7565b8273ffffffffffffffffffffffffffffffffffffffff1661185182610709565b73ffffffffffffffffffffffffffffffffffffffff16146118a7576040517f08c379a000000000000000000000000000000000000000000000000000000000815260040161189e906136f1565b60405180910390fd5b6004600082815260200190815260200160002060006101000a81549073ffffffffffffffffffffffffffffffffffffffff02191690556001600360008573ffffffffffffffffffffffffffffffffffffffff1673ffffffffffffffffffffffffffffffffffffffff168152602001908152602001600020600082825403925050819055506001600360008473ffffffffffffffffffffffffffffffffffffffff1673ffffffffffffffffffffffffffffffffffffffff16815260200190815260200160002060008282540192505081905550816002600083815260200190815260200160002060006101000a81548173ffffffffffffffffffffffffffffffffffffffff021916908373ffffffffffffffffffffffffffffffffffffffff160217905550808273ffffffffffffffffffffffffffffffffffffffff168473ffffffffffffffffffffffffffffffffffffffff167fddf252ad1be2c89b69c2b068fc378daa952ba7f163c4a11628f55a4df523b3ef60405160405180910390a4611a3383838360016120bd565b505050565b60006002600083815260200190815260200160002060009054906101000a900473ffffffffffffffffffffffffffffffffffffffff169050919050565b600073ffffffffffffffffffffffffffffffffffffffff168273ffffffffffffffffffffffffffffffffffffffff1603611ae4576040517f08c379a0000000000000000000000000000000000000000000000000000000008152600401611adb906137ef565b60405180910390fd5b611aed81612076565b15611b2d576040517f08c379a0000000000000000000000000000000000000000000000000000000008152600401611b249061385b565b60405180910390fd5b611b3b6000838360016120b7565b611b4481612076565b15611b84576040517f08c379a0000000000000000000000000000000000000000000000000000000008152600401611b7b9061385b565b60405180910390fd5b6001600360008473ffffffffffffffffffffffffffffffffffffffff1673ffffffffffffffffffffffffffffffffffffffff16815260200190815260200160002060008282540192505081905550816002600083815260200190815260200160002060006101000a81548173ffffffffffffffffffffffffffffffffffffffff021916908373ffffffffffffffffffffffffffffffffffffffff160217905550808273ffffffffffffffffffffffffffffffffffffffff16600073ffffffffffffffffffffffffffffffffffffffff167fddf252ad1be2c89b69c2b068fc378daa952ba7f163c4a11628f55a4df523b3ef60405160405180910390a4611c8e6000838360016120bd565b5050565b606060006001611ca1846120c3565b01905060008167ffffffffffffffff811115611cc057611cbf612766565b5b6040519080825280601f01601f191660200182016040528015611cf25781602001600182028036833780820191505090505b509050600082602001820190505b600115611d55578080600190039150507f3031323334353637383961626364656600000000000000000000000000000000600a86061a8153600a8581611d4957611d4861387b565b5b04945060008503611d00575b819350505050919050565b8173ffffffffffffffffffffffffffffffffffffffff168373ffffffffffffffffffffffffffffffffffffffff1603611dce576040517f08c379a0000000000000000000000000000000000000000000000000000000008152600401611dc5906138f6565b60405180910390fd5b80600560008573ffffffffffffffffffffffffffffffffffffffff1673ffffffffffffffffffffffffffffffffffffffff16815260200190815260200160002060008473ffffffffffffffffffffffffffffffffffffffff1673ffffffffffffffffffffffffffffffffffffffff16815260200190815260200160002060006101000a81548160ff0219169083151502179055508173ffffffffffffffffffffffffffffffffffffffff168373ffffffffffffffffffffffffffffffffffffffff167f17307eab39ab6107e8899845ad3d59bd9653f200f220920489ca2b5937696c3183604051611ebf91906124d1565b60405180910390a3505050565b6000611ed782610709565b9050611ee78160008460016120b7565b611ef082610709565b90506004600083815260200190815260200160002060006101000a81549073ffffffffffffffffffffffffffffffffffffffff02191690556001600360008373ffffffffffffffffffffffffffffffffffffffff1673ffffffffffffffffffffffffffffffffffffffff168152602001908152602001600020600082825403925050819055506002600083815260200190815260200160002060006101000a81549073ffffffffffffffffffffffffffffffffffffffff021916905581600073ffffffffffffffffffffffffffffffffffffffff168273ffffffffffffffffffffffffffffffffffffffff167fddf252ad1be2c89b69c2b068fc378daa952ba7f163c4a11628f55a4df523b3ef60405160405180910390a46120168160008460016120bd565b5050565b61202584848461173f565b61203184848484612216565b612070576040517f08c379a000000000000000000000000000000000000000000000000000000000815260040161206790613988565b60405180910390fd5b50505050565b60008073ffffffffffffffffffffffffffffffffffffffff1661209883611a38565b73ffffffffffffffffffffffffffffffffffffffff1614159050919050565b50505050565b50505050565b600080600090507a184f03e93ff9f4daa797ed6e38ed64bf6a1f0100000000000000008310612121577a184f03e93ff9f4daa797ed6e38ed64bf6a1f01000000000000000083816121175761211661387b565b5b0492506040810190505b6d04ee2d6d415b85acef8100000000831061215e576d04ee2d6d415b85acef810000000083816121545761215361387b565b5b0492506020810190505b662386f26fc10000831061218d57662386f26fc1000083816121835761218261387b565b5b0492506010810190505b6305f5e10083106121b6576305f5e10083816121ac576121ab61387b565b5b0492506008810190505b61271083106121db5761271083816121d1576121d061387b565b5b0492506004810190505b606483106121fe57606483816121f4576121f361387b565b5b0492506002810190505b600a831061220d576001810190505b80915050919050565b60006122378473ffffffffffffffffffffffffffffffffffffffff1661239d565b15612390578373ffffffffffffffffffffffffffffffffffffffff1663150b7a026122606115e9565b8786866040518563ffffffff1660e01b815260040161228294939291906139a8565b6020604051808303816000875af19250505080156122be57506040513d601f19601f820116820180604052508101906122bb9190613a09565b60015b612340573d80600081146122ee576040519150601f19603f3d011682016040523d82523d6000602084013e6122f3565b606091505b506000815103612338576040517f08c379a000000000000000000000000000000000000000000000000000000000815260040161232f90613988565b60405180910390fd5b805181602001fd5b63150b7a0260e01b7bffffffffffffffffffffffffffffffffffffffffffffffffffffffff1916817bffffffffffffffffffffffffffffffffffffffffffffffffffffffff191614915050612395565b600190505b949350505050565b6000808273ffffffffffffffffffffffffffffffffffffffff163b119050919050565b5080546123cc90612c35565b6000825580601f106123de57506123fd565b601f0160209004906000526020600020908101906123fc9190612400565b5b50565b5b80821115612419576000816000905550600101612401565b5090565b6000604051905090565b600080fd5b600080fd5b60007fffffffff0000000000000000000000000000000000000000000000000000000082169050919050565b61246681612431565b811461247157600080fd5b50565b6000813590506124838161245d565b92915050565b60006020828403121561249f5761249e612427565b5b60006124ad84828501612474565b91505092915050565b60008115159050919050565b6124cb816124b6565b82525050565b60006020820190506124e660008301846124c2565b92915050565b600081519050919050565b600082825260208201905092915050565b60005b8381101561252657808201518184015260208101905061250b565b60008484015250505050565b6000601f19601f8301169050919050565b600061254e826124ec565b61255881856124f7565b9350612568818560208601612508565b61257181612532565b840191505092915050565b600060208201905081810360008301526125968184612543565b905092915050565b6000819050919050565b6125b18161259e565b81146125bc57600080fd5b50565b6000813590506125ce816125a8565b92915050565b6000602082840312156125ea576125e9612427565b5b60006125f8848285016125bf565b91505092915050565b600073ffffffffffffffffffffffffffffffffffffffff82169050919050565b600061262c82612601565b9050919050565b61263c81612621565b82525050565b60006020820190506126576000830184612633565b92915050565b61266681612621565b811461267157600080fd5b50565b6000813590506126838161265d565b92915050565b600080604083850312156126a05761269f612427565b5b60006126ae85828601612674565b92505060206126bf858286016125bf565b9150509250929050565b6000806000606084860312156126e2576126e1612427565b5b60006126f086828701612674565b935050602061270186828701612674565b9250506040612712868287016125bf565b9150509250925092565b600067ffffffffffffffff82169050919050565b6127398161271c565b811461274457600080fd5b50565b60008135905061275681612730565b92915050565b600080fd5b600080fd5b7f4e487b7100000000000000000000000000000000000000000000000000000000600052604160045260246000fd5b61279e82612532565b810181811067ffffffffffffffff821117156127bd576127bc612766565b5b80604052505050565b60006127d061241d565b90506127dc8282612795565b919050565b600067ffffffffffffffff8211156127fc576127fb612766565b5b61280582612532565b9050602081019050919050565b82818337600083830152505050565b600061283461282f846127e1565b6127c6565b9050828152602081018484840111156128505761284f612761565b5b61285b848285612812565b509392505050565b600082601f8301126128785761287761275c565b5b8135612888848260208601612821565b91505092915050565b600067ffffffffffffffff8211156128ac576128ab612766565b5b6128b582612532565b9050602081019050919050565b60006128d56128d084612891565b6127c6565b9050828152602081018484840111156128f1576128f0612761565b5b6128fc848285612812565b509392505050565b600082601f8301126129195761291861275c565b5b81356129298482602086016128c2565b91505092915050565b60008060008060008060c0878903121561294f5761294e612427565b5b600061295d89828a01612747565b965050602061296e89828a01612674565b955050604061297f89828a01612674565b945050606061299089828a016125bf565b935050608087013567ffffffffffffffff8111156129b1576129b061242c565b5b6129bd89828a01612863565b92505060a087013567ffffffffffffffff8111156129de576129dd61242c565b5b6129ea89828a01612904565b9150509295509295509295565b600060208284031215612a0d57612a0c612427565b5b6000612a1b84828501612674565b91505092915050565b612a2d8161259e565b82525050565b6000602082019050612a486000830184612a24565b92915050565b60008060408385031215612a6557612a64612427565b5b6000612a7385828601612674565b925050602083013567ffffffffffffffff811115612a9457612a9361242c565b5b612aa085828601612863565b9150509250929050565b612ab3816124b6565b8114612abe57600080fd5b50565b600081359050612ad081612aaa565b92915050565b60008060408385031215612aed57612aec612427565b5b6000612afb85828601612674565b9250506020612b0c85828601612ac1565b9150509250929050565b600060208284031215612b2c57612b2b612427565b5b6000612b3a84828501612747565b91505092915050565b60008060008060808587031215612b5d57612b5c612427565b5b6000612b6b87828801612674565b9450506020612b7c87828801612674565b9350506040612b8d878288016125bf565b925050606085013567ffffffffffffffff811115612bae57612bad61242c565b5b612bba87828801612904565b91505092959194509250565b60008060408385031215612bdd57612bdc612427565b5b6000612beb85828601612674565b9250506020612bfc85828601612674565b9150509250929050565b7f4e487b7100000000000000000000000000000000000000000000000000000000600052602260045260246000fd5b60006002820490506001821680612c4d57607f821691505b602082108103612c6057612c5f612c06565b5b50919050565b7f4552433732313a20617070726f76616c20746f2063757272656e74206f776e6560008201527f7200000000000000000000000000000000000000000000000000000000000000602082015250565b6000612cc26021836124f7565b9150612ccd82612c66565b604082019050919050565b60006020820190508181036000830152612cf181612cb5565b9050919050565b7f4552433732313a20617070726f76652063616c6c6572206973206e6f7420746f60008201527f6b656e206f776e6572206f7220617070726f76656420666f7220616c6c000000602082015250565b6000612d54603d836124f7565b9150612d5f82612cf8565b604082019050919050565b60006020820190508181036000830152612d8381612d47565b9050919050565b7f4552433732313a2063616c6c6572206973206e6f7420746f6b656e206f776e6560008201527f72206f7220617070726f76656400000000000000000000000000000000000000602082015250565b6000612de6602d836124f7565b9150612df182612d8a565b604082019050919050565b60006020820190508181036000830152612e1581612dd9565b9050919050565b7f4552433732313a20696e76616c696420746f6b656e2049440000000000000000600082015250565b6000612e526018836124f7565b9150612e5d82612e1c565b602082019050919050565b60006020820190508181036000830152612e8181612e45565b9050919050565b6000612e9b612e96846127e1565b6127c6565b905082815260208101848484011115612eb757612eb6612761565b5b612ec2848285612508565b509392505050565b600082601f830112612edf57612ede61275c565b5b8151612eef848260208601612e88565b91505092915050565b600081519050612f07816125a8565b92915050565b60008060408385031215612f2457612f23612427565b5b600083015167ffffffffffffffff811115612f4257612f4161242c565b5b612f4e85828601612eca565b9250506020612f5f85828601612ef8565b9150509250929050565b60008190508160005260206000209050919050565b60006020601f8301049050919050565b600082821b905092915050565b600060088302612fcb7fffffffffffffffffffffffffffffffffffffffffffffffffffffffffffffffff82612f8e565b612fd58683612f8e565b95508019841693508086168417925050509392505050565b6000819050919050565b600061301261300d6130088461259e565b612fed565b61259e565b9050919050565b6000819050919050565b61302c83612ff7565b61304061303882613019565b848454612f9b565b825550505050565b600090565b613055613048565b613060818484613023565b505050565b5b818110156130845761307960008261304d565b600181019050613066565b5050565b601f8211156130c95761309a81612f69565b6130a384612f7e565b810160208510156130b2578190505b6130c66130be85612f7e565b830182613065565b50505b505050565b600082821c905092915050565b60006130ec600019846008026130ce565b1980831691505092915050565b600061310583836130db565b9150826002028217905092915050565b61311e826124ec565b67ffffffffffffffff81111561313757613136612766565b5b6131418254612c35565b61314c828285613088565b600060209050601f83116001811461317f576000841561316d578287015190505b61317785826130f9565b8655506131df565b601f19841661318d86612f69565b60005b828110156131b557848901518255600182019150602085019450602081019050613190565b868310156131d257848901516131ce601f8916826130db565b8355505b6001600288020188555050505b505050505050565b7f4552433732313a2061646472657373207a65726f206973206e6f74206120766160008201527f6c6964206f776e65720000000000000000000000000000000000000000000000602082015250565b60006132436029836124f7565b915061324e826131e7565b604082019050919050565b6000602082019050818103600083015261327281613236565b9050919050565b7f4e487b7100000000000000000000000000000000000000000000000000000000600052601160045260246000fd5b60006132b38261259e565b91507fffffffffffffffffffffffffffffffffffffffffffffffffffffffffffffffff82036132e5576132e4613279565b5b600182019050919050565b7f437265617465207468697320706c617965722066697273740000000000000000600082015250565b60006133266018836124f7565b9150613331826132f0565b602082019050919050565b6000602082019050818103600083015261335581613319565b9050919050565b60006133678261259e565b91506133728361259e565b925082820190508082111561338a57613389613279565b5b92915050565b7f4e487b7100000000000000000000000000000000000000000000000000000000600052603260045260246000fd5b600081519050919050565b600082825260208201905092915050565b6000819050602082019050919050565b600082825260208201905092915050565b6000613407826124ec565b61341181856133eb565b9350613421818560208601612508565b61342a81612532565b840191505092915050565b600061344183836133fc565b905092915050565b6000602082019050919050565b6000613461826133bf565b61346b81856133ca565b93508360208202850161347d856133db565b8060005b858110156134b9578484038952815161349a8582613435565b94506134a583613449565b925060208a01995050600181019050613481565b50829750879550505050505092915050565b60006060820190506134e06000830186612633565b81810360208301526134f28185613456565b905081810360408301526135068184612543565b9050949350505050565b6000604082019050818103600083015261352a8185612543565b90506135396020830184612a24565b9392505050565b6135498161271c565b82525050565b600081519050919050565b600082825260208201905092915050565b60006135768261354f565b613580818561355a565b9350613590818560208601612508565b61359981612532565b840191505092915050565b600060c0820190506135b96000830189613540565b6135c66020830188612633565b6135d36040830187612633565b6135e06060830186612a24565b81810360808301526135f28185612543565b905081810360a0830152613606818461356b565b9050979650505050505050565b7f506c6179657220686173206265656e2063726561746564000000000000000000600082015250565b60006136496017836124f7565b915061365482613613565b602082019050919050565b600060208201905081810360008301526136788161363c565b9050919050565b7f4552433732313a207472616e736665722066726f6d20696e636f72726563742060008201527f6f776e6572000000000000000000000000000000000000000000000000000000602082015250565b60006136db6025836124f7565b91506136e68261367f565b604082019050919050565b6000602082019050818103600083015261370a816136ce565b9050919050565b7f4552433732313a207472616e7366657220746f20746865207a65726f2061646460008201527f7265737300000000000000000000000000000000000000000000000000000000602082015250565b600061376d6024836124f7565b915061377882613711565b604082019050919050565b6000602082019050818103600083015261379c81613760565b9050919050565b7f4552433732313a206d696e7420746f20746865207a65726f2061646472657373600082015250565b60006137d96020836124f7565b91506137e4826137a3565b602082019050919050565b60006020820190508181036000830152613808816137cc565b9050919050565b7f4552433732313a20746f6b656e20616c7265616479206d696e74656400000000600082015250565b6000613845601c836124f7565b91506138508261380f565b602082019050919050565b6000602082019050818103600083015261387481613838565b9050919050565b7f4e487b7100000000000000000000000000000000000000000000000000000000600052601260045260246000fd5b7f4552433732313a20617070726f766520746f2063616c6c657200000000000000600082015250565b60006138e06019836124f7565b91506138eb826138aa565b602082019050919050565b6000602082019050818103600083015261390f816138d3565b9050919050565b7f4552433732313a207472616e7366657220746f206e6f6e20455243373231526560008201527f63656976657220696d706c656d656e7465720000000000000000000000000000602082015250565b60006139726032836124f7565b915061397d82613916565b604082019050919050565b600060208201905081810360008301526139a181613965565b9050919050565b60006080820190506139bd6000830187612633565b6139ca6020830186612633565b6139d76040830185612a24565b81810360608301526139e9818461356b565b905095945050505050565b600081519050613a038161245d565b92915050565b600060208284031215613a1f57613a1e612427565b5b6000613a2d848285016139f4565b9150509291505056fea26469706673582212202da5443e4d30ec7ea921ab57d5e99b86779c991eaeffe233e67346d6fe24c4ac64736f6c63430008110033",
  "immutableReferences": {},
  "source": "// SPDX-License-Identifier: MIT\r\npragma solidity ^0.8.17;\r\n\r\nimport {IKanvasAvax} from \"../interfaces/IKanvasAvax.sol\";\r\nimport {IKanvasGame} from \"../interfaces/IKanvasGame.sol\";\r\nimport {IKanvasInteropGame} from \"../interfaces/IKanvasInteropGame.sol\";\r\n\r\nimport {ERC721} from \"@openzeppelin/contracts/token/ERC721/ERC721.sol\";\r\nimport {Strings} from \"@openzeppelin/contracts/utils/Strings.sol\";\r\n\r\ncontract RockPaperScissors is IKanvasGame, IKanvasInteropGame, ERC721 {\r\n    uint256 public constant MAX_PROPERTIES_LEN = 20;\r\n\r\n    uint256 private _tokenId;\r\n\r\n    mapping(uint256 => string) private _tokenURIs;\r\n    mapping(address => uint256) private _playerNfts;\r\n\r\n    IKanvasAvax private kanvas;\r\n\r\n    struct Player {\r\n        string name;\r\n        uint256 points;\r\n        bool created;\r\n    }\r\n\r\n    mapping(address => Player) private _players;\r\n\r\n    constructor(\r\n        address kanvasRouter\r\n    ) ERC721(\"RockPaperScissors\", \"RPS\") IKanvasGame() {\r\n        kanvas = IKanvasAvax(kanvasRouter);\r\n    }\r\n\r\n    function createPlayer(address playerId, string memory name) external {\r\n        Player storage player = _players[playerId];\r\n        require(!player.created, \"Player has been created\");\r\n\r\n        player.name = name;\r\n        player.created = true;\r\n\r\n        string[] memory properties = new string[](MAX_PROPERTIES_LEN);\r\n        properties[0] = player.name;\r\n        properties[1] = Strings.toString(player.points);\r\n\r\n        string memory fields = \"$player_name$ $player_points$\";\r\n\r\n        kanvas._generateUri(playerId, properties, fields);\r\n    }\r\n\r\n    function upgradePlayer(address playerId) external {\r\n        Player storage player = _players[playerId];\r\n        require(player.created, \"Create this player first\");\r\n\r\n        player.points = player.points + 5;\r\n\r\n        string[] memory properties = new string[](MAX_PROPERTIES_LEN);\r\n        properties[0] = player.name;\r\n        properties[1] = Strings.toString(player.points);\r\n\r\n        string memory fields = \"$player_name$ $player_points$\";\r\n\r\n        kanvas._generateUri(playerId, properties, fields);\r\n    }\r\n\r\n    function transferTo(uint64 chainSelector) external {\r\n        address playerId = _msgSender();\r\n        uint256 tokenId = _playerNfts[playerId];\r\n\r\n        _burn(tokenId);\r\n        delete _tokenURIs[tokenId];\r\n\r\n        delete _playerNfts[playerId];\r\n\r\n        address gameId = address(this);\r\n        string memory uri = _tokenURIs[tokenId];\r\n        Player memory player = _players[playerId];\r\n\r\n        bytes memory data = abi.encode(player.name, player.points);\r\n\r\n        kanvas._transferTo(chainSelector, gameId, playerId, tokenId, uri, data);\r\n    }\r\n\r\n    function _receiveFrom(\r\n        uint64 /* chainSelector */,\r\n        address /* gameId */,\r\n        address playerId,\r\n        uint256 tokenId,\r\n        string memory uri,\r\n        bytes memory data\r\n    ) external override {\r\n        (string memory name, uint256 points) = abi.decode(\r\n            data,\r\n            (string, uint256)\r\n        );\r\n\r\n        _mint(playerId, tokenId);\r\n        _tokenURIs[tokenId] = uri;\r\n\r\n        _players[playerId].name = name;\r\n        _players[playerId].points = points;\r\n\r\n        _playerNfts[playerId] = tokenId;\r\n    }\r\n\r\n    function _receiveUri(address playerId, string memory uri) external {\r\n        uint256 tokenId = _playerNfts[playerId];\r\n\r\n        // this player does not have the game nft\r\n        if (tokenId == 0) {\r\n            // mint the game nft for player\r\n            _tokenId++;\r\n            tokenId = _tokenId;\r\n\r\n            _mint(playerId, tokenId);\r\n\r\n            _playerNfts[playerId] = tokenId;\r\n        }\r\n\r\n        _tokenURIs[tokenId] = uri;\r\n    }\r\n\r\n    function tokenURI(\r\n        uint256 tokenId\r\n    ) public view virtual override returns (string memory) {\r\n        return _tokenURIs[tokenId];\r\n    }\r\n}\r\n",
  "sourcePath": "C:\\Users\\DELL\\Documents\\kanvas\\blockchain\\contracts\\rock-paper-scissors\\RockPaperScissors.sol",
  "compiler": {
    "name": "solc",
    "version": "0.8.17+commit.8df45f5f.Emscripten.clang"
  },
  "schemaVersion": "3.4.11",
  "updatedAt": "2023-12-02T16:02:22.485Z",
  "devdoc": {
    "kind": "dev",
    "methods": {
      "approve(address,uint256)": {
        "details": "See {IERC721-approve}."
      },
      "balanceOf(address)": {
        "details": "See {IERC721-balanceOf}."
      },
      "getApproved(uint256)": {
        "details": "See {IERC721-getApproved}."
      },
      "isApprovedForAll(address,address)": {
        "details": "See {IERC721-isApprovedForAll}."
      },
      "name()": {
        "details": "See {IERC721Metadata-name}."
      },
      "ownerOf(uint256)": {
        "details": "See {IERC721-ownerOf}."
      },
      "safeTransferFrom(address,address,uint256)": {
        "details": "See {IERC721-safeTransferFrom}."
      },
      "safeTransferFrom(address,address,uint256,bytes)": {
        "details": "See {IERC721-safeTransferFrom}."
      },
      "setApprovalForAll(address,bool)": {
        "details": "See {IERC721-setApprovalForAll}."
      },
      "supportsInterface(bytes4)": {
        "details": "See {IERC165-supportsInterface}."
      },
      "symbol()": {
        "details": "See {IERC721Metadata-symbol}."
      },
      "tokenURI(uint256)": {
        "details": "See {IERC721Metadata-tokenURI}."
      },
      "transferFrom(address,address,uint256)": {
        "details": "See {IERC721-transferFrom}."
      }
    },
    "version": 1
  },
  "userdoc": {
    "kind": "user",
    "methods": {},
    "version": 1
  }
}