{
  "contractName": "StringJoiner",
  "abi": [
    {
      "inputs": [
        {
          "internalType": "string[]",
          "name": "strings",
          "type": "string[]"
        },
        {
          "internalType": "string",
          "name": "delimiter",
          "type": "string"
        }
      ],
      "name": "joinStrings",
      "outputs": [
        {
          "internalType": "string",
          "name": "",
          "type": "string"
        }
      ],
      "stateMutability": "pure",
      "type": "function",
      "constant": true
    }
  ],
  "bytecode": "0x61085d610053600b82828239805160001a607314610046577f4e487b7100000000000000000000000000000000000000000000000000000000600052600060045260246000fd5b30600052607381538281f3fe73000000000000000000000000000000000000000030146080604052600436106100355760003560e01c80635c8656e01461003a575b600080fd5b610054600480360381019061004f9190610537565b61006a565b604051610061919061062e565b60405180910390f35b606060008351116100b0576040517f08c379a00000000000000000000000000000000000000000000000000000000081526004016100a7906106ad565b60405180910390fd5b6000805b84518110156100f9578481815181106100d0576100cf6106cd565b5b602002602001015151826100e49190610735565b915080806100f190610769565b9150506100b4565b5082516001855161010a91906107b1565b61011491906107e5565b8161011f9190610735565b905060008167ffffffffffffffff81111561013d5761013c610321565b5b6040519080825280601f01601f19166020018201604052801561016f5781602001600182028036833780820191505090505b5090506000805b86518110156102ea576000878281518110610194576101936106cd565b5b6020026020010151905060005b815181101561022b578181815181106101bd576101bc6106cd565b5b602001015160f81c60f81b8585815181106101db576101da6106cd565b5b60200101907effffffffffffffffffffffffffffffffffffffffffffffffffffffffffffff1916908160001a905350838061021590610769565b945050808061022390610769565b9150506101a1565b506001885161023a91906107b1565b8210156102d657600087905060005b81518110156102d357818181518110610265576102646106cd565b5b602001015160f81c60f81b868681518110610283576102826106cd565b5b60200101907effffffffffffffffffffffffffffffffffffffffffffffffffffffffffffff1916908160001a90535084806102bd90610769565b95505080806102cb90610769565b915050610249565b50505b5080806102e290610769565b915050610176565b5081935050505092915050565b6000604051905090565b600080fd5b600080fd5b600080fd5b6000601f19601f8301169050919050565b7f4e487b7100000000000000000000000000000000000000000000000000000000600052604160045260246000fd5b61035982610310565b810181811067ffffffffffffffff8211171561037857610377610321565b5b80604052505050565b600061038b6102f7565b90506103978282610350565b919050565b600067ffffffffffffffff8211156103b7576103b6610321565b5b602082029050602081019050919050565b600080fd5b600080fd5b600067ffffffffffffffff8211156103ed576103ec610321565b5b6103f682610310565b9050602081019050919050565b82818337600083830152505050565b6000610425610420846103d2565b610381565b905082815260208101848484011115610441576104406103cd565b5b61044c848285610403565b509392505050565b600082601f8301126104695761046861030b565b5b8135610479848260208601610412565b91505092915050565b60006104956104908461039c565b610381565b905080838252602082019050602084028301858111156104b8576104b76103c8565b5b835b818110156104ff57803567ffffffffffffffff8111156104dd576104dc61030b565b5b8086016104ea8982610454565b855260208501945050506020810190506104ba565b5050509392505050565b600082601f83011261051e5761051d61030b565b5b813561052e848260208601610482565b91505092915050565b6000806040838503121561054e5761054d610301565b5b600083013567ffffffffffffffff81111561056c5761056b610306565b5b61057885828601610509565b925050602083013567ffffffffffffffff81111561059957610598610306565b5b6105a585828601610454565b9150509250929050565b600081519050919050565b600082825260208201905092915050565b60005b838110156105e95780820151818401526020810190506105ce565b60008484015250505050565b6000610600826105af565b61060a81856105ba565b935061061a8185602086016105cb565b61062381610310565b840191505092915050565b6000602082019050818103600083015261064881846105f5565b905092915050565b600082825260208201905092915050565b7f496e707574206172726179206d757374206e6f7420626520656d707479000000600082015250565b6000610697601d83610650565b91506106a282610661565b602082019050919050565b600060208201905081810360008301526106c68161068a565b9050919050565b7f4e487b7100000000000000000000000000000000000000000000000000000000600052603260045260246000fd5b6000819050919050565b7f4e487b7100000000000000000000000000000000000000000000000000000000600052601160045260246000fd5b6000610740826106fc565b915061074b836106fc565b925082820190508082111561076357610762610706565b5b92915050565b6000610774826106fc565b91507fffffffffffffffffffffffffffffffffffffffffffffffffffffffffffffffff82036107a6576107a5610706565b5b600182019050919050565b60006107bc826106fc565b91506107c7836106fc565b92508282039050818111156107df576107de610706565b5b92915050565b60006107f0826106fc565b91506107fb836106fc565b9250828202610809816106fc565b915082820484148315176108205761081f610706565b5b509291505056fea2646970667358221220fef0ad1d51052af6e73fc700fed7fe01f04f6aa8114813e74e9baa3d1174190364736f6c63430008130033",
  "immutableReferences": {},
  "source": "// SPDX-License-Identifier: MIT\r\npragma solidity ^0.8.19;\r\n\r\nlibrary StringJoiner {\r\n    function joinStrings(\r\n        string[] memory strings,\r\n        string memory delimiter\r\n    ) public pure returns (string memory) {\r\n        require(strings.length > 0, \"Input array must not be empty\");\r\n\r\n        uint totalLength = 0;\r\n\r\n        // Calculate the total length of the joined string\r\n        for (uint i = 0; i < strings.length; i++) {\r\n            totalLength += bytes(strings[i]).length;\r\n        }\r\n\r\n        // Add space for delimiters\r\n        totalLength += (strings.length - 1) * bytes(delimiter).length;\r\n\r\n        // Create a buffer for the joined string\r\n        bytes memory result = new bytes(totalLength);\r\n        uint offset = 0;\r\n\r\n        // Concatenate the strings with the delimiter\r\n        for (uint i = 0; i < strings.length; i++) {\r\n            bytes memory strBytes = bytes(strings[i]);\r\n\r\n            for (uint j = 0; j < strBytes.length; j++) {\r\n                result[offset] = strBytes[j];\r\n                offset++;\r\n            }\r\n\r\n            // Add delimiter if not the last element\r\n            if (i < strings.length - 1) {\r\n                bytes memory delimiterBytes = bytes(delimiter);\r\n                for (uint j = 0; j < delimiterBytes.length; j++) {\r\n                    result[offset] = delimiterBytes[j];\r\n                    offset++;\r\n                }\r\n            }\r\n        }\r\n\r\n        return string(result);\r\n    }\r\n}\r\n",
  "sourcePath": "C:\\Users\\DELL\\Documents\\kanvas\\blockchain\\contracts\\libraries\\StringJoiner.sol",
  "compiler": {
    "name": "solc",
    "version": "0.8.19+commit.7dd6d404.Emscripten.clang"
  },
  "schemaVersion": "3.4.11",
  "updatedAt": "2023-12-05T09:00:38.050Z",
  "networkType": "ethereum",
  "devdoc": {
    "kind": "dev",
    "methods": {},
    "version": 1
  },
  "userdoc": {
    "kind": "user",
    "methods": {},
    "version": 1
  }
}