{
  "contractName": "Ticket",
  "abi": [
    {
      "inputs": [
        {
          "internalType": "address",
          "name": "kanvasRouter",
          "type": "address"
        }
      ],
      "stateMutability": "nonpayable",
      "type": "constructor"
    },
    {
      "anonymous": false,
      "inputs": [
        {
          "indexed": true,
          "internalType": "address",
          "name": "owner",
          "type": "address"
        },
        {
          "indexed": true,
          "internalType": "address",
          "name": "approved",
          "type": "address"
        },
        {
          "indexed": true,
          "internalType": "uint256",
          "name": "tokenId",
          "type": "uint256"
        }
      ],
      "name": "Approval",
      "type": "event"
    },
    {
      "anonymous": false,
      "inputs": [
        {
          "indexed": true,
          "internalType": "address",
          "name": "owner",
          "type": "address"
        },
        {
          "indexed": true,
          "internalType": "address",
          "name": "operator",
          "type": "address"
        },
        {
          "indexed": false,
          "internalType": "bool",
          "name": "approved",
          "type": "bool"
        }
      ],
      "name": "ApprovalForAll",
      "type": "event"
    },
    {
      "anonymous": false,
      "inputs": [
        {
          "indexed": true,
          "internalType": "address",
          "name": "previousOwner",
          "type": "address"
        },
        {
          "indexed": true,
          "internalType": "address",
          "name": "newOwner",
          "type": "address"
        }
      ],
      "name": "OwnershipTransferred",
      "type": "event"
    },
    {
      "anonymous": false,
      "inputs": [
        {
          "indexed": true,
          "internalType": "address",
          "name": "from",
          "type": "address"
        },
        {
          "indexed": true,
          "internalType": "address",
          "name": "to",
          "type": "address"
        },
        {
          "indexed": true,
          "internalType": "uint256",
          "name": "tokenId",
          "type": "uint256"
        }
      ],
      "name": "Transfer",
      "type": "event"
    },
    {
      "inputs": [
        {
          "internalType": "address",
          "name": "to",
          "type": "address"
        },
        {
          "internalType": "uint256",
          "name": "tokenId",
          "type": "uint256"
        }
      ],
      "name": "approve",
      "outputs": [],
      "stateMutability": "nonpayable",
      "type": "function"
    },
    {
      "inputs": [
        {
          "internalType": "address",
          "name": "owner",
          "type": "address"
        }
      ],
      "name": "balanceOf",
      "outputs": [
        {
          "internalType": "uint256",
          "name": "",
          "type": "uint256"
        }
      ],
      "stateMutability": "view",
      "type": "function"
    },
    {
      "inputs": [
        {
          "internalType": "uint256",
          "name": "tokenId",
          "type": "uint256"
        }
      ],
      "name": "getApproved",
      "outputs": [
        {
          "internalType": "address",
          "name": "",
          "type": "address"
        }
      ],
      "stateMutability": "view",
      "type": "function"
    },
    {
      "inputs": [
        {
          "internalType": "address",
          "name": "owner",
          "type": "address"
        },
        {
          "internalType": "address",
          "name": "operator",
          "type": "address"
        }
      ],
      "name": "isApprovedForAll",
      "outputs": [
        {
          "internalType": "bool",
          "name": "",
          "type": "bool"
        }
      ],
      "stateMutability": "view",
      "type": "function"
    },
    {
      "inputs": [],
      "name": "name",
      "outputs": [
        {
          "internalType": "string",
          "name": "",
          "type": "string"
        }
      ],
      "stateMutability": "view",
      "type": "function"
    },
    {
      "inputs": [],
      "name": "owner",
      "outputs": [
        {
          "internalType": "address",
          "name": "",
          "type": "address"
        }
      ],
      "stateMutability": "view",
      "type": "function"
    },
    {
      "inputs": [
        {
          "internalType": "uint256",
          "name": "tokenId",
          "type": "uint256"
        }
      ],
      "name": "ownerOf",
      "outputs": [
        {
          "internalType": "address",
          "name": "",
          "type": "address"
        }
      ],
      "stateMutability": "view",
      "type": "function"
    },
    {
      "inputs": [],
      "name": "renounceOwnership",
      "outputs": [],
      "stateMutability": "nonpayable",
      "type": "function"
    },
    {
      "inputs": [
        {
          "internalType": "address",
          "name": "from",
          "type": "address"
        },
        {
          "internalType": "address",
          "name": "to",
          "type": "address"
        },
        {
          "internalType": "uint256",
          "name": "tokenId",
          "type": "uint256"
        }
      ],
      "name": "safeTransferFrom",
      "outputs": [],
      "stateMutability": "nonpayable",
      "type": "function"
    },
    {
      "inputs": [
        {
          "internalType": "address",
          "name": "from",
          "type": "address"
        },
        {
          "internalType": "address",
          "name": "to",
          "type": "address"
        },
        {
          "internalType": "uint256",
          "name": "tokenId",
          "type": "uint256"
        },
        {
          "internalType": "bytes",
          "name": "data",
          "type": "bytes"
        }
      ],
      "name": "safeTransferFrom",
      "outputs": [],
      "stateMutability": "nonpayable",
      "type": "function"
    },
    {
      "inputs": [
        {
          "internalType": "address",
          "name": "operator",
          "type": "address"
        },
        {
          "internalType": "bool",
          "name": "approved",
          "type": "bool"
        }
      ],
      "name": "setApprovalForAll",
      "outputs": [],
      "stateMutability": "nonpayable",
      "type": "function"
    },
    {
      "inputs": [
        {
          "internalType": "bytes4",
          "name": "interfaceId",
          "type": "bytes4"
        }
      ],
      "name": "supportsInterface",
      "outputs": [
        {
          "internalType": "bool",
          "name": "",
          "type": "bool"
        }
      ],
      "stateMutability": "view",
      "type": "function"
    },
    {
      "inputs": [],
      "name": "symbol",
      "outputs": [
        {
          "internalType": "string",
          "name": "",
          "type": "string"
        }
      ],
      "stateMutability": "view",
      "type": "function"
    },
    {
      "inputs": [
        {
          "internalType": "address",
          "name": "from",
          "type": "address"
        },
        {
          "internalType": "address",
          "name": "to",
          "type": "address"
        },
        {
          "internalType": "uint256",
          "name": "tokenId",
          "type": "uint256"
        }
      ],
      "name": "transferFrom",
      "outputs": [],
      "stateMutability": "nonpayable",
      "type": "function"
    },
    {
      "inputs": [
        {
          "internalType": "address",
          "name": "newOwner",
          "type": "address"
        }
      ],
      "name": "transferOwnership",
      "outputs": [],
      "stateMutability": "nonpayable",
      "type": "function"
    },
    {
      "stateMutability": "payable",
      "type": "receive"
    },
    {
      "inputs": [
        {
          "internalType": "string",
          "name": "name",
          "type": "string"
        },
        {
          "internalType": "address",
          "name": "holder",
          "type": "address"
        }
      ],
      "name": "issueTicket",
      "outputs": [],
      "stateMutability": "nonpayable",
      "type": "function"
    },
    {
      "inputs": [
        {
          "internalType": "string",
          "name": "name",
          "type": "string"
        },
        {
          "internalType": "uint256",
          "name": "tokenId",
          "type": "uint256"
        }
      ],
      "name": "updateTicket",
      "outputs": [],
      "stateMutability": "nonpayable",
      "type": "function"
    },
    {
      "inputs": [
        {
          "internalType": "address",
          "name": "holder",
          "type": "address"
        },
        {
          "internalType": "string",
          "name": "uri",
          "type": "string"
        }
      ],
      "name": "_receiveUri",
      "outputs": [],
      "stateMutability": "nonpayable",
      "type": "function"
    },
    {
      "inputs": [
        {
          "internalType": "uint256",
          "name": "tokenId",
          "type": "uint256"
        }
      ],
      "name": "tokenURI",
      "outputs": [
        {
          "internalType": "string",
          "name": "",
          "type": "string"
        }
      ],
      "stateMutability": "view",
      "type": "function"
    }
  ],
  "bytecode": "0x60806040523480156200001157600080fd5b506040516200374e3803806200374e833981810160405281019062000037919062000269565b6040518060400160405280600681526020017f5469636b657400000000000000000000000000000000000000000000000000008152506040518060400160405280600381526020017f544b5400000000000000000000000000000000000000000000000000000000008152508160009081620000b4919062000515565b508060019081620000c6919062000515565b505050620000e9620000dd6200013160201b60201c565b6200013960201b60201c565b80600a60006101000a81548173ffffffffffffffffffffffffffffffffffffffff021916908373ffffffffffffffffffffffffffffffffffffffff16021790555050620005fc565b600033905090565b6000600660009054906101000a900473ffffffffffffffffffffffffffffffffffffffff16905081600660006101000a81548173ffffffffffffffffffffffffffffffffffffffff021916908373ffffffffffffffffffffffffffffffffffffffff1602179055508173ffffffffffffffffffffffffffffffffffffffff168173ffffffffffffffffffffffffffffffffffffffff167f8be0079c531659141344cd1fd0a4f28419497f9722a3daafe3b4186f6b6457e060405160405180910390a35050565b600080fd5b600073ffffffffffffffffffffffffffffffffffffffff82169050919050565b6000620002318262000204565b9050919050565b620002438162000224565b81146200024f57600080fd5b50565b600081519050620002638162000238565b92915050565b600060208284031215620002825762000281620001ff565b5b6000620002928482850162000252565b91505092915050565b600081519050919050565b7f4e487b7100000000000000000000000000000000000000000000000000000000600052604160045260246000fd5b7f4e487b7100000000000000000000000000000000000000000000000000000000600052602260045260246000fd5b600060028204905060018216806200031d57607f821691505b602082108103620003335762000332620002d5565b5b50919050565b60008190508160005260206000209050919050565b60006020601f8301049050919050565b600082821b905092915050565b6000600883026200039d7fffffffffffffffffffffffffffffffffffffffffffffffffffffffffffffffff826200035e565b620003a986836200035e565b95508019841693508086168417925050509392505050565b6000819050919050565b6000819050919050565b6000620003f6620003f0620003ea84620003c1565b620003cb565b620003c1565b9050919050565b6000819050919050565b6200041283620003d5565b6200042a6200042182620003fd565b8484546200036b565b825550505050565b600090565b6200044162000432565b6200044e81848462000407565b505050565b5b8181101562000476576200046a60008262000437565b60018101905062000454565b5050565b601f821115620004c5576200048f8162000339565b6200049a846200034e565b81016020851015620004aa578190505b620004c2620004b9856200034e565b83018262000453565b50505b505050565b600082821c905092915050565b6000620004ea60001984600802620004ca565b1980831691505092915050565b6000620005058383620004d7565b9150826002028217905092915050565b62000520826200029b565b67ffffffffffffffff8111156200053c576200053b620002a6565b5b62000548825462000304565b620005558282856200047a565b600060209050601f8311600181146200058d576000841562000578578287015190505b620005848582620004f7565b865550620005f4565b601f1984166200059d8662000339565b60005b82811015620005c757848901518255600182019150602085019450602081019050620005a0565b86831015620005e75784890151620005e3601f891682620004d7565b8355505b6001600288020188555050505b505050505050565b613142806200060c6000396000f3fe6080604052600436106101185760003560e01c8063715018a6116100a0578063b88d4fde11610064578063b88d4fde146103a6578063c87b56dd146103cf578063e6c2d9611461040c578063e985e9c514610435578063f2fde38b146104725761011f565b8063715018a6146102e75780638da5cb5b146102fe5780638f9c39561461032957806395d89b4114610352578063a22cb4651461037d5761011f565b806323b872dd116100e757806323b872dd146101f257806342842e0e1461021b5780636352211e146102445780636cc310dc1461028157806370a08231146102aa5761011f565b806301ffc9a71461012457806306fdde0314610161578063081812fc1461018c578063095ea7b3146101c95761011f565b3661011f57005b600080fd5b34801561013057600080fd5b5061014b60048036038101906101469190611d0f565b61049b565b6040516101589190611d57565b60405180910390f35b34801561016d57600080fd5b5061017661057d565b6040516101839190611e02565b60405180910390f35b34801561019857600080fd5b506101b360048036038101906101ae9190611e5a565b61060f565b6040516101c09190611ec8565b60405180910390f35b3480156101d557600080fd5b506101f060048036038101906101eb9190611f0f565b610655565b005b3480156101fe57600080fd5b5061021960048036038101906102149190611f4f565b61076c565b005b34801561022757600080fd5b50610242600480360381019061023d9190611f4f565b6107cc565b005b34801561025057600080fd5b5061026b60048036038101906102669190611e5a565b6107ec565b6040516102789190611ec8565b60405180910390f35b34801561028d57600080fd5b506102a860048036038101906102a391906120d7565b610872565b005b3480156102b657600080fd5b506102d160048036038101906102cc9190612133565b610a2f565b6040516102de919061216f565b60405180910390f35b3480156102f357600080fd5b506102fc610ae6565b005b34801561030a57600080fd5b50610313610afa565b6040516103209190611ec8565b60405180910390f35b34801561033557600080fd5b50610350600480360381019061034b919061218a565b610b24565b005b34801561035e57600080fd5b50610367610c1f565b6040516103749190611e02565b60405180910390f35b34801561038957600080fd5b506103a4600480360381019061039f9190612212565b610cb1565b005b3480156103b257600080fd5b506103cd60048036038101906103c891906122f3565b610cc7565b005b3480156103db57600080fd5b506103f660048036038101906103f19190611e5a565b610d29565b6040516104039190611e02565b60405180910390f35b34801561041857600080fd5b50610433600480360381019061042e9190612376565b610dce565b005b34801561044157600080fd5b5061045c600480360381019061045791906123d2565b610f2b565b6040516104699190611d57565b60405180910390f35b34801561047e57600080fd5b5061049960048036038101906104949190612133565b610fbf565b005b60007f80ac58cd000000000000000000000000000000000000000000000000000000007bffffffffffffffffffffffffffffffffffffffffffffffffffffffff1916827bffffffffffffffffffffffffffffffffffffffffffffffffffffffff1916148061056657507f5b5e139f000000000000000000000000000000000000000000000000000000007bffffffffffffffffffffffffffffffffffffffffffffffffffffffff1916827bffffffffffffffffffffffffffffffffffffffffffffffffffffffff1916145b80610576575061057582611042565b5b9050919050565b60606000805461058c90612441565b80601f01602080910402602001604051908101604052809291908181526020018280546105b890612441565b80156106055780601f106105da57610100808354040283529160200191610605565b820191906000526020600020905b8154815290600101906020018083116105e857829003601f168201915b5050505050905090565b600061061a826110ac565b6004600083815260200190815260200160002060009054906101000a900473ffffffffffffffffffffffffffffffffffffffff169050919050565b6000610660826107ec565b90508073ffffffffffffffffffffffffffffffffffffffff168373ffffffffffffffffffffffffffffffffffffffff16036106d0576040517f08c379a00000000000000000000000000000000000000000000000000000000081526004016106c7906124e4565b60405180910390fd5b8073ffffffffffffffffffffffffffffffffffffffff166106ef6110f7565b73ffffffffffffffffffffffffffffffffffffffff16148061071e575061071d816107186110f7565b610f2b565b5b61075d576040517f08c379a000000000000000000000000000000000000000000000000000000000815260040161075490612576565b60405180910390fd5b61076783836110ff565b505050565b61077d6107776110f7565b826111b8565b6107bc576040517f08c379a00000000000000000000000000000000000000000000000000000000081526004016107b390612608565b60405180910390fd5b6107c783838361124d565b505050565b6107e783838360405180602001604052806000815250610cc7565b505050565b6000806107f883611546565b9050600073ffffffffffffffffffffffffffffffffffffffff168173ffffffffffffffffffffffffffffffffffffffff1603610869576040517f08c379a000000000000000000000000000000000000000000000000000000000815260040161086090612674565b60405180910390fd5b80915050919050565b61087a611583565b6007600081548092919061088d906126c3565b9190505550600060075490506108a38282611601565b80600860008473ffffffffffffffffffffffffffffffffffffffff1673ffffffffffffffffffffffffffffffffffffffff168152602001908152602001600020819055506000600167ffffffffffffffff81111561090457610903611fac565b5b60405190808252806020026020018201604052801561093757816020015b60608152602001906001900390816109225790505b509050838160008151811061094f5761094e61270b565b5b602002602001018190525060006040518060400160405280600681526020017f246e616d652400000000000000000000000000000000000000000000000000008152509050600a60009054906101000a900473ffffffffffffffffffffffffffffffffffffffff1673ffffffffffffffffffffffffffffffffffffffff1663eee6e57385848460006040518563ffffffff1660e01b81526004016109f69493929190612862565b600060405180830381600087803b158015610a1057600080fd5b505af1158015610a24573d6000803e3d6000fd5b505050505050505050565b60008073ffffffffffffffffffffffffffffffffffffffff168273ffffffffffffffffffffffffffffffffffffffff1603610a9f576040517f08c379a0000000000000000000000000000000000000000000000000000000008152600401610a9690612927565b60405180910390fd5b600360008373ffffffffffffffffffffffffffffffffffffffff1673ffffffffffffffffffffffffffffffffffffffff168152602001908152602001600020549050919050565b610aee611583565b610af8600061181e565b565b6000600660009054906101000a900473ffffffffffffffffffffffffffffffffffffffff16905090565b600a60009054906101000a900473ffffffffffffffffffffffffffffffffffffffff1673ffffffffffffffffffffffffffffffffffffffff16610b656110f7565b73ffffffffffffffffffffffffffffffffffffffff1614610bbb576040517f08c379a0000000000000000000000000000000000000000000000000000000008152600401610bb290612993565b60405180910390fd5b8060096000600860008673ffffffffffffffffffffffffffffffffffffffff1673ffffffffffffffffffffffffffffffffffffffff1681526020019081526020016000205481526020019081526020016000209081610c1a9190612b5f565b505050565b606060018054610c2e90612441565b80601f0160208091040260200160405190810160405280929190818152602001828054610c5a90612441565b8015610ca75780601f10610c7c57610100808354040283529160200191610ca7565b820191906000526020600020905b815481529060010190602001808311610c8a57829003601f168201915b5050505050905090565b610cc3610cbc6110f7565b83836118e4565b5050565b610cd8610cd26110f7565b836111b8565b610d17576040517f08c379a0000000000000000000000000000000000000000000000000000000008152600401610d0e90612608565b60405180910390fd5b610d2384848484611a50565b50505050565b6060600960008381526020019081526020016000208054610d4990612441565b80601f0160208091040260200160405190810160405280929190818152602001828054610d7590612441565b8015610dc25780601f10610d9757610100808354040283529160200191610dc2565b820191906000526020600020905b815481529060010190602001808311610da557829003601f168201915b50505050509050919050565b610dd6611583565b6000600167ffffffffffffffff811115610df357610df2611fac565b5b604051908082528060200260200182016040528015610e2657816020015b6060815260200190600190039081610e115790505b5090508281600081518110610e3e57610e3d61270b565b5b60200260200101819052506000610e5483611546565b905060006040518060400160405280600681526020017f246e616d652400000000000000000000000000000000000000000000000000008152509050600a60009054906101000a900473ffffffffffffffffffffffffffffffffffffffff1673ffffffffffffffffffffffffffffffffffffffff1663eee6e57383858460016040518563ffffffff1660e01b8152600401610ef29493929190612862565b600060405180830381600087803b158015610f0c57600080fd5b505af1158015610f20573d6000803e3d6000fd5b505050505050505050565b6000600560008473ffffffffffffffffffffffffffffffffffffffff1673ffffffffffffffffffffffffffffffffffffffff16815260200190815260200160002060008373ffffffffffffffffffffffffffffffffffffffff1673ffffffffffffffffffffffffffffffffffffffff16815260200190815260200160002060009054906101000a900460ff16905092915050565b610fc7611583565b600073ffffffffffffffffffffffffffffffffffffffff168173ffffffffffffffffffffffffffffffffffffffff1603611036576040517f08c379a000000000000000000000000000000000000000000000000000000000815260040161102d90612ca3565b60405180910390fd5b61103f8161181e565b50565b60007f01ffc9a7000000000000000000000000000000000000000000000000000000007bffffffffffffffffffffffffffffffffffffffffffffffffffffffff1916827bffffffffffffffffffffffffffffffffffffffffffffffffffffffff1916149050919050565b6110b581611aac565b6110f4576040517f08c379a00000000000000000000000000000000000000000000000000000000081526004016110eb90612674565b60405180910390fd5b50565b600033905090565b816004600083815260200190815260200160002060006101000a81548173ffffffffffffffffffffffffffffffffffffffff021916908373ffffffffffffffffffffffffffffffffffffffff160217905550808273ffffffffffffffffffffffffffffffffffffffff16611172836107ec565b73ffffffffffffffffffffffffffffffffffffffff167f8c5be1e5ebec7d5bd14f71427d1e84f3dd0314c0f7b2291e5b200ac8c7c3b92560405160405180910390a45050565b6000806111c4836107ec565b90508073ffffffffffffffffffffffffffffffffffffffff168473ffffffffffffffffffffffffffffffffffffffff16148061120657506112058185610f2b565b5b8061124457508373ffffffffffffffffffffffffffffffffffffffff1661122c8461060f565b73ffffffffffffffffffffffffffffffffffffffff16145b91505092915050565b8273ffffffffffffffffffffffffffffffffffffffff1661126d826107ec565b73ffffffffffffffffffffffffffffffffffffffff16146112c3576040517f08c379a00000000000000000000000000000000000000000000000000000000081526004016112ba90612d35565b60405180910390fd5b600073ffffffffffffffffffffffffffffffffffffffff168273ffffffffffffffffffffffffffffffffffffffff1603611332576040517f08c379a000000000000000000000000000000000000000000000000000000000815260040161132990612dc7565b60405180910390fd5b61133f8383836001611aed565b8273ffffffffffffffffffffffffffffffffffffffff1661135f826107ec565b73ffffffffffffffffffffffffffffffffffffffff16146113b5576040517f08c379a00000000000000000000000000000000000000000000000000000000081526004016113ac90612d35565b60405180910390fd5b6004600082815260200190815260200160002060006101000a81549073ffffffffffffffffffffffffffffffffffffffff02191690556001600360008573ffffffffffffffffffffffffffffffffffffffff1673ffffffffffffffffffffffffffffffffffffffff168152602001908152602001600020600082825403925050819055506001600360008473ffffffffffffffffffffffffffffffffffffffff1673ffffffffffffffffffffffffffffffffffffffff16815260200190815260200160002060008282540192505081905550816002600083815260200190815260200160002060006101000a81548173ffffffffffffffffffffffffffffffffffffffff021916908373ffffffffffffffffffffffffffffffffffffffff160217905550808273ffffffffffffffffffffffffffffffffffffffff168473ffffffffffffffffffffffffffffffffffffffff167fddf252ad1be2c89b69c2b068fc378daa952ba7f163c4a11628f55a4df523b3ef60405160405180910390a46115418383836001611af3565b505050565b60006002600083815260200190815260200160002060009054906101000a900473ffffffffffffffffffffffffffffffffffffffff169050919050565b61158b6110f7565b73ffffffffffffffffffffffffffffffffffffffff166115a9610afa565b73ffffffffffffffffffffffffffffffffffffffff16146115ff576040517f08c379a00000000000000000000000000000000000000000000000000000000081526004016115f690612e33565b60405180910390fd5b565b600073ffffffffffffffffffffffffffffffffffffffff168273ffffffffffffffffffffffffffffffffffffffff1603611670576040517f08c379a000000000000000000000000000000000000000000000000000000000815260040161166790612e9f565b60405180910390fd5b61167981611aac565b156116b9576040517f08c379a00000000000000000000000000000000000000000000000000000000081526004016116b090612f0b565b60405180910390fd5b6116c7600083836001611aed565b6116d081611aac565b15611710576040517f08c379a000000000000000000000000000000000000000000000000000000000815260040161170790612f0b565b60405180910390fd5b6001600360008473ffffffffffffffffffffffffffffffffffffffff1673ffffffffffffffffffffffffffffffffffffffff16815260200190815260200160002060008282540192505081905550816002600083815260200190815260200160002060006101000a81548173ffffffffffffffffffffffffffffffffffffffff021916908373ffffffffffffffffffffffffffffffffffffffff160217905550808273ffffffffffffffffffffffffffffffffffffffff16600073ffffffffffffffffffffffffffffffffffffffff167fddf252ad1be2c89b69c2b068fc378daa952ba7f163c4a11628f55a4df523b3ef60405160405180910390a461181a600083836001611af3565b5050565b6000600660009054906101000a900473ffffffffffffffffffffffffffffffffffffffff16905081600660006101000a81548173ffffffffffffffffffffffffffffffffffffffff021916908373ffffffffffffffffffffffffffffffffffffffff1602179055508173ffffffffffffffffffffffffffffffffffffffff168173ffffffffffffffffffffffffffffffffffffffff167f8be0079c531659141344cd1fd0a4f28419497f9722a3daafe3b4186f6b6457e060405160405180910390a35050565b8173ffffffffffffffffffffffffffffffffffffffff168373ffffffffffffffffffffffffffffffffffffffff1603611952576040517f08c379a000000000000000000000000000000000000000000000000000000000815260040161194990612f77565b60405180910390fd5b80600560008573ffffffffffffffffffffffffffffffffffffffff1673ffffffffffffffffffffffffffffffffffffffff16815260200190815260200160002060008473ffffffffffffffffffffffffffffffffffffffff1673ffffffffffffffffffffffffffffffffffffffff16815260200190815260200160002060006101000a81548160ff0219169083151502179055508173ffffffffffffffffffffffffffffffffffffffff168373ffffffffffffffffffffffffffffffffffffffff167f17307eab39ab6107e8899845ad3d59bd9653f200f220920489ca2b5937696c3183604051611a439190611d57565b60405180910390a3505050565b611a5b84848461124d565b611a6784848484611af9565b611aa6576040517f08c379a0000000000000000000000000000000000000000000000000000000008152600401611a9d90613009565b60405180910390fd5b50505050565b60008073ffffffffffffffffffffffffffffffffffffffff16611ace83611546565b73ffffffffffffffffffffffffffffffffffffffff1614159050919050565b50505050565b50505050565b6000611b1a8473ffffffffffffffffffffffffffffffffffffffff16611c80565b15611c73578373ffffffffffffffffffffffffffffffffffffffff1663150b7a02611b436110f7565b8786866040518563ffffffff1660e01b8152600401611b65949392919061307e565b6020604051808303816000875af1925050508015611ba157506040513d601f19601f82011682018060405250810190611b9e91906130df565b60015b611c23573d8060008114611bd1576040519150601f19603f3d011682016040523d82523d6000602084013e611bd6565b606091505b506000815103611c1b576040517f08c379a0000000000000000000000000000000000000000000000000000000008152600401611c1290613009565b60405180910390fd5b805181602001fd5b63150b7a0260e01b7bffffffffffffffffffffffffffffffffffffffffffffffffffffffff1916817bffffffffffffffffffffffffffffffffffffffffffffffffffffffff191614915050611c78565b600190505b949350505050565b6000808273ffffffffffffffffffffffffffffffffffffffff163b119050919050565b6000604051905090565b600080fd5b600080fd5b60007fffffffff0000000000000000000000000000000000000000000000000000000082169050919050565b611cec81611cb7565b8114611cf757600080fd5b50565b600081359050611d0981611ce3565b92915050565b600060208284031215611d2557611d24611cad565b5b6000611d3384828501611cfa565b91505092915050565b60008115159050919050565b611d5181611d3c565b82525050565b6000602082019050611d6c6000830184611d48565b92915050565b600081519050919050565b600082825260208201905092915050565b60005b83811015611dac578082015181840152602081019050611d91565b60008484015250505050565b6000601f19601f8301169050919050565b6000611dd482611d72565b611dde8185611d7d565b9350611dee818560208601611d8e565b611df781611db8565b840191505092915050565b60006020820190508181036000830152611e1c8184611dc9565b905092915050565b6000819050919050565b611e3781611e24565b8114611e4257600080fd5b50565b600081359050611e5481611e2e565b92915050565b600060208284031215611e7057611e6f611cad565b5b6000611e7e84828501611e45565b91505092915050565b600073ffffffffffffffffffffffffffffffffffffffff82169050919050565b6000611eb282611e87565b9050919050565b611ec281611ea7565b82525050565b6000602082019050611edd6000830184611eb9565b92915050565b611eec81611ea7565b8114611ef757600080fd5b50565b600081359050611f0981611ee3565b92915050565b60008060408385031215611f2657611f25611cad565b5b6000611f3485828601611efa565b9250506020611f4585828601611e45565b9150509250929050565b600080600060608486031215611f6857611f67611cad565b5b6000611f7686828701611efa565b9350506020611f8786828701611efa565b9250506040611f9886828701611e45565b9150509250925092565b600080fd5b600080fd5b7f4e487b7100000000000000000000000000000000000000000000000000000000600052604160045260246000fd5b611fe482611db8565b810181811067ffffffffffffffff8211171561200357612002611fac565b5b80604052505050565b6000612016611ca3565b90506120228282611fdb565b919050565b600067ffffffffffffffff82111561204257612041611fac565b5b61204b82611db8565b9050602081019050919050565b82818337600083830152505050565b600061207a61207584612027565b61200c565b90508281526020810184848401111561209657612095611fa7565b5b6120a1848285612058565b509392505050565b600082601f8301126120be576120bd611fa2565b5b81356120ce848260208601612067565b91505092915050565b600080604083850312156120ee576120ed611cad565b5b600083013567ffffffffffffffff81111561210c5761210b611cb2565b5b612118858286016120a9565b925050602061212985828601611efa565b9150509250929050565b60006020828403121561214957612148611cad565b5b600061215784828501611efa565b91505092915050565b61216981611e24565b82525050565b60006020820190506121846000830184612160565b92915050565b600080604083850312156121a1576121a0611cad565b5b60006121af85828601611efa565b925050602083013567ffffffffffffffff8111156121d0576121cf611cb2565b5b6121dc858286016120a9565b9150509250929050565b6121ef81611d3c565b81146121fa57600080fd5b50565b60008135905061220c816121e6565b92915050565b6000806040838503121561222957612228611cad565b5b600061223785828601611efa565b9250506020612248858286016121fd565b9150509250929050565b600067ffffffffffffffff82111561226d5761226c611fac565b5b61227682611db8565b9050602081019050919050565b600061229661229184612252565b61200c565b9050828152602081018484840111156122b2576122b1611fa7565b5b6122bd848285612058565b509392505050565b600082601f8301126122da576122d9611fa2565b5b81356122ea848260208601612283565b91505092915050565b6000806000806080858703121561230d5761230c611cad565b5b600061231b87828801611efa565b945050602061232c87828801611efa565b935050604061233d87828801611e45565b925050606085013567ffffffffffffffff81111561235e5761235d611cb2565b5b61236a878288016122c5565b91505092959194509250565b6000806040838503121561238d5761238c611cad565b5b600083013567ffffffffffffffff8111156123ab576123aa611cb2565b5b6123b7858286016120a9565b92505060206123c885828601611e45565b9150509250929050565b600080604083850312156123e9576123e8611cad565b5b60006123f785828601611efa565b925050602061240885828601611efa565b9150509250929050565b7f4e487b7100000000000000000000000000000000000000000000000000000000600052602260045260246000fd5b6000600282049050600182168061245957607f821691505b60208210810361246c5761246b612412565b5b50919050565b7f4552433732313a20617070726f76616c20746f2063757272656e74206f776e6560008201527f7200000000000000000000000000000000000000000000000000000000000000602082015250565b60006124ce602183611d7d565b91506124d982612472565b604082019050919050565b600060208201905081810360008301526124fd816124c1565b9050919050565b7f4552433732313a20617070726f76652063616c6c6572206973206e6f7420746f60008201527f6b656e206f776e6572206f7220617070726f76656420666f7220616c6c000000602082015250565b6000612560603d83611d7d565b915061256b82612504565b604082019050919050565b6000602082019050818103600083015261258f81612553565b9050919050565b7f4552433732313a2063616c6c6572206973206e6f7420746f6b656e206f776e6560008201527f72206f7220617070726f76656400000000000000000000000000000000000000602082015250565b60006125f2602d83611d7d565b91506125fd82612596565b604082019050919050565b60006020820190508181036000830152612621816125e5565b9050919050565b7f4552433732313a20696e76616c696420746f6b656e2049440000000000000000600082015250565b600061265e601883611d7d565b915061266982612628565b602082019050919050565b6000602082019050818103600083015261268d81612651565b9050919050565b7f4e487b7100000000000000000000000000000000000000000000000000000000600052601160045260246000fd5b60006126ce82611e24565b91507fffffffffffffffffffffffffffffffffffffffffffffffffffffffffffffffff8203612700576126ff612694565b5b600182019050919050565b7f4e487b7100000000000000000000000000000000000000000000000000000000600052603260045260246000fd5b600081519050919050565b600082825260208201905092915050565b6000819050602082019050919050565b600082825260208201905092915050565b600061278282611d72565b61278c8185612766565b935061279c818560208601611d8e565b6127a581611db8565b840191505092915050565b60006127bc8383612777565b905092915050565b6000602082019050919050565b60006127dc8261273a565b6127e68185612745565b9350836020820285016127f885612756565b8060005b85811015612834578484038952815161281585826127b0565b9450612820836127c4565b925060208a019950506001810190506127fc565b50829750879550505050505092915050565b600060ff82169050919050565b61285c81612846565b82525050565b60006080820190506128776000830187611eb9565b818103602083015261288981866127d1565b9050818103604083015261289d8185611dc9565b90506128ac6060830184612853565b95945050505050565b7f4552433732313a2061646472657373207a65726f206973206e6f74206120766160008201527f6c6964206f776e65720000000000000000000000000000000000000000000000602082015250565b6000612911602983611d7d565b915061291c826128b5565b604082019050919050565b6000602082019050818103600083015261294081612904565b9050919050565b7f556e417574686f72697a65640000000000000000000000000000000000000000600082015250565b600061297d600c83611d7d565b915061298882612947565b602082019050919050565b600060208201905081810360008301526129ac81612970565b9050919050565b60008190508160005260206000209050919050565b60006020601f8301049050919050565b600082821b905092915050565b600060088302612a157fffffffffffffffffffffffffffffffffffffffffffffffffffffffffffffffff826129d8565b612a1f86836129d8565b95508019841693508086168417925050509392505050565b6000819050919050565b6000612a5c612a57612a5284611e24565b612a37565b611e24565b9050919050565b6000819050919050565b612a7683612a41565b612a8a612a8282612a63565b8484546129e5565b825550505050565b600090565b612a9f612a92565b612aaa818484612a6d565b505050565b5b81811015612ace57612ac3600082612a97565b600181019050612ab0565b5050565b601f821115612b1357612ae4816129b3565b612aed846129c8565b81016020851015612afc578190505b612b10612b08856129c8565b830182612aaf565b50505b505050565b600082821c905092915050565b6000612b3660001984600802612b18565b1980831691505092915050565b6000612b4f8383612b25565b9150826002028217905092915050565b612b6882611d72565b67ffffffffffffffff811115612b8157612b80611fac565b5b612b8b8254612441565b612b96828285612ad2565b600060209050601f831160018114612bc95760008415612bb7578287015190505b612bc18582612b43565b865550612c29565b601f198416612bd7866129b3565b60005b82811015612bff57848901518255600182019150602085019450602081019050612bda565b86831015612c1c5784890151612c18601f891682612b25565b8355505b6001600288020188555050505b505050505050565b7f4f776e61626c653a206e6577206f776e657220697320746865207a65726f206160008201527f6464726573730000000000000000000000000000000000000000000000000000602082015250565b6000612c8d602683611d7d565b9150612c9882612c31565b604082019050919050565b60006020820190508181036000830152612cbc81612c80565b9050919050565b7f4552433732313a207472616e736665722066726f6d20696e636f72726563742060008201527f6f776e6572000000000000000000000000000000000000000000000000000000602082015250565b6000612d1f602583611d7d565b9150612d2a82612cc3565b604082019050919050565b60006020820190508181036000830152612d4e81612d12565b9050919050565b7f4552433732313a207472616e7366657220746f20746865207a65726f2061646460008201527f7265737300000000000000000000000000000000000000000000000000000000602082015250565b6000612db1602483611d7d565b9150612dbc82612d55565b604082019050919050565b60006020820190508181036000830152612de081612da4565b9050919050565b7f4f776e61626c653a2063616c6c6572206973206e6f7420746865206f776e6572600082015250565b6000612e1d602083611d7d565b9150612e2882612de7565b602082019050919050565b60006020820190508181036000830152612e4c81612e10565b9050919050565b7f4552433732313a206d696e7420746f20746865207a65726f2061646472657373600082015250565b6000612e89602083611d7d565b9150612e9482612e53565b602082019050919050565b60006020820190508181036000830152612eb881612e7c565b9050919050565b7f4552433732313a20746f6b656e20616c7265616479206d696e74656400000000600082015250565b6000612ef5601c83611d7d565b9150612f0082612ebf565b602082019050919050565b60006020820190508181036000830152612f2481612ee8565b9050919050565b7f4552433732313a20617070726f766520746f2063616c6c657200000000000000600082015250565b6000612f61601983611d7d565b9150612f6c82612f2b565b602082019050919050565b60006020820190508181036000830152612f9081612f54565b9050919050565b7f4552433732313a207472616e7366657220746f206e6f6e20455243373231526560008201527f63656976657220696d706c656d656e7465720000000000000000000000000000602082015250565b6000612ff3603283611d7d565b9150612ffe82612f97565b604082019050919050565b6000602082019050818103600083015261302281612fe6565b9050919050565b600081519050919050565b600082825260208201905092915050565b600061305082613029565b61305a8185613034565b935061306a818560208601611d8e565b61307381611db8565b840191505092915050565b60006080820190506130936000830187611eb9565b6130a06020830186611eb9565b6130ad6040830185612160565b81810360608301526130bf8184613045565b905095945050505050565b6000815190506130d981611ce3565b92915050565b6000602082840312156130f5576130f4611cad565b5b6000613103848285016130ca565b9150509291505056fea26469706673582212202676446544be58ace863a03f862fc809f219f1da22b5cb3ab7db1d2f511fea8364736f6c63430008130033",
  "immutableReferences": {},
  "source": "// SPDX-License-Identifier: MIT\r\npragma solidity ^0.8.19;\r\n\r\nimport {IKanvasAvax} from \"../../interfaces/IKanvasAvax.sol\";\r\nimport {IKanvasGame} from \"../../interfaces/IKanvasGame.sol\";\r\n\r\nimport {Ownable} from \"@openzeppelin/contracts/access/Ownable.sol\";\r\nimport {ERC721} from \"@openzeppelin/contracts/token/ERC721/ERC721.sol\";\r\nimport {Strings} from \"@openzeppelin/contracts/utils/Strings.sol\";\r\n\r\ncontract Ticket is IKanvasGame, ERC721, Ownable {\r\n    uint8 private constant BEFORE_NFT_TEMPLATE = 0;\r\n    uint8 private constant AFTER_NFT_TEMPLATE = 1;\r\n\r\n    uint256 private _tokenId;\r\n\r\n    mapping(address => uint256) private _holders;\r\n\r\n    mapping(uint256 => string) private _tokenURIs;\r\n\r\n    receive() external payable {}\r\n\r\n    IKanvasAvax private kanvas;\r\n\r\n    constructor(\r\n        address kanvasRouter\r\n    ) ERC721(\"Ticket\", \"TKT\") IKanvasGame() Ownable() {\r\n        kanvas = IKanvasAvax(kanvasRouter);\r\n    }\r\n\r\n    function issueTicket(\r\n        string memory name,\r\n        address holder\r\n    ) external onlyOwner {\r\n        _tokenId++;\r\n        uint256 tokenId = _tokenId;\r\n\r\n        _mint(holder, tokenId);\r\n        _holders[holder] = tokenId;\r\n\r\n        string[] memory props = new string[](1);\r\n        props[0] = name;\r\n\r\n        string memory fields = \"$name$\";\r\n\r\n        kanvas._generateUri(holder, props, fields, BEFORE_NFT_TEMPLATE);\r\n    }\r\n\r\n    function updateTicket(\r\n        string memory name,\r\n        uint256 tokenId\r\n    ) external onlyOwner {\r\n        string[] memory props = new string[](1);\r\n        props[0] = name;\r\n\r\n        address holder = _ownerOf(tokenId);\r\n        string memory fields = \"$name$\";\r\n\r\n        kanvas._generateUri(holder, props, fields, AFTER_NFT_TEMPLATE);\r\n    }\r\n\r\n    function _receiveUri(address holder, string memory uri) external override {\r\n        require(_msgSender() == address(kanvas), \"UnAuthorized\");\r\n        _tokenURIs[_holders[holder]] = uri;\r\n    }\r\n\r\n    function tokenURI(\r\n        uint256 tokenId\r\n    ) public view virtual override returns (string memory) {\r\n        return _tokenURIs[tokenId];\r\n    }\r\n}\r\n",
  "sourcePath": "C:\\Users\\DELL\\Documents\\kanvas\\blockchain\\contracts\\use-cases\\ticketting\\Ticket.sol",
  "compiler": {
    "name": "solc",
    "version": "0.8.19+commit.7dd6d404.Emscripten.clang"
  },
  "schemaVersion": "3.4.11",
  "updatedAt": "2023-12-06T17:31:26.185Z",
  "devdoc": {
    "events": {
      "Approval(address,address,uint256)": {
        "details": "Emitted when `owner` enables `approved` to manage the `tokenId` token."
      },
      "ApprovalForAll(address,address,bool)": {
        "details": "Emitted when `owner` enables or disables (`approved`) `operator` to manage all of its assets."
      },
      "Transfer(address,address,uint256)": {
        "details": "Emitted when `tokenId` token is transferred from `from` to `to`."
      }
    },
    "kind": "dev",
    "methods": {
      "approve(address,uint256)": {
        "details": "See {IERC721-approve}."
      },
      "balanceOf(address)": {
        "details": "See {IERC721-balanceOf}."
      },
      "getApproved(uint256)": {
        "details": "See {IERC721-getApproved}."
      },
      "isApprovedForAll(address,address)": {
        "details": "See {IERC721-isApprovedForAll}."
      },
      "name()": {
        "details": "See {IERC721Metadata-name}."
      },
      "owner()": {
        "details": "Returns the address of the current owner."
      },
      "ownerOf(uint256)": {
        "details": "See {IERC721-ownerOf}."
      },
      "renounceOwnership()": {
        "details": "Leaves the contract without owner. It will not be possible to call `onlyOwner` functions. Can only be called by the current owner. NOTE: Renouncing ownership will leave the contract without an owner, thereby disabling any functionality that is only available to the owner."
      },
      "safeTransferFrom(address,address,uint256)": {
        "details": "See {IERC721-safeTransferFrom}."
      },
      "safeTransferFrom(address,address,uint256,bytes)": {
        "details": "See {IERC721-safeTransferFrom}."
      },
      "setApprovalForAll(address,bool)": {
        "details": "See {IERC721-setApprovalForAll}."
      },
      "supportsInterface(bytes4)": {
        "details": "See {IERC165-supportsInterface}."
      },
      "symbol()": {
        "details": "See {IERC721Metadata-symbol}."
      },
      "tokenURI(uint256)": {
        "details": "See {IERC721Metadata-tokenURI}."
      },
      "transferFrom(address,address,uint256)": {
        "details": "See {IERC721-transferFrom}."
      },
      "transferOwnership(address)": {
        "details": "Transfers ownership of the contract to a new account (`newOwner`). Can only be called by the current owner."
      }
    },
    "version": 1
  },
  "userdoc": {
    "kind": "user",
    "methods": {},
    "version": 1
  }
}