{
  "contractName": "Ticket",
  "abi": [
    {
      "inputs": [
        {
          "internalType": "address",
          "name": "kanvasRouter",
          "type": "address"
        }
      ],
      "stateMutability": "nonpayable",
      "type": "constructor"
    },
    {
      "anonymous": false,
      "inputs": [
        {
          "indexed": true,
          "internalType": "address",
          "name": "owner",
          "type": "address"
        },
        {
          "indexed": true,
          "internalType": "address",
          "name": "approved",
          "type": "address"
        },
        {
          "indexed": true,
          "internalType": "uint256",
          "name": "tokenId",
          "type": "uint256"
        }
      ],
      "name": "Approval",
      "type": "event"
    },
    {
      "anonymous": false,
      "inputs": [
        {
          "indexed": true,
          "internalType": "address",
          "name": "owner",
          "type": "address"
        },
        {
          "indexed": true,
          "internalType": "address",
          "name": "operator",
          "type": "address"
        },
        {
          "indexed": false,
          "internalType": "bool",
          "name": "approved",
          "type": "bool"
        }
      ],
      "name": "ApprovalForAll",
      "type": "event"
    },
    {
      "anonymous": false,
      "inputs": [
        {
          "indexed": true,
          "internalType": "address",
          "name": "previousOwner",
          "type": "address"
        },
        {
          "indexed": true,
          "internalType": "address",
          "name": "newOwner",
          "type": "address"
        }
      ],
      "name": "OwnershipTransferred",
      "type": "event"
    },
    {
      "anonymous": false,
      "inputs": [
        {
          "indexed": true,
          "internalType": "address",
          "name": "from",
          "type": "address"
        },
        {
          "indexed": true,
          "internalType": "address",
          "name": "to",
          "type": "address"
        },
        {
          "indexed": true,
          "internalType": "uint256",
          "name": "tokenId",
          "type": "uint256"
        }
      ],
      "name": "Transfer",
      "type": "event"
    },
    {
      "inputs": [
        {
          "internalType": "address",
          "name": "to",
          "type": "address"
        },
        {
          "internalType": "uint256",
          "name": "tokenId",
          "type": "uint256"
        }
      ],
      "name": "approve",
      "outputs": [],
      "stateMutability": "nonpayable",
      "type": "function"
    },
    {
      "inputs": [
        {
          "internalType": "address",
          "name": "owner",
          "type": "address"
        }
      ],
      "name": "balanceOf",
      "outputs": [
        {
          "internalType": "uint256",
          "name": "",
          "type": "uint256"
        }
      ],
      "stateMutability": "view",
      "type": "function"
    },
    {
      "inputs": [
        {
          "internalType": "uint256",
          "name": "tokenId",
          "type": "uint256"
        }
      ],
      "name": "getApproved",
      "outputs": [
        {
          "internalType": "address",
          "name": "",
          "type": "address"
        }
      ],
      "stateMutability": "view",
      "type": "function"
    },
    {
      "inputs": [
        {
          "internalType": "address",
          "name": "owner",
          "type": "address"
        },
        {
          "internalType": "address",
          "name": "operator",
          "type": "address"
        }
      ],
      "name": "isApprovedForAll",
      "outputs": [
        {
          "internalType": "bool",
          "name": "",
          "type": "bool"
        }
      ],
      "stateMutability": "view",
      "type": "function"
    },
    {
      "inputs": [],
      "name": "name",
      "outputs": [
        {
          "internalType": "string",
          "name": "",
          "type": "string"
        }
      ],
      "stateMutability": "view",
      "type": "function"
    },
    {
      "inputs": [],
      "name": "owner",
      "outputs": [
        {
          "internalType": "address",
          "name": "",
          "type": "address"
        }
      ],
      "stateMutability": "view",
      "type": "function"
    },
    {
      "inputs": [
        {
          "internalType": "uint256",
          "name": "tokenId",
          "type": "uint256"
        }
      ],
      "name": "ownerOf",
      "outputs": [
        {
          "internalType": "address",
          "name": "",
          "type": "address"
        }
      ],
      "stateMutability": "view",
      "type": "function"
    },
    {
      "inputs": [],
      "name": "renounceOwnership",
      "outputs": [],
      "stateMutability": "nonpayable",
      "type": "function"
    },
    {
      "inputs": [
        {
          "internalType": "address",
          "name": "from",
          "type": "address"
        },
        {
          "internalType": "address",
          "name": "to",
          "type": "address"
        },
        {
          "internalType": "uint256",
          "name": "tokenId",
          "type": "uint256"
        }
      ],
      "name": "safeTransferFrom",
      "outputs": [],
      "stateMutability": "nonpayable",
      "type": "function"
    },
    {
      "inputs": [
        {
          "internalType": "address",
          "name": "from",
          "type": "address"
        },
        {
          "internalType": "address",
          "name": "to",
          "type": "address"
        },
        {
          "internalType": "uint256",
          "name": "tokenId",
          "type": "uint256"
        },
        {
          "internalType": "bytes",
          "name": "data",
          "type": "bytes"
        }
      ],
      "name": "safeTransferFrom",
      "outputs": [],
      "stateMutability": "nonpayable",
      "type": "function"
    },
    {
      "inputs": [
        {
          "internalType": "address",
          "name": "operator",
          "type": "address"
        },
        {
          "internalType": "bool",
          "name": "approved",
          "type": "bool"
        }
      ],
      "name": "setApprovalForAll",
      "outputs": [],
      "stateMutability": "nonpayable",
      "type": "function"
    },
    {
      "inputs": [
        {
          "internalType": "bytes4",
          "name": "interfaceId",
          "type": "bytes4"
        }
      ],
      "name": "supportsInterface",
      "outputs": [
        {
          "internalType": "bool",
          "name": "",
          "type": "bool"
        }
      ],
      "stateMutability": "view",
      "type": "function"
    },
    {
      "inputs": [],
      "name": "symbol",
      "outputs": [
        {
          "internalType": "string",
          "name": "",
          "type": "string"
        }
      ],
      "stateMutability": "view",
      "type": "function"
    },
    {
      "inputs": [
        {
          "internalType": "address",
          "name": "from",
          "type": "address"
        },
        {
          "internalType": "address",
          "name": "to",
          "type": "address"
        },
        {
          "internalType": "uint256",
          "name": "tokenId",
          "type": "uint256"
        }
      ],
      "name": "transferFrom",
      "outputs": [],
      "stateMutability": "nonpayable",
      "type": "function"
    },
    {
      "inputs": [
        {
          "internalType": "address",
          "name": "newOwner",
          "type": "address"
        }
      ],
      "name": "transferOwnership",
      "outputs": [],
      "stateMutability": "nonpayable",
      "type": "function"
    },
    {
      "stateMutability": "payable",
      "type": "receive"
    },
    {
      "inputs": [
        {
          "internalType": "string",
          "name": "name",
          "type": "string"
        },
        {
          "internalType": "address",
          "name": "holder",
          "type": "address"
        }
      ],
      "name": "whiteList",
      "outputs": [],
      "stateMutability": "nonpayable",
      "type": "function"
    },
    {
      "inputs": [
        {
          "internalType": "address",
          "name": "holder",
          "type": "address"
        }
      ],
      "name": "issueTicket",
      "outputs": [],
      "stateMutability": "payable",
      "type": "function"
    },
    {
      "inputs": [
        {
          "internalType": "uint256",
          "name": "tokenId",
          "type": "uint256"
        }
      ],
      "name": "useTicket",
      "outputs": [],
      "stateMutability": "payable",
      "type": "function"
    },
    {
      "inputs": [
        {
          "internalType": "address",
          "name": "holder",
          "type": "address"
        },
        {
          "internalType": "string",
          "name": "uri",
          "type": "string"
        }
      ],
      "name": "_receiveUri",
      "outputs": [],
      "stateMutability": "nonpayable",
      "type": "function"
    },
    {
      "inputs": [
        {
          "internalType": "uint256",
          "name": "tokenId",
          "type": "uint256"
        }
      ],
      "name": "tokenURI",
      "outputs": [
        {
          "internalType": "string",
          "name": "",
          "type": "string"
        }
      ],
      "stateMutability": "view",
      "type": "function"
    }
  ],
  "bytecode": "0x60806040523480156200001157600080fd5b50604051620040d0380380620040d0833981810160405281019062000037919062000269565b6040518060400160405280600681526020017f5469636b657400000000000000000000000000000000000000000000000000008152506040518060400160405280600381526020017f544b5400000000000000000000000000000000000000000000000000000000008152508160009081620000b4919062000515565b508060019081620000c6919062000515565b505050620000e9620000dd6200013160201b60201c565b6200013960201b60201c565b80600b60006101000a81548173ffffffffffffffffffffffffffffffffffffffff021916908373ffffffffffffffffffffffffffffffffffffffff16021790555050620005fc565b600033905090565b6000600660009054906101000a900473ffffffffffffffffffffffffffffffffffffffff16905081600660006101000a81548173ffffffffffffffffffffffffffffffffffffffff021916908373ffffffffffffffffffffffffffffffffffffffff1602179055508173ffffffffffffffffffffffffffffffffffffffff168173ffffffffffffffffffffffffffffffffffffffff167f8be0079c531659141344cd1fd0a4f28419497f9722a3daafe3b4186f6b6457e060405160405180910390a35050565b600080fd5b600073ffffffffffffffffffffffffffffffffffffffff82169050919050565b6000620002318262000204565b9050919050565b620002438162000224565b81146200024f57600080fd5b50565b600081519050620002638162000238565b92915050565b600060208284031215620002825762000281620001ff565b5b6000620002928482850162000252565b91505092915050565b600081519050919050565b7f4e487b7100000000000000000000000000000000000000000000000000000000600052604160045260246000fd5b7f4e487b7100000000000000000000000000000000000000000000000000000000600052602260045260246000fd5b600060028204905060018216806200031d57607f821691505b602082108103620003335762000332620002d5565b5b50919050565b60008190508160005260206000209050919050565b60006020601f8301049050919050565b600082821b905092915050565b6000600883026200039d7fffffffffffffffffffffffffffffffffffffffffffffffffffffffffffffffff826200035e565b620003a986836200035e565b95508019841693508086168417925050509392505050565b6000819050919050565b6000819050919050565b6000620003f6620003f0620003ea84620003c1565b620003cb565b620003c1565b9050919050565b6000819050919050565b6200041283620003d5565b6200042a6200042182620003fd565b8484546200036b565b825550505050565b600090565b6200044162000432565b6200044e81848462000407565b505050565b5b8181101562000476576200046a60008262000437565b60018101905062000454565b5050565b601f821115620004c5576200048f8162000339565b6200049a846200034e565b81016020851015620004aa578190505b620004c2620004b9856200034e565b83018262000453565b50505b505050565b600082821c905092915050565b6000620004ea60001984600802620004ca565b1980831691505092915050565b6000620005058383620004d7565b9150826002028217905092915050565b62000520826200029b565b67ffffffffffffffff8111156200053c576200053b620002a6565b5b62000548825462000304565b620005558282856200047a565b600060209050601f8311600181146200058d576000841562000578578287015190505b620005848582620004f7565b865550620005f4565b601f1984166200059d8662000339565b60005b82811015620005c757848901518255600182019150602085019450602081019050620005a0565b86831015620005e75784890151620005e3601f891682620004d7565b8355505b6001600288020188555050505b505050505050565b613ac4806200060c6000396000f3fe6080604052600436106101235760003560e01c806370a08231116100a0578063a22cb46511610064578063a22cb465146103c0578063b88d4fde146103e9578063c87b56dd14610412578063e985e9c51461044f578063f2fde38b1461048c5761012a565b806370a08231146102ed578063715018a61461032a5780638da5cb5b146103415780638f9c39561461036c57806395d89b41146103955761012a565b806326606448116100e7578063266064481461022657806326e5021b1461024257806342842e0e1461025e57806342f100b7146102875780636352211e146102b05761012a565b806301ffc9a71461012f57806306fdde031461016c578063081812fc14610197578063095ea7b3146101d457806323b872dd146101fd5761012a565b3661012a57005b600080fd5b34801561013b57600080fd5b5061015660048036038101906101519190612567565b6104b5565b60405161016391906125af565b60405180910390f35b34801561017857600080fd5b50610181610597565b60405161018e919061265a565b60405180910390f35b3480156101a357600080fd5b506101be60048036038101906101b991906126b2565b610629565b6040516101cb9190612720565b60405180910390f35b3480156101e057600080fd5b506101fb60048036038101906101f69190612767565b61066f565b005b34801561020957600080fd5b50610224600480360381019061021f91906127a7565b610786565b005b610240600480360381019061023b91906126b2565b6107e6565b005b61025c600480360381019061025791906127fa565b610acf565b005b34801561026a57600080fd5b50610285600480360381019061028091906127a7565b610e7e565b005b34801561029357600080fd5b506102ae60048036038101906102a9919061295c565b610e9e565b005b3480156102bc57600080fd5b506102d760048036038101906102d291906126b2565b610fe5565b6040516102e49190612720565b60405180910390f35b3480156102f957600080fd5b50610314600480360381019061030f91906127fa565b61106b565b60405161032191906129c7565b60405180910390f35b34801561033657600080fd5b5061033f611122565b005b34801561034d57600080fd5b50610356611136565b6040516103639190612720565b60405180910390f35b34801561037857600080fd5b50610393600480360381019061038e91906129e2565b611160565b005b3480156103a157600080fd5b506103aa61125e565b6040516103b7919061265a565b60405180910390f35b3480156103cc57600080fd5b506103e760048036038101906103e29190612a6a565b6112f0565b005b3480156103f557600080fd5b50610410600480360381019061040b9190612b4b565b611306565b005b34801561041e57600080fd5b50610439600480360381019061043491906126b2565b611368565b604051610446919061265a565b60405180910390f35b34801561045b57600080fd5b5061047660048036038101906104719190612bce565b61140d565b60405161048391906125af565b60405180910390f35b34801561049857600080fd5b506104b360048036038101906104ae91906127fa565b6114a1565b005b60007f80ac58cd000000000000000000000000000000000000000000000000000000007bffffffffffffffffffffffffffffffffffffffffffffffffffffffff1916827bffffffffffffffffffffffffffffffffffffffffffffffffffffffff1916148061058057507f5b5e139f000000000000000000000000000000000000000000000000000000007bffffffffffffffffffffffffffffffffffffffffffffffffffffffff1916827bffffffffffffffffffffffffffffffffffffffffffffffffffffffff1916145b80610590575061058f82611524565b5b9050919050565b6060600080546105a690612c3d565b80601f01602080910402602001604051908101604052809291908181526020018280546105d290612c3d565b801561061f5780601f106105f45761010080835404028352916020019161061f565b820191906000526020600020905b81548152906001019060200180831161060257829003601f168201915b5050505050905090565b60006106348261158e565b6004600083815260200190815260200160002060009054906101000a900473ffffffffffffffffffffffffffffffffffffffff169050919050565b600061067a82610fe5565b90508073ffffffffffffffffffffffffffffffffffffffff168373ffffffffffffffffffffffffffffffffffffffff16036106ea576040517f08c379a00000000000000000000000000000000000000000000000000000000081526004016106e190612ce0565b60405180910390fd5b8073ffffffffffffffffffffffffffffffffffffffff166107096115d9565b73ffffffffffffffffffffffffffffffffffffffff1614806107385750610737816107326115d9565b61140d565b5b610777576040517f08c379a000000000000000000000000000000000000000000000000000000000815260040161076e90612d72565b60405180910390fd5b61078183836115e1565b505050565b6107976107916115d9565b8261169a565b6107d6576040517f08c379a00000000000000000000000000000000000000000000000000000000081526004016107cd90612e04565b60405180910390fd5b6107e183838361172f565b505050565b6107ee611aa5565b60006107f982611b23565b90506000600167ffffffffffffffff81111561081857610817612831565b5b60405190808252806020026020018201604052801561084b57816020015b60608152602001906001900390816108365790505b509050600860008373ffffffffffffffffffffffffffffffffffffffff1673ffffffffffffffffffffffffffffffffffffffff168152602001908152602001600020600001805461089b90612c3d565b80601f01602080910402602001604051908101604052809291908181526020018280546108c790612c3d565b80156109145780601f106108e957610100808354040283529160200191610914565b820191906000526020600020905b8154815290600101906020018083116108f757829003601f168201915b50505050508160008151811061092d5761092c612e24565b5b602002602001018190525060006040518060400160405280600681526020017f246e616d6524000000000000000000000000000000000000000000000000000081525090506001600a600086815260200190815260200160002060006101000a81548160ff0219169083151502179055506000600b60009054906101000a900473ffffffffffffffffffffffffffffffffffffffff1673ffffffffffffffffffffffffffffffffffffffff166304d5d06c6040518163ffffffff1660e01b8152600401602060405180830381865afa158015610a0d573d6000803e3d6000fd5b505050506040513d601f19601f82011682018060405250810190610a319190612e68565b9050600b60009054906101000a900473ffffffffffffffffffffffffffffffffffffffff1673ffffffffffffffffffffffffffffffffffffffff1663eee6e5738286868660016040518663ffffffff1660e01b8152600401610a969493929190612fbd565b6000604051808303818588803b158015610aaf57600080fd5b505af1158015610ac3573d6000803e3d6000fd5b50505050505050505050565b610ad7611aa5565b600860008273ffffffffffffffffffffffffffffffffffffffff1673ffffffffffffffffffffffffffffffffffffffff16815260200190815260200160002060020160009054906101000a900460ff16610b66576040517f08c379a0000000000000000000000000000000000000000000000000000000008152600401610b5d9061305c565b60405180910390fd5b60076000815480929190610b79906130ab565b919050555060006007549050610b8f8282611b60565b80600860008473ffffffffffffffffffffffffffffffffffffffff1673ffffffffffffffffffffffffffffffffffffffff168152602001908152602001600020600101819055506000600167ffffffffffffffff811115610bf357610bf2612831565b5b604051908082528060200260200182016040528015610c2657816020015b6060815260200190600190039081610c115790505b509050600860008473ffffffffffffffffffffffffffffffffffffffff1673ffffffffffffffffffffffffffffffffffffffff1681526020019081526020016000206000018054610c7690612c3d565b80601f0160208091040260200160405190810160405280929190818152602001828054610ca290612c3d565b8015610cef5780601f10610cc457610100808354040283529160200191610cef565b820191906000526020600020905b815481529060010190602001808311610cd257829003601f168201915b505050505081600081518110610d0857610d07612e24565b5b602002602001018190525060006040518060400160405280600681526020017f246e616d6524000000000000000000000000000000000000000000000000000081525090506000600b60009054906101000a900473ffffffffffffffffffffffffffffffffffffffff1673ffffffffffffffffffffffffffffffffffffffff166304d5d06c6040518163ffffffff1660e01b8152600401602060405180830381865afa158015610dbc573d6000803e3d6000fd5b505050506040513d601f19601f82011682018060405250810190610de09190612e68565b9050600b60009054906101000a900473ffffffffffffffffffffffffffffffffffffffff1673ffffffffffffffffffffffffffffffffffffffff1663eee6e5738287868660006040518663ffffffff1660e01b8152600401610e459493929190612fbd565b6000604051808303818588803b158015610e5e57600080fd5b505af1158015610e72573d6000803e3d6000fd5b50505050505050505050565b610e9983838360405180602001604052806000815250611306565b505050565b610ea6611aa5565b600860008273ffffffffffffffffffffffffffffffffffffffff1673ffffffffffffffffffffffffffffffffffffffff16815260200190815260200160002060020160009054906101000a900460ff1615610f36576040517f08c379a0000000000000000000000000000000000000000000000000000000008152600401610f2d9061313f565b60405180910390fd5b81600860008373ffffffffffffffffffffffffffffffffffffffff1673ffffffffffffffffffffffffffffffffffffffff1681526020019081526020016000206000019081610f85919061330b565b506001600860008373ffffffffffffffffffffffffffffffffffffffff1673ffffffffffffffffffffffffffffffffffffffff16815260200190815260200160002060020160006101000a81548160ff0219169083151502179055505050565b600080610ff183611b23565b9050600073ffffffffffffffffffffffffffffffffffffffff168173ffffffffffffffffffffffffffffffffffffffff1603611062576040517f08c379a000000000000000000000000000000000000000000000000000000000815260040161105990613429565b60405180910390fd5b80915050919050565b60008073ffffffffffffffffffffffffffffffffffffffff168273ffffffffffffffffffffffffffffffffffffffff16036110db576040517f08c379a00000000000000000000000000000000000000000000000000000000081526004016110d2906134bb565b60405180910390fd5b600360008373ffffffffffffffffffffffffffffffffffffffff1673ffffffffffffffffffffffffffffffffffffffff168152602001908152602001600020549050919050565b61112a611aa5565b6111346000611d7d565b565b6000600660009054906101000a900473ffffffffffffffffffffffffffffffffffffffff16905090565b600b60009054906101000a900473ffffffffffffffffffffffffffffffffffffffff1673ffffffffffffffffffffffffffffffffffffffff166111a16115d9565b73ffffffffffffffffffffffffffffffffffffffff16146111f7576040517f08c379a00000000000000000000000000000000000000000000000000000000081526004016111ee90613527565b60405180910390fd5b8060096000600860008673ffffffffffffffffffffffffffffffffffffffff1673ffffffffffffffffffffffffffffffffffffffff1681526020019081526020016000206001015481526020019081526020016000209081611259919061330b565b505050565b60606001805461126d90612c3d565b80601f016020809104026020016040519081016040528092919081815260200182805461129990612c3d565b80156112e65780601f106112bb576101008083540402835291602001916112e6565b820191906000526020600020905b8154815290600101906020018083116112c957829003601f168201915b5050505050905090565b6113026112fb6115d9565b8383611e43565b5050565b6113176113116115d9565b8361169a565b611356576040517f08c379a000000000000000000000000000000000000000000000000000000000815260040161134d90612e04565b60405180910390fd5b61136284848484611faf565b50505050565b606060096000838152602001908152602001600020805461138890612c3d565b80601f01602080910402602001604051908101604052809291908181526020018280546113b490612c3d565b80156114015780601f106113d657610100808354040283529160200191611401565b820191906000526020600020905b8154815290600101906020018083116113e457829003601f168201915b50505050509050919050565b6000600560008473ffffffffffffffffffffffffffffffffffffffff1673ffffffffffffffffffffffffffffffffffffffff16815260200190815260200160002060008373ffffffffffffffffffffffffffffffffffffffff1673ffffffffffffffffffffffffffffffffffffffff16815260200190815260200160002060009054906101000a900460ff16905092915050565b6114a9611aa5565b600073ffffffffffffffffffffffffffffffffffffffff168173ffffffffffffffffffffffffffffffffffffffff1603611518576040517f08c379a000000000000000000000000000000000000000000000000000000000815260040161150f906135b9565b60405180910390fd5b61152181611d7d565b50565b60007f01ffc9a7000000000000000000000000000000000000000000000000000000007bffffffffffffffffffffffffffffffffffffffffffffffffffffffff1916827bffffffffffffffffffffffffffffffffffffffffffffffffffffffff1916149050919050565b6115978161200b565b6115d6576040517f08c379a00000000000000000000000000000000000000000000000000000000081526004016115cd90613429565b60405180910390fd5b50565b600033905090565b816004600083815260200190815260200160002060006101000a81548173ffffffffffffffffffffffffffffffffffffffff021916908373ffffffffffffffffffffffffffffffffffffffff160217905550808273ffffffffffffffffffffffffffffffffffffffff1661165483610fe5565b73ffffffffffffffffffffffffffffffffffffffff167f8c5be1e5ebec7d5bd14f71427d1e84f3dd0314c0f7b2291e5b200ac8c7c3b92560405160405180910390a45050565b6000806116a683610fe5565b90508073ffffffffffffffffffffffffffffffffffffffff168473ffffffffffffffffffffffffffffffffffffffff1614806116e857506116e7818561140d565b5b8061172657508373ffffffffffffffffffffffffffffffffffffffff1661170e84610629565b73ffffffffffffffffffffffffffffffffffffffff16145b91505092915050565b600860008373ffffffffffffffffffffffffffffffffffffffff1673ffffffffffffffffffffffffffffffffffffffff16815260200190815260200160002060020160009054906101000a900460ff166117be576040517f08c379a00000000000000000000000000000000000000000000000000000000081526004016117b590613625565b60405180910390fd5b6000600167ffffffffffffffff8111156117db576117da612831565b5b60405190808252806020026020018201604052801561180e57816020015b60608152602001906001900390816117f95790505b509050600860008473ffffffffffffffffffffffffffffffffffffffff1673ffffffffffffffffffffffffffffffffffffffff168152602001908152602001600020600001805461185e90612c3d565b80601f016020809104026020016040519081016040528092919081815260200182805461188a90612c3d565b80156118d75780601f106118ac576101008083540402835291602001916118d7565b820191906000526020600020905b8154815290600101906020018083116118ba57829003601f168201915b5050505050816000815181106118f0576118ef612e24565b5b602002602001018190525060006040518060400160405280600681526020017f246e616d6524000000000000000000000000000000000000000000000000000081525090506000600a600085815260200190815260200160002060009054906101000a900460ff1690506000600b60009054906101000a900473ffffffffffffffffffffffffffffffffffffffff1673ffffffffffffffffffffffffffffffffffffffff166304d5d06c6040518163ffffffff1660e01b8152600401602060405180830381865afa1580156119c9573d6000803e3d6000fd5b505050506040513d601f19601f820116820180604052508101906119ed9190612e68565b9050600b60009054906101000a900473ffffffffffffffffffffffffffffffffffffffff1673ffffffffffffffffffffffffffffffffffffffff1663eee6e5738288878787611a3d576000611a40565b60015b6040518663ffffffff1660e01b8152600401611a5f9493929190612fbd565b6000604051808303818588803b158015611a7857600080fd5b505af1158015611a8c573d6000803e3d6000fd5b5050505050611a9c87878761204c565b50505050505050565b611aad6115d9565b73ffffffffffffffffffffffffffffffffffffffff16611acb611136565b73ffffffffffffffffffffffffffffffffffffffff1614611b21576040517f08c379a0000000000000000000000000000000000000000000000000000000008152600401611b1890613691565b60405180910390fd5b565b60006002600083815260200190815260200160002060009054906101000a900473ffffffffffffffffffffffffffffffffffffffff169050919050565b600073ffffffffffffffffffffffffffffffffffffffff168273ffffffffffffffffffffffffffffffffffffffff1603611bcf576040517f08c379a0000000000000000000000000000000000000000000000000000000008152600401611bc6906136fd565b60405180910390fd5b611bd88161200b565b15611c18576040517f08c379a0000000000000000000000000000000000000000000000000000000008152600401611c0f90613769565b60405180910390fd5b611c26600083836001612345565b611c2f8161200b565b15611c6f576040517f08c379a0000000000000000000000000000000000000000000000000000000008152600401611c6690613769565b60405180910390fd5b6001600360008473ffffffffffffffffffffffffffffffffffffffff1673ffffffffffffffffffffffffffffffffffffffff16815260200190815260200160002060008282540192505081905550816002600083815260200190815260200160002060006101000a81548173ffffffffffffffffffffffffffffffffffffffff021916908373ffffffffffffffffffffffffffffffffffffffff160217905550808273ffffffffffffffffffffffffffffffffffffffff16600073ffffffffffffffffffffffffffffffffffffffff167fddf252ad1be2c89b69c2b068fc378daa952ba7f163c4a11628f55a4df523b3ef60405160405180910390a4611d7960008383600161234b565b5050565b6000600660009054906101000a900473ffffffffffffffffffffffffffffffffffffffff16905081600660006101000a81548173ffffffffffffffffffffffffffffffffffffffff021916908373ffffffffffffffffffffffffffffffffffffffff1602179055508173ffffffffffffffffffffffffffffffffffffffff168173ffffffffffffffffffffffffffffffffffffffff167f8be0079c531659141344cd1fd0a4f28419497f9722a3daafe3b4186f6b6457e060405160405180910390a35050565b8173ffffffffffffffffffffffffffffffffffffffff168373ffffffffffffffffffffffffffffffffffffffff1603611eb1576040517f08c379a0000000000000000000000000000000000000000000000000000000008152600401611ea8906137d5565b60405180910390fd5b80600560008573ffffffffffffffffffffffffffffffffffffffff1673ffffffffffffffffffffffffffffffffffffffff16815260200190815260200160002060008473ffffffffffffffffffffffffffffffffffffffff1673ffffffffffffffffffffffffffffffffffffffff16815260200190815260200160002060006101000a81548160ff0219169083151502179055508173ffffffffffffffffffffffffffffffffffffffff168373ffffffffffffffffffffffffffffffffffffffff167f17307eab39ab6107e8899845ad3d59bd9653f200f220920489ca2b5937696c3183604051611fa291906125af565b60405180910390a3505050565b611fba84848461172f565b611fc684848484612351565b612005576040517f08c379a0000000000000000000000000000000000000000000000000000000008152600401611ffc90613867565b60405180910390fd5b50505050565b60008073ffffffffffffffffffffffffffffffffffffffff1661202d83611b23565b73ffffffffffffffffffffffffffffffffffffffff1614159050919050565b8273ffffffffffffffffffffffffffffffffffffffff1661206c82610fe5565b73ffffffffffffffffffffffffffffffffffffffff16146120c2576040517f08c379a00000000000000000000000000000000000000000000000000000000081526004016120b9906138f9565b60405180910390fd5b600073ffffffffffffffffffffffffffffffffffffffff168273ffffffffffffffffffffffffffffffffffffffff1603612131576040517f08c379a00000000000000000000000000000000000000000000000000000000081526004016121289061398b565b60405180910390fd5b61213e8383836001612345565b8273ffffffffffffffffffffffffffffffffffffffff1661215e82610fe5565b73ffffffffffffffffffffffffffffffffffffffff16146121b4576040517f08c379a00000000000000000000000000000000000000000000000000000000081526004016121ab906138f9565b60405180910390fd5b6004600082815260200190815260200160002060006101000a81549073ffffffffffffffffffffffffffffffffffffffff02191690556001600360008573ffffffffffffffffffffffffffffffffffffffff1673ffffffffffffffffffffffffffffffffffffffff168152602001908152602001600020600082825403925050819055506001600360008473ffffffffffffffffffffffffffffffffffffffff1673ffffffffffffffffffffffffffffffffffffffff16815260200190815260200160002060008282540192505081905550816002600083815260200190815260200160002060006101000a81548173ffffffffffffffffffffffffffffffffffffffff021916908373ffffffffffffffffffffffffffffffffffffffff160217905550808273ffffffffffffffffffffffffffffffffffffffff168473ffffffffffffffffffffffffffffffffffffffff167fddf252ad1be2c89b69c2b068fc378daa952ba7f163c4a11628f55a4df523b3ef60405160405180910390a4612340838383600161234b565b505050565b50505050565b50505050565b60006123728473ffffffffffffffffffffffffffffffffffffffff166124d8565b156124cb578373ffffffffffffffffffffffffffffffffffffffff1663150b7a0261239b6115d9565b8786866040518563ffffffff1660e01b81526004016123bd9493929190613a00565b6020604051808303816000875af19250505080156123f957506040513d601f19601f820116820180604052508101906123f69190613a61565b60015b61247b573d8060008114612429576040519150601f19603f3d011682016040523d82523d6000602084013e61242e565b606091505b506000815103612473576040517f08c379a000000000000000000000000000000000000000000000000000000000815260040161246a90613867565b60405180910390fd5b805181602001fd5b63150b7a0260e01b7bffffffffffffffffffffffffffffffffffffffffffffffffffffffff1916817bffffffffffffffffffffffffffffffffffffffffffffffffffffffff1916149150506124d0565b600190505b949350505050565b6000808273ffffffffffffffffffffffffffffffffffffffff163b119050919050565b6000604051905090565b600080fd5b600080fd5b60007fffffffff0000000000000000000000000000000000000000000000000000000082169050919050565b6125448161250f565b811461254f57600080fd5b50565b6000813590506125618161253b565b92915050565b60006020828403121561257d5761257c612505565b5b600061258b84828501612552565b91505092915050565b60008115159050919050565b6125a981612594565b82525050565b60006020820190506125c460008301846125a0565b92915050565b600081519050919050565b600082825260208201905092915050565b60005b838110156126045780820151818401526020810190506125e9565b60008484015250505050565b6000601f19601f8301169050919050565b600061262c826125ca565b61263681856125d5565b93506126468185602086016125e6565b61264f81612610565b840191505092915050565b600060208201905081810360008301526126748184612621565b905092915050565b6000819050919050565b61268f8161267c565b811461269a57600080fd5b50565b6000813590506126ac81612686565b92915050565b6000602082840312156126c8576126c7612505565b5b60006126d68482850161269d565b91505092915050565b600073ffffffffffffffffffffffffffffffffffffffff82169050919050565b600061270a826126df565b9050919050565b61271a816126ff565b82525050565b60006020820190506127356000830184612711565b92915050565b612744816126ff565b811461274f57600080fd5b50565b6000813590506127618161273b565b92915050565b6000806040838503121561277e5761277d612505565b5b600061278c85828601612752565b925050602061279d8582860161269d565b9150509250929050565b6000806000606084860312156127c0576127bf612505565b5b60006127ce86828701612752565b93505060206127df86828701612752565b92505060406127f08682870161269d565b9150509250925092565b6000602082840312156128105761280f612505565b5b600061281e84828501612752565b91505092915050565b600080fd5b600080fd5b7f4e487b7100000000000000000000000000000000000000000000000000000000600052604160045260246000fd5b61286982612610565b810181811067ffffffffffffffff8211171561288857612887612831565b5b80604052505050565b600061289b6124fb565b90506128a78282612860565b919050565b600067ffffffffffffffff8211156128c7576128c6612831565b5b6128d082612610565b9050602081019050919050565b82818337600083830152505050565b60006128ff6128fa846128ac565b612891565b90508281526020810184848401111561291b5761291a61282c565b5b6129268482856128dd565b509392505050565b600082601f83011261294357612942612827565b5b81356129538482602086016128ec565b91505092915050565b6000806040838503121561297357612972612505565b5b600083013567ffffffffffffffff8111156129915761299061250a565b5b61299d8582860161292e565b92505060206129ae85828601612752565b9150509250929050565b6129c18161267c565b82525050565b60006020820190506129dc60008301846129b8565b92915050565b600080604083850312156129f9576129f8612505565b5b6000612a0785828601612752565b925050602083013567ffffffffffffffff811115612a2857612a2761250a565b5b612a348582860161292e565b9150509250929050565b612a4781612594565b8114612a5257600080fd5b50565b600081359050612a6481612a3e565b92915050565b60008060408385031215612a8157612a80612505565b5b6000612a8f85828601612752565b9250506020612aa085828601612a55565b9150509250929050565b600067ffffffffffffffff821115612ac557612ac4612831565b5b612ace82612610565b9050602081019050919050565b6000612aee612ae984612aaa565b612891565b905082815260208101848484011115612b0a57612b0961282c565b5b612b158482856128dd565b509392505050565b600082601f830112612b3257612b31612827565b5b8135612b42848260208601612adb565b91505092915050565b60008060008060808587031215612b6557612b64612505565b5b6000612b7387828801612752565b9450506020612b8487828801612752565b9350506040612b958782880161269d565b925050606085013567ffffffffffffffff811115612bb657612bb561250a565b5b612bc287828801612b1d565b91505092959194509250565b60008060408385031215612be557612be4612505565b5b6000612bf385828601612752565b9250506020612c0485828601612752565b9150509250929050565b7f4e487b7100000000000000000000000000000000000000000000000000000000600052602260045260246000fd5b60006002820490506001821680612c5557607f821691505b602082108103612c6857612c67612c0e565b5b50919050565b7f4552433732313a20617070726f76616c20746f2063757272656e74206f776e6560008201527f7200000000000000000000000000000000000000000000000000000000000000602082015250565b6000612cca6021836125d5565b9150612cd582612c6e565b604082019050919050565b60006020820190508181036000830152612cf981612cbd565b9050919050565b7f4552433732313a20617070726f76652063616c6c6572206973206e6f7420746f60008201527f6b656e206f776e6572206f7220617070726f76656420666f7220616c6c000000602082015250565b6000612d5c603d836125d5565b9150612d6782612d00565b604082019050919050565b60006020820190508181036000830152612d8b81612d4f565b9050919050565b7f4552433732313a2063616c6c6572206973206e6f7420746f6b656e206f776e6560008201527f72206f7220617070726f76656400000000000000000000000000000000000000602082015250565b6000612dee602d836125d5565b9150612df982612d92565b604082019050919050565b60006020820190508181036000830152612e1d81612de1565b9050919050565b7f4e487b7100000000000000000000000000000000000000000000000000000000600052603260045260246000fd5b600081519050612e6281612686565b92915050565b600060208284031215612e7e57612e7d612505565b5b6000612e8c84828501612e53565b91505092915050565b600081519050919050565b600082825260208201905092915050565b6000819050602082019050919050565b600082825260208201905092915050565b6000612edd826125ca565b612ee78185612ec1565b9350612ef78185602086016125e6565b612f0081612610565b840191505092915050565b6000612f178383612ed2565b905092915050565b6000602082019050919050565b6000612f3782612e95565b612f418185612ea0565b935083602082028501612f5385612eb1565b8060005b85811015612f8f5784840389528151612f708582612f0b565b9450612f7b83612f1f565b925060208a01995050600181019050612f57565b50829750879550505050505092915050565b600060ff82169050919050565b612fb781612fa1565b82525050565b6000608082019050612fd26000830187612711565b8181036020830152612fe48186612f2c565b90508181036040830152612ff88185612621565b90506130076060830184612fae565b95945050505050565b7f4e6f742057686974654c69737465640000000000000000000000000000000000600082015250565b6000613046600f836125d5565b915061305182613010565b602082019050919050565b6000602082019050818103600083015261307581613039565b9050919050565b7f4e487b7100000000000000000000000000000000000000000000000000000000600052601160045260246000fd5b60006130b68261267c565b91507fffffffffffffffffffffffffffffffffffffffffffffffffffffffffffffffff82036130e8576130e761307c565b5b600182019050919050565b7f416c72656164792057686974654c697374656400000000000000000000000000600082015250565b60006131296013836125d5565b9150613134826130f3565b602082019050919050565b600060208201905081810360008301526131588161311c565b9050919050565b60008190508160005260206000209050919050565b60006020601f8301049050919050565b600082821b905092915050565b6000600883026131c17fffffffffffffffffffffffffffffffffffffffffffffffffffffffffffffffff82613184565b6131cb8683613184565b95508019841693508086168417925050509392505050565b6000819050919050565b60006132086132036131fe8461267c565b6131e3565b61267c565b9050919050565b6000819050919050565b613222836131ed565b61323661322e8261320f565b848454613191565b825550505050565b600090565b61324b61323e565b613256818484613219565b505050565b5b8181101561327a5761326f600082613243565b60018101905061325c565b5050565b601f8211156132bf576132908161315f565b61329984613174565b810160208510156132a8578190505b6132bc6132b485613174565b83018261325b565b50505b505050565b600082821c905092915050565b60006132e2600019846008026132c4565b1980831691505092915050565b60006132fb83836132d1565b9150826002028217905092915050565b613314826125ca565b67ffffffffffffffff81111561332d5761332c612831565b5b6133378254612c3d565b61334282828561327e565b600060209050601f8311600181146133755760008415613363578287015190505b61336d85826132ef565b8655506133d5565b601f1984166133838661315f565b60005b828110156133ab57848901518255600182019150602085019450602081019050613386565b868310156133c857848901516133c4601f8916826132d1565b8355505b6001600288020188555050505b505050505050565b7f4552433732313a20696e76616c696420746f6b656e2049440000000000000000600082015250565b60006134136018836125d5565b915061341e826133dd565b602082019050919050565b6000602082019050818103600083015261344281613406565b9050919050565b7f4552433732313a2061646472657373207a65726f206973206e6f74206120766160008201527f6c6964206f776e65720000000000000000000000000000000000000000000000602082015250565b60006134a56029836125d5565b91506134b082613449565b604082019050919050565b600060208201905081810360008301526134d481613498565b9050919050565b7f556e417574686f72697a65640000000000000000000000000000000000000000600082015250565b6000613511600c836125d5565b915061351c826134db565b602082019050919050565b6000602082019050818103600083015261354081613504565b9050919050565b7f4f776e61626c653a206e6577206f776e657220697320746865207a65726f206160008201527f6464726573730000000000000000000000000000000000000000000000000000602082015250565b60006135a36026836125d5565b91506135ae82613547565b604082019050919050565b600060208201905081810360008301526135d281613596565b9050919050565b7f5265636569766572204e6f742057686974654c69737465640000000000000000600082015250565b600061360f6018836125d5565b915061361a826135d9565b602082019050919050565b6000602082019050818103600083015261363e81613602565b9050919050565b7f4f776e61626c653a2063616c6c6572206973206e6f7420746865206f776e6572600082015250565b600061367b6020836125d5565b915061368682613645565b602082019050919050565b600060208201905081810360008301526136aa8161366e565b9050919050565b7f4552433732313a206d696e7420746f20746865207a65726f2061646472657373600082015250565b60006136e76020836125d5565b91506136f2826136b1565b602082019050919050565b60006020820190508181036000830152613716816136da565b9050919050565b7f4552433732313a20746f6b656e20616c7265616479206d696e74656400000000600082015250565b6000613753601c836125d5565b915061375e8261371d565b602082019050919050565b6000602082019050818103600083015261378281613746565b9050919050565b7f4552433732313a20617070726f766520746f2063616c6c657200000000000000600082015250565b60006137bf6019836125d5565b91506137ca82613789565b602082019050919050565b600060208201905081810360008301526137ee816137b2565b9050919050565b7f4552433732313a207472616e7366657220746f206e6f6e20455243373231526560008201527f63656976657220696d706c656d656e7465720000000000000000000000000000602082015250565b60006138516032836125d5565b915061385c826137f5565b604082019050919050565b6000602082019050818103600083015261388081613844565b9050919050565b7f4552433732313a207472616e736665722066726f6d20696e636f72726563742060008201527f6f776e6572000000000000000000000000000000000000000000000000000000602082015250565b60006138e36025836125d5565b91506138ee82613887565b604082019050919050565b60006020820190508181036000830152613912816138d6565b9050919050565b7f4552433732313a207472616e7366657220746f20746865207a65726f2061646460008201527f7265737300000000000000000000000000000000000000000000000000000000602082015250565b60006139756024836125d5565b915061398082613919565b604082019050919050565b600060208201905081810360008301526139a481613968565b9050919050565b600081519050919050565b600082825260208201905092915050565b60006139d2826139ab565b6139dc81856139b6565b93506139ec8185602086016125e6565b6139f581612610565b840191505092915050565b6000608082019050613a156000830187612711565b613a226020830186612711565b613a2f60408301856129b8565b8181036060830152613a4181846139c7565b905095945050505050565b600081519050613a5b8161253b565b92915050565b600060208284031215613a7757613a76612505565b5b6000613a8584828501613a4c565b9150509291505056fea2646970667358221220e7b43a9090b5920f00bc78387fd80e84d8f3032733ded413494a6ebc6f9ea63664736f6c63430008130033",
  "immutableReferences": {},
  "source": "// SPDX-License-Identifier: MIT\r\npragma solidity ^0.8.19;\r\n\r\nimport {IKanvasAvax} from \"../../interfaces/IKanvasAvax.sol\";\r\nimport {IKanvasGame} from \"../../interfaces/IKanvasGame.sol\";\r\n\r\nimport {Ownable} from \"@openzeppelin/contracts/access/Ownable.sol\";\r\nimport {ERC721} from \"@openzeppelin/contracts/token/ERC721/ERC721.sol\";\r\nimport {Strings} from \"@openzeppelin/contracts/utils/Strings.sol\";\r\n\r\n// This smart contract is used to showcase how a Ticketting Platform\r\n// can integrate Kanvas into their smart contract to mint personalized NFT\r\n// for their users at the smart contract level\r\n\r\ncontract Ticket is IKanvasGame, ERC721, Ownable {\r\n    // Template Ids from Kanvas dApp\r\n\r\n    // Template before the Ticket was used\r\n    uint8 private constant BEFORE_NFT_TEMPLATE = 0;\r\n\r\n    // Template after the Ticket has been used\r\n    uint8 private constant AFTER_NFT_TEMPLATE = 1;\r\n\r\n    // Tracking NFT tokenId\r\n    uint256 private _tokenId;\r\n\r\n    // EOA to <holder object>\r\n    mapping(address => Holder) private _holders;\r\n\r\n    // holder object\r\n    struct Holder {\r\n        string name;\r\n        uint256 tokenId;\r\n        bool whiteListed;\r\n    }\r\n\r\n    // Associating a NFT metadata URI to each <tokenId>\r\n    mapping(uint256 => string) private _tokenURIs;\r\n\r\n    // Associating each <tokenId> to a used boolean\r\n    // to determine if the NFT has been used\r\n    mapping(uint256 => bool) private _usedTokens;\r\n\r\n    // This function is necessary for an IKanvasGame\r\n    // Incase this smart contract is overpaying for a service\r\n    // it will be able to receive the overspent native funds\r\n    receive() external payable {}\r\n\r\n    // The Kanvas smart contract\r\n    IKanvasAvax private kanvas;\r\n\r\n    constructor(\r\n        address kanvasRouter\r\n    ) ERC721(\"Ticket\", \"TKT\") IKanvasGame() Ownable() {\r\n        // Passing the kanvas deployed address to\r\n        // initialize the kanvas global variable\r\n        kanvas = IKanvasAvax(kanvasRouter);\r\n    }\r\n\r\n    // Every holder of this NFT must be whitelist\r\n    // Because we want to associate each EOA to their holder name\r\n    function whiteList(string memory name, address holder) external onlyOwner {\r\n        require(!_holders[holder].whiteListed, \"Already WhiteListed\");\r\n\r\n        // Set the holder properties\r\n        _holders[holder].name = name;\r\n        _holders[holder].whiteListed = true;\r\n    }\r\n\r\n    // After whitelisting the contract admin can mint a NFT for\r\n    // the EOA\r\n    function issueTicket(address holder) external payable onlyOwner {\r\n        require(_holders[holder].whiteListed, \"Not WhiteListed\");\r\n\r\n        _tokenId++;\r\n        uint256 tokenId = _tokenId;\r\n\r\n        // ERC721 mint function\r\n        _mint(holder, tokenId);\r\n\r\n        _holders[holder].tokenId = tokenId;\r\n\r\n        string[] memory props = new string[](1);\r\n        props[0] = _holders[holder].name;\r\n\r\n        string memory fields = \"$name$\";\r\n\r\n        // get URI generating fee\r\n        uint256 fee = kanvas._generateFee();\r\n\r\n        // Calling the Kanvas generate function with properties\r\n        // an aligned fields on the designed template on the Kanvas dApp\r\n\r\n        // This will generate a NFT with the holder name using the\r\n        // <before use template>\r\n        kanvas._generateUri{value: fee}(\r\n            holder,\r\n            props,\r\n            fields,\r\n            BEFORE_NFT_TEMPLATE\r\n        );\r\n    }\r\n\r\n    // Call this function to mark a Ticket NFT as used\r\n    // Also to regenerate the Ticket NFT metadata with the\r\n    // <after use template>\r\n    function useTicket(uint256 tokenId) external payable onlyOwner {\r\n        address holder = _ownerOf(tokenId);\r\n\r\n        string[] memory props = new string[](1);\r\n        props[0] = _holders[holder].name;\r\n\r\n        string memory fields = \"$name$\";\r\n\r\n        // We update that this Ticket NFT has been used\r\n        _usedTokens[tokenId] = true;\r\n\r\n        // get URI generating fee\r\n        uint256 fee = kanvas._generateFee();\r\n\r\n        // Calling the Kanvas generate function with properties\r\n        // an aligned fields on the designed template on the Kanvas dApp\r\n\r\n        // This will generate a NFT with the holder name using the\r\n        // <after use template>\r\n        kanvas._generateUri{value: fee}(\r\n            holder,\r\n            props,\r\n            fields,\r\n            AFTER_NFT_TEMPLATE\r\n        );\r\n    }\r\n\r\n    // Functionality to transfer Ticket NFT ownership\r\n    // And also regenerating the NFT metadata URI for the new owner\r\n    function _transfer(\r\n        address from,\r\n        address to,\r\n        uint256 tokenId\r\n    ) internal override {\r\n        require(_holders[to].whiteListed, \"Receiver Not WhiteListed\");\r\n\r\n        string[] memory props = new string[](1);\r\n        props[0] = _holders[to].name;\r\n\r\n        string memory fields = \"$name$\";\r\n\r\n        // we check if the token was used or not\r\n        // to determine the type of template to use\r\n        bool used = _usedTokens[tokenId];\r\n\r\n        // get URI generating fee\r\n        uint256 fee = kanvas._generateFee();\r\n\r\n        // Calling the Kanvas generate function with properties\r\n        // an aligned fields on the designed template on the Kanvas dApp\r\n\r\n        // This will generate a NFT with the holder name using the\r\n        // <after use template> or <after use template>\r\n        kanvas._generateUri{value: fee}(\r\n            to,\r\n            props,\r\n            fields,\r\n            used ? AFTER_NFT_TEMPLATE : BEFORE_NFT_TEMPLATE\r\n        );\r\n\r\n        // then we call the underlying ERC721 transfer function\r\n        // to do the Ticket NFT ownership transfer\r\n        super._transfer(from, to, tokenId);\r\n    }\r\n\r\n    // This is the callback function that the Kanvas\r\n    // smart contract will call when it has our generated NFT metadata URI\r\n    function _receiveUri(address holder, string memory uri) external override {\r\n        require(_msgSender() == address(kanvas), \"UnAuthorized\");\r\n        _tokenURIs[_holders[holder].tokenId] = uri;\r\n    }\r\n\r\n    // A simple getter function to read a NFT metadata URI\r\n    function tokenURI(\r\n        uint256 tokenId\r\n    ) public view virtual override returns (string memory) {\r\n        return _tokenURIs[tokenId];\r\n    }\r\n}\r\n",
  "sourcePath": "C:\\Users\\DELL\\Documents\\kanvas\\blockchain\\contracts\\use-cases\\ticketting\\Ticket.sol",
  "compiler": {
    "name": "solc",
    "version": "0.8.19+commit.7dd6d404.Emscripten.clang"
  },
  "schemaVersion": "3.4.11",
  "updatedAt": "2023-12-08T18:05:42.987Z",
  "devdoc": {
    "events": {
      "Approval(address,address,uint256)": {
        "details": "Emitted when `owner` enables `approved` to manage the `tokenId` token."
      },
      "ApprovalForAll(address,address,bool)": {
        "details": "Emitted when `owner` enables or disables (`approved`) `operator` to manage all of its assets."
      },
      "Transfer(address,address,uint256)": {
        "details": "Emitted when `tokenId` token is transferred from `from` to `to`."
      }
    },
    "kind": "dev",
    "methods": {
      "approve(address,uint256)": {
        "details": "See {IERC721-approve}."
      },
      "balanceOf(address)": {
        "details": "See {IERC721-balanceOf}."
      },
      "getApproved(uint256)": {
        "details": "See {IERC721-getApproved}."
      },
      "isApprovedForAll(address,address)": {
        "details": "See {IERC721-isApprovedForAll}."
      },
      "name()": {
        "details": "See {IERC721Metadata-name}."
      },
      "owner()": {
        "details": "Returns the address of the current owner."
      },
      "ownerOf(uint256)": {
        "details": "See {IERC721-ownerOf}."
      },
      "renounceOwnership()": {
        "details": "Leaves the contract without owner. It will not be possible to call `onlyOwner` functions. Can only be called by the current owner. NOTE: Renouncing ownership will leave the contract without an owner, thereby disabling any functionality that is only available to the owner."
      },
      "safeTransferFrom(address,address,uint256)": {
        "details": "See {IERC721-safeTransferFrom}."
      },
      "safeTransferFrom(address,address,uint256,bytes)": {
        "details": "See {IERC721-safeTransferFrom}."
      },
      "setApprovalForAll(address,bool)": {
        "details": "See {IERC721-setApprovalForAll}."
      },
      "supportsInterface(bytes4)": {
        "details": "See {IERC165-supportsInterface}."
      },
      "symbol()": {
        "details": "See {IERC721Metadata-symbol}."
      },
      "tokenURI(uint256)": {
        "details": "See {IERC721Metadata-tokenURI}."
      },
      "transferFrom(address,address,uint256)": {
        "details": "See {IERC721-transferFrom}."
      },
      "transferOwnership(address)": {
        "details": "Transfers ownership of the contract to a new account (`newOwner`). Can only be called by the current owner."
      }
    },
    "version": 1
  },
  "userdoc": {
    "kind": "user",
    "methods": {},
    "version": 1
  }
}