{
  "contractName": "KanvasAvax",
  "abi": [
    {
      "inputs": [
        {
          "internalType": "address",
          "name": "ccipReceiver",
          "type": "address"
        },
        {
          "internalType": "address",
          "name": "functionOracle",
          "type": "address"
        }
      ],
      "stateMutability": "nonpayable",
      "type": "constructor"
    },
    {
      "inputs": [],
      "name": "EmptyArgs",
      "type": "error"
    },
    {
      "inputs": [],
      "name": "EmptySource",
      "type": "error"
    },
    {
      "inputs": [
        {
          "internalType": "address",
          "name": "router",
          "type": "address"
        }
      ],
      "name": "InvalidRouter",
      "type": "error"
    },
    {
      "inputs": [],
      "name": "NoInlineSecrets",
      "type": "error"
    },
    {
      "inputs": [],
      "name": "OnlyRouterCanFulfill",
      "type": "error"
    },
    {
      "anonymous": false,
      "inputs": [
        {
          "indexed": false,
          "internalType": "bytes32",
          "name": "requestId",
          "type": "bytes32"
        },
        {
          "indexed": false,
          "internalType": "bytes",
          "name": "err",
          "type": "bytes"
        }
      ],
      "name": "FulfullFailed",
      "type": "event"
    },
    {
      "anonymous": false,
      "inputs": [
        {
          "indexed": false,
          "internalType": "bytes32",
          "name": "requestId",
          "type": "bytes32"
        },
        {
          "indexed": false,
          "internalType": "bytes",
          "name": "response",
          "type": "bytes"
        }
      ],
      "name": "FulfullSuccess",
      "type": "event"
    },
    {
      "anonymous": false,
      "inputs": [
        {
          "indexed": false,
          "internalType": "address",
          "name": "gameId",
          "type": "address"
        },
        {
          "indexed": false,
          "internalType": "string",
          "name": "name",
          "type": "string"
        },
        {
          "indexed": false,
          "internalType": "string",
          "name": "description",
          "type": "string"
        },
        {
          "indexed": false,
          "internalType": "string",
          "name": "avatar",
          "type": "string"
        },
        {
          "indexed": false,
          "internalType": "uint256",
          "name": "plan",
          "type": "uint256"
        },
        {
          "indexed": false,
          "internalType": "address",
          "name": "creator",
          "type": "address"
        },
        {
          "indexed": false,
          "internalType": "string",
          "name": "email",
          "type": "string"
        },
        {
          "indexed": false,
          "internalType": "string",
          "name": "website",
          "type": "string"
        }
      ],
      "name": "GameCreated",
      "type": "event"
    },
    {
      "anonymous": false,
      "inputs": [
        {
          "indexed": true,
          "internalType": "bytes32",
          "name": "requestId",
          "type": "bytes32"
        },
        {
          "indexed": false,
          "internalType": "bytes",
          "name": "result",
          "type": "bytes"
        },
        {
          "indexed": false,
          "internalType": "bytes",
          "name": "err",
          "type": "bytes"
        }
      ],
      "name": "OCRResponse",
      "type": "event"
    },
    {
      "anonymous": false,
      "inputs": [
        {
          "indexed": true,
          "internalType": "address",
          "name": "previousOwner",
          "type": "address"
        },
        {
          "indexed": true,
          "internalType": "address",
          "name": "newOwner",
          "type": "address"
        }
      ],
      "name": "OwnershipTransferred",
      "type": "event"
    },
    {
      "anonymous": false,
      "inputs": [
        {
          "indexed": false,
          "internalType": "uint256",
          "name": "planId",
          "type": "uint256"
        },
        {
          "indexed": false,
          "internalType": "string",
          "name": "name",
          "type": "string"
        },
        {
          "indexed": false,
          "internalType": "uint256",
          "name": "cost",
          "type": "uint256"
        },
        {
          "indexed": false,
          "internalType": "string",
          "name": "color",
          "type": "string"
        },
        {
          "indexed": false,
          "internalType": "uint256",
          "name": "limit",
          "type": "uint256"
        }
      ],
      "name": "PlanCreated",
      "type": "event"
    },
    {
      "anonymous": false,
      "inputs": [
        {
          "indexed": true,
          "internalType": "bytes32",
          "name": "id",
          "type": "bytes32"
        }
      ],
      "name": "RequestFulfilled",
      "type": "event"
    },
    {
      "anonymous": false,
      "inputs": [
        {
          "indexed": true,
          "internalType": "bytes32",
          "name": "id",
          "type": "bytes32"
        }
      ],
      "name": "RequestSent",
      "type": "event"
    },
    {
      "anonymous": false,
      "inputs": [
        {
          "indexed": false,
          "internalType": "bytes32",
          "name": "requestId",
          "type": "bytes32"
        },
        {
          "indexed": false,
          "internalType": "address",
          "name": "gameId",
          "type": "address"
        }
      ],
      "name": "RequestSent",
      "type": "event"
    },
    {
      "anonymous": false,
      "inputs": [
        {
          "indexed": false,
          "internalType": "address",
          "name": "gameId",
          "type": "address"
        },
        {
          "indexed": false,
          "internalType": "string",
          "name": "templateUri",
          "type": "string"
        }
      ],
      "name": "TemplateAdded",
      "type": "event"
    },
    {
      "inputs": [],
      "name": "MAX_PROPERTIES_LEN",
      "outputs": [
        {
          "internalType": "uint256",
          "name": "",
          "type": "uint256"
        }
      ],
      "stateMutability": "view",
      "type": "function",
      "constant": true
    },
    {
      "inputs": [],
      "name": "MAX_TEMPLATES_LEN",
      "outputs": [
        {
          "internalType": "uint256",
          "name": "",
          "type": "uint256"
        }
      ],
      "stateMutability": "view",
      "type": "function",
      "constant": true
    },
    {
      "inputs": [
        {
          "components": [
            {
              "internalType": "bytes32",
              "name": "messageId",
              "type": "bytes32"
            },
            {
              "internalType": "uint64",
              "name": "sourceChainSelector",
              "type": "uint64"
            },
            {
              "internalType": "bytes",
              "name": "sender",
              "type": "bytes"
            },
            {
              "internalType": "bytes",
              "name": "data",
              "type": "bytes"
            },
            {
              "components": [
                {
                  "internalType": "address",
                  "name": "token",
                  "type": "address"
                },
                {
                  "internalType": "uint256",
                  "name": "amount",
                  "type": "uint256"
                }
              ],
              "internalType": "struct Client.EVMTokenAmount[]",
              "name": "destTokenAmounts",
              "type": "tuple[]"
            }
          ],
          "internalType": "struct Client.Any2EVMMessage",
          "name": "message",
          "type": "tuple"
        }
      ],
      "name": "ccipReceive",
      "outputs": [],
      "stateMutability": "nonpayable",
      "type": "function"
    },
    {
      "inputs": [],
      "name": "getRouter",
      "outputs": [
        {
          "internalType": "address",
          "name": "",
          "type": "address"
        }
      ],
      "stateMutability": "view",
      "type": "function",
      "constant": true
    },
    {
      "inputs": [
        {
          "internalType": "bytes32",
          "name": "requestId",
          "type": "bytes32"
        },
        {
          "internalType": "bytes",
          "name": "response",
          "type": "bytes"
        },
        {
          "internalType": "bytes",
          "name": "err",
          "type": "bytes"
        }
      ],
      "name": "handleOracleFulfillment",
      "outputs": [],
      "stateMutability": "nonpayable",
      "type": "function"
    },
    {
      "inputs": [],
      "name": "owner",
      "outputs": [
        {
          "internalType": "address",
          "name": "",
          "type": "address"
        }
      ],
      "stateMutability": "view",
      "type": "function",
      "constant": true
    },
    {
      "inputs": [],
      "name": "renounceOwnership",
      "outputs": [],
      "stateMutability": "nonpayable",
      "type": "function"
    },
    {
      "inputs": [
        {
          "internalType": "bytes4",
          "name": "interfaceId",
          "type": "bytes4"
        }
      ],
      "name": "supportsInterface",
      "outputs": [
        {
          "internalType": "bool",
          "name": "",
          "type": "bool"
        }
      ],
      "stateMutability": "pure",
      "type": "function",
      "constant": true
    },
    {
      "inputs": [
        {
          "internalType": "address",
          "name": "newOwner",
          "type": "address"
        }
      ],
      "name": "transferOwnership",
      "outputs": [],
      "stateMutability": "nonpayable",
      "type": "function"
    },
    {
      "inputs": [
        {
          "internalType": "bytes32",
          "name": "newDonId",
          "type": "bytes32"
        }
      ],
      "name": "updateDonId",
      "outputs": [],
      "stateMutability": "nonpayable",
      "type": "function"
    },
    {
      "inputs": [
        {
          "internalType": "string",
          "name": "newSourceCode",
          "type": "string"
        }
      ],
      "name": "updateSourceCode",
      "outputs": [],
      "stateMutability": "nonpayable",
      "type": "function"
    },
    {
      "inputs": [
        {
          "internalType": "uint32",
          "name": "newLimit",
          "type": "uint32"
        }
      ],
      "name": "updateGasLimit",
      "outputs": [],
      "stateMutability": "nonpayable",
      "type": "function"
    },
    {
      "inputs": [
        {
          "internalType": "uint64",
          "name": "newSubscriptionId",
          "type": "uint64"
        }
      ],
      "name": "updateSubscriptionId",
      "outputs": [],
      "stateMutability": "nonpayable",
      "type": "function"
    },
    {
      "inputs": [
        {
          "components": [
            {
              "internalType": "string",
              "name": "name",
              "type": "string"
            },
            {
              "internalType": "string",
              "name": "description",
              "type": "string"
            },
            {
              "internalType": "address",
              "name": "gameId",
              "type": "address"
            },
            {
              "internalType": "string",
              "name": "avatar",
              "type": "string"
            },
            {
              "internalType": "uint256",
              "name": "plan",
              "type": "uint256"
            },
            {
              "internalType": "string",
              "name": "email",
              "type": "string"
            },
            {
              "internalType": "string",
              "name": "website",
              "type": "string"
            }
          ],
          "internalType": "struct Params.Game",
          "name": "params",
          "type": "tuple"
        }
      ],
      "name": "createGame",
      "outputs": [],
      "stateMutability": "payable",
      "type": "function",
      "payable": true
    },
    {
      "inputs": [
        {
          "internalType": "string",
          "name": "templateUri",
          "type": "string"
        },
        {
          "internalType": "address",
          "name": "gameId",
          "type": "address"
        }
      ],
      "name": "addTemplate",
      "outputs": [],
      "stateMutability": "nonpayable",
      "type": "function"
    },
    {
      "inputs": [
        {
          "internalType": "address",
          "name": "playerId",
          "type": "address"
        },
        {
          "internalType": "string[]",
          "name": "props",
          "type": "string[]"
        },
        {
          "internalType": "string",
          "name": "fields",
          "type": "string"
        },
        {
          "internalType": "uint8",
          "name": "templateId",
          "type": "uint8"
        }
      ],
      "name": "_generateUri",
      "outputs": [],
      "stateMutability": "nonpayable",
      "type": "function"
    },
    {
      "inputs": [
        {
          "internalType": "uint64",
          "name": "chainSelector",
          "type": "uint64"
        },
        {
          "internalType": "address",
          "name": "kanvasRouter",
          "type": "address"
        }
      ],
      "name": "updateInterop",
      "outputs": [],
      "stateMutability": "nonpayable",
      "type": "function"
    },
    {
      "inputs": [
        {
          "internalType": "bytes",
          "name": "response",
          "type": "bytes"
        }
      ],
      "name": "test",
      "outputs": [
        {
          "internalType": "string",
          "name": "",
          "type": "string"
        }
      ],
      "stateMutability": "pure",
      "type": "function",
      "constant": true
    },
    {
      "inputs": [
        {
          "internalType": "uint64",
          "name": "chainSelector",
          "type": "uint64"
        },
        {
          "internalType": "address",
          "name": "gameId",
          "type": "address"
        },
        {
          "internalType": "address",
          "name": "playerId",
          "type": "address"
        },
        {
          "internalType": "uint256",
          "name": "tokenId",
          "type": "uint256"
        },
        {
          "internalType": "string",
          "name": "uri",
          "type": "string"
        },
        {
          "internalType": "bytes",
          "name": "data",
          "type": "bytes"
        }
      ],
      "name": "_transferTo",
      "outputs": [],
      "stateMutability": "payable",
      "type": "function",
      "payable": true
    },
    {
      "inputs": [
        {
          "components": [
            {
              "internalType": "string",
              "name": "name",
              "type": "string"
            },
            {
              "internalType": "uint256",
              "name": "cost",
              "type": "uint256"
            },
            {
              "internalType": "string",
              "name": "color",
              "type": "string"
            },
            {
              "internalType": "uint256",
              "name": "limit",
              "type": "uint256"
            }
          ],
          "internalType": "struct Params.Plan",
          "name": "params",
          "type": "tuple"
        }
      ],
      "name": "createPlan",
      "outputs": [],
      "stateMutability": "nonpayable",
      "type": "function"
    }
  ],
  "bytecode": "0x60c060405262011170600260006101000a81548163ffffffff021916908363ffffffff16021790555061062c600260046101000a81548167ffffffffffffffff021916908367ffffffffffffffff1602179055507f66756e2d6176616c616e6368652d66756a692d3100000000000000000000000060001b6003553480156200008757600080fd5b506040516200548c3803806200548c8339818101604052810190620000ad919062000346565b8082600073ffffffffffffffffffffffffffffffffffffffff168173ffffffffffffffffffffffffffffffffffffffff1603620001245760006040517fd7f733340000000000000000000000000000000000000000000000000000000081526004016200011b91906200039e565b60405180910390fd5b8073ffffffffffffffffffffffffffffffffffffffff1660808173ffffffffffffffffffffffffffffffffffffffff1681525050508073ffffffffffffffffffffffffffffffffffffffff1660a08173ffffffffffffffffffffffffffffffffffffffff168152505050620001ae620001a26200020660201b60201c565b6200020e60201b60201c565b620001be620002d260201b60201c565b600960006101000a81548173ffffffffffffffffffffffffffffffffffffffff021916908373ffffffffffffffffffffffffffffffffffffffff1602179055505050620003bb565b600033905090565b60008060009054906101000a900473ffffffffffffffffffffffffffffffffffffffff169050816000806101000a81548173ffffffffffffffffffffffffffffffffffffffff021916908373ffffffffffffffffffffffffffffffffffffffff1602179055508173ffffffffffffffffffffffffffffffffffffffff168173ffffffffffffffffffffffffffffffffffffffff167f8be0079c531659141344cd1fd0a4f28419497f9722a3daafe3b4186f6b6457e060405160405180910390a35050565b6000608051905090565b600080fd5b600073ffffffffffffffffffffffffffffffffffffffff82169050919050565b60006200030e82620002e1565b9050919050565b620003208162000301565b81146200032c57600080fd5b50565b600081519050620003408162000315565b92915050565b6000806040838503121562000360576200035f620002dc565b5b600062000370858286016200032f565b925050602062000383858286016200032f565b9150509250929050565b620003988162000301565b82525050565b6000602082019050620003b560008301846200038d565b92915050565b60805160a05161509d620003ef6000396000818161053001526120760152600081816108d30152610eb3015261509d6000f3fe60806040526004361061011f5760003560e01c80638cd176d5116100a0578063b3285e3211610064578063b3285e321461038d578063dd3fac7c146103b6578063dff0ee41146103df578063eee6e5731461040a578063f2fde38b146104335761011f565b80638cd176d5146102c95780638d6dc0eb146102f25780638da5cb5b1461030e57806392154a3d14610339578063b0f479a1146103625761011f565b80635821feae116100e75780635821feae146102195780636df0c74714610235578063715018a61461025e57806385572ffb146102755780638b8ff3581461029e5761011f565b806301ffc9a7146101245780630ca761751461016157806314b1dd1b1461018a5780632f570a23146101b357806334303bcd146101f0575b600080fd5b34801561013057600080fd5b5061014b60048036038101906101469190612c50565b61045c565b6040516101589190612c98565b60405180910390f35b34801561016d57600080fd5b5061018860048036038101906101839190612e2f565b61052e565b005b34801561019657600080fd5b506101b160048036038101906101ac9190612efa565b6105f0565b005b3480156101bf57600080fd5b506101da60048036038101906101d59190612f27565b610624565b6040516101e79190612fef565b60405180910390f35b3480156101fc57600080fd5b506102176004803603810190610212919061304d565b61062e565b005b610233600480360381019061022e91906132f9565b61065a565b005b34801561024157600080fd5b5061025c60048036038101906102579190613342565b6108ab565b005b34801561026a57600080fd5b506102736108bd565b005b34801561028157600080fd5b5061029c60048036038101906102979190613393565b6108d1565b005b3480156102aa57600080fd5b506102b3610976565b6040516102c091906133eb565b60405180910390f35b3480156102d557600080fd5b506102f060048036038101906102eb91906134b6565b61097b565b005b61030c600480360381019061030791906134ff565b610a78565b005b34801561031a57600080fd5b50610323610e14565b60405161033091906135d3565b60405180910390f35b34801561034557600080fd5b50610360600480360381019061035b91906135ee565b610e3d565b005b34801561036e57600080fd5b50610377610eaf565b60405161038491906135d3565b60405180910390f35b34801561039957600080fd5b506103b460048036038101906103af919061362e565b610ed7565b005b3480156103c257600080fd5b506103dd60048036038101906103d89190613677565b610ef2565b005b3480156103eb57600080fd5b506103f4611012565b60405161040191906133eb565b60405180910390f35b34801561041657600080fd5b50610431600480360381019061042c91906137f2565b611017565b005b34801561043f57600080fd5b5061045a60048036038101906104559190613891565b61150e565b005b60007f85572ffb000000000000000000000000000000000000000000000000000000007bffffffffffffffffffffffffffffffffffffffffffffffffffffffff1916827bffffffffffffffffffffffffffffffffffffffffffffffffffffffff1916148061052757507f01ffc9a7000000000000000000000000000000000000000000000000000000007bffffffffffffffffffffffffffffffffffffffffffffffffffffffff1916827bffffffffffffffffffffffffffffffffffffffffffffffffffffffff1916145b9050919050565b7f000000000000000000000000000000000000000000000000000000000000000073ffffffffffffffffffffffffffffffffffffffff163373ffffffffffffffffffffffffffffffffffffffff16146105b3576040517fc6829f8300000000000000000000000000000000000000000000000000000000815260040160405180910390fd5b6105be838383611591565b827f85e1543bf2f84fe80c6badbce3648c8539ad1df4d2b3d822938ca0538be727e660405160405180910390a2505050565b6105f8611887565b80600260046101000a81548167ffffffffffffffff021916908367ffffffffffffffff16021790555050565b6060819050919050565b610636611887565b80600260006101000a81548163ffffffff021916908363ffffffff16021790555050565b6000600560008360800151815260200190815260200160002060030154036106b7576040517f08c379a00000000000000000000000000000000000000000000000000000000081526004016106ae9061390a565b60405180910390fd5b6005600082608001518152602001908152602001600020600101543414610713576040517f08c379a000000000000000000000000000000000000000000000000000000000815260040161070a90613976565b60405180910390fd5b6040518060a001604052808260000151815260200182606001518152602001826020015181526020018260800151815260200161074e611905565b73ffffffffffffffffffffffffffffffffffffffff1681525060066000836040015173ffffffffffffffffffffffffffffffffffffffff1673ffffffffffffffffffffffffffffffffffffffff16815260200190815260200160002060008201518160000190816107bf9190613ba2565b5060208201518160010190816107d59190613ba2565b5060408201518160020190816107eb9190613ba2565b506060820151816003015560808201518160040160006101000a81548173ffffffffffffffffffffffffffffffffffffffff021916908373ffffffffffffffffffffffffffffffffffffffff1602179055509050507fea35bbd4aeddb611341e5394e07bd5ac7513bd56730a40e7e3e3eb761e155c0581604001518260000151836020015184606001518560800151610882611905565b8760a001518860c001516040516108a0989796959493929190613c74565b60405180910390a150565b6108b3611887565b8060038190555050565b6108c5611887565b6108cf600061190d565b565b7f000000000000000000000000000000000000000000000000000000000000000073ffffffffffffffffffffffffffffffffffffffff163373ffffffffffffffffffffffffffffffffffffffff161461096157336040517fd7f7333400000000000000000000000000000000000000000000000000000000815260040161095891906135d3565b60405180910390fd5b6109738161096e90613f08565b6119d1565b50565b601481565b610983611887565b6004600081548092919061099690613f4a565b91905055506040518060800160405280826000015181526020018260200151815260200182604001518152602001826060015181525060056000600454815260200190815260200160002060008201518160000190816109f69190613ba2565b50602082015181600101556040820151816002019081610a169190613ba2565b50606082015181600301559050507f33c5bd102a4d38690a8d7d236985d20c88e66b73bca9de5ae6cc29376d2206fd6004548260000151836020015184604001518560600151604051610a6d959493929190613f92565b60405180910390a150565b600073ffffffffffffffffffffffffffffffffffffffff16600860008867ffffffffffffffff1667ffffffffffffffff16815260200190815260200160002060009054906101000a900473ffffffffffffffffffffffffffffffffffffffff1673ffffffffffffffffffffffffffffffffffffffff1603610b2e576040517f08c379a0000000000000000000000000000000000000000000000000000000008152600401610b259061403f565b60405180910390fd5b60006040518060a00160405280600860008a67ffffffffffffffff1667ffffffffffffffff16815260200190815260200160002060009054906101000a900473ffffffffffffffffffffffffffffffffffffffff16604051602001610b9391906135d3565b60405160208183030381529060405281526020018787878787604051602001610bc09594939291906140b4565b6040516020818303038152906040528152602001600067ffffffffffffffff811115610bef57610bee612d04565b5b604051908082528060200260200182016040528015610c2857816020015b610c15612b08565b815260200190600190039081610c0d5790505b508152602001600073ffffffffffffffffffffffffffffffffffffffff168152602001610c6e604051806040016040528062061a80815260200160001515815250611a82565b81525090506000600960009054906101000a900473ffffffffffffffffffffffffffffffffffffffff1673ffffffffffffffffffffffffffffffffffffffff166320487ded67ccf0a31a221f3c9b846040518363ffffffff1660e01b8152600401610cda9291906142f5565b602060405180830381865afa158015610cf7573d6000803e3d6000fd5b505050506040513d601f19601f82011682018060405250810190610d1b919061433a565b905080341015610d60576040517f08c379a0000000000000000000000000000000000000000000000000000000008152600401610d57906143b3565b60405180910390fd5b600960009054906101000a900473ffffffffffffffffffffffffffffffffffffffff1673ffffffffffffffffffffffffffffffffffffffff166396f4e9f98267ccf0a31a221f3c9b856040518463ffffffff1660e01b8152600401610dc69291906142f5565b60206040518083038185885af1158015610de4573d6000803e3d6000fd5b50505050506040513d601f19601f82011682018060405250810190610e0991906143e8565b505050505050505050565b60008060009054906101000a900473ffffffffffffffffffffffffffffffffffffffff16905090565b610e45611887565b80600860008467ffffffffffffffff1667ffffffffffffffff16815260200190815260200160002060006101000a81548173ffffffffffffffffffffffffffffffffffffffff021916908373ffffffffffffffffffffffffffffffffffffffff1602179055505050565b60007f0000000000000000000000000000000000000000000000000000000000000000905090565b610edf611887565b8060019081610eee9190613ba2565b5050565b6000610efc611905565b90506000600660008473ffffffffffffffffffffffffffffffffffffffff1673ffffffffffffffffffffffffffffffffffffffff16815260200190815260200160002090508173ffffffffffffffffffffffffffffffffffffffff168160040160009054906101000a900473ffffffffffffffffffffffffffffffffffffffff1673ffffffffffffffffffffffffffffffffffffffff1614610fd3576040517f08c379a0000000000000000000000000000000000000000000000000000000008152600401610fca90614461565b60405180910390fd5b7fd7219b2d0e6067644335c8f4f82ee77c59a90a22e2916f1dce8683af8e8b07fa8385604051611004929190614481565b60405180910390a150505050565b600581565b60148351111561105c576040517f08c379a0000000000000000000000000000000000000000000000000000000008152600401611053906144fd565b60405180910390fd5b6000611066611905565b9050600073ffffffffffffffffffffffffffffffffffffffff16600660008373ffffffffffffffffffffffffffffffffffffffff1673ffffffffffffffffffffffffffffffffffffffff16815260200190815260200160002060040160009054906101000a900473ffffffffffffffffffffffffffffffffffffffff1673ffffffffffffffffffffffffffffffffffffffff1603611139576040517f08c379a000000000000000000000000000000000000000000000000000000000815260040161113090614569565b60405180910390fd5b6000600567ffffffffffffffff81111561115657611155612d04565b5b60405190808252806020026020018201604052801561118957816020015b60608152602001906001900390816111745790505b50905073__StringJoiner__________________________635c8656e0866040518263ffffffff1660e01b81526004016111c391906146f2565b600060405180830381865af41580156111e0573d6000803e3d6000fd5b505050506040513d6000823e3d601f19601f820116820180604052508101906112099190614797565b8160008151811061121d5761121c6147e0565b5b6020026020010181905250838160018151811061123d5761123c6147e0565b5b602002602001018190525061125182611b01565b81600281518110611265576112646147e0565b5b602002602001018190525061127986611b01565b8160038151811061128d5761128c6147e0565b5b60200260200101819052506112a48360ff16611b2e565b816004815181106112b8576112b76147e0565b5b60200260200101819052506112cb612b38565b611368600180546112db906139c5565b80601f0160208091040260200160405190810160405280929190818152602001828054611307906139c5565b80156113545780601f1061132957610100808354040283529160200191611354565b820191906000526020600020905b81548152906001019060200180831161133757829003601f168201915b505050505082611bfc90919063ffffffff16565b61137b8282611c0d90919063ffffffff16565b60006113bb61138983611c55565b600260049054906101000a900467ffffffffffffffff16600260009054906101000a900463ffffffff16600354612071565b905060405180606001604052808573ffffffffffffffffffffffffffffffffffffffff1681526020018973ffffffffffffffffffffffffffffffffffffffff168152602001600015158152506007600083815260200190815260200160002060008201518160000160006101000a81548173ffffffffffffffffffffffffffffffffffffffff021916908373ffffffffffffffffffffffffffffffffffffffff16021790555060208201518160010160006101000a81548173ffffffffffffffffffffffffffffffffffffffff021916908373ffffffffffffffffffffffffffffffffffffffff16021790555060408201518160010160146101000a81548160ff0219169083151502179055509050507f91f0d67c2f27abd6cfc317e120d5e80b31e97b9926b65d3887e59402fb20adfb81856040516114fc92919061481e565b60405180910390a15050505050505050565b611516611887565b600073ffffffffffffffffffffffffffffffffffffffff168173ffffffffffffffffffffffffffffffffffffffff1603611585576040517f08c379a000000000000000000000000000000000000000000000000000000000815260040161157c906148b9565b60405180910390fd5b61158e8161190d565b50565b827f7bab0ec163b5c132c72b8146ac4d6e067e82ed58f8b131150aa71c925891156283836040516115c39291906148d9565b60405180910390a2600081511115611613577f980dacf15fd4de388a78b30b7137819db55322065f76cd76f26843976b4b8f3d8382604051611606929190614910565b60405180910390a1611882565b60006007600085815260200190815260200160002090508060010160149054906101000a900460ff161561167c576040517f08c379a00000000000000000000000000000000000000000000000000000000081526004016116739061498c565b60405180910390fd5b60018160010160146101000a81548160ff021916908315150217905550600073ffffffffffffffffffffffffffffffffffffffff16600660008360000160009054906101000a900473ffffffffffffffffffffffffffffffffffffffff1673ffffffffffffffffffffffffffffffffffffffff1673ffffffffffffffffffffffffffffffffffffffff16815260200190815260200160002060040160009054906101000a900473ffffffffffffffffffffffffffffffffffffffff1673ffffffffffffffffffffffffffffffffffffffff160361178e576040517f08c379a000000000000000000000000000000000000000000000000000000000815260040161178590614569565b60405180910390fd5b60008160000160009054906101000a900473ffffffffffffffffffffffffffffffffffffffff1690508073ffffffffffffffffffffffffffffffffffffffff16638f9c39568360010160009054906101000a900473ffffffffffffffffffffffffffffffffffffffff166040518263ffffffff1660e01b815260040161181491906149d2565b600060405180830381600087803b15801561182e57600080fd5b505af1158015611842573d6000803e3d6000fd5b505050507feaedbcf97bf9fb5a6b911a99706c1cd297c974a3bf541bb1806522fccc69e27a8585604051611877929190614910565b60405180910390a150505b505050565b61188f611905565b73ffffffffffffffffffffffffffffffffffffffff166118ad610e14565b73ffffffffffffffffffffffffffffffffffffffff1614611903576040517f08c379a00000000000000000000000000000000000000000000000000000000081526004016118fa90614a4c565b60405180910390fd5b565b600033905090565b60008060009054906101000a900473ffffffffffffffffffffffffffffffffffffffff169050816000806101000a81548173ffffffffffffffffffffffffffffffffffffffff021916908373ffffffffffffffffffffffffffffffffffffffff1602179055508173ffffffffffffffffffffffffffffffffffffffff168173ffffffffffffffffffffffffffffffffffffffff167f8be0079c531659141344cd1fd0a4f28419497f9722a3daafe3b4186f6b6457e060405160405180910390a35050565b600080600080600085606001518060200190518101906119f19190614b1a565b9450945094509450945060008590508073ffffffffffffffffffffffffffffffffffffffff16636d4195fb886020015188888888886040518763ffffffff1660e01b8152600401611a4796959493929190614bcd565b600060405180830381600087803b158015611a6157600080fd5b505af1158015611a75573d6000803e3d6000fd5b5050505050505050505050565b60606397a657c960e01b82604051602401611a9d9190614c7a565b604051602081830303815290604052907bffffffffffffffffffffffffffffffffffffffffffffffffffffffff19166020820180517bffffffffffffffffffffffffffffffffffffffffffffffffffffffff83818316178352505050509050919050565b6060611b278273ffffffffffffffffffffffffffffffffffffffff16601460ff16612154565b9050919050565b606060006001611b3d84612390565b01905060008167ffffffffffffffff811115611b5c57611b5b612d04565b5b6040519080825280601f01601f191660200182016040528015611b8e5781602001600182028036833780820191505090505b509050600082602001820190505b600115611bf1578080600190039150507f3031323334353637383961626364656600000000000000000000000000000000600a86061a8153600a8581611be557611be4614c95565b5b04945060008503611b9c575b819350505050919050565b611c0982600080846124e3565b5050565b6000815103611c48576040517ffe936cb700000000000000000000000000000000000000000000000000000000815260040160405180910390fd5b808260a001819052505050565b60606000611c6461010061258d565b9050611cae6040518060400160405280600c81526020017f636f64654c6f636174696f6e0000000000000000000000000000000000000000815250826125b490919063ffffffff16565b611cd783600001516002811115611cc857611cc7614cc4565b5b826125dd90919063ffffffff16565b611d1f6040518060400160405280600881526020017f6c616e6775616765000000000000000000000000000000000000000000000000815250826125b490919063ffffffff16565b611d4883604001516000811115611d3957611d38614cc4565b5b826125dd90919063ffffffff16565b611d906040518060400160405280600681526020017f736f757263650000000000000000000000000000000000000000000000000000815250826125b490919063ffffffff16565b611da78360600151826125b490919063ffffffff16565b60008360a00151511115611e6357611dfd6040518060400160405280600481526020017f6172677300000000000000000000000000000000000000000000000000000000815250826125b490919063ffffffff16565b611e068161262d565b60005b8360a0015151811015611e5857611e478460a001518281518110611e3057611e2f6147e0565b5b6020026020010151836125b490919063ffffffff16565b80611e5190613f4a565b9050611e09565b50611e6281612655565b5b60008360800151511115611fa45760006002811115611e8557611e84614cc4565b5b83602001516002811115611e9c57611e9b614cc4565b5b03611ed3576040517fa80d31f700000000000000000000000000000000000000000000000000000000815260040160405180910390fd5b611f1b6040518060400160405280600f81526020017f736563726574734c6f636174696f6e0000000000000000000000000000000000815250826125b490919063ffffffff16565b611f4483602001516002811115611f3557611f34614cc4565b5b826125dd90919063ffffffff16565b611f8c6040518060400160405280600781526020017f7365637265747300000000000000000000000000000000000000000000000000815250826125b490919063ffffffff16565b611fa383608001518261267d90919063ffffffff16565b5b60008360c0015151111561206057611ffa6040518060400160405280600981526020017f6279746573417267730000000000000000000000000000000000000000000000815250826125b490919063ffffffff16565b6120038161262d565b60005b8360c0015151811015612055576120448460c00151828151811061202d5761202c6147e0565b5b60200260200101518361267d90919063ffffffff16565b8061204e90613f4a565b9050612006565b5061205f81612655565b5b806000015160000151915050919050565b6000807f000000000000000000000000000000000000000000000000000000000000000073ffffffffffffffffffffffffffffffffffffffff1663461d27628688600188886040518663ffffffff1660e01b81526004016120d6959493929190614d1f565b6020604051808303816000875af11580156120f5573d6000803e3d6000fd5b505050506040513d601f19601f8201168201806040525081019061211991906143e8565b9050807f1131472297a800fee664d1d89cfa8f7676ff07189ecc53f80bbb5f4969099db860405160405180910390a280915050949350505050565b6060600060028360026121679190614d79565b6121719190614dbb565b67ffffffffffffffff81111561218a57612189612d04565b5b6040519080825280601f01601f1916602001820160405280156121bc5781602001600182028036833780820191505090505b5090507f3000000000000000000000000000000000000000000000000000000000000000816000815181106121f4576121f36147e0565b5b60200101907effffffffffffffffffffffffffffffffffffffffffffffffffffffffffffff1916908160001a9053507f780000000000000000000000000000000000000000000000000000000000000081600181518110612258576122576147e0565b5b60200101907effffffffffffffffffffffffffffffffffffffffffffffffffffffffffffff1916908160001a905350600060018460026122989190614d79565b6122a29190614dbb565b90505b6001811115612342577f3031323334353637383961626364656600000000000000000000000000000000600f8616601081106122e4576122e36147e0565b5b1a60f81b8282815181106122fb576122fa6147e0565b5b60200101907effffffffffffffffffffffffffffffffffffffffffffffffffffffffffffff1916908160001a905350600485901c94508061233b90614def565b90506122a5565b5060008414612386576040517f08c379a000000000000000000000000000000000000000000000000000000000815260040161237d90614e64565b60405180910390fd5b8091505092915050565b600080600090507a184f03e93ff9f4daa797ed6e38ed64bf6a1f01000000000000000083106123ee577a184f03e93ff9f4daa797ed6e38ed64bf6a1f01000000000000000083816123e4576123e3614c95565b5b0492506040810190505b6d04ee2d6d415b85acef8100000000831061242b576d04ee2d6d415b85acef8100000000838161242157612420614c95565b5b0492506020810190505b662386f26fc10000831061245a57662386f26fc1000083816124505761244f614c95565b5b0492506010810190505b6305f5e1008310612483576305f5e100838161247957612478614c95565b5b0492506008810190505b61271083106124a857612710838161249e5761249d614c95565b5b0492506004810190505b606483106124cb57606483816124c1576124c0614c95565b5b0492506002810190505b600a83106124da576001810190505b80915050919050565b600081510361251e576040517f22ce3edd00000000000000000000000000000000000000000000000000000000815260040160405180910390fd5b828460000190600281111561253657612535614cc4565b5b9081600281111561254a57612549614cc4565b5b81525050818460400190600081111561256657612565614cc4565b5b9081600081111561257a57612579614cc4565b5b8152505080846060018190525050505050565b612595612baa565b6125a38160000151836126a6565b506000816020018181525050919050565b6125c1826003835161271f565b6125d88183600001516128c890919063ffffffff16565b505050565b6125ff60026005600660ff16901b1783600001516128e490919063ffffffff16565b50612629828260405160200161261591906133eb565b60405160208183030381529060405261267d565b5050565b61263881600461294e565b60018160200181815161264b9190614dbb565b9150818152505050565b61266081600761294e565b6001816020018181516126739190614e84565b9150818152505050565b61268a826002835161271f565b6126a18183600001516128c890919063ffffffff16565b505050565b6126ae612bca565b60006020836126bd9190614eb8565b146126e9576020826126cf9190614eb8565b60206126db9190614e84565b826126e69190614dbb565b91505b81836020018181525050604051808452600081528281016020018181101561271057600080fd5b80604052505082905092915050565b60178167ffffffffffffffff161161275a576127548160058460ff16901b60ff161784600001516128e490919063ffffffff16565b506128c3565b60ff8167ffffffffffffffff16116127b85761278d601860058460ff16901b1784600001516128e490919063ffffffff16565b506127b28167ffffffffffffffff16600185600001516129749092919063ffffffff16565b506128c2565b61ffff8167ffffffffffffffff1611612817576127ec601960058460ff16901b1784600001516128e490919063ffffffff16565b506128118167ffffffffffffffff16600285600001516129749092919063ffffffff16565b506128c1565b63ffffffff8167ffffffffffffffff16116128785761284d601a60058460ff16901b1784600001516128e490919063ffffffff16565b506128728167ffffffffffffffff16600485600001516129749092919063ffffffff16565b506128c0565b612899601b60058460ff16901b1784600001516128e490919063ffffffff16565b506128be8167ffffffffffffffff16600885600001516129749092919063ffffffff16565b505b5b5b5b505050565b6128d0612bca565b6128dc83838451612a01565b905092915050565b6128ec612bca565b6000836000015151905060006001826129059190614dbb565b90508460200151821061292957612928856002836129239190614d79565b612ae4565b5b84516020838201018581538151831115612941578282525b5050849250505092915050565b61296f601f60058360ff16901b1783600001516128e490919063ffffffff16565b505050565b61297c612bca565b60008460000151519050600081846129949190614dbb565b905085602001518111156129b9576129b8866002836129b39190614d79565b612ae4565b5b60006001856101006129cb919061501c565b6129d59190614e84565b9050865182810187831982511617815281518411156129f2578382525b50508693505050509392505050565b612a09612bca565b8251821115612a1757600080fd5b6000846000015151905060008382612a2f9190614dbb565b90508560200151811115612a5457612a5386600283612a4e9190614d79565b612ae4565b5b60008087518051856020830101935080851115612a6f578482525b60208901925050505b60208610612ab65780518252602082612a919190614dbb565b9150602081612aa09190614dbb565b9050602086612aaf9190614e84565b9550612a78565b60006001876020036101000a0390508019825116818451168181178552505050879450505050509392505050565b600082600001519050612af783836126a6565b50612b0283826128c8565b50505050565b6040518060400160405280600073ffffffffffffffffffffffffffffffffffffffff168152602001600081525090565b6040518060e0016040528060006002811115612b5757612b56614cc4565b5b815260200160006002811115612b7057612b6f614cc4565b5b8152602001600080811115612b8857612b87614cc4565b5b8152602001606081526020016060815260200160608152602001606081525090565b6040518060400160405280612bbd612bca565b8152602001600081525090565b604051806040016040528060608152602001600081525090565b6000604051905090565b600080fd5b600080fd5b60007fffffffff0000000000000000000000000000000000000000000000000000000082169050919050565b612c2d81612bf8565b8114612c3857600080fd5b50565b600081359050612c4a81612c24565b92915050565b600060208284031215612c6657612c65612bee565b5b6000612c7484828501612c3b565b91505092915050565b60008115159050919050565b612c9281612c7d565b82525050565b6000602082019050612cad6000830184612c89565b92915050565b6000819050919050565b612cc681612cb3565b8114612cd157600080fd5b50565b600081359050612ce381612cbd565b92915050565b600080fd5b600080fd5b6000601f19601f8301169050919050565b7f4e487b7100000000000000000000000000000000000000000000000000000000600052604160045260246000fd5b612d3c82612cf3565b810181811067ffffffffffffffff82111715612d5b57612d5a612d04565b5b80604052505050565b6000612d6e612be4565b9050612d7a8282612d33565b919050565b600067ffffffffffffffff821115612d9a57612d99612d04565b5b612da382612cf3565b9050602081019050919050565b82818337600083830152505050565b6000612dd2612dcd84612d7f565b612d64565b905082815260208101848484011115612dee57612ded612cee565b5b612df9848285612db0565b509392505050565b600082601f830112612e1657612e15612ce9565b5b8135612e26848260208601612dbf565b91505092915050565b600080600060608486031215612e4857612e47612bee565b5b6000612e5686828701612cd4565b935050602084013567ffffffffffffffff811115612e7757612e76612bf3565b5b612e8386828701612e01565b925050604084013567ffffffffffffffff811115612ea457612ea3612bf3565b5b612eb086828701612e01565b9150509250925092565b600067ffffffffffffffff82169050919050565b612ed781612eba565b8114612ee257600080fd5b50565b600081359050612ef481612ece565b92915050565b600060208284031215612f1057612f0f612bee565b5b6000612f1e84828501612ee5565b91505092915050565b600060208284031215612f3d57612f3c612bee565b5b600082013567ffffffffffffffff811115612f5b57612f5a612bf3565b5b612f6784828501612e01565b91505092915050565b600081519050919050565b600082825260208201905092915050565b60005b83811015612faa578082015181840152602081019050612f8f565b60008484015250505050565b6000612fc182612f70565b612fcb8185612f7b565b9350612fdb818560208601612f8c565b612fe481612cf3565b840191505092915050565b600060208201905081810360008301526130098184612fb6565b905092915050565b600063ffffffff82169050919050565b61302a81613011565b811461303557600080fd5b50565b60008135905061304781613021565b92915050565b60006020828403121561306357613062612bee565b5b600061307184828501613038565b91505092915050565b600080fd5b600080fd5b600067ffffffffffffffff82111561309f5761309e612d04565b5b6130a882612cf3565b9050602081019050919050565b60006130c86130c384613084565b612d64565b9050828152602081018484840111156130e4576130e3612cee565b5b6130ef848285612db0565b509392505050565b600082601f83011261310c5761310b612ce9565b5b813561311c8482602086016130b5565b91505092915050565b600073ffffffffffffffffffffffffffffffffffffffff82169050919050565b600061315082613125565b9050919050565b61316081613145565b811461316b57600080fd5b50565b60008135905061317d81613157565b92915050565b6000819050919050565b61319681613183565b81146131a157600080fd5b50565b6000813590506131b38161318d565b92915050565b600060e082840312156131cf576131ce61307a565b5b6131d960e0612d64565b9050600082013567ffffffffffffffff8111156131f9576131f861307f565b5b613205848285016130f7565b600083015250602082013567ffffffffffffffff8111156132295761322861307f565b5b613235848285016130f7565b60208301525060406132498482850161316e565b604083015250606082013567ffffffffffffffff81111561326d5761326c61307f565b5b613279848285016130f7565b606083015250608061328d848285016131a4565b60808301525060a082013567ffffffffffffffff8111156132b1576132b061307f565b5b6132bd848285016130f7565b60a08301525060c082013567ffffffffffffffff8111156132e1576132e061307f565b5b6132ed848285016130f7565b60c08301525092915050565b60006020828403121561330f5761330e612bee565b5b600082013567ffffffffffffffff81111561332d5761332c612bf3565b5b613339848285016131b9565b91505092915050565b60006020828403121561335857613357612bee565b5b600061336684828501612cd4565b91505092915050565b600080fd5b600060a0828403121561338a5761338961336f565b5b81905092915050565b6000602082840312156133a9576133a8612bee565b5b600082013567ffffffffffffffff8111156133c7576133c6612bf3565b5b6133d384828501613374565b91505092915050565b6133e581613183565b82525050565b600060208201905061340060008301846133dc565b92915050565b60006080828403121561341c5761341b61307a565b5b6134266080612d64565b9050600082013567ffffffffffffffff8111156134465761344561307f565b5b613452848285016130f7565b6000830152506020613466848285016131a4565b602083015250604082013567ffffffffffffffff81111561348a5761348961307f565b5b613496848285016130f7565b60408301525060606134aa848285016131a4565b60608301525092915050565b6000602082840312156134cc576134cb612bee565b5b600082013567ffffffffffffffff8111156134ea576134e9612bf3565b5b6134f684828501613406565b91505092915050565b60008060008060008060c0878903121561351c5761351b612bee565b5b600061352a89828a01612ee5565b965050602061353b89828a0161316e565b955050604061354c89828a0161316e565b945050606061355d89828a016131a4565b935050608087013567ffffffffffffffff81111561357e5761357d612bf3565b5b61358a89828a016130f7565b92505060a087013567ffffffffffffffff8111156135ab576135aa612bf3565b5b6135b789828a01612e01565b9150509295509295509295565b6135cd81613145565b82525050565b60006020820190506135e860008301846135c4565b92915050565b6000806040838503121561360557613604612bee565b5b600061361385828601612ee5565b92505060206136248582860161316e565b9150509250929050565b60006020828403121561364457613643612bee565b5b600082013567ffffffffffffffff81111561366257613661612bf3565b5b61366e848285016130f7565b91505092915050565b6000806040838503121561368e5761368d612bee565b5b600083013567ffffffffffffffff8111156136ac576136ab612bf3565b5b6136b8858286016130f7565b92505060206136c98582860161316e565b9150509250929050565b600067ffffffffffffffff8211156136ee576136ed612d04565b5b602082029050602081019050919050565b600080fd5b6000613717613712846136d3565b612d64565b9050808382526020820190506020840283018581111561373a576137396136ff565b5b835b8181101561378157803567ffffffffffffffff81111561375f5761375e612ce9565b5b80860161376c89826130f7565b8552602085019450505060208101905061373c565b5050509392505050565b600082601f8301126137a05761379f612ce9565b5b81356137b0848260208601613704565b91505092915050565b600060ff82169050919050565b6137cf816137b9565b81146137da57600080fd5b50565b6000813590506137ec816137c6565b92915050565b6000806000806080858703121561380c5761380b612bee565b5b600061381a8782880161316e565b945050602085013567ffffffffffffffff81111561383b5761383a612bf3565b5b6138478782880161378b565b935050604085013567ffffffffffffffff81111561386857613867612bf3565b5b613874878288016130f7565b9250506060613885878288016137dd565b91505092959194509250565b6000602082840312156138a7576138a6612bee565b5b60006138b58482850161316e565b91505092915050565b7f496e76616c696420706c616e0000000000000000000000000000000000000000600082015250565b60006138f4600c83612f7b565b91506138ff826138be565b602082019050919050565b60006020820190508181036000830152613923816138e7565b9050919050565b7f496e73756666696369656e742066756e64730000000000000000000000000000600082015250565b6000613960601283612f7b565b915061396b8261392a565b602082019050919050565b6000602082019050818103600083015261398f81613953565b9050919050565b7f4e487b7100000000000000000000000000000000000000000000000000000000600052602260045260246000fd5b600060028204905060018216806139dd57607f821691505b6020821081036139f0576139ef613996565b5b50919050565b60008190508160005260206000209050919050565b60006020601f8301049050919050565b600082821b905092915050565b600060088302613a587fffffffffffffffffffffffffffffffffffffffffffffffffffffffffffffffff82613a1b565b613a628683613a1b565b95508019841693508086168417925050509392505050565b6000819050919050565b6000613a9f613a9a613a9584613183565b613a7a565b613183565b9050919050565b6000819050919050565b613ab983613a84565b613acd613ac582613aa6565b848454613a28565b825550505050565b600090565b613ae2613ad5565b613aed818484613ab0565b505050565b5b81811015613b1157613b06600082613ada565b600181019050613af3565b5050565b601f821115613b5657613b27816139f6565b613b3084613a0b565b81016020851015613b3f578190505b613b53613b4b85613a0b565b830182613af2565b50505b505050565b600082821c905092915050565b6000613b7960001984600802613b5b565b1980831691505092915050565b6000613b928383613b68565b9150826002028217905092915050565b613bab82612f70565b67ffffffffffffffff811115613bc457613bc3612d04565b5b613bce82546139c5565b613bd9828285613b15565b600060209050601f831160018114613c0c5760008415613bfa578287015190505b613c048582613b86565b865550613c6c565b601f198416613c1a866139f6565b60005b82811015613c4257848901518255600182019150602085019450602081019050613c1d565b86831015613c5f5784890151613c5b601f891682613b68565b8355505b6001600288020188555050505b505050505050565b600061010082019050613c8a600083018b6135c4565b8181036020830152613c9c818a612fb6565b90508181036040830152613cb08189612fb6565b90508181036060830152613cc48188612fb6565b9050613cd360808301876133dc565b613ce060a08301866135c4565b81810360c0830152613cf28185612fb6565b905081810360e0830152613d068184612fb6565b90509998505050505050505050565b600067ffffffffffffffff821115613d3057613d2f612d04565b5b602082029050602081019050919050565b600060408284031215613d5757613d5661307a565b5b613d616040612d64565b90506000613d718482850161316e565b6000830152506020613d85848285016131a4565b60208301525092915050565b6000613da4613d9f84613d15565b612d64565b90508083825260208201905060408402830185811115613dc757613dc66136ff565b5b835b81811015613df05780613ddc8882613d41565b845260208401935050604081019050613dc9565b5050509392505050565b600082601f830112613e0f57613e0e612ce9565b5b8135613e1f848260208601613d91565b91505092915050565b600060a08284031215613e3e57613e3d61307a565b5b613e4860a0612d64565b90506000613e5884828501612cd4565b6000830152506020613e6c84828501612ee5565b602083015250604082013567ffffffffffffffff811115613e9057613e8f61307f565b5b613e9c84828501612e01565b604083015250606082013567ffffffffffffffff811115613ec057613ebf61307f565b5b613ecc84828501612e01565b606083015250608082013567ffffffffffffffff811115613ef057613eef61307f565b5b613efc84828501613dfa565b60808301525092915050565b6000613f143683613e28565b9050919050565b7f4e487b7100000000000000000000000000000000000000000000000000000000600052601160045260246000fd5b6000613f5582613183565b91507fffffffffffffffffffffffffffffffffffffffffffffffffffffffffffffffff8203613f8757613f86613f1b565b5b600182019050919050565b600060a082019050613fa760008301886133dc565b8181036020830152613fb98187612fb6565b9050613fc860408301866133dc565b8181036060830152613fda8185612fb6565b9050613fe960808301846133dc565b9695505050505050565b7f436861696e206e6f7420737570706f7274656400000000000000000000000000600082015250565b6000614029601383612f7b565b915061403482613ff3565b602082019050919050565b600060208201905081810360008301526140588161401c565b9050919050565b600081519050919050565b600082825260208201905092915050565b60006140868261405f565b614090818561406a565b93506140a0818560208601612f8c565b6140a981612cf3565b840191505092915050565b600060a0820190506140c960008301886135c4565b6140d660208301876135c4565b6140e360408301866133dc565b81810360608301526140f58185612fb6565b90508181036080830152614109818461407b565b90509695505050505050565b61411e81612eba565b82525050565b600082825260208201905092915050565b60006141408261405f565b61414a8185614124565b935061415a818560208601612f8c565b61416381612cf3565b840191505092915050565b600081519050919050565b600082825260208201905092915050565b6000819050602082019050919050565b6141a381613145565b82525050565b6141b281613183565b82525050565b6040820160008201516141ce600085018261419a565b5060208201516141e160208501826141a9565b50505050565b60006141f383836141b8565b60408301905092915050565b6000602082019050919050565b60006142178261416e565b6142218185614179565b935061422c8361418a565b8060005b8381101561425d57815161424488826141e7565b975061424f836141ff565b925050600181019050614230565b5085935050505092915050565b600060a08301600083015184820360008601526142878282614135565b915050602083015184820360208601526142a18282614135565b915050604083015184820360408601526142bb828261420c565b91505060608301516142d0606086018261419a565b50608083015184820360808601526142e88282614135565b9150508091505092915050565b600060408201905061430a6000830185614115565b818103602083015261431c818461426a565b90509392505050565b6000815190506143348161318d565b92915050565b6000602082840312156143505761434f612bee565b5b600061435e84828501614325565b91505092915050565b7f496e73756666696369656e742066656500000000000000000000000000000000600082015250565b600061439d601083612f7b565b91506143a882614367565b602082019050919050565b600060208201905081810360008301526143cc81614390565b9050919050565b6000815190506143e281612cbd565b92915050565b6000602082840312156143fe576143fd612bee565b5b600061440c848285016143d3565b91505092915050565b7f556e417574686f72697a65640000000000000000000000000000000000000000600082015250565b600061444b600c83612f7b565b915061445682614415565b602082019050919050565b6000602082019050818103600083015261447a8161443e565b9050919050565b600060408201905061449660008301856135c4565b81810360208301526144a88184612fb6565b90509392505050565b7f546f6f206d616e79206174747269627574657300000000000000000000000000600082015250565b60006144e7601383612f7b565b91506144f2826144b1565b602082019050919050565b60006020820190508181036000830152614516816144da565b9050919050565b7f47616d65204e6f7420466f756e64000000000000000000000000000000000000600082015250565b6000614553600e83612f7b565b915061455e8261451d565b602082019050919050565b6000602082019050818103600083015261458281614546565b9050919050565b600081519050919050565b600082825260208201905092915050565b6000819050602082019050919050565b600082825260208201905092915050565b60006145d182612f70565b6145db81856145b5565b93506145eb818560208601612f8c565b6145f481612cf3565b840191505092915050565b600061460b83836145c6565b905092915050565b6000602082019050919050565b600061462b82614589565b6146358185614594565b935083602082028501614647856145a5565b8060005b85811015614683578484038952815161466485826145ff565b945061466f83614613565b925060208a0199505060018101905061464b565b50829750879550505050505092915050565b600082825260208201905092915050565b7f2c00000000000000000000000000000000000000000000000000000000000000600082015250565b60006146dc600183614695565b91506146e7826146a6565b602082019050919050565b6000604082019050818103600083015261470c8184614620565b9050818103602083015261471f816146cf565b905092915050565b600061473a61473584613084565b612d64565b90508281526020810184848401111561475657614755612cee565b5b614761848285612f8c565b509392505050565b600082601f83011261477e5761477d612ce9565b5b815161478e848260208601614727565b91505092915050565b6000602082840312156147ad576147ac612bee565b5b600082015167ffffffffffffffff8111156147cb576147ca612bf3565b5b6147d784828501614769565b91505092915050565b7f4e487b7100000000000000000000000000000000000000000000000000000000600052603260045260246000fd5b61481881612cb3565b82525050565b6000604082019050614833600083018561480f565b61484060208301846135c4565b9392505050565b7f4f776e61626c653a206e6577206f776e657220697320746865207a65726f206160008201527f6464726573730000000000000000000000000000000000000000000000000000602082015250565b60006148a3602683612f7b565b91506148ae82614847565b604082019050919050565b600060208201905081810360008301526148d281614896565b9050919050565b600060408201905081810360008301526148f3818561407b565b90508181036020830152614907818461407b565b90509392505050565b6000604082019050614925600083018561480f565b8181036020830152614937818461407b565b90509392505050565b7f416c72656164792066756c66696c6c6564000000000000000000000000000000600082015250565b6000614976601183612f7b565b915061498182614940565b602082019050919050565b600060208201905081810360008301526149a581614969565b9050919050565b50565b60006149bc600083612f7b565b91506149c7826149ac565b600082019050919050565b60006040820190506149e760008301846135c4565b81810360208301526149f8816149af565b905092915050565b7f4f776e61626c653a2063616c6c6572206973206e6f7420746865206f776e6572600082015250565b6000614a36602083612f7b565b9150614a4182614a00565b602082019050919050565b60006020820190508181036000830152614a6581614a29565b9050919050565b6000614a7782613125565b9050919050565b614a8781614a6c565b8114614a9257600080fd5b50565b600081519050614aa481614a7e565b92915050565b6000614abd614ab884612d7f565b612d64565b905082815260208101848484011115614ad957614ad8612cee565b5b614ae4848285612f8c565b509392505050565b600082601f830112614b0157614b00612ce9565b5b8151614b11848260208601614aaa565b91505092915050565b600080600080600060a08688031215614b3657614b35612bee565b5b6000614b4488828901614a95565b9550506020614b5588828901614a95565b9450506040614b6688828901614325565b935050606086015167ffffffffffffffff811115614b8757614b86612bf3565b5b614b9388828901614769565b925050608086015167ffffffffffffffff811115614bb457614bb3612bf3565b5b614bc088828901614aec565b9150509295509295909350565b600060c082019050614be26000830189614115565b614bef60208301886135c4565b614bfc60408301876135c4565b614c0960608301866133dc565b8181036080830152614c1b8185612fb6565b905081810360a0830152614c2f818461407b565b9050979650505050505050565b614c4581612c7d565b82525050565b604082016000820151614c6160008501826141a9565b506020820151614c746020850182614c3c565b50505050565b6000604082019050614c8f6000830184614c4b565b92915050565b7f4e487b7100000000000000000000000000000000000000000000000000000000600052601260045260246000fd5b7f4e487b7100000000000000000000000000000000000000000000000000000000600052602160045260246000fd5b600061ffff82169050919050565b614d0a81614cf3565b82525050565b614d1981613011565b82525050565b600060a082019050614d346000830188614115565b8181036020830152614d46818761407b565b9050614d556040830186614d01565b614d626060830185614d10565b614d6f608083018461480f565b9695505050505050565b6000614d8482613183565b9150614d8f83613183565b9250828202614d9d81613183565b91508282048414831517614db457614db3613f1b565b5b5092915050565b6000614dc682613183565b9150614dd183613183565b9250828201905080821115614de957614de8613f1b565b5b92915050565b6000614dfa82613183565b915060008203614e0d57614e0c613f1b565b5b600182039050919050565b7f537472696e67733a20686578206c656e67746820696e73756666696369656e74600082015250565b6000614e4e602083612f7b565b9150614e5982614e18565b602082019050919050565b60006020820190508181036000830152614e7d81614e41565b9050919050565b6000614e8f82613183565b9150614e9a83613183565b9250828203905081811115614eb257614eb1613f1b565b5b92915050565b6000614ec382613183565b9150614ece83613183565b925082614ede57614edd614c95565b5b828206905092915050565b60008160011c9050919050565b6000808291508390505b6001851115614f4057808604811115614f1c57614f1b613f1b565b5b6001851615614f2b5780820291505b8081029050614f3985614ee9565b9450614f00565b94509492505050565b600082614f595760019050615015565b81614f675760009050615015565b8160018114614f7d5760028114614f8757614fb6565b6001915050615015565b60ff841115614f9957614f98613f1b565b5b8360020a915084821115614fb057614faf613f1b565b5b50615015565b5060208310610133831016604e8410600b8410161715614feb5782820a905083811115614fe657614fe5613f1b565b5b615015565b614ff88484846001614ef6565b9250905081840481111561500f5761500e613f1b565b5b81810290505b9392505050565b600061502782613183565b915061503283613183565b925061505f7fffffffffffffffffffffffffffffffffffffffffffffffffffffffffffffffff8484614f49565b90509291505056fea26469706673582212207209cabd2e31648218413a47b5c4addaedfea6c39f20346aad340aaae95a94ca64736f6c63430008130033",
  "immutableReferences": {
    "14": [
      {
        "length": 32,
        "start": 2259
      },
      {
        "length": 32,
        "start": 3763
      }
    ],
    "5186": [
      {
        "length": 32,
        "start": 1328
      },
      {
        "length": 32,
        "start": 8310
      }
    ]
  },
  "source": "// SPDX-License-Identifier: MIT\r\npragma solidity ^0.8.19;\r\n\r\nimport {Assets} from \"./libraries/Assets.sol\";\r\nimport {Params} from \"./libraries/Params.sol\";\r\nimport {IKanvasAvax} from \"./interfaces/IKanvasAvax.sol\";\r\nimport {IKanvasGame} from \"./interfaces/IKanvasGame.sol\";\r\nimport {IKanvasInteropGame} from \"./interfaces/IKanvasInteropGame.sol\";\r\nimport {StringJoiner} from \"./libraries/StringJoiner.sol\";\r\n\r\nimport {Strings} from \"@openzeppelin/contracts/utils/Strings.sol\";\r\nimport {Ownable} from \"@openzeppelin/contracts/access/Ownable.sol\";\r\nimport {Context} from \"@openzeppelin/contracts/utils/Context.sol\";\r\n\r\nimport {FunctionsClient} from \"./FunctionsClient.sol\";\r\nimport {FunctionsRequest} from \"@chainlink/contracts/src/v0.8/functions/dev/v1_0_0/libraries/FunctionsRequest.sol\";\r\n\r\nimport {Client} from \"@chainlink/contracts-ccip/src/v0.8/ccip/libraries/Client.sol\";\r\nimport {CCIPReceiver} from \"@chainlink/contracts-ccip/src/v0.8/ccip/applications/CCIPReceiver.sol\";\r\nimport {IRouterClient} from \"@chainlink/contracts-ccip/src/v0.8/ccip/interfaces/IRouterClient.sol\";\r\n\r\ncontract KanvasAvax is\r\n    IKanvasAvax,\r\n    Context,\r\n    CCIPReceiver,\r\n    FunctionsClient,\r\n    Ownable\r\n{\r\n    using FunctionsRequest for FunctionsRequest.Request;\r\n\r\n    uint64 private constant AVAX_SELECTOR = 14767482510784806043;\r\n    uint256 public constant MAX_PROPERTIES_LEN = 20;\r\n    uint256 public constant MAX_TEMPLATES_LEN = 5;\r\n\r\n    string private _sourceCode;\r\n    uint32 private _gasLimit = 70_000;\r\n    uint64 private _subscriptionId = 1580;\r\n    bytes32 private _donId =\r\n        0x66756e2d6176616c616e6368652d66756a692d31000000000000000000000000;\r\n\r\n    uint256 private _planId;\r\n    mapping(uint256 => Assets.Plan) private _plans;\r\n\r\n    mapping(address => Assets.Game) private _games;\r\n\r\n    mapping(bytes32 => Assets.Request) private _requests;\r\n\r\n    mapping(uint64 => address) private _interops;\r\n\r\n    IRouterClient private _router;\r\n\r\n    constructor(\r\n        address ccipReceiver,\r\n        address functionOracle\r\n    ) CCIPReceiver(ccipReceiver) Ownable() FunctionsClient(functionOracle) {\r\n        _router = IRouterClient(getRouter());\r\n    }\r\n\r\n    function updateDonId(bytes32 newDonId) external onlyOwner {\r\n        _donId = newDonId;\r\n    }\r\n\r\n    function updateSourceCode(string memory newSourceCode) external onlyOwner {\r\n        _sourceCode = newSourceCode;\r\n    }\r\n\r\n    function updateGasLimit(uint32 newLimit) external onlyOwner {\r\n        _gasLimit = newLimit;\r\n    }\r\n\r\n    function updateSubscriptionId(uint64 newSubscriptionId) external onlyOwner {\r\n        _subscriptionId = newSubscriptionId;\r\n    }\r\n\r\n    function createGame(Params.Game memory params) external payable {\r\n        require(_plans[params.plan].limit != 0, \"Invalid plan\");\r\n        require(msg.value == _plans[params.plan].cost, \"Insufficient funds\");\r\n\r\n        _games[params.gameId] = Assets.Game({\r\n            name: params.name,\r\n            description: params.description,\r\n            avatar: params.avatar,\r\n            plan: params.plan,\r\n            creator: _msgSender()\r\n        });\r\n\r\n        emit GameCreated(\r\n            params.gameId,\r\n            params.name,\r\n            params.description,\r\n            params.avatar,\r\n            params.plan,\r\n            _msgSender(),\r\n            params.email,\r\n            params.website\r\n        );\r\n    }\r\n\r\n    function addTemplate(string memory templateUri, address gameId) external {\r\n        address creator = _msgSender();\r\n\r\n        Assets.Game storage game = _games[gameId];\r\n\r\n        require(game.creator == creator, \"UnAuthorized\");\r\n\r\n        emit TemplateAdded(gameId, templateUri);\r\n    }\r\n\r\n    function _generateUri(\r\n        address playerId,\r\n        string[] memory props,\r\n        string memory fields,\r\n        uint8 templateId\r\n    ) external override {\r\n        require(props.length <= MAX_PROPERTIES_LEN, \"Too many attributes\");\r\n\r\n        address gameId = _msgSender();\r\n        require(_games[gameId].creator != address(0), \"Game Not Found\");\r\n\r\n        string[] memory args = new string[](5);\r\n        args[0] = StringJoiner.joinStrings(props, \",\");\r\n        args[1] = fields;\r\n        args[2] = Strings.toHexString(gameId);\r\n        args[3] = Strings.toHexString(playerId);\r\n        args[4] = Strings.toString(templateId);\r\n\r\n        // Initialize the request\r\n        FunctionsRequest.Request memory req;\r\n\r\n        // Soucre code\r\n        req.initializeRequestForInlineJavaScript(_sourceCode);\r\n\r\n        // Add arguments\r\n        req.setArgs(args);\r\n\r\n        bytes32 requestId = _sendRequest(\r\n            req.encodeCBOR(),\r\n            _subscriptionId,\r\n            _gasLimit,\r\n            _donId\r\n        );\r\n\r\n        _requests[requestId] = Assets.Request({\r\n            gameId: gameId,\r\n            playerId: playerId,\r\n            fulfilled: false\r\n        });\r\n\r\n        emit RequestSent(requestId, gameId);\r\n    }\r\n\r\n    function updateInterop(\r\n        uint64 chainSelector,\r\n        address kanvasRouter\r\n    ) external onlyOwner {\r\n        _interops[chainSelector] = kanvasRouter;\r\n    }\r\n\r\n    /** Receive the response in the form of string  */\r\n    function fulfillRequest(\r\n        bytes32 requestId,\r\n        bytes memory response,\r\n        bytes memory err\r\n    ) internal override {\r\n        emit OCRResponse(requestId, response, err);\r\n\r\n        if (err.length > 0) {\r\n            emit FulfullFailed(requestId, err);\r\n            return;\r\n        }\r\n\r\n        // string memory URI = string(response);\r\n\r\n        Assets.Request storage request = _requests[requestId];\r\n        require(!request.fulfilled, \"Already fulfilled\");\r\n\r\n        // if (Strings.equal(URI, \"NULL\")) {\r\n        // emit FulfullFailed(requestId, response);\r\n        // return;\r\n        // }\r\n\r\n        request.fulfilled = true;\r\n\r\n        require(_games[request.gameId].creator != address(0), \"Game Not Found\");\r\n\r\n        IKanvasGame game = IKanvasGame(request.gameId);\r\n        game._receiveUri(request.playerId, \"\");\r\n\r\n        emit FulfullSuccess(requestId, response);\r\n    }\r\n\r\n    function test(bytes memory response) external pure returns (string memory) {\r\n        return string(response);\r\n    }\r\n\r\n    function _transferTo(\r\n        uint64 chainSelector,\r\n        address gameId,\r\n        address playerId,\r\n        uint256 tokenId,\r\n        string memory uri,\r\n        bytes memory data\r\n    ) external payable {\r\n        require(_interops[chainSelector] != address(0), \"Chain not supported\");\r\n\r\n        // Create an EVM2AnyMessage struct in memory with necessary information for sending a cross-chain message\r\n        Client.EVM2AnyMessage memory message = Client.EVM2AnyMessage({\r\n            // ABI-encoded receiver address\r\n            receiver: abi.encode(_interops[chainSelector]),\r\n            // ABI-encoded string message\r\n            data: abi.encode(gameId, playerId, tokenId, uri, data),\r\n            // Empty array indicating no tokens are being sent\r\n            tokenAmounts: new Client.EVMTokenAmount[](0),\r\n            // Additional arguments, setting gas limit and non-strict sequency mode\r\n            extraArgs: Client._argsToBytes(\r\n                Client.EVMExtraArgsV1({gasLimit: 400_000, strict: false})\r\n            ),\r\n            // Setting feeToken to zero address, indicating native asset will be used for fees\r\n            feeToken: address(0)\r\n        });\r\n\r\n        // Get the fee required to send the message\r\n        uint256 fees = _router.getFee(AVAX_SELECTOR, message);\r\n\r\n        require(msg.value >= fees, \"Insufficient fee\");\r\n\r\n        // Send the message through the router and store the returned message ID\r\n        _router.ccipSend{value: fees}(AVAX_SELECTOR, message);\r\n    }\r\n\r\n    // handle a received message\r\n    function _ccipReceive(\r\n        Client.Any2EVMMessage memory message\r\n    ) internal override {\r\n        (\r\n            address gameId,\r\n            address playerId,\r\n            uint256 tokenId,\r\n            string memory uri,\r\n            bytes memory data\r\n        ) = abi.decode(\r\n                message.data,\r\n                (address, address, uint256, string, bytes)\r\n            );\r\n\r\n        IKanvasInteropGame game = IKanvasInteropGame(gameId);\r\n        game._receiveFrom(\r\n            message.sourceChainSelector,\r\n            gameId,\r\n            playerId,\r\n            tokenId,\r\n            uri,\r\n            data\r\n        );\r\n    }\r\n\r\n    /** Create plans */\r\n    function createPlan(Params.Plan memory params) external onlyOwner {\r\n        _planId++;\r\n\r\n        _plans[_planId] = Assets.Plan({\r\n            name: params.name,\r\n            cost: params.cost,\r\n            color: params.color,\r\n            limit: params.limit\r\n        });\r\n\r\n        emit PlanCreated(\r\n            _planId,\r\n            params.name,\r\n            params.cost,\r\n            params.color,\r\n            params.limit\r\n        );\r\n    }\r\n}\r\n",
  "sourcePath": "C:\\Users\\DELL\\Documents\\kanvas\\blockchain\\contracts\\KanvasAvax.sol",
  "compiler": {
    "name": "solc",
    "version": "0.8.19+commit.7dd6d404.Emscripten.clang"
  },
  "schemaVersion": "3.4.11",
  "updatedAt": "2023-12-05T11:11:53.804Z",
  "networkType": "ethereum",
  "devdoc": {
    "kind": "dev",
    "methods": {
      "ccipReceive((bytes32,uint64,bytes,bytes,(address,uint256)[]))": {
        "details": "Note ensure you check the msg.sender is the OffRampRouter",
        "params": {
          "message": "CCIP Message"
        }
      },
      "getRouter()": {
        "returns": {
          "_0": "i_router address"
        }
      },
      "handleOracleFulfillment(bytes32,bytes,bytes)": {
        "details": "Either response or error parameter will be set, but never both.",
        "params": {
          "err": "Aggregated error either from the request's source code or from the execution pipeline.",
          "requestId": "The requestId returned by FunctionsClient.sendRequest().",
          "response": "Aggregated response from the request's source code."
        }
      },
      "owner()": {
        "details": "Returns the address of the current owner."
      },
      "renounceOwnership()": {
        "details": "Leaves the contract without owner. It will not be possible to call `onlyOwner` functions. Can only be called by the current owner. NOTE: Renouncing ownership will leave the contract without an owner, thereby disabling any functionality that is only available to the owner."
      },
      "supportsInterface(bytes4)": {
        "params": {
          "interfaceId": "The interfaceId to check"
        },
        "returns": {
          "_0": "true if the interfaceId is supported"
        }
      },
      "transferOwnership(address)": {
        "details": "Transfers ownership of the contract to a new account (`newOwner`). Can only be called by the current owner."
      }
    },
    "version": 1
  },
  "userdoc": {
    "kind": "user",
    "methods": {
      "ccipReceive((bytes32,uint64,bytes,bytes,(address,uint256)[]))": {
        "notice": "Called by the Router to deliver a message. If this reverts, any token transfers also revert. The message will move to a FAILED state and become available for manual execution."
      },
      "createPlan((string,uint256,string,uint256))": {
        "notice": "Create plans "
      },
      "getRouter()": {
        "notice": "Return the current router"
      },
      "handleOracleFulfillment(bytes32,bytes,bytes)": {
        "notice": "Chainlink Functions response handler called by the Functions Router during fullilment from the designated transmitter node in an OCR round."
      },
      "supportsInterface(bytes4)": {
        "notice": "IERC165 supports an interfaceId"
      }
    },
    "version": 1
  }
}